{
  "_format": "hh-sol-artifact-1",
  "contractName": "Executables",
  "sourceName": "contracts/Executables.sol",
  "abi": [
    {
      "inputs": [
        {
          "internalType": "address[]",
          "name": "_targets",
          "type": "address[]"
        },
        {
          "internalType": "string[]",
          "name": "_functionSignatures",
          "type": "string[]"
        },
        {
          "internalType": "bytes[]",
          "name": "_encodedParameters",
          "type": "bytes[]"
        },
        {
          "internalType": "uint256[]",
          "name": "_values",
          "type": "uint256[]"
        },
        {
          "internalType": "string",
          "name": "_description",
          "type": "string"
        }
      ],
      "name": "createExe",
      "outputs": [
        {
          "internalType": "bytes32",
          "name": "exeID",
          "type": "bytes32"
        }
      ],
      "stateMutability": "nonpayable",
      "type": "function"
    },
    {
      "inputs": [
        {
          "internalType": "bytes32",
          "name": "_exeID",
          "type": "bytes32"
        }
      ],
      "name": "getExe",
      "outputs": [
        {
          "internalType": "address[]",
          "name": "targets",
          "type": "address[]"
        },
        {
          "internalType": "bytes[]",
          "name": "callData",
          "type": "bytes[]"
        },
        {
          "internalType": "uint256[]",
          "name": "values",
          "type": "uint256[]"
        }
      ],
      "stateMutability": "view",
      "type": "function"
    },
    {
      "inputs": [
        {
          "internalType": "address[]",
          "name": "_targets",
          "type": "address[]"
        },
        {
          "internalType": "uint256[]",
          "name": "_values",
          "type": "uint256[]"
        },
        {
          "internalType": "bytes[]",
          "name": "_callData",
          "type": "bytes[]"
        },
        {
          "internalType": "string",
          "name": "_description",
          "type": "string"
        }
      ],
      "name": "getExeId",
      "outputs": [
        {
          "internalType": "bytes32",
          "name": "",
          "type": "bytes32"
        }
      ],
      "stateMutability": "pure",
      "type": "function"
    },
    {
      "inputs": [
        {
          "internalType": "bytes32",
          "name": "_exeID",
          "type": "bytes32"
        }
      ],
      "name": "getExeInfo",
      "outputs": [
        {
          "internalType": "address[]",
          "name": "targets",
          "type": "address[]"
        },
        {
          "internalType": "bytes[]",
          "name": "callData",
          "type": "bytes[]"
        },
        {
          "internalType": "uint256[]",
          "name": "values",
          "type": "uint256[]"
        },
        {
          "internalType": "string",
          "name": "description",
          "type": "string"
        },
        {
          "internalType": "address",
          "name": "creator",
          "type": "address"
        }
      ],
      "stateMutability": "view",
      "type": "function"
    }
  ],
  "bytecode": "0x608060405234801561001057600080fd5b50611eec806100206000396000f3fe608060405234801561001057600080fd5b506004361061004c5760003560e01c80630ee476bc14610051578063184b9ce514610081578063971aa75e146100b1578063e0751326146100e3575b600080fd5b61006b60048036038101906100669190611399565b610117565b60405161007891906118a1565b60405180910390f35b61009b6004803603810190610096919061127c565b610150565b6040516100a891906118a1565b60405180910390f35b6100cb60048036038101906100c69190611470565b61062c565b6040516100da93929190611785565b60405180910390f35b6100fd60048036038101906100f89190611470565b610821565b60405161010e9594939291906117d1565b60405180910390f35b6000848484846040516020016101309493929190611840565b604051602081830303815290604052805190602001209050949350505050565b6000888890508b8b905014801561016c5750868690508b8b9050145b801561017d5750848490508b8b9050145b6101bc576040517f08c379a00000000000000000000000000000000000000000000000000000000081526004016101b3906118bc565b60405180910390fd5b60008b8b905067ffffffffffffffff8111156101db576101da611db2565b5b60405190808252806020026020018201604052801561020e57816020015b60608152602001906001900390816101f95790505b50905060005b8c8c90508110156102d1578a8a8281811061023257610231611d83565b5b9050602002810190610244919061195f565b60405161025292919061176c565b604051809103902089898381811061026d5761026c611d83565b5b905060200281019061027f91906118fc565b60405160200161029193929190611742565b6040516020818303038152906040528282815181106102b3576102b2611d83565b5b602002602001018190525080806102c990611cd2565b915050610214565b506103a48c8c80806020026020016040519081016040528093929190818152602001838360200280828437600081840152601f19601f82011690508083019250505050505050878780806020026020016040519081016040528093929190818152602001838360200280828437600081840152601f19601f820116905080830192505050505050508387878080601f016020809104026020016040519081016040528093929190818152602001838380828437600081840152601f19601f82011690508083019250505050505050610117565b9150600073ffffffffffffffffffffffffffffffffffffffff1660008084815260200190815260200160002060040160009054906101000a900473ffffffffffffffffffffffffffffffffffffffff1673ffffffffffffffffffffffffffffffffffffffff161461044a576040517f08c379a0000000000000000000000000000000000000000000000000000000008152600401610441906118dc565b60405180910390fd5b6040518060a001604052808d8d80806020026020016040519081016040528093929190818152602001838360200280828437600081840152601f19601f820116905080830192505050505050508152602001878780806020026020016040519081016040528093929190818152602001838360200280828437600081840152601f19601f82011690508083019250505050505050815260200182815260200185858080601f016020809104026020016040519081016040528093929190818152602001838380828437600081840152601f19601f8201169050808301925050505050505081526020013373ffffffffffffffffffffffffffffffffffffffff16815250600080848152602001908152602001600020600082015181600001908051906020019061057b929190610af3565b506020820151816001019080519060200190610598929190610b7d565b5060408201518160020190805190602001906105b5929190610bca565b5060608201518160030190805190602001906105d2929190610c2a565b5060808201518160040160006101000a81548173ffffffffffffffffffffffffffffffffffffffff021916908373ffffffffffffffffffffffffffffffffffffffff160217905550905050509a9950505050505050505050565b60608060606000808581526020019081526020016000206000018054806020026020016040519081016040528092919081815260200182805480156106c657602002820191906000526020600020905b8160009054906101000a900473ffffffffffffffffffffffffffffffffffffffff1673ffffffffffffffffffffffffffffffffffffffff168152602001906001019080831161067c575b50505050509250600080858152602001908152602001600020600201805480602002602001604051908101604052809291908181526020016000905b828210156107ae57838290600052602060002001805461072190611c6f565b80601f016020809104026020016040519081016040528092919081815260200182805461074d90611c6f565b801561079a5780601f1061076f5761010080835404028352916020019161079a565b820191906000526020600020905b81548152906001019060200180831161077d57829003601f168201915b505050505081526020019060010190610702565b50505050915060008085815260200190815260200160002060010180548060200260200160405190810160405280929190818152602001828054801561081357602002820191906000526020600020905b8154815260200190600101908083116107ff575b505050505090509193909250565b60608060608060008060008781526020019081526020016000206000018054806020026020016040519081016040528092919081815260200182805480156108be57602002820191906000526020600020905b8160009054906101000a900473ffffffffffffffffffffffffffffffffffffffff1673ffffffffffffffffffffffffffffffffffffffff1681526020019060010190808311610874575b50505050509450600080878152602001908152602001600020600201805480602002602001604051908101604052809291908181526020016000905b828210156109a657838290600052602060002001805461091990611c6f565b80601f016020809104026020016040519081016040528092919081815260200182805461094590611c6f565b80156109925780601f1061096757610100808354040283529160200191610992565b820191906000526020600020905b81548152906001019060200180831161097557829003601f168201915b5050505050815260200190600101906108fa565b505050509350600080878152602001908152602001600020600101805480602002602001604051908101604052809291908181526020018280548015610a0b57602002820191906000526020600020905b8154815260200190600101908083116109f7575b505050505092506000808781526020019081526020016000206003018054610a3290611c6f565b80601f0160208091040260200160405190810160405280929190818152602001828054610a5e90611c6f565b8015610aab5780601f10610a8057610100808354040283529160200191610aab565b820191906000526020600020905b815481529060010190602001808311610a8e57829003601f168201915b5050505050915060008087815260200190815260200160002060040160009054906101000a900473ffffffffffffffffffffffffffffffffffffffff16905091939590929450565b828054828255906000526020600020908101928215610b6c579160200282015b82811115610b6b5782518260006101000a81548173ffffffffffffffffffffffffffffffffffffffff021916908373ffffffffffffffffffffffffffffffffffffffff16021790555091602001919060010190610b13565b5b509050610b799190610cb0565b5090565b828054828255906000526020600020908101928215610bb9579160200282015b82811115610bb8578251825591602001919060010190610b9d565b5b509050610bc69190610cb0565b5090565b828054828255906000526020600020908101928215610c19579160200282015b82811115610c18578251829080519060200190610c08929190610ccd565b5091602001919060010190610bea565b5b509050610c269190610d53565b5090565b828054610c3690611c6f565b90600052602060002090601f016020900481019282610c585760008555610c9f565b82601f10610c7157805160ff1916838001178555610c9f565b82800160010185558215610c9f579182015b82811115610c9e578251825591602001919060010190610c83565b5b509050610cac9190610cb0565b5090565b5b80821115610cc9576000816000905550600101610cb1565b5090565b828054610cd990611c6f565b90600052602060002090601f016020900481019282610cfb5760008555610d42565b82601f10610d1457805160ff1916838001178555610d42565b82800160010185558215610d42579182015b82811115610d41578251825591602001919060010190610d26565b5b509050610d4f9190610cb0565b5090565b5b80821115610d735760008181610d6a9190610d77565b50600101610d54565b5090565b508054610d8390611c6f565b6000825580601f10610d955750610db4565b601f016020900490600052602060002090810190610db39190610cb0565b5b50565b6000610dca610dc5846119e7565b6119c2565b90508083825260208201905082856020860282011115610ded57610dec611df5565b5b60005b85811015610e1d5781610e038882610fa9565b845260208401935060208301925050600181019050610df0565b5050509392505050565b6000610e3a610e3584611a13565b6119c2565b90508083825260208201905082856020860282011115610e5d57610e5c611df5565b5b60005b85811015610eab57813567ffffffffffffffff811115610e8357610e82611de6565b5b808601610e9089826111b5565b85526020850194506020840193505050600181019050610e60565b5050509392505050565b6000610ec8610ec384611a3f565b6119c2565b90508083825260208201905082856020860282011115610eeb57610eea611df5565b5b60005b85811015610f1b5781610f018882611267565b845260208401935060208301925050600181019050610eee565b5050509392505050565b6000610f38610f3384611a6b565b6119c2565b905082815260208101848484011115610f5457610f53611dff565b5b610f5f848285611c2d565b509392505050565b6000610f7a610f7584611a9c565b6119c2565b905082815260208101848484011115610f9657610f95611dff565b5b610fa1848285611c2d565b509392505050565b600081359050610fb881611e71565b92915050565b60008083601f840112610fd457610fd3611de6565b5b8235905067ffffffffffffffff811115610ff157610ff0611de1565b5b60208301915083602082028301111561100d5761100c611df5565b5b9250929050565b600082601f83011261102957611028611de6565b5b8135611039848260208601610db7565b91505092915050565b60008083601f84011261105857611057611de6565b5b8235905067ffffffffffffffff81111561107557611074611de1565b5b60208301915083602082028301111561109157611090611df5565b5b9250929050565b600082601f8301126110ad576110ac611de6565b5b81356110bd848260208601610e27565b91505092915050565b60008083601f8401126110dc576110db611de6565b5b8235905067ffffffffffffffff8111156110f9576110f8611de1565b5b60208301915083602082028301111561111557611114611df5565b5b9250929050565b60008083601f84011261113257611131611de6565b5b8235905067ffffffffffffffff81111561114f5761114e611de1565b5b60208301915083602082028301111561116b5761116a611df5565b5b9250929050565b600082601f83011261118757611186611de6565b5b8135611197848260208601610eb5565b91505092915050565b6000813590506111af81611e88565b92915050565b600082601f8301126111ca576111c9611de6565b5b81356111da848260208601610f25565b91505092915050565b60008083601f8401126111f9576111f8611de6565b5b8235905067ffffffffffffffff81111561121657611215611de1565b5b60208301915083600182028301111561123257611231611df5565b5b9250929050565b600082601f83011261124e5761124d611de6565b5b813561125e848260208601610f67565b91505092915050565b60008135905061127681611e9f565b92915050565b60008060008060008060008060008060a08b8d03121561129f5761129e611e09565b5b60008b013567ffffffffffffffff8111156112bd576112bc611e04565b5b6112c98d828e01610fbe565b9a509a505060208b013567ffffffffffffffff8111156112ec576112eb611e04565b5b6112f88d828e016110c6565b985098505060408b013567ffffffffffffffff81111561131b5761131a611e04565b5b6113278d828e01611042565b965096505060608b013567ffffffffffffffff81111561134a57611349611e04565b5b6113568d828e0161111c565b945094505060808b013567ffffffffffffffff81111561137957611378611e04565b5b6113858d828e016111e3565b92509250509295989b9194979a5092959850565b600080600080608085870312156113b3576113b2611e09565b5b600085013567ffffffffffffffff8111156113d1576113d0611e04565b5b6113dd87828801611014565b945050602085013567ffffffffffffffff8111156113fe576113fd611e04565b5b61140a87828801611172565b935050604085013567ffffffffffffffff81111561142b5761142a611e04565b5b61143787828801611098565b925050606085013567ffffffffffffffff81111561145857611457611e04565b5b61146487828801611239565b91505092959194509250565b60006020828403121561148657611485611e09565b5b6000611494848285016111a0565b91505092915050565b60006114a983836114e1565b60208301905092915050565b60006114c1838361167b565b905092915050565b60006114d58383611733565b60208301905092915050565b6114ea81611bbb565b82525050565b6114f981611bbb565b82525050565b600061150a82611afd565b6115148185611b5b565b935061151f83611acd565b8060005b83811015611550578151611537888261149d565b975061154283611b34565b925050600181019050611523565b5085935050505092915050565b600061156882611b08565b6115728185611b6c565b93508360208202850161158485611add565b8060005b858110156115c057848403895281516115a185826114b5565b94506115ac83611b41565b925060208a01995050600181019050611588565b50829750879550505050505092915050565b60006115dd82611b13565b6115e78185611b7d565b93506115f283611aed565b8060005b8381101561162357815161160a88826114c9565b975061161583611b4e565b9250506001810190506115f6565b5085935050505092915050565b61163981611bcd565b82525050565b61165061164b82611bd7565b611d1b565b82525050565b60006116628385611b9f565b935061166f838584611c2d565b82840190509392505050565b600061168682611b1e565b6116908185611b8e565b93506116a0818560208601611c3c565b6116a981611e0e565b840191505092915050565b60006116bf82611b29565b6116c98185611baa565b93506116d9818560208601611c3c565b6116e281611e0e565b840191505092915050565b60006116fa601a83611baa565b915061170582611e1f565b602082019050919050565b600061171d601a83611baa565b915061172882611e48565b602082019050919050565b61173c81611c23565b82525050565b600061174e828661163f565b60048201915061175f828486611656565b9150819050949350505050565b6000611779828486611656565b91508190509392505050565b6000606082019050818103600083015261179f81866114ff565b905081810360208301526117b3818561155d565b905081810360408301526117c781846115d2565b9050949350505050565b600060a08201905081810360008301526117eb81886114ff565b905081810360208301526117ff818761155d565b9050818103604083015261181381866115d2565b9050818103606083015261182781856116b4565b905061183660808301846114f0565b9695505050505050565b6000608082019050818103600083015261185a81876114ff565b9050818103602083015261186e81866115d2565b90508181036040830152611882818561155d565b9050818103606083015261189681846116b4565b905095945050505050565b60006020820190506118b66000830184611630565b92915050565b600060208201905081810360008301526118d5816116ed565b9050919050565b600060208201905081810360008301526118f581611710565b9050919050565b6000808335600160200384360303811261191957611918611df0565b5b80840192508235915067ffffffffffffffff82111561193b5761193a611deb565b5b60208301925060018202360383131561195757611956611dfa565b5b509250929050565b6000808335600160200384360303811261197c5761197b611df0565b5b80840192508235915067ffffffffffffffff82111561199e5761199d611deb565b5b6020830192506001820236038313156119ba576119b9611dfa565b5b509250929050565b60006119cc6119dd565b90506119d88282611ca1565b919050565b6000604051905090565b600067ffffffffffffffff821115611a0257611a01611db2565b5b602082029050602081019050919050565b600067ffffffffffffffff821115611a2e57611a2d611db2565b5b602082029050602081019050919050565b600067ffffffffffffffff821115611a5a57611a59611db2565b5b602082029050602081019050919050565b600067ffffffffffffffff821115611a8657611a85611db2565b5b611a8f82611e0e565b9050602081019050919050565b600067ffffffffffffffff821115611ab757611ab6611db2565b5b611ac082611e0e565b9050602081019050919050565b6000819050602082019050919050565b6000819050602082019050919050565b6000819050602082019050919050565b600081519050919050565b600081519050919050565b600081519050919050565b600081519050919050565b600081519050919050565b6000602082019050919050565b6000602082019050919050565b6000602082019050919050565b600082825260208201905092915050565b600082825260208201905092915050565b600082825260208201905092915050565b600082825260208201905092915050565b600081905092915050565b600082825260208201905092915050565b6000611bc682611c03565b9050919050565b6000819050919050565b60007fffffffff0000000000000000000000000000000000000000000000000000000082169050919050565b600073ffffffffffffffffffffffffffffffffffffffff82169050919050565b6000819050919050565b82818337600083830152505050565b60005b83811015611c5a578082015181840152602081019050611c3f565b83811115611c69576000848401525b50505050565b60006002820490506001821680611c8757607f821691505b60208210811415611c9b57611c9a611d54565b5b50919050565b611caa82611e0e565b810181811067ffffffffffffffff82111715611cc957611cc8611db2565b5b80604052505050565b6000611cdd82611c23565b91507fffffffffffffffffffffffffffffffffffffffffffffffffffffffffffffffff821415611d1057611d0f611d25565b5b600182019050919050565b6000819050919050565b7f4e487b7100000000000000000000000000000000000000000000000000000000600052601160045260246000fd5b7f4e487b7100000000000000000000000000000000000000000000000000000000600052602260045260246000fd5b7f4e487b7100000000000000000000000000000000000000000000000000000000600052603260045260246000fd5b7f4e487b7100000000000000000000000000000000000000000000000000000000600052604160045260246000fd5b600080fd5b600080fd5b600080fd5b600080fd5b600080fd5b600080fd5b600080fd5b600080fd5b600080fd5b6000601f19601f8301169050919050565b7f4578653a204172726179206c656e677468206d69736d61746368000000000000600082015250565b7f4578653a2045786520494420616c726561647920696e20757365000000000000600082015250565b611e7a81611bbb565b8114611e8557600080fd5b50565b611e9181611bcd565b8114611e9c57600080fd5b50565b611ea881611c23565b8114611eb357600080fd5b5056fea2646970667358221220d7a2a520778dae6429f07835abd776ff0870ca16ff1987a5b0595cac47b2f83064736f6c63430008070033",
  "linkReferences": {},
  "deployedLinkReferences": {}
}