{
  "_format": "hh-sol-artifact-1",
  "contractName": "Executables",
  "sourceName": "contracts/Executables.sol",
  "abi": [
    {
      "inputs": [
        {
          "internalType": "address",
          "name": "_core",
          "type": "address"
        },
        {
          "internalType": "address",
          "name": "_timer",
          "type": "address"
        }
      ],
      "stateMutability": "nonpayable",
      "type": "constructor"
    },
    {
      "anonymous": false,
      "inputs": [
        {
          "indexed": false,
          "internalType": "bytes32",
          "name": "exeID",
          "type": "bytes32"
        },
        {
          "indexed": false,
          "internalType": "address[]",
          "name": "targets",
          "type": "address[]"
        },
        {
          "indexed": false,
          "internalType": "string",
          "name": "description",
          "type": "string"
        }
      ],
      "name": "MintExecutable",
      "type": "event"
    },
    {
      "inputs": [],
      "name": "IDENTIFIER",
      "outputs": [
        {
          "internalType": "bytes32",
          "name": "",
          "type": "bytes32"
        }
      ],
      "stateMutability": "view",
      "type": "function"
    },
    {
      "inputs": [
        {
          "internalType": "bytes32",
          "name": "c__0x00e2a1ba",
          "type": "bytes32"
        }
      ],
      "name": "c_0x00e2a1ba",
      "outputs": [],
      "stateMutability": "pure",
      "type": "function"
    },
    {
      "inputs": [
        {
          "internalType": "bytes32",
          "name": "c__0x1cf15b0d",
          "type": "bytes32"
        }
      ],
      "name": "c_0x1cf15b0d",
      "outputs": [],
      "stateMutability": "pure",
      "type": "function"
    },
    {
      "inputs": [
        {
          "internalType": "bytes32",
          "name": "c__0x35ade16d",
          "type": "bytes32"
        }
      ],
      "name": "c_0x35ade16d",
      "outputs": [],
      "stateMutability": "pure",
      "type": "function"
    },
    {
      "inputs": [],
      "name": "core_",
      "outputs": [
        {
          "internalType": "contract ICore",
          "name": "",
          "type": "address"
        }
      ],
      "stateMutability": "view",
      "type": "function"
    },
    {
      "inputs": [
        {
          "internalType": "address[]",
          "name": "_targets",
          "type": "address[]"
        },
        {
          "internalType": "string[]",
          "name": "_functionSignatures",
          "type": "string[]"
        },
        {
          "internalType": "bytes[]",
          "name": "_encodedParameters",
          "type": "bytes[]"
        },
        {
          "internalType": "uint256[]",
          "name": "_values",
          "type": "uint256[]"
        },
        {
          "internalType": "string",
          "name": "_description",
          "type": "string"
        }
      ],
      "name": "createExe",
      "outputs": [
        {
          "internalType": "bytes32",
          "name": "exeID",
          "type": "bytes32"
        }
      ],
      "stateMutability": "nonpayable",
      "type": "function"
    },
    {
      "inputs": [
        {
          "internalType": "uint256",
          "name": "_propID",
          "type": "uint256"
        },
        {
          "internalType": "bytes32",
          "name": "_exeID",
          "type": "bytes32"
        },
        {
          "internalType": "string",
          "name": "_description",
          "type": "string"
        }
      ],
      "name": "createPropExe",
      "outputs": [
        {
          "internalType": "bytes32",
          "name": "propExeID",
          "type": "bytes32"
        }
      ],
      "stateMutability": "nonpayable",
      "type": "function"
    },
    {
      "inputs": [],
      "name": "getCurrentTime",
      "outputs": [
        {
          "internalType": "uint256",
          "name": "",
          "type": "uint256"
        }
      ],
      "stateMutability": "view",
      "type": "function"
    },
    {
      "inputs": [
        {
          "internalType": "bytes32",
          "name": "_exeID",
          "type": "bytes32"
        }
      ],
      "name": "getExe",
      "outputs": [
        {
          "internalType": "address[]",
          "name": "targets",
          "type": "address[]"
        },
        {
          "internalType": "bytes[]",
          "name": "callData",
          "type": "bytes[]"
        },
        {
          "internalType": "uint256[]",
          "name": "values",
          "type": "uint256[]"
        }
      ],
      "stateMutability": "view",
      "type": "function"
    },
    {
      "inputs": [
        {
          "internalType": "address[]",
          "name": "_targets",
          "type": "address[]"
        },
        {
          "internalType": "uint256[]",
          "name": "_values",
          "type": "uint256[]"
        },
        {
          "internalType": "bytes[]",
          "name": "_callData",
          "type": "bytes[]"
        },
        {
          "internalType": "string",
          "name": "_description",
          "type": "string"
        }
      ],
      "name": "getExeId",
      "outputs": [
        {
          "internalType": "bytes32",
          "name": "",
          "type": "bytes32"
        }
      ],
      "stateMutability": "pure",
      "type": "function"
    },
    {
      "inputs": [
        {
          "internalType": "bytes32",
          "name": "_exeID",
          "type": "bytes32"
        }
      ],
      "name": "getExeInfo",
      "outputs": [
        {
          "internalType": "address[]",
          "name": "targets",
          "type": "address[]"
        },
        {
          "internalType": "bytes[]",
          "name": "callData",
          "type": "bytes[]"
        },
        {
          "internalType": "uint256[]",
          "name": "values",
          "type": "uint256[]"
        },
        {
          "internalType": "string",
          "name": "description",
          "type": "string"
        },
        {
          "internalType": "address",
          "name": "creator",
          "type": "address"
        }
      ],
      "stateMutability": "view",
      "type": "function"
    },
    {
      "inputs": [
        {
          "internalType": "uint256",
          "name": "time",
          "type": "uint256"
        }
      ],
      "name": "setCurrentTime",
      "outputs": [],
      "stateMutability": "nonpayable",
      "type": "function"
    },
    {
      "inputs": [],
      "name": "timerAddress",
      "outputs": [
        {
          "internalType": "address",
          "name": "",
          "type": "address"
        }
      ],
      "stateMutability": "view",
      "type": "function"
    }
  ],
  "bytecode": "0x60c06040523480156200001157600080fd5b5060405162003eb338038062003eb383398181016040528101906200003791906200031c565b7f59e2d72f5870ccddd14d35394bd3c22374071b2da7c07a3d6c3b690400b736288282806200008f7fbc0a003bb8fab9931eb808559dac1014bd598e04024b8875faae5e60c9d7adc660001b620002fc60201b60201c565b620000c37fc643b4a93fb8ea47dbcab1d450d0c5237e347cfdbbfb564d0f5c0705bc17b0b960001b620002fc60201b60201c565b620000f77f99eda9b013c18feeb073dd7366065243b6adc915936be427d2ffe5bba7dbe99160001b620002fc60201b60201c565b33600060026101000a81548173ffffffffffffffffffffffffffffffffffffffff021916908373ffffffffffffffffffffffffffffffffffffffff16021790555080600160006101000a81548173ffffffffffffffffffffffffffffffffffffffff021916908373ffffffffffffffffffffffffffffffffffffffff16021790555050620001ae7f91b90f81106ec7301a2ef3f3646fc2ac7a03224c1592a81c08bf2be57bf85da360001b620002ff60201b60201c565b620001e27faa1a5f5f7c07ad1d1a00bf086c9ae885f69ed49cd3abc04289c41680f08eda2360001b620002ff60201b60201c565b620002167f96d06dce006a4c22db8a8fd81f6fd8d01ca83c6b578b06c55ae55449f894b56160001b620002ff60201b60201c565b8260808181525050620002527f5df41bcd415e6f031fea4b950841c2b7a0c71533bb77597e55e47143977ffe5060001b620002ff60201b60201c565b620002867f86b081f2885abf844d8a6e92c42bb8b42f1f332206a0f04e515da586d0b809f560001b620002ff60201b60201c565b8173ffffffffffffffffffffffffffffffffffffffff1660a08173ffffffffffffffffffffffffffffffffffffffff1660601b81525050505050620002f47fe6373f3f2429ab7d204088b2333ee9067e3af0754f3264c5b2c1da2af1ce512060001b6200030260201b60201c565b5050620003b6565b50565b50565b50565b60008151905062000316816200039c565b92915050565b6000806040838503121562000336576200033562000397565b5b6000620003468582860162000305565b9250506020620003598582860162000305565b9150509250929050565b6000620003708262000377565b9050919050565b600073ffffffffffffffffffffffffffffffffffffffff82169050919050565b600080fd5b620003a78162000363565b8114620003b357600080fd5b50565b60805160a05160601c613acd620003e660003960008181610e0501526121e3015260006119d20152613acd6000f3fe608060405234801561001057600080fd5b50600436106100cf5760003560e01c8063348291551161008c578063971aa75e11610066578063971aa75e146102125780639ef7786d14610244578063e075132614610260578063eaddd0fd14610294576100cf565b806334829155146101bc5780633c9747f3146101d85780635743a970146101f6576100cf565b80630ee476bc146100d4578063184b9ce5146101045780631c39c38d1461013457806322f8e56614610152578063295adadf1461016e57806329cb924d1461019e575b600080fd5b6100ee60048036038101906100e99190612b02565b6102b2565b6040516100fb9190613241565b60405180910390f35b61011e600480360381019061011991906129e5565b61036f565b60405161012b9190613241565b60405180910390f35b61013c610c28565b604051610149919061310a565b60405180910390f35b61016c60048036038101906101679190612c06565b610c4e565b005b61018860048036038101906101839190612c60565b610d3a565b6040516101959190613241565b60405180910390f35b6101a66118c8565b6040516101b39190613385565b60405180910390f35b6101d660048036038101906101d19190612bd9565b6119cd565b005b6101e06119d0565b6040516101ed9190613241565b60405180910390f35b610210600480360381019061020b9190612bd9565b6119f4565b005b61022c60048036038101906102279190612bd9565b6119f7565b60405161023b93929190613125565b60405180910390f35b61025e60048036038101906102599190612bd9565b611d23565b005b61027a60048036038101906102759190612bd9565b611d26565b60405161028b959493929190613171565b60405180910390f35b61029c6121e1565b6040516102a991906132ea565b60405180910390f35b60006102e07fe77e7e03c07cfd3f475ac69027604a464980e3c8d60635f5aab5a458e7c768ba60001b6119f4565b61030c7f6af4d9d3c74c66d06ade6e483c9a417bf3e93da41eea231b532c407ca53b238360001b6119f4565b6103387fa3d985a953277e283f4a40789d89fdc7afc1ce7b19674f900ceff5d6d6646f6760001b6119f4565b8484848460405160200161034f94939291906131e0565b604051602081830303815290604052805190602001209050949350505050565b600061039d7fdbf4611a66730b6924cddbe222a8c3d7aa5b16dbfa17a246023d03cbcd7003d560001b6119f4565b6103c97f78fe412611a6746f36d493140a324bef9b22799ec1e3d207132763508e08443860001b6119f4565b6103f57f6ea826fe4de3c5f8ff055948fb6e71c46455859774c59759ae59997825e9b70560001b6119f4565b6104217f41027472a3243625d2c65c733ab9eb9aa07a1e0510f6b5824c49d991f6db678360001b6119f4565b888890508b8b905014801561043b5750868690508b8b9050145b801561044c5750848490508b8b9050145b61048b576040517f08c379a000000000000000000000000000000000000000000000000000000000815260040161048290613345565b60405180910390fd5b6104b77fa9d90c09cc44037a1f20305e0d52c334ce6b7563e91600787c9a98c4452ada8860001b6119f4565b6104e37f1de6823fb54dd4e0dd1191e06d7693c1893bc175badd2955e9235086e9d8f68360001b6119f4565b61050f7f1ee327ea7d8dc4c72a7bb6c7a1fd79a70833587dfd2b0138df0bce2b6cb3b84960001b6119f4565b60008b8b905067ffffffffffffffff81111561052e5761052d613921565b5b60405190808252806020026020018201604052801561056157816020015b606081526020019060019003908161054c5790505b5090506105907f51a99683cac2edd26d78c5c4d5ed4dda67a7fc309f1bfa5ff9548d82a391265660001b6119f4565b6105bc7fb036e2c46ab7ee31bed486e1c3ae8028a4a3788de470c535c2d810c4a078864060001b6119f4565b60005b8c8c90508110156106d4576105f67fcc3fb82f05886149228c1dd9c6b0ef0714624f6062d812c9814979024af9b8f160001b6119f4565b6106227fd1500359d431e3a54a5a9bdb3fb0d76481e7716929c9534596b05e30b27a76fc60001b6119f4565b8a8a82818110610635576106346138f2565b5b90506020028101906106479190613403565b6040516106559291906130f1565b60405180910390208989838181106106705761066f6138f2565b5b905060200281019061068291906133a0565b604051602001610694939291906130c7565b6040516020818303038152906040528282815181106106b6576106b56138f2565b5b602002602001018190525080806106cc90613841565b9150506105bf565b506107017f285da1cd4fe53412dddb6a70673b0cb0f8803027e47b006f95dcb6d3bdf7e76560001b6119f4565b61072d7fd676a3fc0a92113c50d0ad23d425c6c91a6c39aa92429b8e5c4ec3509cf1948760001b6119f4565b6107ff8c8c80806020026020016040519081016040528093929190818152602001838360200280828437600081840152601f19601f82011690508083019250505050505050878780806020026020016040519081016040528093929190818152602001838360200280828437600081840152601f19601f820116905080830192505050505050508387878080601f016020809104026020016040519081016040528093929190818152602001838380828437600081840152601f19601f820116905080830192505050505050506102b2565b915061082d7fa28bf2892261362ebde02930ced9f6fd7357c86b7670e7d82ebb910e62676a6660001b6119f4565b6108597fdd1128042947f887c1a56f8b17e5604908a36da9c74f813b3619b94281ba0ad960001b6119f4565b6108857f77fe30f3bdf18c3dde8a66532bcf32de1c70ec139cd08b4fd860db18844b000060001b6119f4565b600073ffffffffffffffffffffffffffffffffffffffff166002600084815260200190815260200160002060040160009054906101000a900473ffffffffffffffffffffffffffffffffffffffff1673ffffffffffffffffffffffffffffffffffffffff161461092a576040517f08c379a000000000000000000000000000000000000000000000000000000000815260040161092190613365565b60405180910390fd5b6109567f314c3ffb754b2bda7443dab35c0faf8f788891d8de9aaa18bfe4c09167c8df5760001b6119f4565b6109827f73db05943f25bdca0e4e37e7e1ef4dd35d97cc74dc406e2032feffe3962ffd7760001b6119f4565b6109ae7f11d4d4fccc82438ccdb22cab5c0002e32ac5547693f661b2ae7e5a8d23e27f7360001b6119f4565b6040518060a001604052808d8d80806020026020016040519081016040528093929190818152602001838360200280828437600081840152601f19601f820116905080830192505050505050508152602001878780806020026020016040519081016040528093929190818152602001838360200280828437600081840152601f19601f82011690508083019250505050505050815260200182815260200185858080601f016020809104026020016040519081016040528093929190818152602001838380828437600081840152601f19601f8201169050808301925050505050505081526020013373ffffffffffffffffffffffffffffffffffffffff16815250600260008481526020019081526020016000206000820151816000019080519060200190610ae0929190612205565b506020820151816001019080519060200190610afd92919061228f565b506040820151816002019080519060200190610b1a9291906122dc565b506060820151816003019080519060200190610b3792919061233c565b5060808201518160040160006101000a81548173ffffffffffffffffffffffffffffffffffffffff021916908373ffffffffffffffffffffffffffffffffffffffff160217905550905050610bae7f8c2ea1c104c53f738e5bbb5d095da0af025d1bdcdee60825c5038ce5c4aab99960001b6119f4565b610bda7fbb0377c5a5672e4cda8e2235ad61abe5444691fc42cf8bed6f28627af4e776d460001b6119f4565b7f9efa23cf1a1ca9f8f84d1c5ab98b64e67b7eb5c0ec0cb0f02658ce7ec7d7ced3828d8d8787604051610c1195949392919061325c565b60405180910390a1509a9950505050505050505050565b600160009054906101000a900473ffffffffffffffffffffffffffffffffffffffff1681565b600073ffffffffffffffffffffffffffffffffffffffff16600160009054906101000a900473ffffffffffffffffffffffffffffffffffffffff1673ffffffffffffffffffffffffffffffffffffffff161415610caa57600080fd5b600160009054906101000a900473ffffffffffffffffffffffffffffffffffffffff1673ffffffffffffffffffffffffffffffffffffffff166322f8e566826040518263ffffffff1660e01b8152600401610d059190613385565b600060405180830381600087803b158015610d1f57600080fd5b505af1158015610d33573d6000803e3d6000fd5b5050505050565b6000610d687f1bc07510db58a104799d9b335a474b2fcaf12a360fd3b171519429362d5cc35660001b6119f4565b610d947fa5cde34e86bc50f214e8a2a75aeeb704e58b06d121a3919aff61f6365c3560f860001b6119f4565b610dc07fe4497549d04958dfa44a28dab38272ddde3eafcee9ae852c035958e4468162db60001b6119f4565b610dec7f2f8fc3986a272d5a6d4b54acd89631c4a984e128266b7f5626ded8ef07e3ad7a60001b6119f4565b3373ffffffffffffffffffffffffffffffffffffffff167f000000000000000000000000000000000000000000000000000000000000000073ffffffffffffffffffffffffffffffffffffffff1663624a23e07f36209a57dfd79e3872ec3a0c88c653bbe7e32a12306e5e1f92f118c1936ae8b26040518263ffffffff1660e01b8152600401610e7c9190613241565b60206040518083038186803b158015610e9457600080fd5b505afa158015610ea8573d6000803e3d6000fd5b505050506040513d601f19601f82011682018060405250810190610ecc91906129b8565b73ffffffffffffffffffffffffffffffffffffffff1614610f22576040517f08c379a0000000000000000000000000000000000000000000000000000000008152600401610f1990613325565b60405180910390fd5b610f4e7f24aa2750f6e690ec4e73d1c4e8ac204d5a47a8e854686fffdf9401e07187718a60001b6119f4565b610f7a7f46e1e5ecab38d96dba7c6e79f5caabc9095aecd204264888ce2f5aeab2585d9660001b6119f4565b610fa67fbda4fb42de093de00c381f6f6c41ffae4c26aa40bc596c39c37daf9b4e4b73cb60001b6119f4565b610fd27f0fd64a6f6905aa741fadac2e58e8d04dae925d2306c7465e3293532e54e532d160001b6119f4565b600073ffffffffffffffffffffffffffffffffffffffff166002600085815260200190815260200160002060040160009054906101000a900473ffffffffffffffffffffffffffffffffffffffff1673ffffffffffffffffffffffffffffffffffffffff161415611078576040517f08c379a000000000000000000000000000000000000000000000000000000000815260040161106f90613305565b60405180910390fd5b6110a47f08314cc9714b57b2bf05e7d018a41fce5db87e28b75f1efda9011df6459b733a60001b6119f4565b6110d07feeb5af70f19ee19c1984a634cdd4d15288946315d3546be6243565a1fbcf147760001b6119f4565b6110fc7f1076f23b9f1d61bd2cb508ca92d3e38025df7c79c952ee2a3df27d18447e26d760001b6119f4565b6112eb6002600085815260200190815260200160002060000180548060200260200160405190810160405280929190818152602001828054801561119557602002820191906000526020600020905b8160009054906101000a900473ffffffffffffffffffffffffffffffffffffffff1673ffffffffffffffffffffffffffffffffffffffff168152602001906001019080831161114b575b5050505050600260008681526020019081526020016000206001018054806020026020016040519081016040528092919081815260200182805480156111fa57602002820191906000526020600020905b8154815260200190600101908083116111e6575b505050505060026000878152602001908152602001600020600201805480602002602001604051908101604052809291908181526020016000905b828210156112e1578382906000526020600020018054611254906137c4565b80601f0160208091040260200160405190810160405280929190818152602001828054611280906137c4565b80156112cd5780601f106112a2576101008083540402835291602001916112cd565b820191906000526020600020905b8154815290600101906020018083116112b057829003601f168201915b505050505081526020019060010190611235565b50505050856102b2565b90506113197f581a19013c64f3afda9d202d42f6fb9491a1a4a69f75b4b17b1d61a1b12e37d160001b6119f4565b6113457f21a9d39da360469156d5483524c12832324a783c34497b53dfd6519adcb1ef8960001b6119f4565b6113717f3fb03121cd34c291e42dfc2e968bdc7d8eb1b1ee3c49ead464f501b3bfd8727860001b6119f4565b600073ffffffffffffffffffffffffffffffffffffffff166002600083815260200190815260200160002060040160009054906101000a900473ffffffffffffffffffffffffffffffffffffffff1673ffffffffffffffffffffffffffffffffffffffff1614611416576040517f08c379a000000000000000000000000000000000000000000000000000000000815260040161140d90613365565b60405180910390fd5b6114427f3fbab814075d29c610564ea1487758e9870e393923d823c473d5b77493b2a73960001b6119f4565b61146e7f7c5f1c2e809ca5255e6b974e22b3fcb374598284c54ba6f722af372148ad582660001b6119f4565b61149a7f84bf4beb38205e750dac27fe46bfc063665948527c9dfbd29f9d2db3d4f2046660001b6119f4565b6040518060a001604052806002600086815260200190815260200160002060000180548060200260200160405190810160405280929190818152602001828054801561153b57602002820191906000526020600020905b8160009054906101000a900473ffffffffffffffffffffffffffffffffffffffff1673ffffffffffffffffffffffffffffffffffffffff16815260200190600101908083116114f1575b50505050508152602001600260008681526020019081526020016000206001018054806020026020016040519081016040528092919081815260200182805480156115a557602002820191906000526020600020905b815481526020019060010190808311611591575b5050505050815260200160026000868152602001908152602001600020600201805480602002602001604051908101604052809291908181526020016000905b82821015611691578382906000526020600020018054611604906137c4565b80601f0160208091040260200160405190810160405280929190818152602001828054611630906137c4565b801561167d5780601f106116525761010080835404028352916020019161167d565b820191906000526020600020905b81548152906001019060200180831161166057829003601f168201915b5050505050815260200190600101906115e5565b5050505081526020018381526020016002600086815260200190815260200160002060040160009054906101000a900473ffffffffffffffffffffffffffffffffffffffff1673ffffffffffffffffffffffffffffffffffffffff1681525060026000838152602001908152602001600020600082015181600001908051906020019061171f929190612205565b50602082015181600101908051906020019061173c92919061228f565b5060408201518160020190805190602001906117599291906122dc565b50606082015181600301908051906020019061177692919061233c565b5060808201518160040160006101000a81548173ffffffffffffffffffffffffffffffffffffffff021916908373ffffffffffffffffffffffffffffffffffffffff1602179055509050506117ed7f0fdd5c79c81f3f2be7ef86b97fbbcf734d50012b655a3b22109aeabca756883760001b6119f4565b6118197ff497de19b958d2eb8bb1254e622175cf1adfa53907fad9def67ba048d247377160001b6119f4565b7f9efa23cf1a1ca9f8f84d1c5ab98b64e67b7eb5c0ec0cb0f02658ce7ec7d7ced3816002600086815260200190815260200160002060000184604051611861939291906132a5565b60405180910390a16118957f8a12f5c9999a60fd4584e32d20efdbc2957bbe7cf80a1bc0985103e3e2e072b660001b6119f4565b6118c17f373bcdc51c65aba73d5b913bb29d2d4d5fcd8df27257f807a99faafdf53cc95360001b6119f4565b9392505050565b60008073ffffffffffffffffffffffffffffffffffffffff16600160009054906101000a900473ffffffffffffffffffffffffffffffffffffffff1673ffffffffffffffffffffffffffffffffffffffff16146119c657600160009054906101000a900473ffffffffffffffffffffffffffffffffffffffff1673ffffffffffffffffffffffffffffffffffffffff166329cb924d6040518163ffffffff1660e01b815260040160206040518083038186803b15801561198757600080fd5b505afa15801561199b573d6000803e3d6000fd5b505050506040513d601f19601f820116820180604052508101906119bf9190612c33565b90506119ca565b4290505b90565b50565b7f000000000000000000000000000000000000000000000000000000000000000081565b50565b6060806060611a287f7cde0a3f6545af505b3701d3d249987d70715addf283fe6667987b18c634b13c60001b6119f4565b611a547fa38afd2d004764d86eda186d6072836eafff4cd8ac39499e27800911f3ecd34660001b6119f4565b611a807ff1961c1247cd47128335a534c45f0fb11209b714daa161ed0a28a7e8235efbb260001b6119f4565b60026000858152602001908152602001600020600001805480602002602001604051908101604052809291908181526020018280548015611b1657602002820191906000526020600020905b8160009054906101000a900473ffffffffffffffffffffffffffffffffffffffff1673ffffffffffffffffffffffffffffffffffffffff1681526020019060010190808311611acc575b50505050509250611b497f8799d5e7445980f2a6d192a66efe7cffe98e405e15680553b8868f29dbceef9d60001b6119f4565b611b757ff27fb11bd6cf1b11e62f3ffc4c21a315cbd9181a5952e396747e1668ae3fd1d960001b6119f4565b60026000858152602001908152602001600020600201805480602002602001604051908101604052809291908181526020016000905b82821015611c57578382906000526020600020018054611bca906137c4565b80601f0160208091040260200160405190810160405280929190818152602001828054611bf6906137c4565b8015611c435780601f10611c1857610100808354040283529160200191611c43565b820191906000526020600020905b815481529060010190602001808311611c2657829003601f168201915b505050505081526020019060010190611bab565b505050509150611c897fb9d9594f9e0b898f5c5cfddc0f5cd684b0bfcbd034496a01955fd44394d1901b60001b6119f4565b611cb57f5646cd070411b693e92e8b87a8761e6b9fb960272a0ac5e9bee0a4262211ce5660001b6119f4565b60026000858152602001908152602001600020600101805480602002602001604051908101604052809291908181526020018280548015611d1557602002820191906000526020600020905b815481526020019060010190808311611d01575b505050505090509193909250565b50565b6060806060806000611d5a7f57a1bbf3015590a7e2533276ccad40f0cfb5f2a428a5cf7e1bc1dfc903cc52ff60001b6119f4565b611d867f3059b82fd488d6e19ad016d0298f706f9a31fd0a0d7db8cda4f9c2aa49703ee360001b6119f4565b611db27f26c959c2a5d951f00df16359fd09ebac4ff5be200632be20aea84a05b6b8e9d360001b6119f4565b60026000878152602001908152602001600020600001805480602002602001604051908101604052809291908181526020018280548015611e4857602002820191906000526020600020905b8160009054906101000a900473ffffffffffffffffffffffffffffffffffffffff1673ffffffffffffffffffffffffffffffffffffffff1681526020019060010190808311611dfe575b50505050509450611e7b7f5a0ce2a8b8057a67542f8dcba450f5921d43f81eb0896dc80a45e6d0739f488460001b6119f4565b611ea77fc4e2b5905b1ae9d1d21a6e4ec66e6926002dac929294dee5d5b5965d2ddb4d2360001b6119f4565b60026000878152602001908152602001600020600201805480602002602001604051908101604052809291908181526020016000905b82821015611f89578382906000526020600020018054611efc906137c4565b80601f0160208091040260200160405190810160405280929190818152602001828054611f28906137c4565b8015611f755780601f10611f4a57610100808354040283529160200191611f75565b820191906000526020600020905b815481529060010190602001808311611f5857829003601f168201915b505050505081526020019060010190611edd565b505050509350611fbb7f4625304554cfd77937611c816c11741fcf59068591d6e5f7dca48d82b3f49f0360001b6119f4565b611fe77ff3bc0be44144f535bfc0c08deebfd9db26cc34455b2ee58b0c15ff81df15b36360001b6119f4565b6002600087815260200190815260200160002060010180548060200260200160405190810160405280929190818152602001828054801561204757602002820191906000526020600020905b815481526020019060010190808311612033575b5050505050925061207a7f96b4c7a1a8ec895e22464743cfdf854a797d082022ed087fd08938c3299a0e7260001b6119f4565b6120a67f9a0f9d5b3fbca84dbb160744fedea5de2b79b0a953ca553ff50e78992f98849f60001b6119f4565b6002600087815260200190815260200160002060030180546120c7906137c4565b80601f01602080910402602001604051908101604052809291908181526020018280546120f3906137c4565b80156121405780601f1061211557610100808354040283529160200191612140565b820191906000526020600020905b81548152906001019060200180831161212357829003601f168201915b505050505091506121737f222a3f929618988b928bd4fcde8ab433aba9d4d7bd3a4ae5301ba4708c9ad3b660001b6119f4565b61219f7fd39a4d7ca4d80cb8546e873dab1c508c805dd2a73aa2bc3b48b5601586214bc460001b6119f4565b6002600087815260200190815260200160002060040160009054906101000a900473ffffffffffffffffffffffffffffffffffffffff16905091939590929450565b7f000000000000000000000000000000000000000000000000000000000000000081565b82805482825590600052602060002090810192821561227e579160200282015b8281111561227d5782518260006101000a81548173ffffffffffffffffffffffffffffffffffffffff021916908373ffffffffffffffffffffffffffffffffffffffff16021790555091602001919060010190612225565b5b50905061228b91906123c2565b5090565b8280548282559060005260206000209081019282156122cb579160200282015b828111156122ca5782518255916020019190600101906122af565b5b5090506122d891906123c2565b5090565b82805482825590600052602060002090810192821561232b579160200282015b8281111561232a57825182908051906020019061231a9291906123df565b50916020019190600101906122fc565b5b5090506123389190612465565b5090565b828054612348906137c4565b90600052602060002090601f01602090048101928261236a57600085556123b1565b82601f1061238357805160ff19168380011785556123b1565b828001600101855582156123b1579182015b828111156123b0578251825591602001919060010190612395565b5b5090506123be91906123c2565b5090565b5b808211156123db5760008160009055506001016123c3565b5090565b8280546123eb906137c4565b90600052602060002090601f01602090048101928261240d5760008555612454565b82601f1061242657805160ff1916838001178555612454565b82800160010185558215612454579182015b82811115612453578251825591602001919060010190612438565b5b50905061246191906123c2565b5090565b5b80821115612485576000818161247c9190612489565b50600101612466565b5090565b508054612495906137c4565b6000825580601f106124a757506124c6565b601f0160209004906000526020600020908101906124c591906123c2565b5b50565b60006124dc6124d78461348b565b613466565b905080838252602082019050828560208602820111156124ff576124fe613977565b5b60005b8581101561252f578161251588826126bb565b845260208401935060208301925050600181019050612502565b5050509392505050565b600061254c612547846134b7565b613466565b9050808382526020820190508285602086028201111561256f5761256e613977565b5b60005b858110156125bd57813567ffffffffffffffff81111561259557612594613968565b5b8086016125a289826128dc565b85526020850194506020840193505050600181019050612572565b5050509392505050565b60006125da6125d5846134e3565b613466565b905080838252602082019050828560208602820111156125fd576125fc613977565b5b60005b8581101561262d5781612613888261298e565b845260208401935060208301925050600181019050612600565b5050509392505050565b600061264a6126458461350f565b613466565b90508281526020810184848401111561266657612665613981565b5b612671848285613782565b509392505050565b600061268c61268784613540565b613466565b9050828152602081018484840111156126a8576126a7613981565b5b6126b3848285613782565b509392505050565b6000813590506126ca81613a52565b92915050565b6000815190506126df81613a52565b92915050565b60008083601f8401126126fb576126fa613968565b5b8235905067ffffffffffffffff81111561271857612717613963565b5b60208301915083602082028301111561273457612733613977565b5b9250929050565b600082601f8301126127505761274f613968565b5b81356127608482602086016124c9565b91505092915050565b60008083601f84011261277f5761277e613968565b5b8235905067ffffffffffffffff81111561279c5761279b613963565b5b6020830191508360208202830111156127b8576127b7613977565b5b9250929050565b600082601f8301126127d4576127d3613968565b5b81356127e4848260208601612539565b91505092915050565b60008083601f84011261280357612802613968565b5b8235905067ffffffffffffffff8111156128205761281f613963565b5b60208301915083602082028301111561283c5761283b613977565b5b9250929050565b60008083601f84011261285957612858613968565b5b8235905067ffffffffffffffff81111561287657612875613963565b5b60208301915083602082028301111561289257612891613977565b5b9250929050565b600082601f8301126128ae576128ad613968565b5b81356128be8482602086016125c7565b91505092915050565b6000813590506128d681613a69565b92915050565b600082601f8301126128f1576128f0613968565b5b8135612901848260208601612637565b91505092915050565b60008083601f8401126129205761291f613968565b5b8235905067ffffffffffffffff81111561293d5761293c613963565b5b60208301915083600182028301111561295957612958613977565b5b9250929050565b600082601f83011261297557612974613968565b5b8135612985848260208601612679565b91505092915050565b60008135905061299d81613a80565b92915050565b6000815190506129b281613a80565b92915050565b6000602082840312156129ce576129cd61398b565b5b60006129dc848285016126d0565b91505092915050565b60008060008060008060008060008060a08b8d031215612a0857612a0761398b565b5b60008b013567ffffffffffffffff811115612a2657612a25613986565b5b612a328d828e016126e5565b9a509a505060208b013567ffffffffffffffff811115612a5557612a54613986565b5b612a618d828e016127ed565b985098505060408b013567ffffffffffffffff811115612a8457612a83613986565b5b612a908d828e01612769565b965096505060608b013567ffffffffffffffff811115612ab357612ab2613986565b5b612abf8d828e01612843565b945094505060808b013567ffffffffffffffff811115612ae257612ae1613986565b5b612aee8d828e0161290a565b92509250509295989b9194979a5092959850565b60008060008060808587031215612b1c57612b1b61398b565b5b600085013567ffffffffffffffff811115612b3a57612b39613986565b5b612b468782880161273b565b945050602085013567ffffffffffffffff811115612b6757612b66613986565b5b612b7387828801612899565b935050604085013567ffffffffffffffff811115612b9457612b93613986565b5b612ba0878288016127bf565b925050606085013567ffffffffffffffff811115612bc157612bc0613986565b5b612bcd87828801612960565b91505092959194509250565b600060208284031215612bef57612bee61398b565b5b6000612bfd848285016128c7565b91505092915050565b600060208284031215612c1c57612c1b61398b565b5b6000612c2a8482850161298e565b91505092915050565b600060208284031215612c4957612c4861398b565b5b6000612c57848285016129a3565b91505092915050565b600080600060608486031215612c7957612c7861398b565b5b6000612c878682870161298e565b9350506020612c98868287016128c7565b925050604084013567ffffffffffffffff811115612cb957612cb8613986565b5b612cc586828701612960565b9150509250925092565b6000612cdb8383612d13565b60208301905092915050565b6000612cf38383612f6f565b905092915050565b6000612d0783836130a9565b60208301905092915050565b612d1c816136da565b82525050565b612d2b816136da565b82525050565b6000612d3d8385613643565b9350612d4882613571565b8060005b85811015612d8157612d5e82846136a3565b612d688882612ccf565b9750612d7383613602565b925050600181019050612d4c565b5085925050509392505050565b6000612d99826135c0565b612da38185613643565b9350612dae8361357b565b8060005b83811015612ddf578151612dc68882612ccf565b9750612dd18361360f565b925050600181019050612db2565b5085935050505092915050565b6000612df7826135cb565b612e018185613643565b9350612e0c8361358b565b8060005b83811015612e4457612e2182613950565b612e2b8882612ccf565b9750612e368361361c565b925050600181019050612e10565b5085935050505092915050565b6000612e5c826135d6565b612e668185613654565b935083602082028501612e78856135a0565b8060005b85811015612eb45784840389528151612e958582612ce7565b9450612ea083613629565b925060208a01995050600181019050612e7c565b50829750879550505050505092915050565b6000612ed1826135e1565b612edb8185613665565b9350612ee6836135b0565b8060005b83811015612f17578151612efe8882612cfb565b9750612f0983613636565b925050600181019050612eea565b5085935050505092915050565b612f2d816136ec565b82525050565b612f44612f3f826136f6565b61388a565b82525050565b6000612f568385613687565b9350612f63838584613782565b82840190509392505050565b6000612f7a826135ec565b612f848185613676565b9350612f94818560208601613791565b612f9d81613990565b840191505092915050565b612fb18161374c565b82525050565b6000612fc38385613692565b9350612fd0838584613782565b612fd983613990565b840190509392505050565b6000612fef826135f7565b612ff98185613692565b9350613009818560208601613791565b61301281613990565b840191505092915050565b600061302a601783613692565b9150613035826139ae565b602082019050919050565b600061304d601783613692565b9150613058826139d7565b602082019050919050565b6000613070601a83613692565b915061307b82613a00565b602082019050919050565b6000613093601a83613692565b915061309e82613a29565b602082019050919050565b6130b281613742565b82525050565b6130c181613742565b82525050565b60006130d38286612f33565b6004820191506130e4828486612f4a565b9150819050949350505050565b60006130fe828486612f4a565b91508190509392505050565b600060208201905061311f6000830184612d22565b92915050565b6000606082019050818103600083015261313f8186612d8e565b905081810360208301526131538185612e51565b905081810360408301526131678184612ec6565b9050949350505050565b600060a082019050818103600083015261318b8188612d8e565b9050818103602083015261319f8187612e51565b905081810360408301526131b38186612ec6565b905081810360608301526131c78185612fe4565b90506131d66080830184612d22565b9695505050505050565b600060808201905081810360008301526131fa8187612d8e565b9050818103602083015261320e8186612ec6565b905081810360408301526132228185612e51565b905081810360608301526132368184612fe4565b905095945050505050565b60006020820190506132566000830184612f24565b92915050565b60006060820190506132716000830188612f24565b8181036020830152613284818688612d31565b90508181036040830152613299818486612fb7565b90509695505050505050565b60006060820190506132ba6000830186612f24565b81810360208301526132cc8185612dec565b905081810360408301526132e08184612fe4565b9050949350505050565b60006020820190506132ff6000830184612fa8565b92915050565b6000602082019050818103600083015261331e8161301d565b9050919050565b6000602082019050818103600083015261333e81613040565b9050919050565b6000602082019050818103600083015261335e81613063565b9050919050565b6000602082019050818103600083015261337e81613086565b9050919050565b600060208201905061339a60008301846130b8565b92915050565b600080833560016020038436030381126133bd576133bc613972565b5b80840192508235915067ffffffffffffffff8211156133df576133de61396d565b5b6020830192506001820236038313156133fb576133fa61397c565b5b509250929050565b600080833560016020038436030381126134205761341f613972565b5b80840192508235915067ffffffffffffffff8211156134425761344161396d565b5b60208301925060018202360383131561345e5761345d61397c565b5b509250929050565b6000613470613481565b905061347c8282613810565b919050565b6000604051905090565b600067ffffffffffffffff8211156134a6576134a5613921565b5b602082029050602081019050919050565b600067ffffffffffffffff8211156134d2576134d1613921565b5b602082029050602081019050919050565b600067ffffffffffffffff8211156134fe576134fd613921565b5b602082029050602081019050919050565b600067ffffffffffffffff82111561352a57613529613921565b5b61353382613990565b9050602081019050919050565b600067ffffffffffffffff82111561355b5761355a613921565b5b61356482613990565b9050602081019050919050565b6000819050919050565b6000819050602082019050919050565b60008190508160005260206000209050919050565b6000819050602082019050919050565b6000819050602082019050919050565b600081519050919050565b600081549050919050565b600081519050919050565b600081519050919050565b600081519050919050565b600081519050919050565b6000602082019050919050565b6000602082019050919050565b6000600182019050919050565b6000602082019050919050565b6000602082019050919050565b600082825260208201905092915050565b600082825260208201905092915050565b600082825260208201905092915050565b600082825260208201905092915050565b600081905092915050565b600082825260208201905092915050565b60006136b260208401846126bb565b905092915050565b600073ffffffffffffffffffffffffffffffffffffffff82169050919050565b60006136e582613722565b9050919050565b6000819050919050565b60007fffffffff0000000000000000000000000000000000000000000000000000000082169050919050565b600073ffffffffffffffffffffffffffffffffffffffff82169050919050565b6000819050919050565b60006137578261375e565b9050919050565b600061376982613770565b9050919050565b600061377b82613722565b9050919050565b82818337600083830152505050565b60005b838110156137af578082015181840152602081019050613794565b838111156137be576000848401525b50505050565b600060028204905060018216806137dc57607f821691505b602082108114156137f0576137ef6138c3565b5b50919050565b6000613809613804836139a1565b6136ba565b9050919050565b61381982613990565b810181811067ffffffffffffffff8211171561383857613837613921565b5b80604052505050565b600061384c82613742565b91507fffffffffffffffffffffffffffffffffffffffffffffffffffffffffffffffff82141561387f5761387e613894565b5b600182019050919050565b6000819050919050565b7f4e487b7100000000000000000000000000000000000000000000000000000000600052601160045260246000fd5b7f4e487b7100000000000000000000000000000000000000000000000000000000600052602260045260246000fd5b7f4e487b7100000000000000000000000000000000000000000000000000000000600052603260045260246000fd5b7f4e487b7100000000000000000000000000000000000000000000000000000000600052604160045260246000fd5b600061395c82546137f6565b9050919050565b600080fd5b600080fd5b600080fd5b600080fd5b600080fd5b600080fd5b600080fd5b600080fd5b600080fd5b6000601f19601f8301169050919050565b60008160001c9050919050565b7f4578653a2045786520646f6573206e6f74206578697374000000000000000000600082015250565b7f4578653a204f6e6c792070726f702063616e2063616c6c000000000000000000600082015250565b7f4578653a204172726179206c656e677468206d69736d61746368000000000000600082015250565b7f4578653a2045786520494420616c726561647920696e20757365000000000000600082015250565b613a5b816136da565b8114613a6657600080fd5b50565b613a72816136ec565b8114613a7d57600080fd5b50565b613a8981613742565b8114613a9457600080fd5b5056fea2646970667358221220d86c8478f7aa82b8381a392e8109edf87ff75460057c499def87a56e8eb6b39b64736f6c63430008070033",
  "linkReferences": {},
  "deployedLinkReferences": {}
}