{
  "_format": "hh-sol-artifact-1",
  "contractName": "Executables",
  "sourceName": "contracts/Executables.sol",
  "abi": [
    {
      "inputs": [
        {
          "internalType": "address",
          "name": "_core",
          "type": "address"
        }
      ],
      "stateMutability": "nonpayable",
      "type": "constructor"
    },
    {
      "anonymous": false,
      "inputs": [
        {
          "indexed": false,
          "internalType": "bytes32",
          "name": "exeID",
          "type": "bytes32"
        },
        {
          "indexed": false,
          "internalType": "address[]",
          "name": "targets",
          "type": "address[]"
        },
        {
          "indexed": false,
          "internalType": "string",
          "name": "description",
          "type": "string"
        }
      ],
      "name": "MintExecutable",
      "type": "event"
    },
    {
      "inputs": [
        {
          "internalType": "address[]",
          "name": "_targets",
          "type": "address[]"
        },
        {
          "internalType": "string[]",
          "name": "_functionSignatures",
          "type": "string[]"
        },
        {
          "internalType": "bytes[]",
          "name": "_encodedParameters",
          "type": "bytes[]"
        },
        {
          "internalType": "uint256[]",
          "name": "_values",
          "type": "uint256[]"
        },
        {
          "internalType": "string",
          "name": "_description",
          "type": "string"
        }
      ],
      "name": "createExe",
      "outputs": [
        {
          "internalType": "bytes32",
          "name": "exeID",
          "type": "bytes32"
        }
      ],
      "stateMutability": "nonpayable",
      "type": "function"
    },
    {
      "inputs": [
        {
          "internalType": "uint256",
          "name": "_propID",
          "type": "uint256"
        },
        {
          "internalType": "bytes32",
          "name": "_exeID",
          "type": "bytes32"
        }
      ],
      "name": "createPropExe",
      "outputs": [
        {
          "internalType": "bytes32",
          "name": "propExeID",
          "type": "bytes32"
        }
      ],
      "stateMutability": "nonpayable",
      "type": "function"
    },
    {
      "inputs": [
        {
          "internalType": "bytes32",
          "name": "_exeID",
          "type": "bytes32"
        }
      ],
      "name": "getExe",
      "outputs": [
        {
          "internalType": "address[]",
          "name": "targets",
          "type": "address[]"
        },
        {
          "internalType": "bytes[]",
          "name": "callData",
          "type": "bytes[]"
        },
        {
          "internalType": "uint256[]",
          "name": "values",
          "type": "uint256[]"
        }
      ],
      "stateMutability": "view",
      "type": "function"
    },
    {
      "inputs": [
        {
          "internalType": "address[]",
          "name": "_targets",
          "type": "address[]"
        },
        {
          "internalType": "uint256[]",
          "name": "_values",
          "type": "uint256[]"
        },
        {
          "internalType": "bytes[]",
          "name": "_callData",
          "type": "bytes[]"
        },
        {
          "internalType": "string",
          "name": "_description",
          "type": "string"
        }
      ],
      "name": "getExeId",
      "outputs": [
        {
          "internalType": "bytes32",
          "name": "",
          "type": "bytes32"
        }
      ],
      "stateMutability": "pure",
      "type": "function"
    },
    {
      "inputs": [
        {
          "internalType": "bytes32",
          "name": "_exeID",
          "type": "bytes32"
        }
      ],
      "name": "getExeInfo",
      "outputs": [
        {
          "internalType": "address[]",
          "name": "targets",
          "type": "address[]"
        },
        {
          "internalType": "bytes[]",
          "name": "callData",
          "type": "bytes[]"
        },
        {
          "internalType": "uint256[]",
          "name": "values",
          "type": "uint256[]"
        },
        {
          "internalType": "string",
          "name": "description",
          "type": "string"
        },
        {
          "internalType": "address",
          "name": "creator",
          "type": "address"
        }
      ],
      "stateMutability": "view",
      "type": "function"
    }
  ],
  "bytecode": "0x60806040523480156200001157600080fd5b50604051620026d5380380620026d58339818101604052810190620000379190620001b2565b806000806101000a81548173ffffffffffffffffffffffffffffffffffffffff021916908373ffffffffffffffffffffffffffffffffffffffff1602179055507f907208bc2088fa777f18b43edd8b766e7243504cf8497f7ed936c65c7a446bbc60008054906101000a900473ffffffffffffffffffffffffffffffffffffffff1673ffffffffffffffffffffffffffffffffffffffff16633c9747f36040518163ffffffff1660e01b815260040160206040518083038186803b158015620000ff57600080fd5b505afa15801562000114573d6000803e3d6000fd5b505050506040513d601f19601f820116820180604052508101906200013a9190620001e4565b146200017d576040517f08c379a000000000000000000000000000000000000000000000000000000000815260040162000174906200023d565b60405180910390fd5b5062000310565b6000815190506200019581620002dc565b92915050565b600081519050620001ac81620002f6565b92915050565b600060208284031215620001cb57620001ca620002ae565b5b6000620001db8482850162000184565b91505092915050565b600060208284031215620001fd57620001fc620002ae565b5b60006200020d848285016200019b565b91505092915050565b600062000225601a836200025f565b91506200023282620002b3565b602082019050919050565b60006020820190508181036000830152620002588162000216565b9050919050565b600082825260208201905092915050565b60006200027d826200028e565b9050919050565b6000819050919050565b600073ffffffffffffffffffffffffffffffffffffffff82169050919050565b600080fd5b7f436f72653a206964656e74696669657220696e636f7272656374000000000000600082015250565b620002e78162000270565b8114620002f357600080fd5b50565b620003018162000284565b81146200030d57600080fd5b50565b6123b580620003206000396000f3fe608060405234801561001057600080fd5b50600436106100575760003560e01c80630ee476bc1461005c578063184b9ce51461008c578063204d67b5146100bc578063971aa75e146100ec578063e07513261461011e575b600080fd5b61007660048036038101906100719190611649565b610152565b6040516100839190611c61565b60405180910390f35b6100a660048036038101906100a1919061152c565b61018b565b6040516100b39190611c61565b60405180910390f35b6100d660048036038101906100d1919061174d565b6106a8565b6040516100e39190611c61565b60405180910390f35b61010660048036038101906101019190611720565b610892565b60405161011593929190611b45565b60405180910390f35b61013860048036038101906101339190611720565b610a8a565b604051610149959493929190611b91565b60405180910390f35b60008484848460405160200161016b9493929190611c00565b604051602081830303815290604052805190602001209050949350505050565b6000888890508b8b90501480156101a75750868690508b8b9050145b80156101b85750848490508b8b9050145b6101f7576040517f08c379a00000000000000000000000000000000000000000000000000000000081526004016101ee90611d05565b60405180910390fd5b60008b8b905067ffffffffffffffff81111561021657610215612229565b5b60405190808252806020026020018201604052801561024957816020015b60608152602001906001900390816102345790505b50905060005b8c8c905081101561030c578a8a8281811061026d5761026c6121fa565b5b905060200281019061027f9190611da8565b60405161028d929190611b2c565b60405180910390208989838181106102a8576102a76121fa565b5b90506020028101906102ba9190611d45565b6040516020016102cc93929190611b02565b6040516020818303038152906040528282815181106102ee576102ed6121fa565b5b6020026020010181905250808061030490612149565b91505061024f565b506103df8c8c80806020026020016040519081016040528093929190818152602001838360200280828437600081840152601f19601f82011690508083019250505050505050878780806020026020016040519081016040528093929190818152602001838360200280828437600081840152601f19601f820116905080830192505050505050508387878080601f016020809104026020016040519081016040528093929190818152602001838380828437600081840152601f19601f82011690508083019250505050505050610152565b9150600073ffffffffffffffffffffffffffffffffffffffff166001600084815260200190815260200160002060040160009054906101000a900473ffffffffffffffffffffffffffffffffffffffff1673ffffffffffffffffffffffffffffffffffffffff1614610486576040517f08c379a000000000000000000000000000000000000000000000000000000000815260040161047d90611d25565b60405180910390fd5b6040518060a001604052808d8d80806020026020016040519081016040528093929190818152602001838360200280828437600081840152601f19601f820116905080830192505050505050508152602001878780806020026020016040519081016040528093929190818152602001838360200280828437600081840152601f19601f82011690508083019250505050505050815260200182815260200185858080601f016020809104026020016040519081016040528093929190818152602001838380828437600081840152601f19601f8201169050808301925050505050505081526020013373ffffffffffffffffffffffffffffffffffffffff168152506001600084815260200190815260200160002060008201518160000190805190602001906105b8929190610d61565b5060208201518160010190805190602001906105d5929190610deb565b5060408201518160020190805190602001906105f2929190610e38565b50606082015181600301908051906020019061060f929190610e98565b5060808201518160040160006101000a81548173ffffffffffffffffffffffffffffffffffffffff021916908373ffffffffffffffffffffffffffffffffffffffff1602179055509050507f9efa23cf1a1ca9f8f84d1c5ab98b64e67b7eb5c0ec0cb0f02658ce7ec7d7ced3828d8d8787604051610691959493929190611c7c565b60405180910390a1509a9950505050505050505050565b60003373ffffffffffffffffffffffffffffffffffffffff1660008054906101000a900473ffffffffffffffffffffffffffffffffffffffff1673ffffffffffffffffffffffffffffffffffffffff1663624a23e07f36209a57dfd79e3872ec3a0c88c653bbe7e32a12306e5e1f92f118c1936ae8b26040518263ffffffff1660e01b815260040161073a9190611c61565b60206040518083038186803b15801561075257600080fd5b505afa158015610766573d6000803e3d6000fd5b505050506040513d601f19601f8201168201806040525081019061078a91906114ff565b73ffffffffffffffffffffffffffffffffffffffff16146107e0576040517f08c379a00000000000000000000000000000000000000000000000000000000081526004016107d790611ce5565b60405180910390fd5b600073ffffffffffffffffffffffffffffffffffffffff166001600084815260200190815260200160002060040160009054906101000a900473ffffffffffffffffffffffffffffffffffffffff1673ffffffffffffffffffffffffffffffffffffffff161415610886576040517f08c379a000000000000000000000000000000000000000000000000000000000815260040161087d90611cc5565b60405180910390fd5b6000801b905092915050565b60608060606001600085815260200190815260200160002060000180548060200260200160405190810160405280929190818152602001828054801561092d57602002820191906000526020600020905b8160009054906101000a900473ffffffffffffffffffffffffffffffffffffffff1673ffffffffffffffffffffffffffffffffffffffff16815260200190600101908083116108e3575b5050505050925060016000858152602001908152602001600020600201805480602002602001604051908101604052809291908181526020016000905b82821015610a16578382906000526020600020018054610989906120e6565b80601f01602080910402602001604051908101604052809291908181526020018280546109b5906120e6565b8015610a025780601f106109d757610100808354040283529160200191610a02565b820191906000526020600020905b8154815290600101906020018083116109e557829003601f168201915b50505050508152602001906001019061096a565b50505050915060016000858152602001908152602001600020600101805480602002602001604051908101604052809291908181526020018280548015610a7c57602002820191906000526020600020905b815481526020019060010190808311610a68575b505050505090509193909250565b606080606080600060016000878152602001908152602001600020600001805480602002602001604051908101604052809291908181526020018280548015610b2857602002820191906000526020600020905b8160009054906101000a900473ffffffffffffffffffffffffffffffffffffffff1673ffffffffffffffffffffffffffffffffffffffff1681526020019060010190808311610ade575b5050505050945060016000878152602001908152602001600020600201805480602002602001604051908101604052809291908181526020016000905b82821015610c11578382906000526020600020018054610b84906120e6565b80601f0160208091040260200160405190810160405280929190818152602001828054610bb0906120e6565b8015610bfd5780601f10610bd257610100808354040283529160200191610bfd565b820191906000526020600020905b815481529060010190602001808311610be057829003601f168201915b505050505081526020019060010190610b65565b50505050935060016000878152602001908152602001600020600101805480602002602001604051908101604052809291908181526020018280548015610c7757602002820191906000526020600020905b815481526020019060010190808311610c63575b50505050509250600160008781526020019081526020016000206003018054610c9f906120e6565b80601f0160208091040260200160405190810160405280929190818152602001828054610ccb906120e6565b8015610d185780601f10610ced57610100808354040283529160200191610d18565b820191906000526020600020905b815481529060010190602001808311610cfb57829003601f168201915b505050505091506001600087815260200190815260200160002060040160009054906101000a900473ffffffffffffffffffffffffffffffffffffffff16905091939590929450565b828054828255906000526020600020908101928215610dda579160200282015b82811115610dd95782518260006101000a81548173ffffffffffffffffffffffffffffffffffffffff021916908373ffffffffffffffffffffffffffffffffffffffff16021790555091602001919060010190610d81565b5b509050610de79190610f1e565b5090565b828054828255906000526020600020908101928215610e27579160200282015b82811115610e26578251825591602001919060010190610e0b565b5b509050610e349190610f1e565b5090565b828054828255906000526020600020908101928215610e87579160200282015b82811115610e86578251829080519060200190610e76929190610f3b565b5091602001919060010190610e58565b5b509050610e949190610fc1565b5090565b828054610ea4906120e6565b90600052602060002090601f016020900481019282610ec65760008555610f0d565b82601f10610edf57805160ff1916838001178555610f0d565b82800160010185558215610f0d579182015b82811115610f0c578251825591602001919060010190610ef1565b5b509050610f1a9190610f1e565b5090565b5b80821115610f37576000816000905550600101610f1f565b5090565b828054610f47906120e6565b90600052602060002090601f016020900481019282610f695760008555610fb0565b82601f10610f8257805160ff1916838001178555610fb0565b82800160010185558215610fb0579182015b82811115610faf578251825591602001919060010190610f94565b5b509050610fbd9190610f1e565b5090565b5b80821115610fe15760008181610fd89190610fe5565b50600101610fc2565b5090565b508054610ff1906120e6565b6000825580601f106110035750611022565b601f0160209004906000526020600020908101906110219190610f1e565b5b50565b600061103861103384611e30565b611e0b565b9050808382526020820190508285602086028201111561105b5761105a61226c565b5b60005b8581101561108b57816110718882611217565b84526020840193506020830192505060018101905061105e565b5050509392505050565b60006110a86110a384611e5c565b611e0b565b905080838252602082019050828560208602820111156110cb576110ca61226c565b5b60005b8581101561111957813567ffffffffffffffff8111156110f1576110f061225d565b5b8086016110fe8982611438565b855260208501945060208401935050506001810190506110ce565b5050509392505050565b600061113661113184611e88565b611e0b565b905080838252602082019050828560208602820111156111595761115861226c565b5b60005b85811015611189578161116f88826114ea565b84526020840193506020830192505060018101905061115c565b5050509392505050565b60006111a66111a184611eb4565b611e0b565b9050828152602081018484840111156111c2576111c1612276565b5b6111cd8482856120a4565b509392505050565b60006111e86111e384611ee5565b611e0b565b90508281526020810184848401111561120457611203612276565b5b61120f8482856120a4565b509392505050565b6000813590506112268161233a565b92915050565b60008151905061123b8161233a565b92915050565b60008083601f8401126112575761125661225d565b5b8235905067ffffffffffffffff81111561127457611273612258565b5b6020830191508360208202830111156112905761128f61226c565b5b9250929050565b600082601f8301126112ac576112ab61225d565b5b81356112bc848260208601611025565b91505092915050565b60008083601f8401126112db576112da61225d565b5b8235905067ffffffffffffffff8111156112f8576112f7612258565b5b6020830191508360208202830111156113145761131361226c565b5b9250929050565b600082601f8301126113305761132f61225d565b5b8135611340848260208601611095565b91505092915050565b60008083601f84011261135f5761135e61225d565b5b8235905067ffffffffffffffff81111561137c5761137b612258565b5b6020830191508360208202830111156113985761139761226c565b5b9250929050565b60008083601f8401126113b5576113b461225d565b5b8235905067ffffffffffffffff8111156113d2576113d1612258565b5b6020830191508360208202830111156113ee576113ed61226c565b5b9250929050565b600082601f83011261140a5761140961225d565b5b813561141a848260208601611123565b91505092915050565b60008135905061143281612351565b92915050565b600082601f83011261144d5761144c61225d565b5b813561145d848260208601611193565b91505092915050565b60008083601f84011261147c5761147b61225d565b5b8235905067ffffffffffffffff81111561149957611498612258565b5b6020830191508360018202830111156114b5576114b461226c565b5b9250929050565b600082601f8301126114d1576114d061225d565b5b81356114e18482602086016111d5565b91505092915050565b6000813590506114f981612368565b92915050565b60006020828403121561151557611514612280565b5b60006115238482850161122c565b91505092915050565b60008060008060008060008060008060a08b8d03121561154f5761154e612280565b5b60008b013567ffffffffffffffff81111561156d5761156c61227b565b5b6115798d828e01611241565b9a509a505060208b013567ffffffffffffffff81111561159c5761159b61227b565b5b6115a88d828e01611349565b985098505060408b013567ffffffffffffffff8111156115cb576115ca61227b565b5b6115d78d828e016112c5565b965096505060608b013567ffffffffffffffff8111156115fa576115f961227b565b5b6116068d828e0161139f565b945094505060808b013567ffffffffffffffff8111156116295761162861227b565b5b6116358d828e01611466565b92509250509295989b9194979a5092959850565b6000806000806080858703121561166357611662612280565b5b600085013567ffffffffffffffff8111156116815761168061227b565b5b61168d87828801611297565b945050602085013567ffffffffffffffff8111156116ae576116ad61227b565b5b6116ba878288016113f5565b935050604085013567ffffffffffffffff8111156116db576116da61227b565b5b6116e78782880161131b565b925050606085013567ffffffffffffffff8111156117085761170761227b565b5b611714878288016114bc565b91505092959194509250565b60006020828403121561173657611735612280565b5b600061174484828501611423565b91505092915050565b6000806040838503121561176457611763612280565b5b6000611772858286016114ea565b925050602061178385828601611423565b9150509250929050565b600061179983836117d1565b60208301905092915050565b60006117b183836119c8565b905092915050565b60006117c58383611af3565b60208301905092915050565b6117da81612032565b82525050565b6117e981612032565b82525050565b60006117fb8385611fbb565b935061180682611f16565b8060005b8581101561183f5761181c828461201b565b611826888261178d565b975061183183611f87565b92505060018101905061180a565b5085925050509392505050565b600061185782611f50565b6118618185611fbb565b935061186c83611f20565b8060005b8381101561189d578151611884888261178d565b975061188f83611f94565b925050600181019050611870565b5085935050505092915050565b60006118b582611f5b565b6118bf8185611fcc565b9350836020820285016118d185611f30565b8060005b8581101561190d57848403895281516118ee85826117a5565b94506118f983611fa1565b925060208a019950506001810190506118d5565b50829750879550505050505092915050565b600061192a82611f66565b6119348185611fdd565b935061193f83611f40565b8060005b8381101561197057815161195788826117b9565b975061196283611fae565b925050600181019050611943565b5085935050505092915050565b61198681612044565b82525050565b61199d6119988261204e565b612192565b82525050565b60006119af8385611fff565b93506119bc8385846120a4565b82840190509392505050565b60006119d382611f71565b6119dd8185611fee565b93506119ed8185602086016120b3565b6119f681612285565b840191505092915050565b6000611a0d838561200a565b9350611a1a8385846120a4565b611a2383612285565b840190509392505050565b6000611a3982611f7c565b611a43818561200a565b9350611a538185602086016120b3565b611a5c81612285565b840191505092915050565b6000611a7460178361200a565b9150611a7f82612296565b602082019050919050565b6000611a9760178361200a565b9150611aa2826122bf565b602082019050919050565b6000611aba601a8361200a565b9150611ac5826122e8565b602082019050919050565b6000611add601a8361200a565b9150611ae882612311565b602082019050919050565b611afc8161209a565b82525050565b6000611b0e828661198c565b600482019150611b1f8284866119a3565b9150819050949350505050565b6000611b398284866119a3565b91508190509392505050565b60006060820190508181036000830152611b5f818661184c565b90508181036020830152611b7381856118aa565b90508181036040830152611b87818461191f565b9050949350505050565b600060a0820190508181036000830152611bab818861184c565b90508181036020830152611bbf81876118aa565b90508181036040830152611bd3818661191f565b90508181036060830152611be78185611a2e565b9050611bf660808301846117e0565b9695505050505050565b60006080820190508181036000830152611c1a818761184c565b90508181036020830152611c2e818661191f565b90508181036040830152611c4281856118aa565b90508181036060830152611c568184611a2e565b905095945050505050565b6000602082019050611c76600083018461197d565b92915050565b6000606082019050611c91600083018861197d565b8181036020830152611ca48186886117ef565b90508181036040830152611cb9818486611a01565b90509695505050505050565b60006020820190508181036000830152611cde81611a67565b9050919050565b60006020820190508181036000830152611cfe81611a8a565b9050919050565b60006020820190508181036000830152611d1e81611aad565b9050919050565b60006020820190508181036000830152611d3e81611ad0565b9050919050565b60008083356001602003843603038112611d6257611d61612267565b5b80840192508235915067ffffffffffffffff821115611d8457611d83612262565b5b602083019250600182023603831315611da057611d9f612271565b5b509250929050565b60008083356001602003843603038112611dc557611dc4612267565b5b80840192508235915067ffffffffffffffff821115611de757611de6612262565b5b602083019250600182023603831315611e0357611e02612271565b5b509250929050565b6000611e15611e26565b9050611e218282612118565b919050565b6000604051905090565b600067ffffffffffffffff821115611e4b57611e4a612229565b5b602082029050602081019050919050565b600067ffffffffffffffff821115611e7757611e76612229565b5b602082029050602081019050919050565b600067ffffffffffffffff821115611ea357611ea2612229565b5b602082029050602081019050919050565b600067ffffffffffffffff821115611ecf57611ece612229565b5b611ed882612285565b9050602081019050919050565b600067ffffffffffffffff821115611f0057611eff612229565b5b611f0982612285565b9050602081019050919050565b6000819050919050565b6000819050602082019050919050565b6000819050602082019050919050565b6000819050602082019050919050565b600081519050919050565b600081519050919050565b600081519050919050565b600081519050919050565b600081519050919050565b6000602082019050919050565b6000602082019050919050565b6000602082019050919050565b6000602082019050919050565b600082825260208201905092915050565b600082825260208201905092915050565b600082825260208201905092915050565b600082825260208201905092915050565b600081905092915050565b600082825260208201905092915050565b600061202a6020840184611217565b905092915050565b600061203d8261207a565b9050919050565b6000819050919050565b60007fffffffff0000000000000000000000000000000000000000000000000000000082169050919050565b600073ffffffffffffffffffffffffffffffffffffffff82169050919050565b6000819050919050565b82818337600083830152505050565b60005b838110156120d15780820151818401526020810190506120b6565b838111156120e0576000848401525b50505050565b600060028204905060018216806120fe57607f821691505b60208210811415612112576121116121cb565b5b50919050565b61212182612285565b810181811067ffffffffffffffff821117156121405761213f612229565b5b80604052505050565b60006121548261209a565b91507fffffffffffffffffffffffffffffffffffffffffffffffffffffffffffffffff8214156121875761218661219c565b5b600182019050919050565b6000819050919050565b7f4e487b7100000000000000000000000000000000000000000000000000000000600052601160045260246000fd5b7f4e487b7100000000000000000000000000000000000000000000000000000000600052602260045260246000fd5b7f4e487b7100000000000000000000000000000000000000000000000000000000600052603260045260246000fd5b7f4e487b7100000000000000000000000000000000000000000000000000000000600052604160045260246000fd5b600080fd5b600080fd5b600080fd5b600080fd5b600080fd5b600080fd5b600080fd5b600080fd5b600080fd5b6000601f19601f8301169050919050565b7f4578653a2045786520646f6573206e6f74206578697374000000000000000000600082015250565b7f4578653a204f6e6c792070726f702063616e2063616c6c000000000000000000600082015250565b7f4578653a204172726179206c656e677468206d69736d61746368000000000000600082015250565b7f4578653a2045786520494420616c726561647920696e20757365000000000000600082015250565b61234381612032565b811461234e57600080fd5b50565b61235a81612044565b811461236557600080fd5b50565b6123718161209a565b811461237c57600080fd5b5056fea2646970667358221220d0a3766e15130706039905aacd29d29ed0596faf15cadd634a808c57ab3dc4a364736f6c63430008070033",
  "linkReferences": {},
  "deployedLinkReferences": {}
}