{
  "_format": "hh-sol-artifact-1",
  "contractName": "Executables",
  "sourceName": "contracts/Executables.sol",
  "abi": [
    {
      "inputs": [
        {
          "internalType": "address",
          "name": "_core",
          "type": "address"
        }
      ],
      "stateMutability": "nonpayable",
      "type": "constructor"
    },
    {
      "anonymous": false,
      "inputs": [
        {
          "indexed": false,
          "internalType": "bytes32",
          "name": "exeID",
          "type": "bytes32"
        },
        {
          "indexed": false,
          "internalType": "address[]",
          "name": "targets",
          "type": "address[]"
        },
        {
          "indexed": false,
          "internalType": "string",
          "name": "description",
          "type": "string"
        }
      ],
      "name": "MintExecutable",
      "type": "event"
    },
    {
      "inputs": [],
      "name": "IDENTIFIER",
      "outputs": [
        {
          "internalType": "bytes32",
          "name": "",
          "type": "bytes32"
        }
      ],
      "stateMutability": "view",
      "type": "function"
    },
    {
      "inputs": [],
      "name": "core_",
      "outputs": [
        {
          "internalType": "contract ICore",
          "name": "",
          "type": "address"
        }
      ],
      "stateMutability": "view",
      "type": "function"
    },
    {
      "inputs": [
        {
          "internalType": "address[]",
          "name": "_targets",
          "type": "address[]"
        },
        {
          "internalType": "string[]",
          "name": "_functionSignatures",
          "type": "string[]"
        },
        {
          "internalType": "bytes[]",
          "name": "_encodedParameters",
          "type": "bytes[]"
        },
        {
          "internalType": "uint256[]",
          "name": "_values",
          "type": "uint256[]"
        },
        {
          "internalType": "string",
          "name": "_description",
          "type": "string"
        }
      ],
      "name": "createExe",
      "outputs": [
        {
          "internalType": "bytes32",
          "name": "exeID",
          "type": "bytes32"
        }
      ],
      "stateMutability": "nonpayable",
      "type": "function"
    },
    {
      "inputs": [
        {
          "internalType": "uint256",
          "name": "_propID",
          "type": "uint256"
        },
        {
          "internalType": "bytes32",
          "name": "_exeID",
          "type": "bytes32"
        },
        {
          "internalType": "string",
          "name": "_description",
          "type": "string"
        }
      ],
      "name": "createPropExe",
      "outputs": [
        {
          "internalType": "bytes32",
          "name": "propExeID",
          "type": "bytes32"
        }
      ],
      "stateMutability": "nonpayable",
      "type": "function"
    },
    {
      "inputs": [
        {
          "internalType": "bytes32",
          "name": "_exeID",
          "type": "bytes32"
        }
      ],
      "name": "getExe",
      "outputs": [
        {
          "internalType": "address[]",
          "name": "targets",
          "type": "address[]"
        },
        {
          "internalType": "bytes[]",
          "name": "callData",
          "type": "bytes[]"
        },
        {
          "internalType": "uint256[]",
          "name": "values",
          "type": "uint256[]"
        }
      ],
      "stateMutability": "view",
      "type": "function"
    },
    {
      "inputs": [
        {
          "internalType": "address[]",
          "name": "_targets",
          "type": "address[]"
        },
        {
          "internalType": "uint256[]",
          "name": "_values",
          "type": "uint256[]"
        },
        {
          "internalType": "bytes[]",
          "name": "_callData",
          "type": "bytes[]"
        },
        {
          "internalType": "string",
          "name": "_description",
          "type": "string"
        }
      ],
      "name": "getExeId",
      "outputs": [
        {
          "internalType": "bytes32",
          "name": "",
          "type": "bytes32"
        }
      ],
      "stateMutability": "pure",
      "type": "function"
    },
    {
      "inputs": [
        {
          "internalType": "bytes32",
          "name": "_exeID",
          "type": "bytes32"
        }
      ],
      "name": "getExeInfo",
      "outputs": [
        {
          "internalType": "address[]",
          "name": "targets",
          "type": "address[]"
        },
        {
          "internalType": "bytes[]",
          "name": "callData",
          "type": "bytes[]"
        },
        {
          "internalType": "uint256[]",
          "name": "values",
          "type": "uint256[]"
        },
        {
          "internalType": "string",
          "name": "description",
          "type": "string"
        },
        {
          "internalType": "address",
          "name": "creator",
          "type": "address"
        }
      ],
      "stateMutability": "view",
      "type": "function"
    }
  ],
  "bytecode": "0x60c06040523480156200001157600080fd5b5060405162002dd538038062002dd58339818101604052810190620000379190620000f9565b7f59e2d72f5870ccddd14d35394bd3c22374071b2da7c07a3d6c3b690400b736288133600060026101000a81548173ffffffffffffffffffffffffffffffffffffffff021916908373ffffffffffffffffffffffffffffffffffffffff16021790555081608081815250508073ffffffffffffffffffffffffffffffffffffffff1660a08173ffffffffffffffffffffffffffffffffffffffff1660601b815250505050506200017e565b600081519050620000f38162000164565b92915050565b6000602082840312156200011257620001116200015f565b5b60006200012284828501620000e2565b91505092915050565b600062000138826200013f565b9050919050565b600073ffffffffffffffffffffffffffffffffffffffff82169050919050565b600080fd5b6200016f816200012b565b81146200017b57600080fd5b50565b60805160a05160601c612c27620001ae6000396000818161072501526113f101526000610efe0152612c276000f3fe608060405234801561001057600080fd5b506004361061007d5760003560e01c80633c9747f31161005b5780633c9747f314610112578063971aa75e14610130578063e075132614610162578063eaddd0fd146101965761007d565b80630ee476bc14610082578063184b9ce5146100b2578063295adadf146100e2575b600080fd5b61009c60048036038101906100979190611cfb565b6101b4565b6040516100a991906123b6565b60405180910390f35b6100cc60048036038101906100c79190611bde565b6101ed565b6040516100d991906123b6565b60405180910390f35b6100fc60048036038101906100f79190611dff565b61070a565b60405161010991906123b6565b60405180910390f35b61011a610efc565b60405161012791906123b6565b60405180910390f35b61014a60048036038101906101459190611dd2565b610f20565b6040516101599392919061229a565b60405180910390f35b61017c60048036038101906101779190611dd2565b611118565b60405161018d9594939291906122e6565b60405180910390f35b61019e6113ef565b6040516101ab919061245f565b60405180910390f35b6000848484846040516020016101cd9493929190612355565b604051602081830303815290604052805190602001209050949350505050565b6000888890508b8b90501480156102095750868690508b8b9050145b801561021a5750848490508b8b9050145b610259576040517f08c379a0000000000000000000000000000000000000000000000000000000008152600401610250906124ba565b60405180910390fd5b60008b8b905067ffffffffffffffff81111561027857610277612a7b565b5b6040519080825280602002602001820160405280156102ab57816020015b60608152602001906001900390816102965790505b50905060005b8c8c905081101561036e578a8a828181106102cf576102ce612a4c565b5b90506020028101906102e1919061255d565b6040516102ef929190612281565b604051809103902089898381811061030a57610309612a4c565b5b905060200281019061031c91906124fa565b60405160200161032e93929190612257565b6040516020818303038152906040528282815181106103505761034f612a4c565b5b602002602001018190525080806103669061299b565b9150506102b1565b506104418c8c80806020026020016040519081016040528093929190818152602001838360200280828437600081840152601f19601f82011690508083019250505050505050878780806020026020016040519081016040528093929190818152602001838360200280828437600081840152601f19601f820116905080830192505050505050508387878080601f016020809104026020016040519081016040528093929190818152602001838380828437600081840152601f19601f820116905080830192505050505050506101b4565b9150600073ffffffffffffffffffffffffffffffffffffffff166001600084815260200190815260200160002060040160009054906101000a900473ffffffffffffffffffffffffffffffffffffffff1673ffffffffffffffffffffffffffffffffffffffff16146104e8576040517f08c379a00000000000000000000000000000000000000000000000000000000081526004016104df906124da565b60405180910390fd5b6040518060a001604052808d8d80806020026020016040519081016040528093929190818152602001838360200280828437600081840152601f19601f820116905080830192505050505050508152602001878780806020026020016040519081016040528093929190818152602001838360200280828437600081840152601f19601f82011690508083019250505050505050815260200182815260200185858080601f016020809104026020016040519081016040528093929190818152602001838380828437600081840152601f19601f8201169050808301925050505050505081526020013373ffffffffffffffffffffffffffffffffffffffff1681525060016000848152602001908152602001600020600082015181600001908051906020019061061a929190611413565b50602082015181600101908051906020019061063792919061149d565b5060408201518160020190805190602001906106549291906114ea565b50606082015181600301908051906020019061067192919061154a565b5060808201518160040160006101000a81548173ffffffffffffffffffffffffffffffffffffffff021916908373ffffffffffffffffffffffffffffffffffffffff1602179055509050507f9efa23cf1a1ca9f8f84d1c5ab98b64e67b7eb5c0ec0cb0f02658ce7ec7d7ced3828d8d87876040516106f39594939291906123d1565b60405180910390a1509a9950505050505050505050565b60003373ffffffffffffffffffffffffffffffffffffffff167f000000000000000000000000000000000000000000000000000000000000000073ffffffffffffffffffffffffffffffffffffffff1663624a23e07f36209a57dfd79e3872ec3a0c88c653bbe7e32a12306e5e1f92f118c1936ae8b26040518263ffffffff1660e01b815260040161079c91906123b6565b60206040518083038186803b1580156107b457600080fd5b505afa1580156107c8573d6000803e3d6000fd5b505050506040513d601f19601f820116820180604052508101906107ec9190611bb1565b73ffffffffffffffffffffffffffffffffffffffff1614610842576040517f08c379a00000000000000000000000000000000000000000000000000000000081526004016108399061249a565b60405180910390fd5b600073ffffffffffffffffffffffffffffffffffffffff166001600085815260200190815260200160002060040160009054906101000a900473ffffffffffffffffffffffffffffffffffffffff1673ffffffffffffffffffffffffffffffffffffffff1614156108e8576040517f08c379a00000000000000000000000000000000000000000000000000000000081526004016108df9061247a565b60405180910390fd5b610ad76001600085815260200190815260200160002060000180548060200260200160405190810160405280929190818152602001828054801561098157602002820191906000526020600020905b8160009054906101000a900473ffffffffffffffffffffffffffffffffffffffff1673ffffffffffffffffffffffffffffffffffffffff1681526020019060010190808311610937575b5050505050600160008681526020019081526020016000206001018054806020026020016040519081016040528092919081815260200182805480156109e657602002820191906000526020600020905b8154815260200190600101908083116109d2575b505050505060016000878152602001908152602001600020600201805480602002602001604051908101604052809291908181526020016000905b82821015610acd578382906000526020600020018054610a409061291e565b80601f0160208091040260200160405190810160405280929190818152602001828054610a6c9061291e565b8015610ab95780601f10610a8e57610100808354040283529160200191610ab9565b820191906000526020600020905b815481529060010190602001808311610a9c57829003601f168201915b505050505081526020019060010190610a21565b50505050856101b4565b9050600073ffffffffffffffffffffffffffffffffffffffff166001600083815260200190815260200160002060040160009054906101000a900473ffffffffffffffffffffffffffffffffffffffff1673ffffffffffffffffffffffffffffffffffffffff1614610b7e576040517f08c379a0000000000000000000000000000000000000000000000000000000008152600401610b75906124da565b60405180910390fd5b6040518060a0016040528060016000868152602001908152602001600020600001805480602002602001604051908101604052809291908181526020018280548015610c1f57602002820191906000526020600020905b8160009054906101000a900473ffffffffffffffffffffffffffffffffffffffff1673ffffffffffffffffffffffffffffffffffffffff1681526020019060010190808311610bd5575b5050505050815260200160016000868152602001908152602001600020600101805480602002602001604051908101604052809291908181526020018280548015610c8957602002820191906000526020600020905b815481526020019060010190808311610c75575b5050505050815260200160016000868152602001908152602001600020600201805480602002602001604051908101604052809291908181526020016000905b82821015610d75578382906000526020600020018054610ce89061291e565b80601f0160208091040260200160405190810160405280929190818152602001828054610d149061291e565b8015610d615780601f10610d3657610100808354040283529160200191610d61565b820191906000526020600020905b815481529060010190602001808311610d4457829003601f168201915b505050505081526020019060010190610cc9565b5050505081526020018381526020016001600086815260200190815260200160002060040160009054906101000a900473ffffffffffffffffffffffffffffffffffffffff1673ffffffffffffffffffffffffffffffffffffffff16815250600160008381526020019081526020016000206000820151816000019080519060200190610e03929190611413565b506020820151816001019080519060200190610e2092919061149d565b506040820151816002019080519060200190610e3d9291906114ea565b506060820151816003019080519060200190610e5a92919061154a565b5060808201518160040160006101000a81548173ffffffffffffffffffffffffffffffffffffffff021916908373ffffffffffffffffffffffffffffffffffffffff1602179055509050507f9efa23cf1a1ca9f8f84d1c5ab98b64e67b7eb5c0ec0cb0f02658ce7ec7d7ced3816001600086815260200190815260200160002060000184604051610eed9392919061241a565b60405180910390a19392505050565b7f000000000000000000000000000000000000000000000000000000000000000081565b606080606060016000858152602001908152602001600020600001805480602002602001604051908101604052809291908181526020018280548015610fbb57602002820191906000526020600020905b8160009054906101000a900473ffffffffffffffffffffffffffffffffffffffff1673ffffffffffffffffffffffffffffffffffffffff1681526020019060010190808311610f71575b5050505050925060016000858152602001908152602001600020600201805480602002602001604051908101604052809291908181526020016000905b828210156110a45783829060005260206000200180546110179061291e565b80601f01602080910402602001604051908101604052809291908181526020018280546110439061291e565b80156110905780601f1061106557610100808354040283529160200191611090565b820191906000526020600020905b81548152906001019060200180831161107357829003601f168201915b505050505081526020019060010190610ff8565b5050505091506001600085815260200190815260200160002060010180548060200260200160405190810160405280929190818152602001828054801561110a57602002820191906000526020600020905b8154815260200190600101908083116110f6575b505050505090509193909250565b6060806060806000600160008781526020019081526020016000206000018054806020026020016040519081016040528092919081815260200182805480156111b657602002820191906000526020600020905b8160009054906101000a900473ffffffffffffffffffffffffffffffffffffffff1673ffffffffffffffffffffffffffffffffffffffff168152602001906001019080831161116c575b5050505050945060016000878152602001908152602001600020600201805480602002602001604051908101604052809291908181526020016000905b8282101561129f5783829060005260206000200180546112129061291e565b80601f016020809104026020016040519081016040528092919081815260200182805461123e9061291e565b801561128b5780601f106112605761010080835404028352916020019161128b565b820191906000526020600020905b81548152906001019060200180831161126e57829003601f168201915b5050505050815260200190600101906111f3565b5050505093506001600087815260200190815260200160002060010180548060200260200160405190810160405280929190818152602001828054801561130557602002820191906000526020600020905b8154815260200190600101908083116112f1575b5050505050925060016000878152602001908152602001600020600301805461132d9061291e565b80601f01602080910402602001604051908101604052809291908181526020018280546113599061291e565b80156113a65780601f1061137b576101008083540402835291602001916113a6565b820191906000526020600020905b81548152906001019060200180831161138957829003601f168201915b505050505091506001600087815260200190815260200160002060040160009054906101000a900473ffffffffffffffffffffffffffffffffffffffff16905091939590929450565b7f000000000000000000000000000000000000000000000000000000000000000081565b82805482825590600052602060002090810192821561148c579160200282015b8281111561148b5782518260006101000a81548173ffffffffffffffffffffffffffffffffffffffff021916908373ffffffffffffffffffffffffffffffffffffffff16021790555091602001919060010190611433565b5b50905061149991906115d0565b5090565b8280548282559060005260206000209081019282156114d9579160200282015b828111156114d85782518255916020019190600101906114bd565b5b5090506114e691906115d0565b5090565b828054828255906000526020600020908101928215611539579160200282015b828111156115385782518290805190602001906115289291906115ed565b509160200191906001019061150a565b5b5090506115469190611673565b5090565b8280546115569061291e565b90600052602060002090601f01602090048101928261157857600085556115bf565b82601f1061159157805160ff19168380011785556115bf565b828001600101855582156115bf579182015b828111156115be5782518255916020019190600101906115a3565b5b5090506115cc91906115d0565b5090565b5b808211156115e95760008160009055506001016115d1565b5090565b8280546115f99061291e565b90600052602060002090601f01602090048101928261161b5760008555611662565b82601f1061163457805160ff1916838001178555611662565b82800160010185558215611662579182015b82811115611661578251825591602001919060010190611646565b5b50905061166f91906115d0565b5090565b5b80821115611693576000818161168a9190611697565b50600101611674565b5090565b5080546116a39061291e565b6000825580601f106116b557506116d4565b601f0160209004906000526020600020908101906116d391906115d0565b5b50565b60006116ea6116e5846125e5565b6125c0565b9050808382526020820190508285602086028201111561170d5761170c612ad1565b5b60005b8581101561173d578161172388826118c9565b845260208401935060208301925050600181019050611710565b5050509392505050565b600061175a61175584612611565b6125c0565b9050808382526020820190508285602086028201111561177d5761177c612ad1565b5b60005b858110156117cb57813567ffffffffffffffff8111156117a3576117a2612ac2565b5b8086016117b08982611aea565b85526020850194506020840193505050600181019050611780565b5050509392505050565b60006117e86117e38461263d565b6125c0565b9050808382526020820190508285602086028201111561180b5761180a612ad1565b5b60005b8581101561183b57816118218882611b9c565b84526020840193506020830192505060018101905061180e565b5050509392505050565b600061185861185384612669565b6125c0565b90508281526020810184848401111561187457611873612adb565b5b61187f8482856128dc565b509392505050565b600061189a6118958461269a565b6125c0565b9050828152602081018484840111156118b6576118b5612adb565b5b6118c18482856128dc565b509392505050565b6000813590506118d881612bac565b92915050565b6000815190506118ed81612bac565b92915050565b60008083601f84011261190957611908612ac2565b5b8235905067ffffffffffffffff81111561192657611925612abd565b5b60208301915083602082028301111561194257611941612ad1565b5b9250929050565b600082601f83011261195e5761195d612ac2565b5b813561196e8482602086016116d7565b91505092915050565b60008083601f84011261198d5761198c612ac2565b5b8235905067ffffffffffffffff8111156119aa576119a9612abd565b5b6020830191508360208202830111156119c6576119c5612ad1565b5b9250929050565b600082601f8301126119e2576119e1612ac2565b5b81356119f2848260208601611747565b91505092915050565b60008083601f840112611a1157611a10612ac2565b5b8235905067ffffffffffffffff811115611a2e57611a2d612abd565b5b602083019150836020820283011115611a4a57611a49612ad1565b5b9250929050565b60008083601f840112611a6757611a66612ac2565b5b8235905067ffffffffffffffff811115611a8457611a83612abd565b5b602083019150836020820283011115611aa057611a9f612ad1565b5b9250929050565b600082601f830112611abc57611abb612ac2565b5b8135611acc8482602086016117d5565b91505092915050565b600081359050611ae481612bc3565b92915050565b600082601f830112611aff57611afe612ac2565b5b8135611b0f848260208601611845565b91505092915050565b60008083601f840112611b2e57611b2d612ac2565b5b8235905067ffffffffffffffff811115611b4b57611b4a612abd565b5b602083019150836001820283011115611b6757611b66612ad1565b5b9250929050565b600082601f830112611b8357611b82612ac2565b5b8135611b93848260208601611887565b91505092915050565b600081359050611bab81612bda565b92915050565b600060208284031215611bc757611bc6612ae5565b5b6000611bd5848285016118de565b91505092915050565b60008060008060008060008060008060a08b8d031215611c0157611c00612ae5565b5b60008b013567ffffffffffffffff811115611c1f57611c1e612ae0565b5b611c2b8d828e016118f3565b9a509a505060208b013567ffffffffffffffff811115611c4e57611c4d612ae0565b5b611c5a8d828e016119fb565b985098505060408b013567ffffffffffffffff811115611c7d57611c7c612ae0565b5b611c898d828e01611977565b965096505060608b013567ffffffffffffffff811115611cac57611cab612ae0565b5b611cb88d828e01611a51565b945094505060808b013567ffffffffffffffff811115611cdb57611cda612ae0565b5b611ce78d828e01611b18565b92509250509295989b9194979a5092959850565b60008060008060808587031215611d1557611d14612ae5565b5b600085013567ffffffffffffffff811115611d3357611d32612ae0565b5b611d3f87828801611949565b945050602085013567ffffffffffffffff811115611d6057611d5f612ae0565b5b611d6c87828801611aa7565b935050604085013567ffffffffffffffff811115611d8d57611d8c612ae0565b5b611d99878288016119cd565b925050606085013567ffffffffffffffff811115611dba57611db9612ae0565b5b611dc687828801611b6e565b91505092959194509250565b600060208284031215611de857611de7612ae5565b5b6000611df684828501611ad5565b91505092915050565b600080600060608486031215611e1857611e17612ae5565b5b6000611e2686828701611b9c565b9350506020611e3786828701611ad5565b925050604084013567ffffffffffffffff811115611e5857611e57612ae0565b5b611e6486828701611b6e565b9150509250925092565b6000611e7a8383611eb2565b60208301905092915050565b6000611e92838361210e565b905092915050565b6000611ea68383612248565b60208301905092915050565b611ebb81612834565b82525050565b611eca81612834565b82525050565b6000611edc838561279d565b9350611ee7826126cb565b8060005b85811015611f2057611efd82846127fd565b611f078882611e6e565b9750611f128361275c565b925050600181019050611eeb565b5085925050509392505050565b6000611f388261271a565b611f42818561279d565b9350611f4d836126d5565b8060005b83811015611f7e578151611f658882611e6e565b9750611f7083612769565b925050600181019050611f51565b5085935050505092915050565b6000611f9682612725565b611fa0818561279d565b9350611fab836126e5565b8060005b83811015611fe357611fc082612aaa565b611fca8882611e6e565b9750611fd583612776565b925050600181019050611faf565b5085935050505092915050565b6000611ffb82612730565b61200581856127ae565b935083602082028501612017856126fa565b8060005b8581101561205357848403895281516120348582611e86565b945061203f83612783565b925060208a0199505060018101905061201b565b50829750879550505050505092915050565b60006120708261273b565b61207a81856127bf565b93506120858361270a565b8060005b838110156120b657815161209d8882611e9a565b97506120a883612790565b925050600181019050612089565b5085935050505092915050565b6120cc81612846565b82525050565b6120e36120de82612850565b6129e4565b82525050565b60006120f583856127e1565b93506121028385846128dc565b82840190509392505050565b600061211982612746565b61212381856127d0565b93506121338185602086016128eb565b61213c81612aea565b840191505092915050565b612150816128a6565b82525050565b600061216283856127ec565b935061216f8385846128dc565b61217883612aea565b840190509392505050565b600061218e82612751565b61219881856127ec565b93506121a88185602086016128eb565b6121b181612aea565b840191505092915050565b60006121c96017836127ec565b91506121d482612b08565b602082019050919050565b60006121ec6017836127ec565b91506121f782612b31565b602082019050919050565b600061220f601a836127ec565b915061221a82612b5a565b602082019050919050565b6000612232601a836127ec565b915061223d82612b83565b602082019050919050565b6122518161289c565b82525050565b600061226382866120d2565b6004820191506122748284866120e9565b9150819050949350505050565b600061228e8284866120e9565b91508190509392505050565b600060608201905081810360008301526122b48186611f2d565b905081810360208301526122c88185611ff0565b905081810360408301526122dc8184612065565b9050949350505050565b600060a08201905081810360008301526123008188611f2d565b905081810360208301526123148187611ff0565b905081810360408301526123288186612065565b9050818103606083015261233c8185612183565b905061234b6080830184611ec1565b9695505050505050565b6000608082019050818103600083015261236f8187611f2d565b905081810360208301526123838186612065565b905081810360408301526123978185611ff0565b905081810360608301526123ab8184612183565b905095945050505050565b60006020820190506123cb60008301846120c3565b92915050565b60006060820190506123e660008301886120c3565b81810360208301526123f9818688611ed0565b9050818103604083015261240e818486612156565b90509695505050505050565b600060608201905061242f60008301866120c3565b81810360208301526124418185611f8b565b905081810360408301526124558184612183565b9050949350505050565b60006020820190506124746000830184612147565b92915050565b60006020820190508181036000830152612493816121bc565b9050919050565b600060208201905081810360008301526124b3816121df565b9050919050565b600060208201905081810360008301526124d381612202565b9050919050565b600060208201905081810360008301526124f381612225565b9050919050565b6000808335600160200384360303811261251757612516612acc565b5b80840192508235915067ffffffffffffffff82111561253957612538612ac7565b5b60208301925060018202360383131561255557612554612ad6565b5b509250929050565b6000808335600160200384360303811261257a57612579612acc565b5b80840192508235915067ffffffffffffffff82111561259c5761259b612ac7565b5b6020830192506001820236038313156125b8576125b7612ad6565b5b509250929050565b60006125ca6125db565b90506125d6828261296a565b919050565b6000604051905090565b600067ffffffffffffffff821115612600576125ff612a7b565b5b602082029050602081019050919050565b600067ffffffffffffffff82111561262c5761262b612a7b565b5b602082029050602081019050919050565b600067ffffffffffffffff82111561265857612657612a7b565b5b602082029050602081019050919050565b600067ffffffffffffffff82111561268457612683612a7b565b5b61268d82612aea565b9050602081019050919050565b600067ffffffffffffffff8211156126b5576126b4612a7b565b5b6126be82612aea565b9050602081019050919050565b6000819050919050565b6000819050602082019050919050565b60008190508160005260206000209050919050565b6000819050602082019050919050565b6000819050602082019050919050565b600081519050919050565b600081549050919050565b600081519050919050565b600081519050919050565b600081519050919050565b600081519050919050565b6000602082019050919050565b6000602082019050919050565b6000600182019050919050565b6000602082019050919050565b6000602082019050919050565b600082825260208201905092915050565b600082825260208201905092915050565b600082825260208201905092915050565b600082825260208201905092915050565b600081905092915050565b600082825260208201905092915050565b600061280c60208401846118c9565b905092915050565b600073ffffffffffffffffffffffffffffffffffffffff82169050919050565b600061283f8261287c565b9050919050565b6000819050919050565b60007fffffffff0000000000000000000000000000000000000000000000000000000082169050919050565b600073ffffffffffffffffffffffffffffffffffffffff82169050919050565b6000819050919050565b60006128b1826128b8565b9050919050565b60006128c3826128ca565b9050919050565b60006128d58261287c565b9050919050565b82818337600083830152505050565b60005b838110156129095780820151818401526020810190506128ee565b83811115612918576000848401525b50505050565b6000600282049050600182168061293657607f821691505b6020821081141561294a57612949612a1d565b5b50919050565b600061296361295e83612afb565b612814565b9050919050565b61297382612aea565b810181811067ffffffffffffffff8211171561299257612991612a7b565b5b80604052505050565b60006129a68261289c565b91507fffffffffffffffffffffffffffffffffffffffffffffffffffffffffffffffff8214156129d9576129d86129ee565b5b600182019050919050565b6000819050919050565b7f4e487b7100000000000000000000000000000000000000000000000000000000600052601160045260246000fd5b7f4e487b7100000000000000000000000000000000000000000000000000000000600052602260045260246000fd5b7f4e487b7100000000000000000000000000000000000000000000000000000000600052603260045260246000fd5b7f4e487b7100000000000000000000000000000000000000000000000000000000600052604160045260246000fd5b6000612ab68254612950565b9050919050565b600080fd5b600080fd5b600080fd5b600080fd5b600080fd5b600080fd5b600080fd5b600080fd5b600080fd5b6000601f19601f8301169050919050565b60008160001c9050919050565b7f4578653a2045786520646f6573206e6f74206578697374000000000000000000600082015250565b7f4578653a204f6e6c792070726f702063616e2063616c6c000000000000000000600082015250565b7f4578653a204172726179206c656e677468206d69736d61746368000000000000600082015250565b7f4578653a2045786520494420616c726561647920696e20757365000000000000600082015250565b612bb581612834565b8114612bc057600080fd5b50565b612bcc81612846565b8114612bd757600080fd5b50565b612be38161289c565b8114612bee57600080fd5b5056fea2646970667358221220bb99472670c8a2bafcd4fb1e57432922d38f73e0c606804718ec91540486e39364736f6c63430008070033",
  "linkReferences": {},
  "deployedLinkReferences": {}
}