{
  "_format": "hh-sol-artifact-1",
  "contractName": "Executables",
  "sourceName": "contracts/Executables.sol",
  "abi": [
    {
      "inputs": [
        {
          "internalType": "address[]",
          "name": "_targets",
          "type": "address[]"
        },
        {
          "internalType": "string[]",
          "name": "_functionSignatures",
          "type": "string[]"
        },
        {
          "internalType": "bytes[]",
          "name": "_encodedParameters",
          "type": "bytes[]"
        },
        {
          "internalType": "uint256[]",
          "name": "_values",
          "type": "uint256[]"
        },
        {
          "internalType": "string",
          "name": "_description",
          "type": "string"
        }
      ],
      "name": "createExe",
      "outputs": [
        {
          "internalType": "bytes32",
          "name": "exeID",
          "type": "bytes32"
        }
      ],
      "stateMutability": "nonpayable",
      "type": "function"
    },
    {
      "inputs": [
        {
          "internalType": "bytes32",
          "name": "_exeID",
          "type": "bytes32"
        }
      ],
      "name": "getExe",
      "outputs": [
        {
          "internalType": "address[]",
          "name": "targets",
          "type": "address[]"
        },
        {
          "internalType": "bytes[]",
          "name": "callData",
          "type": "bytes[]"
        },
        {
          "internalType": "uint256[]",
          "name": "values",
          "type": "uint256[]"
        }
      ],
      "stateMutability": "view",
      "type": "function"
    },
    {
      "inputs": [
        {
          "internalType": "bytes32",
          "name": "_exeID",
          "type": "bytes32"
        }
      ],
      "name": "getExeInfo",
      "outputs": [
        {
          "internalType": "address[]",
          "name": "targets",
          "type": "address[]"
        },
        {
          "internalType": "bytes[]",
          "name": "callData",
          "type": "bytes[]"
        },
        {
          "internalType": "uint256[]",
          "name": "values",
          "type": "uint256[]"
        },
        {
          "internalType": "string",
          "name": "description",
          "type": "string"
        },
        {
          "internalType": "address",
          "name": "creator",
          "type": "address"
        }
      ],
      "stateMutability": "view",
      "type": "function"
    }
  ],
  "bytecode": "0x608060405234801561001057600080fd5b506108e8806100206000396000f3fe608060405234801561001057600080fd5b50600436106100415760003560e01c8063184b9ce514610046578063971aa75e14610076578063e0751326146100a8575b600080fd5b610060600480360381019061005b91906102d2565b6100dc565b60405161006d91906106fa565b60405180910390f35b610090600480360381019061008b91906103ef565b6100f2565b60405161009f9392919061063f565b60405180910390f35b6100c260048036038101906100bd91906103ef565b6100fe565b6040516100d395949392919061068b565b60405180910390f35b60008060001b90509a9950505050505050505050565b60608060609193909250565b606080606080600091939590929450565b60008083601f84011261012557610124610876565b5b8235905067ffffffffffffffff81111561014257610141610871565b5b60208301915083602082028301111561015e5761015d61087b565b5b9250929050565b60008083601f84011261017b5761017a610876565b5b8235905067ffffffffffffffff81111561019857610197610871565b5b6020830191508360208202830111156101b4576101b361087b565b5b9250929050565b60008083601f8401126101d1576101d0610876565b5b8235905067ffffffffffffffff8111156101ee576101ed610871565b5b60208301915083602082028301111561020a5761020961087b565b5b9250929050565b60008083601f84011261022757610226610876565b5b8235905067ffffffffffffffff81111561024457610243610871565b5b6020830191508360208202830111156102605761025f61087b565b5b9250929050565b6000813590506102768161089b565b92915050565b60008083601f84011261029257610291610876565b5b8235905067ffffffffffffffff8111156102af576102ae610871565b5b6020830191508360018202830111156102cb576102ca61087b565b5b9250929050565b60008060008060008060008060008060a08b8d0312156102f5576102f4610885565b5b60008b013567ffffffffffffffff81111561031357610312610880565b5b61031f8d828e0161010f565b9a509a505060208b013567ffffffffffffffff81111561034257610341610880565b5b61034e8d828e016101bb565b985098505060408b013567ffffffffffffffff81111561037157610370610880565b5b61037d8d828e01610165565b965096505060608b013567ffffffffffffffff8111156103a05761039f610880565b5b6103ac8d828e01610211565b945094505060808b013567ffffffffffffffff8111156103cf576103ce610880565b5b6103db8d828e0161027c565b92509250509295989b9194979a5092959850565b60006020828403121561040557610404610885565b5b600061041384828501610267565b91505092915050565b60006104288383610460565b60208301905092915050565b600061044083836105be565b905092915050565b60006104548383610630565b60208301905092915050565b610469816107f8565b82525050565b610478816107f8565b82525050565b600061048982610745565b61049381856107a3565b935061049e83610715565b8060005b838110156104cf5781516104b6888261041c565b97506104c18361077c565b9250506001810190506104a2565b5085935050505092915050565b60006104e782610750565b6104f181856107b4565b93508360208202850161050385610725565b8060005b8581101561053f57848403895281516105208582610434565b945061052b83610789565b925060208a01995050600181019050610507565b50829750879550505050505092915050565b600061055c8261075b565b61056681856107c5565b935061057183610735565b8060005b838110156105a25781516105898882610448565b975061059483610796565b925050600181019050610575565b5085935050505092915050565b6105b88161080a565b82525050565b60006105c982610766565b6105d381856107d6565b93506105e381856020860161083e565b6105ec8161088a565b840191505092915050565b600061060282610771565b61060c81856107e7565b935061061c81856020860161083e565b6106258161088a565b840191505092915050565b61063981610834565b82525050565b60006060820190508181036000830152610659818661047e565b9050818103602083015261066d81856104dc565b905081810360408301526106818184610551565b9050949350505050565b600060a08201905081810360008301526106a5818861047e565b905081810360208301526106b981876104dc565b905081810360408301526106cd8186610551565b905081810360608301526106e181856105f7565b90506106f0608083018461046f565b9695505050505050565b600060208201905061070f60008301846105af565b92915050565b6000819050602082019050919050565b6000819050602082019050919050565b6000819050602082019050919050565b600081519050919050565b600081519050919050565b600081519050919050565b600081519050919050565b600081519050919050565b6000602082019050919050565b6000602082019050919050565b6000602082019050919050565b600082825260208201905092915050565b600082825260208201905092915050565b600082825260208201905092915050565b600082825260208201905092915050565b600082825260208201905092915050565b600061080382610814565b9050919050565b6000819050919050565b600073ffffffffffffffffffffffffffffffffffffffff82169050919050565b6000819050919050565b60005b8381101561085c578082015181840152602081019050610841565b8381111561086b576000848401525b50505050565b600080fd5b600080fd5b600080fd5b600080fd5b600080fd5b6000601f19601f8301169050919050565b6108a48161080a565b81146108af57600080fd5b5056fea26469706673582212207154f1534721d157ce688427dfcf76693dd0b8b9877cfb30ce5d23c18954d47064736f6c63430008070033",
  "linkReferences": {},
  "deployedLinkReferences": {}
}