{
  "_format": "hh-sol-artifact-1",
  "contractName": "Executables",
  "sourceName": "contracts/Executables.sol",
  "abi": [
    {
      "inputs": [
        {
          "internalType": "address",
          "name": "_core",
          "type": "address"
        },
        {
          "internalType": "address",
          "name": "_timer",
          "type": "address"
        }
      ],
      "stateMutability": "nonpayable",
      "type": "constructor"
    },
    {
      "anonymous": false,
      "inputs": [
        {
          "indexed": false,
          "internalType": "bytes32",
          "name": "exeID",
          "type": "bytes32"
        },
        {
          "indexed": false,
          "internalType": "address[]",
          "name": "targets",
          "type": "address[]"
        },
        {
          "indexed": false,
          "internalType": "string",
          "name": "description",
          "type": "string"
        }
      ],
      "name": "MintExecutable",
      "type": "event"
    },
    {
      "inputs": [],
      "name": "IDENTIFIER",
      "outputs": [
        {
          "internalType": "bytes32",
          "name": "",
          "type": "bytes32"
        }
      ],
      "stateMutability": "view",
      "type": "function"
    },
    {
      "inputs": [
        {
          "internalType": "bytes32",
          "name": "c__0x00e2a1ba",
          "type": "bytes32"
        }
      ],
      "name": "c_0x00e2a1ba",
      "outputs": [],
      "stateMutability": "pure",
      "type": "function"
    },
    {
      "inputs": [
        {
          "internalType": "bytes32",
          "name": "c__0x0da7e8db",
          "type": "bytes32"
        }
      ],
      "name": "c_0x0da7e8db",
      "outputs": [],
      "stateMutability": "pure",
      "type": "function"
    },
    {
      "inputs": [
        {
          "internalType": "bytes32",
          "name": "c__0x1cf15b0d",
          "type": "bytes32"
        }
      ],
      "name": "c_0x1cf15b0d",
      "outputs": [],
      "stateMutability": "pure",
      "type": "function"
    },
    {
      "inputs": [
        {
          "internalType": "bytes32",
          "name": "c__0x35ade16d",
          "type": "bytes32"
        }
      ],
      "name": "c_0x35ade16d",
      "outputs": [],
      "stateMutability": "pure",
      "type": "function"
    },
    {
      "inputs": [],
      "name": "core_",
      "outputs": [
        {
          "internalType": "contract ICore",
          "name": "",
          "type": "address"
        }
      ],
      "stateMutability": "view",
      "type": "function"
    },
    {
      "inputs": [
        {
          "internalType": "address[]",
          "name": "_targets",
          "type": "address[]"
        },
        {
          "internalType": "string[]",
          "name": "_functionSignatures",
          "type": "string[]"
        },
        {
          "internalType": "bytes[]",
          "name": "_encodedParameters",
          "type": "bytes[]"
        },
        {
          "internalType": "uint256[]",
          "name": "_values",
          "type": "uint256[]"
        },
        {
          "internalType": "string",
          "name": "_description",
          "type": "string"
        }
      ],
      "name": "createExe",
      "outputs": [
        {
          "internalType": "bytes32",
          "name": "exeID",
          "type": "bytes32"
        }
      ],
      "stateMutability": "nonpayable",
      "type": "function"
    },
    {
      "inputs": [
        {
          "internalType": "uint256",
          "name": "_propID",
          "type": "uint256"
        },
        {
          "internalType": "bytes32",
          "name": "_exeID",
          "type": "bytes32"
        },
        {
          "internalType": "string",
          "name": "_description",
          "type": "string"
        }
      ],
      "name": "createPropExe",
      "outputs": [
        {
          "internalType": "bytes32",
          "name": "propExeID",
          "type": "bytes32"
        }
      ],
      "stateMutability": "nonpayable",
      "type": "function"
    },
    {
      "inputs": [],
      "name": "getCurrentTime",
      "outputs": [
        {
          "internalType": "uint256",
          "name": "",
          "type": "uint256"
        }
      ],
      "stateMutability": "view",
      "type": "function"
    },
    {
      "inputs": [
        {
          "internalType": "bytes32",
          "name": "_exeID",
          "type": "bytes32"
        }
      ],
      "name": "getExe",
      "outputs": [
        {
          "internalType": "address[]",
          "name": "targets",
          "type": "address[]"
        },
        {
          "internalType": "bytes[]",
          "name": "callData",
          "type": "bytes[]"
        },
        {
          "internalType": "uint256[]",
          "name": "values",
          "type": "uint256[]"
        }
      ],
      "stateMutability": "view",
      "type": "function"
    },
    {
      "inputs": [
        {
          "internalType": "address[]",
          "name": "_targets",
          "type": "address[]"
        },
        {
          "internalType": "uint256[]",
          "name": "_values",
          "type": "uint256[]"
        },
        {
          "internalType": "bytes[]",
          "name": "_callData",
          "type": "bytes[]"
        },
        {
          "internalType": "string",
          "name": "_description",
          "type": "string"
        }
      ],
      "name": "getExeId",
      "outputs": [
        {
          "internalType": "bytes32",
          "name": "",
          "type": "bytes32"
        }
      ],
      "stateMutability": "pure",
      "type": "function"
    },
    {
      "inputs": [
        {
          "internalType": "bytes32",
          "name": "_exeID",
          "type": "bytes32"
        }
      ],
      "name": "getExeInfo",
      "outputs": [
        {
          "internalType": "address[]",
          "name": "targets",
          "type": "address[]"
        },
        {
          "internalType": "bytes[]",
          "name": "callData",
          "type": "bytes[]"
        },
        {
          "internalType": "uint256[]",
          "name": "values",
          "type": "uint256[]"
        },
        {
          "internalType": "string",
          "name": "description",
          "type": "string"
        },
        {
          "internalType": "address",
          "name": "creator",
          "type": "address"
        }
      ],
      "stateMutability": "view",
      "type": "function"
    },
    {
      "inputs": [
        {
          "internalType": "uint256",
          "name": "time",
          "type": "uint256"
        }
      ],
      "name": "setCurrentTime",
      "outputs": [],
      "stateMutability": "nonpayable",
      "type": "function"
    },
    {
      "inputs": [],
      "name": "timerAddress",
      "outputs": [
        {
          "internalType": "address",
          "name": "",
          "type": "address"
        }
      ],
      "stateMutability": "view",
      "type": "function"
    }
  ],
  "bytecode": "0x60c06040523480156200001157600080fd5b50604051620042a5380380620042a58339818101604052810190620000379190620003bb565b7f59e2d72f5870ccddd14d35394bd3c22374071b2da7c07a3d6c3b690400b736288282806200008f7fcc8333d776dbed5bc1d5a69fea8a56e88f87955b6a086409d43cdf5b99a00f9160001b6200039860201b60201c565b620000c37f96e003626c0adb9922999e671f576019384ec3e342797245b19e293fc7ae98b860001b6200039860201b60201c565b620000f77f0124756d9b2742e29a6e998127a5d65a6fce0de7b15fe3cffaa57159d293eff460001b6200039860201b60201c565b33600060026101000a81548173ffffffffffffffffffffffffffffffffffffffff021916908373ffffffffffffffffffffffffffffffffffffffff1602179055506200016c7fb4dd8b063f43faf32d5335822e2f70ca2407748b186159c1ed4fe5975bf48fa460001b6200039b60201b60201c565b620001a07fdf0a09891d7ec0658602054cf2c2e2a41244c011d975b6b3df84f87f4e01f1fa60001b6200039b60201b60201c565b620001d47f74aa4cf06a04b763c651dbe9c8d04358ebbbd2cc4e1e17afd7713fac4af5ab8260001b6200039b60201b60201c565b80600160006101000a81548173ffffffffffffffffffffffffffffffffffffffff021916908373ffffffffffffffffffffffffffffffffffffffff160217905550506200024a7f91b90f81106ec7301a2ef3f3646fc2ac7a03224c1592a81c08bf2be57bf85da360001b6200039e60201b60201c565b6200027e7faa1a5f5f7c07ad1d1a00bf086c9ae885f69ed49cd3abc04289c41680f08eda2360001b6200039e60201b60201c565b620002b27f96d06dce006a4c22db8a8fd81f6fd8d01ca83c6b578b06c55ae55449f894b56160001b6200039e60201b60201c565b8260808181525050620002ee7f5df41bcd415e6f031fea4b950841c2b7a0c71533bb77597e55e47143977ffe5060001b6200039e60201b60201c565b620003227f86b081f2885abf844d8a6e92c42bb8b42f1f332206a0f04e515da586d0b809f560001b6200039e60201b60201c565b8173ffffffffffffffffffffffffffffffffffffffff1660a08173ffffffffffffffffffffffffffffffffffffffff1660601b81525050505050620003907f8799d5e7445980f2a6d192a66efe7cffe98e405e15680553b8868f29dbceef9d60001b620003a160201b60201c565b505062000455565b50565b50565b50565b50565b600081519050620003b5816200043b565b92915050565b60008060408385031215620003d557620003d462000436565b5b6000620003e585828601620003a4565b9250506020620003f885828601620003a4565b9150509250929050565b60006200040f8262000416565b9050919050565b600073ffffffffffffffffffffffffffffffffffffffff82169050919050565b600080fd5b620004468162000402565b81146200045257600080fd5b50565b60805160a05160601c613e206200048560003960008181610fc8015261253601526000611d220152613e206000f3fe608060405234801561001057600080fd5b50600436106100ea5760003560e01c80633c9747f31161008c578063971aa75e11610066578063971aa75e146102495780639ef7786d1461027b578063e075132614610297578063eaddd0fd146102cb576100ea565b80633c9747f3146101f35780635743a9701461021157806361e4a6c91461022d576100ea565b806322f8e566116100c857806322f8e5661461016d578063295adadf1461018957806329cb924d146101b957806334829155146101d7576100ea565b80630ee476bc146100ef578063184b9ce51461011f5780631c39c38d1461014f575b600080fd5b61010960048036038101906101049190612e55565b6102e9565b6040516101169190613594565b60405180910390f35b61013960048036038101906101349190612d38565b6103a6565b6040516101469190613594565b60405180910390f35b610157610c5f565b604051610164919061345d565b60405180910390f35b61018760048036038101906101829190612f59565b610c85565b005b6101a3600480360381019061019e9190612fb3565b610efd565b6040516101b09190613594565b60405180910390f35b6101c1611a8b565b6040516101ce91906136d8565b60405180910390f35b6101f160048036038101906101ec9190612f2c565b611d1d565b005b6101fb611d20565b6040516102089190613594565b60405180910390f35b61022b60048036038101906102269190612f2c565b611d44565b005b61024760048036038101906102429190612f2c565b611d47565b005b610263600480360381019061025e9190612f2c565b611d4a565b60405161027293929190613478565b60405180910390f35b61029560048036038101906102909190612f2c565b612076565b005b6102b160048036038101906102ac9190612f2c565b612079565b6040516102c29594939291906134c4565b60405180910390f35b6102d3612534565b6040516102e0919061363d565b60405180910390f35b60006103177f78fe412611a6746f36d493140a324bef9b22799ec1e3d207132763508e08443860001b611d44565b6103437f6ea826fe4de3c5f8ff055948fb6e71c46455859774c59759ae59997825e9b70560001b611d44565b61036f7f41027472a3243625d2c65c733ab9eb9aa07a1e0510f6b5824c49d991f6db678360001b611d44565b848484846040516020016103869493929190613533565b604051602081830303815290604052805190602001209050949350505050565b60006103d47fa9d90c09cc44037a1f20305e0d52c334ce6b7563e91600787c9a98c4452ada8860001b611d44565b6104007f1de6823fb54dd4e0dd1191e06d7693c1893bc175badd2955e9235086e9d8f68360001b611d44565b61042c7f1ee327ea7d8dc4c72a7bb6c7a1fd79a70833587dfd2b0138df0bce2b6cb3b84960001b611d44565b6104587f51a99683cac2edd26d78c5c4d5ed4dda67a7fc309f1bfa5ff9548d82a391265660001b611d44565b888890508b8b90501480156104725750868690508b8b9050145b80156104835750848490508b8b9050145b6104c2576040517f08c379a00000000000000000000000000000000000000000000000000000000081526004016104b990613698565b60405180910390fd5b6104ee7fb036e2c46ab7ee31bed486e1c3ae8028a4a3788de470c535c2d810c4a078864060001b611d44565b61051a7fcc3fb82f05886149228c1dd9c6b0ef0714624f6062d812c9814979024af9b8f160001b611d44565b6105467fd1500359d431e3a54a5a9bdb3fb0d76481e7716929c9534596b05e30b27a76fc60001b611d44565b60008b8b905067ffffffffffffffff81111561056557610564613c74565b5b60405190808252806020026020018201604052801561059857816020015b60608152602001906001900390816105835790505b5090506105c77f285da1cd4fe53412dddb6a70673b0cb0f8803027e47b006f95dcb6d3bdf7e76560001b611d44565b6105f37fd676a3fc0a92113c50d0ad23d425c6c91a6c39aa92429b8e5c4ec3509cf1948760001b611d44565b60005b8c8c905081101561070b5761062d7fa28bf2892261362ebde02930ced9f6fd7357c86b7670e7d82ebb910e62676a6660001b611d44565b6106597fdd1128042947f887c1a56f8b17e5604908a36da9c74f813b3619b94281ba0ad960001b611d44565b8a8a8281811061066c5761066b613c45565b5b905060200281019061067e9190613756565b60405161068c929190613444565b60405180910390208989838181106106a7576106a6613c45565b5b90506020028101906106b991906136f3565b6040516020016106cb9392919061341a565b6040516020818303038152906040528282815181106106ed576106ec613c45565b5b6020026020010181905250808061070390613b94565b9150506105f6565b506107387f77fe30f3bdf18c3dde8a66532bcf32de1c70ec139cd08b4fd860db18844b000060001b611d44565b6107647f314c3ffb754b2bda7443dab35c0faf8f788891d8de9aaa18bfe4c09167c8df5760001b611d44565b6108368c8c80806020026020016040519081016040528093929190818152602001838360200280828437600081840152601f19601f82011690508083019250505050505050878780806020026020016040519081016040528093929190818152602001838360200280828437600081840152601f19601f820116905080830192505050505050508387878080601f016020809104026020016040519081016040528093929190818152602001838380828437600081840152601f19601f820116905080830192505050505050506102e9565b91506108647f73db05943f25bdca0e4e37e7e1ef4dd35d97cc74dc406e2032feffe3962ffd7760001b611d44565b6108907f11d4d4fccc82438ccdb22cab5c0002e32ac5547693f661b2ae7e5a8d23e27f7360001b611d44565b6108bc7f8c2ea1c104c53f738e5bbb5d095da0af025d1bdcdee60825c5038ce5c4aab99960001b611d44565b600073ffffffffffffffffffffffffffffffffffffffff166002600084815260200190815260200160002060040160009054906101000a900473ffffffffffffffffffffffffffffffffffffffff1673ffffffffffffffffffffffffffffffffffffffff1614610961576040517f08c379a0000000000000000000000000000000000000000000000000000000008152600401610958906136b8565b60405180910390fd5b61098d7fbb0377c5a5672e4cda8e2235ad61abe5444691fc42cf8bed6f28627af4e776d460001b611d44565b6109b97f1bc07510db58a104799d9b335a474b2fcaf12a360fd3b171519429362d5cc35660001b611d44565b6109e57fa5cde34e86bc50f214e8a2a75aeeb704e58b06d121a3919aff61f6365c3560f860001b611d44565b6040518060a001604052808d8d80806020026020016040519081016040528093929190818152602001838360200280828437600081840152601f19601f820116905080830192505050505050508152602001878780806020026020016040519081016040528093929190818152602001838360200280828437600081840152601f19601f82011690508083019250505050505050815260200182815260200185858080601f016020809104026020016040519081016040528093929190818152602001838380828437600081840152601f19601f8201169050808301925050505050505081526020013373ffffffffffffffffffffffffffffffffffffffff16815250600260008481526020019081526020016000206000820151816000019080519060200190610b17929190612558565b506020820151816001019080519060200190610b349291906125e2565b506040820151816002019080519060200190610b5192919061262f565b506060820151816003019080519060200190610b6e92919061268f565b5060808201518160040160006101000a81548173ffffffffffffffffffffffffffffffffffffffff021916908373ffffffffffffffffffffffffffffffffffffffff160217905550905050610be57fe4497549d04958dfa44a28dab38272ddde3eafcee9ae852c035958e4468162db60001b611d44565b610c117f2f8fc3986a272d5a6d4b54acd89631c4a984e128266b7f5626ded8ef07e3ad7a60001b611d44565b7f9efa23cf1a1ca9f8f84d1c5ab98b64e67b7eb5c0ec0cb0f02658ce7ec7d7ced3828d8d8787604051610c489594939291906135af565b60405180910390a1509a9950505050505050505050565b600160009054906101000a900473ffffffffffffffffffffffffffffffffffffffff1681565b610cb17f6f9ae8edea4a5ca594982c8c889dce6d3960ecead6d85640cfaeefab4965137c60001b611d47565b610cdd7f6eebb330cb0c74c8c0a3ebded6ac701f48b060de13591c74ab4785681b589f0c60001b611d47565b610d097f36c1556249a63a81b58af6fdcad0065ddcb58894bd16e2b1bf48df8c292c738560001b611d47565b610d357f27d0da14a88f9fdfd196625fc7df7cbe0aa29fb76c0f7bf605cbb6d8aea6f1ff60001b611d47565b600073ffffffffffffffffffffffffffffffffffffffff16600160009054906101000a900473ffffffffffffffffffffffffffffffffffffffff1673ffffffffffffffffffffffffffffffffffffffff161415610d9157600080fd5b610dbd7f627e7f681529433198cf60e7806c37173ef6d256c8dad2832dc14d984d63c81560001b611d47565b610de97faf0631e8e987467954b158416256f14065683e999a12c243f4a4bc80c6573a8160001b611d47565b610e157fa032f460f3852175b8933100cc9d781f5b5cff200a63b0672b41cef6cafef80c60001b611d47565b610e417f900be1020eac74e7a6523a153b11dd4ba203e5d968d1d2d104979e3ff33e9cef60001b611d47565b610e6d7f6d7d330e8510a19129b2b889c08c7f30e23b59da3f683ee0df8e8e5100917e1760001b611d47565b600160009054906101000a900473ffffffffffffffffffffffffffffffffffffffff1673ffffffffffffffffffffffffffffffffffffffff166322f8e566826040518263ffffffff1660e01b8152600401610ec891906136d8565b600060405180830381600087803b158015610ee257600080fd5b505af1158015610ef6573d6000803e3d6000fd5b5050505050565b6000610f2b7f24aa2750f6e690ec4e73d1c4e8ac204d5a47a8e854686fffdf9401e07187718a60001b611d44565b610f577f46e1e5ecab38d96dba7c6e79f5caabc9095aecd204264888ce2f5aeab2585d9660001b611d44565b610f837fbda4fb42de093de00c381f6f6c41ffae4c26aa40bc596c39c37daf9b4e4b73cb60001b611d44565b610faf7f0fd64a6f6905aa741fadac2e58e8d04dae925d2306c7465e3293532e54e532d160001b611d44565b3373ffffffffffffffffffffffffffffffffffffffff167f000000000000000000000000000000000000000000000000000000000000000073ffffffffffffffffffffffffffffffffffffffff1663624a23e07f36209a57dfd79e3872ec3a0c88c653bbe7e32a12306e5e1f92f118c1936ae8b26040518263ffffffff1660e01b815260040161103f9190613594565b60206040518083038186803b15801561105757600080fd5b505afa15801561106b573d6000803e3d6000fd5b505050506040513d601f19601f8201168201806040525081019061108f9190612d0b565b73ffffffffffffffffffffffffffffffffffffffff16146110e5576040517f08c379a00000000000000000000000000000000000000000000000000000000081526004016110dc90613678565b60405180910390fd5b6111117f08314cc9714b57b2bf05e7d018a41fce5db87e28b75f1efda9011df6459b733a60001b611d44565b61113d7feeb5af70f19ee19c1984a634cdd4d15288946315d3546be6243565a1fbcf147760001b611d44565b6111697f1076f23b9f1d61bd2cb508ca92d3e38025df7c79c952ee2a3df27d18447e26d760001b611d44565b6111957f581a19013c64f3afda9d202d42f6fb9491a1a4a69f75b4b17b1d61a1b12e37d160001b611d44565b600073ffffffffffffffffffffffffffffffffffffffff166002600085815260200190815260200160002060040160009054906101000a900473ffffffffffffffffffffffffffffffffffffffff1673ffffffffffffffffffffffffffffffffffffffff16141561123b576040517f08c379a000000000000000000000000000000000000000000000000000000000815260040161123290613658565b60405180910390fd5b6112677f21a9d39da360469156d5483524c12832324a783c34497b53dfd6519adcb1ef8960001b611d44565b6112937f3fb03121cd34c291e42dfc2e968bdc7d8eb1b1ee3c49ead464f501b3bfd8727860001b611d44565b6112bf7f3fbab814075d29c610564ea1487758e9870e393923d823c473d5b77493b2a73960001b611d44565b6114ae6002600085815260200190815260200160002060000180548060200260200160405190810160405280929190818152602001828054801561135857602002820191906000526020600020905b8160009054906101000a900473ffffffffffffffffffffffffffffffffffffffff1673ffffffffffffffffffffffffffffffffffffffff168152602001906001019080831161130e575b5050505050600260008681526020019081526020016000206001018054806020026020016040519081016040528092919081815260200182805480156113bd57602002820191906000526020600020905b8154815260200190600101908083116113a9575b505050505060026000878152602001908152602001600020600201805480602002602001604051908101604052809291908181526020016000905b828210156114a457838290600052602060002001805461141790613b17565b80601f016020809104026020016040519081016040528092919081815260200182805461144390613b17565b80156114905780601f1061146557610100808354040283529160200191611490565b820191906000526020600020905b81548152906001019060200180831161147357829003601f168201915b5050505050815260200190600101906113f8565b50505050856102e9565b90506114dc7f7c5f1c2e809ca5255e6b974e22b3fcb374598284c54ba6f722af372148ad582660001b611d44565b6115087f84bf4beb38205e750dac27fe46bfc063665948527c9dfbd29f9d2db3d4f2046660001b611d44565b6115347f0fdd5c79c81f3f2be7ef86b97fbbcf734d50012b655a3b22109aeabca756883760001b611d44565b600073ffffffffffffffffffffffffffffffffffffffff166002600083815260200190815260200160002060040160009054906101000a900473ffffffffffffffffffffffffffffffffffffffff1673ffffffffffffffffffffffffffffffffffffffff16146115d9576040517f08c379a00000000000000000000000000000000000000000000000000000000081526004016115d0906136b8565b60405180910390fd5b6116057ff497de19b958d2eb8bb1254e622175cf1adfa53907fad9def67ba048d247377160001b611d44565b6116317f8a12f5c9999a60fd4584e32d20efdbc2957bbe7cf80a1bc0985103e3e2e072b660001b611d44565b61165d7f373bcdc51c65aba73d5b913bb29d2d4d5fcd8df27257f807a99faafdf53cc95360001b611d44565b6040518060a00160405280600260008681526020019081526020016000206000018054806020026020016040519081016040528092919081815260200182805480156116fe57602002820191906000526020600020905b8160009054906101000a900473ffffffffffffffffffffffffffffffffffffffff1673ffffffffffffffffffffffffffffffffffffffff16815260200190600101908083116116b4575b505050505081526020016002600086815260200190815260200160002060010180548060200260200160405190810160405280929190818152602001828054801561176857602002820191906000526020600020905b815481526020019060010190808311611754575b5050505050815260200160026000868152602001908152602001600020600201805480602002602001604051908101604052809291908181526020016000905b828210156118545783829060005260206000200180546117c790613b17565b80601f01602080910402602001604051908101604052809291908181526020018280546117f390613b17565b80156118405780601f1061181557610100808354040283529160200191611840565b820191906000526020600020905b81548152906001019060200180831161182357829003601f168201915b5050505050815260200190600101906117a8565b5050505081526020018381526020016002600086815260200190815260200160002060040160009054906101000a900473ffffffffffffffffffffffffffffffffffffffff1673ffffffffffffffffffffffffffffffffffffffff168152506002600083815260200190815260200160002060008201518160000190805190602001906118e2929190612558565b5060208201518160010190805190602001906118ff9291906125e2565b50604082015181600201908051906020019061191c92919061262f565b50606082015181600301908051906020019061193992919061268f565b5060808201518160040160006101000a81548173ffffffffffffffffffffffffffffffffffffffff021916908373ffffffffffffffffffffffffffffffffffffffff1602179055509050506119b07f260a2b90e60d9a46c099b60582e00e5aea5532977b5a8a175e44a3e90346d81a60001b611d44565b6119dc7f7c33b1bbf1d815651982201951f7f7dc4686a9dcfb6742266678dcd187fe0a9060001b611d44565b7f9efa23cf1a1ca9f8f84d1c5ab98b64e67b7eb5c0ec0cb0f02658ce7ec7d7ced3816002600086815260200190815260200160002060000184604051611a24939291906135f8565b60405180910390a1611a587faabd38223a05a65e9b098f0b623b6045b64e69843d1373eafdbebbc6eac3f95760001b611d44565b611a847fed6a4bb2602fe5a04253eec683295c40d7bdb33643ed179c1b716481b800af2160001b611d44565b9392505050565b6000611ab97fd47833f51fc5ec0f8a24234f14627d428c69063796f9630201d1dc1058ae8e5760001b611d47565b611ae57f0b69545d716b02169fb0a154958cf479d6c74febdce881af2cad9c6bed4b0c3b60001b611d47565b611b117f570eff7e9b79704810f3de14032f6898e0c4ee6c9024ca8a4efe0aea7091fa5f60001b611d47565b600073ffffffffffffffffffffffffffffffffffffffff16600160009054906101000a900473ffffffffffffffffffffffffffffffffffffffff1673ffffffffffffffffffffffffffffffffffffffff1614611c9257611b937f647590469700e029974926aa472ac468fe95744326892633413c8c201ed298c060001b611d47565b611bbf7f107a4f7720644a8f8f993f44f4c11c80b4c882005d7ffff284e62ffc5cd9533b60001b611d47565b611beb7f449a6ac96c66c2f10c6f7037b7566faf778bcdfef39e56e364596f87914ef8a260001b611d47565b600160009054906101000a900473ffffffffffffffffffffffffffffffffffffffff1673ffffffffffffffffffffffffffffffffffffffff166329cb924d6040518163ffffffff1660e01b815260040160206040518083038186803b158015611c5357600080fd5b505afa158015611c67573d6000803e3d6000fd5b505050506040513d601f19601f82011682018060405250810190611c8b9190612f86565b9050611d1a565b611cbe7ff81c329ab48f42d2998e2454dc7c351806520aa7f6d72b2e468d72814fdfe64a60001b611d47565b611cea7fc5895091758a048fba2cd20e5b0c510227acf44c1b622ab8b72e135767e7aa6660001b611d47565b611d167fb60b2b01d584079a590a86b90ecde07699cb728ea718e85d0f63afb9f1bbc67360001b611d47565b4290505b90565b50565b7f000000000000000000000000000000000000000000000000000000000000000081565b50565b50565b6060806060611d7b7ff27fb11bd6cf1b11e62f3ffc4c21a315cbd9181a5952e396747e1668ae3fd1d960001b611d44565b611da77fb9d9594f9e0b898f5c5cfddc0f5cd684b0bfcbd034496a01955fd44394d1901b60001b611d44565b611dd37f5646cd070411b693e92e8b87a8761e6b9fb960272a0ac5e9bee0a4262211ce5660001b611d44565b60026000858152602001908152602001600020600001805480602002602001604051908101604052809291908181526020018280548015611e6957602002820191906000526020600020905b8160009054906101000a900473ffffffffffffffffffffffffffffffffffffffff1673ffffffffffffffffffffffffffffffffffffffff1681526020019060010190808311611e1f575b50505050509250611e9c7f57a1bbf3015590a7e2533276ccad40f0cfb5f2a428a5cf7e1bc1dfc903cc52ff60001b611d44565b611ec87f3059b82fd488d6e19ad016d0298f706f9a31fd0a0d7db8cda4f9c2aa49703ee360001b611d44565b60026000858152602001908152602001600020600201805480602002602001604051908101604052809291908181526020016000905b82821015611faa578382906000526020600020018054611f1d90613b17565b80601f0160208091040260200160405190810160405280929190818152602001828054611f4990613b17565b8015611f965780601f10611f6b57610100808354040283529160200191611f96565b820191906000526020600020905b815481529060010190602001808311611f7957829003601f168201915b505050505081526020019060010190611efe565b505050509150611fdc7f26c959c2a5d951f00df16359fd09ebac4ff5be200632be20aea84a05b6b8e9d360001b611d44565b6120087f5a0ce2a8b8057a67542f8dcba450f5921d43f81eb0896dc80a45e6d0739f488460001b611d44565b6002600085815260200190815260200160002060010180548060200260200160405190810160405280929190818152602001828054801561206857602002820191906000526020600020905b815481526020019060010190808311612054575b505050505090509193909250565b50565b60608060608060006120ad7fc4e2b5905b1ae9d1d21a6e4ec66e6926002dac929294dee5d5b5965d2ddb4d2360001b611d44565b6120d97f4625304554cfd77937611c816c11741fcf59068591d6e5f7dca48d82b3f49f0360001b611d44565b6121057ff3bc0be44144f535bfc0c08deebfd9db26cc34455b2ee58b0c15ff81df15b36360001b611d44565b6002600087815260200190815260200160002060000180548060200260200160405190810160405280929190818152602001828054801561219b57602002820191906000526020600020905b8160009054906101000a900473ffffffffffffffffffffffffffffffffffffffff1673ffffffffffffffffffffffffffffffffffffffff1681526020019060010190808311612151575b505050505094506121ce7f96b4c7a1a8ec895e22464743cfdf854a797d082022ed087fd08938c3299a0e7260001b611d44565b6121fa7f9a0f9d5b3fbca84dbb160744fedea5de2b79b0a953ca553ff50e78992f98849f60001b611d44565b60026000878152602001908152602001600020600201805480602002602001604051908101604052809291908181526020016000905b828210156122dc57838290600052602060002001805461224f90613b17565b80601f016020809104026020016040519081016040528092919081815260200182805461227b90613b17565b80156122c85780601f1061229d576101008083540402835291602001916122c8565b820191906000526020600020905b8154815290600101906020018083116122ab57829003601f168201915b505050505081526020019060010190612230565b50505050935061230e7f222a3f929618988b928bd4fcde8ab433aba9d4d7bd3a4ae5301ba4708c9ad3b660001b611d44565b61233a7fd39a4d7ca4d80cb8546e873dab1c508c805dd2a73aa2bc3b48b5601586214bc460001b611d44565b6002600087815260200190815260200160002060010180548060200260200160405190810160405280929190818152602001828054801561239a57602002820191906000526020600020905b815481526020019060010190808311612386575b505050505092506123cd7fe77e7e03c07cfd3f475ac69027604a464980e3c8d60635f5aab5a458e7c768ba60001b611d44565b6123f97f6af4d9d3c74c66d06ade6e483c9a417bf3e93da41eea231b532c407ca53b238360001b611d44565b60026000878152602001908152602001600020600301805461241a90613b17565b80601f016020809104026020016040519081016040528092919081815260200182805461244690613b17565b80156124935780601f1061246857610100808354040283529160200191612493565b820191906000526020600020905b81548152906001019060200180831161247657829003601f168201915b505050505091506124c67fa3d985a953277e283f4a40789d89fdc7afc1ce7b19674f900ceff5d6d6646f6760001b611d44565b6124f27fdbf4611a66730b6924cddbe222a8c3d7aa5b16dbfa17a246023d03cbcd7003d560001b611d44565b6002600087815260200190815260200160002060040160009054906101000a900473ffffffffffffffffffffffffffffffffffffffff16905091939590929450565b7f000000000000000000000000000000000000000000000000000000000000000081565b8280548282559060005260206000209081019282156125d1579160200282015b828111156125d05782518260006101000a81548173ffffffffffffffffffffffffffffffffffffffff021916908373ffffffffffffffffffffffffffffffffffffffff16021790555091602001919060010190612578565b5b5090506125de9190612715565b5090565b82805482825590600052602060002090810192821561261e579160200282015b8281111561261d578251825591602001919060010190612602565b5b50905061262b9190612715565b5090565b82805482825590600052602060002090810192821561267e579160200282015b8281111561267d57825182908051906020019061266d929190612732565b509160200191906001019061264f565b5b50905061268b91906127b8565b5090565b82805461269b90613b17565b90600052602060002090601f0160209004810192826126bd5760008555612704565b82601f106126d657805160ff1916838001178555612704565b82800160010185558215612704579182015b828111156127035782518255916020019190600101906126e8565b5b5090506127119190612715565b5090565b5b8082111561272e576000816000905550600101612716565b5090565b82805461273e90613b17565b90600052602060002090601f01602090048101928261276057600085556127a7565b82601f1061277957805160ff19168380011785556127a7565b828001600101855582156127a7579182015b828111156127a657825182559160200191906001019061278b565b5b5090506127b49190612715565b5090565b5b808211156127d857600081816127cf91906127dc565b506001016127b9565b5090565b5080546127e890613b17565b6000825580601f106127fa5750612819565b601f0160209004906000526020600020908101906128189190612715565b5b50565b600061282f61282a846137de565b6137b9565b9050808382526020820190508285602086028201111561285257612851613cca565b5b60005b8581101561288257816128688882612a0e565b845260208401935060208301925050600181019050612855565b5050509392505050565b600061289f61289a8461380a565b6137b9565b905080838252602082019050828560208602820111156128c2576128c1613cca565b5b60005b8581101561291057813567ffffffffffffffff8111156128e8576128e7613cbb565b5b8086016128f58982612c2f565b855260208501945060208401935050506001810190506128c5565b5050509392505050565b600061292d61292884613836565b6137b9565b905080838252602082019050828560208602820111156129505761294f613cca565b5b60005b8581101561298057816129668882612ce1565b845260208401935060208301925050600181019050612953565b5050509392505050565b600061299d61299884613862565b6137b9565b9050828152602081018484840111156129b9576129b8613cd4565b5b6129c4848285613ad5565b509392505050565b60006129df6129da84613893565b6137b9565b9050828152602081018484840111156129fb576129fa613cd4565b5b612a06848285613ad5565b509392505050565b600081359050612a1d81613da5565b92915050565b600081519050612a3281613da5565b92915050565b60008083601f840112612a4e57612a4d613cbb565b5b8235905067ffffffffffffffff811115612a6b57612a6a613cb6565b5b602083019150836020820283011115612a8757612a86613cca565b5b9250929050565b600082601f830112612aa357612aa2613cbb565b5b8135612ab384826020860161281c565b91505092915050565b60008083601f840112612ad257612ad1613cbb565b5b8235905067ffffffffffffffff811115612aef57612aee613cb6565b5b602083019150836020820283011115612b0b57612b0a613cca565b5b9250929050565b600082601f830112612b2757612b26613cbb565b5b8135612b3784826020860161288c565b91505092915050565b60008083601f840112612b5657612b55613cbb565b5b8235905067ffffffffffffffff811115612b7357612b72613cb6565b5b602083019150836020820283011115612b8f57612b8e613cca565b5b9250929050565b60008083601f840112612bac57612bab613cbb565b5b8235905067ffffffffffffffff811115612bc957612bc8613cb6565b5b602083019150836020820283011115612be557612be4613cca565b5b9250929050565b600082601f830112612c0157612c00613cbb565b5b8135612c1184826020860161291a565b91505092915050565b600081359050612c2981613dbc565b92915050565b600082601f830112612c4457612c43613cbb565b5b8135612c5484826020860161298a565b91505092915050565b60008083601f840112612c7357612c72613cbb565b5b8235905067ffffffffffffffff811115612c9057612c8f613cb6565b5b602083019150836001820283011115612cac57612cab613cca565b5b9250929050565b600082601f830112612cc857612cc7613cbb565b5b8135612cd88482602086016129cc565b91505092915050565b600081359050612cf081613dd3565b92915050565b600081519050612d0581613dd3565b92915050565b600060208284031215612d2157612d20613cde565b5b6000612d2f84828501612a23565b91505092915050565b60008060008060008060008060008060a08b8d031215612d5b57612d5a613cde565b5b60008b013567ffffffffffffffff811115612d7957612d78613cd9565b5b612d858d828e01612a38565b9a509a505060208b013567ffffffffffffffff811115612da857612da7613cd9565b5b612db48d828e01612b40565b985098505060408b013567ffffffffffffffff811115612dd757612dd6613cd9565b5b612de38d828e01612abc565b965096505060608b013567ffffffffffffffff811115612e0657612e05613cd9565b5b612e128d828e01612b96565b945094505060808b013567ffffffffffffffff811115612e3557612e34613cd9565b5b612e418d828e01612c5d565b92509250509295989b9194979a5092959850565b60008060008060808587031215612e6f57612e6e613cde565b5b600085013567ffffffffffffffff811115612e8d57612e8c613cd9565b5b612e9987828801612a8e565b945050602085013567ffffffffffffffff811115612eba57612eb9613cd9565b5b612ec687828801612bec565b935050604085013567ffffffffffffffff811115612ee757612ee6613cd9565b5b612ef387828801612b12565b925050606085013567ffffffffffffffff811115612f1457612f13613cd9565b5b612f2087828801612cb3565b91505092959194509250565b600060208284031215612f4257612f41613cde565b5b6000612f5084828501612c1a565b91505092915050565b600060208284031215612f6f57612f6e613cde565b5b6000612f7d84828501612ce1565b91505092915050565b600060208284031215612f9c57612f9b613cde565b5b6000612faa84828501612cf6565b91505092915050565b600080600060608486031215612fcc57612fcb613cde565b5b6000612fda86828701612ce1565b9350506020612feb86828701612c1a565b925050604084013567ffffffffffffffff81111561300c5761300b613cd9565b5b61301886828701612cb3565b9150509250925092565b600061302e8383613066565b60208301905092915050565b600061304683836132c2565b905092915050565b600061305a83836133fc565b60208301905092915050565b61306f81613a2d565b82525050565b61307e81613a2d565b82525050565b60006130908385613996565b935061309b826138c4565b8060005b858110156130d4576130b182846139f6565b6130bb8882613022565b97506130c683613955565b92505060018101905061309f565b5085925050509392505050565b60006130ec82613913565b6130f68185613996565b9350613101836138ce565b8060005b838110156131325781516131198882613022565b975061312483613962565b925050600181019050613105565b5085935050505092915050565b600061314a8261391e565b6131548185613996565b935061315f836138de565b8060005b838110156131975761317482613ca3565b61317e8882613022565b97506131898361396f565b925050600181019050613163565b5085935050505092915050565b60006131af82613929565b6131b981856139a7565b9350836020820285016131cb856138f3565b8060005b8581101561320757848403895281516131e8858261303a565b94506131f38361397c565b925060208a019950506001810190506131cf565b50829750879550505050505092915050565b600061322482613934565b61322e81856139b8565b935061323983613903565b8060005b8381101561326a578151613251888261304e565b975061325c83613989565b92505060018101905061323d565b5085935050505092915050565b61328081613a3f565b82525050565b61329761329282613a49565b613bdd565b82525050565b60006132a983856139da565b93506132b6838584613ad5565b82840190509392505050565b60006132cd8261393f565b6132d781856139c9565b93506132e7818560208601613ae4565b6132f081613ce3565b840191505092915050565b61330481613a9f565b82525050565b600061331683856139e5565b9350613323838584613ad5565b61332c83613ce3565b840190509392505050565b60006133428261394a565b61334c81856139e5565b935061335c818560208601613ae4565b61336581613ce3565b840191505092915050565b600061337d6017836139e5565b915061338882613d01565b602082019050919050565b60006133a06017836139e5565b91506133ab82613d2a565b602082019050919050565b60006133c3601a836139e5565b91506133ce82613d53565b602082019050919050565b60006133e6601a836139e5565b91506133f182613d7c565b602082019050919050565b61340581613a95565b82525050565b61341481613a95565b82525050565b60006134268286613286565b60048201915061343782848661329d565b9150819050949350505050565b600061345182848661329d565b91508190509392505050565b60006020820190506134726000830184613075565b92915050565b6000606082019050818103600083015261349281866130e1565b905081810360208301526134a681856131a4565b905081810360408301526134ba8184613219565b9050949350505050565b600060a08201905081810360008301526134de81886130e1565b905081810360208301526134f281876131a4565b905081810360408301526135068186613219565b9050818103606083015261351a8185613337565b90506135296080830184613075565b9695505050505050565b6000608082019050818103600083015261354d81876130e1565b905081810360208301526135618186613219565b9050818103604083015261357581856131a4565b905081810360608301526135898184613337565b905095945050505050565b60006020820190506135a96000830184613277565b92915050565b60006060820190506135c46000830188613277565b81810360208301526135d7818688613084565b905081810360408301526135ec81848661330a565b90509695505050505050565b600060608201905061360d6000830186613277565b818103602083015261361f818561313f565b905081810360408301526136338184613337565b9050949350505050565b600060208201905061365260008301846132fb565b92915050565b6000602082019050818103600083015261367181613370565b9050919050565b6000602082019050818103600083015261369181613393565b9050919050565b600060208201905081810360008301526136b1816133b6565b9050919050565b600060208201905081810360008301526136d1816133d9565b9050919050565b60006020820190506136ed600083018461340b565b92915050565b600080833560016020038436030381126137105761370f613cc5565b5b80840192508235915067ffffffffffffffff82111561373257613731613cc0565b5b60208301925060018202360383131561374e5761374d613ccf565b5b509250929050565b6000808335600160200384360303811261377357613772613cc5565b5b80840192508235915067ffffffffffffffff82111561379557613794613cc0565b5b6020830192506001820236038313156137b1576137b0613ccf565b5b509250929050565b60006137c36137d4565b90506137cf8282613b63565b919050565b6000604051905090565b600067ffffffffffffffff8211156137f9576137f8613c74565b5b602082029050602081019050919050565b600067ffffffffffffffff82111561382557613824613c74565b5b602082029050602081019050919050565b600067ffffffffffffffff82111561385157613850613c74565b5b602082029050602081019050919050565b600067ffffffffffffffff82111561387d5761387c613c74565b5b61388682613ce3565b9050602081019050919050565b600067ffffffffffffffff8211156138ae576138ad613c74565b5b6138b782613ce3565b9050602081019050919050565b6000819050919050565b6000819050602082019050919050565b60008190508160005260206000209050919050565b6000819050602082019050919050565b6000819050602082019050919050565b600081519050919050565b600081549050919050565b600081519050919050565b600081519050919050565b600081519050919050565b600081519050919050565b6000602082019050919050565b6000602082019050919050565b6000600182019050919050565b6000602082019050919050565b6000602082019050919050565b600082825260208201905092915050565b600082825260208201905092915050565b600082825260208201905092915050565b600082825260208201905092915050565b600081905092915050565b600082825260208201905092915050565b6000613a056020840184612a0e565b905092915050565b600073ffffffffffffffffffffffffffffffffffffffff82169050919050565b6000613a3882613a75565b9050919050565b6000819050919050565b60007fffffffff0000000000000000000000000000000000000000000000000000000082169050919050565b600073ffffffffffffffffffffffffffffffffffffffff82169050919050565b6000819050919050565b6000613aaa82613ab1565b9050919050565b6000613abc82613ac3565b9050919050565b6000613ace82613a75565b9050919050565b82818337600083830152505050565b60005b83811015613b02578082015181840152602081019050613ae7565b83811115613b11576000848401525b50505050565b60006002820490506001821680613b2f57607f821691505b60208210811415613b4357613b42613c16565b5b50919050565b6000613b5c613b5783613cf4565b613a0d565b9050919050565b613b6c82613ce3565b810181811067ffffffffffffffff82111715613b8b57613b8a613c74565b5b80604052505050565b6000613b9f82613a95565b91507fffffffffffffffffffffffffffffffffffffffffffffffffffffffffffffffff821415613bd257613bd1613be7565b5b600182019050919050565b6000819050919050565b7f4e487b7100000000000000000000000000000000000000000000000000000000600052601160045260246000fd5b7f4e487b7100000000000000000000000000000000000000000000000000000000600052602260045260246000fd5b7f4e487b7100000000000000000000000000000000000000000000000000000000600052603260045260246000fd5b7f4e487b7100000000000000000000000000000000000000000000000000000000600052604160045260246000fd5b6000613caf8254613b49565b9050919050565b600080fd5b600080fd5b600080fd5b600080fd5b600080fd5b600080fd5b600080fd5b600080fd5b600080fd5b6000601f19601f8301169050919050565b60008160001c9050919050565b7f4578653a2045786520646f6573206e6f74206578697374000000000000000000600082015250565b7f4578653a204f6e6c792070726f702063616e2063616c6c000000000000000000600082015250565b7f4578653a204172726179206c656e677468206d69736d61746368000000000000600082015250565b7f4578653a2045786520494420616c726561647920696e20757365000000000000600082015250565b613dae81613a2d565b8114613db957600080fd5b50565b613dc581613a3f565b8114613dd057600080fd5b50565b613ddc81613a95565b8114613de757600080fd5b5056fea2646970667358221220838aa63803418621b871c2d8e0a57644e38ba7febd11469db8ea74003be1dbb664736f6c63430008070033",
  "linkReferences": {},
  "deployedLinkReferences": {}
}