{
  "_format": "hh-sol-artifact-1",
  "contractName": "Executables",
  "sourceName": "contracts/Executables.sol",
  "abi": [
    {
      "inputs": [
        {
          "internalType": "address",
          "name": "_core",
          "type": "address"
        },
        {
          "internalType": "address",
          "name": "_timer",
          "type": "address"
        }
      ],
      "stateMutability": "nonpayable",
      "type": "constructor"
    },
    {
      "anonymous": false,
      "inputs": [
        {
          "indexed": false,
          "internalType": "bytes32",
          "name": "exeID",
          "type": "bytes32"
        },
        {
          "indexed": false,
          "internalType": "address[]",
          "name": "targets",
          "type": "address[]"
        },
        {
          "indexed": false,
          "internalType": "string",
          "name": "description",
          "type": "string"
        }
      ],
      "name": "MintExecutable",
      "type": "event"
    },
    {
      "inputs": [],
      "name": "IDENTIFIER",
      "outputs": [
        {
          "internalType": "bytes32",
          "name": "",
          "type": "bytes32"
        }
      ],
      "stateMutability": "view",
      "type": "function"
    },
    {
      "inputs": [],
      "name": "core_",
      "outputs": [
        {
          "internalType": "contract ICore",
          "name": "",
          "type": "address"
        }
      ],
      "stateMutability": "view",
      "type": "function"
    },
    {
      "inputs": [
        {
          "internalType": "address[]",
          "name": "_targets",
          "type": "address[]"
        },
        {
          "internalType": "string[]",
          "name": "_functionSignatures",
          "type": "string[]"
        },
        {
          "internalType": "bytes[]",
          "name": "_encodedParameters",
          "type": "bytes[]"
        },
        {
          "internalType": "uint256[]",
          "name": "_values",
          "type": "uint256[]"
        },
        {
          "internalType": "string",
          "name": "_description",
          "type": "string"
        }
      ],
      "name": "createExe",
      "outputs": [
        {
          "internalType": "bytes32",
          "name": "exeID",
          "type": "bytes32"
        }
      ],
      "stateMutability": "nonpayable",
      "type": "function"
    },
    {
      "inputs": [
        {
          "internalType": "uint256",
          "name": "_propID",
          "type": "uint256"
        },
        {
          "internalType": "bytes32",
          "name": "_exeID",
          "type": "bytes32"
        },
        {
          "internalType": "string",
          "name": "_description",
          "type": "string"
        }
      ],
      "name": "createPropExe",
      "outputs": [
        {
          "internalType": "bytes32",
          "name": "propExeID",
          "type": "bytes32"
        }
      ],
      "stateMutability": "nonpayable",
      "type": "function"
    },
    {
      "inputs": [],
      "name": "getCurrentTime",
      "outputs": [
        {
          "internalType": "uint256",
          "name": "",
          "type": "uint256"
        }
      ],
      "stateMutability": "view",
      "type": "function"
    },
    {
      "inputs": [
        {
          "internalType": "bytes32",
          "name": "_exeID",
          "type": "bytes32"
        }
      ],
      "name": "getExe",
      "outputs": [
        {
          "internalType": "address[]",
          "name": "targets",
          "type": "address[]"
        },
        {
          "internalType": "bytes[]",
          "name": "callData",
          "type": "bytes[]"
        },
        {
          "internalType": "uint256[]",
          "name": "values",
          "type": "uint256[]"
        }
      ],
      "stateMutability": "view",
      "type": "function"
    },
    {
      "inputs": [
        {
          "internalType": "address[]",
          "name": "_targets",
          "type": "address[]"
        },
        {
          "internalType": "uint256[]",
          "name": "_values",
          "type": "uint256[]"
        },
        {
          "internalType": "bytes[]",
          "name": "_callData",
          "type": "bytes[]"
        },
        {
          "internalType": "string",
          "name": "_description",
          "type": "string"
        }
      ],
      "name": "getExeId",
      "outputs": [
        {
          "internalType": "bytes32",
          "name": "",
          "type": "bytes32"
        }
      ],
      "stateMutability": "pure",
      "type": "function"
    },
    {
      "inputs": [
        {
          "internalType": "bytes32",
          "name": "_exeID",
          "type": "bytes32"
        }
      ],
      "name": "getExeInfo",
      "outputs": [
        {
          "internalType": "address[]",
          "name": "targets",
          "type": "address[]"
        },
        {
          "internalType": "bytes[]",
          "name": "callData",
          "type": "bytes[]"
        },
        {
          "internalType": "uint256[]",
          "name": "values",
          "type": "uint256[]"
        },
        {
          "internalType": "string",
          "name": "description",
          "type": "string"
        },
        {
          "internalType": "address",
          "name": "creator",
          "type": "address"
        }
      ],
      "stateMutability": "view",
      "type": "function"
    },
    {
      "inputs": [
        {
          "internalType": "uint256",
          "name": "time",
          "type": "uint256"
        }
      ],
      "name": "setCurrentTime",
      "outputs": [],
      "stateMutability": "nonpayable",
      "type": "function"
    },
    {
      "inputs": [],
      "name": "timerAddress",
      "outputs": [
        {
          "internalType": "address",
          "name": "",
          "type": "address"
        }
      ],
      "stateMutability": "view",
      "type": "function"
    }
  ],
  "bytecode": "0x60c06040523480156200001157600080fd5b50604051620031743803806200317483398181016040528101906200003791906200013f565b7f59e2d72f5870ccddd14d35394bd3c22374071b2da7c07a3d6c3b690400b7362882828033600060026101000a81548173ffffffffffffffffffffffffffffffffffffffff021916908373ffffffffffffffffffffffffffffffffffffffff16021790555080600160006101000a81548173ffffffffffffffffffffffffffffffffffffffff021916908373ffffffffffffffffffffffffffffffffffffffff1602179055505082608081815250508173ffffffffffffffffffffffffffffffffffffffff1660a08173ffffffffffffffffffffffffffffffffffffffff1660601b815250505050505050620001d9565b6000815190506200013981620001bf565b92915050565b60008060408385031215620001595762000158620001ba565b5b6000620001698582860162000128565b92505060206200017c8582860162000128565b9150509250929050565b600062000193826200019a565b9050919050565b600073ffffffffffffffffffffffffffffffffffffffff82169050919050565b600080fd5b620001ca8162000186565b8114620001d657600080fd5b50565b60805160a05160601c612f6b62000209600039600081816108b001526116810152600061118e0152612f6b6000f3fe608060405234801561001057600080fd5b506004361061009e5760003560e01c806329cb924d1161006657806329cb924d1461016d5780633c9747f31461018b578063971aa75e146101a9578063e0751326146101db578063eaddd0fd1461020f5761009e565b80630ee476bc146100a3578063184b9ce5146100d35780631c39c38d1461010357806322f8e56614610121578063295adadf1461013d575b600080fd5b6100bd60048036038101906100b89190611fa0565b61022d565b6040516100ca91906126df565b60405180910390f35b6100ed60048036038101906100e89190611e83565b610266565b6040516100fa91906126df565b60405180910390f35b61010b610783565b60405161011891906125a8565b60405180910390f35b61013b600480360381019061013691906120a4565b6107a9565b005b610157600480360381019061015291906120fe565b610895565b60405161016491906126df565b60405180910390f35b610175611087565b6040516101829190612823565b60405180910390f35b61019361118c565b6040516101a091906126df565b60405180910390f35b6101c360048036038101906101be9190612077565b6111b0565b6040516101d2939291906125c3565b60405180910390f35b6101f560048036038101906101f09190612077565b6113a8565b60405161020695949392919061260f565b60405180910390f35b61021761167f565b6040516102249190612788565b60405180910390f35b600084848484604051602001610246949392919061267e565b604051602081830303815290604052805190602001209050949350505050565b6000888890508b8b90501480156102825750868690508b8b9050145b80156102935750848490508b8b9050145b6102d2576040517f08c379a00000000000000000000000000000000000000000000000000000000081526004016102c9906127e3565b60405180910390fd5b60008b8b905067ffffffffffffffff8111156102f1576102f0612dbf565b5b60405190808252806020026020018201604052801561032457816020015b606081526020019060019003908161030f5790505b50905060005b8c8c90508110156103e7578a8a8281811061034857610347612d90565b5b905060200281019061035a91906128a1565b60405161036892919061258f565b604051809103902089898381811061038357610382612d90565b5b9050602002810190610395919061283e565b6040516020016103a793929190612565565b6040516020818303038152906040528282815181106103c9576103c8612d90565b5b602002602001018190525080806103df90612cdf565b91505061032a565b506104ba8c8c80806020026020016040519081016040528093929190818152602001838360200280828437600081840152601f19601f82011690508083019250505050505050878780806020026020016040519081016040528093929190818152602001838360200280828437600081840152601f19601f820116905080830192505050505050508387878080601f016020809104026020016040519081016040528093929190818152602001838380828437600081840152601f19601f8201169050808301925050505050505061022d565b9150600073ffffffffffffffffffffffffffffffffffffffff166002600084815260200190815260200160002060040160009054906101000a900473ffffffffffffffffffffffffffffffffffffffff1673ffffffffffffffffffffffffffffffffffffffff1614610561576040517f08c379a000000000000000000000000000000000000000000000000000000000815260040161055890612803565b60405180910390fd5b6040518060a001604052808d8d80806020026020016040519081016040528093929190818152602001838360200280828437600081840152601f19601f820116905080830192505050505050508152602001878780806020026020016040519081016040528093929190818152602001838360200280828437600081840152601f19601f82011690508083019250505050505050815260200182815260200185858080601f016020809104026020016040519081016040528093929190818152602001838380828437600081840152601f19601f8201169050808301925050505050505081526020013373ffffffffffffffffffffffffffffffffffffffff168152506002600084815260200190815260200160002060008201518160000190805190602001906106939291906116a3565b5060208201518160010190805190602001906106b092919061172d565b5060408201518160020190805190602001906106cd92919061177a565b5060608201518160030190805190602001906106ea9291906117da565b5060808201518160040160006101000a81548173ffffffffffffffffffffffffffffffffffffffff021916908373ffffffffffffffffffffffffffffffffffffffff1602179055509050507f9efa23cf1a1ca9f8f84d1c5ab98b64e67b7eb5c0ec0cb0f02658ce7ec7d7ced3828d8d878760405161076c9594939291906126fa565b60405180910390a1509a9950505050505050505050565b600160009054906101000a900473ffffffffffffffffffffffffffffffffffffffff1681565b600073ffffffffffffffffffffffffffffffffffffffff16600160009054906101000a900473ffffffffffffffffffffffffffffffffffffffff1673ffffffffffffffffffffffffffffffffffffffff16141561080557600080fd5b600160009054906101000a900473ffffffffffffffffffffffffffffffffffffffff1673ffffffffffffffffffffffffffffffffffffffff166322f8e566826040518263ffffffff1660e01b81526004016108609190612823565b600060405180830381600087803b15801561087a57600080fd5b505af115801561088e573d6000803e3d6000fd5b5050505050565b60003373ffffffffffffffffffffffffffffffffffffffff167f000000000000000000000000000000000000000000000000000000000000000073ffffffffffffffffffffffffffffffffffffffff1663624a23e07f36209a57dfd79e3872ec3a0c88c653bbe7e32a12306e5e1f92f118c1936ae8b26040518263ffffffff1660e01b815260040161092791906126df565b60206040518083038186803b15801561093f57600080fd5b505afa158015610953573d6000803e3d6000fd5b505050506040513d601f19601f820116820180604052508101906109779190611e56565b73ffffffffffffffffffffffffffffffffffffffff16146109cd576040517f08c379a00000000000000000000000000000000000000000000000000000000081526004016109c4906127c3565b60405180910390fd5b600073ffffffffffffffffffffffffffffffffffffffff166002600085815260200190815260200160002060040160009054906101000a900473ffffffffffffffffffffffffffffffffffffffff1673ffffffffffffffffffffffffffffffffffffffff161415610a73576040517f08c379a0000000000000000000000000000000000000000000000000000000008152600401610a6a906127a3565b60405180910390fd5b610c6260026000858152602001908152602001600020600001805480602002602001604051908101604052809291908181526020018280548015610b0c57602002820191906000526020600020905b8160009054906101000a900473ffffffffffffffffffffffffffffffffffffffff1673ffffffffffffffffffffffffffffffffffffffff1681526020019060010190808311610ac2575b505050505060026000868152602001908152602001600020600101805480602002602001604051908101604052809291908181526020018280548015610b7157602002820191906000526020600020905b815481526020019060010190808311610b5d575b505050505060026000878152602001908152602001600020600201805480602002602001604051908101604052809291908181526020016000905b82821015610c58578382906000526020600020018054610bcb90612c62565b80601f0160208091040260200160405190810160405280929190818152602001828054610bf790612c62565b8015610c445780601f10610c1957610100808354040283529160200191610c44565b820191906000526020600020905b815481529060010190602001808311610c2757829003601f168201915b505050505081526020019060010190610bac565b505050508561022d565b9050600073ffffffffffffffffffffffffffffffffffffffff166002600083815260200190815260200160002060040160009054906101000a900473ffffffffffffffffffffffffffffffffffffffff1673ffffffffffffffffffffffffffffffffffffffff1614610d09576040517f08c379a0000000000000000000000000000000000000000000000000000000008152600401610d0090612803565b60405180910390fd5b6040518060a0016040528060026000868152602001908152602001600020600001805480602002602001604051908101604052809291908181526020018280548015610daa57602002820191906000526020600020905b8160009054906101000a900473ffffffffffffffffffffffffffffffffffffffff1673ffffffffffffffffffffffffffffffffffffffff1681526020019060010190808311610d60575b5050505050815260200160026000868152602001908152602001600020600101805480602002602001604051908101604052809291908181526020018280548015610e1457602002820191906000526020600020905b815481526020019060010190808311610e00575b5050505050815260200160026000868152602001908152602001600020600201805480602002602001604051908101604052809291908181526020016000905b82821015610f00578382906000526020600020018054610e7390612c62565b80601f0160208091040260200160405190810160405280929190818152602001828054610e9f90612c62565b8015610eec5780601f10610ec157610100808354040283529160200191610eec565b820191906000526020600020905b815481529060010190602001808311610ecf57829003601f168201915b505050505081526020019060010190610e54565b5050505081526020018381526020016002600086815260200190815260200160002060040160009054906101000a900473ffffffffffffffffffffffffffffffffffffffff1673ffffffffffffffffffffffffffffffffffffffff16815250600260008381526020019081526020016000206000820151816000019080519060200190610f8e9291906116a3565b506020820151816001019080519060200190610fab92919061172d565b506040820151816002019080519060200190610fc892919061177a565b506060820151816003019080519060200190610fe59291906117da565b5060808201518160040160006101000a81548173ffffffffffffffffffffffffffffffffffffffff021916908373ffffffffffffffffffffffffffffffffffffffff1602179055509050507f9efa23cf1a1ca9f8f84d1c5ab98b64e67b7eb5c0ec0cb0f02658ce7ec7d7ced381600260008681526020019081526020016000206000018460405161107893929190612743565b60405180910390a19392505050565b60008073ffffffffffffffffffffffffffffffffffffffff16600160009054906101000a900473ffffffffffffffffffffffffffffffffffffffff1673ffffffffffffffffffffffffffffffffffffffff161461118557600160009054906101000a900473ffffffffffffffffffffffffffffffffffffffff1673ffffffffffffffffffffffffffffffffffffffff166329cb924d6040518163ffffffff1660e01b815260040160206040518083038186803b15801561114657600080fd5b505afa15801561115a573d6000803e3d6000fd5b505050506040513d601f19601f8201168201806040525081019061117e91906120d1565b9050611189565b4290505b90565b7f000000000000000000000000000000000000000000000000000000000000000081565b60608060606002600085815260200190815260200160002060000180548060200260200160405190810160405280929190818152602001828054801561124b57602002820191906000526020600020905b8160009054906101000a900473ffffffffffffffffffffffffffffffffffffffff1673ffffffffffffffffffffffffffffffffffffffff1681526020019060010190808311611201575b5050505050925060026000858152602001908152602001600020600201805480602002602001604051908101604052809291908181526020016000905b828210156113345783829060005260206000200180546112a790612c62565b80601f01602080910402602001604051908101604052809291908181526020018280546112d390612c62565b80156113205780601f106112f557610100808354040283529160200191611320565b820191906000526020600020905b81548152906001019060200180831161130357829003601f168201915b505050505081526020019060010190611288565b5050505091506002600085815260200190815260200160002060010180548060200260200160405190810160405280929190818152602001828054801561139a57602002820191906000526020600020905b815481526020019060010190808311611386575b505050505090509193909250565b60608060608060006002600087815260200190815260200160002060000180548060200260200160405190810160405280929190818152602001828054801561144657602002820191906000526020600020905b8160009054906101000a900473ffffffffffffffffffffffffffffffffffffffff1673ffffffffffffffffffffffffffffffffffffffff16815260200190600101908083116113fc575b5050505050945060026000878152602001908152602001600020600201805480602002602001604051908101604052809291908181526020016000905b8282101561152f5783829060005260206000200180546114a290612c62565b80601f01602080910402602001604051908101604052809291908181526020018280546114ce90612c62565b801561151b5780601f106114f05761010080835404028352916020019161151b565b820191906000526020600020905b8154815290600101906020018083116114fe57829003601f168201915b505050505081526020019060010190611483565b5050505093506002600087815260200190815260200160002060010180548060200260200160405190810160405280929190818152602001828054801561159557602002820191906000526020600020905b815481526020019060010190808311611581575b505050505092506002600087815260200190815260200160002060030180546115bd90612c62565b80601f01602080910402602001604051908101604052809291908181526020018280546115e990612c62565b80156116365780601f1061160b57610100808354040283529160200191611636565b820191906000526020600020905b81548152906001019060200180831161161957829003601f168201915b505050505091506002600087815260200190815260200160002060040160009054906101000a900473ffffffffffffffffffffffffffffffffffffffff16905091939590929450565b7f000000000000000000000000000000000000000000000000000000000000000081565b82805482825590600052602060002090810192821561171c579160200282015b8281111561171b5782518260006101000a81548173ffffffffffffffffffffffffffffffffffffffff021916908373ffffffffffffffffffffffffffffffffffffffff160217905550916020019190600101906116c3565b5b5090506117299190611860565b5090565b828054828255906000526020600020908101928215611769579160200282015b8281111561176857825182559160200191906001019061174d565b5b5090506117769190611860565b5090565b8280548282559060005260206000209081019282156117c9579160200282015b828111156117c85782518290805190602001906117b892919061187d565b509160200191906001019061179a565b5b5090506117d69190611903565b5090565b8280546117e690612c62565b90600052602060002090601f016020900481019282611808576000855561184f565b82601f1061182157805160ff191683800117855561184f565b8280016001018555821561184f579182015b8281111561184e578251825591602001919060010190611833565b5b50905061185c9190611860565b5090565b5b80821115611879576000816000905550600101611861565b5090565b82805461188990612c62565b90600052602060002090601f0160209004810192826118ab57600085556118f2565b82601f106118c457805160ff19168380011785556118f2565b828001600101855582156118f2579182015b828111156118f15782518255916020019190600101906118d6565b5b5090506118ff9190611860565b5090565b5b80821115611923576000818161191a9190611927565b50600101611904565b5090565b50805461193390612c62565b6000825580601f106119455750611964565b601f0160209004906000526020600020908101906119639190611860565b5b50565b600061197a61197584612929565b612904565b9050808382526020820190508285602086028201111561199d5761199c612e15565b5b60005b858110156119cd57816119b38882611b59565b8452602084019350602083019250506001810190506119a0565b5050509392505050565b60006119ea6119e584612955565b612904565b90508083825260208201905082856020860282011115611a0d57611a0c612e15565b5b60005b85811015611a5b57813567ffffffffffffffff811115611a3357611a32612e06565b5b808601611a408982611d7a565b85526020850194506020840193505050600181019050611a10565b5050509392505050565b6000611a78611a7384612981565b612904565b90508083825260208201905082856020860282011115611a9b57611a9a612e15565b5b60005b85811015611acb5781611ab18882611e2c565b845260208401935060208301925050600181019050611a9e565b5050509392505050565b6000611ae8611ae3846129ad565b612904565b905082815260208101848484011115611b0457611b03612e1f565b5b611b0f848285612c20565b509392505050565b6000611b2a611b25846129de565b612904565b905082815260208101848484011115611b4657611b45612e1f565b5b611b51848285612c20565b509392505050565b600081359050611b6881612ef0565b92915050565b600081519050611b7d81612ef0565b92915050565b60008083601f840112611b9957611b98612e06565b5b8235905067ffffffffffffffff811115611bb657611bb5612e01565b5b602083019150836020820283011115611bd257611bd1612e15565b5b9250929050565b600082601f830112611bee57611bed612e06565b5b8135611bfe848260208601611967565b91505092915050565b60008083601f840112611c1d57611c1c612e06565b5b8235905067ffffffffffffffff811115611c3a57611c39612e01565b5b602083019150836020820283011115611c5657611c55612e15565b5b9250929050565b600082601f830112611c7257611c71612e06565b5b8135611c828482602086016119d7565b91505092915050565b60008083601f840112611ca157611ca0612e06565b5b8235905067ffffffffffffffff811115611cbe57611cbd612e01565b5b602083019150836020820283011115611cda57611cd9612e15565b5b9250929050565b60008083601f840112611cf757611cf6612e06565b5b8235905067ffffffffffffffff811115611d1457611d13612e01565b5b602083019150836020820283011115611d3057611d2f612e15565b5b9250929050565b600082601f830112611d4c57611d4b612e06565b5b8135611d5c848260208601611a65565b91505092915050565b600081359050611d7481612f07565b92915050565b600082601f830112611d8f57611d8e612e06565b5b8135611d9f848260208601611ad5565b91505092915050565b60008083601f840112611dbe57611dbd612e06565b5b8235905067ffffffffffffffff811115611ddb57611dda612e01565b5b602083019150836001820283011115611df757611df6612e15565b5b9250929050565b600082601f830112611e1357611e12612e06565b5b8135611e23848260208601611b17565b91505092915050565b600081359050611e3b81612f1e565b92915050565b600081519050611e5081612f1e565b92915050565b600060208284031215611e6c57611e6b612e29565b5b6000611e7a84828501611b6e565b91505092915050565b60008060008060008060008060008060a08b8d031215611ea657611ea5612e29565b5b60008b013567ffffffffffffffff811115611ec457611ec3612e24565b5b611ed08d828e01611b83565b9a509a505060208b013567ffffffffffffffff811115611ef357611ef2612e24565b5b611eff8d828e01611c8b565b985098505060408b013567ffffffffffffffff811115611f2257611f21612e24565b5b611f2e8d828e01611c07565b965096505060608b013567ffffffffffffffff811115611f5157611f50612e24565b5b611f5d8d828e01611ce1565b945094505060808b013567ffffffffffffffff811115611f8057611f7f612e24565b5b611f8c8d828e01611da8565b92509250509295989b9194979a5092959850565b60008060008060808587031215611fba57611fb9612e29565b5b600085013567ffffffffffffffff811115611fd857611fd7612e24565b5b611fe487828801611bd9565b945050602085013567ffffffffffffffff81111561200557612004612e24565b5b61201187828801611d37565b935050604085013567ffffffffffffffff81111561203257612031612e24565b5b61203e87828801611c5d565b925050606085013567ffffffffffffffff81111561205f5761205e612e24565b5b61206b87828801611dfe565b91505092959194509250565b60006020828403121561208d5761208c612e29565b5b600061209b84828501611d65565b91505092915050565b6000602082840312156120ba576120b9612e29565b5b60006120c884828501611e2c565b91505092915050565b6000602082840312156120e7576120e6612e29565b5b60006120f584828501611e41565b91505092915050565b60008060006060848603121561211757612116612e29565b5b600061212586828701611e2c565b935050602061213686828701611d65565b925050604084013567ffffffffffffffff81111561215757612156612e24565b5b61216386828701611dfe565b9150509250925092565b600061217983836121b1565b60208301905092915050565b6000612191838361240d565b905092915050565b60006121a58383612547565b60208301905092915050565b6121ba81612b78565b82525050565b6121c981612b78565b82525050565b60006121db8385612ae1565b93506121e682612a0f565b8060005b8581101561221f576121fc8284612b41565b612206888261216d565b975061221183612aa0565b9250506001810190506121ea565b5085925050509392505050565b600061223782612a5e565b6122418185612ae1565b935061224c83612a19565b8060005b8381101561227d578151612264888261216d565b975061226f83612aad565b925050600181019050612250565b5085935050505092915050565b600061229582612a69565b61229f8185612ae1565b93506122aa83612a29565b8060005b838110156122e2576122bf82612dee565b6122c9888261216d565b97506122d483612aba565b9250506001810190506122ae565b5085935050505092915050565b60006122fa82612a74565b6123048185612af2565b93508360208202850161231685612a3e565b8060005b8581101561235257848403895281516123338582612185565b945061233e83612ac7565b925060208a0199505060018101905061231a565b50829750879550505050505092915050565b600061236f82612a7f565b6123798185612b03565b935061238483612a4e565b8060005b838110156123b557815161239c8882612199565b97506123a783612ad4565b925050600181019050612388565b5085935050505092915050565b6123cb81612b8a565b82525050565b6123e26123dd82612b94565b612d28565b82525050565b60006123f48385612b25565b9350612401838584612c20565b82840190509392505050565b600061241882612a8a565b6124228185612b14565b9350612432818560208601612c2f565b61243b81612e2e565b840191505092915050565b61244f81612bea565b82525050565b60006124618385612b30565b935061246e838584612c20565b61247783612e2e565b840190509392505050565b600061248d82612a95565b6124978185612b30565b93506124a7818560208601612c2f565b6124b081612e2e565b840191505092915050565b60006124c8601783612b30565b91506124d382612e4c565b602082019050919050565b60006124eb601783612b30565b91506124f682612e75565b602082019050919050565b600061250e601a83612b30565b915061251982612e9e565b602082019050919050565b6000612531601a83612b30565b915061253c82612ec7565b602082019050919050565b61255081612be0565b82525050565b61255f81612be0565b82525050565b600061257182866123d1565b6004820191506125828284866123e8565b9150819050949350505050565b600061259c8284866123e8565b91508190509392505050565b60006020820190506125bd60008301846121c0565b92915050565b600060608201905081810360008301526125dd818661222c565b905081810360208301526125f181856122ef565b905081810360408301526126058184612364565b9050949350505050565b600060a0820190508181036000830152612629818861222c565b9050818103602083015261263d81876122ef565b905081810360408301526126518186612364565b905081810360608301526126658185612482565b905061267460808301846121c0565b9695505050505050565b60006080820190508181036000830152612698818761222c565b905081810360208301526126ac8186612364565b905081810360408301526126c081856122ef565b905081810360608301526126d48184612482565b905095945050505050565b60006020820190506126f460008301846123c2565b92915050565b600060608201905061270f60008301886123c2565b81810360208301526127228186886121cf565b90508181036040830152612737818486612455565b90509695505050505050565b600060608201905061275860008301866123c2565b818103602083015261276a818561228a565b9050818103604083015261277e8184612482565b9050949350505050565b600060208201905061279d6000830184612446565b92915050565b600060208201905081810360008301526127bc816124bb565b9050919050565b600060208201905081810360008301526127dc816124de565b9050919050565b600060208201905081810360008301526127fc81612501565b9050919050565b6000602082019050818103600083015261281c81612524565b9050919050565b60006020820190506128386000830184612556565b92915050565b6000808335600160200384360303811261285b5761285a612e10565b5b80840192508235915067ffffffffffffffff82111561287d5761287c612e0b565b5b60208301925060018202360383131561289957612898612e1a565b5b509250929050565b600080833560016020038436030381126128be576128bd612e10565b5b80840192508235915067ffffffffffffffff8211156128e0576128df612e0b565b5b6020830192506001820236038313156128fc576128fb612e1a565b5b509250929050565b600061290e61291f565b905061291a8282612cae565b919050565b6000604051905090565b600067ffffffffffffffff82111561294457612943612dbf565b5b602082029050602081019050919050565b600067ffffffffffffffff8211156129705761296f612dbf565b5b602082029050602081019050919050565b600067ffffffffffffffff82111561299c5761299b612dbf565b5b602082029050602081019050919050565b600067ffffffffffffffff8211156129c8576129c7612dbf565b5b6129d182612e2e565b9050602081019050919050565b600067ffffffffffffffff8211156129f9576129f8612dbf565b5b612a0282612e2e565b9050602081019050919050565b6000819050919050565b6000819050602082019050919050565b60008190508160005260206000209050919050565b6000819050602082019050919050565b6000819050602082019050919050565b600081519050919050565b600081549050919050565b600081519050919050565b600081519050919050565b600081519050919050565b600081519050919050565b6000602082019050919050565b6000602082019050919050565b6000600182019050919050565b6000602082019050919050565b6000602082019050919050565b600082825260208201905092915050565b600082825260208201905092915050565b600082825260208201905092915050565b600082825260208201905092915050565b600081905092915050565b600082825260208201905092915050565b6000612b506020840184611b59565b905092915050565b600073ffffffffffffffffffffffffffffffffffffffff82169050919050565b6000612b8382612bc0565b9050919050565b6000819050919050565b60007fffffffff0000000000000000000000000000000000000000000000000000000082169050919050565b600073ffffffffffffffffffffffffffffffffffffffff82169050919050565b6000819050919050565b6000612bf582612bfc565b9050919050565b6000612c0782612c0e565b9050919050565b6000612c1982612bc0565b9050919050565b82818337600083830152505050565b60005b83811015612c4d578082015181840152602081019050612c32565b83811115612c5c576000848401525b50505050565b60006002820490506001821680612c7a57607f821691505b60208210811415612c8e57612c8d612d61565b5b50919050565b6000612ca7612ca283612e3f565b612b58565b9050919050565b612cb782612e2e565b810181811067ffffffffffffffff82111715612cd657612cd5612dbf565b5b80604052505050565b6000612cea82612be0565b91507fffffffffffffffffffffffffffffffffffffffffffffffffffffffffffffffff821415612d1d57612d1c612d32565b5b600182019050919050565b6000819050919050565b7f4e487b7100000000000000000000000000000000000000000000000000000000600052601160045260246000fd5b7f4e487b7100000000000000000000000000000000000000000000000000000000600052602260045260246000fd5b7f4e487b7100000000000000000000000000000000000000000000000000000000600052603260045260246000fd5b7f4e487b7100000000000000000000000000000000000000000000000000000000600052604160045260246000fd5b6000612dfa8254612c94565b9050919050565b600080fd5b600080fd5b600080fd5b600080fd5b600080fd5b600080fd5b600080fd5b600080fd5b600080fd5b6000601f19601f8301169050919050565b60008160001c9050919050565b7f4578653a2045786520646f6573206e6f74206578697374000000000000000000600082015250565b7f4578653a204f6e6c792070726f702063616e2063616c6c000000000000000000600082015250565b7f4578653a204172726179206c656e677468206d69736d61746368000000000000600082015250565b7f4578653a2045786520494420616c726561647920696e20757365000000000000600082015250565b612ef981612b78565b8114612f0457600080fd5b50565b612f1081612b8a565b8114612f1b57600080fd5b50565b612f2781612be0565b8114612f3257600080fd5b5056fea26469706673582212205c2a25e1ad5cf8ac952df14d43793fd99e9ee59518a395515d99f4d817bb89bc64736f6c63430008070033",
  "linkReferences": {},
  "deployedLinkReferences": {}
}