{
  "_format": "hh-sol-artifact-1",
  "contractName": "Executables",
  "sourceName": "contracts/Executables.sol",
  "abi": [
    {
      "inputs": [
        {
          "internalType": "address",
          "name": "_core",
          "type": "address"
        }
      ],
      "stateMutability": "nonpayable",
      "type": "constructor"
    },
    {
      "inputs": [
        {
          "internalType": "address[]",
          "name": "_targets",
          "type": "address[]"
        },
        {
          "internalType": "string[]",
          "name": "_functionSignatures",
          "type": "string[]"
        },
        {
          "internalType": "bytes[]",
          "name": "_encodedParameters",
          "type": "bytes[]"
        },
        {
          "internalType": "uint256[]",
          "name": "_values",
          "type": "uint256[]"
        },
        {
          "internalType": "string",
          "name": "_description",
          "type": "string"
        }
      ],
      "name": "createExe",
      "outputs": [
        {
          "internalType": "bytes32",
          "name": "exeID",
          "type": "bytes32"
        }
      ],
      "stateMutability": "nonpayable",
      "type": "function"
    },
    {
      "inputs": [
        {
          "internalType": "uint256",
          "name": "_propID",
          "type": "uint256"
        },
        {
          "internalType": "bytes32",
          "name": "_exeID",
          "type": "bytes32"
        }
      ],
      "name": "createPropExe",
      "outputs": [
        {
          "internalType": "bytes32",
          "name": "propExeID",
          "type": "bytes32"
        }
      ],
      "stateMutability": "nonpayable",
      "type": "function"
    },
    {
      "inputs": [
        {
          "internalType": "bytes32",
          "name": "_exeID",
          "type": "bytes32"
        }
      ],
      "name": "getExe",
      "outputs": [
        {
          "internalType": "address[]",
          "name": "targets",
          "type": "address[]"
        },
        {
          "internalType": "bytes[]",
          "name": "callData",
          "type": "bytes[]"
        },
        {
          "internalType": "uint256[]",
          "name": "values",
          "type": "uint256[]"
        }
      ],
      "stateMutability": "view",
      "type": "function"
    },
    {
      "inputs": [
        {
          "internalType": "address[]",
          "name": "_targets",
          "type": "address[]"
        },
        {
          "internalType": "uint256[]",
          "name": "_values",
          "type": "uint256[]"
        },
        {
          "internalType": "bytes[]",
          "name": "_callData",
          "type": "bytes[]"
        },
        {
          "internalType": "string",
          "name": "_description",
          "type": "string"
        }
      ],
      "name": "getExeId",
      "outputs": [
        {
          "internalType": "bytes32",
          "name": "",
          "type": "bytes32"
        }
      ],
      "stateMutability": "pure",
      "type": "function"
    },
    {
      "inputs": [
        {
          "internalType": "bytes32",
          "name": "_exeID",
          "type": "bytes32"
        }
      ],
      "name": "getExeInfo",
      "outputs": [
        {
          "internalType": "address[]",
          "name": "targets",
          "type": "address[]"
        },
        {
          "internalType": "bytes[]",
          "name": "callData",
          "type": "bytes[]"
        },
        {
          "internalType": "uint256[]",
          "name": "values",
          "type": "uint256[]"
        },
        {
          "internalType": "string",
          "name": "description",
          "type": "string"
        },
        {
          "internalType": "address",
          "name": "creator",
          "type": "address"
        }
      ],
      "stateMutability": "view",
      "type": "function"
    }
  ],
  "bytecode": "0x60806040523480156200001157600080fd5b5060405162002595380380620025958339818101604052810190620000379190620001b2565b806000806101000a81548173ffffffffffffffffffffffffffffffffffffffff021916908373ffffffffffffffffffffffffffffffffffffffff1602179055507f907208bc2088fa777f18b43edd8b766e7243504cf8497f7ed936c65c7a446bbc60008054906101000a900473ffffffffffffffffffffffffffffffffffffffff1673ffffffffffffffffffffffffffffffffffffffff16633c9747f36040518163ffffffff1660e01b815260040160206040518083038186803b158015620000ff57600080fd5b505afa15801562000114573d6000803e3d6000fd5b505050506040513d601f19601f820116820180604052508101906200013a9190620001e4565b146200017d576040517f08c379a000000000000000000000000000000000000000000000000000000000815260040162000174906200023d565b60405180910390fd5b5062000310565b6000815190506200019581620002dc565b92915050565b600081519050620001ac81620002f6565b92915050565b600060208284031215620001cb57620001ca620002ae565b5b6000620001db8482850162000184565b91505092915050565b600060208284031215620001fd57620001fc620002ae565b5b60006200020d848285016200019b565b91505092915050565b600062000225601a836200025f565b91506200023282620002b3565b602082019050919050565b60006020820190508181036000830152620002588162000216565b9050919050565b600082825260208201905092915050565b60006200027d826200028e565b9050919050565b6000819050919050565b600073ffffffffffffffffffffffffffffffffffffffff82169050919050565b600080fd5b7f436f72653a206964656e74696669657220696e636f7272656374000000000000600082015250565b620002e78162000270565b8114620002f357600080fd5b50565b620003018162000284565b81146200030d57600080fd5b50565b61227580620003206000396000f3fe608060405234801561001057600080fd5b50600436106100575760003560e01c80630ee476bc1461005c578063184b9ce51461008c578063204d67b5146100bc578063971aa75e146100ec578063e07513261461011e575b600080fd5b6100766004803603810190610071919061160a565b610152565b6040516100839190611b98565b60405180910390f35b6100a660048036038101906100a191906114ed565b61018b565b6040516100b39190611b98565b60405180910390f35b6100d660048036038101906100d1919061170e565b610669565b6040516100e39190611b98565b60405180910390f35b610106600480360381019061010191906116e1565b610853565b60405161011593929190611a7c565b60405180910390f35b610138600480360381019061013391906116e1565b610a4b565b604051610149959493929190611ac8565b60405180910390f35b60008484848460405160200161016b9493929190611b37565b604051602081830303815290604052805190602001209050949350505050565b6000888890508b8b90501480156101a75750868690508b8b9050145b80156101b85750848490508b8b9050145b6101f7576040517f08c379a00000000000000000000000000000000000000000000000000000000081526004016101ee90611bf3565b60405180910390fd5b60008b8b905067ffffffffffffffff811115610216576102156120e9565b5b60405190808252806020026020018201604052801561024957816020015b60608152602001906001900390816102345790505b50905060005b8c8c905081101561030c578a8a8281811061026d5761026c6120ba565b5b905060200281019061027f9190611c96565b60405161028d929190611a63565b60405180910390208989838181106102a8576102a76120ba565b5b90506020028101906102ba9190611c33565b6040516020016102cc93929190611a39565b6040516020818303038152906040528282815181106102ee576102ed6120ba565b5b6020026020010181905250808061030490612009565b91505061024f565b506103df8c8c80806020026020016040519081016040528093929190818152602001838360200280828437600081840152601f19601f82011690508083019250505050505050878780806020026020016040519081016040528093929190818152602001838360200280828437600081840152601f19601f820116905080830192505050505050508387878080601f016020809104026020016040519081016040528093929190818152602001838380828437600081840152601f19601f82011690508083019250505050505050610152565b9150600073ffffffffffffffffffffffffffffffffffffffff166001600084815260200190815260200160002060040160009054906101000a900473ffffffffffffffffffffffffffffffffffffffff1673ffffffffffffffffffffffffffffffffffffffff1614610486576040517f08c379a000000000000000000000000000000000000000000000000000000000815260040161047d90611c13565b60405180910390fd5b6040518060a001604052808d8d80806020026020016040519081016040528093929190818152602001838360200280828437600081840152601f19601f820116905080830192505050505050508152602001878780806020026020016040519081016040528093929190818152602001838360200280828437600081840152601f19601f82011690508083019250505050505050815260200182815260200185858080601f016020809104026020016040519081016040528093929190818152602001838380828437600081840152601f19601f8201169050808301925050505050505081526020013373ffffffffffffffffffffffffffffffffffffffff168152506001600084815260200190815260200160002060008201518160000190805190602001906105b8929190610d22565b5060208201518160010190805190602001906105d5929190610dac565b5060408201518160020190805190602001906105f2929190610df9565b50606082015181600301908051906020019061060f929190610e59565b5060808201518160040160006101000a81548173ffffffffffffffffffffffffffffffffffffffff021916908373ffffffffffffffffffffffffffffffffffffffff160217905550905050509a9950505050505050505050565b60003373ffffffffffffffffffffffffffffffffffffffff1660008054906101000a900473ffffffffffffffffffffffffffffffffffffffff1673ffffffffffffffffffffffffffffffffffffffff1663624a23e07f36209a57dfd79e3872ec3a0c88c653bbe7e32a12306e5e1f92f118c1936ae8b26040518263ffffffff1660e01b81526004016106fb9190611b98565b60206040518083038186803b15801561071357600080fd5b505afa158015610727573d6000803e3d6000fd5b505050506040513d601f19601f8201168201806040525081019061074b91906114c0565b73ffffffffffffffffffffffffffffffffffffffff16146107a1576040517f08c379a000000000000000000000000000000000000000000000000000000000815260040161079890611bd3565b60405180910390fd5b600073ffffffffffffffffffffffffffffffffffffffff166001600084815260200190815260200160002060040160009054906101000a900473ffffffffffffffffffffffffffffffffffffffff1673ffffffffffffffffffffffffffffffffffffffff161415610847576040517f08c379a000000000000000000000000000000000000000000000000000000000815260040161083e90611bb3565b60405180910390fd5b6000801b905092915050565b6060806060600160008581526020019081526020016000206000018054806020026020016040519081016040528092919081815260200182805480156108ee57602002820191906000526020600020905b8160009054906101000a900473ffffffffffffffffffffffffffffffffffffffff1673ffffffffffffffffffffffffffffffffffffffff16815260200190600101908083116108a4575b5050505050925060016000858152602001908152602001600020600201805480602002602001604051908101604052809291908181526020016000905b828210156109d757838290600052602060002001805461094a90611fa6565b80601f016020809104026020016040519081016040528092919081815260200182805461097690611fa6565b80156109c35780601f10610998576101008083540402835291602001916109c3565b820191906000526020600020905b8154815290600101906020018083116109a657829003601f168201915b50505050508152602001906001019061092b565b50505050915060016000858152602001908152602001600020600101805480602002602001604051908101604052809291908181526020018280548015610a3d57602002820191906000526020600020905b815481526020019060010190808311610a29575b505050505090509193909250565b606080606080600060016000878152602001908152602001600020600001805480602002602001604051908101604052809291908181526020018280548015610ae957602002820191906000526020600020905b8160009054906101000a900473ffffffffffffffffffffffffffffffffffffffff1673ffffffffffffffffffffffffffffffffffffffff1681526020019060010190808311610a9f575b5050505050945060016000878152602001908152602001600020600201805480602002602001604051908101604052809291908181526020016000905b82821015610bd2578382906000526020600020018054610b4590611fa6565b80601f0160208091040260200160405190810160405280929190818152602001828054610b7190611fa6565b8015610bbe5780601f10610b9357610100808354040283529160200191610bbe565b820191906000526020600020905b815481529060010190602001808311610ba157829003601f168201915b505050505081526020019060010190610b26565b50505050935060016000878152602001908152602001600020600101805480602002602001604051908101604052809291908181526020018280548015610c3857602002820191906000526020600020905b815481526020019060010190808311610c24575b50505050509250600160008781526020019081526020016000206003018054610c6090611fa6565b80601f0160208091040260200160405190810160405280929190818152602001828054610c8c90611fa6565b8015610cd95780601f10610cae57610100808354040283529160200191610cd9565b820191906000526020600020905b815481529060010190602001808311610cbc57829003601f168201915b505050505091506001600087815260200190815260200160002060040160009054906101000a900473ffffffffffffffffffffffffffffffffffffffff16905091939590929450565b828054828255906000526020600020908101928215610d9b579160200282015b82811115610d9a5782518260006101000a81548173ffffffffffffffffffffffffffffffffffffffff021916908373ffffffffffffffffffffffffffffffffffffffff16021790555091602001919060010190610d42565b5b509050610da89190610edf565b5090565b828054828255906000526020600020908101928215610de8579160200282015b82811115610de7578251825591602001919060010190610dcc565b5b509050610df59190610edf565b5090565b828054828255906000526020600020908101928215610e48579160200282015b82811115610e47578251829080519060200190610e37929190610efc565b5091602001919060010190610e19565b5b509050610e559190610f82565b5090565b828054610e6590611fa6565b90600052602060002090601f016020900481019282610e875760008555610ece565b82601f10610ea057805160ff1916838001178555610ece565b82800160010185558215610ece579182015b82811115610ecd578251825591602001919060010190610eb2565b5b509050610edb9190610edf565b5090565b5b80821115610ef8576000816000905550600101610ee0565b5090565b828054610f0890611fa6565b90600052602060002090601f016020900481019282610f2a5760008555610f71565b82601f10610f4357805160ff1916838001178555610f71565b82800160010185558215610f71579182015b82811115610f70578251825591602001919060010190610f55565b5b509050610f7e9190610edf565b5090565b5b80821115610fa25760008181610f999190610fa6565b50600101610f83565b5090565b508054610fb290611fa6565b6000825580601f10610fc45750610fe3565b601f016020900490600052602060002090810190610fe29190610edf565b5b50565b6000610ff9610ff484611d1e565b611cf9565b9050808382526020820190508285602086028201111561101c5761101b61212c565b5b60005b8581101561104c578161103288826111d8565b84526020840193506020830192505060018101905061101f565b5050509392505050565b600061106961106484611d4a565b611cf9565b9050808382526020820190508285602086028201111561108c5761108b61212c565b5b60005b858110156110da57813567ffffffffffffffff8111156110b2576110b161211d565b5b8086016110bf89826113f9565b8552602085019450602084019350505060018101905061108f565b5050509392505050565b60006110f76110f284611d76565b611cf9565b9050808382526020820190508285602086028201111561111a5761111961212c565b5b60005b8581101561114a578161113088826114ab565b84526020840193506020830192505060018101905061111d565b5050509392505050565b600061116761116284611da2565b611cf9565b90508281526020810184848401111561118357611182612136565b5b61118e848285611f64565b509392505050565b60006111a96111a484611dd3565b611cf9565b9050828152602081018484840111156111c5576111c4612136565b5b6111d0848285611f64565b509392505050565b6000813590506111e7816121fa565b92915050565b6000815190506111fc816121fa565b92915050565b60008083601f8401126112185761121761211d565b5b8235905067ffffffffffffffff81111561123557611234612118565b5b6020830191508360208202830111156112515761125061212c565b5b9250929050565b600082601f83011261126d5761126c61211d565b5b813561127d848260208601610fe6565b91505092915050565b60008083601f84011261129c5761129b61211d565b5b8235905067ffffffffffffffff8111156112b9576112b8612118565b5b6020830191508360208202830111156112d5576112d461212c565b5b9250929050565b600082601f8301126112f1576112f061211d565b5b8135611301848260208601611056565b91505092915050565b60008083601f8401126113205761131f61211d565b5b8235905067ffffffffffffffff81111561133d5761133c612118565b5b6020830191508360208202830111156113595761135861212c565b5b9250929050565b60008083601f8401126113765761137561211d565b5b8235905067ffffffffffffffff81111561139357611392612118565b5b6020830191508360208202830111156113af576113ae61212c565b5b9250929050565b600082601f8301126113cb576113ca61211d565b5b81356113db8482602086016110e4565b91505092915050565b6000813590506113f381612211565b92915050565b600082601f83011261140e5761140d61211d565b5b813561141e848260208601611154565b91505092915050565b60008083601f84011261143d5761143c61211d565b5b8235905067ffffffffffffffff81111561145a57611459612118565b5b6020830191508360018202830111156114765761147561212c565b5b9250929050565b600082601f8301126114925761149161211d565b5b81356114a2848260208601611196565b91505092915050565b6000813590506114ba81612228565b92915050565b6000602082840312156114d6576114d5612140565b5b60006114e4848285016111ed565b91505092915050565b60008060008060008060008060008060a08b8d0312156115105761150f612140565b5b60008b013567ffffffffffffffff81111561152e5761152d61213b565b5b61153a8d828e01611202565b9a509a505060208b013567ffffffffffffffff81111561155d5761155c61213b565b5b6115698d828e0161130a565b985098505060408b013567ffffffffffffffff81111561158c5761158b61213b565b5b6115988d828e01611286565b965096505060608b013567ffffffffffffffff8111156115bb576115ba61213b565b5b6115c78d828e01611360565b945094505060808b013567ffffffffffffffff8111156115ea576115e961213b565b5b6115f68d828e01611427565b92509250509295989b9194979a5092959850565b6000806000806080858703121561162457611623612140565b5b600085013567ffffffffffffffff8111156116425761164161213b565b5b61164e87828801611258565b945050602085013567ffffffffffffffff81111561166f5761166e61213b565b5b61167b878288016113b6565b935050604085013567ffffffffffffffff81111561169c5761169b61213b565b5b6116a8878288016112dc565b925050606085013567ffffffffffffffff8111156116c9576116c861213b565b5b6116d58782880161147d565b91505092959194509250565b6000602082840312156116f7576116f6612140565b5b6000611705848285016113e4565b91505092915050565b6000806040838503121561172557611724612140565b5b6000611733858286016114ab565b9250506020611744858286016113e4565b9150509250929050565b600061175a8383611792565b60208301905092915050565b6000611772838361192c565b905092915050565b60006117868383611a2a565b60208301905092915050565b61179b81611ef2565b82525050565b6117aa81611ef2565b82525050565b60006117bb82611e34565b6117c58185611e92565b93506117d083611e04565b8060005b838110156118015781516117e8888261174e565b97506117f383611e6b565b9250506001810190506117d4565b5085935050505092915050565b600061181982611e3f565b6118238185611ea3565b93508360208202850161183585611e14565b8060005b8581101561187157848403895281516118528582611766565b945061185d83611e78565b925060208a01995050600181019050611839565b50829750879550505050505092915050565b600061188e82611e4a565b6118988185611eb4565b93506118a383611e24565b8060005b838110156118d45781516118bb888261177a565b97506118c683611e85565b9250506001810190506118a7565b5085935050505092915050565b6118ea81611f04565b82525050565b6119016118fc82611f0e565b612052565b82525050565b60006119138385611ed6565b9350611920838584611f64565b82840190509392505050565b600061193782611e55565b6119418185611ec5565b9350611951818560208601611f73565b61195a81612145565b840191505092915050565b600061197082611e60565b61197a8185611ee1565b935061198a818560208601611f73565b61199381612145565b840191505092915050565b60006119ab601783611ee1565b91506119b682612156565b602082019050919050565b60006119ce601783611ee1565b91506119d98261217f565b602082019050919050565b60006119f1601a83611ee1565b91506119fc826121a8565b602082019050919050565b6000611a14601a83611ee1565b9150611a1f826121d1565b602082019050919050565b611a3381611f5a565b82525050565b6000611a4582866118f0565b600482019150611a56828486611907565b9150819050949350505050565b6000611a70828486611907565b91508190509392505050565b60006060820190508181036000830152611a9681866117b0565b90508181036020830152611aaa818561180e565b90508181036040830152611abe8184611883565b9050949350505050565b600060a0820190508181036000830152611ae281886117b0565b90508181036020830152611af6818761180e565b90508181036040830152611b0a8186611883565b90508181036060830152611b1e8185611965565b9050611b2d60808301846117a1565b9695505050505050565b60006080820190508181036000830152611b5181876117b0565b90508181036020830152611b658186611883565b90508181036040830152611b79818561180e565b90508181036060830152611b8d8184611965565b905095945050505050565b6000602082019050611bad60008301846118e1565b92915050565b60006020820190508181036000830152611bcc8161199e565b9050919050565b60006020820190508181036000830152611bec816119c1565b9050919050565b60006020820190508181036000830152611c0c816119e4565b9050919050565b60006020820190508181036000830152611c2c81611a07565b9050919050565b60008083356001602003843603038112611c5057611c4f612127565b5b80840192508235915067ffffffffffffffff821115611c7257611c71612122565b5b602083019250600182023603831315611c8e57611c8d612131565b5b509250929050565b60008083356001602003843603038112611cb357611cb2612127565b5b80840192508235915067ffffffffffffffff821115611cd557611cd4612122565b5b602083019250600182023603831315611cf157611cf0612131565b5b509250929050565b6000611d03611d14565b9050611d0f8282611fd8565b919050565b6000604051905090565b600067ffffffffffffffff821115611d3957611d386120e9565b5b602082029050602081019050919050565b600067ffffffffffffffff821115611d6557611d646120e9565b5b602082029050602081019050919050565b600067ffffffffffffffff821115611d9157611d906120e9565b5b602082029050602081019050919050565b600067ffffffffffffffff821115611dbd57611dbc6120e9565b5b611dc682612145565b9050602081019050919050565b600067ffffffffffffffff821115611dee57611ded6120e9565b5b611df782612145565b9050602081019050919050565b6000819050602082019050919050565b6000819050602082019050919050565b6000819050602082019050919050565b600081519050919050565b600081519050919050565b600081519050919050565b600081519050919050565b600081519050919050565b6000602082019050919050565b6000602082019050919050565b6000602082019050919050565b600082825260208201905092915050565b600082825260208201905092915050565b600082825260208201905092915050565b600082825260208201905092915050565b600081905092915050565b600082825260208201905092915050565b6000611efd82611f3a565b9050919050565b6000819050919050565b60007fffffffff0000000000000000000000000000000000000000000000000000000082169050919050565b600073ffffffffffffffffffffffffffffffffffffffff82169050919050565b6000819050919050565b82818337600083830152505050565b60005b83811015611f91578082015181840152602081019050611f76565b83811115611fa0576000848401525b50505050565b60006002820490506001821680611fbe57607f821691505b60208210811415611fd257611fd161208b565b5b50919050565b611fe182612145565b810181811067ffffffffffffffff8211171561200057611fff6120e9565b5b80604052505050565b600061201482611f5a565b91507fffffffffffffffffffffffffffffffffffffffffffffffffffffffffffffffff8214156120475761204661205c565b5b600182019050919050565b6000819050919050565b7f4e487b7100000000000000000000000000000000000000000000000000000000600052601160045260246000fd5b7f4e487b7100000000000000000000000000000000000000000000000000000000600052602260045260246000fd5b7f4e487b7100000000000000000000000000000000000000000000000000000000600052603260045260246000fd5b7f4e487b7100000000000000000000000000000000000000000000000000000000600052604160045260246000fd5b600080fd5b600080fd5b600080fd5b600080fd5b600080fd5b600080fd5b600080fd5b600080fd5b600080fd5b6000601f19601f8301169050919050565b7f4578653a2045786520646f6573206e6f74206578697374000000000000000000600082015250565b7f4578653a204f6e6c792070726f702063616e2063616c6c000000000000000000600082015250565b7f4578653a204172726179206c656e677468206d69736d61746368000000000000600082015250565b7f4578653a2045786520494420616c726561647920696e20757365000000000000600082015250565b61220381611ef2565b811461220e57600080fd5b50565b61221a81611f04565b811461222557600080fd5b50565b61223181611f5a565b811461223c57600080fd5b5056fea264697066735822122029edb9428c306a0640cf0e8926e7f0d2fb66977672f18e7697dc6c7998a5dfbe64736f6c63430008070033",
  "linkReferences": {},
  "deployedLinkReferences": {}
}