{
  "_format": "hh-sol-artifact-1",
  "contractName": "Executables",
  "sourceName": "contracts/Executables.sol",
  "abi": [
    {
      "inputs": [
        {
          "internalType": "address",
          "name": "_core",
          "type": "address"
        }
      ],
      "stateMutability": "nonpayable",
      "type": "constructor"
    },
    {
      "anonymous": false,
      "inputs": [
        {
          "indexed": false,
          "internalType": "bytes32",
          "name": "exeID",
          "type": "bytes32"
        },
        {
          "indexed": false,
          "internalType": "address[]",
          "name": "targets",
          "type": "address[]"
        },
        {
          "indexed": false,
          "internalType": "string",
          "name": "description",
          "type": "string"
        }
      ],
      "name": "MintExecutable",
      "type": "event"
    },
    {
      "inputs": [],
      "name": "IDENTIFIER",
      "outputs": [
        {
          "internalType": "bytes32",
          "name": "",
          "type": "bytes32"
        }
      ],
      "stateMutability": "view",
      "type": "function"
    },
    {
      "inputs": [],
      "name": "core_",
      "outputs": [
        {
          "internalType": "contract ICore",
          "name": "",
          "type": "address"
        }
      ],
      "stateMutability": "view",
      "type": "function"
    },
    {
      "inputs": [
        {
          "internalType": "address[]",
          "name": "_targets",
          "type": "address[]"
        },
        {
          "internalType": "string[]",
          "name": "_functionSignatures",
          "type": "string[]"
        },
        {
          "internalType": "bytes[]",
          "name": "_encodedParameters",
          "type": "bytes[]"
        },
        {
          "internalType": "uint256[]",
          "name": "_values",
          "type": "uint256[]"
        },
        {
          "internalType": "string",
          "name": "_description",
          "type": "string"
        }
      ],
      "name": "createExe",
      "outputs": [
        {
          "internalType": "bytes32",
          "name": "exeID",
          "type": "bytes32"
        }
      ],
      "stateMutability": "nonpayable",
      "type": "function"
    },
    {
      "inputs": [
        {
          "internalType": "uint256",
          "name": "_propID",
          "type": "uint256"
        },
        {
          "internalType": "bytes32",
          "name": "_exeID",
          "type": "bytes32"
        },
        {
          "internalType": "string",
          "name": "_description",
          "type": "string"
        }
      ],
      "name": "createPropExe",
      "outputs": [
        {
          "internalType": "bytes32",
          "name": "propExeID",
          "type": "bytes32"
        }
      ],
      "stateMutability": "nonpayable",
      "type": "function"
    },
    {
      "inputs": [
        {
          "internalType": "bytes32",
          "name": "_exeID",
          "type": "bytes32"
        }
      ],
      "name": "getExe",
      "outputs": [
        {
          "internalType": "address[]",
          "name": "targets",
          "type": "address[]"
        },
        {
          "internalType": "bytes[]",
          "name": "callData",
          "type": "bytes[]"
        },
        {
          "internalType": "uint256[]",
          "name": "values",
          "type": "uint256[]"
        }
      ],
      "stateMutability": "view",
      "type": "function"
    },
    {
      "inputs": [
        {
          "internalType": "address[]",
          "name": "_targets",
          "type": "address[]"
        },
        {
          "internalType": "uint256[]",
          "name": "_values",
          "type": "uint256[]"
        },
        {
          "internalType": "bytes[]",
          "name": "_callData",
          "type": "bytes[]"
        },
        {
          "internalType": "string",
          "name": "_description",
          "type": "string"
        }
      ],
      "name": "getExeId",
      "outputs": [
        {
          "internalType": "bytes32",
          "name": "",
          "type": "bytes32"
        }
      ],
      "stateMutability": "pure",
      "type": "function"
    },
    {
      "inputs": [
        {
          "internalType": "bytes32",
          "name": "_exeID",
          "type": "bytes32"
        }
      ],
      "name": "getExeInfo",
      "outputs": [
        {
          "internalType": "address[]",
          "name": "targets",
          "type": "address[]"
        },
        {
          "internalType": "bytes[]",
          "name": "callData",
          "type": "bytes[]"
        },
        {
          "internalType": "uint256[]",
          "name": "values",
          "type": "uint256[]"
        },
        {
          "internalType": "string",
          "name": "description",
          "type": "string"
        },
        {
          "internalType": "address",
          "name": "creator",
          "type": "address"
        }
      ],
      "stateMutability": "view",
      "type": "function"
    }
  ],
  "bytecode": "0x60c06040523480156200001157600080fd5b5060405162002d7f38038062002d7f8339818101604052810190620000379190620000b8565b7f59e2d72f5870ccddd14d35394bd3c22374071b2da7c07a3d6c3b690400b736288181608081815250508073ffffffffffffffffffffffffffffffffffffffff1660a08173ffffffffffffffffffffffffffffffffffffffff1660601b815250505050506200013d565b600081519050620000b28162000123565b92915050565b600060208284031215620000d157620000d06200011e565b5b6000620000e184828501620000a1565b91505092915050565b6000620000f782620000fe565b9050919050565b600073ffffffffffffffffffffffffffffffffffffffff82169050919050565b600080fd5b6200012e81620000ea565b81146200013a57600080fd5b50565b60805160a05160601c612c126200016d6000396000818161072301526113dc01526000610ef10152612c126000f3fe608060405234801561001057600080fd5b506004361061007d5760003560e01c80633c9747f31161005b5780633c9747f314610112578063971aa75e14610130578063e075132614610162578063eaddd0fd146101965761007d565b80630ee476bc14610082578063184b9ce5146100b2578063295adadf146100e2575b600080fd5b61009c60048036038101906100979190611ce6565b6101b4565b6040516100a991906123a1565b60405180910390f35b6100cc60048036038101906100c79190611bc9565b6101ed565b6040516100d991906123a1565b60405180910390f35b6100fc60048036038101906100f79190611dea565b610708565b60405161010991906123a1565b60405180910390f35b61011a610eef565b60405161012791906123a1565b60405180910390f35b61014a60048036038101906101459190611dbd565b610f13565b60405161015993929190612285565b60405180910390f35b61017c60048036038101906101779190611dbd565b611108565b60405161018d9594939291906122d1565b60405180910390f35b61019e6113da565b6040516101ab919061244a565b60405180910390f35b6000848484846040516020016101cd9493929190612340565b604051602081830303815290604052805190602001209050949350505050565b6000888890508b8b90501480156102095750868690508b8b9050145b801561021a5750848490508b8b9050145b610259576040517f08c379a0000000000000000000000000000000000000000000000000000000008152600401610250906124a5565b60405180910390fd5b60008b8b905067ffffffffffffffff81111561027857610277612a66565b5b6040519080825280602002602001820160405280156102ab57816020015b60608152602001906001900390816102965790505b50905060005b8c8c905081101561036e578a8a828181106102cf576102ce612a37565b5b90506020028101906102e19190612548565b6040516102ef92919061226c565b604051809103902089898381811061030a57610309612a37565b5b905060200281019061031c91906124e5565b60405160200161032e93929190612242565b6040516020818303038152906040528282815181106103505761034f612a37565b5b6020026020010181905250808061036690612986565b9150506102b1565b506104418c8c80806020026020016040519081016040528093929190818152602001838360200280828437600081840152601f19601f82011690508083019250505050505050878780806020026020016040519081016040528093929190818152602001838360200280828437600081840152601f19601f820116905080830192505050505050508387878080601f016020809104026020016040519081016040528093929190818152602001838380828437600081840152601f19601f820116905080830192505050505050506101b4565b9150600073ffffffffffffffffffffffffffffffffffffffff1660008084815260200190815260200160002060040160009054906101000a900473ffffffffffffffffffffffffffffffffffffffff1673ffffffffffffffffffffffffffffffffffffffff16146104e7576040517f08c379a00000000000000000000000000000000000000000000000000000000081526004016104de906124c5565b60405180910390fd5b6040518060a001604052808d8d80806020026020016040519081016040528093929190818152602001838360200280828437600081840152601f19601f820116905080830192505050505050508152602001878780806020026020016040519081016040528093929190818152602001838360200280828437600081840152601f19601f82011690508083019250505050505050815260200182815260200185858080601f016020809104026020016040519081016040528093929190818152602001838380828437600081840152601f19601f8201169050808301925050505050505081526020013373ffffffffffffffffffffffffffffffffffffffff1681525060008084815260200190815260200160002060008201518160000190805190602001906106189291906113fe565b506020820151816001019080519060200190610635929190611488565b5060408201518160020190805190602001906106529291906114d5565b50606082015181600301908051906020019061066f929190611535565b5060808201518160040160006101000a81548173ffffffffffffffffffffffffffffffffffffffff021916908373ffffffffffffffffffffffffffffffffffffffff1602179055509050507f9efa23cf1a1ca9f8f84d1c5ab98b64e67b7eb5c0ec0cb0f02658ce7ec7d7ced3828d8d87876040516106f19594939291906123bc565b60405180910390a1509a9950505050505050505050565b60003373ffffffffffffffffffffffffffffffffffffffff167f000000000000000000000000000000000000000000000000000000000000000073ffffffffffffffffffffffffffffffffffffffff1663624a23e07f36209a57dfd79e3872ec3a0c88c653bbe7e32a12306e5e1f92f118c1936ae8b26040518263ffffffff1660e01b815260040161079a91906123a1565b60206040518083038186803b1580156107b257600080fd5b505afa1580156107c6573d6000803e3d6000fd5b505050506040513d601f19601f820116820180604052508101906107ea9190611b9c565b73ffffffffffffffffffffffffffffffffffffffff1614610840576040517f08c379a000000000000000000000000000000000000000000000000000000000815260040161083790612485565b60405180910390fd5b600073ffffffffffffffffffffffffffffffffffffffff1660008085815260200190815260200160002060040160009054906101000a900473ffffffffffffffffffffffffffffffffffffffff1673ffffffffffffffffffffffffffffffffffffffff1614156108e5576040517f08c379a00000000000000000000000000000000000000000000000000000000081526004016108dc90612465565b60405180910390fd5b610ad160008085815260200190815260200160002060000180548060200260200160405190810160405280929190818152602001828054801561097d57602002820191906000526020600020905b8160009054906101000a900473ffffffffffffffffffffffffffffffffffffffff1673ffffffffffffffffffffffffffffffffffffffff1681526020019060010190808311610933575b50505050506000808681526020019081526020016000206001018054806020026020016040519081016040528092919081815260200182805480156109e157602002820191906000526020600020905b8154815260200190600101908083116109cd575b5050505050600080878152602001908152602001600020600201805480602002602001604051908101604052809291908181526020016000905b82821015610ac7578382906000526020600020018054610a3a90612909565b80601f0160208091040260200160405190810160405280929190818152602001828054610a6690612909565b8015610ab35780601f10610a8857610100808354040283529160200191610ab3565b820191906000526020600020905b815481529060010190602001808311610a9657829003601f168201915b505050505081526020019060010190610a1b565b50505050856101b4565b9050600073ffffffffffffffffffffffffffffffffffffffff1660008083815260200190815260200160002060040160009054906101000a900473ffffffffffffffffffffffffffffffffffffffff1673ffffffffffffffffffffffffffffffffffffffff1614610b77576040517f08c379a0000000000000000000000000000000000000000000000000000000008152600401610b6e906124c5565b60405180910390fd5b6040518060a00160405280600080868152602001908152602001600020600001805480602002602001604051908101604052809291908181526020018280548015610c1757602002820191906000526020600020905b8160009054906101000a900473ffffffffffffffffffffffffffffffffffffffff1673ffffffffffffffffffffffffffffffffffffffff1681526020019060010190808311610bcd575b50505050508152602001600080868152602001908152602001600020600101805480602002602001604051908101604052809291908181526020018280548015610c8057602002820191906000526020600020905b815481526020019060010190808311610c6c575b50505050508152602001600080868152602001908152602001600020600201805480602002602001604051908101604052809291908181526020016000905b82821015610d6b578382906000526020600020018054610cde90612909565b80601f0160208091040260200160405190810160405280929190818152602001828054610d0a90612909565b8015610d575780601f10610d2c57610100808354040283529160200191610d57565b820191906000526020600020905b815481529060010190602001808311610d3a57829003601f168201915b505050505081526020019060010190610cbf565b50505050815260200183815260200160008086815260200190815260200160002060040160009054906101000a900473ffffffffffffffffffffffffffffffffffffffff1673ffffffffffffffffffffffffffffffffffffffff168152506000808381526020019081526020016000206000820151816000019080519060200190610df79291906113fe565b506020820151816001019080519060200190610e14929190611488565b506040820151816002019080519060200190610e319291906114d5565b506060820151816003019080519060200190610e4e929190611535565b5060808201518160040160006101000a81548173ffffffffffffffffffffffffffffffffffffffff021916908373ffffffffffffffffffffffffffffffffffffffff1602179055509050507f9efa23cf1a1ca9f8f84d1c5ab98b64e67b7eb5c0ec0cb0f02658ce7ec7d7ced38160008086815260200190815260200160002060000184604051610ee093929190612405565b60405180910390a19392505050565b7f000000000000000000000000000000000000000000000000000000000000000081565b6060806060600080858152602001908152602001600020600001805480602002602001604051908101604052809291908181526020018280548015610fad57602002820191906000526020600020905b8160009054906101000a900473ffffffffffffffffffffffffffffffffffffffff1673ffffffffffffffffffffffffffffffffffffffff1681526020019060010190808311610f63575b50505050509250600080858152602001908152602001600020600201805480602002602001604051908101604052809291908181526020016000905b8282101561109557838290600052602060002001805461100890612909565b80601f016020809104026020016040519081016040528092919081815260200182805461103490612909565b80156110815780601f1061105657610100808354040283529160200191611081565b820191906000526020600020905b81548152906001019060200180831161106457829003601f168201915b505050505081526020019060010190610fe9565b5050505091506000808581526020019081526020016000206001018054806020026020016040519081016040528092919081815260200182805480156110fa57602002820191906000526020600020905b8154815260200190600101908083116110e6575b505050505090509193909250565b60608060608060008060008781526020019081526020016000206000018054806020026020016040519081016040528092919081815260200182805480156111a557602002820191906000526020600020905b8160009054906101000a900473ffffffffffffffffffffffffffffffffffffffff1673ffffffffffffffffffffffffffffffffffffffff168152602001906001019080831161115b575b50505050509450600080878152602001908152602001600020600201805480602002602001604051908101604052809291908181526020016000905b8282101561128d57838290600052602060002001805461120090612909565b80601f016020809104026020016040519081016040528092919081815260200182805461122c90612909565b80156112795780601f1061124e57610100808354040283529160200191611279565b820191906000526020600020905b81548152906001019060200180831161125c57829003601f168201915b5050505050815260200190600101906111e1565b5050505093506000808781526020019081526020016000206001018054806020026020016040519081016040528092919081815260200182805480156112f257602002820191906000526020600020905b8154815260200190600101908083116112de575b50505050509250600080878152602001908152602001600020600301805461131990612909565b80601f016020809104026020016040519081016040528092919081815260200182805461134590612909565b80156113925780601f1061136757610100808354040283529160200191611392565b820191906000526020600020905b81548152906001019060200180831161137557829003601f168201915b5050505050915060008087815260200190815260200160002060040160009054906101000a900473ffffffffffffffffffffffffffffffffffffffff16905091939590929450565b7f000000000000000000000000000000000000000000000000000000000000000081565b828054828255906000526020600020908101928215611477579160200282015b828111156114765782518260006101000a81548173ffffffffffffffffffffffffffffffffffffffff021916908373ffffffffffffffffffffffffffffffffffffffff1602179055509160200191906001019061141e565b5b50905061148491906115bb565b5090565b8280548282559060005260206000209081019282156114c4579160200282015b828111156114c35782518255916020019190600101906114a8565b5b5090506114d191906115bb565b5090565b828054828255906000526020600020908101928215611524579160200282015b828111156115235782518290805190602001906115139291906115d8565b50916020019190600101906114f5565b5b509050611531919061165e565b5090565b82805461154190612909565b90600052602060002090601f01602090048101928261156357600085556115aa565b82601f1061157c57805160ff19168380011785556115aa565b828001600101855582156115aa579182015b828111156115a957825182559160200191906001019061158e565b5b5090506115b791906115bb565b5090565b5b808211156115d45760008160009055506001016115bc565b5090565b8280546115e490612909565b90600052602060002090601f016020900481019282611606576000855561164d565b82601f1061161f57805160ff191683800117855561164d565b8280016001018555821561164d579182015b8281111561164c578251825591602001919060010190611631565b5b50905061165a91906115bb565b5090565b5b8082111561167e57600081816116759190611682565b5060010161165f565b5090565b50805461168e90612909565b6000825580601f106116a057506116bf565b601f0160209004906000526020600020908101906116be91906115bb565b5b50565b60006116d56116d0846125d0565b6125ab565b905080838252602082019050828560208602820111156116f8576116f7612abc565b5b60005b85811015611728578161170e88826118b4565b8452602084019350602083019250506001810190506116fb565b5050509392505050565b6000611745611740846125fc565b6125ab565b9050808382526020820190508285602086028201111561176857611767612abc565b5b60005b858110156117b657813567ffffffffffffffff81111561178e5761178d612aad565b5b80860161179b8982611ad5565b8552602085019450602084019350505060018101905061176b565b5050509392505050565b60006117d36117ce84612628565b6125ab565b905080838252602082019050828560208602820111156117f6576117f5612abc565b5b60005b85811015611826578161180c8882611b87565b8452602084019350602083019250506001810190506117f9565b5050509392505050565b600061184361183e84612654565b6125ab565b90508281526020810184848401111561185f5761185e612ac6565b5b61186a8482856128c7565b509392505050565b600061188561188084612685565b6125ab565b9050828152602081018484840111156118a1576118a0612ac6565b5b6118ac8482856128c7565b509392505050565b6000813590506118c381612b97565b92915050565b6000815190506118d881612b97565b92915050565b60008083601f8401126118f4576118f3612aad565b5b8235905067ffffffffffffffff81111561191157611910612aa8565b5b60208301915083602082028301111561192d5761192c612abc565b5b9250929050565b600082601f83011261194957611948612aad565b5b81356119598482602086016116c2565b91505092915050565b60008083601f84011261197857611977612aad565b5b8235905067ffffffffffffffff81111561199557611994612aa8565b5b6020830191508360208202830111156119b1576119b0612abc565b5b9250929050565b600082601f8301126119cd576119cc612aad565b5b81356119dd848260208601611732565b91505092915050565b60008083601f8401126119fc576119fb612aad565b5b8235905067ffffffffffffffff811115611a1957611a18612aa8565b5b602083019150836020820283011115611a3557611a34612abc565b5b9250929050565b60008083601f840112611a5257611a51612aad565b5b8235905067ffffffffffffffff811115611a6f57611a6e612aa8565b5b602083019150836020820283011115611a8b57611a8a612abc565b5b9250929050565b600082601f830112611aa757611aa6612aad565b5b8135611ab78482602086016117c0565b91505092915050565b600081359050611acf81612bae565b92915050565b600082601f830112611aea57611ae9612aad565b5b8135611afa848260208601611830565b91505092915050565b60008083601f840112611b1957611b18612aad565b5b8235905067ffffffffffffffff811115611b3657611b35612aa8565b5b602083019150836001820283011115611b5257611b51612abc565b5b9250929050565b600082601f830112611b6e57611b6d612aad565b5b8135611b7e848260208601611872565b91505092915050565b600081359050611b9681612bc5565b92915050565b600060208284031215611bb257611bb1612ad0565b5b6000611bc0848285016118c9565b91505092915050565b60008060008060008060008060008060a08b8d031215611bec57611beb612ad0565b5b60008b013567ffffffffffffffff811115611c0a57611c09612acb565b5b611c168d828e016118de565b9a509a505060208b013567ffffffffffffffff811115611c3957611c38612acb565b5b611c458d828e016119e6565b985098505060408b013567ffffffffffffffff811115611c6857611c67612acb565b5b611c748d828e01611962565b965096505060608b013567ffffffffffffffff811115611c9757611c96612acb565b5b611ca38d828e01611a3c565b945094505060808b013567ffffffffffffffff811115611cc657611cc5612acb565b5b611cd28d828e01611b03565b92509250509295989b9194979a5092959850565b60008060008060808587031215611d0057611cff612ad0565b5b600085013567ffffffffffffffff811115611d1e57611d1d612acb565b5b611d2a87828801611934565b945050602085013567ffffffffffffffff811115611d4b57611d4a612acb565b5b611d5787828801611a92565b935050604085013567ffffffffffffffff811115611d7857611d77612acb565b5b611d84878288016119b8565b925050606085013567ffffffffffffffff811115611da557611da4612acb565b5b611db187828801611b59565b91505092959194509250565b600060208284031215611dd357611dd2612ad0565b5b6000611de184828501611ac0565b91505092915050565b600080600060608486031215611e0357611e02612ad0565b5b6000611e1186828701611b87565b9350506020611e2286828701611ac0565b925050604084013567ffffffffffffffff811115611e4357611e42612acb565b5b611e4f86828701611b59565b9150509250925092565b6000611e658383611e9d565b60208301905092915050565b6000611e7d83836120f9565b905092915050565b6000611e918383612233565b60208301905092915050565b611ea68161281f565b82525050565b611eb58161281f565b82525050565b6000611ec78385612788565b9350611ed2826126b6565b8060005b85811015611f0b57611ee882846127e8565b611ef28882611e59565b9750611efd83612747565b925050600181019050611ed6565b5085925050509392505050565b6000611f2382612705565b611f2d8185612788565b9350611f38836126c0565b8060005b83811015611f69578151611f508882611e59565b9750611f5b83612754565b925050600181019050611f3c565b5085935050505092915050565b6000611f8182612710565b611f8b8185612788565b9350611f96836126d0565b8060005b83811015611fce57611fab82612a95565b611fb58882611e59565b9750611fc083612761565b925050600181019050611f9a565b5085935050505092915050565b6000611fe68261271b565b611ff08185612799565b935083602082028501612002856126e5565b8060005b8581101561203e578484038952815161201f8582611e71565b945061202a8361276e565b925060208a01995050600181019050612006565b50829750879550505050505092915050565b600061205b82612726565b61206581856127aa565b9350612070836126f5565b8060005b838110156120a15781516120888882611e85565b97506120938361277b565b925050600181019050612074565b5085935050505092915050565b6120b781612831565b82525050565b6120ce6120c98261283b565b6129cf565b82525050565b60006120e083856127cc565b93506120ed8385846128c7565b82840190509392505050565b600061210482612731565b61210e81856127bb565b935061211e8185602086016128d6565b61212781612ad5565b840191505092915050565b61213b81612891565b82525050565b600061214d83856127d7565b935061215a8385846128c7565b61216383612ad5565b840190509392505050565b60006121798261273c565b61218381856127d7565b93506121938185602086016128d6565b61219c81612ad5565b840191505092915050565b60006121b46017836127d7565b91506121bf82612af3565b602082019050919050565b60006121d76017836127d7565b91506121e282612b1c565b602082019050919050565b60006121fa601a836127d7565b915061220582612b45565b602082019050919050565b600061221d601a836127d7565b915061222882612b6e565b602082019050919050565b61223c81612887565b82525050565b600061224e82866120bd565b60048201915061225f8284866120d4565b9150819050949350505050565b60006122798284866120d4565b91508190509392505050565b6000606082019050818103600083015261229f8186611f18565b905081810360208301526122b38185611fdb565b905081810360408301526122c78184612050565b9050949350505050565b600060a08201905081810360008301526122eb8188611f18565b905081810360208301526122ff8187611fdb565b905081810360408301526123138186612050565b90508181036060830152612327818561216e565b90506123366080830184611eac565b9695505050505050565b6000608082019050818103600083015261235a8187611f18565b9050818103602083015261236e8186612050565b905081810360408301526123828185611fdb565b90508181036060830152612396818461216e565b905095945050505050565b60006020820190506123b660008301846120ae565b92915050565b60006060820190506123d160008301886120ae565b81810360208301526123e4818688611ebb565b905081810360408301526123f9818486612141565b90509695505050505050565b600060608201905061241a60008301866120ae565b818103602083015261242c8185611f76565b90508181036040830152612440818461216e565b9050949350505050565b600060208201905061245f6000830184612132565b92915050565b6000602082019050818103600083015261247e816121a7565b9050919050565b6000602082019050818103600083015261249e816121ca565b9050919050565b600060208201905081810360008301526124be816121ed565b9050919050565b600060208201905081810360008301526124de81612210565b9050919050565b6000808335600160200384360303811261250257612501612ab7565b5b80840192508235915067ffffffffffffffff82111561252457612523612ab2565b5b6020830192506001820236038313156125405761253f612ac1565b5b509250929050565b6000808335600160200384360303811261256557612564612ab7565b5b80840192508235915067ffffffffffffffff82111561258757612586612ab2565b5b6020830192506001820236038313156125a3576125a2612ac1565b5b509250929050565b60006125b56125c6565b90506125c18282612955565b919050565b6000604051905090565b600067ffffffffffffffff8211156125eb576125ea612a66565b5b602082029050602081019050919050565b600067ffffffffffffffff82111561261757612616612a66565b5b602082029050602081019050919050565b600067ffffffffffffffff82111561264357612642612a66565b5b602082029050602081019050919050565b600067ffffffffffffffff82111561266f5761266e612a66565b5b61267882612ad5565b9050602081019050919050565b600067ffffffffffffffff8211156126a05761269f612a66565b5b6126a982612ad5565b9050602081019050919050565b6000819050919050565b6000819050602082019050919050565b60008190508160005260206000209050919050565b6000819050602082019050919050565b6000819050602082019050919050565b600081519050919050565b600081549050919050565b600081519050919050565b600081519050919050565b600081519050919050565b600081519050919050565b6000602082019050919050565b6000602082019050919050565b6000600182019050919050565b6000602082019050919050565b6000602082019050919050565b600082825260208201905092915050565b600082825260208201905092915050565b600082825260208201905092915050565b600082825260208201905092915050565b600081905092915050565b600082825260208201905092915050565b60006127f760208401846118b4565b905092915050565b600073ffffffffffffffffffffffffffffffffffffffff82169050919050565b600061282a82612867565b9050919050565b6000819050919050565b60007fffffffff0000000000000000000000000000000000000000000000000000000082169050919050565b600073ffffffffffffffffffffffffffffffffffffffff82169050919050565b6000819050919050565b600061289c826128a3565b9050919050565b60006128ae826128b5565b9050919050565b60006128c082612867565b9050919050565b82818337600083830152505050565b60005b838110156128f45780820151818401526020810190506128d9565b83811115612903576000848401525b50505050565b6000600282049050600182168061292157607f821691505b6020821081141561293557612934612a08565b5b50919050565b600061294e61294983612ae6565b6127ff565b9050919050565b61295e82612ad5565b810181811067ffffffffffffffff8211171561297d5761297c612a66565b5b80604052505050565b600061299182612887565b91507fffffffffffffffffffffffffffffffffffffffffffffffffffffffffffffffff8214156129c4576129c36129d9565b5b600182019050919050565b6000819050919050565b7f4e487b7100000000000000000000000000000000000000000000000000000000600052601160045260246000fd5b7f4e487b7100000000000000000000000000000000000000000000000000000000600052602260045260246000fd5b7f4e487b7100000000000000000000000000000000000000000000000000000000600052603260045260246000fd5b7f4e487b7100000000000000000000000000000000000000000000000000000000600052604160045260246000fd5b6000612aa1825461293b565b9050919050565b600080fd5b600080fd5b600080fd5b600080fd5b600080fd5b600080fd5b600080fd5b600080fd5b600080fd5b6000601f19601f8301169050919050565b60008160001c9050919050565b7f4578653a2045786520646f6573206e6f74206578697374000000000000000000600082015250565b7f4578653a204f6e6c792070726f702063616e2063616c6c000000000000000000600082015250565b7f4578653a204172726179206c656e677468206d69736d61746368000000000000600082015250565b7f4578653a2045786520494420616c726561647920696e20757365000000000000600082015250565b612ba08161281f565b8114612bab57600080fd5b50565b612bb781612831565b8114612bc257600080fd5b50565b612bce81612887565b8114612bd957600080fd5b5056fea26469706673582212209aff6d440685d5a0dee2befa11d476761843e2261cf6973fa50d8e89e229e3b964736f6c63430008070033",
  "linkReferences": {},
  "deployedLinkReferences": {}
}