{
  "_format": "hh-sol-artifact-1",
  "contractName": "VoteWeight",
  "sourceName": "contracts/VoteWeight.sol",
  "abi": [
    {
      "inputs": [
        {
          "internalType": "uint256",
          "name": "_propID",
          "type": "uint256"
        },
        {
          "internalType": "address",
          "name": "_voter",
          "type": "address"
        }
      ],
      "name": "getVoteWeight",
      "outputs": [
        {
          "internalType": "uint256",
          "name": "",
          "type": "uint256"
        }
      ],
      "stateMutability": "nonpayable",
      "type": "function"
    }
  ],
  "bytecode": "0x608060405234801561001057600080fd5b506101a1806100206000396000f3fe608060405234801561001057600080fd5b506004361061002b5760003560e01c80637eba557314610030575b600080fd5b61004a60048036038101906100459190610092565b610060565b60405161005791906100e1565b60405180910390f35b600092915050565b6000813590506100778161013d565b92915050565b60008135905061008c81610154565b92915050565b600080604083850312156100a9576100a8610138565b5b60006100b78582860161007d565b92505060206100c885828601610068565b9150509250929050565b6100db8161012e565b82525050565b60006020820190506100f660008301846100d2565b92915050565b60006101078261010e565b9050919050565b600073ffffffffffffffffffffffffffffffffffffffff82169050919050565b6000819050919050565b600080fd5b610146816100fc565b811461015157600080fd5b50565b61015d8161012e565b811461016857600080fd5b5056fea2646970667358221220caefd4e86e5963adfb591001ea1d45a6d1d52f1275b3666dd543bef349242f7564736f6c63430008070033",
  "linkReferences": {},
  "deployedLinkReferences": {}
}