{
  "_format": "hh-sol-artifact-1",
  "contractName": "VoteWeight",
  "sourceName": "contracts/VoteWeight.sol",
  "abi": [
    {
      "inputs": [
        {
          "internalType": "address",
          "name": "_core",
          "type": "address"
        },
        {
          "internalType": "address",
          "name": "_timer",
          "type": "address"
        }
      ],
      "stateMutability": "nonpayable",
      "type": "constructor"
    },
    {
      "inputs": [],
      "name": "IDENTIFIER",
      "outputs": [
        {
          "internalType": "bytes32",
          "name": "",
          "type": "bytes32"
        }
      ],
      "stateMutability": "view",
      "type": "function"
    },
    {
      "inputs": [],
      "name": "core_",
      "outputs": [
        {
          "internalType": "contract ICore",
          "name": "",
          "type": "address"
        }
      ],
      "stateMutability": "view",
      "type": "function"
    },
    {
      "inputs": [],
      "name": "getCurrentTime",
      "outputs": [
        {
          "internalType": "uint256",
          "name": "",
          "type": "uint256"
        }
      ],
      "stateMutability": "view",
      "type": "function"
    },
    {
      "inputs": [
        {
          "internalType": "uint256",
          "name": "_propID",
          "type": "uint256"
        }
      ],
      "name": "getTotalWeight",
      "outputs": [
        {
          "internalType": "uint256",
          "name": "",
          "type": "uint256"
        }
      ],
      "stateMutability": "view",
      "type": "function"
    },
    {
      "inputs": [
        {
          "internalType": "uint256",
          "name": "_propID",
          "type": "uint256"
        },
        {
          "internalType": "address",
          "name": "_voter",
          "type": "address"
        }
      ],
      "name": "getVoteWeight",
      "outputs": [
        {
          "internalType": "uint256",
          "name": "",
          "type": "uint256"
        }
      ],
      "stateMutability": "view",
      "type": "function"
    },
    {
      "inputs": [
        {
          "internalType": "address",
          "name": "_govToken",
          "type": "address"
        },
        {
          "internalType": "address",
          "name": "_repToken",
          "type": "address"
        }
      ],
      "name": "initialise",
      "outputs": [],
      "stateMutability": "nonpayable",
      "type": "function"
    },
    {
      "inputs": [
        {
          "internalType": "uint256",
          "name": "time",
          "type": "uint256"
        }
      ],
      "name": "setCurrentTime",
      "outputs": [],
      "stateMutability": "nonpayable",
      "type": "function"
    },
    {
      "inputs": [],
      "name": "timerAddress",
      "outputs": [
        {
          "internalType": "address",
          "name": "",
          "type": "address"
        }
      ],
      "stateMutability": "view",
      "type": "function"
    }
  ],
  "bytecode": "0x60c06040523480156200001157600080fd5b5060405162000fa738038062000fa783398181016040528101906200003791906200013f565b7fcdd7ba10b36b7349d5c9710e5e447ec8acaa8e3cbba8d20f4393eccf61f185b182828033600060026101000a81548173ffffffffffffffffffffffffffffffffffffffff021916908373ffffffffffffffffffffffffffffffffffffffff16021790555080600160006101000a81548173ffffffffffffffffffffffffffffffffffffffff021916908373ffffffffffffffffffffffffffffffffffffffff1602179055505082608081815250508173ffffffffffffffffffffffffffffffffffffffff1660a08173ffffffffffffffffffffffffffffffffffffffff1660601b815250505050505050620001d9565b6000815190506200013981620001bf565b92915050565b60008060408385031215620001595762000158620001ba565b5b6000620001698582860162000128565b92505060206200017c8582860162000128565b9150509250929050565b600062000193826200019a565b9050919050565b600073ffffffffffffffffffffffffffffffffffffffff82169050919050565b600080fd5b620001ca8162000186565b8114620001d657600080fd5b50565b60805160a05160601c610da56200020260003960006106c8015260006105150152610da56000f3fe608060405234801561001057600080fd5b50600436106100885760003560e01c80633c9747f31161005b5780633c9747f3146101155780637eba557314610133578063eaddd0fd14610163578063ef88bf131461018157610088565b80631c39c38d1461008d57806322f8e566146100ab5780632434c5bd146100c757806329cb924d146100f7575b600080fd5b61009561019d565b6040516100a29190610a72565b60405180910390f35b6100c560048036038101906100c09190610956565b6101c3565b005b6100e160048036038101906100dc9190610956565b6102af565b6040516100ee9190610b03565b60405180910390f35b6100ff61040e565b60405161010c9190610b03565b60405180910390f35b61011d610513565b60405161012a9190610a8d565b60405180910390f35b61014d600480360381019061014891906109b0565b610537565b60405161015a9190610b03565b60405180910390f35b61016b6106c6565b6040516101789190610aa8565b60405180910390f35b61019b60048036038101906101969190610916565b6106ea565b005b600160009054906101000a900473ffffffffffffffffffffffffffffffffffffffff1681565b600073ffffffffffffffffffffffffffffffffffffffff16600160009054906101000a900473ffffffffffffffffffffffffffffffffffffffff1673ffffffffffffffffffffffffffffffffffffffff16141561021f57600080fd5b600160009054906101000a900473ffffffffffffffffffffffffffffffffffffffff1673ffffffffffffffffffffffffffffffffffffffff166322f8e566826040518263ffffffff1660e01b815260040161027a9190610b03565b600060405180830381600087803b15801561029457600080fd5b505af11580156102a8573d6000803e3d6000fd5b5050505050565b60006002600360009054906101000a900473ffffffffffffffffffffffffffffffffffffffff1673ffffffffffffffffffffffffffffffffffffffff166318160ddd6040518163ffffffff1660e01b815260040160206040518083038186803b15801561031b57600080fd5b505afa15801561032f573d6000803e3d6000fd5b505050506040513d601f19601f820116820180604052508101906103539190610983565b61035d9190610b85565b600260009054906101000a900473ffffffffffffffffffffffffffffffffffffffff1673ffffffffffffffffffffffffffffffffffffffff166318160ddd6040518163ffffffff1660e01b815260040160206040518083038186803b1580156103c557600080fd5b505afa1580156103d9573d6000803e3d6000fd5b505050506040513d601f19601f820116820180604052508101906103fd9190610983565b6104079190610b2f565b9050919050565b60008073ffffffffffffffffffffffffffffffffffffffff16600160009054906101000a900473ffffffffffffffffffffffffffffffffffffffff1673ffffffffffffffffffffffffffffffffffffffff161461050c57600160009054906101000a900473ffffffffffffffffffffffffffffffffffffffff1673ffffffffffffffffffffffffffffffffffffffff166329cb924d6040518163ffffffff1660e01b815260040160206040518083038186803b1580156104cd57600080fd5b505afa1580156104e1573d6000803e3d6000fd5b505050506040513d601f19601f820116820180604052508101906105059190610983565b9050610510565b4290505b90565b7f000000000000000000000000000000000000000000000000000000000000000081565b600080600360009054906101000a900473ffffffffffffffffffffffffffffffffffffffff1673ffffffffffffffffffffffffffffffffffffffff166370a08231846040518263ffffffff1660e01b81526004016105959190610a72565b60206040518083038186803b1580156105ad57600080fd5b505afa1580156105c1573d6000803e3d6000fd5b505050506040513d601f19601f820116820180604052508101906105e59190610983565b600260009054906101000a900473ffffffffffffffffffffffffffffffffffffffff1673ffffffffffffffffffffffffffffffffffffffff166370a08231856040518263ffffffff1660e01b81526004016106409190610a72565b60206040518083038186803b15801561065857600080fd5b505afa15801561066c573d6000803e3d6000fd5b505050506040513d601f19601f820116820180604052508101906106909190610983565b61069a9190610bb6565b905060008114156106af5760009150506106c0565b6002816106bc9190610b85565b9150505b92915050565b7f000000000000000000000000000000000000000000000000000000000000000081565b600060019054906101000a900460ff1680610710575060008054906101000a900460ff16155b61074f576040517f08c379a000000000000000000000000000000000000000000000000000000000815260040161074690610ae3565b60405180910390fd5b600060029054906101000a900473ffffffffffffffffffffffffffffffffffffffff1673ffffffffffffffffffffffffffffffffffffffff163373ffffffffffffffffffffffffffffffffffffffff16146107df576040517f08c379a00000000000000000000000000000000000000000000000000000000081526004016107d690610ac3565b60405180910390fd5b60008060019054906101000a900460ff16159050801561082f576001600060016101000a81548160ff02191690831515021790555060016000806101000a81548160ff0219169083151502179055505b82600260006101000a81548173ffffffffffffffffffffffffffffffffffffffff021916908373ffffffffffffffffffffffffffffffffffffffff16021790555081600360006101000a81548173ffffffffffffffffffffffffffffffffffffffff021916908373ffffffffffffffffffffffffffffffffffffffff16021790555080156108d25760008060016101000a81548160ff0219169083151502179055505b505050565b6000813590506108e681610d41565b92915050565b6000813590506108fb81610d58565b92915050565b60008151905061091081610d58565b92915050565b6000806040838503121561092d5761092c610cea565b5b600061093b858286016108d7565b925050602061094c858286016108d7565b9150509250929050565b60006020828403121561096c5761096b610cea565b5b600061097a848285016108ec565b91505092915050565b60006020828403121561099957610998610cea565b5b60006109a784828501610901565b91505092915050565b600080604083850312156109c7576109c6610cea565b5b60006109d5858286016108ec565b92505060206109e6858286016108d7565b9150509250929050565b6109f981610c10565b82525050565b610a0881610c22565b82525050565b610a1781610c56565b82525050565b6000610a2a601c83610b1e565b9150610a3582610cef565b602082019050919050565b6000610a4d601d83610b1e565b9150610a5882610d18565b602082019050919050565b610a6c81610c4c565b82525050565b6000602082019050610a8760008301846109f0565b92915050565b6000602082019050610aa260008301846109ff565b92915050565b6000602082019050610abd6000830184610a0e565b92915050565b60006020820190508181036000830152610adc81610a1d565b9050919050565b60006020820190508181036000830152610afc81610a40565b9050919050565b6000602082019050610b186000830184610a63565b92915050565b600082825260208201905092915050565b6000610b3a82610c4c565b9150610b4583610c4c565b9250827fffffffffffffffffffffffffffffffffffffffffffffffffffffffffffffffff03821115610b7a57610b79610c8c565b5b828201905092915050565b6000610b9082610c4c565b9150610b9b83610c4c565b925082610bab57610baa610cbb565b5b828204905092915050565b6000610bc182610c4c565b9150610bcc83610c4c565b9250817fffffffffffffffffffffffffffffffffffffffffffffffffffffffffffffffff0483118215151615610c0557610c04610c8c565b5b828202905092915050565b6000610c1b82610c2c565b9050919050565b6000819050919050565b600073ffffffffffffffffffffffffffffffffffffffff82169050919050565b6000819050919050565b6000610c6182610c68565b9050919050565b6000610c7382610c7a565b9050919050565b6000610c8582610c2c565b9050919050565b7f4e487b7100000000000000000000000000000000000000000000000000000000600052601160045260246000fd5b7f4e487b7100000000000000000000000000000000000000000000000000000000600052601260045260246000fd5b600080fd5b7f496e69743a204f6e6c79206465706c6f7965722063616e20696e697400000000600082015250565b7f496e69743a20436f6e747261637420697320696e697469616c697a6564000000600082015250565b610d4a81610c10565b8114610d5557600080fd5b50565b610d6181610c4c565b8114610d6c57600080fd5b5056fea2646970667358221220c6edb1ef1eb38b7ac0e295f2bf43193ccc35fa70fa23aba2a911ef97aee61b9364736f6c63430008070033",
  "linkReferences": {},
  "deployedLinkReferences": {}
}