{
  "_format": "hh-sol-artifact-1",
  "contractName": "VoteWeight",
  "sourceName": "contracts/VoteWeight.sol",
  "abi": [
    {
      "inputs": [
        {
          "internalType": "address",
          "name": "_core",
          "type": "address"
        }
      ],
      "stateMutability": "nonpayable",
      "type": "constructor"
    },
    {
      "inputs": [],
      "name": "IDENTIFIER",
      "outputs": [
        {
          "internalType": "bytes32",
          "name": "",
          "type": "bytes32"
        }
      ],
      "stateMutability": "view",
      "type": "function"
    },
    {
      "inputs": [],
      "name": "core_",
      "outputs": [
        {
          "internalType": "contract ICore",
          "name": "",
          "type": "address"
        }
      ],
      "stateMutability": "view",
      "type": "function"
    },
    {
      "inputs": [
        {
          "internalType": "uint256",
          "name": "_propID",
          "type": "uint256"
        },
        {
          "internalType": "address",
          "name": "_voter",
          "type": "address"
        }
      ],
      "name": "getVoteWeight",
      "outputs": [
        {
          "internalType": "uint256",
          "name": "",
          "type": "uint256"
        }
      ],
      "stateMutability": "nonpayable",
      "type": "function"
    }
  ],
  "bytecode": "0x60c060405234801561001057600080fd5b50604051610424380380610424833981810160405281019061003291906100b0565b7fcdd7ba10b36b7349d5c9710e5e447ec8acaa8e3cbba8d20f4393eccf61f185b18181608081815250508073ffffffffffffffffffffffffffffffffffffffff1660a08173ffffffffffffffffffffffffffffffffffffffff1660601b8152505050505061012b565b6000815190506100aa81610114565b92915050565b6000602082840312156100c6576100c561010f565b5b60006100d48482850161009b565b91505092915050565b60006100e8826100ef565b9050919050565b600073ffffffffffffffffffffffffffffffffffffffff82169050919050565b600080fd5b61011d816100dd565b811461012857600080fd5b50565b60805160a05160601c6102d3610151600039600060e40152600060b401526102d36000f3fe608060405234801561001057600080fd5b50600436106100415760003560e01c80633c9747f3146100465780637eba557314610064578063eaddd0fd14610094575b600080fd5b61004e6100b2565b60405161005b919061019d565b60405180910390f35b61007e60048036038101906100799190610130565b6100d6565b60405161008b91906101d3565b60405180910390f35b61009c6100e2565b6040516100a991906101b8565b60405180910390f35b7f000000000000000000000000000000000000000000000000000000000000000081565b60006001905092915050565b7f000000000000000000000000000000000000000000000000000000000000000081565b6000813590506101158161026f565b92915050565b60008135905061012a81610286565b92915050565b600080604083850312156101475761014661026a565b5b60006101558582860161011b565b925050602061016685828601610106565b9150509250929050565b61017981610200565b82525050565b61018881610234565b82525050565b6101978161022a565b82525050565b60006020820190506101b26000830184610170565b92915050565b60006020820190506101cd600083018461017f565b92915050565b60006020820190506101e8600083018461018e565b92915050565b60006101f98261020a565b9050919050565b6000819050919050565b600073ffffffffffffffffffffffffffffffffffffffff82169050919050565b6000819050919050565b600061023f82610246565b9050919050565b600061025182610258565b9050919050565b60006102638261020a565b9050919050565b600080fd5b610278816101ee565b811461028357600080fd5b50565b61028f8161022a565b811461029a57600080fd5b5056fea2646970667358221220f5ed3ede6768999f709f01e703c474c82076adc13d905f50b4d748e33f97bdb564736f6c63430008070033",
  "linkReferences": {},
  "deployedLinkReferences": {}
}