{
  "_format": "hh-sol-artifact-1",
  "contractName": "VoteWeight",
  "sourceName": "contracts/VoteWeight.sol",
  "abi": [
    {
      "inputs": [
        {
          "internalType": "address",
          "name": "_core",
          "type": "address"
        },
        {
          "internalType": "address",
          "name": "_timer",
          "type": "address"
        }
      ],
      "stateMutability": "nonpayable",
      "type": "constructor"
    },
    {
      "inputs": [],
      "name": "IDENTIFIER",
      "outputs": [
        {
          "internalType": "bytes32",
          "name": "",
          "type": "bytes32"
        }
      ],
      "stateMutability": "view",
      "type": "function"
    },
    {
      "inputs": [
        {
          "internalType": "bytes32",
          "name": "c__0x00e2a1ba",
          "type": "bytes32"
        }
      ],
      "name": "c_0x00e2a1ba",
      "outputs": [],
      "stateMutability": "pure",
      "type": "function"
    },
    {
      "inputs": [
        {
          "internalType": "bytes32",
          "name": "c__0x0da7e8db",
          "type": "bytes32"
        }
      ],
      "name": "c_0x0da7e8db",
      "outputs": [],
      "stateMutability": "pure",
      "type": "function"
    },
    {
      "inputs": [
        {
          "internalType": "bytes32",
          "name": "c__0x17e3f95f",
          "type": "bytes32"
        }
      ],
      "name": "c_0x17e3f95f",
      "outputs": [],
      "stateMutability": "pure",
      "type": "function"
    },
    {
      "inputs": [
        {
          "internalType": "bytes32",
          "name": "c__0x35ade16d",
          "type": "bytes32"
        }
      ],
      "name": "c_0x35ade16d",
      "outputs": [],
      "stateMutability": "pure",
      "type": "function"
    },
    {
      "inputs": [],
      "name": "core_",
      "outputs": [
        {
          "internalType": "contract ICore",
          "name": "",
          "type": "address"
        }
      ],
      "stateMutability": "view",
      "type": "function"
    },
    {
      "inputs": [],
      "name": "getCurrentTime",
      "outputs": [
        {
          "internalType": "uint256",
          "name": "",
          "type": "uint256"
        }
      ],
      "stateMutability": "view",
      "type": "function"
    },
    {
      "inputs": [
        {
          "internalType": "uint256",
          "name": "_propID",
          "type": "uint256"
        }
      ],
      "name": "getTotalWeight",
      "outputs": [
        {
          "internalType": "uint256",
          "name": "",
          "type": "uint256"
        }
      ],
      "stateMutability": "view",
      "type": "function"
    },
    {
      "inputs": [
        {
          "internalType": "uint256",
          "name": "_propID",
          "type": "uint256"
        },
        {
          "internalType": "address",
          "name": "_voter",
          "type": "address"
        }
      ],
      "name": "getVoteWeight",
      "outputs": [
        {
          "internalType": "uint256",
          "name": "",
          "type": "uint256"
        }
      ],
      "stateMutability": "view",
      "type": "function"
    },
    {
      "inputs": [
        {
          "internalType": "address",
          "name": "_govToken",
          "type": "address"
        },
        {
          "internalType": "address",
          "name": "_repToken",
          "type": "address"
        }
      ],
      "name": "initialise",
      "outputs": [],
      "stateMutability": "nonpayable",
      "type": "function"
    },
    {
      "inputs": [
        {
          "internalType": "uint256",
          "name": "time",
          "type": "uint256"
        }
      ],
      "name": "setCurrentTime",
      "outputs": [],
      "stateMutability": "nonpayable",
      "type": "function"
    },
    {
      "inputs": [],
      "name": "timerAddress",
      "outputs": [
        {
          "internalType": "address",
          "name": "",
          "type": "address"
        }
      ],
      "stateMutability": "view",
      "type": "function"
    }
  ],
  "bytecode": "0x60c06040523480156200001157600080fd5b5060405162001d9038038062001d908339818101604052810190620000379190620003bb565b7fcdd7ba10b36b7349d5c9710e5e447ec8acaa8e3cbba8d20f4393eccf61f185b18282806200008f7fcc8333d776dbed5bc1d5a69fea8a56e88f87955b6a086409d43cdf5b99a00f9160001b6200039860201b60201c565b620000c37f96e003626c0adb9922999e671f576019384ec3e342797245b19e293fc7ae98b860001b6200039860201b60201c565b620000f77f0124756d9b2742e29a6e998127a5d65a6fce0de7b15fe3cffaa57159d293eff460001b6200039860201b60201c565b33600060026101000a81548173ffffffffffffffffffffffffffffffffffffffff021916908373ffffffffffffffffffffffffffffffffffffffff1602179055506200016c7fb4dd8b063f43faf32d5335822e2f70ca2407748b186159c1ed4fe5975bf48fa460001b6200039b60201b60201c565b620001a07fdf0a09891d7ec0658602054cf2c2e2a41244c011d975b6b3df84f87f4e01f1fa60001b6200039b60201b60201c565b620001d47f74aa4cf06a04b763c651dbe9c8d04358ebbbd2cc4e1e17afd7713fac4af5ab8260001b6200039b60201b60201c565b80600160006101000a81548173ffffffffffffffffffffffffffffffffffffffff021916908373ffffffffffffffffffffffffffffffffffffffff160217905550506200024a7f91b90f81106ec7301a2ef3f3646fc2ac7a03224c1592a81c08bf2be57bf85da360001b6200039e60201b60201c565b6200027e7faa1a5f5f7c07ad1d1a00bf086c9ae885f69ed49cd3abc04289c41680f08eda2360001b6200039e60201b60201c565b620002b27f96d06dce006a4c22db8a8fd81f6fd8d01ca83c6b578b06c55ae55449f894b56160001b6200039e60201b60201c565b8260808181525050620002ee7f5df41bcd415e6f031fea4b950841c2b7a0c71533bb77597e55e47143977ffe5060001b6200039e60201b60201c565b620003227f86b081f2885abf844d8a6e92c42bb8b42f1f332206a0f04e515da586d0b809f560001b6200039e60201b60201c565b8173ffffffffffffffffffffffffffffffffffffffff1660a08173ffffffffffffffffffffffffffffffffffffffff1660601b81525050505050620003907f148f38604237a4006cb0ce0b0e757a59905d4858a81f9e22928ae50921b64ed260001b620003a160201b60201c565b505062000455565b50565b50565b50565b50565b600081519050620003b5816200043b565b92915050565b60008060408385031215620003d557620003d462000436565b5b6000620003e585828601620003a4565b9250506020620003f885828601620003a4565b9150509250929050565b60006200040f8262000416565b9050919050565b600073ffffffffffffffffffffffffffffffffffffffff82169050919050565b600080fd5b620004468162000402565b81146200045257600080fd5b50565b60805160a05160601c6119126200047e6000396000610d38015260006109a601526119126000f3fe608060405234801561001057600080fd5b50600436106100b45760003560e01c80633c9747f3116100715780633c9747f31461017957806361e4a6c9146101975780637eba5573146101b35780639ef7786d146101e3578063eaddd0fd146101ff578063ef88bf131461021d576100b4565b80631c39c38d146100b957806321eb3b7f146100d757806322f8e566146100f35780632434c5bd1461010f57806329cb924d1461013f578063348291551461015d575b600080fd5b6100c1610239565b6040516100ce9190611682565b60405180910390f35b6100f160048036038101906100ec9190611539565b61025f565b005b61010d60048036038101906101089190611566565b610262565b005b61012960048036038101906101249190611566565b6104da565b6040516101369190611713565b60405180910390f35b61014761070f565b6040516101549190611713565b60405180910390f35b61017760048036038101906101729190611539565b6109a1565b005b6101816109a4565b60405161018e919061169d565b60405180910390f35b6101b160048036038101906101ac9190611539565b6109c8565b005b6101cd60048036038101906101c891906115c0565b6109cb565b6040516101da9190611713565b60405180910390f35b6101fd60048036038101906101f89190611539565b610d33565b005b610207610d36565b60405161021491906116b8565b60405180910390f35b610237600480360381019061023291906114f9565b610d5a565b005b600160009054906101000a900473ffffffffffffffffffffffffffffffffffffffff1681565b50565b61028e7f6f9ae8edea4a5ca594982c8c889dce6d3960ecead6d85640cfaeefab4965137c60001b6109c8565b6102ba7f6eebb330cb0c74c8c0a3ebded6ac701f48b060de13591c74ab4785681b589f0c60001b6109c8565b6102e67f36c1556249a63a81b58af6fdcad0065ddcb58894bd16e2b1bf48df8c292c738560001b6109c8565b6103127f27d0da14a88f9fdfd196625fc7df7cbe0aa29fb76c0f7bf605cbb6d8aea6f1ff60001b6109c8565b600073ffffffffffffffffffffffffffffffffffffffff16600160009054906101000a900473ffffffffffffffffffffffffffffffffffffffff1673ffffffffffffffffffffffffffffffffffffffff16141561036e57600080fd5b61039a7f627e7f681529433198cf60e7806c37173ef6d256c8dad2832dc14d984d63c81560001b6109c8565b6103c67faf0631e8e987467954b158416256f14065683e999a12c243f4a4bc80c6573a8160001b6109c8565b6103f27fa032f460f3852175b8933100cc9d781f5b5cff200a63b0672b41cef6cafef80c60001b6109c8565b61041e7f900be1020eac74e7a6523a153b11dd4ba203e5d968d1d2d104979e3ff33e9cef60001b6109c8565b61044a7f6d7d330e8510a19129b2b889c08c7f30e23b59da3f683ee0df8e8e5100917e1760001b6109c8565b600160009054906101000a900473ffffffffffffffffffffffffffffffffffffffff1673ffffffffffffffffffffffffffffffffffffffff166322f8e566826040518263ffffffff1660e01b81526004016104a59190611713565b600060405180830381600087803b1580156104bf57600080fd5b505af11580156104d3573d6000803e3d6000fd5b5050505050565b60006105087f10ffb172085a49c09eb24cfd05d7386fa3677940d101fe219b88dae8c9d31d9c60001b61025f565b6105347fea57acfbd7fd4aa571cc2bf36855e2e6e7d93e6c2158c3388db338014051027c60001b61025f565b6105607f1518c633fc2779ee2a893e60ffbb6470de2a1ce04326a84d510894928ec1b2e860001b61025f565b6000600360009054906101000a900473ffffffffffffffffffffffffffffffffffffffff1673ffffffffffffffffffffffffffffffffffffffff166318160ddd6040518163ffffffff1660e01b815260040160206040518083038186803b1580156105ca57600080fd5b505afa1580156105de573d6000803e3d6000fd5b505050506040513d601f19601f820116820180604052508101906106029190611593565b600260009054906101000a900473ffffffffffffffffffffffffffffffffffffffff1673ffffffffffffffffffffffffffffffffffffffff166318160ddd6040518163ffffffff1660e01b815260040160206040518083038186803b15801561066a57600080fd5b505afa15801561067e573d6000803e3d6000fd5b505050506040513d601f19601f820116820180604052508101906106a29190611593565b6106ac919061173f565b90506106da7f98e79549da28ca6ab1f1d71c4941f8939e71955c740d19a569bbbea488e8b47060001b61025f565b6107067facd6974876eb7cd5a08beaa43cbc218c2385db7a4cb2a7213ef6950c7c9b467460001b61025f565b80915050919050565b600061073d7fd47833f51fc5ec0f8a24234f14627d428c69063796f9630201d1dc1058ae8e5760001b6109c8565b6107697f0b69545d716b02169fb0a154958cf479d6c74febdce881af2cad9c6bed4b0c3b60001b6109c8565b6107957f570eff7e9b79704810f3de14032f6898e0c4ee6c9024ca8a4efe0aea7091fa5f60001b6109c8565b600073ffffffffffffffffffffffffffffffffffffffff16600160009054906101000a900473ffffffffffffffffffffffffffffffffffffffff1673ffffffffffffffffffffffffffffffffffffffff1614610916576108177f647590469700e029974926aa472ac468fe95744326892633413c8c201ed298c060001b6109c8565b6108437f107a4f7720644a8f8f993f44f4c11c80b4c882005d7ffff284e62ffc5cd9533b60001b6109c8565b61086f7f449a6ac96c66c2f10c6f7037b7566faf778bcdfef39e56e364596f87914ef8a260001b6109c8565b600160009054906101000a900473ffffffffffffffffffffffffffffffffffffffff1673ffffffffffffffffffffffffffffffffffffffff166329cb924d6040518163ffffffff1660e01b815260040160206040518083038186803b1580156108d757600080fd5b505afa1580156108eb573d6000803e3d6000fd5b505050506040513d601f19601f8201168201806040525081019061090f9190611593565b905061099e565b6109427ff81c329ab48f42d2998e2454dc7c351806520aa7f6d72b2e468d72814fdfe64a60001b6109c8565b61096e7fc5895091758a048fba2cd20e5b0c510227acf44c1b622ab8b72e135767e7aa6660001b6109c8565b61099a7fb60b2b01d584079a590a86b90ecde07699cb728ea718e85d0f63afb9f1bbc67360001b6109c8565b4290505b90565b50565b7f000000000000000000000000000000000000000000000000000000000000000081565b50565b60006109f97fa94f78c59110aceacb9371afe447d65847d0a4c2e1b06ecf3d5255c31d1da16460001b61025f565b610a257f42987c2c680495903a7e36d762864c15e4cce21d2c10a045e9b65f740f480e5b60001b61025f565b610a517fdd5f4d064c06ba74dccddc9df4f739a2be50bb3f6316b5d61cef9de940d2894e60001b61025f565b6000600360009054906101000a900473ffffffffffffffffffffffffffffffffffffffff1673ffffffffffffffffffffffffffffffffffffffff166370a08231846040518263ffffffff1660e01b8152600401610aae9190611682565b60206040518083038186803b158015610ac657600080fd5b505afa158015610ada573d6000803e3d6000fd5b505050506040513d601f19601f82011682018060405250810190610afe9190611593565b600260009054906101000a900473ffffffffffffffffffffffffffffffffffffffff1673ffffffffffffffffffffffffffffffffffffffff166370a08231856040518263ffffffff1660e01b8152600401610b599190611682565b60206040518083038186803b158015610b7157600080fd5b505afa158015610b85573d6000803e3d6000fd5b505050506040513d601f19601f82011682018060405250810190610ba99190611593565b610bb3919061173f565b9050610be17fa30957c9d8fd5d19a849ab4ed812abdb970951ec6d31e9379e1cdfd8cf4bcb1560001b61025f565b610c0d7f9103168afe49cbc1f72b5391f9febc09d54895ee7932ff741cee17557915546060001b61025f565b6000811415610ca457610c427f31c722a5a94e4f6d7fba04c378f93f83157c7499bf6a4058c8564a07e2f8743e60001b61025f565b610c6e7f7749d4e75011a5390263319ad9082bc76e106afd3e8f6b820856fee2036027c860001b61025f565b610c9a7fd94d9ffae1c07b559e83a6c10a467e0b59d0fa6029d751ea7cfe9bdd832b79b060001b61025f565b6000915050610d2d565b610cd07f779f27a46ec1cc71a17f766d44d6440c96763200e81f4992e932c2012ccd083e60001b61025f565b610cfc7ffa07269bc76d87ae3e934933daab21f04ac380cd49141b80afab10c9cd24370760001b61025f565b610d287fa0c0e392cc11e604b020121c720ca140d0252ebbdfd2b05b75f9d68874727fb960001b61025f565b809150505b92915050565b50565b7f000000000000000000000000000000000000000000000000000000000000000081565b610d867f0e0cd9f43fa96f35ac9dcd66bf9394a66239a66b0422c7eb4acaa3ec7af2bca760001b610d33565b610db27fa572db1175cf84948584c963309788099518a5f9406d64b26be0f01abaa7615160001b610d33565b610dde7f524b599d7eb0f1dfc88ccfeb5d98c7465952b834def7a670e3e1ee11de0a1e3760001b610d33565b610e0a7f98965d56deb2a09035f26190cf6413a56daf79840e05a39e6a014890174d277a60001b610d33565b600060019054906101000a900460ff1680610e30575060008054906101000a900460ff16155b610e6f576040517f08c379a0000000000000000000000000000000000000000000000000000000008152600401610e66906116f3565b60405180910390fd5b610e9b7fe6d54cb133197a88f121f1222a74c88e9bdb72f2534b716bac552690179fa19b60001b610d33565b610ec77f2978934513c1680f7d8efe0f61b00f6e798552e162cf38e89079d9080f3639a060001b610d33565b610ef37fb746c40fd73cb0d4ce3270dc8cbf3523878f0b08dc0fe2339e1f2f72a167819a60001b610d33565b610f1f7f5666c1bdc7b7d35115b317253332f7f90453602bb5068386a08ea63770d8032460001b610d33565b600060029054906101000a900473ffffffffffffffffffffffffffffffffffffffff1673ffffffffffffffffffffffffffffffffffffffff163373ffffffffffffffffffffffffffffffffffffffff1614610faf576040517f08c379a0000000000000000000000000000000000000000000000000000000008152600401610fa6906116d3565b60405180910390fd5b610fdb7fae1bd2558d584dd4c375d9569fcf63a6ddd2e986550a1722bfbf5c885b8d343c60001b610d33565b6110077f8827da128743a7905421670199b1e7c0011f34030aea597bb0ed57dd76a8fcbe60001b610d33565b6110337fd138844c11e5fb387e8063532b614d5d66b6053c6cb9a3b7de9a071516cf13c760001b610d33565b60008060019054906101000a900460ff161590506110737f0da07da6706658155f26bbafcbfa954a7537c786b613a4cc9be94703ef8137aa60001b610d33565b61109f7f234d6ab578d89d89ef0e5cfb230d4b62412d2d6aecc02683e842f258b0952f2960001b610d33565b80156111bb576110d17fc3fe9f21b0f8c74b901d4bb6665dcddf61902ec0d3feecd24d14288baeb1eeb660001b610d33565b6110fd7f3e978646ed66cc964c98e5a5878ca6f5c9a2a19bbe74dcc13b01cff0472ea07c60001b610d33565b6111297f29ca5100e48f38a7411fb78acc536c44b5db000aa462c2b1360915c045318ca760001b610d33565b6001600060016101000a81548160ff0219169083151502179055506111707fa5f2730f9babc14d334aa306df7fb5c6b1ed3bdfb66f6fc4fafe38d5652f469660001b610d33565b61119c7f181d8291e4a099dfa8d933931fb5a4fab22537d847165af8100ce2c9358055b560001b610d33565b60016000806101000a81548160ff0219169083151502179055506111e8565b6111e77f8a59cf0f81ee5490e15c424d8aede261eaf6e1217105a123d14893d69aabf35d60001b610d33565b5b6112147fc5092240012f400b79e17c3d1fb6321ac43d96fa801b72141d16886e1c9be39160001b610d33565b6112407f5ca977c8f0bcc93469900da5e15162519953f0fb432501f9fcd2be533f85453360001b61025f565b61126c7f10e154bc6499270361debce5c723ee268968e7ceffbd547de50cb7d74a54af0760001b61025f565b6112987f31c0342d0bfeda5c10230d8fc3a39e9c22d2bb4c9002fc72950ed0c91be8315360001b61025f565b82600260006101000a81548173ffffffffffffffffffffffffffffffffffffffff021916908373ffffffffffffffffffffffffffffffffffffffff1602179055506113057f809000254e8699efd9fcc76e155419dae5f2e135ffee6d23080cbf5cb404cf5d60001b61025f565b6113317f2f83e55e140efd5db603a008e085601c76e58510bd7783098de12f92d58b492560001b61025f565b81600360006101000a81548173ffffffffffffffffffffffffffffffffffffffff021916908373ffffffffffffffffffffffffffffffffffffffff16021790555061139e7ffa61d325b20e902fc90b26bec17d33d3c3bf7800b6a72b6365dfed29c50751f260001b610d33565b6113ca7f6f241d49ed4d7add7ad690d1f539edcf9eec47c7016587da77342ab89f45939260001b610d33565b8015611473576113fc7fbc5b20eaf8827dd1b8876361d943d3b4be9fa479d6620c48df64e11b5241c1d860001b610d33565b6114287fcd9c9ee58d0224a02f67a02ea3cac30b05ad3a9f1a6fa924e92f56395a167ba760001b610d33565b6114547fcd058c89f1cef595e4be1f9ca2f3cf5043a8e40a2a840a0a3c6eda59e241aa7160001b610d33565b60008060016101000a81548160ff0219169083151502179055506114a0565b61149f7f8fd60aebfbf035724a35db2472efd6c6271cb9083fdfb84a1ce7898d354ba3f960001b610d33565b5b505050565b6000813590506114b481611897565b92915050565b6000813590506114c9816118ae565b92915050565b6000813590506114de816118c5565b92915050565b6000815190506114f3816118c5565b92915050565b600080604083850312156115105761150f611840565b5b600061151e858286016114a5565b925050602061152f858286016114a5565b9150509250929050565b60006020828403121561154f5761154e611840565b5b600061155d848285016114ba565b91505092915050565b60006020828403121561157c5761157b611840565b5b600061158a848285016114cf565b91505092915050565b6000602082840312156115a9576115a8611840565b5b60006115b7848285016114e4565b91505092915050565b600080604083850312156115d7576115d6611840565b5b60006115e5858286016114cf565b92505060206115f6858286016114a5565b9150509250929050565b61160981611795565b82525050565b611618816117a7565b82525050565b611627816117db565b82525050565b600061163a601c8361172e565b915061164582611845565b602082019050919050565b600061165d601d8361172e565b91506116688261186e565b602082019050919050565b61167c816117d1565b82525050565b60006020820190506116976000830184611600565b92915050565b60006020820190506116b2600083018461160f565b92915050565b60006020820190506116cd600083018461161e565b92915050565b600060208201905081810360008301526116ec8161162d565b9050919050565b6000602082019050818103600083015261170c81611650565b9050919050565b60006020820190506117286000830184611673565b92915050565b600082825260208201905092915050565b600061174a826117d1565b9150611755836117d1565b9250827fffffffffffffffffffffffffffffffffffffffffffffffffffffffffffffffff0382111561178a57611789611811565b5b828201905092915050565b60006117a0826117b1565b9050919050565b6000819050919050565b600073ffffffffffffffffffffffffffffffffffffffff82169050919050565b6000819050919050565b60006117e6826117ed565b9050919050565b60006117f8826117ff565b9050919050565b600061180a826117b1565b9050919050565b7f4e487b7100000000000000000000000000000000000000000000000000000000600052601160045260246000fd5b600080fd5b7f496e69743a204f6e6c79206465706c6f7965722063616e20696e697400000000600082015250565b7f496e69743a20436f6e747261637420697320696e697469616c697a6564000000600082015250565b6118a081611795565b81146118ab57600080fd5b50565b6118b7816117a7565b81146118c257600080fd5b50565b6118ce816117d1565b81146118d957600080fd5b5056fea26469706673582212208704eda4fe512c83361318798e524ff8de400f079b29d68a87a8ed5ae6e3c72064736f6c63430008070033",
  "linkReferences": {},
  "deployedLinkReferences": {}
}