{
  "_format": "hh-sol-artifact-1",
  "contractName": "VoteWeight",
  "sourceName": "contracts/VoteWeight.sol",
  "abi": [
    {
      "inputs": [
        {
          "internalType": "address",
          "name": "_core",
          "type": "address"
        }
      ],
      "stateMutability": "nonpayable",
      "type": "constructor"
    },
    {
      "inputs": [],
      "name": "IDENTIFIER",
      "outputs": [
        {
          "internalType": "bytes32",
          "name": "",
          "type": "bytes32"
        }
      ],
      "stateMutability": "view",
      "type": "function"
    },
    {
      "inputs": [],
      "name": "core_",
      "outputs": [
        {
          "internalType": "contract ICore",
          "name": "",
          "type": "address"
        }
      ],
      "stateMutability": "view",
      "type": "function"
    },
    {
      "inputs": [
        {
          "internalType": "uint256",
          "name": "_propID",
          "type": "uint256"
        },
        {
          "internalType": "address",
          "name": "_voter",
          "type": "address"
        }
      ],
      "name": "getVoteWeight",
      "outputs": [
        {
          "internalType": "uint256",
          "name": "",
          "type": "uint256"
        }
      ],
      "stateMutability": "nonpayable",
      "type": "function"
    },
    {
      "inputs": [
        {
          "internalType": "address",
          "name": "_govToken",
          "type": "address"
        },
        {
          "internalType": "address",
          "name": "_repToken",
          "type": "address"
        }
      ],
      "name": "initialise",
      "outputs": [],
      "stateMutability": "nonpayable",
      "type": "function"
    }
  ],
  "bytecode": "0x60c060405234801561001057600080fd5b50604051610a7b380380610a7b833981810160405281019061003291906100f1565b7fcdd7ba10b36b7349d5c9710e5e447ec8acaa8e3cbba8d20f4393eccf61f185b18133600060026101000a81548173ffffffffffffffffffffffffffffffffffffffff021916908373ffffffffffffffffffffffffffffffffffffffff16021790555081608081815250508073ffffffffffffffffffffffffffffffffffffffff1660a08173ffffffffffffffffffffffffffffffffffffffff1660601b8152505050505061016c565b6000815190506100eb81610155565b92915050565b60006020828403121561010757610106610150565b5b6000610115848285016100dc565b91505092915050565b600061012982610130565b9050919050565b600073ffffffffffffffffffffffffffffffffffffffff82169050919050565b600080fd5b61015e8161011e565b811461016957600080fd5b50565b60805160a05160601c6108e8610193600039600061028e0152600060db01526108e86000f3fe608060405234801561001057600080fd5b506004361061004c5760003560e01c80633c9747f3146100515780637eba55731461006f578063eaddd0fd1461009f578063ef88bf13146100bd575b600080fd5b6100596100d9565b6040516100669190610626565b60405180910390f35b61008960048036038101906100849190610549565b6100fd565b604051610096919061069c565b60405180910390f35b6100a761028c565b6040516100b49190610641565b60405180910390f35b6100d760048036038101906100d291906104dc565b6102b0565b005b7f000000000000000000000000000000000000000000000000000000000000000081565b600080600260009054906101000a900473ffffffffffffffffffffffffffffffffffffffff1673ffffffffffffffffffffffffffffffffffffffff166370a08231846040518263ffffffff1660e01b815260040161015b919061060b565b60206040518083038186803b15801561017357600080fd5b505afa158015610187573d6000803e3d6000fd5b505050506040513d601f19601f820116820180604052508101906101ab919061051c565b600160009054906101000a900473ffffffffffffffffffffffffffffffffffffffff1673ffffffffffffffffffffffffffffffffffffffff166370a08231856040518263ffffffff1660e01b8152600401610206919061060b565b60206040518083038186803b15801561021e57600080fd5b505afa158015610232573d6000803e3d6000fd5b505050506040513d601f19601f82011682018060405250810190610256919061051c565b61026091906106f9565b90506000811415610275576000915050610286565b60028161028291906106c8565b9150505b92915050565b7f000000000000000000000000000000000000000000000000000000000000000081565b600060019054906101000a900460ff16806102d6575060008054906101000a900460ff16155b610315576040517f08c379a000000000000000000000000000000000000000000000000000000000815260040161030c9061067c565b60405180910390fd5b600060029054906101000a900473ffffffffffffffffffffffffffffffffffffffff1673ffffffffffffffffffffffffffffffffffffffff163373ffffffffffffffffffffffffffffffffffffffff16146103a5576040517f08c379a000000000000000000000000000000000000000000000000000000000815260040161039c9061065c565b60405180910390fd5b60008060019054906101000a900460ff1615905080156103f5576001600060016101000a81548160ff02191690831515021790555060016000806101000a81548160ff0219169083151502179055505b82600160006101000a81548173ffffffffffffffffffffffffffffffffffffffff021916908373ffffffffffffffffffffffffffffffffffffffff16021790555081600260006101000a81548173ffffffffffffffffffffffffffffffffffffffff021916908373ffffffffffffffffffffffffffffffffffffffff16021790555080156104985760008060016101000a81548160ff0219169083151502179055505b505050565b6000813590506104ac81610884565b92915050565b6000813590506104c18161089b565b92915050565b6000815190506104d68161089b565b92915050565b600080604083850312156104f3576104f261082d565b5b60006105018582860161049d565b92505060206105128582860161049d565b9150509250929050565b6000602082840312156105325761053161082d565b5b6000610540848285016104c7565b91505092915050565b600080604083850312156105605761055f61082d565b5b600061056e858286016104b2565b925050602061057f8582860161049d565b9150509250929050565b61059281610753565b82525050565b6105a181610765565b82525050565b6105b081610799565b82525050565b60006105c3601c836106b7565b91506105ce82610832565b602082019050919050565b60006105e6601d836106b7565b91506105f18261085b565b602082019050919050565b6106058161078f565b82525050565b60006020820190506106206000830184610589565b92915050565b600060208201905061063b6000830184610598565b92915050565b600060208201905061065660008301846105a7565b92915050565b60006020820190508181036000830152610675816105b6565b9050919050565b60006020820190508181036000830152610695816105d9565b9050919050565b60006020820190506106b160008301846105fc565b92915050565b600082825260208201905092915050565b60006106d38261078f565b91506106de8361078f565b9250826106ee576106ed6107fe565b5b828204905092915050565b60006107048261078f565b915061070f8361078f565b9250817fffffffffffffffffffffffffffffffffffffffffffffffffffffffffffffffff0483118215151615610748576107476107cf565b5b828202905092915050565b600061075e8261076f565b9050919050565b6000819050919050565b600073ffffffffffffffffffffffffffffffffffffffff82169050919050565b6000819050919050565b60006107a4826107ab565b9050919050565b60006107b6826107bd565b9050919050565b60006107c88261076f565b9050919050565b7f4e487b7100000000000000000000000000000000000000000000000000000000600052601160045260246000fd5b7f4e487b7100000000000000000000000000000000000000000000000000000000600052601260045260246000fd5b600080fd5b7f496e69743a204f6e6c79206465706c6f7965722063616e20696e697400000000600082015250565b7f496e69743a20436f6e747261637420697320696e697469616c697a6564000000600082015250565b61088d81610753565b811461089857600080fd5b50565b6108a48161078f565b81146108af57600080fd5b5056fea2646970667358221220e438928fd81c1312ad7863f16dc3134fa26ea12efb89c01e6d9ce534ccf9590064736f6c63430008070033",
  "linkReferences": {},
  "deployedLinkReferences": {}
}