{
  "_format": "hh-sol-artifact-1",
  "contractName": "VoteWeight",
  "sourceName": "contracts/VoteWeight.sol",
  "abi": [
    {
      "inputs": [
        {
          "internalType": "address",
          "name": "_core",
          "type": "address"
        },
        {
          "internalType": "address",
          "name": "_timer",
          "type": "address"
        }
      ],
      "stateMutability": "nonpayable",
      "type": "constructor"
    },
    {
      "inputs": [],
      "name": "IDENTIFIER",
      "outputs": [
        {
          "internalType": "bytes32",
          "name": "",
          "type": "bytes32"
        }
      ],
      "stateMutability": "view",
      "type": "function"
    },
    {
      "inputs": [
        {
          "internalType": "bytes32",
          "name": "c__0x00e2a1ba",
          "type": "bytes32"
        }
      ],
      "name": "c_0x00e2a1ba",
      "outputs": [],
      "stateMutability": "pure",
      "type": "function"
    },
    {
      "inputs": [
        {
          "internalType": "bytes32",
          "name": "c__0x17e3f95f",
          "type": "bytes32"
        }
      ],
      "name": "c_0x17e3f95f",
      "outputs": [],
      "stateMutability": "pure",
      "type": "function"
    },
    {
      "inputs": [
        {
          "internalType": "bytes32",
          "name": "c__0x35ade16d",
          "type": "bytes32"
        }
      ],
      "name": "c_0x35ade16d",
      "outputs": [],
      "stateMutability": "pure",
      "type": "function"
    },
    {
      "inputs": [],
      "name": "core_",
      "outputs": [
        {
          "internalType": "contract ICore",
          "name": "",
          "type": "address"
        }
      ],
      "stateMutability": "view",
      "type": "function"
    },
    {
      "inputs": [],
      "name": "getCurrentTime",
      "outputs": [
        {
          "internalType": "uint256",
          "name": "",
          "type": "uint256"
        }
      ],
      "stateMutability": "view",
      "type": "function"
    },
    {
      "inputs": [
        {
          "internalType": "uint256",
          "name": "_propID",
          "type": "uint256"
        }
      ],
      "name": "getTotalWeight",
      "outputs": [
        {
          "internalType": "uint256",
          "name": "",
          "type": "uint256"
        }
      ],
      "stateMutability": "view",
      "type": "function"
    },
    {
      "inputs": [
        {
          "internalType": "uint256",
          "name": "_propID",
          "type": "uint256"
        },
        {
          "internalType": "address",
          "name": "_voter",
          "type": "address"
        }
      ],
      "name": "getVoteWeight",
      "outputs": [
        {
          "internalType": "uint256",
          "name": "",
          "type": "uint256"
        }
      ],
      "stateMutability": "view",
      "type": "function"
    },
    {
      "inputs": [
        {
          "internalType": "address",
          "name": "_govToken",
          "type": "address"
        },
        {
          "internalType": "address",
          "name": "_repToken",
          "type": "address"
        }
      ],
      "name": "initialise",
      "outputs": [],
      "stateMutability": "nonpayable",
      "type": "function"
    },
    {
      "inputs": [
        {
          "internalType": "uint256",
          "name": "time",
          "type": "uint256"
        }
      ],
      "name": "setCurrentTime",
      "outputs": [],
      "stateMutability": "nonpayable",
      "type": "function"
    },
    {
      "inputs": [],
      "name": "timerAddress",
      "outputs": [
        {
          "internalType": "address",
          "name": "",
          "type": "address"
        }
      ],
      "stateMutability": "view",
      "type": "function"
    }
  ],
  "bytecode": "0x60c06040523480156200001157600080fd5b50604051620019ae380380620019ae83398181016040528101906200003791906200031c565b7fcdd7ba10b36b7349d5c9710e5e447ec8acaa8e3cbba8d20f4393eccf61f185b18282806200008f7fbc0a003bb8fab9931eb808559dac1014bd598e04024b8875faae5e60c9d7adc660001b620002fc60201b60201c565b620000c37fc643b4a93fb8ea47dbcab1d450d0c5237e347cfdbbfb564d0f5c0705bc17b0b960001b620002fc60201b60201c565b620000f77f99eda9b013c18feeb073dd7366065243b6adc915936be427d2ffe5bba7dbe99160001b620002fc60201b60201c565b33600060026101000a81548173ffffffffffffffffffffffffffffffffffffffff021916908373ffffffffffffffffffffffffffffffffffffffff16021790555080600160006101000a81548173ffffffffffffffffffffffffffffffffffffffff021916908373ffffffffffffffffffffffffffffffffffffffff16021790555050620001ae7f91b90f81106ec7301a2ef3f3646fc2ac7a03224c1592a81c08bf2be57bf85da360001b620002ff60201b60201c565b620001e27faa1a5f5f7c07ad1d1a00bf086c9ae885f69ed49cd3abc04289c41680f08eda2360001b620002ff60201b60201c565b620002167f96d06dce006a4c22db8a8fd81f6fd8d01ca83c6b578b06c55ae55449f894b56160001b620002ff60201b60201c565b8260808181525050620002527f5df41bcd415e6f031fea4b950841c2b7a0c71533bb77597e55e47143977ffe5060001b620002ff60201b60201c565b620002867f86b081f2885abf844d8a6e92c42bb8b42f1f332206a0f04e515da586d0b809f560001b620002ff60201b60201c565b8173ffffffffffffffffffffffffffffffffffffffff1660a08173ffffffffffffffffffffffffffffffffffffffff1660601b81525050505050620002f47f5fc169ce71a99ab02e462b1ad60981e0b75908263569f509cd5a21eb15772c9060001b6200030260201b60201c565b5050620003b6565b50565b50565b50565b60008151905062000316816200039c565b92915050565b6000806040838503121562000336576200033562000397565b5b6000620003468582860162000305565b9250506020620003598582860162000305565b9150509250929050565b6000620003708262000377565b9050919050565b600073ffffffffffffffffffffffffffffffffffffffff82169050919050565b600080fd5b620003a78162000363565b8114620003b357600080fd5b50565b60805160a05160601c6115cf620003df60003960006109f50152600061066601526115cf6000f3fe608060405234801561001057600080fd5b50600436106100a95760003560e01c8063348291551161007157806334829155146101525780633c9747f31461016e5780637eba55731461018c5780639ef7786d146101bc578063eaddd0fd146101d8578063ef88bf13146101f6576100a9565b80631c39c38d146100ae57806321eb3b7f146100cc57806322f8e566146100e85780632434c5bd1461010457806329cb924d14610134575b600080fd5b6100b6610212565b6040516100c3919061133f565b60405180910390f35b6100e660048036038101906100e191906111f6565b610238565b005b61010260048036038101906100fd9190611223565b61023b565b005b61011e60048036038101906101199190611223565b610327565b60405161012b91906113d0565b60405180910390f35b61013c61055c565b60405161014991906113d0565b60405180910390f35b61016c600480360381019061016791906111f6565b610661565b005b610176610664565b604051610183919061135a565b60405180910390f35b6101a660048036038101906101a1919061127d565b610688565b6040516101b391906113d0565b60405180910390f35b6101d660048036038101906101d191906111f6565b6109f0565b005b6101e06109f3565b6040516101ed9190611375565b60405180910390f35b610210600480360381019061020b91906111b6565b610a17565b005b600160009054906101000a900473ffffffffffffffffffffffffffffffffffffffff1681565b50565b600073ffffffffffffffffffffffffffffffffffffffff16600160009054906101000a900473ffffffffffffffffffffffffffffffffffffffff1673ffffffffffffffffffffffffffffffffffffffff16141561029757600080fd5b600160009054906101000a900473ffffffffffffffffffffffffffffffffffffffff1673ffffffffffffffffffffffffffffffffffffffff166322f8e566826040518263ffffffff1660e01b81526004016102f291906113d0565b600060405180830381600087803b15801561030c57600080fd5b505af1158015610320573d6000803e3d6000fd5b5050505050565b60006103557f6dce5125ae28733a84405221cc02b710596cf53e5468ae53d8f373c2c878adce60001b610238565b6103817fe69b9088ce032be9c276ea654621a7b4e4825f86e361e145168b30ead54db80a60001b610238565b6103ad7fa744a2f5d6f54c48d8435fc1df28c211f7f73ac02d2bdd0accd577051693de1960001b610238565b6000600360009054906101000a900473ffffffffffffffffffffffffffffffffffffffff1673ffffffffffffffffffffffffffffffffffffffff166318160ddd6040518163ffffffff1660e01b815260040160206040518083038186803b15801561041757600080fd5b505afa15801561042b573d6000803e3d6000fd5b505050506040513d601f19601f8201168201806040525081019061044f9190611250565b600260009054906101000a900473ffffffffffffffffffffffffffffffffffffffff1673ffffffffffffffffffffffffffffffffffffffff166318160ddd6040518163ffffffff1660e01b815260040160206040518083038186803b1580156104b757600080fd5b505afa1580156104cb573d6000803e3d6000fd5b505050506040513d601f19601f820116820180604052508101906104ef9190611250565b6104f991906113fc565b90506105277f17dbc431023e08c48d245c841b063b56c876d59d64360f9348812122f616d1e460001b610238565b6105537fa79c9da1ce99a38b0b88221119fb183a5c69116c1c876beb439971247470cd2660001b610238565b80915050919050565b60008073ffffffffffffffffffffffffffffffffffffffff16600160009054906101000a900473ffffffffffffffffffffffffffffffffffffffff1673ffffffffffffffffffffffffffffffffffffffff161461065a57600160009054906101000a900473ffffffffffffffffffffffffffffffffffffffff1673ffffffffffffffffffffffffffffffffffffffff166329cb924d6040518163ffffffff1660e01b815260040160206040518083038186803b15801561061b57600080fd5b505afa15801561062f573d6000803e3d6000fd5b505050506040513d601f19601f820116820180604052508101906106539190611250565b905061065e565b4290505b90565b50565b7f000000000000000000000000000000000000000000000000000000000000000081565b60006106b67f1b3772ba194133c836743655e0cd0ba4bc643a2aa36ed886d474377a2da1cc0360001b610238565b6106e27f2cd57ab4a85adb3fe774e84a0bfa22148f63337569759f48b9a1e7d20df6e97960001b610238565b61070e7fae0e55b1b8d4e1627a65bb0a0d6ebc0fc9479ebdce110de4d9741da1919979ff60001b610238565b6000600360009054906101000a900473ffffffffffffffffffffffffffffffffffffffff1673ffffffffffffffffffffffffffffffffffffffff166370a08231846040518263ffffffff1660e01b815260040161076b919061133f565b60206040518083038186803b15801561078357600080fd5b505afa158015610797573d6000803e3d6000fd5b505050506040513d601f19601f820116820180604052508101906107bb9190611250565b600260009054906101000a900473ffffffffffffffffffffffffffffffffffffffff1673ffffffffffffffffffffffffffffffffffffffff166370a08231856040518263ffffffff1660e01b8152600401610816919061133f565b60206040518083038186803b15801561082e57600080fd5b505afa158015610842573d6000803e3d6000fd5b505050506040513d601f19601f820116820180604052508101906108669190611250565b61087091906113fc565b905061089e7f18a1a0c5ca29c733ee2100a6fd8989b32894cf3c8a1154f9a6038cf1123ab73160001b610238565b6108ca7f981091f3c39de5ca121d9afa3652505b46b12c48de8892423426c78fcd05520160001b610238565b6000811415610961576108ff7fe0a51603d7307ee96cce80a0a7a035ccc0f1e0fb6016bf6a54d6e4429628bcd560001b610238565b61092b7f5b761f95b1d9ec300ca12250dae1cd6f6c491ec017b1d2316fb2b52e254bfa6b60001b610238565b6109577f3f799683c08f8c586f106179137fb4a623635df28bfbe268492060f4c652b4f560001b610238565b60009150506109ea565b61098d7fecdeb663f829bbf5139514b226e1d88655f5d162b5ea9689c3fbe8c4bb537e9660001b610238565b6109b97fcc758afe4fe54a7647707c14080ee6db256f78ad8d729e87b2d3c2473fdf3e9560001b610238565b6109e57f825314259cef87924dab94a4c465185f2b02c2b24f168df5689cd14c05c791b060001b610238565b809150505b92915050565b50565b7f000000000000000000000000000000000000000000000000000000000000000081565b610a437ff05e22b5428a7e0eea74a732ce102fb9bb0d2f1de097e596d051b0c826afd92860001b6109f0565b610a6f7fcc8333d776dbed5bc1d5a69fea8a56e88f87955b6a086409d43cdf5b99a00f9160001b6109f0565b610a9b7f96e003626c0adb9922999e671f576019384ec3e342797245b19e293fc7ae98b860001b6109f0565b610ac77f0124756d9b2742e29a6e998127a5d65a6fce0de7b15fe3cffaa57159d293eff460001b6109f0565b600060019054906101000a900460ff1680610aed575060008054906101000a900460ff16155b610b2c576040517f08c379a0000000000000000000000000000000000000000000000000000000008152600401610b23906113b0565b60405180910390fd5b610b587f0e0cd9f43fa96f35ac9dcd66bf9394a66239a66b0422c7eb4acaa3ec7af2bca760001b6109f0565b610b847fa572db1175cf84948584c963309788099518a5f9406d64b26be0f01abaa7615160001b6109f0565b610bb07f524b599d7eb0f1dfc88ccfeb5d98c7465952b834def7a670e3e1ee11de0a1e3760001b6109f0565b610bdc7f98965d56deb2a09035f26190cf6413a56daf79840e05a39e6a014890174d277a60001b6109f0565b600060029054906101000a900473ffffffffffffffffffffffffffffffffffffffff1673ffffffffffffffffffffffffffffffffffffffff163373ffffffffffffffffffffffffffffffffffffffff1614610c6c576040517f08c379a0000000000000000000000000000000000000000000000000000000008152600401610c6390611390565b60405180910390fd5b610c987fe6d54cb133197a88f121f1222a74c88e9bdb72f2534b716bac552690179fa19b60001b6109f0565b610cc47f2978934513c1680f7d8efe0f61b00f6e798552e162cf38e89079d9080f3639a060001b6109f0565b610cf07fb746c40fd73cb0d4ce3270dc8cbf3523878f0b08dc0fe2339e1f2f72a167819a60001b6109f0565b60008060019054906101000a900460ff16159050610d307f5666c1bdc7b7d35115b317253332f7f90453602bb5068386a08ea63770d8032460001b6109f0565b610d5c7fae1bd2558d584dd4c375d9569fcf63a6ddd2e986550a1722bfbf5c885b8d343c60001b6109f0565b8015610e7857610d8e7f8827da128743a7905421670199b1e7c0011f34030aea597bb0ed57dd76a8fcbe60001b6109f0565b610dba7fd138844c11e5fb387e8063532b614d5d66b6053c6cb9a3b7de9a071516cf13c760001b6109f0565b610de67f0da07da6706658155f26bbafcbfa954a7537c786b613a4cc9be94703ef8137aa60001b6109f0565b6001600060016101000a81548160ff021916908315150217905550610e2d7f234d6ab578d89d89ef0e5cfb230d4b62412d2d6aecc02683e842f258b0952f2960001b6109f0565b610e597fc3fe9f21b0f8c74b901d4bb6665dcddf61902ec0d3feecd24d14288baeb1eeb660001b6109f0565b60016000806101000a81548160ff021916908315150217905550610ea5565b610ea47f3e978646ed66cc964c98e5a5878ca6f5c9a2a19bbe74dcc13b01cff0472ea07c60001b6109f0565b5b610ed17f29ca5100e48f38a7411fb78acc536c44b5db000aa462c2b1360915c045318ca760001b6109f0565b610efd7ffaceab16c3d9163b7c9e921033f7aa7f738a38f8474a57eab5f416ef0c98127f60001b610238565b610f297f740b82deb6c33b30ef2944e0df8b0fa73faa37cefb3b1c64fd6430f9de56101860001b610238565b610f557fff52e731a39e5a8a2cc23e00e6394ad9401ea989cb93d04048fa8020ab97291460001b610238565b82600260006101000a81548173ffffffffffffffffffffffffffffffffffffffff021916908373ffffffffffffffffffffffffffffffffffffffff160217905550610fc27fb5b58c04a59b38907a574525da7566eb7c9a8e1e2d8e4781bd1241d4ccf301c560001b610238565b610fee7f40ac3cb0321f07c516305558df2bdd0035da148e94f605cc69a357306e30471360001b610238565b81600360006101000a81548173ffffffffffffffffffffffffffffffffffffffff021916908373ffffffffffffffffffffffffffffffffffffffff16021790555061105b7fa5f2730f9babc14d334aa306df7fb5c6b1ed3bdfb66f6fc4fafe38d5652f469660001b6109f0565b6110877f181d8291e4a099dfa8d933931fb5a4fab22537d847165af8100ce2c9358055b560001b6109f0565b8015611130576110b97f8a59cf0f81ee5490e15c424d8aede261eaf6e1217105a123d14893d69aabf35d60001b6109f0565b6110e57fc5092240012f400b79e17c3d1fb6321ac43d96fa801b72141d16886e1c9be39160001b6109f0565b6111117ffa61d325b20e902fc90b26bec17d33d3c3bf7800b6a72b6365dfed29c50751f260001b6109f0565b60008060016101000a81548160ff02191690831515021790555061115d565b61115c7f6f241d49ed4d7add7ad690d1f539edcf9eec47c7016587da77342ab89f45939260001b6109f0565b5b505050565b60008135905061117181611554565b92915050565b6000813590506111868161156b565b92915050565b60008135905061119b81611582565b92915050565b6000815190506111b081611582565b92915050565b600080604083850312156111cd576111cc6114fd565b5b60006111db85828601611162565b92505060206111ec85828601611162565b9150509250929050565b60006020828403121561120c5761120b6114fd565b5b600061121a84828501611177565b91505092915050565b600060208284031215611239576112386114fd565b5b60006112478482850161118c565b91505092915050565b600060208284031215611266576112656114fd565b5b6000611274848285016111a1565b91505092915050565b60008060408385031215611294576112936114fd565b5b60006112a28582860161118c565b92505060206112b385828601611162565b9150509250929050565b6112c681611452565b82525050565b6112d581611464565b82525050565b6112e481611498565b82525050565b60006112f7601c836113eb565b915061130282611502565b602082019050919050565b600061131a601d836113eb565b91506113258261152b565b602082019050919050565b6113398161148e565b82525050565b600060208201905061135460008301846112bd565b92915050565b600060208201905061136f60008301846112cc565b92915050565b600060208201905061138a60008301846112db565b92915050565b600060208201905081810360008301526113a9816112ea565b9050919050565b600060208201905081810360008301526113c98161130d565b9050919050565b60006020820190506113e56000830184611330565b92915050565b600082825260208201905092915050565b60006114078261148e565b91506114128361148e565b9250827fffffffffffffffffffffffffffffffffffffffffffffffffffffffffffffffff03821115611447576114466114ce565b5b828201905092915050565b600061145d8261146e565b9050919050565b6000819050919050565b600073ffffffffffffffffffffffffffffffffffffffff82169050919050565b6000819050919050565b60006114a3826114aa565b9050919050565b60006114b5826114bc565b9050919050565b60006114c78261146e565b9050919050565b7f4e487b7100000000000000000000000000000000000000000000000000000000600052601160045260246000fd5b600080fd5b7f496e69743a204f6e6c79206465706c6f7965722063616e20696e697400000000600082015250565b7f496e69743a20436f6e747261637420697320696e697469616c697a6564000000600082015250565b61155d81611452565b811461156857600080fd5b50565b61157481611464565b811461157f57600080fd5b50565b61158b8161148e565b811461159657600080fd5b5056fea26469706673582212203200e92106e3fd8f046d3446710e633cc5c1c6b546b2bce5e5982e2c76abbe3e64736f6c63430008070033",
  "linkReferences": {},
  "deployedLinkReferences": {}
}