{
  "_format": "hh-sol-artifact-1",
  "contractName": "VoteWeight",
  "sourceName": "contracts/VoteWeight.sol",
  "abi": [
    {
      "inputs": [
        {
          "internalType": "address",
          "name": "_core",
          "type": "address"
        }
      ],
      "stateMutability": "nonpayable",
      "type": "constructor"
    },
    {
      "inputs": [],
      "name": "IDENTIFIER",
      "outputs": [
        {
          "internalType": "bytes32",
          "name": "",
          "type": "bytes32"
        }
      ],
      "stateMutability": "view",
      "type": "function"
    },
    {
      "inputs": [],
      "name": "core_",
      "outputs": [
        {
          "internalType": "contract ICore",
          "name": "",
          "type": "address"
        }
      ],
      "stateMutability": "view",
      "type": "function"
    },
    {
      "inputs": [
        {
          "internalType": "uint256",
          "name": "_propID",
          "type": "uint256"
        }
      ],
      "name": "getTotalWeight",
      "outputs": [
        {
          "internalType": "uint256",
          "name": "",
          "type": "uint256"
        }
      ],
      "stateMutability": "view",
      "type": "function"
    },
    {
      "inputs": [
        {
          "internalType": "uint256",
          "name": "_propID",
          "type": "uint256"
        },
        {
          "internalType": "address",
          "name": "_voter",
          "type": "address"
        }
      ],
      "name": "getVoteWeight",
      "outputs": [
        {
          "internalType": "uint256",
          "name": "",
          "type": "uint256"
        }
      ],
      "stateMutability": "nonpayable",
      "type": "function"
    },
    {
      "inputs": [
        {
          "internalType": "address",
          "name": "_govToken",
          "type": "address"
        },
        {
          "internalType": "address",
          "name": "_repToken",
          "type": "address"
        }
      ],
      "name": "initialise",
      "outputs": [],
      "stateMutability": "nonpayable",
      "type": "function"
    }
  ],
  "bytecode": "0x60c060405234801561001057600080fd5b50604051610c98380380610c98833981810160405281019061003291906100f1565b7fcdd7ba10b36b7349d5c9710e5e447ec8acaa8e3cbba8d20f4393eccf61f185b18133600060026101000a81548173ffffffffffffffffffffffffffffffffffffffff021916908373ffffffffffffffffffffffffffffffffffffffff16021790555081608081815250508073ffffffffffffffffffffffffffffffffffffffff1660a08173ffffffffffffffffffffffffffffffffffffffff1660601b8152505050505061016c565b6000815190506100eb81610155565b92915050565b60006020828403121561010757610106610150565b5b6000610115848285016100dc565b91505092915050565b600061012982610130565b9050919050565b600073ffffffffffffffffffffffffffffffffffffffff82169050919050565b600080fd5b61015e8161011e565b811461016957600080fd5b50565b60805160a05160601c610b046101946000396000610427015260006102740152610b046000f3fe608060405234801561001057600080fd5b50600436106100575760003560e01c80632434c5bd1461005c5780633c9747f31461008c5780637eba5573146100aa578063eaddd0fd146100da578063ef88bf13146100f8575b600080fd5b610076600480360381019061007191906106b5565b610114565b6040516100839190610862565b60405180910390f35b610094610272565b6040516100a191906107ec565b60405180910390f35b6100c460048036038101906100bf919061070f565b610296565b6040516100d19190610862565b60405180910390f35b6100e2610425565b6040516100ef9190610807565b60405180910390f35b610112600480360381019061010d9190610675565b610449565b005b600060028060009054906101000a900473ffffffffffffffffffffffffffffffffffffffff1673ffffffffffffffffffffffffffffffffffffffff166318160ddd6040518163ffffffff1660e01b815260040160206040518083038186803b15801561017f57600080fd5b505afa158015610193573d6000803e3d6000fd5b505050506040513d601f19601f820116820180604052508101906101b791906106e2565b6101c191906108e4565b600160009054906101000a900473ffffffffffffffffffffffffffffffffffffffff1673ffffffffffffffffffffffffffffffffffffffff166318160ddd6040518163ffffffff1660e01b815260040160206040518083038186803b15801561022957600080fd5b505afa15801561023d573d6000803e3d6000fd5b505050506040513d601f19601f8201168201806040525081019061026191906106e2565b61026b919061088e565b9050919050565b7f000000000000000000000000000000000000000000000000000000000000000081565b600080600260009054906101000a900473ffffffffffffffffffffffffffffffffffffffff1673ffffffffffffffffffffffffffffffffffffffff166370a08231846040518263ffffffff1660e01b81526004016102f491906107d1565b60206040518083038186803b15801561030c57600080fd5b505afa158015610320573d6000803e3d6000fd5b505050506040513d601f19601f8201168201806040525081019061034491906106e2565b600160009054906101000a900473ffffffffffffffffffffffffffffffffffffffff1673ffffffffffffffffffffffffffffffffffffffff166370a08231856040518263ffffffff1660e01b815260040161039f91906107d1565b60206040518083038186803b1580156103b757600080fd5b505afa1580156103cb573d6000803e3d6000fd5b505050506040513d601f19601f820116820180604052508101906103ef91906106e2565b6103f99190610915565b9050600081141561040e57600091505061041f565b60028161041b91906108e4565b9150505b92915050565b7f000000000000000000000000000000000000000000000000000000000000000081565b600060019054906101000a900460ff168061046f575060008054906101000a900460ff16155b6104ae576040517f08c379a00000000000000000000000000000000000000000000000000000000081526004016104a590610842565b60405180910390fd5b600060029054906101000a900473ffffffffffffffffffffffffffffffffffffffff1673ffffffffffffffffffffffffffffffffffffffff163373ffffffffffffffffffffffffffffffffffffffff161461053e576040517f08c379a000000000000000000000000000000000000000000000000000000000815260040161053590610822565b60405180910390fd5b60008060019054906101000a900460ff16159050801561058e576001600060016101000a81548160ff02191690831515021790555060016000806101000a81548160ff0219169083151502179055505b82600160006101000a81548173ffffffffffffffffffffffffffffffffffffffff021916908373ffffffffffffffffffffffffffffffffffffffff16021790555081600260006101000a81548173ffffffffffffffffffffffffffffffffffffffff021916908373ffffffffffffffffffffffffffffffffffffffff16021790555080156106315760008060016101000a81548160ff0219169083151502179055505b505050565b60008135905061064581610aa0565b92915050565b60008135905061065a81610ab7565b92915050565b60008151905061066f81610ab7565b92915050565b6000806040838503121561068c5761068b610a49565b5b600061069a85828601610636565b92505060206106ab85828601610636565b9150509250929050565b6000602082840312156106cb576106ca610a49565b5b60006106d98482850161064b565b91505092915050565b6000602082840312156106f8576106f7610a49565b5b600061070684828501610660565b91505092915050565b6000806040838503121561072657610725610a49565b5b60006107348582860161064b565b925050602061074585828601610636565b9150509250929050565b6107588161096f565b82525050565b61076781610981565b82525050565b610776816109b5565b82525050565b6000610789601c8361087d565b915061079482610a4e565b602082019050919050565b60006107ac601d8361087d565b91506107b782610a77565b602082019050919050565b6107cb816109ab565b82525050565b60006020820190506107e6600083018461074f565b92915050565b6000602082019050610801600083018461075e565b92915050565b600060208201905061081c600083018461076d565b92915050565b6000602082019050818103600083015261083b8161077c565b9050919050565b6000602082019050818103600083015261085b8161079f565b9050919050565b600060208201905061087760008301846107c2565b92915050565b600082825260208201905092915050565b6000610899826109ab565b91506108a4836109ab565b9250827fffffffffffffffffffffffffffffffffffffffffffffffffffffffffffffffff038211156108d9576108d86109eb565b5b828201905092915050565b60006108ef826109ab565b91506108fa836109ab565b92508261090a57610909610a1a565b5b828204905092915050565b6000610920826109ab565b915061092b836109ab565b9250817fffffffffffffffffffffffffffffffffffffffffffffffffffffffffffffffff0483118215151615610964576109636109eb565b5b828202905092915050565b600061097a8261098b565b9050919050565b6000819050919050565b600073ffffffffffffffffffffffffffffffffffffffff82169050919050565b6000819050919050565b60006109c0826109c7565b9050919050565b60006109d2826109d9565b9050919050565b60006109e48261098b565b9050919050565b7f4e487b7100000000000000000000000000000000000000000000000000000000600052601160045260246000fd5b7f4e487b7100000000000000000000000000000000000000000000000000000000600052601260045260246000fd5b600080fd5b7f496e69743a204f6e6c79206465706c6f7965722063616e20696e697400000000600082015250565b7f496e69743a20436f6e747261637420697320696e697469616c697a6564000000600082015250565b610aa98161096f565b8114610ab457600080fd5b50565b610ac0816109ab565b8114610acb57600080fd5b5056fea2646970667358221220ff2f1635c552f2ab3a12871064e221f741ce5c102e3efbd1a1c426dd4e1a1de764736f6c63430008070033",
  "linkReferences": {},
  "deployedLinkReferences": {}
}