{
  "_format": "hh-sol-artifact-1",
  "contractName": "VoteWeight",
  "sourceName": "contracts/VoteWeight.sol",
  "abi": [
    {
      "inputs": [
        {
          "internalType": "address",
          "name": "_core",
          "type": "address"
        }
      ],
      "stateMutability": "nonpayable",
      "type": "constructor"
    },
    {
      "inputs": [],
      "name": "IDENTIFIER",
      "outputs": [
        {
          "internalType": "bytes32",
          "name": "",
          "type": "bytes32"
        }
      ],
      "stateMutability": "view",
      "type": "function"
    },
    {
      "inputs": [],
      "name": "core_",
      "outputs": [
        {
          "internalType": "contract ICore",
          "name": "",
          "type": "address"
        }
      ],
      "stateMutability": "view",
      "type": "function"
    },
    {
      "inputs": [
        {
          "internalType": "uint256",
          "name": "_propID",
          "type": "uint256"
        },
        {
          "internalType": "address",
          "name": "_voter",
          "type": "address"
        }
      ],
      "name": "getVoteWeight",
      "outputs": [
        {
          "internalType": "uint256",
          "name": "",
          "type": "uint256"
        }
      ],
      "stateMutability": "nonpayable",
      "type": "function"
    }
  ],
  "bytecode": "0x60c060405234801561001057600080fd5b50604051610420380380610420833981810160405281019061003291906100b0565b7fcdd7ba10b36b7349d5c9710e5e447ec8acaa8e3cbba8d20f4393eccf61f185b18181608081815250508073ffffffffffffffffffffffffffffffffffffffff1660a08173ffffffffffffffffffffffffffffffffffffffff1660601b8152505050505061012b565b6000815190506100aa81610114565b92915050565b6000602082840312156100c6576100c561010f565b5b60006100d48482850161009b565b91505092915050565b60006100e8826100ef565b9050919050565b600073ffffffffffffffffffffffffffffffffffffffff82169050919050565b600080fd5b61011d816100dd565b811461012857600080fd5b50565b60805160a05160601c6102cf610151600039600060e00152600060b401526102cf6000f3fe608060405234801561001057600080fd5b50600436106100415760003560e01c80633c9747f3146100465780637eba557314610064578063eaddd0fd14610094575b600080fd5b61004e6100b2565b60405161005b9190610199565b60405180910390f35b61007e6004803603810190610079919061012c565b6100d6565b60405161008b91906101cf565b60405180910390f35b61009c6100de565b6040516100a991906101b4565b60405180910390f35b7f000000000000000000000000000000000000000000000000000000000000000081565b600092915050565b7f000000000000000000000000000000000000000000000000000000000000000081565b6000813590506101118161026b565b92915050565b60008135905061012681610282565b92915050565b6000806040838503121561014357610142610266565b5b600061015185828601610117565b925050602061016285828601610102565b9150509250929050565b610175816101fc565b82525050565b61018481610230565b82525050565b61019381610226565b82525050565b60006020820190506101ae600083018461016c565b92915050565b60006020820190506101c9600083018461017b565b92915050565b60006020820190506101e4600083018461018a565b92915050565b60006101f582610206565b9050919050565b6000819050919050565b600073ffffffffffffffffffffffffffffffffffffffff82169050919050565b6000819050919050565b600061023b82610242565b9050919050565b600061024d82610254565b9050919050565b600061025f82610206565b9050919050565b600080fd5b610274816101ea565b811461027f57600080fd5b50565b61028b81610226565b811461029657600080fd5b5056fea26469706673582212203e8b22f005dc532d27828791e422ae57641721b7abfecc270f01e4fb246ff59964736f6c63430008070033",
  "linkReferences": {},
  "deployedLinkReferences": {}
}