{
  "_format": "hh-sol-artifact-1",
  "contractName": "VoteWeight",
  "sourceName": "contracts/VoteWeight.sol",
  "abi": [
    {
      "inputs": [
        {
          "internalType": "address",
          "name": "_core",
          "type": "address"
        },
        {
          "internalType": "address",
          "name": "_timer",
          "type": "address"
        }
      ],
      "stateMutability": "nonpayable",
      "type": "constructor"
    },
    {
      "inputs": [],
      "name": "IDENTIFIER",
      "outputs": [
        {
          "internalType": "bytes32",
          "name": "",
          "type": "bytes32"
        }
      ],
      "stateMutability": "view",
      "type": "function"
    },
    {
      "inputs": [],
      "name": "core_",
      "outputs": [
        {
          "internalType": "contract ICore",
          "name": "",
          "type": "address"
        }
      ],
      "stateMutability": "view",
      "type": "function"
    },
    {
      "inputs": [],
      "name": "getCurrentTime",
      "outputs": [
        {
          "internalType": "uint256",
          "name": "",
          "type": "uint256"
        }
      ],
      "stateMutability": "view",
      "type": "function"
    },
    {
      "inputs": [
        {
          "internalType": "uint256",
          "name": "_propID",
          "type": "uint256"
        }
      ],
      "name": "getTotalWeight",
      "outputs": [
        {
          "internalType": "uint256",
          "name": "",
          "type": "uint256"
        }
      ],
      "stateMutability": "view",
      "type": "function"
    },
    {
      "inputs": [
        {
          "internalType": "uint256",
          "name": "_propID",
          "type": "uint256"
        },
        {
          "internalType": "address",
          "name": "_voter",
          "type": "address"
        }
      ],
      "name": "getVoteWeight",
      "outputs": [
        {
          "internalType": "uint256",
          "name": "",
          "type": "uint256"
        }
      ],
      "stateMutability": "view",
      "type": "function"
    },
    {
      "inputs": [
        {
          "internalType": "address",
          "name": "_govToken",
          "type": "address"
        },
        {
          "internalType": "address",
          "name": "_repToken",
          "type": "address"
        }
      ],
      "name": "initialise",
      "outputs": [],
      "stateMutability": "nonpayable",
      "type": "function"
    },
    {
      "inputs": [
        {
          "internalType": "uint256",
          "name": "time",
          "type": "uint256"
        }
      ],
      "name": "setCurrentTime",
      "outputs": [],
      "stateMutability": "nonpayable",
      "type": "function"
    },
    {
      "inputs": [],
      "name": "timerAddress",
      "outputs": [
        {
          "internalType": "address",
          "name": "",
          "type": "address"
        }
      ],
      "stateMutability": "view",
      "type": "function"
    }
  ],
  "bytecode": "0x60c060405234801561001057600080fd5b50604051610ec5380380610ec583398181016040528101906100329190610137565b7fcdd7ba10b36b7349d5c9710e5e447ec8acaa8e3cbba8d20f4393eccf61f185b182828033600060026101000a81548173ffffffffffffffffffffffffffffffffffffffff021916908373ffffffffffffffffffffffffffffffffffffffff16021790555080600160006101000a81548173ffffffffffffffffffffffffffffffffffffffff021916908373ffffffffffffffffffffffffffffffffffffffff1602179055505082608081815250508173ffffffffffffffffffffffffffffffffffffffff1660a08173ffffffffffffffffffffffffffffffffffffffff1660601b8152505050505050506101c5565b600081519050610131816101ae565b92915050565b6000806040838503121561014e5761014d6101a9565b5b600061015c85828601610122565b925050602061016d85828601610122565b9150509250929050565b600061018282610189565b9050919050565b600073ffffffffffffffffffffffffffffffffffffffff82169050919050565b600080fd5b6101b781610177565b81146101c257600080fd5b50565b60805160a05160601c610cd86101ed60003960006106b50152600061050e0152610cd86000f3fe608060405234801561001057600080fd5b50600436106100885760003560e01c80633c9747f31161005b5780633c9747f3146101155780637eba557314610133578063eaddd0fd14610163578063ef88bf131461018157610088565b80631c39c38d1461008d57806322f8e566146100ab5780632434c5bd146100c757806329cb924d146100f7575b600080fd5b61009561019d565b6040516100a29190610a5f565b60405180910390f35b6100c560048036038101906100c09190610943565b6101c3565b005b6100e160048036038101906100dc9190610943565b6102af565b6040516100ee9190610af0565b60405180910390f35b6100ff610407565b60405161010c9190610af0565b60405180910390f35b61011d61050c565b60405161012a9190610a7a565b60405180910390f35b61014d6004803603810190610148919061099d565b610530565b60405161015a9190610af0565b60405180910390f35b61016b6106b3565b6040516101789190610a95565b60405180910390f35b61019b60048036038101906101969190610903565b6106d7565b005b600160009054906101000a900473ffffffffffffffffffffffffffffffffffffffff1681565b600073ffffffffffffffffffffffffffffffffffffffff16600160009054906101000a900473ffffffffffffffffffffffffffffffffffffffff1673ffffffffffffffffffffffffffffffffffffffff16141561021f57600080fd5b600160009054906101000a900473ffffffffffffffffffffffffffffffffffffffff1673ffffffffffffffffffffffffffffffffffffffff166322f8e566826040518263ffffffff1660e01b815260040161027a9190610af0565b600060405180830381600087803b15801561029457600080fd5b505af11580156102a8573d6000803e3d6000fd5b5050505050565b600080600360009054906101000a900473ffffffffffffffffffffffffffffffffffffffff1673ffffffffffffffffffffffffffffffffffffffff166318160ddd6040518163ffffffff1660e01b815260040160206040518083038186803b15801561031a57600080fd5b505afa15801561032e573d6000803e3d6000fd5b505050506040513d601f19601f820116820180604052508101906103529190610970565b600260009054906101000a900473ffffffffffffffffffffffffffffffffffffffff1673ffffffffffffffffffffffffffffffffffffffff166318160ddd6040518163ffffffff1660e01b815260040160206040518083038186803b1580156103ba57600080fd5b505afa1580156103ce573d6000803e3d6000fd5b505050506040513d601f19601f820116820180604052508101906103f29190610970565b6103fc9190610b1c565b905080915050919050565b60008073ffffffffffffffffffffffffffffffffffffffff16600160009054906101000a900473ffffffffffffffffffffffffffffffffffffffff1673ffffffffffffffffffffffffffffffffffffffff161461050557600160009054906101000a900473ffffffffffffffffffffffffffffffffffffffff1673ffffffffffffffffffffffffffffffffffffffff166329cb924d6040518163ffffffff1660e01b815260040160206040518083038186803b1580156104c657600080fd5b505afa1580156104da573d6000803e3d6000fd5b505050506040513d601f19601f820116820180604052508101906104fe9190610970565b9050610509565b4290505b90565b7f000000000000000000000000000000000000000000000000000000000000000081565b600080600360009054906101000a900473ffffffffffffffffffffffffffffffffffffffff1673ffffffffffffffffffffffffffffffffffffffff166370a08231846040518263ffffffff1660e01b815260040161058e9190610a5f565b60206040518083038186803b1580156105a657600080fd5b505afa1580156105ba573d6000803e3d6000fd5b505050506040513d601f19601f820116820180604052508101906105de9190610970565b600260009054906101000a900473ffffffffffffffffffffffffffffffffffffffff1673ffffffffffffffffffffffffffffffffffffffff166370a08231856040518263ffffffff1660e01b81526004016106399190610a5f565b60206040518083038186803b15801561065157600080fd5b505afa158015610665573d6000803e3d6000fd5b505050506040513d601f19601f820116820180604052508101906106899190610970565b6106939190610b1c565b905060008114156106a85760009150506106ad565b809150505b92915050565b7f000000000000000000000000000000000000000000000000000000000000000081565b600060019054906101000a900460ff16806106fd575060008054906101000a900460ff16155b61073c576040517f08c379a000000000000000000000000000000000000000000000000000000000815260040161073390610ad0565b60405180910390fd5b600060029054906101000a900473ffffffffffffffffffffffffffffffffffffffff1673ffffffffffffffffffffffffffffffffffffffff163373ffffffffffffffffffffffffffffffffffffffff16146107cc576040517f08c379a00000000000000000000000000000000000000000000000000000000081526004016107c390610ab0565b60405180910390fd5b60008060019054906101000a900460ff16159050801561081c576001600060016101000a81548160ff02191690831515021790555060016000806101000a81548160ff0219169083151502179055505b82600260006101000a81548173ffffffffffffffffffffffffffffffffffffffff021916908373ffffffffffffffffffffffffffffffffffffffff16021790555081600360006101000a81548173ffffffffffffffffffffffffffffffffffffffff021916908373ffffffffffffffffffffffffffffffffffffffff16021790555080156108bf5760008060016101000a81548160ff0219169083151502179055505b505050565b6000813590506108d381610c74565b92915050565b6000813590506108e881610c8b565b92915050565b6000815190506108fd81610c8b565b92915050565b6000806040838503121561091a57610919610c1d565b5b6000610928858286016108c4565b9250506020610939858286016108c4565b9150509250929050565b60006020828403121561095957610958610c1d565b5b6000610967848285016108d9565b91505092915050565b60006020828403121561098657610985610c1d565b5b6000610994848285016108ee565b91505092915050565b600080604083850312156109b4576109b3610c1d565b5b60006109c2858286016108d9565b92505060206109d3858286016108c4565b9150509250929050565b6109e681610b72565b82525050565b6109f581610b84565b82525050565b610a0481610bb8565b82525050565b6000610a17601c83610b0b565b9150610a2282610c22565b602082019050919050565b6000610a3a601d83610b0b565b9150610a4582610c4b565b602082019050919050565b610a5981610bae565b82525050565b6000602082019050610a7460008301846109dd565b92915050565b6000602082019050610a8f60008301846109ec565b92915050565b6000602082019050610aaa60008301846109fb565b92915050565b60006020820190508181036000830152610ac981610a0a565b9050919050565b60006020820190508181036000830152610ae981610a2d565b9050919050565b6000602082019050610b056000830184610a50565b92915050565b600082825260208201905092915050565b6000610b2782610bae565b9150610b3283610bae565b9250827fffffffffffffffffffffffffffffffffffffffffffffffffffffffffffffffff03821115610b6757610b66610bee565b5b828201905092915050565b6000610b7d82610b8e565b9050919050565b6000819050919050565b600073ffffffffffffffffffffffffffffffffffffffff82169050919050565b6000819050919050565b6000610bc382610bca565b9050919050565b6000610bd582610bdc565b9050919050565b6000610be782610b8e565b9050919050565b7f4e487b7100000000000000000000000000000000000000000000000000000000600052601160045260246000fd5b600080fd5b7f496e69743a204f6e6c79206465706c6f7965722063616e20696e697400000000600082015250565b7f496e69743a20436f6e747261637420697320696e697469616c697a6564000000600082015250565b610c7d81610b72565b8114610c8857600080fd5b50565b610c9481610bae565b8114610c9f57600080fd5b5056fea264697066735822122093585251f659b05f6fc83d59cd90dd7cd87cdce0037c277529d9ffaf1861afa164736f6c63430008070033",
  "linkReferences": {},
  "deployedLinkReferences": {}
}