{
  "_format": "hh-sol-artifact-1",
  "contractName": "VoteWeight",
  "sourceName": "contracts/VoteWeight.sol",
  "abi": [
    {
      "inputs": [
        {
          "internalType": "address",
          "name": "_core",
          "type": "address"
        }
      ],
      "stateMutability": "nonpayable",
      "type": "constructor"
    },
    {
      "inputs": [],
      "name": "IDENTIFIER",
      "outputs": [
        {
          "internalType": "bytes32",
          "name": "",
          "type": "bytes32"
        }
      ],
      "stateMutability": "view",
      "type": "function"
    },
    {
      "inputs": [],
      "name": "core_",
      "outputs": [
        {
          "internalType": "contract ICore",
          "name": "",
          "type": "address"
        }
      ],
      "stateMutability": "view",
      "type": "function"
    },
    {
      "inputs": [
        {
          "internalType": "uint256",
          "name": "_propID",
          "type": "uint256"
        },
        {
          "internalType": "address",
          "name": "_voter",
          "type": "address"
        }
      ],
      "name": "getVoteWeight",
      "outputs": [
        {
          "internalType": "uint256",
          "name": "",
          "type": "uint256"
        }
      ],
      "stateMutability": "nonpayable",
      "type": "function"
    },
    {
      "inputs": [
        {
          "internalType": "address",
          "name": "_govToken",
          "type": "address"
        },
        {
          "internalType": "address",
          "name": "_repToken",
          "type": "address"
        }
      ],
      "name": "initialise",
      "outputs": [],
      "stateMutability": "nonpayable",
      "type": "function"
    }
  ],
  "bytecode": "0x60c060405234801561001057600080fd5b506040516109f93803806109f9833981810160405281019061003291906100f1565b7fcdd7ba10b36b7349d5c9710e5e447ec8acaa8e3cbba8d20f4393eccf61f185b18133600060026101000a81548173ffffffffffffffffffffffffffffffffffffffff021916908373ffffffffffffffffffffffffffffffffffffffff16021790555081608081815250508073ffffffffffffffffffffffffffffffffffffffff1660a08173ffffffffffffffffffffffffffffffffffffffff1660601b8152505050505061016c565b6000815190506100eb81610155565b92915050565b60006020828403121561010757610106610150565b5b6000610115848285016100dc565b91505092915050565b600061012982610130565b9050919050565b600073ffffffffffffffffffffffffffffffffffffffff82169050919050565b600080fd5b61015e8161011e565b811461016957600080fd5b50565b60805160a05160601c610866610193600039600061028e0152600060db01526108666000f3fe608060405234801561001057600080fd5b506004361061004c5760003560e01c80633c9747f3146100515780637eba55731461006f578063eaddd0fd1461009f578063ef88bf13146100bd575b600080fd5b6100596100d9565b60405161006691906105a4565b60405180910390f35b610089600480360381019061008491906104c7565b6100fd565b604051610096919061061a565b60405180910390f35b6100a761028c565b6040516100b491906105bf565b60405180910390f35b6100d760048036038101906100d2919061045a565b6102b0565b005b7f000000000000000000000000000000000000000000000000000000000000000081565b600080600260009054906101000a900473ffffffffffffffffffffffffffffffffffffffff1673ffffffffffffffffffffffffffffffffffffffff166370a08231846040518263ffffffff1660e01b815260040161015b9190610589565b60206040518083038186803b15801561017357600080fd5b505afa158015610187573d6000803e3d6000fd5b505050506040513d601f19601f820116820180604052508101906101ab919061049a565b600160009054906101000a900473ffffffffffffffffffffffffffffffffffffffff1673ffffffffffffffffffffffffffffffffffffffff166370a08231856040518263ffffffff1660e01b81526004016102069190610589565b60206040518083038186803b15801561021e57600080fd5b505afa158015610232573d6000803e3d6000fd5b505050506040513d601f19601f82011682018060405250810190610256919061049a565b6102609190610677565b90506000811415610275576000915050610286565b6002816102829190610646565b9150505b92915050565b7f000000000000000000000000000000000000000000000000000000000000000081565b600060019054906101000a900460ff16806102d6575060008054906101000a900460ff16155b610315576040517f08c379a000000000000000000000000000000000000000000000000000000000815260040161030c906105fa565b60405180910390fd5b600060029054906101000a900473ffffffffffffffffffffffffffffffffffffffff1673ffffffffffffffffffffffffffffffffffffffff163373ffffffffffffffffffffffffffffffffffffffff16146103a5576040517f08c379a000000000000000000000000000000000000000000000000000000000815260040161039c906105da565b60405180910390fd5b60008060019054906101000a900460ff1615905080156103f5576001600060016101000a81548160ff02191690831515021790555060016000806101000a81548160ff0219169083151502179055505b80156104165760008060016101000a81548160ff0219169083151502179055505b505050565b60008135905061042a81610802565b92915050565b60008135905061043f81610819565b92915050565b60008151905061045481610819565b92915050565b60008060408385031215610471576104706107ab565b5b600061047f8582860161041b565b92505060206104908582860161041b565b9150509250929050565b6000602082840312156104b0576104af6107ab565b5b60006104be84828501610445565b91505092915050565b600080604083850312156104de576104dd6107ab565b5b60006104ec85828601610430565b92505060206104fd8582860161041b565b9150509250929050565b610510816106d1565b82525050565b61051f816106e3565b82525050565b61052e81610717565b82525050565b6000610541601c83610635565b915061054c826107b0565b602082019050919050565b6000610564601d83610635565b915061056f826107d9565b602082019050919050565b6105838161070d565b82525050565b600060208201905061059e6000830184610507565b92915050565b60006020820190506105b96000830184610516565b92915050565b60006020820190506105d46000830184610525565b92915050565b600060208201905081810360008301526105f381610534565b9050919050565b6000602082019050818103600083015261061381610557565b9050919050565b600060208201905061062f600083018461057a565b92915050565b600082825260208201905092915050565b60006106518261070d565b915061065c8361070d565b92508261066c5761066b61077c565b5b828204905092915050565b60006106828261070d565b915061068d8361070d565b9250817fffffffffffffffffffffffffffffffffffffffffffffffffffffffffffffffff04831182151516156106c6576106c561074d565b5b828202905092915050565b60006106dc826106ed565b9050919050565b6000819050919050565b600073ffffffffffffffffffffffffffffffffffffffff82169050919050565b6000819050919050565b600061072282610729565b9050919050565b60006107348261073b565b9050919050565b6000610746826106ed565b9050919050565b7f4e487b7100000000000000000000000000000000000000000000000000000000600052601160045260246000fd5b7f4e487b7100000000000000000000000000000000000000000000000000000000600052601260045260246000fd5b600080fd5b7f496e69743a204f6e6c79206465706c6f7965722063616e20696e697400000000600082015250565b7f496e69743a20436f6e747261637420697320696e697469616c697a6564000000600082015250565b61080b816106d1565b811461081657600080fd5b50565b6108228161070d565b811461082d57600080fd5b5056fea264697066735822122033af329ae9245347fe7ca795da959dd0ff0029eb33b16349758c1467c3debf0b64736f6c63430008070033",
  "linkReferences": {},
  "deployedLinkReferences": {}
}