{
  "contracts/Core.sol": {
    "Core": {
      "abi": [
        {
          "inputs": [
            {
              "internalType": "bytes32",
              "name": "_key",
              "type": "bytes32"
            },
            {
              "internalType": "address",
              "name": "_instance",
              "type": "address"
            }
          ],
          "name": "addContract",
          "outputs": [],
          "stateMutability": "nonpayable",
          "type": "function"
        },
        {
          "inputs": [
            {
              "internalType": "uint256",
              "name": "_propID",
              "type": "uint256"
            }
          ],
          "name": "execute",
          "outputs": [],
          "stateMutability": "nonpayable",
          "type": "function"
        },
        {
          "inputs": [
            {
              "internalType": "bytes32",
              "name": "_key",
              "type": "bytes32"
            }
          ],
          "name": "getContract",
          "outputs": [
            {
              "internalType": "address",
              "name": "",
              "type": "address"
            }
          ],
          "stateMutability": "view",
          "type": "function"
        }
      ],
      "devdoc": {
        "kind": "dev",
        "methods": {},
        "version": 1
      },
      "evm": {
        "bytecode": {
          "linkReferences": {},
          "object": "608060405234801561001057600080fd5b50610285806100206000396000f3fe608060405234801561001057600080fd5b50600436106100415760003560e01c80635188f99614610046578063e16c7d9814610062578063fe0d94c114610092575b600080fd5b610060600480360381019061005b9190610128565b6100ae565b005b61007c600480360381019061007791906100fb565b6100b2565b60405161008991906101a4565b60405180910390f35b6100ac60048036038101906100a79190610168565b6100b9565b005b5050565b6000919050565b50565b6000813590506100cb8161020a565b92915050565b6000813590506100e081610221565b92915050565b6000813590506100f581610238565b92915050565b60006020828403121561011157610110610205565b5b600061011f848285016100d1565b91505092915050565b6000806040838503121561013f5761013e610205565b5b600061014d858286016100d1565b925050602061015e858286016100bc565b9150509250929050565b60006020828403121561017e5761017d610205565b5b600061018c848285016100e6565b91505092915050565b61019e816101bf565b82525050565b60006020820190506101b96000830184610195565b92915050565b60006101ca826101db565b9050919050565b6000819050919050565b600073ffffffffffffffffffffffffffffffffffffffff82169050919050565b6000819050919050565b600080fd5b610213816101bf565b811461021e57600080fd5b50565b61022a816101d1565b811461023557600080fd5b50565b610241816101fb565b811461024c57600080fd5b5056fea2646970667358221220eb853508ae009a081f2f815d9461c15ae22055a77ac4ba2c56330a7da321f3dd64736f6c63430008070033",
          "opcodes": "PUSH1 0x80 PUSH1 0x40 MSTORE CALLVALUE DUP1 ISZERO PUSH2 0x10 JUMPI PUSH1 0x0 DUP1 REVERT JUMPDEST POP PUSH2 0x285 DUP1 PUSH2 0x20 PUSH1 0x0 CODECOPY PUSH1 0x0 RETURN INVALID PUSH1 0x80 PUSH1 0x40 MSTORE CALLVALUE DUP1 ISZERO PUSH2 0x10 JUMPI PUSH1 0x0 DUP1 REVERT JUMPDEST POP PUSH1 0x4 CALLDATASIZE LT PUSH2 0x41 JUMPI PUSH1 0x0 CALLDATALOAD PUSH1 0xE0 SHR DUP1 PUSH4 0x5188F996 EQ PUSH2 0x46 JUMPI DUP1 PUSH4 0xE16C7D98 EQ PUSH2 0x62 JUMPI DUP1 PUSH4 0xFE0D94C1 EQ PUSH2 0x92 JUMPI JUMPDEST PUSH1 0x0 DUP1 REVERT JUMPDEST PUSH2 0x60 PUSH1 0x4 DUP1 CALLDATASIZE SUB DUP2 ADD SWAP1 PUSH2 0x5B SWAP2 SWAP1 PUSH2 0x128 JUMP JUMPDEST PUSH2 0xAE JUMP JUMPDEST STOP JUMPDEST PUSH2 0x7C PUSH1 0x4 DUP1 CALLDATASIZE SUB DUP2 ADD SWAP1 PUSH2 0x77 SWAP2 SWAP1 PUSH2 0xFB JUMP JUMPDEST PUSH2 0xB2 JUMP JUMPDEST PUSH1 0x40 MLOAD PUSH2 0x89 SWAP2 SWAP1 PUSH2 0x1A4 JUMP JUMPDEST PUSH1 0x40 MLOAD DUP1 SWAP2 SUB SWAP1 RETURN JUMPDEST PUSH2 0xAC PUSH1 0x4 DUP1 CALLDATASIZE SUB DUP2 ADD SWAP1 PUSH2 0xA7 SWAP2 SWAP1 PUSH2 0x168 JUMP JUMPDEST PUSH2 0xB9 JUMP JUMPDEST STOP JUMPDEST POP POP JUMP JUMPDEST PUSH1 0x0 SWAP2 SWAP1 POP JUMP JUMPDEST POP JUMP JUMPDEST PUSH1 0x0 DUP2 CALLDATALOAD SWAP1 POP PUSH2 0xCB DUP2 PUSH2 0x20A JUMP JUMPDEST SWAP3 SWAP2 POP POP JUMP JUMPDEST PUSH1 0x0 DUP2 CALLDATALOAD SWAP1 POP PUSH2 0xE0 DUP2 PUSH2 0x221 JUMP JUMPDEST SWAP3 SWAP2 POP POP JUMP JUMPDEST PUSH1 0x0 DUP2 CALLDATALOAD SWAP1 POP PUSH2 0xF5 DUP2 PUSH2 0x238 JUMP JUMPDEST SWAP3 SWAP2 POP POP JUMP JUMPDEST PUSH1 0x0 PUSH1 0x20 DUP3 DUP5 SUB SLT ISZERO PUSH2 0x111 JUMPI PUSH2 0x110 PUSH2 0x205 JUMP JUMPDEST JUMPDEST PUSH1 0x0 PUSH2 0x11F DUP5 DUP3 DUP6 ADD PUSH2 0xD1 JUMP JUMPDEST SWAP2 POP POP SWAP3 SWAP2 POP POP JUMP JUMPDEST PUSH1 0x0 DUP1 PUSH1 0x40 DUP4 DUP6 SUB SLT ISZERO PUSH2 0x13F JUMPI PUSH2 0x13E PUSH2 0x205 JUMP JUMPDEST JUMPDEST PUSH1 0x0 PUSH2 0x14D DUP6 DUP3 DUP7 ADD PUSH2 0xD1 JUMP JUMPDEST SWAP3 POP POP PUSH1 0x20 PUSH2 0x15E DUP6 DUP3 DUP7 ADD PUSH2 0xBC JUMP JUMPDEST SWAP2 POP POP SWAP3 POP SWAP3 SWAP1 POP JUMP JUMPDEST PUSH1 0x0 PUSH1 0x20 DUP3 DUP5 SUB SLT ISZERO PUSH2 0x17E JUMPI PUSH2 0x17D PUSH2 0x205 JUMP JUMPDEST JUMPDEST PUSH1 0x0 PUSH2 0x18C DUP5 DUP3 DUP6 ADD PUSH2 0xE6 JUMP JUMPDEST SWAP2 POP POP SWAP3 SWAP2 POP POP JUMP JUMPDEST PUSH2 0x19E DUP2 PUSH2 0x1BF JUMP JUMPDEST DUP3 MSTORE POP POP JUMP JUMPDEST PUSH1 0x0 PUSH1 0x20 DUP3 ADD SWAP1 POP PUSH2 0x1B9 PUSH1 0x0 DUP4 ADD DUP5 PUSH2 0x195 JUMP JUMPDEST SWAP3 SWAP2 POP POP JUMP JUMPDEST PUSH1 0x0 PUSH2 0x1CA DUP3 PUSH2 0x1DB JUMP JUMPDEST SWAP1 POP SWAP2 SWAP1 POP JUMP JUMPDEST PUSH1 0x0 DUP2 SWAP1 POP SWAP2 SWAP1 POP JUMP JUMPDEST PUSH1 0x0 PUSH20 0xFFFFFFFFFFFFFFFFFFFFFFFFFFFFFFFFFFFFFFFF DUP3 AND SWAP1 POP SWAP2 SWAP1 POP JUMP JUMPDEST PUSH1 0x0 DUP2 SWAP1 POP SWAP2 SWAP1 POP JUMP JUMPDEST PUSH1 0x0 DUP1 REVERT JUMPDEST PUSH2 0x213 DUP2 PUSH2 0x1BF JUMP JUMPDEST DUP2 EQ PUSH2 0x21E JUMPI PUSH1 0x0 DUP1 REVERT JUMPDEST POP JUMP JUMPDEST PUSH2 0x22A DUP2 PUSH2 0x1D1 JUMP JUMPDEST DUP2 EQ PUSH2 0x235 JUMPI PUSH1 0x0 DUP1 REVERT JUMPDEST POP JUMP JUMPDEST PUSH2 0x241 DUP2 PUSH2 0x1FB JUMP JUMPDEST DUP2 EQ PUSH2 0x24C JUMPI PUSH1 0x0 DUP1 REVERT JUMPDEST POP JUMP INVALID LOG2 PUSH5 0x6970667358 0x22 SLT KECCAK256 0xEB DUP6 CALLDATALOAD ADDMOD 0xAE STOP SWAP11 ADDMOD 0x1F 0x2F DUP2 0x5D SWAP5 PUSH2 0xC15A 0xE2 KECCAK256 SSTORE 0xA7 PUSH27 0xC4BA2C56330A7DA321F3DD64736F6C634300080700330000000000 "
        },
        "methodIdentifiers": {
          "addContract(bytes32,address)": "5188f996",
          "execute(uint256)": "fe0d94c1",
          "getContract(bytes32)": "e16c7d98"
        }
      },
      "userdoc": {
        "kind": "user",
        "methods": {},
        "version": 1
      }
    }
  }
}