{
  "contracts/Executables.sol": {
    "Executables": {
      "abi": [
        {
          "inputs": [
            {
              "internalType": "address[]",
              "name": "_targets",
              "type": "address[]"
            },
            {
              "internalType": "string[]",
              "name": "_functionSignatures",
              "type": "string[]"
            },
            {
              "internalType": "bytes[]",
              "name": "_encodedParameters",
              "type": "bytes[]"
            },
            {
              "internalType": "uint256[]",
              "name": "_values",
              "type": "uint256[]"
            },
            {
              "internalType": "string",
              "name": "_description",
              "type": "string"
            }
          ],
          "name": "createExe",
          "outputs": [
            {
              "internalType": "bytes32",
              "name": "exeID",
              "type": "bytes32"
            }
          ],
          "stateMutability": "nonpayable",
          "type": "function"
        },
        {
          "inputs": [
            {
              "internalType": "bytes32",
              "name": "_exeID",
              "type": "bytes32"
            }
          ],
          "name": "getExe",
          "outputs": [
            {
              "internalType": "address[]",
              "name": "targets",
              "type": "address[]"
            },
            {
              "internalType": "bytes[]",
              "name": "callData",
              "type": "bytes[]"
            },
            {
              "internalType": "uint256[]",
              "name": "values",
              "type": "uint256[]"
            }
          ],
          "stateMutability": "view",
          "type": "function"
        },
        {
          "inputs": [
            {
              "internalType": "bytes32",
              "name": "_exeID",
              "type": "bytes32"
            }
          ],
          "name": "getExeInfo",
          "outputs": [
            {
              "internalType": "address[]",
              "name": "targets",
              "type": "address[]"
            },
            {
              "internalType": "bytes[]",
              "name": "callData",
              "type": "bytes[]"
            },
            {
              "internalType": "uint256[]",
              "name": "values",
              "type": "uint256[]"
            },
            {
              "internalType": "string",
              "name": "description",
              "type": "string"
            },
            {
              "internalType": "address",
              "name": "creator",
              "type": "address"
            }
          ],
          "stateMutability": "view",
          "type": "function"
        }
      ],
      "devdoc": {
        "kind": "dev",
        "methods": {},
        "version": 1
      },
      "evm": {
        "bytecode": {
          "linkReferences": {},
          "object": "608060405234801561001057600080fd5b506108e8806100206000396000f3fe608060405234801561001057600080fd5b50600436106100415760003560e01c8063184b9ce514610046578063971aa75e14610076578063e0751326146100a8575b600080fd5b610060600480360381019061005b91906102d2565b6100dc565b60405161006d91906106fa565b60405180910390f35b610090600480360381019061008b91906103ef565b6100f2565b60405161009f9392919061063f565b60405180910390f35b6100c260048036038101906100bd91906103ef565b6100fe565b6040516100d395949392919061068b565b60405180910390f35b60008060001b90509a9950505050505050505050565b60608060609193909250565b606080606080600091939590929450565b60008083601f84011261012557610124610876565b5b8235905067ffffffffffffffff81111561014257610141610871565b5b60208301915083602082028301111561015e5761015d61087b565b5b9250929050565b60008083601f84011261017b5761017a610876565b5b8235905067ffffffffffffffff81111561019857610197610871565b5b6020830191508360208202830111156101b4576101b361087b565b5b9250929050565b60008083601f8401126101d1576101d0610876565b5b8235905067ffffffffffffffff8111156101ee576101ed610871565b5b60208301915083602082028301111561020a5761020961087b565b5b9250929050565b60008083601f84011261022757610226610876565b5b8235905067ffffffffffffffff81111561024457610243610871565b5b6020830191508360208202830111156102605761025f61087b565b5b9250929050565b6000813590506102768161089b565b92915050565b60008083601f84011261029257610291610876565b5b8235905067ffffffffffffffff8111156102af576102ae610871565b5b6020830191508360018202830111156102cb576102ca61087b565b5b9250929050565b60008060008060008060008060008060a08b8d0312156102f5576102f4610885565b5b60008b013567ffffffffffffffff81111561031357610312610880565b5b61031f8d828e0161010f565b9a509a505060208b013567ffffffffffffffff81111561034257610341610880565b5b61034e8d828e016101bb565b985098505060408b013567ffffffffffffffff81111561037157610370610880565b5b61037d8d828e01610165565b965096505060608b013567ffffffffffffffff8111156103a05761039f610880565b5b6103ac8d828e01610211565b945094505060808b013567ffffffffffffffff8111156103cf576103ce610880565b5b6103db8d828e0161027c565b92509250509295989b9194979a5092959850565b60006020828403121561040557610404610885565b5b600061041384828501610267565b91505092915050565b60006104288383610460565b60208301905092915050565b600061044083836105be565b905092915050565b60006104548383610630565b60208301905092915050565b610469816107f8565b82525050565b610478816107f8565b82525050565b600061048982610745565b61049381856107a3565b935061049e83610715565b8060005b838110156104cf5781516104b6888261041c565b97506104c18361077c565b9250506001810190506104a2565b5085935050505092915050565b60006104e782610750565b6104f181856107b4565b93508360208202850161050385610725565b8060005b8581101561053f57848403895281516105208582610434565b945061052b83610789565b925060208a01995050600181019050610507565b50829750879550505050505092915050565b600061055c8261075b565b61056681856107c5565b935061057183610735565b8060005b838110156105a25781516105898882610448565b975061059483610796565b925050600181019050610575565b5085935050505092915050565b6105b88161080a565b82525050565b60006105c982610766565b6105d381856107d6565b93506105e381856020860161083e565b6105ec8161088a565b840191505092915050565b600061060282610771565b61060c81856107e7565b935061061c81856020860161083e565b6106258161088a565b840191505092915050565b61063981610834565b82525050565b60006060820190508181036000830152610659818661047e565b9050818103602083015261066d81856104dc565b905081810360408301526106818184610551565b9050949350505050565b600060a08201905081810360008301526106a5818861047e565b905081810360208301526106b981876104dc565b905081810360408301526106cd8186610551565b905081810360608301526106e181856105f7565b90506106f0608083018461046f565b9695505050505050565b600060208201905061070f60008301846105af565b92915050565b6000819050602082019050919050565b6000819050602082019050919050565b6000819050602082019050919050565b600081519050919050565b600081519050919050565b600081519050919050565b600081519050919050565b600081519050919050565b6000602082019050919050565b6000602082019050919050565b6000602082019050919050565b600082825260208201905092915050565b600082825260208201905092915050565b600082825260208201905092915050565b600082825260208201905092915050565b600082825260208201905092915050565b600061080382610814565b9050919050565b6000819050919050565b600073ffffffffffffffffffffffffffffffffffffffff82169050919050565b6000819050919050565b60005b8381101561085c578082015181840152602081019050610841565b8381111561086b576000848401525b50505050565b600080fd5b600080fd5b600080fd5b600080fd5b600080fd5b6000601f19601f8301169050919050565b6108a48161080a565b81146108af57600080fd5b5056fea26469706673582212207154f1534721d157ce688427dfcf76693dd0b8b9877cfb30ce5d23c18954d47064736f6c63430008070033",
          "opcodes": "PUSH1 0x80 PUSH1 0x40 MSTORE CALLVALUE DUP1 ISZERO PUSH2 0x10 JUMPI PUSH1 0x0 DUP1 REVERT JUMPDEST POP PUSH2 0x8E8 DUP1 PUSH2 0x20 PUSH1 0x0 CODECOPY PUSH1 0x0 RETURN INVALID PUSH1 0x80 PUSH1 0x40 MSTORE CALLVALUE DUP1 ISZERO PUSH2 0x10 JUMPI PUSH1 0x0 DUP1 REVERT JUMPDEST POP PUSH1 0x4 CALLDATASIZE LT PUSH2 0x41 JUMPI PUSH1 0x0 CALLDATALOAD PUSH1 0xE0 SHR DUP1 PUSH4 0x184B9CE5 EQ PUSH2 0x46 JUMPI DUP1 PUSH4 0x971AA75E EQ PUSH2 0x76 JUMPI DUP1 PUSH4 0xE0751326 EQ PUSH2 0xA8 JUMPI JUMPDEST PUSH1 0x0 DUP1 REVERT JUMPDEST PUSH2 0x60 PUSH1 0x4 DUP1 CALLDATASIZE SUB DUP2 ADD SWAP1 PUSH2 0x5B SWAP2 SWAP1 PUSH2 0x2D2 JUMP JUMPDEST PUSH2 0xDC JUMP JUMPDEST PUSH1 0x40 MLOAD PUSH2 0x6D SWAP2 SWAP1 PUSH2 0x6FA JUMP JUMPDEST PUSH1 0x40 MLOAD DUP1 SWAP2 SUB SWAP1 RETURN JUMPDEST PUSH2 0x90 PUSH1 0x4 DUP1 CALLDATASIZE SUB DUP2 ADD SWAP1 PUSH2 0x8B SWAP2 SWAP1 PUSH2 0x3EF JUMP JUMPDEST PUSH2 0xF2 JUMP JUMPDEST PUSH1 0x40 MLOAD PUSH2 0x9F SWAP4 SWAP3 SWAP2 SWAP1 PUSH2 0x63F JUMP JUMPDEST PUSH1 0x40 MLOAD DUP1 SWAP2 SUB SWAP1 RETURN JUMPDEST PUSH2 0xC2 PUSH1 0x4 DUP1 CALLDATASIZE SUB DUP2 ADD SWAP1 PUSH2 0xBD SWAP2 SWAP1 PUSH2 0x3EF JUMP JUMPDEST PUSH2 0xFE JUMP JUMPDEST PUSH1 0x40 MLOAD PUSH2 0xD3 SWAP6 SWAP5 SWAP4 SWAP3 SWAP2 SWAP1 PUSH2 0x68B JUMP JUMPDEST PUSH1 0x40 MLOAD DUP1 SWAP2 SUB SWAP1 RETURN JUMPDEST PUSH1 0x0 DUP1 PUSH1 0x0 SHL SWAP1 POP SWAP11 SWAP10 POP POP POP POP POP POP POP POP POP POP JUMP JUMPDEST PUSH1 0x60 DUP1 PUSH1 0x60 SWAP2 SWAP4 SWAP1 SWAP3 POP JUMP JUMPDEST PUSH1 0x60 DUP1 PUSH1 0x60 DUP1 PUSH1 0x0 SWAP2 SWAP4 SWAP6 SWAP1 SWAP3 SWAP5 POP JUMP JUMPDEST PUSH1 0x0 DUP1 DUP4 PUSH1 0x1F DUP5 ADD SLT PUSH2 0x125 JUMPI PUSH2 0x124 PUSH2 0x876 JUMP JUMPDEST JUMPDEST DUP3 CALLDATALOAD SWAP1 POP PUSH8 0xFFFFFFFFFFFFFFFF DUP2 GT ISZERO PUSH2 0x142 JUMPI PUSH2 0x141 PUSH2 0x871 JUMP JUMPDEST JUMPDEST PUSH1 0x20 DUP4 ADD SWAP2 POP DUP4 PUSH1 0x20 DUP3 MUL DUP4 ADD GT ISZERO PUSH2 0x15E JUMPI PUSH2 0x15D PUSH2 0x87B JUMP JUMPDEST JUMPDEST SWAP3 POP SWAP3 SWAP1 POP JUMP JUMPDEST PUSH1 0x0 DUP1 DUP4 PUSH1 0x1F DUP5 ADD SLT PUSH2 0x17B JUMPI PUSH2 0x17A PUSH2 0x876 JUMP JUMPDEST JUMPDEST DUP3 CALLDATALOAD SWAP1 POP PUSH8 0xFFFFFFFFFFFFFFFF DUP2 GT ISZERO PUSH2 0x198 JUMPI PUSH2 0x197 PUSH2 0x871 JUMP JUMPDEST JUMPDEST PUSH1 0x20 DUP4 ADD SWAP2 POP DUP4 PUSH1 0x20 DUP3 MUL DUP4 ADD GT ISZERO PUSH2 0x1B4 JUMPI PUSH2 0x1B3 PUSH2 0x87B JUMP JUMPDEST JUMPDEST SWAP3 POP SWAP3 SWAP1 POP JUMP JUMPDEST PUSH1 0x0 DUP1 DUP4 PUSH1 0x1F DUP5 ADD SLT PUSH2 0x1D1 JUMPI PUSH2 0x1D0 PUSH2 0x876 JUMP JUMPDEST JUMPDEST DUP3 CALLDATALOAD SWAP1 POP PUSH8 0xFFFFFFFFFFFFFFFF DUP2 GT ISZERO PUSH2 0x1EE JUMPI PUSH2 0x1ED PUSH2 0x871 JUMP JUMPDEST JUMPDEST PUSH1 0x20 DUP4 ADD SWAP2 POP DUP4 PUSH1 0x20 DUP3 MUL DUP4 ADD GT ISZERO PUSH2 0x20A JUMPI PUSH2 0x209 PUSH2 0x87B JUMP JUMPDEST JUMPDEST SWAP3 POP SWAP3 SWAP1 POP JUMP JUMPDEST PUSH1 0x0 DUP1 DUP4 PUSH1 0x1F DUP5 ADD SLT PUSH2 0x227 JUMPI PUSH2 0x226 PUSH2 0x876 JUMP JUMPDEST JUMPDEST DUP3 CALLDATALOAD SWAP1 POP PUSH8 0xFFFFFFFFFFFFFFFF DUP2 GT ISZERO PUSH2 0x244 JUMPI PUSH2 0x243 PUSH2 0x871 JUMP JUMPDEST JUMPDEST PUSH1 0x20 DUP4 ADD SWAP2 POP DUP4 PUSH1 0x20 DUP3 MUL DUP4 ADD GT ISZERO PUSH2 0x260 JUMPI PUSH2 0x25F PUSH2 0x87B JUMP JUMPDEST JUMPDEST SWAP3 POP SWAP3 SWAP1 POP JUMP JUMPDEST PUSH1 0x0 DUP2 CALLDATALOAD SWAP1 POP PUSH2 0x276 DUP2 PUSH2 0x89B JUMP JUMPDEST SWAP3 SWAP2 POP POP JUMP JUMPDEST PUSH1 0x0 DUP1 DUP4 PUSH1 0x1F DUP5 ADD SLT PUSH2 0x292 JUMPI PUSH2 0x291 PUSH2 0x876 JUMP JUMPDEST JUMPDEST DUP3 CALLDATALOAD SWAP1 POP PUSH8 0xFFFFFFFFFFFFFFFF DUP2 GT ISZERO PUSH2 0x2AF JUMPI PUSH2 0x2AE PUSH2 0x871 JUMP JUMPDEST JUMPDEST PUSH1 0x20 DUP4 ADD SWAP2 POP DUP4 PUSH1 0x1 DUP3 MUL DUP4 ADD GT ISZERO PUSH2 0x2CB JUMPI PUSH2 0x2CA PUSH2 0x87B JUMP JUMPDEST JUMPDEST SWAP3 POP SWAP3 SWAP1 POP JUMP JUMPDEST PUSH1 0x0 DUP1 PUSH1 0x0 DUP1 PUSH1 0x0 DUP1 PUSH1 0x0 DUP1 PUSH1 0x0 DUP1 PUSH1 0xA0 DUP12 DUP14 SUB SLT ISZERO PUSH2 0x2F5 JUMPI PUSH2 0x2F4 PUSH2 0x885 JUMP JUMPDEST JUMPDEST PUSH1 0x0 DUP12 ADD CALLDATALOAD PUSH8 0xFFFFFFFFFFFFFFFF DUP2 GT ISZERO PUSH2 0x313 JUMPI PUSH2 0x312 PUSH2 0x880 JUMP JUMPDEST JUMPDEST PUSH2 0x31F DUP14 DUP3 DUP15 ADD PUSH2 0x10F JUMP JUMPDEST SWAP11 POP SWAP11 POP POP PUSH1 0x20 DUP12 ADD CALLDATALOAD PUSH8 0xFFFFFFFFFFFFFFFF DUP2 GT ISZERO PUSH2 0x342 JUMPI PUSH2 0x341 PUSH2 0x880 JUMP JUMPDEST JUMPDEST PUSH2 0x34E DUP14 DUP3 DUP15 ADD PUSH2 0x1BB JUMP JUMPDEST SWAP9 POP SWAP9 POP POP PUSH1 0x40 DUP12 ADD CALLDATALOAD PUSH8 0xFFFFFFFFFFFFFFFF DUP2 GT ISZERO PUSH2 0x371 JUMPI PUSH2 0x370 PUSH2 0x880 JUMP JUMPDEST JUMPDEST PUSH2 0x37D DUP14 DUP3 DUP15 ADD PUSH2 0x165 JUMP JUMPDEST SWAP7 POP SWAP7 POP POP PUSH1 0x60 DUP12 ADD CALLDATALOAD PUSH8 0xFFFFFFFFFFFFFFFF DUP2 GT ISZERO PUSH2 0x3A0 JUMPI PUSH2 0x39F PUSH2 0x880 JUMP JUMPDEST JUMPDEST PUSH2 0x3AC DUP14 DUP3 DUP15 ADD PUSH2 0x211 JUMP JUMPDEST SWAP5 POP SWAP5 POP POP PUSH1 0x80 DUP12 ADD CALLDATALOAD PUSH8 0xFFFFFFFFFFFFFFFF DUP2 GT ISZERO PUSH2 0x3CF JUMPI PUSH2 0x3CE PUSH2 0x880 JUMP JUMPDEST JUMPDEST PUSH2 0x3DB DUP14 DUP3 DUP15 ADD PUSH2 0x27C JUMP JUMPDEST SWAP3 POP SWAP3 POP POP SWAP3 SWAP6 SWAP9 SWAP12 SWAP2 SWAP5 SWAP8 SWAP11 POP SWAP3 SWAP6 SWAP9 POP JUMP JUMPDEST PUSH1 0x0 PUSH1 0x20 DUP3 DUP5 SUB SLT ISZERO PUSH2 0x405 JUMPI PUSH2 0x404 PUSH2 0x885 JUMP JUMPDEST JUMPDEST PUSH1 0x0 PUSH2 0x413 DUP5 DUP3 DUP6 ADD PUSH2 0x267 JUMP JUMPDEST SWAP2 POP POP SWAP3 SWAP2 POP POP JUMP JUMPDEST PUSH1 0x0 PUSH2 0x428 DUP4 DUP4 PUSH2 0x460 JUMP JUMPDEST PUSH1 0x20 DUP4 ADD SWAP1 POP SWAP3 SWAP2 POP POP JUMP JUMPDEST PUSH1 0x0 PUSH2 0x440 DUP4 DUP4 PUSH2 0x5BE JUMP JUMPDEST SWAP1 POP SWAP3 SWAP2 POP POP JUMP JUMPDEST PUSH1 0x0 PUSH2 0x454 DUP4 DUP4 PUSH2 0x630 JUMP JUMPDEST PUSH1 0x20 DUP4 ADD SWAP1 POP SWAP3 SWAP2 POP POP JUMP JUMPDEST PUSH2 0x469 DUP2 PUSH2 0x7F8 JUMP JUMPDEST DUP3 MSTORE POP POP JUMP JUMPDEST PUSH2 0x478 DUP2 PUSH2 0x7F8 JUMP JUMPDEST DUP3 MSTORE POP POP JUMP JUMPDEST PUSH1 0x0 PUSH2 0x489 DUP3 PUSH2 0x745 JUMP JUMPDEST PUSH2 0x493 DUP2 DUP6 PUSH2 0x7A3 JUMP JUMPDEST SWAP4 POP PUSH2 0x49E DUP4 PUSH2 0x715 JUMP JUMPDEST DUP1 PUSH1 0x0 JUMPDEST DUP4 DUP2 LT ISZERO PUSH2 0x4CF JUMPI DUP2 MLOAD PUSH2 0x4B6 DUP9 DUP3 PUSH2 0x41C JUMP JUMPDEST SWAP8 POP PUSH2 0x4C1 DUP4 PUSH2 0x77C JUMP JUMPDEST SWAP3 POP POP PUSH1 0x1 DUP2 ADD SWAP1 POP PUSH2 0x4A2 JUMP JUMPDEST POP DUP6 SWAP4 POP POP POP POP SWAP3 SWAP2 POP POP JUMP JUMPDEST PUSH1 0x0 PUSH2 0x4E7 DUP3 PUSH2 0x750 JUMP JUMPDEST PUSH2 0x4F1 DUP2 DUP6 PUSH2 0x7B4 JUMP JUMPDEST SWAP4 POP DUP4 PUSH1 0x20 DUP3 MUL DUP6 ADD PUSH2 0x503 DUP6 PUSH2 0x725 JUMP JUMPDEST DUP1 PUSH1 0x0 JUMPDEST DUP6 DUP2 LT ISZERO PUSH2 0x53F JUMPI DUP5 DUP5 SUB DUP10 MSTORE DUP2 MLOAD PUSH2 0x520 DUP6 DUP3 PUSH2 0x434 JUMP JUMPDEST SWAP5 POP PUSH2 0x52B DUP4 PUSH2 0x789 JUMP JUMPDEST SWAP3 POP PUSH1 0x20 DUP11 ADD SWAP10 POP POP PUSH1 0x1 DUP2 ADD SWAP1 POP PUSH2 0x507 JUMP JUMPDEST POP DUP3 SWAP8 POP DUP8 SWAP6 POP POP POP POP POP POP SWAP3 SWAP2 POP POP JUMP JUMPDEST PUSH1 0x0 PUSH2 0x55C DUP3 PUSH2 0x75B JUMP JUMPDEST PUSH2 0x566 DUP2 DUP6 PUSH2 0x7C5 JUMP JUMPDEST SWAP4 POP PUSH2 0x571 DUP4 PUSH2 0x735 JUMP JUMPDEST DUP1 PUSH1 0x0 JUMPDEST DUP4 DUP2 LT ISZERO PUSH2 0x5A2 JUMPI DUP2 MLOAD PUSH2 0x589 DUP9 DUP3 PUSH2 0x448 JUMP JUMPDEST SWAP8 POP PUSH2 0x594 DUP4 PUSH2 0x796 JUMP JUMPDEST SWAP3 POP POP PUSH1 0x1 DUP2 ADD SWAP1 POP PUSH2 0x575 JUMP JUMPDEST POP DUP6 SWAP4 POP POP POP POP SWAP3 SWAP2 POP POP JUMP JUMPDEST PUSH2 0x5B8 DUP2 PUSH2 0x80A JUMP JUMPDEST DUP3 MSTORE POP POP JUMP JUMPDEST PUSH1 0x0 PUSH2 0x5C9 DUP3 PUSH2 0x766 JUMP JUMPDEST PUSH2 0x5D3 DUP2 DUP6 PUSH2 0x7D6 JUMP JUMPDEST SWAP4 POP PUSH2 0x5E3 DUP2 DUP6 PUSH1 0x20 DUP7 ADD PUSH2 0x83E JUMP JUMPDEST PUSH2 0x5EC DUP2 PUSH2 0x88A JUMP JUMPDEST DUP5 ADD SWAP2 POP POP SWAP3 SWAP2 POP POP JUMP JUMPDEST PUSH1 0x0 PUSH2 0x602 DUP3 PUSH2 0x771 JUMP JUMPDEST PUSH2 0x60C DUP2 DUP6 PUSH2 0x7E7 JUMP JUMPDEST SWAP4 POP PUSH2 0x61C DUP2 DUP6 PUSH1 0x20 DUP7 ADD PUSH2 0x83E JUMP JUMPDEST PUSH2 0x625 DUP2 PUSH2 0x88A JUMP JUMPDEST DUP5 ADD SWAP2 POP POP SWAP3 SWAP2 POP POP JUMP JUMPDEST PUSH2 0x639 DUP2 PUSH2 0x834 JUMP JUMPDEST DUP3 MSTORE POP POP JUMP JUMPDEST PUSH1 0x0 PUSH1 0x60 DUP3 ADD SWAP1 POP DUP2 DUP2 SUB PUSH1 0x0 DUP4 ADD MSTORE PUSH2 0x659 DUP2 DUP7 PUSH2 0x47E JUMP JUMPDEST SWAP1 POP DUP2 DUP2 SUB PUSH1 0x20 DUP4 ADD MSTORE PUSH2 0x66D DUP2 DUP6 PUSH2 0x4DC JUMP JUMPDEST SWAP1 POP DUP2 DUP2 SUB PUSH1 0x40 DUP4 ADD MSTORE PUSH2 0x681 DUP2 DUP5 PUSH2 0x551 JUMP JUMPDEST SWAP1 POP SWAP5 SWAP4 POP POP POP POP JUMP JUMPDEST PUSH1 0x0 PUSH1 0xA0 DUP3 ADD SWAP1 POP DUP2 DUP2 SUB PUSH1 0x0 DUP4 ADD MSTORE PUSH2 0x6A5 DUP2 DUP9 PUSH2 0x47E JUMP JUMPDEST SWAP1 POP DUP2 DUP2 SUB PUSH1 0x20 DUP4 ADD MSTORE PUSH2 0x6B9 DUP2 DUP8 PUSH2 0x4DC JUMP JUMPDEST SWAP1 POP DUP2 DUP2 SUB PUSH1 0x40 DUP4 ADD MSTORE PUSH2 0x6CD DUP2 DUP7 PUSH2 0x551 JUMP JUMPDEST SWAP1 POP DUP2 DUP2 SUB PUSH1 0x60 DUP4 ADD MSTORE PUSH2 0x6E1 DUP2 DUP6 PUSH2 0x5F7 JUMP JUMPDEST SWAP1 POP PUSH2 0x6F0 PUSH1 0x80 DUP4 ADD DUP5 PUSH2 0x46F JUMP JUMPDEST SWAP7 SWAP6 POP POP POP POP POP POP JUMP JUMPDEST PUSH1 0x0 PUSH1 0x20 DUP3 ADD SWAP1 POP PUSH2 0x70F PUSH1 0x0 DUP4 ADD DUP5 PUSH2 0x5AF JUMP JUMPDEST SWAP3 SWAP2 POP POP JUMP JUMPDEST PUSH1 0x0 DUP2 SWAP1 POP PUSH1 0x20 DUP3 ADD SWAP1 POP SWAP2 SWAP1 POP JUMP JUMPDEST PUSH1 0x0 DUP2 SWAP1 POP PUSH1 0x20 DUP3 ADD SWAP1 POP SWAP2 SWAP1 POP JUMP JUMPDEST PUSH1 0x0 DUP2 SWAP1 POP PUSH1 0x20 DUP3 ADD SWAP1 POP SWAP2 SWAP1 POP JUMP JUMPDEST PUSH1 0x0 DUP2 MLOAD SWAP1 POP SWAP2 SWAP1 POP JUMP JUMPDEST PUSH1 0x0 DUP2 MLOAD SWAP1 POP SWAP2 SWAP1 POP JUMP JUMPDEST PUSH1 0x0 DUP2 MLOAD SWAP1 POP SWAP2 SWAP1 POP JUMP JUMPDEST PUSH1 0x0 DUP2 MLOAD SWAP1 POP SWAP2 SWAP1 POP JUMP JUMPDEST PUSH1 0x0 DUP2 MLOAD SWAP1 POP SWAP2 SWAP1 POP JUMP JUMPDEST PUSH1 0x0 PUSH1 0x20 DUP3 ADD SWAP1 POP SWAP2 SWAP1 POP JUMP JUMPDEST PUSH1 0x0 PUSH1 0x20 DUP3 ADD SWAP1 POP SWAP2 SWAP1 POP JUMP JUMPDEST PUSH1 0x0 PUSH1 0x20 DUP3 ADD SWAP1 POP SWAP2 SWAP1 POP JUMP JUMPDEST PUSH1 0x0 DUP3 DUP3 MSTORE PUSH1 0x20 DUP3 ADD SWAP1 POP SWAP3 SWAP2 POP POP JUMP JUMPDEST PUSH1 0x0 DUP3 DUP3 MSTORE PUSH1 0x20 DUP3 ADD SWAP1 POP SWAP3 SWAP2 POP POP JUMP JUMPDEST PUSH1 0x0 DUP3 DUP3 MSTORE PUSH1 0x20 DUP3 ADD SWAP1 POP SWAP3 SWAP2 POP POP JUMP JUMPDEST PUSH1 0x0 DUP3 DUP3 MSTORE PUSH1 0x20 DUP3 ADD SWAP1 POP SWAP3 SWAP2 POP POP JUMP JUMPDEST PUSH1 0x0 DUP3 DUP3 MSTORE PUSH1 0x20 DUP3 ADD SWAP1 POP SWAP3 SWAP2 POP POP JUMP JUMPDEST PUSH1 0x0 PUSH2 0x803 DUP3 PUSH2 0x814 JUMP JUMPDEST SWAP1 POP SWAP2 SWAP1 POP JUMP JUMPDEST PUSH1 0x0 DUP2 SWAP1 POP SWAP2 SWAP1 POP JUMP JUMPDEST PUSH1 0x0 PUSH20 0xFFFFFFFFFFFFFFFFFFFFFFFFFFFFFFFFFFFFFFFF DUP3 AND SWAP1 POP SWAP2 SWAP1 POP JUMP JUMPDEST PUSH1 0x0 DUP2 SWAP1 POP SWAP2 SWAP1 POP JUMP JUMPDEST PUSH1 0x0 JUMPDEST DUP4 DUP2 LT ISZERO PUSH2 0x85C JUMPI DUP1 DUP3 ADD MLOAD DUP2 DUP5 ADD MSTORE PUSH1 0x20 DUP2 ADD SWAP1 POP PUSH2 0x841 JUMP JUMPDEST DUP4 DUP2 GT ISZERO PUSH2 0x86B JUMPI PUSH1 0x0 DUP5 DUP5 ADD MSTORE JUMPDEST POP POP POP POP JUMP JUMPDEST PUSH1 0x0 DUP1 REVERT JUMPDEST PUSH1 0x0 DUP1 REVERT JUMPDEST PUSH1 0x0 DUP1 REVERT JUMPDEST PUSH1 0x0 DUP1 REVERT JUMPDEST PUSH1 0x0 DUP1 REVERT JUMPDEST PUSH1 0x0 PUSH1 0x1F NOT PUSH1 0x1F DUP4 ADD AND SWAP1 POP SWAP2 SWAP1 POP JUMP JUMPDEST PUSH2 0x8A4 DUP2 PUSH2 0x80A JUMP JUMPDEST DUP2 EQ PUSH2 0x8AF JUMPI PUSH1 0x0 DUP1 REVERT JUMPDEST POP JUMP INVALID LOG2 PUSH5 0x6970667358 0x22 SLT KECCAK256 PUSH18 0x54F1534721D157CE688427DFCF76693DD0B8 0xB9 DUP8 PUSH29 0xFB30CE5D23C18954D47064736F6C634300080700330000000000000000 "
        },
        "methodIdentifiers": {
          "createExe(address[],string[],bytes[],uint256[],string)": "184b9ce5",
          "getExe(bytes32)": "971aa75e",
          "getExeInfo(bytes32)": "e0751326"
        }
      },
      "userdoc": {
        "kind": "user",
        "methods": {},
        "version": 1
      }
    }
  }
}