{
  "contracts/Proposals.sol": {
    "Proposals": {
      "abi": [
        {
          "inputs": [
            {
              "internalType": "address",
              "name": "_core",
              "type": "address"
            }
          ],
          "stateMutability": "nonpayable",
          "type": "constructor"
        },
        {
          "anonymous": false,
          "inputs": [
            {
              "indexed": true,
              "internalType": "uint256",
              "name": "propID",
              "type": "uint256"
            },
            {
              "indexed": false,
              "internalType": "bytes32",
              "name": "voteType",
              "type": "bytes32"
            },
            {
              "indexed": false,
              "internalType": "bytes32",
              "name": "exeID",
              "type": "bytes32"
            }
          ],
          "name": "NewProposal",
          "type": "event"
        },
        {
          "inputs": [],
          "name": "IDENTIFIER",
          "outputs": [
            {
              "internalType": "bytes32",
              "name": "",
              "type": "bytes32"
            }
          ],
          "stateMutability": "view",
          "type": "function"
        },
        {
          "inputs": [],
          "name": "core_",
          "outputs": [
            {
              "internalType": "contract ICore",
              "name": "",
              "type": "address"
            }
          ],
          "stateMutability": "view",
          "type": "function"
        },
        {
          "inputs": [
            {
              "internalType": "string",
              "name": "_description",
              "type": "string"
            },
            {
              "internalType": "bytes32",
              "name": "_voteType",
              "type": "bytes32"
            },
            {
              "internalType": "bytes32",
              "name": "_consensusType",
              "type": "bytes32"
            },
            {
              "internalType": "bytes32",
              "name": "_exeID",
              "type": "bytes32"
            }
          ],
          "name": "createPropWithExe",
          "outputs": [
            {
              "internalType": "uint256",
              "name": "propID",
              "type": "uint256"
            }
          ],
          "stateMutability": "nonpayable",
          "type": "function"
        }
      ],
      "devdoc": {
        "kind": "dev",
        "methods": {},
        "version": 1
      },
      "evm": {
        "bytecode": {
          "linkReferences": {},
          "object": "60c060405234801561001057600080fd5b50604051610a56380380610a56833981810160405281019061003291906100b0565b7f36209a57dfd79e3872ec3a0c88c653bbe7e32a12306e5e1f92f118c1936ae8b28181608081815250508073ffffffffffffffffffffffffffffffffffffffff1660a08173ffffffffffffffffffffffffffffffffffffffff1660601b8152505050505061012b565b6000815190506100aa81610114565b92915050565b6000602082840312156100c6576100c561010f565b5b60006100d48482850161009b565b91505092915050565b60006100e8826100ef565b9050919050565b600073ffffffffffffffffffffffffffffffffffffffff82169050919050565b600080fd5b61011d816100dd565b811461012857600080fd5b50565b60805160a05160601c6108fe6101586000396000818160db01526103960152600060b401526108fe6000f3fe608060405234801561001057600080fd5b50600436106100415760003560e01c80633c9747f314610046578063797efb1314610064578063eaddd0fd14610094575b600080fd5b61004e6100b2565b60405161005b9190610622565b60405180910390f35b61007e6004803603810190610079919061054a565b6100d6565b60405161008b91906106a1565b60405180910390f35b61009c610394565b6040516100a99190610666565b60405180910390f35b7f000000000000000000000000000000000000000000000000000000000000000081565b6000807f000000000000000000000000000000000000000000000000000000000000000073ffffffffffffffffffffffffffffffffffffffff1663624a23e07f59e2d72f5870ccddd14d35394bd3c22374071b2da7c07a3d6c3b690400b736286040518263ffffffff1660e01b81526004016101529190610622565b60206040518083038186803b15801561016a57600080fd5b505afa15801561017e573d6000803e3d6000fd5b505050506040513d601f19601f820116820180604052508101906101a291906104f0565b905060016000808282546101b691906106f6565b92505081905550600054915060008173ffffffffffffffffffffffffffffffffffffffff1663204d67b584866040518363ffffffff1660e01b81526004016101ff9291906106bc565b602060405180830381600087803b15801561021957600080fd5b505af115801561022d573d6000803e3d6000fd5b505050506040513d601f19601f82011682018060405250810190610251919061051d565b90506000801b811415610299576040517f08c379a000000000000000000000000000000000000000000000000000000000815260040161029090610681565b60405180910390fd5b604051806080016040528089898080601f016020809104026020016040519081016040528093929190818152602001838380828437600081840152601f19601f8201169050808301925050505050505081526020018781526020018681526020018281525060016000858152602001908152602001600020600082015181600001908051906020019061032d9291906103b8565b50602082015181600101556040820151816002015560608201518160030155905050827fd09c21af7d62fb6a6f8db8e76b5238e863e9c869d30855d48674fc78fe2e09e4878660405161038192919061063d565b60405180910390a2505095945050505050565b7f000000000000000000000000000000000000000000000000000000000000000081565b8280546103c4906107c8565b90600052602060002090601f0160209004810192826103e6576000855561042d565b82601f106103ff57805160ff191683800117855561042d565b8280016001018555821561042d579182015b8281111561042c578251825591602001919060010190610411565b5b50905061043a919061043e565b5090565b5b8082111561045757600081600090555060010161043f565b5090565b60008151905061046a8161089a565b92915050565b60008135905061047f816108b1565b92915050565b600081519050610494816108b1565b92915050565b60008083601f8401126104b0576104af61085d565b5b8235905067ffffffffffffffff8111156104cd576104cc610858565b5b6020830191508360018202830111156104e9576104e8610862565b5b9250929050565b6000602082840312156105065761050561086c565b5b60006105148482850161045b565b91505092915050565b6000602082840312156105335761053261086c565b5b600061054184828501610485565b91505092915050565b6000806000806000608086880312156105665761056561086c565b5b600086013567ffffffffffffffff81111561058457610583610867565b5b6105908882890161049a565b955095505060206105a388828901610470565b93505060406105b488828901610470565b92505060606105c588828901610470565b9150509295509295909350565b6105db8161075e565b82525050565b6105ea81610792565b82525050565b60006105fd6018836106e5565b915061060882610871565b602082019050919050565b61061c81610788565b82525050565b600060208201905061063760008301846105d2565b92915050565b600060408201905061065260008301856105d2565b61065f60208301846105d2565b9392505050565b600060208201905061067b60008301846105e1565b92915050565b6000602082019050818103600083015261069a816105f0565b9050919050565b60006020820190506106b66000830184610613565b92915050565b60006040820190506106d16000830185610613565b6106de60208301846105d2565b9392505050565b600082825260208201905092915050565b600061070182610788565b915061070c83610788565b9250827fffffffffffffffffffffffffffffffffffffffffffffffffffffffffffffffff03821115610741576107406107fa565b5b828201905092915050565b600061075782610768565b9050919050565b6000819050919050565b600073ffffffffffffffffffffffffffffffffffffffff82169050919050565b6000819050919050565b600061079d826107a4565b9050919050565b60006107af826107b6565b9050919050565b60006107c182610768565b9050919050565b600060028204905060018216806107e057607f821691505b602082108114156107f4576107f3610829565b5b50919050565b7f4e487b7100000000000000000000000000000000000000000000000000000000600052601160045260246000fd5b7f4e487b7100000000000000000000000000000000000000000000000000000000600052602260045260246000fd5b600080fd5b600080fd5b600080fd5b600080fd5b600080fd5b7f50726f703a2045786520646f6573206e6f742065786973740000000000000000600082015250565b6108a38161074c565b81146108ae57600080fd5b50565b6108ba8161075e565b81146108c557600080fd5b5056fea2646970667358221220ce1db0b009357427e06c81d7a56b1e2d58d10998e7af9777e1f35043a992832f64736f6c63430008070033",
          "opcodes": "PUSH1 0xC0 PUSH1 0x40 MSTORE CALLVALUE DUP1 ISZERO PUSH2 0x10 JUMPI PUSH1 0x0 DUP1 REVERT JUMPDEST POP PUSH1 0x40 MLOAD PUSH2 0xA56 CODESIZE SUB DUP1 PUSH2 0xA56 DUP4 CODECOPY DUP2 DUP2 ADD PUSH1 0x40 MSTORE DUP2 ADD SWAP1 PUSH2 0x32 SWAP2 SWAP1 PUSH2 0xB0 JUMP JUMPDEST PUSH32 0x36209A57DFD79E3872EC3A0C88C653BBE7E32A12306E5E1F92F118C1936AE8B2 DUP2 DUP2 PUSH1 0x80 DUP2 DUP2 MSTORE POP POP DUP1 PUSH20 0xFFFFFFFFFFFFFFFFFFFFFFFFFFFFFFFFFFFFFFFF AND PUSH1 0xA0 DUP2 PUSH20 0xFFFFFFFFFFFFFFFFFFFFFFFFFFFFFFFFFFFFFFFF AND PUSH1 0x60 SHL DUP2 MSTORE POP POP POP POP POP PUSH2 0x12B JUMP JUMPDEST PUSH1 0x0 DUP2 MLOAD SWAP1 POP PUSH2 0xAA DUP2 PUSH2 0x114 JUMP JUMPDEST SWAP3 SWAP2 POP POP JUMP JUMPDEST PUSH1 0x0 PUSH1 0x20 DUP3 DUP5 SUB SLT ISZERO PUSH2 0xC6 JUMPI PUSH2 0xC5 PUSH2 0x10F JUMP JUMPDEST JUMPDEST PUSH1 0x0 PUSH2 0xD4 DUP5 DUP3 DUP6 ADD PUSH2 0x9B JUMP JUMPDEST SWAP2 POP POP SWAP3 SWAP2 POP POP JUMP JUMPDEST PUSH1 0x0 PUSH2 0xE8 DUP3 PUSH2 0xEF JUMP JUMPDEST SWAP1 POP SWAP2 SWAP1 POP JUMP JUMPDEST PUSH1 0x0 PUSH20 0xFFFFFFFFFFFFFFFFFFFFFFFFFFFFFFFFFFFFFFFF DUP3 AND SWAP1 POP SWAP2 SWAP1 POP JUMP JUMPDEST PUSH1 0x0 DUP1 REVERT JUMPDEST PUSH2 0x11D DUP2 PUSH2 0xDD JUMP JUMPDEST DUP2 EQ PUSH2 0x128 JUMPI PUSH1 0x0 DUP1 REVERT JUMPDEST POP JUMP JUMPDEST PUSH1 0x80 MLOAD PUSH1 0xA0 MLOAD PUSH1 0x60 SHR PUSH2 0x8FE PUSH2 0x158 PUSH1 0x0 CODECOPY PUSH1 0x0 DUP2 DUP2 PUSH1 0xDB ADD MSTORE PUSH2 0x396 ADD MSTORE PUSH1 0x0 PUSH1 0xB4 ADD MSTORE PUSH2 0x8FE PUSH1 0x0 RETURN INVALID PUSH1 0x80 PUSH1 0x40 MSTORE CALLVALUE DUP1 ISZERO PUSH2 0x10 JUMPI PUSH1 0x0 DUP1 REVERT JUMPDEST POP PUSH1 0x4 CALLDATASIZE LT PUSH2 0x41 JUMPI PUSH1 0x0 CALLDATALOAD PUSH1 0xE0 SHR DUP1 PUSH4 0x3C9747F3 EQ PUSH2 0x46 JUMPI DUP1 PUSH4 0x797EFB13 EQ PUSH2 0x64 JUMPI DUP1 PUSH4 0xEADDD0FD EQ PUSH2 0x94 JUMPI JUMPDEST PUSH1 0x0 DUP1 REVERT JUMPDEST PUSH2 0x4E PUSH2 0xB2 JUMP JUMPDEST PUSH1 0x40 MLOAD PUSH2 0x5B SWAP2 SWAP1 PUSH2 0x622 JUMP JUMPDEST PUSH1 0x40 MLOAD DUP1 SWAP2 SUB SWAP1 RETURN JUMPDEST PUSH2 0x7E PUSH1 0x4 DUP1 CALLDATASIZE SUB DUP2 ADD SWAP1 PUSH2 0x79 SWAP2 SWAP1 PUSH2 0x54A JUMP JUMPDEST PUSH2 0xD6 JUMP JUMPDEST PUSH1 0x40 MLOAD PUSH2 0x8B SWAP2 SWAP1 PUSH2 0x6A1 JUMP JUMPDEST PUSH1 0x40 MLOAD DUP1 SWAP2 SUB SWAP1 RETURN JUMPDEST PUSH2 0x9C PUSH2 0x394 JUMP JUMPDEST PUSH1 0x40 MLOAD PUSH2 0xA9 SWAP2 SWAP1 PUSH2 0x666 JUMP JUMPDEST PUSH1 0x40 MLOAD DUP1 SWAP2 SUB SWAP1 RETURN JUMPDEST PUSH32 0x0 DUP2 JUMP JUMPDEST PUSH1 0x0 DUP1 PUSH32 0x0 PUSH20 0xFFFFFFFFFFFFFFFFFFFFFFFFFFFFFFFFFFFFFFFF AND PUSH4 0x624A23E0 PUSH32 0x59E2D72F5870CCDDD14D35394BD3C22374071B2DA7C07A3D6C3B690400B73628 PUSH1 0x40 MLOAD DUP3 PUSH4 0xFFFFFFFF AND PUSH1 0xE0 SHL DUP2 MSTORE PUSH1 0x4 ADD PUSH2 0x152 SWAP2 SWAP1 PUSH2 0x622 JUMP JUMPDEST PUSH1 0x20 PUSH1 0x40 MLOAD DUP1 DUP4 SUB DUP2 DUP7 DUP1 EXTCODESIZE ISZERO DUP1 ISZERO PUSH2 0x16A JUMPI PUSH1 0x0 DUP1 REVERT JUMPDEST POP GAS STATICCALL ISZERO DUP1 ISZERO PUSH2 0x17E JUMPI RETURNDATASIZE PUSH1 0x0 DUP1 RETURNDATACOPY RETURNDATASIZE PUSH1 0x0 REVERT JUMPDEST POP POP POP POP PUSH1 0x40 MLOAD RETURNDATASIZE PUSH1 0x1F NOT PUSH1 0x1F DUP3 ADD AND DUP3 ADD DUP1 PUSH1 0x40 MSTORE POP DUP2 ADD SWAP1 PUSH2 0x1A2 SWAP2 SWAP1 PUSH2 0x4F0 JUMP JUMPDEST SWAP1 POP PUSH1 0x1 PUSH1 0x0 DUP1 DUP3 DUP3 SLOAD PUSH2 0x1B6 SWAP2 SWAP1 PUSH2 0x6F6 JUMP JUMPDEST SWAP3 POP POP DUP2 SWAP1 SSTORE POP PUSH1 0x0 SLOAD SWAP2 POP PUSH1 0x0 DUP2 PUSH20 0xFFFFFFFFFFFFFFFFFFFFFFFFFFFFFFFFFFFFFFFF AND PUSH4 0x204D67B5 DUP5 DUP7 PUSH1 0x40 MLOAD DUP4 PUSH4 0xFFFFFFFF AND PUSH1 0xE0 SHL DUP2 MSTORE PUSH1 0x4 ADD PUSH2 0x1FF SWAP3 SWAP2 SWAP1 PUSH2 0x6BC JUMP JUMPDEST PUSH1 0x20 PUSH1 0x40 MLOAD DUP1 DUP4 SUB DUP2 PUSH1 0x0 DUP8 DUP1 EXTCODESIZE ISZERO DUP1 ISZERO PUSH2 0x219 JUMPI PUSH1 0x0 DUP1 REVERT JUMPDEST POP GAS CALL ISZERO DUP1 ISZERO PUSH2 0x22D JUMPI RETURNDATASIZE PUSH1 0x0 DUP1 RETURNDATACOPY RETURNDATASIZE PUSH1 0x0 REVERT JUMPDEST POP POP POP POP PUSH1 0x40 MLOAD RETURNDATASIZE PUSH1 0x1F NOT PUSH1 0x1F DUP3 ADD AND DUP3 ADD DUP1 PUSH1 0x40 MSTORE POP DUP2 ADD SWAP1 PUSH2 0x251 SWAP2 SWAP1 PUSH2 0x51D JUMP JUMPDEST SWAP1 POP PUSH1 0x0 DUP1 SHL DUP2 EQ ISZERO PUSH2 0x299 JUMPI PUSH1 0x40 MLOAD PUSH32 0x8C379A000000000000000000000000000000000000000000000000000000000 DUP2 MSTORE PUSH1 0x4 ADD PUSH2 0x290 SWAP1 PUSH2 0x681 JUMP JUMPDEST PUSH1 0x40 MLOAD DUP1 SWAP2 SUB SWAP1 REVERT JUMPDEST PUSH1 0x40 MLOAD DUP1 PUSH1 0x80 ADD PUSH1 0x40 MSTORE DUP1 DUP10 DUP10 DUP1 DUP1 PUSH1 0x1F ADD PUSH1 0x20 DUP1 SWAP2 DIV MUL PUSH1 0x20 ADD PUSH1 0x40 MLOAD SWAP1 DUP2 ADD PUSH1 0x40 MSTORE DUP1 SWAP4 SWAP3 SWAP2 SWAP1 DUP2 DUP2 MSTORE PUSH1 0x20 ADD DUP4 DUP4 DUP1 DUP3 DUP5 CALLDATACOPY PUSH1 0x0 DUP2 DUP5 ADD MSTORE PUSH1 0x1F NOT PUSH1 0x1F DUP3 ADD AND SWAP1 POP DUP1 DUP4 ADD SWAP3 POP POP POP POP POP POP POP DUP2 MSTORE PUSH1 0x20 ADD DUP8 DUP2 MSTORE PUSH1 0x20 ADD DUP7 DUP2 MSTORE PUSH1 0x20 ADD DUP3 DUP2 MSTORE POP PUSH1 0x1 PUSH1 0x0 DUP6 DUP2 MSTORE PUSH1 0x20 ADD SWAP1 DUP2 MSTORE PUSH1 0x20 ADD PUSH1 0x0 KECCAK256 PUSH1 0x0 DUP3 ADD MLOAD DUP2 PUSH1 0x0 ADD SWAP1 DUP1 MLOAD SWAP1 PUSH1 0x20 ADD SWAP1 PUSH2 0x32D SWAP3 SWAP2 SWAP1 PUSH2 0x3B8 JUMP JUMPDEST POP PUSH1 0x20 DUP3 ADD MLOAD DUP2 PUSH1 0x1 ADD SSTORE PUSH1 0x40 DUP3 ADD MLOAD DUP2 PUSH1 0x2 ADD SSTORE PUSH1 0x60 DUP3 ADD MLOAD DUP2 PUSH1 0x3 ADD SSTORE SWAP1 POP POP DUP3 PUSH32 0xD09C21AF7D62FB6A6F8DB8E76B5238E863E9C869D30855D48674FC78FE2E09E4 DUP8 DUP7 PUSH1 0x40 MLOAD PUSH2 0x381 SWAP3 SWAP2 SWAP1 PUSH2 0x63D JUMP JUMPDEST PUSH1 0x40 MLOAD DUP1 SWAP2 SUB SWAP1 LOG2 POP POP SWAP6 SWAP5 POP POP POP POP POP JUMP JUMPDEST PUSH32 0x0 DUP2 JUMP JUMPDEST DUP3 DUP1 SLOAD PUSH2 0x3C4 SWAP1 PUSH2 0x7C8 JUMP JUMPDEST SWAP1 PUSH1 0x0 MSTORE PUSH1 0x20 PUSH1 0x0 KECCAK256 SWAP1 PUSH1 0x1F ADD PUSH1 0x20 SWAP1 DIV DUP2 ADD SWAP3 DUP3 PUSH2 0x3E6 JUMPI PUSH1 0x0 DUP6 SSTORE PUSH2 0x42D JUMP JUMPDEST DUP3 PUSH1 0x1F LT PUSH2 0x3FF JUMPI DUP1 MLOAD PUSH1 0xFF NOT AND DUP4 DUP1 ADD OR DUP6 SSTORE PUSH2 0x42D JUMP JUMPDEST DUP3 DUP1 ADD PUSH1 0x1 ADD DUP6 SSTORE DUP3 ISZERO PUSH2 0x42D JUMPI SWAP2 DUP3 ADD JUMPDEST DUP3 DUP2 GT ISZERO PUSH2 0x42C JUMPI DUP3 MLOAD DUP3 SSTORE SWAP2 PUSH1 0x20 ADD SWAP2 SWAP1 PUSH1 0x1 ADD SWAP1 PUSH2 0x411 JUMP JUMPDEST JUMPDEST POP SWAP1 POP PUSH2 0x43A SWAP2 SWAP1 PUSH2 0x43E JUMP JUMPDEST POP SWAP1 JUMP JUMPDEST JUMPDEST DUP1 DUP3 GT ISZERO PUSH2 0x457 JUMPI PUSH1 0x0 DUP2 PUSH1 0x0 SWAP1 SSTORE POP PUSH1 0x1 ADD PUSH2 0x43F JUMP JUMPDEST POP SWAP1 JUMP JUMPDEST PUSH1 0x0 DUP2 MLOAD SWAP1 POP PUSH2 0x46A DUP2 PUSH2 0x89A JUMP JUMPDEST SWAP3 SWAP2 POP POP JUMP JUMPDEST PUSH1 0x0 DUP2 CALLDATALOAD SWAP1 POP PUSH2 0x47F DUP2 PUSH2 0x8B1 JUMP JUMPDEST SWAP3 SWAP2 POP POP JUMP JUMPDEST PUSH1 0x0 DUP2 MLOAD SWAP1 POP PUSH2 0x494 DUP2 PUSH2 0x8B1 JUMP JUMPDEST SWAP3 SWAP2 POP POP JUMP JUMPDEST PUSH1 0x0 DUP1 DUP4 PUSH1 0x1F DUP5 ADD SLT PUSH2 0x4B0 JUMPI PUSH2 0x4AF PUSH2 0x85D JUMP JUMPDEST JUMPDEST DUP3 CALLDATALOAD SWAP1 POP PUSH8 0xFFFFFFFFFFFFFFFF DUP2 GT ISZERO PUSH2 0x4CD JUMPI PUSH2 0x4CC PUSH2 0x858 JUMP JUMPDEST JUMPDEST PUSH1 0x20 DUP4 ADD SWAP2 POP DUP4 PUSH1 0x1 DUP3 MUL DUP4 ADD GT ISZERO PUSH2 0x4E9 JUMPI PUSH2 0x4E8 PUSH2 0x862 JUMP JUMPDEST JUMPDEST SWAP3 POP SWAP3 SWAP1 POP JUMP JUMPDEST PUSH1 0x0 PUSH1 0x20 DUP3 DUP5 SUB SLT ISZERO PUSH2 0x506 JUMPI PUSH2 0x505 PUSH2 0x86C JUMP JUMPDEST JUMPDEST PUSH1 0x0 PUSH2 0x514 DUP5 DUP3 DUP6 ADD PUSH2 0x45B JUMP JUMPDEST SWAP2 POP POP SWAP3 SWAP2 POP POP JUMP JUMPDEST PUSH1 0x0 PUSH1 0x20 DUP3 DUP5 SUB SLT ISZERO PUSH2 0x533 JUMPI PUSH2 0x532 PUSH2 0x86C JUMP JUMPDEST JUMPDEST PUSH1 0x0 PUSH2 0x541 DUP5 DUP3 DUP6 ADD PUSH2 0x485 JUMP JUMPDEST SWAP2 POP POP SWAP3 SWAP2 POP POP JUMP JUMPDEST PUSH1 0x0 DUP1 PUSH1 0x0 DUP1 PUSH1 0x0 PUSH1 0x80 DUP7 DUP9 SUB SLT ISZERO PUSH2 0x566 JUMPI PUSH2 0x565 PUSH2 0x86C JUMP JUMPDEST JUMPDEST PUSH1 0x0 DUP7 ADD CALLDATALOAD PUSH8 0xFFFFFFFFFFFFFFFF DUP2 GT ISZERO PUSH2 0x584 JUMPI PUSH2 0x583 PUSH2 0x867 JUMP JUMPDEST JUMPDEST PUSH2 0x590 DUP9 DUP3 DUP10 ADD PUSH2 0x49A JUMP JUMPDEST SWAP6 POP SWAP6 POP POP PUSH1 0x20 PUSH2 0x5A3 DUP9 DUP3 DUP10 ADD PUSH2 0x470 JUMP JUMPDEST SWAP4 POP POP PUSH1 0x40 PUSH2 0x5B4 DUP9 DUP3 DUP10 ADD PUSH2 0x470 JUMP JUMPDEST SWAP3 POP POP PUSH1 0x60 PUSH2 0x5C5 DUP9 DUP3 DUP10 ADD PUSH2 0x470 JUMP JUMPDEST SWAP2 POP POP SWAP3 SWAP6 POP SWAP3 SWAP6 SWAP1 SWAP4 POP JUMP JUMPDEST PUSH2 0x5DB DUP2 PUSH2 0x75E JUMP JUMPDEST DUP3 MSTORE POP POP JUMP JUMPDEST PUSH2 0x5EA DUP2 PUSH2 0x792 JUMP JUMPDEST DUP3 MSTORE POP POP JUMP JUMPDEST PUSH1 0x0 PUSH2 0x5FD PUSH1 0x18 DUP4 PUSH2 0x6E5 JUMP JUMPDEST SWAP2 POP PUSH2 0x608 DUP3 PUSH2 0x871 JUMP JUMPDEST PUSH1 0x20 DUP3 ADD SWAP1 POP SWAP2 SWAP1 POP JUMP JUMPDEST PUSH2 0x61C DUP2 PUSH2 0x788 JUMP JUMPDEST DUP3 MSTORE POP POP JUMP JUMPDEST PUSH1 0x0 PUSH1 0x20 DUP3 ADD SWAP1 POP PUSH2 0x637 PUSH1 0x0 DUP4 ADD DUP5 PUSH2 0x5D2 JUMP JUMPDEST SWAP3 SWAP2 POP POP JUMP JUMPDEST PUSH1 0x0 PUSH1 0x40 DUP3 ADD SWAP1 POP PUSH2 0x652 PUSH1 0x0 DUP4 ADD DUP6 PUSH2 0x5D2 JUMP JUMPDEST PUSH2 0x65F PUSH1 0x20 DUP4 ADD DUP5 PUSH2 0x5D2 JUMP JUMPDEST SWAP4 SWAP3 POP POP POP JUMP JUMPDEST PUSH1 0x0 PUSH1 0x20 DUP3 ADD SWAP1 POP PUSH2 0x67B PUSH1 0x0 DUP4 ADD DUP5 PUSH2 0x5E1 JUMP JUMPDEST SWAP3 SWAP2 POP POP JUMP JUMPDEST PUSH1 0x0 PUSH1 0x20 DUP3 ADD SWAP1 POP DUP2 DUP2 SUB PUSH1 0x0 DUP4 ADD MSTORE PUSH2 0x69A DUP2 PUSH2 0x5F0 JUMP JUMPDEST SWAP1 POP SWAP2 SWAP1 POP JUMP JUMPDEST PUSH1 0x0 PUSH1 0x20 DUP3 ADD SWAP1 POP PUSH2 0x6B6 PUSH1 0x0 DUP4 ADD DUP5 PUSH2 0x613 JUMP JUMPDEST SWAP3 SWAP2 POP POP JUMP JUMPDEST PUSH1 0x0 PUSH1 0x40 DUP3 ADD SWAP1 POP PUSH2 0x6D1 PUSH1 0x0 DUP4 ADD DUP6 PUSH2 0x613 JUMP JUMPDEST PUSH2 0x6DE PUSH1 0x20 DUP4 ADD DUP5 PUSH2 0x5D2 JUMP JUMPDEST SWAP4 SWAP3 POP POP POP JUMP JUMPDEST PUSH1 0x0 DUP3 DUP3 MSTORE PUSH1 0x20 DUP3 ADD SWAP1 POP SWAP3 SWAP2 POP POP JUMP JUMPDEST PUSH1 0x0 PUSH2 0x701 DUP3 PUSH2 0x788 JUMP JUMPDEST SWAP2 POP PUSH2 0x70C DUP4 PUSH2 0x788 JUMP JUMPDEST SWAP3 POP DUP3 PUSH32 0xFFFFFFFFFFFFFFFFFFFFFFFFFFFFFFFFFFFFFFFFFFFFFFFFFFFFFFFFFFFFFFFF SUB DUP3 GT ISZERO PUSH2 0x741 JUMPI PUSH2 0x740 PUSH2 0x7FA JUMP JUMPDEST JUMPDEST DUP3 DUP3 ADD SWAP1 POP SWAP3 SWAP2 POP POP JUMP JUMPDEST PUSH1 0x0 PUSH2 0x757 DUP3 PUSH2 0x768 JUMP JUMPDEST SWAP1 POP SWAP2 SWAP1 POP JUMP JUMPDEST PUSH1 0x0 DUP2 SWAP1 POP SWAP2 SWAP1 POP JUMP JUMPDEST PUSH1 0x0 PUSH20 0xFFFFFFFFFFFFFFFFFFFFFFFFFFFFFFFFFFFFFFFF DUP3 AND SWAP1 POP SWAP2 SWAP1 POP JUMP JUMPDEST PUSH1 0x0 DUP2 SWAP1 POP SWAP2 SWAP1 POP JUMP JUMPDEST PUSH1 0x0 PUSH2 0x79D DUP3 PUSH2 0x7A4 JUMP JUMPDEST SWAP1 POP SWAP2 SWAP1 POP JUMP JUMPDEST PUSH1 0x0 PUSH2 0x7AF DUP3 PUSH2 0x7B6 JUMP JUMPDEST SWAP1 POP SWAP2 SWAP1 POP JUMP JUMPDEST PUSH1 0x0 PUSH2 0x7C1 DUP3 PUSH2 0x768 JUMP JUMPDEST SWAP1 POP SWAP2 SWAP1 POP JUMP JUMPDEST PUSH1 0x0 PUSH1 0x2 DUP3 DIV SWAP1 POP PUSH1 0x1 DUP3 AND DUP1 PUSH2 0x7E0 JUMPI PUSH1 0x7F DUP3 AND SWAP2 POP JUMPDEST PUSH1 0x20 DUP3 LT DUP2 EQ ISZERO PUSH2 0x7F4 JUMPI PUSH2 0x7F3 PUSH2 0x829 JUMP JUMPDEST JUMPDEST POP SWAP2 SWAP1 POP JUMP JUMPDEST PUSH32 0x4E487B7100000000000000000000000000000000000000000000000000000000 PUSH1 0x0 MSTORE PUSH1 0x11 PUSH1 0x4 MSTORE PUSH1 0x24 PUSH1 0x0 REVERT JUMPDEST PUSH32 0x4E487B7100000000000000000000000000000000000000000000000000000000 PUSH1 0x0 MSTORE PUSH1 0x22 PUSH1 0x4 MSTORE PUSH1 0x24 PUSH1 0x0 REVERT JUMPDEST PUSH1 0x0 DUP1 REVERT JUMPDEST PUSH1 0x0 DUP1 REVERT JUMPDEST PUSH1 0x0 DUP1 REVERT JUMPDEST PUSH1 0x0 DUP1 REVERT JUMPDEST PUSH1 0x0 DUP1 REVERT JUMPDEST PUSH32 0x50726F703A2045786520646F6573206E6F742065786973740000000000000000 PUSH1 0x0 DUP3 ADD MSTORE POP JUMP JUMPDEST PUSH2 0x8A3 DUP2 PUSH2 0x74C JUMP JUMPDEST DUP2 EQ PUSH2 0x8AE JUMPI PUSH1 0x0 DUP1 REVERT JUMPDEST POP JUMP JUMPDEST PUSH2 0x8BA DUP2 PUSH2 0x75E JUMP JUMPDEST DUP2 EQ PUSH2 0x8C5 JUMPI PUSH1 0x0 DUP1 REVERT JUMPDEST POP JUMP INVALID LOG2 PUSH5 0x6970667358 0x22 SLT KECCAK256 0xCE SAR 0xB0 0xB0 MULMOD CALLDATALOAD PUSH21 0x27E06C81D7A56B1E2D58D10998E7AF9777E1F35043 0xA9 SWAP3 DUP4 0x2F PUSH5 0x736F6C6343 STOP ADDMOD SMOD STOP CALLER "
        },
        "methodIdentifiers": {
          "IDENTIFIER()": "3c9747f3",
          "core_()": "eaddd0fd",
          "createPropWithExe(string,bytes32,bytes32,bytes32)": "797efb13"
        }
      },
      "userdoc": {
        "kind": "user",
        "methods": {},
        "version": 1
      }
    }
  }
}