{
  "contracts/Proposals.sol": {
    "Proposals": {
      "abi": [
        {
          "inputs": [
            {
              "internalType": "address",
              "name": "_core",
              "type": "address"
            }
          ],
          "stateMutability": "nonpayable",
          "type": "constructor"
        },
        {
          "inputs": [
            {
              "internalType": "string",
              "name": "_description",
              "type": "string"
            },
            {
              "internalType": "bytes32",
              "name": "_voteType",
              "type": "bytes32"
            },
            {
              "internalType": "bytes32",
              "name": "_consensusType",
              "type": "bytes32"
            },
            {
              "internalType": "bytes32",
              "name": "_exeID",
              "type": "bytes32"
            }
          ],
          "name": "createPropWithExe",
          "outputs": [
            {
              "internalType": "uint256",
              "name": "propID",
              "type": "uint256"
            }
          ],
          "stateMutability": "nonpayable",
          "type": "function"
        }
      ],
      "devdoc": {
        "kind": "dev",
        "methods": {},
        "version": 1
      },
      "evm": {
        "bytecode": {
          "linkReferences": {},
          "object": "60806040523480156200001157600080fd5b5060405162000ac138038062000ac18339818101604052810190620000379190620001b2565b806000806101000a81548173ffffffffffffffffffffffffffffffffffffffff021916908373ffffffffffffffffffffffffffffffffffffffff1602179055507f907208bc2088fa777f18b43edd8b766e7243504cf8497f7ed936c65c7a446bbc60008054906101000a900473ffffffffffffffffffffffffffffffffffffffff1673ffffffffffffffffffffffffffffffffffffffff16633c9747f36040518163ffffffff1660e01b815260040160206040518083038186803b158015620000ff57600080fd5b505afa15801562000114573d6000803e3d6000fd5b505050506040513d601f19601f820116820180604052508101906200013a9190620001e4565b146200017d576040517f08c379a000000000000000000000000000000000000000000000000000000000815260040162000174906200023d565b60405180910390fd5b5062000310565b6000815190506200019581620002dc565b92915050565b600081519050620001ac81620002f6565b92915050565b600060208284031215620001cb57620001ca620002ae565b5b6000620001db8482850162000184565b91505092915050565b600060208284031215620001fd57620001fc620002ae565b5b60006200020d848285016200019b565b91505092915050565b600062000225601a836200025f565b91506200023282620002b3565b602082019050919050565b60006020820190508181036000830152620002588162000216565b9050919050565b600082825260208201905092915050565b60006200027d826200028e565b9050919050565b6000819050919050565b600073ffffffffffffffffffffffffffffffffffffffff82169050919050565b600080fd5b7f436f72653a206964656e74696669657220696e636f7272656374000000000000600082015250565b620002e78162000270565b8114620002f357600080fd5b50565b620003018162000284565b81146200030d57600080fd5b50565b6107a180620003206000396000f3fe608060405234801561001057600080fd5b506004361061002b5760003560e01c8063797efb1314610030575b600080fd5b61004a60048036038101906100459190610476565b610060565b604051610057919061057a565b60405180910390f35b60008060008054906101000a900473ffffffffffffffffffffffffffffffffffffffff1673ffffffffffffffffffffffffffffffffffffffff1663624a23e07f59e2d72f5870ccddd14d35394bd3c22374071b2da7c07a3d6c3b690400b736286040518263ffffffff1660e01b81526004016100dc919061053f565b60206040518083038186803b1580156100f457600080fd5b505afa158015610108573d6000803e3d6000fd5b505050506040513d601f19601f8201168201806040525081019061012c919061041c565b9050600180600082825461014091906105cf565b92505081905550600154915060008173ffffffffffffffffffffffffffffffffffffffff1663204d67b584866040518363ffffffff1660e01b8152600401610189929190610595565b602060405180830381600087803b1580156101a357600080fd5b505af11580156101b7573d6000803e3d6000fd5b505050506040513d601f19601f820116820180604052508101906101db9190610449565b90506000801b811415610223576040517f08c379a000000000000000000000000000000000000000000000000000000000815260040161021a9061055a565b60405180910390fd5b604051806080016040528089898080601f016020809104026020016040519081016040528093929190818152602001838380828437600081840152601f19601f820116905080830192505050505050508152602001878152602001868152602001828152506002600085815260200190815260200160002060008201518160000190805190602001906102b79291906102e4565b50602082015181600101556040820151816002015560608201518160030155905050505095945050505050565b8280546102f09061066b565b90600052602060002090601f0160209004810192826103125760008555610359565b82601f1061032b57805160ff1916838001178555610359565b82800160010185558215610359579182015b8281111561035857825182559160200191906001019061033d565b5b509050610366919061036a565b5090565b5b8082111561038357600081600090555060010161036b565b5090565b6000815190506103968161073d565b92915050565b6000813590506103ab81610754565b92915050565b6000815190506103c081610754565b92915050565b60008083601f8401126103dc576103db610700565b5b8235905067ffffffffffffffff8111156103f9576103f86106fb565b5b60208301915083600182028301111561041557610414610705565b5b9250929050565b6000602082840312156104325761043161070f565b5b600061044084828501610387565b91505092915050565b60006020828403121561045f5761045e61070f565b5b600061046d848285016103b1565b91505092915050565b6000806000806000608086880312156104925761049161070f565b5b600086013567ffffffffffffffff8111156104b0576104af61070a565b5b6104bc888289016103c6565b955095505060206104cf8882890161039c565b93505060406104e08882890161039c565b92505060606104f18882890161039c565b9150509295509295909350565b61050781610637565b82525050565b600061051a6018836105be565b915061052582610714565b602082019050919050565b61053981610661565b82525050565b600060208201905061055460008301846104fe565b92915050565b600060208201905081810360008301526105738161050d565b9050919050565b600060208201905061058f6000830184610530565b92915050565b60006040820190506105aa6000830185610530565b6105b760208301846104fe565b9392505050565b600082825260208201905092915050565b60006105da82610661565b91506105e583610661565b9250827fffffffffffffffffffffffffffffffffffffffffffffffffffffffffffffffff0382111561061a5761061961069d565b5b828201905092915050565b600061063082610641565b9050919050565b6000819050919050565b600073ffffffffffffffffffffffffffffffffffffffff82169050919050565b6000819050919050565b6000600282049050600182168061068357607f821691505b60208210811415610697576106966106cc565b5b50919050565b7f4e487b7100000000000000000000000000000000000000000000000000000000600052601160045260246000fd5b7f4e487b7100000000000000000000000000000000000000000000000000000000600052602260045260246000fd5b600080fd5b600080fd5b600080fd5b600080fd5b600080fd5b7f436f72653a2045786520646f6573206e6f742065786973740000000000000000600082015250565b61074681610625565b811461075157600080fd5b50565b61075d81610637565b811461076857600080fd5b5056fea26469706673582212204d3cc455628914a6885e46acef57f45ace631ab029f33b4b06366966961a480564736f6c63430008070033",
          "opcodes": "PUSH1 0x80 PUSH1 0x40 MSTORE CALLVALUE DUP1 ISZERO PUSH3 0x11 JUMPI PUSH1 0x0 DUP1 REVERT JUMPDEST POP PUSH1 0x40 MLOAD PUSH3 0xAC1 CODESIZE SUB DUP1 PUSH3 0xAC1 DUP4 CODECOPY DUP2 DUP2 ADD PUSH1 0x40 MSTORE DUP2 ADD SWAP1 PUSH3 0x37 SWAP2 SWAP1 PUSH3 0x1B2 JUMP JUMPDEST DUP1 PUSH1 0x0 DUP1 PUSH2 0x100 EXP DUP2 SLOAD DUP2 PUSH20 0xFFFFFFFFFFFFFFFFFFFFFFFFFFFFFFFFFFFFFFFF MUL NOT AND SWAP1 DUP4 PUSH20 0xFFFFFFFFFFFFFFFFFFFFFFFFFFFFFFFFFFFFFFFF AND MUL OR SWAP1 SSTORE POP PUSH32 0x907208BC2088FA777F18B43EDD8B766E7243504CF8497F7ED936C65C7A446BBC PUSH1 0x0 DUP1 SLOAD SWAP1 PUSH2 0x100 EXP SWAP1 DIV PUSH20 0xFFFFFFFFFFFFFFFFFFFFFFFFFFFFFFFFFFFFFFFF AND PUSH20 0xFFFFFFFFFFFFFFFFFFFFFFFFFFFFFFFFFFFFFFFF AND PUSH4 0x3C9747F3 PUSH1 0x40 MLOAD DUP2 PUSH4 0xFFFFFFFF AND PUSH1 0xE0 SHL DUP2 MSTORE PUSH1 0x4 ADD PUSH1 0x20 PUSH1 0x40 MLOAD DUP1 DUP4 SUB DUP2 DUP7 DUP1 EXTCODESIZE ISZERO DUP1 ISZERO PUSH3 0xFF JUMPI PUSH1 0x0 DUP1 REVERT JUMPDEST POP GAS STATICCALL ISZERO DUP1 ISZERO PUSH3 0x114 JUMPI RETURNDATASIZE PUSH1 0x0 DUP1 RETURNDATACOPY RETURNDATASIZE PUSH1 0x0 REVERT JUMPDEST POP POP POP POP PUSH1 0x40 MLOAD RETURNDATASIZE PUSH1 0x1F NOT PUSH1 0x1F DUP3 ADD AND DUP3 ADD DUP1 PUSH1 0x40 MSTORE POP DUP2 ADD SWAP1 PUSH3 0x13A SWAP2 SWAP1 PUSH3 0x1E4 JUMP JUMPDEST EQ PUSH3 0x17D JUMPI PUSH1 0x40 MLOAD PUSH32 0x8C379A000000000000000000000000000000000000000000000000000000000 DUP2 MSTORE PUSH1 0x4 ADD PUSH3 0x174 SWAP1 PUSH3 0x23D JUMP JUMPDEST PUSH1 0x40 MLOAD DUP1 SWAP2 SUB SWAP1 REVERT JUMPDEST POP PUSH3 0x310 JUMP JUMPDEST PUSH1 0x0 DUP2 MLOAD SWAP1 POP PUSH3 0x195 DUP2 PUSH3 0x2DC JUMP JUMPDEST SWAP3 SWAP2 POP POP JUMP JUMPDEST PUSH1 0x0 DUP2 MLOAD SWAP1 POP PUSH3 0x1AC DUP2 PUSH3 0x2F6 JUMP JUMPDEST SWAP3 SWAP2 POP POP JUMP JUMPDEST PUSH1 0x0 PUSH1 0x20 DUP3 DUP5 SUB SLT ISZERO PUSH3 0x1CB JUMPI PUSH3 0x1CA PUSH3 0x2AE JUMP JUMPDEST JUMPDEST PUSH1 0x0 PUSH3 0x1DB DUP5 DUP3 DUP6 ADD PUSH3 0x184 JUMP JUMPDEST SWAP2 POP POP SWAP3 SWAP2 POP POP JUMP JUMPDEST PUSH1 0x0 PUSH1 0x20 DUP3 DUP5 SUB SLT ISZERO PUSH3 0x1FD JUMPI PUSH3 0x1FC PUSH3 0x2AE JUMP JUMPDEST JUMPDEST PUSH1 0x0 PUSH3 0x20D DUP5 DUP3 DUP6 ADD PUSH3 0x19B JUMP JUMPDEST SWAP2 POP POP SWAP3 SWAP2 POP POP JUMP JUMPDEST PUSH1 0x0 PUSH3 0x225 PUSH1 0x1A DUP4 PUSH3 0x25F JUMP JUMPDEST SWAP2 POP PUSH3 0x232 DUP3 PUSH3 0x2B3 JUMP JUMPDEST PUSH1 0x20 DUP3 ADD SWAP1 POP SWAP2 SWAP1 POP JUMP JUMPDEST PUSH1 0x0 PUSH1 0x20 DUP3 ADD SWAP1 POP DUP2 DUP2 SUB PUSH1 0x0 DUP4 ADD MSTORE PUSH3 0x258 DUP2 PUSH3 0x216 JUMP JUMPDEST SWAP1 POP SWAP2 SWAP1 POP JUMP JUMPDEST PUSH1 0x0 DUP3 DUP3 MSTORE PUSH1 0x20 DUP3 ADD SWAP1 POP SWAP3 SWAP2 POP POP JUMP JUMPDEST PUSH1 0x0 PUSH3 0x27D DUP3 PUSH3 0x28E JUMP JUMPDEST SWAP1 POP SWAP2 SWAP1 POP JUMP JUMPDEST PUSH1 0x0 DUP2 SWAP1 POP SWAP2 SWAP1 POP JUMP JUMPDEST PUSH1 0x0 PUSH20 0xFFFFFFFFFFFFFFFFFFFFFFFFFFFFFFFFFFFFFFFF DUP3 AND SWAP1 POP SWAP2 SWAP1 POP JUMP JUMPDEST PUSH1 0x0 DUP1 REVERT JUMPDEST PUSH32 0x436F72653A206964656E74696669657220696E636F7272656374000000000000 PUSH1 0x0 DUP3 ADD MSTORE POP JUMP JUMPDEST PUSH3 0x2E7 DUP2 PUSH3 0x270 JUMP JUMPDEST DUP2 EQ PUSH3 0x2F3 JUMPI PUSH1 0x0 DUP1 REVERT JUMPDEST POP JUMP JUMPDEST PUSH3 0x301 DUP2 PUSH3 0x284 JUMP JUMPDEST DUP2 EQ PUSH3 0x30D JUMPI PUSH1 0x0 DUP1 REVERT JUMPDEST POP JUMP JUMPDEST PUSH2 0x7A1 DUP1 PUSH3 0x320 PUSH1 0x0 CODECOPY PUSH1 0x0 RETURN INVALID PUSH1 0x80 PUSH1 0x40 MSTORE CALLVALUE DUP1 ISZERO PUSH2 0x10 JUMPI PUSH1 0x0 DUP1 REVERT JUMPDEST POP PUSH1 0x4 CALLDATASIZE LT PUSH2 0x2B JUMPI PUSH1 0x0 CALLDATALOAD PUSH1 0xE0 SHR DUP1 PUSH4 0x797EFB13 EQ PUSH2 0x30 JUMPI JUMPDEST PUSH1 0x0 DUP1 REVERT JUMPDEST PUSH2 0x4A PUSH1 0x4 DUP1 CALLDATASIZE SUB DUP2 ADD SWAP1 PUSH2 0x45 SWAP2 SWAP1 PUSH2 0x476 JUMP JUMPDEST PUSH2 0x60 JUMP JUMPDEST PUSH1 0x40 MLOAD PUSH2 0x57 SWAP2 SWAP1 PUSH2 0x57A JUMP JUMPDEST PUSH1 0x40 MLOAD DUP1 SWAP2 SUB SWAP1 RETURN JUMPDEST PUSH1 0x0 DUP1 PUSH1 0x0 DUP1 SLOAD SWAP1 PUSH2 0x100 EXP SWAP1 DIV PUSH20 0xFFFFFFFFFFFFFFFFFFFFFFFFFFFFFFFFFFFFFFFF AND PUSH20 0xFFFFFFFFFFFFFFFFFFFFFFFFFFFFFFFFFFFFFFFF AND PUSH4 0x624A23E0 PUSH32 0x59E2D72F5870CCDDD14D35394BD3C22374071B2DA7C07A3D6C3B690400B73628 PUSH1 0x40 MLOAD DUP3 PUSH4 0xFFFFFFFF AND PUSH1 0xE0 SHL DUP2 MSTORE PUSH1 0x4 ADD PUSH2 0xDC SWAP2 SWAP1 PUSH2 0x53F JUMP JUMPDEST PUSH1 0x20 PUSH1 0x40 MLOAD DUP1 DUP4 SUB DUP2 DUP7 DUP1 EXTCODESIZE ISZERO DUP1 ISZERO PUSH2 0xF4 JUMPI PUSH1 0x0 DUP1 REVERT JUMPDEST POP GAS STATICCALL ISZERO DUP1 ISZERO PUSH2 0x108 JUMPI RETURNDATASIZE PUSH1 0x0 DUP1 RETURNDATACOPY RETURNDATASIZE PUSH1 0x0 REVERT JUMPDEST POP POP POP POP PUSH1 0x40 MLOAD RETURNDATASIZE PUSH1 0x1F NOT PUSH1 0x1F DUP3 ADD AND DUP3 ADD DUP1 PUSH1 0x40 MSTORE POP DUP2 ADD SWAP1 PUSH2 0x12C SWAP2 SWAP1 PUSH2 0x41C JUMP JUMPDEST SWAP1 POP PUSH1 0x1 DUP1 PUSH1 0x0 DUP3 DUP3 SLOAD PUSH2 0x140 SWAP2 SWAP1 PUSH2 0x5CF JUMP JUMPDEST SWAP3 POP POP DUP2 SWAP1 SSTORE POP PUSH1 0x1 SLOAD SWAP2 POP PUSH1 0x0 DUP2 PUSH20 0xFFFFFFFFFFFFFFFFFFFFFFFFFFFFFFFFFFFFFFFF AND PUSH4 0x204D67B5 DUP5 DUP7 PUSH1 0x40 MLOAD DUP4 PUSH4 0xFFFFFFFF AND PUSH1 0xE0 SHL DUP2 MSTORE PUSH1 0x4 ADD PUSH2 0x189 SWAP3 SWAP2 SWAP1 PUSH2 0x595 JUMP JUMPDEST PUSH1 0x20 PUSH1 0x40 MLOAD DUP1 DUP4 SUB DUP2 PUSH1 0x0 DUP8 DUP1 EXTCODESIZE ISZERO DUP1 ISZERO PUSH2 0x1A3 JUMPI PUSH1 0x0 DUP1 REVERT JUMPDEST POP GAS CALL ISZERO DUP1 ISZERO PUSH2 0x1B7 JUMPI RETURNDATASIZE PUSH1 0x0 DUP1 RETURNDATACOPY RETURNDATASIZE PUSH1 0x0 REVERT JUMPDEST POP POP POP POP PUSH1 0x40 MLOAD RETURNDATASIZE PUSH1 0x1F NOT PUSH1 0x1F DUP3 ADD AND DUP3 ADD DUP1 PUSH1 0x40 MSTORE POP DUP2 ADD SWAP1 PUSH2 0x1DB SWAP2 SWAP1 PUSH2 0x449 JUMP JUMPDEST SWAP1 POP PUSH1 0x0 DUP1 SHL DUP2 EQ ISZERO PUSH2 0x223 JUMPI PUSH1 0x40 MLOAD PUSH32 0x8C379A000000000000000000000000000000000000000000000000000000000 DUP2 MSTORE PUSH1 0x4 ADD PUSH2 0x21A SWAP1 PUSH2 0x55A JUMP JUMPDEST PUSH1 0x40 MLOAD DUP1 SWAP2 SUB SWAP1 REVERT JUMPDEST PUSH1 0x40 MLOAD DUP1 PUSH1 0x80 ADD PUSH1 0x40 MSTORE DUP1 DUP10 DUP10 DUP1 DUP1 PUSH1 0x1F ADD PUSH1 0x20 DUP1 SWAP2 DIV MUL PUSH1 0x20 ADD PUSH1 0x40 MLOAD SWAP1 DUP2 ADD PUSH1 0x40 MSTORE DUP1 SWAP4 SWAP3 SWAP2 SWAP1 DUP2 DUP2 MSTORE PUSH1 0x20 ADD DUP4 DUP4 DUP1 DUP3 DUP5 CALLDATACOPY PUSH1 0x0 DUP2 DUP5 ADD MSTORE PUSH1 0x1F NOT PUSH1 0x1F DUP3 ADD AND SWAP1 POP DUP1 DUP4 ADD SWAP3 POP POP POP POP POP POP POP DUP2 MSTORE PUSH1 0x20 ADD DUP8 DUP2 MSTORE PUSH1 0x20 ADD DUP7 DUP2 MSTORE PUSH1 0x20 ADD DUP3 DUP2 MSTORE POP PUSH1 0x2 PUSH1 0x0 DUP6 DUP2 MSTORE PUSH1 0x20 ADD SWAP1 DUP2 MSTORE PUSH1 0x20 ADD PUSH1 0x0 KECCAK256 PUSH1 0x0 DUP3 ADD MLOAD DUP2 PUSH1 0x0 ADD SWAP1 DUP1 MLOAD SWAP1 PUSH1 0x20 ADD SWAP1 PUSH2 0x2B7 SWAP3 SWAP2 SWAP1 PUSH2 0x2E4 JUMP JUMPDEST POP PUSH1 0x20 DUP3 ADD MLOAD DUP2 PUSH1 0x1 ADD SSTORE PUSH1 0x40 DUP3 ADD MLOAD DUP2 PUSH1 0x2 ADD SSTORE PUSH1 0x60 DUP3 ADD MLOAD DUP2 PUSH1 0x3 ADD SSTORE SWAP1 POP POP POP POP SWAP6 SWAP5 POP POP POP POP POP JUMP JUMPDEST DUP3 DUP1 SLOAD PUSH2 0x2F0 SWAP1 PUSH2 0x66B JUMP JUMPDEST SWAP1 PUSH1 0x0 MSTORE PUSH1 0x20 PUSH1 0x0 KECCAK256 SWAP1 PUSH1 0x1F ADD PUSH1 0x20 SWAP1 DIV DUP2 ADD SWAP3 DUP3 PUSH2 0x312 JUMPI PUSH1 0x0 DUP6 SSTORE PUSH2 0x359 JUMP JUMPDEST DUP3 PUSH1 0x1F LT PUSH2 0x32B JUMPI DUP1 MLOAD PUSH1 0xFF NOT AND DUP4 DUP1 ADD OR DUP6 SSTORE PUSH2 0x359 JUMP JUMPDEST DUP3 DUP1 ADD PUSH1 0x1 ADD DUP6 SSTORE DUP3 ISZERO PUSH2 0x359 JUMPI SWAP2 DUP3 ADD JUMPDEST DUP3 DUP2 GT ISZERO PUSH2 0x358 JUMPI DUP3 MLOAD DUP3 SSTORE SWAP2 PUSH1 0x20 ADD SWAP2 SWAP1 PUSH1 0x1 ADD SWAP1 PUSH2 0x33D JUMP JUMPDEST JUMPDEST POP SWAP1 POP PUSH2 0x366 SWAP2 SWAP1 PUSH2 0x36A JUMP JUMPDEST POP SWAP1 JUMP JUMPDEST JUMPDEST DUP1 DUP3 GT ISZERO PUSH2 0x383 JUMPI PUSH1 0x0 DUP2 PUSH1 0x0 SWAP1 SSTORE POP PUSH1 0x1 ADD PUSH2 0x36B JUMP JUMPDEST POP SWAP1 JUMP JUMPDEST PUSH1 0x0 DUP2 MLOAD SWAP1 POP PUSH2 0x396 DUP2 PUSH2 0x73D JUMP JUMPDEST SWAP3 SWAP2 POP POP JUMP JUMPDEST PUSH1 0x0 DUP2 CALLDATALOAD SWAP1 POP PUSH2 0x3AB DUP2 PUSH2 0x754 JUMP JUMPDEST SWAP3 SWAP2 POP POP JUMP JUMPDEST PUSH1 0x0 DUP2 MLOAD SWAP1 POP PUSH2 0x3C0 DUP2 PUSH2 0x754 JUMP JUMPDEST SWAP3 SWAP2 POP POP JUMP JUMPDEST PUSH1 0x0 DUP1 DUP4 PUSH1 0x1F DUP5 ADD SLT PUSH2 0x3DC JUMPI PUSH2 0x3DB PUSH2 0x700 JUMP JUMPDEST JUMPDEST DUP3 CALLDATALOAD SWAP1 POP PUSH8 0xFFFFFFFFFFFFFFFF DUP2 GT ISZERO PUSH2 0x3F9 JUMPI PUSH2 0x3F8 PUSH2 0x6FB JUMP JUMPDEST JUMPDEST PUSH1 0x20 DUP4 ADD SWAP2 POP DUP4 PUSH1 0x1 DUP3 MUL DUP4 ADD GT ISZERO PUSH2 0x415 JUMPI PUSH2 0x414 PUSH2 0x705 JUMP JUMPDEST JUMPDEST SWAP3 POP SWAP3 SWAP1 POP JUMP JUMPDEST PUSH1 0x0 PUSH1 0x20 DUP3 DUP5 SUB SLT ISZERO PUSH2 0x432 JUMPI PUSH2 0x431 PUSH2 0x70F JUMP JUMPDEST JUMPDEST PUSH1 0x0 PUSH2 0x440 DUP5 DUP3 DUP6 ADD PUSH2 0x387 JUMP JUMPDEST SWAP2 POP POP SWAP3 SWAP2 POP POP JUMP JUMPDEST PUSH1 0x0 PUSH1 0x20 DUP3 DUP5 SUB SLT ISZERO PUSH2 0x45F JUMPI PUSH2 0x45E PUSH2 0x70F JUMP JUMPDEST JUMPDEST PUSH1 0x0 PUSH2 0x46D DUP5 DUP3 DUP6 ADD PUSH2 0x3B1 JUMP JUMPDEST SWAP2 POP POP SWAP3 SWAP2 POP POP JUMP JUMPDEST PUSH1 0x0 DUP1 PUSH1 0x0 DUP1 PUSH1 0x0 PUSH1 0x80 DUP7 DUP9 SUB SLT ISZERO PUSH2 0x492 JUMPI PUSH2 0x491 PUSH2 0x70F JUMP JUMPDEST JUMPDEST PUSH1 0x0 DUP7 ADD CALLDATALOAD PUSH8 0xFFFFFFFFFFFFFFFF DUP2 GT ISZERO PUSH2 0x4B0 JUMPI PUSH2 0x4AF PUSH2 0x70A JUMP JUMPDEST JUMPDEST PUSH2 0x4BC DUP9 DUP3 DUP10 ADD PUSH2 0x3C6 JUMP JUMPDEST SWAP6 POP SWAP6 POP POP PUSH1 0x20 PUSH2 0x4CF DUP9 DUP3 DUP10 ADD PUSH2 0x39C JUMP JUMPDEST SWAP4 POP POP PUSH1 0x40 PUSH2 0x4E0 DUP9 DUP3 DUP10 ADD PUSH2 0x39C JUMP JUMPDEST SWAP3 POP POP PUSH1 0x60 PUSH2 0x4F1 DUP9 DUP3 DUP10 ADD PUSH2 0x39C JUMP JUMPDEST SWAP2 POP POP SWAP3 SWAP6 POP SWAP3 SWAP6 SWAP1 SWAP4 POP JUMP JUMPDEST PUSH2 0x507 DUP2 PUSH2 0x637 JUMP JUMPDEST DUP3 MSTORE POP POP JUMP JUMPDEST PUSH1 0x0 PUSH2 0x51A PUSH1 0x18 DUP4 PUSH2 0x5BE JUMP JUMPDEST SWAP2 POP PUSH2 0x525 DUP3 PUSH2 0x714 JUMP JUMPDEST PUSH1 0x20 DUP3 ADD SWAP1 POP SWAP2 SWAP1 POP JUMP JUMPDEST PUSH2 0x539 DUP2 PUSH2 0x661 JUMP JUMPDEST DUP3 MSTORE POP POP JUMP JUMPDEST PUSH1 0x0 PUSH1 0x20 DUP3 ADD SWAP1 POP PUSH2 0x554 PUSH1 0x0 DUP4 ADD DUP5 PUSH2 0x4FE JUMP JUMPDEST SWAP3 SWAP2 POP POP JUMP JUMPDEST PUSH1 0x0 PUSH1 0x20 DUP3 ADD SWAP1 POP DUP2 DUP2 SUB PUSH1 0x0 DUP4 ADD MSTORE PUSH2 0x573 DUP2 PUSH2 0x50D JUMP JUMPDEST SWAP1 POP SWAP2 SWAP1 POP JUMP JUMPDEST PUSH1 0x0 PUSH1 0x20 DUP3 ADD SWAP1 POP PUSH2 0x58F PUSH1 0x0 DUP4 ADD DUP5 PUSH2 0x530 JUMP JUMPDEST SWAP3 SWAP2 POP POP JUMP JUMPDEST PUSH1 0x0 PUSH1 0x40 DUP3 ADD SWAP1 POP PUSH2 0x5AA PUSH1 0x0 DUP4 ADD DUP6 PUSH2 0x530 JUMP JUMPDEST PUSH2 0x5B7 PUSH1 0x20 DUP4 ADD DUP5 PUSH2 0x4FE JUMP JUMPDEST SWAP4 SWAP3 POP POP POP JUMP JUMPDEST PUSH1 0x0 DUP3 DUP3 MSTORE PUSH1 0x20 DUP3 ADD SWAP1 POP SWAP3 SWAP2 POP POP JUMP JUMPDEST PUSH1 0x0 PUSH2 0x5DA DUP3 PUSH2 0x661 JUMP JUMPDEST SWAP2 POP PUSH2 0x5E5 DUP4 PUSH2 0x661 JUMP JUMPDEST SWAP3 POP DUP3 PUSH32 0xFFFFFFFFFFFFFFFFFFFFFFFFFFFFFFFFFFFFFFFFFFFFFFFFFFFFFFFFFFFFFFFF SUB DUP3 GT ISZERO PUSH2 0x61A JUMPI PUSH2 0x619 PUSH2 0x69D JUMP JUMPDEST JUMPDEST DUP3 DUP3 ADD SWAP1 POP SWAP3 SWAP2 POP POP JUMP JUMPDEST PUSH1 0x0 PUSH2 0x630 DUP3 PUSH2 0x641 JUMP JUMPDEST SWAP1 POP SWAP2 SWAP1 POP JUMP JUMPDEST PUSH1 0x0 DUP2 SWAP1 POP SWAP2 SWAP1 POP JUMP JUMPDEST PUSH1 0x0 PUSH20 0xFFFFFFFFFFFFFFFFFFFFFFFFFFFFFFFFFFFFFFFF DUP3 AND SWAP1 POP SWAP2 SWAP1 POP JUMP JUMPDEST PUSH1 0x0 DUP2 SWAP1 POP SWAP2 SWAP1 POP JUMP JUMPDEST PUSH1 0x0 PUSH1 0x2 DUP3 DIV SWAP1 POP PUSH1 0x1 DUP3 AND DUP1 PUSH2 0x683 JUMPI PUSH1 0x7F DUP3 AND SWAP2 POP JUMPDEST PUSH1 0x20 DUP3 LT DUP2 EQ ISZERO PUSH2 0x697 JUMPI PUSH2 0x696 PUSH2 0x6CC JUMP JUMPDEST JUMPDEST POP SWAP2 SWAP1 POP JUMP JUMPDEST PUSH32 0x4E487B7100000000000000000000000000000000000000000000000000000000 PUSH1 0x0 MSTORE PUSH1 0x11 PUSH1 0x4 MSTORE PUSH1 0x24 PUSH1 0x0 REVERT JUMPDEST PUSH32 0x4E487B7100000000000000000000000000000000000000000000000000000000 PUSH1 0x0 MSTORE PUSH1 0x22 PUSH1 0x4 MSTORE PUSH1 0x24 PUSH1 0x0 REVERT JUMPDEST PUSH1 0x0 DUP1 REVERT JUMPDEST PUSH1 0x0 DUP1 REVERT JUMPDEST PUSH1 0x0 DUP1 REVERT JUMPDEST PUSH1 0x0 DUP1 REVERT JUMPDEST PUSH1 0x0 DUP1 REVERT JUMPDEST PUSH32 0x436F72653A2045786520646F6573206E6F742065786973740000000000000000 PUSH1 0x0 DUP3 ADD MSTORE POP JUMP JUMPDEST PUSH2 0x746 DUP2 PUSH2 0x625 JUMP JUMPDEST DUP2 EQ PUSH2 0x751 JUMPI PUSH1 0x0 DUP1 REVERT JUMPDEST POP JUMP JUMPDEST PUSH2 0x75D DUP2 PUSH2 0x637 JUMP JUMPDEST DUP2 EQ PUSH2 0x768 JUMPI PUSH1 0x0 DUP1 REVERT JUMPDEST POP JUMP INVALID LOG2 PUSH5 0x6970667358 0x22 SLT KECCAK256 0x4D EXTCODECOPY 0xC4 SSTORE PUSH3 0x8914A6 DUP9 0x5E CHAINID 0xAC 0xEF JUMPI DELEGATECALL GAS 0xCE PUSH4 0x1AB029F3 EXTCODESIZE 0x4B MOD CALLDATASIZE PUSH10 0x66961A480564736F6C63 NUMBER STOP ADDMOD SMOD STOP CALLER "
        },
        "methodIdentifiers": {
          "createPropWithExe(string,bytes32,bytes32,bytes32)": "797efb13"
        }
      },
      "userdoc": {
        "kind": "user",
        "methods": {},
        "version": 1
      }
    }
  }
}