{
  "contracts/VotingBooth.sol": {
    "VotingBooth": {
      "abi": [
        {
          "inputs": [
            {
              "internalType": "uint256",
              "name": "_propID",
              "type": "uint256"
            },
            {
              "internalType": "bytes32",
              "name": "_vote",
              "type": "bytes32"
            }
          ],
          "name": "vote",
          "outputs": [
            {
              "internalType": "bool",
              "name": "",
              "type": "bool"
            }
          ],
          "stateMutability": "nonpayable",
          "type": "function"
        }
      ],
      "devdoc": {
        "kind": "dev",
        "methods": {},
        "version": 1
      },
      "evm": {
        "bytecode": {
          "linkReferences": {},
          "object": "608060405234801561001057600080fd5b50610189806100206000396000f3fe608060405234801561001057600080fd5b506004361061002b5760003560e01c806368bb8bb614610030575b600080fd5b61004a60048036038101906100459190610096565b610060565b60405161005791906100e5565b60405180910390f35b60006001905092915050565b60008135905061007b81610125565b92915050565b6000813590506100908161013c565b92915050565b600080604083850312156100ad576100ac610120565b5b60006100bb85828601610081565b92505060206100cc8582860161006c565b9150509250929050565b6100df81610100565b82525050565b60006020820190506100fa60008301846100d6565b92915050565b60008115159050919050565b6000819050919050565b6000819050919050565b600080fd5b61012e8161010c565b811461013957600080fd5b50565b61014581610116565b811461015057600080fd5b5056fea264697066735822122093f4f1820406cf5d569f54e99ebf3b8b2a440d2be2e4732ce7f29451fa200e5064736f6c63430008070033",
          "opcodes": "PUSH1 0x80 PUSH1 0x40 MSTORE CALLVALUE DUP1 ISZERO PUSH2 0x10 JUMPI PUSH1 0x0 DUP1 REVERT JUMPDEST POP PUSH2 0x189 DUP1 PUSH2 0x20 PUSH1 0x0 CODECOPY PUSH1 0x0 RETURN INVALID PUSH1 0x80 PUSH1 0x40 MSTORE CALLVALUE DUP1 ISZERO PUSH2 0x10 JUMPI PUSH1 0x0 DUP1 REVERT JUMPDEST POP PUSH1 0x4 CALLDATASIZE LT PUSH2 0x2B JUMPI PUSH1 0x0 CALLDATALOAD PUSH1 0xE0 SHR DUP1 PUSH4 0x68BB8BB6 EQ PUSH2 0x30 JUMPI JUMPDEST PUSH1 0x0 DUP1 REVERT JUMPDEST PUSH2 0x4A PUSH1 0x4 DUP1 CALLDATASIZE SUB DUP2 ADD SWAP1 PUSH2 0x45 SWAP2 SWAP1 PUSH2 0x96 JUMP JUMPDEST PUSH2 0x60 JUMP JUMPDEST PUSH1 0x40 MLOAD PUSH2 0x57 SWAP2 SWAP1 PUSH2 0xE5 JUMP JUMPDEST PUSH1 0x40 MLOAD DUP1 SWAP2 SUB SWAP1 RETURN JUMPDEST PUSH1 0x0 PUSH1 0x1 SWAP1 POP SWAP3 SWAP2 POP POP JUMP JUMPDEST PUSH1 0x0 DUP2 CALLDATALOAD SWAP1 POP PUSH2 0x7B DUP2 PUSH2 0x125 JUMP JUMPDEST SWAP3 SWAP2 POP POP JUMP JUMPDEST PUSH1 0x0 DUP2 CALLDATALOAD SWAP1 POP PUSH2 0x90 DUP2 PUSH2 0x13C JUMP JUMPDEST SWAP3 SWAP2 POP POP JUMP JUMPDEST PUSH1 0x0 DUP1 PUSH1 0x40 DUP4 DUP6 SUB SLT ISZERO PUSH2 0xAD JUMPI PUSH2 0xAC PUSH2 0x120 JUMP JUMPDEST JUMPDEST PUSH1 0x0 PUSH2 0xBB DUP6 DUP3 DUP7 ADD PUSH2 0x81 JUMP JUMPDEST SWAP3 POP POP PUSH1 0x20 PUSH2 0xCC DUP6 DUP3 DUP7 ADD PUSH2 0x6C JUMP JUMPDEST SWAP2 POP POP SWAP3 POP SWAP3 SWAP1 POP JUMP JUMPDEST PUSH2 0xDF DUP2 PUSH2 0x100 JUMP JUMPDEST DUP3 MSTORE POP POP JUMP JUMPDEST PUSH1 0x0 PUSH1 0x20 DUP3 ADD SWAP1 POP PUSH2 0xFA PUSH1 0x0 DUP4 ADD DUP5 PUSH2 0xD6 JUMP JUMPDEST SWAP3 SWAP2 POP POP JUMP JUMPDEST PUSH1 0x0 DUP2 ISZERO ISZERO SWAP1 POP SWAP2 SWAP1 POP JUMP JUMPDEST PUSH1 0x0 DUP2 SWAP1 POP SWAP2 SWAP1 POP JUMP JUMPDEST PUSH1 0x0 DUP2 SWAP1 POP SWAP2 SWAP1 POP JUMP JUMPDEST PUSH1 0x0 DUP1 REVERT JUMPDEST PUSH2 0x12E DUP2 PUSH2 0x10C JUMP JUMPDEST DUP2 EQ PUSH2 0x139 JUMPI PUSH1 0x0 DUP1 REVERT JUMPDEST POP JUMP JUMPDEST PUSH2 0x145 DUP2 PUSH2 0x116 JUMP JUMPDEST DUP2 EQ PUSH2 0x150 JUMPI PUSH1 0x0 DUP1 REVERT JUMPDEST POP JUMP INVALID LOG2 PUSH5 0x6970667358 0x22 SLT KECCAK256 SWAP4 DELEGATECALL CALL DUP3 DIV MOD 0xCF 0x5D JUMP SWAP16 SLOAD 0xE9 SWAP15 0xBF EXTCODESIZE DUP12 0x2A DIFFICULTY 0xD 0x2B 0xE2 0xE4 PUSH20 0x2CE7F29451FA200E5064736F6C63430008070033 "
        },
        "methodIdentifiers": {
          "vote(uint256,bytes32)": "68bb8bb6"
        }
      },
      "userdoc": {
        "kind": "user",
        "methods": {},
        "version": 1
      }
    }
  }
}