{
  "contracts/Core.sol": {
    "Core": {
      "abi": [
        {
          "anonymous": false,
          "inputs": [
            {
              "indexed": false,
              "internalType": "bytes32",
              "name": "key",
              "type": "bytes32"
            },
            {
              "indexed": false,
              "internalType": "address",
              "name": "oldImplementation",
              "type": "address"
            },
            {
              "indexed": false,
              "internalType": "address",
              "name": "newImplementation",
              "type": "address"
            }
          ],
          "name": "ImplementationChanged",
          "type": "event"
        },
        {
          "inputs": [],
          "name": "IDENTIFIER",
          "outputs": [
            {
              "internalType": "bytes32",
              "name": "",
              "type": "bytes32"
            }
          ],
          "stateMutability": "view",
          "type": "function"
        },
        {
          "inputs": [
            {
              "internalType": "bytes32",
              "name": "_key",
              "type": "bytes32"
            },
            {
              "internalType": "address",
              "name": "_instance",
              "type": "address"
            }
          ],
          "name": "addContract",
          "outputs": [],
          "stateMutability": "nonpayable",
          "type": "function"
        },
        {
          "inputs": [
            {
              "internalType": "bytes32",
              "name": "_key",
              "type": "bytes32"
            }
          ],
          "name": "deleteContract",
          "outputs": [],
          "stateMutability": "nonpayable",
          "type": "function"
        },
        {
          "inputs": [
            {
              "internalType": "bytes32",
              "name": "_exeID",
              "type": "bytes32"
            }
          ],
          "name": "execute",
          "outputs": [],
          "stateMutability": "nonpayable",
          "type": "function"
        },
        {
          "inputs": [
            {
              "internalType": "bytes32",
              "name": "_key",
              "type": "bytes32"
            }
          ],
          "name": "getInstance",
          "outputs": [
            {
              "internalType": "address",
              "name": "",
              "type": "address"
            }
          ],
          "stateMutability": "view",
          "type": "function"
        },
        {
          "inputs": [
            {
              "internalType": "address",
              "name": "_coord",
              "type": "address"
            },
            {
              "internalType": "address",
              "name": "_executables",
              "type": "address"
            },
            {
              "internalType": "address",
              "name": "_props",
              "type": "address"
            },
            {
              "internalType": "address",
              "name": "_voteWeight",
              "type": "address"
            },
            {
              "internalType": "address",
              "name": "_votingBooth",
              "type": "address"
            },
            {
              "internalType": "address",
              "name": "_voteStorage",
              "type": "address"
            }
          ],
          "name": "initialise",
          "outputs": [],
          "stateMutability": "nonpayable",
          "type": "function"
        },
        {
          "inputs": [
            {
              "internalType": "bytes32",
              "name": "_key",
              "type": "bytes32"
            },
            {
              "internalType": "address",
              "name": "_instance",
              "type": "address"
            }
          ],
          "name": "updateContract",
          "outputs": [],
          "stateMutability": "nonpayable",
          "type": "function"
        }
      ],
      "devdoc": {
        "author": "Veronica | @Nicca42 - GitHub | @vonnie610 - Twitter",
        "kind": "dev",
        "methods": {
          "execute(bytes32)": {
            "params": {
              "_exeID": "ID of executable."
            }
          }
        },
        "title": "Core DAO contract for an Atlantis DAO.",
        "version": 1
      },
      "evm": {
        "bytecode": {
          "linkReferences": {},
          "object": "608060405234801561001057600080fd5b5033600060026101000a81548173ffffffffffffffffffffffffffffffffffffffff021916908373ffffffffffffffffffffffffffffffffffffffff160217905550611a28806100616000396000f3fe608060405234801561001057600080fd5b506004361061007d5760003560e01c8063956138ed1161005b578063956138ed146100ec5780639ad34b5f14610108578063dec0257d14610124578063e751f271146101405761007d565b80633c9747f3146100825780635188f996146100a0578063624a23e0146100bc575b600080fd5b61008a61015c565b60405161009791906113b3565b60405180910390f35b6100ba60048036038101906100b59190611194565b610180565b005b6100d660048036038101906100d19190611167565b61030e565b6040516100e39190611398565b60405180910390f35b61010660048036038101906101019190611194565b61034b565b005b610122600480360381019061011d9190611006565b6104da565b005b61013e60048036038101906101399190611167565b610745565b005b61015a60048036038101906101559190611167565b610864565b005b7f907208bc2088fa777f18b43edd8b766e7243504cf8497f7ed936c65c7a446bbc81565b3073ffffffffffffffffffffffffffffffffffffffff163373ffffffffffffffffffffffffffffffffffffffff16146101ee576040517f08c379a00000000000000000000000000000000000000000000000000000000081526004016101e590611425565b60405180910390fd5b600073ffffffffffffffffffffffffffffffffffffffff166001600084815260200190815260200160002060009054906101000a900473ffffffffffffffffffffffffffffffffffffffff1673ffffffffffffffffffffffffffffffffffffffff1614610290576040517f08c379a0000000000000000000000000000000000000000000000000000000008152600401610287906114e5565b60405180910390fd5b600073ffffffffffffffffffffffffffffffffffffffff168173ffffffffffffffffffffffffffffffffffffffff161415610300576040517f08c379a00000000000000000000000000000000000000000000000000000000081526004016102f7906114a5565b60405180910390fd5b61030a8282610c44565b5050565b60006001600083815260200190815260200160002060009054906101000a900473ffffffffffffffffffffffffffffffffffffffff169050919050565b3073ffffffffffffffffffffffffffffffffffffffff163373ffffffffffffffffffffffffffffffffffffffff16146103b9576040517f08c379a00000000000000000000000000000000000000000000000000000000081526004016103b090611425565b60405180910390fd5b600073ffffffffffffffffffffffffffffffffffffffff166001600084815260200190815260200160002060009054906101000a900473ffffffffffffffffffffffffffffffffffffffff1673ffffffffffffffffffffffffffffffffffffffff16141561045c576040517f08c379a0000000000000000000000000000000000000000000000000000000008152600401610453906114c5565b60405180910390fd5b600073ffffffffffffffffffffffffffffffffffffffff168173ffffffffffffffffffffffffffffffffffffffff1614156104cc576040517f08c379a00000000000000000000000000000000000000000000000000000000081526004016104c390611465565b60405180910390fd5b6104d68282610c44565b5050565b600060019054906101000a900460ff1680610500575060008054906101000a900460ff16155b61053f576040517f08c379a000000000000000000000000000000000000000000000000000000000815260040161053690611445565b60405180910390fd5b600060029054906101000a900473ffffffffffffffffffffffffffffffffffffffff1673ffffffffffffffffffffffffffffffffffffffff163373ffffffffffffffffffffffffffffffffffffffff16146105cf576040517f08c379a00000000000000000000000000000000000000000000000000000000081526004016105c690611405565b60405180910390fd5b60008060019054906101000a900460ff16159050801561061f576001600060016101000a81548160ff02191690831515021790555060016000806101000a81548160ff0219169083151502179055505b6106497fd578563424ab02f85ec03c6b1aee04947ebdd4a30db46cba3bcd7f56ef40b19988610c44565b6106737f59e2d72f5870ccddd14d35394bd3c22374071b2da7c07a3d6c3b690400b7362887610c44565b61069d7f36209a57dfd79e3872ec3a0c88c653bbe7e32a12306e5e1f92f118c1936ae8b286610c44565b6106c77fcdd7ba10b36b7349d5c9710e5e447ec8acaa8e3cbba8d20f4393eccf61f185b185610c44565b6106f17f346b2ab3a980432fd8f2e24828fc9f9ee2df1548701bc542f6ec17882b32762784610c44565b61071b7f92b17ff91a1f46cc9f1d4a69447ffdb215c04417e5debb5977aa0c45da3af9e783610c44565b801561073c5760008060016101000a81548160ff0219169083151502179055505b50505050505050565b3073ffffffffffffffffffffffffffffffffffffffff163373ffffffffffffffffffffffffffffffffffffffff16146107b3576040517f08c379a00000000000000000000000000000000000000000000000000000000081526004016107aa90611425565b60405180910390fd5b600073ffffffffffffffffffffffffffffffffffffffff166001600083815260200190815260200160002060009054906101000a900473ffffffffffffffffffffffffffffffffffffffff1673ffffffffffffffffffffffffffffffffffffffff161415610856576040517f08c379a000000000000000000000000000000000000000000000000000000000815260040161084d90611525565b60405180910390fd5b610861816000610c44565b50565b60003073ffffffffffffffffffffffffffffffffffffffff1663624a23e07fd578563424ab02f85ec03c6b1aee04947ebdd4a30db46cba3bcd7f56ef40b1996040518263ffffffff1660e01b81526004016108bf91906113b3565b60206040518083038186803b1580156108d757600080fd5b505afa1580156108eb573d6000803e3d6000fd5b505050506040513d601f19601f8201168201806040525081019061090f9190610fd9565b90508073ffffffffffffffffffffffffffffffffffffffff16639cf782cb836040518263ffffffff1660e01b815260040161094a91906113b3565b60206040518083038186803b15801561096257600080fd5b505afa158015610976573d6000803e3d6000fd5b505050506040513d601f19601f8201168201806040525081019061099a919061113a565b6109d9576040517f08c379a00000000000000000000000000000000000000000000000000000000081526004016109d090611505565b60405180910390fd5b60003073ffffffffffffffffffffffffffffffffffffffff1663624a23e07f59e2d72f5870ccddd14d35394bd3c22374071b2da7c07a3d6c3b690400b736286040518263ffffffff1660e01b8152600401610a3491906113b3565b60206040518083038186803b158015610a4c57600080fd5b505afa158015610a60573d6000803e3d6000fd5b505050506040513d601f19601f82011682018060405250810190610a849190610fd9565b905060008060008373ffffffffffffffffffffffffffffffffffffffff1663971aa75e876040518263ffffffff1660e01b8152600401610ac491906113b3565b60006040518083038186803b158015610adc57600080fd5b505afa158015610af0573d6000803e3d6000fd5b505050506040513d6000823e3d601f19601f82011682018060405250810190610b199190611093565b92509250925060005b8351811015610c3b576000848281518110610b4057610b3f611774565b5b602002602001015173ffffffffffffffffffffffffffffffffffffffff16838381518110610b7157610b70611774565b5b6020026020010151858481518110610b8c57610b8b611774565b5b6020026020010151604051610ba19190611381565b60006040518083038185875af1925050503d8060008114610bde576040519150601f19603f3d011682016040523d82523d6000602084013e610be3565b606091505b5050905080610c27576040517f08c379a0000000000000000000000000000000000000000000000000000000008152600401610c1e90611485565b60405180910390fd5b508080610c33906116fc565b915050610b22565b50505050505050565b7fd80ff32702e0622dbb097b3978d56222743155c7f344ab504ce2e194b913fadc826001600085815260200190815260200160002060009054906101000a900473ffffffffffffffffffffffffffffffffffffffff1683604051610caa939291906113ce565b60405180910390a1806001600084815260200190815260200160002060006101000a81548173ffffffffffffffffffffffffffffffffffffffff021916908373ffffffffffffffffffffffffffffffffffffffff1602179055505050565b6000610d1b610d168461156a565b611545565b90508083825260208201905082856020860282011115610d3e57610d3d6117d7565b5b60005b85811015610d6e5781610d548882610ecd565b845260208401935060208301925050600181019050610d41565b5050509392505050565b6000610d8b610d8684611596565b611545565b90508083825260208201905082856020860282011115610dae57610dad6117d7565b5b60005b85811015610dfc57815167ffffffffffffffff811115610dd457610dd36117d2565b5b808601610de18982610f96565b85526020850194506020840193505050600181019050610db1565b5050509392505050565b6000610e19610e14846115c2565b611545565b90508083825260208201905082856020860282011115610e3c57610e3b6117d7565b5b60005b85811015610e6c5781610e528882610fc4565b845260208401935060208301925050600181019050610e3f565b5050509392505050565b6000610e89610e84846115ee565b611545565b905082815260208101848484011115610ea557610ea46117dc565b5b610eb0848285611698565b509392505050565b600081359050610ec781611996565b92915050565b600081519050610edc81611996565b92915050565b600082601f830112610ef757610ef66117d2565b5b8151610f07848260208601610d08565b91505092915050565b600082601f830112610f2557610f246117d2565b5b8151610f35848260208601610d78565b91505092915050565b600082601f830112610f5357610f526117d2565b5b8151610f63848260208601610e06565b91505092915050565b600081519050610f7b816119ad565b92915050565b600081359050610f90816119c4565b92915050565b600082601f830112610fab57610faa6117d2565b5b8151610fbb848260208601610e76565b91505092915050565b600081519050610fd3816119db565b92915050565b600060208284031215610fef57610fee6117e6565b5b6000610ffd84828501610ecd565b91505092915050565b60008060008060008060c08789031215611023576110226117e6565b5b600061103189828a01610eb8565b965050602061104289828a01610eb8565b955050604061105389828a01610eb8565b945050606061106489828a01610eb8565b935050608061107589828a01610eb8565b92505060a061108689828a01610eb8565b9150509295509295509295565b6000806000606084860312156110ac576110ab6117e6565b5b600084015167ffffffffffffffff8111156110ca576110c96117e1565b5b6110d686828701610ee2565b935050602084015167ffffffffffffffff8111156110f7576110f66117e1565b5b61110386828701610f10565b925050604084015167ffffffffffffffff811115611124576111236117e1565b5b61113086828701610f3e565b9150509250925092565b6000602082840312156111505761114f6117e6565b5b600061115e84828501610f6c565b91505092915050565b60006020828403121561117d5761117c6117e6565b5b600061118b84828501610f81565b91505092915050565b600080604083850312156111ab576111aa6117e6565b5b60006111b985828601610f81565b92505060206111ca85828601610eb8565b9150509250929050565b6111dd81611646565b82525050565b6111ec81611664565b82525050565b60006111fd8261161f565b611207818561162a565b9350611217818560208601611698565b80840191505092915050565b6000611230601c83611635565b915061123b826117fc565b602082019050919050565b6000611253601a83611635565b915061125e82611825565b602082019050919050565b6000611276601d83611635565b91506112818261184e565b602082019050919050565b6000611299601d83611635565b91506112a482611877565b602082019050919050565b60006112bc601083611635565b91506112c7826118a0565b602082019050919050565b60006112df601a83611635565b91506112ea826118c9565b602082019050919050565b6000611302601a83611635565b915061130d826118f2565b602082019050919050565b6000611325601b83611635565b91506113308261191b565b602082019050919050565b6000611348601b83611635565b915061135382611944565b602082019050919050565b600061136b601583611635565b91506113768261196d565b602082019050919050565b600061138d82846111f2565b915081905092915050565b60006020820190506113ad60008301846111d4565b92915050565b60006020820190506113c860008301846111e3565b92915050565b60006060820190506113e360008301866111e3565b6113f060208301856111d4565b6113fd60408301846111d4565b949350505050565b6000602082019050818103600083015261141e81611223565b9050919050565b6000602082019050818103600083015261143e81611246565b9050919050565b6000602082019050818103600083015261145e81611269565b9050919050565b6000602082019050818103600083015261147e8161128c565b9050919050565b6000602082019050818103600083015261149e816112af565b9050919050565b600060208201905081810360008301526114be816112d2565b9050919050565b600060208201905081810360008301526114de816112f5565b9050919050565b600060208201905081810360008301526114fe81611318565b9050919050565b6000602082019050818103600083015261151e8161133b565b9050919050565b6000602082019050818103600083015261153e8161135e565b9050919050565b600061154f611560565b905061155b82826116cb565b919050565b6000604051905090565b600067ffffffffffffffff821115611585576115846117a3565b5b602082029050602081019050919050565b600067ffffffffffffffff8211156115b1576115b06117a3565b5b602082029050602081019050919050565b600067ffffffffffffffff8211156115dd576115dc6117a3565b5b602082029050602081019050919050565b600067ffffffffffffffff821115611609576116086117a3565b5b611612826117eb565b9050602081019050919050565b600081519050919050565b600081905092915050565b600082825260208201905092915050565b60006116518261166e565b9050919050565b60008115159050919050565b6000819050919050565b600073ffffffffffffffffffffffffffffffffffffffff82169050919050565b6000819050919050565b60005b838110156116b657808201518184015260208101905061169b565b838111156116c5576000848401525b50505050565b6116d4826117eb565b810181811067ffffffffffffffff821117156116f3576116f26117a3565b5b80604052505050565b60006117078261168e565b91507fffffffffffffffffffffffffffffffffffffffffffffffffffffffffffffffff82141561173a57611739611745565b5b600182019050919050565b7f4e487b7100000000000000000000000000000000000000000000000000000000600052601160045260246000fd5b7f4e487b7100000000000000000000000000000000000000000000000000000000600052603260045260246000fd5b7f4e487b7100000000000000000000000000000000000000000000000000000000600052604160045260246000fd5b600080fd5b600080fd5b600080fd5b600080fd5b600080fd5b6000601f19601f8301169050919050565b7f496e69743a204f6e6c79206465706c6f7965722063616e20696e697400000000600082015250565b7f436f72653a204f6e6c7920657865732063616e206d6f64696679000000000000600082015250565b7f496e69743a20436f6e747261637420697320696e697469616c697a6564000000600082015250565b7f436f72653a2043616e6e6f742064656c657465206f6e20757064617465000000600082015250565b7f436f72653a20457865206661696c656400000000000000000000000000000000600082015250565b7f436f72653a2043616e6e6f742064656c657465206f6e20616464000000000000600082015250565b7f436f72653a2043616e6e6f7420616464206f6e20757064617465000000000000600082015250565b7f436f72653a205573652075706461746520746f207265706c6163650000000000600082015250565b7f436f72653a20457865206973206e6f742065786563757461626c650000000000600082015250565b7f436f72653a20616c72656164792064656c657465640000000000000000000000600082015250565b61199f81611646565b81146119aa57600080fd5b50565b6119b681611658565b81146119c157600080fd5b50565b6119cd81611664565b81146119d857600080fd5b50565b6119e48161168e565b81146119ef57600080fd5b5056fea264697066735822122049525625e0c3d4257c982eb0bfb1fa45c1c1cd9fe44cfb2856009beb42fbc9d564736f6c63430008070033",
          "opcodes": "PUSH1 0x80 PUSH1 0x40 MSTORE CALLVALUE DUP1 ISZERO PUSH2 0x10 JUMPI PUSH1 0x0 DUP1 REVERT JUMPDEST POP CALLER PUSH1 0x0 PUSH1 0x2 PUSH2 0x100 EXP DUP2 SLOAD DUP2 PUSH20 0xFFFFFFFFFFFFFFFFFFFFFFFFFFFFFFFFFFFFFFFF MUL NOT AND SWAP1 DUP4 PUSH20 0xFFFFFFFFFFFFFFFFFFFFFFFFFFFFFFFFFFFFFFFF AND MUL OR SWAP1 SSTORE POP PUSH2 0x1A28 DUP1 PUSH2 0x61 PUSH1 0x0 CODECOPY PUSH1 0x0 RETURN INVALID PUSH1 0x80 PUSH1 0x40 MSTORE CALLVALUE DUP1 ISZERO PUSH2 0x10 JUMPI PUSH1 0x0 DUP1 REVERT JUMPDEST POP PUSH1 0x4 CALLDATASIZE LT PUSH2 0x7D JUMPI PUSH1 0x0 CALLDATALOAD PUSH1 0xE0 SHR DUP1 PUSH4 0x956138ED GT PUSH2 0x5B JUMPI DUP1 PUSH4 0x956138ED EQ PUSH2 0xEC JUMPI DUP1 PUSH4 0x9AD34B5F EQ PUSH2 0x108 JUMPI DUP1 PUSH4 0xDEC0257D EQ PUSH2 0x124 JUMPI DUP1 PUSH4 0xE751F271 EQ PUSH2 0x140 JUMPI PUSH2 0x7D JUMP JUMPDEST DUP1 PUSH4 0x3C9747F3 EQ PUSH2 0x82 JUMPI DUP1 PUSH4 0x5188F996 EQ PUSH2 0xA0 JUMPI DUP1 PUSH4 0x624A23E0 EQ PUSH2 0xBC JUMPI JUMPDEST PUSH1 0x0 DUP1 REVERT JUMPDEST PUSH2 0x8A PUSH2 0x15C JUMP JUMPDEST PUSH1 0x40 MLOAD PUSH2 0x97 SWAP2 SWAP1 PUSH2 0x13B3 JUMP JUMPDEST PUSH1 0x40 MLOAD DUP1 SWAP2 SUB SWAP1 RETURN JUMPDEST PUSH2 0xBA PUSH1 0x4 DUP1 CALLDATASIZE SUB DUP2 ADD SWAP1 PUSH2 0xB5 SWAP2 SWAP1 PUSH2 0x1194 JUMP JUMPDEST PUSH2 0x180 JUMP JUMPDEST STOP JUMPDEST PUSH2 0xD6 PUSH1 0x4 DUP1 CALLDATASIZE SUB DUP2 ADD SWAP1 PUSH2 0xD1 SWAP2 SWAP1 PUSH2 0x1167 JUMP JUMPDEST PUSH2 0x30E JUMP JUMPDEST PUSH1 0x40 MLOAD PUSH2 0xE3 SWAP2 SWAP1 PUSH2 0x1398 JUMP JUMPDEST PUSH1 0x40 MLOAD DUP1 SWAP2 SUB SWAP1 RETURN JUMPDEST PUSH2 0x106 PUSH1 0x4 DUP1 CALLDATASIZE SUB DUP2 ADD SWAP1 PUSH2 0x101 SWAP2 SWAP1 PUSH2 0x1194 JUMP JUMPDEST PUSH2 0x34B JUMP JUMPDEST STOP JUMPDEST PUSH2 0x122 PUSH1 0x4 DUP1 CALLDATASIZE SUB DUP2 ADD SWAP1 PUSH2 0x11D SWAP2 SWAP1 PUSH2 0x1006 JUMP JUMPDEST PUSH2 0x4DA JUMP JUMPDEST STOP JUMPDEST PUSH2 0x13E PUSH1 0x4 DUP1 CALLDATASIZE SUB DUP2 ADD SWAP1 PUSH2 0x139 SWAP2 SWAP1 PUSH2 0x1167 JUMP JUMPDEST PUSH2 0x745 JUMP JUMPDEST STOP JUMPDEST PUSH2 0x15A PUSH1 0x4 DUP1 CALLDATASIZE SUB DUP2 ADD SWAP1 PUSH2 0x155 SWAP2 SWAP1 PUSH2 0x1167 JUMP JUMPDEST PUSH2 0x864 JUMP JUMPDEST STOP JUMPDEST PUSH32 0x907208BC2088FA777F18B43EDD8B766E7243504CF8497F7ED936C65C7A446BBC DUP2 JUMP JUMPDEST ADDRESS PUSH20 0xFFFFFFFFFFFFFFFFFFFFFFFFFFFFFFFFFFFFFFFF AND CALLER PUSH20 0xFFFFFFFFFFFFFFFFFFFFFFFFFFFFFFFFFFFFFFFF AND EQ PUSH2 0x1EE JUMPI PUSH1 0x40 MLOAD PUSH32 0x8C379A000000000000000000000000000000000000000000000000000000000 DUP2 MSTORE PUSH1 0x4 ADD PUSH2 0x1E5 SWAP1 PUSH2 0x1425 JUMP JUMPDEST PUSH1 0x40 MLOAD DUP1 SWAP2 SUB SWAP1 REVERT JUMPDEST PUSH1 0x0 PUSH20 0xFFFFFFFFFFFFFFFFFFFFFFFFFFFFFFFFFFFFFFFF AND PUSH1 0x1 PUSH1 0x0 DUP5 DUP2 MSTORE PUSH1 0x20 ADD SWAP1 DUP2 MSTORE PUSH1 0x20 ADD PUSH1 0x0 KECCAK256 PUSH1 0x0 SWAP1 SLOAD SWAP1 PUSH2 0x100 EXP SWAP1 DIV PUSH20 0xFFFFFFFFFFFFFFFFFFFFFFFFFFFFFFFFFFFFFFFF AND PUSH20 0xFFFFFFFFFFFFFFFFFFFFFFFFFFFFFFFFFFFFFFFF AND EQ PUSH2 0x290 JUMPI PUSH1 0x40 MLOAD PUSH32 0x8C379A000000000000000000000000000000000000000000000000000000000 DUP2 MSTORE PUSH1 0x4 ADD PUSH2 0x287 SWAP1 PUSH2 0x14E5 JUMP JUMPDEST PUSH1 0x40 MLOAD DUP1 SWAP2 SUB SWAP1 REVERT JUMPDEST PUSH1 0x0 PUSH20 0xFFFFFFFFFFFFFFFFFFFFFFFFFFFFFFFFFFFFFFFF AND DUP2 PUSH20 0xFFFFFFFFFFFFFFFFFFFFFFFFFFFFFFFFFFFFFFFF AND EQ ISZERO PUSH2 0x300 JUMPI PUSH1 0x40 MLOAD PUSH32 0x8C379A000000000000000000000000000000000000000000000000000000000 DUP2 MSTORE PUSH1 0x4 ADD PUSH2 0x2F7 SWAP1 PUSH2 0x14A5 JUMP JUMPDEST PUSH1 0x40 MLOAD DUP1 SWAP2 SUB SWAP1 REVERT JUMPDEST PUSH2 0x30A DUP3 DUP3 PUSH2 0xC44 JUMP JUMPDEST POP POP JUMP JUMPDEST PUSH1 0x0 PUSH1 0x1 PUSH1 0x0 DUP4 DUP2 MSTORE PUSH1 0x20 ADD SWAP1 DUP2 MSTORE PUSH1 0x20 ADD PUSH1 0x0 KECCAK256 PUSH1 0x0 SWAP1 SLOAD SWAP1 PUSH2 0x100 EXP SWAP1 DIV PUSH20 0xFFFFFFFFFFFFFFFFFFFFFFFFFFFFFFFFFFFFFFFF AND SWAP1 POP SWAP2 SWAP1 POP JUMP JUMPDEST ADDRESS PUSH20 0xFFFFFFFFFFFFFFFFFFFFFFFFFFFFFFFFFFFFFFFF AND CALLER PUSH20 0xFFFFFFFFFFFFFFFFFFFFFFFFFFFFFFFFFFFFFFFF AND EQ PUSH2 0x3B9 JUMPI PUSH1 0x40 MLOAD PUSH32 0x8C379A000000000000000000000000000000000000000000000000000000000 DUP2 MSTORE PUSH1 0x4 ADD PUSH2 0x3B0 SWAP1 PUSH2 0x1425 JUMP JUMPDEST PUSH1 0x40 MLOAD DUP1 SWAP2 SUB SWAP1 REVERT JUMPDEST PUSH1 0x0 PUSH20 0xFFFFFFFFFFFFFFFFFFFFFFFFFFFFFFFFFFFFFFFF AND PUSH1 0x1 PUSH1 0x0 DUP5 DUP2 MSTORE PUSH1 0x20 ADD SWAP1 DUP2 MSTORE PUSH1 0x20 ADD PUSH1 0x0 KECCAK256 PUSH1 0x0 SWAP1 SLOAD SWAP1 PUSH2 0x100 EXP SWAP1 DIV PUSH20 0xFFFFFFFFFFFFFFFFFFFFFFFFFFFFFFFFFFFFFFFF AND PUSH20 0xFFFFFFFFFFFFFFFFFFFFFFFFFFFFFFFFFFFFFFFF AND EQ ISZERO PUSH2 0x45C JUMPI PUSH1 0x40 MLOAD PUSH32 0x8C379A000000000000000000000000000000000000000000000000000000000 DUP2 MSTORE PUSH1 0x4 ADD PUSH2 0x453 SWAP1 PUSH2 0x14C5 JUMP JUMPDEST PUSH1 0x40 MLOAD DUP1 SWAP2 SUB SWAP1 REVERT JUMPDEST PUSH1 0x0 PUSH20 0xFFFFFFFFFFFFFFFFFFFFFFFFFFFFFFFFFFFFFFFF AND DUP2 PUSH20 0xFFFFFFFFFFFFFFFFFFFFFFFFFFFFFFFFFFFFFFFF AND EQ ISZERO PUSH2 0x4CC JUMPI PUSH1 0x40 MLOAD PUSH32 0x8C379A000000000000000000000000000000000000000000000000000000000 DUP2 MSTORE PUSH1 0x4 ADD PUSH2 0x4C3 SWAP1 PUSH2 0x1465 JUMP JUMPDEST PUSH1 0x40 MLOAD DUP1 SWAP2 SUB SWAP1 REVERT JUMPDEST PUSH2 0x4D6 DUP3 DUP3 PUSH2 0xC44 JUMP JUMPDEST POP POP JUMP JUMPDEST PUSH1 0x0 PUSH1 0x1 SWAP1 SLOAD SWAP1 PUSH2 0x100 EXP SWAP1 DIV PUSH1 0xFF AND DUP1 PUSH2 0x500 JUMPI POP PUSH1 0x0 DUP1 SLOAD SWAP1 PUSH2 0x100 EXP SWAP1 DIV PUSH1 0xFF AND ISZERO JUMPDEST PUSH2 0x53F JUMPI PUSH1 0x40 MLOAD PUSH32 0x8C379A000000000000000000000000000000000000000000000000000000000 DUP2 MSTORE PUSH1 0x4 ADD PUSH2 0x536 SWAP1 PUSH2 0x1445 JUMP JUMPDEST PUSH1 0x40 MLOAD DUP1 SWAP2 SUB SWAP1 REVERT JUMPDEST PUSH1 0x0 PUSH1 0x2 SWAP1 SLOAD SWAP1 PUSH2 0x100 EXP SWAP1 DIV PUSH20 0xFFFFFFFFFFFFFFFFFFFFFFFFFFFFFFFFFFFFFFFF AND PUSH20 0xFFFFFFFFFFFFFFFFFFFFFFFFFFFFFFFFFFFFFFFF AND CALLER PUSH20 0xFFFFFFFFFFFFFFFFFFFFFFFFFFFFFFFFFFFFFFFF AND EQ PUSH2 0x5CF JUMPI PUSH1 0x40 MLOAD PUSH32 0x8C379A000000000000000000000000000000000000000000000000000000000 DUP2 MSTORE PUSH1 0x4 ADD PUSH2 0x5C6 SWAP1 PUSH2 0x1405 JUMP JUMPDEST PUSH1 0x40 MLOAD DUP1 SWAP2 SUB SWAP1 REVERT JUMPDEST PUSH1 0x0 DUP1 PUSH1 0x1 SWAP1 SLOAD SWAP1 PUSH2 0x100 EXP SWAP1 DIV PUSH1 0xFF AND ISZERO SWAP1 POP DUP1 ISZERO PUSH2 0x61F JUMPI PUSH1 0x1 PUSH1 0x0 PUSH1 0x1 PUSH2 0x100 EXP DUP2 SLOAD DUP2 PUSH1 0xFF MUL NOT AND SWAP1 DUP4 ISZERO ISZERO MUL OR SWAP1 SSTORE POP PUSH1 0x1 PUSH1 0x0 DUP1 PUSH2 0x100 EXP DUP2 SLOAD DUP2 PUSH1 0xFF MUL NOT AND SWAP1 DUP4 ISZERO ISZERO MUL OR SWAP1 SSTORE POP JUMPDEST PUSH2 0x649 PUSH32 0xD578563424AB02F85EC03C6B1AEE04947EBDD4A30DB46CBA3BCD7F56EF40B199 DUP9 PUSH2 0xC44 JUMP JUMPDEST PUSH2 0x673 PUSH32 0x59E2D72F5870CCDDD14D35394BD3C22374071B2DA7C07A3D6C3B690400B73628 DUP8 PUSH2 0xC44 JUMP JUMPDEST PUSH2 0x69D PUSH32 0x36209A57DFD79E3872EC3A0C88C653BBE7E32A12306E5E1F92F118C1936AE8B2 DUP7 PUSH2 0xC44 JUMP JUMPDEST PUSH2 0x6C7 PUSH32 0xCDD7BA10B36B7349D5C9710E5E447EC8ACAA8E3CBBA8D20F4393ECCF61F185B1 DUP6 PUSH2 0xC44 JUMP JUMPDEST PUSH2 0x6F1 PUSH32 0x346B2AB3A980432FD8F2E24828FC9F9EE2DF1548701BC542F6EC17882B327627 DUP5 PUSH2 0xC44 JUMP JUMPDEST PUSH2 0x71B PUSH32 0x92B17FF91A1F46CC9F1D4A69447FFDB215C04417E5DEBB5977AA0C45DA3AF9E7 DUP4 PUSH2 0xC44 JUMP JUMPDEST DUP1 ISZERO PUSH2 0x73C JUMPI PUSH1 0x0 DUP1 PUSH1 0x1 PUSH2 0x100 EXP DUP2 SLOAD DUP2 PUSH1 0xFF MUL NOT AND SWAP1 DUP4 ISZERO ISZERO MUL OR SWAP1 SSTORE POP JUMPDEST POP POP POP POP POP POP POP JUMP JUMPDEST ADDRESS PUSH20 0xFFFFFFFFFFFFFFFFFFFFFFFFFFFFFFFFFFFFFFFF AND CALLER PUSH20 0xFFFFFFFFFFFFFFFFFFFFFFFFFFFFFFFFFFFFFFFF AND EQ PUSH2 0x7B3 JUMPI PUSH1 0x40 MLOAD PUSH32 0x8C379A000000000000000000000000000000000000000000000000000000000 DUP2 MSTORE PUSH1 0x4 ADD PUSH2 0x7AA SWAP1 PUSH2 0x1425 JUMP JUMPDEST PUSH1 0x40 MLOAD DUP1 SWAP2 SUB SWAP1 REVERT JUMPDEST PUSH1 0x0 PUSH20 0xFFFFFFFFFFFFFFFFFFFFFFFFFFFFFFFFFFFFFFFF AND PUSH1 0x1 PUSH1 0x0 DUP4 DUP2 MSTORE PUSH1 0x20 ADD SWAP1 DUP2 MSTORE PUSH1 0x20 ADD PUSH1 0x0 KECCAK256 PUSH1 0x0 SWAP1 SLOAD SWAP1 PUSH2 0x100 EXP SWAP1 DIV PUSH20 0xFFFFFFFFFFFFFFFFFFFFFFFFFFFFFFFFFFFFFFFF AND PUSH20 0xFFFFFFFFFFFFFFFFFFFFFFFFFFFFFFFFFFFFFFFF AND EQ ISZERO PUSH2 0x856 JUMPI PUSH1 0x40 MLOAD PUSH32 0x8C379A000000000000000000000000000000000000000000000000000000000 DUP2 MSTORE PUSH1 0x4 ADD PUSH2 0x84D SWAP1 PUSH2 0x1525 JUMP JUMPDEST PUSH1 0x40 MLOAD DUP1 SWAP2 SUB SWAP1 REVERT JUMPDEST PUSH2 0x861 DUP2 PUSH1 0x0 PUSH2 0xC44 JUMP JUMPDEST POP JUMP JUMPDEST PUSH1 0x0 ADDRESS PUSH20 0xFFFFFFFFFFFFFFFFFFFFFFFFFFFFFFFFFFFFFFFF AND PUSH4 0x624A23E0 PUSH32 0xD578563424AB02F85EC03C6B1AEE04947EBDD4A30DB46CBA3BCD7F56EF40B199 PUSH1 0x40 MLOAD DUP3 PUSH4 0xFFFFFFFF AND PUSH1 0xE0 SHL DUP2 MSTORE PUSH1 0x4 ADD PUSH2 0x8BF SWAP2 SWAP1 PUSH2 0x13B3 JUMP JUMPDEST PUSH1 0x20 PUSH1 0x40 MLOAD DUP1 DUP4 SUB DUP2 DUP7 DUP1 EXTCODESIZE ISZERO DUP1 ISZERO PUSH2 0x8D7 JUMPI PUSH1 0x0 DUP1 REVERT JUMPDEST POP GAS STATICCALL ISZERO DUP1 ISZERO PUSH2 0x8EB JUMPI RETURNDATASIZE PUSH1 0x0 DUP1 RETURNDATACOPY RETURNDATASIZE PUSH1 0x0 REVERT JUMPDEST POP POP POP POP PUSH1 0x40 MLOAD RETURNDATASIZE PUSH1 0x1F NOT PUSH1 0x1F DUP3 ADD AND DUP3 ADD DUP1 PUSH1 0x40 MSTORE POP DUP2 ADD SWAP1 PUSH2 0x90F SWAP2 SWAP1 PUSH2 0xFD9 JUMP JUMPDEST SWAP1 POP DUP1 PUSH20 0xFFFFFFFFFFFFFFFFFFFFFFFFFFFFFFFFFFFFFFFF AND PUSH4 0x9CF782CB DUP4 PUSH1 0x40 MLOAD DUP3 PUSH4 0xFFFFFFFF AND PUSH1 0xE0 SHL DUP2 MSTORE PUSH1 0x4 ADD PUSH2 0x94A SWAP2 SWAP1 PUSH2 0x13B3 JUMP JUMPDEST PUSH1 0x20 PUSH1 0x40 MLOAD DUP1 DUP4 SUB DUP2 DUP7 DUP1 EXTCODESIZE ISZERO DUP1 ISZERO PUSH2 0x962 JUMPI PUSH1 0x0 DUP1 REVERT JUMPDEST POP GAS STATICCALL ISZERO DUP1 ISZERO PUSH2 0x976 JUMPI RETURNDATASIZE PUSH1 0x0 DUP1 RETURNDATACOPY RETURNDATASIZE PUSH1 0x0 REVERT JUMPDEST POP POP POP POP PUSH1 0x40 MLOAD RETURNDATASIZE PUSH1 0x1F NOT PUSH1 0x1F DUP3 ADD AND DUP3 ADD DUP1 PUSH1 0x40 MSTORE POP DUP2 ADD SWAP1 PUSH2 0x99A SWAP2 SWAP1 PUSH2 0x113A JUMP JUMPDEST PUSH2 0x9D9 JUMPI PUSH1 0x40 MLOAD PUSH32 0x8C379A000000000000000000000000000000000000000000000000000000000 DUP2 MSTORE PUSH1 0x4 ADD PUSH2 0x9D0 SWAP1 PUSH2 0x1505 JUMP JUMPDEST PUSH1 0x40 MLOAD DUP1 SWAP2 SUB SWAP1 REVERT JUMPDEST PUSH1 0x0 ADDRESS PUSH20 0xFFFFFFFFFFFFFFFFFFFFFFFFFFFFFFFFFFFFFFFF AND PUSH4 0x624A23E0 PUSH32 0x59E2D72F5870CCDDD14D35394BD3C22374071B2DA7C07A3D6C3B690400B73628 PUSH1 0x40 MLOAD DUP3 PUSH4 0xFFFFFFFF AND PUSH1 0xE0 SHL DUP2 MSTORE PUSH1 0x4 ADD PUSH2 0xA34 SWAP2 SWAP1 PUSH2 0x13B3 JUMP JUMPDEST PUSH1 0x20 PUSH1 0x40 MLOAD DUP1 DUP4 SUB DUP2 DUP7 DUP1 EXTCODESIZE ISZERO DUP1 ISZERO PUSH2 0xA4C JUMPI PUSH1 0x0 DUP1 REVERT JUMPDEST POP GAS STATICCALL ISZERO DUP1 ISZERO PUSH2 0xA60 JUMPI RETURNDATASIZE PUSH1 0x0 DUP1 RETURNDATACOPY RETURNDATASIZE PUSH1 0x0 REVERT JUMPDEST POP POP POP POP PUSH1 0x40 MLOAD RETURNDATASIZE PUSH1 0x1F NOT PUSH1 0x1F DUP3 ADD AND DUP3 ADD DUP1 PUSH1 0x40 MSTORE POP DUP2 ADD SWAP1 PUSH2 0xA84 SWAP2 SWAP1 PUSH2 0xFD9 JUMP JUMPDEST SWAP1 POP PUSH1 0x0 DUP1 PUSH1 0x0 DUP4 PUSH20 0xFFFFFFFFFFFFFFFFFFFFFFFFFFFFFFFFFFFFFFFF AND PUSH4 0x971AA75E DUP8 PUSH1 0x40 MLOAD DUP3 PUSH4 0xFFFFFFFF AND PUSH1 0xE0 SHL DUP2 MSTORE PUSH1 0x4 ADD PUSH2 0xAC4 SWAP2 SWAP1 PUSH2 0x13B3 JUMP JUMPDEST PUSH1 0x0 PUSH1 0x40 MLOAD DUP1 DUP4 SUB DUP2 DUP7 DUP1 EXTCODESIZE ISZERO DUP1 ISZERO PUSH2 0xADC JUMPI PUSH1 0x0 DUP1 REVERT JUMPDEST POP GAS STATICCALL ISZERO DUP1 ISZERO PUSH2 0xAF0 JUMPI RETURNDATASIZE PUSH1 0x0 DUP1 RETURNDATACOPY RETURNDATASIZE PUSH1 0x0 REVERT JUMPDEST POP POP POP POP PUSH1 0x40 MLOAD RETURNDATASIZE PUSH1 0x0 DUP3 RETURNDATACOPY RETURNDATASIZE PUSH1 0x1F NOT PUSH1 0x1F DUP3 ADD AND DUP3 ADD DUP1 PUSH1 0x40 MSTORE POP DUP2 ADD SWAP1 PUSH2 0xB19 SWAP2 SWAP1 PUSH2 0x1093 JUMP JUMPDEST SWAP3 POP SWAP3 POP SWAP3 POP PUSH1 0x0 JUMPDEST DUP4 MLOAD DUP2 LT ISZERO PUSH2 0xC3B JUMPI PUSH1 0x0 DUP5 DUP3 DUP2 MLOAD DUP2 LT PUSH2 0xB40 JUMPI PUSH2 0xB3F PUSH2 0x1774 JUMP JUMPDEST JUMPDEST PUSH1 0x20 MUL PUSH1 0x20 ADD ADD MLOAD PUSH20 0xFFFFFFFFFFFFFFFFFFFFFFFFFFFFFFFFFFFFFFFF AND DUP4 DUP4 DUP2 MLOAD DUP2 LT PUSH2 0xB71 JUMPI PUSH2 0xB70 PUSH2 0x1774 JUMP JUMPDEST JUMPDEST PUSH1 0x20 MUL PUSH1 0x20 ADD ADD MLOAD DUP6 DUP5 DUP2 MLOAD DUP2 LT PUSH2 0xB8C JUMPI PUSH2 0xB8B PUSH2 0x1774 JUMP JUMPDEST JUMPDEST PUSH1 0x20 MUL PUSH1 0x20 ADD ADD MLOAD PUSH1 0x40 MLOAD PUSH2 0xBA1 SWAP2 SWAP1 PUSH2 0x1381 JUMP JUMPDEST PUSH1 0x0 PUSH1 0x40 MLOAD DUP1 DUP4 SUB DUP2 DUP6 DUP8 GAS CALL SWAP3 POP POP POP RETURNDATASIZE DUP1 PUSH1 0x0 DUP2 EQ PUSH2 0xBDE JUMPI PUSH1 0x40 MLOAD SWAP2 POP PUSH1 0x1F NOT PUSH1 0x3F RETURNDATASIZE ADD AND DUP3 ADD PUSH1 0x40 MSTORE RETURNDATASIZE DUP3 MSTORE RETURNDATASIZE PUSH1 0x0 PUSH1 0x20 DUP5 ADD RETURNDATACOPY PUSH2 0xBE3 JUMP JUMPDEST PUSH1 0x60 SWAP2 POP JUMPDEST POP POP SWAP1 POP DUP1 PUSH2 0xC27 JUMPI PUSH1 0x40 MLOAD PUSH32 0x8C379A000000000000000000000000000000000000000000000000000000000 DUP2 MSTORE PUSH1 0x4 ADD PUSH2 0xC1E SWAP1 PUSH2 0x1485 JUMP JUMPDEST PUSH1 0x40 MLOAD DUP1 SWAP2 SUB SWAP1 REVERT JUMPDEST POP DUP1 DUP1 PUSH2 0xC33 SWAP1 PUSH2 0x16FC JUMP JUMPDEST SWAP2 POP POP PUSH2 0xB22 JUMP JUMPDEST POP POP POP POP POP POP POP JUMP JUMPDEST PUSH32 0xD80FF32702E0622DBB097B3978D56222743155C7F344AB504CE2E194B913FADC DUP3 PUSH1 0x1 PUSH1 0x0 DUP6 DUP2 MSTORE PUSH1 0x20 ADD SWAP1 DUP2 MSTORE PUSH1 0x20 ADD PUSH1 0x0 KECCAK256 PUSH1 0x0 SWAP1 SLOAD SWAP1 PUSH2 0x100 EXP SWAP1 DIV PUSH20 0xFFFFFFFFFFFFFFFFFFFFFFFFFFFFFFFFFFFFFFFF AND DUP4 PUSH1 0x40 MLOAD PUSH2 0xCAA SWAP4 SWAP3 SWAP2 SWAP1 PUSH2 0x13CE JUMP JUMPDEST PUSH1 0x40 MLOAD DUP1 SWAP2 SUB SWAP1 LOG1 DUP1 PUSH1 0x1 PUSH1 0x0 DUP5 DUP2 MSTORE PUSH1 0x20 ADD SWAP1 DUP2 MSTORE PUSH1 0x20 ADD PUSH1 0x0 KECCAK256 PUSH1 0x0 PUSH2 0x100 EXP DUP2 SLOAD DUP2 PUSH20 0xFFFFFFFFFFFFFFFFFFFFFFFFFFFFFFFFFFFFFFFF MUL NOT AND SWAP1 DUP4 PUSH20 0xFFFFFFFFFFFFFFFFFFFFFFFFFFFFFFFFFFFFFFFF AND MUL OR SWAP1 SSTORE POP POP POP JUMP JUMPDEST PUSH1 0x0 PUSH2 0xD1B PUSH2 0xD16 DUP5 PUSH2 0x156A JUMP JUMPDEST PUSH2 0x1545 JUMP JUMPDEST SWAP1 POP DUP1 DUP4 DUP3 MSTORE PUSH1 0x20 DUP3 ADD SWAP1 POP DUP3 DUP6 PUSH1 0x20 DUP7 MUL DUP3 ADD GT ISZERO PUSH2 0xD3E JUMPI PUSH2 0xD3D PUSH2 0x17D7 JUMP JUMPDEST JUMPDEST PUSH1 0x0 JUMPDEST DUP6 DUP2 LT ISZERO PUSH2 0xD6E JUMPI DUP2 PUSH2 0xD54 DUP9 DUP3 PUSH2 0xECD JUMP JUMPDEST DUP5 MSTORE PUSH1 0x20 DUP5 ADD SWAP4 POP PUSH1 0x20 DUP4 ADD SWAP3 POP POP PUSH1 0x1 DUP2 ADD SWAP1 POP PUSH2 0xD41 JUMP JUMPDEST POP POP POP SWAP4 SWAP3 POP POP POP JUMP JUMPDEST PUSH1 0x0 PUSH2 0xD8B PUSH2 0xD86 DUP5 PUSH2 0x1596 JUMP JUMPDEST PUSH2 0x1545 JUMP JUMPDEST SWAP1 POP DUP1 DUP4 DUP3 MSTORE PUSH1 0x20 DUP3 ADD SWAP1 POP DUP3 DUP6 PUSH1 0x20 DUP7 MUL DUP3 ADD GT ISZERO PUSH2 0xDAE JUMPI PUSH2 0xDAD PUSH2 0x17D7 JUMP JUMPDEST JUMPDEST PUSH1 0x0 JUMPDEST DUP6 DUP2 LT ISZERO PUSH2 0xDFC JUMPI DUP2 MLOAD PUSH8 0xFFFFFFFFFFFFFFFF DUP2 GT ISZERO PUSH2 0xDD4 JUMPI PUSH2 0xDD3 PUSH2 0x17D2 JUMP JUMPDEST JUMPDEST DUP1 DUP7 ADD PUSH2 0xDE1 DUP10 DUP3 PUSH2 0xF96 JUMP JUMPDEST DUP6 MSTORE PUSH1 0x20 DUP6 ADD SWAP5 POP PUSH1 0x20 DUP5 ADD SWAP4 POP POP POP PUSH1 0x1 DUP2 ADD SWAP1 POP PUSH2 0xDB1 JUMP JUMPDEST POP POP POP SWAP4 SWAP3 POP POP POP JUMP JUMPDEST PUSH1 0x0 PUSH2 0xE19 PUSH2 0xE14 DUP5 PUSH2 0x15C2 JUMP JUMPDEST PUSH2 0x1545 JUMP JUMPDEST SWAP1 POP DUP1 DUP4 DUP3 MSTORE PUSH1 0x20 DUP3 ADD SWAP1 POP DUP3 DUP6 PUSH1 0x20 DUP7 MUL DUP3 ADD GT ISZERO PUSH2 0xE3C JUMPI PUSH2 0xE3B PUSH2 0x17D7 JUMP JUMPDEST JUMPDEST PUSH1 0x0 JUMPDEST DUP6 DUP2 LT ISZERO PUSH2 0xE6C JUMPI DUP2 PUSH2 0xE52 DUP9 DUP3 PUSH2 0xFC4 JUMP JUMPDEST DUP5 MSTORE PUSH1 0x20 DUP5 ADD SWAP4 POP PUSH1 0x20 DUP4 ADD SWAP3 POP POP PUSH1 0x1 DUP2 ADD SWAP1 POP PUSH2 0xE3F JUMP JUMPDEST POP POP POP SWAP4 SWAP3 POP POP POP JUMP JUMPDEST PUSH1 0x0 PUSH2 0xE89 PUSH2 0xE84 DUP5 PUSH2 0x15EE JUMP JUMPDEST PUSH2 0x1545 JUMP JUMPDEST SWAP1 POP DUP3 DUP2 MSTORE PUSH1 0x20 DUP2 ADD DUP5 DUP5 DUP5 ADD GT ISZERO PUSH2 0xEA5 JUMPI PUSH2 0xEA4 PUSH2 0x17DC JUMP JUMPDEST JUMPDEST PUSH2 0xEB0 DUP5 DUP3 DUP6 PUSH2 0x1698 JUMP JUMPDEST POP SWAP4 SWAP3 POP POP POP JUMP JUMPDEST PUSH1 0x0 DUP2 CALLDATALOAD SWAP1 POP PUSH2 0xEC7 DUP2 PUSH2 0x1996 JUMP JUMPDEST SWAP3 SWAP2 POP POP JUMP JUMPDEST PUSH1 0x0 DUP2 MLOAD SWAP1 POP PUSH2 0xEDC DUP2 PUSH2 0x1996 JUMP JUMPDEST SWAP3 SWAP2 POP POP JUMP JUMPDEST PUSH1 0x0 DUP3 PUSH1 0x1F DUP4 ADD SLT PUSH2 0xEF7 JUMPI PUSH2 0xEF6 PUSH2 0x17D2 JUMP JUMPDEST JUMPDEST DUP2 MLOAD PUSH2 0xF07 DUP5 DUP3 PUSH1 0x20 DUP7 ADD PUSH2 0xD08 JUMP JUMPDEST SWAP2 POP POP SWAP3 SWAP2 POP POP JUMP JUMPDEST PUSH1 0x0 DUP3 PUSH1 0x1F DUP4 ADD SLT PUSH2 0xF25 JUMPI PUSH2 0xF24 PUSH2 0x17D2 JUMP JUMPDEST JUMPDEST DUP2 MLOAD PUSH2 0xF35 DUP5 DUP3 PUSH1 0x20 DUP7 ADD PUSH2 0xD78 JUMP JUMPDEST SWAP2 POP POP SWAP3 SWAP2 POP POP JUMP JUMPDEST PUSH1 0x0 DUP3 PUSH1 0x1F DUP4 ADD SLT PUSH2 0xF53 JUMPI PUSH2 0xF52 PUSH2 0x17D2 JUMP JUMPDEST JUMPDEST DUP2 MLOAD PUSH2 0xF63 DUP5 DUP3 PUSH1 0x20 DUP7 ADD PUSH2 0xE06 JUMP JUMPDEST SWAP2 POP POP SWAP3 SWAP2 POP POP JUMP JUMPDEST PUSH1 0x0 DUP2 MLOAD SWAP1 POP PUSH2 0xF7B DUP2 PUSH2 0x19AD JUMP JUMPDEST SWAP3 SWAP2 POP POP JUMP JUMPDEST PUSH1 0x0 DUP2 CALLDATALOAD SWAP1 POP PUSH2 0xF90 DUP2 PUSH2 0x19C4 JUMP JUMPDEST SWAP3 SWAP2 POP POP JUMP JUMPDEST PUSH1 0x0 DUP3 PUSH1 0x1F DUP4 ADD SLT PUSH2 0xFAB JUMPI PUSH2 0xFAA PUSH2 0x17D2 JUMP JUMPDEST JUMPDEST DUP2 MLOAD PUSH2 0xFBB DUP5 DUP3 PUSH1 0x20 DUP7 ADD PUSH2 0xE76 JUMP JUMPDEST SWAP2 POP POP SWAP3 SWAP2 POP POP JUMP JUMPDEST PUSH1 0x0 DUP2 MLOAD SWAP1 POP PUSH2 0xFD3 DUP2 PUSH2 0x19DB JUMP JUMPDEST SWAP3 SWAP2 POP POP JUMP JUMPDEST PUSH1 0x0 PUSH1 0x20 DUP3 DUP5 SUB SLT ISZERO PUSH2 0xFEF JUMPI PUSH2 0xFEE PUSH2 0x17E6 JUMP JUMPDEST JUMPDEST PUSH1 0x0 PUSH2 0xFFD DUP5 DUP3 DUP6 ADD PUSH2 0xECD JUMP JUMPDEST SWAP2 POP POP SWAP3 SWAP2 POP POP JUMP JUMPDEST PUSH1 0x0 DUP1 PUSH1 0x0 DUP1 PUSH1 0x0 DUP1 PUSH1 0xC0 DUP8 DUP10 SUB SLT ISZERO PUSH2 0x1023 JUMPI PUSH2 0x1022 PUSH2 0x17E6 JUMP JUMPDEST JUMPDEST PUSH1 0x0 PUSH2 0x1031 DUP10 DUP3 DUP11 ADD PUSH2 0xEB8 JUMP JUMPDEST SWAP7 POP POP PUSH1 0x20 PUSH2 0x1042 DUP10 DUP3 DUP11 ADD PUSH2 0xEB8 JUMP JUMPDEST SWAP6 POP POP PUSH1 0x40 PUSH2 0x1053 DUP10 DUP3 DUP11 ADD PUSH2 0xEB8 JUMP JUMPDEST SWAP5 POP POP PUSH1 0x60 PUSH2 0x1064 DUP10 DUP3 DUP11 ADD PUSH2 0xEB8 JUMP JUMPDEST SWAP4 POP POP PUSH1 0x80 PUSH2 0x1075 DUP10 DUP3 DUP11 ADD PUSH2 0xEB8 JUMP JUMPDEST SWAP3 POP POP PUSH1 0xA0 PUSH2 0x1086 DUP10 DUP3 DUP11 ADD PUSH2 0xEB8 JUMP JUMPDEST SWAP2 POP POP SWAP3 SWAP6 POP SWAP3 SWAP6 POP SWAP3 SWAP6 JUMP JUMPDEST PUSH1 0x0 DUP1 PUSH1 0x0 PUSH1 0x60 DUP5 DUP7 SUB SLT ISZERO PUSH2 0x10AC JUMPI PUSH2 0x10AB PUSH2 0x17E6 JUMP JUMPDEST JUMPDEST PUSH1 0x0 DUP5 ADD MLOAD PUSH8 0xFFFFFFFFFFFFFFFF DUP2 GT ISZERO PUSH2 0x10CA JUMPI PUSH2 0x10C9 PUSH2 0x17E1 JUMP JUMPDEST JUMPDEST PUSH2 0x10D6 DUP7 DUP3 DUP8 ADD PUSH2 0xEE2 JUMP JUMPDEST SWAP4 POP POP PUSH1 0x20 DUP5 ADD MLOAD PUSH8 0xFFFFFFFFFFFFFFFF DUP2 GT ISZERO PUSH2 0x10F7 JUMPI PUSH2 0x10F6 PUSH2 0x17E1 JUMP JUMPDEST JUMPDEST PUSH2 0x1103 DUP7 DUP3 DUP8 ADD PUSH2 0xF10 JUMP JUMPDEST SWAP3 POP POP PUSH1 0x40 DUP5 ADD MLOAD PUSH8 0xFFFFFFFFFFFFFFFF DUP2 GT ISZERO PUSH2 0x1124 JUMPI PUSH2 0x1123 PUSH2 0x17E1 JUMP JUMPDEST JUMPDEST PUSH2 0x1130 DUP7 DUP3 DUP8 ADD PUSH2 0xF3E JUMP JUMPDEST SWAP2 POP POP SWAP3 POP SWAP3 POP SWAP3 JUMP JUMPDEST PUSH1 0x0 PUSH1 0x20 DUP3 DUP5 SUB SLT ISZERO PUSH2 0x1150 JUMPI PUSH2 0x114F PUSH2 0x17E6 JUMP JUMPDEST JUMPDEST PUSH1 0x0 PUSH2 0x115E DUP5 DUP3 DUP6 ADD PUSH2 0xF6C JUMP JUMPDEST SWAP2 POP POP SWAP3 SWAP2 POP POP JUMP JUMPDEST PUSH1 0x0 PUSH1 0x20 DUP3 DUP5 SUB SLT ISZERO PUSH2 0x117D JUMPI PUSH2 0x117C PUSH2 0x17E6 JUMP JUMPDEST JUMPDEST PUSH1 0x0 PUSH2 0x118B DUP5 DUP3 DUP6 ADD PUSH2 0xF81 JUMP JUMPDEST SWAP2 POP POP SWAP3 SWAP2 POP POP JUMP JUMPDEST PUSH1 0x0 DUP1 PUSH1 0x40 DUP4 DUP6 SUB SLT ISZERO PUSH2 0x11AB JUMPI PUSH2 0x11AA PUSH2 0x17E6 JUMP JUMPDEST JUMPDEST PUSH1 0x0 PUSH2 0x11B9 DUP6 DUP3 DUP7 ADD PUSH2 0xF81 JUMP JUMPDEST SWAP3 POP POP PUSH1 0x20 PUSH2 0x11CA DUP6 DUP3 DUP7 ADD PUSH2 0xEB8 JUMP JUMPDEST SWAP2 POP POP SWAP3 POP SWAP3 SWAP1 POP JUMP JUMPDEST PUSH2 0x11DD DUP2 PUSH2 0x1646 JUMP JUMPDEST DUP3 MSTORE POP POP JUMP JUMPDEST PUSH2 0x11EC DUP2 PUSH2 0x1664 JUMP JUMPDEST DUP3 MSTORE POP POP JUMP JUMPDEST PUSH1 0x0 PUSH2 0x11FD DUP3 PUSH2 0x161F JUMP JUMPDEST PUSH2 0x1207 DUP2 DUP6 PUSH2 0x162A JUMP JUMPDEST SWAP4 POP PUSH2 0x1217 DUP2 DUP6 PUSH1 0x20 DUP7 ADD PUSH2 0x1698 JUMP JUMPDEST DUP1 DUP5 ADD SWAP2 POP POP SWAP3 SWAP2 POP POP JUMP JUMPDEST PUSH1 0x0 PUSH2 0x1230 PUSH1 0x1C DUP4 PUSH2 0x1635 JUMP JUMPDEST SWAP2 POP PUSH2 0x123B DUP3 PUSH2 0x17FC JUMP JUMPDEST PUSH1 0x20 DUP3 ADD SWAP1 POP SWAP2 SWAP1 POP JUMP JUMPDEST PUSH1 0x0 PUSH2 0x1253 PUSH1 0x1A DUP4 PUSH2 0x1635 JUMP JUMPDEST SWAP2 POP PUSH2 0x125E DUP3 PUSH2 0x1825 JUMP JUMPDEST PUSH1 0x20 DUP3 ADD SWAP1 POP SWAP2 SWAP1 POP JUMP JUMPDEST PUSH1 0x0 PUSH2 0x1276 PUSH1 0x1D DUP4 PUSH2 0x1635 JUMP JUMPDEST SWAP2 POP PUSH2 0x1281 DUP3 PUSH2 0x184E JUMP JUMPDEST PUSH1 0x20 DUP3 ADD SWAP1 POP SWAP2 SWAP1 POP JUMP JUMPDEST PUSH1 0x0 PUSH2 0x1299 PUSH1 0x1D DUP4 PUSH2 0x1635 JUMP JUMPDEST SWAP2 POP PUSH2 0x12A4 DUP3 PUSH2 0x1877 JUMP JUMPDEST PUSH1 0x20 DUP3 ADD SWAP1 POP SWAP2 SWAP1 POP JUMP JUMPDEST PUSH1 0x0 PUSH2 0x12BC PUSH1 0x10 DUP4 PUSH2 0x1635 JUMP JUMPDEST SWAP2 POP PUSH2 0x12C7 DUP3 PUSH2 0x18A0 JUMP JUMPDEST PUSH1 0x20 DUP3 ADD SWAP1 POP SWAP2 SWAP1 POP JUMP JUMPDEST PUSH1 0x0 PUSH2 0x12DF PUSH1 0x1A DUP4 PUSH2 0x1635 JUMP JUMPDEST SWAP2 POP PUSH2 0x12EA DUP3 PUSH2 0x18C9 JUMP JUMPDEST PUSH1 0x20 DUP3 ADD SWAP1 POP SWAP2 SWAP1 POP JUMP JUMPDEST PUSH1 0x0 PUSH2 0x1302 PUSH1 0x1A DUP4 PUSH2 0x1635 JUMP JUMPDEST SWAP2 POP PUSH2 0x130D DUP3 PUSH2 0x18F2 JUMP JUMPDEST PUSH1 0x20 DUP3 ADD SWAP1 POP SWAP2 SWAP1 POP JUMP JUMPDEST PUSH1 0x0 PUSH2 0x1325 PUSH1 0x1B DUP4 PUSH2 0x1635 JUMP JUMPDEST SWAP2 POP PUSH2 0x1330 DUP3 PUSH2 0x191B JUMP JUMPDEST PUSH1 0x20 DUP3 ADD SWAP1 POP SWAP2 SWAP1 POP JUMP JUMPDEST PUSH1 0x0 PUSH2 0x1348 PUSH1 0x1B DUP4 PUSH2 0x1635 JUMP JUMPDEST SWAP2 POP PUSH2 0x1353 DUP3 PUSH2 0x1944 JUMP JUMPDEST PUSH1 0x20 DUP3 ADD SWAP1 POP SWAP2 SWAP1 POP JUMP JUMPDEST PUSH1 0x0 PUSH2 0x136B PUSH1 0x15 DUP4 PUSH2 0x1635 JUMP JUMPDEST SWAP2 POP PUSH2 0x1376 DUP3 PUSH2 0x196D JUMP JUMPDEST PUSH1 0x20 DUP3 ADD SWAP1 POP SWAP2 SWAP1 POP JUMP JUMPDEST PUSH1 0x0 PUSH2 0x138D DUP3 DUP5 PUSH2 0x11F2 JUMP JUMPDEST SWAP2 POP DUP2 SWAP1 POP SWAP3 SWAP2 POP POP JUMP JUMPDEST PUSH1 0x0 PUSH1 0x20 DUP3 ADD SWAP1 POP PUSH2 0x13AD PUSH1 0x0 DUP4 ADD DUP5 PUSH2 0x11D4 JUMP JUMPDEST SWAP3 SWAP2 POP POP JUMP JUMPDEST PUSH1 0x0 PUSH1 0x20 DUP3 ADD SWAP1 POP PUSH2 0x13C8 PUSH1 0x0 DUP4 ADD DUP5 PUSH2 0x11E3 JUMP JUMPDEST SWAP3 SWAP2 POP POP JUMP JUMPDEST PUSH1 0x0 PUSH1 0x60 DUP3 ADD SWAP1 POP PUSH2 0x13E3 PUSH1 0x0 DUP4 ADD DUP7 PUSH2 0x11E3 JUMP JUMPDEST PUSH2 0x13F0 PUSH1 0x20 DUP4 ADD DUP6 PUSH2 0x11D4 JUMP JUMPDEST PUSH2 0x13FD PUSH1 0x40 DUP4 ADD DUP5 PUSH2 0x11D4 JUMP JUMPDEST SWAP5 SWAP4 POP POP POP POP JUMP JUMPDEST PUSH1 0x0 PUSH1 0x20 DUP3 ADD SWAP1 POP DUP2 DUP2 SUB PUSH1 0x0 DUP4 ADD MSTORE PUSH2 0x141E DUP2 PUSH2 0x1223 JUMP JUMPDEST SWAP1 POP SWAP2 SWAP1 POP JUMP JUMPDEST PUSH1 0x0 PUSH1 0x20 DUP3 ADD SWAP1 POP DUP2 DUP2 SUB PUSH1 0x0 DUP4 ADD MSTORE PUSH2 0x143E DUP2 PUSH2 0x1246 JUMP JUMPDEST SWAP1 POP SWAP2 SWAP1 POP JUMP JUMPDEST PUSH1 0x0 PUSH1 0x20 DUP3 ADD SWAP1 POP DUP2 DUP2 SUB PUSH1 0x0 DUP4 ADD MSTORE PUSH2 0x145E DUP2 PUSH2 0x1269 JUMP JUMPDEST SWAP1 POP SWAP2 SWAP1 POP JUMP JUMPDEST PUSH1 0x0 PUSH1 0x20 DUP3 ADD SWAP1 POP DUP2 DUP2 SUB PUSH1 0x0 DUP4 ADD MSTORE PUSH2 0x147E DUP2 PUSH2 0x128C JUMP JUMPDEST SWAP1 POP SWAP2 SWAP1 POP JUMP JUMPDEST PUSH1 0x0 PUSH1 0x20 DUP3 ADD SWAP1 POP DUP2 DUP2 SUB PUSH1 0x0 DUP4 ADD MSTORE PUSH2 0x149E DUP2 PUSH2 0x12AF JUMP JUMPDEST SWAP1 POP SWAP2 SWAP1 POP JUMP JUMPDEST PUSH1 0x0 PUSH1 0x20 DUP3 ADD SWAP1 POP DUP2 DUP2 SUB PUSH1 0x0 DUP4 ADD MSTORE PUSH2 0x14BE DUP2 PUSH2 0x12D2 JUMP JUMPDEST SWAP1 POP SWAP2 SWAP1 POP JUMP JUMPDEST PUSH1 0x0 PUSH1 0x20 DUP3 ADD SWAP1 POP DUP2 DUP2 SUB PUSH1 0x0 DUP4 ADD MSTORE PUSH2 0x14DE DUP2 PUSH2 0x12F5 JUMP JUMPDEST SWAP1 POP SWAP2 SWAP1 POP JUMP JUMPDEST PUSH1 0x0 PUSH1 0x20 DUP3 ADD SWAP1 POP DUP2 DUP2 SUB PUSH1 0x0 DUP4 ADD MSTORE PUSH2 0x14FE DUP2 PUSH2 0x1318 JUMP JUMPDEST SWAP1 POP SWAP2 SWAP1 POP JUMP JUMPDEST PUSH1 0x0 PUSH1 0x20 DUP3 ADD SWAP1 POP DUP2 DUP2 SUB PUSH1 0x0 DUP4 ADD MSTORE PUSH2 0x151E DUP2 PUSH2 0x133B JUMP JUMPDEST SWAP1 POP SWAP2 SWAP1 POP JUMP JUMPDEST PUSH1 0x0 PUSH1 0x20 DUP3 ADD SWAP1 POP DUP2 DUP2 SUB PUSH1 0x0 DUP4 ADD MSTORE PUSH2 0x153E DUP2 PUSH2 0x135E JUMP JUMPDEST SWAP1 POP SWAP2 SWAP1 POP JUMP JUMPDEST PUSH1 0x0 PUSH2 0x154F PUSH2 0x1560 JUMP JUMPDEST SWAP1 POP PUSH2 0x155B DUP3 DUP3 PUSH2 0x16CB JUMP JUMPDEST SWAP2 SWAP1 POP JUMP JUMPDEST PUSH1 0x0 PUSH1 0x40 MLOAD SWAP1 POP SWAP1 JUMP JUMPDEST PUSH1 0x0 PUSH8 0xFFFFFFFFFFFFFFFF DUP3 GT ISZERO PUSH2 0x1585 JUMPI PUSH2 0x1584 PUSH2 0x17A3 JUMP JUMPDEST JUMPDEST PUSH1 0x20 DUP3 MUL SWAP1 POP PUSH1 0x20 DUP2 ADD SWAP1 POP SWAP2 SWAP1 POP JUMP JUMPDEST PUSH1 0x0 PUSH8 0xFFFFFFFFFFFFFFFF DUP3 GT ISZERO PUSH2 0x15B1 JUMPI PUSH2 0x15B0 PUSH2 0x17A3 JUMP JUMPDEST JUMPDEST PUSH1 0x20 DUP3 MUL SWAP1 POP PUSH1 0x20 DUP2 ADD SWAP1 POP SWAP2 SWAP1 POP JUMP JUMPDEST PUSH1 0x0 PUSH8 0xFFFFFFFFFFFFFFFF DUP3 GT ISZERO PUSH2 0x15DD JUMPI PUSH2 0x15DC PUSH2 0x17A3 JUMP JUMPDEST JUMPDEST PUSH1 0x20 DUP3 MUL SWAP1 POP PUSH1 0x20 DUP2 ADD SWAP1 POP SWAP2 SWAP1 POP JUMP JUMPDEST PUSH1 0x0 PUSH8 0xFFFFFFFFFFFFFFFF DUP3 GT ISZERO PUSH2 0x1609 JUMPI PUSH2 0x1608 PUSH2 0x17A3 JUMP JUMPDEST JUMPDEST PUSH2 0x1612 DUP3 PUSH2 0x17EB JUMP JUMPDEST SWAP1 POP PUSH1 0x20 DUP2 ADD SWAP1 POP SWAP2 SWAP1 POP JUMP JUMPDEST PUSH1 0x0 DUP2 MLOAD SWAP1 POP SWAP2 SWAP1 POP JUMP JUMPDEST PUSH1 0x0 DUP2 SWAP1 POP SWAP3 SWAP2 POP POP JUMP JUMPDEST PUSH1 0x0 DUP3 DUP3 MSTORE PUSH1 0x20 DUP3 ADD SWAP1 POP SWAP3 SWAP2 POP POP JUMP JUMPDEST PUSH1 0x0 PUSH2 0x1651 DUP3 PUSH2 0x166E JUMP JUMPDEST SWAP1 POP SWAP2 SWAP1 POP JUMP JUMPDEST PUSH1 0x0 DUP2 ISZERO ISZERO SWAP1 POP SWAP2 SWAP1 POP JUMP JUMPDEST PUSH1 0x0 DUP2 SWAP1 POP SWAP2 SWAP1 POP JUMP JUMPDEST PUSH1 0x0 PUSH20 0xFFFFFFFFFFFFFFFFFFFFFFFFFFFFFFFFFFFFFFFF DUP3 AND SWAP1 POP SWAP2 SWAP1 POP JUMP JUMPDEST PUSH1 0x0 DUP2 SWAP1 POP SWAP2 SWAP1 POP JUMP JUMPDEST PUSH1 0x0 JUMPDEST DUP4 DUP2 LT ISZERO PUSH2 0x16B6 JUMPI DUP1 DUP3 ADD MLOAD DUP2 DUP5 ADD MSTORE PUSH1 0x20 DUP2 ADD SWAP1 POP PUSH2 0x169B JUMP JUMPDEST DUP4 DUP2 GT ISZERO PUSH2 0x16C5 JUMPI PUSH1 0x0 DUP5 DUP5 ADD MSTORE JUMPDEST POP POP POP POP JUMP JUMPDEST PUSH2 0x16D4 DUP3 PUSH2 0x17EB JUMP JUMPDEST DUP2 ADD DUP2 DUP2 LT PUSH8 0xFFFFFFFFFFFFFFFF DUP3 GT OR ISZERO PUSH2 0x16F3 JUMPI PUSH2 0x16F2 PUSH2 0x17A3 JUMP JUMPDEST JUMPDEST DUP1 PUSH1 0x40 MSTORE POP POP POP JUMP JUMPDEST PUSH1 0x0 PUSH2 0x1707 DUP3 PUSH2 0x168E JUMP JUMPDEST SWAP2 POP PUSH32 0xFFFFFFFFFFFFFFFFFFFFFFFFFFFFFFFFFFFFFFFFFFFFFFFFFFFFFFFFFFFFFFFF DUP3 EQ ISZERO PUSH2 0x173A JUMPI PUSH2 0x1739 PUSH2 0x1745 JUMP JUMPDEST JUMPDEST PUSH1 0x1 DUP3 ADD SWAP1 POP SWAP2 SWAP1 POP JUMP JUMPDEST PUSH32 0x4E487B7100000000000000000000000000000000000000000000000000000000 PUSH1 0x0 MSTORE PUSH1 0x11 PUSH1 0x4 MSTORE PUSH1 0x24 PUSH1 0x0 REVERT JUMPDEST PUSH32 0x4E487B7100000000000000000000000000000000000000000000000000000000 PUSH1 0x0 MSTORE PUSH1 0x32 PUSH1 0x4 MSTORE PUSH1 0x24 PUSH1 0x0 REVERT JUMPDEST PUSH32 0x4E487B7100000000000000000000000000000000000000000000000000000000 PUSH1 0x0 MSTORE PUSH1 0x41 PUSH1 0x4 MSTORE PUSH1 0x24 PUSH1 0x0 REVERT JUMPDEST PUSH1 0x0 DUP1 REVERT JUMPDEST PUSH1 0x0 DUP1 REVERT JUMPDEST PUSH1 0x0 DUP1 REVERT JUMPDEST PUSH1 0x0 DUP1 REVERT JUMPDEST PUSH1 0x0 DUP1 REVERT JUMPDEST PUSH1 0x0 PUSH1 0x1F NOT PUSH1 0x1F DUP4 ADD AND SWAP1 POP SWAP2 SWAP1 POP JUMP JUMPDEST PUSH32 0x496E69743A204F6E6C79206465706C6F7965722063616E20696E697400000000 PUSH1 0x0 DUP3 ADD MSTORE POP JUMP JUMPDEST PUSH32 0x436F72653A204F6E6C7920657865732063616E206D6F64696679000000000000 PUSH1 0x0 DUP3 ADD MSTORE POP JUMP JUMPDEST PUSH32 0x496E69743A20436F6E747261637420697320696E697469616C697A6564000000 PUSH1 0x0 DUP3 ADD MSTORE POP JUMP JUMPDEST PUSH32 0x436F72653A2043616E6E6F742064656C657465206F6E20757064617465000000 PUSH1 0x0 DUP3 ADD MSTORE POP JUMP JUMPDEST PUSH32 0x436F72653A20457865206661696C656400000000000000000000000000000000 PUSH1 0x0 DUP3 ADD MSTORE POP JUMP JUMPDEST PUSH32 0x436F72653A2043616E6E6F742064656C657465206F6E20616464000000000000 PUSH1 0x0 DUP3 ADD MSTORE POP JUMP JUMPDEST PUSH32 0x436F72653A2043616E6E6F7420616464206F6E20757064617465000000000000 PUSH1 0x0 DUP3 ADD MSTORE POP JUMP JUMPDEST PUSH32 0x436F72653A205573652075706461746520746F207265706C6163650000000000 PUSH1 0x0 DUP3 ADD MSTORE POP JUMP JUMPDEST PUSH32 0x436F72653A20457865206973206E6F742065786563757461626C650000000000 PUSH1 0x0 DUP3 ADD MSTORE POP JUMP JUMPDEST PUSH32 0x436F72653A20616C72656164792064656C657465640000000000000000000000 PUSH1 0x0 DUP3 ADD MSTORE POP JUMP JUMPDEST PUSH2 0x199F DUP2 PUSH2 0x1646 JUMP JUMPDEST DUP2 EQ PUSH2 0x19AA JUMPI PUSH1 0x0 DUP1 REVERT JUMPDEST POP JUMP JUMPDEST PUSH2 0x19B6 DUP2 PUSH2 0x1658 JUMP JUMPDEST DUP2 EQ PUSH2 0x19C1 JUMPI PUSH1 0x0 DUP1 REVERT JUMPDEST POP JUMP JUMPDEST PUSH2 0x19CD DUP2 PUSH2 0x1664 JUMP JUMPDEST DUP2 EQ PUSH2 0x19D8 JUMPI PUSH1 0x0 DUP1 REVERT JUMPDEST POP JUMP JUMPDEST PUSH2 0x19E4 DUP2 PUSH2 0x168E JUMP JUMPDEST DUP2 EQ PUSH2 0x19EF JUMPI PUSH1 0x0 DUP1 REVERT JUMPDEST POP JUMP INVALID LOG2 PUSH5 0x6970667358 0x22 SLT KECCAK256 0x49 MSTORE JUMP 0x25 0xE0 0xC3 0xD4 0x25 PUSH29 0x982EB0BFB1FA45C1C1CD9FE44CFB2856009BEB42FBC9D564736F6C6343 STOP ADDMOD SMOD STOP CALLER "
        },
        "methodIdentifiers": {
          "IDENTIFIER()": "3c9747f3",
          "addContract(bytes32,address)": "5188f996",
          "deleteContract(bytes32)": "dec0257d",
          "execute(bytes32)": "e751f271",
          "getInstance(bytes32)": "624a23e0",
          "initialise(address,address,address,address,address,address)": "9ad34b5f",
          "updateContract(bytes32,address)": "956138ed"
        }
      },
      "userdoc": {
        "kind": "user",
        "methods": {
          "execute(bytes32)": {
            "notice": "Executes the passed executable. The executable needs to be          marked as executable on the coordinator. If the exe ID is not          approved for execution on the coordinator the transaction will          fail."
          }
        },
        "notice": "This contract is incredibly simple with very limited functionality.          The \"business logic\" (voting, proposals, consensus etc) is done          elsewhere, meaning the core contract will not need to be upgraded to          increase functionality.",
        "version": 1
      }
    }
  }
}