{
  "contracts/VotingBooth.sol": {
    "VotingBooth": {
      "abi": [
        {
          "inputs": [
            {
              "internalType": "address",
              "name": "_core",
              "type": "address"
            }
          ],
          "stateMutability": "nonpayable",
          "type": "constructor"
        },
        {
          "anonymous": false,
          "inputs": [
            {
              "indexed": true,
              "internalType": "address",
              "name": "voter",
              "type": "address"
            },
            {
              "indexed": true,
              "internalType": "uint256",
              "name": "propID",
              "type": "uint256"
            },
            {
              "indexed": false,
              "internalType": "bytes",
              "name": "vote",
              "type": "bytes"
            }
          ],
          "name": "VoteCast",
          "type": "event"
        },
        {
          "inputs": [],
          "name": "IDENTIFIER",
          "outputs": [
            {
              "internalType": "bytes32",
              "name": "",
              "type": "bytes32"
            }
          ],
          "stateMutability": "view",
          "type": "function"
        },
        {
          "inputs": [
            {
              "internalType": "bytes32",
              "name": "_voteType",
              "type": "bytes32"
            },
            {
              "internalType": "address",
              "name": "_instance",
              "type": "address"
            },
            {
              "internalType": "string",
              "name": "_voteFormat",
              "type": "string"
            }
          ],
          "name": "addVoteType",
          "outputs": [],
          "stateMutability": "nonpayable",
          "type": "function"
        },
        {
          "inputs": [
            {
              "internalType": "uint256",
              "name": "_propID",
              "type": "uint256"
            }
          ],
          "name": "consensusReached",
          "outputs": [
            {
              "internalType": "bool",
              "name": "reached",
              "type": "bool"
            },
            {
              "internalType": "bool",
              "name": "votePassed",
              "type": "bool"
            }
          ],
          "stateMutability": "view",
          "type": "function"
        },
        {
          "inputs": [],
          "name": "core_",
          "outputs": [
            {
              "internalType": "contract ICore",
              "name": "",
              "type": "address"
            }
          ],
          "stateMutability": "view",
          "type": "function"
        },
        {
          "inputs": [
            {
              "internalType": "address",
              "name": "_instance",
              "type": "address"
            }
          ],
          "name": "getVoteType",
          "outputs": [
            {
              "internalType": "bytes32",
              "name": "",
              "type": "bytes32"
            }
          ],
          "stateMutability": "view",
          "type": "function"
        },
        {
          "inputs": [
            {
              "internalType": "address",
              "name": "_initialVoteInstance",
              "type": "address"
            },
            {
              "internalType": "bytes32",
              "name": "_initialVoteType",
              "type": "bytes32"
            },
            {
              "internalType": "string",
              "name": "_voteFormat",
              "type": "string"
            }
          ],
          "name": "initialise",
          "outputs": [],
          "stateMutability": "nonpayable",
          "type": "function"
        },
        {
          "inputs": [
            {
              "internalType": "uint256",
              "name": "_propID",
              "type": "uint256"
            },
            {
              "internalType": "bytes",
              "name": "_vote",
              "type": "bytes"
            }
          ],
          "name": "vote",
          "outputs": [
            {
              "internalType": "bool",
              "name": "",
              "type": "bool"
            }
          ],
          "stateMutability": "nonpayable",
          "type": "function"
        }
      ],
      "devdoc": {
        "kind": "dev",
        "methods": {},
        "version": 1
      },
      "evm": {
        "bytecode": {
          "linkReferences": {},
          "object": "60c06040523480156200001157600080fd5b506040516200176f3803806200176f8339818101604052810190620000379190620000f9565b7f346b2ab3a980432fd8f2e24828fc9f9ee2df1548701bc542f6ec17882b3276278133600060026101000a81548173ffffffffffffffffffffffffffffffffffffffff021916908373ffffffffffffffffffffffffffffffffffffffff16021790555081608081815250508073ffffffffffffffffffffffffffffffffffffffff1660a08173ffffffffffffffffffffffffffffffffffffffff1660601b815250505050506200017e565b600081519050620000f38162000164565b92915050565b6000602082840312156200011257620001116200015f565b5b60006200012284828501620000e2565b91505092915050565b600062000138826200013f565b9050919050565b600073ffffffffffffffffffffffffffffffffffffffff82169050919050565b600080fd5b6200016f816200012b565b81146200017b57600080fd5b50565b60805160a05160601c6115ac620001c36000396000818161037301528181610680015281816107230152818161090d01526109b10152600061018901526115ac6000f3fe608060405234801561001057600080fd5b506004361061007d5760003560e01c8063b88b82ba1161005b578063b88b82ba146100ec578063cbba4b7f1461011c578063e343409a14610138578063eaddd0fd146101695761007d565b80633c9747f31461008257806369e0a1f7146100a05780636e3ce913146100d0575b600080fd5b61008a610187565b60405161009791906110b8565b60405180910390f35b6100ba60048036038101906100b59190610cee565b6101ab565b6040516100c791906110b8565b60405180910390f35b6100ea60048036038101906100e59190610d48565b6101f7565b005b61010660048036038101906101019190610eed565b61036e565b6040516101139190611074565b60405180910390f35b61013660048036038101906101319190610e51565b61067e565b005b610152600480360381019061014d9190610ec0565b61071c565b60405161016092919061108f565b60405180910390f35b61017161090b565b60405161017e919061111e565b60405180910390f35b7f000000000000000000000000000000000000000000000000000000000000000081565b6000600160008373ffffffffffffffffffffffffffffffffffffffff1673ffffffffffffffffffffffffffffffffffffffff168152602001908152602001600020600001549050919050565b600060019054906101000a900460ff168061021d575060008054906101000a900460ff16155b61025c576040517f08c379a000000000000000000000000000000000000000000000000000000000815260040161025390611179565b60405180910390fd5b600060029054906101000a900473ffffffffffffffffffffffffffffffffffffffff1673ffffffffffffffffffffffffffffffffffffffff163373ffffffffffffffffffffffffffffffffffffffff16146102ec576040517f08c379a00000000000000000000000000000000000000000000000000000000081526004016102e390611139565b60405180910390fd5b60008060019054906101000a900460ff16159050801561033c576001600060016101000a81548160ff02191690831515021790555060016000806101000a81548160ff0219169083151502179055505b61034783858461092f565b80156103685760008060016101000a81548160ff0219169083151502179055505b50505050565b6000807f000000000000000000000000000000000000000000000000000000000000000073ffffffffffffffffffffffffffffffffffffffff1663624a23e07f36209a57dfd79e3872ec3a0c88c653bbe7e32a12306e5e1f92f118c1936ae8b26040518263ffffffff1660e01b81526004016103ea91906110b8565b60206040518083038186803b15801561040257600080fd5b505afa158015610416573d6000803e3d6000fd5b505050506040513d601f19601f8201168201806040525081019061043a9190610d1b565b905060008173ffffffffffffffffffffffffffffffffffffffff166262104a866040518263ffffffff1660e01b815260040161047691906111b9565b60206040518083038186803b15801561048e57600080fd5b505afa1580156104a2573d6000803e3d6000fd5b505050506040513d601f19601f820116820180604052508101906104c69190610d1b565b90506000801b3073ffffffffffffffffffffffffffffffffffffffff166369e0a1f7836040518263ffffffff1660e01b81526004016105059190611059565b60206040518083038186803b15801561051d57600080fd5b505afa158015610531573d6000803e3d6000fd5b505050506040513d601f19601f820116820180604052508101906105559190610e24565b1415610596576040517f08c379a000000000000000000000000000000000000000000000000000000000815260040161058d90611199565b60405180910390fd5b843373ffffffffffffffffffffffffffffffffffffffff167f71a29581f391d0ca96684c69771724a921678b572e21378712be03e8da07e2ca866040516105dd91906110fc565b60405180910390a38073ffffffffffffffffffffffffffffffffffffffff1663f636a0538686336040518463ffffffff1660e01b8152600401610622939291906111d4565b602060405180830381600087803b15801561063c57600080fd5b505af1158015610650573d6000803e3d6000fd5b505050506040513d601f19601f820116820180604052508101906106749190610db7565b9250505092915050565b7f000000000000000000000000000000000000000000000000000000000000000073ffffffffffffffffffffffffffffffffffffffff163373ffffffffffffffffffffffffffffffffffffffff161461070c576040517f08c379a000000000000000000000000000000000000000000000000000000000815260040161070390611159565b60405180910390fd5b61071783838361092f565b505050565b60008060007f000000000000000000000000000000000000000000000000000000000000000073ffffffffffffffffffffffffffffffffffffffff1663624a23e07f36209a57dfd79e3872ec3a0c88c653bbe7e32a12306e5e1f92f118c1936ae8b26040518263ffffffff1660e01b815260040161079a91906110b8565b60206040518083038186803b1580156107b257600080fd5b505afa1580156107c6573d6000803e3d6000fd5b505050506040513d601f19601f820116820180604052508101906107ea9190610d1b565b905060008173ffffffffffffffffffffffffffffffffffffffff166262104a866040518263ffffffff1660e01b815260040161082691906111b9565b60206040518083038186803b15801561083e57600080fd5b505afa158015610852573d6000803e3d6000fd5b505050506040513d601f19601f820116820180604052508101906108769190610d1b565b90508073ffffffffffffffffffffffffffffffffffffffff1663e343409a866040518263ffffffff1660e01b81526004016108b191906111b9565b604080518083038186803b1580156108c857600080fd5b505afa1580156108dc573d6000803e3d6000fd5b505050506040513d601f19601f820116820180604052508101906109009190610de4565b935093505050915091565b7f000000000000000000000000000000000000000000000000000000000000000081565b604051806040016040528084815260200182815250600160008473ffffffffffffffffffffffffffffffffffffffff1673ffffffffffffffffffffffffffffffffffffffff1681526020019081526020016000206000820151816000015560208201518160010190805190602001906109a9929190610aed565b5090505060007f000000000000000000000000000000000000000000000000000000000000000073ffffffffffffffffffffffffffffffffffffffff1663624a23e07fd578563424ab02f85ec03c6b1aee04947ebdd4a30db46cba3bcd7f56ef40b1996040518263ffffffff1660e01b8152600401610a2891906110b8565b60206040518083038186803b158015610a4057600080fd5b505afa158015610a54573d6000803e3d6000fd5b505050506040513d601f19601f82011682018060405250810190610a789190610d1b565b90508073ffffffffffffffffffffffffffffffffffffffff166338c6878285856040518363ffffffff1660e01b8152600401610ab59291906110d3565b600060405180830381600087803b158015610acf57600080fd5b505af1158015610ae3573d6000803e3d6000fd5b5050505050505050565b828054610af990611390565b90600052602060002090601f016020900481019282610b1b5760008555610b62565b82601f10610b3457805160ff1916838001178555610b62565b82800160010185558215610b62579182015b82811115610b61578251825591602001919060010190610b46565b5b509050610b6f9190610b73565b5090565b5b80821115610b8c576000816000905550600101610b74565b5090565b6000610ba3610b9e84611237565b611212565b905082815260208101848484011115610bbf57610bbe611456565b5b610bca84828561134e565b509392505050565b6000610be5610be084611268565b611212565b905082815260208101848484011115610c0157610c00611456565b5b610c0c84828561134e565b509392505050565b600081359050610c238161151a565b92915050565b600081519050610c388161151a565b92915050565b600081519050610c4d81611531565b92915050565b600081359050610c6281611548565b92915050565b600081519050610c7781611548565b92915050565b600082601f830112610c9257610c91611451565b5b8135610ca2848260208601610b90565b91505092915050565b600082601f830112610cc057610cbf611451565b5b8135610cd0848260208601610bd2565b91505092915050565b600081359050610ce88161155f565b92915050565b600060208284031215610d0457610d03611460565b5b6000610d1284828501610c14565b91505092915050565b600060208284031215610d3157610d30611460565b5b6000610d3f84828501610c29565b91505092915050565b600080600060608486031215610d6157610d60611460565b5b6000610d6f86828701610c14565b9350506020610d8086828701610c53565b925050604084013567ffffffffffffffff811115610da157610da061145b565b5b610dad86828701610cab565b9150509250925092565b600060208284031215610dcd57610dcc611460565b5b6000610ddb84828501610c3e565b91505092915050565b60008060408385031215610dfb57610dfa611460565b5b6000610e0985828601610c3e565b9250506020610e1a85828601610c3e565b9150509250929050565b600060208284031215610e3a57610e39611460565b5b6000610e4884828501610c68565b91505092915050565b600080600060608486031215610e6a57610e69611460565b5b6000610e7886828701610c53565b9350506020610e8986828701610c14565b925050604084013567ffffffffffffffff811115610eaa57610ea961145b565b5b610eb686828701610cab565b9150509250925092565b600060208284031215610ed657610ed5611460565b5b6000610ee484828501610cd9565b91505092915050565b60008060408385031215610f0457610f03611460565b5b6000610f1285828601610cd9565b925050602083013567ffffffffffffffff811115610f3357610f3261145b565b5b610f3f85828601610c7d565b9150509250929050565b610f52816112c6565b82525050565b610f61816112d8565b82525050565b610f70816112e4565b82525050565b6000610f8182611299565b610f8b81856112a4565b9350610f9b81856020860161135d565b610fa481611465565b840191505092915050565b610fb881611318565b82525050565b6000610fcb601c836112b5565b9150610fd682611476565b602082019050919050565b6000610fee601c836112b5565b9150610ff98261149f565b602082019050919050565b6000611011601d836112b5565b915061101c826114c8565b602082019050919050565b60006110346018836112b5565b915061103f826114f1565b602082019050919050565b6110538161130e565b82525050565b600060208201905061106e6000830184610f49565b92915050565b60006020820190506110896000830184610f58565b92915050565b60006040820190506110a46000830185610f58565b6110b16020830184610f58565b9392505050565b60006020820190506110cd6000830184610f67565b92915050565b60006040820190506110e86000830185610f67565b6110f56020830184610f49565b9392505050565b600060208201905081810360008301526111168184610f76565b905092915050565b60006020820190506111336000830184610faf565b92915050565b6000602082019050818103600083015261115281610fbe565b9050919050565b6000602082019050818103600083015261117281610fe1565b9050919050565b6000602082019050818103600083015261119281611004565b9050919050565b600060208201905081810360008301526111b281611027565b9050919050565b60006020820190506111ce600083018461104a565b92915050565b60006060820190506111e9600083018661104a565b81810360208301526111fb8185610f76565b905061120a6040830184610f49565b949350505050565b600061121c61122d565b905061122882826113c2565b919050565b6000604051905090565b600067ffffffffffffffff82111561125257611251611422565b5b61125b82611465565b9050602081019050919050565b600067ffffffffffffffff82111561128357611282611422565b5b61128c82611465565b9050602081019050919050565b600081519050919050565b600082825260208201905092915050565b600082825260208201905092915050565b60006112d1826112ee565b9050919050565b60008115159050919050565b6000819050919050565b600073ffffffffffffffffffffffffffffffffffffffff82169050919050565b6000819050919050565b60006113238261132a565b9050919050565b60006113358261133c565b9050919050565b6000611347826112ee565b9050919050565b82818337600083830152505050565b60005b8381101561137b578082015181840152602081019050611360565b8381111561138a576000848401525b50505050565b600060028204905060018216806113a857607f821691505b602082108114156113bc576113bb6113f3565b5b50919050565b6113cb82611465565b810181811067ffffffffffffffff821117156113ea576113e9611422565b5b80604052505050565b7f4e487b7100000000000000000000000000000000000000000000000000000000600052602260045260246000fd5b7f4e487b7100000000000000000000000000000000000000000000000000000000600052604160045260246000fd5b600080fd5b600080fd5b600080fd5b600080fd5b6000601f19601f8301169050919050565b7f496e69743a204f6e6c79206465706c6f7965722063616e20696e697400000000600082015250565b7f53797374656d3a204f6e6c7920636f72652063616e206d6f6469667900000000600082015250565b7f496e69743a20436f6e747261637420697320696e697469616c697a6564000000600082015250565b7f426f6f74683a20496e76616c696420766f746520747970650000000000000000600082015250565b611523816112c6565b811461152e57600080fd5b50565b61153a816112d8565b811461154557600080fd5b50565b611551816112e4565b811461155c57600080fd5b50565b6115688161130e565b811461157357600080fd5b5056fea2646970667358221220bbf85ada7ca3584dd81f956446dadf92e4b573f552e6a2da32573d32a8b8be1764736f6c63430008070033",
          "opcodes": "PUSH1 0xC0 PUSH1 0x40 MSTORE CALLVALUE DUP1 ISZERO PUSH3 0x11 JUMPI PUSH1 0x0 DUP1 REVERT JUMPDEST POP PUSH1 0x40 MLOAD PUSH3 0x176F CODESIZE SUB DUP1 PUSH3 0x176F DUP4 CODECOPY DUP2 DUP2 ADD PUSH1 0x40 MSTORE DUP2 ADD SWAP1 PUSH3 0x37 SWAP2 SWAP1 PUSH3 0xF9 JUMP JUMPDEST PUSH32 0x346B2AB3A980432FD8F2E24828FC9F9EE2DF1548701BC542F6EC17882B327627 DUP2 CALLER PUSH1 0x0 PUSH1 0x2 PUSH2 0x100 EXP DUP2 SLOAD DUP2 PUSH20 0xFFFFFFFFFFFFFFFFFFFFFFFFFFFFFFFFFFFFFFFF MUL NOT AND SWAP1 DUP4 PUSH20 0xFFFFFFFFFFFFFFFFFFFFFFFFFFFFFFFFFFFFFFFF AND MUL OR SWAP1 SSTORE POP DUP2 PUSH1 0x80 DUP2 DUP2 MSTORE POP POP DUP1 PUSH20 0xFFFFFFFFFFFFFFFFFFFFFFFFFFFFFFFFFFFFFFFF AND PUSH1 0xA0 DUP2 PUSH20 0xFFFFFFFFFFFFFFFFFFFFFFFFFFFFFFFFFFFFFFFF AND PUSH1 0x60 SHL DUP2 MSTORE POP POP POP POP POP PUSH3 0x17E JUMP JUMPDEST PUSH1 0x0 DUP2 MLOAD SWAP1 POP PUSH3 0xF3 DUP2 PUSH3 0x164 JUMP JUMPDEST SWAP3 SWAP2 POP POP JUMP JUMPDEST PUSH1 0x0 PUSH1 0x20 DUP3 DUP5 SUB SLT ISZERO PUSH3 0x112 JUMPI PUSH3 0x111 PUSH3 0x15F JUMP JUMPDEST JUMPDEST PUSH1 0x0 PUSH3 0x122 DUP5 DUP3 DUP6 ADD PUSH3 0xE2 JUMP JUMPDEST SWAP2 POP POP SWAP3 SWAP2 POP POP JUMP JUMPDEST PUSH1 0x0 PUSH3 0x138 DUP3 PUSH3 0x13F JUMP JUMPDEST SWAP1 POP SWAP2 SWAP1 POP JUMP JUMPDEST PUSH1 0x0 PUSH20 0xFFFFFFFFFFFFFFFFFFFFFFFFFFFFFFFFFFFFFFFF DUP3 AND SWAP1 POP SWAP2 SWAP1 POP JUMP JUMPDEST PUSH1 0x0 DUP1 REVERT JUMPDEST PUSH3 0x16F DUP2 PUSH3 0x12B JUMP JUMPDEST DUP2 EQ PUSH3 0x17B JUMPI PUSH1 0x0 DUP1 REVERT JUMPDEST POP JUMP JUMPDEST PUSH1 0x80 MLOAD PUSH1 0xA0 MLOAD PUSH1 0x60 SHR PUSH2 0x15AC PUSH3 0x1C3 PUSH1 0x0 CODECOPY PUSH1 0x0 DUP2 DUP2 PUSH2 0x373 ADD MSTORE DUP2 DUP2 PUSH2 0x680 ADD MSTORE DUP2 DUP2 PUSH2 0x723 ADD MSTORE DUP2 DUP2 PUSH2 0x90D ADD MSTORE PUSH2 0x9B1 ADD MSTORE PUSH1 0x0 PUSH2 0x189 ADD MSTORE PUSH2 0x15AC PUSH1 0x0 RETURN INVALID PUSH1 0x80 PUSH1 0x40 MSTORE CALLVALUE DUP1 ISZERO PUSH2 0x10 JUMPI PUSH1 0x0 DUP1 REVERT JUMPDEST POP PUSH1 0x4 CALLDATASIZE LT PUSH2 0x7D JUMPI PUSH1 0x0 CALLDATALOAD PUSH1 0xE0 SHR DUP1 PUSH4 0xB88B82BA GT PUSH2 0x5B JUMPI DUP1 PUSH4 0xB88B82BA EQ PUSH2 0xEC JUMPI DUP1 PUSH4 0xCBBA4B7F EQ PUSH2 0x11C JUMPI DUP1 PUSH4 0xE343409A EQ PUSH2 0x138 JUMPI DUP1 PUSH4 0xEADDD0FD EQ PUSH2 0x169 JUMPI PUSH2 0x7D JUMP JUMPDEST DUP1 PUSH4 0x3C9747F3 EQ PUSH2 0x82 JUMPI DUP1 PUSH4 0x69E0A1F7 EQ PUSH2 0xA0 JUMPI DUP1 PUSH4 0x6E3CE913 EQ PUSH2 0xD0 JUMPI JUMPDEST PUSH1 0x0 DUP1 REVERT JUMPDEST PUSH2 0x8A PUSH2 0x187 JUMP JUMPDEST PUSH1 0x40 MLOAD PUSH2 0x97 SWAP2 SWAP1 PUSH2 0x10B8 JUMP JUMPDEST PUSH1 0x40 MLOAD DUP1 SWAP2 SUB SWAP1 RETURN JUMPDEST PUSH2 0xBA PUSH1 0x4 DUP1 CALLDATASIZE SUB DUP2 ADD SWAP1 PUSH2 0xB5 SWAP2 SWAP1 PUSH2 0xCEE JUMP JUMPDEST PUSH2 0x1AB JUMP JUMPDEST PUSH1 0x40 MLOAD PUSH2 0xC7 SWAP2 SWAP1 PUSH2 0x10B8 JUMP JUMPDEST PUSH1 0x40 MLOAD DUP1 SWAP2 SUB SWAP1 RETURN JUMPDEST PUSH2 0xEA PUSH1 0x4 DUP1 CALLDATASIZE SUB DUP2 ADD SWAP1 PUSH2 0xE5 SWAP2 SWAP1 PUSH2 0xD48 JUMP JUMPDEST PUSH2 0x1F7 JUMP JUMPDEST STOP JUMPDEST PUSH2 0x106 PUSH1 0x4 DUP1 CALLDATASIZE SUB DUP2 ADD SWAP1 PUSH2 0x101 SWAP2 SWAP1 PUSH2 0xEED JUMP JUMPDEST PUSH2 0x36E JUMP JUMPDEST PUSH1 0x40 MLOAD PUSH2 0x113 SWAP2 SWAP1 PUSH2 0x1074 JUMP JUMPDEST PUSH1 0x40 MLOAD DUP1 SWAP2 SUB SWAP1 RETURN JUMPDEST PUSH2 0x136 PUSH1 0x4 DUP1 CALLDATASIZE SUB DUP2 ADD SWAP1 PUSH2 0x131 SWAP2 SWAP1 PUSH2 0xE51 JUMP JUMPDEST PUSH2 0x67E JUMP JUMPDEST STOP JUMPDEST PUSH2 0x152 PUSH1 0x4 DUP1 CALLDATASIZE SUB DUP2 ADD SWAP1 PUSH2 0x14D SWAP2 SWAP1 PUSH2 0xEC0 JUMP JUMPDEST PUSH2 0x71C JUMP JUMPDEST PUSH1 0x40 MLOAD PUSH2 0x160 SWAP3 SWAP2 SWAP1 PUSH2 0x108F JUMP JUMPDEST PUSH1 0x40 MLOAD DUP1 SWAP2 SUB SWAP1 RETURN JUMPDEST PUSH2 0x171 PUSH2 0x90B JUMP JUMPDEST PUSH1 0x40 MLOAD PUSH2 0x17E SWAP2 SWAP1 PUSH2 0x111E JUMP JUMPDEST PUSH1 0x40 MLOAD DUP1 SWAP2 SUB SWAP1 RETURN JUMPDEST PUSH32 0x0 DUP2 JUMP JUMPDEST PUSH1 0x0 PUSH1 0x1 PUSH1 0x0 DUP4 PUSH20 0xFFFFFFFFFFFFFFFFFFFFFFFFFFFFFFFFFFFFFFFF AND PUSH20 0xFFFFFFFFFFFFFFFFFFFFFFFFFFFFFFFFFFFFFFFF AND DUP2 MSTORE PUSH1 0x20 ADD SWAP1 DUP2 MSTORE PUSH1 0x20 ADD PUSH1 0x0 KECCAK256 PUSH1 0x0 ADD SLOAD SWAP1 POP SWAP2 SWAP1 POP JUMP JUMPDEST PUSH1 0x0 PUSH1 0x1 SWAP1 SLOAD SWAP1 PUSH2 0x100 EXP SWAP1 DIV PUSH1 0xFF AND DUP1 PUSH2 0x21D JUMPI POP PUSH1 0x0 DUP1 SLOAD SWAP1 PUSH2 0x100 EXP SWAP1 DIV PUSH1 0xFF AND ISZERO JUMPDEST PUSH2 0x25C JUMPI PUSH1 0x40 MLOAD PUSH32 0x8C379A000000000000000000000000000000000000000000000000000000000 DUP2 MSTORE PUSH1 0x4 ADD PUSH2 0x253 SWAP1 PUSH2 0x1179 JUMP JUMPDEST PUSH1 0x40 MLOAD DUP1 SWAP2 SUB SWAP1 REVERT JUMPDEST PUSH1 0x0 PUSH1 0x2 SWAP1 SLOAD SWAP1 PUSH2 0x100 EXP SWAP1 DIV PUSH20 0xFFFFFFFFFFFFFFFFFFFFFFFFFFFFFFFFFFFFFFFF AND PUSH20 0xFFFFFFFFFFFFFFFFFFFFFFFFFFFFFFFFFFFFFFFF AND CALLER PUSH20 0xFFFFFFFFFFFFFFFFFFFFFFFFFFFFFFFFFFFFFFFF AND EQ PUSH2 0x2EC JUMPI PUSH1 0x40 MLOAD PUSH32 0x8C379A000000000000000000000000000000000000000000000000000000000 DUP2 MSTORE PUSH1 0x4 ADD PUSH2 0x2E3 SWAP1 PUSH2 0x1139 JUMP JUMPDEST PUSH1 0x40 MLOAD DUP1 SWAP2 SUB SWAP1 REVERT JUMPDEST PUSH1 0x0 DUP1 PUSH1 0x1 SWAP1 SLOAD SWAP1 PUSH2 0x100 EXP SWAP1 DIV PUSH1 0xFF AND ISZERO SWAP1 POP DUP1 ISZERO PUSH2 0x33C JUMPI PUSH1 0x1 PUSH1 0x0 PUSH1 0x1 PUSH2 0x100 EXP DUP2 SLOAD DUP2 PUSH1 0xFF MUL NOT AND SWAP1 DUP4 ISZERO ISZERO MUL OR SWAP1 SSTORE POP PUSH1 0x1 PUSH1 0x0 DUP1 PUSH2 0x100 EXP DUP2 SLOAD DUP2 PUSH1 0xFF MUL NOT AND SWAP1 DUP4 ISZERO ISZERO MUL OR SWAP1 SSTORE POP JUMPDEST PUSH2 0x347 DUP4 DUP6 DUP5 PUSH2 0x92F JUMP JUMPDEST DUP1 ISZERO PUSH2 0x368 JUMPI PUSH1 0x0 DUP1 PUSH1 0x1 PUSH2 0x100 EXP DUP2 SLOAD DUP2 PUSH1 0xFF MUL NOT AND SWAP1 DUP4 ISZERO ISZERO MUL OR SWAP1 SSTORE POP JUMPDEST POP POP POP POP JUMP JUMPDEST PUSH1 0x0 DUP1 PUSH32 0x0 PUSH20 0xFFFFFFFFFFFFFFFFFFFFFFFFFFFFFFFFFFFFFFFF AND PUSH4 0x624A23E0 PUSH32 0x36209A57DFD79E3872EC3A0C88C653BBE7E32A12306E5E1F92F118C1936AE8B2 PUSH1 0x40 MLOAD DUP3 PUSH4 0xFFFFFFFF AND PUSH1 0xE0 SHL DUP2 MSTORE PUSH1 0x4 ADD PUSH2 0x3EA SWAP2 SWAP1 PUSH2 0x10B8 JUMP JUMPDEST PUSH1 0x20 PUSH1 0x40 MLOAD DUP1 DUP4 SUB DUP2 DUP7 DUP1 EXTCODESIZE ISZERO DUP1 ISZERO PUSH2 0x402 JUMPI PUSH1 0x0 DUP1 REVERT JUMPDEST POP GAS STATICCALL ISZERO DUP1 ISZERO PUSH2 0x416 JUMPI RETURNDATASIZE PUSH1 0x0 DUP1 RETURNDATACOPY RETURNDATASIZE PUSH1 0x0 REVERT JUMPDEST POP POP POP POP PUSH1 0x40 MLOAD RETURNDATASIZE PUSH1 0x1F NOT PUSH1 0x1F DUP3 ADD AND DUP3 ADD DUP1 PUSH1 0x40 MSTORE POP DUP2 ADD SWAP1 PUSH2 0x43A SWAP2 SWAP1 PUSH2 0xD1B JUMP JUMPDEST SWAP1 POP PUSH1 0x0 DUP2 PUSH20 0xFFFFFFFFFFFFFFFFFFFFFFFFFFFFFFFFFFFFFFFF AND PUSH3 0x62104A DUP7 PUSH1 0x40 MLOAD DUP3 PUSH4 0xFFFFFFFF AND PUSH1 0xE0 SHL DUP2 MSTORE PUSH1 0x4 ADD PUSH2 0x476 SWAP2 SWAP1 PUSH2 0x11B9 JUMP JUMPDEST PUSH1 0x20 PUSH1 0x40 MLOAD DUP1 DUP4 SUB DUP2 DUP7 DUP1 EXTCODESIZE ISZERO DUP1 ISZERO PUSH2 0x48E JUMPI PUSH1 0x0 DUP1 REVERT JUMPDEST POP GAS STATICCALL ISZERO DUP1 ISZERO PUSH2 0x4A2 JUMPI RETURNDATASIZE PUSH1 0x0 DUP1 RETURNDATACOPY RETURNDATASIZE PUSH1 0x0 REVERT JUMPDEST POP POP POP POP PUSH1 0x40 MLOAD RETURNDATASIZE PUSH1 0x1F NOT PUSH1 0x1F DUP3 ADD AND DUP3 ADD DUP1 PUSH1 0x40 MSTORE POP DUP2 ADD SWAP1 PUSH2 0x4C6 SWAP2 SWAP1 PUSH2 0xD1B JUMP JUMPDEST SWAP1 POP PUSH1 0x0 DUP1 SHL ADDRESS PUSH20 0xFFFFFFFFFFFFFFFFFFFFFFFFFFFFFFFFFFFFFFFF AND PUSH4 0x69E0A1F7 DUP4 PUSH1 0x40 MLOAD DUP3 PUSH4 0xFFFFFFFF AND PUSH1 0xE0 SHL DUP2 MSTORE PUSH1 0x4 ADD PUSH2 0x505 SWAP2 SWAP1 PUSH2 0x1059 JUMP JUMPDEST PUSH1 0x20 PUSH1 0x40 MLOAD DUP1 DUP4 SUB DUP2 DUP7 DUP1 EXTCODESIZE ISZERO DUP1 ISZERO PUSH2 0x51D JUMPI PUSH1 0x0 DUP1 REVERT JUMPDEST POP GAS STATICCALL ISZERO DUP1 ISZERO PUSH2 0x531 JUMPI RETURNDATASIZE PUSH1 0x0 DUP1 RETURNDATACOPY RETURNDATASIZE PUSH1 0x0 REVERT JUMPDEST POP POP POP POP PUSH1 0x40 MLOAD RETURNDATASIZE PUSH1 0x1F NOT PUSH1 0x1F DUP3 ADD AND DUP3 ADD DUP1 PUSH1 0x40 MSTORE POP DUP2 ADD SWAP1 PUSH2 0x555 SWAP2 SWAP1 PUSH2 0xE24 JUMP JUMPDEST EQ ISZERO PUSH2 0x596 JUMPI PUSH1 0x40 MLOAD PUSH32 0x8C379A000000000000000000000000000000000000000000000000000000000 DUP2 MSTORE PUSH1 0x4 ADD PUSH2 0x58D SWAP1 PUSH2 0x1199 JUMP JUMPDEST PUSH1 0x40 MLOAD DUP1 SWAP2 SUB SWAP1 REVERT JUMPDEST DUP5 CALLER PUSH20 0xFFFFFFFFFFFFFFFFFFFFFFFFFFFFFFFFFFFFFFFF AND PUSH32 0x71A29581F391D0CA96684C69771724A921678B572E21378712BE03E8DA07E2CA DUP7 PUSH1 0x40 MLOAD PUSH2 0x5DD SWAP2 SWAP1 PUSH2 0x10FC JUMP JUMPDEST PUSH1 0x40 MLOAD DUP1 SWAP2 SUB SWAP1 LOG3 DUP1 PUSH20 0xFFFFFFFFFFFFFFFFFFFFFFFFFFFFFFFFFFFFFFFF AND PUSH4 0xF636A053 DUP7 DUP7 CALLER PUSH1 0x40 MLOAD DUP5 PUSH4 0xFFFFFFFF AND PUSH1 0xE0 SHL DUP2 MSTORE PUSH1 0x4 ADD PUSH2 0x622 SWAP4 SWAP3 SWAP2 SWAP1 PUSH2 0x11D4 JUMP JUMPDEST PUSH1 0x20 PUSH1 0x40 MLOAD DUP1 DUP4 SUB DUP2 PUSH1 0x0 DUP8 DUP1 EXTCODESIZE ISZERO DUP1 ISZERO PUSH2 0x63C JUMPI PUSH1 0x0 DUP1 REVERT JUMPDEST POP GAS CALL ISZERO DUP1 ISZERO PUSH2 0x650 JUMPI RETURNDATASIZE PUSH1 0x0 DUP1 RETURNDATACOPY RETURNDATASIZE PUSH1 0x0 REVERT JUMPDEST POP POP POP POP PUSH1 0x40 MLOAD RETURNDATASIZE PUSH1 0x1F NOT PUSH1 0x1F DUP3 ADD AND DUP3 ADD DUP1 PUSH1 0x40 MSTORE POP DUP2 ADD SWAP1 PUSH2 0x674 SWAP2 SWAP1 PUSH2 0xDB7 JUMP JUMPDEST SWAP3 POP POP POP SWAP3 SWAP2 POP POP JUMP JUMPDEST PUSH32 0x0 PUSH20 0xFFFFFFFFFFFFFFFFFFFFFFFFFFFFFFFFFFFFFFFF AND CALLER PUSH20 0xFFFFFFFFFFFFFFFFFFFFFFFFFFFFFFFFFFFFFFFF AND EQ PUSH2 0x70C JUMPI PUSH1 0x40 MLOAD PUSH32 0x8C379A000000000000000000000000000000000000000000000000000000000 DUP2 MSTORE PUSH1 0x4 ADD PUSH2 0x703 SWAP1 PUSH2 0x1159 JUMP JUMPDEST PUSH1 0x40 MLOAD DUP1 SWAP2 SUB SWAP1 REVERT JUMPDEST PUSH2 0x717 DUP4 DUP4 DUP4 PUSH2 0x92F JUMP JUMPDEST POP POP POP JUMP JUMPDEST PUSH1 0x0 DUP1 PUSH1 0x0 PUSH32 0x0 PUSH20 0xFFFFFFFFFFFFFFFFFFFFFFFFFFFFFFFFFFFFFFFF AND PUSH4 0x624A23E0 PUSH32 0x36209A57DFD79E3872EC3A0C88C653BBE7E32A12306E5E1F92F118C1936AE8B2 PUSH1 0x40 MLOAD DUP3 PUSH4 0xFFFFFFFF AND PUSH1 0xE0 SHL DUP2 MSTORE PUSH1 0x4 ADD PUSH2 0x79A SWAP2 SWAP1 PUSH2 0x10B8 JUMP JUMPDEST PUSH1 0x20 PUSH1 0x40 MLOAD DUP1 DUP4 SUB DUP2 DUP7 DUP1 EXTCODESIZE ISZERO DUP1 ISZERO PUSH2 0x7B2 JUMPI PUSH1 0x0 DUP1 REVERT JUMPDEST POP GAS STATICCALL ISZERO DUP1 ISZERO PUSH2 0x7C6 JUMPI RETURNDATASIZE PUSH1 0x0 DUP1 RETURNDATACOPY RETURNDATASIZE PUSH1 0x0 REVERT JUMPDEST POP POP POP POP PUSH1 0x40 MLOAD RETURNDATASIZE PUSH1 0x1F NOT PUSH1 0x1F DUP3 ADD AND DUP3 ADD DUP1 PUSH1 0x40 MSTORE POP DUP2 ADD SWAP1 PUSH2 0x7EA SWAP2 SWAP1 PUSH2 0xD1B JUMP JUMPDEST SWAP1 POP PUSH1 0x0 DUP2 PUSH20 0xFFFFFFFFFFFFFFFFFFFFFFFFFFFFFFFFFFFFFFFF AND PUSH3 0x62104A DUP7 PUSH1 0x40 MLOAD DUP3 PUSH4 0xFFFFFFFF AND PUSH1 0xE0 SHL DUP2 MSTORE PUSH1 0x4 ADD PUSH2 0x826 SWAP2 SWAP1 PUSH2 0x11B9 JUMP JUMPDEST PUSH1 0x20 PUSH1 0x40 MLOAD DUP1 DUP4 SUB DUP2 DUP7 DUP1 EXTCODESIZE ISZERO DUP1 ISZERO PUSH2 0x83E JUMPI PUSH1 0x0 DUP1 REVERT JUMPDEST POP GAS STATICCALL ISZERO DUP1 ISZERO PUSH2 0x852 JUMPI RETURNDATASIZE PUSH1 0x0 DUP1 RETURNDATACOPY RETURNDATASIZE PUSH1 0x0 REVERT JUMPDEST POP POP POP POP PUSH1 0x40 MLOAD RETURNDATASIZE PUSH1 0x1F NOT PUSH1 0x1F DUP3 ADD AND DUP3 ADD DUP1 PUSH1 0x40 MSTORE POP DUP2 ADD SWAP1 PUSH2 0x876 SWAP2 SWAP1 PUSH2 0xD1B JUMP JUMPDEST SWAP1 POP DUP1 PUSH20 0xFFFFFFFFFFFFFFFFFFFFFFFFFFFFFFFFFFFFFFFF AND PUSH4 0xE343409A DUP7 PUSH1 0x40 MLOAD DUP3 PUSH4 0xFFFFFFFF AND PUSH1 0xE0 SHL DUP2 MSTORE PUSH1 0x4 ADD PUSH2 0x8B1 SWAP2 SWAP1 PUSH2 0x11B9 JUMP JUMPDEST PUSH1 0x40 DUP1 MLOAD DUP1 DUP4 SUB DUP2 DUP7 DUP1 EXTCODESIZE ISZERO DUP1 ISZERO PUSH2 0x8C8 JUMPI PUSH1 0x0 DUP1 REVERT JUMPDEST POP GAS STATICCALL ISZERO DUP1 ISZERO PUSH2 0x8DC JUMPI RETURNDATASIZE PUSH1 0x0 DUP1 RETURNDATACOPY RETURNDATASIZE PUSH1 0x0 REVERT JUMPDEST POP POP POP POP PUSH1 0x40 MLOAD RETURNDATASIZE PUSH1 0x1F NOT PUSH1 0x1F DUP3 ADD AND DUP3 ADD DUP1 PUSH1 0x40 MSTORE POP DUP2 ADD SWAP1 PUSH2 0x900 SWAP2 SWAP1 PUSH2 0xDE4 JUMP JUMPDEST SWAP4 POP SWAP4 POP POP POP SWAP2 POP SWAP2 JUMP JUMPDEST PUSH32 0x0 DUP2 JUMP JUMPDEST PUSH1 0x40 MLOAD DUP1 PUSH1 0x40 ADD PUSH1 0x40 MSTORE DUP1 DUP5 DUP2 MSTORE PUSH1 0x20 ADD DUP3 DUP2 MSTORE POP PUSH1 0x1 PUSH1 0x0 DUP5 PUSH20 0xFFFFFFFFFFFFFFFFFFFFFFFFFFFFFFFFFFFFFFFF AND PUSH20 0xFFFFFFFFFFFFFFFFFFFFFFFFFFFFFFFFFFFFFFFF AND DUP2 MSTORE PUSH1 0x20 ADD SWAP1 DUP2 MSTORE PUSH1 0x20 ADD PUSH1 0x0 KECCAK256 PUSH1 0x0 DUP3 ADD MLOAD DUP2 PUSH1 0x0 ADD SSTORE PUSH1 0x20 DUP3 ADD MLOAD DUP2 PUSH1 0x1 ADD SWAP1 DUP1 MLOAD SWAP1 PUSH1 0x20 ADD SWAP1 PUSH2 0x9A9 SWAP3 SWAP2 SWAP1 PUSH2 0xAED JUMP JUMPDEST POP SWAP1 POP POP PUSH1 0x0 PUSH32 0x0 PUSH20 0xFFFFFFFFFFFFFFFFFFFFFFFFFFFFFFFFFFFFFFFF AND PUSH4 0x624A23E0 PUSH32 0xD578563424AB02F85EC03C6B1AEE04947EBDD4A30DB46CBA3BCD7F56EF40B199 PUSH1 0x40 MLOAD DUP3 PUSH4 0xFFFFFFFF AND PUSH1 0xE0 SHL DUP2 MSTORE PUSH1 0x4 ADD PUSH2 0xA28 SWAP2 SWAP1 PUSH2 0x10B8 JUMP JUMPDEST PUSH1 0x20 PUSH1 0x40 MLOAD DUP1 DUP4 SUB DUP2 DUP7 DUP1 EXTCODESIZE ISZERO DUP1 ISZERO PUSH2 0xA40 JUMPI PUSH1 0x0 DUP1 REVERT JUMPDEST POP GAS STATICCALL ISZERO DUP1 ISZERO PUSH2 0xA54 JUMPI RETURNDATASIZE PUSH1 0x0 DUP1 RETURNDATACOPY RETURNDATASIZE PUSH1 0x0 REVERT JUMPDEST POP POP POP POP PUSH1 0x40 MLOAD RETURNDATASIZE PUSH1 0x1F NOT PUSH1 0x1F DUP3 ADD AND DUP3 ADD DUP1 PUSH1 0x40 MSTORE POP DUP2 ADD SWAP1 PUSH2 0xA78 SWAP2 SWAP1 PUSH2 0xD1B JUMP JUMPDEST SWAP1 POP DUP1 PUSH20 0xFFFFFFFFFFFFFFFFFFFFFFFFFFFFFFFFFFFFFFFF AND PUSH4 0x38C68782 DUP6 DUP6 PUSH1 0x40 MLOAD DUP4 PUSH4 0xFFFFFFFF AND PUSH1 0xE0 SHL DUP2 MSTORE PUSH1 0x4 ADD PUSH2 0xAB5 SWAP3 SWAP2 SWAP1 PUSH2 0x10D3 JUMP JUMPDEST PUSH1 0x0 PUSH1 0x40 MLOAD DUP1 DUP4 SUB DUP2 PUSH1 0x0 DUP8 DUP1 EXTCODESIZE ISZERO DUP1 ISZERO PUSH2 0xACF JUMPI PUSH1 0x0 DUP1 REVERT JUMPDEST POP GAS CALL ISZERO DUP1 ISZERO PUSH2 0xAE3 JUMPI RETURNDATASIZE PUSH1 0x0 DUP1 RETURNDATACOPY RETURNDATASIZE PUSH1 0x0 REVERT JUMPDEST POP POP POP POP POP POP POP POP JUMP JUMPDEST DUP3 DUP1 SLOAD PUSH2 0xAF9 SWAP1 PUSH2 0x1390 JUMP JUMPDEST SWAP1 PUSH1 0x0 MSTORE PUSH1 0x20 PUSH1 0x0 KECCAK256 SWAP1 PUSH1 0x1F ADD PUSH1 0x20 SWAP1 DIV DUP2 ADD SWAP3 DUP3 PUSH2 0xB1B JUMPI PUSH1 0x0 DUP6 SSTORE PUSH2 0xB62 JUMP JUMPDEST DUP3 PUSH1 0x1F LT PUSH2 0xB34 JUMPI DUP1 MLOAD PUSH1 0xFF NOT AND DUP4 DUP1 ADD OR DUP6 SSTORE PUSH2 0xB62 JUMP JUMPDEST DUP3 DUP1 ADD PUSH1 0x1 ADD DUP6 SSTORE DUP3 ISZERO PUSH2 0xB62 JUMPI SWAP2 DUP3 ADD JUMPDEST DUP3 DUP2 GT ISZERO PUSH2 0xB61 JUMPI DUP3 MLOAD DUP3 SSTORE SWAP2 PUSH1 0x20 ADD SWAP2 SWAP1 PUSH1 0x1 ADD SWAP1 PUSH2 0xB46 JUMP JUMPDEST JUMPDEST POP SWAP1 POP PUSH2 0xB6F SWAP2 SWAP1 PUSH2 0xB73 JUMP JUMPDEST POP SWAP1 JUMP JUMPDEST JUMPDEST DUP1 DUP3 GT ISZERO PUSH2 0xB8C JUMPI PUSH1 0x0 DUP2 PUSH1 0x0 SWAP1 SSTORE POP PUSH1 0x1 ADD PUSH2 0xB74 JUMP JUMPDEST POP SWAP1 JUMP JUMPDEST PUSH1 0x0 PUSH2 0xBA3 PUSH2 0xB9E DUP5 PUSH2 0x1237 JUMP JUMPDEST PUSH2 0x1212 JUMP JUMPDEST SWAP1 POP DUP3 DUP2 MSTORE PUSH1 0x20 DUP2 ADD DUP5 DUP5 DUP5 ADD GT ISZERO PUSH2 0xBBF JUMPI PUSH2 0xBBE PUSH2 0x1456 JUMP JUMPDEST JUMPDEST PUSH2 0xBCA DUP5 DUP3 DUP6 PUSH2 0x134E JUMP JUMPDEST POP SWAP4 SWAP3 POP POP POP JUMP JUMPDEST PUSH1 0x0 PUSH2 0xBE5 PUSH2 0xBE0 DUP5 PUSH2 0x1268 JUMP JUMPDEST PUSH2 0x1212 JUMP JUMPDEST SWAP1 POP DUP3 DUP2 MSTORE PUSH1 0x20 DUP2 ADD DUP5 DUP5 DUP5 ADD GT ISZERO PUSH2 0xC01 JUMPI PUSH2 0xC00 PUSH2 0x1456 JUMP JUMPDEST JUMPDEST PUSH2 0xC0C DUP5 DUP3 DUP6 PUSH2 0x134E JUMP JUMPDEST POP SWAP4 SWAP3 POP POP POP JUMP JUMPDEST PUSH1 0x0 DUP2 CALLDATALOAD SWAP1 POP PUSH2 0xC23 DUP2 PUSH2 0x151A JUMP JUMPDEST SWAP3 SWAP2 POP POP JUMP JUMPDEST PUSH1 0x0 DUP2 MLOAD SWAP1 POP PUSH2 0xC38 DUP2 PUSH2 0x151A JUMP JUMPDEST SWAP3 SWAP2 POP POP JUMP JUMPDEST PUSH1 0x0 DUP2 MLOAD SWAP1 POP PUSH2 0xC4D DUP2 PUSH2 0x1531 JUMP JUMPDEST SWAP3 SWAP2 POP POP JUMP JUMPDEST PUSH1 0x0 DUP2 CALLDATALOAD SWAP1 POP PUSH2 0xC62 DUP2 PUSH2 0x1548 JUMP JUMPDEST SWAP3 SWAP2 POP POP JUMP JUMPDEST PUSH1 0x0 DUP2 MLOAD SWAP1 POP PUSH2 0xC77 DUP2 PUSH2 0x1548 JUMP JUMPDEST SWAP3 SWAP2 POP POP JUMP JUMPDEST PUSH1 0x0 DUP3 PUSH1 0x1F DUP4 ADD SLT PUSH2 0xC92 JUMPI PUSH2 0xC91 PUSH2 0x1451 JUMP JUMPDEST JUMPDEST DUP2 CALLDATALOAD PUSH2 0xCA2 DUP5 DUP3 PUSH1 0x20 DUP7 ADD PUSH2 0xB90 JUMP JUMPDEST SWAP2 POP POP SWAP3 SWAP2 POP POP JUMP JUMPDEST PUSH1 0x0 DUP3 PUSH1 0x1F DUP4 ADD SLT PUSH2 0xCC0 JUMPI PUSH2 0xCBF PUSH2 0x1451 JUMP JUMPDEST JUMPDEST DUP2 CALLDATALOAD PUSH2 0xCD0 DUP5 DUP3 PUSH1 0x20 DUP7 ADD PUSH2 0xBD2 JUMP JUMPDEST SWAP2 POP POP SWAP3 SWAP2 POP POP JUMP JUMPDEST PUSH1 0x0 DUP2 CALLDATALOAD SWAP1 POP PUSH2 0xCE8 DUP2 PUSH2 0x155F JUMP JUMPDEST SWAP3 SWAP2 POP POP JUMP JUMPDEST PUSH1 0x0 PUSH1 0x20 DUP3 DUP5 SUB SLT ISZERO PUSH2 0xD04 JUMPI PUSH2 0xD03 PUSH2 0x1460 JUMP JUMPDEST JUMPDEST PUSH1 0x0 PUSH2 0xD12 DUP5 DUP3 DUP6 ADD PUSH2 0xC14 JUMP JUMPDEST SWAP2 POP POP SWAP3 SWAP2 POP POP JUMP JUMPDEST PUSH1 0x0 PUSH1 0x20 DUP3 DUP5 SUB SLT ISZERO PUSH2 0xD31 JUMPI PUSH2 0xD30 PUSH2 0x1460 JUMP JUMPDEST JUMPDEST PUSH1 0x0 PUSH2 0xD3F DUP5 DUP3 DUP6 ADD PUSH2 0xC29 JUMP JUMPDEST SWAP2 POP POP SWAP3 SWAP2 POP POP JUMP JUMPDEST PUSH1 0x0 DUP1 PUSH1 0x0 PUSH1 0x60 DUP5 DUP7 SUB SLT ISZERO PUSH2 0xD61 JUMPI PUSH2 0xD60 PUSH2 0x1460 JUMP JUMPDEST JUMPDEST PUSH1 0x0 PUSH2 0xD6F DUP7 DUP3 DUP8 ADD PUSH2 0xC14 JUMP JUMPDEST SWAP4 POP POP PUSH1 0x20 PUSH2 0xD80 DUP7 DUP3 DUP8 ADD PUSH2 0xC53 JUMP JUMPDEST SWAP3 POP POP PUSH1 0x40 DUP5 ADD CALLDATALOAD PUSH8 0xFFFFFFFFFFFFFFFF DUP2 GT ISZERO PUSH2 0xDA1 JUMPI PUSH2 0xDA0 PUSH2 0x145B JUMP JUMPDEST JUMPDEST PUSH2 0xDAD DUP7 DUP3 DUP8 ADD PUSH2 0xCAB JUMP JUMPDEST SWAP2 POP POP SWAP3 POP SWAP3 POP SWAP3 JUMP JUMPDEST PUSH1 0x0 PUSH1 0x20 DUP3 DUP5 SUB SLT ISZERO PUSH2 0xDCD JUMPI PUSH2 0xDCC PUSH2 0x1460 JUMP JUMPDEST JUMPDEST PUSH1 0x0 PUSH2 0xDDB DUP5 DUP3 DUP6 ADD PUSH2 0xC3E JUMP JUMPDEST SWAP2 POP POP SWAP3 SWAP2 POP POP JUMP JUMPDEST PUSH1 0x0 DUP1 PUSH1 0x40 DUP4 DUP6 SUB SLT ISZERO PUSH2 0xDFB JUMPI PUSH2 0xDFA PUSH2 0x1460 JUMP JUMPDEST JUMPDEST PUSH1 0x0 PUSH2 0xE09 DUP6 DUP3 DUP7 ADD PUSH2 0xC3E JUMP JUMPDEST SWAP3 POP POP PUSH1 0x20 PUSH2 0xE1A DUP6 DUP3 DUP7 ADD PUSH2 0xC3E JUMP JUMPDEST SWAP2 POP POP SWAP3 POP SWAP3 SWAP1 POP JUMP JUMPDEST PUSH1 0x0 PUSH1 0x20 DUP3 DUP5 SUB SLT ISZERO PUSH2 0xE3A JUMPI PUSH2 0xE39 PUSH2 0x1460 JUMP JUMPDEST JUMPDEST PUSH1 0x0 PUSH2 0xE48 DUP5 DUP3 DUP6 ADD PUSH2 0xC68 JUMP JUMPDEST SWAP2 POP POP SWAP3 SWAP2 POP POP JUMP JUMPDEST PUSH1 0x0 DUP1 PUSH1 0x0 PUSH1 0x60 DUP5 DUP7 SUB SLT ISZERO PUSH2 0xE6A JUMPI PUSH2 0xE69 PUSH2 0x1460 JUMP JUMPDEST JUMPDEST PUSH1 0x0 PUSH2 0xE78 DUP7 DUP3 DUP8 ADD PUSH2 0xC53 JUMP JUMPDEST SWAP4 POP POP PUSH1 0x20 PUSH2 0xE89 DUP7 DUP3 DUP8 ADD PUSH2 0xC14 JUMP JUMPDEST SWAP3 POP POP PUSH1 0x40 DUP5 ADD CALLDATALOAD PUSH8 0xFFFFFFFFFFFFFFFF DUP2 GT ISZERO PUSH2 0xEAA JUMPI PUSH2 0xEA9 PUSH2 0x145B JUMP JUMPDEST JUMPDEST PUSH2 0xEB6 DUP7 DUP3 DUP8 ADD PUSH2 0xCAB JUMP JUMPDEST SWAP2 POP POP SWAP3 POP SWAP3 POP SWAP3 JUMP JUMPDEST PUSH1 0x0 PUSH1 0x20 DUP3 DUP5 SUB SLT ISZERO PUSH2 0xED6 JUMPI PUSH2 0xED5 PUSH2 0x1460 JUMP JUMPDEST JUMPDEST PUSH1 0x0 PUSH2 0xEE4 DUP5 DUP3 DUP6 ADD PUSH2 0xCD9 JUMP JUMPDEST SWAP2 POP POP SWAP3 SWAP2 POP POP JUMP JUMPDEST PUSH1 0x0 DUP1 PUSH1 0x40 DUP4 DUP6 SUB SLT ISZERO PUSH2 0xF04 JUMPI PUSH2 0xF03 PUSH2 0x1460 JUMP JUMPDEST JUMPDEST PUSH1 0x0 PUSH2 0xF12 DUP6 DUP3 DUP7 ADD PUSH2 0xCD9 JUMP JUMPDEST SWAP3 POP POP PUSH1 0x20 DUP4 ADD CALLDATALOAD PUSH8 0xFFFFFFFFFFFFFFFF DUP2 GT ISZERO PUSH2 0xF33 JUMPI PUSH2 0xF32 PUSH2 0x145B JUMP JUMPDEST JUMPDEST PUSH2 0xF3F DUP6 DUP3 DUP7 ADD PUSH2 0xC7D JUMP JUMPDEST SWAP2 POP POP SWAP3 POP SWAP3 SWAP1 POP JUMP JUMPDEST PUSH2 0xF52 DUP2 PUSH2 0x12C6 JUMP JUMPDEST DUP3 MSTORE POP POP JUMP JUMPDEST PUSH2 0xF61 DUP2 PUSH2 0x12D8 JUMP JUMPDEST DUP3 MSTORE POP POP JUMP JUMPDEST PUSH2 0xF70 DUP2 PUSH2 0x12E4 JUMP JUMPDEST DUP3 MSTORE POP POP JUMP JUMPDEST PUSH1 0x0 PUSH2 0xF81 DUP3 PUSH2 0x1299 JUMP JUMPDEST PUSH2 0xF8B DUP2 DUP6 PUSH2 0x12A4 JUMP JUMPDEST SWAP4 POP PUSH2 0xF9B DUP2 DUP6 PUSH1 0x20 DUP7 ADD PUSH2 0x135D JUMP JUMPDEST PUSH2 0xFA4 DUP2 PUSH2 0x1465 JUMP JUMPDEST DUP5 ADD SWAP2 POP POP SWAP3 SWAP2 POP POP JUMP JUMPDEST PUSH2 0xFB8 DUP2 PUSH2 0x1318 JUMP JUMPDEST DUP3 MSTORE POP POP JUMP JUMPDEST PUSH1 0x0 PUSH2 0xFCB PUSH1 0x1C DUP4 PUSH2 0x12B5 JUMP JUMPDEST SWAP2 POP PUSH2 0xFD6 DUP3 PUSH2 0x1476 JUMP JUMPDEST PUSH1 0x20 DUP3 ADD SWAP1 POP SWAP2 SWAP1 POP JUMP JUMPDEST PUSH1 0x0 PUSH2 0xFEE PUSH1 0x1C DUP4 PUSH2 0x12B5 JUMP JUMPDEST SWAP2 POP PUSH2 0xFF9 DUP3 PUSH2 0x149F JUMP JUMPDEST PUSH1 0x20 DUP3 ADD SWAP1 POP SWAP2 SWAP1 POP JUMP JUMPDEST PUSH1 0x0 PUSH2 0x1011 PUSH1 0x1D DUP4 PUSH2 0x12B5 JUMP JUMPDEST SWAP2 POP PUSH2 0x101C DUP3 PUSH2 0x14C8 JUMP JUMPDEST PUSH1 0x20 DUP3 ADD SWAP1 POP SWAP2 SWAP1 POP JUMP JUMPDEST PUSH1 0x0 PUSH2 0x1034 PUSH1 0x18 DUP4 PUSH2 0x12B5 JUMP JUMPDEST SWAP2 POP PUSH2 0x103F DUP3 PUSH2 0x14F1 JUMP JUMPDEST PUSH1 0x20 DUP3 ADD SWAP1 POP SWAP2 SWAP1 POP JUMP JUMPDEST PUSH2 0x1053 DUP2 PUSH2 0x130E JUMP JUMPDEST DUP3 MSTORE POP POP JUMP JUMPDEST PUSH1 0x0 PUSH1 0x20 DUP3 ADD SWAP1 POP PUSH2 0x106E PUSH1 0x0 DUP4 ADD DUP5 PUSH2 0xF49 JUMP JUMPDEST SWAP3 SWAP2 POP POP JUMP JUMPDEST PUSH1 0x0 PUSH1 0x20 DUP3 ADD SWAP1 POP PUSH2 0x1089 PUSH1 0x0 DUP4 ADD DUP5 PUSH2 0xF58 JUMP JUMPDEST SWAP3 SWAP2 POP POP JUMP JUMPDEST PUSH1 0x0 PUSH1 0x40 DUP3 ADD SWAP1 POP PUSH2 0x10A4 PUSH1 0x0 DUP4 ADD DUP6 PUSH2 0xF58 JUMP JUMPDEST PUSH2 0x10B1 PUSH1 0x20 DUP4 ADD DUP5 PUSH2 0xF58 JUMP JUMPDEST SWAP4 SWAP3 POP POP POP JUMP JUMPDEST PUSH1 0x0 PUSH1 0x20 DUP3 ADD SWAP1 POP PUSH2 0x10CD PUSH1 0x0 DUP4 ADD DUP5 PUSH2 0xF67 JUMP JUMPDEST SWAP3 SWAP2 POP POP JUMP JUMPDEST PUSH1 0x0 PUSH1 0x40 DUP3 ADD SWAP1 POP PUSH2 0x10E8 PUSH1 0x0 DUP4 ADD DUP6 PUSH2 0xF67 JUMP JUMPDEST PUSH2 0x10F5 PUSH1 0x20 DUP4 ADD DUP5 PUSH2 0xF49 JUMP JUMPDEST SWAP4 SWAP3 POP POP POP JUMP JUMPDEST PUSH1 0x0 PUSH1 0x20 DUP3 ADD SWAP1 POP DUP2 DUP2 SUB PUSH1 0x0 DUP4 ADD MSTORE PUSH2 0x1116 DUP2 DUP5 PUSH2 0xF76 JUMP JUMPDEST SWAP1 POP SWAP3 SWAP2 POP POP JUMP JUMPDEST PUSH1 0x0 PUSH1 0x20 DUP3 ADD SWAP1 POP PUSH2 0x1133 PUSH1 0x0 DUP4 ADD DUP5 PUSH2 0xFAF JUMP JUMPDEST SWAP3 SWAP2 POP POP JUMP JUMPDEST PUSH1 0x0 PUSH1 0x20 DUP3 ADD SWAP1 POP DUP2 DUP2 SUB PUSH1 0x0 DUP4 ADD MSTORE PUSH2 0x1152 DUP2 PUSH2 0xFBE JUMP JUMPDEST SWAP1 POP SWAP2 SWAP1 POP JUMP JUMPDEST PUSH1 0x0 PUSH1 0x20 DUP3 ADD SWAP1 POP DUP2 DUP2 SUB PUSH1 0x0 DUP4 ADD MSTORE PUSH2 0x1172 DUP2 PUSH2 0xFE1 JUMP JUMPDEST SWAP1 POP SWAP2 SWAP1 POP JUMP JUMPDEST PUSH1 0x0 PUSH1 0x20 DUP3 ADD SWAP1 POP DUP2 DUP2 SUB PUSH1 0x0 DUP4 ADD MSTORE PUSH2 0x1192 DUP2 PUSH2 0x1004 JUMP JUMPDEST SWAP1 POP SWAP2 SWAP1 POP JUMP JUMPDEST PUSH1 0x0 PUSH1 0x20 DUP3 ADD SWAP1 POP DUP2 DUP2 SUB PUSH1 0x0 DUP4 ADD MSTORE PUSH2 0x11B2 DUP2 PUSH2 0x1027 JUMP JUMPDEST SWAP1 POP SWAP2 SWAP1 POP JUMP JUMPDEST PUSH1 0x0 PUSH1 0x20 DUP3 ADD SWAP1 POP PUSH2 0x11CE PUSH1 0x0 DUP4 ADD DUP5 PUSH2 0x104A JUMP JUMPDEST SWAP3 SWAP2 POP POP JUMP JUMPDEST PUSH1 0x0 PUSH1 0x60 DUP3 ADD SWAP1 POP PUSH2 0x11E9 PUSH1 0x0 DUP4 ADD DUP7 PUSH2 0x104A JUMP JUMPDEST DUP2 DUP2 SUB PUSH1 0x20 DUP4 ADD MSTORE PUSH2 0x11FB DUP2 DUP6 PUSH2 0xF76 JUMP JUMPDEST SWAP1 POP PUSH2 0x120A PUSH1 0x40 DUP4 ADD DUP5 PUSH2 0xF49 JUMP JUMPDEST SWAP5 SWAP4 POP POP POP POP JUMP JUMPDEST PUSH1 0x0 PUSH2 0x121C PUSH2 0x122D JUMP JUMPDEST SWAP1 POP PUSH2 0x1228 DUP3 DUP3 PUSH2 0x13C2 JUMP JUMPDEST SWAP2 SWAP1 POP JUMP JUMPDEST PUSH1 0x0 PUSH1 0x40 MLOAD SWAP1 POP SWAP1 JUMP JUMPDEST PUSH1 0x0 PUSH8 0xFFFFFFFFFFFFFFFF DUP3 GT ISZERO PUSH2 0x1252 JUMPI PUSH2 0x1251 PUSH2 0x1422 JUMP JUMPDEST JUMPDEST PUSH2 0x125B DUP3 PUSH2 0x1465 JUMP JUMPDEST SWAP1 POP PUSH1 0x20 DUP2 ADD SWAP1 POP SWAP2 SWAP1 POP JUMP JUMPDEST PUSH1 0x0 PUSH8 0xFFFFFFFFFFFFFFFF DUP3 GT ISZERO PUSH2 0x1283 JUMPI PUSH2 0x1282 PUSH2 0x1422 JUMP JUMPDEST JUMPDEST PUSH2 0x128C DUP3 PUSH2 0x1465 JUMP JUMPDEST SWAP1 POP PUSH1 0x20 DUP2 ADD SWAP1 POP SWAP2 SWAP1 POP JUMP JUMPDEST PUSH1 0x0 DUP2 MLOAD SWAP1 POP SWAP2 SWAP1 POP JUMP JUMPDEST PUSH1 0x0 DUP3 DUP3 MSTORE PUSH1 0x20 DUP3 ADD SWAP1 POP SWAP3 SWAP2 POP POP JUMP JUMPDEST PUSH1 0x0 DUP3 DUP3 MSTORE PUSH1 0x20 DUP3 ADD SWAP1 POP SWAP3 SWAP2 POP POP JUMP JUMPDEST PUSH1 0x0 PUSH2 0x12D1 DUP3 PUSH2 0x12EE JUMP JUMPDEST SWAP1 POP SWAP2 SWAP1 POP JUMP JUMPDEST PUSH1 0x0 DUP2 ISZERO ISZERO SWAP1 POP SWAP2 SWAP1 POP JUMP JUMPDEST PUSH1 0x0 DUP2 SWAP1 POP SWAP2 SWAP1 POP JUMP JUMPDEST PUSH1 0x0 PUSH20 0xFFFFFFFFFFFFFFFFFFFFFFFFFFFFFFFFFFFFFFFF DUP3 AND SWAP1 POP SWAP2 SWAP1 POP JUMP JUMPDEST PUSH1 0x0 DUP2 SWAP1 POP SWAP2 SWAP1 POP JUMP JUMPDEST PUSH1 0x0 PUSH2 0x1323 DUP3 PUSH2 0x132A JUMP JUMPDEST SWAP1 POP SWAP2 SWAP1 POP JUMP JUMPDEST PUSH1 0x0 PUSH2 0x1335 DUP3 PUSH2 0x133C JUMP JUMPDEST SWAP1 POP SWAP2 SWAP1 POP JUMP JUMPDEST PUSH1 0x0 PUSH2 0x1347 DUP3 PUSH2 0x12EE JUMP JUMPDEST SWAP1 POP SWAP2 SWAP1 POP JUMP JUMPDEST DUP3 DUP2 DUP4 CALLDATACOPY PUSH1 0x0 DUP4 DUP4 ADD MSTORE POP POP POP JUMP JUMPDEST PUSH1 0x0 JUMPDEST DUP4 DUP2 LT ISZERO PUSH2 0x137B JUMPI DUP1 DUP3 ADD MLOAD DUP2 DUP5 ADD MSTORE PUSH1 0x20 DUP2 ADD SWAP1 POP PUSH2 0x1360 JUMP JUMPDEST DUP4 DUP2 GT ISZERO PUSH2 0x138A JUMPI PUSH1 0x0 DUP5 DUP5 ADD MSTORE JUMPDEST POP POP POP POP JUMP JUMPDEST PUSH1 0x0 PUSH1 0x2 DUP3 DIV SWAP1 POP PUSH1 0x1 DUP3 AND DUP1 PUSH2 0x13A8 JUMPI PUSH1 0x7F DUP3 AND SWAP2 POP JUMPDEST PUSH1 0x20 DUP3 LT DUP2 EQ ISZERO PUSH2 0x13BC JUMPI PUSH2 0x13BB PUSH2 0x13F3 JUMP JUMPDEST JUMPDEST POP SWAP2 SWAP1 POP JUMP JUMPDEST PUSH2 0x13CB DUP3 PUSH2 0x1465 JUMP JUMPDEST DUP2 ADD DUP2 DUP2 LT PUSH8 0xFFFFFFFFFFFFFFFF DUP3 GT OR ISZERO PUSH2 0x13EA JUMPI PUSH2 0x13E9 PUSH2 0x1422 JUMP JUMPDEST JUMPDEST DUP1 PUSH1 0x40 MSTORE POP POP POP JUMP JUMPDEST PUSH32 0x4E487B7100000000000000000000000000000000000000000000000000000000 PUSH1 0x0 MSTORE PUSH1 0x22 PUSH1 0x4 MSTORE PUSH1 0x24 PUSH1 0x0 REVERT JUMPDEST PUSH32 0x4E487B7100000000000000000000000000000000000000000000000000000000 PUSH1 0x0 MSTORE PUSH1 0x41 PUSH1 0x4 MSTORE PUSH1 0x24 PUSH1 0x0 REVERT JUMPDEST PUSH1 0x0 DUP1 REVERT JUMPDEST PUSH1 0x0 DUP1 REVERT JUMPDEST PUSH1 0x0 DUP1 REVERT JUMPDEST PUSH1 0x0 DUP1 REVERT JUMPDEST PUSH1 0x0 PUSH1 0x1F NOT PUSH1 0x1F DUP4 ADD AND SWAP1 POP SWAP2 SWAP1 POP JUMP JUMPDEST PUSH32 0x496E69743A204F6E6C79206465706C6F7965722063616E20696E697400000000 PUSH1 0x0 DUP3 ADD MSTORE POP JUMP JUMPDEST PUSH32 0x53797374656D3A204F6E6C7920636F72652063616E206D6F6469667900000000 PUSH1 0x0 DUP3 ADD MSTORE POP JUMP JUMPDEST PUSH32 0x496E69743A20436F6E747261637420697320696E697469616C697A6564000000 PUSH1 0x0 DUP3 ADD MSTORE POP JUMP JUMPDEST PUSH32 0x426F6F74683A20496E76616C696420766F746520747970650000000000000000 PUSH1 0x0 DUP3 ADD MSTORE POP JUMP JUMPDEST PUSH2 0x1523 DUP2 PUSH2 0x12C6 JUMP JUMPDEST DUP2 EQ PUSH2 0x152E JUMPI PUSH1 0x0 DUP1 REVERT JUMPDEST POP JUMP JUMPDEST PUSH2 0x153A DUP2 PUSH2 0x12D8 JUMP JUMPDEST DUP2 EQ PUSH2 0x1545 JUMPI PUSH1 0x0 DUP1 REVERT JUMPDEST POP JUMP JUMPDEST PUSH2 0x1551 DUP2 PUSH2 0x12E4 JUMP JUMPDEST DUP2 EQ PUSH2 0x155C JUMPI PUSH1 0x0 DUP1 REVERT JUMPDEST POP JUMP JUMPDEST PUSH2 0x1568 DUP2 PUSH2 0x130E JUMP JUMPDEST DUP2 EQ PUSH2 0x1573 JUMPI PUSH1 0x0 DUP1 REVERT JUMPDEST POP JUMP INVALID LOG2 PUSH5 0x6970667358 0x22 SLT KECCAK256 0xBB 0xF8 GAS 0xDA PUSH29 0xA3584DD81F956446DADF92E4B573F552E6A2DA32573D32A8B8BE176473 PUSH16 0x6C634300080700330000000000000000 "
        },
        "methodIdentifiers": {
          "IDENTIFIER()": "3c9747f3",
          "addVoteType(bytes32,address,string)": "cbba4b7f",
          "consensusReached(uint256)": "e343409a",
          "core_()": "eaddd0fd",
          "getVoteType(address)": "69e0a1f7",
          "initialise(address,bytes32,string)": "6e3ce913",
          "vote(uint256,bytes)": "b88b82ba"
        }
      },
      "userdoc": {
        "kind": "user",
        "methods": {},
        "version": 1
      }
    }
  }
}