{
  "contracts/Proposals.sol": {
    "Proposals": {
      "abi": [
        {
          "inputs": [
            {
              "internalType": "address",
              "name": "_core",
              "type": "address"
            }
          ],
          "stateMutability": "nonpayable",
          "type": "constructor"
        },
        {
          "anonymous": false,
          "inputs": [
            {
              "indexed": true,
              "internalType": "uint256",
              "name": "propID",
              "type": "uint256"
            },
            {
              "indexed": false,
              "internalType": "address",
              "name": "voteType",
              "type": "address"
            },
            {
              "indexed": false,
              "internalType": "bytes32",
              "name": "exeID",
              "type": "bytes32"
            }
          ],
          "name": "NewProposal",
          "type": "event"
        },
        {
          "inputs": [],
          "name": "IDENTIFIER",
          "outputs": [
            {
              "internalType": "bytes32",
              "name": "",
              "type": "bytes32"
            }
          ],
          "stateMutability": "view",
          "type": "function"
        },
        {
          "inputs": [],
          "name": "core_",
          "outputs": [
            {
              "internalType": "contract ICore",
              "name": "",
              "type": "address"
            }
          ],
          "stateMutability": "view",
          "type": "function"
        },
        {
          "inputs": [
            {
              "internalType": "string",
              "name": "_description",
              "type": "string"
            },
            {
              "internalType": "bytes32",
              "name": "_voteTypeID",
              "type": "bytes32"
            },
            {
              "internalType": "bytes32",
              "name": "_exeID",
              "type": "bytes32"
            }
          ],
          "name": "createPropWithExe",
          "outputs": [
            {
              "internalType": "uint256",
              "name": "propID",
              "type": "uint256"
            }
          ],
          "stateMutability": "nonpayable",
          "type": "function"
        },
        {
          "inputs": [
            {
              "internalType": "uint256",
              "name": "_propID",
              "type": "uint256"
            }
          ],
          "name": "getVoteType",
          "outputs": [
            {
              "internalType": "address",
              "name": "",
              "type": "address"
            }
          ],
          "stateMutability": "view",
          "type": "function"
        },
        {
          "inputs": [
            {
              "internalType": "uint256",
              "name": "_startDelay",
              "type": "uint256"
            },
            {
              "internalType": "uint256",
              "name": "_endDelay",
              "type": "uint256"
            }
          ],
          "name": "updateDelays",
          "outputs": [],
          "stateMutability": "nonpayable",
          "type": "function"
        },
        {
          "inputs": [
            {
              "internalType": "uint256",
              "name": "_newMin",
              "type": "uint256"
            }
          ],
          "name": "updateMinDelay",
          "outputs": [],
          "stateMutability": "nonpayable",
          "type": "function"
        }
      ],
      "devdoc": {
        "kind": "dev",
        "methods": {
          "updateDelays(uint256,uint256)": {
            "details": "These mins are time stamps. The min delay cannot be smaller than          15 (safe minimum).",
            "params": {
              "_endDelay": "The delay after voting starts for voting to close.",
              "_startDelay": "The delay before voting can start on a proposal."
            }
          },
          "updateMinDelay(uint256)": {
            "details": "These mins are time stamps. The min delay cannot be smaller than          15 (safe minimum).",
            "params": {
              "_newMin": "The new minimum delay for normal proposals."
            }
          }
        },
        "version": 1
      },
      "evm": {
        "bytecode": {
          "linkReferences": {},
          "object": "60c06040523480156200001157600080fd5b50604051620014ab380380620014ab8339818101604052810190620000379190620000f9565b7f36209a57dfd79e3872ec3a0c88c653bbe7e32a12306e5e1f92f118c1936ae8b28133600060026101000a81548173ffffffffffffffffffffffffffffffffffffffff021916908373ffffffffffffffffffffffffffffffffffffffff16021790555081608081815250508073ffffffffffffffffffffffffffffffffffffffff1660a08173ffffffffffffffffffffffffffffffffffffffff1660601b815250505050506200017e565b600081519050620000f38162000164565b92915050565b6000602082840312156200011257620001116200015f565b5b60006200012284828501620000e2565b91505092915050565b600062000138826200013f565b9050919050565b600073ffffffffffffffffffffffffffffffffffffffff82169050919050565b600080fd5b6200016f816200012b565b81146200017b57600080fd5b50565b60805160a05160601c6112e1620001ca600039600081816101a001528181610296015281816103630152818161046b0152818161090501526109e00152600061017c01526112e16000f3fe608060405234801561001057600080fd5b50600436106100615760003560e01c806262104a146100665780633c9747f3146100965780636aef4909146100b457806378cbf7e6146100d05780638a99d58614610100578063eaddd0fd1461011c575b600080fd5b610080600480360381019061007b9190610c1d565b61013a565b60405161008d9190610e08565b60405180910390f35b61009e61017a565b6040516100ab9190610e4c565b60405180910390f35b6100ce60048036038101906100c99190610c4a565b61019e565b005b6100ea60048036038101906100e59190610ba9565b610291565b6040516100f79190610f22565b60405180910390f35b61011a60048036038101906101159190610c1d565b610903565b005b6101246109de565b6040516101319190610e67565b60405180910390f35b60006001600083815260200190815260200160002060010160009054906101000a900473ffffffffffffffffffffffffffffffffffffffff169050919050565b7f000000000000000000000000000000000000000000000000000000000000000081565b7f000000000000000000000000000000000000000000000000000000000000000073ffffffffffffffffffffffffffffffffffffffff163373ffffffffffffffffffffffffffffffffffffffff161461022c576040517f08c379a000000000000000000000000000000000000000000000000000000000815260040161022390610e82565b60405180910390fd5b600554821015801561024057506005548110155b61027f576040517f08c379a000000000000000000000000000000000000000000000000000000000815260040161027690610ea2565b60405180910390fd5b81600381905550806004819055505050565b6000807f000000000000000000000000000000000000000000000000000000000000000073ffffffffffffffffffffffffffffffffffffffff1663624a23e07f59e2d72f5870ccddd14d35394bd3c22374071b2da7c07a3d6c3b690400b736286040518263ffffffff1660e01b815260040161030d9190610e4c565b60206040518083038186803b15801561032557600080fd5b505afa158015610339573d6000803e3d6000fd5b505050506040513d601f19601f8201168201806040525081019061035d9190610b4f565b905060007f000000000000000000000000000000000000000000000000000000000000000073ffffffffffffffffffffffffffffffffffffffff1663624a23e07fd578563424ab02f85ec03c6b1aee04947ebdd4a30db46cba3bcd7f56ef40b1996040518263ffffffff1660e01b81526004016103da9190610e4c565b60206040518083038186803b1580156103f257600080fd5b505afa158015610406573d6000803e3d6000fd5b505050506040513d601f19601f8201168201806040525081019061042a9190610b4f565b905060016002600082825461043f9190610f97565b92505081905550600254925060008173ffffffffffffffffffffffffffffffffffffffff1663701370dc7f000000000000000000000000000000000000000000000000000000000000000073ffffffffffffffffffffffffffffffffffffffff1663624a23e07f346b2ab3a980432fd8f2e24828fc9f9ee2df1548701bc542f6ec17882b3276276040518263ffffffff1660e01b81526004016104e29190610e4c565b60206040518083038186803b1580156104fa57600080fd5b505afa15801561050e573d6000803e3d6000fd5b505050506040513d601f19601f820116820180604052508101906105329190610b4f565b886040518363ffffffff1660e01b8152600401610550929190610e23565b60206040518083038186803b15801561056857600080fd5b505afa15801561057c573d6000803e3d6000fd5b505050506040513d601f19601f820116820180604052508101906105a09190610b4f565b9050600073ffffffffffffffffffffffffffffffffffffffff168173ffffffffffffffffffffffffffffffffffffffff161415610612576040517f08c379a000000000000000000000000000000000000000000000000000000000815260040161060990610f02565b60405180910390fd5b60008486604051602001610627929190610ddc565b604051602081830303815290604052905060008473ffffffffffffffffffffffffffffffffffffffff1663295adadf8789856040518463ffffffff1660e01b815260040161067793929190610f3d565b602060405180830381600087803b15801561069157600080fd5b505af11580156106a5573d6000803e3d6000fd5b505050506040513d601f19601f820116820180604052508101906106c99190610b7c565b90506000801b811415610711576040517f08c379a000000000000000000000000000000000000000000000000000000000815260040161070890610ec2565b60405180910390fd5b6000600354426107219190610f97565b90506040518060e001604052808c8c8080601f016020809104026020016040519081016040528093929190818152602001838380828437600081840152601f19601f8201169050808301925050505050505081526020018573ffffffffffffffffffffffffffffffffffffffff168152602001838152602001600160088111156107ae576107ad611111565b5b8152602001828152602001600454836107c79190610f97565b815260200160001515815250600160008981526020019081526020016000206000820151816000019080519060200190610802929190610a02565b5060208201518160010160006101000a81548173ffffffffffffffffffffffffffffffffffffffff021916908373ffffffffffffffffffffffffffffffffffffffff1602179055506040820151816002015560608201518160030160006101000a81548160ff0219169083600881111561087f5761087e611111565b5b02179055506080820151816004015560a0820151816005015560c08201518160060160006101000a81548160ff021916908315150217905550905050867f782ad24bfb2592c2db8ec384bf93db57c8c631ca93227f9419c9d185d4de793d85846040516108ed929190610e23565b60405180910390a2505050505050949350505050565b7f000000000000000000000000000000000000000000000000000000000000000073ffffffffffffffffffffffffffffffffffffffff163373ffffffffffffffffffffffffffffffffffffffff1614610991576040517f08c379a000000000000000000000000000000000000000000000000000000000815260040161098890610e82565b60405180910390fd5b600f81116109d4576040517f08c379a00000000000000000000000000000000000000000000000000000000081526004016109cb90610ee2565b60405180910390fd5b8060058190555050565b7f000000000000000000000000000000000000000000000000000000000000000081565b828054610a0e9061109c565b90600052602060002090601f016020900481019282610a305760008555610a77565b82601f10610a4957805160ff1916838001178555610a77565b82800160010185558215610a77579182015b82811115610a76578251825591602001919060010190610a5b565b5b509050610a849190610a88565b5090565b5b80821115610aa1576000816000905550600101610a89565b5090565b600081519050610ab481611266565b92915050565b600081359050610ac98161127d565b92915050565b600081519050610ade8161127d565b92915050565b60008083601f840112610afa57610af9611174565b5b8235905067ffffffffffffffff811115610b1757610b1661116f565b5b602083019150836001820283011115610b3357610b32611179565b5b9250929050565b600081359050610b4981611294565b92915050565b600060208284031215610b6557610b64611183565b5b6000610b7384828501610aa5565b91505092915050565b600060208284031215610b9257610b91611183565b5b6000610ba084828501610acf565b91505092915050565b60008060008060608587031215610bc357610bc2611183565b5b600085013567ffffffffffffffff811115610be157610be061117e565b5b610bed87828801610ae4565b94509450506020610c0087828801610aba565b9250506040610c1187828801610aba565b91505092959194509250565b600060208284031215610c3357610c32611183565b5b6000610c4184828501610b3a565b91505092915050565b60008060408385031215610c6157610c60611183565b5b6000610c6f85828601610b3a565b9250506020610c8085828601610b3a565b9150509250929050565b610c9381610fed565b82525050565b610ca281610fff565b82525050565b610cb9610cb482610fff565b6110ce565b82525050565b610cc881611033565b82525050565b6000610cd982610f7b565b610ce38185610f86565b9350610cf3818560208601611069565b610cfc81611188565b840191505092915050565b6000610d14601c83610f86565b9150610d1f82611199565b602082019050919050565b6000610d37601883610f86565b9150610d42826111c2565b602082019050919050565b6000610d5a601883610f86565b9150610d65826111eb565b602082019050919050565b6000610d7d601583610f86565b9150610d8882611214565b602082019050919050565b6000610da0601783610f86565b9150610dab8261123d565b602082019050919050565b610dbf81611029565b82525050565b610dd6610dd182611029565b6110d8565b82525050565b6000610de88285610dc5565b602082019150610df88284610ca8565b6020820191508190509392505050565b6000602082019050610e1d6000830184610c8a565b92915050565b6000604082019050610e386000830185610c8a565b610e456020830184610c99565b9392505050565b6000602082019050610e616000830184610c99565b92915050565b6000602082019050610e7c6000830184610cbf565b92915050565b60006020820190508181036000830152610e9b81610d07565b9050919050565b60006020820190508181036000830152610ebb81610d2a565b9050919050565b60006020820190508181036000830152610edb81610d4d565b9050919050565b60006020820190508181036000830152610efb81610d70565b9050919050565b60006020820190508181036000830152610f1b81610d93565b9050919050565b6000602082019050610f376000830184610db6565b92915050565b6000606082019050610f526000830186610db6565b610f5f6020830185610c99565b8181036040830152610f718184610cce565b9050949350505050565b600081519050919050565b600082825260208201905092915050565b6000610fa282611029565b9150610fad83611029565b9250827fffffffffffffffffffffffffffffffffffffffffffffffffffffffffffffffff03821115610fe257610fe16110e2565b5b828201905092915050565b6000610ff882611009565b9050919050565b6000819050919050565b600073ffffffffffffffffffffffffffffffffffffffff82169050919050565b6000819050919050565b600061103e82611045565b9050919050565b600061105082611057565b9050919050565b600061106282611009565b9050919050565b60005b8381101561108757808201518184015260208101905061106c565b83811115611096576000848401525b50505050565b600060028204905060018216806110b457607f821691505b602082108114156110c8576110c7611140565b5b50919050565b6000819050919050565b6000819050919050565b7f4e487b7100000000000000000000000000000000000000000000000000000000600052601160045260246000fd5b7f4e487b7100000000000000000000000000000000000000000000000000000000600052602160045260246000fd5b7f4e487b7100000000000000000000000000000000000000000000000000000000600052602260045260246000fd5b600080fd5b600080fd5b600080fd5b600080fd5b600080fd5b6000601f19601f8301169050919050565b7f53797374656d3a204f6e6c7920636f72652063616e206d6f6469667900000000600082015250565b7f50726f703a2064656c6179732063616e6e6f7420626520300000000000000000600082015250565b7f50726f703a2045786520646f6573206e6f742065786973740000000000000000600082015250565b7f50726f703a206d696e2063616e6e6f7420626520300000000000000000000000600082015250565b7f50726f703a20496e76616c696420766f74652074797065000000000000000000600082015250565b61126f81610fed565b811461127a57600080fd5b50565b61128681610fff565b811461129157600080fd5b50565b61129d81611029565b81146112a857600080fd5b5056fea26469706673582212202ee9fde0a6808231ae8219a98d7b503b1eb7d7248a5f6119b13c861c435d1cd164736f6c63430008070033",
          "opcodes": "PUSH1 0xC0 PUSH1 0x40 MSTORE CALLVALUE DUP1 ISZERO PUSH3 0x11 JUMPI PUSH1 0x0 DUP1 REVERT JUMPDEST POP PUSH1 0x40 MLOAD PUSH3 0x14AB CODESIZE SUB DUP1 PUSH3 0x14AB DUP4 CODECOPY DUP2 DUP2 ADD PUSH1 0x40 MSTORE DUP2 ADD SWAP1 PUSH3 0x37 SWAP2 SWAP1 PUSH3 0xF9 JUMP JUMPDEST PUSH32 0x36209A57DFD79E3872EC3A0C88C653BBE7E32A12306E5E1F92F118C1936AE8B2 DUP2 CALLER PUSH1 0x0 PUSH1 0x2 PUSH2 0x100 EXP DUP2 SLOAD DUP2 PUSH20 0xFFFFFFFFFFFFFFFFFFFFFFFFFFFFFFFFFFFFFFFF MUL NOT AND SWAP1 DUP4 PUSH20 0xFFFFFFFFFFFFFFFFFFFFFFFFFFFFFFFFFFFFFFFF AND MUL OR SWAP1 SSTORE POP DUP2 PUSH1 0x80 DUP2 DUP2 MSTORE POP POP DUP1 PUSH20 0xFFFFFFFFFFFFFFFFFFFFFFFFFFFFFFFFFFFFFFFF AND PUSH1 0xA0 DUP2 PUSH20 0xFFFFFFFFFFFFFFFFFFFFFFFFFFFFFFFFFFFFFFFF AND PUSH1 0x60 SHL DUP2 MSTORE POP POP POP POP POP PUSH3 0x17E JUMP JUMPDEST PUSH1 0x0 DUP2 MLOAD SWAP1 POP PUSH3 0xF3 DUP2 PUSH3 0x164 JUMP JUMPDEST SWAP3 SWAP2 POP POP JUMP JUMPDEST PUSH1 0x0 PUSH1 0x20 DUP3 DUP5 SUB SLT ISZERO PUSH3 0x112 JUMPI PUSH3 0x111 PUSH3 0x15F JUMP JUMPDEST JUMPDEST PUSH1 0x0 PUSH3 0x122 DUP5 DUP3 DUP6 ADD PUSH3 0xE2 JUMP JUMPDEST SWAP2 POP POP SWAP3 SWAP2 POP POP JUMP JUMPDEST PUSH1 0x0 PUSH3 0x138 DUP3 PUSH3 0x13F JUMP JUMPDEST SWAP1 POP SWAP2 SWAP1 POP JUMP JUMPDEST PUSH1 0x0 PUSH20 0xFFFFFFFFFFFFFFFFFFFFFFFFFFFFFFFFFFFFFFFF DUP3 AND SWAP1 POP SWAP2 SWAP1 POP JUMP JUMPDEST PUSH1 0x0 DUP1 REVERT JUMPDEST PUSH3 0x16F DUP2 PUSH3 0x12B JUMP JUMPDEST DUP2 EQ PUSH3 0x17B JUMPI PUSH1 0x0 DUP1 REVERT JUMPDEST POP JUMP JUMPDEST PUSH1 0x80 MLOAD PUSH1 0xA0 MLOAD PUSH1 0x60 SHR PUSH2 0x12E1 PUSH3 0x1CA PUSH1 0x0 CODECOPY PUSH1 0x0 DUP2 DUP2 PUSH2 0x1A0 ADD MSTORE DUP2 DUP2 PUSH2 0x296 ADD MSTORE DUP2 DUP2 PUSH2 0x363 ADD MSTORE DUP2 DUP2 PUSH2 0x46B ADD MSTORE DUP2 DUP2 PUSH2 0x905 ADD MSTORE PUSH2 0x9E0 ADD MSTORE PUSH1 0x0 PUSH2 0x17C ADD MSTORE PUSH2 0x12E1 PUSH1 0x0 RETURN INVALID PUSH1 0x80 PUSH1 0x40 MSTORE CALLVALUE DUP1 ISZERO PUSH2 0x10 JUMPI PUSH1 0x0 DUP1 REVERT JUMPDEST POP PUSH1 0x4 CALLDATASIZE LT PUSH2 0x61 JUMPI PUSH1 0x0 CALLDATALOAD PUSH1 0xE0 SHR DUP1 PUSH3 0x62104A EQ PUSH2 0x66 JUMPI DUP1 PUSH4 0x3C9747F3 EQ PUSH2 0x96 JUMPI DUP1 PUSH4 0x6AEF4909 EQ PUSH2 0xB4 JUMPI DUP1 PUSH4 0x78CBF7E6 EQ PUSH2 0xD0 JUMPI DUP1 PUSH4 0x8A99D586 EQ PUSH2 0x100 JUMPI DUP1 PUSH4 0xEADDD0FD EQ PUSH2 0x11C JUMPI JUMPDEST PUSH1 0x0 DUP1 REVERT JUMPDEST PUSH2 0x80 PUSH1 0x4 DUP1 CALLDATASIZE SUB DUP2 ADD SWAP1 PUSH2 0x7B SWAP2 SWAP1 PUSH2 0xC1D JUMP JUMPDEST PUSH2 0x13A JUMP JUMPDEST PUSH1 0x40 MLOAD PUSH2 0x8D SWAP2 SWAP1 PUSH2 0xE08 JUMP JUMPDEST PUSH1 0x40 MLOAD DUP1 SWAP2 SUB SWAP1 RETURN JUMPDEST PUSH2 0x9E PUSH2 0x17A JUMP JUMPDEST PUSH1 0x40 MLOAD PUSH2 0xAB SWAP2 SWAP1 PUSH2 0xE4C JUMP JUMPDEST PUSH1 0x40 MLOAD DUP1 SWAP2 SUB SWAP1 RETURN JUMPDEST PUSH2 0xCE PUSH1 0x4 DUP1 CALLDATASIZE SUB DUP2 ADD SWAP1 PUSH2 0xC9 SWAP2 SWAP1 PUSH2 0xC4A JUMP JUMPDEST PUSH2 0x19E JUMP JUMPDEST STOP JUMPDEST PUSH2 0xEA PUSH1 0x4 DUP1 CALLDATASIZE SUB DUP2 ADD SWAP1 PUSH2 0xE5 SWAP2 SWAP1 PUSH2 0xBA9 JUMP JUMPDEST PUSH2 0x291 JUMP JUMPDEST PUSH1 0x40 MLOAD PUSH2 0xF7 SWAP2 SWAP1 PUSH2 0xF22 JUMP JUMPDEST PUSH1 0x40 MLOAD DUP1 SWAP2 SUB SWAP1 RETURN JUMPDEST PUSH2 0x11A PUSH1 0x4 DUP1 CALLDATASIZE SUB DUP2 ADD SWAP1 PUSH2 0x115 SWAP2 SWAP1 PUSH2 0xC1D JUMP JUMPDEST PUSH2 0x903 JUMP JUMPDEST STOP JUMPDEST PUSH2 0x124 PUSH2 0x9DE JUMP JUMPDEST PUSH1 0x40 MLOAD PUSH2 0x131 SWAP2 SWAP1 PUSH2 0xE67 JUMP JUMPDEST PUSH1 0x40 MLOAD DUP1 SWAP2 SUB SWAP1 RETURN JUMPDEST PUSH1 0x0 PUSH1 0x1 PUSH1 0x0 DUP4 DUP2 MSTORE PUSH1 0x20 ADD SWAP1 DUP2 MSTORE PUSH1 0x20 ADD PUSH1 0x0 KECCAK256 PUSH1 0x1 ADD PUSH1 0x0 SWAP1 SLOAD SWAP1 PUSH2 0x100 EXP SWAP1 DIV PUSH20 0xFFFFFFFFFFFFFFFFFFFFFFFFFFFFFFFFFFFFFFFF AND SWAP1 POP SWAP2 SWAP1 POP JUMP JUMPDEST PUSH32 0x0 DUP2 JUMP JUMPDEST PUSH32 0x0 PUSH20 0xFFFFFFFFFFFFFFFFFFFFFFFFFFFFFFFFFFFFFFFF AND CALLER PUSH20 0xFFFFFFFFFFFFFFFFFFFFFFFFFFFFFFFFFFFFFFFF AND EQ PUSH2 0x22C JUMPI PUSH1 0x40 MLOAD PUSH32 0x8C379A000000000000000000000000000000000000000000000000000000000 DUP2 MSTORE PUSH1 0x4 ADD PUSH2 0x223 SWAP1 PUSH2 0xE82 JUMP JUMPDEST PUSH1 0x40 MLOAD DUP1 SWAP2 SUB SWAP1 REVERT JUMPDEST PUSH1 0x5 SLOAD DUP3 LT ISZERO DUP1 ISZERO PUSH2 0x240 JUMPI POP PUSH1 0x5 SLOAD DUP2 LT ISZERO JUMPDEST PUSH2 0x27F JUMPI PUSH1 0x40 MLOAD PUSH32 0x8C379A000000000000000000000000000000000000000000000000000000000 DUP2 MSTORE PUSH1 0x4 ADD PUSH2 0x276 SWAP1 PUSH2 0xEA2 JUMP JUMPDEST PUSH1 0x40 MLOAD DUP1 SWAP2 SUB SWAP1 REVERT JUMPDEST DUP2 PUSH1 0x3 DUP2 SWAP1 SSTORE POP DUP1 PUSH1 0x4 DUP2 SWAP1 SSTORE POP POP POP JUMP JUMPDEST PUSH1 0x0 DUP1 PUSH32 0x0 PUSH20 0xFFFFFFFFFFFFFFFFFFFFFFFFFFFFFFFFFFFFFFFF AND PUSH4 0x624A23E0 PUSH32 0x59E2D72F5870CCDDD14D35394BD3C22374071B2DA7C07A3D6C3B690400B73628 PUSH1 0x40 MLOAD DUP3 PUSH4 0xFFFFFFFF AND PUSH1 0xE0 SHL DUP2 MSTORE PUSH1 0x4 ADD PUSH2 0x30D SWAP2 SWAP1 PUSH2 0xE4C JUMP JUMPDEST PUSH1 0x20 PUSH1 0x40 MLOAD DUP1 DUP4 SUB DUP2 DUP7 DUP1 EXTCODESIZE ISZERO DUP1 ISZERO PUSH2 0x325 JUMPI PUSH1 0x0 DUP1 REVERT JUMPDEST POP GAS STATICCALL ISZERO DUP1 ISZERO PUSH2 0x339 JUMPI RETURNDATASIZE PUSH1 0x0 DUP1 RETURNDATACOPY RETURNDATASIZE PUSH1 0x0 REVERT JUMPDEST POP POP POP POP PUSH1 0x40 MLOAD RETURNDATASIZE PUSH1 0x1F NOT PUSH1 0x1F DUP3 ADD AND DUP3 ADD DUP1 PUSH1 0x40 MSTORE POP DUP2 ADD SWAP1 PUSH2 0x35D SWAP2 SWAP1 PUSH2 0xB4F JUMP JUMPDEST SWAP1 POP PUSH1 0x0 PUSH32 0x0 PUSH20 0xFFFFFFFFFFFFFFFFFFFFFFFFFFFFFFFFFFFFFFFF AND PUSH4 0x624A23E0 PUSH32 0xD578563424AB02F85EC03C6B1AEE04947EBDD4A30DB46CBA3BCD7F56EF40B199 PUSH1 0x40 MLOAD DUP3 PUSH4 0xFFFFFFFF AND PUSH1 0xE0 SHL DUP2 MSTORE PUSH1 0x4 ADD PUSH2 0x3DA SWAP2 SWAP1 PUSH2 0xE4C JUMP JUMPDEST PUSH1 0x20 PUSH1 0x40 MLOAD DUP1 DUP4 SUB DUP2 DUP7 DUP1 EXTCODESIZE ISZERO DUP1 ISZERO PUSH2 0x3F2 JUMPI PUSH1 0x0 DUP1 REVERT JUMPDEST POP GAS STATICCALL ISZERO DUP1 ISZERO PUSH2 0x406 JUMPI RETURNDATASIZE PUSH1 0x0 DUP1 RETURNDATACOPY RETURNDATASIZE PUSH1 0x0 REVERT JUMPDEST POP POP POP POP PUSH1 0x40 MLOAD RETURNDATASIZE PUSH1 0x1F NOT PUSH1 0x1F DUP3 ADD AND DUP3 ADD DUP1 PUSH1 0x40 MSTORE POP DUP2 ADD SWAP1 PUSH2 0x42A SWAP2 SWAP1 PUSH2 0xB4F JUMP JUMPDEST SWAP1 POP PUSH1 0x1 PUSH1 0x2 PUSH1 0x0 DUP3 DUP3 SLOAD PUSH2 0x43F SWAP2 SWAP1 PUSH2 0xF97 JUMP JUMPDEST SWAP3 POP POP DUP2 SWAP1 SSTORE POP PUSH1 0x2 SLOAD SWAP3 POP PUSH1 0x0 DUP2 PUSH20 0xFFFFFFFFFFFFFFFFFFFFFFFFFFFFFFFFFFFFFFFF AND PUSH4 0x701370DC PUSH32 0x0 PUSH20 0xFFFFFFFFFFFFFFFFFFFFFFFFFFFFFFFFFFFFFFFF AND PUSH4 0x624A23E0 PUSH32 0x346B2AB3A980432FD8F2E24828FC9F9EE2DF1548701BC542F6EC17882B327627 PUSH1 0x40 MLOAD DUP3 PUSH4 0xFFFFFFFF AND PUSH1 0xE0 SHL DUP2 MSTORE PUSH1 0x4 ADD PUSH2 0x4E2 SWAP2 SWAP1 PUSH2 0xE4C JUMP JUMPDEST PUSH1 0x20 PUSH1 0x40 MLOAD DUP1 DUP4 SUB DUP2 DUP7 DUP1 EXTCODESIZE ISZERO DUP1 ISZERO PUSH2 0x4FA JUMPI PUSH1 0x0 DUP1 REVERT JUMPDEST POP GAS STATICCALL ISZERO DUP1 ISZERO PUSH2 0x50E JUMPI RETURNDATASIZE PUSH1 0x0 DUP1 RETURNDATACOPY RETURNDATASIZE PUSH1 0x0 REVERT JUMPDEST POP POP POP POP PUSH1 0x40 MLOAD RETURNDATASIZE PUSH1 0x1F NOT PUSH1 0x1F DUP3 ADD AND DUP3 ADD DUP1 PUSH1 0x40 MSTORE POP DUP2 ADD SWAP1 PUSH2 0x532 SWAP2 SWAP1 PUSH2 0xB4F JUMP JUMPDEST DUP9 PUSH1 0x40 MLOAD DUP4 PUSH4 0xFFFFFFFF AND PUSH1 0xE0 SHL DUP2 MSTORE PUSH1 0x4 ADD PUSH2 0x550 SWAP3 SWAP2 SWAP1 PUSH2 0xE23 JUMP JUMPDEST PUSH1 0x20 PUSH1 0x40 MLOAD DUP1 DUP4 SUB DUP2 DUP7 DUP1 EXTCODESIZE ISZERO DUP1 ISZERO PUSH2 0x568 JUMPI PUSH1 0x0 DUP1 REVERT JUMPDEST POP GAS STATICCALL ISZERO DUP1 ISZERO PUSH2 0x57C JUMPI RETURNDATASIZE PUSH1 0x0 DUP1 RETURNDATACOPY RETURNDATASIZE PUSH1 0x0 REVERT JUMPDEST POP POP POP POP PUSH1 0x40 MLOAD RETURNDATASIZE PUSH1 0x1F NOT PUSH1 0x1F DUP3 ADD AND DUP3 ADD DUP1 PUSH1 0x40 MSTORE POP DUP2 ADD SWAP1 PUSH2 0x5A0 SWAP2 SWAP1 PUSH2 0xB4F JUMP JUMPDEST SWAP1 POP PUSH1 0x0 PUSH20 0xFFFFFFFFFFFFFFFFFFFFFFFFFFFFFFFFFFFFFFFF AND DUP2 PUSH20 0xFFFFFFFFFFFFFFFFFFFFFFFFFFFFFFFFFFFFFFFF AND EQ ISZERO PUSH2 0x612 JUMPI PUSH1 0x40 MLOAD PUSH32 0x8C379A000000000000000000000000000000000000000000000000000000000 DUP2 MSTORE PUSH1 0x4 ADD PUSH2 0x609 SWAP1 PUSH2 0xF02 JUMP JUMPDEST PUSH1 0x40 MLOAD DUP1 SWAP2 SUB SWAP1 REVERT JUMPDEST PUSH1 0x0 DUP5 DUP7 PUSH1 0x40 MLOAD PUSH1 0x20 ADD PUSH2 0x627 SWAP3 SWAP2 SWAP1 PUSH2 0xDDC JUMP JUMPDEST PUSH1 0x40 MLOAD PUSH1 0x20 DUP2 DUP4 SUB SUB DUP2 MSTORE SWAP1 PUSH1 0x40 MSTORE SWAP1 POP PUSH1 0x0 DUP5 PUSH20 0xFFFFFFFFFFFFFFFFFFFFFFFFFFFFFFFFFFFFFFFF AND PUSH4 0x295ADADF DUP8 DUP10 DUP6 PUSH1 0x40 MLOAD DUP5 PUSH4 0xFFFFFFFF AND PUSH1 0xE0 SHL DUP2 MSTORE PUSH1 0x4 ADD PUSH2 0x677 SWAP4 SWAP3 SWAP2 SWAP1 PUSH2 0xF3D JUMP JUMPDEST PUSH1 0x20 PUSH1 0x40 MLOAD DUP1 DUP4 SUB DUP2 PUSH1 0x0 DUP8 DUP1 EXTCODESIZE ISZERO DUP1 ISZERO PUSH2 0x691 JUMPI PUSH1 0x0 DUP1 REVERT JUMPDEST POP GAS CALL ISZERO DUP1 ISZERO PUSH2 0x6A5 JUMPI RETURNDATASIZE PUSH1 0x0 DUP1 RETURNDATACOPY RETURNDATASIZE PUSH1 0x0 REVERT JUMPDEST POP POP POP POP PUSH1 0x40 MLOAD RETURNDATASIZE PUSH1 0x1F NOT PUSH1 0x1F DUP3 ADD AND DUP3 ADD DUP1 PUSH1 0x40 MSTORE POP DUP2 ADD SWAP1 PUSH2 0x6C9 SWAP2 SWAP1 PUSH2 0xB7C JUMP JUMPDEST SWAP1 POP PUSH1 0x0 DUP1 SHL DUP2 EQ ISZERO PUSH2 0x711 JUMPI PUSH1 0x40 MLOAD PUSH32 0x8C379A000000000000000000000000000000000000000000000000000000000 DUP2 MSTORE PUSH1 0x4 ADD PUSH2 0x708 SWAP1 PUSH2 0xEC2 JUMP JUMPDEST PUSH1 0x40 MLOAD DUP1 SWAP2 SUB SWAP1 REVERT JUMPDEST PUSH1 0x0 PUSH1 0x3 SLOAD TIMESTAMP PUSH2 0x721 SWAP2 SWAP1 PUSH2 0xF97 JUMP JUMPDEST SWAP1 POP PUSH1 0x40 MLOAD DUP1 PUSH1 0xE0 ADD PUSH1 0x40 MSTORE DUP1 DUP13 DUP13 DUP1 DUP1 PUSH1 0x1F ADD PUSH1 0x20 DUP1 SWAP2 DIV MUL PUSH1 0x20 ADD PUSH1 0x40 MLOAD SWAP1 DUP2 ADD PUSH1 0x40 MSTORE DUP1 SWAP4 SWAP3 SWAP2 SWAP1 DUP2 DUP2 MSTORE PUSH1 0x20 ADD DUP4 DUP4 DUP1 DUP3 DUP5 CALLDATACOPY PUSH1 0x0 DUP2 DUP5 ADD MSTORE PUSH1 0x1F NOT PUSH1 0x1F DUP3 ADD AND SWAP1 POP DUP1 DUP4 ADD SWAP3 POP POP POP POP POP POP POP DUP2 MSTORE PUSH1 0x20 ADD DUP6 PUSH20 0xFFFFFFFFFFFFFFFFFFFFFFFFFFFFFFFFFFFFFFFF AND DUP2 MSTORE PUSH1 0x20 ADD DUP4 DUP2 MSTORE PUSH1 0x20 ADD PUSH1 0x1 PUSH1 0x8 DUP2 GT ISZERO PUSH2 0x7AE JUMPI PUSH2 0x7AD PUSH2 0x1111 JUMP JUMPDEST JUMPDEST DUP2 MSTORE PUSH1 0x20 ADD DUP3 DUP2 MSTORE PUSH1 0x20 ADD PUSH1 0x4 SLOAD DUP4 PUSH2 0x7C7 SWAP2 SWAP1 PUSH2 0xF97 JUMP JUMPDEST DUP2 MSTORE PUSH1 0x20 ADD PUSH1 0x0 ISZERO ISZERO DUP2 MSTORE POP PUSH1 0x1 PUSH1 0x0 DUP10 DUP2 MSTORE PUSH1 0x20 ADD SWAP1 DUP2 MSTORE PUSH1 0x20 ADD PUSH1 0x0 KECCAK256 PUSH1 0x0 DUP3 ADD MLOAD DUP2 PUSH1 0x0 ADD SWAP1 DUP1 MLOAD SWAP1 PUSH1 0x20 ADD SWAP1 PUSH2 0x802 SWAP3 SWAP2 SWAP1 PUSH2 0xA02 JUMP JUMPDEST POP PUSH1 0x20 DUP3 ADD MLOAD DUP2 PUSH1 0x1 ADD PUSH1 0x0 PUSH2 0x100 EXP DUP2 SLOAD DUP2 PUSH20 0xFFFFFFFFFFFFFFFFFFFFFFFFFFFFFFFFFFFFFFFF MUL NOT AND SWAP1 DUP4 PUSH20 0xFFFFFFFFFFFFFFFFFFFFFFFFFFFFFFFFFFFFFFFF AND MUL OR SWAP1 SSTORE POP PUSH1 0x40 DUP3 ADD MLOAD DUP2 PUSH1 0x2 ADD SSTORE PUSH1 0x60 DUP3 ADD MLOAD DUP2 PUSH1 0x3 ADD PUSH1 0x0 PUSH2 0x100 EXP DUP2 SLOAD DUP2 PUSH1 0xFF MUL NOT AND SWAP1 DUP4 PUSH1 0x8 DUP2 GT ISZERO PUSH2 0x87F JUMPI PUSH2 0x87E PUSH2 0x1111 JUMP JUMPDEST JUMPDEST MUL OR SWAP1 SSTORE POP PUSH1 0x80 DUP3 ADD MLOAD DUP2 PUSH1 0x4 ADD SSTORE PUSH1 0xA0 DUP3 ADD MLOAD DUP2 PUSH1 0x5 ADD SSTORE PUSH1 0xC0 DUP3 ADD MLOAD DUP2 PUSH1 0x6 ADD PUSH1 0x0 PUSH2 0x100 EXP DUP2 SLOAD DUP2 PUSH1 0xFF MUL NOT AND SWAP1 DUP4 ISZERO ISZERO MUL OR SWAP1 SSTORE POP SWAP1 POP POP DUP7 PUSH32 0x782AD24BFB2592C2DB8EC384BF93DB57C8C631CA93227F9419C9D185D4DE793D DUP6 DUP5 PUSH1 0x40 MLOAD PUSH2 0x8ED SWAP3 SWAP2 SWAP1 PUSH2 0xE23 JUMP JUMPDEST PUSH1 0x40 MLOAD DUP1 SWAP2 SUB SWAP1 LOG2 POP POP POP POP POP POP SWAP5 SWAP4 POP POP POP POP JUMP JUMPDEST PUSH32 0x0 PUSH20 0xFFFFFFFFFFFFFFFFFFFFFFFFFFFFFFFFFFFFFFFF AND CALLER PUSH20 0xFFFFFFFFFFFFFFFFFFFFFFFFFFFFFFFFFFFFFFFF AND EQ PUSH2 0x991 JUMPI PUSH1 0x40 MLOAD PUSH32 0x8C379A000000000000000000000000000000000000000000000000000000000 DUP2 MSTORE PUSH1 0x4 ADD PUSH2 0x988 SWAP1 PUSH2 0xE82 JUMP JUMPDEST PUSH1 0x40 MLOAD DUP1 SWAP2 SUB SWAP1 REVERT JUMPDEST PUSH1 0xF DUP2 GT PUSH2 0x9D4 JUMPI PUSH1 0x40 MLOAD PUSH32 0x8C379A000000000000000000000000000000000000000000000000000000000 DUP2 MSTORE PUSH1 0x4 ADD PUSH2 0x9CB SWAP1 PUSH2 0xEE2 JUMP JUMPDEST PUSH1 0x40 MLOAD DUP1 SWAP2 SUB SWAP1 REVERT JUMPDEST DUP1 PUSH1 0x5 DUP2 SWAP1 SSTORE POP POP JUMP JUMPDEST PUSH32 0x0 DUP2 JUMP JUMPDEST DUP3 DUP1 SLOAD PUSH2 0xA0E SWAP1 PUSH2 0x109C JUMP JUMPDEST SWAP1 PUSH1 0x0 MSTORE PUSH1 0x20 PUSH1 0x0 KECCAK256 SWAP1 PUSH1 0x1F ADD PUSH1 0x20 SWAP1 DIV DUP2 ADD SWAP3 DUP3 PUSH2 0xA30 JUMPI PUSH1 0x0 DUP6 SSTORE PUSH2 0xA77 JUMP JUMPDEST DUP3 PUSH1 0x1F LT PUSH2 0xA49 JUMPI DUP1 MLOAD PUSH1 0xFF NOT AND DUP4 DUP1 ADD OR DUP6 SSTORE PUSH2 0xA77 JUMP JUMPDEST DUP3 DUP1 ADD PUSH1 0x1 ADD DUP6 SSTORE DUP3 ISZERO PUSH2 0xA77 JUMPI SWAP2 DUP3 ADD JUMPDEST DUP3 DUP2 GT ISZERO PUSH2 0xA76 JUMPI DUP3 MLOAD DUP3 SSTORE SWAP2 PUSH1 0x20 ADD SWAP2 SWAP1 PUSH1 0x1 ADD SWAP1 PUSH2 0xA5B JUMP JUMPDEST JUMPDEST POP SWAP1 POP PUSH2 0xA84 SWAP2 SWAP1 PUSH2 0xA88 JUMP JUMPDEST POP SWAP1 JUMP JUMPDEST JUMPDEST DUP1 DUP3 GT ISZERO PUSH2 0xAA1 JUMPI PUSH1 0x0 DUP2 PUSH1 0x0 SWAP1 SSTORE POP PUSH1 0x1 ADD PUSH2 0xA89 JUMP JUMPDEST POP SWAP1 JUMP JUMPDEST PUSH1 0x0 DUP2 MLOAD SWAP1 POP PUSH2 0xAB4 DUP2 PUSH2 0x1266 JUMP JUMPDEST SWAP3 SWAP2 POP POP JUMP JUMPDEST PUSH1 0x0 DUP2 CALLDATALOAD SWAP1 POP PUSH2 0xAC9 DUP2 PUSH2 0x127D JUMP JUMPDEST SWAP3 SWAP2 POP POP JUMP JUMPDEST PUSH1 0x0 DUP2 MLOAD SWAP1 POP PUSH2 0xADE DUP2 PUSH2 0x127D JUMP JUMPDEST SWAP3 SWAP2 POP POP JUMP JUMPDEST PUSH1 0x0 DUP1 DUP4 PUSH1 0x1F DUP5 ADD SLT PUSH2 0xAFA JUMPI PUSH2 0xAF9 PUSH2 0x1174 JUMP JUMPDEST JUMPDEST DUP3 CALLDATALOAD SWAP1 POP PUSH8 0xFFFFFFFFFFFFFFFF DUP2 GT ISZERO PUSH2 0xB17 JUMPI PUSH2 0xB16 PUSH2 0x116F JUMP JUMPDEST JUMPDEST PUSH1 0x20 DUP4 ADD SWAP2 POP DUP4 PUSH1 0x1 DUP3 MUL DUP4 ADD GT ISZERO PUSH2 0xB33 JUMPI PUSH2 0xB32 PUSH2 0x1179 JUMP JUMPDEST JUMPDEST SWAP3 POP SWAP3 SWAP1 POP JUMP JUMPDEST PUSH1 0x0 DUP2 CALLDATALOAD SWAP1 POP PUSH2 0xB49 DUP2 PUSH2 0x1294 JUMP JUMPDEST SWAP3 SWAP2 POP POP JUMP JUMPDEST PUSH1 0x0 PUSH1 0x20 DUP3 DUP5 SUB SLT ISZERO PUSH2 0xB65 JUMPI PUSH2 0xB64 PUSH2 0x1183 JUMP JUMPDEST JUMPDEST PUSH1 0x0 PUSH2 0xB73 DUP5 DUP3 DUP6 ADD PUSH2 0xAA5 JUMP JUMPDEST SWAP2 POP POP SWAP3 SWAP2 POP POP JUMP JUMPDEST PUSH1 0x0 PUSH1 0x20 DUP3 DUP5 SUB SLT ISZERO PUSH2 0xB92 JUMPI PUSH2 0xB91 PUSH2 0x1183 JUMP JUMPDEST JUMPDEST PUSH1 0x0 PUSH2 0xBA0 DUP5 DUP3 DUP6 ADD PUSH2 0xACF JUMP JUMPDEST SWAP2 POP POP SWAP3 SWAP2 POP POP JUMP JUMPDEST PUSH1 0x0 DUP1 PUSH1 0x0 DUP1 PUSH1 0x60 DUP6 DUP8 SUB SLT ISZERO PUSH2 0xBC3 JUMPI PUSH2 0xBC2 PUSH2 0x1183 JUMP JUMPDEST JUMPDEST PUSH1 0x0 DUP6 ADD CALLDATALOAD PUSH8 0xFFFFFFFFFFFFFFFF DUP2 GT ISZERO PUSH2 0xBE1 JUMPI PUSH2 0xBE0 PUSH2 0x117E JUMP JUMPDEST JUMPDEST PUSH2 0xBED DUP8 DUP3 DUP9 ADD PUSH2 0xAE4 JUMP JUMPDEST SWAP5 POP SWAP5 POP POP PUSH1 0x20 PUSH2 0xC00 DUP8 DUP3 DUP9 ADD PUSH2 0xABA JUMP JUMPDEST SWAP3 POP POP PUSH1 0x40 PUSH2 0xC11 DUP8 DUP3 DUP9 ADD PUSH2 0xABA JUMP JUMPDEST SWAP2 POP POP SWAP3 SWAP6 SWAP2 SWAP5 POP SWAP3 POP JUMP JUMPDEST PUSH1 0x0 PUSH1 0x20 DUP3 DUP5 SUB SLT ISZERO PUSH2 0xC33 JUMPI PUSH2 0xC32 PUSH2 0x1183 JUMP JUMPDEST JUMPDEST PUSH1 0x0 PUSH2 0xC41 DUP5 DUP3 DUP6 ADD PUSH2 0xB3A JUMP JUMPDEST SWAP2 POP POP SWAP3 SWAP2 POP POP JUMP JUMPDEST PUSH1 0x0 DUP1 PUSH1 0x40 DUP4 DUP6 SUB SLT ISZERO PUSH2 0xC61 JUMPI PUSH2 0xC60 PUSH2 0x1183 JUMP JUMPDEST JUMPDEST PUSH1 0x0 PUSH2 0xC6F DUP6 DUP3 DUP7 ADD PUSH2 0xB3A JUMP JUMPDEST SWAP3 POP POP PUSH1 0x20 PUSH2 0xC80 DUP6 DUP3 DUP7 ADD PUSH2 0xB3A JUMP JUMPDEST SWAP2 POP POP SWAP3 POP SWAP3 SWAP1 POP JUMP JUMPDEST PUSH2 0xC93 DUP2 PUSH2 0xFED JUMP JUMPDEST DUP3 MSTORE POP POP JUMP JUMPDEST PUSH2 0xCA2 DUP2 PUSH2 0xFFF JUMP JUMPDEST DUP3 MSTORE POP POP JUMP JUMPDEST PUSH2 0xCB9 PUSH2 0xCB4 DUP3 PUSH2 0xFFF JUMP JUMPDEST PUSH2 0x10CE JUMP JUMPDEST DUP3 MSTORE POP POP JUMP JUMPDEST PUSH2 0xCC8 DUP2 PUSH2 0x1033 JUMP JUMPDEST DUP3 MSTORE POP POP JUMP JUMPDEST PUSH1 0x0 PUSH2 0xCD9 DUP3 PUSH2 0xF7B JUMP JUMPDEST PUSH2 0xCE3 DUP2 DUP6 PUSH2 0xF86 JUMP JUMPDEST SWAP4 POP PUSH2 0xCF3 DUP2 DUP6 PUSH1 0x20 DUP7 ADD PUSH2 0x1069 JUMP JUMPDEST PUSH2 0xCFC DUP2 PUSH2 0x1188 JUMP JUMPDEST DUP5 ADD SWAP2 POP POP SWAP3 SWAP2 POP POP JUMP JUMPDEST PUSH1 0x0 PUSH2 0xD14 PUSH1 0x1C DUP4 PUSH2 0xF86 JUMP JUMPDEST SWAP2 POP PUSH2 0xD1F DUP3 PUSH2 0x1199 JUMP JUMPDEST PUSH1 0x20 DUP3 ADD SWAP1 POP SWAP2 SWAP1 POP JUMP JUMPDEST PUSH1 0x0 PUSH2 0xD37 PUSH1 0x18 DUP4 PUSH2 0xF86 JUMP JUMPDEST SWAP2 POP PUSH2 0xD42 DUP3 PUSH2 0x11C2 JUMP JUMPDEST PUSH1 0x20 DUP3 ADD SWAP1 POP SWAP2 SWAP1 POP JUMP JUMPDEST PUSH1 0x0 PUSH2 0xD5A PUSH1 0x18 DUP4 PUSH2 0xF86 JUMP JUMPDEST SWAP2 POP PUSH2 0xD65 DUP3 PUSH2 0x11EB JUMP JUMPDEST PUSH1 0x20 DUP3 ADD SWAP1 POP SWAP2 SWAP1 POP JUMP JUMPDEST PUSH1 0x0 PUSH2 0xD7D PUSH1 0x15 DUP4 PUSH2 0xF86 JUMP JUMPDEST SWAP2 POP PUSH2 0xD88 DUP3 PUSH2 0x1214 JUMP JUMPDEST PUSH1 0x20 DUP3 ADD SWAP1 POP SWAP2 SWAP1 POP JUMP JUMPDEST PUSH1 0x0 PUSH2 0xDA0 PUSH1 0x17 DUP4 PUSH2 0xF86 JUMP JUMPDEST SWAP2 POP PUSH2 0xDAB DUP3 PUSH2 0x123D JUMP JUMPDEST PUSH1 0x20 DUP3 ADD SWAP1 POP SWAP2 SWAP1 POP JUMP JUMPDEST PUSH2 0xDBF DUP2 PUSH2 0x1029 JUMP JUMPDEST DUP3 MSTORE POP POP JUMP JUMPDEST PUSH2 0xDD6 PUSH2 0xDD1 DUP3 PUSH2 0x1029 JUMP JUMPDEST PUSH2 0x10D8 JUMP JUMPDEST DUP3 MSTORE POP POP JUMP JUMPDEST PUSH1 0x0 PUSH2 0xDE8 DUP3 DUP6 PUSH2 0xDC5 JUMP JUMPDEST PUSH1 0x20 DUP3 ADD SWAP2 POP PUSH2 0xDF8 DUP3 DUP5 PUSH2 0xCA8 JUMP JUMPDEST PUSH1 0x20 DUP3 ADD SWAP2 POP DUP2 SWAP1 POP SWAP4 SWAP3 POP POP POP JUMP JUMPDEST PUSH1 0x0 PUSH1 0x20 DUP3 ADD SWAP1 POP PUSH2 0xE1D PUSH1 0x0 DUP4 ADD DUP5 PUSH2 0xC8A JUMP JUMPDEST SWAP3 SWAP2 POP POP JUMP JUMPDEST PUSH1 0x0 PUSH1 0x40 DUP3 ADD SWAP1 POP PUSH2 0xE38 PUSH1 0x0 DUP4 ADD DUP6 PUSH2 0xC8A JUMP JUMPDEST PUSH2 0xE45 PUSH1 0x20 DUP4 ADD DUP5 PUSH2 0xC99 JUMP JUMPDEST SWAP4 SWAP3 POP POP POP JUMP JUMPDEST PUSH1 0x0 PUSH1 0x20 DUP3 ADD SWAP1 POP PUSH2 0xE61 PUSH1 0x0 DUP4 ADD DUP5 PUSH2 0xC99 JUMP JUMPDEST SWAP3 SWAP2 POP POP JUMP JUMPDEST PUSH1 0x0 PUSH1 0x20 DUP3 ADD SWAP1 POP PUSH2 0xE7C PUSH1 0x0 DUP4 ADD DUP5 PUSH2 0xCBF JUMP JUMPDEST SWAP3 SWAP2 POP POP JUMP JUMPDEST PUSH1 0x0 PUSH1 0x20 DUP3 ADD SWAP1 POP DUP2 DUP2 SUB PUSH1 0x0 DUP4 ADD MSTORE PUSH2 0xE9B DUP2 PUSH2 0xD07 JUMP JUMPDEST SWAP1 POP SWAP2 SWAP1 POP JUMP JUMPDEST PUSH1 0x0 PUSH1 0x20 DUP3 ADD SWAP1 POP DUP2 DUP2 SUB PUSH1 0x0 DUP4 ADD MSTORE PUSH2 0xEBB DUP2 PUSH2 0xD2A JUMP JUMPDEST SWAP1 POP SWAP2 SWAP1 POP JUMP JUMPDEST PUSH1 0x0 PUSH1 0x20 DUP3 ADD SWAP1 POP DUP2 DUP2 SUB PUSH1 0x0 DUP4 ADD MSTORE PUSH2 0xEDB DUP2 PUSH2 0xD4D JUMP JUMPDEST SWAP1 POP SWAP2 SWAP1 POP JUMP JUMPDEST PUSH1 0x0 PUSH1 0x20 DUP3 ADD SWAP1 POP DUP2 DUP2 SUB PUSH1 0x0 DUP4 ADD MSTORE PUSH2 0xEFB DUP2 PUSH2 0xD70 JUMP JUMPDEST SWAP1 POP SWAP2 SWAP1 POP JUMP JUMPDEST PUSH1 0x0 PUSH1 0x20 DUP3 ADD SWAP1 POP DUP2 DUP2 SUB PUSH1 0x0 DUP4 ADD MSTORE PUSH2 0xF1B DUP2 PUSH2 0xD93 JUMP JUMPDEST SWAP1 POP SWAP2 SWAP1 POP JUMP JUMPDEST PUSH1 0x0 PUSH1 0x20 DUP3 ADD SWAP1 POP PUSH2 0xF37 PUSH1 0x0 DUP4 ADD DUP5 PUSH2 0xDB6 JUMP JUMPDEST SWAP3 SWAP2 POP POP JUMP JUMPDEST PUSH1 0x0 PUSH1 0x60 DUP3 ADD SWAP1 POP PUSH2 0xF52 PUSH1 0x0 DUP4 ADD DUP7 PUSH2 0xDB6 JUMP JUMPDEST PUSH2 0xF5F PUSH1 0x20 DUP4 ADD DUP6 PUSH2 0xC99 JUMP JUMPDEST DUP2 DUP2 SUB PUSH1 0x40 DUP4 ADD MSTORE PUSH2 0xF71 DUP2 DUP5 PUSH2 0xCCE JUMP JUMPDEST SWAP1 POP SWAP5 SWAP4 POP POP POP POP JUMP JUMPDEST PUSH1 0x0 DUP2 MLOAD SWAP1 POP SWAP2 SWAP1 POP JUMP JUMPDEST PUSH1 0x0 DUP3 DUP3 MSTORE PUSH1 0x20 DUP3 ADD SWAP1 POP SWAP3 SWAP2 POP POP JUMP JUMPDEST PUSH1 0x0 PUSH2 0xFA2 DUP3 PUSH2 0x1029 JUMP JUMPDEST SWAP2 POP PUSH2 0xFAD DUP4 PUSH2 0x1029 JUMP JUMPDEST SWAP3 POP DUP3 PUSH32 0xFFFFFFFFFFFFFFFFFFFFFFFFFFFFFFFFFFFFFFFFFFFFFFFFFFFFFFFFFFFFFFFF SUB DUP3 GT ISZERO PUSH2 0xFE2 JUMPI PUSH2 0xFE1 PUSH2 0x10E2 JUMP JUMPDEST JUMPDEST DUP3 DUP3 ADD SWAP1 POP SWAP3 SWAP2 POP POP JUMP JUMPDEST PUSH1 0x0 PUSH2 0xFF8 DUP3 PUSH2 0x1009 JUMP JUMPDEST SWAP1 POP SWAP2 SWAP1 POP JUMP JUMPDEST PUSH1 0x0 DUP2 SWAP1 POP SWAP2 SWAP1 POP JUMP JUMPDEST PUSH1 0x0 PUSH20 0xFFFFFFFFFFFFFFFFFFFFFFFFFFFFFFFFFFFFFFFF DUP3 AND SWAP1 POP SWAP2 SWAP1 POP JUMP JUMPDEST PUSH1 0x0 DUP2 SWAP1 POP SWAP2 SWAP1 POP JUMP JUMPDEST PUSH1 0x0 PUSH2 0x103E DUP3 PUSH2 0x1045 JUMP JUMPDEST SWAP1 POP SWAP2 SWAP1 POP JUMP JUMPDEST PUSH1 0x0 PUSH2 0x1050 DUP3 PUSH2 0x1057 JUMP JUMPDEST SWAP1 POP SWAP2 SWAP1 POP JUMP JUMPDEST PUSH1 0x0 PUSH2 0x1062 DUP3 PUSH2 0x1009 JUMP JUMPDEST SWAP1 POP SWAP2 SWAP1 POP JUMP JUMPDEST PUSH1 0x0 JUMPDEST DUP4 DUP2 LT ISZERO PUSH2 0x1087 JUMPI DUP1 DUP3 ADD MLOAD DUP2 DUP5 ADD MSTORE PUSH1 0x20 DUP2 ADD SWAP1 POP PUSH2 0x106C JUMP JUMPDEST DUP4 DUP2 GT ISZERO PUSH2 0x1096 JUMPI PUSH1 0x0 DUP5 DUP5 ADD MSTORE JUMPDEST POP POP POP POP JUMP JUMPDEST PUSH1 0x0 PUSH1 0x2 DUP3 DIV SWAP1 POP PUSH1 0x1 DUP3 AND DUP1 PUSH2 0x10B4 JUMPI PUSH1 0x7F DUP3 AND SWAP2 POP JUMPDEST PUSH1 0x20 DUP3 LT DUP2 EQ ISZERO PUSH2 0x10C8 JUMPI PUSH2 0x10C7 PUSH2 0x1140 JUMP JUMPDEST JUMPDEST POP SWAP2 SWAP1 POP JUMP JUMPDEST PUSH1 0x0 DUP2 SWAP1 POP SWAP2 SWAP1 POP JUMP JUMPDEST PUSH1 0x0 DUP2 SWAP1 POP SWAP2 SWAP1 POP JUMP JUMPDEST PUSH32 0x4E487B7100000000000000000000000000000000000000000000000000000000 PUSH1 0x0 MSTORE PUSH1 0x11 PUSH1 0x4 MSTORE PUSH1 0x24 PUSH1 0x0 REVERT JUMPDEST PUSH32 0x4E487B7100000000000000000000000000000000000000000000000000000000 PUSH1 0x0 MSTORE PUSH1 0x21 PUSH1 0x4 MSTORE PUSH1 0x24 PUSH1 0x0 REVERT JUMPDEST PUSH32 0x4E487B7100000000000000000000000000000000000000000000000000000000 PUSH1 0x0 MSTORE PUSH1 0x22 PUSH1 0x4 MSTORE PUSH1 0x24 PUSH1 0x0 REVERT JUMPDEST PUSH1 0x0 DUP1 REVERT JUMPDEST PUSH1 0x0 DUP1 REVERT JUMPDEST PUSH1 0x0 DUP1 REVERT JUMPDEST PUSH1 0x0 DUP1 REVERT JUMPDEST PUSH1 0x0 DUP1 REVERT JUMPDEST PUSH1 0x0 PUSH1 0x1F NOT PUSH1 0x1F DUP4 ADD AND SWAP1 POP SWAP2 SWAP1 POP JUMP JUMPDEST PUSH32 0x53797374656D3A204F6E6C7920636F72652063616E206D6F6469667900000000 PUSH1 0x0 DUP3 ADD MSTORE POP JUMP JUMPDEST PUSH32 0x50726F703A2064656C6179732063616E6E6F7420626520300000000000000000 PUSH1 0x0 DUP3 ADD MSTORE POP JUMP JUMPDEST PUSH32 0x50726F703A2045786520646F6573206E6F742065786973740000000000000000 PUSH1 0x0 DUP3 ADD MSTORE POP JUMP JUMPDEST PUSH32 0x50726F703A206D696E2063616E6E6F7420626520300000000000000000000000 PUSH1 0x0 DUP3 ADD MSTORE POP JUMP JUMPDEST PUSH32 0x50726F703A20496E76616C696420766F74652074797065000000000000000000 PUSH1 0x0 DUP3 ADD MSTORE POP JUMP JUMPDEST PUSH2 0x126F DUP2 PUSH2 0xFED JUMP JUMPDEST DUP2 EQ PUSH2 0x127A JUMPI PUSH1 0x0 DUP1 REVERT JUMPDEST POP JUMP JUMPDEST PUSH2 0x1286 DUP2 PUSH2 0xFFF JUMP JUMPDEST DUP2 EQ PUSH2 0x1291 JUMPI PUSH1 0x0 DUP1 REVERT JUMPDEST POP JUMP JUMPDEST PUSH2 0x129D DUP2 PUSH2 0x1029 JUMP JUMPDEST DUP2 EQ PUSH2 0x12A8 JUMPI PUSH1 0x0 DUP1 REVERT JUMPDEST POP JUMP INVALID LOG2 PUSH5 0x6970667358 0x22 SLT KECCAK256 0x2E 0xE9 REVERT 0xE0 0xA6 DUP1 DUP3 BALANCE 0xAE DUP3 NOT 0xA9 DUP14 PUSH28 0x503B1EB7D7248A5F6119B13C861C435D1CD164736F6C634300080700 CALLER "
        },
        "methodIdentifiers": {
          "IDENTIFIER()": "3c9747f3",
          "core_()": "eaddd0fd",
          "createPropWithExe(string,bytes32,bytes32)": "78cbf7e6",
          "getVoteType(uint256)": "0062104a",
          "updateDelays(uint256,uint256)": "6aef4909",
          "updateMinDelay(uint256)": "8a99d586"
        }
      },
      "userdoc": {
        "kind": "user",
        "methods": {
          "updateDelays(uint256,uint256)": {
            "notice": "This minimum delay counts for both voting starting after a          proposal is proposed, as well as how long the delay is after it          has started till voting closes. Only the core can modify."
          },
          "updateMinDelay(uint256)": {
            "notice": "This minimum delay counts for both voting starting after a          proposal is proposed, as well as how long the delay is after it          has started till voting closes. Only the core can modify."
          }
        },
        "version": 1
      }
    }
  }
}