{
  "contracts/VotingBooth.sol": {
    "VotingBooth": {
      "abi": [
        {
          "inputs": [
            {
              "internalType": "address",
              "name": "_core",
              "type": "address"
            }
          ],
          "stateMutability": "nonpayable",
          "type": "constructor"
        },
        {
          "anonymous": false,
          "inputs": [
            {
              "indexed": true,
              "internalType": "address",
              "name": "voter",
              "type": "address"
            },
            {
              "indexed": true,
              "internalType": "uint256",
              "name": "propID",
              "type": "uint256"
            },
            {
              "indexed": false,
              "internalType": "bytes",
              "name": "vote",
              "type": "bytes"
            }
          ],
          "name": "VoteCast",
          "type": "event"
        },
        {
          "inputs": [],
          "name": "IDENTIFIER",
          "outputs": [
            {
              "internalType": "bytes32",
              "name": "",
              "type": "bytes32"
            }
          ],
          "stateMutability": "view",
          "type": "function"
        },
        {
          "inputs": [
            {
              "internalType": "bytes32",
              "name": "_voteType",
              "type": "bytes32"
            },
            {
              "internalType": "address",
              "name": "_instance",
              "type": "address"
            },
            {
              "internalType": "string",
              "name": "_voteFormat",
              "type": "string"
            }
          ],
          "name": "addVoteType",
          "outputs": [],
          "stateMutability": "nonpayable",
          "type": "function"
        },
        {
          "inputs": [],
          "name": "core_",
          "outputs": [
            {
              "internalType": "contract ICore",
              "name": "",
              "type": "address"
            }
          ],
          "stateMutability": "view",
          "type": "function"
        },
        {
          "inputs": [
            {
              "internalType": "address",
              "name": "_instance",
              "type": "address"
            }
          ],
          "name": "getVoteType",
          "outputs": [
            {
              "internalType": "bytes32",
              "name": "",
              "type": "bytes32"
            }
          ],
          "stateMutability": "view",
          "type": "function"
        },
        {
          "inputs": [
            {
              "internalType": "address",
              "name": "_initialVoteInstance",
              "type": "address"
            },
            {
              "internalType": "bytes32",
              "name": "_initialVoteType",
              "type": "bytes32"
            },
            {
              "internalType": "string",
              "name": "_voteFormat",
              "type": "string"
            }
          ],
          "name": "initialise",
          "outputs": [],
          "stateMutability": "nonpayable",
          "type": "function"
        },
        {
          "inputs": [
            {
              "internalType": "uint256",
              "name": "_propID",
              "type": "uint256"
            },
            {
              "internalType": "bytes",
              "name": "_vote",
              "type": "bytes"
            }
          ],
          "name": "vote",
          "outputs": [
            {
              "internalType": "bool",
              "name": "",
              "type": "bool"
            }
          ],
          "stateMutability": "nonpayable",
          "type": "function"
        }
      ],
      "devdoc": {
        "kind": "dev",
        "methods": {},
        "version": 1
      },
      "evm": {
        "bytecode": {
          "linkReferences": {},
          "object": "60c06040523480156200001157600080fd5b5060405162001497380380620014978339818101604052810190620000379190620000f9565b7f346b2ab3a980432fd8f2e24828fc9f9ee2df1548701bc542f6ec17882b3276278133600060026101000a81548173ffffffffffffffffffffffffffffffffffffffff021916908373ffffffffffffffffffffffffffffffffffffffff16021790555081608081815250508073ffffffffffffffffffffffffffffffffffffffff1660a08173ffffffffffffffffffffffffffffffffffffffff1660601b815250505050506200017e565b600081519050620000f38162000164565b92915050565b6000602082840312156200011257620001116200015f565b5b60006200012284828501620000e2565b91505092915050565b600062000138826200013f565b9050919050565b600073ffffffffffffffffffffffffffffffffffffffff82169050919050565b600080fd5b6200016f816200012b565b81146200017b57600080fd5b50565b60805160a05160601c6112db620001bc6000396000818161032701528181610634015281816106d201526107760152600061013d01526112db6000f3fe608060405234801561001057600080fd5b50600436106100625760003560e01c80633c9747f31461006757806369e0a1f7146100855780636e3ce913146100b5578063b88b82ba146100d1578063cbba4b7f14610101578063eaddd0fd1461011d575b600080fd5b61006f61013b565b60405161007c9190610de7565b60405180910390f35b61009f600480360381019061009a9190610ab3565b61015f565b6040516100ac9190610de7565b60405180910390f35b6100cf60048036038101906100ca9190610b0d565b6101ab565b005b6100eb60048036038101906100e69190610c45565b610322565b6040516100f89190610dcc565b60405180910390f35b61011b60048036038101906101169190610bd6565b610632565b005b6101256106d0565b6040516101329190610e4d565b60405180910390f35b7f000000000000000000000000000000000000000000000000000000000000000081565b6000600160008373ffffffffffffffffffffffffffffffffffffffff1673ffffffffffffffffffffffffffffffffffffffff168152602001908152602001600020600001549050919050565b600060019054906101000a900460ff16806101d1575060008054906101000a900460ff16155b610210576040517f08c379a000000000000000000000000000000000000000000000000000000000815260040161020790610ea8565b60405180910390fd5b600060029054906101000a900473ffffffffffffffffffffffffffffffffffffffff1673ffffffffffffffffffffffffffffffffffffffff163373ffffffffffffffffffffffffffffffffffffffff16146102a0576040517f08c379a000000000000000000000000000000000000000000000000000000000815260040161029790610e68565b60405180910390fd5b60008060019054906101000a900460ff1615905080156102f0576001600060016101000a81548160ff02191690831515021790555060016000806101000a81548160ff0219169083151502179055505b6102fb8385846106f4565b801561031c5760008060016101000a81548160ff0219169083151502179055505b50505050565b6000807f000000000000000000000000000000000000000000000000000000000000000073ffffffffffffffffffffffffffffffffffffffff1663624a23e07f36209a57dfd79e3872ec3a0c88c653bbe7e32a12306e5e1f92f118c1936ae8b26040518263ffffffff1660e01b815260040161039e9190610de7565b60206040518083038186803b1580156103b657600080fd5b505afa1580156103ca573d6000803e3d6000fd5b505050506040513d601f19601f820116820180604052508101906103ee9190610ae0565b905060008173ffffffffffffffffffffffffffffffffffffffff166262104a866040518263ffffffff1660e01b815260040161042a9190610ee8565b60206040518083038186803b15801561044257600080fd5b505afa158015610456573d6000803e3d6000fd5b505050506040513d601f19601f8201168201806040525081019061047a9190610ae0565b90506000801b3073ffffffffffffffffffffffffffffffffffffffff166369e0a1f7836040518263ffffffff1660e01b81526004016104b99190610db1565b60206040518083038186803b1580156104d157600080fd5b505afa1580156104e5573d6000803e3d6000fd5b505050506040513d601f19601f820116820180604052508101906105099190610ba9565b141561054a576040517f08c379a000000000000000000000000000000000000000000000000000000000815260040161054190610ec8565b60405180910390fd5b843373ffffffffffffffffffffffffffffffffffffffff167f71a29581f391d0ca96684c69771724a921678b572e21378712be03e8da07e2ca866040516105919190610e2b565b60405180910390a38073ffffffffffffffffffffffffffffffffffffffff1663f636a0538686336040518463ffffffff1660e01b81526004016105d693929190610f03565b602060405180830381600087803b1580156105f057600080fd5b505af1158015610604573d6000803e3d6000fd5b505050506040513d601f19601f820116820180604052508101906106289190610b7c565b9250505092915050565b7f000000000000000000000000000000000000000000000000000000000000000073ffffffffffffffffffffffffffffffffffffffff163373ffffffffffffffffffffffffffffffffffffffff16146106c0576040517f08c379a00000000000000000000000000000000000000000000000000000000081526004016106b790610e88565b60405180910390fd5b6106cb8383836106f4565b505050565b7f000000000000000000000000000000000000000000000000000000000000000081565b604051806040016040528084815260200182815250600160008473ffffffffffffffffffffffffffffffffffffffff1673ffffffffffffffffffffffffffffffffffffffff16815260200190815260200160002060008201518160000155602082015181600101908051906020019061076e9291906108b2565b5090505060007f000000000000000000000000000000000000000000000000000000000000000073ffffffffffffffffffffffffffffffffffffffff1663624a23e07fd578563424ab02f85ec03c6b1aee04947ebdd4a30db46cba3bcd7f56ef40b1996040518263ffffffff1660e01b81526004016107ed9190610de7565b60206040518083038186803b15801561080557600080fd5b505afa158015610819573d6000803e3d6000fd5b505050506040513d601f19601f8201168201806040525081019061083d9190610ae0565b90508073ffffffffffffffffffffffffffffffffffffffff166338c6878285856040518363ffffffff1660e01b815260040161087a929190610e02565b600060405180830381600087803b15801561089457600080fd5b505af11580156108a8573d6000803e3d6000fd5b5050505050505050565b8280546108be906110bf565b90600052602060002090601f0160209004810192826108e05760008555610927565b82601f106108f957805160ff1916838001178555610927565b82800160010185558215610927579182015b8281111561092657825182559160200191906001019061090b565b5b5090506109349190610938565b5090565b5b80821115610951576000816000905550600101610939565b5090565b600061096861096384610f66565b610f41565b90508281526020810184848401111561098457610983611185565b5b61098f84828561107d565b509392505050565b60006109aa6109a584610f97565b610f41565b9050828152602081018484840111156109c6576109c5611185565b5b6109d184828561107d565b509392505050565b6000813590506109e881611249565b92915050565b6000815190506109fd81611249565b92915050565b600081519050610a1281611260565b92915050565b600081359050610a2781611277565b92915050565b600081519050610a3c81611277565b92915050565b600082601f830112610a5757610a56611180565b5b8135610a67848260208601610955565b91505092915050565b600082601f830112610a8557610a84611180565b5b8135610a95848260208601610997565b91505092915050565b600081359050610aad8161128e565b92915050565b600060208284031215610ac957610ac861118f565b5b6000610ad7848285016109d9565b91505092915050565b600060208284031215610af657610af561118f565b5b6000610b04848285016109ee565b91505092915050565b600080600060608486031215610b2657610b2561118f565b5b6000610b34868287016109d9565b9350506020610b4586828701610a18565b925050604084013567ffffffffffffffff811115610b6657610b6561118a565b5b610b7286828701610a70565b9150509250925092565b600060208284031215610b9257610b9161118f565b5b6000610ba084828501610a03565b91505092915050565b600060208284031215610bbf57610bbe61118f565b5b6000610bcd84828501610a2d565b91505092915050565b600080600060608486031215610bef57610bee61118f565b5b6000610bfd86828701610a18565b9350506020610c0e868287016109d9565b925050604084013567ffffffffffffffff811115610c2f57610c2e61118a565b5b610c3b86828701610a70565b9150509250925092565b60008060408385031215610c5c57610c5b61118f565b5b6000610c6a85828601610a9e565b925050602083013567ffffffffffffffff811115610c8b57610c8a61118a565b5b610c9785828601610a42565b9150509250929050565b610caa81610ff5565b82525050565b610cb981611007565b82525050565b610cc881611013565b82525050565b6000610cd982610fc8565b610ce38185610fd3565b9350610cf381856020860161108c565b610cfc81611194565b840191505092915050565b610d1081611047565b82525050565b6000610d23601c83610fe4565b9150610d2e826111a5565b602082019050919050565b6000610d46601c83610fe4565b9150610d51826111ce565b602082019050919050565b6000610d69601d83610fe4565b9150610d74826111f7565b602082019050919050565b6000610d8c601883610fe4565b9150610d9782611220565b602082019050919050565b610dab8161103d565b82525050565b6000602082019050610dc66000830184610ca1565b92915050565b6000602082019050610de16000830184610cb0565b92915050565b6000602082019050610dfc6000830184610cbf565b92915050565b6000604082019050610e176000830185610cbf565b610e246020830184610ca1565b9392505050565b60006020820190508181036000830152610e458184610cce565b905092915050565b6000602082019050610e626000830184610d07565b92915050565b60006020820190508181036000830152610e8181610d16565b9050919050565b60006020820190508181036000830152610ea181610d39565b9050919050565b60006020820190508181036000830152610ec181610d5c565b9050919050565b60006020820190508181036000830152610ee181610d7f565b9050919050565b6000602082019050610efd6000830184610da2565b92915050565b6000606082019050610f186000830186610da2565b8181036020830152610f2a8185610cce565b9050610f396040830184610ca1565b949350505050565b6000610f4b610f5c565b9050610f5782826110f1565b919050565b6000604051905090565b600067ffffffffffffffff821115610f8157610f80611151565b5b610f8a82611194565b9050602081019050919050565b600067ffffffffffffffff821115610fb257610fb1611151565b5b610fbb82611194565b9050602081019050919050565b600081519050919050565b600082825260208201905092915050565b600082825260208201905092915050565b60006110008261101d565b9050919050565b60008115159050919050565b6000819050919050565b600073ffffffffffffffffffffffffffffffffffffffff82169050919050565b6000819050919050565b600061105282611059565b9050919050565b60006110648261106b565b9050919050565b60006110768261101d565b9050919050565b82818337600083830152505050565b60005b838110156110aa57808201518184015260208101905061108f565b838111156110b9576000848401525b50505050565b600060028204905060018216806110d757607f821691505b602082108114156110eb576110ea611122565b5b50919050565b6110fa82611194565b810181811067ffffffffffffffff8211171561111957611118611151565b5b80604052505050565b7f4e487b7100000000000000000000000000000000000000000000000000000000600052602260045260246000fd5b7f4e487b7100000000000000000000000000000000000000000000000000000000600052604160045260246000fd5b600080fd5b600080fd5b600080fd5b600080fd5b6000601f19601f8301169050919050565b7f496e69743a204f6e6c79206465706c6f7965722063616e20696e697400000000600082015250565b7f53797374656d3a204f6e6c7920636f72652063616e206d6f6469667900000000600082015250565b7f496e69743a20436f6e747261637420697320696e697469616c697a6564000000600082015250565b7f426f6f74683a20496e76616c696420766f746520747970650000000000000000600082015250565b61125281610ff5565b811461125d57600080fd5b50565b61126981611007565b811461127457600080fd5b50565b61128081611013565b811461128b57600080fd5b50565b6112978161103d565b81146112a257600080fd5b5056fea26469706673582212200e349e8fc3e1aba9463c637f905a29c692cd8e107018781d48cb21bd57db415664736f6c63430008070033",
          "opcodes": "PUSH1 0xC0 PUSH1 0x40 MSTORE CALLVALUE DUP1 ISZERO PUSH3 0x11 JUMPI PUSH1 0x0 DUP1 REVERT JUMPDEST POP PUSH1 0x40 MLOAD PUSH3 0x1497 CODESIZE SUB DUP1 PUSH3 0x1497 DUP4 CODECOPY DUP2 DUP2 ADD PUSH1 0x40 MSTORE DUP2 ADD SWAP1 PUSH3 0x37 SWAP2 SWAP1 PUSH3 0xF9 JUMP JUMPDEST PUSH32 0x346B2AB3A980432FD8F2E24828FC9F9EE2DF1548701BC542F6EC17882B327627 DUP2 CALLER PUSH1 0x0 PUSH1 0x2 PUSH2 0x100 EXP DUP2 SLOAD DUP2 PUSH20 0xFFFFFFFFFFFFFFFFFFFFFFFFFFFFFFFFFFFFFFFF MUL NOT AND SWAP1 DUP4 PUSH20 0xFFFFFFFFFFFFFFFFFFFFFFFFFFFFFFFFFFFFFFFF AND MUL OR SWAP1 SSTORE POP DUP2 PUSH1 0x80 DUP2 DUP2 MSTORE POP POP DUP1 PUSH20 0xFFFFFFFFFFFFFFFFFFFFFFFFFFFFFFFFFFFFFFFF AND PUSH1 0xA0 DUP2 PUSH20 0xFFFFFFFFFFFFFFFFFFFFFFFFFFFFFFFFFFFFFFFF AND PUSH1 0x60 SHL DUP2 MSTORE POP POP POP POP POP PUSH3 0x17E JUMP JUMPDEST PUSH1 0x0 DUP2 MLOAD SWAP1 POP PUSH3 0xF3 DUP2 PUSH3 0x164 JUMP JUMPDEST SWAP3 SWAP2 POP POP JUMP JUMPDEST PUSH1 0x0 PUSH1 0x20 DUP3 DUP5 SUB SLT ISZERO PUSH3 0x112 JUMPI PUSH3 0x111 PUSH3 0x15F JUMP JUMPDEST JUMPDEST PUSH1 0x0 PUSH3 0x122 DUP5 DUP3 DUP6 ADD PUSH3 0xE2 JUMP JUMPDEST SWAP2 POP POP SWAP3 SWAP2 POP POP JUMP JUMPDEST PUSH1 0x0 PUSH3 0x138 DUP3 PUSH3 0x13F JUMP JUMPDEST SWAP1 POP SWAP2 SWAP1 POP JUMP JUMPDEST PUSH1 0x0 PUSH20 0xFFFFFFFFFFFFFFFFFFFFFFFFFFFFFFFFFFFFFFFF DUP3 AND SWAP1 POP SWAP2 SWAP1 POP JUMP JUMPDEST PUSH1 0x0 DUP1 REVERT JUMPDEST PUSH3 0x16F DUP2 PUSH3 0x12B JUMP JUMPDEST DUP2 EQ PUSH3 0x17B JUMPI PUSH1 0x0 DUP1 REVERT JUMPDEST POP JUMP JUMPDEST PUSH1 0x80 MLOAD PUSH1 0xA0 MLOAD PUSH1 0x60 SHR PUSH2 0x12DB PUSH3 0x1BC PUSH1 0x0 CODECOPY PUSH1 0x0 DUP2 DUP2 PUSH2 0x327 ADD MSTORE DUP2 DUP2 PUSH2 0x634 ADD MSTORE DUP2 DUP2 PUSH2 0x6D2 ADD MSTORE PUSH2 0x776 ADD MSTORE PUSH1 0x0 PUSH2 0x13D ADD MSTORE PUSH2 0x12DB PUSH1 0x0 RETURN INVALID PUSH1 0x80 PUSH1 0x40 MSTORE CALLVALUE DUP1 ISZERO PUSH2 0x10 JUMPI PUSH1 0x0 DUP1 REVERT JUMPDEST POP PUSH1 0x4 CALLDATASIZE LT PUSH2 0x62 JUMPI PUSH1 0x0 CALLDATALOAD PUSH1 0xE0 SHR DUP1 PUSH4 0x3C9747F3 EQ PUSH2 0x67 JUMPI DUP1 PUSH4 0x69E0A1F7 EQ PUSH2 0x85 JUMPI DUP1 PUSH4 0x6E3CE913 EQ PUSH2 0xB5 JUMPI DUP1 PUSH4 0xB88B82BA EQ PUSH2 0xD1 JUMPI DUP1 PUSH4 0xCBBA4B7F EQ PUSH2 0x101 JUMPI DUP1 PUSH4 0xEADDD0FD EQ PUSH2 0x11D JUMPI JUMPDEST PUSH1 0x0 DUP1 REVERT JUMPDEST PUSH2 0x6F PUSH2 0x13B JUMP JUMPDEST PUSH1 0x40 MLOAD PUSH2 0x7C SWAP2 SWAP1 PUSH2 0xDE7 JUMP JUMPDEST PUSH1 0x40 MLOAD DUP1 SWAP2 SUB SWAP1 RETURN JUMPDEST PUSH2 0x9F PUSH1 0x4 DUP1 CALLDATASIZE SUB DUP2 ADD SWAP1 PUSH2 0x9A SWAP2 SWAP1 PUSH2 0xAB3 JUMP JUMPDEST PUSH2 0x15F JUMP JUMPDEST PUSH1 0x40 MLOAD PUSH2 0xAC SWAP2 SWAP1 PUSH2 0xDE7 JUMP JUMPDEST PUSH1 0x40 MLOAD DUP1 SWAP2 SUB SWAP1 RETURN JUMPDEST PUSH2 0xCF PUSH1 0x4 DUP1 CALLDATASIZE SUB DUP2 ADD SWAP1 PUSH2 0xCA SWAP2 SWAP1 PUSH2 0xB0D JUMP JUMPDEST PUSH2 0x1AB JUMP JUMPDEST STOP JUMPDEST PUSH2 0xEB PUSH1 0x4 DUP1 CALLDATASIZE SUB DUP2 ADD SWAP1 PUSH2 0xE6 SWAP2 SWAP1 PUSH2 0xC45 JUMP JUMPDEST PUSH2 0x322 JUMP JUMPDEST PUSH1 0x40 MLOAD PUSH2 0xF8 SWAP2 SWAP1 PUSH2 0xDCC JUMP JUMPDEST PUSH1 0x40 MLOAD DUP1 SWAP2 SUB SWAP1 RETURN JUMPDEST PUSH2 0x11B PUSH1 0x4 DUP1 CALLDATASIZE SUB DUP2 ADD SWAP1 PUSH2 0x116 SWAP2 SWAP1 PUSH2 0xBD6 JUMP JUMPDEST PUSH2 0x632 JUMP JUMPDEST STOP JUMPDEST PUSH2 0x125 PUSH2 0x6D0 JUMP JUMPDEST PUSH1 0x40 MLOAD PUSH2 0x132 SWAP2 SWAP1 PUSH2 0xE4D JUMP JUMPDEST PUSH1 0x40 MLOAD DUP1 SWAP2 SUB SWAP1 RETURN JUMPDEST PUSH32 0x0 DUP2 JUMP JUMPDEST PUSH1 0x0 PUSH1 0x1 PUSH1 0x0 DUP4 PUSH20 0xFFFFFFFFFFFFFFFFFFFFFFFFFFFFFFFFFFFFFFFF AND PUSH20 0xFFFFFFFFFFFFFFFFFFFFFFFFFFFFFFFFFFFFFFFF AND DUP2 MSTORE PUSH1 0x20 ADD SWAP1 DUP2 MSTORE PUSH1 0x20 ADD PUSH1 0x0 KECCAK256 PUSH1 0x0 ADD SLOAD SWAP1 POP SWAP2 SWAP1 POP JUMP JUMPDEST PUSH1 0x0 PUSH1 0x1 SWAP1 SLOAD SWAP1 PUSH2 0x100 EXP SWAP1 DIV PUSH1 0xFF AND DUP1 PUSH2 0x1D1 JUMPI POP PUSH1 0x0 DUP1 SLOAD SWAP1 PUSH2 0x100 EXP SWAP1 DIV PUSH1 0xFF AND ISZERO JUMPDEST PUSH2 0x210 JUMPI PUSH1 0x40 MLOAD PUSH32 0x8C379A000000000000000000000000000000000000000000000000000000000 DUP2 MSTORE PUSH1 0x4 ADD PUSH2 0x207 SWAP1 PUSH2 0xEA8 JUMP JUMPDEST PUSH1 0x40 MLOAD DUP1 SWAP2 SUB SWAP1 REVERT JUMPDEST PUSH1 0x0 PUSH1 0x2 SWAP1 SLOAD SWAP1 PUSH2 0x100 EXP SWAP1 DIV PUSH20 0xFFFFFFFFFFFFFFFFFFFFFFFFFFFFFFFFFFFFFFFF AND PUSH20 0xFFFFFFFFFFFFFFFFFFFFFFFFFFFFFFFFFFFFFFFF AND CALLER PUSH20 0xFFFFFFFFFFFFFFFFFFFFFFFFFFFFFFFFFFFFFFFF AND EQ PUSH2 0x2A0 JUMPI PUSH1 0x40 MLOAD PUSH32 0x8C379A000000000000000000000000000000000000000000000000000000000 DUP2 MSTORE PUSH1 0x4 ADD PUSH2 0x297 SWAP1 PUSH2 0xE68 JUMP JUMPDEST PUSH1 0x40 MLOAD DUP1 SWAP2 SUB SWAP1 REVERT JUMPDEST PUSH1 0x0 DUP1 PUSH1 0x1 SWAP1 SLOAD SWAP1 PUSH2 0x100 EXP SWAP1 DIV PUSH1 0xFF AND ISZERO SWAP1 POP DUP1 ISZERO PUSH2 0x2F0 JUMPI PUSH1 0x1 PUSH1 0x0 PUSH1 0x1 PUSH2 0x100 EXP DUP2 SLOAD DUP2 PUSH1 0xFF MUL NOT AND SWAP1 DUP4 ISZERO ISZERO MUL OR SWAP1 SSTORE POP PUSH1 0x1 PUSH1 0x0 DUP1 PUSH2 0x100 EXP DUP2 SLOAD DUP2 PUSH1 0xFF MUL NOT AND SWAP1 DUP4 ISZERO ISZERO MUL OR SWAP1 SSTORE POP JUMPDEST PUSH2 0x2FB DUP4 DUP6 DUP5 PUSH2 0x6F4 JUMP JUMPDEST DUP1 ISZERO PUSH2 0x31C JUMPI PUSH1 0x0 DUP1 PUSH1 0x1 PUSH2 0x100 EXP DUP2 SLOAD DUP2 PUSH1 0xFF MUL NOT AND SWAP1 DUP4 ISZERO ISZERO MUL OR SWAP1 SSTORE POP JUMPDEST POP POP POP POP JUMP JUMPDEST PUSH1 0x0 DUP1 PUSH32 0x0 PUSH20 0xFFFFFFFFFFFFFFFFFFFFFFFFFFFFFFFFFFFFFFFF AND PUSH4 0x624A23E0 PUSH32 0x36209A57DFD79E3872EC3A0C88C653BBE7E32A12306E5E1F92F118C1936AE8B2 PUSH1 0x40 MLOAD DUP3 PUSH4 0xFFFFFFFF AND PUSH1 0xE0 SHL DUP2 MSTORE PUSH1 0x4 ADD PUSH2 0x39E SWAP2 SWAP1 PUSH2 0xDE7 JUMP JUMPDEST PUSH1 0x20 PUSH1 0x40 MLOAD DUP1 DUP4 SUB DUP2 DUP7 DUP1 EXTCODESIZE ISZERO DUP1 ISZERO PUSH2 0x3B6 JUMPI PUSH1 0x0 DUP1 REVERT JUMPDEST POP GAS STATICCALL ISZERO DUP1 ISZERO PUSH2 0x3CA JUMPI RETURNDATASIZE PUSH1 0x0 DUP1 RETURNDATACOPY RETURNDATASIZE PUSH1 0x0 REVERT JUMPDEST POP POP POP POP PUSH1 0x40 MLOAD RETURNDATASIZE PUSH1 0x1F NOT PUSH1 0x1F DUP3 ADD AND DUP3 ADD DUP1 PUSH1 0x40 MSTORE POP DUP2 ADD SWAP1 PUSH2 0x3EE SWAP2 SWAP1 PUSH2 0xAE0 JUMP JUMPDEST SWAP1 POP PUSH1 0x0 DUP2 PUSH20 0xFFFFFFFFFFFFFFFFFFFFFFFFFFFFFFFFFFFFFFFF AND PUSH3 0x62104A DUP7 PUSH1 0x40 MLOAD DUP3 PUSH4 0xFFFFFFFF AND PUSH1 0xE0 SHL DUP2 MSTORE PUSH1 0x4 ADD PUSH2 0x42A SWAP2 SWAP1 PUSH2 0xEE8 JUMP JUMPDEST PUSH1 0x20 PUSH1 0x40 MLOAD DUP1 DUP4 SUB DUP2 DUP7 DUP1 EXTCODESIZE ISZERO DUP1 ISZERO PUSH2 0x442 JUMPI PUSH1 0x0 DUP1 REVERT JUMPDEST POP GAS STATICCALL ISZERO DUP1 ISZERO PUSH2 0x456 JUMPI RETURNDATASIZE PUSH1 0x0 DUP1 RETURNDATACOPY RETURNDATASIZE PUSH1 0x0 REVERT JUMPDEST POP POP POP POP PUSH1 0x40 MLOAD RETURNDATASIZE PUSH1 0x1F NOT PUSH1 0x1F DUP3 ADD AND DUP3 ADD DUP1 PUSH1 0x40 MSTORE POP DUP2 ADD SWAP1 PUSH2 0x47A SWAP2 SWAP1 PUSH2 0xAE0 JUMP JUMPDEST SWAP1 POP PUSH1 0x0 DUP1 SHL ADDRESS PUSH20 0xFFFFFFFFFFFFFFFFFFFFFFFFFFFFFFFFFFFFFFFF AND PUSH4 0x69E0A1F7 DUP4 PUSH1 0x40 MLOAD DUP3 PUSH4 0xFFFFFFFF AND PUSH1 0xE0 SHL DUP2 MSTORE PUSH1 0x4 ADD PUSH2 0x4B9 SWAP2 SWAP1 PUSH2 0xDB1 JUMP JUMPDEST PUSH1 0x20 PUSH1 0x40 MLOAD DUP1 DUP4 SUB DUP2 DUP7 DUP1 EXTCODESIZE ISZERO DUP1 ISZERO PUSH2 0x4D1 JUMPI PUSH1 0x0 DUP1 REVERT JUMPDEST POP GAS STATICCALL ISZERO DUP1 ISZERO PUSH2 0x4E5 JUMPI RETURNDATASIZE PUSH1 0x0 DUP1 RETURNDATACOPY RETURNDATASIZE PUSH1 0x0 REVERT JUMPDEST POP POP POP POP PUSH1 0x40 MLOAD RETURNDATASIZE PUSH1 0x1F NOT PUSH1 0x1F DUP3 ADD AND DUP3 ADD DUP1 PUSH1 0x40 MSTORE POP DUP2 ADD SWAP1 PUSH2 0x509 SWAP2 SWAP1 PUSH2 0xBA9 JUMP JUMPDEST EQ ISZERO PUSH2 0x54A JUMPI PUSH1 0x40 MLOAD PUSH32 0x8C379A000000000000000000000000000000000000000000000000000000000 DUP2 MSTORE PUSH1 0x4 ADD PUSH2 0x541 SWAP1 PUSH2 0xEC8 JUMP JUMPDEST PUSH1 0x40 MLOAD DUP1 SWAP2 SUB SWAP1 REVERT JUMPDEST DUP5 CALLER PUSH20 0xFFFFFFFFFFFFFFFFFFFFFFFFFFFFFFFFFFFFFFFF AND PUSH32 0x71A29581F391D0CA96684C69771724A921678B572E21378712BE03E8DA07E2CA DUP7 PUSH1 0x40 MLOAD PUSH2 0x591 SWAP2 SWAP1 PUSH2 0xE2B JUMP JUMPDEST PUSH1 0x40 MLOAD DUP1 SWAP2 SUB SWAP1 LOG3 DUP1 PUSH20 0xFFFFFFFFFFFFFFFFFFFFFFFFFFFFFFFFFFFFFFFF AND PUSH4 0xF636A053 DUP7 DUP7 CALLER PUSH1 0x40 MLOAD DUP5 PUSH4 0xFFFFFFFF AND PUSH1 0xE0 SHL DUP2 MSTORE PUSH1 0x4 ADD PUSH2 0x5D6 SWAP4 SWAP3 SWAP2 SWAP1 PUSH2 0xF03 JUMP JUMPDEST PUSH1 0x20 PUSH1 0x40 MLOAD DUP1 DUP4 SUB DUP2 PUSH1 0x0 DUP8 DUP1 EXTCODESIZE ISZERO DUP1 ISZERO PUSH2 0x5F0 JUMPI PUSH1 0x0 DUP1 REVERT JUMPDEST POP GAS CALL ISZERO DUP1 ISZERO PUSH2 0x604 JUMPI RETURNDATASIZE PUSH1 0x0 DUP1 RETURNDATACOPY RETURNDATASIZE PUSH1 0x0 REVERT JUMPDEST POP POP POP POP PUSH1 0x40 MLOAD RETURNDATASIZE PUSH1 0x1F NOT PUSH1 0x1F DUP3 ADD AND DUP3 ADD DUP1 PUSH1 0x40 MSTORE POP DUP2 ADD SWAP1 PUSH2 0x628 SWAP2 SWAP1 PUSH2 0xB7C JUMP JUMPDEST SWAP3 POP POP POP SWAP3 SWAP2 POP POP JUMP JUMPDEST PUSH32 0x0 PUSH20 0xFFFFFFFFFFFFFFFFFFFFFFFFFFFFFFFFFFFFFFFF AND CALLER PUSH20 0xFFFFFFFFFFFFFFFFFFFFFFFFFFFFFFFFFFFFFFFF AND EQ PUSH2 0x6C0 JUMPI PUSH1 0x40 MLOAD PUSH32 0x8C379A000000000000000000000000000000000000000000000000000000000 DUP2 MSTORE PUSH1 0x4 ADD PUSH2 0x6B7 SWAP1 PUSH2 0xE88 JUMP JUMPDEST PUSH1 0x40 MLOAD DUP1 SWAP2 SUB SWAP1 REVERT JUMPDEST PUSH2 0x6CB DUP4 DUP4 DUP4 PUSH2 0x6F4 JUMP JUMPDEST POP POP POP JUMP JUMPDEST PUSH32 0x0 DUP2 JUMP JUMPDEST PUSH1 0x40 MLOAD DUP1 PUSH1 0x40 ADD PUSH1 0x40 MSTORE DUP1 DUP5 DUP2 MSTORE PUSH1 0x20 ADD DUP3 DUP2 MSTORE POP PUSH1 0x1 PUSH1 0x0 DUP5 PUSH20 0xFFFFFFFFFFFFFFFFFFFFFFFFFFFFFFFFFFFFFFFF AND PUSH20 0xFFFFFFFFFFFFFFFFFFFFFFFFFFFFFFFFFFFFFFFF AND DUP2 MSTORE PUSH1 0x20 ADD SWAP1 DUP2 MSTORE PUSH1 0x20 ADD PUSH1 0x0 KECCAK256 PUSH1 0x0 DUP3 ADD MLOAD DUP2 PUSH1 0x0 ADD SSTORE PUSH1 0x20 DUP3 ADD MLOAD DUP2 PUSH1 0x1 ADD SWAP1 DUP1 MLOAD SWAP1 PUSH1 0x20 ADD SWAP1 PUSH2 0x76E SWAP3 SWAP2 SWAP1 PUSH2 0x8B2 JUMP JUMPDEST POP SWAP1 POP POP PUSH1 0x0 PUSH32 0x0 PUSH20 0xFFFFFFFFFFFFFFFFFFFFFFFFFFFFFFFFFFFFFFFF AND PUSH4 0x624A23E0 PUSH32 0xD578563424AB02F85EC03C6B1AEE04947EBDD4A30DB46CBA3BCD7F56EF40B199 PUSH1 0x40 MLOAD DUP3 PUSH4 0xFFFFFFFF AND PUSH1 0xE0 SHL DUP2 MSTORE PUSH1 0x4 ADD PUSH2 0x7ED SWAP2 SWAP1 PUSH2 0xDE7 JUMP JUMPDEST PUSH1 0x20 PUSH1 0x40 MLOAD DUP1 DUP4 SUB DUP2 DUP7 DUP1 EXTCODESIZE ISZERO DUP1 ISZERO PUSH2 0x805 JUMPI PUSH1 0x0 DUP1 REVERT JUMPDEST POP GAS STATICCALL ISZERO DUP1 ISZERO PUSH2 0x819 JUMPI RETURNDATASIZE PUSH1 0x0 DUP1 RETURNDATACOPY RETURNDATASIZE PUSH1 0x0 REVERT JUMPDEST POP POP POP POP PUSH1 0x40 MLOAD RETURNDATASIZE PUSH1 0x1F NOT PUSH1 0x1F DUP3 ADD AND DUP3 ADD DUP1 PUSH1 0x40 MSTORE POP DUP2 ADD SWAP1 PUSH2 0x83D SWAP2 SWAP1 PUSH2 0xAE0 JUMP JUMPDEST SWAP1 POP DUP1 PUSH20 0xFFFFFFFFFFFFFFFFFFFFFFFFFFFFFFFFFFFFFFFF AND PUSH4 0x38C68782 DUP6 DUP6 PUSH1 0x40 MLOAD DUP4 PUSH4 0xFFFFFFFF AND PUSH1 0xE0 SHL DUP2 MSTORE PUSH1 0x4 ADD PUSH2 0x87A SWAP3 SWAP2 SWAP1 PUSH2 0xE02 JUMP JUMPDEST PUSH1 0x0 PUSH1 0x40 MLOAD DUP1 DUP4 SUB DUP2 PUSH1 0x0 DUP8 DUP1 EXTCODESIZE ISZERO DUP1 ISZERO PUSH2 0x894 JUMPI PUSH1 0x0 DUP1 REVERT JUMPDEST POP GAS CALL ISZERO DUP1 ISZERO PUSH2 0x8A8 JUMPI RETURNDATASIZE PUSH1 0x0 DUP1 RETURNDATACOPY RETURNDATASIZE PUSH1 0x0 REVERT JUMPDEST POP POP POP POP POP POP POP POP JUMP JUMPDEST DUP3 DUP1 SLOAD PUSH2 0x8BE SWAP1 PUSH2 0x10BF JUMP JUMPDEST SWAP1 PUSH1 0x0 MSTORE PUSH1 0x20 PUSH1 0x0 KECCAK256 SWAP1 PUSH1 0x1F ADD PUSH1 0x20 SWAP1 DIV DUP2 ADD SWAP3 DUP3 PUSH2 0x8E0 JUMPI PUSH1 0x0 DUP6 SSTORE PUSH2 0x927 JUMP JUMPDEST DUP3 PUSH1 0x1F LT PUSH2 0x8F9 JUMPI DUP1 MLOAD PUSH1 0xFF NOT AND DUP4 DUP1 ADD OR DUP6 SSTORE PUSH2 0x927 JUMP JUMPDEST DUP3 DUP1 ADD PUSH1 0x1 ADD DUP6 SSTORE DUP3 ISZERO PUSH2 0x927 JUMPI SWAP2 DUP3 ADD JUMPDEST DUP3 DUP2 GT ISZERO PUSH2 0x926 JUMPI DUP3 MLOAD DUP3 SSTORE SWAP2 PUSH1 0x20 ADD SWAP2 SWAP1 PUSH1 0x1 ADD SWAP1 PUSH2 0x90B JUMP JUMPDEST JUMPDEST POP SWAP1 POP PUSH2 0x934 SWAP2 SWAP1 PUSH2 0x938 JUMP JUMPDEST POP SWAP1 JUMP JUMPDEST JUMPDEST DUP1 DUP3 GT ISZERO PUSH2 0x951 JUMPI PUSH1 0x0 DUP2 PUSH1 0x0 SWAP1 SSTORE POP PUSH1 0x1 ADD PUSH2 0x939 JUMP JUMPDEST POP SWAP1 JUMP JUMPDEST PUSH1 0x0 PUSH2 0x968 PUSH2 0x963 DUP5 PUSH2 0xF66 JUMP JUMPDEST PUSH2 0xF41 JUMP JUMPDEST SWAP1 POP DUP3 DUP2 MSTORE PUSH1 0x20 DUP2 ADD DUP5 DUP5 DUP5 ADD GT ISZERO PUSH2 0x984 JUMPI PUSH2 0x983 PUSH2 0x1185 JUMP JUMPDEST JUMPDEST PUSH2 0x98F DUP5 DUP3 DUP6 PUSH2 0x107D JUMP JUMPDEST POP SWAP4 SWAP3 POP POP POP JUMP JUMPDEST PUSH1 0x0 PUSH2 0x9AA PUSH2 0x9A5 DUP5 PUSH2 0xF97 JUMP JUMPDEST PUSH2 0xF41 JUMP JUMPDEST SWAP1 POP DUP3 DUP2 MSTORE PUSH1 0x20 DUP2 ADD DUP5 DUP5 DUP5 ADD GT ISZERO PUSH2 0x9C6 JUMPI PUSH2 0x9C5 PUSH2 0x1185 JUMP JUMPDEST JUMPDEST PUSH2 0x9D1 DUP5 DUP3 DUP6 PUSH2 0x107D JUMP JUMPDEST POP SWAP4 SWAP3 POP POP POP JUMP JUMPDEST PUSH1 0x0 DUP2 CALLDATALOAD SWAP1 POP PUSH2 0x9E8 DUP2 PUSH2 0x1249 JUMP JUMPDEST SWAP3 SWAP2 POP POP JUMP JUMPDEST PUSH1 0x0 DUP2 MLOAD SWAP1 POP PUSH2 0x9FD DUP2 PUSH2 0x1249 JUMP JUMPDEST SWAP3 SWAP2 POP POP JUMP JUMPDEST PUSH1 0x0 DUP2 MLOAD SWAP1 POP PUSH2 0xA12 DUP2 PUSH2 0x1260 JUMP JUMPDEST SWAP3 SWAP2 POP POP JUMP JUMPDEST PUSH1 0x0 DUP2 CALLDATALOAD SWAP1 POP PUSH2 0xA27 DUP2 PUSH2 0x1277 JUMP JUMPDEST SWAP3 SWAP2 POP POP JUMP JUMPDEST PUSH1 0x0 DUP2 MLOAD SWAP1 POP PUSH2 0xA3C DUP2 PUSH2 0x1277 JUMP JUMPDEST SWAP3 SWAP2 POP POP JUMP JUMPDEST PUSH1 0x0 DUP3 PUSH1 0x1F DUP4 ADD SLT PUSH2 0xA57 JUMPI PUSH2 0xA56 PUSH2 0x1180 JUMP JUMPDEST JUMPDEST DUP2 CALLDATALOAD PUSH2 0xA67 DUP5 DUP3 PUSH1 0x20 DUP7 ADD PUSH2 0x955 JUMP JUMPDEST SWAP2 POP POP SWAP3 SWAP2 POP POP JUMP JUMPDEST PUSH1 0x0 DUP3 PUSH1 0x1F DUP4 ADD SLT PUSH2 0xA85 JUMPI PUSH2 0xA84 PUSH2 0x1180 JUMP JUMPDEST JUMPDEST DUP2 CALLDATALOAD PUSH2 0xA95 DUP5 DUP3 PUSH1 0x20 DUP7 ADD PUSH2 0x997 JUMP JUMPDEST SWAP2 POP POP SWAP3 SWAP2 POP POP JUMP JUMPDEST PUSH1 0x0 DUP2 CALLDATALOAD SWAP1 POP PUSH2 0xAAD DUP2 PUSH2 0x128E JUMP JUMPDEST SWAP3 SWAP2 POP POP JUMP JUMPDEST PUSH1 0x0 PUSH1 0x20 DUP3 DUP5 SUB SLT ISZERO PUSH2 0xAC9 JUMPI PUSH2 0xAC8 PUSH2 0x118F JUMP JUMPDEST JUMPDEST PUSH1 0x0 PUSH2 0xAD7 DUP5 DUP3 DUP6 ADD PUSH2 0x9D9 JUMP JUMPDEST SWAP2 POP POP SWAP3 SWAP2 POP POP JUMP JUMPDEST PUSH1 0x0 PUSH1 0x20 DUP3 DUP5 SUB SLT ISZERO PUSH2 0xAF6 JUMPI PUSH2 0xAF5 PUSH2 0x118F JUMP JUMPDEST JUMPDEST PUSH1 0x0 PUSH2 0xB04 DUP5 DUP3 DUP6 ADD PUSH2 0x9EE JUMP JUMPDEST SWAP2 POP POP SWAP3 SWAP2 POP POP JUMP JUMPDEST PUSH1 0x0 DUP1 PUSH1 0x0 PUSH1 0x60 DUP5 DUP7 SUB SLT ISZERO PUSH2 0xB26 JUMPI PUSH2 0xB25 PUSH2 0x118F JUMP JUMPDEST JUMPDEST PUSH1 0x0 PUSH2 0xB34 DUP7 DUP3 DUP8 ADD PUSH2 0x9D9 JUMP JUMPDEST SWAP4 POP POP PUSH1 0x20 PUSH2 0xB45 DUP7 DUP3 DUP8 ADD PUSH2 0xA18 JUMP JUMPDEST SWAP3 POP POP PUSH1 0x40 DUP5 ADD CALLDATALOAD PUSH8 0xFFFFFFFFFFFFFFFF DUP2 GT ISZERO PUSH2 0xB66 JUMPI PUSH2 0xB65 PUSH2 0x118A JUMP JUMPDEST JUMPDEST PUSH2 0xB72 DUP7 DUP3 DUP8 ADD PUSH2 0xA70 JUMP JUMPDEST SWAP2 POP POP SWAP3 POP SWAP3 POP SWAP3 JUMP JUMPDEST PUSH1 0x0 PUSH1 0x20 DUP3 DUP5 SUB SLT ISZERO PUSH2 0xB92 JUMPI PUSH2 0xB91 PUSH2 0x118F JUMP JUMPDEST JUMPDEST PUSH1 0x0 PUSH2 0xBA0 DUP5 DUP3 DUP6 ADD PUSH2 0xA03 JUMP JUMPDEST SWAP2 POP POP SWAP3 SWAP2 POP POP JUMP JUMPDEST PUSH1 0x0 PUSH1 0x20 DUP3 DUP5 SUB SLT ISZERO PUSH2 0xBBF JUMPI PUSH2 0xBBE PUSH2 0x118F JUMP JUMPDEST JUMPDEST PUSH1 0x0 PUSH2 0xBCD DUP5 DUP3 DUP6 ADD PUSH2 0xA2D JUMP JUMPDEST SWAP2 POP POP SWAP3 SWAP2 POP POP JUMP JUMPDEST PUSH1 0x0 DUP1 PUSH1 0x0 PUSH1 0x60 DUP5 DUP7 SUB SLT ISZERO PUSH2 0xBEF JUMPI PUSH2 0xBEE PUSH2 0x118F JUMP JUMPDEST JUMPDEST PUSH1 0x0 PUSH2 0xBFD DUP7 DUP3 DUP8 ADD PUSH2 0xA18 JUMP JUMPDEST SWAP4 POP POP PUSH1 0x20 PUSH2 0xC0E DUP7 DUP3 DUP8 ADD PUSH2 0x9D9 JUMP JUMPDEST SWAP3 POP POP PUSH1 0x40 DUP5 ADD CALLDATALOAD PUSH8 0xFFFFFFFFFFFFFFFF DUP2 GT ISZERO PUSH2 0xC2F JUMPI PUSH2 0xC2E PUSH2 0x118A JUMP JUMPDEST JUMPDEST PUSH2 0xC3B DUP7 DUP3 DUP8 ADD PUSH2 0xA70 JUMP JUMPDEST SWAP2 POP POP SWAP3 POP SWAP3 POP SWAP3 JUMP JUMPDEST PUSH1 0x0 DUP1 PUSH1 0x40 DUP4 DUP6 SUB SLT ISZERO PUSH2 0xC5C JUMPI PUSH2 0xC5B PUSH2 0x118F JUMP JUMPDEST JUMPDEST PUSH1 0x0 PUSH2 0xC6A DUP6 DUP3 DUP7 ADD PUSH2 0xA9E JUMP JUMPDEST SWAP3 POP POP PUSH1 0x20 DUP4 ADD CALLDATALOAD PUSH8 0xFFFFFFFFFFFFFFFF DUP2 GT ISZERO PUSH2 0xC8B JUMPI PUSH2 0xC8A PUSH2 0x118A JUMP JUMPDEST JUMPDEST PUSH2 0xC97 DUP6 DUP3 DUP7 ADD PUSH2 0xA42 JUMP JUMPDEST SWAP2 POP POP SWAP3 POP SWAP3 SWAP1 POP JUMP JUMPDEST PUSH2 0xCAA DUP2 PUSH2 0xFF5 JUMP JUMPDEST DUP3 MSTORE POP POP JUMP JUMPDEST PUSH2 0xCB9 DUP2 PUSH2 0x1007 JUMP JUMPDEST DUP3 MSTORE POP POP JUMP JUMPDEST PUSH2 0xCC8 DUP2 PUSH2 0x1013 JUMP JUMPDEST DUP3 MSTORE POP POP JUMP JUMPDEST PUSH1 0x0 PUSH2 0xCD9 DUP3 PUSH2 0xFC8 JUMP JUMPDEST PUSH2 0xCE3 DUP2 DUP6 PUSH2 0xFD3 JUMP JUMPDEST SWAP4 POP PUSH2 0xCF3 DUP2 DUP6 PUSH1 0x20 DUP7 ADD PUSH2 0x108C JUMP JUMPDEST PUSH2 0xCFC DUP2 PUSH2 0x1194 JUMP JUMPDEST DUP5 ADD SWAP2 POP POP SWAP3 SWAP2 POP POP JUMP JUMPDEST PUSH2 0xD10 DUP2 PUSH2 0x1047 JUMP JUMPDEST DUP3 MSTORE POP POP JUMP JUMPDEST PUSH1 0x0 PUSH2 0xD23 PUSH1 0x1C DUP4 PUSH2 0xFE4 JUMP JUMPDEST SWAP2 POP PUSH2 0xD2E DUP3 PUSH2 0x11A5 JUMP JUMPDEST PUSH1 0x20 DUP3 ADD SWAP1 POP SWAP2 SWAP1 POP JUMP JUMPDEST PUSH1 0x0 PUSH2 0xD46 PUSH1 0x1C DUP4 PUSH2 0xFE4 JUMP JUMPDEST SWAP2 POP PUSH2 0xD51 DUP3 PUSH2 0x11CE JUMP JUMPDEST PUSH1 0x20 DUP3 ADD SWAP1 POP SWAP2 SWAP1 POP JUMP JUMPDEST PUSH1 0x0 PUSH2 0xD69 PUSH1 0x1D DUP4 PUSH2 0xFE4 JUMP JUMPDEST SWAP2 POP PUSH2 0xD74 DUP3 PUSH2 0x11F7 JUMP JUMPDEST PUSH1 0x20 DUP3 ADD SWAP1 POP SWAP2 SWAP1 POP JUMP JUMPDEST PUSH1 0x0 PUSH2 0xD8C PUSH1 0x18 DUP4 PUSH2 0xFE4 JUMP JUMPDEST SWAP2 POP PUSH2 0xD97 DUP3 PUSH2 0x1220 JUMP JUMPDEST PUSH1 0x20 DUP3 ADD SWAP1 POP SWAP2 SWAP1 POP JUMP JUMPDEST PUSH2 0xDAB DUP2 PUSH2 0x103D JUMP JUMPDEST DUP3 MSTORE POP POP JUMP JUMPDEST PUSH1 0x0 PUSH1 0x20 DUP3 ADD SWAP1 POP PUSH2 0xDC6 PUSH1 0x0 DUP4 ADD DUP5 PUSH2 0xCA1 JUMP JUMPDEST SWAP3 SWAP2 POP POP JUMP JUMPDEST PUSH1 0x0 PUSH1 0x20 DUP3 ADD SWAP1 POP PUSH2 0xDE1 PUSH1 0x0 DUP4 ADD DUP5 PUSH2 0xCB0 JUMP JUMPDEST SWAP3 SWAP2 POP POP JUMP JUMPDEST PUSH1 0x0 PUSH1 0x20 DUP3 ADD SWAP1 POP PUSH2 0xDFC PUSH1 0x0 DUP4 ADD DUP5 PUSH2 0xCBF JUMP JUMPDEST SWAP3 SWAP2 POP POP JUMP JUMPDEST PUSH1 0x0 PUSH1 0x40 DUP3 ADD SWAP1 POP PUSH2 0xE17 PUSH1 0x0 DUP4 ADD DUP6 PUSH2 0xCBF JUMP JUMPDEST PUSH2 0xE24 PUSH1 0x20 DUP4 ADD DUP5 PUSH2 0xCA1 JUMP JUMPDEST SWAP4 SWAP3 POP POP POP JUMP JUMPDEST PUSH1 0x0 PUSH1 0x20 DUP3 ADD SWAP1 POP DUP2 DUP2 SUB PUSH1 0x0 DUP4 ADD MSTORE PUSH2 0xE45 DUP2 DUP5 PUSH2 0xCCE JUMP JUMPDEST SWAP1 POP SWAP3 SWAP2 POP POP JUMP JUMPDEST PUSH1 0x0 PUSH1 0x20 DUP3 ADD SWAP1 POP PUSH2 0xE62 PUSH1 0x0 DUP4 ADD DUP5 PUSH2 0xD07 JUMP JUMPDEST SWAP3 SWAP2 POP POP JUMP JUMPDEST PUSH1 0x0 PUSH1 0x20 DUP3 ADD SWAP1 POP DUP2 DUP2 SUB PUSH1 0x0 DUP4 ADD MSTORE PUSH2 0xE81 DUP2 PUSH2 0xD16 JUMP JUMPDEST SWAP1 POP SWAP2 SWAP1 POP JUMP JUMPDEST PUSH1 0x0 PUSH1 0x20 DUP3 ADD SWAP1 POP DUP2 DUP2 SUB PUSH1 0x0 DUP4 ADD MSTORE PUSH2 0xEA1 DUP2 PUSH2 0xD39 JUMP JUMPDEST SWAP1 POP SWAP2 SWAP1 POP JUMP JUMPDEST PUSH1 0x0 PUSH1 0x20 DUP3 ADD SWAP1 POP DUP2 DUP2 SUB PUSH1 0x0 DUP4 ADD MSTORE PUSH2 0xEC1 DUP2 PUSH2 0xD5C JUMP JUMPDEST SWAP1 POP SWAP2 SWAP1 POP JUMP JUMPDEST PUSH1 0x0 PUSH1 0x20 DUP3 ADD SWAP1 POP DUP2 DUP2 SUB PUSH1 0x0 DUP4 ADD MSTORE PUSH2 0xEE1 DUP2 PUSH2 0xD7F JUMP JUMPDEST SWAP1 POP SWAP2 SWAP1 POP JUMP JUMPDEST PUSH1 0x0 PUSH1 0x20 DUP3 ADD SWAP1 POP PUSH2 0xEFD PUSH1 0x0 DUP4 ADD DUP5 PUSH2 0xDA2 JUMP JUMPDEST SWAP3 SWAP2 POP POP JUMP JUMPDEST PUSH1 0x0 PUSH1 0x60 DUP3 ADD SWAP1 POP PUSH2 0xF18 PUSH1 0x0 DUP4 ADD DUP7 PUSH2 0xDA2 JUMP JUMPDEST DUP2 DUP2 SUB PUSH1 0x20 DUP4 ADD MSTORE PUSH2 0xF2A DUP2 DUP6 PUSH2 0xCCE JUMP JUMPDEST SWAP1 POP PUSH2 0xF39 PUSH1 0x40 DUP4 ADD DUP5 PUSH2 0xCA1 JUMP JUMPDEST SWAP5 SWAP4 POP POP POP POP JUMP JUMPDEST PUSH1 0x0 PUSH2 0xF4B PUSH2 0xF5C JUMP JUMPDEST SWAP1 POP PUSH2 0xF57 DUP3 DUP3 PUSH2 0x10F1 JUMP JUMPDEST SWAP2 SWAP1 POP JUMP JUMPDEST PUSH1 0x0 PUSH1 0x40 MLOAD SWAP1 POP SWAP1 JUMP JUMPDEST PUSH1 0x0 PUSH8 0xFFFFFFFFFFFFFFFF DUP3 GT ISZERO PUSH2 0xF81 JUMPI PUSH2 0xF80 PUSH2 0x1151 JUMP JUMPDEST JUMPDEST PUSH2 0xF8A DUP3 PUSH2 0x1194 JUMP JUMPDEST SWAP1 POP PUSH1 0x20 DUP2 ADD SWAP1 POP SWAP2 SWAP1 POP JUMP JUMPDEST PUSH1 0x0 PUSH8 0xFFFFFFFFFFFFFFFF DUP3 GT ISZERO PUSH2 0xFB2 JUMPI PUSH2 0xFB1 PUSH2 0x1151 JUMP JUMPDEST JUMPDEST PUSH2 0xFBB DUP3 PUSH2 0x1194 JUMP JUMPDEST SWAP1 POP PUSH1 0x20 DUP2 ADD SWAP1 POP SWAP2 SWAP1 POP JUMP JUMPDEST PUSH1 0x0 DUP2 MLOAD SWAP1 POP SWAP2 SWAP1 POP JUMP JUMPDEST PUSH1 0x0 DUP3 DUP3 MSTORE PUSH1 0x20 DUP3 ADD SWAP1 POP SWAP3 SWAP2 POP POP JUMP JUMPDEST PUSH1 0x0 DUP3 DUP3 MSTORE PUSH1 0x20 DUP3 ADD SWAP1 POP SWAP3 SWAP2 POP POP JUMP JUMPDEST PUSH1 0x0 PUSH2 0x1000 DUP3 PUSH2 0x101D JUMP JUMPDEST SWAP1 POP SWAP2 SWAP1 POP JUMP JUMPDEST PUSH1 0x0 DUP2 ISZERO ISZERO SWAP1 POP SWAP2 SWAP1 POP JUMP JUMPDEST PUSH1 0x0 DUP2 SWAP1 POP SWAP2 SWAP1 POP JUMP JUMPDEST PUSH1 0x0 PUSH20 0xFFFFFFFFFFFFFFFFFFFFFFFFFFFFFFFFFFFFFFFF DUP3 AND SWAP1 POP SWAP2 SWAP1 POP JUMP JUMPDEST PUSH1 0x0 DUP2 SWAP1 POP SWAP2 SWAP1 POP JUMP JUMPDEST PUSH1 0x0 PUSH2 0x1052 DUP3 PUSH2 0x1059 JUMP JUMPDEST SWAP1 POP SWAP2 SWAP1 POP JUMP JUMPDEST PUSH1 0x0 PUSH2 0x1064 DUP3 PUSH2 0x106B JUMP JUMPDEST SWAP1 POP SWAP2 SWAP1 POP JUMP JUMPDEST PUSH1 0x0 PUSH2 0x1076 DUP3 PUSH2 0x101D JUMP JUMPDEST SWAP1 POP SWAP2 SWAP1 POP JUMP JUMPDEST DUP3 DUP2 DUP4 CALLDATACOPY PUSH1 0x0 DUP4 DUP4 ADD MSTORE POP POP POP JUMP JUMPDEST PUSH1 0x0 JUMPDEST DUP4 DUP2 LT ISZERO PUSH2 0x10AA JUMPI DUP1 DUP3 ADD MLOAD DUP2 DUP5 ADD MSTORE PUSH1 0x20 DUP2 ADD SWAP1 POP PUSH2 0x108F JUMP JUMPDEST DUP4 DUP2 GT ISZERO PUSH2 0x10B9 JUMPI PUSH1 0x0 DUP5 DUP5 ADD MSTORE JUMPDEST POP POP POP POP JUMP JUMPDEST PUSH1 0x0 PUSH1 0x2 DUP3 DIV SWAP1 POP PUSH1 0x1 DUP3 AND DUP1 PUSH2 0x10D7 JUMPI PUSH1 0x7F DUP3 AND SWAP2 POP JUMPDEST PUSH1 0x20 DUP3 LT DUP2 EQ ISZERO PUSH2 0x10EB JUMPI PUSH2 0x10EA PUSH2 0x1122 JUMP JUMPDEST JUMPDEST POP SWAP2 SWAP1 POP JUMP JUMPDEST PUSH2 0x10FA DUP3 PUSH2 0x1194 JUMP JUMPDEST DUP2 ADD DUP2 DUP2 LT PUSH8 0xFFFFFFFFFFFFFFFF DUP3 GT OR ISZERO PUSH2 0x1119 JUMPI PUSH2 0x1118 PUSH2 0x1151 JUMP JUMPDEST JUMPDEST DUP1 PUSH1 0x40 MSTORE POP POP POP JUMP JUMPDEST PUSH32 0x4E487B7100000000000000000000000000000000000000000000000000000000 PUSH1 0x0 MSTORE PUSH1 0x22 PUSH1 0x4 MSTORE PUSH1 0x24 PUSH1 0x0 REVERT JUMPDEST PUSH32 0x4E487B7100000000000000000000000000000000000000000000000000000000 PUSH1 0x0 MSTORE PUSH1 0x41 PUSH1 0x4 MSTORE PUSH1 0x24 PUSH1 0x0 REVERT JUMPDEST PUSH1 0x0 DUP1 REVERT JUMPDEST PUSH1 0x0 DUP1 REVERT JUMPDEST PUSH1 0x0 DUP1 REVERT JUMPDEST PUSH1 0x0 DUP1 REVERT JUMPDEST PUSH1 0x0 PUSH1 0x1F NOT PUSH1 0x1F DUP4 ADD AND SWAP1 POP SWAP2 SWAP1 POP JUMP JUMPDEST PUSH32 0x496E69743A204F6E6C79206465706C6F7965722063616E20696E697400000000 PUSH1 0x0 DUP3 ADD MSTORE POP JUMP JUMPDEST PUSH32 0x53797374656D3A204F6E6C7920636F72652063616E206D6F6469667900000000 PUSH1 0x0 DUP3 ADD MSTORE POP JUMP JUMPDEST PUSH32 0x496E69743A20436F6E747261637420697320696E697469616C697A6564000000 PUSH1 0x0 DUP3 ADD MSTORE POP JUMP JUMPDEST PUSH32 0x426F6F74683A20496E76616C696420766F746520747970650000000000000000 PUSH1 0x0 DUP3 ADD MSTORE POP JUMP JUMPDEST PUSH2 0x1252 DUP2 PUSH2 0xFF5 JUMP JUMPDEST DUP2 EQ PUSH2 0x125D JUMPI PUSH1 0x0 DUP1 REVERT JUMPDEST POP JUMP JUMPDEST PUSH2 0x1269 DUP2 PUSH2 0x1007 JUMP JUMPDEST DUP2 EQ PUSH2 0x1274 JUMPI PUSH1 0x0 DUP1 REVERT JUMPDEST POP JUMP JUMPDEST PUSH2 0x1280 DUP2 PUSH2 0x1013 JUMP JUMPDEST DUP2 EQ PUSH2 0x128B JUMPI PUSH1 0x0 DUP1 REVERT JUMPDEST POP JUMP JUMPDEST PUSH2 0x1297 DUP2 PUSH2 0x103D JUMP JUMPDEST DUP2 EQ PUSH2 0x12A2 JUMPI PUSH1 0x0 DUP1 REVERT JUMPDEST POP JUMP INVALID LOG2 PUSH5 0x6970667358 0x22 SLT KECCAK256 0xE CALLVALUE SWAP15 DUP16 0xC3 0xE1 0xAB 0xA9 CHAINID EXTCODECOPY PUSH4 0x7F905A29 0xC6 SWAP3 0xCD DUP15 LT PUSH17 0x18781D48CB21BD57DB415664736F6C6343 STOP ADDMOD SMOD STOP CALLER "
        },
        "methodIdentifiers": {
          "IDENTIFIER()": "3c9747f3",
          "addVoteType(bytes32,address,string)": "cbba4b7f",
          "core_()": "eaddd0fd",
          "getVoteType(address)": "69e0a1f7",
          "initialise(address,bytes32,string)": "6e3ce913",
          "vote(uint256,bytes)": "b88b82ba"
        }
      },
      "userdoc": {
        "kind": "user",
        "methods": {},
        "version": 1
      }
    }
  }
}