{
  "contracts/Executables.sol": {
    "Executables": {
      "abi": [
        {
          "inputs": [
            {
              "internalType": "address[]",
              "name": "_targets",
              "type": "address[]"
            },
            {
              "internalType": "string[]",
              "name": "_functionSignatures",
              "type": "string[]"
            },
            {
              "internalType": "bytes[]",
              "name": "_encodedParameters",
              "type": "bytes[]"
            },
            {
              "internalType": "uint256[]",
              "name": "_values",
              "type": "uint256[]"
            },
            {
              "internalType": "string",
              "name": "_description",
              "type": "string"
            }
          ],
          "name": "createExe",
          "outputs": [
            {
              "internalType": "bytes32",
              "name": "exeID",
              "type": "bytes32"
            }
          ],
          "stateMutability": "nonpayable",
          "type": "function"
        },
        {
          "inputs": [
            {
              "internalType": "bytes32",
              "name": "_exeID",
              "type": "bytes32"
            }
          ],
          "name": "getExe",
          "outputs": [
            {
              "internalType": "address[]",
              "name": "targets",
              "type": "address[]"
            },
            {
              "internalType": "bytes[]",
              "name": "callData",
              "type": "bytes[]"
            },
            {
              "internalType": "uint256[]",
              "name": "values",
              "type": "uint256[]"
            }
          ],
          "stateMutability": "view",
          "type": "function"
        },
        {
          "inputs": [
            {
              "internalType": "address[]",
              "name": "_targets",
              "type": "address[]"
            },
            {
              "internalType": "uint256[]",
              "name": "_values",
              "type": "uint256[]"
            },
            {
              "internalType": "bytes[]",
              "name": "_callData",
              "type": "bytes[]"
            },
            {
              "internalType": "string",
              "name": "_description",
              "type": "string"
            }
          ],
          "name": "getExeId",
          "outputs": [
            {
              "internalType": "bytes32",
              "name": "",
              "type": "bytes32"
            }
          ],
          "stateMutability": "pure",
          "type": "function"
        },
        {
          "inputs": [
            {
              "internalType": "bytes32",
              "name": "_exeID",
              "type": "bytes32"
            }
          ],
          "name": "getExeInfo",
          "outputs": [
            {
              "internalType": "address[]",
              "name": "targets",
              "type": "address[]"
            },
            {
              "internalType": "bytes[]",
              "name": "callData",
              "type": "bytes[]"
            },
            {
              "internalType": "uint256[]",
              "name": "values",
              "type": "uint256[]"
            },
            {
              "internalType": "string",
              "name": "description",
              "type": "string"
            },
            {
              "internalType": "address",
              "name": "creator",
              "type": "address"
            }
          ],
          "stateMutability": "view",
          "type": "function"
        }
      ],
      "devdoc": {
        "kind": "dev",
        "methods": {},
        "version": 1
      },
      "evm": {
        "bytecode": {
          "linkReferences": {},
          "object": "608060405234801561001057600080fd5b50611eec806100206000396000f3fe608060405234801561001057600080fd5b506004361061004c5760003560e01c80630ee476bc14610051578063184b9ce514610081578063971aa75e146100b1578063e0751326146100e3575b600080fd5b61006b60048036038101906100669190611399565b610117565b60405161007891906118a1565b60405180910390f35b61009b6004803603810190610096919061127c565b610150565b6040516100a891906118a1565b60405180910390f35b6100cb60048036038101906100c69190611470565b61062c565b6040516100da93929190611785565b60405180910390f35b6100fd60048036038101906100f89190611470565b610821565b60405161010e9594939291906117d1565b60405180910390f35b6000848484846040516020016101309493929190611840565b604051602081830303815290604052805190602001209050949350505050565b6000888890508b8b905014801561016c5750868690508b8b9050145b801561017d5750848490508b8b9050145b6101bc576040517f08c379a00000000000000000000000000000000000000000000000000000000081526004016101b3906118bc565b60405180910390fd5b60008b8b905067ffffffffffffffff8111156101db576101da611db2565b5b60405190808252806020026020018201604052801561020e57816020015b60608152602001906001900390816101f95790505b50905060005b8c8c90508110156102d1578a8a8281811061023257610231611d83565b5b9050602002810190610244919061195f565b60405161025292919061176c565b604051809103902089898381811061026d5761026c611d83565b5b905060200281019061027f91906118fc565b60405160200161029193929190611742565b6040516020818303038152906040528282815181106102b3576102b2611d83565b5b602002602001018190525080806102c990611cd2565b915050610214565b506103a48c8c80806020026020016040519081016040528093929190818152602001838360200280828437600081840152601f19601f82011690508083019250505050505050878780806020026020016040519081016040528093929190818152602001838360200280828437600081840152601f19601f820116905080830192505050505050508387878080601f016020809104026020016040519081016040528093929190818152602001838380828437600081840152601f19601f82011690508083019250505050505050610117565b9150600073ffffffffffffffffffffffffffffffffffffffff1660008084815260200190815260200160002060040160009054906101000a900473ffffffffffffffffffffffffffffffffffffffff1673ffffffffffffffffffffffffffffffffffffffff161461044a576040517f08c379a0000000000000000000000000000000000000000000000000000000008152600401610441906118dc565b60405180910390fd5b6040518060a001604052808d8d80806020026020016040519081016040528093929190818152602001838360200280828437600081840152601f19601f820116905080830192505050505050508152602001878780806020026020016040519081016040528093929190818152602001838360200280828437600081840152601f19601f82011690508083019250505050505050815260200182815260200185858080601f016020809104026020016040519081016040528093929190818152602001838380828437600081840152601f19601f8201169050808301925050505050505081526020013373ffffffffffffffffffffffffffffffffffffffff16815250600080848152602001908152602001600020600082015181600001908051906020019061057b929190610af3565b506020820151816001019080519060200190610598929190610b7d565b5060408201518160020190805190602001906105b5929190610bca565b5060608201518160030190805190602001906105d2929190610c2a565b5060808201518160040160006101000a81548173ffffffffffffffffffffffffffffffffffffffff021916908373ffffffffffffffffffffffffffffffffffffffff160217905550905050509a9950505050505050505050565b60608060606000808581526020019081526020016000206000018054806020026020016040519081016040528092919081815260200182805480156106c657602002820191906000526020600020905b8160009054906101000a900473ffffffffffffffffffffffffffffffffffffffff1673ffffffffffffffffffffffffffffffffffffffff168152602001906001019080831161067c575b50505050509250600080858152602001908152602001600020600201805480602002602001604051908101604052809291908181526020016000905b828210156107ae57838290600052602060002001805461072190611c6f565b80601f016020809104026020016040519081016040528092919081815260200182805461074d90611c6f565b801561079a5780601f1061076f5761010080835404028352916020019161079a565b820191906000526020600020905b81548152906001019060200180831161077d57829003601f168201915b505050505081526020019060010190610702565b50505050915060008085815260200190815260200160002060010180548060200260200160405190810160405280929190818152602001828054801561081357602002820191906000526020600020905b8154815260200190600101908083116107ff575b505050505090509193909250565b60608060608060008060008781526020019081526020016000206000018054806020026020016040519081016040528092919081815260200182805480156108be57602002820191906000526020600020905b8160009054906101000a900473ffffffffffffffffffffffffffffffffffffffff1673ffffffffffffffffffffffffffffffffffffffff1681526020019060010190808311610874575b50505050509450600080878152602001908152602001600020600201805480602002602001604051908101604052809291908181526020016000905b828210156109a657838290600052602060002001805461091990611c6f565b80601f016020809104026020016040519081016040528092919081815260200182805461094590611c6f565b80156109925780601f1061096757610100808354040283529160200191610992565b820191906000526020600020905b81548152906001019060200180831161097557829003601f168201915b5050505050815260200190600101906108fa565b505050509350600080878152602001908152602001600020600101805480602002602001604051908101604052809291908181526020018280548015610a0b57602002820191906000526020600020905b8154815260200190600101908083116109f7575b505050505092506000808781526020019081526020016000206003018054610a3290611c6f565b80601f0160208091040260200160405190810160405280929190818152602001828054610a5e90611c6f565b8015610aab5780601f10610a8057610100808354040283529160200191610aab565b820191906000526020600020905b815481529060010190602001808311610a8e57829003601f168201915b5050505050915060008087815260200190815260200160002060040160009054906101000a900473ffffffffffffffffffffffffffffffffffffffff16905091939590929450565b828054828255906000526020600020908101928215610b6c579160200282015b82811115610b6b5782518260006101000a81548173ffffffffffffffffffffffffffffffffffffffff021916908373ffffffffffffffffffffffffffffffffffffffff16021790555091602001919060010190610b13565b5b509050610b799190610cb0565b5090565b828054828255906000526020600020908101928215610bb9579160200282015b82811115610bb8578251825591602001919060010190610b9d565b5b509050610bc69190610cb0565b5090565b828054828255906000526020600020908101928215610c19579160200282015b82811115610c18578251829080519060200190610c08929190610ccd565b5091602001919060010190610bea565b5b509050610c269190610d53565b5090565b828054610c3690611c6f565b90600052602060002090601f016020900481019282610c585760008555610c9f565b82601f10610c7157805160ff1916838001178555610c9f565b82800160010185558215610c9f579182015b82811115610c9e578251825591602001919060010190610c83565b5b509050610cac9190610cb0565b5090565b5b80821115610cc9576000816000905550600101610cb1565b5090565b828054610cd990611c6f565b90600052602060002090601f016020900481019282610cfb5760008555610d42565b82601f10610d1457805160ff1916838001178555610d42565b82800160010185558215610d42579182015b82811115610d41578251825591602001919060010190610d26565b5b509050610d4f9190610cb0565b5090565b5b80821115610d735760008181610d6a9190610d77565b50600101610d54565b5090565b508054610d8390611c6f565b6000825580601f10610d955750610db4565b601f016020900490600052602060002090810190610db39190610cb0565b5b50565b6000610dca610dc5846119e7565b6119c2565b90508083825260208201905082856020860282011115610ded57610dec611df5565b5b60005b85811015610e1d5781610e038882610fa9565b845260208401935060208301925050600181019050610df0565b5050509392505050565b6000610e3a610e3584611a13565b6119c2565b90508083825260208201905082856020860282011115610e5d57610e5c611df5565b5b60005b85811015610eab57813567ffffffffffffffff811115610e8357610e82611de6565b5b808601610e9089826111b5565b85526020850194506020840193505050600181019050610e60565b5050509392505050565b6000610ec8610ec384611a3f565b6119c2565b90508083825260208201905082856020860282011115610eeb57610eea611df5565b5b60005b85811015610f1b5781610f018882611267565b845260208401935060208301925050600181019050610eee565b5050509392505050565b6000610f38610f3384611a6b565b6119c2565b905082815260208101848484011115610f5457610f53611dff565b5b610f5f848285611c2d565b509392505050565b6000610f7a610f7584611a9c565b6119c2565b905082815260208101848484011115610f9657610f95611dff565b5b610fa1848285611c2d565b509392505050565b600081359050610fb881611e71565b92915050565b60008083601f840112610fd457610fd3611de6565b5b8235905067ffffffffffffffff811115610ff157610ff0611de1565b5b60208301915083602082028301111561100d5761100c611df5565b5b9250929050565b600082601f83011261102957611028611de6565b5b8135611039848260208601610db7565b91505092915050565b60008083601f84011261105857611057611de6565b5b8235905067ffffffffffffffff81111561107557611074611de1565b5b60208301915083602082028301111561109157611090611df5565b5b9250929050565b600082601f8301126110ad576110ac611de6565b5b81356110bd848260208601610e27565b91505092915050565b60008083601f8401126110dc576110db611de6565b5b8235905067ffffffffffffffff8111156110f9576110f8611de1565b5b60208301915083602082028301111561111557611114611df5565b5b9250929050565b60008083601f84011261113257611131611de6565b5b8235905067ffffffffffffffff81111561114f5761114e611de1565b5b60208301915083602082028301111561116b5761116a611df5565b5b9250929050565b600082601f83011261118757611186611de6565b5b8135611197848260208601610eb5565b91505092915050565b6000813590506111af81611e88565b92915050565b600082601f8301126111ca576111c9611de6565b5b81356111da848260208601610f25565b91505092915050565b60008083601f8401126111f9576111f8611de6565b5b8235905067ffffffffffffffff81111561121657611215611de1565b5b60208301915083600182028301111561123257611231611df5565b5b9250929050565b600082601f83011261124e5761124d611de6565b5b813561125e848260208601610f67565b91505092915050565b60008135905061127681611e9f565b92915050565b60008060008060008060008060008060a08b8d03121561129f5761129e611e09565b5b60008b013567ffffffffffffffff8111156112bd576112bc611e04565b5b6112c98d828e01610fbe565b9a509a505060208b013567ffffffffffffffff8111156112ec576112eb611e04565b5b6112f88d828e016110c6565b985098505060408b013567ffffffffffffffff81111561131b5761131a611e04565b5b6113278d828e01611042565b965096505060608b013567ffffffffffffffff81111561134a57611349611e04565b5b6113568d828e0161111c565b945094505060808b013567ffffffffffffffff81111561137957611378611e04565b5b6113858d828e016111e3565b92509250509295989b9194979a5092959850565b600080600080608085870312156113b3576113b2611e09565b5b600085013567ffffffffffffffff8111156113d1576113d0611e04565b5b6113dd87828801611014565b945050602085013567ffffffffffffffff8111156113fe576113fd611e04565b5b61140a87828801611172565b935050604085013567ffffffffffffffff81111561142b5761142a611e04565b5b61143787828801611098565b925050606085013567ffffffffffffffff81111561145857611457611e04565b5b61146487828801611239565b91505092959194509250565b60006020828403121561148657611485611e09565b5b6000611494848285016111a0565b91505092915050565b60006114a983836114e1565b60208301905092915050565b60006114c1838361167b565b905092915050565b60006114d58383611733565b60208301905092915050565b6114ea81611bbb565b82525050565b6114f981611bbb565b82525050565b600061150a82611afd565b6115148185611b5b565b935061151f83611acd565b8060005b83811015611550578151611537888261149d565b975061154283611b34565b925050600181019050611523565b5085935050505092915050565b600061156882611b08565b6115728185611b6c565b93508360208202850161158485611add565b8060005b858110156115c057848403895281516115a185826114b5565b94506115ac83611b41565b925060208a01995050600181019050611588565b50829750879550505050505092915050565b60006115dd82611b13565b6115e78185611b7d565b93506115f283611aed565b8060005b8381101561162357815161160a88826114c9565b975061161583611b4e565b9250506001810190506115f6565b5085935050505092915050565b61163981611bcd565b82525050565b61165061164b82611bd7565b611d1b565b82525050565b60006116628385611b9f565b935061166f838584611c2d565b82840190509392505050565b600061168682611b1e565b6116908185611b8e565b93506116a0818560208601611c3c565b6116a981611e0e565b840191505092915050565b60006116bf82611b29565b6116c98185611baa565b93506116d9818560208601611c3c565b6116e281611e0e565b840191505092915050565b60006116fa601a83611baa565b915061170582611e1f565b602082019050919050565b600061171d601a83611baa565b915061172882611e48565b602082019050919050565b61173c81611c23565b82525050565b600061174e828661163f565b60048201915061175f828486611656565b9150819050949350505050565b6000611779828486611656565b91508190509392505050565b6000606082019050818103600083015261179f81866114ff565b905081810360208301526117b3818561155d565b905081810360408301526117c781846115d2565b9050949350505050565b600060a08201905081810360008301526117eb81886114ff565b905081810360208301526117ff818761155d565b9050818103604083015261181381866115d2565b9050818103606083015261182781856116b4565b905061183660808301846114f0565b9695505050505050565b6000608082019050818103600083015261185a81876114ff565b9050818103602083015261186e81866115d2565b90508181036040830152611882818561155d565b9050818103606083015261189681846116b4565b905095945050505050565b60006020820190506118b66000830184611630565b92915050565b600060208201905081810360008301526118d5816116ed565b9050919050565b600060208201905081810360008301526118f581611710565b9050919050565b6000808335600160200384360303811261191957611918611df0565b5b80840192508235915067ffffffffffffffff82111561193b5761193a611deb565b5b60208301925060018202360383131561195757611956611dfa565b5b509250929050565b6000808335600160200384360303811261197c5761197b611df0565b5b80840192508235915067ffffffffffffffff82111561199e5761199d611deb565b5b6020830192506001820236038313156119ba576119b9611dfa565b5b509250929050565b60006119cc6119dd565b90506119d88282611ca1565b919050565b6000604051905090565b600067ffffffffffffffff821115611a0257611a01611db2565b5b602082029050602081019050919050565b600067ffffffffffffffff821115611a2e57611a2d611db2565b5b602082029050602081019050919050565b600067ffffffffffffffff821115611a5a57611a59611db2565b5b602082029050602081019050919050565b600067ffffffffffffffff821115611a8657611a85611db2565b5b611a8f82611e0e565b9050602081019050919050565b600067ffffffffffffffff821115611ab757611ab6611db2565b5b611ac082611e0e565b9050602081019050919050565b6000819050602082019050919050565b6000819050602082019050919050565b6000819050602082019050919050565b600081519050919050565b600081519050919050565b600081519050919050565b600081519050919050565b600081519050919050565b6000602082019050919050565b6000602082019050919050565b6000602082019050919050565b600082825260208201905092915050565b600082825260208201905092915050565b600082825260208201905092915050565b600082825260208201905092915050565b600081905092915050565b600082825260208201905092915050565b6000611bc682611c03565b9050919050565b6000819050919050565b60007fffffffff0000000000000000000000000000000000000000000000000000000082169050919050565b600073ffffffffffffffffffffffffffffffffffffffff82169050919050565b6000819050919050565b82818337600083830152505050565b60005b83811015611c5a578082015181840152602081019050611c3f565b83811115611c69576000848401525b50505050565b60006002820490506001821680611c8757607f821691505b60208210811415611c9b57611c9a611d54565b5b50919050565b611caa82611e0e565b810181811067ffffffffffffffff82111715611cc957611cc8611db2565b5b80604052505050565b6000611cdd82611c23565b91507fffffffffffffffffffffffffffffffffffffffffffffffffffffffffffffffff821415611d1057611d0f611d25565b5b600182019050919050565b6000819050919050565b7f4e487b7100000000000000000000000000000000000000000000000000000000600052601160045260246000fd5b7f4e487b7100000000000000000000000000000000000000000000000000000000600052602260045260246000fd5b7f4e487b7100000000000000000000000000000000000000000000000000000000600052603260045260246000fd5b7f4e487b7100000000000000000000000000000000000000000000000000000000600052604160045260246000fd5b600080fd5b600080fd5b600080fd5b600080fd5b600080fd5b600080fd5b600080fd5b600080fd5b600080fd5b6000601f19601f8301169050919050565b7f4578653a204172726179206c656e677468206d69736d61746368000000000000600082015250565b7f4578653a2045786520494420616c726561647920696e20757365000000000000600082015250565b611e7a81611bbb565b8114611e8557600080fd5b50565b611e9181611bcd565b8114611e9c57600080fd5b50565b611ea881611c23565b8114611eb357600080fd5b5056fea2646970667358221220d7a2a520778dae6429f07835abd776ff0870ca16ff1987a5b0595cac47b2f83064736f6c63430008070033",
          "opcodes": "PUSH1 0x80 PUSH1 0x40 MSTORE CALLVALUE DUP1 ISZERO PUSH2 0x10 JUMPI PUSH1 0x0 DUP1 REVERT JUMPDEST POP PUSH2 0x1EEC DUP1 PUSH2 0x20 PUSH1 0x0 CODECOPY PUSH1 0x0 RETURN INVALID PUSH1 0x80 PUSH1 0x40 MSTORE CALLVALUE DUP1 ISZERO PUSH2 0x10 JUMPI PUSH1 0x0 DUP1 REVERT JUMPDEST POP PUSH1 0x4 CALLDATASIZE LT PUSH2 0x4C JUMPI PUSH1 0x0 CALLDATALOAD PUSH1 0xE0 SHR DUP1 PUSH4 0xEE476BC EQ PUSH2 0x51 JUMPI DUP1 PUSH4 0x184B9CE5 EQ PUSH2 0x81 JUMPI DUP1 PUSH4 0x971AA75E EQ PUSH2 0xB1 JUMPI DUP1 PUSH4 0xE0751326 EQ PUSH2 0xE3 JUMPI JUMPDEST PUSH1 0x0 DUP1 REVERT JUMPDEST PUSH2 0x6B PUSH1 0x4 DUP1 CALLDATASIZE SUB DUP2 ADD SWAP1 PUSH2 0x66 SWAP2 SWAP1 PUSH2 0x1399 JUMP JUMPDEST PUSH2 0x117 JUMP JUMPDEST PUSH1 0x40 MLOAD PUSH2 0x78 SWAP2 SWAP1 PUSH2 0x18A1 JUMP JUMPDEST PUSH1 0x40 MLOAD DUP1 SWAP2 SUB SWAP1 RETURN JUMPDEST PUSH2 0x9B PUSH1 0x4 DUP1 CALLDATASIZE SUB DUP2 ADD SWAP1 PUSH2 0x96 SWAP2 SWAP1 PUSH2 0x127C JUMP JUMPDEST PUSH2 0x150 JUMP JUMPDEST PUSH1 0x40 MLOAD PUSH2 0xA8 SWAP2 SWAP1 PUSH2 0x18A1 JUMP JUMPDEST PUSH1 0x40 MLOAD DUP1 SWAP2 SUB SWAP1 RETURN JUMPDEST PUSH2 0xCB PUSH1 0x4 DUP1 CALLDATASIZE SUB DUP2 ADD SWAP1 PUSH2 0xC6 SWAP2 SWAP1 PUSH2 0x1470 JUMP JUMPDEST PUSH2 0x62C JUMP JUMPDEST PUSH1 0x40 MLOAD PUSH2 0xDA SWAP4 SWAP3 SWAP2 SWAP1 PUSH2 0x1785 JUMP JUMPDEST PUSH1 0x40 MLOAD DUP1 SWAP2 SUB SWAP1 RETURN JUMPDEST PUSH2 0xFD PUSH1 0x4 DUP1 CALLDATASIZE SUB DUP2 ADD SWAP1 PUSH2 0xF8 SWAP2 SWAP1 PUSH2 0x1470 JUMP JUMPDEST PUSH2 0x821 JUMP JUMPDEST PUSH1 0x40 MLOAD PUSH2 0x10E SWAP6 SWAP5 SWAP4 SWAP3 SWAP2 SWAP1 PUSH2 0x17D1 JUMP JUMPDEST PUSH1 0x40 MLOAD DUP1 SWAP2 SUB SWAP1 RETURN JUMPDEST PUSH1 0x0 DUP5 DUP5 DUP5 DUP5 PUSH1 0x40 MLOAD PUSH1 0x20 ADD PUSH2 0x130 SWAP5 SWAP4 SWAP3 SWAP2 SWAP1 PUSH2 0x1840 JUMP JUMPDEST PUSH1 0x40 MLOAD PUSH1 0x20 DUP2 DUP4 SUB SUB DUP2 MSTORE SWAP1 PUSH1 0x40 MSTORE DUP1 MLOAD SWAP1 PUSH1 0x20 ADD KECCAK256 SWAP1 POP SWAP5 SWAP4 POP POP POP POP JUMP JUMPDEST PUSH1 0x0 DUP9 DUP9 SWAP1 POP DUP12 DUP12 SWAP1 POP EQ DUP1 ISZERO PUSH2 0x16C JUMPI POP DUP7 DUP7 SWAP1 POP DUP12 DUP12 SWAP1 POP EQ JUMPDEST DUP1 ISZERO PUSH2 0x17D JUMPI POP DUP5 DUP5 SWAP1 POP DUP12 DUP12 SWAP1 POP EQ JUMPDEST PUSH2 0x1BC JUMPI PUSH1 0x40 MLOAD PUSH32 0x8C379A000000000000000000000000000000000000000000000000000000000 DUP2 MSTORE PUSH1 0x4 ADD PUSH2 0x1B3 SWAP1 PUSH2 0x18BC JUMP JUMPDEST PUSH1 0x40 MLOAD DUP1 SWAP2 SUB SWAP1 REVERT JUMPDEST PUSH1 0x0 DUP12 DUP12 SWAP1 POP PUSH8 0xFFFFFFFFFFFFFFFF DUP2 GT ISZERO PUSH2 0x1DB JUMPI PUSH2 0x1DA PUSH2 0x1DB2 JUMP JUMPDEST JUMPDEST PUSH1 0x40 MLOAD SWAP1 DUP1 DUP3 MSTORE DUP1 PUSH1 0x20 MUL PUSH1 0x20 ADD DUP3 ADD PUSH1 0x40 MSTORE DUP1 ISZERO PUSH2 0x20E JUMPI DUP2 PUSH1 0x20 ADD JUMPDEST PUSH1 0x60 DUP2 MSTORE PUSH1 0x20 ADD SWAP1 PUSH1 0x1 SWAP1 SUB SWAP1 DUP2 PUSH2 0x1F9 JUMPI SWAP1 POP JUMPDEST POP SWAP1 POP PUSH1 0x0 JUMPDEST DUP13 DUP13 SWAP1 POP DUP2 LT ISZERO PUSH2 0x2D1 JUMPI DUP11 DUP11 DUP3 DUP2 DUP2 LT PUSH2 0x232 JUMPI PUSH2 0x231 PUSH2 0x1D83 JUMP JUMPDEST JUMPDEST SWAP1 POP PUSH1 0x20 MUL DUP2 ADD SWAP1 PUSH2 0x244 SWAP2 SWAP1 PUSH2 0x195F JUMP JUMPDEST PUSH1 0x40 MLOAD PUSH2 0x252 SWAP3 SWAP2 SWAP1 PUSH2 0x176C JUMP JUMPDEST PUSH1 0x40 MLOAD DUP1 SWAP2 SUB SWAP1 KECCAK256 DUP10 DUP10 DUP4 DUP2 DUP2 LT PUSH2 0x26D JUMPI PUSH2 0x26C PUSH2 0x1D83 JUMP JUMPDEST JUMPDEST SWAP1 POP PUSH1 0x20 MUL DUP2 ADD SWAP1 PUSH2 0x27F SWAP2 SWAP1 PUSH2 0x18FC JUMP JUMPDEST PUSH1 0x40 MLOAD PUSH1 0x20 ADD PUSH2 0x291 SWAP4 SWAP3 SWAP2 SWAP1 PUSH2 0x1742 JUMP JUMPDEST PUSH1 0x40 MLOAD PUSH1 0x20 DUP2 DUP4 SUB SUB DUP2 MSTORE SWAP1 PUSH1 0x40 MSTORE DUP3 DUP3 DUP2 MLOAD DUP2 LT PUSH2 0x2B3 JUMPI PUSH2 0x2B2 PUSH2 0x1D83 JUMP JUMPDEST JUMPDEST PUSH1 0x20 MUL PUSH1 0x20 ADD ADD DUP2 SWAP1 MSTORE POP DUP1 DUP1 PUSH2 0x2C9 SWAP1 PUSH2 0x1CD2 JUMP JUMPDEST SWAP2 POP POP PUSH2 0x214 JUMP JUMPDEST POP PUSH2 0x3A4 DUP13 DUP13 DUP1 DUP1 PUSH1 0x20 MUL PUSH1 0x20 ADD PUSH1 0x40 MLOAD SWAP1 DUP2 ADD PUSH1 0x40 MSTORE DUP1 SWAP4 SWAP3 SWAP2 SWAP1 DUP2 DUP2 MSTORE PUSH1 0x20 ADD DUP4 DUP4 PUSH1 0x20 MUL DUP1 DUP3 DUP5 CALLDATACOPY PUSH1 0x0 DUP2 DUP5 ADD MSTORE PUSH1 0x1F NOT PUSH1 0x1F DUP3 ADD AND SWAP1 POP DUP1 DUP4 ADD SWAP3 POP POP POP POP POP POP POP DUP8 DUP8 DUP1 DUP1 PUSH1 0x20 MUL PUSH1 0x20 ADD PUSH1 0x40 MLOAD SWAP1 DUP2 ADD PUSH1 0x40 MSTORE DUP1 SWAP4 SWAP3 SWAP2 SWAP1 DUP2 DUP2 MSTORE PUSH1 0x20 ADD DUP4 DUP4 PUSH1 0x20 MUL DUP1 DUP3 DUP5 CALLDATACOPY PUSH1 0x0 DUP2 DUP5 ADD MSTORE PUSH1 0x1F NOT PUSH1 0x1F DUP3 ADD AND SWAP1 POP DUP1 DUP4 ADD SWAP3 POP POP POP POP POP POP POP DUP4 DUP8 DUP8 DUP1 DUP1 PUSH1 0x1F ADD PUSH1 0x20 DUP1 SWAP2 DIV MUL PUSH1 0x20 ADD PUSH1 0x40 MLOAD SWAP1 DUP2 ADD PUSH1 0x40 MSTORE DUP1 SWAP4 SWAP3 SWAP2 SWAP1 DUP2 DUP2 MSTORE PUSH1 0x20 ADD DUP4 DUP4 DUP1 DUP3 DUP5 CALLDATACOPY PUSH1 0x0 DUP2 DUP5 ADD MSTORE PUSH1 0x1F NOT PUSH1 0x1F DUP3 ADD AND SWAP1 POP DUP1 DUP4 ADD SWAP3 POP POP POP POP POP POP POP PUSH2 0x117 JUMP JUMPDEST SWAP2 POP PUSH1 0x0 PUSH20 0xFFFFFFFFFFFFFFFFFFFFFFFFFFFFFFFFFFFFFFFF AND PUSH1 0x0 DUP1 DUP5 DUP2 MSTORE PUSH1 0x20 ADD SWAP1 DUP2 MSTORE PUSH1 0x20 ADD PUSH1 0x0 KECCAK256 PUSH1 0x4 ADD PUSH1 0x0 SWAP1 SLOAD SWAP1 PUSH2 0x100 EXP SWAP1 DIV PUSH20 0xFFFFFFFFFFFFFFFFFFFFFFFFFFFFFFFFFFFFFFFF AND PUSH20 0xFFFFFFFFFFFFFFFFFFFFFFFFFFFFFFFFFFFFFFFF AND EQ PUSH2 0x44A JUMPI PUSH1 0x40 MLOAD PUSH32 0x8C379A000000000000000000000000000000000000000000000000000000000 DUP2 MSTORE PUSH1 0x4 ADD PUSH2 0x441 SWAP1 PUSH2 0x18DC JUMP JUMPDEST PUSH1 0x40 MLOAD DUP1 SWAP2 SUB SWAP1 REVERT JUMPDEST PUSH1 0x40 MLOAD DUP1 PUSH1 0xA0 ADD PUSH1 0x40 MSTORE DUP1 DUP14 DUP14 DUP1 DUP1 PUSH1 0x20 MUL PUSH1 0x20 ADD PUSH1 0x40 MLOAD SWAP1 DUP2 ADD PUSH1 0x40 MSTORE DUP1 SWAP4 SWAP3 SWAP2 SWAP1 DUP2 DUP2 MSTORE PUSH1 0x20 ADD DUP4 DUP4 PUSH1 0x20 MUL DUP1 DUP3 DUP5 CALLDATACOPY PUSH1 0x0 DUP2 DUP5 ADD MSTORE PUSH1 0x1F NOT PUSH1 0x1F DUP3 ADD AND SWAP1 POP DUP1 DUP4 ADD SWAP3 POP POP POP POP POP POP POP DUP2 MSTORE PUSH1 0x20 ADD DUP8 DUP8 DUP1 DUP1 PUSH1 0x20 MUL PUSH1 0x20 ADD PUSH1 0x40 MLOAD SWAP1 DUP2 ADD PUSH1 0x40 MSTORE DUP1 SWAP4 SWAP3 SWAP2 SWAP1 DUP2 DUP2 MSTORE PUSH1 0x20 ADD DUP4 DUP4 PUSH1 0x20 MUL DUP1 DUP3 DUP5 CALLDATACOPY PUSH1 0x0 DUP2 DUP5 ADD MSTORE PUSH1 0x1F NOT PUSH1 0x1F DUP3 ADD AND SWAP1 POP DUP1 DUP4 ADD SWAP3 POP POP POP POP POP POP POP DUP2 MSTORE PUSH1 0x20 ADD DUP3 DUP2 MSTORE PUSH1 0x20 ADD DUP6 DUP6 DUP1 DUP1 PUSH1 0x1F ADD PUSH1 0x20 DUP1 SWAP2 DIV MUL PUSH1 0x20 ADD PUSH1 0x40 MLOAD SWAP1 DUP2 ADD PUSH1 0x40 MSTORE DUP1 SWAP4 SWAP3 SWAP2 SWAP1 DUP2 DUP2 MSTORE PUSH1 0x20 ADD DUP4 DUP4 DUP1 DUP3 DUP5 CALLDATACOPY PUSH1 0x0 DUP2 DUP5 ADD MSTORE PUSH1 0x1F NOT PUSH1 0x1F DUP3 ADD AND SWAP1 POP DUP1 DUP4 ADD SWAP3 POP POP POP POP POP POP POP DUP2 MSTORE PUSH1 0x20 ADD CALLER PUSH20 0xFFFFFFFFFFFFFFFFFFFFFFFFFFFFFFFFFFFFFFFF AND DUP2 MSTORE POP PUSH1 0x0 DUP1 DUP5 DUP2 MSTORE PUSH1 0x20 ADD SWAP1 DUP2 MSTORE PUSH1 0x20 ADD PUSH1 0x0 KECCAK256 PUSH1 0x0 DUP3 ADD MLOAD DUP2 PUSH1 0x0 ADD SWAP1 DUP1 MLOAD SWAP1 PUSH1 0x20 ADD SWAP1 PUSH2 0x57B SWAP3 SWAP2 SWAP1 PUSH2 0xAF3 JUMP JUMPDEST POP PUSH1 0x20 DUP3 ADD MLOAD DUP2 PUSH1 0x1 ADD SWAP1 DUP1 MLOAD SWAP1 PUSH1 0x20 ADD SWAP1 PUSH2 0x598 SWAP3 SWAP2 SWAP1 PUSH2 0xB7D JUMP JUMPDEST POP PUSH1 0x40 DUP3 ADD MLOAD DUP2 PUSH1 0x2 ADD SWAP1 DUP1 MLOAD SWAP1 PUSH1 0x20 ADD SWAP1 PUSH2 0x5B5 SWAP3 SWAP2 SWAP1 PUSH2 0xBCA JUMP JUMPDEST POP PUSH1 0x60 DUP3 ADD MLOAD DUP2 PUSH1 0x3 ADD SWAP1 DUP1 MLOAD SWAP1 PUSH1 0x20 ADD SWAP1 PUSH2 0x5D2 SWAP3 SWAP2 SWAP1 PUSH2 0xC2A JUMP JUMPDEST POP PUSH1 0x80 DUP3 ADD MLOAD DUP2 PUSH1 0x4 ADD PUSH1 0x0 PUSH2 0x100 EXP DUP2 SLOAD DUP2 PUSH20 0xFFFFFFFFFFFFFFFFFFFFFFFFFFFFFFFFFFFFFFFF MUL NOT AND SWAP1 DUP4 PUSH20 0xFFFFFFFFFFFFFFFFFFFFFFFFFFFFFFFFFFFFFFFF AND MUL OR SWAP1 SSTORE POP SWAP1 POP POP POP SWAP11 SWAP10 POP POP POP POP POP POP POP POP POP POP JUMP JUMPDEST PUSH1 0x60 DUP1 PUSH1 0x60 PUSH1 0x0 DUP1 DUP6 DUP2 MSTORE PUSH1 0x20 ADD SWAP1 DUP2 MSTORE PUSH1 0x20 ADD PUSH1 0x0 KECCAK256 PUSH1 0x0 ADD DUP1 SLOAD DUP1 PUSH1 0x20 MUL PUSH1 0x20 ADD PUSH1 0x40 MLOAD SWAP1 DUP2 ADD PUSH1 0x40 MSTORE DUP1 SWAP3 SWAP2 SWAP1 DUP2 DUP2 MSTORE PUSH1 0x20 ADD DUP3 DUP1 SLOAD DUP1 ISZERO PUSH2 0x6C6 JUMPI PUSH1 0x20 MUL DUP3 ADD SWAP2 SWAP1 PUSH1 0x0 MSTORE PUSH1 0x20 PUSH1 0x0 KECCAK256 SWAP1 JUMPDEST DUP2 PUSH1 0x0 SWAP1 SLOAD SWAP1 PUSH2 0x100 EXP SWAP1 DIV PUSH20 0xFFFFFFFFFFFFFFFFFFFFFFFFFFFFFFFFFFFFFFFF AND PUSH20 0xFFFFFFFFFFFFFFFFFFFFFFFFFFFFFFFFFFFFFFFF AND DUP2 MSTORE PUSH1 0x20 ADD SWAP1 PUSH1 0x1 ADD SWAP1 DUP1 DUP4 GT PUSH2 0x67C JUMPI JUMPDEST POP POP POP POP POP SWAP3 POP PUSH1 0x0 DUP1 DUP6 DUP2 MSTORE PUSH1 0x20 ADD SWAP1 DUP2 MSTORE PUSH1 0x20 ADD PUSH1 0x0 KECCAK256 PUSH1 0x2 ADD DUP1 SLOAD DUP1 PUSH1 0x20 MUL PUSH1 0x20 ADD PUSH1 0x40 MLOAD SWAP1 DUP2 ADD PUSH1 0x40 MSTORE DUP1 SWAP3 SWAP2 SWAP1 DUP2 DUP2 MSTORE PUSH1 0x20 ADD PUSH1 0x0 SWAP1 JUMPDEST DUP3 DUP3 LT ISZERO PUSH2 0x7AE JUMPI DUP4 DUP3 SWAP1 PUSH1 0x0 MSTORE PUSH1 0x20 PUSH1 0x0 KECCAK256 ADD DUP1 SLOAD PUSH2 0x721 SWAP1 PUSH2 0x1C6F JUMP JUMPDEST DUP1 PUSH1 0x1F ADD PUSH1 0x20 DUP1 SWAP2 DIV MUL PUSH1 0x20 ADD PUSH1 0x40 MLOAD SWAP1 DUP2 ADD PUSH1 0x40 MSTORE DUP1 SWAP3 SWAP2 SWAP1 DUP2 DUP2 MSTORE PUSH1 0x20 ADD DUP3 DUP1 SLOAD PUSH2 0x74D SWAP1 PUSH2 0x1C6F JUMP JUMPDEST DUP1 ISZERO PUSH2 0x79A JUMPI DUP1 PUSH1 0x1F LT PUSH2 0x76F JUMPI PUSH2 0x100 DUP1 DUP4 SLOAD DIV MUL DUP4 MSTORE SWAP2 PUSH1 0x20 ADD SWAP2 PUSH2 0x79A JUMP JUMPDEST DUP3 ADD SWAP2 SWAP1 PUSH1 0x0 MSTORE PUSH1 0x20 PUSH1 0x0 KECCAK256 SWAP1 JUMPDEST DUP2 SLOAD DUP2 MSTORE SWAP1 PUSH1 0x1 ADD SWAP1 PUSH1 0x20 ADD DUP1 DUP4 GT PUSH2 0x77D JUMPI DUP3 SWAP1 SUB PUSH1 0x1F AND DUP3 ADD SWAP2 JUMPDEST POP POP POP POP POP DUP2 MSTORE PUSH1 0x20 ADD SWAP1 PUSH1 0x1 ADD SWAP1 PUSH2 0x702 JUMP JUMPDEST POP POP POP POP SWAP2 POP PUSH1 0x0 DUP1 DUP6 DUP2 MSTORE PUSH1 0x20 ADD SWAP1 DUP2 MSTORE PUSH1 0x20 ADD PUSH1 0x0 KECCAK256 PUSH1 0x1 ADD DUP1 SLOAD DUP1 PUSH1 0x20 MUL PUSH1 0x20 ADD PUSH1 0x40 MLOAD SWAP1 DUP2 ADD PUSH1 0x40 MSTORE DUP1 SWAP3 SWAP2 SWAP1 DUP2 DUP2 MSTORE PUSH1 0x20 ADD DUP3 DUP1 SLOAD DUP1 ISZERO PUSH2 0x813 JUMPI PUSH1 0x20 MUL DUP3 ADD SWAP2 SWAP1 PUSH1 0x0 MSTORE PUSH1 0x20 PUSH1 0x0 KECCAK256 SWAP1 JUMPDEST DUP2 SLOAD DUP2 MSTORE PUSH1 0x20 ADD SWAP1 PUSH1 0x1 ADD SWAP1 DUP1 DUP4 GT PUSH2 0x7FF JUMPI JUMPDEST POP POP POP POP POP SWAP1 POP SWAP2 SWAP4 SWAP1 SWAP3 POP JUMP JUMPDEST PUSH1 0x60 DUP1 PUSH1 0x60 DUP1 PUSH1 0x0 DUP1 PUSH1 0x0 DUP8 DUP2 MSTORE PUSH1 0x20 ADD SWAP1 DUP2 MSTORE PUSH1 0x20 ADD PUSH1 0x0 KECCAK256 PUSH1 0x0 ADD DUP1 SLOAD DUP1 PUSH1 0x20 MUL PUSH1 0x20 ADD PUSH1 0x40 MLOAD SWAP1 DUP2 ADD PUSH1 0x40 MSTORE DUP1 SWAP3 SWAP2 SWAP1 DUP2 DUP2 MSTORE PUSH1 0x20 ADD DUP3 DUP1 SLOAD DUP1 ISZERO PUSH2 0x8BE JUMPI PUSH1 0x20 MUL DUP3 ADD SWAP2 SWAP1 PUSH1 0x0 MSTORE PUSH1 0x20 PUSH1 0x0 KECCAK256 SWAP1 JUMPDEST DUP2 PUSH1 0x0 SWAP1 SLOAD SWAP1 PUSH2 0x100 EXP SWAP1 DIV PUSH20 0xFFFFFFFFFFFFFFFFFFFFFFFFFFFFFFFFFFFFFFFF AND PUSH20 0xFFFFFFFFFFFFFFFFFFFFFFFFFFFFFFFFFFFFFFFF AND DUP2 MSTORE PUSH1 0x20 ADD SWAP1 PUSH1 0x1 ADD SWAP1 DUP1 DUP4 GT PUSH2 0x874 JUMPI JUMPDEST POP POP POP POP POP SWAP5 POP PUSH1 0x0 DUP1 DUP8 DUP2 MSTORE PUSH1 0x20 ADD SWAP1 DUP2 MSTORE PUSH1 0x20 ADD PUSH1 0x0 KECCAK256 PUSH1 0x2 ADD DUP1 SLOAD DUP1 PUSH1 0x20 MUL PUSH1 0x20 ADD PUSH1 0x40 MLOAD SWAP1 DUP2 ADD PUSH1 0x40 MSTORE DUP1 SWAP3 SWAP2 SWAP1 DUP2 DUP2 MSTORE PUSH1 0x20 ADD PUSH1 0x0 SWAP1 JUMPDEST DUP3 DUP3 LT ISZERO PUSH2 0x9A6 JUMPI DUP4 DUP3 SWAP1 PUSH1 0x0 MSTORE PUSH1 0x20 PUSH1 0x0 KECCAK256 ADD DUP1 SLOAD PUSH2 0x919 SWAP1 PUSH2 0x1C6F JUMP JUMPDEST DUP1 PUSH1 0x1F ADD PUSH1 0x20 DUP1 SWAP2 DIV MUL PUSH1 0x20 ADD PUSH1 0x40 MLOAD SWAP1 DUP2 ADD PUSH1 0x40 MSTORE DUP1 SWAP3 SWAP2 SWAP1 DUP2 DUP2 MSTORE PUSH1 0x20 ADD DUP3 DUP1 SLOAD PUSH2 0x945 SWAP1 PUSH2 0x1C6F JUMP JUMPDEST DUP1 ISZERO PUSH2 0x992 JUMPI DUP1 PUSH1 0x1F LT PUSH2 0x967 JUMPI PUSH2 0x100 DUP1 DUP4 SLOAD DIV MUL DUP4 MSTORE SWAP2 PUSH1 0x20 ADD SWAP2 PUSH2 0x992 JUMP JUMPDEST DUP3 ADD SWAP2 SWAP1 PUSH1 0x0 MSTORE PUSH1 0x20 PUSH1 0x0 KECCAK256 SWAP1 JUMPDEST DUP2 SLOAD DUP2 MSTORE SWAP1 PUSH1 0x1 ADD SWAP1 PUSH1 0x20 ADD DUP1 DUP4 GT PUSH2 0x975 JUMPI DUP3 SWAP1 SUB PUSH1 0x1F AND DUP3 ADD SWAP2 JUMPDEST POP POP POP POP POP DUP2 MSTORE PUSH1 0x20 ADD SWAP1 PUSH1 0x1 ADD SWAP1 PUSH2 0x8FA JUMP JUMPDEST POP POP POP POP SWAP4 POP PUSH1 0x0 DUP1 DUP8 DUP2 MSTORE PUSH1 0x20 ADD SWAP1 DUP2 MSTORE PUSH1 0x20 ADD PUSH1 0x0 KECCAK256 PUSH1 0x1 ADD DUP1 SLOAD DUP1 PUSH1 0x20 MUL PUSH1 0x20 ADD PUSH1 0x40 MLOAD SWAP1 DUP2 ADD PUSH1 0x40 MSTORE DUP1 SWAP3 SWAP2 SWAP1 DUP2 DUP2 MSTORE PUSH1 0x20 ADD DUP3 DUP1 SLOAD DUP1 ISZERO PUSH2 0xA0B JUMPI PUSH1 0x20 MUL DUP3 ADD SWAP2 SWAP1 PUSH1 0x0 MSTORE PUSH1 0x20 PUSH1 0x0 KECCAK256 SWAP1 JUMPDEST DUP2 SLOAD DUP2 MSTORE PUSH1 0x20 ADD SWAP1 PUSH1 0x1 ADD SWAP1 DUP1 DUP4 GT PUSH2 0x9F7 JUMPI JUMPDEST POP POP POP POP POP SWAP3 POP PUSH1 0x0 DUP1 DUP8 DUP2 MSTORE PUSH1 0x20 ADD SWAP1 DUP2 MSTORE PUSH1 0x20 ADD PUSH1 0x0 KECCAK256 PUSH1 0x3 ADD DUP1 SLOAD PUSH2 0xA32 SWAP1 PUSH2 0x1C6F JUMP JUMPDEST DUP1 PUSH1 0x1F ADD PUSH1 0x20 DUP1 SWAP2 DIV MUL PUSH1 0x20 ADD PUSH1 0x40 MLOAD SWAP1 DUP2 ADD PUSH1 0x40 MSTORE DUP1 SWAP3 SWAP2 SWAP1 DUP2 DUP2 MSTORE PUSH1 0x20 ADD DUP3 DUP1 SLOAD PUSH2 0xA5E SWAP1 PUSH2 0x1C6F JUMP JUMPDEST DUP1 ISZERO PUSH2 0xAAB JUMPI DUP1 PUSH1 0x1F LT PUSH2 0xA80 JUMPI PUSH2 0x100 DUP1 DUP4 SLOAD DIV MUL DUP4 MSTORE SWAP2 PUSH1 0x20 ADD SWAP2 PUSH2 0xAAB JUMP JUMPDEST DUP3 ADD SWAP2 SWAP1 PUSH1 0x0 MSTORE PUSH1 0x20 PUSH1 0x0 KECCAK256 SWAP1 JUMPDEST DUP2 SLOAD DUP2 MSTORE SWAP1 PUSH1 0x1 ADD SWAP1 PUSH1 0x20 ADD DUP1 DUP4 GT PUSH2 0xA8E JUMPI DUP3 SWAP1 SUB PUSH1 0x1F AND DUP3 ADD SWAP2 JUMPDEST POP POP POP POP POP SWAP2 POP PUSH1 0x0 DUP1 DUP8 DUP2 MSTORE PUSH1 0x20 ADD SWAP1 DUP2 MSTORE PUSH1 0x20 ADD PUSH1 0x0 KECCAK256 PUSH1 0x4 ADD PUSH1 0x0 SWAP1 SLOAD SWAP1 PUSH2 0x100 EXP SWAP1 DIV PUSH20 0xFFFFFFFFFFFFFFFFFFFFFFFFFFFFFFFFFFFFFFFF AND SWAP1 POP SWAP2 SWAP4 SWAP6 SWAP1 SWAP3 SWAP5 POP JUMP JUMPDEST DUP3 DUP1 SLOAD DUP3 DUP3 SSTORE SWAP1 PUSH1 0x0 MSTORE PUSH1 0x20 PUSH1 0x0 KECCAK256 SWAP1 DUP2 ADD SWAP3 DUP3 ISZERO PUSH2 0xB6C JUMPI SWAP2 PUSH1 0x20 MUL DUP3 ADD JUMPDEST DUP3 DUP2 GT ISZERO PUSH2 0xB6B JUMPI DUP3 MLOAD DUP3 PUSH1 0x0 PUSH2 0x100 EXP DUP2 SLOAD DUP2 PUSH20 0xFFFFFFFFFFFFFFFFFFFFFFFFFFFFFFFFFFFFFFFF MUL NOT AND SWAP1 DUP4 PUSH20 0xFFFFFFFFFFFFFFFFFFFFFFFFFFFFFFFFFFFFFFFF AND MUL OR SWAP1 SSTORE POP SWAP2 PUSH1 0x20 ADD SWAP2 SWAP1 PUSH1 0x1 ADD SWAP1 PUSH2 0xB13 JUMP JUMPDEST JUMPDEST POP SWAP1 POP PUSH2 0xB79 SWAP2 SWAP1 PUSH2 0xCB0 JUMP JUMPDEST POP SWAP1 JUMP JUMPDEST DUP3 DUP1 SLOAD DUP3 DUP3 SSTORE SWAP1 PUSH1 0x0 MSTORE PUSH1 0x20 PUSH1 0x0 KECCAK256 SWAP1 DUP2 ADD SWAP3 DUP3 ISZERO PUSH2 0xBB9 JUMPI SWAP2 PUSH1 0x20 MUL DUP3 ADD JUMPDEST DUP3 DUP2 GT ISZERO PUSH2 0xBB8 JUMPI DUP3 MLOAD DUP3 SSTORE SWAP2 PUSH1 0x20 ADD SWAP2 SWAP1 PUSH1 0x1 ADD SWAP1 PUSH2 0xB9D JUMP JUMPDEST JUMPDEST POP SWAP1 POP PUSH2 0xBC6 SWAP2 SWAP1 PUSH2 0xCB0 JUMP JUMPDEST POP SWAP1 JUMP JUMPDEST DUP3 DUP1 SLOAD DUP3 DUP3 SSTORE SWAP1 PUSH1 0x0 MSTORE PUSH1 0x20 PUSH1 0x0 KECCAK256 SWAP1 DUP2 ADD SWAP3 DUP3 ISZERO PUSH2 0xC19 JUMPI SWAP2 PUSH1 0x20 MUL DUP3 ADD JUMPDEST DUP3 DUP2 GT ISZERO PUSH2 0xC18 JUMPI DUP3 MLOAD DUP3 SWAP1 DUP1 MLOAD SWAP1 PUSH1 0x20 ADD SWAP1 PUSH2 0xC08 SWAP3 SWAP2 SWAP1 PUSH2 0xCCD JUMP JUMPDEST POP SWAP2 PUSH1 0x20 ADD SWAP2 SWAP1 PUSH1 0x1 ADD SWAP1 PUSH2 0xBEA JUMP JUMPDEST JUMPDEST POP SWAP1 POP PUSH2 0xC26 SWAP2 SWAP1 PUSH2 0xD53 JUMP JUMPDEST POP SWAP1 JUMP JUMPDEST DUP3 DUP1 SLOAD PUSH2 0xC36 SWAP1 PUSH2 0x1C6F JUMP JUMPDEST SWAP1 PUSH1 0x0 MSTORE PUSH1 0x20 PUSH1 0x0 KECCAK256 SWAP1 PUSH1 0x1F ADD PUSH1 0x20 SWAP1 DIV DUP2 ADD SWAP3 DUP3 PUSH2 0xC58 JUMPI PUSH1 0x0 DUP6 SSTORE PUSH2 0xC9F JUMP JUMPDEST DUP3 PUSH1 0x1F LT PUSH2 0xC71 JUMPI DUP1 MLOAD PUSH1 0xFF NOT AND DUP4 DUP1 ADD OR DUP6 SSTORE PUSH2 0xC9F JUMP JUMPDEST DUP3 DUP1 ADD PUSH1 0x1 ADD DUP6 SSTORE DUP3 ISZERO PUSH2 0xC9F JUMPI SWAP2 DUP3 ADD JUMPDEST DUP3 DUP2 GT ISZERO PUSH2 0xC9E JUMPI DUP3 MLOAD DUP3 SSTORE SWAP2 PUSH1 0x20 ADD SWAP2 SWAP1 PUSH1 0x1 ADD SWAP1 PUSH2 0xC83 JUMP JUMPDEST JUMPDEST POP SWAP1 POP PUSH2 0xCAC SWAP2 SWAP1 PUSH2 0xCB0 JUMP JUMPDEST POP SWAP1 JUMP JUMPDEST JUMPDEST DUP1 DUP3 GT ISZERO PUSH2 0xCC9 JUMPI PUSH1 0x0 DUP2 PUSH1 0x0 SWAP1 SSTORE POP PUSH1 0x1 ADD PUSH2 0xCB1 JUMP JUMPDEST POP SWAP1 JUMP JUMPDEST DUP3 DUP1 SLOAD PUSH2 0xCD9 SWAP1 PUSH2 0x1C6F JUMP JUMPDEST SWAP1 PUSH1 0x0 MSTORE PUSH1 0x20 PUSH1 0x0 KECCAK256 SWAP1 PUSH1 0x1F ADD PUSH1 0x20 SWAP1 DIV DUP2 ADD SWAP3 DUP3 PUSH2 0xCFB JUMPI PUSH1 0x0 DUP6 SSTORE PUSH2 0xD42 JUMP JUMPDEST DUP3 PUSH1 0x1F LT PUSH2 0xD14 JUMPI DUP1 MLOAD PUSH1 0xFF NOT AND DUP4 DUP1 ADD OR DUP6 SSTORE PUSH2 0xD42 JUMP JUMPDEST DUP3 DUP1 ADD PUSH1 0x1 ADD DUP6 SSTORE DUP3 ISZERO PUSH2 0xD42 JUMPI SWAP2 DUP3 ADD JUMPDEST DUP3 DUP2 GT ISZERO PUSH2 0xD41 JUMPI DUP3 MLOAD DUP3 SSTORE SWAP2 PUSH1 0x20 ADD SWAP2 SWAP1 PUSH1 0x1 ADD SWAP1 PUSH2 0xD26 JUMP JUMPDEST JUMPDEST POP SWAP1 POP PUSH2 0xD4F SWAP2 SWAP1 PUSH2 0xCB0 JUMP JUMPDEST POP SWAP1 JUMP JUMPDEST JUMPDEST DUP1 DUP3 GT ISZERO PUSH2 0xD73 JUMPI PUSH1 0x0 DUP2 DUP2 PUSH2 0xD6A SWAP2 SWAP1 PUSH2 0xD77 JUMP JUMPDEST POP PUSH1 0x1 ADD PUSH2 0xD54 JUMP JUMPDEST POP SWAP1 JUMP JUMPDEST POP DUP1 SLOAD PUSH2 0xD83 SWAP1 PUSH2 0x1C6F JUMP JUMPDEST PUSH1 0x0 DUP3 SSTORE DUP1 PUSH1 0x1F LT PUSH2 0xD95 JUMPI POP PUSH2 0xDB4 JUMP JUMPDEST PUSH1 0x1F ADD PUSH1 0x20 SWAP1 DIV SWAP1 PUSH1 0x0 MSTORE PUSH1 0x20 PUSH1 0x0 KECCAK256 SWAP1 DUP2 ADD SWAP1 PUSH2 0xDB3 SWAP2 SWAP1 PUSH2 0xCB0 JUMP JUMPDEST JUMPDEST POP JUMP JUMPDEST PUSH1 0x0 PUSH2 0xDCA PUSH2 0xDC5 DUP5 PUSH2 0x19E7 JUMP JUMPDEST PUSH2 0x19C2 JUMP JUMPDEST SWAP1 POP DUP1 DUP4 DUP3 MSTORE PUSH1 0x20 DUP3 ADD SWAP1 POP DUP3 DUP6 PUSH1 0x20 DUP7 MUL DUP3 ADD GT ISZERO PUSH2 0xDED JUMPI PUSH2 0xDEC PUSH2 0x1DF5 JUMP JUMPDEST JUMPDEST PUSH1 0x0 JUMPDEST DUP6 DUP2 LT ISZERO PUSH2 0xE1D JUMPI DUP2 PUSH2 0xE03 DUP9 DUP3 PUSH2 0xFA9 JUMP JUMPDEST DUP5 MSTORE PUSH1 0x20 DUP5 ADD SWAP4 POP PUSH1 0x20 DUP4 ADD SWAP3 POP POP PUSH1 0x1 DUP2 ADD SWAP1 POP PUSH2 0xDF0 JUMP JUMPDEST POP POP POP SWAP4 SWAP3 POP POP POP JUMP JUMPDEST PUSH1 0x0 PUSH2 0xE3A PUSH2 0xE35 DUP5 PUSH2 0x1A13 JUMP JUMPDEST PUSH2 0x19C2 JUMP JUMPDEST SWAP1 POP DUP1 DUP4 DUP3 MSTORE PUSH1 0x20 DUP3 ADD SWAP1 POP DUP3 DUP6 PUSH1 0x20 DUP7 MUL DUP3 ADD GT ISZERO PUSH2 0xE5D JUMPI PUSH2 0xE5C PUSH2 0x1DF5 JUMP JUMPDEST JUMPDEST PUSH1 0x0 JUMPDEST DUP6 DUP2 LT ISZERO PUSH2 0xEAB JUMPI DUP2 CALLDATALOAD PUSH8 0xFFFFFFFFFFFFFFFF DUP2 GT ISZERO PUSH2 0xE83 JUMPI PUSH2 0xE82 PUSH2 0x1DE6 JUMP JUMPDEST JUMPDEST DUP1 DUP7 ADD PUSH2 0xE90 DUP10 DUP3 PUSH2 0x11B5 JUMP JUMPDEST DUP6 MSTORE PUSH1 0x20 DUP6 ADD SWAP5 POP PUSH1 0x20 DUP5 ADD SWAP4 POP POP POP PUSH1 0x1 DUP2 ADD SWAP1 POP PUSH2 0xE60 JUMP JUMPDEST POP POP POP SWAP4 SWAP3 POP POP POP JUMP JUMPDEST PUSH1 0x0 PUSH2 0xEC8 PUSH2 0xEC3 DUP5 PUSH2 0x1A3F JUMP JUMPDEST PUSH2 0x19C2 JUMP JUMPDEST SWAP1 POP DUP1 DUP4 DUP3 MSTORE PUSH1 0x20 DUP3 ADD SWAP1 POP DUP3 DUP6 PUSH1 0x20 DUP7 MUL DUP3 ADD GT ISZERO PUSH2 0xEEB JUMPI PUSH2 0xEEA PUSH2 0x1DF5 JUMP JUMPDEST JUMPDEST PUSH1 0x0 JUMPDEST DUP6 DUP2 LT ISZERO PUSH2 0xF1B JUMPI DUP2 PUSH2 0xF01 DUP9 DUP3 PUSH2 0x1267 JUMP JUMPDEST DUP5 MSTORE PUSH1 0x20 DUP5 ADD SWAP4 POP PUSH1 0x20 DUP4 ADD SWAP3 POP POP PUSH1 0x1 DUP2 ADD SWAP1 POP PUSH2 0xEEE JUMP JUMPDEST POP POP POP SWAP4 SWAP3 POP POP POP JUMP JUMPDEST PUSH1 0x0 PUSH2 0xF38 PUSH2 0xF33 DUP5 PUSH2 0x1A6B JUMP JUMPDEST PUSH2 0x19C2 JUMP JUMPDEST SWAP1 POP DUP3 DUP2 MSTORE PUSH1 0x20 DUP2 ADD DUP5 DUP5 DUP5 ADD GT ISZERO PUSH2 0xF54 JUMPI PUSH2 0xF53 PUSH2 0x1DFF JUMP JUMPDEST JUMPDEST PUSH2 0xF5F DUP5 DUP3 DUP6 PUSH2 0x1C2D JUMP JUMPDEST POP SWAP4 SWAP3 POP POP POP JUMP JUMPDEST PUSH1 0x0 PUSH2 0xF7A PUSH2 0xF75 DUP5 PUSH2 0x1A9C JUMP JUMPDEST PUSH2 0x19C2 JUMP JUMPDEST SWAP1 POP DUP3 DUP2 MSTORE PUSH1 0x20 DUP2 ADD DUP5 DUP5 DUP5 ADD GT ISZERO PUSH2 0xF96 JUMPI PUSH2 0xF95 PUSH2 0x1DFF JUMP JUMPDEST JUMPDEST PUSH2 0xFA1 DUP5 DUP3 DUP6 PUSH2 0x1C2D JUMP JUMPDEST POP SWAP4 SWAP3 POP POP POP JUMP JUMPDEST PUSH1 0x0 DUP2 CALLDATALOAD SWAP1 POP PUSH2 0xFB8 DUP2 PUSH2 0x1E71 JUMP JUMPDEST SWAP3 SWAP2 POP POP JUMP JUMPDEST PUSH1 0x0 DUP1 DUP4 PUSH1 0x1F DUP5 ADD SLT PUSH2 0xFD4 JUMPI PUSH2 0xFD3 PUSH2 0x1DE6 JUMP JUMPDEST JUMPDEST DUP3 CALLDATALOAD SWAP1 POP PUSH8 0xFFFFFFFFFFFFFFFF DUP2 GT ISZERO PUSH2 0xFF1 JUMPI PUSH2 0xFF0 PUSH2 0x1DE1 JUMP JUMPDEST JUMPDEST PUSH1 0x20 DUP4 ADD SWAP2 POP DUP4 PUSH1 0x20 DUP3 MUL DUP4 ADD GT ISZERO PUSH2 0x100D JUMPI PUSH2 0x100C PUSH2 0x1DF5 JUMP JUMPDEST JUMPDEST SWAP3 POP SWAP3 SWAP1 POP JUMP JUMPDEST PUSH1 0x0 DUP3 PUSH1 0x1F DUP4 ADD SLT PUSH2 0x1029 JUMPI PUSH2 0x1028 PUSH2 0x1DE6 JUMP JUMPDEST JUMPDEST DUP2 CALLDATALOAD PUSH2 0x1039 DUP5 DUP3 PUSH1 0x20 DUP7 ADD PUSH2 0xDB7 JUMP JUMPDEST SWAP2 POP POP SWAP3 SWAP2 POP POP JUMP JUMPDEST PUSH1 0x0 DUP1 DUP4 PUSH1 0x1F DUP5 ADD SLT PUSH2 0x1058 JUMPI PUSH2 0x1057 PUSH2 0x1DE6 JUMP JUMPDEST JUMPDEST DUP3 CALLDATALOAD SWAP1 POP PUSH8 0xFFFFFFFFFFFFFFFF DUP2 GT ISZERO PUSH2 0x1075 JUMPI PUSH2 0x1074 PUSH2 0x1DE1 JUMP JUMPDEST JUMPDEST PUSH1 0x20 DUP4 ADD SWAP2 POP DUP4 PUSH1 0x20 DUP3 MUL DUP4 ADD GT ISZERO PUSH2 0x1091 JUMPI PUSH2 0x1090 PUSH2 0x1DF5 JUMP JUMPDEST JUMPDEST SWAP3 POP SWAP3 SWAP1 POP JUMP JUMPDEST PUSH1 0x0 DUP3 PUSH1 0x1F DUP4 ADD SLT PUSH2 0x10AD JUMPI PUSH2 0x10AC PUSH2 0x1DE6 JUMP JUMPDEST JUMPDEST DUP2 CALLDATALOAD PUSH2 0x10BD DUP5 DUP3 PUSH1 0x20 DUP7 ADD PUSH2 0xE27 JUMP JUMPDEST SWAP2 POP POP SWAP3 SWAP2 POP POP JUMP JUMPDEST PUSH1 0x0 DUP1 DUP4 PUSH1 0x1F DUP5 ADD SLT PUSH2 0x10DC JUMPI PUSH2 0x10DB PUSH2 0x1DE6 JUMP JUMPDEST JUMPDEST DUP3 CALLDATALOAD SWAP1 POP PUSH8 0xFFFFFFFFFFFFFFFF DUP2 GT ISZERO PUSH2 0x10F9 JUMPI PUSH2 0x10F8 PUSH2 0x1DE1 JUMP JUMPDEST JUMPDEST PUSH1 0x20 DUP4 ADD SWAP2 POP DUP4 PUSH1 0x20 DUP3 MUL DUP4 ADD GT ISZERO PUSH2 0x1115 JUMPI PUSH2 0x1114 PUSH2 0x1DF5 JUMP JUMPDEST JUMPDEST SWAP3 POP SWAP3 SWAP1 POP JUMP JUMPDEST PUSH1 0x0 DUP1 DUP4 PUSH1 0x1F DUP5 ADD SLT PUSH2 0x1132 JUMPI PUSH2 0x1131 PUSH2 0x1DE6 JUMP JUMPDEST JUMPDEST DUP3 CALLDATALOAD SWAP1 POP PUSH8 0xFFFFFFFFFFFFFFFF DUP2 GT ISZERO PUSH2 0x114F JUMPI PUSH2 0x114E PUSH2 0x1DE1 JUMP JUMPDEST JUMPDEST PUSH1 0x20 DUP4 ADD SWAP2 POP DUP4 PUSH1 0x20 DUP3 MUL DUP4 ADD GT ISZERO PUSH2 0x116B JUMPI PUSH2 0x116A PUSH2 0x1DF5 JUMP JUMPDEST JUMPDEST SWAP3 POP SWAP3 SWAP1 POP JUMP JUMPDEST PUSH1 0x0 DUP3 PUSH1 0x1F DUP4 ADD SLT PUSH2 0x1187 JUMPI PUSH2 0x1186 PUSH2 0x1DE6 JUMP JUMPDEST JUMPDEST DUP2 CALLDATALOAD PUSH2 0x1197 DUP5 DUP3 PUSH1 0x20 DUP7 ADD PUSH2 0xEB5 JUMP JUMPDEST SWAP2 POP POP SWAP3 SWAP2 POP POP JUMP JUMPDEST PUSH1 0x0 DUP2 CALLDATALOAD SWAP1 POP PUSH2 0x11AF DUP2 PUSH2 0x1E88 JUMP JUMPDEST SWAP3 SWAP2 POP POP JUMP JUMPDEST PUSH1 0x0 DUP3 PUSH1 0x1F DUP4 ADD SLT PUSH2 0x11CA JUMPI PUSH2 0x11C9 PUSH2 0x1DE6 JUMP JUMPDEST JUMPDEST DUP2 CALLDATALOAD PUSH2 0x11DA DUP5 DUP3 PUSH1 0x20 DUP7 ADD PUSH2 0xF25 JUMP JUMPDEST SWAP2 POP POP SWAP3 SWAP2 POP POP JUMP JUMPDEST PUSH1 0x0 DUP1 DUP4 PUSH1 0x1F DUP5 ADD SLT PUSH2 0x11F9 JUMPI PUSH2 0x11F8 PUSH2 0x1DE6 JUMP JUMPDEST JUMPDEST DUP3 CALLDATALOAD SWAP1 POP PUSH8 0xFFFFFFFFFFFFFFFF DUP2 GT ISZERO PUSH2 0x1216 JUMPI PUSH2 0x1215 PUSH2 0x1DE1 JUMP JUMPDEST JUMPDEST PUSH1 0x20 DUP4 ADD SWAP2 POP DUP4 PUSH1 0x1 DUP3 MUL DUP4 ADD GT ISZERO PUSH2 0x1232 JUMPI PUSH2 0x1231 PUSH2 0x1DF5 JUMP JUMPDEST JUMPDEST SWAP3 POP SWAP3 SWAP1 POP JUMP JUMPDEST PUSH1 0x0 DUP3 PUSH1 0x1F DUP4 ADD SLT PUSH2 0x124E JUMPI PUSH2 0x124D PUSH2 0x1DE6 JUMP JUMPDEST JUMPDEST DUP2 CALLDATALOAD PUSH2 0x125E DUP5 DUP3 PUSH1 0x20 DUP7 ADD PUSH2 0xF67 JUMP JUMPDEST SWAP2 POP POP SWAP3 SWAP2 POP POP JUMP JUMPDEST PUSH1 0x0 DUP2 CALLDATALOAD SWAP1 POP PUSH2 0x1276 DUP2 PUSH2 0x1E9F JUMP JUMPDEST SWAP3 SWAP2 POP POP JUMP JUMPDEST PUSH1 0x0 DUP1 PUSH1 0x0 DUP1 PUSH1 0x0 DUP1 PUSH1 0x0 DUP1 PUSH1 0x0 DUP1 PUSH1 0xA0 DUP12 DUP14 SUB SLT ISZERO PUSH2 0x129F JUMPI PUSH2 0x129E PUSH2 0x1E09 JUMP JUMPDEST JUMPDEST PUSH1 0x0 DUP12 ADD CALLDATALOAD PUSH8 0xFFFFFFFFFFFFFFFF DUP2 GT ISZERO PUSH2 0x12BD JUMPI PUSH2 0x12BC PUSH2 0x1E04 JUMP JUMPDEST JUMPDEST PUSH2 0x12C9 DUP14 DUP3 DUP15 ADD PUSH2 0xFBE JUMP JUMPDEST SWAP11 POP SWAP11 POP POP PUSH1 0x20 DUP12 ADD CALLDATALOAD PUSH8 0xFFFFFFFFFFFFFFFF DUP2 GT ISZERO PUSH2 0x12EC JUMPI PUSH2 0x12EB PUSH2 0x1E04 JUMP JUMPDEST JUMPDEST PUSH2 0x12F8 DUP14 DUP3 DUP15 ADD PUSH2 0x10C6 JUMP JUMPDEST SWAP9 POP SWAP9 POP POP PUSH1 0x40 DUP12 ADD CALLDATALOAD PUSH8 0xFFFFFFFFFFFFFFFF DUP2 GT ISZERO PUSH2 0x131B JUMPI PUSH2 0x131A PUSH2 0x1E04 JUMP JUMPDEST JUMPDEST PUSH2 0x1327 DUP14 DUP3 DUP15 ADD PUSH2 0x1042 JUMP JUMPDEST SWAP7 POP SWAP7 POP POP PUSH1 0x60 DUP12 ADD CALLDATALOAD PUSH8 0xFFFFFFFFFFFFFFFF DUP2 GT ISZERO PUSH2 0x134A JUMPI PUSH2 0x1349 PUSH2 0x1E04 JUMP JUMPDEST JUMPDEST PUSH2 0x1356 DUP14 DUP3 DUP15 ADD PUSH2 0x111C JUMP JUMPDEST SWAP5 POP SWAP5 POP POP PUSH1 0x80 DUP12 ADD CALLDATALOAD PUSH8 0xFFFFFFFFFFFFFFFF DUP2 GT ISZERO PUSH2 0x1379 JUMPI PUSH2 0x1378 PUSH2 0x1E04 JUMP JUMPDEST JUMPDEST PUSH2 0x1385 DUP14 DUP3 DUP15 ADD PUSH2 0x11E3 JUMP JUMPDEST SWAP3 POP SWAP3 POP POP SWAP3 SWAP6 SWAP9 SWAP12 SWAP2 SWAP5 SWAP8 SWAP11 POP SWAP3 SWAP6 SWAP9 POP JUMP JUMPDEST PUSH1 0x0 DUP1 PUSH1 0x0 DUP1 PUSH1 0x80 DUP6 DUP8 SUB SLT ISZERO PUSH2 0x13B3 JUMPI PUSH2 0x13B2 PUSH2 0x1E09 JUMP JUMPDEST JUMPDEST PUSH1 0x0 DUP6 ADD CALLDATALOAD PUSH8 0xFFFFFFFFFFFFFFFF DUP2 GT ISZERO PUSH2 0x13D1 JUMPI PUSH2 0x13D0 PUSH2 0x1E04 JUMP JUMPDEST JUMPDEST PUSH2 0x13DD DUP8 DUP3 DUP9 ADD PUSH2 0x1014 JUMP JUMPDEST SWAP5 POP POP PUSH1 0x20 DUP6 ADD CALLDATALOAD PUSH8 0xFFFFFFFFFFFFFFFF DUP2 GT ISZERO PUSH2 0x13FE JUMPI PUSH2 0x13FD PUSH2 0x1E04 JUMP JUMPDEST JUMPDEST PUSH2 0x140A DUP8 DUP3 DUP9 ADD PUSH2 0x1172 JUMP JUMPDEST SWAP4 POP POP PUSH1 0x40 DUP6 ADD CALLDATALOAD PUSH8 0xFFFFFFFFFFFFFFFF DUP2 GT ISZERO PUSH2 0x142B JUMPI PUSH2 0x142A PUSH2 0x1E04 JUMP JUMPDEST JUMPDEST PUSH2 0x1437 DUP8 DUP3 DUP9 ADD PUSH2 0x1098 JUMP JUMPDEST SWAP3 POP POP PUSH1 0x60 DUP6 ADD CALLDATALOAD PUSH8 0xFFFFFFFFFFFFFFFF DUP2 GT ISZERO PUSH2 0x1458 JUMPI PUSH2 0x1457 PUSH2 0x1E04 JUMP JUMPDEST JUMPDEST PUSH2 0x1464 DUP8 DUP3 DUP9 ADD PUSH2 0x1239 JUMP JUMPDEST SWAP2 POP POP SWAP3 SWAP6 SWAP2 SWAP5 POP SWAP3 POP JUMP JUMPDEST PUSH1 0x0 PUSH1 0x20 DUP3 DUP5 SUB SLT ISZERO PUSH2 0x1486 JUMPI PUSH2 0x1485 PUSH2 0x1E09 JUMP JUMPDEST JUMPDEST PUSH1 0x0 PUSH2 0x1494 DUP5 DUP3 DUP6 ADD PUSH2 0x11A0 JUMP JUMPDEST SWAP2 POP POP SWAP3 SWAP2 POP POP JUMP JUMPDEST PUSH1 0x0 PUSH2 0x14A9 DUP4 DUP4 PUSH2 0x14E1 JUMP JUMPDEST PUSH1 0x20 DUP4 ADD SWAP1 POP SWAP3 SWAP2 POP POP JUMP JUMPDEST PUSH1 0x0 PUSH2 0x14C1 DUP4 DUP4 PUSH2 0x167B JUMP JUMPDEST SWAP1 POP SWAP3 SWAP2 POP POP JUMP JUMPDEST PUSH1 0x0 PUSH2 0x14D5 DUP4 DUP4 PUSH2 0x1733 JUMP JUMPDEST PUSH1 0x20 DUP4 ADD SWAP1 POP SWAP3 SWAP2 POP POP JUMP JUMPDEST PUSH2 0x14EA DUP2 PUSH2 0x1BBB JUMP JUMPDEST DUP3 MSTORE POP POP JUMP JUMPDEST PUSH2 0x14F9 DUP2 PUSH2 0x1BBB JUMP JUMPDEST DUP3 MSTORE POP POP JUMP JUMPDEST PUSH1 0x0 PUSH2 0x150A DUP3 PUSH2 0x1AFD JUMP JUMPDEST PUSH2 0x1514 DUP2 DUP6 PUSH2 0x1B5B JUMP JUMPDEST SWAP4 POP PUSH2 0x151F DUP4 PUSH2 0x1ACD JUMP JUMPDEST DUP1 PUSH1 0x0 JUMPDEST DUP4 DUP2 LT ISZERO PUSH2 0x1550 JUMPI DUP2 MLOAD PUSH2 0x1537 DUP9 DUP3 PUSH2 0x149D JUMP JUMPDEST SWAP8 POP PUSH2 0x1542 DUP4 PUSH2 0x1B34 JUMP JUMPDEST SWAP3 POP POP PUSH1 0x1 DUP2 ADD SWAP1 POP PUSH2 0x1523 JUMP JUMPDEST POP DUP6 SWAP4 POP POP POP POP SWAP3 SWAP2 POP POP JUMP JUMPDEST PUSH1 0x0 PUSH2 0x1568 DUP3 PUSH2 0x1B08 JUMP JUMPDEST PUSH2 0x1572 DUP2 DUP6 PUSH2 0x1B6C JUMP JUMPDEST SWAP4 POP DUP4 PUSH1 0x20 DUP3 MUL DUP6 ADD PUSH2 0x1584 DUP6 PUSH2 0x1ADD JUMP JUMPDEST DUP1 PUSH1 0x0 JUMPDEST DUP6 DUP2 LT ISZERO PUSH2 0x15C0 JUMPI DUP5 DUP5 SUB DUP10 MSTORE DUP2 MLOAD PUSH2 0x15A1 DUP6 DUP3 PUSH2 0x14B5 JUMP JUMPDEST SWAP5 POP PUSH2 0x15AC DUP4 PUSH2 0x1B41 JUMP JUMPDEST SWAP3 POP PUSH1 0x20 DUP11 ADD SWAP10 POP POP PUSH1 0x1 DUP2 ADD SWAP1 POP PUSH2 0x1588 JUMP JUMPDEST POP DUP3 SWAP8 POP DUP8 SWAP6 POP POP POP POP POP POP SWAP3 SWAP2 POP POP JUMP JUMPDEST PUSH1 0x0 PUSH2 0x15DD DUP3 PUSH2 0x1B13 JUMP JUMPDEST PUSH2 0x15E7 DUP2 DUP6 PUSH2 0x1B7D JUMP JUMPDEST SWAP4 POP PUSH2 0x15F2 DUP4 PUSH2 0x1AED JUMP JUMPDEST DUP1 PUSH1 0x0 JUMPDEST DUP4 DUP2 LT ISZERO PUSH2 0x1623 JUMPI DUP2 MLOAD PUSH2 0x160A DUP9 DUP3 PUSH2 0x14C9 JUMP JUMPDEST SWAP8 POP PUSH2 0x1615 DUP4 PUSH2 0x1B4E JUMP JUMPDEST SWAP3 POP POP PUSH1 0x1 DUP2 ADD SWAP1 POP PUSH2 0x15F6 JUMP JUMPDEST POP DUP6 SWAP4 POP POP POP POP SWAP3 SWAP2 POP POP JUMP JUMPDEST PUSH2 0x1639 DUP2 PUSH2 0x1BCD JUMP JUMPDEST DUP3 MSTORE POP POP JUMP JUMPDEST PUSH2 0x1650 PUSH2 0x164B DUP3 PUSH2 0x1BD7 JUMP JUMPDEST PUSH2 0x1D1B JUMP JUMPDEST DUP3 MSTORE POP POP JUMP JUMPDEST PUSH1 0x0 PUSH2 0x1662 DUP4 DUP6 PUSH2 0x1B9F JUMP JUMPDEST SWAP4 POP PUSH2 0x166F DUP4 DUP6 DUP5 PUSH2 0x1C2D JUMP JUMPDEST DUP3 DUP5 ADD SWAP1 POP SWAP4 SWAP3 POP POP POP JUMP JUMPDEST PUSH1 0x0 PUSH2 0x1686 DUP3 PUSH2 0x1B1E JUMP JUMPDEST PUSH2 0x1690 DUP2 DUP6 PUSH2 0x1B8E JUMP JUMPDEST SWAP4 POP PUSH2 0x16A0 DUP2 DUP6 PUSH1 0x20 DUP7 ADD PUSH2 0x1C3C JUMP JUMPDEST PUSH2 0x16A9 DUP2 PUSH2 0x1E0E JUMP JUMPDEST DUP5 ADD SWAP2 POP POP SWAP3 SWAP2 POP POP JUMP JUMPDEST PUSH1 0x0 PUSH2 0x16BF DUP3 PUSH2 0x1B29 JUMP JUMPDEST PUSH2 0x16C9 DUP2 DUP6 PUSH2 0x1BAA JUMP JUMPDEST SWAP4 POP PUSH2 0x16D9 DUP2 DUP6 PUSH1 0x20 DUP7 ADD PUSH2 0x1C3C JUMP JUMPDEST PUSH2 0x16E2 DUP2 PUSH2 0x1E0E JUMP JUMPDEST DUP5 ADD SWAP2 POP POP SWAP3 SWAP2 POP POP JUMP JUMPDEST PUSH1 0x0 PUSH2 0x16FA PUSH1 0x1A DUP4 PUSH2 0x1BAA JUMP JUMPDEST SWAP2 POP PUSH2 0x1705 DUP3 PUSH2 0x1E1F JUMP JUMPDEST PUSH1 0x20 DUP3 ADD SWAP1 POP SWAP2 SWAP1 POP JUMP JUMPDEST PUSH1 0x0 PUSH2 0x171D PUSH1 0x1A DUP4 PUSH2 0x1BAA JUMP JUMPDEST SWAP2 POP PUSH2 0x1728 DUP3 PUSH2 0x1E48 JUMP JUMPDEST PUSH1 0x20 DUP3 ADD SWAP1 POP SWAP2 SWAP1 POP JUMP JUMPDEST PUSH2 0x173C DUP2 PUSH2 0x1C23 JUMP JUMPDEST DUP3 MSTORE POP POP JUMP JUMPDEST PUSH1 0x0 PUSH2 0x174E DUP3 DUP7 PUSH2 0x163F JUMP JUMPDEST PUSH1 0x4 DUP3 ADD SWAP2 POP PUSH2 0x175F DUP3 DUP5 DUP7 PUSH2 0x1656 JUMP JUMPDEST SWAP2 POP DUP2 SWAP1 POP SWAP5 SWAP4 POP POP POP POP JUMP JUMPDEST PUSH1 0x0 PUSH2 0x1779 DUP3 DUP5 DUP7 PUSH2 0x1656 JUMP JUMPDEST SWAP2 POP DUP2 SWAP1 POP SWAP4 SWAP3 POP POP POP JUMP JUMPDEST PUSH1 0x0 PUSH1 0x60 DUP3 ADD SWAP1 POP DUP2 DUP2 SUB PUSH1 0x0 DUP4 ADD MSTORE PUSH2 0x179F DUP2 DUP7 PUSH2 0x14FF JUMP JUMPDEST SWAP1 POP DUP2 DUP2 SUB PUSH1 0x20 DUP4 ADD MSTORE PUSH2 0x17B3 DUP2 DUP6 PUSH2 0x155D JUMP JUMPDEST SWAP1 POP DUP2 DUP2 SUB PUSH1 0x40 DUP4 ADD MSTORE PUSH2 0x17C7 DUP2 DUP5 PUSH2 0x15D2 JUMP JUMPDEST SWAP1 POP SWAP5 SWAP4 POP POP POP POP JUMP JUMPDEST PUSH1 0x0 PUSH1 0xA0 DUP3 ADD SWAP1 POP DUP2 DUP2 SUB PUSH1 0x0 DUP4 ADD MSTORE PUSH2 0x17EB DUP2 DUP9 PUSH2 0x14FF JUMP JUMPDEST SWAP1 POP DUP2 DUP2 SUB PUSH1 0x20 DUP4 ADD MSTORE PUSH2 0x17FF DUP2 DUP8 PUSH2 0x155D JUMP JUMPDEST SWAP1 POP DUP2 DUP2 SUB PUSH1 0x40 DUP4 ADD MSTORE PUSH2 0x1813 DUP2 DUP7 PUSH2 0x15D2 JUMP JUMPDEST SWAP1 POP DUP2 DUP2 SUB PUSH1 0x60 DUP4 ADD MSTORE PUSH2 0x1827 DUP2 DUP6 PUSH2 0x16B4 JUMP JUMPDEST SWAP1 POP PUSH2 0x1836 PUSH1 0x80 DUP4 ADD DUP5 PUSH2 0x14F0 JUMP JUMPDEST SWAP7 SWAP6 POP POP POP POP POP POP JUMP JUMPDEST PUSH1 0x0 PUSH1 0x80 DUP3 ADD SWAP1 POP DUP2 DUP2 SUB PUSH1 0x0 DUP4 ADD MSTORE PUSH2 0x185A DUP2 DUP8 PUSH2 0x14FF JUMP JUMPDEST SWAP1 POP DUP2 DUP2 SUB PUSH1 0x20 DUP4 ADD MSTORE PUSH2 0x186E DUP2 DUP7 PUSH2 0x15D2 JUMP JUMPDEST SWAP1 POP DUP2 DUP2 SUB PUSH1 0x40 DUP4 ADD MSTORE PUSH2 0x1882 DUP2 DUP6 PUSH2 0x155D JUMP JUMPDEST SWAP1 POP DUP2 DUP2 SUB PUSH1 0x60 DUP4 ADD MSTORE PUSH2 0x1896 DUP2 DUP5 PUSH2 0x16B4 JUMP JUMPDEST SWAP1 POP SWAP6 SWAP5 POP POP POP POP POP JUMP JUMPDEST PUSH1 0x0 PUSH1 0x20 DUP3 ADD SWAP1 POP PUSH2 0x18B6 PUSH1 0x0 DUP4 ADD DUP5 PUSH2 0x1630 JUMP JUMPDEST SWAP3 SWAP2 POP POP JUMP JUMPDEST PUSH1 0x0 PUSH1 0x20 DUP3 ADD SWAP1 POP DUP2 DUP2 SUB PUSH1 0x0 DUP4 ADD MSTORE PUSH2 0x18D5 DUP2 PUSH2 0x16ED JUMP JUMPDEST SWAP1 POP SWAP2 SWAP1 POP JUMP JUMPDEST PUSH1 0x0 PUSH1 0x20 DUP3 ADD SWAP1 POP DUP2 DUP2 SUB PUSH1 0x0 DUP4 ADD MSTORE PUSH2 0x18F5 DUP2 PUSH2 0x1710 JUMP JUMPDEST SWAP1 POP SWAP2 SWAP1 POP JUMP JUMPDEST PUSH1 0x0 DUP1 DUP4 CALLDATALOAD PUSH1 0x1 PUSH1 0x20 SUB DUP5 CALLDATASIZE SUB SUB DUP2 SLT PUSH2 0x1919 JUMPI PUSH2 0x1918 PUSH2 0x1DF0 JUMP JUMPDEST JUMPDEST DUP1 DUP5 ADD SWAP3 POP DUP3 CALLDATALOAD SWAP2 POP PUSH8 0xFFFFFFFFFFFFFFFF DUP3 GT ISZERO PUSH2 0x193B JUMPI PUSH2 0x193A PUSH2 0x1DEB JUMP JUMPDEST JUMPDEST PUSH1 0x20 DUP4 ADD SWAP3 POP PUSH1 0x1 DUP3 MUL CALLDATASIZE SUB DUP4 SGT ISZERO PUSH2 0x1957 JUMPI PUSH2 0x1956 PUSH2 0x1DFA JUMP JUMPDEST JUMPDEST POP SWAP3 POP SWAP3 SWAP1 POP JUMP JUMPDEST PUSH1 0x0 DUP1 DUP4 CALLDATALOAD PUSH1 0x1 PUSH1 0x20 SUB DUP5 CALLDATASIZE SUB SUB DUP2 SLT PUSH2 0x197C JUMPI PUSH2 0x197B PUSH2 0x1DF0 JUMP JUMPDEST JUMPDEST DUP1 DUP5 ADD SWAP3 POP DUP3 CALLDATALOAD SWAP2 POP PUSH8 0xFFFFFFFFFFFFFFFF DUP3 GT ISZERO PUSH2 0x199E JUMPI PUSH2 0x199D PUSH2 0x1DEB JUMP JUMPDEST JUMPDEST PUSH1 0x20 DUP4 ADD SWAP3 POP PUSH1 0x1 DUP3 MUL CALLDATASIZE SUB DUP4 SGT ISZERO PUSH2 0x19BA JUMPI PUSH2 0x19B9 PUSH2 0x1DFA JUMP JUMPDEST JUMPDEST POP SWAP3 POP SWAP3 SWAP1 POP JUMP JUMPDEST PUSH1 0x0 PUSH2 0x19CC PUSH2 0x19DD JUMP JUMPDEST SWAP1 POP PUSH2 0x19D8 DUP3 DUP3 PUSH2 0x1CA1 JUMP JUMPDEST SWAP2 SWAP1 POP JUMP JUMPDEST PUSH1 0x0 PUSH1 0x40 MLOAD SWAP1 POP SWAP1 JUMP JUMPDEST PUSH1 0x0 PUSH8 0xFFFFFFFFFFFFFFFF DUP3 GT ISZERO PUSH2 0x1A02 JUMPI PUSH2 0x1A01 PUSH2 0x1DB2 JUMP JUMPDEST JUMPDEST PUSH1 0x20 DUP3 MUL SWAP1 POP PUSH1 0x20 DUP2 ADD SWAP1 POP SWAP2 SWAP1 POP JUMP JUMPDEST PUSH1 0x0 PUSH8 0xFFFFFFFFFFFFFFFF DUP3 GT ISZERO PUSH2 0x1A2E JUMPI PUSH2 0x1A2D PUSH2 0x1DB2 JUMP JUMPDEST JUMPDEST PUSH1 0x20 DUP3 MUL SWAP1 POP PUSH1 0x20 DUP2 ADD SWAP1 POP SWAP2 SWAP1 POP JUMP JUMPDEST PUSH1 0x0 PUSH8 0xFFFFFFFFFFFFFFFF DUP3 GT ISZERO PUSH2 0x1A5A JUMPI PUSH2 0x1A59 PUSH2 0x1DB2 JUMP JUMPDEST JUMPDEST PUSH1 0x20 DUP3 MUL SWAP1 POP PUSH1 0x20 DUP2 ADD SWAP1 POP SWAP2 SWAP1 POP JUMP JUMPDEST PUSH1 0x0 PUSH8 0xFFFFFFFFFFFFFFFF DUP3 GT ISZERO PUSH2 0x1A86 JUMPI PUSH2 0x1A85 PUSH2 0x1DB2 JUMP JUMPDEST JUMPDEST PUSH2 0x1A8F DUP3 PUSH2 0x1E0E JUMP JUMPDEST SWAP1 POP PUSH1 0x20 DUP2 ADD SWAP1 POP SWAP2 SWAP1 POP JUMP JUMPDEST PUSH1 0x0 PUSH8 0xFFFFFFFFFFFFFFFF DUP3 GT ISZERO PUSH2 0x1AB7 JUMPI PUSH2 0x1AB6 PUSH2 0x1DB2 JUMP JUMPDEST JUMPDEST PUSH2 0x1AC0 DUP3 PUSH2 0x1E0E JUMP JUMPDEST SWAP1 POP PUSH1 0x20 DUP2 ADD SWAP1 POP SWAP2 SWAP1 POP JUMP JUMPDEST PUSH1 0x0 DUP2 SWAP1 POP PUSH1 0x20 DUP3 ADD SWAP1 POP SWAP2 SWAP1 POP JUMP JUMPDEST PUSH1 0x0 DUP2 SWAP1 POP PUSH1 0x20 DUP3 ADD SWAP1 POP SWAP2 SWAP1 POP JUMP JUMPDEST PUSH1 0x0 DUP2 SWAP1 POP PUSH1 0x20 DUP3 ADD SWAP1 POP SWAP2 SWAP1 POP JUMP JUMPDEST PUSH1 0x0 DUP2 MLOAD SWAP1 POP SWAP2 SWAP1 POP JUMP JUMPDEST PUSH1 0x0 DUP2 MLOAD SWAP1 POP SWAP2 SWAP1 POP JUMP JUMPDEST PUSH1 0x0 DUP2 MLOAD SWAP1 POP SWAP2 SWAP1 POP JUMP JUMPDEST PUSH1 0x0 DUP2 MLOAD SWAP1 POP SWAP2 SWAP1 POP JUMP JUMPDEST PUSH1 0x0 DUP2 MLOAD SWAP1 POP SWAP2 SWAP1 POP JUMP JUMPDEST PUSH1 0x0 PUSH1 0x20 DUP3 ADD SWAP1 POP SWAP2 SWAP1 POP JUMP JUMPDEST PUSH1 0x0 PUSH1 0x20 DUP3 ADD SWAP1 POP SWAP2 SWAP1 POP JUMP JUMPDEST PUSH1 0x0 PUSH1 0x20 DUP3 ADD SWAP1 POP SWAP2 SWAP1 POP JUMP JUMPDEST PUSH1 0x0 DUP3 DUP3 MSTORE PUSH1 0x20 DUP3 ADD SWAP1 POP SWAP3 SWAP2 POP POP JUMP JUMPDEST PUSH1 0x0 DUP3 DUP3 MSTORE PUSH1 0x20 DUP3 ADD SWAP1 POP SWAP3 SWAP2 POP POP JUMP JUMPDEST PUSH1 0x0 DUP3 DUP3 MSTORE PUSH1 0x20 DUP3 ADD SWAP1 POP SWAP3 SWAP2 POP POP JUMP JUMPDEST PUSH1 0x0 DUP3 DUP3 MSTORE PUSH1 0x20 DUP3 ADD SWAP1 POP SWAP3 SWAP2 POP POP JUMP JUMPDEST PUSH1 0x0 DUP2 SWAP1 POP SWAP3 SWAP2 POP POP JUMP JUMPDEST PUSH1 0x0 DUP3 DUP3 MSTORE PUSH1 0x20 DUP3 ADD SWAP1 POP SWAP3 SWAP2 POP POP JUMP JUMPDEST PUSH1 0x0 PUSH2 0x1BC6 DUP3 PUSH2 0x1C03 JUMP JUMPDEST SWAP1 POP SWAP2 SWAP1 POP JUMP JUMPDEST PUSH1 0x0 DUP2 SWAP1 POP SWAP2 SWAP1 POP JUMP JUMPDEST PUSH1 0x0 PUSH32 0xFFFFFFFF00000000000000000000000000000000000000000000000000000000 DUP3 AND SWAP1 POP SWAP2 SWAP1 POP JUMP JUMPDEST PUSH1 0x0 PUSH20 0xFFFFFFFFFFFFFFFFFFFFFFFFFFFFFFFFFFFFFFFF DUP3 AND SWAP1 POP SWAP2 SWAP1 POP JUMP JUMPDEST PUSH1 0x0 DUP2 SWAP1 POP SWAP2 SWAP1 POP JUMP JUMPDEST DUP3 DUP2 DUP4 CALLDATACOPY PUSH1 0x0 DUP4 DUP4 ADD MSTORE POP POP POP JUMP JUMPDEST PUSH1 0x0 JUMPDEST DUP4 DUP2 LT ISZERO PUSH2 0x1C5A JUMPI DUP1 DUP3 ADD MLOAD DUP2 DUP5 ADD MSTORE PUSH1 0x20 DUP2 ADD SWAP1 POP PUSH2 0x1C3F JUMP JUMPDEST DUP4 DUP2 GT ISZERO PUSH2 0x1C69 JUMPI PUSH1 0x0 DUP5 DUP5 ADD MSTORE JUMPDEST POP POP POP POP JUMP JUMPDEST PUSH1 0x0 PUSH1 0x2 DUP3 DIV SWAP1 POP PUSH1 0x1 DUP3 AND DUP1 PUSH2 0x1C87 JUMPI PUSH1 0x7F DUP3 AND SWAP2 POP JUMPDEST PUSH1 0x20 DUP3 LT DUP2 EQ ISZERO PUSH2 0x1C9B JUMPI PUSH2 0x1C9A PUSH2 0x1D54 JUMP JUMPDEST JUMPDEST POP SWAP2 SWAP1 POP JUMP JUMPDEST PUSH2 0x1CAA DUP3 PUSH2 0x1E0E JUMP JUMPDEST DUP2 ADD DUP2 DUP2 LT PUSH8 0xFFFFFFFFFFFFFFFF DUP3 GT OR ISZERO PUSH2 0x1CC9 JUMPI PUSH2 0x1CC8 PUSH2 0x1DB2 JUMP JUMPDEST JUMPDEST DUP1 PUSH1 0x40 MSTORE POP POP POP JUMP JUMPDEST PUSH1 0x0 PUSH2 0x1CDD DUP3 PUSH2 0x1C23 JUMP JUMPDEST SWAP2 POP PUSH32 0xFFFFFFFFFFFFFFFFFFFFFFFFFFFFFFFFFFFFFFFFFFFFFFFFFFFFFFFFFFFFFFFF DUP3 EQ ISZERO PUSH2 0x1D10 JUMPI PUSH2 0x1D0F PUSH2 0x1D25 JUMP JUMPDEST JUMPDEST PUSH1 0x1 DUP3 ADD SWAP1 POP SWAP2 SWAP1 POP JUMP JUMPDEST PUSH1 0x0 DUP2 SWAP1 POP SWAP2 SWAP1 POP JUMP JUMPDEST PUSH32 0x4E487B7100000000000000000000000000000000000000000000000000000000 PUSH1 0x0 MSTORE PUSH1 0x11 PUSH1 0x4 MSTORE PUSH1 0x24 PUSH1 0x0 REVERT JUMPDEST PUSH32 0x4E487B7100000000000000000000000000000000000000000000000000000000 PUSH1 0x0 MSTORE PUSH1 0x22 PUSH1 0x4 MSTORE PUSH1 0x24 PUSH1 0x0 REVERT JUMPDEST PUSH32 0x4E487B7100000000000000000000000000000000000000000000000000000000 PUSH1 0x0 MSTORE PUSH1 0x32 PUSH1 0x4 MSTORE PUSH1 0x24 PUSH1 0x0 REVERT JUMPDEST PUSH32 0x4E487B7100000000000000000000000000000000000000000000000000000000 PUSH1 0x0 MSTORE PUSH1 0x41 PUSH1 0x4 MSTORE PUSH1 0x24 PUSH1 0x0 REVERT JUMPDEST PUSH1 0x0 DUP1 REVERT JUMPDEST PUSH1 0x0 DUP1 REVERT JUMPDEST PUSH1 0x0 DUP1 REVERT JUMPDEST PUSH1 0x0 DUP1 REVERT JUMPDEST PUSH1 0x0 DUP1 REVERT JUMPDEST PUSH1 0x0 DUP1 REVERT JUMPDEST PUSH1 0x0 DUP1 REVERT JUMPDEST PUSH1 0x0 DUP1 REVERT JUMPDEST PUSH1 0x0 DUP1 REVERT JUMPDEST PUSH1 0x0 PUSH1 0x1F NOT PUSH1 0x1F DUP4 ADD AND SWAP1 POP SWAP2 SWAP1 POP JUMP JUMPDEST PUSH32 0x4578653A204172726179206C656E677468206D69736D61746368000000000000 PUSH1 0x0 DUP3 ADD MSTORE POP JUMP JUMPDEST PUSH32 0x4578653A2045786520494420616C726561647920696E20757365000000000000 PUSH1 0x0 DUP3 ADD MSTORE POP JUMP JUMPDEST PUSH2 0x1E7A DUP2 PUSH2 0x1BBB JUMP JUMPDEST DUP2 EQ PUSH2 0x1E85 JUMPI PUSH1 0x0 DUP1 REVERT JUMPDEST POP JUMP JUMPDEST PUSH2 0x1E91 DUP2 PUSH2 0x1BCD JUMP JUMPDEST DUP2 EQ PUSH2 0x1E9C JUMPI PUSH1 0x0 DUP1 REVERT JUMPDEST POP JUMP JUMPDEST PUSH2 0x1EA8 DUP2 PUSH2 0x1C23 JUMP JUMPDEST DUP2 EQ PUSH2 0x1EB3 JUMPI PUSH1 0x0 DUP1 REVERT JUMPDEST POP JUMP INVALID LOG2 PUSH5 0x6970667358 0x22 SLT KECCAK256 0xD7 LOG2 0xA5 KECCAK256 PUSH24 0x8DAE6429F07835ABD776FF0870CA16FF1987A5B0595CAC47 0xB2 0xF8 ADDRESS PUSH5 0x736F6C6343 STOP ADDMOD SMOD STOP CALLER "
        },
        "methodIdentifiers": {
          "createExe(address[],string[],bytes[],uint256[],string)": "184b9ce5",
          "getExe(bytes32)": "971aa75e",
          "getExeId(address[],uint256[],bytes[],string)": "0ee476bc",
          "getExeInfo(bytes32)": "e0751326"
        }
      },
      "userdoc": {
        "kind": "user",
        "methods": {},
        "version": 1
      }
    }
  }
}