{
  "contracts/VotingBooth.sol": {
    "VotingBooth": {
      "abi": [
        {
          "inputs": [
            {
              "internalType": "address",
              "name": "_core",
              "type": "address"
            }
          ],
          "stateMutability": "nonpayable",
          "type": "constructor"
        },
        {
          "inputs": [],
          "name": "IDENTIFIER",
          "outputs": [
            {
              "internalType": "bytes32",
              "name": "",
              "type": "bytes32"
            }
          ],
          "stateMutability": "view",
          "type": "function"
        },
        {
          "inputs": [
            {
              "internalType": "bytes32",
              "name": "_voteType",
              "type": "bytes32"
            },
            {
              "internalType": "address",
              "name": "_instance",
              "type": "address"
            },
            {
              "internalType": "string",
              "name": "_voteFormat",
              "type": "string"
            }
          ],
          "name": "addVoteType",
          "outputs": [],
          "stateMutability": "nonpayable",
          "type": "function"
        },
        {
          "inputs": [],
          "name": "core_",
          "outputs": [
            {
              "internalType": "contract ICore",
              "name": "",
              "type": "address"
            }
          ],
          "stateMutability": "view",
          "type": "function"
        },
        {
          "inputs": [
            {
              "internalType": "uint256",
              "name": "_propID",
              "type": "uint256"
            },
            {
              "internalType": "bytes",
              "name": "_vote",
              "type": "bytes"
            }
          ],
          "name": "vote",
          "outputs": [
            {
              "internalType": "bool",
              "name": "",
              "type": "bool"
            }
          ],
          "stateMutability": "nonpayable",
          "type": "function"
        }
      ],
      "devdoc": {
        "kind": "dev",
        "methods": {},
        "version": 1
      },
      "evm": {
        "bytecode": {
          "linkReferences": {},
          "object": "60c060405234801561001057600080fd5b50604051610d2e380380610d2e833981810160405281019061003291906100b0565b7f346b2ab3a980432fd8f2e24828fc9f9ee2df1548701bc542f6ec17882b3276278181608081815250508073ffffffffffffffffffffffffffffffffffffffff1660a08173ffffffffffffffffffffffffffffffffffffffff1660601b8152505050505061012b565b6000815190506100aa81610114565b92915050565b6000602082840312156100c6576100c561010f565b5b60006100d48482850161009b565b91505092915050565b60006100e8826100ef565b9050919050565b600073ffffffffffffffffffffffffffffffffffffffff82169050919050565b600080fd5b61011d816100dd565b811461012857600080fd5b50565b60805160a05160601c610bce61016060003960008181610102015281816102f201526104470152600060db0152610bce6000f3fe608060405234801561001057600080fd5b506004361061004c5760003560e01c80633c9747f314610051578063b88b82ba1461006f578063cbba4b7f1461009f578063eaddd0fd146100bb575b600080fd5b6100596100d9565b6040516100669190610827565b60405180910390f35b61008960048036038101906100849190610709565b6100fd565b604051610096919061080c565b60405180910390f35b6100b960048036038101906100b49190610695565b6102f0565b005b6100c3610445565b6040516100d09190610842565b60405180910390f35b7f000000000000000000000000000000000000000000000000000000000000000081565b6000807f000000000000000000000000000000000000000000000000000000000000000073ffffffffffffffffffffffffffffffffffffffff1663624a23e07f36209a57dfd79e3872ec3a0c88c653bbe7e32a12306e5e1f92f118c1936ae8b26040518263ffffffff1660e01b81526004016101799190610827565b60206040518083038186803b15801561019157600080fd5b505afa1580156101a5573d6000803e3d6000fd5b505050506040513d601f19601f820116820180604052508101906101c9919061063b565b905060008173ffffffffffffffffffffffffffffffffffffffff166262104a866040518263ffffffff1660e01b8152600401610205919061087d565b60206040518083038186803b15801561021d57600080fd5b505afa158015610231573d6000803e3d6000fd5b505050506040513d601f19601f82011682018060405250810190610255919061063b565b90508073ffffffffffffffffffffffffffffffffffffffff1663f636a0538686336040518463ffffffff1660e01b815260040161029493929190610898565b602060405180830381600087803b1580156102ae57600080fd5b505af11580156102c2573d6000803e3d6000fd5b505050506040513d601f19601f820116820180604052508101906102e69190610668565b9250505092915050565b7f000000000000000000000000000000000000000000000000000000000000000073ffffffffffffffffffffffffffffffffffffffff163373ffffffffffffffffffffffffffffffffffffffff161461037e576040517f08c379a00000000000000000000000000000000000000000000000000000000081526004016103759061085d565b60405180910390fd5b604051806040016040528085815260200183838080601f016020809104026020016040519081016040528093929190818152602001838380828437600081840152601f19601f820116905080830192505050505050508152506000808573ffffffffffffffffffffffffffffffffffffffff1673ffffffffffffffffffffffffffffffffffffffff16815260200190815260200160002060008201518160000155602082015181600101908051906020019061043b929190610469565b5090505050505050565b7f000000000000000000000000000000000000000000000000000000000000000081565b82805461047590610a23565b90600052602060002090601f01602090048101928261049757600085556104de565b82601f106104b057805160ff19168380011785556104de565b828001600101855582156104de579182015b828111156104dd5782518255916020019190600101906104c2565b5b5090506104eb91906104ef565b5090565b5b808211156105085760008160009055506001016104f0565b5090565b600061051f61051a846108fb565b6108d6565b90508281526020810184848401111561053b5761053a610af3565b5b6105468482856109e1565b509392505050565b60008135905061055d81610b3c565b92915050565b60008151905061057281610b3c565b92915050565b60008151905061058781610b53565b92915050565b60008135905061059c81610b6a565b92915050565b600082601f8301126105b7576105b6610ae9565b5b81356105c784826020860161050c565b91505092915050565b60008083601f8401126105e6576105e5610ae9565b5b8235905067ffffffffffffffff81111561060357610602610ae4565b5b60208301915083600182028301111561061f5761061e610aee565b5b9250929050565b60008135905061063581610b81565b92915050565b60006020828403121561065157610650610afd565b5b600061065f84828501610563565b91505092915050565b60006020828403121561067e5761067d610afd565b5b600061068c84828501610578565b91505092915050565b600080600080606085870312156106af576106ae610afd565b5b60006106bd8782880161058d565b94505060206106ce8782880161054e565b935050604085013567ffffffffffffffff8111156106ef576106ee610af8565b5b6106fb878288016105d0565b925092505092959194509250565b600080604083850312156107205761071f610afd565b5b600061072e85828601610626565b925050602083013567ffffffffffffffff81111561074f5761074e610af8565b5b61075b858286016105a2565b9150509250929050565b61076e81610959565b82525050565b61077d8161096b565b82525050565b61078c81610977565b82525050565b600061079d8261092c565b6107a78185610937565b93506107b78185602086016109f0565b6107c081610b02565b840191505092915050565b6107d4816109ab565b82525050565b60006107e7601c83610948565b91506107f282610b13565b602082019050919050565b610806816109a1565b82525050565b60006020820190506108216000830184610774565b92915050565b600060208201905061083c6000830184610783565b92915050565b600060208201905061085760008301846107cb565b92915050565b60006020820190508181036000830152610876816107da565b9050919050565b600060208201905061089260008301846107fd565b92915050565b60006060820190506108ad60008301866107fd565b81810360208301526108bf8185610792565b90506108ce6040830184610765565b949350505050565b60006108e06108f1565b90506108ec8282610a55565b919050565b6000604051905090565b600067ffffffffffffffff82111561091657610915610ab5565b5b61091f82610b02565b9050602081019050919050565b600081519050919050565b600082825260208201905092915050565b600082825260208201905092915050565b600061096482610981565b9050919050565b60008115159050919050565b6000819050919050565b600073ffffffffffffffffffffffffffffffffffffffff82169050919050565b6000819050919050565b60006109b6826109bd565b9050919050565b60006109c8826109cf565b9050919050565b60006109da82610981565b9050919050565b82818337600083830152505050565b60005b83811015610a0e5780820151818401526020810190506109f3565b83811115610a1d576000848401525b50505050565b60006002820490506001821680610a3b57607f821691505b60208210811415610a4f57610a4e610a86565b5b50919050565b610a5e82610b02565b810181811067ffffffffffffffff82111715610a7d57610a7c610ab5565b5b80604052505050565b7f4e487b7100000000000000000000000000000000000000000000000000000000600052602260045260246000fd5b7f4e487b7100000000000000000000000000000000000000000000000000000000600052604160045260246000fd5b600080fd5b600080fd5b600080fd5b600080fd5b600080fd5b600080fd5b6000601f19601f8301169050919050565b7f53797374656d3a204f6e6c7920636f72652063616e206d6f6469667900000000600082015250565b610b4581610959565b8114610b5057600080fd5b50565b610b5c8161096b565b8114610b6757600080fd5b50565b610b7381610977565b8114610b7e57600080fd5b50565b610b8a816109a1565b8114610b9557600080fd5b5056fea2646970667358221220a0c8296f7c96290be470e65af2b4db8bfd292e46d4ff02fa530fab9759ab2a3a64736f6c63430008070033",
          "opcodes": "PUSH1 0xC0 PUSH1 0x40 MSTORE CALLVALUE DUP1 ISZERO PUSH2 0x10 JUMPI PUSH1 0x0 DUP1 REVERT JUMPDEST POP PUSH1 0x40 MLOAD PUSH2 0xD2E CODESIZE SUB DUP1 PUSH2 0xD2E DUP4 CODECOPY DUP2 DUP2 ADD PUSH1 0x40 MSTORE DUP2 ADD SWAP1 PUSH2 0x32 SWAP2 SWAP1 PUSH2 0xB0 JUMP JUMPDEST PUSH32 0x346B2AB3A980432FD8F2E24828FC9F9EE2DF1548701BC542F6EC17882B327627 DUP2 DUP2 PUSH1 0x80 DUP2 DUP2 MSTORE POP POP DUP1 PUSH20 0xFFFFFFFFFFFFFFFFFFFFFFFFFFFFFFFFFFFFFFFF AND PUSH1 0xA0 DUP2 PUSH20 0xFFFFFFFFFFFFFFFFFFFFFFFFFFFFFFFFFFFFFFFF AND PUSH1 0x60 SHL DUP2 MSTORE POP POP POP POP POP PUSH2 0x12B JUMP JUMPDEST PUSH1 0x0 DUP2 MLOAD SWAP1 POP PUSH2 0xAA DUP2 PUSH2 0x114 JUMP JUMPDEST SWAP3 SWAP2 POP POP JUMP JUMPDEST PUSH1 0x0 PUSH1 0x20 DUP3 DUP5 SUB SLT ISZERO PUSH2 0xC6 JUMPI PUSH2 0xC5 PUSH2 0x10F JUMP JUMPDEST JUMPDEST PUSH1 0x0 PUSH2 0xD4 DUP5 DUP3 DUP6 ADD PUSH2 0x9B JUMP JUMPDEST SWAP2 POP POP SWAP3 SWAP2 POP POP JUMP JUMPDEST PUSH1 0x0 PUSH2 0xE8 DUP3 PUSH2 0xEF JUMP JUMPDEST SWAP1 POP SWAP2 SWAP1 POP JUMP JUMPDEST PUSH1 0x0 PUSH20 0xFFFFFFFFFFFFFFFFFFFFFFFFFFFFFFFFFFFFFFFF DUP3 AND SWAP1 POP SWAP2 SWAP1 POP JUMP JUMPDEST PUSH1 0x0 DUP1 REVERT JUMPDEST PUSH2 0x11D DUP2 PUSH2 0xDD JUMP JUMPDEST DUP2 EQ PUSH2 0x128 JUMPI PUSH1 0x0 DUP1 REVERT JUMPDEST POP JUMP JUMPDEST PUSH1 0x80 MLOAD PUSH1 0xA0 MLOAD PUSH1 0x60 SHR PUSH2 0xBCE PUSH2 0x160 PUSH1 0x0 CODECOPY PUSH1 0x0 DUP2 DUP2 PUSH2 0x102 ADD MSTORE DUP2 DUP2 PUSH2 0x2F2 ADD MSTORE PUSH2 0x447 ADD MSTORE PUSH1 0x0 PUSH1 0xDB ADD MSTORE PUSH2 0xBCE PUSH1 0x0 RETURN INVALID PUSH1 0x80 PUSH1 0x40 MSTORE CALLVALUE DUP1 ISZERO PUSH2 0x10 JUMPI PUSH1 0x0 DUP1 REVERT JUMPDEST POP PUSH1 0x4 CALLDATASIZE LT PUSH2 0x4C JUMPI PUSH1 0x0 CALLDATALOAD PUSH1 0xE0 SHR DUP1 PUSH4 0x3C9747F3 EQ PUSH2 0x51 JUMPI DUP1 PUSH4 0xB88B82BA EQ PUSH2 0x6F JUMPI DUP1 PUSH4 0xCBBA4B7F EQ PUSH2 0x9F JUMPI DUP1 PUSH4 0xEADDD0FD EQ PUSH2 0xBB JUMPI JUMPDEST PUSH1 0x0 DUP1 REVERT JUMPDEST PUSH2 0x59 PUSH2 0xD9 JUMP JUMPDEST PUSH1 0x40 MLOAD PUSH2 0x66 SWAP2 SWAP1 PUSH2 0x827 JUMP JUMPDEST PUSH1 0x40 MLOAD DUP1 SWAP2 SUB SWAP1 RETURN JUMPDEST PUSH2 0x89 PUSH1 0x4 DUP1 CALLDATASIZE SUB DUP2 ADD SWAP1 PUSH2 0x84 SWAP2 SWAP1 PUSH2 0x709 JUMP JUMPDEST PUSH2 0xFD JUMP JUMPDEST PUSH1 0x40 MLOAD PUSH2 0x96 SWAP2 SWAP1 PUSH2 0x80C JUMP JUMPDEST PUSH1 0x40 MLOAD DUP1 SWAP2 SUB SWAP1 RETURN JUMPDEST PUSH2 0xB9 PUSH1 0x4 DUP1 CALLDATASIZE SUB DUP2 ADD SWAP1 PUSH2 0xB4 SWAP2 SWAP1 PUSH2 0x695 JUMP JUMPDEST PUSH2 0x2F0 JUMP JUMPDEST STOP JUMPDEST PUSH2 0xC3 PUSH2 0x445 JUMP JUMPDEST PUSH1 0x40 MLOAD PUSH2 0xD0 SWAP2 SWAP1 PUSH2 0x842 JUMP JUMPDEST PUSH1 0x40 MLOAD DUP1 SWAP2 SUB SWAP1 RETURN JUMPDEST PUSH32 0x0 DUP2 JUMP JUMPDEST PUSH1 0x0 DUP1 PUSH32 0x0 PUSH20 0xFFFFFFFFFFFFFFFFFFFFFFFFFFFFFFFFFFFFFFFF AND PUSH4 0x624A23E0 PUSH32 0x36209A57DFD79E3872EC3A0C88C653BBE7E32A12306E5E1F92F118C1936AE8B2 PUSH1 0x40 MLOAD DUP3 PUSH4 0xFFFFFFFF AND PUSH1 0xE0 SHL DUP2 MSTORE PUSH1 0x4 ADD PUSH2 0x179 SWAP2 SWAP1 PUSH2 0x827 JUMP JUMPDEST PUSH1 0x20 PUSH1 0x40 MLOAD DUP1 DUP4 SUB DUP2 DUP7 DUP1 EXTCODESIZE ISZERO DUP1 ISZERO PUSH2 0x191 JUMPI PUSH1 0x0 DUP1 REVERT JUMPDEST POP GAS STATICCALL ISZERO DUP1 ISZERO PUSH2 0x1A5 JUMPI RETURNDATASIZE PUSH1 0x0 DUP1 RETURNDATACOPY RETURNDATASIZE PUSH1 0x0 REVERT JUMPDEST POP POP POP POP PUSH1 0x40 MLOAD RETURNDATASIZE PUSH1 0x1F NOT PUSH1 0x1F DUP3 ADD AND DUP3 ADD DUP1 PUSH1 0x40 MSTORE POP DUP2 ADD SWAP1 PUSH2 0x1C9 SWAP2 SWAP1 PUSH2 0x63B JUMP JUMPDEST SWAP1 POP PUSH1 0x0 DUP2 PUSH20 0xFFFFFFFFFFFFFFFFFFFFFFFFFFFFFFFFFFFFFFFF AND PUSH3 0x62104A DUP7 PUSH1 0x40 MLOAD DUP3 PUSH4 0xFFFFFFFF AND PUSH1 0xE0 SHL DUP2 MSTORE PUSH1 0x4 ADD PUSH2 0x205 SWAP2 SWAP1 PUSH2 0x87D JUMP JUMPDEST PUSH1 0x20 PUSH1 0x40 MLOAD DUP1 DUP4 SUB DUP2 DUP7 DUP1 EXTCODESIZE ISZERO DUP1 ISZERO PUSH2 0x21D JUMPI PUSH1 0x0 DUP1 REVERT JUMPDEST POP GAS STATICCALL ISZERO DUP1 ISZERO PUSH2 0x231 JUMPI RETURNDATASIZE PUSH1 0x0 DUP1 RETURNDATACOPY RETURNDATASIZE PUSH1 0x0 REVERT JUMPDEST POP POP POP POP PUSH1 0x40 MLOAD RETURNDATASIZE PUSH1 0x1F NOT PUSH1 0x1F DUP3 ADD AND DUP3 ADD DUP1 PUSH1 0x40 MSTORE POP DUP2 ADD SWAP1 PUSH2 0x255 SWAP2 SWAP1 PUSH2 0x63B JUMP JUMPDEST SWAP1 POP DUP1 PUSH20 0xFFFFFFFFFFFFFFFFFFFFFFFFFFFFFFFFFFFFFFFF AND PUSH4 0xF636A053 DUP7 DUP7 CALLER PUSH1 0x40 MLOAD DUP5 PUSH4 0xFFFFFFFF AND PUSH1 0xE0 SHL DUP2 MSTORE PUSH1 0x4 ADD PUSH2 0x294 SWAP4 SWAP3 SWAP2 SWAP1 PUSH2 0x898 JUMP JUMPDEST PUSH1 0x20 PUSH1 0x40 MLOAD DUP1 DUP4 SUB DUP2 PUSH1 0x0 DUP8 DUP1 EXTCODESIZE ISZERO DUP1 ISZERO PUSH2 0x2AE JUMPI PUSH1 0x0 DUP1 REVERT JUMPDEST POP GAS CALL ISZERO DUP1 ISZERO PUSH2 0x2C2 JUMPI RETURNDATASIZE PUSH1 0x0 DUP1 RETURNDATACOPY RETURNDATASIZE PUSH1 0x0 REVERT JUMPDEST POP POP POP POP PUSH1 0x40 MLOAD RETURNDATASIZE PUSH1 0x1F NOT PUSH1 0x1F DUP3 ADD AND DUP3 ADD DUP1 PUSH1 0x40 MSTORE POP DUP2 ADD SWAP1 PUSH2 0x2E6 SWAP2 SWAP1 PUSH2 0x668 JUMP JUMPDEST SWAP3 POP POP POP SWAP3 SWAP2 POP POP JUMP JUMPDEST PUSH32 0x0 PUSH20 0xFFFFFFFFFFFFFFFFFFFFFFFFFFFFFFFFFFFFFFFF AND CALLER PUSH20 0xFFFFFFFFFFFFFFFFFFFFFFFFFFFFFFFFFFFFFFFF AND EQ PUSH2 0x37E JUMPI PUSH1 0x40 MLOAD PUSH32 0x8C379A000000000000000000000000000000000000000000000000000000000 DUP2 MSTORE PUSH1 0x4 ADD PUSH2 0x375 SWAP1 PUSH2 0x85D JUMP JUMPDEST PUSH1 0x40 MLOAD DUP1 SWAP2 SUB SWAP1 REVERT JUMPDEST PUSH1 0x40 MLOAD DUP1 PUSH1 0x40 ADD PUSH1 0x40 MSTORE DUP1 DUP6 DUP2 MSTORE PUSH1 0x20 ADD DUP4 DUP4 DUP1 DUP1 PUSH1 0x1F ADD PUSH1 0x20 DUP1 SWAP2 DIV MUL PUSH1 0x20 ADD PUSH1 0x40 MLOAD SWAP1 DUP2 ADD PUSH1 0x40 MSTORE DUP1 SWAP4 SWAP3 SWAP2 SWAP1 DUP2 DUP2 MSTORE PUSH1 0x20 ADD DUP4 DUP4 DUP1 DUP3 DUP5 CALLDATACOPY PUSH1 0x0 DUP2 DUP5 ADD MSTORE PUSH1 0x1F NOT PUSH1 0x1F DUP3 ADD AND SWAP1 POP DUP1 DUP4 ADD SWAP3 POP POP POP POP POP POP POP DUP2 MSTORE POP PUSH1 0x0 DUP1 DUP6 PUSH20 0xFFFFFFFFFFFFFFFFFFFFFFFFFFFFFFFFFFFFFFFF AND PUSH20 0xFFFFFFFFFFFFFFFFFFFFFFFFFFFFFFFFFFFFFFFF AND DUP2 MSTORE PUSH1 0x20 ADD SWAP1 DUP2 MSTORE PUSH1 0x20 ADD PUSH1 0x0 KECCAK256 PUSH1 0x0 DUP3 ADD MLOAD DUP2 PUSH1 0x0 ADD SSTORE PUSH1 0x20 DUP3 ADD MLOAD DUP2 PUSH1 0x1 ADD SWAP1 DUP1 MLOAD SWAP1 PUSH1 0x20 ADD SWAP1 PUSH2 0x43B SWAP3 SWAP2 SWAP1 PUSH2 0x469 JUMP JUMPDEST POP SWAP1 POP POP POP POP POP POP JUMP JUMPDEST PUSH32 0x0 DUP2 JUMP JUMPDEST DUP3 DUP1 SLOAD PUSH2 0x475 SWAP1 PUSH2 0xA23 JUMP JUMPDEST SWAP1 PUSH1 0x0 MSTORE PUSH1 0x20 PUSH1 0x0 KECCAK256 SWAP1 PUSH1 0x1F ADD PUSH1 0x20 SWAP1 DIV DUP2 ADD SWAP3 DUP3 PUSH2 0x497 JUMPI PUSH1 0x0 DUP6 SSTORE PUSH2 0x4DE JUMP JUMPDEST DUP3 PUSH1 0x1F LT PUSH2 0x4B0 JUMPI DUP1 MLOAD PUSH1 0xFF NOT AND DUP4 DUP1 ADD OR DUP6 SSTORE PUSH2 0x4DE JUMP JUMPDEST DUP3 DUP1 ADD PUSH1 0x1 ADD DUP6 SSTORE DUP3 ISZERO PUSH2 0x4DE JUMPI SWAP2 DUP3 ADD JUMPDEST DUP3 DUP2 GT ISZERO PUSH2 0x4DD JUMPI DUP3 MLOAD DUP3 SSTORE SWAP2 PUSH1 0x20 ADD SWAP2 SWAP1 PUSH1 0x1 ADD SWAP1 PUSH2 0x4C2 JUMP JUMPDEST JUMPDEST POP SWAP1 POP PUSH2 0x4EB SWAP2 SWAP1 PUSH2 0x4EF JUMP JUMPDEST POP SWAP1 JUMP JUMPDEST JUMPDEST DUP1 DUP3 GT ISZERO PUSH2 0x508 JUMPI PUSH1 0x0 DUP2 PUSH1 0x0 SWAP1 SSTORE POP PUSH1 0x1 ADD PUSH2 0x4F0 JUMP JUMPDEST POP SWAP1 JUMP JUMPDEST PUSH1 0x0 PUSH2 0x51F PUSH2 0x51A DUP5 PUSH2 0x8FB JUMP JUMPDEST PUSH2 0x8D6 JUMP JUMPDEST SWAP1 POP DUP3 DUP2 MSTORE PUSH1 0x20 DUP2 ADD DUP5 DUP5 DUP5 ADD GT ISZERO PUSH2 0x53B JUMPI PUSH2 0x53A PUSH2 0xAF3 JUMP JUMPDEST JUMPDEST PUSH2 0x546 DUP5 DUP3 DUP6 PUSH2 0x9E1 JUMP JUMPDEST POP SWAP4 SWAP3 POP POP POP JUMP JUMPDEST PUSH1 0x0 DUP2 CALLDATALOAD SWAP1 POP PUSH2 0x55D DUP2 PUSH2 0xB3C JUMP JUMPDEST SWAP3 SWAP2 POP POP JUMP JUMPDEST PUSH1 0x0 DUP2 MLOAD SWAP1 POP PUSH2 0x572 DUP2 PUSH2 0xB3C JUMP JUMPDEST SWAP3 SWAP2 POP POP JUMP JUMPDEST PUSH1 0x0 DUP2 MLOAD SWAP1 POP PUSH2 0x587 DUP2 PUSH2 0xB53 JUMP JUMPDEST SWAP3 SWAP2 POP POP JUMP JUMPDEST PUSH1 0x0 DUP2 CALLDATALOAD SWAP1 POP PUSH2 0x59C DUP2 PUSH2 0xB6A JUMP JUMPDEST SWAP3 SWAP2 POP POP JUMP JUMPDEST PUSH1 0x0 DUP3 PUSH1 0x1F DUP4 ADD SLT PUSH2 0x5B7 JUMPI PUSH2 0x5B6 PUSH2 0xAE9 JUMP JUMPDEST JUMPDEST DUP2 CALLDATALOAD PUSH2 0x5C7 DUP5 DUP3 PUSH1 0x20 DUP7 ADD PUSH2 0x50C JUMP JUMPDEST SWAP2 POP POP SWAP3 SWAP2 POP POP JUMP JUMPDEST PUSH1 0x0 DUP1 DUP4 PUSH1 0x1F DUP5 ADD SLT PUSH2 0x5E6 JUMPI PUSH2 0x5E5 PUSH2 0xAE9 JUMP JUMPDEST JUMPDEST DUP3 CALLDATALOAD SWAP1 POP PUSH8 0xFFFFFFFFFFFFFFFF DUP2 GT ISZERO PUSH2 0x603 JUMPI PUSH2 0x602 PUSH2 0xAE4 JUMP JUMPDEST JUMPDEST PUSH1 0x20 DUP4 ADD SWAP2 POP DUP4 PUSH1 0x1 DUP3 MUL DUP4 ADD GT ISZERO PUSH2 0x61F JUMPI PUSH2 0x61E PUSH2 0xAEE JUMP JUMPDEST JUMPDEST SWAP3 POP SWAP3 SWAP1 POP JUMP JUMPDEST PUSH1 0x0 DUP2 CALLDATALOAD SWAP1 POP PUSH2 0x635 DUP2 PUSH2 0xB81 JUMP JUMPDEST SWAP3 SWAP2 POP POP JUMP JUMPDEST PUSH1 0x0 PUSH1 0x20 DUP3 DUP5 SUB SLT ISZERO PUSH2 0x651 JUMPI PUSH2 0x650 PUSH2 0xAFD JUMP JUMPDEST JUMPDEST PUSH1 0x0 PUSH2 0x65F DUP5 DUP3 DUP6 ADD PUSH2 0x563 JUMP JUMPDEST SWAP2 POP POP SWAP3 SWAP2 POP POP JUMP JUMPDEST PUSH1 0x0 PUSH1 0x20 DUP3 DUP5 SUB SLT ISZERO PUSH2 0x67E JUMPI PUSH2 0x67D PUSH2 0xAFD JUMP JUMPDEST JUMPDEST PUSH1 0x0 PUSH2 0x68C DUP5 DUP3 DUP6 ADD PUSH2 0x578 JUMP JUMPDEST SWAP2 POP POP SWAP3 SWAP2 POP POP JUMP JUMPDEST PUSH1 0x0 DUP1 PUSH1 0x0 DUP1 PUSH1 0x60 DUP6 DUP8 SUB SLT ISZERO PUSH2 0x6AF JUMPI PUSH2 0x6AE PUSH2 0xAFD JUMP JUMPDEST JUMPDEST PUSH1 0x0 PUSH2 0x6BD DUP8 DUP3 DUP9 ADD PUSH2 0x58D JUMP JUMPDEST SWAP5 POP POP PUSH1 0x20 PUSH2 0x6CE DUP8 DUP3 DUP9 ADD PUSH2 0x54E JUMP JUMPDEST SWAP4 POP POP PUSH1 0x40 DUP6 ADD CALLDATALOAD PUSH8 0xFFFFFFFFFFFFFFFF DUP2 GT ISZERO PUSH2 0x6EF JUMPI PUSH2 0x6EE PUSH2 0xAF8 JUMP JUMPDEST JUMPDEST PUSH2 0x6FB DUP8 DUP3 DUP9 ADD PUSH2 0x5D0 JUMP JUMPDEST SWAP3 POP SWAP3 POP POP SWAP3 SWAP6 SWAP2 SWAP5 POP SWAP3 POP JUMP JUMPDEST PUSH1 0x0 DUP1 PUSH1 0x40 DUP4 DUP6 SUB SLT ISZERO PUSH2 0x720 JUMPI PUSH2 0x71F PUSH2 0xAFD JUMP JUMPDEST JUMPDEST PUSH1 0x0 PUSH2 0x72E DUP6 DUP3 DUP7 ADD PUSH2 0x626 JUMP JUMPDEST SWAP3 POP POP PUSH1 0x20 DUP4 ADD CALLDATALOAD PUSH8 0xFFFFFFFFFFFFFFFF DUP2 GT ISZERO PUSH2 0x74F JUMPI PUSH2 0x74E PUSH2 0xAF8 JUMP JUMPDEST JUMPDEST PUSH2 0x75B DUP6 DUP3 DUP7 ADD PUSH2 0x5A2 JUMP JUMPDEST SWAP2 POP POP SWAP3 POP SWAP3 SWAP1 POP JUMP JUMPDEST PUSH2 0x76E DUP2 PUSH2 0x959 JUMP JUMPDEST DUP3 MSTORE POP POP JUMP JUMPDEST PUSH2 0x77D DUP2 PUSH2 0x96B JUMP JUMPDEST DUP3 MSTORE POP POP JUMP JUMPDEST PUSH2 0x78C DUP2 PUSH2 0x977 JUMP JUMPDEST DUP3 MSTORE POP POP JUMP JUMPDEST PUSH1 0x0 PUSH2 0x79D DUP3 PUSH2 0x92C JUMP JUMPDEST PUSH2 0x7A7 DUP2 DUP6 PUSH2 0x937 JUMP JUMPDEST SWAP4 POP PUSH2 0x7B7 DUP2 DUP6 PUSH1 0x20 DUP7 ADD PUSH2 0x9F0 JUMP JUMPDEST PUSH2 0x7C0 DUP2 PUSH2 0xB02 JUMP JUMPDEST DUP5 ADD SWAP2 POP POP SWAP3 SWAP2 POP POP JUMP JUMPDEST PUSH2 0x7D4 DUP2 PUSH2 0x9AB JUMP JUMPDEST DUP3 MSTORE POP POP JUMP JUMPDEST PUSH1 0x0 PUSH2 0x7E7 PUSH1 0x1C DUP4 PUSH2 0x948 JUMP JUMPDEST SWAP2 POP PUSH2 0x7F2 DUP3 PUSH2 0xB13 JUMP JUMPDEST PUSH1 0x20 DUP3 ADD SWAP1 POP SWAP2 SWAP1 POP JUMP JUMPDEST PUSH2 0x806 DUP2 PUSH2 0x9A1 JUMP JUMPDEST DUP3 MSTORE POP POP JUMP JUMPDEST PUSH1 0x0 PUSH1 0x20 DUP3 ADD SWAP1 POP PUSH2 0x821 PUSH1 0x0 DUP4 ADD DUP5 PUSH2 0x774 JUMP JUMPDEST SWAP3 SWAP2 POP POP JUMP JUMPDEST PUSH1 0x0 PUSH1 0x20 DUP3 ADD SWAP1 POP PUSH2 0x83C PUSH1 0x0 DUP4 ADD DUP5 PUSH2 0x783 JUMP JUMPDEST SWAP3 SWAP2 POP POP JUMP JUMPDEST PUSH1 0x0 PUSH1 0x20 DUP3 ADD SWAP1 POP PUSH2 0x857 PUSH1 0x0 DUP4 ADD DUP5 PUSH2 0x7CB JUMP JUMPDEST SWAP3 SWAP2 POP POP JUMP JUMPDEST PUSH1 0x0 PUSH1 0x20 DUP3 ADD SWAP1 POP DUP2 DUP2 SUB PUSH1 0x0 DUP4 ADD MSTORE PUSH2 0x876 DUP2 PUSH2 0x7DA JUMP JUMPDEST SWAP1 POP SWAP2 SWAP1 POP JUMP JUMPDEST PUSH1 0x0 PUSH1 0x20 DUP3 ADD SWAP1 POP PUSH2 0x892 PUSH1 0x0 DUP4 ADD DUP5 PUSH2 0x7FD JUMP JUMPDEST SWAP3 SWAP2 POP POP JUMP JUMPDEST PUSH1 0x0 PUSH1 0x60 DUP3 ADD SWAP1 POP PUSH2 0x8AD PUSH1 0x0 DUP4 ADD DUP7 PUSH2 0x7FD JUMP JUMPDEST DUP2 DUP2 SUB PUSH1 0x20 DUP4 ADD MSTORE PUSH2 0x8BF DUP2 DUP6 PUSH2 0x792 JUMP JUMPDEST SWAP1 POP PUSH2 0x8CE PUSH1 0x40 DUP4 ADD DUP5 PUSH2 0x765 JUMP JUMPDEST SWAP5 SWAP4 POP POP POP POP JUMP JUMPDEST PUSH1 0x0 PUSH2 0x8E0 PUSH2 0x8F1 JUMP JUMPDEST SWAP1 POP PUSH2 0x8EC DUP3 DUP3 PUSH2 0xA55 JUMP JUMPDEST SWAP2 SWAP1 POP JUMP JUMPDEST PUSH1 0x0 PUSH1 0x40 MLOAD SWAP1 POP SWAP1 JUMP JUMPDEST PUSH1 0x0 PUSH8 0xFFFFFFFFFFFFFFFF DUP3 GT ISZERO PUSH2 0x916 JUMPI PUSH2 0x915 PUSH2 0xAB5 JUMP JUMPDEST JUMPDEST PUSH2 0x91F DUP3 PUSH2 0xB02 JUMP JUMPDEST SWAP1 POP PUSH1 0x20 DUP2 ADD SWAP1 POP SWAP2 SWAP1 POP JUMP JUMPDEST PUSH1 0x0 DUP2 MLOAD SWAP1 POP SWAP2 SWAP1 POP JUMP JUMPDEST PUSH1 0x0 DUP3 DUP3 MSTORE PUSH1 0x20 DUP3 ADD SWAP1 POP SWAP3 SWAP2 POP POP JUMP JUMPDEST PUSH1 0x0 DUP3 DUP3 MSTORE PUSH1 0x20 DUP3 ADD SWAP1 POP SWAP3 SWAP2 POP POP JUMP JUMPDEST PUSH1 0x0 PUSH2 0x964 DUP3 PUSH2 0x981 JUMP JUMPDEST SWAP1 POP SWAP2 SWAP1 POP JUMP JUMPDEST PUSH1 0x0 DUP2 ISZERO ISZERO SWAP1 POP SWAP2 SWAP1 POP JUMP JUMPDEST PUSH1 0x0 DUP2 SWAP1 POP SWAP2 SWAP1 POP JUMP JUMPDEST PUSH1 0x0 PUSH20 0xFFFFFFFFFFFFFFFFFFFFFFFFFFFFFFFFFFFFFFFF DUP3 AND SWAP1 POP SWAP2 SWAP1 POP JUMP JUMPDEST PUSH1 0x0 DUP2 SWAP1 POP SWAP2 SWAP1 POP JUMP JUMPDEST PUSH1 0x0 PUSH2 0x9B6 DUP3 PUSH2 0x9BD JUMP JUMPDEST SWAP1 POP SWAP2 SWAP1 POP JUMP JUMPDEST PUSH1 0x0 PUSH2 0x9C8 DUP3 PUSH2 0x9CF JUMP JUMPDEST SWAP1 POP SWAP2 SWAP1 POP JUMP JUMPDEST PUSH1 0x0 PUSH2 0x9DA DUP3 PUSH2 0x981 JUMP JUMPDEST SWAP1 POP SWAP2 SWAP1 POP JUMP JUMPDEST DUP3 DUP2 DUP4 CALLDATACOPY PUSH1 0x0 DUP4 DUP4 ADD MSTORE POP POP POP JUMP JUMPDEST PUSH1 0x0 JUMPDEST DUP4 DUP2 LT ISZERO PUSH2 0xA0E JUMPI DUP1 DUP3 ADD MLOAD DUP2 DUP5 ADD MSTORE PUSH1 0x20 DUP2 ADD SWAP1 POP PUSH2 0x9F3 JUMP JUMPDEST DUP4 DUP2 GT ISZERO PUSH2 0xA1D JUMPI PUSH1 0x0 DUP5 DUP5 ADD MSTORE JUMPDEST POP POP POP POP JUMP JUMPDEST PUSH1 0x0 PUSH1 0x2 DUP3 DIV SWAP1 POP PUSH1 0x1 DUP3 AND DUP1 PUSH2 0xA3B JUMPI PUSH1 0x7F DUP3 AND SWAP2 POP JUMPDEST PUSH1 0x20 DUP3 LT DUP2 EQ ISZERO PUSH2 0xA4F JUMPI PUSH2 0xA4E PUSH2 0xA86 JUMP JUMPDEST JUMPDEST POP SWAP2 SWAP1 POP JUMP JUMPDEST PUSH2 0xA5E DUP3 PUSH2 0xB02 JUMP JUMPDEST DUP2 ADD DUP2 DUP2 LT PUSH8 0xFFFFFFFFFFFFFFFF DUP3 GT OR ISZERO PUSH2 0xA7D JUMPI PUSH2 0xA7C PUSH2 0xAB5 JUMP JUMPDEST JUMPDEST DUP1 PUSH1 0x40 MSTORE POP POP POP JUMP JUMPDEST PUSH32 0x4E487B7100000000000000000000000000000000000000000000000000000000 PUSH1 0x0 MSTORE PUSH1 0x22 PUSH1 0x4 MSTORE PUSH1 0x24 PUSH1 0x0 REVERT JUMPDEST PUSH32 0x4E487B7100000000000000000000000000000000000000000000000000000000 PUSH1 0x0 MSTORE PUSH1 0x41 PUSH1 0x4 MSTORE PUSH1 0x24 PUSH1 0x0 REVERT JUMPDEST PUSH1 0x0 DUP1 REVERT JUMPDEST PUSH1 0x0 DUP1 REVERT JUMPDEST PUSH1 0x0 DUP1 REVERT JUMPDEST PUSH1 0x0 DUP1 REVERT JUMPDEST PUSH1 0x0 DUP1 REVERT JUMPDEST PUSH1 0x0 DUP1 REVERT JUMPDEST PUSH1 0x0 PUSH1 0x1F NOT PUSH1 0x1F DUP4 ADD AND SWAP1 POP SWAP2 SWAP1 POP JUMP JUMPDEST PUSH32 0x53797374656D3A204F6E6C7920636F72652063616E206D6F6469667900000000 PUSH1 0x0 DUP3 ADD MSTORE POP JUMP JUMPDEST PUSH2 0xB45 DUP2 PUSH2 0x959 JUMP JUMPDEST DUP2 EQ PUSH2 0xB50 JUMPI PUSH1 0x0 DUP1 REVERT JUMPDEST POP JUMP JUMPDEST PUSH2 0xB5C DUP2 PUSH2 0x96B JUMP JUMPDEST DUP2 EQ PUSH2 0xB67 JUMPI PUSH1 0x0 DUP1 REVERT JUMPDEST POP JUMP JUMPDEST PUSH2 0xB73 DUP2 PUSH2 0x977 JUMP JUMPDEST DUP2 EQ PUSH2 0xB7E JUMPI PUSH1 0x0 DUP1 REVERT JUMPDEST POP JUMP JUMPDEST PUSH2 0xB8A DUP2 PUSH2 0x9A1 JUMP JUMPDEST DUP2 EQ PUSH2 0xB95 JUMPI PUSH1 0x0 DUP1 REVERT JUMPDEST POP JUMP INVALID LOG2 PUSH5 0x6970667358 0x22 SLT KECCAK256 LOG0 0xC8 0x29 PUSH16 0x7C96290BE470E65AF2B4DB8BFD292E46 0xD4 SELFDESTRUCT MUL STATICCALL MSTORE8 0xF 0xAB SWAP8 MSIZE 0xAB 0x2A GASPRICE PUSH5 0x736F6C6343 STOP ADDMOD SMOD STOP CALLER "
        },
        "methodIdentifiers": {
          "IDENTIFIER()": "3c9747f3",
          "addVoteType(bytes32,address,string)": "cbba4b7f",
          "core_()": "eaddd0fd",
          "vote(uint256,bytes)": "b88b82ba"
        }
      },
      "userdoc": {
        "kind": "user",
        "methods": {},
        "version": 1
      }
    }
  }
}