{
  "contracts/votingTypes/SimpleMajority.sol": {
    "SimpleMajority": {
      "abi": [
        {
          "inputs": [
            {
              "internalType": "address",
              "name": "_core",
              "type": "address"
            }
          ],
          "stateMutability": "nonpayable",
          "type": "constructor"
        },
        {
          "inputs": [],
          "name": "IDENTIFIER",
          "outputs": [
            {
              "internalType": "bytes32",
              "name": "",
              "type": "bytes32"
            }
          ],
          "stateMutability": "view",
          "type": "function"
        },
        {
          "inputs": [],
          "name": "core_",
          "outputs": [
            {
              "internalType": "contract ICore",
              "name": "",
              "type": "address"
            }
          ],
          "stateMutability": "view",
          "type": "function"
        },
        {
          "inputs": [
            {
              "internalType": "uint256",
              "name": "_propID",
              "type": "uint256"
            },
            {
              "internalType": "bytes",
              "name": "_vote",
              "type": "bytes"
            },
            {
              "internalType": "address",
              "name": "_voter",
              "type": "address"
            }
          ],
          "name": "vote",
          "outputs": [
            {
              "internalType": "bool",
              "name": "",
              "type": "bool"
            }
          ],
          "stateMutability": "nonpayable",
          "type": "function"
        }
      ],
      "devdoc": {
        "kind": "dev",
        "methods": {},
        "version": 1
      },
      "evm": {
        "bytecode": {
          "linkReferences": {},
          "object": "60c060405234801561001057600080fd5b50604051610ca4380380610ca4833981810160405281019061003291906100b0565b7fe927a917027ae678ece03159f7b891bcfbce4670390def18906836b285c642ae8181608081815250508073ffffffffffffffffffffffffffffffffffffffff1660a08173ffffffffffffffffffffffffffffffffffffffff1660601b8152505050505061012b565b6000815190506100aa81610114565b92915050565b6000602082840312156100c6576100c561010f565b5b60006100d48482850161009b565b91505092915050565b60006100e8826100ef565b9050919050565b600073ffffffffffffffffffffffffffffffffffffffff82169050919050565b600080fd5b61011d816100dd565b811461012857600080fd5b50565b60805160a05160601c610b4661015e6000396000818160d80152818160ff01526103720152600060b40152610b466000f3fe608060405234801561001057600080fd5b50600436106100415760003560e01c80633c9747f314610046578063eaddd0fd14610064578063f636a05314610082575b600080fd5b61004e6100b2565b60405161005b91906107d2565b60405180910390f35b61006c6100d6565b60405161007991906107ed565b60405180910390f35b61009c600480360381019061009791906106b7565b6100fa565b6040516100a991906107b7565b60405180910390f35b7f000000000000000000000000000000000000000000000000000000000000000081565b7f000000000000000000000000000000000000000000000000000000000000000081565b6000807f000000000000000000000000000000000000000000000000000000000000000073ffffffffffffffffffffffffffffffffffffffff1663624a23e07f346b2ab3a980432fd8f2e24828fc9f9ee2df1548701bc542f6ec17882b3276276040518263ffffffff1660e01b815260040161017691906107d2565b60206040518083038186803b15801561018e57600080fd5b505afa1580156101a2573d6000803e3d6000fd5b505050506040513d601f19601f820116820180604052508101906101c69190610630565b90503373ffffffffffffffffffffffffffffffffffffffff168173ffffffffffffffffffffffffffffffffffffffff1614610236576040517f08c379a000000000000000000000000000000000000000000000000000000000815260040161022d90610828565b60405180910390fd5b60008086815260200190815260200160002060020160008473ffffffffffffffffffffffffffffffffffffffff1673ffffffffffffffffffffffffffffffffffffffff16815260200190815260200160002060009054906101000a900460ff16156102d6576040517f08c379a00000000000000000000000000000000000000000000000000000000081526004016102cd90610808565b60405180910390fd5b600160008087815260200190815260200160002060020160008573ffffffffffffffffffffffffffffffffffffffff1673ffffffffffffffffffffffffffffffffffffffff16815260200190815260200160002060006101000a81548160ff0219169083151502179055506001600080878152602001908152602001600020600301600082825461036791906108d8565b9250508190555060007f000000000000000000000000000000000000000000000000000000000000000073ffffffffffffffffffffffffffffffffffffffff1663624a23e07fcdd7ba10b36b7349d5c9710e5e447ec8acaa8e3cbba8d20f4393eccf61f185b16040518263ffffffff1660e01b81526004016103e991906107d2565b60206040518083038186803b15801561040157600080fd5b505afa158015610415573d6000803e3d6000fd5b505050506040513d601f19601f820116820180604052508101906104399190610630565b905060008173ffffffffffffffffffffffffffffffffffffffff16637eba557388876040518363ffffffff1660e01b8152600401610478929190610848565b602060405180830381600087803b15801561049257600080fd5b505af11580156104a6573d6000803e3d6000fd5b505050506040513d601f19601f820116820180604052508101906104ca919061068a565b90506000868060200190518101906104e2919061065d565b9050801561051b57816000808a8152602001908152602001600020600001600082825461050f91906108d8565b92505081905550610548565b816000808a8152602001908152602001600020600101600082825461054091906108d8565b925050819055505b60019450505050509392505050565b600061056a61056584610896565b610871565b90508281526020810184848401111561058657610585610a59565b5b6105918482856109b6565b509392505050565b6000813590506105a881610acb565b92915050565b6000815190506105bd81610acb565b92915050565b6000815190506105d281610ae2565b92915050565b600082601f8301126105ed576105ec610a54565b5b81356105fd848260208601610557565b91505092915050565b60008135905061061581610af9565b92915050565b60008151905061062a81610af9565b92915050565b60006020828403121561064657610645610a63565b5b6000610654848285016105ae565b91505092915050565b60006020828403121561067357610672610a63565b5b6000610681848285016105c3565b91505092915050565b6000602082840312156106a05761069f610a63565b5b60006106ae8482850161061b565b91505092915050565b6000806000606084860312156106d0576106cf610a63565b5b60006106de86828701610606565b935050602084013567ffffffffffffffff8111156106ff576106fe610a5e565b5b61070b868287016105d8565b925050604061071c86828701610599565b9150509250925092565b61072f8161092e565b82525050565b61073e81610940565b82525050565b61074d8161094c565b82525050565b61075c81610980565b82525050565b600061076f601f836108c7565b915061077a82610a79565b602082019050919050565b6000610792601e836108c7565b915061079d82610aa2565b602082019050919050565b6107b181610976565b82525050565b60006020820190506107cc6000830184610735565b92915050565b60006020820190506107e76000830184610744565b92915050565b60006020820190506108026000830184610753565b92915050565b6000602082019050818103600083015261082181610762565b9050919050565b6000602082019050818103600083015261084181610785565b9050919050565b600060408201905061085d60008301856107a8565b61086a6020830184610726565b9392505050565b600061087b61088c565b905061088782826109c5565b919050565b6000604051905090565b600067ffffffffffffffff8211156108b1576108b0610a25565b5b6108ba82610a68565b9050602081019050919050565b600082825260208201905092915050565b60006108e382610976565b91506108ee83610976565b9250827fffffffffffffffffffffffffffffffffffffffffffffffffffffffffffffffff03821115610923576109226109f6565b5b828201905092915050565b600061093982610956565b9050919050565b60008115159050919050565b6000819050919050565b600073ffffffffffffffffffffffffffffffffffffffff82169050919050565b6000819050919050565b600061098b82610992565b9050919050565b600061099d826109a4565b9050919050565b60006109af82610956565b9050919050565b82818337600083830152505050565b6109ce82610a68565b810181811067ffffffffffffffff821117156109ed576109ec610a25565b5b80604052505050565b7f4e487b7100000000000000000000000000000000000000000000000000000000600052601160045260246000fd5b7f4e487b7100000000000000000000000000000000000000000000000000000000600052604160045260246000fd5b600080fd5b600080fd5b600080fd5b600080fd5b6000601f19601f8301169050919050565b7f426f6f74683a20566f7465722048617320766f74656420666f722070726f7000600082015250565b7f566f74696e6720547970653a204f6e6c7920566f74696e6720426f6f74680000600082015250565b610ad48161092e565b8114610adf57600080fd5b50565b610aeb81610940565b8114610af657600080fd5b50565b610b0281610976565b8114610b0d57600080fd5b5056fea26469706673582212207d42884e874c57e88f42c7de9fd233ae74c5cae74b008e6f5074d231c15d7d6364736f6c63430008070033",
          "opcodes": "PUSH1 0xC0 PUSH1 0x40 MSTORE CALLVALUE DUP1 ISZERO PUSH2 0x10 JUMPI PUSH1 0x0 DUP1 REVERT JUMPDEST POP PUSH1 0x40 MLOAD PUSH2 0xCA4 CODESIZE SUB DUP1 PUSH2 0xCA4 DUP4 CODECOPY DUP2 DUP2 ADD PUSH1 0x40 MSTORE DUP2 ADD SWAP1 PUSH2 0x32 SWAP2 SWAP1 PUSH2 0xB0 JUMP JUMPDEST PUSH32 0xE927A917027AE678ECE03159F7B891BCFBCE4670390DEF18906836B285C642AE DUP2 DUP2 PUSH1 0x80 DUP2 DUP2 MSTORE POP POP DUP1 PUSH20 0xFFFFFFFFFFFFFFFFFFFFFFFFFFFFFFFFFFFFFFFF AND PUSH1 0xA0 DUP2 PUSH20 0xFFFFFFFFFFFFFFFFFFFFFFFFFFFFFFFFFFFFFFFF AND PUSH1 0x60 SHL DUP2 MSTORE POP POP POP POP POP PUSH2 0x12B JUMP JUMPDEST PUSH1 0x0 DUP2 MLOAD SWAP1 POP PUSH2 0xAA DUP2 PUSH2 0x114 JUMP JUMPDEST SWAP3 SWAP2 POP POP JUMP JUMPDEST PUSH1 0x0 PUSH1 0x20 DUP3 DUP5 SUB SLT ISZERO PUSH2 0xC6 JUMPI PUSH2 0xC5 PUSH2 0x10F JUMP JUMPDEST JUMPDEST PUSH1 0x0 PUSH2 0xD4 DUP5 DUP3 DUP6 ADD PUSH2 0x9B JUMP JUMPDEST SWAP2 POP POP SWAP3 SWAP2 POP POP JUMP JUMPDEST PUSH1 0x0 PUSH2 0xE8 DUP3 PUSH2 0xEF JUMP JUMPDEST SWAP1 POP SWAP2 SWAP1 POP JUMP JUMPDEST PUSH1 0x0 PUSH20 0xFFFFFFFFFFFFFFFFFFFFFFFFFFFFFFFFFFFFFFFF DUP3 AND SWAP1 POP SWAP2 SWAP1 POP JUMP JUMPDEST PUSH1 0x0 DUP1 REVERT JUMPDEST PUSH2 0x11D DUP2 PUSH2 0xDD JUMP JUMPDEST DUP2 EQ PUSH2 0x128 JUMPI PUSH1 0x0 DUP1 REVERT JUMPDEST POP JUMP JUMPDEST PUSH1 0x80 MLOAD PUSH1 0xA0 MLOAD PUSH1 0x60 SHR PUSH2 0xB46 PUSH2 0x15E PUSH1 0x0 CODECOPY PUSH1 0x0 DUP2 DUP2 PUSH1 0xD8 ADD MSTORE DUP2 DUP2 PUSH1 0xFF ADD MSTORE PUSH2 0x372 ADD MSTORE PUSH1 0x0 PUSH1 0xB4 ADD MSTORE PUSH2 0xB46 PUSH1 0x0 RETURN INVALID PUSH1 0x80 PUSH1 0x40 MSTORE CALLVALUE DUP1 ISZERO PUSH2 0x10 JUMPI PUSH1 0x0 DUP1 REVERT JUMPDEST POP PUSH1 0x4 CALLDATASIZE LT PUSH2 0x41 JUMPI PUSH1 0x0 CALLDATALOAD PUSH1 0xE0 SHR DUP1 PUSH4 0x3C9747F3 EQ PUSH2 0x46 JUMPI DUP1 PUSH4 0xEADDD0FD EQ PUSH2 0x64 JUMPI DUP1 PUSH4 0xF636A053 EQ PUSH2 0x82 JUMPI JUMPDEST PUSH1 0x0 DUP1 REVERT JUMPDEST PUSH2 0x4E PUSH2 0xB2 JUMP JUMPDEST PUSH1 0x40 MLOAD PUSH2 0x5B SWAP2 SWAP1 PUSH2 0x7D2 JUMP JUMPDEST PUSH1 0x40 MLOAD DUP1 SWAP2 SUB SWAP1 RETURN JUMPDEST PUSH2 0x6C PUSH2 0xD6 JUMP JUMPDEST PUSH1 0x40 MLOAD PUSH2 0x79 SWAP2 SWAP1 PUSH2 0x7ED JUMP JUMPDEST PUSH1 0x40 MLOAD DUP1 SWAP2 SUB SWAP1 RETURN JUMPDEST PUSH2 0x9C PUSH1 0x4 DUP1 CALLDATASIZE SUB DUP2 ADD SWAP1 PUSH2 0x97 SWAP2 SWAP1 PUSH2 0x6B7 JUMP JUMPDEST PUSH2 0xFA JUMP JUMPDEST PUSH1 0x40 MLOAD PUSH2 0xA9 SWAP2 SWAP1 PUSH2 0x7B7 JUMP JUMPDEST PUSH1 0x40 MLOAD DUP1 SWAP2 SUB SWAP1 RETURN JUMPDEST PUSH32 0x0 DUP2 JUMP JUMPDEST PUSH32 0x0 DUP2 JUMP JUMPDEST PUSH1 0x0 DUP1 PUSH32 0x0 PUSH20 0xFFFFFFFFFFFFFFFFFFFFFFFFFFFFFFFFFFFFFFFF AND PUSH4 0x624A23E0 PUSH32 0x346B2AB3A980432FD8F2E24828FC9F9EE2DF1548701BC542F6EC17882B327627 PUSH1 0x40 MLOAD DUP3 PUSH4 0xFFFFFFFF AND PUSH1 0xE0 SHL DUP2 MSTORE PUSH1 0x4 ADD PUSH2 0x176 SWAP2 SWAP1 PUSH2 0x7D2 JUMP JUMPDEST PUSH1 0x20 PUSH1 0x40 MLOAD DUP1 DUP4 SUB DUP2 DUP7 DUP1 EXTCODESIZE ISZERO DUP1 ISZERO PUSH2 0x18E JUMPI PUSH1 0x0 DUP1 REVERT JUMPDEST POP GAS STATICCALL ISZERO DUP1 ISZERO PUSH2 0x1A2 JUMPI RETURNDATASIZE PUSH1 0x0 DUP1 RETURNDATACOPY RETURNDATASIZE PUSH1 0x0 REVERT JUMPDEST POP POP POP POP PUSH1 0x40 MLOAD RETURNDATASIZE PUSH1 0x1F NOT PUSH1 0x1F DUP3 ADD AND DUP3 ADD DUP1 PUSH1 0x40 MSTORE POP DUP2 ADD SWAP1 PUSH2 0x1C6 SWAP2 SWAP1 PUSH2 0x630 JUMP JUMPDEST SWAP1 POP CALLER PUSH20 0xFFFFFFFFFFFFFFFFFFFFFFFFFFFFFFFFFFFFFFFF AND DUP2 PUSH20 0xFFFFFFFFFFFFFFFFFFFFFFFFFFFFFFFFFFFFFFFF AND EQ PUSH2 0x236 JUMPI PUSH1 0x40 MLOAD PUSH32 0x8C379A000000000000000000000000000000000000000000000000000000000 DUP2 MSTORE PUSH1 0x4 ADD PUSH2 0x22D SWAP1 PUSH2 0x828 JUMP JUMPDEST PUSH1 0x40 MLOAD DUP1 SWAP2 SUB SWAP1 REVERT JUMPDEST PUSH1 0x0 DUP1 DUP7 DUP2 MSTORE PUSH1 0x20 ADD SWAP1 DUP2 MSTORE PUSH1 0x20 ADD PUSH1 0x0 KECCAK256 PUSH1 0x2 ADD PUSH1 0x0 DUP5 PUSH20 0xFFFFFFFFFFFFFFFFFFFFFFFFFFFFFFFFFFFFFFFF AND PUSH20 0xFFFFFFFFFFFFFFFFFFFFFFFFFFFFFFFFFFFFFFFF AND DUP2 MSTORE PUSH1 0x20 ADD SWAP1 DUP2 MSTORE PUSH1 0x20 ADD PUSH1 0x0 KECCAK256 PUSH1 0x0 SWAP1 SLOAD SWAP1 PUSH2 0x100 EXP SWAP1 DIV PUSH1 0xFF AND ISZERO PUSH2 0x2D6 JUMPI PUSH1 0x40 MLOAD PUSH32 0x8C379A000000000000000000000000000000000000000000000000000000000 DUP2 MSTORE PUSH1 0x4 ADD PUSH2 0x2CD SWAP1 PUSH2 0x808 JUMP JUMPDEST PUSH1 0x40 MLOAD DUP1 SWAP2 SUB SWAP1 REVERT JUMPDEST PUSH1 0x1 PUSH1 0x0 DUP1 DUP8 DUP2 MSTORE PUSH1 0x20 ADD SWAP1 DUP2 MSTORE PUSH1 0x20 ADD PUSH1 0x0 KECCAK256 PUSH1 0x2 ADD PUSH1 0x0 DUP6 PUSH20 0xFFFFFFFFFFFFFFFFFFFFFFFFFFFFFFFFFFFFFFFF AND PUSH20 0xFFFFFFFFFFFFFFFFFFFFFFFFFFFFFFFFFFFFFFFF AND DUP2 MSTORE PUSH1 0x20 ADD SWAP1 DUP2 MSTORE PUSH1 0x20 ADD PUSH1 0x0 KECCAK256 PUSH1 0x0 PUSH2 0x100 EXP DUP2 SLOAD DUP2 PUSH1 0xFF MUL NOT AND SWAP1 DUP4 ISZERO ISZERO MUL OR SWAP1 SSTORE POP PUSH1 0x1 PUSH1 0x0 DUP1 DUP8 DUP2 MSTORE PUSH1 0x20 ADD SWAP1 DUP2 MSTORE PUSH1 0x20 ADD PUSH1 0x0 KECCAK256 PUSH1 0x3 ADD PUSH1 0x0 DUP3 DUP3 SLOAD PUSH2 0x367 SWAP2 SWAP1 PUSH2 0x8D8 JUMP JUMPDEST SWAP3 POP POP DUP2 SWAP1 SSTORE POP PUSH1 0x0 PUSH32 0x0 PUSH20 0xFFFFFFFFFFFFFFFFFFFFFFFFFFFFFFFFFFFFFFFF AND PUSH4 0x624A23E0 PUSH32 0xCDD7BA10B36B7349D5C9710E5E447EC8ACAA8E3CBBA8D20F4393ECCF61F185B1 PUSH1 0x40 MLOAD DUP3 PUSH4 0xFFFFFFFF AND PUSH1 0xE0 SHL DUP2 MSTORE PUSH1 0x4 ADD PUSH2 0x3E9 SWAP2 SWAP1 PUSH2 0x7D2 JUMP JUMPDEST PUSH1 0x20 PUSH1 0x40 MLOAD DUP1 DUP4 SUB DUP2 DUP7 DUP1 EXTCODESIZE ISZERO DUP1 ISZERO PUSH2 0x401 JUMPI PUSH1 0x0 DUP1 REVERT JUMPDEST POP GAS STATICCALL ISZERO DUP1 ISZERO PUSH2 0x415 JUMPI RETURNDATASIZE PUSH1 0x0 DUP1 RETURNDATACOPY RETURNDATASIZE PUSH1 0x0 REVERT JUMPDEST POP POP POP POP PUSH1 0x40 MLOAD RETURNDATASIZE PUSH1 0x1F NOT PUSH1 0x1F DUP3 ADD AND DUP3 ADD DUP1 PUSH1 0x40 MSTORE POP DUP2 ADD SWAP1 PUSH2 0x439 SWAP2 SWAP1 PUSH2 0x630 JUMP JUMPDEST SWAP1 POP PUSH1 0x0 DUP2 PUSH20 0xFFFFFFFFFFFFFFFFFFFFFFFFFFFFFFFFFFFFFFFF AND PUSH4 0x7EBA5573 DUP9 DUP8 PUSH1 0x40 MLOAD DUP4 PUSH4 0xFFFFFFFF AND PUSH1 0xE0 SHL DUP2 MSTORE PUSH1 0x4 ADD PUSH2 0x478 SWAP3 SWAP2 SWAP1 PUSH2 0x848 JUMP JUMPDEST PUSH1 0x20 PUSH1 0x40 MLOAD DUP1 DUP4 SUB DUP2 PUSH1 0x0 DUP8 DUP1 EXTCODESIZE ISZERO DUP1 ISZERO PUSH2 0x492 JUMPI PUSH1 0x0 DUP1 REVERT JUMPDEST POP GAS CALL ISZERO DUP1 ISZERO PUSH2 0x4A6 JUMPI RETURNDATASIZE PUSH1 0x0 DUP1 RETURNDATACOPY RETURNDATASIZE PUSH1 0x0 REVERT JUMPDEST POP POP POP POP PUSH1 0x40 MLOAD RETURNDATASIZE PUSH1 0x1F NOT PUSH1 0x1F DUP3 ADD AND DUP3 ADD DUP1 PUSH1 0x40 MSTORE POP DUP2 ADD SWAP1 PUSH2 0x4CA SWAP2 SWAP1 PUSH2 0x68A JUMP JUMPDEST SWAP1 POP PUSH1 0x0 DUP7 DUP1 PUSH1 0x20 ADD SWAP1 MLOAD DUP2 ADD SWAP1 PUSH2 0x4E2 SWAP2 SWAP1 PUSH2 0x65D JUMP JUMPDEST SWAP1 POP DUP1 ISZERO PUSH2 0x51B JUMPI DUP2 PUSH1 0x0 DUP1 DUP11 DUP2 MSTORE PUSH1 0x20 ADD SWAP1 DUP2 MSTORE PUSH1 0x20 ADD PUSH1 0x0 KECCAK256 PUSH1 0x0 ADD PUSH1 0x0 DUP3 DUP3 SLOAD PUSH2 0x50F SWAP2 SWAP1 PUSH2 0x8D8 JUMP JUMPDEST SWAP3 POP POP DUP2 SWAP1 SSTORE POP PUSH2 0x548 JUMP JUMPDEST DUP2 PUSH1 0x0 DUP1 DUP11 DUP2 MSTORE PUSH1 0x20 ADD SWAP1 DUP2 MSTORE PUSH1 0x20 ADD PUSH1 0x0 KECCAK256 PUSH1 0x1 ADD PUSH1 0x0 DUP3 DUP3 SLOAD PUSH2 0x540 SWAP2 SWAP1 PUSH2 0x8D8 JUMP JUMPDEST SWAP3 POP POP DUP2 SWAP1 SSTORE POP JUMPDEST PUSH1 0x1 SWAP5 POP POP POP POP POP SWAP4 SWAP3 POP POP POP JUMP JUMPDEST PUSH1 0x0 PUSH2 0x56A PUSH2 0x565 DUP5 PUSH2 0x896 JUMP JUMPDEST PUSH2 0x871 JUMP JUMPDEST SWAP1 POP DUP3 DUP2 MSTORE PUSH1 0x20 DUP2 ADD DUP5 DUP5 DUP5 ADD GT ISZERO PUSH2 0x586 JUMPI PUSH2 0x585 PUSH2 0xA59 JUMP JUMPDEST JUMPDEST PUSH2 0x591 DUP5 DUP3 DUP6 PUSH2 0x9B6 JUMP JUMPDEST POP SWAP4 SWAP3 POP POP POP JUMP JUMPDEST PUSH1 0x0 DUP2 CALLDATALOAD SWAP1 POP PUSH2 0x5A8 DUP2 PUSH2 0xACB JUMP JUMPDEST SWAP3 SWAP2 POP POP JUMP JUMPDEST PUSH1 0x0 DUP2 MLOAD SWAP1 POP PUSH2 0x5BD DUP2 PUSH2 0xACB JUMP JUMPDEST SWAP3 SWAP2 POP POP JUMP JUMPDEST PUSH1 0x0 DUP2 MLOAD SWAP1 POP PUSH2 0x5D2 DUP2 PUSH2 0xAE2 JUMP JUMPDEST SWAP3 SWAP2 POP POP JUMP JUMPDEST PUSH1 0x0 DUP3 PUSH1 0x1F DUP4 ADD SLT PUSH2 0x5ED JUMPI PUSH2 0x5EC PUSH2 0xA54 JUMP JUMPDEST JUMPDEST DUP2 CALLDATALOAD PUSH2 0x5FD DUP5 DUP3 PUSH1 0x20 DUP7 ADD PUSH2 0x557 JUMP JUMPDEST SWAP2 POP POP SWAP3 SWAP2 POP POP JUMP JUMPDEST PUSH1 0x0 DUP2 CALLDATALOAD SWAP1 POP PUSH2 0x615 DUP2 PUSH2 0xAF9 JUMP JUMPDEST SWAP3 SWAP2 POP POP JUMP JUMPDEST PUSH1 0x0 DUP2 MLOAD SWAP1 POP PUSH2 0x62A DUP2 PUSH2 0xAF9 JUMP JUMPDEST SWAP3 SWAP2 POP POP JUMP JUMPDEST PUSH1 0x0 PUSH1 0x20 DUP3 DUP5 SUB SLT ISZERO PUSH2 0x646 JUMPI PUSH2 0x645 PUSH2 0xA63 JUMP JUMPDEST JUMPDEST PUSH1 0x0 PUSH2 0x654 DUP5 DUP3 DUP6 ADD PUSH2 0x5AE JUMP JUMPDEST SWAP2 POP POP SWAP3 SWAP2 POP POP JUMP JUMPDEST PUSH1 0x0 PUSH1 0x20 DUP3 DUP5 SUB SLT ISZERO PUSH2 0x673 JUMPI PUSH2 0x672 PUSH2 0xA63 JUMP JUMPDEST JUMPDEST PUSH1 0x0 PUSH2 0x681 DUP5 DUP3 DUP6 ADD PUSH2 0x5C3 JUMP JUMPDEST SWAP2 POP POP SWAP3 SWAP2 POP POP JUMP JUMPDEST PUSH1 0x0 PUSH1 0x20 DUP3 DUP5 SUB SLT ISZERO PUSH2 0x6A0 JUMPI PUSH2 0x69F PUSH2 0xA63 JUMP JUMPDEST JUMPDEST PUSH1 0x0 PUSH2 0x6AE DUP5 DUP3 DUP6 ADD PUSH2 0x61B JUMP JUMPDEST SWAP2 POP POP SWAP3 SWAP2 POP POP JUMP JUMPDEST PUSH1 0x0 DUP1 PUSH1 0x0 PUSH1 0x60 DUP5 DUP7 SUB SLT ISZERO PUSH2 0x6D0 JUMPI PUSH2 0x6CF PUSH2 0xA63 JUMP JUMPDEST JUMPDEST PUSH1 0x0 PUSH2 0x6DE DUP7 DUP3 DUP8 ADD PUSH2 0x606 JUMP JUMPDEST SWAP4 POP POP PUSH1 0x20 DUP5 ADD CALLDATALOAD PUSH8 0xFFFFFFFFFFFFFFFF DUP2 GT ISZERO PUSH2 0x6FF JUMPI PUSH2 0x6FE PUSH2 0xA5E JUMP JUMPDEST JUMPDEST PUSH2 0x70B DUP7 DUP3 DUP8 ADD PUSH2 0x5D8 JUMP JUMPDEST SWAP3 POP POP PUSH1 0x40 PUSH2 0x71C DUP7 DUP3 DUP8 ADD PUSH2 0x599 JUMP JUMPDEST SWAP2 POP POP SWAP3 POP SWAP3 POP SWAP3 JUMP JUMPDEST PUSH2 0x72F DUP2 PUSH2 0x92E JUMP JUMPDEST DUP3 MSTORE POP POP JUMP JUMPDEST PUSH2 0x73E DUP2 PUSH2 0x940 JUMP JUMPDEST DUP3 MSTORE POP POP JUMP JUMPDEST PUSH2 0x74D DUP2 PUSH2 0x94C JUMP JUMPDEST DUP3 MSTORE POP POP JUMP JUMPDEST PUSH2 0x75C DUP2 PUSH2 0x980 JUMP JUMPDEST DUP3 MSTORE POP POP JUMP JUMPDEST PUSH1 0x0 PUSH2 0x76F PUSH1 0x1F DUP4 PUSH2 0x8C7 JUMP JUMPDEST SWAP2 POP PUSH2 0x77A DUP3 PUSH2 0xA79 JUMP JUMPDEST PUSH1 0x20 DUP3 ADD SWAP1 POP SWAP2 SWAP1 POP JUMP JUMPDEST PUSH1 0x0 PUSH2 0x792 PUSH1 0x1E DUP4 PUSH2 0x8C7 JUMP JUMPDEST SWAP2 POP PUSH2 0x79D DUP3 PUSH2 0xAA2 JUMP JUMPDEST PUSH1 0x20 DUP3 ADD SWAP1 POP SWAP2 SWAP1 POP JUMP JUMPDEST PUSH2 0x7B1 DUP2 PUSH2 0x976 JUMP JUMPDEST DUP3 MSTORE POP POP JUMP JUMPDEST PUSH1 0x0 PUSH1 0x20 DUP3 ADD SWAP1 POP PUSH2 0x7CC PUSH1 0x0 DUP4 ADD DUP5 PUSH2 0x735 JUMP JUMPDEST SWAP3 SWAP2 POP POP JUMP JUMPDEST PUSH1 0x0 PUSH1 0x20 DUP3 ADD SWAP1 POP PUSH2 0x7E7 PUSH1 0x0 DUP4 ADD DUP5 PUSH2 0x744 JUMP JUMPDEST SWAP3 SWAP2 POP POP JUMP JUMPDEST PUSH1 0x0 PUSH1 0x20 DUP3 ADD SWAP1 POP PUSH2 0x802 PUSH1 0x0 DUP4 ADD DUP5 PUSH2 0x753 JUMP JUMPDEST SWAP3 SWAP2 POP POP JUMP JUMPDEST PUSH1 0x0 PUSH1 0x20 DUP3 ADD SWAP1 POP DUP2 DUP2 SUB PUSH1 0x0 DUP4 ADD MSTORE PUSH2 0x821 DUP2 PUSH2 0x762 JUMP JUMPDEST SWAP1 POP SWAP2 SWAP1 POP JUMP JUMPDEST PUSH1 0x0 PUSH1 0x20 DUP3 ADD SWAP1 POP DUP2 DUP2 SUB PUSH1 0x0 DUP4 ADD MSTORE PUSH2 0x841 DUP2 PUSH2 0x785 JUMP JUMPDEST SWAP1 POP SWAP2 SWAP1 POP JUMP JUMPDEST PUSH1 0x0 PUSH1 0x40 DUP3 ADD SWAP1 POP PUSH2 0x85D PUSH1 0x0 DUP4 ADD DUP6 PUSH2 0x7A8 JUMP JUMPDEST PUSH2 0x86A PUSH1 0x20 DUP4 ADD DUP5 PUSH2 0x726 JUMP JUMPDEST SWAP4 SWAP3 POP POP POP JUMP JUMPDEST PUSH1 0x0 PUSH2 0x87B PUSH2 0x88C JUMP JUMPDEST SWAP1 POP PUSH2 0x887 DUP3 DUP3 PUSH2 0x9C5 JUMP JUMPDEST SWAP2 SWAP1 POP JUMP JUMPDEST PUSH1 0x0 PUSH1 0x40 MLOAD SWAP1 POP SWAP1 JUMP JUMPDEST PUSH1 0x0 PUSH8 0xFFFFFFFFFFFFFFFF DUP3 GT ISZERO PUSH2 0x8B1 JUMPI PUSH2 0x8B0 PUSH2 0xA25 JUMP JUMPDEST JUMPDEST PUSH2 0x8BA DUP3 PUSH2 0xA68 JUMP JUMPDEST SWAP1 POP PUSH1 0x20 DUP2 ADD SWAP1 POP SWAP2 SWAP1 POP JUMP JUMPDEST PUSH1 0x0 DUP3 DUP3 MSTORE PUSH1 0x20 DUP3 ADD SWAP1 POP SWAP3 SWAP2 POP POP JUMP JUMPDEST PUSH1 0x0 PUSH2 0x8E3 DUP3 PUSH2 0x976 JUMP JUMPDEST SWAP2 POP PUSH2 0x8EE DUP4 PUSH2 0x976 JUMP JUMPDEST SWAP3 POP DUP3 PUSH32 0xFFFFFFFFFFFFFFFFFFFFFFFFFFFFFFFFFFFFFFFFFFFFFFFFFFFFFFFFFFFFFFFF SUB DUP3 GT ISZERO PUSH2 0x923 JUMPI PUSH2 0x922 PUSH2 0x9F6 JUMP JUMPDEST JUMPDEST DUP3 DUP3 ADD SWAP1 POP SWAP3 SWAP2 POP POP JUMP JUMPDEST PUSH1 0x0 PUSH2 0x939 DUP3 PUSH2 0x956 JUMP JUMPDEST SWAP1 POP SWAP2 SWAP1 POP JUMP JUMPDEST PUSH1 0x0 DUP2 ISZERO ISZERO SWAP1 POP SWAP2 SWAP1 POP JUMP JUMPDEST PUSH1 0x0 DUP2 SWAP1 POP SWAP2 SWAP1 POP JUMP JUMPDEST PUSH1 0x0 PUSH20 0xFFFFFFFFFFFFFFFFFFFFFFFFFFFFFFFFFFFFFFFF DUP3 AND SWAP1 POP SWAP2 SWAP1 POP JUMP JUMPDEST PUSH1 0x0 DUP2 SWAP1 POP SWAP2 SWAP1 POP JUMP JUMPDEST PUSH1 0x0 PUSH2 0x98B DUP3 PUSH2 0x992 JUMP JUMPDEST SWAP1 POP SWAP2 SWAP1 POP JUMP JUMPDEST PUSH1 0x0 PUSH2 0x99D DUP3 PUSH2 0x9A4 JUMP JUMPDEST SWAP1 POP SWAP2 SWAP1 POP JUMP JUMPDEST PUSH1 0x0 PUSH2 0x9AF DUP3 PUSH2 0x956 JUMP JUMPDEST SWAP1 POP SWAP2 SWAP1 POP JUMP JUMPDEST DUP3 DUP2 DUP4 CALLDATACOPY PUSH1 0x0 DUP4 DUP4 ADD MSTORE POP POP POP JUMP JUMPDEST PUSH2 0x9CE DUP3 PUSH2 0xA68 JUMP JUMPDEST DUP2 ADD DUP2 DUP2 LT PUSH8 0xFFFFFFFFFFFFFFFF DUP3 GT OR ISZERO PUSH2 0x9ED JUMPI PUSH2 0x9EC PUSH2 0xA25 JUMP JUMPDEST JUMPDEST DUP1 PUSH1 0x40 MSTORE POP POP POP JUMP JUMPDEST PUSH32 0x4E487B7100000000000000000000000000000000000000000000000000000000 PUSH1 0x0 MSTORE PUSH1 0x11 PUSH1 0x4 MSTORE PUSH1 0x24 PUSH1 0x0 REVERT JUMPDEST PUSH32 0x4E487B7100000000000000000000000000000000000000000000000000000000 PUSH1 0x0 MSTORE PUSH1 0x41 PUSH1 0x4 MSTORE PUSH1 0x24 PUSH1 0x0 REVERT JUMPDEST PUSH1 0x0 DUP1 REVERT JUMPDEST PUSH1 0x0 DUP1 REVERT JUMPDEST PUSH1 0x0 DUP1 REVERT JUMPDEST PUSH1 0x0 DUP1 REVERT JUMPDEST PUSH1 0x0 PUSH1 0x1F NOT PUSH1 0x1F DUP4 ADD AND SWAP1 POP SWAP2 SWAP1 POP JUMP JUMPDEST PUSH32 0x426F6F74683A20566F7465722048617320766F74656420666F722070726F7000 PUSH1 0x0 DUP3 ADD MSTORE POP JUMP JUMPDEST PUSH32 0x566F74696E6720547970653A204F6E6C7920566F74696E6720426F6F74680000 PUSH1 0x0 DUP3 ADD MSTORE POP JUMP JUMPDEST PUSH2 0xAD4 DUP2 PUSH2 0x92E JUMP JUMPDEST DUP2 EQ PUSH2 0xADF JUMPI PUSH1 0x0 DUP1 REVERT JUMPDEST POP JUMP JUMPDEST PUSH2 0xAEB DUP2 PUSH2 0x940 JUMP JUMPDEST DUP2 EQ PUSH2 0xAF6 JUMPI PUSH1 0x0 DUP1 REVERT JUMPDEST POP JUMP JUMPDEST PUSH2 0xB02 DUP2 PUSH2 0x976 JUMP JUMPDEST DUP2 EQ PUSH2 0xB0D JUMPI PUSH1 0x0 DUP1 REVERT JUMPDEST POP JUMP INVALID LOG2 PUSH5 0x6970667358 0x22 SLT KECCAK256 PUSH30 0x42884E874C57E88F42C7DE9FD233AE74C5CAE74B008E6F5074D231C15D7D PUSH4 0x64736F6C PUSH4 0x43000807 STOP CALLER "
        },
        "methodIdentifiers": {
          "IDENTIFIER()": "3c9747f3",
          "core_()": "eaddd0fd",
          "vote(uint256,bytes,address)": "f636a053"
        }
      },
      "userdoc": {
        "kind": "user",
        "methods": {},
        "version": 1
      }
    }
  }
}