{
  "contracts/Executables.sol": {
    "Executables": {
      "abi": [
        {
          "inputs": [
            {
              "internalType": "address",
              "name": "_core",
              "type": "address"
            }
          ],
          "stateMutability": "nonpayable",
          "type": "constructor"
        },
        {
          "anonymous": false,
          "inputs": [
            {
              "indexed": false,
              "internalType": "bytes32",
              "name": "exeID",
              "type": "bytes32"
            },
            {
              "indexed": false,
              "internalType": "address[]",
              "name": "targets",
              "type": "address[]"
            },
            {
              "indexed": false,
              "internalType": "string",
              "name": "description",
              "type": "string"
            }
          ],
          "name": "MintExecutable",
          "type": "event"
        },
        {
          "inputs": [],
          "name": "IDENTIFIER",
          "outputs": [
            {
              "internalType": "bytes32",
              "name": "",
              "type": "bytes32"
            }
          ],
          "stateMutability": "view",
          "type": "function"
        },
        {
          "inputs": [],
          "name": "core_",
          "outputs": [
            {
              "internalType": "contract ICore",
              "name": "",
              "type": "address"
            }
          ],
          "stateMutability": "view",
          "type": "function"
        },
        {
          "inputs": [
            {
              "internalType": "address[]",
              "name": "_targets",
              "type": "address[]"
            },
            {
              "internalType": "string[]",
              "name": "_functionSignatures",
              "type": "string[]"
            },
            {
              "internalType": "bytes[]",
              "name": "_encodedParameters",
              "type": "bytes[]"
            },
            {
              "internalType": "uint256[]",
              "name": "_values",
              "type": "uint256[]"
            },
            {
              "internalType": "string",
              "name": "_description",
              "type": "string"
            }
          ],
          "name": "createExe",
          "outputs": [
            {
              "internalType": "bytes32",
              "name": "exeID",
              "type": "bytes32"
            }
          ],
          "stateMutability": "nonpayable",
          "type": "function"
        },
        {
          "inputs": [
            {
              "internalType": "uint256",
              "name": "_propID",
              "type": "uint256"
            },
            {
              "internalType": "bytes32",
              "name": "_exeID",
              "type": "bytes32"
            }
          ],
          "name": "createPropExe",
          "outputs": [
            {
              "internalType": "bytes32",
              "name": "propExeID",
              "type": "bytes32"
            }
          ],
          "stateMutability": "nonpayable",
          "type": "function"
        },
        {
          "inputs": [
            {
              "internalType": "bytes32",
              "name": "_exeID",
              "type": "bytes32"
            }
          ],
          "name": "getExe",
          "outputs": [
            {
              "internalType": "address[]",
              "name": "targets",
              "type": "address[]"
            },
            {
              "internalType": "bytes[]",
              "name": "callData",
              "type": "bytes[]"
            },
            {
              "internalType": "uint256[]",
              "name": "values",
              "type": "uint256[]"
            }
          ],
          "stateMutability": "view",
          "type": "function"
        },
        {
          "inputs": [
            {
              "internalType": "address[]",
              "name": "_targets",
              "type": "address[]"
            },
            {
              "internalType": "uint256[]",
              "name": "_values",
              "type": "uint256[]"
            },
            {
              "internalType": "bytes[]",
              "name": "_callData",
              "type": "bytes[]"
            },
            {
              "internalType": "string",
              "name": "_description",
              "type": "string"
            }
          ],
          "name": "getExeId",
          "outputs": [
            {
              "internalType": "bytes32",
              "name": "",
              "type": "bytes32"
            }
          ],
          "stateMutability": "pure",
          "type": "function"
        },
        {
          "inputs": [
            {
              "internalType": "bytes32",
              "name": "_exeID",
              "type": "bytes32"
            }
          ],
          "name": "getExeInfo",
          "outputs": [
            {
              "internalType": "address[]",
              "name": "targets",
              "type": "address[]"
            },
            {
              "internalType": "bytes[]",
              "name": "callData",
              "type": "bytes[]"
            },
            {
              "internalType": "uint256[]",
              "name": "values",
              "type": "uint256[]"
            },
            {
              "internalType": "string",
              "name": "description",
              "type": "string"
            },
            {
              "internalType": "address",
              "name": "creator",
              "type": "address"
            }
          ],
          "stateMutability": "view",
          "type": "function"
        }
      ],
      "devdoc": {
        "kind": "dev",
        "methods": {},
        "version": 1
      },
      "evm": {
        "bytecode": {
          "linkReferences": {},
          "object": "60c06040523480156200001157600080fd5b506040516200261e3803806200261e8339818101604052810190620000379190620000b8565b7f59e2d72f5870ccddd14d35394bd3c22374071b2da7c07a3d6c3b690400b736288181608081815250508073ffffffffffffffffffffffffffffffffffffffff1660a08173ffffffffffffffffffffffffffffffffffffffff1660601b815250505050506200013d565b600081519050620000b28162000123565b92915050565b600060208284031215620000d157620000d06200011e565b5b6000620000e184828501620000a1565b91505092915050565b6000620000f782620000fe565b9050919050565b600073ffffffffffffffffffffffffffffffffffffffff82169050919050565b600080fd5b6200012e81620000ea565b81146200013a57600080fd5b50565b60805160a05160601c6124b16200016d600039600081816107230152610ddb015260006108f001526124b16000f3fe608060405234801561001057600080fd5b506004361061007d5760003560e01c80633c9747f31161005b5780633c9747f314610112578063971aa75e14610130578063e075132614610162578063eaddd0fd146101965761007d565b80630ee476bc14610082578063184b9ce5146100b2578063204d67b5146100e2575b600080fd5b61009c600480360381019061009791906116e5565b6101b4565b6040516100a99190611d0c565b60405180910390f35b6100cc60048036038101906100c791906115c8565b6101ed565b6040516100d99190611d0c565b60405180910390f35b6100fc60048036038101906100f791906117e9565b610708565b6040516101099190611d0c565b60405180910390f35b61011a6108ee565b6040516101279190611d0c565b60405180910390f35b61014a600480360381019061014591906117bc565b610912565b60405161015993929190611bf0565b60405180910390f35b61017c600480360381019061017791906117bc565b610b07565b60405161018d959493929190611c3c565b60405180910390f35b61019e610dd9565b6040516101ab9190611d70565b60405180910390f35b6000848484846040516020016101cd9493929190611cab565b604051602081830303815290604052805190602001209050949350505050565b6000888890508b8b90501480156102095750868690508b8b9050145b801561021a5750848490508b8b9050145b610259576040517f08c379a000000000000000000000000000000000000000000000000000000000815260040161025090611dcb565b60405180910390fd5b60008b8b905067ffffffffffffffff81111561027857610277612325565b5b6040519080825280602002602001820160405280156102ab57816020015b60608152602001906001900390816102965790505b50905060005b8c8c905081101561036e578a8a828181106102cf576102ce6122f6565b5b90506020028101906102e19190611e6e565b6040516102ef929190611bd7565b604051809103902089898381811061030a576103096122f6565b5b905060200281019061031c9190611e0b565b60405160200161032e93929190611bad565b6040516020818303038152906040528282815181106103505761034f6122f6565b5b6020026020010181905250808061036690612245565b9150506102b1565b506104418c8c80806020026020016040519081016040528093929190818152602001838360200280828437600081840152601f19601f82011690508083019250505050505050878780806020026020016040519081016040528093929190818152602001838360200280828437600081840152601f19601f820116905080830192505050505050508387878080601f016020809104026020016040519081016040528093929190818152602001838380828437600081840152601f19601f820116905080830192505050505050506101b4565b9150600073ffffffffffffffffffffffffffffffffffffffff1660008084815260200190815260200160002060040160009054906101000a900473ffffffffffffffffffffffffffffffffffffffff1673ffffffffffffffffffffffffffffffffffffffff16146104e7576040517f08c379a00000000000000000000000000000000000000000000000000000000081526004016104de90611deb565b60405180910390fd5b6040518060a001604052808d8d80806020026020016040519081016040528093929190818152602001838360200280828437600081840152601f19601f820116905080830192505050505050508152602001878780806020026020016040519081016040528093929190818152602001838360200280828437600081840152601f19601f82011690508083019250505050505050815260200182815260200185858080601f016020809104026020016040519081016040528093929190818152602001838380828437600081840152601f19601f8201169050808301925050505050505081526020013373ffffffffffffffffffffffffffffffffffffffff168152506000808481526020019081526020016000206000820151816000019080519060200190610618929190610dfd565b506020820151816001019080519060200190610635929190610e87565b506040820151816002019080519060200190610652929190610ed4565b50606082015181600301908051906020019061066f929190610f34565b5060808201518160040160006101000a81548173ffffffffffffffffffffffffffffffffffffffff021916908373ffffffffffffffffffffffffffffffffffffffff1602179055509050507f9efa23cf1a1ca9f8f84d1c5ab98b64e67b7eb5c0ec0cb0f02658ce7ec7d7ced3828d8d87876040516106f1959493929190611d27565b60405180910390a1509a9950505050505050505050565b60003373ffffffffffffffffffffffffffffffffffffffff167f000000000000000000000000000000000000000000000000000000000000000073ffffffffffffffffffffffffffffffffffffffff1663624a23e07f36209a57dfd79e3872ec3a0c88c653bbe7e32a12306e5e1f92f118c1936ae8b26040518263ffffffff1660e01b815260040161079a9190611d0c565b60206040518083038186803b1580156107b257600080fd5b505afa1580156107c6573d6000803e3d6000fd5b505050506040513d601f19601f820116820180604052508101906107ea919061159b565b73ffffffffffffffffffffffffffffffffffffffff1614610840576040517f08c379a000000000000000000000000000000000000000000000000000000000815260040161083790611dab565b60405180910390fd5b600073ffffffffffffffffffffffffffffffffffffffff1660008084815260200190815260200160002060040160009054906101000a900473ffffffffffffffffffffffffffffffffffffffff1673ffffffffffffffffffffffffffffffffffffffff1614156108e5576040517f08c379a00000000000000000000000000000000000000000000000000000000081526004016108dc90611d8b565b60405180910390fd5b81905092915050565b7f000000000000000000000000000000000000000000000000000000000000000081565b60608060606000808581526020019081526020016000206000018054806020026020016040519081016040528092919081815260200182805480156109ac57602002820191906000526020600020905b8160009054906101000a900473ffffffffffffffffffffffffffffffffffffffff1673ffffffffffffffffffffffffffffffffffffffff1681526020019060010190808311610962575b50505050509250600080858152602001908152602001600020600201805480602002602001604051908101604052809291908181526020016000905b82821015610a94578382906000526020600020018054610a07906121e2565b80601f0160208091040260200160405190810160405280929190818152602001828054610a33906121e2565b8015610a805780601f10610a5557610100808354040283529160200191610a80565b820191906000526020600020905b815481529060010190602001808311610a6357829003601f168201915b5050505050815260200190600101906109e8565b505050509150600080858152602001908152602001600020600101805480602002602001604051908101604052809291908181526020018280548015610af957602002820191906000526020600020905b815481526020019060010190808311610ae5575b505050505090509193909250565b6060806060806000806000878152602001908152602001600020600001805480602002602001604051908101604052809291908181526020018280548015610ba457602002820191906000526020600020905b8160009054906101000a900473ffffffffffffffffffffffffffffffffffffffff1673ffffffffffffffffffffffffffffffffffffffff1681526020019060010190808311610b5a575b50505050509450600080878152602001908152602001600020600201805480602002602001604051908101604052809291908181526020016000905b82821015610c8c578382906000526020600020018054610bff906121e2565b80601f0160208091040260200160405190810160405280929190818152602001828054610c2b906121e2565b8015610c785780601f10610c4d57610100808354040283529160200191610c78565b820191906000526020600020905b815481529060010190602001808311610c5b57829003601f168201915b505050505081526020019060010190610be0565b505050509350600080878152602001908152602001600020600101805480602002602001604051908101604052809291908181526020018280548015610cf157602002820191906000526020600020905b815481526020019060010190808311610cdd575b505050505092506000808781526020019081526020016000206003018054610d18906121e2565b80601f0160208091040260200160405190810160405280929190818152602001828054610d44906121e2565b8015610d915780601f10610d6657610100808354040283529160200191610d91565b820191906000526020600020905b815481529060010190602001808311610d7457829003601f168201915b5050505050915060008087815260200190815260200160002060040160009054906101000a900473ffffffffffffffffffffffffffffffffffffffff16905091939590929450565b7f000000000000000000000000000000000000000000000000000000000000000081565b828054828255906000526020600020908101928215610e76579160200282015b82811115610e755782518260006101000a81548173ffffffffffffffffffffffffffffffffffffffff021916908373ffffffffffffffffffffffffffffffffffffffff16021790555091602001919060010190610e1d565b5b509050610e839190610fba565b5090565b828054828255906000526020600020908101928215610ec3579160200282015b82811115610ec2578251825591602001919060010190610ea7565b5b509050610ed09190610fba565b5090565b828054828255906000526020600020908101928215610f23579160200282015b82811115610f22578251829080519060200190610f12929190610fd7565b5091602001919060010190610ef4565b5b509050610f30919061105d565b5090565b828054610f40906121e2565b90600052602060002090601f016020900481019282610f625760008555610fa9565b82601f10610f7b57805160ff1916838001178555610fa9565b82800160010185558215610fa9579182015b82811115610fa8578251825591602001919060010190610f8d565b5b509050610fb69190610fba565b5090565b5b80821115610fd3576000816000905550600101610fbb565b5090565b828054610fe3906121e2565b90600052602060002090601f016020900481019282611005576000855561104c565b82601f1061101e57805160ff191683800117855561104c565b8280016001018555821561104c579182015b8281111561104b578251825591602001919060010190611030565b5b5090506110599190610fba565b5090565b5b8082111561107d57600081816110749190611081565b5060010161105e565b5090565b50805461108d906121e2565b6000825580601f1061109f57506110be565b601f0160209004906000526020600020908101906110bd9190610fba565b5b50565b60006110d46110cf84611ef6565b611ed1565b905080838252602082019050828560208602820111156110f7576110f6612368565b5b60005b85811015611127578161110d88826112b3565b8452602084019350602083019250506001810190506110fa565b5050509392505050565b600061114461113f84611f22565b611ed1565b9050808382526020820190508285602086028201111561116757611166612368565b5b60005b858110156111b557813567ffffffffffffffff81111561118d5761118c612359565b5b80860161119a89826114d4565b8552602085019450602084019350505060018101905061116a565b5050509392505050565b60006111d26111cd84611f4e565b611ed1565b905080838252602082019050828560208602820111156111f5576111f4612368565b5b60005b85811015611225578161120b8882611586565b8452602084019350602083019250506001810190506111f8565b5050509392505050565b600061124261123d84611f7a565b611ed1565b90508281526020810184848401111561125e5761125d612372565b5b6112698482856121a0565b509392505050565b600061128461127f84611fab565b611ed1565b9050828152602081018484840111156112a05761129f612372565b5b6112ab8482856121a0565b509392505050565b6000813590506112c281612436565b92915050565b6000815190506112d781612436565b92915050565b60008083601f8401126112f3576112f2612359565b5b8235905067ffffffffffffffff8111156113105761130f612354565b5b60208301915083602082028301111561132c5761132b612368565b5b9250929050565b600082601f83011261134857611347612359565b5b81356113588482602086016110c1565b91505092915050565b60008083601f84011261137757611376612359565b5b8235905067ffffffffffffffff81111561139457611393612354565b5b6020830191508360208202830111156113b0576113af612368565b5b9250929050565b600082601f8301126113cc576113cb612359565b5b81356113dc848260208601611131565b91505092915050565b60008083601f8401126113fb576113fa612359565b5b8235905067ffffffffffffffff81111561141857611417612354565b5b60208301915083602082028301111561143457611433612368565b5b9250929050565b60008083601f84011261145157611450612359565b5b8235905067ffffffffffffffff81111561146e5761146d612354565b5b60208301915083602082028301111561148a57611489612368565b5b9250929050565b600082601f8301126114a6576114a5612359565b5b81356114b68482602086016111bf565b91505092915050565b6000813590506114ce8161244d565b92915050565b600082601f8301126114e9576114e8612359565b5b81356114f984826020860161122f565b91505092915050565b60008083601f84011261151857611517612359565b5b8235905067ffffffffffffffff81111561153557611534612354565b5b60208301915083600182028301111561155157611550612368565b5b9250929050565b600082601f83011261156d5761156c612359565b5b813561157d848260208601611271565b91505092915050565b60008135905061159581612464565b92915050565b6000602082840312156115b1576115b061237c565b5b60006115bf848285016112c8565b91505092915050565b60008060008060008060008060008060a08b8d0312156115eb576115ea61237c565b5b60008b013567ffffffffffffffff81111561160957611608612377565b5b6116158d828e016112dd565b9a509a505060208b013567ffffffffffffffff81111561163857611637612377565b5b6116448d828e016113e5565b985098505060408b013567ffffffffffffffff81111561166757611666612377565b5b6116738d828e01611361565b965096505060608b013567ffffffffffffffff81111561169657611695612377565b5b6116a28d828e0161143b565b945094505060808b013567ffffffffffffffff8111156116c5576116c4612377565b5b6116d18d828e01611502565b92509250509295989b9194979a5092959850565b600080600080608085870312156116ff576116fe61237c565b5b600085013567ffffffffffffffff81111561171d5761171c612377565b5b61172987828801611333565b945050602085013567ffffffffffffffff81111561174a57611749612377565b5b61175687828801611491565b935050604085013567ffffffffffffffff81111561177757611776612377565b5b611783878288016113b7565b925050606085013567ffffffffffffffff8111156117a4576117a3612377565b5b6117b087828801611558565b91505092959194509250565b6000602082840312156117d2576117d161237c565b5b60006117e0848285016114bf565b91505092915050565b60008060408385031215611800576117ff61237c565b5b600061180e85828601611586565b925050602061181f858286016114bf565b9150509250929050565b6000611835838361186d565b60208301905092915050565b600061184d8383611a64565b905092915050565b60006118618383611b9e565b60208301905092915050565b611876816120f8565b82525050565b611885816120f8565b82525050565b60006118978385612081565b93506118a282611fdc565b8060005b858110156118db576118b882846120e1565b6118c28882611829565b97506118cd8361204d565b9250506001810190506118a6565b5085925050509392505050565b60006118f382612016565b6118fd8185612081565b935061190883611fe6565b8060005b838110156119395781516119208882611829565b975061192b8361205a565b92505060018101905061190c565b5085935050505092915050565b600061195182612021565b61195b8185612092565b93508360208202850161196d85611ff6565b8060005b858110156119a9578484038952815161198a8582611841565b945061199583612067565b925060208a01995050600181019050611971565b50829750879550505050505092915050565b60006119c68261202c565b6119d081856120a3565b93506119db83612006565b8060005b83811015611a0c5781516119f38882611855565b97506119fe83612074565b9250506001810190506119df565b5085935050505092915050565b611a228161210a565b82525050565b611a39611a3482612114565b61228e565b82525050565b6000611a4b83856120c5565b9350611a588385846121a0565b82840190509392505050565b6000611a6f82612037565b611a7981856120b4565b9350611a898185602086016121af565b611a9281612381565b840191505092915050565b611aa68161216a565b82525050565b6000611ab883856120d0565b9350611ac58385846121a0565b611ace83612381565b840190509392505050565b6000611ae482612042565b611aee81856120d0565b9350611afe8185602086016121af565b611b0781612381565b840191505092915050565b6000611b1f6017836120d0565b9150611b2a82612392565b602082019050919050565b6000611b426017836120d0565b9150611b4d826123bb565b602082019050919050565b6000611b65601a836120d0565b9150611b70826123e4565b602082019050919050565b6000611b88601a836120d0565b9150611b938261240d565b602082019050919050565b611ba781612160565b82525050565b6000611bb98286611a28565b600482019150611bca828486611a3f565b9150819050949350505050565b6000611be4828486611a3f565b91508190509392505050565b60006060820190508181036000830152611c0a81866118e8565b90508181036020830152611c1e8185611946565b90508181036040830152611c3281846119bb565b9050949350505050565b600060a0820190508181036000830152611c5681886118e8565b90508181036020830152611c6a8187611946565b90508181036040830152611c7e81866119bb565b90508181036060830152611c928185611ad9565b9050611ca1608083018461187c565b9695505050505050565b60006080820190508181036000830152611cc581876118e8565b90508181036020830152611cd981866119bb565b90508181036040830152611ced8185611946565b90508181036060830152611d018184611ad9565b905095945050505050565b6000602082019050611d216000830184611a19565b92915050565b6000606082019050611d3c6000830188611a19565b8181036020830152611d4f81868861188b565b90508181036040830152611d64818486611aac565b90509695505050505050565b6000602082019050611d856000830184611a9d565b92915050565b60006020820190508181036000830152611da481611b12565b9050919050565b60006020820190508181036000830152611dc481611b35565b9050919050565b60006020820190508181036000830152611de481611b58565b9050919050565b60006020820190508181036000830152611e0481611b7b565b9050919050565b60008083356001602003843603038112611e2857611e27612363565b5b80840192508235915067ffffffffffffffff821115611e4a57611e4961235e565b5b602083019250600182023603831315611e6657611e6561236d565b5b509250929050565b60008083356001602003843603038112611e8b57611e8a612363565b5b80840192508235915067ffffffffffffffff821115611ead57611eac61235e565b5b602083019250600182023603831315611ec957611ec861236d565b5b509250929050565b6000611edb611eec565b9050611ee78282612214565b919050565b6000604051905090565b600067ffffffffffffffff821115611f1157611f10612325565b5b602082029050602081019050919050565b600067ffffffffffffffff821115611f3d57611f3c612325565b5b602082029050602081019050919050565b600067ffffffffffffffff821115611f6957611f68612325565b5b602082029050602081019050919050565b600067ffffffffffffffff821115611f9557611f94612325565b5b611f9e82612381565b9050602081019050919050565b600067ffffffffffffffff821115611fc657611fc5612325565b5b611fcf82612381565b9050602081019050919050565b6000819050919050565b6000819050602082019050919050565b6000819050602082019050919050565b6000819050602082019050919050565b600081519050919050565b600081519050919050565b600081519050919050565b600081519050919050565b600081519050919050565b6000602082019050919050565b6000602082019050919050565b6000602082019050919050565b6000602082019050919050565b600082825260208201905092915050565b600082825260208201905092915050565b600082825260208201905092915050565b600082825260208201905092915050565b600081905092915050565b600082825260208201905092915050565b60006120f060208401846112b3565b905092915050565b600061210382612140565b9050919050565b6000819050919050565b60007fffffffff0000000000000000000000000000000000000000000000000000000082169050919050565b600073ffffffffffffffffffffffffffffffffffffffff82169050919050565b6000819050919050565b60006121758261217c565b9050919050565b60006121878261218e565b9050919050565b600061219982612140565b9050919050565b82818337600083830152505050565b60005b838110156121cd5780820151818401526020810190506121b2565b838111156121dc576000848401525b50505050565b600060028204905060018216806121fa57607f821691505b6020821081141561220e5761220d6122c7565b5b50919050565b61221d82612381565b810181811067ffffffffffffffff8211171561223c5761223b612325565b5b80604052505050565b600061225082612160565b91507fffffffffffffffffffffffffffffffffffffffffffffffffffffffffffffffff82141561228357612282612298565b5b600182019050919050565b6000819050919050565b7f4e487b7100000000000000000000000000000000000000000000000000000000600052601160045260246000fd5b7f4e487b7100000000000000000000000000000000000000000000000000000000600052602260045260246000fd5b7f4e487b7100000000000000000000000000000000000000000000000000000000600052603260045260246000fd5b7f4e487b7100000000000000000000000000000000000000000000000000000000600052604160045260246000fd5b600080fd5b600080fd5b600080fd5b600080fd5b600080fd5b600080fd5b600080fd5b600080fd5b600080fd5b6000601f19601f8301169050919050565b7f4578653a2045786520646f6573206e6f74206578697374000000000000000000600082015250565b7f4578653a204f6e6c792070726f702063616e2063616c6c000000000000000000600082015250565b7f4578653a204172726179206c656e677468206d69736d61746368000000000000600082015250565b7f4578653a2045786520494420616c726561647920696e20757365000000000000600082015250565b61243f816120f8565b811461244a57600080fd5b50565b6124568161210a565b811461246157600080fd5b50565b61246d81612160565b811461247857600080fd5b5056fea26469706673582212203cec472bfed9a7c8fb2bdacf5c91634933aa4ecd807d5ab434888f5d2e143bda64736f6c63430008070033",
          "opcodes": "PUSH1 0xC0 PUSH1 0x40 MSTORE CALLVALUE DUP1 ISZERO PUSH3 0x11 JUMPI PUSH1 0x0 DUP1 REVERT JUMPDEST POP PUSH1 0x40 MLOAD PUSH3 0x261E CODESIZE SUB DUP1 PUSH3 0x261E DUP4 CODECOPY DUP2 DUP2 ADD PUSH1 0x40 MSTORE DUP2 ADD SWAP1 PUSH3 0x37 SWAP2 SWAP1 PUSH3 0xB8 JUMP JUMPDEST PUSH32 0x59E2D72F5870CCDDD14D35394BD3C22374071B2DA7C07A3D6C3B690400B73628 DUP2 DUP2 PUSH1 0x80 DUP2 DUP2 MSTORE POP POP DUP1 PUSH20 0xFFFFFFFFFFFFFFFFFFFFFFFFFFFFFFFFFFFFFFFF AND PUSH1 0xA0 DUP2 PUSH20 0xFFFFFFFFFFFFFFFFFFFFFFFFFFFFFFFFFFFFFFFF AND PUSH1 0x60 SHL DUP2 MSTORE POP POP POP POP POP PUSH3 0x13D JUMP JUMPDEST PUSH1 0x0 DUP2 MLOAD SWAP1 POP PUSH3 0xB2 DUP2 PUSH3 0x123 JUMP JUMPDEST SWAP3 SWAP2 POP POP JUMP JUMPDEST PUSH1 0x0 PUSH1 0x20 DUP3 DUP5 SUB SLT ISZERO PUSH3 0xD1 JUMPI PUSH3 0xD0 PUSH3 0x11E JUMP JUMPDEST JUMPDEST PUSH1 0x0 PUSH3 0xE1 DUP5 DUP3 DUP6 ADD PUSH3 0xA1 JUMP JUMPDEST SWAP2 POP POP SWAP3 SWAP2 POP POP JUMP JUMPDEST PUSH1 0x0 PUSH3 0xF7 DUP3 PUSH3 0xFE JUMP JUMPDEST SWAP1 POP SWAP2 SWAP1 POP JUMP JUMPDEST PUSH1 0x0 PUSH20 0xFFFFFFFFFFFFFFFFFFFFFFFFFFFFFFFFFFFFFFFF DUP3 AND SWAP1 POP SWAP2 SWAP1 POP JUMP JUMPDEST PUSH1 0x0 DUP1 REVERT JUMPDEST PUSH3 0x12E DUP2 PUSH3 0xEA JUMP JUMPDEST DUP2 EQ PUSH3 0x13A JUMPI PUSH1 0x0 DUP1 REVERT JUMPDEST POP JUMP JUMPDEST PUSH1 0x80 MLOAD PUSH1 0xA0 MLOAD PUSH1 0x60 SHR PUSH2 0x24B1 PUSH3 0x16D PUSH1 0x0 CODECOPY PUSH1 0x0 DUP2 DUP2 PUSH2 0x723 ADD MSTORE PUSH2 0xDDB ADD MSTORE PUSH1 0x0 PUSH2 0x8F0 ADD MSTORE PUSH2 0x24B1 PUSH1 0x0 RETURN INVALID PUSH1 0x80 PUSH1 0x40 MSTORE CALLVALUE DUP1 ISZERO PUSH2 0x10 JUMPI PUSH1 0x0 DUP1 REVERT JUMPDEST POP PUSH1 0x4 CALLDATASIZE LT PUSH2 0x7D JUMPI PUSH1 0x0 CALLDATALOAD PUSH1 0xE0 SHR DUP1 PUSH4 0x3C9747F3 GT PUSH2 0x5B JUMPI DUP1 PUSH4 0x3C9747F3 EQ PUSH2 0x112 JUMPI DUP1 PUSH4 0x971AA75E EQ PUSH2 0x130 JUMPI DUP1 PUSH4 0xE0751326 EQ PUSH2 0x162 JUMPI DUP1 PUSH4 0xEADDD0FD EQ PUSH2 0x196 JUMPI PUSH2 0x7D JUMP JUMPDEST DUP1 PUSH4 0xEE476BC EQ PUSH2 0x82 JUMPI DUP1 PUSH4 0x184B9CE5 EQ PUSH2 0xB2 JUMPI DUP1 PUSH4 0x204D67B5 EQ PUSH2 0xE2 JUMPI JUMPDEST PUSH1 0x0 DUP1 REVERT JUMPDEST PUSH2 0x9C PUSH1 0x4 DUP1 CALLDATASIZE SUB DUP2 ADD SWAP1 PUSH2 0x97 SWAP2 SWAP1 PUSH2 0x16E5 JUMP JUMPDEST PUSH2 0x1B4 JUMP JUMPDEST PUSH1 0x40 MLOAD PUSH2 0xA9 SWAP2 SWAP1 PUSH2 0x1D0C JUMP JUMPDEST PUSH1 0x40 MLOAD DUP1 SWAP2 SUB SWAP1 RETURN JUMPDEST PUSH2 0xCC PUSH1 0x4 DUP1 CALLDATASIZE SUB DUP2 ADD SWAP1 PUSH2 0xC7 SWAP2 SWAP1 PUSH2 0x15C8 JUMP JUMPDEST PUSH2 0x1ED JUMP JUMPDEST PUSH1 0x40 MLOAD PUSH2 0xD9 SWAP2 SWAP1 PUSH2 0x1D0C JUMP JUMPDEST PUSH1 0x40 MLOAD DUP1 SWAP2 SUB SWAP1 RETURN JUMPDEST PUSH2 0xFC PUSH1 0x4 DUP1 CALLDATASIZE SUB DUP2 ADD SWAP1 PUSH2 0xF7 SWAP2 SWAP1 PUSH2 0x17E9 JUMP JUMPDEST PUSH2 0x708 JUMP JUMPDEST PUSH1 0x40 MLOAD PUSH2 0x109 SWAP2 SWAP1 PUSH2 0x1D0C JUMP JUMPDEST PUSH1 0x40 MLOAD DUP1 SWAP2 SUB SWAP1 RETURN JUMPDEST PUSH2 0x11A PUSH2 0x8EE JUMP JUMPDEST PUSH1 0x40 MLOAD PUSH2 0x127 SWAP2 SWAP1 PUSH2 0x1D0C JUMP JUMPDEST PUSH1 0x40 MLOAD DUP1 SWAP2 SUB SWAP1 RETURN JUMPDEST PUSH2 0x14A PUSH1 0x4 DUP1 CALLDATASIZE SUB DUP2 ADD SWAP1 PUSH2 0x145 SWAP2 SWAP1 PUSH2 0x17BC JUMP JUMPDEST PUSH2 0x912 JUMP JUMPDEST PUSH1 0x40 MLOAD PUSH2 0x159 SWAP4 SWAP3 SWAP2 SWAP1 PUSH2 0x1BF0 JUMP JUMPDEST PUSH1 0x40 MLOAD DUP1 SWAP2 SUB SWAP1 RETURN JUMPDEST PUSH2 0x17C PUSH1 0x4 DUP1 CALLDATASIZE SUB DUP2 ADD SWAP1 PUSH2 0x177 SWAP2 SWAP1 PUSH2 0x17BC JUMP JUMPDEST PUSH2 0xB07 JUMP JUMPDEST PUSH1 0x40 MLOAD PUSH2 0x18D SWAP6 SWAP5 SWAP4 SWAP3 SWAP2 SWAP1 PUSH2 0x1C3C JUMP JUMPDEST PUSH1 0x40 MLOAD DUP1 SWAP2 SUB SWAP1 RETURN JUMPDEST PUSH2 0x19E PUSH2 0xDD9 JUMP JUMPDEST PUSH1 0x40 MLOAD PUSH2 0x1AB SWAP2 SWAP1 PUSH2 0x1D70 JUMP JUMPDEST PUSH1 0x40 MLOAD DUP1 SWAP2 SUB SWAP1 RETURN JUMPDEST PUSH1 0x0 DUP5 DUP5 DUP5 DUP5 PUSH1 0x40 MLOAD PUSH1 0x20 ADD PUSH2 0x1CD SWAP5 SWAP4 SWAP3 SWAP2 SWAP1 PUSH2 0x1CAB JUMP JUMPDEST PUSH1 0x40 MLOAD PUSH1 0x20 DUP2 DUP4 SUB SUB DUP2 MSTORE SWAP1 PUSH1 0x40 MSTORE DUP1 MLOAD SWAP1 PUSH1 0x20 ADD KECCAK256 SWAP1 POP SWAP5 SWAP4 POP POP POP POP JUMP JUMPDEST PUSH1 0x0 DUP9 DUP9 SWAP1 POP DUP12 DUP12 SWAP1 POP EQ DUP1 ISZERO PUSH2 0x209 JUMPI POP DUP7 DUP7 SWAP1 POP DUP12 DUP12 SWAP1 POP EQ JUMPDEST DUP1 ISZERO PUSH2 0x21A JUMPI POP DUP5 DUP5 SWAP1 POP DUP12 DUP12 SWAP1 POP EQ JUMPDEST PUSH2 0x259 JUMPI PUSH1 0x40 MLOAD PUSH32 0x8C379A000000000000000000000000000000000000000000000000000000000 DUP2 MSTORE PUSH1 0x4 ADD PUSH2 0x250 SWAP1 PUSH2 0x1DCB JUMP JUMPDEST PUSH1 0x40 MLOAD DUP1 SWAP2 SUB SWAP1 REVERT JUMPDEST PUSH1 0x0 DUP12 DUP12 SWAP1 POP PUSH8 0xFFFFFFFFFFFFFFFF DUP2 GT ISZERO PUSH2 0x278 JUMPI PUSH2 0x277 PUSH2 0x2325 JUMP JUMPDEST JUMPDEST PUSH1 0x40 MLOAD SWAP1 DUP1 DUP3 MSTORE DUP1 PUSH1 0x20 MUL PUSH1 0x20 ADD DUP3 ADD PUSH1 0x40 MSTORE DUP1 ISZERO PUSH2 0x2AB JUMPI DUP2 PUSH1 0x20 ADD JUMPDEST PUSH1 0x60 DUP2 MSTORE PUSH1 0x20 ADD SWAP1 PUSH1 0x1 SWAP1 SUB SWAP1 DUP2 PUSH2 0x296 JUMPI SWAP1 POP JUMPDEST POP SWAP1 POP PUSH1 0x0 JUMPDEST DUP13 DUP13 SWAP1 POP DUP2 LT ISZERO PUSH2 0x36E JUMPI DUP11 DUP11 DUP3 DUP2 DUP2 LT PUSH2 0x2CF JUMPI PUSH2 0x2CE PUSH2 0x22F6 JUMP JUMPDEST JUMPDEST SWAP1 POP PUSH1 0x20 MUL DUP2 ADD SWAP1 PUSH2 0x2E1 SWAP2 SWAP1 PUSH2 0x1E6E JUMP JUMPDEST PUSH1 0x40 MLOAD PUSH2 0x2EF SWAP3 SWAP2 SWAP1 PUSH2 0x1BD7 JUMP JUMPDEST PUSH1 0x40 MLOAD DUP1 SWAP2 SUB SWAP1 KECCAK256 DUP10 DUP10 DUP4 DUP2 DUP2 LT PUSH2 0x30A JUMPI PUSH2 0x309 PUSH2 0x22F6 JUMP JUMPDEST JUMPDEST SWAP1 POP PUSH1 0x20 MUL DUP2 ADD SWAP1 PUSH2 0x31C SWAP2 SWAP1 PUSH2 0x1E0B JUMP JUMPDEST PUSH1 0x40 MLOAD PUSH1 0x20 ADD PUSH2 0x32E SWAP4 SWAP3 SWAP2 SWAP1 PUSH2 0x1BAD JUMP JUMPDEST PUSH1 0x40 MLOAD PUSH1 0x20 DUP2 DUP4 SUB SUB DUP2 MSTORE SWAP1 PUSH1 0x40 MSTORE DUP3 DUP3 DUP2 MLOAD DUP2 LT PUSH2 0x350 JUMPI PUSH2 0x34F PUSH2 0x22F6 JUMP JUMPDEST JUMPDEST PUSH1 0x20 MUL PUSH1 0x20 ADD ADD DUP2 SWAP1 MSTORE POP DUP1 DUP1 PUSH2 0x366 SWAP1 PUSH2 0x2245 JUMP JUMPDEST SWAP2 POP POP PUSH2 0x2B1 JUMP JUMPDEST POP PUSH2 0x441 DUP13 DUP13 DUP1 DUP1 PUSH1 0x20 MUL PUSH1 0x20 ADD PUSH1 0x40 MLOAD SWAP1 DUP2 ADD PUSH1 0x40 MSTORE DUP1 SWAP4 SWAP3 SWAP2 SWAP1 DUP2 DUP2 MSTORE PUSH1 0x20 ADD DUP4 DUP4 PUSH1 0x20 MUL DUP1 DUP3 DUP5 CALLDATACOPY PUSH1 0x0 DUP2 DUP5 ADD MSTORE PUSH1 0x1F NOT PUSH1 0x1F DUP3 ADD AND SWAP1 POP DUP1 DUP4 ADD SWAP3 POP POP POP POP POP POP POP DUP8 DUP8 DUP1 DUP1 PUSH1 0x20 MUL PUSH1 0x20 ADD PUSH1 0x40 MLOAD SWAP1 DUP2 ADD PUSH1 0x40 MSTORE DUP1 SWAP4 SWAP3 SWAP2 SWAP1 DUP2 DUP2 MSTORE PUSH1 0x20 ADD DUP4 DUP4 PUSH1 0x20 MUL DUP1 DUP3 DUP5 CALLDATACOPY PUSH1 0x0 DUP2 DUP5 ADD MSTORE PUSH1 0x1F NOT PUSH1 0x1F DUP3 ADD AND SWAP1 POP DUP1 DUP4 ADD SWAP3 POP POP POP POP POP POP POP DUP4 DUP8 DUP8 DUP1 DUP1 PUSH1 0x1F ADD PUSH1 0x20 DUP1 SWAP2 DIV MUL PUSH1 0x20 ADD PUSH1 0x40 MLOAD SWAP1 DUP2 ADD PUSH1 0x40 MSTORE DUP1 SWAP4 SWAP3 SWAP2 SWAP1 DUP2 DUP2 MSTORE PUSH1 0x20 ADD DUP4 DUP4 DUP1 DUP3 DUP5 CALLDATACOPY PUSH1 0x0 DUP2 DUP5 ADD MSTORE PUSH1 0x1F NOT PUSH1 0x1F DUP3 ADD AND SWAP1 POP DUP1 DUP4 ADD SWAP3 POP POP POP POP POP POP POP PUSH2 0x1B4 JUMP JUMPDEST SWAP2 POP PUSH1 0x0 PUSH20 0xFFFFFFFFFFFFFFFFFFFFFFFFFFFFFFFFFFFFFFFF AND PUSH1 0x0 DUP1 DUP5 DUP2 MSTORE PUSH1 0x20 ADD SWAP1 DUP2 MSTORE PUSH1 0x20 ADD PUSH1 0x0 KECCAK256 PUSH1 0x4 ADD PUSH1 0x0 SWAP1 SLOAD SWAP1 PUSH2 0x100 EXP SWAP1 DIV PUSH20 0xFFFFFFFFFFFFFFFFFFFFFFFFFFFFFFFFFFFFFFFF AND PUSH20 0xFFFFFFFFFFFFFFFFFFFFFFFFFFFFFFFFFFFFFFFF AND EQ PUSH2 0x4E7 JUMPI PUSH1 0x40 MLOAD PUSH32 0x8C379A000000000000000000000000000000000000000000000000000000000 DUP2 MSTORE PUSH1 0x4 ADD PUSH2 0x4DE SWAP1 PUSH2 0x1DEB JUMP JUMPDEST PUSH1 0x40 MLOAD DUP1 SWAP2 SUB SWAP1 REVERT JUMPDEST PUSH1 0x40 MLOAD DUP1 PUSH1 0xA0 ADD PUSH1 0x40 MSTORE DUP1 DUP14 DUP14 DUP1 DUP1 PUSH1 0x20 MUL PUSH1 0x20 ADD PUSH1 0x40 MLOAD SWAP1 DUP2 ADD PUSH1 0x40 MSTORE DUP1 SWAP4 SWAP3 SWAP2 SWAP1 DUP2 DUP2 MSTORE PUSH1 0x20 ADD DUP4 DUP4 PUSH1 0x20 MUL DUP1 DUP3 DUP5 CALLDATACOPY PUSH1 0x0 DUP2 DUP5 ADD MSTORE PUSH1 0x1F NOT PUSH1 0x1F DUP3 ADD AND SWAP1 POP DUP1 DUP4 ADD SWAP3 POP POP POP POP POP POP POP DUP2 MSTORE PUSH1 0x20 ADD DUP8 DUP8 DUP1 DUP1 PUSH1 0x20 MUL PUSH1 0x20 ADD PUSH1 0x40 MLOAD SWAP1 DUP2 ADD PUSH1 0x40 MSTORE DUP1 SWAP4 SWAP3 SWAP2 SWAP1 DUP2 DUP2 MSTORE PUSH1 0x20 ADD DUP4 DUP4 PUSH1 0x20 MUL DUP1 DUP3 DUP5 CALLDATACOPY PUSH1 0x0 DUP2 DUP5 ADD MSTORE PUSH1 0x1F NOT PUSH1 0x1F DUP3 ADD AND SWAP1 POP DUP1 DUP4 ADD SWAP3 POP POP POP POP POP POP POP DUP2 MSTORE PUSH1 0x20 ADD DUP3 DUP2 MSTORE PUSH1 0x20 ADD DUP6 DUP6 DUP1 DUP1 PUSH1 0x1F ADD PUSH1 0x20 DUP1 SWAP2 DIV MUL PUSH1 0x20 ADD PUSH1 0x40 MLOAD SWAP1 DUP2 ADD PUSH1 0x40 MSTORE DUP1 SWAP4 SWAP3 SWAP2 SWAP1 DUP2 DUP2 MSTORE PUSH1 0x20 ADD DUP4 DUP4 DUP1 DUP3 DUP5 CALLDATACOPY PUSH1 0x0 DUP2 DUP5 ADD MSTORE PUSH1 0x1F NOT PUSH1 0x1F DUP3 ADD AND SWAP1 POP DUP1 DUP4 ADD SWAP3 POP POP POP POP POP POP POP DUP2 MSTORE PUSH1 0x20 ADD CALLER PUSH20 0xFFFFFFFFFFFFFFFFFFFFFFFFFFFFFFFFFFFFFFFF AND DUP2 MSTORE POP PUSH1 0x0 DUP1 DUP5 DUP2 MSTORE PUSH1 0x20 ADD SWAP1 DUP2 MSTORE PUSH1 0x20 ADD PUSH1 0x0 KECCAK256 PUSH1 0x0 DUP3 ADD MLOAD DUP2 PUSH1 0x0 ADD SWAP1 DUP1 MLOAD SWAP1 PUSH1 0x20 ADD SWAP1 PUSH2 0x618 SWAP3 SWAP2 SWAP1 PUSH2 0xDFD JUMP JUMPDEST POP PUSH1 0x20 DUP3 ADD MLOAD DUP2 PUSH1 0x1 ADD SWAP1 DUP1 MLOAD SWAP1 PUSH1 0x20 ADD SWAP1 PUSH2 0x635 SWAP3 SWAP2 SWAP1 PUSH2 0xE87 JUMP JUMPDEST POP PUSH1 0x40 DUP3 ADD MLOAD DUP2 PUSH1 0x2 ADD SWAP1 DUP1 MLOAD SWAP1 PUSH1 0x20 ADD SWAP1 PUSH2 0x652 SWAP3 SWAP2 SWAP1 PUSH2 0xED4 JUMP JUMPDEST POP PUSH1 0x60 DUP3 ADD MLOAD DUP2 PUSH1 0x3 ADD SWAP1 DUP1 MLOAD SWAP1 PUSH1 0x20 ADD SWAP1 PUSH2 0x66F SWAP3 SWAP2 SWAP1 PUSH2 0xF34 JUMP JUMPDEST POP PUSH1 0x80 DUP3 ADD MLOAD DUP2 PUSH1 0x4 ADD PUSH1 0x0 PUSH2 0x100 EXP DUP2 SLOAD DUP2 PUSH20 0xFFFFFFFFFFFFFFFFFFFFFFFFFFFFFFFFFFFFFFFF MUL NOT AND SWAP1 DUP4 PUSH20 0xFFFFFFFFFFFFFFFFFFFFFFFFFFFFFFFFFFFFFFFF AND MUL OR SWAP1 SSTORE POP SWAP1 POP POP PUSH32 0x9EFA23CF1A1CA9F8F84D1C5AB98B64E67B7EB5C0EC0CB0F02658CE7EC7D7CED3 DUP3 DUP14 DUP14 DUP8 DUP8 PUSH1 0x40 MLOAD PUSH2 0x6F1 SWAP6 SWAP5 SWAP4 SWAP3 SWAP2 SWAP1 PUSH2 0x1D27 JUMP JUMPDEST PUSH1 0x40 MLOAD DUP1 SWAP2 SUB SWAP1 LOG1 POP SWAP11 SWAP10 POP POP POP POP POP POP POP POP POP POP JUMP JUMPDEST PUSH1 0x0 CALLER PUSH20 0xFFFFFFFFFFFFFFFFFFFFFFFFFFFFFFFFFFFFFFFF AND PUSH32 0x0 PUSH20 0xFFFFFFFFFFFFFFFFFFFFFFFFFFFFFFFFFFFFFFFF AND PUSH4 0x624A23E0 PUSH32 0x36209A57DFD79E3872EC3A0C88C653BBE7E32A12306E5E1F92F118C1936AE8B2 PUSH1 0x40 MLOAD DUP3 PUSH4 0xFFFFFFFF AND PUSH1 0xE0 SHL DUP2 MSTORE PUSH1 0x4 ADD PUSH2 0x79A SWAP2 SWAP1 PUSH2 0x1D0C JUMP JUMPDEST PUSH1 0x20 PUSH1 0x40 MLOAD DUP1 DUP4 SUB DUP2 DUP7 DUP1 EXTCODESIZE ISZERO DUP1 ISZERO PUSH2 0x7B2 JUMPI PUSH1 0x0 DUP1 REVERT JUMPDEST POP GAS STATICCALL ISZERO DUP1 ISZERO PUSH2 0x7C6 JUMPI RETURNDATASIZE PUSH1 0x0 DUP1 RETURNDATACOPY RETURNDATASIZE PUSH1 0x0 REVERT JUMPDEST POP POP POP POP PUSH1 0x40 MLOAD RETURNDATASIZE PUSH1 0x1F NOT PUSH1 0x1F DUP3 ADD AND DUP3 ADD DUP1 PUSH1 0x40 MSTORE POP DUP2 ADD SWAP1 PUSH2 0x7EA SWAP2 SWAP1 PUSH2 0x159B JUMP JUMPDEST PUSH20 0xFFFFFFFFFFFFFFFFFFFFFFFFFFFFFFFFFFFFFFFF AND EQ PUSH2 0x840 JUMPI PUSH1 0x40 MLOAD PUSH32 0x8C379A000000000000000000000000000000000000000000000000000000000 DUP2 MSTORE PUSH1 0x4 ADD PUSH2 0x837 SWAP1 PUSH2 0x1DAB JUMP JUMPDEST PUSH1 0x40 MLOAD DUP1 SWAP2 SUB SWAP1 REVERT JUMPDEST PUSH1 0x0 PUSH20 0xFFFFFFFFFFFFFFFFFFFFFFFFFFFFFFFFFFFFFFFF AND PUSH1 0x0 DUP1 DUP5 DUP2 MSTORE PUSH1 0x20 ADD SWAP1 DUP2 MSTORE PUSH1 0x20 ADD PUSH1 0x0 KECCAK256 PUSH1 0x4 ADD PUSH1 0x0 SWAP1 SLOAD SWAP1 PUSH2 0x100 EXP SWAP1 DIV PUSH20 0xFFFFFFFFFFFFFFFFFFFFFFFFFFFFFFFFFFFFFFFF AND PUSH20 0xFFFFFFFFFFFFFFFFFFFFFFFFFFFFFFFFFFFFFFFF AND EQ ISZERO PUSH2 0x8E5 JUMPI PUSH1 0x40 MLOAD PUSH32 0x8C379A000000000000000000000000000000000000000000000000000000000 DUP2 MSTORE PUSH1 0x4 ADD PUSH2 0x8DC SWAP1 PUSH2 0x1D8B JUMP JUMPDEST PUSH1 0x40 MLOAD DUP1 SWAP2 SUB SWAP1 REVERT JUMPDEST DUP2 SWAP1 POP SWAP3 SWAP2 POP POP JUMP JUMPDEST PUSH32 0x0 DUP2 JUMP JUMPDEST PUSH1 0x60 DUP1 PUSH1 0x60 PUSH1 0x0 DUP1 DUP6 DUP2 MSTORE PUSH1 0x20 ADD SWAP1 DUP2 MSTORE PUSH1 0x20 ADD PUSH1 0x0 KECCAK256 PUSH1 0x0 ADD DUP1 SLOAD DUP1 PUSH1 0x20 MUL PUSH1 0x20 ADD PUSH1 0x40 MLOAD SWAP1 DUP2 ADD PUSH1 0x40 MSTORE DUP1 SWAP3 SWAP2 SWAP1 DUP2 DUP2 MSTORE PUSH1 0x20 ADD DUP3 DUP1 SLOAD DUP1 ISZERO PUSH2 0x9AC JUMPI PUSH1 0x20 MUL DUP3 ADD SWAP2 SWAP1 PUSH1 0x0 MSTORE PUSH1 0x20 PUSH1 0x0 KECCAK256 SWAP1 JUMPDEST DUP2 PUSH1 0x0 SWAP1 SLOAD SWAP1 PUSH2 0x100 EXP SWAP1 DIV PUSH20 0xFFFFFFFFFFFFFFFFFFFFFFFFFFFFFFFFFFFFFFFF AND PUSH20 0xFFFFFFFFFFFFFFFFFFFFFFFFFFFFFFFFFFFFFFFF AND DUP2 MSTORE PUSH1 0x20 ADD SWAP1 PUSH1 0x1 ADD SWAP1 DUP1 DUP4 GT PUSH2 0x962 JUMPI JUMPDEST POP POP POP POP POP SWAP3 POP PUSH1 0x0 DUP1 DUP6 DUP2 MSTORE PUSH1 0x20 ADD SWAP1 DUP2 MSTORE PUSH1 0x20 ADD PUSH1 0x0 KECCAK256 PUSH1 0x2 ADD DUP1 SLOAD DUP1 PUSH1 0x20 MUL PUSH1 0x20 ADD PUSH1 0x40 MLOAD SWAP1 DUP2 ADD PUSH1 0x40 MSTORE DUP1 SWAP3 SWAP2 SWAP1 DUP2 DUP2 MSTORE PUSH1 0x20 ADD PUSH1 0x0 SWAP1 JUMPDEST DUP3 DUP3 LT ISZERO PUSH2 0xA94 JUMPI DUP4 DUP3 SWAP1 PUSH1 0x0 MSTORE PUSH1 0x20 PUSH1 0x0 KECCAK256 ADD DUP1 SLOAD PUSH2 0xA07 SWAP1 PUSH2 0x21E2 JUMP JUMPDEST DUP1 PUSH1 0x1F ADD PUSH1 0x20 DUP1 SWAP2 DIV MUL PUSH1 0x20 ADD PUSH1 0x40 MLOAD SWAP1 DUP2 ADD PUSH1 0x40 MSTORE DUP1 SWAP3 SWAP2 SWAP1 DUP2 DUP2 MSTORE PUSH1 0x20 ADD DUP3 DUP1 SLOAD PUSH2 0xA33 SWAP1 PUSH2 0x21E2 JUMP JUMPDEST DUP1 ISZERO PUSH2 0xA80 JUMPI DUP1 PUSH1 0x1F LT PUSH2 0xA55 JUMPI PUSH2 0x100 DUP1 DUP4 SLOAD DIV MUL DUP4 MSTORE SWAP2 PUSH1 0x20 ADD SWAP2 PUSH2 0xA80 JUMP JUMPDEST DUP3 ADD SWAP2 SWAP1 PUSH1 0x0 MSTORE PUSH1 0x20 PUSH1 0x0 KECCAK256 SWAP1 JUMPDEST DUP2 SLOAD DUP2 MSTORE SWAP1 PUSH1 0x1 ADD SWAP1 PUSH1 0x20 ADD DUP1 DUP4 GT PUSH2 0xA63 JUMPI DUP3 SWAP1 SUB PUSH1 0x1F AND DUP3 ADD SWAP2 JUMPDEST POP POP POP POP POP DUP2 MSTORE PUSH1 0x20 ADD SWAP1 PUSH1 0x1 ADD SWAP1 PUSH2 0x9E8 JUMP JUMPDEST POP POP POP POP SWAP2 POP PUSH1 0x0 DUP1 DUP6 DUP2 MSTORE PUSH1 0x20 ADD SWAP1 DUP2 MSTORE PUSH1 0x20 ADD PUSH1 0x0 KECCAK256 PUSH1 0x1 ADD DUP1 SLOAD DUP1 PUSH1 0x20 MUL PUSH1 0x20 ADD PUSH1 0x40 MLOAD SWAP1 DUP2 ADD PUSH1 0x40 MSTORE DUP1 SWAP3 SWAP2 SWAP1 DUP2 DUP2 MSTORE PUSH1 0x20 ADD DUP3 DUP1 SLOAD DUP1 ISZERO PUSH2 0xAF9 JUMPI PUSH1 0x20 MUL DUP3 ADD SWAP2 SWAP1 PUSH1 0x0 MSTORE PUSH1 0x20 PUSH1 0x0 KECCAK256 SWAP1 JUMPDEST DUP2 SLOAD DUP2 MSTORE PUSH1 0x20 ADD SWAP1 PUSH1 0x1 ADD SWAP1 DUP1 DUP4 GT PUSH2 0xAE5 JUMPI JUMPDEST POP POP POP POP POP SWAP1 POP SWAP2 SWAP4 SWAP1 SWAP3 POP JUMP JUMPDEST PUSH1 0x60 DUP1 PUSH1 0x60 DUP1 PUSH1 0x0 DUP1 PUSH1 0x0 DUP8 DUP2 MSTORE PUSH1 0x20 ADD SWAP1 DUP2 MSTORE PUSH1 0x20 ADD PUSH1 0x0 KECCAK256 PUSH1 0x0 ADD DUP1 SLOAD DUP1 PUSH1 0x20 MUL PUSH1 0x20 ADD PUSH1 0x40 MLOAD SWAP1 DUP2 ADD PUSH1 0x40 MSTORE DUP1 SWAP3 SWAP2 SWAP1 DUP2 DUP2 MSTORE PUSH1 0x20 ADD DUP3 DUP1 SLOAD DUP1 ISZERO PUSH2 0xBA4 JUMPI PUSH1 0x20 MUL DUP3 ADD SWAP2 SWAP1 PUSH1 0x0 MSTORE PUSH1 0x20 PUSH1 0x0 KECCAK256 SWAP1 JUMPDEST DUP2 PUSH1 0x0 SWAP1 SLOAD SWAP1 PUSH2 0x100 EXP SWAP1 DIV PUSH20 0xFFFFFFFFFFFFFFFFFFFFFFFFFFFFFFFFFFFFFFFF AND PUSH20 0xFFFFFFFFFFFFFFFFFFFFFFFFFFFFFFFFFFFFFFFF AND DUP2 MSTORE PUSH1 0x20 ADD SWAP1 PUSH1 0x1 ADD SWAP1 DUP1 DUP4 GT PUSH2 0xB5A JUMPI JUMPDEST POP POP POP POP POP SWAP5 POP PUSH1 0x0 DUP1 DUP8 DUP2 MSTORE PUSH1 0x20 ADD SWAP1 DUP2 MSTORE PUSH1 0x20 ADD PUSH1 0x0 KECCAK256 PUSH1 0x2 ADD DUP1 SLOAD DUP1 PUSH1 0x20 MUL PUSH1 0x20 ADD PUSH1 0x40 MLOAD SWAP1 DUP2 ADD PUSH1 0x40 MSTORE DUP1 SWAP3 SWAP2 SWAP1 DUP2 DUP2 MSTORE PUSH1 0x20 ADD PUSH1 0x0 SWAP1 JUMPDEST DUP3 DUP3 LT ISZERO PUSH2 0xC8C JUMPI DUP4 DUP3 SWAP1 PUSH1 0x0 MSTORE PUSH1 0x20 PUSH1 0x0 KECCAK256 ADD DUP1 SLOAD PUSH2 0xBFF SWAP1 PUSH2 0x21E2 JUMP JUMPDEST DUP1 PUSH1 0x1F ADD PUSH1 0x20 DUP1 SWAP2 DIV MUL PUSH1 0x20 ADD PUSH1 0x40 MLOAD SWAP1 DUP2 ADD PUSH1 0x40 MSTORE DUP1 SWAP3 SWAP2 SWAP1 DUP2 DUP2 MSTORE PUSH1 0x20 ADD DUP3 DUP1 SLOAD PUSH2 0xC2B SWAP1 PUSH2 0x21E2 JUMP JUMPDEST DUP1 ISZERO PUSH2 0xC78 JUMPI DUP1 PUSH1 0x1F LT PUSH2 0xC4D JUMPI PUSH2 0x100 DUP1 DUP4 SLOAD DIV MUL DUP4 MSTORE SWAP2 PUSH1 0x20 ADD SWAP2 PUSH2 0xC78 JUMP JUMPDEST DUP3 ADD SWAP2 SWAP1 PUSH1 0x0 MSTORE PUSH1 0x20 PUSH1 0x0 KECCAK256 SWAP1 JUMPDEST DUP2 SLOAD DUP2 MSTORE SWAP1 PUSH1 0x1 ADD SWAP1 PUSH1 0x20 ADD DUP1 DUP4 GT PUSH2 0xC5B JUMPI DUP3 SWAP1 SUB PUSH1 0x1F AND DUP3 ADD SWAP2 JUMPDEST POP POP POP POP POP DUP2 MSTORE PUSH1 0x20 ADD SWAP1 PUSH1 0x1 ADD SWAP1 PUSH2 0xBE0 JUMP JUMPDEST POP POP POP POP SWAP4 POP PUSH1 0x0 DUP1 DUP8 DUP2 MSTORE PUSH1 0x20 ADD SWAP1 DUP2 MSTORE PUSH1 0x20 ADD PUSH1 0x0 KECCAK256 PUSH1 0x1 ADD DUP1 SLOAD DUP1 PUSH1 0x20 MUL PUSH1 0x20 ADD PUSH1 0x40 MLOAD SWAP1 DUP2 ADD PUSH1 0x40 MSTORE DUP1 SWAP3 SWAP2 SWAP1 DUP2 DUP2 MSTORE PUSH1 0x20 ADD DUP3 DUP1 SLOAD DUP1 ISZERO PUSH2 0xCF1 JUMPI PUSH1 0x20 MUL DUP3 ADD SWAP2 SWAP1 PUSH1 0x0 MSTORE PUSH1 0x20 PUSH1 0x0 KECCAK256 SWAP1 JUMPDEST DUP2 SLOAD DUP2 MSTORE PUSH1 0x20 ADD SWAP1 PUSH1 0x1 ADD SWAP1 DUP1 DUP4 GT PUSH2 0xCDD JUMPI JUMPDEST POP POP POP POP POP SWAP3 POP PUSH1 0x0 DUP1 DUP8 DUP2 MSTORE PUSH1 0x20 ADD SWAP1 DUP2 MSTORE PUSH1 0x20 ADD PUSH1 0x0 KECCAK256 PUSH1 0x3 ADD DUP1 SLOAD PUSH2 0xD18 SWAP1 PUSH2 0x21E2 JUMP JUMPDEST DUP1 PUSH1 0x1F ADD PUSH1 0x20 DUP1 SWAP2 DIV MUL PUSH1 0x20 ADD PUSH1 0x40 MLOAD SWAP1 DUP2 ADD PUSH1 0x40 MSTORE DUP1 SWAP3 SWAP2 SWAP1 DUP2 DUP2 MSTORE PUSH1 0x20 ADD DUP3 DUP1 SLOAD PUSH2 0xD44 SWAP1 PUSH2 0x21E2 JUMP JUMPDEST DUP1 ISZERO PUSH2 0xD91 JUMPI DUP1 PUSH1 0x1F LT PUSH2 0xD66 JUMPI PUSH2 0x100 DUP1 DUP4 SLOAD DIV MUL DUP4 MSTORE SWAP2 PUSH1 0x20 ADD SWAP2 PUSH2 0xD91 JUMP JUMPDEST DUP3 ADD SWAP2 SWAP1 PUSH1 0x0 MSTORE PUSH1 0x20 PUSH1 0x0 KECCAK256 SWAP1 JUMPDEST DUP2 SLOAD DUP2 MSTORE SWAP1 PUSH1 0x1 ADD SWAP1 PUSH1 0x20 ADD DUP1 DUP4 GT PUSH2 0xD74 JUMPI DUP3 SWAP1 SUB PUSH1 0x1F AND DUP3 ADD SWAP2 JUMPDEST POP POP POP POP POP SWAP2 POP PUSH1 0x0 DUP1 DUP8 DUP2 MSTORE PUSH1 0x20 ADD SWAP1 DUP2 MSTORE PUSH1 0x20 ADD PUSH1 0x0 KECCAK256 PUSH1 0x4 ADD PUSH1 0x0 SWAP1 SLOAD SWAP1 PUSH2 0x100 EXP SWAP1 DIV PUSH20 0xFFFFFFFFFFFFFFFFFFFFFFFFFFFFFFFFFFFFFFFF AND SWAP1 POP SWAP2 SWAP4 SWAP6 SWAP1 SWAP3 SWAP5 POP JUMP JUMPDEST PUSH32 0x0 DUP2 JUMP JUMPDEST DUP3 DUP1 SLOAD DUP3 DUP3 SSTORE SWAP1 PUSH1 0x0 MSTORE PUSH1 0x20 PUSH1 0x0 KECCAK256 SWAP1 DUP2 ADD SWAP3 DUP3 ISZERO PUSH2 0xE76 JUMPI SWAP2 PUSH1 0x20 MUL DUP3 ADD JUMPDEST DUP3 DUP2 GT ISZERO PUSH2 0xE75 JUMPI DUP3 MLOAD DUP3 PUSH1 0x0 PUSH2 0x100 EXP DUP2 SLOAD DUP2 PUSH20 0xFFFFFFFFFFFFFFFFFFFFFFFFFFFFFFFFFFFFFFFF MUL NOT AND SWAP1 DUP4 PUSH20 0xFFFFFFFFFFFFFFFFFFFFFFFFFFFFFFFFFFFFFFFF AND MUL OR SWAP1 SSTORE POP SWAP2 PUSH1 0x20 ADD SWAP2 SWAP1 PUSH1 0x1 ADD SWAP1 PUSH2 0xE1D JUMP JUMPDEST JUMPDEST POP SWAP1 POP PUSH2 0xE83 SWAP2 SWAP1 PUSH2 0xFBA JUMP JUMPDEST POP SWAP1 JUMP JUMPDEST DUP3 DUP1 SLOAD DUP3 DUP3 SSTORE SWAP1 PUSH1 0x0 MSTORE PUSH1 0x20 PUSH1 0x0 KECCAK256 SWAP1 DUP2 ADD SWAP3 DUP3 ISZERO PUSH2 0xEC3 JUMPI SWAP2 PUSH1 0x20 MUL DUP3 ADD JUMPDEST DUP3 DUP2 GT ISZERO PUSH2 0xEC2 JUMPI DUP3 MLOAD DUP3 SSTORE SWAP2 PUSH1 0x20 ADD SWAP2 SWAP1 PUSH1 0x1 ADD SWAP1 PUSH2 0xEA7 JUMP JUMPDEST JUMPDEST POP SWAP1 POP PUSH2 0xED0 SWAP2 SWAP1 PUSH2 0xFBA JUMP JUMPDEST POP SWAP1 JUMP JUMPDEST DUP3 DUP1 SLOAD DUP3 DUP3 SSTORE SWAP1 PUSH1 0x0 MSTORE PUSH1 0x20 PUSH1 0x0 KECCAK256 SWAP1 DUP2 ADD SWAP3 DUP3 ISZERO PUSH2 0xF23 JUMPI SWAP2 PUSH1 0x20 MUL DUP3 ADD JUMPDEST DUP3 DUP2 GT ISZERO PUSH2 0xF22 JUMPI DUP3 MLOAD DUP3 SWAP1 DUP1 MLOAD SWAP1 PUSH1 0x20 ADD SWAP1 PUSH2 0xF12 SWAP3 SWAP2 SWAP1 PUSH2 0xFD7 JUMP JUMPDEST POP SWAP2 PUSH1 0x20 ADD SWAP2 SWAP1 PUSH1 0x1 ADD SWAP1 PUSH2 0xEF4 JUMP JUMPDEST JUMPDEST POP SWAP1 POP PUSH2 0xF30 SWAP2 SWAP1 PUSH2 0x105D JUMP JUMPDEST POP SWAP1 JUMP JUMPDEST DUP3 DUP1 SLOAD PUSH2 0xF40 SWAP1 PUSH2 0x21E2 JUMP JUMPDEST SWAP1 PUSH1 0x0 MSTORE PUSH1 0x20 PUSH1 0x0 KECCAK256 SWAP1 PUSH1 0x1F ADD PUSH1 0x20 SWAP1 DIV DUP2 ADD SWAP3 DUP3 PUSH2 0xF62 JUMPI PUSH1 0x0 DUP6 SSTORE PUSH2 0xFA9 JUMP JUMPDEST DUP3 PUSH1 0x1F LT PUSH2 0xF7B JUMPI DUP1 MLOAD PUSH1 0xFF NOT AND DUP4 DUP1 ADD OR DUP6 SSTORE PUSH2 0xFA9 JUMP JUMPDEST DUP3 DUP1 ADD PUSH1 0x1 ADD DUP6 SSTORE DUP3 ISZERO PUSH2 0xFA9 JUMPI SWAP2 DUP3 ADD JUMPDEST DUP3 DUP2 GT ISZERO PUSH2 0xFA8 JUMPI DUP3 MLOAD DUP3 SSTORE SWAP2 PUSH1 0x20 ADD SWAP2 SWAP1 PUSH1 0x1 ADD SWAP1 PUSH2 0xF8D JUMP JUMPDEST JUMPDEST POP SWAP1 POP PUSH2 0xFB6 SWAP2 SWAP1 PUSH2 0xFBA JUMP JUMPDEST POP SWAP1 JUMP JUMPDEST JUMPDEST DUP1 DUP3 GT ISZERO PUSH2 0xFD3 JUMPI PUSH1 0x0 DUP2 PUSH1 0x0 SWAP1 SSTORE POP PUSH1 0x1 ADD PUSH2 0xFBB JUMP JUMPDEST POP SWAP1 JUMP JUMPDEST DUP3 DUP1 SLOAD PUSH2 0xFE3 SWAP1 PUSH2 0x21E2 JUMP JUMPDEST SWAP1 PUSH1 0x0 MSTORE PUSH1 0x20 PUSH1 0x0 KECCAK256 SWAP1 PUSH1 0x1F ADD PUSH1 0x20 SWAP1 DIV DUP2 ADD SWAP3 DUP3 PUSH2 0x1005 JUMPI PUSH1 0x0 DUP6 SSTORE PUSH2 0x104C JUMP JUMPDEST DUP3 PUSH1 0x1F LT PUSH2 0x101E JUMPI DUP1 MLOAD PUSH1 0xFF NOT AND DUP4 DUP1 ADD OR DUP6 SSTORE PUSH2 0x104C JUMP JUMPDEST DUP3 DUP1 ADD PUSH1 0x1 ADD DUP6 SSTORE DUP3 ISZERO PUSH2 0x104C JUMPI SWAP2 DUP3 ADD JUMPDEST DUP3 DUP2 GT ISZERO PUSH2 0x104B JUMPI DUP3 MLOAD DUP3 SSTORE SWAP2 PUSH1 0x20 ADD SWAP2 SWAP1 PUSH1 0x1 ADD SWAP1 PUSH2 0x1030 JUMP JUMPDEST JUMPDEST POP SWAP1 POP PUSH2 0x1059 SWAP2 SWAP1 PUSH2 0xFBA JUMP JUMPDEST POP SWAP1 JUMP JUMPDEST JUMPDEST DUP1 DUP3 GT ISZERO PUSH2 0x107D JUMPI PUSH1 0x0 DUP2 DUP2 PUSH2 0x1074 SWAP2 SWAP1 PUSH2 0x1081 JUMP JUMPDEST POP PUSH1 0x1 ADD PUSH2 0x105E JUMP JUMPDEST POP SWAP1 JUMP JUMPDEST POP DUP1 SLOAD PUSH2 0x108D SWAP1 PUSH2 0x21E2 JUMP JUMPDEST PUSH1 0x0 DUP3 SSTORE DUP1 PUSH1 0x1F LT PUSH2 0x109F JUMPI POP PUSH2 0x10BE JUMP JUMPDEST PUSH1 0x1F ADD PUSH1 0x20 SWAP1 DIV SWAP1 PUSH1 0x0 MSTORE PUSH1 0x20 PUSH1 0x0 KECCAK256 SWAP1 DUP2 ADD SWAP1 PUSH2 0x10BD SWAP2 SWAP1 PUSH2 0xFBA JUMP JUMPDEST JUMPDEST POP JUMP JUMPDEST PUSH1 0x0 PUSH2 0x10D4 PUSH2 0x10CF DUP5 PUSH2 0x1EF6 JUMP JUMPDEST PUSH2 0x1ED1 JUMP JUMPDEST SWAP1 POP DUP1 DUP4 DUP3 MSTORE PUSH1 0x20 DUP3 ADD SWAP1 POP DUP3 DUP6 PUSH1 0x20 DUP7 MUL DUP3 ADD GT ISZERO PUSH2 0x10F7 JUMPI PUSH2 0x10F6 PUSH2 0x2368 JUMP JUMPDEST JUMPDEST PUSH1 0x0 JUMPDEST DUP6 DUP2 LT ISZERO PUSH2 0x1127 JUMPI DUP2 PUSH2 0x110D DUP9 DUP3 PUSH2 0x12B3 JUMP JUMPDEST DUP5 MSTORE PUSH1 0x20 DUP5 ADD SWAP4 POP PUSH1 0x20 DUP4 ADD SWAP3 POP POP PUSH1 0x1 DUP2 ADD SWAP1 POP PUSH2 0x10FA JUMP JUMPDEST POP POP POP SWAP4 SWAP3 POP POP POP JUMP JUMPDEST PUSH1 0x0 PUSH2 0x1144 PUSH2 0x113F DUP5 PUSH2 0x1F22 JUMP JUMPDEST PUSH2 0x1ED1 JUMP JUMPDEST SWAP1 POP DUP1 DUP4 DUP3 MSTORE PUSH1 0x20 DUP3 ADD SWAP1 POP DUP3 DUP6 PUSH1 0x20 DUP7 MUL DUP3 ADD GT ISZERO PUSH2 0x1167 JUMPI PUSH2 0x1166 PUSH2 0x2368 JUMP JUMPDEST JUMPDEST PUSH1 0x0 JUMPDEST DUP6 DUP2 LT ISZERO PUSH2 0x11B5 JUMPI DUP2 CALLDATALOAD PUSH8 0xFFFFFFFFFFFFFFFF DUP2 GT ISZERO PUSH2 0x118D JUMPI PUSH2 0x118C PUSH2 0x2359 JUMP JUMPDEST JUMPDEST DUP1 DUP7 ADD PUSH2 0x119A DUP10 DUP3 PUSH2 0x14D4 JUMP JUMPDEST DUP6 MSTORE PUSH1 0x20 DUP6 ADD SWAP5 POP PUSH1 0x20 DUP5 ADD SWAP4 POP POP POP PUSH1 0x1 DUP2 ADD SWAP1 POP PUSH2 0x116A JUMP JUMPDEST POP POP POP SWAP4 SWAP3 POP POP POP JUMP JUMPDEST PUSH1 0x0 PUSH2 0x11D2 PUSH2 0x11CD DUP5 PUSH2 0x1F4E JUMP JUMPDEST PUSH2 0x1ED1 JUMP JUMPDEST SWAP1 POP DUP1 DUP4 DUP3 MSTORE PUSH1 0x20 DUP3 ADD SWAP1 POP DUP3 DUP6 PUSH1 0x20 DUP7 MUL DUP3 ADD GT ISZERO PUSH2 0x11F5 JUMPI PUSH2 0x11F4 PUSH2 0x2368 JUMP JUMPDEST JUMPDEST PUSH1 0x0 JUMPDEST DUP6 DUP2 LT ISZERO PUSH2 0x1225 JUMPI DUP2 PUSH2 0x120B DUP9 DUP3 PUSH2 0x1586 JUMP JUMPDEST DUP5 MSTORE PUSH1 0x20 DUP5 ADD SWAP4 POP PUSH1 0x20 DUP4 ADD SWAP3 POP POP PUSH1 0x1 DUP2 ADD SWAP1 POP PUSH2 0x11F8 JUMP JUMPDEST POP POP POP SWAP4 SWAP3 POP POP POP JUMP JUMPDEST PUSH1 0x0 PUSH2 0x1242 PUSH2 0x123D DUP5 PUSH2 0x1F7A JUMP JUMPDEST PUSH2 0x1ED1 JUMP JUMPDEST SWAP1 POP DUP3 DUP2 MSTORE PUSH1 0x20 DUP2 ADD DUP5 DUP5 DUP5 ADD GT ISZERO PUSH2 0x125E JUMPI PUSH2 0x125D PUSH2 0x2372 JUMP JUMPDEST JUMPDEST PUSH2 0x1269 DUP5 DUP3 DUP6 PUSH2 0x21A0 JUMP JUMPDEST POP SWAP4 SWAP3 POP POP POP JUMP JUMPDEST PUSH1 0x0 PUSH2 0x1284 PUSH2 0x127F DUP5 PUSH2 0x1FAB JUMP JUMPDEST PUSH2 0x1ED1 JUMP JUMPDEST SWAP1 POP DUP3 DUP2 MSTORE PUSH1 0x20 DUP2 ADD DUP5 DUP5 DUP5 ADD GT ISZERO PUSH2 0x12A0 JUMPI PUSH2 0x129F PUSH2 0x2372 JUMP JUMPDEST JUMPDEST PUSH2 0x12AB DUP5 DUP3 DUP6 PUSH2 0x21A0 JUMP JUMPDEST POP SWAP4 SWAP3 POP POP POP JUMP JUMPDEST PUSH1 0x0 DUP2 CALLDATALOAD SWAP1 POP PUSH2 0x12C2 DUP2 PUSH2 0x2436 JUMP JUMPDEST SWAP3 SWAP2 POP POP JUMP JUMPDEST PUSH1 0x0 DUP2 MLOAD SWAP1 POP PUSH2 0x12D7 DUP2 PUSH2 0x2436 JUMP JUMPDEST SWAP3 SWAP2 POP POP JUMP JUMPDEST PUSH1 0x0 DUP1 DUP4 PUSH1 0x1F DUP5 ADD SLT PUSH2 0x12F3 JUMPI PUSH2 0x12F2 PUSH2 0x2359 JUMP JUMPDEST JUMPDEST DUP3 CALLDATALOAD SWAP1 POP PUSH8 0xFFFFFFFFFFFFFFFF DUP2 GT ISZERO PUSH2 0x1310 JUMPI PUSH2 0x130F PUSH2 0x2354 JUMP JUMPDEST JUMPDEST PUSH1 0x20 DUP4 ADD SWAP2 POP DUP4 PUSH1 0x20 DUP3 MUL DUP4 ADD GT ISZERO PUSH2 0x132C JUMPI PUSH2 0x132B PUSH2 0x2368 JUMP JUMPDEST JUMPDEST SWAP3 POP SWAP3 SWAP1 POP JUMP JUMPDEST PUSH1 0x0 DUP3 PUSH1 0x1F DUP4 ADD SLT PUSH2 0x1348 JUMPI PUSH2 0x1347 PUSH2 0x2359 JUMP JUMPDEST JUMPDEST DUP2 CALLDATALOAD PUSH2 0x1358 DUP5 DUP3 PUSH1 0x20 DUP7 ADD PUSH2 0x10C1 JUMP JUMPDEST SWAP2 POP POP SWAP3 SWAP2 POP POP JUMP JUMPDEST PUSH1 0x0 DUP1 DUP4 PUSH1 0x1F DUP5 ADD SLT PUSH2 0x1377 JUMPI PUSH2 0x1376 PUSH2 0x2359 JUMP JUMPDEST JUMPDEST DUP3 CALLDATALOAD SWAP1 POP PUSH8 0xFFFFFFFFFFFFFFFF DUP2 GT ISZERO PUSH2 0x1394 JUMPI PUSH2 0x1393 PUSH2 0x2354 JUMP JUMPDEST JUMPDEST PUSH1 0x20 DUP4 ADD SWAP2 POP DUP4 PUSH1 0x20 DUP3 MUL DUP4 ADD GT ISZERO PUSH2 0x13B0 JUMPI PUSH2 0x13AF PUSH2 0x2368 JUMP JUMPDEST JUMPDEST SWAP3 POP SWAP3 SWAP1 POP JUMP JUMPDEST PUSH1 0x0 DUP3 PUSH1 0x1F DUP4 ADD SLT PUSH2 0x13CC JUMPI PUSH2 0x13CB PUSH2 0x2359 JUMP JUMPDEST JUMPDEST DUP2 CALLDATALOAD PUSH2 0x13DC DUP5 DUP3 PUSH1 0x20 DUP7 ADD PUSH2 0x1131 JUMP JUMPDEST SWAP2 POP POP SWAP3 SWAP2 POP POP JUMP JUMPDEST PUSH1 0x0 DUP1 DUP4 PUSH1 0x1F DUP5 ADD SLT PUSH2 0x13FB JUMPI PUSH2 0x13FA PUSH2 0x2359 JUMP JUMPDEST JUMPDEST DUP3 CALLDATALOAD SWAP1 POP PUSH8 0xFFFFFFFFFFFFFFFF DUP2 GT ISZERO PUSH2 0x1418 JUMPI PUSH2 0x1417 PUSH2 0x2354 JUMP JUMPDEST JUMPDEST PUSH1 0x20 DUP4 ADD SWAP2 POP DUP4 PUSH1 0x20 DUP3 MUL DUP4 ADD GT ISZERO PUSH2 0x1434 JUMPI PUSH2 0x1433 PUSH2 0x2368 JUMP JUMPDEST JUMPDEST SWAP3 POP SWAP3 SWAP1 POP JUMP JUMPDEST PUSH1 0x0 DUP1 DUP4 PUSH1 0x1F DUP5 ADD SLT PUSH2 0x1451 JUMPI PUSH2 0x1450 PUSH2 0x2359 JUMP JUMPDEST JUMPDEST DUP3 CALLDATALOAD SWAP1 POP PUSH8 0xFFFFFFFFFFFFFFFF DUP2 GT ISZERO PUSH2 0x146E JUMPI PUSH2 0x146D PUSH2 0x2354 JUMP JUMPDEST JUMPDEST PUSH1 0x20 DUP4 ADD SWAP2 POP DUP4 PUSH1 0x20 DUP3 MUL DUP4 ADD GT ISZERO PUSH2 0x148A JUMPI PUSH2 0x1489 PUSH2 0x2368 JUMP JUMPDEST JUMPDEST SWAP3 POP SWAP3 SWAP1 POP JUMP JUMPDEST PUSH1 0x0 DUP3 PUSH1 0x1F DUP4 ADD SLT PUSH2 0x14A6 JUMPI PUSH2 0x14A5 PUSH2 0x2359 JUMP JUMPDEST JUMPDEST DUP2 CALLDATALOAD PUSH2 0x14B6 DUP5 DUP3 PUSH1 0x20 DUP7 ADD PUSH2 0x11BF JUMP JUMPDEST SWAP2 POP POP SWAP3 SWAP2 POP POP JUMP JUMPDEST PUSH1 0x0 DUP2 CALLDATALOAD SWAP1 POP PUSH2 0x14CE DUP2 PUSH2 0x244D JUMP JUMPDEST SWAP3 SWAP2 POP POP JUMP JUMPDEST PUSH1 0x0 DUP3 PUSH1 0x1F DUP4 ADD SLT PUSH2 0x14E9 JUMPI PUSH2 0x14E8 PUSH2 0x2359 JUMP JUMPDEST JUMPDEST DUP2 CALLDATALOAD PUSH2 0x14F9 DUP5 DUP3 PUSH1 0x20 DUP7 ADD PUSH2 0x122F JUMP JUMPDEST SWAP2 POP POP SWAP3 SWAP2 POP POP JUMP JUMPDEST PUSH1 0x0 DUP1 DUP4 PUSH1 0x1F DUP5 ADD SLT PUSH2 0x1518 JUMPI PUSH2 0x1517 PUSH2 0x2359 JUMP JUMPDEST JUMPDEST DUP3 CALLDATALOAD SWAP1 POP PUSH8 0xFFFFFFFFFFFFFFFF DUP2 GT ISZERO PUSH2 0x1535 JUMPI PUSH2 0x1534 PUSH2 0x2354 JUMP JUMPDEST JUMPDEST PUSH1 0x20 DUP4 ADD SWAP2 POP DUP4 PUSH1 0x1 DUP3 MUL DUP4 ADD GT ISZERO PUSH2 0x1551 JUMPI PUSH2 0x1550 PUSH2 0x2368 JUMP JUMPDEST JUMPDEST SWAP3 POP SWAP3 SWAP1 POP JUMP JUMPDEST PUSH1 0x0 DUP3 PUSH1 0x1F DUP4 ADD SLT PUSH2 0x156D JUMPI PUSH2 0x156C PUSH2 0x2359 JUMP JUMPDEST JUMPDEST DUP2 CALLDATALOAD PUSH2 0x157D DUP5 DUP3 PUSH1 0x20 DUP7 ADD PUSH2 0x1271 JUMP JUMPDEST SWAP2 POP POP SWAP3 SWAP2 POP POP JUMP JUMPDEST PUSH1 0x0 DUP2 CALLDATALOAD SWAP1 POP PUSH2 0x1595 DUP2 PUSH2 0x2464 JUMP JUMPDEST SWAP3 SWAP2 POP POP JUMP JUMPDEST PUSH1 0x0 PUSH1 0x20 DUP3 DUP5 SUB SLT ISZERO PUSH2 0x15B1 JUMPI PUSH2 0x15B0 PUSH2 0x237C JUMP JUMPDEST JUMPDEST PUSH1 0x0 PUSH2 0x15BF DUP5 DUP3 DUP6 ADD PUSH2 0x12C8 JUMP JUMPDEST SWAP2 POP POP SWAP3 SWAP2 POP POP JUMP JUMPDEST PUSH1 0x0 DUP1 PUSH1 0x0 DUP1 PUSH1 0x0 DUP1 PUSH1 0x0 DUP1 PUSH1 0x0 DUP1 PUSH1 0xA0 DUP12 DUP14 SUB SLT ISZERO PUSH2 0x15EB JUMPI PUSH2 0x15EA PUSH2 0x237C JUMP JUMPDEST JUMPDEST PUSH1 0x0 DUP12 ADD CALLDATALOAD PUSH8 0xFFFFFFFFFFFFFFFF DUP2 GT ISZERO PUSH2 0x1609 JUMPI PUSH2 0x1608 PUSH2 0x2377 JUMP JUMPDEST JUMPDEST PUSH2 0x1615 DUP14 DUP3 DUP15 ADD PUSH2 0x12DD JUMP JUMPDEST SWAP11 POP SWAP11 POP POP PUSH1 0x20 DUP12 ADD CALLDATALOAD PUSH8 0xFFFFFFFFFFFFFFFF DUP2 GT ISZERO PUSH2 0x1638 JUMPI PUSH2 0x1637 PUSH2 0x2377 JUMP JUMPDEST JUMPDEST PUSH2 0x1644 DUP14 DUP3 DUP15 ADD PUSH2 0x13E5 JUMP JUMPDEST SWAP9 POP SWAP9 POP POP PUSH1 0x40 DUP12 ADD CALLDATALOAD PUSH8 0xFFFFFFFFFFFFFFFF DUP2 GT ISZERO PUSH2 0x1667 JUMPI PUSH2 0x1666 PUSH2 0x2377 JUMP JUMPDEST JUMPDEST PUSH2 0x1673 DUP14 DUP3 DUP15 ADD PUSH2 0x1361 JUMP JUMPDEST SWAP7 POP SWAP7 POP POP PUSH1 0x60 DUP12 ADD CALLDATALOAD PUSH8 0xFFFFFFFFFFFFFFFF DUP2 GT ISZERO PUSH2 0x1696 JUMPI PUSH2 0x1695 PUSH2 0x2377 JUMP JUMPDEST JUMPDEST PUSH2 0x16A2 DUP14 DUP3 DUP15 ADD PUSH2 0x143B JUMP JUMPDEST SWAP5 POP SWAP5 POP POP PUSH1 0x80 DUP12 ADD CALLDATALOAD PUSH8 0xFFFFFFFFFFFFFFFF DUP2 GT ISZERO PUSH2 0x16C5 JUMPI PUSH2 0x16C4 PUSH2 0x2377 JUMP JUMPDEST JUMPDEST PUSH2 0x16D1 DUP14 DUP3 DUP15 ADD PUSH2 0x1502 JUMP JUMPDEST SWAP3 POP SWAP3 POP POP SWAP3 SWAP6 SWAP9 SWAP12 SWAP2 SWAP5 SWAP8 SWAP11 POP SWAP3 SWAP6 SWAP9 POP JUMP JUMPDEST PUSH1 0x0 DUP1 PUSH1 0x0 DUP1 PUSH1 0x80 DUP6 DUP8 SUB SLT ISZERO PUSH2 0x16FF JUMPI PUSH2 0x16FE PUSH2 0x237C JUMP JUMPDEST JUMPDEST PUSH1 0x0 DUP6 ADD CALLDATALOAD PUSH8 0xFFFFFFFFFFFFFFFF DUP2 GT ISZERO PUSH2 0x171D JUMPI PUSH2 0x171C PUSH2 0x2377 JUMP JUMPDEST JUMPDEST PUSH2 0x1729 DUP8 DUP3 DUP9 ADD PUSH2 0x1333 JUMP JUMPDEST SWAP5 POP POP PUSH1 0x20 DUP6 ADD CALLDATALOAD PUSH8 0xFFFFFFFFFFFFFFFF DUP2 GT ISZERO PUSH2 0x174A JUMPI PUSH2 0x1749 PUSH2 0x2377 JUMP JUMPDEST JUMPDEST PUSH2 0x1756 DUP8 DUP3 DUP9 ADD PUSH2 0x1491 JUMP JUMPDEST SWAP4 POP POP PUSH1 0x40 DUP6 ADD CALLDATALOAD PUSH8 0xFFFFFFFFFFFFFFFF DUP2 GT ISZERO PUSH2 0x1777 JUMPI PUSH2 0x1776 PUSH2 0x2377 JUMP JUMPDEST JUMPDEST PUSH2 0x1783 DUP8 DUP3 DUP9 ADD PUSH2 0x13B7 JUMP JUMPDEST SWAP3 POP POP PUSH1 0x60 DUP6 ADD CALLDATALOAD PUSH8 0xFFFFFFFFFFFFFFFF DUP2 GT ISZERO PUSH2 0x17A4 JUMPI PUSH2 0x17A3 PUSH2 0x2377 JUMP JUMPDEST JUMPDEST PUSH2 0x17B0 DUP8 DUP3 DUP9 ADD PUSH2 0x1558 JUMP JUMPDEST SWAP2 POP POP SWAP3 SWAP6 SWAP2 SWAP5 POP SWAP3 POP JUMP JUMPDEST PUSH1 0x0 PUSH1 0x20 DUP3 DUP5 SUB SLT ISZERO PUSH2 0x17D2 JUMPI PUSH2 0x17D1 PUSH2 0x237C JUMP JUMPDEST JUMPDEST PUSH1 0x0 PUSH2 0x17E0 DUP5 DUP3 DUP6 ADD PUSH2 0x14BF JUMP JUMPDEST SWAP2 POP POP SWAP3 SWAP2 POP POP JUMP JUMPDEST PUSH1 0x0 DUP1 PUSH1 0x40 DUP4 DUP6 SUB SLT ISZERO PUSH2 0x1800 JUMPI PUSH2 0x17FF PUSH2 0x237C JUMP JUMPDEST JUMPDEST PUSH1 0x0 PUSH2 0x180E DUP6 DUP3 DUP7 ADD PUSH2 0x1586 JUMP JUMPDEST SWAP3 POP POP PUSH1 0x20 PUSH2 0x181F DUP6 DUP3 DUP7 ADD PUSH2 0x14BF JUMP JUMPDEST SWAP2 POP POP SWAP3 POP SWAP3 SWAP1 POP JUMP JUMPDEST PUSH1 0x0 PUSH2 0x1835 DUP4 DUP4 PUSH2 0x186D JUMP JUMPDEST PUSH1 0x20 DUP4 ADD SWAP1 POP SWAP3 SWAP2 POP POP JUMP JUMPDEST PUSH1 0x0 PUSH2 0x184D DUP4 DUP4 PUSH2 0x1A64 JUMP JUMPDEST SWAP1 POP SWAP3 SWAP2 POP POP JUMP JUMPDEST PUSH1 0x0 PUSH2 0x1861 DUP4 DUP4 PUSH2 0x1B9E JUMP JUMPDEST PUSH1 0x20 DUP4 ADD SWAP1 POP SWAP3 SWAP2 POP POP JUMP JUMPDEST PUSH2 0x1876 DUP2 PUSH2 0x20F8 JUMP JUMPDEST DUP3 MSTORE POP POP JUMP JUMPDEST PUSH2 0x1885 DUP2 PUSH2 0x20F8 JUMP JUMPDEST DUP3 MSTORE POP POP JUMP JUMPDEST PUSH1 0x0 PUSH2 0x1897 DUP4 DUP6 PUSH2 0x2081 JUMP JUMPDEST SWAP4 POP PUSH2 0x18A2 DUP3 PUSH2 0x1FDC JUMP JUMPDEST DUP1 PUSH1 0x0 JUMPDEST DUP6 DUP2 LT ISZERO PUSH2 0x18DB JUMPI PUSH2 0x18B8 DUP3 DUP5 PUSH2 0x20E1 JUMP JUMPDEST PUSH2 0x18C2 DUP9 DUP3 PUSH2 0x1829 JUMP JUMPDEST SWAP8 POP PUSH2 0x18CD DUP4 PUSH2 0x204D JUMP JUMPDEST SWAP3 POP POP PUSH1 0x1 DUP2 ADD SWAP1 POP PUSH2 0x18A6 JUMP JUMPDEST POP DUP6 SWAP3 POP POP POP SWAP4 SWAP3 POP POP POP JUMP JUMPDEST PUSH1 0x0 PUSH2 0x18F3 DUP3 PUSH2 0x2016 JUMP JUMPDEST PUSH2 0x18FD DUP2 DUP6 PUSH2 0x2081 JUMP JUMPDEST SWAP4 POP PUSH2 0x1908 DUP4 PUSH2 0x1FE6 JUMP JUMPDEST DUP1 PUSH1 0x0 JUMPDEST DUP4 DUP2 LT ISZERO PUSH2 0x1939 JUMPI DUP2 MLOAD PUSH2 0x1920 DUP9 DUP3 PUSH2 0x1829 JUMP JUMPDEST SWAP8 POP PUSH2 0x192B DUP4 PUSH2 0x205A JUMP JUMPDEST SWAP3 POP POP PUSH1 0x1 DUP2 ADD SWAP1 POP PUSH2 0x190C JUMP JUMPDEST POP DUP6 SWAP4 POP POP POP POP SWAP3 SWAP2 POP POP JUMP JUMPDEST PUSH1 0x0 PUSH2 0x1951 DUP3 PUSH2 0x2021 JUMP JUMPDEST PUSH2 0x195B DUP2 DUP6 PUSH2 0x2092 JUMP JUMPDEST SWAP4 POP DUP4 PUSH1 0x20 DUP3 MUL DUP6 ADD PUSH2 0x196D DUP6 PUSH2 0x1FF6 JUMP JUMPDEST DUP1 PUSH1 0x0 JUMPDEST DUP6 DUP2 LT ISZERO PUSH2 0x19A9 JUMPI DUP5 DUP5 SUB DUP10 MSTORE DUP2 MLOAD PUSH2 0x198A DUP6 DUP3 PUSH2 0x1841 JUMP JUMPDEST SWAP5 POP PUSH2 0x1995 DUP4 PUSH2 0x2067 JUMP JUMPDEST SWAP3 POP PUSH1 0x20 DUP11 ADD SWAP10 POP POP PUSH1 0x1 DUP2 ADD SWAP1 POP PUSH2 0x1971 JUMP JUMPDEST POP DUP3 SWAP8 POP DUP8 SWAP6 POP POP POP POP POP POP SWAP3 SWAP2 POP POP JUMP JUMPDEST PUSH1 0x0 PUSH2 0x19C6 DUP3 PUSH2 0x202C JUMP JUMPDEST PUSH2 0x19D0 DUP2 DUP6 PUSH2 0x20A3 JUMP JUMPDEST SWAP4 POP PUSH2 0x19DB DUP4 PUSH2 0x2006 JUMP JUMPDEST DUP1 PUSH1 0x0 JUMPDEST DUP4 DUP2 LT ISZERO PUSH2 0x1A0C JUMPI DUP2 MLOAD PUSH2 0x19F3 DUP9 DUP3 PUSH2 0x1855 JUMP JUMPDEST SWAP8 POP PUSH2 0x19FE DUP4 PUSH2 0x2074 JUMP JUMPDEST SWAP3 POP POP PUSH1 0x1 DUP2 ADD SWAP1 POP PUSH2 0x19DF JUMP JUMPDEST POP DUP6 SWAP4 POP POP POP POP SWAP3 SWAP2 POP POP JUMP JUMPDEST PUSH2 0x1A22 DUP2 PUSH2 0x210A JUMP JUMPDEST DUP3 MSTORE POP POP JUMP JUMPDEST PUSH2 0x1A39 PUSH2 0x1A34 DUP3 PUSH2 0x2114 JUMP JUMPDEST PUSH2 0x228E JUMP JUMPDEST DUP3 MSTORE POP POP JUMP JUMPDEST PUSH1 0x0 PUSH2 0x1A4B DUP4 DUP6 PUSH2 0x20C5 JUMP JUMPDEST SWAP4 POP PUSH2 0x1A58 DUP4 DUP6 DUP5 PUSH2 0x21A0 JUMP JUMPDEST DUP3 DUP5 ADD SWAP1 POP SWAP4 SWAP3 POP POP POP JUMP JUMPDEST PUSH1 0x0 PUSH2 0x1A6F DUP3 PUSH2 0x2037 JUMP JUMPDEST PUSH2 0x1A79 DUP2 DUP6 PUSH2 0x20B4 JUMP JUMPDEST SWAP4 POP PUSH2 0x1A89 DUP2 DUP6 PUSH1 0x20 DUP7 ADD PUSH2 0x21AF JUMP JUMPDEST PUSH2 0x1A92 DUP2 PUSH2 0x2381 JUMP JUMPDEST DUP5 ADD SWAP2 POP POP SWAP3 SWAP2 POP POP JUMP JUMPDEST PUSH2 0x1AA6 DUP2 PUSH2 0x216A JUMP JUMPDEST DUP3 MSTORE POP POP JUMP JUMPDEST PUSH1 0x0 PUSH2 0x1AB8 DUP4 DUP6 PUSH2 0x20D0 JUMP JUMPDEST SWAP4 POP PUSH2 0x1AC5 DUP4 DUP6 DUP5 PUSH2 0x21A0 JUMP JUMPDEST PUSH2 0x1ACE DUP4 PUSH2 0x2381 JUMP JUMPDEST DUP5 ADD SWAP1 POP SWAP4 SWAP3 POP POP POP JUMP JUMPDEST PUSH1 0x0 PUSH2 0x1AE4 DUP3 PUSH2 0x2042 JUMP JUMPDEST PUSH2 0x1AEE DUP2 DUP6 PUSH2 0x20D0 JUMP JUMPDEST SWAP4 POP PUSH2 0x1AFE DUP2 DUP6 PUSH1 0x20 DUP7 ADD PUSH2 0x21AF JUMP JUMPDEST PUSH2 0x1B07 DUP2 PUSH2 0x2381 JUMP JUMPDEST DUP5 ADD SWAP2 POP POP SWAP3 SWAP2 POP POP JUMP JUMPDEST PUSH1 0x0 PUSH2 0x1B1F PUSH1 0x17 DUP4 PUSH2 0x20D0 JUMP JUMPDEST SWAP2 POP PUSH2 0x1B2A DUP3 PUSH2 0x2392 JUMP JUMPDEST PUSH1 0x20 DUP3 ADD SWAP1 POP SWAP2 SWAP1 POP JUMP JUMPDEST PUSH1 0x0 PUSH2 0x1B42 PUSH1 0x17 DUP4 PUSH2 0x20D0 JUMP JUMPDEST SWAP2 POP PUSH2 0x1B4D DUP3 PUSH2 0x23BB JUMP JUMPDEST PUSH1 0x20 DUP3 ADD SWAP1 POP SWAP2 SWAP1 POP JUMP JUMPDEST PUSH1 0x0 PUSH2 0x1B65 PUSH1 0x1A DUP4 PUSH2 0x20D0 JUMP JUMPDEST SWAP2 POP PUSH2 0x1B70 DUP3 PUSH2 0x23E4 JUMP JUMPDEST PUSH1 0x20 DUP3 ADD SWAP1 POP SWAP2 SWAP1 POP JUMP JUMPDEST PUSH1 0x0 PUSH2 0x1B88 PUSH1 0x1A DUP4 PUSH2 0x20D0 JUMP JUMPDEST SWAP2 POP PUSH2 0x1B93 DUP3 PUSH2 0x240D JUMP JUMPDEST PUSH1 0x20 DUP3 ADD SWAP1 POP SWAP2 SWAP1 POP JUMP JUMPDEST PUSH2 0x1BA7 DUP2 PUSH2 0x2160 JUMP JUMPDEST DUP3 MSTORE POP POP JUMP JUMPDEST PUSH1 0x0 PUSH2 0x1BB9 DUP3 DUP7 PUSH2 0x1A28 JUMP JUMPDEST PUSH1 0x4 DUP3 ADD SWAP2 POP PUSH2 0x1BCA DUP3 DUP5 DUP7 PUSH2 0x1A3F JUMP JUMPDEST SWAP2 POP DUP2 SWAP1 POP SWAP5 SWAP4 POP POP POP POP JUMP JUMPDEST PUSH1 0x0 PUSH2 0x1BE4 DUP3 DUP5 DUP7 PUSH2 0x1A3F JUMP JUMPDEST SWAP2 POP DUP2 SWAP1 POP SWAP4 SWAP3 POP POP POP JUMP JUMPDEST PUSH1 0x0 PUSH1 0x60 DUP3 ADD SWAP1 POP DUP2 DUP2 SUB PUSH1 0x0 DUP4 ADD MSTORE PUSH2 0x1C0A DUP2 DUP7 PUSH2 0x18E8 JUMP JUMPDEST SWAP1 POP DUP2 DUP2 SUB PUSH1 0x20 DUP4 ADD MSTORE PUSH2 0x1C1E DUP2 DUP6 PUSH2 0x1946 JUMP JUMPDEST SWAP1 POP DUP2 DUP2 SUB PUSH1 0x40 DUP4 ADD MSTORE PUSH2 0x1C32 DUP2 DUP5 PUSH2 0x19BB JUMP JUMPDEST SWAP1 POP SWAP5 SWAP4 POP POP POP POP JUMP JUMPDEST PUSH1 0x0 PUSH1 0xA0 DUP3 ADD SWAP1 POP DUP2 DUP2 SUB PUSH1 0x0 DUP4 ADD MSTORE PUSH2 0x1C56 DUP2 DUP9 PUSH2 0x18E8 JUMP JUMPDEST SWAP1 POP DUP2 DUP2 SUB PUSH1 0x20 DUP4 ADD MSTORE PUSH2 0x1C6A DUP2 DUP8 PUSH2 0x1946 JUMP JUMPDEST SWAP1 POP DUP2 DUP2 SUB PUSH1 0x40 DUP4 ADD MSTORE PUSH2 0x1C7E DUP2 DUP7 PUSH2 0x19BB JUMP JUMPDEST SWAP1 POP DUP2 DUP2 SUB PUSH1 0x60 DUP4 ADD MSTORE PUSH2 0x1C92 DUP2 DUP6 PUSH2 0x1AD9 JUMP JUMPDEST SWAP1 POP PUSH2 0x1CA1 PUSH1 0x80 DUP4 ADD DUP5 PUSH2 0x187C JUMP JUMPDEST SWAP7 SWAP6 POP POP POP POP POP POP JUMP JUMPDEST PUSH1 0x0 PUSH1 0x80 DUP3 ADD SWAP1 POP DUP2 DUP2 SUB PUSH1 0x0 DUP4 ADD MSTORE PUSH2 0x1CC5 DUP2 DUP8 PUSH2 0x18E8 JUMP JUMPDEST SWAP1 POP DUP2 DUP2 SUB PUSH1 0x20 DUP4 ADD MSTORE PUSH2 0x1CD9 DUP2 DUP7 PUSH2 0x19BB JUMP JUMPDEST SWAP1 POP DUP2 DUP2 SUB PUSH1 0x40 DUP4 ADD MSTORE PUSH2 0x1CED DUP2 DUP6 PUSH2 0x1946 JUMP JUMPDEST SWAP1 POP DUP2 DUP2 SUB PUSH1 0x60 DUP4 ADD MSTORE PUSH2 0x1D01 DUP2 DUP5 PUSH2 0x1AD9 JUMP JUMPDEST SWAP1 POP SWAP6 SWAP5 POP POP POP POP POP JUMP JUMPDEST PUSH1 0x0 PUSH1 0x20 DUP3 ADD SWAP1 POP PUSH2 0x1D21 PUSH1 0x0 DUP4 ADD DUP5 PUSH2 0x1A19 JUMP JUMPDEST SWAP3 SWAP2 POP POP JUMP JUMPDEST PUSH1 0x0 PUSH1 0x60 DUP3 ADD SWAP1 POP PUSH2 0x1D3C PUSH1 0x0 DUP4 ADD DUP9 PUSH2 0x1A19 JUMP JUMPDEST DUP2 DUP2 SUB PUSH1 0x20 DUP4 ADD MSTORE PUSH2 0x1D4F DUP2 DUP7 DUP9 PUSH2 0x188B JUMP JUMPDEST SWAP1 POP DUP2 DUP2 SUB PUSH1 0x40 DUP4 ADD MSTORE PUSH2 0x1D64 DUP2 DUP5 DUP7 PUSH2 0x1AAC JUMP JUMPDEST SWAP1 POP SWAP7 SWAP6 POP POP POP POP POP POP JUMP JUMPDEST PUSH1 0x0 PUSH1 0x20 DUP3 ADD SWAP1 POP PUSH2 0x1D85 PUSH1 0x0 DUP4 ADD DUP5 PUSH2 0x1A9D JUMP JUMPDEST SWAP3 SWAP2 POP POP JUMP JUMPDEST PUSH1 0x0 PUSH1 0x20 DUP3 ADD SWAP1 POP DUP2 DUP2 SUB PUSH1 0x0 DUP4 ADD MSTORE PUSH2 0x1DA4 DUP2 PUSH2 0x1B12 JUMP JUMPDEST SWAP1 POP SWAP2 SWAP1 POP JUMP JUMPDEST PUSH1 0x0 PUSH1 0x20 DUP3 ADD SWAP1 POP DUP2 DUP2 SUB PUSH1 0x0 DUP4 ADD MSTORE PUSH2 0x1DC4 DUP2 PUSH2 0x1B35 JUMP JUMPDEST SWAP1 POP SWAP2 SWAP1 POP JUMP JUMPDEST PUSH1 0x0 PUSH1 0x20 DUP3 ADD SWAP1 POP DUP2 DUP2 SUB PUSH1 0x0 DUP4 ADD MSTORE PUSH2 0x1DE4 DUP2 PUSH2 0x1B58 JUMP JUMPDEST SWAP1 POP SWAP2 SWAP1 POP JUMP JUMPDEST PUSH1 0x0 PUSH1 0x20 DUP3 ADD SWAP1 POP DUP2 DUP2 SUB PUSH1 0x0 DUP4 ADD MSTORE PUSH2 0x1E04 DUP2 PUSH2 0x1B7B JUMP JUMPDEST SWAP1 POP SWAP2 SWAP1 POP JUMP JUMPDEST PUSH1 0x0 DUP1 DUP4 CALLDATALOAD PUSH1 0x1 PUSH1 0x20 SUB DUP5 CALLDATASIZE SUB SUB DUP2 SLT PUSH2 0x1E28 JUMPI PUSH2 0x1E27 PUSH2 0x2363 JUMP JUMPDEST JUMPDEST DUP1 DUP5 ADD SWAP3 POP DUP3 CALLDATALOAD SWAP2 POP PUSH8 0xFFFFFFFFFFFFFFFF DUP3 GT ISZERO PUSH2 0x1E4A JUMPI PUSH2 0x1E49 PUSH2 0x235E JUMP JUMPDEST JUMPDEST PUSH1 0x20 DUP4 ADD SWAP3 POP PUSH1 0x1 DUP3 MUL CALLDATASIZE SUB DUP4 SGT ISZERO PUSH2 0x1E66 JUMPI PUSH2 0x1E65 PUSH2 0x236D JUMP JUMPDEST JUMPDEST POP SWAP3 POP SWAP3 SWAP1 POP JUMP JUMPDEST PUSH1 0x0 DUP1 DUP4 CALLDATALOAD PUSH1 0x1 PUSH1 0x20 SUB DUP5 CALLDATASIZE SUB SUB DUP2 SLT PUSH2 0x1E8B JUMPI PUSH2 0x1E8A PUSH2 0x2363 JUMP JUMPDEST JUMPDEST DUP1 DUP5 ADD SWAP3 POP DUP3 CALLDATALOAD SWAP2 POP PUSH8 0xFFFFFFFFFFFFFFFF DUP3 GT ISZERO PUSH2 0x1EAD JUMPI PUSH2 0x1EAC PUSH2 0x235E JUMP JUMPDEST JUMPDEST PUSH1 0x20 DUP4 ADD SWAP3 POP PUSH1 0x1 DUP3 MUL CALLDATASIZE SUB DUP4 SGT ISZERO PUSH2 0x1EC9 JUMPI PUSH2 0x1EC8 PUSH2 0x236D JUMP JUMPDEST JUMPDEST POP SWAP3 POP SWAP3 SWAP1 POP JUMP JUMPDEST PUSH1 0x0 PUSH2 0x1EDB PUSH2 0x1EEC JUMP JUMPDEST SWAP1 POP PUSH2 0x1EE7 DUP3 DUP3 PUSH2 0x2214 JUMP JUMPDEST SWAP2 SWAP1 POP JUMP JUMPDEST PUSH1 0x0 PUSH1 0x40 MLOAD SWAP1 POP SWAP1 JUMP JUMPDEST PUSH1 0x0 PUSH8 0xFFFFFFFFFFFFFFFF DUP3 GT ISZERO PUSH2 0x1F11 JUMPI PUSH2 0x1F10 PUSH2 0x2325 JUMP JUMPDEST JUMPDEST PUSH1 0x20 DUP3 MUL SWAP1 POP PUSH1 0x20 DUP2 ADD SWAP1 POP SWAP2 SWAP1 POP JUMP JUMPDEST PUSH1 0x0 PUSH8 0xFFFFFFFFFFFFFFFF DUP3 GT ISZERO PUSH2 0x1F3D JUMPI PUSH2 0x1F3C PUSH2 0x2325 JUMP JUMPDEST JUMPDEST PUSH1 0x20 DUP3 MUL SWAP1 POP PUSH1 0x20 DUP2 ADD SWAP1 POP SWAP2 SWAP1 POP JUMP JUMPDEST PUSH1 0x0 PUSH8 0xFFFFFFFFFFFFFFFF DUP3 GT ISZERO PUSH2 0x1F69 JUMPI PUSH2 0x1F68 PUSH2 0x2325 JUMP JUMPDEST JUMPDEST PUSH1 0x20 DUP3 MUL SWAP1 POP PUSH1 0x20 DUP2 ADD SWAP1 POP SWAP2 SWAP1 POP JUMP JUMPDEST PUSH1 0x0 PUSH8 0xFFFFFFFFFFFFFFFF DUP3 GT ISZERO PUSH2 0x1F95 JUMPI PUSH2 0x1F94 PUSH2 0x2325 JUMP JUMPDEST JUMPDEST PUSH2 0x1F9E DUP3 PUSH2 0x2381 JUMP JUMPDEST SWAP1 POP PUSH1 0x20 DUP2 ADD SWAP1 POP SWAP2 SWAP1 POP JUMP JUMPDEST PUSH1 0x0 PUSH8 0xFFFFFFFFFFFFFFFF DUP3 GT ISZERO PUSH2 0x1FC6 JUMPI PUSH2 0x1FC5 PUSH2 0x2325 JUMP JUMPDEST JUMPDEST PUSH2 0x1FCF DUP3 PUSH2 0x2381 JUMP JUMPDEST SWAP1 POP PUSH1 0x20 DUP2 ADD SWAP1 POP SWAP2 SWAP1 POP JUMP JUMPDEST PUSH1 0x0 DUP2 SWAP1 POP SWAP2 SWAP1 POP JUMP JUMPDEST PUSH1 0x0 DUP2 SWAP1 POP PUSH1 0x20 DUP3 ADD SWAP1 POP SWAP2 SWAP1 POP JUMP JUMPDEST PUSH1 0x0 DUP2 SWAP1 POP PUSH1 0x20 DUP3 ADD SWAP1 POP SWAP2 SWAP1 POP JUMP JUMPDEST PUSH1 0x0 DUP2 SWAP1 POP PUSH1 0x20 DUP3 ADD SWAP1 POP SWAP2 SWAP1 POP JUMP JUMPDEST PUSH1 0x0 DUP2 MLOAD SWAP1 POP SWAP2 SWAP1 POP JUMP JUMPDEST PUSH1 0x0 DUP2 MLOAD SWAP1 POP SWAP2 SWAP1 POP JUMP JUMPDEST PUSH1 0x0 DUP2 MLOAD SWAP1 POP SWAP2 SWAP1 POP JUMP JUMPDEST PUSH1 0x0 DUP2 MLOAD SWAP1 POP SWAP2 SWAP1 POP JUMP JUMPDEST PUSH1 0x0 DUP2 MLOAD SWAP1 POP SWAP2 SWAP1 POP JUMP JUMPDEST PUSH1 0x0 PUSH1 0x20 DUP3 ADD SWAP1 POP SWAP2 SWAP1 POP JUMP JUMPDEST PUSH1 0x0 PUSH1 0x20 DUP3 ADD SWAP1 POP SWAP2 SWAP1 POP JUMP JUMPDEST PUSH1 0x0 PUSH1 0x20 DUP3 ADD SWAP1 POP SWAP2 SWAP1 POP JUMP JUMPDEST PUSH1 0x0 PUSH1 0x20 DUP3 ADD SWAP1 POP SWAP2 SWAP1 POP JUMP JUMPDEST PUSH1 0x0 DUP3 DUP3 MSTORE PUSH1 0x20 DUP3 ADD SWAP1 POP SWAP3 SWAP2 POP POP JUMP JUMPDEST PUSH1 0x0 DUP3 DUP3 MSTORE PUSH1 0x20 DUP3 ADD SWAP1 POP SWAP3 SWAP2 POP POP JUMP JUMPDEST PUSH1 0x0 DUP3 DUP3 MSTORE PUSH1 0x20 DUP3 ADD SWAP1 POP SWAP3 SWAP2 POP POP JUMP JUMPDEST PUSH1 0x0 DUP3 DUP3 MSTORE PUSH1 0x20 DUP3 ADD SWAP1 POP SWAP3 SWAP2 POP POP JUMP JUMPDEST PUSH1 0x0 DUP2 SWAP1 POP SWAP3 SWAP2 POP POP JUMP JUMPDEST PUSH1 0x0 DUP3 DUP3 MSTORE PUSH1 0x20 DUP3 ADD SWAP1 POP SWAP3 SWAP2 POP POP JUMP JUMPDEST PUSH1 0x0 PUSH2 0x20F0 PUSH1 0x20 DUP5 ADD DUP5 PUSH2 0x12B3 JUMP JUMPDEST SWAP1 POP SWAP3 SWAP2 POP POP JUMP JUMPDEST PUSH1 0x0 PUSH2 0x2103 DUP3 PUSH2 0x2140 JUMP JUMPDEST SWAP1 POP SWAP2 SWAP1 POP JUMP JUMPDEST PUSH1 0x0 DUP2 SWAP1 POP SWAP2 SWAP1 POP JUMP JUMPDEST PUSH1 0x0 PUSH32 0xFFFFFFFF00000000000000000000000000000000000000000000000000000000 DUP3 AND SWAP1 POP SWAP2 SWAP1 POP JUMP JUMPDEST PUSH1 0x0 PUSH20 0xFFFFFFFFFFFFFFFFFFFFFFFFFFFFFFFFFFFFFFFF DUP3 AND SWAP1 POP SWAP2 SWAP1 POP JUMP JUMPDEST PUSH1 0x0 DUP2 SWAP1 POP SWAP2 SWAP1 POP JUMP JUMPDEST PUSH1 0x0 PUSH2 0x2175 DUP3 PUSH2 0x217C JUMP JUMPDEST SWAP1 POP SWAP2 SWAP1 POP JUMP JUMPDEST PUSH1 0x0 PUSH2 0x2187 DUP3 PUSH2 0x218E JUMP JUMPDEST SWAP1 POP SWAP2 SWAP1 POP JUMP JUMPDEST PUSH1 0x0 PUSH2 0x2199 DUP3 PUSH2 0x2140 JUMP JUMPDEST SWAP1 POP SWAP2 SWAP1 POP JUMP JUMPDEST DUP3 DUP2 DUP4 CALLDATACOPY PUSH1 0x0 DUP4 DUP4 ADD MSTORE POP POP POP JUMP JUMPDEST PUSH1 0x0 JUMPDEST DUP4 DUP2 LT ISZERO PUSH2 0x21CD JUMPI DUP1 DUP3 ADD MLOAD DUP2 DUP5 ADD MSTORE PUSH1 0x20 DUP2 ADD SWAP1 POP PUSH2 0x21B2 JUMP JUMPDEST DUP4 DUP2 GT ISZERO PUSH2 0x21DC JUMPI PUSH1 0x0 DUP5 DUP5 ADD MSTORE JUMPDEST POP POP POP POP JUMP JUMPDEST PUSH1 0x0 PUSH1 0x2 DUP3 DIV SWAP1 POP PUSH1 0x1 DUP3 AND DUP1 PUSH2 0x21FA JUMPI PUSH1 0x7F DUP3 AND SWAP2 POP JUMPDEST PUSH1 0x20 DUP3 LT DUP2 EQ ISZERO PUSH2 0x220E JUMPI PUSH2 0x220D PUSH2 0x22C7 JUMP JUMPDEST JUMPDEST POP SWAP2 SWAP1 POP JUMP JUMPDEST PUSH2 0x221D DUP3 PUSH2 0x2381 JUMP JUMPDEST DUP2 ADD DUP2 DUP2 LT PUSH8 0xFFFFFFFFFFFFFFFF DUP3 GT OR ISZERO PUSH2 0x223C JUMPI PUSH2 0x223B PUSH2 0x2325 JUMP JUMPDEST JUMPDEST DUP1 PUSH1 0x40 MSTORE POP POP POP JUMP JUMPDEST PUSH1 0x0 PUSH2 0x2250 DUP3 PUSH2 0x2160 JUMP JUMPDEST SWAP2 POP PUSH32 0xFFFFFFFFFFFFFFFFFFFFFFFFFFFFFFFFFFFFFFFFFFFFFFFFFFFFFFFFFFFFFFFF DUP3 EQ ISZERO PUSH2 0x2283 JUMPI PUSH2 0x2282 PUSH2 0x2298 JUMP JUMPDEST JUMPDEST PUSH1 0x1 DUP3 ADD SWAP1 POP SWAP2 SWAP1 POP JUMP JUMPDEST PUSH1 0x0 DUP2 SWAP1 POP SWAP2 SWAP1 POP JUMP JUMPDEST PUSH32 0x4E487B7100000000000000000000000000000000000000000000000000000000 PUSH1 0x0 MSTORE PUSH1 0x11 PUSH1 0x4 MSTORE PUSH1 0x24 PUSH1 0x0 REVERT JUMPDEST PUSH32 0x4E487B7100000000000000000000000000000000000000000000000000000000 PUSH1 0x0 MSTORE PUSH1 0x22 PUSH1 0x4 MSTORE PUSH1 0x24 PUSH1 0x0 REVERT JUMPDEST PUSH32 0x4E487B7100000000000000000000000000000000000000000000000000000000 PUSH1 0x0 MSTORE PUSH1 0x32 PUSH1 0x4 MSTORE PUSH1 0x24 PUSH1 0x0 REVERT JUMPDEST PUSH32 0x4E487B7100000000000000000000000000000000000000000000000000000000 PUSH1 0x0 MSTORE PUSH1 0x41 PUSH1 0x4 MSTORE PUSH1 0x24 PUSH1 0x0 REVERT JUMPDEST PUSH1 0x0 DUP1 REVERT JUMPDEST PUSH1 0x0 DUP1 REVERT JUMPDEST PUSH1 0x0 DUP1 REVERT JUMPDEST PUSH1 0x0 DUP1 REVERT JUMPDEST PUSH1 0x0 DUP1 REVERT JUMPDEST PUSH1 0x0 DUP1 REVERT JUMPDEST PUSH1 0x0 DUP1 REVERT JUMPDEST PUSH1 0x0 DUP1 REVERT JUMPDEST PUSH1 0x0 DUP1 REVERT JUMPDEST PUSH1 0x0 PUSH1 0x1F NOT PUSH1 0x1F DUP4 ADD AND SWAP1 POP SWAP2 SWAP1 POP JUMP JUMPDEST PUSH32 0x4578653A2045786520646F6573206E6F74206578697374000000000000000000 PUSH1 0x0 DUP3 ADD MSTORE POP JUMP JUMPDEST PUSH32 0x4578653A204F6E6C792070726F702063616E2063616C6C000000000000000000 PUSH1 0x0 DUP3 ADD MSTORE POP JUMP JUMPDEST PUSH32 0x4578653A204172726179206C656E677468206D69736D61746368000000000000 PUSH1 0x0 DUP3 ADD MSTORE POP JUMP JUMPDEST PUSH32 0x4578653A2045786520494420616C726561647920696E20757365000000000000 PUSH1 0x0 DUP3 ADD MSTORE POP JUMP JUMPDEST PUSH2 0x243F DUP2 PUSH2 0x20F8 JUMP JUMPDEST DUP2 EQ PUSH2 0x244A JUMPI PUSH1 0x0 DUP1 REVERT JUMPDEST POP JUMP JUMPDEST PUSH2 0x2456 DUP2 PUSH2 0x210A JUMP JUMPDEST DUP2 EQ PUSH2 0x2461 JUMPI PUSH1 0x0 DUP1 REVERT JUMPDEST POP JUMP JUMPDEST PUSH2 0x246D DUP2 PUSH2 0x2160 JUMP JUMPDEST DUP2 EQ PUSH2 0x2478 JUMPI PUSH1 0x0 DUP1 REVERT JUMPDEST POP JUMP INVALID LOG2 PUSH5 0x6970667358 0x22 SLT KECCAK256 EXTCODECOPY 0xEC SELFBALANCE 0x2B INVALID 0xD9 0xA7 0xC8 0xFB 0x2B 0xDA 0xCF 0x5C SWAP2 PUSH4 0x4933AA4E 0xCD DUP1 PUSH30 0x5AB434888F5D2E143BDA64736F6C63430008070033000000000000000000 "
        },
        "methodIdentifiers": {
          "IDENTIFIER()": "3c9747f3",
          "core_()": "eaddd0fd",
          "createExe(address[],string[],bytes[],uint256[],string)": "184b9ce5",
          "createPropExe(uint256,bytes32)": "204d67b5",
          "getExe(bytes32)": "971aa75e",
          "getExeId(address[],uint256[],bytes[],string)": "0ee476bc",
          "getExeInfo(bytes32)": "e0751326"
        }
      },
      "userdoc": {
        "kind": "user",
        "methods": {},
        "version": 1
      }
    }
  }
}