{
  "contracts/Coordinator.sol": {
    "Coordinator": {
      "abi": [
        {
          "inputs": [
            {
              "internalType": "address",
              "name": "_core",
              "type": "address"
            }
          ],
          "stateMutability": "nonpayable",
          "type": "constructor"
        },
        {
          "inputs": [],
          "name": "IDENTIFIER",
          "outputs": [
            {
              "internalType": "bytes32",
              "name": "",
              "type": "bytes32"
            }
          ],
          "stateMutability": "view",
          "type": "function"
        },
        {
          "inputs": [],
          "name": "core_",
          "outputs": [
            {
              "internalType": "contract ICore",
              "name": "",
              "type": "address"
            }
          ],
          "stateMutability": "view",
          "type": "function"
        },
        {
          "inputs": [
            {
              "internalType": "bytes32",
              "name": "_exeID",
              "type": "bytes32"
            }
          ],
          "name": "isExecutable",
          "outputs": [
            {
              "internalType": "bool",
              "name": "",
              "type": "bool"
            }
          ],
          "stateMutability": "view",
          "type": "function"
        }
      ],
      "devdoc": {
        "kind": "dev",
        "methods": {
          "isExecutable(bytes32)": {
            "details": "The reason we use Exe IDs here and not Prop IDs is that           executables may be valid for execution outside of a proposal           (e.g an approved recurring payment). If the exe is tied to a          proposal the coordinator will be able to look up and verify it's          executable status.",
            "params": {
              "_exeID": "ID of the executable to check. "
            }
          }
        },
        "version": 1
      },
      "evm": {
        "bytecode": {
          "linkReferences": {},
          "object": "60c060405234801561001057600080fd5b506040516103d43803806103d4833981810160405281019061003291906100b0565b7fd578563424ab02f85ec03c6b1aee04947ebdd4a30db46cba3bcd7f56ef40b1998181608081815250508073ffffffffffffffffffffffffffffffffffffffff1660a08173ffffffffffffffffffffffffffffffffffffffff1660601b8152505050505061012b565b6000815190506100aa81610114565b92915050565b6000602082840312156100c6576100c561010f565b5b60006100d48482850161009b565b91505092915050565b60006100e8826100ef565b9050919050565b600073ffffffffffffffffffffffffffffffffffffffff82169050919050565b600080fd5b61011d816100dd565b811461012857600080fd5b50565b60805160a05160601c610283610151600039600060e30152600060b401526102836000f3fe608060405234801561001057600080fd5b50600436106100415760003560e01c80633c9747f3146100465780639cf782cb14610064578063eaddd0fd14610094575b600080fd5b61004e6100b2565b60405161005b919061018f565b60405180910390f35b61007e6004803603810190610079919061011a565b6100d6565b60405161008b9190610174565b60405180910390f35b61009c6100e1565b6040516100a991906101aa565b60405180910390f35b7f000000000000000000000000000000000000000000000000000000000000000081565b600060019050919050565b7f000000000000000000000000000000000000000000000000000000000000000081565b60008135905061011481610236565b92915050565b6000602082840312156101305761012f610231565b5b600061013e84828501610105565b91505092915050565b610150816101c5565b82525050565b61015f816101d1565b82525050565b61016e816101fb565b82525050565b60006020820190506101896000830184610147565b92915050565b60006020820190506101a46000830184610156565b92915050565b60006020820190506101bf6000830184610165565b92915050565b60008115159050919050565b6000819050919050565b600073ffffffffffffffffffffffffffffffffffffffff82169050919050565b60006102068261020d565b9050919050565b60006102188261021f565b9050919050565b600061022a826101db565b9050919050565b600080fd5b61023f816101d1565b811461024a57600080fd5b5056fea26469706673582212204dab03b0da179de1547a3a342614409fe2a1c0de21f6d08f8a1abb747da4948464736f6c63430008070033",
          "opcodes": "PUSH1 0xC0 PUSH1 0x40 MSTORE CALLVALUE DUP1 ISZERO PUSH2 0x10 JUMPI PUSH1 0x0 DUP1 REVERT JUMPDEST POP PUSH1 0x40 MLOAD PUSH2 0x3D4 CODESIZE SUB DUP1 PUSH2 0x3D4 DUP4 CODECOPY DUP2 DUP2 ADD PUSH1 0x40 MSTORE DUP2 ADD SWAP1 PUSH2 0x32 SWAP2 SWAP1 PUSH2 0xB0 JUMP JUMPDEST PUSH32 0xD578563424AB02F85EC03C6B1AEE04947EBDD4A30DB46CBA3BCD7F56EF40B199 DUP2 DUP2 PUSH1 0x80 DUP2 DUP2 MSTORE POP POP DUP1 PUSH20 0xFFFFFFFFFFFFFFFFFFFFFFFFFFFFFFFFFFFFFFFF AND PUSH1 0xA0 DUP2 PUSH20 0xFFFFFFFFFFFFFFFFFFFFFFFFFFFFFFFFFFFFFFFF AND PUSH1 0x60 SHL DUP2 MSTORE POP POP POP POP POP PUSH2 0x12B JUMP JUMPDEST PUSH1 0x0 DUP2 MLOAD SWAP1 POP PUSH2 0xAA DUP2 PUSH2 0x114 JUMP JUMPDEST SWAP3 SWAP2 POP POP JUMP JUMPDEST PUSH1 0x0 PUSH1 0x20 DUP3 DUP5 SUB SLT ISZERO PUSH2 0xC6 JUMPI PUSH2 0xC5 PUSH2 0x10F JUMP JUMPDEST JUMPDEST PUSH1 0x0 PUSH2 0xD4 DUP5 DUP3 DUP6 ADD PUSH2 0x9B JUMP JUMPDEST SWAP2 POP POP SWAP3 SWAP2 POP POP JUMP JUMPDEST PUSH1 0x0 PUSH2 0xE8 DUP3 PUSH2 0xEF JUMP JUMPDEST SWAP1 POP SWAP2 SWAP1 POP JUMP JUMPDEST PUSH1 0x0 PUSH20 0xFFFFFFFFFFFFFFFFFFFFFFFFFFFFFFFFFFFFFFFF DUP3 AND SWAP1 POP SWAP2 SWAP1 POP JUMP JUMPDEST PUSH1 0x0 DUP1 REVERT JUMPDEST PUSH2 0x11D DUP2 PUSH2 0xDD JUMP JUMPDEST DUP2 EQ PUSH2 0x128 JUMPI PUSH1 0x0 DUP1 REVERT JUMPDEST POP JUMP JUMPDEST PUSH1 0x80 MLOAD PUSH1 0xA0 MLOAD PUSH1 0x60 SHR PUSH2 0x283 PUSH2 0x151 PUSH1 0x0 CODECOPY PUSH1 0x0 PUSH1 0xE3 ADD MSTORE PUSH1 0x0 PUSH1 0xB4 ADD MSTORE PUSH2 0x283 PUSH1 0x0 RETURN INVALID PUSH1 0x80 PUSH1 0x40 MSTORE CALLVALUE DUP1 ISZERO PUSH2 0x10 JUMPI PUSH1 0x0 DUP1 REVERT JUMPDEST POP PUSH1 0x4 CALLDATASIZE LT PUSH2 0x41 JUMPI PUSH1 0x0 CALLDATALOAD PUSH1 0xE0 SHR DUP1 PUSH4 0x3C9747F3 EQ PUSH2 0x46 JUMPI DUP1 PUSH4 0x9CF782CB EQ PUSH2 0x64 JUMPI DUP1 PUSH4 0xEADDD0FD EQ PUSH2 0x94 JUMPI JUMPDEST PUSH1 0x0 DUP1 REVERT JUMPDEST PUSH2 0x4E PUSH2 0xB2 JUMP JUMPDEST PUSH1 0x40 MLOAD PUSH2 0x5B SWAP2 SWAP1 PUSH2 0x18F JUMP JUMPDEST PUSH1 0x40 MLOAD DUP1 SWAP2 SUB SWAP1 RETURN JUMPDEST PUSH2 0x7E PUSH1 0x4 DUP1 CALLDATASIZE SUB DUP2 ADD SWAP1 PUSH2 0x79 SWAP2 SWAP1 PUSH2 0x11A JUMP JUMPDEST PUSH2 0xD6 JUMP JUMPDEST PUSH1 0x40 MLOAD PUSH2 0x8B SWAP2 SWAP1 PUSH2 0x174 JUMP JUMPDEST PUSH1 0x40 MLOAD DUP1 SWAP2 SUB SWAP1 RETURN JUMPDEST PUSH2 0x9C PUSH2 0xE1 JUMP JUMPDEST PUSH1 0x40 MLOAD PUSH2 0xA9 SWAP2 SWAP1 PUSH2 0x1AA JUMP JUMPDEST PUSH1 0x40 MLOAD DUP1 SWAP2 SUB SWAP1 RETURN JUMPDEST PUSH32 0x0 DUP2 JUMP JUMPDEST PUSH1 0x0 PUSH1 0x1 SWAP1 POP SWAP2 SWAP1 POP JUMP JUMPDEST PUSH32 0x0 DUP2 JUMP JUMPDEST PUSH1 0x0 DUP2 CALLDATALOAD SWAP1 POP PUSH2 0x114 DUP2 PUSH2 0x236 JUMP JUMPDEST SWAP3 SWAP2 POP POP JUMP JUMPDEST PUSH1 0x0 PUSH1 0x20 DUP3 DUP5 SUB SLT ISZERO PUSH2 0x130 JUMPI PUSH2 0x12F PUSH2 0x231 JUMP JUMPDEST JUMPDEST PUSH1 0x0 PUSH2 0x13E DUP5 DUP3 DUP6 ADD PUSH2 0x105 JUMP JUMPDEST SWAP2 POP POP SWAP3 SWAP2 POP POP JUMP JUMPDEST PUSH2 0x150 DUP2 PUSH2 0x1C5 JUMP JUMPDEST DUP3 MSTORE POP POP JUMP JUMPDEST PUSH2 0x15F DUP2 PUSH2 0x1D1 JUMP JUMPDEST DUP3 MSTORE POP POP JUMP JUMPDEST PUSH2 0x16E DUP2 PUSH2 0x1FB JUMP JUMPDEST DUP3 MSTORE POP POP JUMP JUMPDEST PUSH1 0x0 PUSH1 0x20 DUP3 ADD SWAP1 POP PUSH2 0x189 PUSH1 0x0 DUP4 ADD DUP5 PUSH2 0x147 JUMP JUMPDEST SWAP3 SWAP2 POP POP JUMP JUMPDEST PUSH1 0x0 PUSH1 0x20 DUP3 ADD SWAP1 POP PUSH2 0x1A4 PUSH1 0x0 DUP4 ADD DUP5 PUSH2 0x156 JUMP JUMPDEST SWAP3 SWAP2 POP POP JUMP JUMPDEST PUSH1 0x0 PUSH1 0x20 DUP3 ADD SWAP1 POP PUSH2 0x1BF PUSH1 0x0 DUP4 ADD DUP5 PUSH2 0x165 JUMP JUMPDEST SWAP3 SWAP2 POP POP JUMP JUMPDEST PUSH1 0x0 DUP2 ISZERO ISZERO SWAP1 POP SWAP2 SWAP1 POP JUMP JUMPDEST PUSH1 0x0 DUP2 SWAP1 POP SWAP2 SWAP1 POP JUMP JUMPDEST PUSH1 0x0 PUSH20 0xFFFFFFFFFFFFFFFFFFFFFFFFFFFFFFFFFFFFFFFF DUP3 AND SWAP1 POP SWAP2 SWAP1 POP JUMP JUMPDEST PUSH1 0x0 PUSH2 0x206 DUP3 PUSH2 0x20D JUMP JUMPDEST SWAP1 POP SWAP2 SWAP1 POP JUMP JUMPDEST PUSH1 0x0 PUSH2 0x218 DUP3 PUSH2 0x21F JUMP JUMPDEST SWAP1 POP SWAP2 SWAP1 POP JUMP JUMPDEST PUSH1 0x0 PUSH2 0x22A DUP3 PUSH2 0x1DB JUMP JUMPDEST SWAP1 POP SWAP2 SWAP1 POP JUMP JUMPDEST PUSH1 0x0 DUP1 REVERT JUMPDEST PUSH2 0x23F DUP2 PUSH2 0x1D1 JUMP JUMPDEST DUP2 EQ PUSH2 0x24A JUMPI PUSH1 0x0 DUP1 REVERT JUMPDEST POP JUMP INVALID LOG2 PUSH5 0x6970667358 0x22 SLT KECCAK256 0x4D 0xAB SUB 0xB0 0xDA OR SWAP14 0xE1 SLOAD PUSH27 0x3A342614409FE2A1C0DE21F6D08F8A1ABB747DA4948464736F6C63 NUMBER STOP ADDMOD SMOD STOP CALLER "
        },
        "methodIdentifiers": {
          "IDENTIFIER()": "3c9747f3",
          "core_()": "eaddd0fd",
          "isExecutable(bytes32)": "9cf782cb"
        }
      },
      "userdoc": {
        "kind": "user",
        "methods": {
          "isExecutable(bytes32)": {
            "notice": "This function will check that the specified proposal has reached          quorum, and that it has passed. If the proposal has not reached          quorum or has not passed this will return false. "
          }
        },
        "version": 1
      }
    }
  }
}