{
  "contracts/Core.sol": {
    "Core": {
      "abi": [
        {
          "inputs": [
            {
              "internalType": "address[]",
              "name": "_instances",
              "type": "address[]"
            }
          ],
          "stateMutability": "nonpayable",
          "type": "constructor"
        },
        {
          "inputs": [
            {
              "internalType": "bytes32",
              "name": "_key",
              "type": "bytes32"
            },
            {
              "internalType": "address",
              "name": "_instance",
              "type": "address"
            },
            {
              "internalType": "bytes4",
              "name": "_function",
              "type": "bytes4"
            }
          ],
          "name": "addContract",
          "outputs": [],
          "stateMutability": "nonpayable",
          "type": "function"
        },
        {
          "inputs": [
            {
              "internalType": "bytes32",
              "name": "_exeID",
              "type": "bytes32"
            }
          ],
          "name": "execute",
          "outputs": [],
          "stateMutability": "nonpayable",
          "type": "function"
        },
        {
          "inputs": [
            {
              "internalType": "bytes32",
              "name": "_key",
              "type": "bytes32"
            }
          ],
          "name": "getContract",
          "outputs": [
            {
              "internalType": "address",
              "name": "",
              "type": "address"
            },
            {
              "internalType": "bytes4",
              "name": "",
              "type": "bytes4"
            }
          ],
          "stateMutability": "view",
          "type": "function"
        },
        {
          "inputs": [
            {
              "internalType": "bytes32",
              "name": "_key",
              "type": "bytes32"
            },
            {
              "internalType": "address",
              "name": "_instance",
              "type": "address"
            },
            {
              "internalType": "bytes4",
              "name": "_function",
              "type": "bytes4"
            }
          ],
          "name": "updateContract",
          "outputs": [],
          "stateMutability": "nonpayable",
          "type": "function"
        }
      ],
      "devdoc": {
        "kind": "dev",
        "methods": {},
        "version": 1
      },
      "evm": {
        "bytecode": {
          "linkReferences": {},
          "object": "60806040523480156200001157600080fd5b506040516200121638038062001216833981810160405281019062000037919062000103565b5062000284565b6000620000556200004f846200017d565b62000154565b905080838252602082019050828560208602820111156200007b576200007a6200024a565b5b60005b85811015620000af5781620000948882620000b9565b8452602084019350602083019250506001810190506200007e565b5050509392505050565b600081519050620000ca816200026a565b92915050565b600082601f830112620000e857620000e762000245565b5b8151620000fa8482602086016200003e565b91505092915050565b6000602082840312156200011c576200011b62000254565b5b600082015167ffffffffffffffff8111156200013d576200013c6200024f565b5b6200014b84828501620000d0565b91505092915050565b60006200016062000173565b90506200016e8282620001e0565b919050565b6000604051905090565b600067ffffffffffffffff8211156200019b576200019a62000216565b5b602082029050602081019050919050565b6000620001b982620001c0565b9050919050565b600073ffffffffffffffffffffffffffffffffffffffff82169050919050565b620001eb8262000259565b810181811067ffffffffffffffff821117156200020d576200020c62000216565b5b80604052505050565b7f4e487b7100000000000000000000000000000000000000000000000000000000600052604160045260246000fd5b600080fd5b600080fd5b600080fd5b600080fd5b6000601f19601f8301169050919050565b6200027581620001ac565b81146200028157600080fd5b50565b610f8280620002946000396000f3fe608060405234801561001057600080fd5b506004361061004c5760003560e01c80631e7fcad81461005157806342fae5ee1461006d578063e16c7d9814610089578063e751f271146100ba575b600080fd5b61006b600480360381019061006691906109c9565b6100d6565b005b610087600480360381019061008291906109c9565b6101f8565b005b6100a3600480360381019061009e919061099c565b610276565b6040516100b1929190610afa565b60405180910390f35b6100d460048036038101906100cf919061099c565b6102db565b005b3073ffffffffffffffffffffffffffffffffffffffff163373ffffffffffffffffffffffffffffffffffffffff1614610144576040517f08c379a000000000000000000000000000000000000000000000000000000000815260040161013b90610b5e565b60405180910390fd5b600073ffffffffffffffffffffffffffffffffffffffff1660008085815260200190815260200160002060000160009054906101000a900473ffffffffffffffffffffffffffffffffffffffff1673ffffffffffffffffffffffffffffffffffffffff16146101e8576040517f08c379a00000000000000000000000000000000000000000000000000000000081526004016101df90610b3e565b60405180910390fd5b6101f3838383610545565b505050565b3073ffffffffffffffffffffffffffffffffffffffff163373ffffffffffffffffffffffffffffffffffffffff1614610266576040517f08c379a000000000000000000000000000000000000000000000000000000000815260040161025d90610b5e565b60405180910390fd5b610271838383610545565b505050565b60008060008084815260200190815260200160002060000160009054906101000a900473ffffffffffffffffffffffffffffffffffffffff1660008085815260200190815260200160002060000160149054906101000a900460e01b91509150915091565b60003073ffffffffffffffffffffffffffffffffffffffff1663e16c7d987f59e2d72f5870ccddd14d35394bd3c22374071b2da7c07a3d6c3b690400b736286040518263ffffffff1660e01b81526004016103369190610b23565b604080518083038186803b15801561034d57600080fd5b505afa158015610361573d6000803e3d6000fd5b505050506040513d601f19601f8201168201806040525081019061038591906108b5565b50905060008060008373ffffffffffffffffffffffffffffffffffffffff1663971aa75e866040518263ffffffff1660e01b81526004016103c69190610b23565b60006040518083038186803b1580156103de57600080fd5b505afa1580156103f2573d6000803e3d6000fd5b505050506040513d6000823e3d601f19601f8201168201806040525081019061041b91906108f5565b92509250925060005b835181101561053d57600084828151811061044257610441610ded565b5b602002602001015173ffffffffffffffffffffffffffffffffffffffff1683838151811061047357610472610ded565b5b602002602001015185848151811061048e5761048d610ded565b5b60200260200101516040516104a39190610ae3565b60006040518083038185875af1925050503d80600081146104e0576040519150601f19603f3d011682016040523d82523d6000602084013e6104e5565b606091505b5050905080610529576040517f08c379a000000000000000000000000000000000000000000000000000000000815260040161052090610b7e565b60405180910390fd5b50808061053590610d75565b915050610424565b505050505050565b8160008085815260200190815260200160002060000160006101000a81548173ffffffffffffffffffffffffffffffffffffffff021916908373ffffffffffffffffffffffffffffffffffffffff1602179055508060008085815260200190815260200160002060000160146101000a81548163ffffffff021916908360e01c0217905550505050565b60006105e26105dd84610bc3565b610b9e565b9050808382526020820190508285602086028201111561060557610604610e50565b5b60005b85811015610635578161061b8882610794565b845260208401935060208301925050600181019050610608565b5050509392505050565b600061065261064d84610bef565b610b9e565b9050808382526020820190508285602086028201111561067557610674610e50565b5b60005b858110156106c357815167ffffffffffffffff81111561069b5761069a610e4b565b5b8086016106a88982610872565b85526020850194506020840193505050600181019050610678565b5050509392505050565b60006106e06106db84610c1b565b610b9e565b9050808382526020820190508285602086028201111561070357610702610e50565b5b60005b85811015610733578161071988826108a0565b845260208401935060208301925050600181019050610706565b5050509392505050565b600061075061074b84610c47565b610b9e565b90508281526020810184848401111561076c5761076b610e55565b5b610777848285610d11565b509392505050565b60008135905061078e81610ef0565b92915050565b6000815190506107a381610ef0565b92915050565b600082601f8301126107be576107bd610e4b565b5b81516107ce8482602086016105cf565b91505092915050565b600082601f8301126107ec576107eb610e4b565b5b81516107fc84826020860161063f565b91505092915050565b600082601f83011261081a57610819610e4b565b5b815161082a8482602086016106cd565b91505092915050565b60008135905061084281610f07565b92915050565b60008135905061085781610f1e565b92915050565b60008151905061086c81610f1e565b92915050565b600082601f83011261088757610886610e4b565b5b815161089784826020860161073d565b91505092915050565b6000815190506108af81610f35565b92915050565b600080604083850312156108cc576108cb610e5f565b5b60006108da85828601610794565b92505060206108eb8582860161085d565b9150509250929050565b60008060006060848603121561090e5761090d610e5f565b5b600084015167ffffffffffffffff81111561092c5761092b610e5a565b5b610938868287016107a9565b935050602084015167ffffffffffffffff81111561095957610958610e5a565b5b610965868287016107d7565b925050604084015167ffffffffffffffff81111561098657610985610e5a565b5b61099286828701610805565b9150509250925092565b6000602082840312156109b2576109b1610e5f565b5b60006109c084828501610833565b91505092915050565b6000806000606084860312156109e2576109e1610e5f565b5b60006109f086828701610833565b9350506020610a018682870161077f565b9250506040610a1286828701610848565b9150509250925092565b610a2581610c9f565b82525050565b610a3481610cb1565b82525050565b610a4381610cbb565b82525050565b6000610a5482610c78565b610a5e8185610c83565b9350610a6e818560208601610d11565b80840191505092915050565b6000610a87601b83610c8e565b9150610a9282610e75565b602082019050919050565b6000610aaa601a83610c8e565b9150610ab582610e9e565b602082019050919050565b6000610acd601083610c8e565b9150610ad882610ec7565b602082019050919050565b6000610aef8284610a49565b915081905092915050565b6000604082019050610b0f6000830185610a1c565b610b1c6020830184610a3a565b9392505050565b6000602082019050610b386000830184610a2b565b92915050565b60006020820190508181036000830152610b5781610a7a565b9050919050565b60006020820190508181036000830152610b7781610a9d565b9050919050565b60006020820190508181036000830152610b9781610ac0565b9050919050565b6000610ba8610bb9565b9050610bb48282610d44565b919050565b6000604051905090565b600067ffffffffffffffff821115610bde57610bdd610e1c565b5b602082029050602081019050919050565b600067ffffffffffffffff821115610c0a57610c09610e1c565b5b602082029050602081019050919050565b600067ffffffffffffffff821115610c3657610c35610e1c565b5b602082029050602081019050919050565b600067ffffffffffffffff821115610c6257610c61610e1c565b5b610c6b82610e64565b9050602081019050919050565b600081519050919050565b600081905092915050565b600082825260208201905092915050565b6000610caa82610ce7565b9050919050565b6000819050919050565b60007fffffffff0000000000000000000000000000000000000000000000000000000082169050919050565b600073ffffffffffffffffffffffffffffffffffffffff82169050919050565b6000819050919050565b60005b83811015610d2f578082015181840152602081019050610d14565b83811115610d3e576000848401525b50505050565b610d4d82610e64565b810181811067ffffffffffffffff82111715610d6c57610d6b610e1c565b5b80604052505050565b6000610d8082610d07565b91507fffffffffffffffffffffffffffffffffffffffffffffffffffffffffffffffff821415610db357610db2610dbe565b5b600182019050919050565b7f4e487b7100000000000000000000000000000000000000000000000000000000600052601160045260246000fd5b7f4e487b7100000000000000000000000000000000000000000000000000000000600052603260045260246000fd5b7f4e487b7100000000000000000000000000000000000000000000000000000000600052604160045260246000fd5b600080fd5b600080fd5b600080fd5b600080fd5b600080fd5b6000601f19601f8301169050919050565b7f436f72653a207573652075706461746520746f207265706c6163650000000000600082015250565b7f436f72653a204f6e6c7920657865732063616e206d6f64696679000000000000600082015250565b7f436f72653a20457865206661696c656400000000000000000000000000000000600082015250565b610ef981610c9f565b8114610f0457600080fd5b50565b610f1081610cb1565b8114610f1b57600080fd5b50565b610f2781610cbb565b8114610f3257600080fd5b50565b610f3e81610d07565b8114610f4957600080fd5b5056fea2646970667358221220d713318e11fb3db3bbd7182473ede903e2227d22c6e29adfae8e2bc873d56e3b64736f6c63430008070033",
          "opcodes": "PUSH1 0x80 PUSH1 0x40 MSTORE CALLVALUE DUP1 ISZERO PUSH3 0x11 JUMPI PUSH1 0x0 DUP1 REVERT JUMPDEST POP PUSH1 0x40 MLOAD PUSH3 0x1216 CODESIZE SUB DUP1 PUSH3 0x1216 DUP4 CODECOPY DUP2 DUP2 ADD PUSH1 0x40 MSTORE DUP2 ADD SWAP1 PUSH3 0x37 SWAP2 SWAP1 PUSH3 0x103 JUMP JUMPDEST POP PUSH3 0x284 JUMP JUMPDEST PUSH1 0x0 PUSH3 0x55 PUSH3 0x4F DUP5 PUSH3 0x17D JUMP JUMPDEST PUSH3 0x154 JUMP JUMPDEST SWAP1 POP DUP1 DUP4 DUP3 MSTORE PUSH1 0x20 DUP3 ADD SWAP1 POP DUP3 DUP6 PUSH1 0x20 DUP7 MUL DUP3 ADD GT ISZERO PUSH3 0x7B JUMPI PUSH3 0x7A PUSH3 0x24A JUMP JUMPDEST JUMPDEST PUSH1 0x0 JUMPDEST DUP6 DUP2 LT ISZERO PUSH3 0xAF JUMPI DUP2 PUSH3 0x94 DUP9 DUP3 PUSH3 0xB9 JUMP JUMPDEST DUP5 MSTORE PUSH1 0x20 DUP5 ADD SWAP4 POP PUSH1 0x20 DUP4 ADD SWAP3 POP POP PUSH1 0x1 DUP2 ADD SWAP1 POP PUSH3 0x7E JUMP JUMPDEST POP POP POP SWAP4 SWAP3 POP POP POP JUMP JUMPDEST PUSH1 0x0 DUP2 MLOAD SWAP1 POP PUSH3 0xCA DUP2 PUSH3 0x26A JUMP JUMPDEST SWAP3 SWAP2 POP POP JUMP JUMPDEST PUSH1 0x0 DUP3 PUSH1 0x1F DUP4 ADD SLT PUSH3 0xE8 JUMPI PUSH3 0xE7 PUSH3 0x245 JUMP JUMPDEST JUMPDEST DUP2 MLOAD PUSH3 0xFA DUP5 DUP3 PUSH1 0x20 DUP7 ADD PUSH3 0x3E JUMP JUMPDEST SWAP2 POP POP SWAP3 SWAP2 POP POP JUMP JUMPDEST PUSH1 0x0 PUSH1 0x20 DUP3 DUP5 SUB SLT ISZERO PUSH3 0x11C JUMPI PUSH3 0x11B PUSH3 0x254 JUMP JUMPDEST JUMPDEST PUSH1 0x0 DUP3 ADD MLOAD PUSH8 0xFFFFFFFFFFFFFFFF DUP2 GT ISZERO PUSH3 0x13D JUMPI PUSH3 0x13C PUSH3 0x24F JUMP JUMPDEST JUMPDEST PUSH3 0x14B DUP5 DUP3 DUP6 ADD PUSH3 0xD0 JUMP JUMPDEST SWAP2 POP POP SWAP3 SWAP2 POP POP JUMP JUMPDEST PUSH1 0x0 PUSH3 0x160 PUSH3 0x173 JUMP JUMPDEST SWAP1 POP PUSH3 0x16E DUP3 DUP3 PUSH3 0x1E0 JUMP JUMPDEST SWAP2 SWAP1 POP JUMP JUMPDEST PUSH1 0x0 PUSH1 0x40 MLOAD SWAP1 POP SWAP1 JUMP JUMPDEST PUSH1 0x0 PUSH8 0xFFFFFFFFFFFFFFFF DUP3 GT ISZERO PUSH3 0x19B JUMPI PUSH3 0x19A PUSH3 0x216 JUMP JUMPDEST JUMPDEST PUSH1 0x20 DUP3 MUL SWAP1 POP PUSH1 0x20 DUP2 ADD SWAP1 POP SWAP2 SWAP1 POP JUMP JUMPDEST PUSH1 0x0 PUSH3 0x1B9 DUP3 PUSH3 0x1C0 JUMP JUMPDEST SWAP1 POP SWAP2 SWAP1 POP JUMP JUMPDEST PUSH1 0x0 PUSH20 0xFFFFFFFFFFFFFFFFFFFFFFFFFFFFFFFFFFFFFFFF DUP3 AND SWAP1 POP SWAP2 SWAP1 POP JUMP JUMPDEST PUSH3 0x1EB DUP3 PUSH3 0x259 JUMP JUMPDEST DUP2 ADD DUP2 DUP2 LT PUSH8 0xFFFFFFFFFFFFFFFF DUP3 GT OR ISZERO PUSH3 0x20D JUMPI PUSH3 0x20C PUSH3 0x216 JUMP JUMPDEST JUMPDEST DUP1 PUSH1 0x40 MSTORE POP POP POP JUMP JUMPDEST PUSH32 0x4E487B7100000000000000000000000000000000000000000000000000000000 PUSH1 0x0 MSTORE PUSH1 0x41 PUSH1 0x4 MSTORE PUSH1 0x24 PUSH1 0x0 REVERT JUMPDEST PUSH1 0x0 DUP1 REVERT JUMPDEST PUSH1 0x0 DUP1 REVERT JUMPDEST PUSH1 0x0 DUP1 REVERT JUMPDEST PUSH1 0x0 DUP1 REVERT JUMPDEST PUSH1 0x0 PUSH1 0x1F NOT PUSH1 0x1F DUP4 ADD AND SWAP1 POP SWAP2 SWAP1 POP JUMP JUMPDEST PUSH3 0x275 DUP2 PUSH3 0x1AC JUMP JUMPDEST DUP2 EQ PUSH3 0x281 JUMPI PUSH1 0x0 DUP1 REVERT JUMPDEST POP JUMP JUMPDEST PUSH2 0xF82 DUP1 PUSH3 0x294 PUSH1 0x0 CODECOPY PUSH1 0x0 RETURN INVALID PUSH1 0x80 PUSH1 0x40 MSTORE CALLVALUE DUP1 ISZERO PUSH2 0x10 JUMPI PUSH1 0x0 DUP1 REVERT JUMPDEST POP PUSH1 0x4 CALLDATASIZE LT PUSH2 0x4C JUMPI PUSH1 0x0 CALLDATALOAD PUSH1 0xE0 SHR DUP1 PUSH4 0x1E7FCAD8 EQ PUSH2 0x51 JUMPI DUP1 PUSH4 0x42FAE5EE EQ PUSH2 0x6D JUMPI DUP1 PUSH4 0xE16C7D98 EQ PUSH2 0x89 JUMPI DUP1 PUSH4 0xE751F271 EQ PUSH2 0xBA JUMPI JUMPDEST PUSH1 0x0 DUP1 REVERT JUMPDEST PUSH2 0x6B PUSH1 0x4 DUP1 CALLDATASIZE SUB DUP2 ADD SWAP1 PUSH2 0x66 SWAP2 SWAP1 PUSH2 0x9C9 JUMP JUMPDEST PUSH2 0xD6 JUMP JUMPDEST STOP JUMPDEST PUSH2 0x87 PUSH1 0x4 DUP1 CALLDATASIZE SUB DUP2 ADD SWAP1 PUSH2 0x82 SWAP2 SWAP1 PUSH2 0x9C9 JUMP JUMPDEST PUSH2 0x1F8 JUMP JUMPDEST STOP JUMPDEST PUSH2 0xA3 PUSH1 0x4 DUP1 CALLDATASIZE SUB DUP2 ADD SWAP1 PUSH2 0x9E SWAP2 SWAP1 PUSH2 0x99C JUMP JUMPDEST PUSH2 0x276 JUMP JUMPDEST PUSH1 0x40 MLOAD PUSH2 0xB1 SWAP3 SWAP2 SWAP1 PUSH2 0xAFA JUMP JUMPDEST PUSH1 0x40 MLOAD DUP1 SWAP2 SUB SWAP1 RETURN JUMPDEST PUSH2 0xD4 PUSH1 0x4 DUP1 CALLDATASIZE SUB DUP2 ADD SWAP1 PUSH2 0xCF SWAP2 SWAP1 PUSH2 0x99C JUMP JUMPDEST PUSH2 0x2DB JUMP JUMPDEST STOP JUMPDEST ADDRESS PUSH20 0xFFFFFFFFFFFFFFFFFFFFFFFFFFFFFFFFFFFFFFFF AND CALLER PUSH20 0xFFFFFFFFFFFFFFFFFFFFFFFFFFFFFFFFFFFFFFFF AND EQ PUSH2 0x144 JUMPI PUSH1 0x40 MLOAD PUSH32 0x8C379A000000000000000000000000000000000000000000000000000000000 DUP2 MSTORE PUSH1 0x4 ADD PUSH2 0x13B SWAP1 PUSH2 0xB5E JUMP JUMPDEST PUSH1 0x40 MLOAD DUP1 SWAP2 SUB SWAP1 REVERT JUMPDEST PUSH1 0x0 PUSH20 0xFFFFFFFFFFFFFFFFFFFFFFFFFFFFFFFFFFFFFFFF AND PUSH1 0x0 DUP1 DUP6 DUP2 MSTORE PUSH1 0x20 ADD SWAP1 DUP2 MSTORE PUSH1 0x20 ADD PUSH1 0x0 KECCAK256 PUSH1 0x0 ADD PUSH1 0x0 SWAP1 SLOAD SWAP1 PUSH2 0x100 EXP SWAP1 DIV PUSH20 0xFFFFFFFFFFFFFFFFFFFFFFFFFFFFFFFFFFFFFFFF AND PUSH20 0xFFFFFFFFFFFFFFFFFFFFFFFFFFFFFFFFFFFFFFFF AND EQ PUSH2 0x1E8 JUMPI PUSH1 0x40 MLOAD PUSH32 0x8C379A000000000000000000000000000000000000000000000000000000000 DUP2 MSTORE PUSH1 0x4 ADD PUSH2 0x1DF SWAP1 PUSH2 0xB3E JUMP JUMPDEST PUSH1 0x40 MLOAD DUP1 SWAP2 SUB SWAP1 REVERT JUMPDEST PUSH2 0x1F3 DUP4 DUP4 DUP4 PUSH2 0x545 JUMP JUMPDEST POP POP POP JUMP JUMPDEST ADDRESS PUSH20 0xFFFFFFFFFFFFFFFFFFFFFFFFFFFFFFFFFFFFFFFF AND CALLER PUSH20 0xFFFFFFFFFFFFFFFFFFFFFFFFFFFFFFFFFFFFFFFF AND EQ PUSH2 0x266 JUMPI PUSH1 0x40 MLOAD PUSH32 0x8C379A000000000000000000000000000000000000000000000000000000000 DUP2 MSTORE PUSH1 0x4 ADD PUSH2 0x25D SWAP1 PUSH2 0xB5E JUMP JUMPDEST PUSH1 0x40 MLOAD DUP1 SWAP2 SUB SWAP1 REVERT JUMPDEST PUSH2 0x271 DUP4 DUP4 DUP4 PUSH2 0x545 JUMP JUMPDEST POP POP POP JUMP JUMPDEST PUSH1 0x0 DUP1 PUSH1 0x0 DUP1 DUP5 DUP2 MSTORE PUSH1 0x20 ADD SWAP1 DUP2 MSTORE PUSH1 0x20 ADD PUSH1 0x0 KECCAK256 PUSH1 0x0 ADD PUSH1 0x0 SWAP1 SLOAD SWAP1 PUSH2 0x100 EXP SWAP1 DIV PUSH20 0xFFFFFFFFFFFFFFFFFFFFFFFFFFFFFFFFFFFFFFFF AND PUSH1 0x0 DUP1 DUP6 DUP2 MSTORE PUSH1 0x20 ADD SWAP1 DUP2 MSTORE PUSH1 0x20 ADD PUSH1 0x0 KECCAK256 PUSH1 0x0 ADD PUSH1 0x14 SWAP1 SLOAD SWAP1 PUSH2 0x100 EXP SWAP1 DIV PUSH1 0xE0 SHL SWAP2 POP SWAP2 POP SWAP2 POP SWAP2 JUMP JUMPDEST PUSH1 0x0 ADDRESS PUSH20 0xFFFFFFFFFFFFFFFFFFFFFFFFFFFFFFFFFFFFFFFF AND PUSH4 0xE16C7D98 PUSH32 0x59E2D72F5870CCDDD14D35394BD3C22374071B2DA7C07A3D6C3B690400B73628 PUSH1 0x40 MLOAD DUP3 PUSH4 0xFFFFFFFF AND PUSH1 0xE0 SHL DUP2 MSTORE PUSH1 0x4 ADD PUSH2 0x336 SWAP2 SWAP1 PUSH2 0xB23 JUMP JUMPDEST PUSH1 0x40 DUP1 MLOAD DUP1 DUP4 SUB DUP2 DUP7 DUP1 EXTCODESIZE ISZERO DUP1 ISZERO PUSH2 0x34D JUMPI PUSH1 0x0 DUP1 REVERT JUMPDEST POP GAS STATICCALL ISZERO DUP1 ISZERO PUSH2 0x361 JUMPI RETURNDATASIZE PUSH1 0x0 DUP1 RETURNDATACOPY RETURNDATASIZE PUSH1 0x0 REVERT JUMPDEST POP POP POP POP PUSH1 0x40 MLOAD RETURNDATASIZE PUSH1 0x1F NOT PUSH1 0x1F DUP3 ADD AND DUP3 ADD DUP1 PUSH1 0x40 MSTORE POP DUP2 ADD SWAP1 PUSH2 0x385 SWAP2 SWAP1 PUSH2 0x8B5 JUMP JUMPDEST POP SWAP1 POP PUSH1 0x0 DUP1 PUSH1 0x0 DUP4 PUSH20 0xFFFFFFFFFFFFFFFFFFFFFFFFFFFFFFFFFFFFFFFF AND PUSH4 0x971AA75E DUP7 PUSH1 0x40 MLOAD DUP3 PUSH4 0xFFFFFFFF AND PUSH1 0xE0 SHL DUP2 MSTORE PUSH1 0x4 ADD PUSH2 0x3C6 SWAP2 SWAP1 PUSH2 0xB23 JUMP JUMPDEST PUSH1 0x0 PUSH1 0x40 MLOAD DUP1 DUP4 SUB DUP2 DUP7 DUP1 EXTCODESIZE ISZERO DUP1 ISZERO PUSH2 0x3DE JUMPI PUSH1 0x0 DUP1 REVERT JUMPDEST POP GAS STATICCALL ISZERO DUP1 ISZERO PUSH2 0x3F2 JUMPI RETURNDATASIZE PUSH1 0x0 DUP1 RETURNDATACOPY RETURNDATASIZE PUSH1 0x0 REVERT JUMPDEST POP POP POP POP PUSH1 0x40 MLOAD RETURNDATASIZE PUSH1 0x0 DUP3 RETURNDATACOPY RETURNDATASIZE PUSH1 0x1F NOT PUSH1 0x1F DUP3 ADD AND DUP3 ADD DUP1 PUSH1 0x40 MSTORE POP DUP2 ADD SWAP1 PUSH2 0x41B SWAP2 SWAP1 PUSH2 0x8F5 JUMP JUMPDEST SWAP3 POP SWAP3 POP SWAP3 POP PUSH1 0x0 JUMPDEST DUP4 MLOAD DUP2 LT ISZERO PUSH2 0x53D JUMPI PUSH1 0x0 DUP5 DUP3 DUP2 MLOAD DUP2 LT PUSH2 0x442 JUMPI PUSH2 0x441 PUSH2 0xDED JUMP JUMPDEST JUMPDEST PUSH1 0x20 MUL PUSH1 0x20 ADD ADD MLOAD PUSH20 0xFFFFFFFFFFFFFFFFFFFFFFFFFFFFFFFFFFFFFFFF AND DUP4 DUP4 DUP2 MLOAD DUP2 LT PUSH2 0x473 JUMPI PUSH2 0x472 PUSH2 0xDED JUMP JUMPDEST JUMPDEST PUSH1 0x20 MUL PUSH1 0x20 ADD ADD MLOAD DUP6 DUP5 DUP2 MLOAD DUP2 LT PUSH2 0x48E JUMPI PUSH2 0x48D PUSH2 0xDED JUMP JUMPDEST JUMPDEST PUSH1 0x20 MUL PUSH1 0x20 ADD ADD MLOAD PUSH1 0x40 MLOAD PUSH2 0x4A3 SWAP2 SWAP1 PUSH2 0xAE3 JUMP JUMPDEST PUSH1 0x0 PUSH1 0x40 MLOAD DUP1 DUP4 SUB DUP2 DUP6 DUP8 GAS CALL SWAP3 POP POP POP RETURNDATASIZE DUP1 PUSH1 0x0 DUP2 EQ PUSH2 0x4E0 JUMPI PUSH1 0x40 MLOAD SWAP2 POP PUSH1 0x1F NOT PUSH1 0x3F RETURNDATASIZE ADD AND DUP3 ADD PUSH1 0x40 MSTORE RETURNDATASIZE DUP3 MSTORE RETURNDATASIZE PUSH1 0x0 PUSH1 0x20 DUP5 ADD RETURNDATACOPY PUSH2 0x4E5 JUMP JUMPDEST PUSH1 0x60 SWAP2 POP JUMPDEST POP POP SWAP1 POP DUP1 PUSH2 0x529 JUMPI PUSH1 0x40 MLOAD PUSH32 0x8C379A000000000000000000000000000000000000000000000000000000000 DUP2 MSTORE PUSH1 0x4 ADD PUSH2 0x520 SWAP1 PUSH2 0xB7E JUMP JUMPDEST PUSH1 0x40 MLOAD DUP1 SWAP2 SUB SWAP1 REVERT JUMPDEST POP DUP1 DUP1 PUSH2 0x535 SWAP1 PUSH2 0xD75 JUMP JUMPDEST SWAP2 POP POP PUSH2 0x424 JUMP JUMPDEST POP POP POP POP POP POP JUMP JUMPDEST DUP2 PUSH1 0x0 DUP1 DUP6 DUP2 MSTORE PUSH1 0x20 ADD SWAP1 DUP2 MSTORE PUSH1 0x20 ADD PUSH1 0x0 KECCAK256 PUSH1 0x0 ADD PUSH1 0x0 PUSH2 0x100 EXP DUP2 SLOAD DUP2 PUSH20 0xFFFFFFFFFFFFFFFFFFFFFFFFFFFFFFFFFFFFFFFF MUL NOT AND SWAP1 DUP4 PUSH20 0xFFFFFFFFFFFFFFFFFFFFFFFFFFFFFFFFFFFFFFFF AND MUL OR SWAP1 SSTORE POP DUP1 PUSH1 0x0 DUP1 DUP6 DUP2 MSTORE PUSH1 0x20 ADD SWAP1 DUP2 MSTORE PUSH1 0x20 ADD PUSH1 0x0 KECCAK256 PUSH1 0x0 ADD PUSH1 0x14 PUSH2 0x100 EXP DUP2 SLOAD DUP2 PUSH4 0xFFFFFFFF MUL NOT AND SWAP1 DUP4 PUSH1 0xE0 SHR MUL OR SWAP1 SSTORE POP POP POP POP JUMP JUMPDEST PUSH1 0x0 PUSH2 0x5E2 PUSH2 0x5DD DUP5 PUSH2 0xBC3 JUMP JUMPDEST PUSH2 0xB9E JUMP JUMPDEST SWAP1 POP DUP1 DUP4 DUP3 MSTORE PUSH1 0x20 DUP3 ADD SWAP1 POP DUP3 DUP6 PUSH1 0x20 DUP7 MUL DUP3 ADD GT ISZERO PUSH2 0x605 JUMPI PUSH2 0x604 PUSH2 0xE50 JUMP JUMPDEST JUMPDEST PUSH1 0x0 JUMPDEST DUP6 DUP2 LT ISZERO PUSH2 0x635 JUMPI DUP2 PUSH2 0x61B DUP9 DUP3 PUSH2 0x794 JUMP JUMPDEST DUP5 MSTORE PUSH1 0x20 DUP5 ADD SWAP4 POP PUSH1 0x20 DUP4 ADD SWAP3 POP POP PUSH1 0x1 DUP2 ADD SWAP1 POP PUSH2 0x608 JUMP JUMPDEST POP POP POP SWAP4 SWAP3 POP POP POP JUMP JUMPDEST PUSH1 0x0 PUSH2 0x652 PUSH2 0x64D DUP5 PUSH2 0xBEF JUMP JUMPDEST PUSH2 0xB9E JUMP JUMPDEST SWAP1 POP DUP1 DUP4 DUP3 MSTORE PUSH1 0x20 DUP3 ADD SWAP1 POP DUP3 DUP6 PUSH1 0x20 DUP7 MUL DUP3 ADD GT ISZERO PUSH2 0x675 JUMPI PUSH2 0x674 PUSH2 0xE50 JUMP JUMPDEST JUMPDEST PUSH1 0x0 JUMPDEST DUP6 DUP2 LT ISZERO PUSH2 0x6C3 JUMPI DUP2 MLOAD PUSH8 0xFFFFFFFFFFFFFFFF DUP2 GT ISZERO PUSH2 0x69B JUMPI PUSH2 0x69A PUSH2 0xE4B JUMP JUMPDEST JUMPDEST DUP1 DUP7 ADD PUSH2 0x6A8 DUP10 DUP3 PUSH2 0x872 JUMP JUMPDEST DUP6 MSTORE PUSH1 0x20 DUP6 ADD SWAP5 POP PUSH1 0x20 DUP5 ADD SWAP4 POP POP POP PUSH1 0x1 DUP2 ADD SWAP1 POP PUSH2 0x678 JUMP JUMPDEST POP POP POP SWAP4 SWAP3 POP POP POP JUMP JUMPDEST PUSH1 0x0 PUSH2 0x6E0 PUSH2 0x6DB DUP5 PUSH2 0xC1B JUMP JUMPDEST PUSH2 0xB9E JUMP JUMPDEST SWAP1 POP DUP1 DUP4 DUP3 MSTORE PUSH1 0x20 DUP3 ADD SWAP1 POP DUP3 DUP6 PUSH1 0x20 DUP7 MUL DUP3 ADD GT ISZERO PUSH2 0x703 JUMPI PUSH2 0x702 PUSH2 0xE50 JUMP JUMPDEST JUMPDEST PUSH1 0x0 JUMPDEST DUP6 DUP2 LT ISZERO PUSH2 0x733 JUMPI DUP2 PUSH2 0x719 DUP9 DUP3 PUSH2 0x8A0 JUMP JUMPDEST DUP5 MSTORE PUSH1 0x20 DUP5 ADD SWAP4 POP PUSH1 0x20 DUP4 ADD SWAP3 POP POP PUSH1 0x1 DUP2 ADD SWAP1 POP PUSH2 0x706 JUMP JUMPDEST POP POP POP SWAP4 SWAP3 POP POP POP JUMP JUMPDEST PUSH1 0x0 PUSH2 0x750 PUSH2 0x74B DUP5 PUSH2 0xC47 JUMP JUMPDEST PUSH2 0xB9E JUMP JUMPDEST SWAP1 POP DUP3 DUP2 MSTORE PUSH1 0x20 DUP2 ADD DUP5 DUP5 DUP5 ADD GT ISZERO PUSH2 0x76C JUMPI PUSH2 0x76B PUSH2 0xE55 JUMP JUMPDEST JUMPDEST PUSH2 0x777 DUP5 DUP3 DUP6 PUSH2 0xD11 JUMP JUMPDEST POP SWAP4 SWAP3 POP POP POP JUMP JUMPDEST PUSH1 0x0 DUP2 CALLDATALOAD SWAP1 POP PUSH2 0x78E DUP2 PUSH2 0xEF0 JUMP JUMPDEST SWAP3 SWAP2 POP POP JUMP JUMPDEST PUSH1 0x0 DUP2 MLOAD SWAP1 POP PUSH2 0x7A3 DUP2 PUSH2 0xEF0 JUMP JUMPDEST SWAP3 SWAP2 POP POP JUMP JUMPDEST PUSH1 0x0 DUP3 PUSH1 0x1F DUP4 ADD SLT PUSH2 0x7BE JUMPI PUSH2 0x7BD PUSH2 0xE4B JUMP JUMPDEST JUMPDEST DUP2 MLOAD PUSH2 0x7CE DUP5 DUP3 PUSH1 0x20 DUP7 ADD PUSH2 0x5CF JUMP JUMPDEST SWAP2 POP POP SWAP3 SWAP2 POP POP JUMP JUMPDEST PUSH1 0x0 DUP3 PUSH1 0x1F DUP4 ADD SLT PUSH2 0x7EC JUMPI PUSH2 0x7EB PUSH2 0xE4B JUMP JUMPDEST JUMPDEST DUP2 MLOAD PUSH2 0x7FC DUP5 DUP3 PUSH1 0x20 DUP7 ADD PUSH2 0x63F JUMP JUMPDEST SWAP2 POP POP SWAP3 SWAP2 POP POP JUMP JUMPDEST PUSH1 0x0 DUP3 PUSH1 0x1F DUP4 ADD SLT PUSH2 0x81A JUMPI PUSH2 0x819 PUSH2 0xE4B JUMP JUMPDEST JUMPDEST DUP2 MLOAD PUSH2 0x82A DUP5 DUP3 PUSH1 0x20 DUP7 ADD PUSH2 0x6CD JUMP JUMPDEST SWAP2 POP POP SWAP3 SWAP2 POP POP JUMP JUMPDEST PUSH1 0x0 DUP2 CALLDATALOAD SWAP1 POP PUSH2 0x842 DUP2 PUSH2 0xF07 JUMP JUMPDEST SWAP3 SWAP2 POP POP JUMP JUMPDEST PUSH1 0x0 DUP2 CALLDATALOAD SWAP1 POP PUSH2 0x857 DUP2 PUSH2 0xF1E JUMP JUMPDEST SWAP3 SWAP2 POP POP JUMP JUMPDEST PUSH1 0x0 DUP2 MLOAD SWAP1 POP PUSH2 0x86C DUP2 PUSH2 0xF1E JUMP JUMPDEST SWAP3 SWAP2 POP POP JUMP JUMPDEST PUSH1 0x0 DUP3 PUSH1 0x1F DUP4 ADD SLT PUSH2 0x887 JUMPI PUSH2 0x886 PUSH2 0xE4B JUMP JUMPDEST JUMPDEST DUP2 MLOAD PUSH2 0x897 DUP5 DUP3 PUSH1 0x20 DUP7 ADD PUSH2 0x73D JUMP JUMPDEST SWAP2 POP POP SWAP3 SWAP2 POP POP JUMP JUMPDEST PUSH1 0x0 DUP2 MLOAD SWAP1 POP PUSH2 0x8AF DUP2 PUSH2 0xF35 JUMP JUMPDEST SWAP3 SWAP2 POP POP JUMP JUMPDEST PUSH1 0x0 DUP1 PUSH1 0x40 DUP4 DUP6 SUB SLT ISZERO PUSH2 0x8CC JUMPI PUSH2 0x8CB PUSH2 0xE5F JUMP JUMPDEST JUMPDEST PUSH1 0x0 PUSH2 0x8DA DUP6 DUP3 DUP7 ADD PUSH2 0x794 JUMP JUMPDEST SWAP3 POP POP PUSH1 0x20 PUSH2 0x8EB DUP6 DUP3 DUP7 ADD PUSH2 0x85D JUMP JUMPDEST SWAP2 POP POP SWAP3 POP SWAP3 SWAP1 POP JUMP JUMPDEST PUSH1 0x0 DUP1 PUSH1 0x0 PUSH1 0x60 DUP5 DUP7 SUB SLT ISZERO PUSH2 0x90E JUMPI PUSH2 0x90D PUSH2 0xE5F JUMP JUMPDEST JUMPDEST PUSH1 0x0 DUP5 ADD MLOAD PUSH8 0xFFFFFFFFFFFFFFFF DUP2 GT ISZERO PUSH2 0x92C JUMPI PUSH2 0x92B PUSH2 0xE5A JUMP JUMPDEST JUMPDEST PUSH2 0x938 DUP7 DUP3 DUP8 ADD PUSH2 0x7A9 JUMP JUMPDEST SWAP4 POP POP PUSH1 0x20 DUP5 ADD MLOAD PUSH8 0xFFFFFFFFFFFFFFFF DUP2 GT ISZERO PUSH2 0x959 JUMPI PUSH2 0x958 PUSH2 0xE5A JUMP JUMPDEST JUMPDEST PUSH2 0x965 DUP7 DUP3 DUP8 ADD PUSH2 0x7D7 JUMP JUMPDEST SWAP3 POP POP PUSH1 0x40 DUP5 ADD MLOAD PUSH8 0xFFFFFFFFFFFFFFFF DUP2 GT ISZERO PUSH2 0x986 JUMPI PUSH2 0x985 PUSH2 0xE5A JUMP JUMPDEST JUMPDEST PUSH2 0x992 DUP7 DUP3 DUP8 ADD PUSH2 0x805 JUMP JUMPDEST SWAP2 POP POP SWAP3 POP SWAP3 POP SWAP3 JUMP JUMPDEST PUSH1 0x0 PUSH1 0x20 DUP3 DUP5 SUB SLT ISZERO PUSH2 0x9B2 JUMPI PUSH2 0x9B1 PUSH2 0xE5F JUMP JUMPDEST JUMPDEST PUSH1 0x0 PUSH2 0x9C0 DUP5 DUP3 DUP6 ADD PUSH2 0x833 JUMP JUMPDEST SWAP2 POP POP SWAP3 SWAP2 POP POP JUMP JUMPDEST PUSH1 0x0 DUP1 PUSH1 0x0 PUSH1 0x60 DUP5 DUP7 SUB SLT ISZERO PUSH2 0x9E2 JUMPI PUSH2 0x9E1 PUSH2 0xE5F JUMP JUMPDEST JUMPDEST PUSH1 0x0 PUSH2 0x9F0 DUP7 DUP3 DUP8 ADD PUSH2 0x833 JUMP JUMPDEST SWAP4 POP POP PUSH1 0x20 PUSH2 0xA01 DUP7 DUP3 DUP8 ADD PUSH2 0x77F JUMP JUMPDEST SWAP3 POP POP PUSH1 0x40 PUSH2 0xA12 DUP7 DUP3 DUP8 ADD PUSH2 0x848 JUMP JUMPDEST SWAP2 POP POP SWAP3 POP SWAP3 POP SWAP3 JUMP JUMPDEST PUSH2 0xA25 DUP2 PUSH2 0xC9F JUMP JUMPDEST DUP3 MSTORE POP POP JUMP JUMPDEST PUSH2 0xA34 DUP2 PUSH2 0xCB1 JUMP JUMPDEST DUP3 MSTORE POP POP JUMP JUMPDEST PUSH2 0xA43 DUP2 PUSH2 0xCBB JUMP JUMPDEST DUP3 MSTORE POP POP JUMP JUMPDEST PUSH1 0x0 PUSH2 0xA54 DUP3 PUSH2 0xC78 JUMP JUMPDEST PUSH2 0xA5E DUP2 DUP6 PUSH2 0xC83 JUMP JUMPDEST SWAP4 POP PUSH2 0xA6E DUP2 DUP6 PUSH1 0x20 DUP7 ADD PUSH2 0xD11 JUMP JUMPDEST DUP1 DUP5 ADD SWAP2 POP POP SWAP3 SWAP2 POP POP JUMP JUMPDEST PUSH1 0x0 PUSH2 0xA87 PUSH1 0x1B DUP4 PUSH2 0xC8E JUMP JUMPDEST SWAP2 POP PUSH2 0xA92 DUP3 PUSH2 0xE75 JUMP JUMPDEST PUSH1 0x20 DUP3 ADD SWAP1 POP SWAP2 SWAP1 POP JUMP JUMPDEST PUSH1 0x0 PUSH2 0xAAA PUSH1 0x1A DUP4 PUSH2 0xC8E JUMP JUMPDEST SWAP2 POP PUSH2 0xAB5 DUP3 PUSH2 0xE9E JUMP JUMPDEST PUSH1 0x20 DUP3 ADD SWAP1 POP SWAP2 SWAP1 POP JUMP JUMPDEST PUSH1 0x0 PUSH2 0xACD PUSH1 0x10 DUP4 PUSH2 0xC8E JUMP JUMPDEST SWAP2 POP PUSH2 0xAD8 DUP3 PUSH2 0xEC7 JUMP JUMPDEST PUSH1 0x20 DUP3 ADD SWAP1 POP SWAP2 SWAP1 POP JUMP JUMPDEST PUSH1 0x0 PUSH2 0xAEF DUP3 DUP5 PUSH2 0xA49 JUMP JUMPDEST SWAP2 POP DUP2 SWAP1 POP SWAP3 SWAP2 POP POP JUMP JUMPDEST PUSH1 0x0 PUSH1 0x40 DUP3 ADD SWAP1 POP PUSH2 0xB0F PUSH1 0x0 DUP4 ADD DUP6 PUSH2 0xA1C JUMP JUMPDEST PUSH2 0xB1C PUSH1 0x20 DUP4 ADD DUP5 PUSH2 0xA3A JUMP JUMPDEST SWAP4 SWAP3 POP POP POP JUMP JUMPDEST PUSH1 0x0 PUSH1 0x20 DUP3 ADD SWAP1 POP PUSH2 0xB38 PUSH1 0x0 DUP4 ADD DUP5 PUSH2 0xA2B JUMP JUMPDEST SWAP3 SWAP2 POP POP JUMP JUMPDEST PUSH1 0x0 PUSH1 0x20 DUP3 ADD SWAP1 POP DUP2 DUP2 SUB PUSH1 0x0 DUP4 ADD MSTORE PUSH2 0xB57 DUP2 PUSH2 0xA7A JUMP JUMPDEST SWAP1 POP SWAP2 SWAP1 POP JUMP JUMPDEST PUSH1 0x0 PUSH1 0x20 DUP3 ADD SWAP1 POP DUP2 DUP2 SUB PUSH1 0x0 DUP4 ADD MSTORE PUSH2 0xB77 DUP2 PUSH2 0xA9D JUMP JUMPDEST SWAP1 POP SWAP2 SWAP1 POP JUMP JUMPDEST PUSH1 0x0 PUSH1 0x20 DUP3 ADD SWAP1 POP DUP2 DUP2 SUB PUSH1 0x0 DUP4 ADD MSTORE PUSH2 0xB97 DUP2 PUSH2 0xAC0 JUMP JUMPDEST SWAP1 POP SWAP2 SWAP1 POP JUMP JUMPDEST PUSH1 0x0 PUSH2 0xBA8 PUSH2 0xBB9 JUMP JUMPDEST SWAP1 POP PUSH2 0xBB4 DUP3 DUP3 PUSH2 0xD44 JUMP JUMPDEST SWAP2 SWAP1 POP JUMP JUMPDEST PUSH1 0x0 PUSH1 0x40 MLOAD SWAP1 POP SWAP1 JUMP JUMPDEST PUSH1 0x0 PUSH8 0xFFFFFFFFFFFFFFFF DUP3 GT ISZERO PUSH2 0xBDE JUMPI PUSH2 0xBDD PUSH2 0xE1C JUMP JUMPDEST JUMPDEST PUSH1 0x20 DUP3 MUL SWAP1 POP PUSH1 0x20 DUP2 ADD SWAP1 POP SWAP2 SWAP1 POP JUMP JUMPDEST PUSH1 0x0 PUSH8 0xFFFFFFFFFFFFFFFF DUP3 GT ISZERO PUSH2 0xC0A JUMPI PUSH2 0xC09 PUSH2 0xE1C JUMP JUMPDEST JUMPDEST PUSH1 0x20 DUP3 MUL SWAP1 POP PUSH1 0x20 DUP2 ADD SWAP1 POP SWAP2 SWAP1 POP JUMP JUMPDEST PUSH1 0x0 PUSH8 0xFFFFFFFFFFFFFFFF DUP3 GT ISZERO PUSH2 0xC36 JUMPI PUSH2 0xC35 PUSH2 0xE1C JUMP JUMPDEST JUMPDEST PUSH1 0x20 DUP3 MUL SWAP1 POP PUSH1 0x20 DUP2 ADD SWAP1 POP SWAP2 SWAP1 POP JUMP JUMPDEST PUSH1 0x0 PUSH8 0xFFFFFFFFFFFFFFFF DUP3 GT ISZERO PUSH2 0xC62 JUMPI PUSH2 0xC61 PUSH2 0xE1C JUMP JUMPDEST JUMPDEST PUSH2 0xC6B DUP3 PUSH2 0xE64 JUMP JUMPDEST SWAP1 POP PUSH1 0x20 DUP2 ADD SWAP1 POP SWAP2 SWAP1 POP JUMP JUMPDEST PUSH1 0x0 DUP2 MLOAD SWAP1 POP SWAP2 SWAP1 POP JUMP JUMPDEST PUSH1 0x0 DUP2 SWAP1 POP SWAP3 SWAP2 POP POP JUMP JUMPDEST PUSH1 0x0 DUP3 DUP3 MSTORE PUSH1 0x20 DUP3 ADD SWAP1 POP SWAP3 SWAP2 POP POP JUMP JUMPDEST PUSH1 0x0 PUSH2 0xCAA DUP3 PUSH2 0xCE7 JUMP JUMPDEST SWAP1 POP SWAP2 SWAP1 POP JUMP JUMPDEST PUSH1 0x0 DUP2 SWAP1 POP SWAP2 SWAP1 POP JUMP JUMPDEST PUSH1 0x0 PUSH32 0xFFFFFFFF00000000000000000000000000000000000000000000000000000000 DUP3 AND SWAP1 POP SWAP2 SWAP1 POP JUMP JUMPDEST PUSH1 0x0 PUSH20 0xFFFFFFFFFFFFFFFFFFFFFFFFFFFFFFFFFFFFFFFF DUP3 AND SWAP1 POP SWAP2 SWAP1 POP JUMP JUMPDEST PUSH1 0x0 DUP2 SWAP1 POP SWAP2 SWAP1 POP JUMP JUMPDEST PUSH1 0x0 JUMPDEST DUP4 DUP2 LT ISZERO PUSH2 0xD2F JUMPI DUP1 DUP3 ADD MLOAD DUP2 DUP5 ADD MSTORE PUSH1 0x20 DUP2 ADD SWAP1 POP PUSH2 0xD14 JUMP JUMPDEST DUP4 DUP2 GT ISZERO PUSH2 0xD3E JUMPI PUSH1 0x0 DUP5 DUP5 ADD MSTORE JUMPDEST POP POP POP POP JUMP JUMPDEST PUSH2 0xD4D DUP3 PUSH2 0xE64 JUMP JUMPDEST DUP2 ADD DUP2 DUP2 LT PUSH8 0xFFFFFFFFFFFFFFFF DUP3 GT OR ISZERO PUSH2 0xD6C JUMPI PUSH2 0xD6B PUSH2 0xE1C JUMP JUMPDEST JUMPDEST DUP1 PUSH1 0x40 MSTORE POP POP POP JUMP JUMPDEST PUSH1 0x0 PUSH2 0xD80 DUP3 PUSH2 0xD07 JUMP JUMPDEST SWAP2 POP PUSH32 0xFFFFFFFFFFFFFFFFFFFFFFFFFFFFFFFFFFFFFFFFFFFFFFFFFFFFFFFFFFFFFFFF DUP3 EQ ISZERO PUSH2 0xDB3 JUMPI PUSH2 0xDB2 PUSH2 0xDBE JUMP JUMPDEST JUMPDEST PUSH1 0x1 DUP3 ADD SWAP1 POP SWAP2 SWAP1 POP JUMP JUMPDEST PUSH32 0x4E487B7100000000000000000000000000000000000000000000000000000000 PUSH1 0x0 MSTORE PUSH1 0x11 PUSH1 0x4 MSTORE PUSH1 0x24 PUSH1 0x0 REVERT JUMPDEST PUSH32 0x4E487B7100000000000000000000000000000000000000000000000000000000 PUSH1 0x0 MSTORE PUSH1 0x32 PUSH1 0x4 MSTORE PUSH1 0x24 PUSH1 0x0 REVERT JUMPDEST PUSH32 0x4E487B7100000000000000000000000000000000000000000000000000000000 PUSH1 0x0 MSTORE PUSH1 0x41 PUSH1 0x4 MSTORE PUSH1 0x24 PUSH1 0x0 REVERT JUMPDEST PUSH1 0x0 DUP1 REVERT JUMPDEST PUSH1 0x0 DUP1 REVERT JUMPDEST PUSH1 0x0 DUP1 REVERT JUMPDEST PUSH1 0x0 DUP1 REVERT JUMPDEST PUSH1 0x0 DUP1 REVERT JUMPDEST PUSH1 0x0 PUSH1 0x1F NOT PUSH1 0x1F DUP4 ADD AND SWAP1 POP SWAP2 SWAP1 POP JUMP JUMPDEST PUSH32 0x436F72653A207573652075706461746520746F207265706C6163650000000000 PUSH1 0x0 DUP3 ADD MSTORE POP JUMP JUMPDEST PUSH32 0x436F72653A204F6E6C7920657865732063616E206D6F64696679000000000000 PUSH1 0x0 DUP3 ADD MSTORE POP JUMP JUMPDEST PUSH32 0x436F72653A20457865206661696C656400000000000000000000000000000000 PUSH1 0x0 DUP3 ADD MSTORE POP JUMP JUMPDEST PUSH2 0xEF9 DUP2 PUSH2 0xC9F JUMP JUMPDEST DUP2 EQ PUSH2 0xF04 JUMPI PUSH1 0x0 DUP1 REVERT JUMPDEST POP JUMP JUMPDEST PUSH2 0xF10 DUP2 PUSH2 0xCB1 JUMP JUMPDEST DUP2 EQ PUSH2 0xF1B JUMPI PUSH1 0x0 DUP1 REVERT JUMPDEST POP JUMP JUMPDEST PUSH2 0xF27 DUP2 PUSH2 0xCBB JUMP JUMPDEST DUP2 EQ PUSH2 0xF32 JUMPI PUSH1 0x0 DUP1 REVERT JUMPDEST POP JUMP JUMPDEST PUSH2 0xF3E DUP2 PUSH2 0xD07 JUMP JUMPDEST DUP2 EQ PUSH2 0xF49 JUMPI PUSH1 0x0 DUP1 REVERT JUMPDEST POP JUMP INVALID LOG2 PUSH5 0x6970667358 0x22 SLT KECCAK256 0xD7 SGT BALANCE DUP15 GT 0xFB RETURNDATASIZE 0xB3 0xBB 0xD7 XOR 0x24 PUSH20 0xEDE903E2227D22C6E29ADFAE8E2BC873D56E3B64 PUSH20 0x6F6C634300080700330000000000000000000000 "
        },
        "methodIdentifiers": {
          "addContract(bytes32,address,bytes4)": "1e7fcad8",
          "execute(bytes32)": "e751f271",
          "getContract(bytes32)": "e16c7d98",
          "updateContract(bytes32,address,bytes4)": "42fae5ee"
        }
      },
      "userdoc": {
        "kind": "user",
        "methods": {},
        "version": 1
      }
    }
  }
}