{
  "contracts/CoreLib.sol": {
    "CoreLib": {
      "abi": [
        {
          "inputs": [],
          "name": "COORD",
          "outputs": [
            {
              "internalType": "bytes32",
              "name": "",
              "type": "bytes32"
            }
          ],
          "stateMutability": "view",
          "type": "function"
        },
        {
          "inputs": [],
          "name": "EXE",
          "outputs": [
            {
              "internalType": "bytes32",
              "name": "",
              "type": "bytes32"
            }
          ],
          "stateMutability": "view",
          "type": "function"
        },
        {
          "inputs": [],
          "name": "PROPS",
          "outputs": [
            {
              "internalType": "bytes32",
              "name": "",
              "type": "bytes32"
            }
          ],
          "stateMutability": "view",
          "type": "function"
        },
        {
          "inputs": [],
          "name": "VOTE_BOOTH",
          "outputs": [
            {
              "internalType": "bytes32",
              "name": "",
              "type": "bytes32"
            }
          ],
          "stateMutability": "view",
          "type": "function"
        },
        {
          "inputs": [],
          "name": "VOTE_WEIGHT",
          "outputs": [
            {
              "internalType": "bytes32",
              "name": "",
              "type": "bytes32"
            }
          ],
          "stateMutability": "view",
          "type": "function"
        }
      ],
      "devdoc": {
        "kind": "dev",
        "methods": {},
        "version": 1
      },
      "evm": {
        "bytecode": {
          "linkReferences": {},
          "object": "61021a610053600b82828239805160001a607314610046577f4e487b7100000000000000000000000000000000000000000000000000000000600052600060045260246000fd5b30600052607381538281f3fe73000000000000000000000000000000000000000030146080604052600436106100615760003560e01c80630bd8922d14610066578063296425b5146100845780639a39718b146100a2578063d082009d146100c0578063e9b67958146100de575b600080fd5b61006e6100fc565b60405161007b91906101bf565b60405180910390f35b61008c610120565b60405161009991906101bf565b60405180910390f35b6100aa610144565b6040516100b791906101bf565b60405180910390f35b6100c8610168565b6040516100d591906101bf565b60405180910390f35b6100e661018c565b6040516100f391906101bf565b60405180910390f35b7fd578563424ab02f85ec03c6b1aee04947ebdd4a30db46cba3bcd7f56ef40b19981565b7fcdd7ba10b36b7349d5c9710e5e447ec8acaa8e3cbba8d20f4393eccf61f185b181565b7f346b2ab3a980432fd8f2e24828fc9f9ee2df1548701bc542f6ec17882b32762781565b7f36209a57dfd79e3872ec3a0c88c653bbe7e32a12306e5e1f92f118c1936ae8b281565b7f59e2d72f5870ccddd14d35394bd3c22374071b2da7c07a3d6c3b690400b7362881565b6101b9816101da565b82525050565b60006020820190506101d460008301846101b0565b92915050565b600081905091905056fea264697066735822122004cefd8caef9e431a6d7440810764d310c19430f3d58a9c947239ef2232b703964736f6c63430008070033",
          "opcodes": "PUSH2 0x21A PUSH2 0x53 PUSH1 0xB DUP3 DUP3 DUP3 CODECOPY DUP1 MLOAD PUSH1 0x0 BYTE PUSH1 0x73 EQ PUSH2 0x46 JUMPI PUSH32 0x4E487B7100000000000000000000000000000000000000000000000000000000 PUSH1 0x0 MSTORE PUSH1 0x0 PUSH1 0x4 MSTORE PUSH1 0x24 PUSH1 0x0 REVERT JUMPDEST ADDRESS PUSH1 0x0 MSTORE PUSH1 0x73 DUP2 MSTORE8 DUP3 DUP2 RETURN INVALID PUSH20 0x0 ADDRESS EQ PUSH1 0x80 PUSH1 0x40 MSTORE PUSH1 0x4 CALLDATASIZE LT PUSH2 0x61 JUMPI PUSH1 0x0 CALLDATALOAD PUSH1 0xE0 SHR DUP1 PUSH4 0xBD8922D EQ PUSH2 0x66 JUMPI DUP1 PUSH4 0x296425B5 EQ PUSH2 0x84 JUMPI DUP1 PUSH4 0x9A39718B EQ PUSH2 0xA2 JUMPI DUP1 PUSH4 0xD082009D EQ PUSH2 0xC0 JUMPI DUP1 PUSH4 0xE9B67958 EQ PUSH2 0xDE JUMPI JUMPDEST PUSH1 0x0 DUP1 REVERT JUMPDEST PUSH2 0x6E PUSH2 0xFC JUMP JUMPDEST PUSH1 0x40 MLOAD PUSH2 0x7B SWAP2 SWAP1 PUSH2 0x1BF JUMP JUMPDEST PUSH1 0x40 MLOAD DUP1 SWAP2 SUB SWAP1 RETURN JUMPDEST PUSH2 0x8C PUSH2 0x120 JUMP JUMPDEST PUSH1 0x40 MLOAD PUSH2 0x99 SWAP2 SWAP1 PUSH2 0x1BF JUMP JUMPDEST PUSH1 0x40 MLOAD DUP1 SWAP2 SUB SWAP1 RETURN JUMPDEST PUSH2 0xAA PUSH2 0x144 JUMP JUMPDEST PUSH1 0x40 MLOAD PUSH2 0xB7 SWAP2 SWAP1 PUSH2 0x1BF JUMP JUMPDEST PUSH1 0x40 MLOAD DUP1 SWAP2 SUB SWAP1 RETURN JUMPDEST PUSH2 0xC8 PUSH2 0x168 JUMP JUMPDEST PUSH1 0x40 MLOAD PUSH2 0xD5 SWAP2 SWAP1 PUSH2 0x1BF JUMP JUMPDEST PUSH1 0x40 MLOAD DUP1 SWAP2 SUB SWAP1 RETURN JUMPDEST PUSH2 0xE6 PUSH2 0x18C JUMP JUMPDEST PUSH1 0x40 MLOAD PUSH2 0xF3 SWAP2 SWAP1 PUSH2 0x1BF JUMP JUMPDEST PUSH1 0x40 MLOAD DUP1 SWAP2 SUB SWAP1 RETURN JUMPDEST PUSH32 0xD578563424AB02F85EC03C6B1AEE04947EBDD4A30DB46CBA3BCD7F56EF40B199 DUP2 JUMP JUMPDEST PUSH32 0xCDD7BA10B36B7349D5C9710E5E447EC8ACAA8E3CBBA8D20F4393ECCF61F185B1 DUP2 JUMP JUMPDEST PUSH32 0x346B2AB3A980432FD8F2E24828FC9F9EE2DF1548701BC542F6EC17882B327627 DUP2 JUMP JUMPDEST PUSH32 0x36209A57DFD79E3872EC3A0C88C653BBE7E32A12306E5E1F92F118C1936AE8B2 DUP2 JUMP JUMPDEST PUSH32 0x59E2D72F5870CCDDD14D35394BD3C22374071B2DA7C07A3D6C3B690400B73628 DUP2 JUMP JUMPDEST PUSH2 0x1B9 DUP2 PUSH2 0x1DA JUMP JUMPDEST DUP3 MSTORE POP POP JUMP JUMPDEST PUSH1 0x0 PUSH1 0x20 DUP3 ADD SWAP1 POP PUSH2 0x1D4 PUSH1 0x0 DUP4 ADD DUP5 PUSH2 0x1B0 JUMP JUMPDEST SWAP3 SWAP2 POP POP JUMP JUMPDEST PUSH1 0x0 DUP2 SWAP1 POP SWAP2 SWAP1 POP JUMP INVALID LOG2 PUSH5 0x6970667358 0x22 SLT KECCAK256 DIV 0xCE REVERT DUP13 0xAE 0xF9 0xE4 BALANCE 0xA6 0xD7 DIFFICULTY ADDMOD LT PUSH23 0x4D310C19430F3D58A9C947239EF2232B703964736F6C63 NUMBER STOP ADDMOD SMOD STOP CALLER "
        },
        "methodIdentifiers": {
          "COORD()": "0bd8922d",
          "EXE()": "e9b67958",
          "PROPS()": "d082009d",
          "VOTE_BOOTH()": "9a39718b",
          "VOTE_WEIGHT()": "296425b5"
        }
      },
      "userdoc": {
        "kind": "user",
        "methods": {},
        "version": 1
      }
    }
  }
}