{
  "_format": "hh-sol-artifact-1",
  "contractName": "Timer",
  "sourceName": "contracts/test/Timer.sol",
  "abi": [
    {
      "inputs": [],
      "stateMutability": "nonpayable",
      "type": "constructor"
    },
    {
      "inputs": [
        {
          "internalType": "bytes32",
          "name": "c__0xea0e86c7",
          "type": "bytes32"
        }
      ],
      "name": "c_0xea0e86c7",
      "outputs": [],
      "stateMutability": "pure",
      "type": "function"
    },
    {
      "inputs": [],
      "name": "getCurrentTime",
      "outputs": [
        {
          "internalType": "uint256",
          "name": "",
          "type": "uint256"
        }
      ],
      "stateMutability": "view",
      "type": "function"
    },
    {
      "inputs": [
        {
          "internalType": "uint256",
          "name": "time",
          "type": "uint256"
        }
      ],
      "name": "setCurrentTime",
      "outputs": [],
      "stateMutability": "nonpayable",
      "type": "function"
    }
  ],
  "bytecode": "0x608060405234801561001057600080fd5b506100437f2a2496dca52e6d6b6bc1749d3a42721a8cf17c56827dae58967b3bc017f5d76160001b6100b360201b60201c565b6100757ff3aeae50197915d83567db74445e282e3a6a48944883a7bd708d0a75fb13ef2760001b6100b360201b60201c565b6100a77f6cfa1a6ab646c04a09526d45150a2a94c5602d3d00149826c29fa6c4ee34da4b60001b6100b360201b60201c565b426000819055506100b6565b50565b6102e6806100c56000396000f3fe608060405234801561001057600080fd5b50600436106100415760003560e01c806322f8e5661461004657806329cb924d14610062578063993562be14610080575b600080fd5b610060600480360381019061005b9190610212565b61009c565b005b61006a61012a565b604051610077919061024e565b60405180910390f35b61009a600480360381019061009591906101e5565b6101b8565b005b6100c87f35fff094355772d5f49928130952399c60faa9d824db3b0d441625e99fb1498660001b6101b8565b6100f47fc90b2cb3825baf3a57209f92c0f8059a640685a85878ee78d3c32d61886f65c060001b6101b8565b6101207f302ed292790683e9597fac63c807a8d1f79284700c5fb946f9bc30bf0b5ea29f60001b6101b8565b8060008190555050565b60006101587fae0aab37fb205293fdd51992d910cb9da94e7c7f6b69bd023ea5d7675e96cd3960001b6101b8565b6101847fd53dde55b53dcfeec32054807e9278df295230128ab00a010b5affbf16573b1560001b6101b8565b6101b07f03cfdeb3189c8db0023968c6f082b6aec9aa3a9ee5fe49552751efc3dec2ebb960001b6101b8565b600054905090565b50565b6000813590506101ca81610282565b92915050565b6000813590506101df81610299565b92915050565b6000602082840312156101fb576101fa61027d565b5b6000610209848285016101bb565b91505092915050565b6000602082840312156102285761022761027d565b5b6000610236848285016101d0565b91505092915050565b61024881610273565b82525050565b6000602082019050610263600083018461023f565b92915050565b6000819050919050565b6000819050919050565b600080fd5b61028b81610269565b811461029657600080fd5b50565b6102a281610273565b81146102ad57600080fd5b5056fea2646970667358221220bf861ef6244e97d3683602e9fea052ef94dd2ade0a045b3d5ee26509411d2bed64736f6c63430008070033",
  "linkReferences": {},
  "deployedLinkReferences": {}
}