{
  "_format": "hh-sol-artifact-1",
  "contractName": "Token",
  "sourceName": "contracts/openZeppelin/Token.sol",
  "abi": [
    {
      "inputs": [
        {
          "internalType": "string",
          "name": "_name",
          "type": "string"
        },
        {
          "internalType": "string",
          "name": "_symbol",
          "type": "string"
        }
      ],
      "stateMutability": "nonpayable",
      "type": "constructor"
    },
    {
      "anonymous": false,
      "inputs": [
        {
          "indexed": true,
          "internalType": "address",
          "name": "owner",
          "type": "address"
        },
        {
          "indexed": true,
          "internalType": "address",
          "name": "spender",
          "type": "address"
        },
        {
          "indexed": false,
          "internalType": "uint256",
          "name": "value",
          "type": "uint256"
        }
      ],
      "name": "Approval",
      "type": "event"
    },
    {
      "anonymous": false,
      "inputs": [
        {
          "indexed": true,
          "internalType": "address",
          "name": "from",
          "type": "address"
        },
        {
          "indexed": true,
          "internalType": "address",
          "name": "to",
          "type": "address"
        },
        {
          "indexed": false,
          "internalType": "uint256",
          "name": "value",
          "type": "uint256"
        }
      ],
      "name": "Transfer",
      "type": "event"
    },
    {
      "inputs": [
        {
          "internalType": "address",
          "name": "owner",
          "type": "address"
        },
        {
          "internalType": "address",
          "name": "spender",
          "type": "address"
        }
      ],
      "name": "allowance",
      "outputs": [
        {
          "internalType": "uint256",
          "name": "",
          "type": "uint256"
        }
      ],
      "stateMutability": "view",
      "type": "function"
    },
    {
      "inputs": [
        {
          "internalType": "address",
          "name": "spender",
          "type": "address"
        },
        {
          "internalType": "uint256",
          "name": "amount",
          "type": "uint256"
        }
      ],
      "name": "approve",
      "outputs": [
        {
          "internalType": "bool",
          "name": "",
          "type": "bool"
        }
      ],
      "stateMutability": "nonpayable",
      "type": "function"
    },
    {
      "inputs": [
        {
          "internalType": "address",
          "name": "account",
          "type": "address"
        }
      ],
      "name": "balanceOf",
      "outputs": [
        {
          "internalType": "uint256",
          "name": "",
          "type": "uint256"
        }
      ],
      "stateMutability": "view",
      "type": "function"
    },
    {
      "inputs": [
        {
          "internalType": "bytes32",
          "name": "c__0x38b079e7",
          "type": "bytes32"
        }
      ],
      "name": "c_0x38b079e7",
      "outputs": [],
      "stateMutability": "pure",
      "type": "function"
    },
    {
      "inputs": [],
      "name": "decimals",
      "outputs": [
        {
          "internalType": "uint8",
          "name": "",
          "type": "uint8"
        }
      ],
      "stateMutability": "view",
      "type": "function"
    },
    {
      "inputs": [
        {
          "internalType": "address",
          "name": "spender",
          "type": "address"
        },
        {
          "internalType": "uint256",
          "name": "subtractedValue",
          "type": "uint256"
        }
      ],
      "name": "decreaseAllowance",
      "outputs": [
        {
          "internalType": "bool",
          "name": "",
          "type": "bool"
        }
      ],
      "stateMutability": "nonpayable",
      "type": "function"
    },
    {
      "inputs": [
        {
          "internalType": "address",
          "name": "spender",
          "type": "address"
        },
        {
          "internalType": "uint256",
          "name": "addedValue",
          "type": "uint256"
        }
      ],
      "name": "increaseAllowance",
      "outputs": [
        {
          "internalType": "bool",
          "name": "",
          "type": "bool"
        }
      ],
      "stateMutability": "nonpayable",
      "type": "function"
    },
    {
      "inputs": [
        {
          "internalType": "address",
          "name": "_to",
          "type": "address"
        },
        {
          "internalType": "uint256",
          "name": "_amount",
          "type": "uint256"
        }
      ],
      "name": "mint",
      "outputs": [],
      "stateMutability": "nonpayable",
      "type": "function"
    },
    {
      "inputs": [],
      "name": "name",
      "outputs": [
        {
          "internalType": "string",
          "name": "",
          "type": "string"
        }
      ],
      "stateMutability": "view",
      "type": "function"
    },
    {
      "inputs": [],
      "name": "symbol",
      "outputs": [
        {
          "internalType": "string",
          "name": "",
          "type": "string"
        }
      ],
      "stateMutability": "view",
      "type": "function"
    },
    {
      "inputs": [],
      "name": "totalSupply",
      "outputs": [
        {
          "internalType": "uint256",
          "name": "",
          "type": "uint256"
        }
      ],
      "stateMutability": "view",
      "type": "function"
    },
    {
      "inputs": [
        {
          "internalType": "address",
          "name": "recipient",
          "type": "address"
        },
        {
          "internalType": "uint256",
          "name": "amount",
          "type": "uint256"
        }
      ],
      "name": "transfer",
      "outputs": [
        {
          "internalType": "bool",
          "name": "",
          "type": "bool"
        }
      ],
      "stateMutability": "nonpayable",
      "type": "function"
    },
    {
      "inputs": [
        {
          "internalType": "address",
          "name": "sender",
          "type": "address"
        },
        {
          "internalType": "address",
          "name": "recipient",
          "type": "address"
        },
        {
          "internalType": "uint256",
          "name": "amount",
          "type": "uint256"
        }
      ],
      "name": "transferFrom",
      "outputs": [
        {
          "internalType": "bool",
          "name": "",
          "type": "bool"
        }
      ],
      "stateMutability": "nonpayable",
      "type": "function"
    }
  ],
  "bytecode": "0x60806040523480156200001157600080fd5b5060405162001abf38038062001abf8339818101604052810190620000379190620001da565b8181816003908051906020019062000051929190620000ac565b5080600490805190602001906200006a929190620000ac565b505050620000a17f1fc51c8bdf4b84deee635092e76cf6c1ec6878b768849125bd0b7275c28f57a460001b620000a960201b60201c565b5050620003e3565b50565b828054620000ba90620002f4565b90600052602060002090601f016020900481019282620000de57600085556200012a565b82601f10620000f957805160ff19168380011785556200012a565b828001600101855582156200012a579182015b82811115620001295782518255916020019190600101906200010c565b5b5090506200013991906200013d565b5090565b5b80821115620001585760008160009055506001016200013e565b5090565b6000620001736200016d8462000288565b6200025f565b905082815260208101848484011115620001925762000191620003c3565b5b6200019f848285620002be565b509392505050565b600082601f830112620001bf57620001be620003be565b5b8151620001d18482602086016200015c565b91505092915050565b60008060408385031215620001f457620001f3620003cd565b5b600083015167ffffffffffffffff811115620002155762000214620003c8565b5b6200022385828601620001a7565b925050602083015167ffffffffffffffff811115620002475762000246620003c8565b5b6200025585828601620001a7565b9150509250929050565b60006200026b6200027e565b90506200027982826200032a565b919050565b6000604051905090565b600067ffffffffffffffff821115620002a657620002a56200038f565b5b620002b182620003d2565b9050602081019050919050565b60005b83811015620002de578082015181840152602081019050620002c1565b83811115620002ee576000848401525b50505050565b600060028204905060018216806200030d57607f821691505b6020821081141562000324576200032362000360565b5b50919050565b6200033582620003d2565b810181811067ffffffffffffffff821117156200035757620003566200038f565b5b80604052505050565b7f4e487b7100000000000000000000000000000000000000000000000000000000600052602260045260246000fd5b7f4e487b7100000000000000000000000000000000000000000000000000000000600052604160045260246000fd5b600080fd5b600080fd5b600080fd5b600080fd5b6000601f19601f8301169050919050565b6116cc80620003f36000396000f3fe608060405234801561001057600080fd5b50600436106100cf5760003560e01c806340c10f191161008c578063a457c2d711610066578063a457c2d714610228578063a9059cbb14610258578063b69386c214610288578063dd62ed3e146102a4576100cf565b806340c10f19146101be57806370a08231146101da57806395d89b411461020a576100cf565b806306fdde03146100d4578063095ea7b3146100f257806318160ddd1461012257806323b872dd14610140578063313ce56714610170578063395093511461018e575b600080fd5b6100dc6102d4565b6040516100e991906110fd565b60405180910390f35b61010c60048036038101906101079190610ef7565b610366565b60405161011991906110e2565b60405180910390f35b61012a610384565b604051610137919061121f565b60405180910390f35b61015a60048036038101906101559190610ea4565b61038e565b60405161016791906110e2565b60405180910390f35b610178610486565b604051610185919061123a565b60405180910390f35b6101a860048036038101906101a39190610ef7565b61048f565b6040516101b591906110e2565b60405180910390f35b6101d860048036038101906101d39190610ef7565b61053b565b005b6101f460048036038101906101ef9190610e37565b6105cd565b604051610201919061121f565b60405180910390f35b610212610615565b60405161021f91906110fd565b60405180910390f35b610242600480360381019061023d9190610ef7565b6106a7565b60405161024f91906110e2565b60405180910390f35b610272600480360381019061026d9190610ef7565b610792565b60405161027f91906110e2565b60405180910390f35b6102a2600480360381019061029d9190610f37565b6107b0565b005b6102be60048036038101906102b99190610e64565b6107b3565b6040516102cb919061121f565b60405180910390f35b6060600380546102e390611359565b80601f016020809104026020016040519081016040528092919081815260200182805461030f90611359565b801561035c5780601f106103315761010080835404028352916020019161035c565b820191906000526020600020905b81548152906001019060200180831161033f57829003601f168201915b5050505050905090565b600061037a61037361083a565b8484610842565b6001905092915050565b6000600254905090565b600061039b848484610a0d565b6000600160008673ffffffffffffffffffffffffffffffffffffffff1673ffffffffffffffffffffffffffffffffffffffff16815260200190815260200160002060006103e661083a565b73ffffffffffffffffffffffffffffffffffffffff1673ffffffffffffffffffffffffffffffffffffffff16815260200190815260200160002054905082811015610466576040517f08c379a000000000000000000000000000000000000000000000000000000000815260040161045d9061117f565b60405180910390fd5b61047a8561047261083a565b858403610842565b60019150509392505050565b60006012905090565b600061053161049c61083a565b8484600160006104aa61083a565b73ffffffffffffffffffffffffffffffffffffffff1673ffffffffffffffffffffffffffffffffffffffff16815260200190815260200160002060008873ffffffffffffffffffffffffffffffffffffffff1673ffffffffffffffffffffffffffffffffffffffff1681526020019081526020016000205461052c9190611271565b610842565b6001905092915050565b6105677f833d76b9e16ba85f8c2c8eb6ea4911434615e706043e6d06de51d1325e7c629d60001b6107b0565b6105937f7124837fd4d684c48e797b1307452ffacb43012d4dae515267adeca75b1b980260001b6107b0565b6105bf7fdddabe78016b0f6c888951dc98aa2e08a6de6afa9852e33f0309b050d61e9abb60001b6107b0565b6105c98282610c8e565b5050565b60008060008373ffffffffffffffffffffffffffffffffffffffff1673ffffffffffffffffffffffffffffffffffffffff168152602001908152602001600020549050919050565b60606004805461062490611359565b80601f016020809104026020016040519081016040528092919081815260200182805461065090611359565b801561069d5780601f106106725761010080835404028352916020019161069d565b820191906000526020600020905b81548152906001019060200180831161068057829003601f168201915b5050505050905090565b600080600160006106b661083a565b73ffffffffffffffffffffffffffffffffffffffff1673ffffffffffffffffffffffffffffffffffffffff16815260200190815260200160002060008573ffffffffffffffffffffffffffffffffffffffff1673ffffffffffffffffffffffffffffffffffffffff16815260200190815260200160002054905082811015610773576040517f08c379a000000000000000000000000000000000000000000000000000000000815260040161076a906111df565b60405180910390fd5b61078761077e61083a565b85858403610842565b600191505092915050565b60006107a661079f61083a565b8484610a0d565b6001905092915050565b50565b6000600160008473ffffffffffffffffffffffffffffffffffffffff1673ffffffffffffffffffffffffffffffffffffffff16815260200190815260200160002060008373ffffffffffffffffffffffffffffffffffffffff1673ffffffffffffffffffffffffffffffffffffffff16815260200190815260200160002054905092915050565b600033905090565b600073ffffffffffffffffffffffffffffffffffffffff168373ffffffffffffffffffffffffffffffffffffffff1614156108b2576040517f08c379a00000000000000000000000000000000000000000000000000000000081526004016108a9906111bf565b60405180910390fd5b600073ffffffffffffffffffffffffffffffffffffffff168273ffffffffffffffffffffffffffffffffffffffff161415610922576040517f08c379a00000000000000000000000000000000000000000000000000000000081526004016109199061113f565b60405180910390fd5b80600160008573ffffffffffffffffffffffffffffffffffffffff1673ffffffffffffffffffffffffffffffffffffffff16815260200190815260200160002060008473ffffffffffffffffffffffffffffffffffffffff1673ffffffffffffffffffffffffffffffffffffffff168152602001908152602001600020819055508173ffffffffffffffffffffffffffffffffffffffff168373ffffffffffffffffffffffffffffffffffffffff167f8c5be1e5ebec7d5bd14f71427d1e84f3dd0314c0f7b2291e5b200ac8c7c3b92583604051610a00919061121f565b60405180910390a3505050565b600073ffffffffffffffffffffffffffffffffffffffff168373ffffffffffffffffffffffffffffffffffffffff161415610a7d576040517f08c379a0000000000000000000000000000000000000000000000000000000008152600401610a749061119f565b60405180910390fd5b600073ffffffffffffffffffffffffffffffffffffffff168273ffffffffffffffffffffffffffffffffffffffff161415610aed576040517f08c379a0000000000000000000000000000000000000000000000000000000008152600401610ae49061111f565b60405180910390fd5b610af8838383610dee565b60008060008573ffffffffffffffffffffffffffffffffffffffff1673ffffffffffffffffffffffffffffffffffffffff16815260200190815260200160002054905081811015610b7e576040517f08c379a0000000000000000000000000000000000000000000000000000000008152600401610b759061115f565b60405180910390fd5b8181036000808673ffffffffffffffffffffffffffffffffffffffff1673ffffffffffffffffffffffffffffffffffffffff16815260200190815260200160002081905550816000808573ffffffffffffffffffffffffffffffffffffffff1673ffffffffffffffffffffffffffffffffffffffff1681526020019081526020016000206000828254610c119190611271565b925050819055508273ffffffffffffffffffffffffffffffffffffffff168473ffffffffffffffffffffffffffffffffffffffff167fddf252ad1be2c89b69c2b068fc378daa952ba7f163c4a11628f55a4df523b3ef84604051610c75919061121f565b60405180910390a3610c88848484610df3565b50505050565b600073ffffffffffffffffffffffffffffffffffffffff168273ffffffffffffffffffffffffffffffffffffffff161415610cfe576040517f08c379a0000000000000000000000000000000000000000000000000000000008152600401610cf5906111ff565b60405180910390fd5b610d0a60008383610dee565b8060026000828254610d1c9190611271565b92505081905550806000808473ffffffffffffffffffffffffffffffffffffffff1673ffffffffffffffffffffffffffffffffffffffff1681526020019081526020016000206000828254610d719190611271565b925050819055508173ffffffffffffffffffffffffffffffffffffffff16600073ffffffffffffffffffffffffffffffffffffffff167fddf252ad1be2c89b69c2b068fc378daa952ba7f163c4a11628f55a4df523b3ef83604051610dd6919061121f565b60405180910390a3610dea60008383610df3565b5050565b505050565b505050565b600081359050610e0781611651565b92915050565b600081359050610e1c81611668565b92915050565b600081359050610e318161167f565b92915050565b600060208284031215610e4d57610e4c6113e9565b5b6000610e5b84828501610df8565b91505092915050565b60008060408385031215610e7b57610e7a6113e9565b5b6000610e8985828601610df8565b9250506020610e9a85828601610df8565b9150509250929050565b600080600060608486031215610ebd57610ebc6113e9565b5b6000610ecb86828701610df8565b9350506020610edc86828701610df8565b9250506040610eed86828701610e22565b9150509250925092565b60008060408385031215610f0e57610f0d6113e9565b5b6000610f1c85828601610df8565b9250506020610f2d85828601610e22565b9150509250929050565b600060208284031215610f4d57610f4c6113e9565b5b6000610f5b84828501610e0d565b91505092915050565b610f6d816112d9565b82525050565b6000610f7e82611255565b610f888185611260565b9350610f98818560208601611326565b610fa1816113ee565b840191505092915050565b6000610fb9602383611260565b9150610fc4826113ff565b604082019050919050565b6000610fdc602283611260565b9150610fe78261144e565b604082019050919050565b6000610fff602683611260565b915061100a8261149d565b604082019050919050565b6000611022602883611260565b915061102d826114ec565b604082019050919050565b6000611045602583611260565b91506110508261153b565b604082019050919050565b6000611068602483611260565b91506110738261158a565b604082019050919050565b600061108b602583611260565b9150611096826115d9565b604082019050919050565b60006110ae601f83611260565b91506110b982611628565b602082019050919050565b6110cd8161130f565b82525050565b6110dc81611319565b82525050565b60006020820190506110f76000830184610f64565b92915050565b600060208201905081810360008301526111178184610f73565b905092915050565b6000602082019050818103600083015261113881610fac565b9050919050565b6000602082019050818103600083015261115881610fcf565b9050919050565b6000602082019050818103600083015261117881610ff2565b9050919050565b6000602082019050818103600083015261119881611015565b9050919050565b600060208201905081810360008301526111b881611038565b9050919050565b600060208201905081810360008301526111d88161105b565b9050919050565b600060208201905081810360008301526111f88161107e565b9050919050565b60006020820190508181036000830152611218816110a1565b9050919050565b600060208201905061123460008301846110c4565b92915050565b600060208201905061124f60008301846110d3565b92915050565b600081519050919050565b600082825260208201905092915050565b600061127c8261130f565b91506112878361130f565b9250827fffffffffffffffffffffffffffffffffffffffffffffffffffffffffffffffff038211156112bc576112bb61138b565b5b828201905092915050565b60006112d2826112ef565b9050919050565b60008115159050919050565b6000819050919050565b600073ffffffffffffffffffffffffffffffffffffffff82169050919050565b6000819050919050565b600060ff82169050919050565b60005b83811015611344578082015181840152602081019050611329565b83811115611353576000848401525b50505050565b6000600282049050600182168061137157607f821691505b60208210811415611385576113846113ba565b5b50919050565b7f4e487b7100000000000000000000000000000000000000000000000000000000600052601160045260246000fd5b7f4e487b7100000000000000000000000000000000000000000000000000000000600052602260045260246000fd5b600080fd5b6000601f19601f8301169050919050565b7f45524332303a207472616e7366657220746f20746865207a65726f206164647260008201527f6573730000000000000000000000000000000000000000000000000000000000602082015250565b7f45524332303a20617070726f766520746f20746865207a65726f20616464726560008201527f7373000000000000000000000000000000000000000000000000000000000000602082015250565b7f45524332303a207472616e7366657220616d6f756e742065786365656473206260008201527f616c616e63650000000000000000000000000000000000000000000000000000602082015250565b7f45524332303a207472616e7366657220616d6f756e742065786365656473206160008201527f6c6c6f77616e6365000000000000000000000000000000000000000000000000602082015250565b7f45524332303a207472616e736665722066726f6d20746865207a65726f20616460008201527f6472657373000000000000000000000000000000000000000000000000000000602082015250565b7f45524332303a20617070726f76652066726f6d20746865207a65726f2061646460008201527f7265737300000000000000000000000000000000000000000000000000000000602082015250565b7f45524332303a2064656372656173656420616c6c6f77616e63652062656c6f7760008201527f207a65726f000000000000000000000000000000000000000000000000000000602082015250565b7f45524332303a206d696e7420746f20746865207a65726f206164647265737300600082015250565b61165a816112c7565b811461166557600080fd5b50565b611671816112e5565b811461167c57600080fd5b50565b6116888161130f565b811461169357600080fd5b5056fea264697066735822122091f2036cab8004d9367a08cd34cace766b2d2a1e36b8b4f1fa6036db75a3ca7064736f6c63430008070033",
  "linkReferences": {},
  "deployedLinkReferences": {}
}