{
  "_format": "hh-sol-artifact-1",
  "contractName": "VoteStorage",
  "sourceName": "contracts/VoteStorage.sol",
  "abi": [
    {
      "inputs": [
        {
          "internalType": "address",
          "name": "_core",
          "type": "address"
        }
      ],
      "stateMutability": "nonpayable",
      "type": "constructor"
    },
    {
      "inputs": [],
      "name": "IDENTIFIER",
      "outputs": [
        {
          "internalType": "bytes32",
          "name": "",
          "type": "bytes32"
        }
      ],
      "stateMutability": "view",
      "type": "function"
    },
    {
      "inputs": [],
      "name": "core_",
      "outputs": [
        {
          "internalType": "contract ICore",
          "name": "",
          "type": "address"
        }
      ],
      "stateMutability": "view",
      "type": "function"
    }
  ],
  "bytecode": "0x60c060405234801561001057600080fd5b5060405161033b38038061033b833981810160405281019061003291906100f1565b7f92b17ff91a1f46cc9f1d4a69447ffdb215c04417e5debb5977aa0c45da3af9e78133600060026101000a81548173ffffffffffffffffffffffffffffffffffffffff021916908373ffffffffffffffffffffffffffffffffffffffff16021790555081608081815250508073ffffffffffffffffffffffffffffffffffffffff1660a08173ffffffffffffffffffffffffffffffffffffffff1660601b8152505050505061016c565b6000815190506100eb81610155565b92915050565b60006020828403121561010757610106610150565b5b6000610115848285016100dc565b91505092915050565b600061012982610130565b9050919050565b600073ffffffffffffffffffffffffffffffffffffffff82169050919050565b600080fd5b61015e8161011e565b811461016957600080fd5b50565b60805160a05160601c6101a96101926000396000609d01526000607901526101a96000f3fe608060405234801561001057600080fd5b50600436106100365760003560e01c80633c9747f31461003b578063eaddd0fd14610059575b600080fd5b610043610077565b60405161005091906100dd565b60405180910390f35b61006161009b565b60405161006e91906100f8565b60405180910390f35b7f000000000000000000000000000000000000000000000000000000000000000081565b7f000000000000000000000000000000000000000000000000000000000000000081565b6100c881610113565b82525050565b6100d78161013d565b82525050565b60006020820190506100f260008301846100bf565b92915050565b600060208201905061010d60008301846100ce565b92915050565b6000819050919050565b600073ffffffffffffffffffffffffffffffffffffffff82169050919050565b60006101488261014f565b9050919050565b600061015a82610161565b9050919050565b600061016c8261011d565b905091905056fea2646970667358221220631d4679e1e3eafb5522954e67256ae1e894a5b8d307f1d5794303f9aab85c1264736f6c63430008070033",
  "linkReferences": {},
  "deployedLinkReferences": {}
}