{
  "_format": "hh-sol-artifact-1",
  "contractName": "Factory",
  "sourceName": "contracts/Factory.sol",
  "abi": [
    {
      "inputs": [],
      "name": "dao",
      "outputs": [
        {
          "internalType": "address",
          "name": "core",
          "type": "address"
        },
        {
          "internalType": "address",
          "name": "coord",
          "type": "address"
        },
        {
          "internalType": "address",
          "name": "exe",
          "type": "address"
        },
        {
          "internalType": "address",
          "name": "prop",
          "type": "address"
        },
        {
          "internalType": "address",
          "name": "booth",
          "type": "address"
        },
        {
          "internalType": "address",
          "name": "weight",
          "type": "address"
        },
        {
          "internalType": "address",
          "name": "simpleMaj",
          "type": "address"
        }
      ],
      "stateMutability": "view",
      "type": "function"
    },
    {
      "inputs": [
        {
          "internalType": "address",
          "name": "_timer",
          "type": "address"
        }
      ],
      "name": "deployBasicDao",
      "outputs": [],
      "stateMutability": "nonpayable",
      "type": "function"
    },
    {
      "inputs": [
        {
          "internalType": "address",
          "name": "_gov",
          "type": "address"
        },
        {
          "internalType": "address",
          "name": "_rep",
          "type": "address"
        }
      ],
      "name": "initDao",
      "outputs": [],
      "stateMutability": "nonpayable",
      "type": "function"
    }
  ],
  "bytecode": "0x608060405234801561001057600080fd5b5061ea8a80620000216000396000f3fe60806040523480156200001157600080fd5b5060043610620000465760003560e01c8063157d987b146200004b5780631acf4aad146200006b5780634162169f146200008b575b600080fd5b62000069600480360381019062000063919062000a13565b620000b3565b005b620000896004803603810190620000839190620009e1565b6200041b565b005b6200009562000858565b604051620000aa979695949392919062000b60565b60405180910390f35b6000800160009054906101000a900473ffffffffffffffffffffffffffffffffffffffff1673ffffffffffffffffffffffffffffffffffffffff1663a869e098600060010160009054906101000a900473ffffffffffffffffffffffffffffffffffffffff16600060020160009054906101000a900473ffffffffffffffffffffffffffffffffffffffff16600060030160009054906101000a900473ffffffffffffffffffffffffffffffffffffffff16600060050160009054906101000a900473ffffffffffffffffffffffffffffffffffffffff16600060040160009054906101000a900473ffffffffffffffffffffffffffffffffffffffff166040518663ffffffff1660e01b8152600401620001d395949392919062000b03565b600060405180830381600087803b158015620001ee57600080fd5b505af115801562000203573d6000803e3d6000fd5b50505050600060040160009054906101000a900473ffffffffffffffffffffffffffffffffffffffff1673ffffffffffffffffffffffffffffffffffffffff16636e3ce913600060060160009054906101000a900473ffffffffffffffffffffffffffffffffffffffff167fe927a917027ae678ece03159f7b891bcfbce4670390def18906836b285c642ae6040518363ffffffff1660e01b8152600401620002ae92919062000bdd565b600060405180830381600087803b158015620002c957600080fd5b505af1158015620002de573d6000803e3d6000fd5b50505050600060050160009054906101000a900473ffffffffffffffffffffffffffffffffffffffff1673ffffffffffffffffffffffffffffffffffffffff1663ef88bf1383836040518363ffffffff1660e01b81526004016200034492919062000ad6565b600060405180830381600087803b1580156200035f57600080fd5b505af115801562000374573d6000803e3d6000fd5b50505050600060030160009054906101000a900473ffffffffffffffffffffffffffffffffffffffff1673ffffffffffffffffffffffffffffffffffffffff1663a3e99958600f6201518062093a806040518463ffffffff1660e01b8152600401620003e39392919062000c1f565b600060405180830381600087803b158015620003fe57600080fd5b505af115801562000413573d6000803e3d6000fd5b505050505050565b604051620004299062000968565b604051809103906000f08015801562000446573d6000803e3d6000fd5b506000800160006101000a81548173ffffffffffffffffffffffffffffffffffffffff021916908373ffffffffffffffffffffffffffffffffffffffff1602179055506000800160009054906101000a900473ffffffffffffffffffffffffffffffffffffffff1681604051620004bd9062000976565b620004ca92919062000ad6565b604051809103906000f080158015620004e7573d6000803e3d6000fd5b50600060010160006101000a81548173ffffffffffffffffffffffffffffffffffffffff021916908373ffffffffffffffffffffffffffffffffffffffff1602179055506000800160009054906101000a900473ffffffffffffffffffffffffffffffffffffffff16816040516200055f9062000984565b6200056c92919062000ad6565b604051809103906000f08015801562000589573d6000803e3d6000fd5b50600060020160006101000a81548173ffffffffffffffffffffffffffffffffffffffff021916908373ffffffffffffffffffffffffffffffffffffffff1602179055506000800160009054906101000a900473ffffffffffffffffffffffffffffffffffffffff1681604051620006019062000992565b6200060e92919062000ad6565b604051809103906000f0801580156200062b573d6000803e3d6000fd5b50600060030160006101000a81548173ffffffffffffffffffffffffffffffffffffffff021916908373ffffffffffffffffffffffffffffffffffffffff1602179055506000800160009054906101000a900473ffffffffffffffffffffffffffffffffffffffff1681604051620006a390620009a0565b620006b092919062000ad6565b604051809103906000f080158015620006cd573d6000803e3d6000fd5b50600060040160006101000a81548173ffffffffffffffffffffffffffffffffffffffff021916908373ffffffffffffffffffffffffffffffffffffffff1602179055506000800160009054906101000a900473ffffffffffffffffffffffffffffffffffffffff16816040516200074590620009ae565b6200075292919062000ad6565b604051809103906000f0801580156200076f573d6000803e3d6000fd5b50600060050160006101000a81548173ffffffffffffffffffffffffffffffffffffffff021916908373ffffffffffffffffffffffffffffffffffffffff1602179055506000800160009054906101000a900473ffffffffffffffffffffffffffffffffffffffff1681604051620007e790620009bc565b620007f492919062000ad6565b604051809103906000f08015801562000811573d6000803e3d6000fd5b50600060060160006101000a81548173ffffffffffffffffffffffffffffffffffffffff021916908373ffffffffffffffffffffffffffffffffffffffff16021790555050565b60008060000160009054906101000a900473ffffffffffffffffffffffffffffffffffffffff16908060010160009054906101000a900473ffffffffffffffffffffffffffffffffffffffff16908060020160009054906101000a900473ffffffffffffffffffffffffffffffffffffffff16908060030160009054906101000a900473ffffffffffffffffffffffffffffffffffffffff16908060040160009054906101000a900473ffffffffffffffffffffffffffffffffffffffff16908060050160009054906101000a900473ffffffffffffffffffffffffffffffffffffffff16908060060160009054906101000a900473ffffffffffffffffffffffffffffffffffffffff16905087565b61191e8062000d3a83390190565b612225806200265883390190565b613174806200487d83390190565b612d6d80620079f183390190565b611c53806200a75e83390190565b610ec5806200c3b183390190565b6117df806200d27683390190565b600081359050620009db8162000d1f565b92915050565b600060208284031215620009fa57620009f962000cf1565b5b600062000a0a84828501620009ca565b91505092915050565b6000806040838503121562000a2d5762000a2c62000cf1565b5b600062000a3d85828601620009ca565b925050602062000a5085828601620009ca565b9150509250929050565b62000a658162000c6d565b82525050565b62000a768162000c81565b82525050565b62000a878162000cb5565b82525050565b62000a988162000cc9565b82525050565b62000aa98162000cdd565b82525050565b600062000abe60048362000c5c565b915062000acb8262000cf6565b602082019050919050565b600060408201905062000aed600083018562000a5a565b62000afc602083018462000a5a565b9392505050565b600060a08201905062000b1a600083018862000a5a565b62000b29602083018762000a5a565b62000b38604083018662000a5a565b62000b47606083018562000a5a565b62000b56608083018462000a5a565b9695505050505050565b600060e08201905062000b77600083018a62000a5a565b62000b86602083018962000a5a565b62000b95604083018862000a5a565b62000ba4606083018762000a5a565b62000bb3608083018662000a5a565b62000bc260a083018562000a5a565b62000bd160c083018462000a5a565b98975050505050505050565b600060608201905062000bf4600083018562000a5a565b62000c03602083018462000a6b565b818103604083015262000c168162000aaf565b90509392505050565b600060608201905062000c36600083018662000a7c565b62000c45602083018562000a9e565b62000c54604083018462000a8d565b949350505050565b600082825260208201905092915050565b600062000c7a8262000c8b565b9050919050565b6000819050919050565b600073ffffffffffffffffffffffffffffffffffffffff82169050919050565b6000819050919050565b600062000cc28262000cab565b9050919050565b600062000cd68262000cab565b9050919050565b600062000cea8262000cab565b9050919050565b600080fd5b7f626f6f6c00000000000000000000000000000000000000000000000000000000600082015250565b62000d2a8162000c6d565b811462000d3657600080fd5b5056fe608060405234801561001057600080fd5b5033600060026101000a81548173ffffffffffffffffffffffffffffffffffffffff021916908373ffffffffffffffffffffffffffffffffffffffff1602179055506118bd806100616000396000f3fe608060405234801561001057600080fd5b506004361061007d5760003560e01c8063956138ed1161005b578063956138ed146100ec578063a869e09814610108578063dec0257d14610124578063e751f271146101405761007d565b80633c9747f3146100825780635188f996146100a0578063624a23e0146100bc575b600080fd5b61008a61015c565b60405161009791906112b4565b60405180910390f35b6100ba60048036038101906100b591906110b8565b610180565b005b6100d660048036038101906100d1919061108b565b61030e565b6040516100e39190611299565b60405180910390f35b610106600480360381019061010191906110b8565b61034b565b005b610122600480360381019061011d9190610f69565b6104da565b005b61013e6004803603810190610139919061108b565b61071a565b005b61015a6004803603810190610155919061108b565b610839565b005b7f907208bc2088fa777f18b43edd8b766e7243504cf8497f7ed936c65c7a446bbc81565b3073ffffffffffffffffffffffffffffffffffffffff163373ffffffffffffffffffffffffffffffffffffffff16146101ee576040517f08c379a00000000000000000000000000000000000000000000000000000000081526004016101e590611326565b60405180910390fd5b600073ffffffffffffffffffffffffffffffffffffffff166001600084815260200190815260200160002060009054906101000a900473ffffffffffffffffffffffffffffffffffffffff1673ffffffffffffffffffffffffffffffffffffffff1614610290576040517f08c379a0000000000000000000000000000000000000000000000000000000008152600401610287906113e6565b60405180910390fd5b600073ffffffffffffffffffffffffffffffffffffffff168173ffffffffffffffffffffffffffffffffffffffff161415610300576040517f08c379a00000000000000000000000000000000000000000000000000000000081526004016102f7906113a6565b60405180910390fd5b61030a8282610bbc565b5050565b60006001600083815260200190815260200160002060009054906101000a900473ffffffffffffffffffffffffffffffffffffffff169050919050565b3073ffffffffffffffffffffffffffffffffffffffff163373ffffffffffffffffffffffffffffffffffffffff16146103b9576040517f08c379a00000000000000000000000000000000000000000000000000000000081526004016103b090611326565b60405180910390fd5b600073ffffffffffffffffffffffffffffffffffffffff166001600084815260200190815260200160002060009054906101000a900473ffffffffffffffffffffffffffffffffffffffff1673ffffffffffffffffffffffffffffffffffffffff16141561045c576040517f08c379a0000000000000000000000000000000000000000000000000000000008152600401610453906113c6565b60405180910390fd5b600073ffffffffffffffffffffffffffffffffffffffff168173ffffffffffffffffffffffffffffffffffffffff1614156104cc576040517f08c379a00000000000000000000000000000000000000000000000000000000081526004016104c390611366565b60405180910390fd5b6104d68282610bbc565b5050565b600060019054906101000a900460ff1680610500575060008054906101000a900460ff16155b61053f576040517f08c379a000000000000000000000000000000000000000000000000000000000815260040161053690611346565b60405180910390fd5b600060029054906101000a900473ffffffffffffffffffffffffffffffffffffffff1673ffffffffffffffffffffffffffffffffffffffff163373ffffffffffffffffffffffffffffffffffffffff16146105cf576040517f08c379a00000000000000000000000000000000000000000000000000000000081526004016105c690611306565b60405180910390fd5b60008060019054906101000a900460ff16159050801561061f576001600060016101000a81548160ff02191690831515021790555060016000806101000a81548160ff0219169083151502179055505b6106497fd578563424ab02f85ec03c6b1aee04947ebdd4a30db46cba3bcd7f56ef40b19987610bbc565b6106737f59e2d72f5870ccddd14d35394bd3c22374071b2da7c07a3d6c3b690400b7362886610bbc565b61069d7f36209a57dfd79e3872ec3a0c88c653bbe7e32a12306e5e1f92f118c1936ae8b285610bbc565b6106c77fcdd7ba10b36b7349d5c9710e5e447ec8acaa8e3cbba8d20f4393eccf61f185b184610bbc565b6106f17f346b2ab3a980432fd8f2e24828fc9f9ee2df1548701bc542f6ec17882b32762783610bbc565b80156107125760008060016101000a81548160ff0219169083151502179055505b505050505050565b3073ffffffffffffffffffffffffffffffffffffffff163373ffffffffffffffffffffffffffffffffffffffff1614610788576040517f08c379a000000000000000000000000000000000000000000000000000000000815260040161077f90611326565b60405180910390fd5b600073ffffffffffffffffffffffffffffffffffffffff166001600083815260200190815260200160002060009054906101000a900473ffffffffffffffffffffffffffffffffffffffff1673ffffffffffffffffffffffffffffffffffffffff16141561082b576040517f08c379a000000000000000000000000000000000000000000000000000000000815260040161082290611406565b60405180910390fd5b610836816000610bbc565b50565b60003073ffffffffffffffffffffffffffffffffffffffff1663624a23e07fd578563424ab02f85ec03c6b1aee04947ebdd4a30db46cba3bcd7f56ef40b1996040518263ffffffff1660e01b815260040161089491906112b4565b60206040518083038186803b1580156108ac57600080fd5b505afa1580156108c0573d6000803e3d6000fd5b505050506040513d601f19601f820116820180604052508101906108e49190610f3c565b90508073ffffffffffffffffffffffffffffffffffffffff16637526bd9b836040518263ffffffff1660e01b815260040161091f91906112b4565b600060405180830381600087803b15801561093957600080fd5b505af115801561094d573d6000803e3d6000fd5b5050505060003073ffffffffffffffffffffffffffffffffffffffff1663624a23e07f59e2d72f5870ccddd14d35394bd3c22374071b2da7c07a3d6c3b690400b736286040518263ffffffff1660e01b81526004016109ac91906112b4565b60206040518083038186803b1580156109c457600080fd5b505afa1580156109d8573d6000803e3d6000fd5b505050506040513d601f19601f820116820180604052508101906109fc9190610f3c565b905060008060008373ffffffffffffffffffffffffffffffffffffffff1663971aa75e876040518263ffffffff1660e01b8152600401610a3c91906112b4565b60006040518083038186803b158015610a5457600080fd5b505afa158015610a68573d6000803e3d6000fd5b505050506040513d6000823e3d601f19601f82011682018060405250810190610a919190610fe4565b92509250925060005b8351811015610bb3576000848281518110610ab857610ab7611649565b5b602002602001015173ffffffffffffffffffffffffffffffffffffffff16838381518110610ae957610ae8611649565b5b6020026020010151858481518110610b0457610b03611649565b5b6020026020010151604051610b199190611282565b60006040518083038185875af1925050503d8060008114610b56576040519150601f19603f3d011682016040523d82523d6000602084013e610b5b565b606091505b5050905080610b9f576040517f08c379a0000000000000000000000000000000000000000000000000000000008152600401610b9690611386565b60405180910390fd5b508080610bab906115d1565b915050610a9a565b50505050505050565b7fd80ff32702e0622dbb097b3978d56222743155c7f344ab504ce2e194b913fadc826001600085815260200190815260200160002060009054906101000a900473ffffffffffffffffffffffffffffffffffffffff1683604051610c22939291906112cf565b60405180910390a1806001600084815260200190815260200160002060006101000a81548173ffffffffffffffffffffffffffffffffffffffff021916908373ffffffffffffffffffffffffffffffffffffffff1602179055505050565b6000610c93610c8e8461144b565b611426565b90508083825260208201905082856020860282011115610cb657610cb56116ac565b5b60005b85811015610ce65781610ccc8882610e45565b845260208401935060208301925050600181019050610cb9565b5050509392505050565b6000610d03610cfe84611477565b611426565b90508083825260208201905082856020860282011115610d2657610d256116ac565b5b60005b85811015610d7457815167ffffffffffffffff811115610d4c57610d4b6116a7565b5b808601610d598982610ef9565b85526020850194506020840193505050600181019050610d29565b5050509392505050565b6000610d91610d8c846114a3565b611426565b90508083825260208201905082856020860282011115610db457610db36116ac565b5b60005b85811015610de45781610dca8882610f27565b845260208401935060208301925050600181019050610db7565b5050509392505050565b6000610e01610dfc846114cf565b611426565b905082815260208101848484011115610e1d57610e1c6116b1565b5b610e2884828561156d565b509392505050565b600081359050610e3f81611842565b92915050565b600081519050610e5481611842565b92915050565b600082601f830112610e6f57610e6e6116a7565b5b8151610e7f848260208601610c80565b91505092915050565b600082601f830112610e9d57610e9c6116a7565b5b8151610ead848260208601610cf0565b91505092915050565b600082601f830112610ecb57610eca6116a7565b5b8151610edb848260208601610d7e565b91505092915050565b600081359050610ef381611859565b92915050565b600082601f830112610f0e57610f0d6116a7565b5b8151610f1e848260208601610dee565b91505092915050565b600081519050610f3681611870565b92915050565b600060208284031215610f5257610f516116bb565b5b6000610f6084828501610e45565b91505092915050565b600080600080600060a08688031215610f8557610f846116bb565b5b6000610f9388828901610e30565b9550506020610fa488828901610e30565b9450506040610fb588828901610e30565b9350506060610fc688828901610e30565b9250506080610fd788828901610e30565b9150509295509295909350565b600080600060608486031215610ffd57610ffc6116bb565b5b600084015167ffffffffffffffff81111561101b5761101a6116b6565b5b61102786828701610e5a565b935050602084015167ffffffffffffffff811115611048576110476116b6565b5b61105486828701610e88565b925050604084015167ffffffffffffffff811115611075576110746116b6565b5b61108186828701610eb6565b9150509250925092565b6000602082840312156110a1576110a06116bb565b5b60006110af84828501610ee4565b91505092915050565b600080604083850312156110cf576110ce6116bb565b5b60006110dd85828601610ee4565b92505060206110ee85828601610e30565b9150509250929050565b61110181611527565b82525050565b61111081611539565b82525050565b600061112182611500565b61112b818561150b565b935061113b81856020860161156d565b80840191505092915050565b6000611154601c83611516565b915061115f826116d1565b602082019050919050565b6000611177601a83611516565b9150611182826116fa565b602082019050919050565b600061119a601d83611516565b91506111a582611723565b602082019050919050565b60006111bd601d83611516565b91506111c88261174c565b602082019050919050565b60006111e0601083611516565b91506111eb82611775565b602082019050919050565b6000611203601a83611516565b915061120e8261179e565b602082019050919050565b6000611226601a83611516565b9150611231826117c7565b602082019050919050565b6000611249601b83611516565b9150611254826117f0565b602082019050919050565b600061126c601583611516565b915061127782611819565b602082019050919050565b600061128e8284611116565b915081905092915050565b60006020820190506112ae60008301846110f8565b92915050565b60006020820190506112c96000830184611107565b92915050565b60006060820190506112e46000830186611107565b6112f160208301856110f8565b6112fe60408301846110f8565b949350505050565b6000602082019050818103600083015261131f81611147565b9050919050565b6000602082019050818103600083015261133f8161116a565b9050919050565b6000602082019050818103600083015261135f8161118d565b9050919050565b6000602082019050818103600083015261137f816111b0565b9050919050565b6000602082019050818103600083015261139f816111d3565b9050919050565b600060208201905081810360008301526113bf816111f6565b9050919050565b600060208201905081810360008301526113df81611219565b9050919050565b600060208201905081810360008301526113ff8161123c565b9050919050565b6000602082019050818103600083015261141f8161125f565b9050919050565b6000611430611441565b905061143c82826115a0565b919050565b6000604051905090565b600067ffffffffffffffff82111561146657611465611678565b5b602082029050602081019050919050565b600067ffffffffffffffff82111561149257611491611678565b5b602082029050602081019050919050565b600067ffffffffffffffff8211156114be576114bd611678565b5b602082029050602081019050919050565b600067ffffffffffffffff8211156114ea576114e9611678565b5b6114f3826116c0565b9050602081019050919050565b600081519050919050565b600081905092915050565b600082825260208201905092915050565b600061153282611543565b9050919050565b6000819050919050565b600073ffffffffffffffffffffffffffffffffffffffff82169050919050565b6000819050919050565b60005b8381101561158b578082015181840152602081019050611570565b8381111561159a576000848401525b50505050565b6115a9826116c0565b810181811067ffffffffffffffff821117156115c8576115c7611678565b5b80604052505050565b60006115dc82611563565b91507fffffffffffffffffffffffffffffffffffffffffffffffffffffffffffffffff82141561160f5761160e61161a565b5b600182019050919050565b7f4e487b7100000000000000000000000000000000000000000000000000000000600052601160045260246000fd5b7f4e487b7100000000000000000000000000000000000000000000000000000000600052603260045260246000fd5b7f4e487b7100000000000000000000000000000000000000000000000000000000600052604160045260246000fd5b600080fd5b600080fd5b600080fd5b600080fd5b600080fd5b6000601f19601f8301169050919050565b7f496e69743a204f6e6c79206465706c6f7965722063616e20696e697400000000600082015250565b7f436f72653a204f6e6c7920657865732063616e206d6f64696679000000000000600082015250565b7f496e69743a20436f6e747261637420697320696e697469616c697a6564000000600082015250565b7f436f72653a2043616e6e6f742064656c657465206f6e20757064617465000000600082015250565b7f436f72653a20457865206661696c656400000000000000000000000000000000600082015250565b7f436f72653a2043616e6e6f742064656c657465206f6e20616464000000000000600082015250565b7f436f72653a2043616e6e6f7420616464206f6e20757064617465000000000000600082015250565b7f436f72653a205573652075706461746520746f207265706c6163650000000000600082015250565b7f436f72653a20616c72656164792064656c657465640000000000000000000000600082015250565b61184b81611527565b811461185657600080fd5b50565b61186281611539565b811461186d57600080fd5b50565b61187981611563565b811461188457600080fd5b5056fea2646970667358221220272f5653f5532deb36dd5a343e43253e1b7c57a443628c2a1ad23dca1d51b42c64736f6c6343000807003360c06040523480156200001157600080fd5b50604051620022253803806200222583398181016040528101906200003791906200013f565b7fd578563424ab02f85ec03c6b1aee04947ebdd4a30db46cba3bcd7f56ef40b19982828033600060026101000a81548173ffffffffffffffffffffffffffffffffffffffff021916908373ffffffffffffffffffffffffffffffffffffffff16021790555080600160006101000a81548173ffffffffffffffffffffffffffffffffffffffff021916908373ffffffffffffffffffffffffffffffffffffffff1602179055505082608081815250508173ffffffffffffffffffffffffffffffffffffffff1660a08173ffffffffffffffffffffffffffffffffffffffff1660601b815250505050505050620001d9565b6000815190506200013981620001bf565b92915050565b60008060408385031215620001595762000158620001ba565b5b6000620001698582860162000128565b92505060206200017c8582860162000128565b9150509250929050565b600062000193826200019a565b9050919050565b600073ffffffffffffffffffffffffffffffffffffffff82169050919050565b600080fd5b620001ca8162000186565b8114620001d657600080fd5b50565b60805160a05160601c611fe46200024160003960008181610364015281816106f801528181610945015281816109d501528181610cff01528181610dcc0152818161116f015281816113d6015281816113fc01526114c9015260006108a60152611fe46000f3fe608060405234801561001057600080fd5b50600436106100b45760003560e01c8063701370dc11610071578063701370dc1461017b5780637526bd9b146101ab57806394a14a34146101c75780639cf782cb146101e3578063eaddd0fd14610213578063fd4a77f114610231576100b4565b80631c39c38d146100b957806322f8e566146100d7578063299ba15f146100f357806329cb924d1461012357806338c68782146101415780633c9747f31461015d575b600080fd5b6100c161024d565b6040516100ce9190611bef565b60405180910390f35b6100f160048036038101906100ec9190611a55565b610273565b005b61010d60048036038101906101089190611a55565b61035f565b60405161011a9190611c0a565b60405180910390f35b61012b61056d565b6040516101389190611d3b565b60405180910390f35b61015b600480360381019061015691906119ae565b610672565b005b6101656108a4565b6040516101729190611c25565b60405180910390f35b610195600480360381019061019091906118d4565b6108c8565b6040516101a29190611bef565b60405180910390f35b6101c560048036038101906101c09190611954565b610943565b005b6101e160048036038101906101dc9190611a55565b610cfb565b005b6101fd60048036038101906101f89190611954565b61116a565b60405161020a9190611c0a565b60405180910390f35b61021b6113d4565b6040516102289190611c40565b60405180910390f35b61024b60048036038101906102469190611a55565b6113f8565b005b600160009054906101000a900473ffffffffffffffffffffffffffffffffffffffff1681565b600073ffffffffffffffffffffffffffffffffffffffff16600160009054906101000a900473ffffffffffffffffffffffffffffffffffffffff1673ffffffffffffffffffffffffffffffffffffffff1614156102cf57600080fd5b600160009054906101000a900473ffffffffffffffffffffffffffffffffffffffff1673ffffffffffffffffffffffffffffffffffffffff166322f8e566826040518263ffffffff1660e01b815260040161032a9190611d3b565b600060405180830381600087803b15801561034457600080fd5b505af1158015610358573d6000803e3d6000fd5b5050505050565b6000807f000000000000000000000000000000000000000000000000000000000000000073ffffffffffffffffffffffffffffffffffffffff1663624a23e07f36209a57dfd79e3872ec3a0c88c653bbe7e32a12306e5e1f92f118c1936ae8b26040518263ffffffff1660e01b81526004016103db9190611c25565b60206040518083038186803b1580156103f357600080fd5b505afa158015610407573d6000803e3d6000fd5b505050506040513d601f19601f8201168201806040525081019061042b91906118a7565b90506000806000808473ffffffffffffffffffffffffffffffffffffffff1663a6640e4c886040518263ffffffff1660e01b815260040161046c9190611d3b565b60806040518083038186803b15801561048457600080fd5b505afa158015610498573d6000803e3d6000fd5b505050506040513d601f19601f820116820180604052508101906104bc91906119ee565b9350935093509350600160068111156104d8576104d7611def565b5b8460068111156104eb576104ea611def565b5b148061051b57506002600681111561050657610505611def565b5b84600681111561051957610518611def565b5b145b801561052e575061052a61056d565b8311155b8015610541575061053d61056d565b8210155b801561054b575080155b1561055e57600195505050505050610568565b6000955050505050505b919050565b60008073ffffffffffffffffffffffffffffffffffffffff16600160009054906101000a900473ffffffffffffffffffffffffffffffffffffffff1673ffffffffffffffffffffffffffffffffffffffff161461066b57600160009054906101000a900473ffffffffffffffffffffffffffffffffffffffff1673ffffffffffffffffffffffffffffffffffffffff166329cb924d6040518163ffffffff1660e01b815260040160206040518083038186803b15801561062c57600080fd5b505afa158015610640573d6000803e3d6000fd5b505050506040513d601f19601f820116820180604052508101906106649190611a82565b905061066f565b4290505b90565b60003373ffffffffffffffffffffffffffffffffffffffff16633c9747f36040518163ffffffff1660e01b815260040160206040518083038186803b1580156106ba57600080fd5b505afa1580156106ce573d6000803e3d6000fd5b505050506040513d601f19601f820116820180604052508101906106f29190611981565b905060007f000000000000000000000000000000000000000000000000000000000000000073ffffffffffffffffffffffffffffffffffffffff1663624a23e0836040518263ffffffff1660e01b815260040161074f9190611c25565b60206040518083038186803b15801561076757600080fd5b505afa15801561077b573d6000803e3d6000fd5b505050506040513d601f19601f8201168201806040525081019061079f91906118a7565b90508073ffffffffffffffffffffffffffffffffffffffff163373ffffffffffffffffffffffffffffffffffffffff161461080f576040517f08c379a000000000000000000000000000000000000000000000000000000000815260040161080690611d1b565b60405180910390fd5b82600260003373ffffffffffffffffffffffffffffffffffffffff1673ffffffffffffffffffffffffffffffffffffffff168152602001908152602001600020600086815260200190815260200160002060006101000a81548173ffffffffffffffffffffffffffffffffffffffff021916908373ffffffffffffffffffffffffffffffffffffffff16021790555050505050565b7f000000000000000000000000000000000000000000000000000000000000000081565b6000600260008473ffffffffffffffffffffffffffffffffffffffff1673ffffffffffffffffffffffffffffffffffffffff168152602001908152602001600020600083815260200190815260200160002060009054906101000a900473ffffffffffffffffffffffffffffffffffffffff16905092915050565b7f000000000000000000000000000000000000000000000000000000000000000073ffffffffffffffffffffffffffffffffffffffff163373ffffffffffffffffffffffffffffffffffffffff16146109d1576040517f08c379a00000000000000000000000000000000000000000000000000000000081526004016109c890611c7b565b60405180910390fd5b60007f000000000000000000000000000000000000000000000000000000000000000073ffffffffffffffffffffffffffffffffffffffff1663624a23e07f36209a57dfd79e3872ec3a0c88c653bbe7e32a12306e5e1f92f118c1936ae8b26040518263ffffffff1660e01b8152600401610a4c9190611c25565b60206040518083038186803b158015610a6457600080fd5b505afa158015610a78573d6000803e3d6000fd5b505050506040513d601f19601f82011682018060405250810190610a9c91906118a7565b905060008173ffffffffffffffffffffffffffffffffffffffff16639e34fa6a846040518263ffffffff1660e01b8152600401610ad99190611c25565b60206040518083038186803b158015610af157600080fd5b505afa158015610b05573d6000803e3d6000fd5b505050506040513d601f19601f82011682018060405250810190610b299190611a82565b90506000811415610b6f576040517f08c379a0000000000000000000000000000000000000000000000000000000008152600401610b6690611cdb565b60405180910390fd5b60008060008473ffffffffffffffffffffffffffffffffffffffff1663a6640e4c856040518263ffffffff1660e01b8152600401610bad9190611d3b565b60806040518083038186803b158015610bc557600080fd5b505afa158015610bd9573d6000803e3d6000fd5b505050506040513d601f19601f82011682018060405250810190610bfd91906119ee565b9350935050925060036006811115610c1857610c17611def565b5b836006811115610c2b57610c2a611def565b5b148015610c3f5750610c3b61056d565b8211155b8015610c49575080155b610c88576040517f08c379a0000000000000000000000000000000000000000000000000000000008152600401610c7f90611c5b565b60405180910390fd5b8473ffffffffffffffffffffffffffffffffffffffff1663b7abd803856040518263ffffffff1660e01b8152600401610cc19190611d3b565b600060405180830381600087803b158015610cdb57600080fd5b505af1158015610cef573d6000803e3d6000fd5b50505050505050505050565b60007f000000000000000000000000000000000000000000000000000000000000000073ffffffffffffffffffffffffffffffffffffffff1663624a23e07f346b2ab3a980432fd8f2e24828fc9f9ee2df1548701bc542f6ec17882b3276276040518263ffffffff1660e01b8152600401610d769190611c25565b60206040518083038186803b158015610d8e57600080fd5b505afa158015610da2573d6000803e3d6000fd5b505050506040513d601f19601f82011682018060405250810190610dc691906118a7565b905060007f000000000000000000000000000000000000000000000000000000000000000073ffffffffffffffffffffffffffffffffffffffff1663624a23e07f36209a57dfd79e3872ec3a0c88c653bbe7e32a12306e5e1f92f118c1936ae8b26040518263ffffffff1660e01b8152600401610e439190611c25565b60206040518083038186803b158015610e5b57600080fd5b505afa158015610e6f573d6000803e3d6000fd5b505050506040513d601f19601f82011682018060405250810190610e9391906118a7565b90506000808273ffffffffffffffffffffffffffffffffffffffff1663a6640e4c866040518263ffffffff1660e01b8152600401610ed19190611d3b565b60806040518083038186803b158015610ee957600080fd5b505afa158015610efd573d6000803e3d6000fd5b505050506040513d601f19601f82011682018060405250810190610f2191906119ee565b935093505050610f2f61056d565b8211158015610f3c575080155b610f7b576040517f08c379a0000000000000000000000000000000000000000000000000000000008152600401610f7290611cfb565b60405180910390fd5b6000808573ffffffffffffffffffffffffffffffffffffffff1663e343409a886040518263ffffffff1660e01b8152600401610fb79190611d3b565b604080518083038186803b158015610fce57600080fd5b505afa158015610fe2573d6000803e3d6000fd5b505050506040513d601f19601f820116820180604052508101906110069190611914565b915091508161107f578473ffffffffffffffffffffffffffffffffffffffff16637ef966e4886040518263ffffffff1660e01b81526004016110489190611d3b565b600060405180830381600087803b15801561106257600080fd5b505af1158015611076573d6000803e3d6000fd5b50505050611161565b806110f4578473ffffffffffffffffffffffffffffffffffffffff1663f40507ac886040518263ffffffff1660e01b81526004016110bd9190611d3b565b600060405180830381600087803b1580156110d757600080fd5b505af11580156110eb573d6000803e3d6000fd5b50505050611160565b8473ffffffffffffffffffffffffffffffffffffffff1663cd39ebfd886040518263ffffffff1660e01b815260040161112d9190611d3b565b600060405180830381600087803b15801561114757600080fd5b505af115801561115b573d6000803e3d6000fd5b505050505b5b50505050505050565b6000807f000000000000000000000000000000000000000000000000000000000000000073ffffffffffffffffffffffffffffffffffffffff1663624a23e07f36209a57dfd79e3872ec3a0c88c653bbe7e32a12306e5e1f92f118c1936ae8b26040518263ffffffff1660e01b81526004016111e69190611c25565b60206040518083038186803b1580156111fe57600080fd5b505afa158015611212573d6000803e3d6000fd5b505050506040513d601f19601f8201168201806040525081019061123691906118a7565b905060008173ffffffffffffffffffffffffffffffffffffffff16639e34fa6a856040518263ffffffff1660e01b81526004016112739190611c25565b60206040518083038186803b15801561128b57600080fd5b505afa15801561129f573d6000803e3d6000fd5b505050506040513d601f19601f820116820180604052508101906112c39190611a82565b905060008114156112d9576000925050506113cf565b60008060008473ffffffffffffffffffffffffffffffffffffffff1663a6640e4c856040518263ffffffff1660e01b81526004016113179190611d3b565b60806040518083038186803b15801561132f57600080fd5b505afa158015611343573d6000803e3d6000fd5b505050506040513d601f19601f8201168201806040525081019061136791906119ee565b935093505092506003600681111561138257611381611def565b5b83600681111561139557611394611def565b5b1480156113a857506113a561056d565b82105b80156113b2575080155b156113c5576001955050505050506113cf565b6000955050505050505b919050565b7f000000000000000000000000000000000000000000000000000000000000000081565b60007f000000000000000000000000000000000000000000000000000000000000000073ffffffffffffffffffffffffffffffffffffffff1663624a23e07f36209a57dfd79e3872ec3a0c88c653bbe7e32a12306e5e1f92f118c1936ae8b26040518263ffffffff1660e01b81526004016114739190611c25565b60206040518083038186803b15801561148b57600080fd5b505afa15801561149f573d6000803e3d6000fd5b505050506040513d601f19601f820116820180604052508101906114c391906118a7565b905060007f000000000000000000000000000000000000000000000000000000000000000073ffffffffffffffffffffffffffffffffffffffff1663624a23e07f346b2ab3a980432fd8f2e24828fc9f9ee2df1548701bc542f6ec17882b3276276040518263ffffffff1660e01b81526004016115409190611c25565b60206040518083038186803b15801561155857600080fd5b505afa15801561156c573d6000803e3d6000fd5b505050506040513d601f19601f8201168201806040525081019061159091906118a7565b90506000806000808573ffffffffffffffffffffffffffffffffffffffff1663a6640e4c886040518263ffffffff1660e01b81526004016115d19190611d3b565b60806040518083038186803b1580156115e957600080fd5b505afa1580156115fd573d6000803e3d6000fd5b505050506040513d601f19601f8201168201806040525081019061162191906119ee565b93509350935093508473ffffffffffffffffffffffffffffffffffffffff163373ffffffffffffffffffffffffffffffffffffffff1614611697576040517f08c379a000000000000000000000000000000000000000000000000000000000815260040161168e90611c9b565b60405180910390fd5b600160068111156116ab576116aa611def565b5b8460068111156116be576116bd611def565b5b14806116ee5750600260068111156116d9576116d8611def565b5b8460068111156116ec576116eb611def565b5b145b801561170157506116fd61056d565b8311155b8015611714575061171061056d565b8210155b801561171e575080155b61175d576040517f08c379a000000000000000000000000000000000000000000000000000000000815260040161175490611cbb565b60405180910390fd5b6001600681111561177157611770611def565b5b84600681111561178457611783611def565b5b14156117f6578573ffffffffffffffffffffffffffffffffffffffff166377e4b811886040518263ffffffff1660e01b81526004016117c39190611d3b565b600060405180830381600087803b1580156117dd57600080fd5b505af11580156117f1573d6000803e3d6000fd5b505050505b50505050505050565b60008135905061180e81611f42565b92915050565b60008151905061182381611f42565b92915050565b60008151905061183881611f59565b92915050565b60008135905061184d81611f70565b92915050565b60008151905061186281611f70565b92915050565b60008151905061187781611f87565b92915050565b60008135905061188c81611f97565b92915050565b6000815190506118a181611f97565b92915050565b6000602082840312156118bd576118bc611e1e565b5b60006118cb84828501611814565b91505092915050565b600080604083850312156118eb576118ea611e1e565b5b60006118f9858286016117ff565b925050602061190a8582860161183e565b9150509250929050565b6000806040838503121561192b5761192a611e1e565b5b600061193985828601611829565b925050602061194a85828601611829565b9150509250929050565b60006020828403121561196a57611969611e1e565b5b60006119788482850161183e565b91505092915050565b60006020828403121561199757611996611e1e565b5b60006119a584828501611853565b91505092915050565b600080604083850312156119c5576119c4611e1e565b5b60006119d38582860161183e565b92505060206119e4858286016117ff565b9150509250929050565b60008060008060808587031215611a0857611a07611e1e565b5b6000611a1687828801611868565b9450506020611a2787828801611892565b9350506040611a3887828801611892565b9250506060611a4987828801611829565b91505092959194509250565b600060208284031215611a6b57611a6a611e1e565b5b6000611a798482850161187d565b91505092915050565b600060208284031215611a9857611a97611e1e565b5b6000611aa684828501611892565b91505092915050565b611ab881611d67565b82525050565b611ac781611d79565b82525050565b611ad681611d85565b82525050565b611ae581611db9565b82525050565b6000611af8601983611d56565b9150611b0382611e23565b602082019050919050565b6000611b1b601c83611d56565b9150611b2682611e4c565b602082019050919050565b6000611b3e601a83611d56565b9150611b4982611e75565b602082019050919050565b6000611b61601783611d56565b9150611b6c82611e9e565b602082019050919050565b6000611b84601583611d56565b9150611b8f82611ec7565b602082019050919050565b6000611ba7602083611d56565b9150611bb282611ef0565b602082019050919050565b6000611bca601b83611d56565b9150611bd582611f19565b602082019050919050565b611be981611daf565b82525050565b6000602082019050611c046000830184611aaf565b92915050565b6000602082019050611c1f6000830184611abe565b92915050565b6000602082019050611c3a6000830184611acd565b92915050565b6000602082019050611c556000830184611adc565b92915050565b60006020820190508181036000830152611c7481611aeb565b9050919050565b60006020820190508181036000830152611c9481611b0e565b9050919050565b60006020820190508181036000830152611cb481611b31565b9050919050565b60006020820190508181036000830152611cd481611b54565b9050919050565b60006020820190508181036000830152611cf481611b77565b9050919050565b60006020820190508181036000830152611d1481611b9a565b9050919050565b60006020820190508181036000830152611d3481611bbd565b9050919050565b6000602082019050611d506000830184611be0565b92915050565b600082825260208201905092915050565b6000611d7282611d8f565b9050919050565b60008115159050919050565b6000819050919050565b600073ffffffffffffffffffffffffffffffffffffffff82169050919050565b6000819050919050565b6000611dc482611dcb565b9050919050565b6000611dd682611ddd565b9050919050565b6000611de882611d8f565b9050919050565b7f4e487b7100000000000000000000000000000000000000000000000000000000600052602160045260246000fd5b600080fd5b7f436f6f72643a20657865206e6f742065786563757461626c6500000000000000600082015250565b7f53797374656d3a204f6e6c7920636f72652063616e206d6f6469667900000000600082015250565b7f436f6f72643a204f6e6c7920626f6f74682063616e2063616c6c000000000000600082015250565b7f436f6f72643a2070726f70206e6f7420766f7461626c65000000000000000000600082015250565b7f436f6f72643a204e6f206c696e6b65642070726f700000000000000000000000600082015250565b7f436f6f72643a20766f74696e6720616374697665206f72206578656375746564600082015250565b7f436f6f72643a20496e636f727265637420494420666f72207375620000000000600082015250565b611f4b81611d67565b8114611f5657600080fd5b50565b611f6281611d79565b8114611f6d57600080fd5b50565b611f7981611d85565b8114611f8457600080fd5b50565b60078110611f9457600080fd5b50565b611fa081611daf565b8114611fab57600080fd5b5056fea26469706673582212209dfa5bdf4ee939bdd38020dad2b4f8e7b958d70d4cbd41d6d1f0a3eefd6ec98e64736f6c6343000807003360c06040523480156200001157600080fd5b50604051620031743803806200317483398181016040528101906200003791906200013f565b7f59e2d72f5870ccddd14d35394bd3c22374071b2da7c07a3d6c3b690400b7362882828033600060026101000a81548173ffffffffffffffffffffffffffffffffffffffff021916908373ffffffffffffffffffffffffffffffffffffffff16021790555080600160006101000a81548173ffffffffffffffffffffffffffffffffffffffff021916908373ffffffffffffffffffffffffffffffffffffffff1602179055505082608081815250508173ffffffffffffffffffffffffffffffffffffffff1660a08173ffffffffffffffffffffffffffffffffffffffff1660601b815250505050505050620001d9565b6000815190506200013981620001bf565b92915050565b60008060408385031215620001595762000158620001ba565b5b6000620001698582860162000128565b92505060206200017c8582860162000128565b9150509250929050565b600062000193826200019a565b9050919050565b600073ffffffffffffffffffffffffffffffffffffffff82169050919050565b600080fd5b620001ca8162000186565b8114620001d657600080fd5b50565b60805160a05160601c612f6b62000209600039600081816108b001526116810152600061118e0152612f6b6000f3fe608060405234801561001057600080fd5b506004361061009e5760003560e01c806329cb924d1161006657806329cb924d1461016d5780633c9747f31461018b578063971aa75e146101a9578063e0751326146101db578063eaddd0fd1461020f5761009e565b80630ee476bc146100a3578063184b9ce5146100d35780631c39c38d1461010357806322f8e56614610121578063295adadf1461013d575b600080fd5b6100bd60048036038101906100b89190611fa0565b61022d565b6040516100ca91906126df565b60405180910390f35b6100ed60048036038101906100e89190611e83565b610266565b6040516100fa91906126df565b60405180910390f35b61010b610783565b60405161011891906125a8565b60405180910390f35b61013b600480360381019061013691906120a4565b6107a9565b005b610157600480360381019061015291906120fe565b610895565b60405161016491906126df565b60405180910390f35b610175611087565b6040516101829190612823565b60405180910390f35b61019361118c565b6040516101a091906126df565b60405180910390f35b6101c360048036038101906101be9190612077565b6111b0565b6040516101d2939291906125c3565b60405180910390f35b6101f560048036038101906101f09190612077565b6113a8565b60405161020695949392919061260f565b60405180910390f35b61021761167f565b6040516102249190612788565b60405180910390f35b600084848484604051602001610246949392919061267e565b604051602081830303815290604052805190602001209050949350505050565b6000888890508b8b90501480156102825750868690508b8b9050145b80156102935750848490508b8b9050145b6102d2576040517f08c379a00000000000000000000000000000000000000000000000000000000081526004016102c9906127e3565b60405180910390fd5b60008b8b905067ffffffffffffffff8111156102f1576102f0612dbf565b5b60405190808252806020026020018201604052801561032457816020015b606081526020019060019003908161030f5790505b50905060005b8c8c90508110156103e7578a8a8281811061034857610347612d90565b5b905060200281019061035a91906128a1565b60405161036892919061258f565b604051809103902089898381811061038357610382612d90565b5b9050602002810190610395919061283e565b6040516020016103a793929190612565565b6040516020818303038152906040528282815181106103c9576103c8612d90565b5b602002602001018190525080806103df90612cdf565b91505061032a565b506104ba8c8c80806020026020016040519081016040528093929190818152602001838360200280828437600081840152601f19601f82011690508083019250505050505050878780806020026020016040519081016040528093929190818152602001838360200280828437600081840152601f19601f820116905080830192505050505050508387878080601f016020809104026020016040519081016040528093929190818152602001838380828437600081840152601f19601f8201169050808301925050505050505061022d565b9150600073ffffffffffffffffffffffffffffffffffffffff166002600084815260200190815260200160002060040160009054906101000a900473ffffffffffffffffffffffffffffffffffffffff1673ffffffffffffffffffffffffffffffffffffffff1614610561576040517f08c379a000000000000000000000000000000000000000000000000000000000815260040161055890612803565b60405180910390fd5b6040518060a001604052808d8d80806020026020016040519081016040528093929190818152602001838360200280828437600081840152601f19601f820116905080830192505050505050508152602001878780806020026020016040519081016040528093929190818152602001838360200280828437600081840152601f19601f82011690508083019250505050505050815260200182815260200185858080601f016020809104026020016040519081016040528093929190818152602001838380828437600081840152601f19601f8201169050808301925050505050505081526020013373ffffffffffffffffffffffffffffffffffffffff168152506002600084815260200190815260200160002060008201518160000190805190602001906106939291906116a3565b5060208201518160010190805190602001906106b092919061172d565b5060408201518160020190805190602001906106cd92919061177a565b5060608201518160030190805190602001906106ea9291906117da565b5060808201518160040160006101000a81548173ffffffffffffffffffffffffffffffffffffffff021916908373ffffffffffffffffffffffffffffffffffffffff1602179055509050507f9efa23cf1a1ca9f8f84d1c5ab98b64e67b7eb5c0ec0cb0f02658ce7ec7d7ced3828d8d878760405161076c9594939291906126fa565b60405180910390a1509a9950505050505050505050565b600160009054906101000a900473ffffffffffffffffffffffffffffffffffffffff1681565b600073ffffffffffffffffffffffffffffffffffffffff16600160009054906101000a900473ffffffffffffffffffffffffffffffffffffffff1673ffffffffffffffffffffffffffffffffffffffff16141561080557600080fd5b600160009054906101000a900473ffffffffffffffffffffffffffffffffffffffff1673ffffffffffffffffffffffffffffffffffffffff166322f8e566826040518263ffffffff1660e01b81526004016108609190612823565b600060405180830381600087803b15801561087a57600080fd5b505af115801561088e573d6000803e3d6000fd5b5050505050565b60003373ffffffffffffffffffffffffffffffffffffffff167f000000000000000000000000000000000000000000000000000000000000000073ffffffffffffffffffffffffffffffffffffffff1663624a23e07f36209a57dfd79e3872ec3a0c88c653bbe7e32a12306e5e1f92f118c1936ae8b26040518263ffffffff1660e01b815260040161092791906126df565b60206040518083038186803b15801561093f57600080fd5b505afa158015610953573d6000803e3d6000fd5b505050506040513d601f19601f820116820180604052508101906109779190611e56565b73ffffffffffffffffffffffffffffffffffffffff16146109cd576040517f08c379a00000000000000000000000000000000000000000000000000000000081526004016109c4906127c3565b60405180910390fd5b600073ffffffffffffffffffffffffffffffffffffffff166002600085815260200190815260200160002060040160009054906101000a900473ffffffffffffffffffffffffffffffffffffffff1673ffffffffffffffffffffffffffffffffffffffff161415610a73576040517f08c379a0000000000000000000000000000000000000000000000000000000008152600401610a6a906127a3565b60405180910390fd5b610c6260026000858152602001908152602001600020600001805480602002602001604051908101604052809291908181526020018280548015610b0c57602002820191906000526020600020905b8160009054906101000a900473ffffffffffffffffffffffffffffffffffffffff1673ffffffffffffffffffffffffffffffffffffffff1681526020019060010190808311610ac2575b505050505060026000868152602001908152602001600020600101805480602002602001604051908101604052809291908181526020018280548015610b7157602002820191906000526020600020905b815481526020019060010190808311610b5d575b505050505060026000878152602001908152602001600020600201805480602002602001604051908101604052809291908181526020016000905b82821015610c58578382906000526020600020018054610bcb90612c62565b80601f0160208091040260200160405190810160405280929190818152602001828054610bf790612c62565b8015610c445780601f10610c1957610100808354040283529160200191610c44565b820191906000526020600020905b815481529060010190602001808311610c2757829003601f168201915b505050505081526020019060010190610bac565b505050508561022d565b9050600073ffffffffffffffffffffffffffffffffffffffff166002600083815260200190815260200160002060040160009054906101000a900473ffffffffffffffffffffffffffffffffffffffff1673ffffffffffffffffffffffffffffffffffffffff1614610d09576040517f08c379a0000000000000000000000000000000000000000000000000000000008152600401610d0090612803565b60405180910390fd5b6040518060a0016040528060026000868152602001908152602001600020600001805480602002602001604051908101604052809291908181526020018280548015610daa57602002820191906000526020600020905b8160009054906101000a900473ffffffffffffffffffffffffffffffffffffffff1673ffffffffffffffffffffffffffffffffffffffff1681526020019060010190808311610d60575b5050505050815260200160026000868152602001908152602001600020600101805480602002602001604051908101604052809291908181526020018280548015610e1457602002820191906000526020600020905b815481526020019060010190808311610e00575b5050505050815260200160026000868152602001908152602001600020600201805480602002602001604051908101604052809291908181526020016000905b82821015610f00578382906000526020600020018054610e7390612c62565b80601f0160208091040260200160405190810160405280929190818152602001828054610e9f90612c62565b8015610eec5780601f10610ec157610100808354040283529160200191610eec565b820191906000526020600020905b815481529060010190602001808311610ecf57829003601f168201915b505050505081526020019060010190610e54565b5050505081526020018381526020016002600086815260200190815260200160002060040160009054906101000a900473ffffffffffffffffffffffffffffffffffffffff1673ffffffffffffffffffffffffffffffffffffffff16815250600260008381526020019081526020016000206000820151816000019080519060200190610f8e9291906116a3565b506020820151816001019080519060200190610fab92919061172d565b506040820151816002019080519060200190610fc892919061177a565b506060820151816003019080519060200190610fe59291906117da565b5060808201518160040160006101000a81548173ffffffffffffffffffffffffffffffffffffffff021916908373ffffffffffffffffffffffffffffffffffffffff1602179055509050507f9efa23cf1a1ca9f8f84d1c5ab98b64e67b7eb5c0ec0cb0f02658ce7ec7d7ced381600260008681526020019081526020016000206000018460405161107893929190612743565b60405180910390a19392505050565b60008073ffffffffffffffffffffffffffffffffffffffff16600160009054906101000a900473ffffffffffffffffffffffffffffffffffffffff1673ffffffffffffffffffffffffffffffffffffffff161461118557600160009054906101000a900473ffffffffffffffffffffffffffffffffffffffff1673ffffffffffffffffffffffffffffffffffffffff166329cb924d6040518163ffffffff1660e01b815260040160206040518083038186803b15801561114657600080fd5b505afa15801561115a573d6000803e3d6000fd5b505050506040513d601f19601f8201168201806040525081019061117e91906120d1565b9050611189565b4290505b90565b7f000000000000000000000000000000000000000000000000000000000000000081565b60608060606002600085815260200190815260200160002060000180548060200260200160405190810160405280929190818152602001828054801561124b57602002820191906000526020600020905b8160009054906101000a900473ffffffffffffffffffffffffffffffffffffffff1673ffffffffffffffffffffffffffffffffffffffff1681526020019060010190808311611201575b5050505050925060026000858152602001908152602001600020600201805480602002602001604051908101604052809291908181526020016000905b828210156113345783829060005260206000200180546112a790612c62565b80601f01602080910402602001604051908101604052809291908181526020018280546112d390612c62565b80156113205780601f106112f557610100808354040283529160200191611320565b820191906000526020600020905b81548152906001019060200180831161130357829003601f168201915b505050505081526020019060010190611288565b5050505091506002600085815260200190815260200160002060010180548060200260200160405190810160405280929190818152602001828054801561139a57602002820191906000526020600020905b815481526020019060010190808311611386575b505050505090509193909250565b60608060608060006002600087815260200190815260200160002060000180548060200260200160405190810160405280929190818152602001828054801561144657602002820191906000526020600020905b8160009054906101000a900473ffffffffffffffffffffffffffffffffffffffff1673ffffffffffffffffffffffffffffffffffffffff16815260200190600101908083116113fc575b5050505050945060026000878152602001908152602001600020600201805480602002602001604051908101604052809291908181526020016000905b8282101561152f5783829060005260206000200180546114a290612c62565b80601f01602080910402602001604051908101604052809291908181526020018280546114ce90612c62565b801561151b5780601f106114f05761010080835404028352916020019161151b565b820191906000526020600020905b8154815290600101906020018083116114fe57829003601f168201915b505050505081526020019060010190611483565b5050505093506002600087815260200190815260200160002060010180548060200260200160405190810160405280929190818152602001828054801561159557602002820191906000526020600020905b815481526020019060010190808311611581575b505050505092506002600087815260200190815260200160002060030180546115bd90612c62565b80601f01602080910402602001604051908101604052809291908181526020018280546115e990612c62565b80156116365780601f1061160b57610100808354040283529160200191611636565b820191906000526020600020905b81548152906001019060200180831161161957829003601f168201915b505050505091506002600087815260200190815260200160002060040160009054906101000a900473ffffffffffffffffffffffffffffffffffffffff16905091939590929450565b7f000000000000000000000000000000000000000000000000000000000000000081565b82805482825590600052602060002090810192821561171c579160200282015b8281111561171b5782518260006101000a81548173ffffffffffffffffffffffffffffffffffffffff021916908373ffffffffffffffffffffffffffffffffffffffff160217905550916020019190600101906116c3565b5b5090506117299190611860565b5090565b828054828255906000526020600020908101928215611769579160200282015b8281111561176857825182559160200191906001019061174d565b5b5090506117769190611860565b5090565b8280548282559060005260206000209081019282156117c9579160200282015b828111156117c85782518290805190602001906117b892919061187d565b509160200191906001019061179a565b5b5090506117d69190611903565b5090565b8280546117e690612c62565b90600052602060002090601f016020900481019282611808576000855561184f565b82601f1061182157805160ff191683800117855561184f565b8280016001018555821561184f579182015b8281111561184e578251825591602001919060010190611833565b5b50905061185c9190611860565b5090565b5b80821115611879576000816000905550600101611861565b5090565b82805461188990612c62565b90600052602060002090601f0160209004810192826118ab57600085556118f2565b82601f106118c457805160ff19168380011785556118f2565b828001600101855582156118f2579182015b828111156118f15782518255916020019190600101906118d6565b5b5090506118ff9190611860565b5090565b5b80821115611923576000818161191a9190611927565b50600101611904565b5090565b50805461193390612c62565b6000825580601f106119455750611964565b601f0160209004906000526020600020908101906119639190611860565b5b50565b600061197a61197584612929565b612904565b9050808382526020820190508285602086028201111561199d5761199c612e15565b5b60005b858110156119cd57816119b38882611b59565b8452602084019350602083019250506001810190506119a0565b5050509392505050565b60006119ea6119e584612955565b612904565b90508083825260208201905082856020860282011115611a0d57611a0c612e15565b5b60005b85811015611a5b57813567ffffffffffffffff811115611a3357611a32612e06565b5b808601611a408982611d7a565b85526020850194506020840193505050600181019050611a10565b5050509392505050565b6000611a78611a7384612981565b612904565b90508083825260208201905082856020860282011115611a9b57611a9a612e15565b5b60005b85811015611acb5781611ab18882611e2c565b845260208401935060208301925050600181019050611a9e565b5050509392505050565b6000611ae8611ae3846129ad565b612904565b905082815260208101848484011115611b0457611b03612e1f565b5b611b0f848285612c20565b509392505050565b6000611b2a611b25846129de565b612904565b905082815260208101848484011115611b4657611b45612e1f565b5b611b51848285612c20565b509392505050565b600081359050611b6881612ef0565b92915050565b600081519050611b7d81612ef0565b92915050565b60008083601f840112611b9957611b98612e06565b5b8235905067ffffffffffffffff811115611bb657611bb5612e01565b5b602083019150836020820283011115611bd257611bd1612e15565b5b9250929050565b600082601f830112611bee57611bed612e06565b5b8135611bfe848260208601611967565b91505092915050565b60008083601f840112611c1d57611c1c612e06565b5b8235905067ffffffffffffffff811115611c3a57611c39612e01565b5b602083019150836020820283011115611c5657611c55612e15565b5b9250929050565b600082601f830112611c7257611c71612e06565b5b8135611c828482602086016119d7565b91505092915050565b60008083601f840112611ca157611ca0612e06565b5b8235905067ffffffffffffffff811115611cbe57611cbd612e01565b5b602083019150836020820283011115611cda57611cd9612e15565b5b9250929050565b60008083601f840112611cf757611cf6612e06565b5b8235905067ffffffffffffffff811115611d1457611d13612e01565b5b602083019150836020820283011115611d3057611d2f612e15565b5b9250929050565b600082601f830112611d4c57611d4b612e06565b5b8135611d5c848260208601611a65565b91505092915050565b600081359050611d7481612f07565b92915050565b600082601f830112611d8f57611d8e612e06565b5b8135611d9f848260208601611ad5565b91505092915050565b60008083601f840112611dbe57611dbd612e06565b5b8235905067ffffffffffffffff811115611ddb57611dda612e01565b5b602083019150836001820283011115611df757611df6612e15565b5b9250929050565b600082601f830112611e1357611e12612e06565b5b8135611e23848260208601611b17565b91505092915050565b600081359050611e3b81612f1e565b92915050565b600081519050611e5081612f1e565b92915050565b600060208284031215611e6c57611e6b612e29565b5b6000611e7a84828501611b6e565b91505092915050565b60008060008060008060008060008060a08b8d031215611ea657611ea5612e29565b5b60008b013567ffffffffffffffff811115611ec457611ec3612e24565b5b611ed08d828e01611b83565b9a509a505060208b013567ffffffffffffffff811115611ef357611ef2612e24565b5b611eff8d828e01611c8b565b985098505060408b013567ffffffffffffffff811115611f2257611f21612e24565b5b611f2e8d828e01611c07565b965096505060608b013567ffffffffffffffff811115611f5157611f50612e24565b5b611f5d8d828e01611ce1565b945094505060808b013567ffffffffffffffff811115611f8057611f7f612e24565b5b611f8c8d828e01611da8565b92509250509295989b9194979a5092959850565b60008060008060808587031215611fba57611fb9612e29565b5b600085013567ffffffffffffffff811115611fd857611fd7612e24565b5b611fe487828801611bd9565b945050602085013567ffffffffffffffff81111561200557612004612e24565b5b61201187828801611d37565b935050604085013567ffffffffffffffff81111561203257612031612e24565b5b61203e87828801611c5d565b925050606085013567ffffffffffffffff81111561205f5761205e612e24565b5b61206b87828801611dfe565b91505092959194509250565b60006020828403121561208d5761208c612e29565b5b600061209b84828501611d65565b91505092915050565b6000602082840312156120ba576120b9612e29565b5b60006120c884828501611e2c565b91505092915050565b6000602082840312156120e7576120e6612e29565b5b60006120f584828501611e41565b91505092915050565b60008060006060848603121561211757612116612e29565b5b600061212586828701611e2c565b935050602061213686828701611d65565b925050604084013567ffffffffffffffff81111561215757612156612e24565b5b61216386828701611dfe565b9150509250925092565b600061217983836121b1565b60208301905092915050565b6000612191838361240d565b905092915050565b60006121a58383612547565b60208301905092915050565b6121ba81612b78565b82525050565b6121c981612b78565b82525050565b60006121db8385612ae1565b93506121e682612a0f565b8060005b8581101561221f576121fc8284612b41565b612206888261216d565b975061221183612aa0565b9250506001810190506121ea565b5085925050509392505050565b600061223782612a5e565b6122418185612ae1565b935061224c83612a19565b8060005b8381101561227d578151612264888261216d565b975061226f83612aad565b925050600181019050612250565b5085935050505092915050565b600061229582612a69565b61229f8185612ae1565b93506122aa83612a29565b8060005b838110156122e2576122bf82612dee565b6122c9888261216d565b97506122d483612aba565b9250506001810190506122ae565b5085935050505092915050565b60006122fa82612a74565b6123048185612af2565b93508360208202850161231685612a3e565b8060005b8581101561235257848403895281516123338582612185565b945061233e83612ac7565b925060208a0199505060018101905061231a565b50829750879550505050505092915050565b600061236f82612a7f565b6123798185612b03565b935061238483612a4e565b8060005b838110156123b557815161239c8882612199565b97506123a783612ad4565b925050600181019050612388565b5085935050505092915050565b6123cb81612b8a565b82525050565b6123e26123dd82612b94565b612d28565b82525050565b60006123f48385612b25565b9350612401838584612c20565b82840190509392505050565b600061241882612a8a565b6124228185612b14565b9350612432818560208601612c2f565b61243b81612e2e565b840191505092915050565b61244f81612bea565b82525050565b60006124618385612b30565b935061246e838584612c20565b61247783612e2e565b840190509392505050565b600061248d82612a95565b6124978185612b30565b93506124a7818560208601612c2f565b6124b081612e2e565b840191505092915050565b60006124c8601783612b30565b91506124d382612e4c565b602082019050919050565b60006124eb601783612b30565b91506124f682612e75565b602082019050919050565b600061250e601a83612b30565b915061251982612e9e565b602082019050919050565b6000612531601a83612b30565b915061253c82612ec7565b602082019050919050565b61255081612be0565b82525050565b61255f81612be0565b82525050565b600061257182866123d1565b6004820191506125828284866123e8565b9150819050949350505050565b600061259c8284866123e8565b91508190509392505050565b60006020820190506125bd60008301846121c0565b92915050565b600060608201905081810360008301526125dd818661222c565b905081810360208301526125f181856122ef565b905081810360408301526126058184612364565b9050949350505050565b600060a0820190508181036000830152612629818861222c565b9050818103602083015261263d81876122ef565b905081810360408301526126518186612364565b905081810360608301526126658185612482565b905061267460808301846121c0565b9695505050505050565b60006080820190508181036000830152612698818761222c565b905081810360208301526126ac8186612364565b905081810360408301526126c081856122ef565b905081810360608301526126d48184612482565b905095945050505050565b60006020820190506126f460008301846123c2565b92915050565b600060608201905061270f60008301886123c2565b81810360208301526127228186886121cf565b90508181036040830152612737818486612455565b90509695505050505050565b600060608201905061275860008301866123c2565b818103602083015261276a818561228a565b9050818103604083015261277e8184612482565b9050949350505050565b600060208201905061279d6000830184612446565b92915050565b600060208201905081810360008301526127bc816124bb565b9050919050565b600060208201905081810360008301526127dc816124de565b9050919050565b600060208201905081810360008301526127fc81612501565b9050919050565b6000602082019050818103600083015261281c81612524565b9050919050565b60006020820190506128386000830184612556565b92915050565b6000808335600160200384360303811261285b5761285a612e10565b5b80840192508235915067ffffffffffffffff82111561287d5761287c612e0b565b5b60208301925060018202360383131561289957612898612e1a565b5b509250929050565b600080833560016020038436030381126128be576128bd612e10565b5b80840192508235915067ffffffffffffffff8211156128e0576128df612e0b565b5b6020830192506001820236038313156128fc576128fb612e1a565b5b509250929050565b600061290e61291f565b905061291a8282612cae565b919050565b6000604051905090565b600067ffffffffffffffff82111561294457612943612dbf565b5b602082029050602081019050919050565b600067ffffffffffffffff8211156129705761296f612dbf565b5b602082029050602081019050919050565b600067ffffffffffffffff82111561299c5761299b612dbf565b5b602082029050602081019050919050565b600067ffffffffffffffff8211156129c8576129c7612dbf565b5b6129d182612e2e565b9050602081019050919050565b600067ffffffffffffffff8211156129f9576129f8612dbf565b5b612a0282612e2e565b9050602081019050919050565b6000819050919050565b6000819050602082019050919050565b60008190508160005260206000209050919050565b6000819050602082019050919050565b6000819050602082019050919050565b600081519050919050565b600081549050919050565b600081519050919050565b600081519050919050565b600081519050919050565b600081519050919050565b6000602082019050919050565b6000602082019050919050565b6000600182019050919050565b6000602082019050919050565b6000602082019050919050565b600082825260208201905092915050565b600082825260208201905092915050565b600082825260208201905092915050565b600082825260208201905092915050565b600081905092915050565b600082825260208201905092915050565b6000612b506020840184611b59565b905092915050565b600073ffffffffffffffffffffffffffffffffffffffff82169050919050565b6000612b8382612bc0565b9050919050565b6000819050919050565b60007fffffffff0000000000000000000000000000000000000000000000000000000082169050919050565b600073ffffffffffffffffffffffffffffffffffffffff82169050919050565b6000819050919050565b6000612bf582612bfc565b9050919050565b6000612c0782612c0e565b9050919050565b6000612c1982612bc0565b9050919050565b82818337600083830152505050565b60005b83811015612c4d578082015181840152602081019050612c32565b83811115612c5c576000848401525b50505050565b60006002820490506001821680612c7a57607f821691505b60208210811415612c8e57612c8d612d61565b5b50919050565b6000612ca7612ca283612e3f565b612b58565b9050919050565b612cb782612e2e565b810181811067ffffffffffffffff82111715612cd657612cd5612dbf565b5b80604052505050565b6000612cea82612be0565b91507fffffffffffffffffffffffffffffffffffffffffffffffffffffffffffffffff821415612d1d57612d1c612d32565b5b600182019050919050565b6000819050919050565b7f4e487b7100000000000000000000000000000000000000000000000000000000600052601160045260246000fd5b7f4e487b7100000000000000000000000000000000000000000000000000000000600052602260045260246000fd5b7f4e487b7100000000000000000000000000000000000000000000000000000000600052603260045260246000fd5b7f4e487b7100000000000000000000000000000000000000000000000000000000600052604160045260246000fd5b6000612dfa8254612c94565b9050919050565b600080fd5b600080fd5b600080fd5b600080fd5b600080fd5b600080fd5b600080fd5b600080fd5b600080fd5b6000601f19601f8301169050919050565b60008160001c9050919050565b7f4578653a2045786520646f6573206e6f74206578697374000000000000000000600082015250565b7f4578653a204f6e6c792070726f702063616e2063616c6c000000000000000000600082015250565b7f4578653a204172726179206c656e677468206d69736d61746368000000000000600082015250565b7f4578653a2045786520494420616c726561647920696e20757365000000000000600082015250565b612ef981612b78565b8114612f0457600080fd5b50565b612f1081612b8a565b8114612f1b57600080fd5b50565b612f2781612be0565b8114612f3257600080fd5b5056fea26469706673582212205b01085c844a28f6ea3024996c72ffed9410415e1730f5d4471aa8e059051cae64736f6c6343000807003360c06040523480156200001157600080fd5b5060405162002d6d38038062002d6d83398181016040528101906200003791906200013f565b7f36209a57dfd79e3872ec3a0c88c653bbe7e32a12306e5e1f92f118c1936ae8b282828033600060026101000a81548173ffffffffffffffffffffffffffffffffffffffff021916908373ffffffffffffffffffffffffffffffffffffffff16021790555080600160006101000a81548173ffffffffffffffffffffffffffffffffffffffff021916908373ffffffffffffffffffffffffffffffffffffffff1602179055505082608081815250508173ffffffffffffffffffffffffffffffffffffffff1660a08173ffffffffffffffffffffffffffffffffffffffff1660601b815250505050505050620001d9565b6000815190506200013981620001bf565b92915050565b60008060408385031215620001595762000158620001ba565b5b6000620001698582860162000128565b92505060206200017c8582860162000128565b9150509250929050565b600062000193826200019a565b9050919050565b600073ffffffffffffffffffffffffffffffffffffffff82169050919050565b600080fd5b620001ca8162000186565b8114620001d657600080fd5b50565b60805160a05160601c612b25620002486000396000818161063f015281816107540152818161095c01528181610a2901528181610b310152818161104b0152818161128001528181611619015281816119da01528181611be00152611c060152600061061b0152612b256000f3fe608060405234801561001057600080fd5b50600436106101205760003560e01c80637ef966e4116100ad578063b7abd80311610071578063b7abd8031461031a578063bc903cb814610336578063cd39ebfd1461036c578063eaddd0fd14610388578063f40507ac146103a657610120565b80637ef966e4146102635780638a99d5861461027f5780639e34fa6a1461029b578063a3e99958146102cb578063a6640e4c146102e757610120565b80633c9747f3116100f45780633c9747f3146101ad5780636aef4909146101cb5780636fad1c93146101e757806377e4b8111461021757806378cbf7e61461023357610120565b806262104a146101255780631c39c38d1461015557806322f8e5661461017357806329cb924d1461018f575b600080fd5b61013f600480360381019061013a9190612096565b6103c2565b60405161014c91906123df565b60405180910390f35b61015d610402565b60405161016a91906123df565b60405180910390f35b61018d60048036038101906101889190612096565b610428565b005b610197610514565b6040516101a49190612654565b60405180910390f35b6101b5610619565b6040516101c29190612423565b60405180910390f35b6101e560048036038101906101e091906120f0565b61063d565b005b61020160048036038101906101fc9190612096565b610730565b60405161020e9190612423565b60405180910390f35b610231600480360381019061022c9190612096565b610750565b005b61024d60048036038101906102489190612022565b610957565b60405161025a9190612654565b60405180910390f35b61027d60048036038101906102789190612096565b611047565b005b61029960048036038101906102949190612096565b61127e565b005b6102b560048036038101906102b09190611fc8565b611359565b6040516102c29190612654565b60405180910390f35b6102e560048036038101906102e09190612130565b611376565b005b61030160048036038101906102fc9190612096565b61158a565b6040516103119493929190612459565b60405180910390f35b610334600480360381019061032f9190612096565b611615565b005b610350600480360381019061034b9190612096565b61184c565b604051610363979695949392919061249e565b60405180910390f35b61038660048036038101906103819190612096565b6119d6565b005b610390611bde565b60405161039d919061243e565b60405180910390f35b6103c060048036038101906103bb9190612096565b611c02565b005b60006002600083815260200190815260200160002060010160009054906101000a900473ffffffffffffffffffffffffffffffffffffffff169050919050565b600160009054906101000a900473ffffffffffffffffffffffffffffffffffffffff1681565b600073ffffffffffffffffffffffffffffffffffffffff16600160009054906101000a900473ffffffffffffffffffffffffffffffffffffffff1673ffffffffffffffffffffffffffffffffffffffff16141561048457600080fd5b600160009054906101000a900473ffffffffffffffffffffffffffffffffffffffff1673ffffffffffffffffffffffffffffffffffffffff166322f8e566826040518263ffffffff1660e01b81526004016104df9190612654565b600060405180830381600087803b1580156104f957600080fd5b505af115801561050d573d6000803e3d6000fd5b5050505050565b60008073ffffffffffffffffffffffffffffffffffffffff16600160009054906101000a900473ffffffffffffffffffffffffffffffffffffffff1673ffffffffffffffffffffffffffffffffffffffff161461061257600160009054906101000a900473ffffffffffffffffffffffffffffffffffffffff1673ffffffffffffffffffffffffffffffffffffffff166329cb924d6040518163ffffffff1660e01b815260040160206040518083038186803b1580156105d357600080fd5b505afa1580156105e7573d6000803e3d6000fd5b505050506040513d601f19601f8201168201806040525081019061060b91906120c3565b9050610616565b4290505b90565b7f000000000000000000000000000000000000000000000000000000000000000081565b7f000000000000000000000000000000000000000000000000000000000000000073ffffffffffffffffffffffffffffffffffffffff163373ffffffffffffffffffffffffffffffffffffffff16146106cb576040517f08c379a00000000000000000000000000000000000000000000000000000000081526004016106c290612534565b60405180910390fd5b60075482101580156106df57506007548110155b61071e576040517f08c379a000000000000000000000000000000000000000000000000000000000815260040161071590612594565b60405180910390fd5b81600581905550806006819055505050565b600060026000838152602001908152602001600020600201549050919050565b60007f000000000000000000000000000000000000000000000000000000000000000073ffffffffffffffffffffffffffffffffffffffff1663624a23e07fd578563424ab02f85ec03c6b1aee04947ebdd4a30db46cba3bcd7f56ef40b1996040518263ffffffff1660e01b81526004016107cb9190612423565b60206040518083038186803b1580156107e357600080fd5b505afa1580156107f7573d6000803e3d6000fd5b505050506040513d601f19601f8201168201806040525081019061081b9190611f9b565b90508073ffffffffffffffffffffffffffffffffffffffff163373ffffffffffffffffffffffffffffffffffffffff161461088b576040517f08c379a000000000000000000000000000000000000000000000000000000000815260040161088290612554565b60405180910390fd5b6001600681111561089f5761089e612874565b5b6002600084815260200190815260200160002060030160009054906101000a900460ff1660068111156108d5576108d4612874565b5b14610915576040517f08c379a000000000000000000000000000000000000000000000000000000000815260040161090c90612614565b60405180910390fd5b600280600084815260200190815260200160002060030160006101000a81548160ff0219169083600681111561094e5761094d612874565b5b02179055505050565b6000807f000000000000000000000000000000000000000000000000000000000000000073ffffffffffffffffffffffffffffffffffffffff1663624a23e07f59e2d72f5870ccddd14d35394bd3c22374071b2da7c07a3d6c3b690400b736286040518263ffffffff1660e01b81526004016109d39190612423565b60206040518083038186803b1580156109eb57600080fd5b505afa1580156109ff573d6000803e3d6000fd5b505050506040513d601f19601f82011682018060405250810190610a239190611f9b565b905060007f000000000000000000000000000000000000000000000000000000000000000073ffffffffffffffffffffffffffffffffffffffff1663624a23e07fd578563424ab02f85ec03c6b1aee04947ebdd4a30db46cba3bcd7f56ef40b1996040518263ffffffff1660e01b8152600401610aa09190612423565b60206040518083038186803b158015610ab857600080fd5b505afa158015610acc573d6000803e3d6000fd5b505050506040513d601f19601f82011682018060405250810190610af09190611f9b565b9050600160046000828254610b0591906126c9565b92505081905550600454925060008173ffffffffffffffffffffffffffffffffffffffff1663701370dc7f000000000000000000000000000000000000000000000000000000000000000073ffffffffffffffffffffffffffffffffffffffff1663624a23e07f346b2ab3a980432fd8f2e24828fc9f9ee2df1548701bc542f6ec17882b3276276040518263ffffffff1660e01b8152600401610ba89190612423565b60206040518083038186803b158015610bc057600080fd5b505afa158015610bd4573d6000803e3d6000fd5b505050506040513d601f19601f82011682018060405250810190610bf89190611f9b565b886040518363ffffffff1660e01b8152600401610c169291906123fa565b60206040518083038186803b158015610c2e57600080fd5b505afa158015610c42573d6000803e3d6000fd5b505050506040513d601f19601f82011682018060405250810190610c669190611f9b565b9050600073ffffffffffffffffffffffffffffffffffffffff168173ffffffffffffffffffffffffffffffffffffffff161415610cd8576040517f08c379a0000000000000000000000000000000000000000000000000000000008152600401610ccf90612634565b60405180910390fd5b60008486610ce4610514565b604051602001610cf6939291906123a2565b604051602081830303815290604052905060008473ffffffffffffffffffffffffffffffffffffffff1663295adadf8789856040518463ffffffff1660e01b8152600401610d469392919061266f565b602060405180830381600087803b158015610d6057600080fd5b505af1158015610d74573d6000803e3d6000fd5b505050506040513d601f19601f82011682018060405250810190610d989190611ff5565b90506000801b811415610de0576040517f08c379a0000000000000000000000000000000000000000000000000000000008152600401610dd7906125d4565b60405180910390fd5b6000600360008381526020019081526020016000205414610e36576040517f08c379a0000000000000000000000000000000000000000000000000000000008152600401610e2d906125b4565b60405180910390fd5b6000600554610e43610514565b610e4d91906126c9565b90506040518060e001604052808c8c8080601f016020809104026020016040519081016040528093929190818152602001838380828437600081840152601f19601f8201169050808301925050505050505081526020018573ffffffffffffffffffffffffffffffffffffffff16815260200183815260200160016006811115610eda57610ed9612874565b5b815260200182815260200160065483610ef391906126c9565b815260200160001515815250600260008981526020019081526020016000206000820151816000019080519060200190610f2e929190611e39565b5060208201518160010160006101000a81548173ffffffffffffffffffffffffffffffffffffffff021916908373ffffffffffffffffffffffffffffffffffffffff1602179055506040820151816002015560608201518160030160006101000a81548160ff02191690836006811115610fab57610faa612874565b5b02179055506080820151816004015560a0820151816005015560c08201518160060160006101000a81548160ff021916908315150217905550905050866003600084815260200190815260200160002081905550867f782ad24bfb2592c2db8ec384bf93db57c8c631ca93227f9419c9d185d4de793d85846040516110319291906123fa565b60405180910390a2505050505050949350505050565b60007f000000000000000000000000000000000000000000000000000000000000000073ffffffffffffffffffffffffffffffffffffffff1663624a23e07fd578563424ab02f85ec03c6b1aee04947ebdd4a30db46cba3bcd7f56ef40b1996040518263ffffffff1660e01b81526004016110c29190612423565b60206040518083038186803b1580156110da57600080fd5b505afa1580156110ee573d6000803e3d6000fd5b505050506040513d601f19601f820116820180604052508101906111129190611f9b565b90508073ffffffffffffffffffffffffffffffffffffffff163373ffffffffffffffffffffffffffffffffffffffff1614611182576040517f08c379a000000000000000000000000000000000000000000000000000000000815260040161117990612554565b60405180910390fd5b6002600681111561119657611195612874565b5b6002600084815260200190815260200160002060030160009054906101000a900460ff1660068111156111cc576111cb612874565b5b1461120c576040517f08c379a000000000000000000000000000000000000000000000000000000000815260040161120390612614565b60405180910390fd5b60056002600084815260200190815260200160002060030160006101000a81548160ff0219169083600681111561124657611245612874565b5b021790555060016002600084815260200190815260200160002060060160006101000a81548160ff0219169083151502179055505050565b7f000000000000000000000000000000000000000000000000000000000000000073ffffffffffffffffffffffffffffffffffffffff163373ffffffffffffffffffffffffffffffffffffffff161461130c576040517f08c379a000000000000000000000000000000000000000000000000000000000815260040161130390612534565b60405180910390fd5b600f811161134f576040517f08c379a0000000000000000000000000000000000000000000000000000000008152600401611346906125f4565b60405180910390fd5b8060078190555050565b600060036000838152602001908152602001600020549050919050565b600060019054906101000a900460ff168061139c575060008054906101000a900460ff16155b6113db576040517f08c379a00000000000000000000000000000000000000000000000000000000081526004016113d290612574565b60405180910390fd5b600060029054906101000a900473ffffffffffffffffffffffffffffffffffffffff1673ffffffffffffffffffffffffffffffffffffffff163373ffffffffffffffffffffffffffffffffffffffff161461146b576040517f08c379a000000000000000000000000000000000000000000000000000000000815260040161146290612514565b60405180910390fd5b60008060019054906101000a900460ff1615905080156114bb576001600060016101000a81548160ff02191690831515021790555060016000806101000a81548160ff0219169083151502179055505b600f8410156114ff576040517f08c379a00000000000000000000000000000000000000000000000000000000081526004016114f6906125f4565b60405180910390fd5b83831015801561150f5750838210155b61154e576040517f08c379a000000000000000000000000000000000000000000000000000000000815260040161154590612594565b60405180910390fd5b83600781905550826005819055508160068190555080156115845760008060016101000a81548160ff0219169083151502179055505b50505050565b6000806000806002600086815260200190815260200160002060030160009054906101000a900460ff16600260008781526020019081526020016000206004015460026000888152602001908152602001600020600501546002600089815260200190815260200160002060060160009054906101000a900460ff1693509350935093509193509193565b60007f000000000000000000000000000000000000000000000000000000000000000073ffffffffffffffffffffffffffffffffffffffff1663624a23e07fd578563424ab02f85ec03c6b1aee04947ebdd4a30db46cba3bcd7f56ef40b1996040518263ffffffff1660e01b81526004016116909190612423565b60206040518083038186803b1580156116a857600080fd5b505afa1580156116bc573d6000803e3d6000fd5b505050506040513d601f19601f820116820180604052508101906116e09190611f9b565b90508073ffffffffffffffffffffffffffffffffffffffff163373ffffffffffffffffffffffffffffffffffffffff1614611750576040517f08c379a000000000000000000000000000000000000000000000000000000000815260040161174790612554565b60405180910390fd5b6003600681111561176457611763612874565b5b6002600084815260200190815260200160002060030160009054906101000a900460ff16600681111561179a57611799612874565b5b146117da576040517f08c379a00000000000000000000000000000000000000000000000000000000081526004016117d190612614565b60405180910390fd5b60046002600084815260200190815260200160002060030160006101000a81548160ff0219169083600681111561181457611813612874565b5b021790555060016002600084815260200190815260200160002060060160006101000a81548160ff0219169083151502179055505050565b606060008060008060008060026000898152602001908152602001600020600001600260008a815260200190815260200160002060010160009054906101000a900473ffffffffffffffffffffffffffffffffffffffff16600260008b815260200190815260200160002060020154600260008c815260200190815260200160002060030160009054906101000a900460ff16600260008d815260200190815260200160002060040154600260008e815260200190815260200160002060050154600260008f815260200190815260200160002060060160009054906101000a900460ff1686805461193d906127ff565b80601f0160208091040260200160405190810160405280929190818152602001828054611969906127ff565b80156119b65780601f1061198b576101008083540402835291602001916119b6565b820191906000526020600020905b81548152906001019060200180831161199957829003601f168201915b505050505096509650965096509650965096509650919395979092949650565b60007f000000000000000000000000000000000000000000000000000000000000000073ffffffffffffffffffffffffffffffffffffffff1663624a23e07fd578563424ab02f85ec03c6b1aee04947ebdd4a30db46cba3bcd7f56ef40b1996040518263ffffffff1660e01b8152600401611a519190612423565b60206040518083038186803b158015611a6957600080fd5b505afa158015611a7d573d6000803e3d6000fd5b505050506040513d601f19601f82011682018060405250810190611aa19190611f9b565b90508073ffffffffffffffffffffffffffffffffffffffff163373ffffffffffffffffffffffffffffffffffffffff1614611b11576040517f08c379a0000000000000000000000000000000000000000000000000000000008152600401611b0890612554565b60405180910390fd5b60026006811115611b2557611b24612874565b5b6002600084815260200190815260200160002060030160009054906101000a900460ff166006811115611b5b57611b5a612874565b5b14611b9b576040517f08c379a0000000000000000000000000000000000000000000000000000000008152600401611b9290612614565b60405180910390fd5b60036002600084815260200190815260200160002060030160006101000a81548160ff02191690836006811115611bd557611bd4612874565b5b02179055505050565b7f000000000000000000000000000000000000000000000000000000000000000081565b60007f000000000000000000000000000000000000000000000000000000000000000073ffffffffffffffffffffffffffffffffffffffff1663624a23e07fd578563424ab02f85ec03c6b1aee04947ebdd4a30db46cba3bcd7f56ef40b1996040518263ffffffff1660e01b8152600401611c7d9190612423565b60206040518083038186803b158015611c9557600080fd5b505afa158015611ca9573d6000803e3d6000fd5b505050506040513d601f19601f82011682018060405250810190611ccd9190611f9b565b90508073ffffffffffffffffffffffffffffffffffffffff163373ffffffffffffffffffffffffffffffffffffffff1614611d3d576040517f08c379a0000000000000000000000000000000000000000000000000000000008152600401611d3490612554565b60405180910390fd5b60026006811115611d5157611d50612874565b5b6002600084815260200190815260200160002060030160009054906101000a900460ff166006811115611d8757611d86612874565b5b14611dc7576040517f08c379a0000000000000000000000000000000000000000000000000000000008152600401611dbe90612614565b60405180910390fd5b60066002600084815260200190815260200160002060030160006101000a81548160ff02191690836006811115611e0157611e00612874565b5b021790555060016002600084815260200190815260200160002060060160006101000a81548160ff0219169083151502179055505050565b828054611e45906127ff565b90600052602060002090601f016020900481019282611e675760008555611eae565b82601f10611e8057805160ff1916838001178555611eae565b82800160010185558215611eae579182015b82811115611ead578251825591602001919060010190611e92565b5b509050611ebb9190611ebf565b5090565b5b80821115611ed8576000816000905550600101611ec0565b5090565b600081519050611eeb81612aaa565b92915050565b600081359050611f0081612ac1565b92915050565b600081519050611f1581612ac1565b92915050565b60008083601f840112611f3157611f306128d7565b5b8235905067ffffffffffffffff811115611f4e57611f4d6128d2565b5b602083019150836001820283011115611f6a57611f696128dc565b5b9250929050565b600081359050611f8081612ad8565b92915050565b600081519050611f9581612ad8565b92915050565b600060208284031215611fb157611fb06128e6565b5b6000611fbf84828501611edc565b91505092915050565b600060208284031215611fde57611fdd6128e6565b5b6000611fec84828501611ef1565b91505092915050565b60006020828403121561200b5761200a6128e6565b5b600061201984828501611f06565b91505092915050565b6000806000806060858703121561203c5761203b6128e6565b5b600085013567ffffffffffffffff81111561205a576120596128e1565b5b61206687828801611f1b565b9450945050602061207987828801611ef1565b925050604061208a87828801611ef1565b91505092959194509250565b6000602082840312156120ac576120ab6128e6565b5b60006120ba84828501611f71565b91505092915050565b6000602082840312156120d9576120d86128e6565b5b60006120e784828501611f86565b91505092915050565b60008060408385031215612107576121066128e6565b5b600061211585828601611f71565b925050602061212685828601611f71565b9150509250929050565b600080600060608486031215612149576121486128e6565b5b600061215786828701611f71565b935050602061216886828701611f71565b925050604061217986828701611f71565b9150509250925092565b61218c8161271f565b82525050565b61219b81612731565b82525050565b6121aa8161273d565b82525050565b6121c16121bc8261273d565b612831565b82525050565b6121d081612784565b82525050565b6121df81612796565b82525050565b60006121f0826126ad565b6121fa81856126b8565b935061220a8185602086016127cc565b612213816128eb565b840191505092915050565b600061222b601c836126b8565b9150612236826128fc565b602082019050919050565b600061224e601c836126b8565b915061225982612925565b602082019050919050565b60006122716019836126b8565b915061227c8261294e565b602082019050919050565b6000612294601d836126b8565b915061229f82612977565b602082019050919050565b60006122b76018836126b8565b91506122c2826129a0565b602082019050919050565b60006122da601f836126b8565b91506122e5826129c9565b602082019050919050565b60006122fd6018836126b8565b9150612308826129f2565b602082019050919050565b60006123206015836126b8565b915061232b82612a1b565b602082019050919050565b6000612343601c836126b8565b915061234e82612a44565b602082019050919050565b60006123666017836126b8565b915061237182612a6d565b602082019050919050565b6123858161277a565b82525050565b61239c6123978261277a565b61283b565b82525050565b60006123ae828661238b565b6020820191506123be82856121b0565b6020820191506123ce828461238b565b602082019150819050949350505050565b60006020820190506123f46000830184612183565b92915050565b600060408201905061240f6000830185612183565b61241c60208301846121a1565b9392505050565b600060208201905061243860008301846121a1565b92915050565b600060208201905061245360008301846121c7565b92915050565b600060808201905061246e60008301876121d6565b61247b602083018661237c565b612488604083018561237c565b6124956060830184612192565b95945050505050565b600060e08201905081810360008301526124b8818a6121e5565b90506124c76020830189612183565b6124d460408301886121a1565b6124e160608301876121d6565b6124ee608083018661237c565b6124fb60a083018561237c565b61250860c0830184612192565b98975050505050505050565b6000602082019050818103600083015261252d8161221e565b9050919050565b6000602082019050818103600083015261254d81612241565b9050919050565b6000602082019050818103600083015261256d81612264565b9050919050565b6000602082019050818103600083015261258d81612287565b9050919050565b600060208201905081810360008301526125ad816122aa565b9050919050565b600060208201905081810360008301526125cd816122cd565b9050919050565b600060208201905081810360008301526125ed816122f0565b9050919050565b6000602082019050818103600083015261260d81612313565b9050919050565b6000602082019050818103600083015261262d81612336565b9050919050565b6000602082019050818103600083015261264d81612359565b9050919050565b6000602082019050612669600083018461237c565b92915050565b6000606082019050612684600083018661237c565b61269160208301856121a1565b81810360408301526126a381846121e5565b9050949350505050565b600081519050919050565b600082825260208201905092915050565b60006126d48261277a565b91506126df8361277a565b9250827fffffffffffffffffffffffffffffffffffffffffffffffffffffffffffffffff0382111561271457612713612845565b5b828201905092915050565b600061272a8261275a565b9050919050565b60008115159050919050565b6000819050919050565b600081905061275582612a96565b919050565b600073ffffffffffffffffffffffffffffffffffffffff82169050919050565b6000819050919050565b600061278f826127a8565b9050919050565b60006127a182612747565b9050919050565b60006127b3826127ba565b9050919050565b60006127c58261275a565b9050919050565b60005b838110156127ea5780820151818401526020810190506127cf565b838111156127f9576000848401525b50505050565b6000600282049050600182168061281757607f821691505b6020821081141561282b5761282a6128a3565b5b50919050565b6000819050919050565b6000819050919050565b7f4e487b7100000000000000000000000000000000000000000000000000000000600052601160045260246000fd5b7f4e487b7100000000000000000000000000000000000000000000000000000000600052602160045260246000fd5b7f4e487b7100000000000000000000000000000000000000000000000000000000600052602260045260246000fd5b600080fd5b600080fd5b600080fd5b600080fd5b600080fd5b6000601f19601f8301169050919050565b7f496e69743a204f6e6c79206465706c6f7965722063616e20696e697400000000600082015250565b7f53797374656d3a204f6e6c7920636f72652063616e206d6f6469667900000000600082015250565b7f50726f703a204f6e6c7920636f6f72642063616e2063616c6c00000000000000600082015250565b7f496e69743a20436f6e747261637420697320696e697469616c697a6564000000600082015250565b7f50726f703a2064656c6179732063616e6e6f7420626520300000000000000000600082015250565b7f50726f703a2045786520494420616c7265616479206173736f63696174656400600082015250565b7f50726f703a2045786520646f6573206e6f742065786973740000000000000000600082015250565b7f50726f703a206d696e2063616e6e6f7420626520300000000000000000000000600082015250565b7f50726f703a20496e76616c6964207374617465206d6f76656d656e7400000000600082015250565b7f50726f703a20496e76616c696420766f74652074797065000000000000000000600082015250565b60078110612aa757612aa6612874565b5b50565b612ab38161271f565b8114612abe57600080fd5b50565b612aca8161273d565b8114612ad557600080fd5b50565b612ae18161277a565b8114612aec57600080fd5b5056fea26469706673582212202766e5a5a879edf73679c00395975394f99a207f6eec7641871f14f89f82281364736f6c6343000807003360c06040523480156200001157600080fd5b5060405162001c5338038062001c5383398181016040528101906200003791906200013f565b7f346b2ab3a980432fd8f2e24828fc9f9ee2df1548701bc542f6ec17882b32762782828033600060026101000a81548173ffffffffffffffffffffffffffffffffffffffff021916908373ffffffffffffffffffffffffffffffffffffffff16021790555080600160006101000a81548173ffffffffffffffffffffffffffffffffffffffff021916908373ffffffffffffffffffffffffffffffffffffffff1602179055505082608081815250508173ffffffffffffffffffffffffffffffffffffffff1660a08173ffffffffffffffffffffffffffffffffffffffff1660601b815250505050505050620001d9565b6000815190506200013981620001bf565b92915050565b60008060408385031215620001595762000158620001ba565b5b6000620001698582860162000128565b92505060206200017c8582860162000128565b9150509250929050565b600062000193826200019a565b9050919050565b600073ffffffffffffffffffffffffffffffffffffffff82169050919050565b600080fd5b620001ca8162000186565b8114620001d657600080fd5b50565b60805160a05160601c611a2e62000225600039600081816105ee015281816106bb01528181610a6f01528181610b1201528181610cfc0152610da0015260006104050152611a2e6000f3fe608060405234801561001057600080fd5b506004361061009e5760003560e01c80636e3ce913116100665780636e3ce91314610149578063b88b82ba14610165578063cbba4b7f14610181578063e343409a1461019d578063eaddd0fd146101ce5761009e565b80631c39c38d146100a357806322f8e566146100c157806329cb924d146100dd5780633c9747f3146100fb57806369e0a1f714610119575b600080fd5b6100ab6101ec565b6040516100b891906114ad565b60405180910390f35b6100db60048036038101906100d691906112c4565b610212565b005b6100e56102fe565b6040516100f29190611612565b60405180910390f35b610103610403565b60405161011091906114f1565b60405180910390f35b610133600480360381019061012e91906110f2565b610427565b60405161014091906114f1565b60405180910390f35b610163600480360381019061015e919061114c565b610473565b005b61017f600480360381019061017a919061131e565b6105ea565b005b61019b60048036038101906101969190611255565b610a6d565b005b6101b760048036038101906101b291906112c4565b610b0b565b6040516101c59291906114c8565b60405180910390f35b6101d6610cfa565b6040516101e39190611557565b60405180910390f35b600160009054906101000a900473ffffffffffffffffffffffffffffffffffffffff1681565b600073ffffffffffffffffffffffffffffffffffffffff16600160009054906101000a900473ffffffffffffffffffffffffffffffffffffffff1673ffffffffffffffffffffffffffffffffffffffff16141561026e57600080fd5b600160009054906101000a900473ffffffffffffffffffffffffffffffffffffffff1673ffffffffffffffffffffffffffffffffffffffff166322f8e566826040518263ffffffff1660e01b81526004016102c99190611612565b600060405180830381600087803b1580156102e357600080fd5b505af11580156102f7573d6000803e3d6000fd5b5050505050565b60008073ffffffffffffffffffffffffffffffffffffffff16600160009054906101000a900473ffffffffffffffffffffffffffffffffffffffff1673ffffffffffffffffffffffffffffffffffffffff16146103fc57600160009054906101000a900473ffffffffffffffffffffffffffffffffffffffff1673ffffffffffffffffffffffffffffffffffffffff166329cb924d6040518163ffffffff1660e01b815260040160206040518083038186803b1580156103bd57600080fd5b505afa1580156103d1573d6000803e3d6000fd5b505050506040513d601f19601f820116820180604052508101906103f591906112f1565b9050610400565b4290505b90565b7f000000000000000000000000000000000000000000000000000000000000000081565b6000600260008373ffffffffffffffffffffffffffffffffffffffff1673ffffffffffffffffffffffffffffffffffffffff168152602001908152602001600020600001549050919050565b600060019054906101000a900460ff1680610499575060008054906101000a900460ff16155b6104d8576040517f08c379a00000000000000000000000000000000000000000000000000000000081526004016104cf906115b2565b60405180910390fd5b600060029054906101000a900473ffffffffffffffffffffffffffffffffffffffff1673ffffffffffffffffffffffffffffffffffffffff163373ffffffffffffffffffffffffffffffffffffffff1614610568576040517f08c379a000000000000000000000000000000000000000000000000000000000815260040161055f90611572565b60405180910390fd5b60008060019054906101000a900460ff1615905080156105b8576001600060016101000a81548160ff02191690831515021790555060016000806101000a81548160ff0219169083151502179055505b6105c3838584610d1e565b80156105e45760008060016101000a81548160ff0219169083151502179055505b50505050565b60007f000000000000000000000000000000000000000000000000000000000000000073ffffffffffffffffffffffffffffffffffffffff1663624a23e07fd578563424ab02f85ec03c6b1aee04947ebdd4a30db46cba3bcd7f56ef40b1996040518263ffffffff1660e01b815260040161066591906114f1565b60206040518083038186803b15801561067d57600080fd5b505afa158015610691573d6000803e3d6000fd5b505050506040513d601f19601f820116820180604052508101906106b5919061111f565b905060007f000000000000000000000000000000000000000000000000000000000000000073ffffffffffffffffffffffffffffffffffffffff1663624a23e07f36209a57dfd79e3872ec3a0c88c653bbe7e32a12306e5e1f92f118c1936ae8b26040518263ffffffff1660e01b815260040161073291906114f1565b60206040518083038186803b15801561074a57600080fd5b505afa15801561075e573d6000803e3d6000fd5b505050506040513d601f19601f82011682018060405250810190610782919061111f565b905060008173ffffffffffffffffffffffffffffffffffffffff166262104a866040518263ffffffff1660e01b81526004016107be9190611612565b60206040518083038186803b1580156107d657600080fd5b505afa1580156107ea573d6000803e3d6000fd5b505050506040513d601f19601f8201168201806040525081019061080e919061111f565b90506000801b3073ffffffffffffffffffffffffffffffffffffffff166369e0a1f7836040518263ffffffff1660e01b815260040161084d91906114ad565b60206040518083038186803b15801561086557600080fd5b505afa158015610879573d6000803e3d6000fd5b505050506040513d601f19601f8201168201806040525081019061089d9190611228565b14156108de576040517f08c379a00000000000000000000000000000000000000000000000000000000081526004016108d5906115f2565b60405180910390fd5b8273ffffffffffffffffffffffffffffffffffffffff1663fd4a77f1866040518263ffffffff1660e01b81526004016109179190611612565b600060405180830381600087803b15801561093157600080fd5b505af1158015610945573d6000803e3d6000fd5b50505050843373ffffffffffffffffffffffffffffffffffffffff167f71a29581f391d0ca96684c69771724a921678b572e21378712be03e8da07e2ca866040516109909190611535565b60405180910390a38073ffffffffffffffffffffffffffffffffffffffff1663f636a0538686336040518463ffffffff1660e01b81526004016109d59392919061162d565b602060405180830381600087803b1580156109ef57600080fd5b505af1158015610a03573d6000803e3d6000fd5b505050506040513d601f19601f82011682018060405250810190610a2791906111bb565b610a66576040517f08c379a0000000000000000000000000000000000000000000000000000000008152600401610a5d906115d2565b60405180910390fd5b5050505050565b7f000000000000000000000000000000000000000000000000000000000000000073ffffffffffffffffffffffffffffffffffffffff163373ffffffffffffffffffffffffffffffffffffffff1614610afb576040517f08c379a0000000000000000000000000000000000000000000000000000000008152600401610af290611592565b60405180910390fd5b610b06838383610d1e565b505050565b60008060007f000000000000000000000000000000000000000000000000000000000000000073ffffffffffffffffffffffffffffffffffffffff1663624a23e07f36209a57dfd79e3872ec3a0c88c653bbe7e32a12306e5e1f92f118c1936ae8b26040518263ffffffff1660e01b8152600401610b8991906114f1565b60206040518083038186803b158015610ba157600080fd5b505afa158015610bb5573d6000803e3d6000fd5b505050506040513d601f19601f82011682018060405250810190610bd9919061111f565b905060008173ffffffffffffffffffffffffffffffffffffffff166262104a866040518263ffffffff1660e01b8152600401610c159190611612565b60206040518083038186803b158015610c2d57600080fd5b505afa158015610c41573d6000803e3d6000fd5b505050506040513d601f19601f82011682018060405250810190610c65919061111f565b90508073ffffffffffffffffffffffffffffffffffffffff1663e343409a866040518263ffffffff1660e01b8152600401610ca09190611612565b604080518083038186803b158015610cb757600080fd5b505afa158015610ccb573d6000803e3d6000fd5b505050506040513d601f19601f82011682018060405250810190610cef91906111e8565b935093505050915091565b7f000000000000000000000000000000000000000000000000000000000000000081565b604051806040016040528084815260200182815250600260008473ffffffffffffffffffffffffffffffffffffffff1673ffffffffffffffffffffffffffffffffffffffff168152602001908152602001600020600082015181600001556020820151816001019080519060200190610d98929190610edc565b5090505060007f000000000000000000000000000000000000000000000000000000000000000073ffffffffffffffffffffffffffffffffffffffff1663624a23e07fd578563424ab02f85ec03c6b1aee04947ebdd4a30db46cba3bcd7f56ef40b1996040518263ffffffff1660e01b8152600401610e1791906114f1565b60206040518083038186803b158015610e2f57600080fd5b505afa158015610e43573d6000803e3d6000fd5b505050506040513d601f19601f82011682018060405250810190610e67919061111f565b90508073ffffffffffffffffffffffffffffffffffffffff166338c6878285856040518363ffffffff1660e01b8152600401610ea492919061150c565b600060405180830381600087803b158015610ebe57600080fd5b505af1158015610ed2573d6000803e3d6000fd5b5050505050505050565b828054610ee8906117e9565b90600052602060002090601f016020900481019282610f0a5760008555610f51565b82601f10610f2357805160ff1916838001178555610f51565b82800160010185558215610f51579182015b82811115610f50578251825591602001919060010190610f35565b5b509050610f5e9190610f62565b5090565b5b80821115610f7b576000816000905550600101610f63565b5090565b6000610f92610f8d84611690565b61166b565b905082815260208101848484011115610fae57610fad6118af565b5b610fb98482856117a7565b509392505050565b6000610fd4610fcf846116c1565b61166b565b905082815260208101848484011115610ff057610fef6118af565b5b610ffb8482856117a7565b509392505050565b6000813590506110128161199c565b92915050565b6000815190506110278161199c565b92915050565b60008151905061103c816119b3565b92915050565b600081359050611051816119ca565b92915050565b600081519050611066816119ca565b92915050565b600082601f830112611081576110806118aa565b5b8135611091848260208601610f7f565b91505092915050565b600082601f8301126110af576110ae6118aa565b5b81356110bf848260208601610fc1565b91505092915050565b6000813590506110d7816119e1565b92915050565b6000815190506110ec816119e1565b92915050565b600060208284031215611108576111076118b9565b5b600061111684828501611003565b91505092915050565b600060208284031215611135576111346118b9565b5b600061114384828501611018565b91505092915050565b600080600060608486031215611165576111646118b9565b5b600061117386828701611003565b935050602061118486828701611042565b925050604084013567ffffffffffffffff8111156111a5576111a46118b4565b5b6111b18682870161109a565b9150509250925092565b6000602082840312156111d1576111d06118b9565b5b60006111df8482850161102d565b91505092915050565b600080604083850312156111ff576111fe6118b9565b5b600061120d8582860161102d565b925050602061121e8582860161102d565b9150509250929050565b60006020828403121561123e5761123d6118b9565b5b600061124c84828501611057565b91505092915050565b60008060006060848603121561126e5761126d6118b9565b5b600061127c86828701611042565b935050602061128d86828701611003565b925050604084013567ffffffffffffffff8111156112ae576112ad6118b4565b5b6112ba8682870161109a565b9150509250925092565b6000602082840312156112da576112d96118b9565b5b60006112e8848285016110c8565b91505092915050565b600060208284031215611307576113066118b9565b5b6000611315848285016110dd565b91505092915050565b60008060408385031215611335576113346118b9565b5b6000611343858286016110c8565b925050602083013567ffffffffffffffff811115611364576113636118b4565b5b6113708582860161106c565b9150509250929050565b6113838161171f565b82525050565b61139281611731565b82525050565b6113a18161173d565b82525050565b60006113b2826116f2565b6113bc81856116fd565b93506113cc8185602086016117b6565b6113d5816118be565b840191505092915050565b6113e981611771565b82525050565b60006113fc601c8361170e565b9150611407826118cf565b602082019050919050565b600061141f601c8361170e565b915061142a826118f8565b602082019050919050565b6000611442601d8361170e565b915061144d82611921565b602082019050919050565b600061146560128361170e565b91506114708261194a565b602082019050919050565b6000611488601d8361170e565b915061149382611973565b602082019050919050565b6114a781611767565b82525050565b60006020820190506114c2600083018461137a565b92915050565b60006040820190506114dd6000830185611389565b6114ea6020830184611389565b9392505050565b60006020820190506115066000830184611398565b92915050565b60006040820190506115216000830185611398565b61152e602083018461137a565b9392505050565b6000602082019050818103600083015261154f81846113a7565b905092915050565b600060208201905061156c60008301846113e0565b92915050565b6000602082019050818103600083015261158b816113ef565b9050919050565b600060208201905081810360008301526115ab81611412565b9050919050565b600060208201905081810360008301526115cb81611435565b9050919050565b600060208201905081810360008301526115eb81611458565b9050919050565b6000602082019050818103600083015261160b8161147b565b9050919050565b6000602082019050611627600083018461149e565b92915050565b6000606082019050611642600083018661149e565b818103602083015261165481856113a7565b9050611663604083018461137a565b949350505050565b6000611675611686565b9050611681828261181b565b919050565b6000604051905090565b600067ffffffffffffffff8211156116ab576116aa61187b565b5b6116b4826118be565b9050602081019050919050565b600067ffffffffffffffff8211156116dc576116db61187b565b5b6116e5826118be565b9050602081019050919050565b600081519050919050565b600082825260208201905092915050565b600082825260208201905092915050565b600061172a82611747565b9050919050565b60008115159050919050565b6000819050919050565b600073ffffffffffffffffffffffffffffffffffffffff82169050919050565b6000819050919050565b600061177c82611783565b9050919050565b600061178e82611795565b9050919050565b60006117a082611747565b9050919050565b82818337600083830152505050565b60005b838110156117d45780820151818401526020810190506117b9565b838111156117e3576000848401525b50505050565b6000600282049050600182168061180157607f821691505b602082108114156118155761181461184c565b5b50919050565b611824826118be565b810181811067ffffffffffffffff821117156118435761184261187b565b5b80604052505050565b7f4e487b7100000000000000000000000000000000000000000000000000000000600052602260045260246000fd5b7f4e487b7100000000000000000000000000000000000000000000000000000000600052604160045260246000fd5b600080fd5b600080fd5b600080fd5b600080fd5b6000601f19601f8301169050919050565b7f496e69743a204f6e6c79206465706c6f7965722063616e20696e697400000000600082015250565b7f53797374656d3a204f6e6c7920636f72652063616e206d6f6469667900000000600082015250565b7f496e69743a20436f6e747261637420697320696e697469616c697a6564000000600082015250565b7f426f6f74683a20566f7465206661696c65640000000000000000000000000000600082015250565b7f426f6f74683a20496e76616c696420766f746520747970652f70726f70000000600082015250565b6119a58161171f565b81146119b057600080fd5b50565b6119bc81611731565b81146119c757600080fd5b50565b6119d38161173d565b81146119de57600080fd5b50565b6119ea81611767565b81146119f557600080fd5b5056fea264697066735822122057f7af123d486bde98418322e23ecc15417beb0f789a6f642c82a227bdbcac6f64736f6c6343000807003360c060405234801561001057600080fd5b50604051610ec5380380610ec583398181016040528101906100329190610137565b7fcdd7ba10b36b7349d5c9710e5e447ec8acaa8e3cbba8d20f4393eccf61f185b182828033600060026101000a81548173ffffffffffffffffffffffffffffffffffffffff021916908373ffffffffffffffffffffffffffffffffffffffff16021790555080600160006101000a81548173ffffffffffffffffffffffffffffffffffffffff021916908373ffffffffffffffffffffffffffffffffffffffff1602179055505082608081815250508173ffffffffffffffffffffffffffffffffffffffff1660a08173ffffffffffffffffffffffffffffffffffffffff1660601b8152505050505050506101c5565b600081519050610131816101ae565b92915050565b6000806040838503121561014e5761014d6101a9565b5b600061015c85828601610122565b925050602061016d85828601610122565b9150509250929050565b600061018282610189565b9050919050565b600073ffffffffffffffffffffffffffffffffffffffff82169050919050565b600080fd5b6101b781610177565b81146101c257600080fd5b50565b60805160a05160601c610cd86101ed60003960006106b50152600061050e0152610cd86000f3fe608060405234801561001057600080fd5b50600436106100885760003560e01c80633c9747f31161005b5780633c9747f3146101155780637eba557314610133578063eaddd0fd14610163578063ef88bf131461018157610088565b80631c39c38d1461008d57806322f8e566146100ab5780632434c5bd146100c757806329cb924d146100f7575b600080fd5b61009561019d565b6040516100a29190610a5f565b60405180910390f35b6100c560048036038101906100c09190610943565b6101c3565b005b6100e160048036038101906100dc9190610943565b6102af565b6040516100ee9190610af0565b60405180910390f35b6100ff610407565b60405161010c9190610af0565b60405180910390f35b61011d61050c565b60405161012a9190610a7a565b60405180910390f35b61014d6004803603810190610148919061099d565b610530565b60405161015a9190610af0565b60405180910390f35b61016b6106b3565b6040516101789190610a95565b60405180910390f35b61019b60048036038101906101969190610903565b6106d7565b005b600160009054906101000a900473ffffffffffffffffffffffffffffffffffffffff1681565b600073ffffffffffffffffffffffffffffffffffffffff16600160009054906101000a900473ffffffffffffffffffffffffffffffffffffffff1673ffffffffffffffffffffffffffffffffffffffff16141561021f57600080fd5b600160009054906101000a900473ffffffffffffffffffffffffffffffffffffffff1673ffffffffffffffffffffffffffffffffffffffff166322f8e566826040518263ffffffff1660e01b815260040161027a9190610af0565b600060405180830381600087803b15801561029457600080fd5b505af11580156102a8573d6000803e3d6000fd5b5050505050565b600080600360009054906101000a900473ffffffffffffffffffffffffffffffffffffffff1673ffffffffffffffffffffffffffffffffffffffff166318160ddd6040518163ffffffff1660e01b815260040160206040518083038186803b15801561031a57600080fd5b505afa15801561032e573d6000803e3d6000fd5b505050506040513d601f19601f820116820180604052508101906103529190610970565b600260009054906101000a900473ffffffffffffffffffffffffffffffffffffffff1673ffffffffffffffffffffffffffffffffffffffff166318160ddd6040518163ffffffff1660e01b815260040160206040518083038186803b1580156103ba57600080fd5b505afa1580156103ce573d6000803e3d6000fd5b505050506040513d601f19601f820116820180604052508101906103f29190610970565b6103fc9190610b1c565b905080915050919050565b60008073ffffffffffffffffffffffffffffffffffffffff16600160009054906101000a900473ffffffffffffffffffffffffffffffffffffffff1673ffffffffffffffffffffffffffffffffffffffff161461050557600160009054906101000a900473ffffffffffffffffffffffffffffffffffffffff1673ffffffffffffffffffffffffffffffffffffffff166329cb924d6040518163ffffffff1660e01b815260040160206040518083038186803b1580156104c657600080fd5b505afa1580156104da573d6000803e3d6000fd5b505050506040513d601f19601f820116820180604052508101906104fe9190610970565b9050610509565b4290505b90565b7f000000000000000000000000000000000000000000000000000000000000000081565b600080600360009054906101000a900473ffffffffffffffffffffffffffffffffffffffff1673ffffffffffffffffffffffffffffffffffffffff166370a08231846040518263ffffffff1660e01b815260040161058e9190610a5f565b60206040518083038186803b1580156105a657600080fd5b505afa1580156105ba573d6000803e3d6000fd5b505050506040513d601f19601f820116820180604052508101906105de9190610970565b600260009054906101000a900473ffffffffffffffffffffffffffffffffffffffff1673ffffffffffffffffffffffffffffffffffffffff166370a08231856040518263ffffffff1660e01b81526004016106399190610a5f565b60206040518083038186803b15801561065157600080fd5b505afa158015610665573d6000803e3d6000fd5b505050506040513d601f19601f820116820180604052508101906106899190610970565b6106939190610b1c565b905060008114156106a85760009150506106ad565b809150505b92915050565b7f000000000000000000000000000000000000000000000000000000000000000081565b600060019054906101000a900460ff16806106fd575060008054906101000a900460ff16155b61073c576040517f08c379a000000000000000000000000000000000000000000000000000000000815260040161073390610ad0565b60405180910390fd5b600060029054906101000a900473ffffffffffffffffffffffffffffffffffffffff1673ffffffffffffffffffffffffffffffffffffffff163373ffffffffffffffffffffffffffffffffffffffff16146107cc576040517f08c379a00000000000000000000000000000000000000000000000000000000081526004016107c390610ab0565b60405180910390fd5b60008060019054906101000a900460ff16159050801561081c576001600060016101000a81548160ff02191690831515021790555060016000806101000a81548160ff0219169083151502179055505b82600260006101000a81548173ffffffffffffffffffffffffffffffffffffffff021916908373ffffffffffffffffffffffffffffffffffffffff16021790555081600360006101000a81548173ffffffffffffffffffffffffffffffffffffffff021916908373ffffffffffffffffffffffffffffffffffffffff16021790555080156108bf5760008060016101000a81548160ff0219169083151502179055505b505050565b6000813590506108d381610c74565b92915050565b6000813590506108e881610c8b565b92915050565b6000815190506108fd81610c8b565b92915050565b6000806040838503121561091a57610919610c1d565b5b6000610928858286016108c4565b9250506020610939858286016108c4565b9150509250929050565b60006020828403121561095957610958610c1d565b5b6000610967848285016108d9565b91505092915050565b60006020828403121561098657610985610c1d565b5b6000610994848285016108ee565b91505092915050565b600080604083850312156109b4576109b3610c1d565b5b60006109c2858286016108d9565b92505060206109d3858286016108c4565b9150509250929050565b6109e681610b72565b82525050565b6109f581610b84565b82525050565b610a0481610bb8565b82525050565b6000610a17601c83610b0b565b9150610a2282610c22565b602082019050919050565b6000610a3a601d83610b0b565b9150610a4582610c4b565b602082019050919050565b610a5981610bae565b82525050565b6000602082019050610a7460008301846109dd565b92915050565b6000602082019050610a8f60008301846109ec565b92915050565b6000602082019050610aaa60008301846109fb565b92915050565b60006020820190508181036000830152610ac981610a0a565b9050919050565b60006020820190508181036000830152610ae981610a2d565b9050919050565b6000602082019050610b056000830184610a50565b92915050565b600082825260208201905092915050565b6000610b2782610bae565b9150610b3283610bae565b9250827fffffffffffffffffffffffffffffffffffffffffffffffffffffffffffffffff03821115610b6757610b66610bee565b5b828201905092915050565b6000610b7d82610b8e565b9050919050565b6000819050919050565b600073ffffffffffffffffffffffffffffffffffffffff82169050919050565b6000819050919050565b6000610bc382610bca565b9050919050565b6000610bd582610bdc565b9050919050565b6000610be782610b8e565b9050919050565b7f4e487b7100000000000000000000000000000000000000000000000000000000600052601160045260246000fd5b600080fd5b7f496e69743a204f6e6c79206465706c6f7965722063616e20696e697400000000600082015250565b7f496e69743a20436f6e747261637420697320696e697469616c697a6564000000600082015250565b610c7d81610b72565b8114610c8857600080fd5b50565b610c9481610bae565b8114610c9f57600080fd5b5056fea2646970667358221220cc52fbb3b4bfdf9bc56727eeec06f8b9c662bb29884f05661bb1317ee0928db764736f6c6343000807003360c06040523480156200001157600080fd5b50604051620017df380380620017df83398181016040528101906200003791906200013f565b7fe927a917027ae678ece03159f7b891bcfbce4670390def18906836b285c642ae82828033600060026101000a81548173ffffffffffffffffffffffffffffffffffffffff021916908373ffffffffffffffffffffffffffffffffffffffff16021790555080600160006101000a81548173ffffffffffffffffffffffffffffffffffffffff021916908373ffffffffffffffffffffffffffffffffffffffff1602179055505082608081815250508173ffffffffffffffffffffffffffffffffffffffff1660a08173ffffffffffffffffffffffffffffffffffffffff1660601b815250505050505050620001d9565b6000815190506200013981620001bf565b92915050565b60008060408385031215620001595762000158620001ba565b5b6000620001698582860162000128565b92505060206200017c8582860162000128565b9150509250929050565b600062000193826200019a565b9050919050565b600073ffffffffffffffffffffffffffffffffffffffff82169050919050565b600080fd5b620001ca8162000186565b8114620001d657600080fd5b50565b60805160a05160601c6115c862000217600039600081816105af0152818161079c015281816107c30152610a390152600061047e01526115c86000f3fe608060405234801561001057600080fd5b50600436106100a95760003560e01c8063646d87e811610071578063646d87e814610154578063951c4ca514610184578063dd63b3d8146101b6578063e343409a146101e6578063eaddd0fd14610217578063f636a05314610235576100a9565b80631c39c38d146100ae57806322f8e566146100cc57806329cb924d146100e85780633c9747f3146101065780634385963214610124575b600080fd5b6100b6610265565b6040516100c39190611089565b60405180910390f35b6100e660048036038101906100e19190610e93565b61028b565b005b6100f0610377565b6040516100fd91906111a0565b60405180910390f35b61010e61047c565b60405161011b91906110e8565b60405180910390f35b61013e60048036038101906101399190610eed565b6104a0565b60405161014b91906110a4565b60405180910390f35b61016e60048036038101906101699190610e4a565b61050b565b60405161017b91906110a4565b60405180910390f35b61019e60048036038101906101999190610e93565b610528565b6040516101ad939291906111e4565b60405180910390f35b6101d060048036038101906101cb9190610df0565b61057f565b6040516101dd9190611103565b60405180910390f35b61020060048036038101906101fb9190610e93565b6105a8565b60405161020e9291906110bf565b60405180910390f35b61021f61079a565b60405161022c9190611125565b60405180910390f35b61024f600480360381019061024a9190610f2d565b6107be565b60405161025c91906110a4565b60405180910390f35b600160009054906101000a900473ffffffffffffffffffffffffffffffffffffffff1681565b600073ffffffffffffffffffffffffffffffffffffffff16600160009054906101000a900473ffffffffffffffffffffffffffffffffffffffff1673ffffffffffffffffffffffffffffffffffffffff1614156102e757600080fd5b600160009054906101000a900473ffffffffffffffffffffffffffffffffffffffff1673ffffffffffffffffffffffffffffffffffffffff166322f8e566826040518263ffffffff1660e01b815260040161034291906111a0565b600060405180830381600087803b15801561035c57600080fd5b505af1158015610370573d6000803e3d6000fd5b5050505050565b60008073ffffffffffffffffffffffffffffffffffffffff16600160009054906101000a900473ffffffffffffffffffffffffffffffffffffffff1673ffffffffffffffffffffffffffffffffffffffff161461047557600160009054906101000a900473ffffffffffffffffffffffffffffffffffffffff1673ffffffffffffffffffffffffffffffffffffffff166329cb924d6040518163ffffffff1660e01b815260040160206040518083038186803b15801561043657600080fd5b505afa15801561044a573d6000803e3d6000fd5b505050506040513d601f19601f8201168201806040525081019061046e9190610ec0565b9050610479565b4290505b90565b7f000000000000000000000000000000000000000000000000000000000000000081565b60006002600084815260200190815260200160002060020160008373ffffffffffffffffffffffffffffffffffffffff1673ffffffffffffffffffffffffffffffffffffffff16815260200190815260200160002060009054906101000a900460ff16905092915050565b6000818060200190518101906105219190610e1d565b9050919050565b60008060006002600085815260200190815260200160002060000154925060026000858152602001908152602001600020600101549150600260008581526020019081526020016000206003015490509193909250565b60608160405160200161059291906110a4565b6040516020818303038152906040529050919050565b60008060007f000000000000000000000000000000000000000000000000000000000000000073ffffffffffffffffffffffffffffffffffffffff1663624a23e07fcdd7ba10b36b7349d5c9710e5e447ec8acaa8e3cbba8d20f4393eccf61f185b16040518263ffffffff1660e01b815260040161062691906110e8565b60206040518083038186803b15801561063e57600080fd5b505afa158015610652573d6000803e3d6000fd5b505050506040513d601f19601f820116820180604052508101906106769190610dc3565b905060008173ffffffffffffffffffffffffffffffffffffffff16632434c5bd866040518263ffffffff1660e01b81526004016106b391906111a0565b60206040518083038186803b1580156106cb57600080fd5b505afa1580156106df573d6000803e3d6000fd5b505050506040513d601f19601f820116820180604052508101906107039190610ec0565b905060006002600087815260200190815260200160002060010154600260008881526020019081526020016000206000015461073f919061129e565b90508060028361074f91906112f4565b1161075957600194505b60026000878152602001908152602001600020600101546002600088815260200190815260200160002060000154111561079257600193505b505050915091565b7f000000000000000000000000000000000000000000000000000000000000000081565b6000807f000000000000000000000000000000000000000000000000000000000000000073ffffffffffffffffffffffffffffffffffffffff1663624a23e07f346b2ab3a980432fd8f2e24828fc9f9ee2df1548701bc542f6ec17882b3276276040518263ffffffff1660e01b815260040161083a91906110e8565b60206040518083038186803b15801561085257600080fd5b505afa158015610866573d6000803e3d6000fd5b505050506040513d601f19601f8201168201806040525081019061088a9190610dc3565b90503373ffffffffffffffffffffffffffffffffffffffff168173ffffffffffffffffffffffffffffffffffffffff16146108fa576040517f08c379a00000000000000000000000000000000000000000000000000000000081526004016108f190611180565b60405180910390fd5b6002600086815260200190815260200160002060020160008473ffffffffffffffffffffffffffffffffffffffff1673ffffffffffffffffffffffffffffffffffffffff16815260200190815260200160002060009054906101000a900460ff161561099b576040517f08c379a000000000000000000000000000000000000000000000000000000000815260040161099290611160565b60405180910390fd5b60016002600087815260200190815260200160002060020160008573ffffffffffffffffffffffffffffffffffffffff1673ffffffffffffffffffffffffffffffffffffffff16815260200190815260200160002060006101000a81548160ff0219169083151502179055506001600260008781526020019081526020016000206003016000828254610a2e919061129e565b9250508190555060007f000000000000000000000000000000000000000000000000000000000000000073ffffffffffffffffffffffffffffffffffffffff1663624a23e07fcdd7ba10b36b7349d5c9710e5e447ec8acaa8e3cbba8d20f4393eccf61f185b16040518263ffffffff1660e01b8152600401610ab091906110e8565b60206040518083038186803b158015610ac857600080fd5b505afa158015610adc573d6000803e3d6000fd5b505050506040513d601f19601f82011682018060405250810190610b009190610dc3565b905060008173ffffffffffffffffffffffffffffffffffffffff16637eba557388876040518363ffffffff1660e01b8152600401610b3f9291906111bb565b602060405180830381600087803b158015610b5957600080fd5b505af1158015610b6d573d6000803e3d6000fd5b505050506040513d601f19601f82011682018060405250810190610b919190610ec0565b90503073ffffffffffffffffffffffffffffffffffffffff1663646d87e8876040518263ffffffff1660e01b8152600401610bcc9190611103565b60206040518083038186803b158015610be457600080fd5b505afa925050508015610c1557506040513d601f19601f82011682018060405250810190610c129190610e1d565b60015b610c5f576000610c5a576040517f08c379a0000000000000000000000000000000000000000000000000000000008152600401610c5190611140565b60405180910390fd5b610cc7565b8015610c975781600260008a81526020019081526020016000206000016000828254610c8b919061129e565b92505081905550610cc5565b81600260008a81526020019081526020016000206001016000828254610cbd919061129e565b925050819055505b505b600193505050509392505050565b6000610ce8610ce384611240565b61121b565b905082815260208101848484011115610d0457610d036114b2565b5b610d0f8482856113ad565b509392505050565b600081359050610d268161154d565b92915050565b600081519050610d3b8161154d565b92915050565b600081359050610d5081611564565b92915050565b600081519050610d6581611564565b92915050565b600082601f830112610d8057610d7f6114ad565b5b8135610d90848260208601610cd5565b91505092915050565b600081359050610da88161157b565b92915050565b600081519050610dbd8161157b565b92915050565b600060208284031215610dd957610dd86114bc565b5b6000610de784828501610d2c565b91505092915050565b600060208284031215610e0657610e056114bc565b5b6000610e1484828501610d41565b91505092915050565b600060208284031215610e3357610e326114bc565b5b6000610e4184828501610d56565b91505092915050565b600060208284031215610e6057610e5f6114bc565b5b600082013567ffffffffffffffff811115610e7e57610e7d6114b7565b5b610e8a84828501610d6b565b91505092915050565b600060208284031215610ea957610ea86114bc565b5b6000610eb784828501610d99565b91505092915050565b600060208284031215610ed657610ed56114bc565b5b6000610ee484828501610dae565b91505092915050565b60008060408385031215610f0457610f036114bc565b5b6000610f1285828601610d99565b9250506020610f2385828601610d17565b9150509250929050565b600080600060608486031215610f4657610f456114bc565b5b6000610f5486828701610d99565b935050602084013567ffffffffffffffff811115610f7557610f746114b7565b5b610f8186828701610d6b565b9250506040610f9286828701610d17565b9150509250925092565b610fa581611325565b82525050565b610fb481611337565b82525050565b610fc381611343565b82525050565b6000610fd482611271565b610fde818561127c565b9350610fee8185602086016113bc565b610ff7816114c1565b840191505092915050565b61100b81611377565b82525050565b600061101e601f8361128d565b9150611029826114d2565b602082019050919050565b6000611041601f8361128d565b915061104c826114fb565b602082019050919050565b6000611064601e8361128d565b915061106f82611524565b602082019050919050565b6110838161136d565b82525050565b600060208201905061109e6000830184610f9c565b92915050565b60006020820190506110b96000830184610fab565b92915050565b60006040820190506110d46000830185610fab565b6110e16020830184610fab565b9392505050565b60006020820190506110fd6000830184610fba565b92915050565b6000602082019050818103600083015261111d8184610fc9565b905092915050565b600060208201905061113a6000830184611002565b92915050565b6000602082019050818103600083015261115981611011565b9050919050565b6000602082019050818103600083015261117981611034565b9050919050565b6000602082019050818103600083015261119981611057565b9050919050565b60006020820190506111b5600083018461107a565b92915050565b60006040820190506111d0600083018561107a565b6111dd6020830184610f9c565b9392505050565b60006060820190506111f9600083018661107a565b611206602083018561107a565b611213604083018461107a565b949350505050565b6000611225611236565b905061123182826113ef565b919050565b6000604051905090565b600067ffffffffffffffff82111561125b5761125a61147e565b5b611264826114c1565b9050602081019050919050565b600081519050919050565b600082825260208201905092915050565b600082825260208201905092915050565b60006112a98261136d565b91506112b48361136d565b9250827fffffffffffffffffffffffffffffffffffffffffffffffffffffffffffffffff038211156112e9576112e8611420565b5b828201905092915050565b60006112ff8261136d565b915061130a8361136d565b92508261131a5761131961144f565b5b828204905092915050565b60006113308261134d565b9050919050565b60008115159050919050565b6000819050919050565b600073ffffffffffffffffffffffffffffffffffffffff82169050919050565b6000819050919050565b600061138282611389565b9050919050565b60006113948261139b565b9050919050565b60006113a68261134d565b9050919050565b82818337600083830152505050565b60005b838110156113da5780820151818401526020810190506113bf565b838111156113e9576000848401525b50505050565b6113f8826114c1565b810181811067ffffffffffffffff821117156114175761141661147e565b5b80604052505050565b7f4e487b7100000000000000000000000000000000000000000000000000000000600052601160045260246000fd5b7f4e487b7100000000000000000000000000000000000000000000000000000000600052601260045260246000fd5b7f4e487b7100000000000000000000000000000000000000000000000000000000600052604160045260246000fd5b600080fd5b600080fd5b600080fd5b600080fd5b6000601f19601f8301169050919050565b7f436f6e3a20566f746520696e636f72726563746c7920666f726d617474656400600082015250565b7f426f6f74683a20566f7465722048617320766f74656420666f722070726f7000600082015250565b7f566f74696e6720547970653a204f6e6c7920566f74696e6720426f6f74680000600082015250565b61155681611325565b811461156157600080fd5b50565b61156d81611337565b811461157857600080fd5b50565b6115848161136d565b811461158f57600080fd5b5056fea264697066735822122044131a6098982a8f46f97c96390cfe75e199e7aeb044f0b2119cb32f9cf4822864736f6c63430008070033a264697066735822122044723196da66c528d603bec66282082d1de00765563bfcddfecf43a91f6637db64736f6c63430008070033",
  "linkReferences": {},
  "deployedLinkReferences": {}
}