{
  "_format": "hh-sol-artifact-1",
  "contractName": "CoreLib",
  "sourceName": "contracts/CoreLib.sol",
  "abi": [
    {
      "inputs": [],
      "name": "COORD",
      "outputs": [
        {
          "internalType": "bytes32",
          "name": "",
          "type": "bytes32"
        }
      ],
      "stateMutability": "view",
      "type": "function"
    },
    {
      "inputs": [],
      "name": "CORE",
      "outputs": [
        {
          "internalType": "bytes32",
          "name": "",
          "type": "bytes32"
        }
      ],
      "stateMutability": "view",
      "type": "function"
    },
    {
      "inputs": [],
      "name": "EXE",
      "outputs": [
        {
          "internalType": "bytes32",
          "name": "",
          "type": "bytes32"
        }
      ],
      "stateMutability": "view",
      "type": "function"
    },
    {
      "inputs": [],
      "name": "PROPS",
      "outputs": [
        {
          "internalType": "bytes32",
          "name": "",
          "type": "bytes32"
        }
      ],
      "stateMutability": "view",
      "type": "function"
    },
    {
      "inputs": [],
      "name": "VOTE_BOOTH",
      "outputs": [
        {
          "internalType": "bytes32",
          "name": "",
          "type": "bytes32"
        }
      ],
      "stateMutability": "view",
      "type": "function"
    },
    {
      "inputs": [],
      "name": "VOTE_WEIGHT",
      "outputs": [
        {
          "internalType": "bytes32",
          "name": "",
          "type": "bytes32"
        }
      ],
      "stateMutability": "view",
      "type": "function"
    },
    {
      "inputs": [
        {
          "internalType": "bytes32",
          "name": "c__0xeabc4e57",
          "type": "bytes32"
        }
      ],
      "name": "c_0xeabc4e57",
      "outputs": [],
      "stateMutability": "pure",
      "type": "function"
    }
  ],
  "bytecode": "0x6102ff610053600b82828239805160001a607314610046577f4e487b7100000000000000000000000000000000000000000000000000000000600052600060045260246000fd5b30600052607381538281f3fe73000000000000000000000000000000000000000030146080604052600436106100875760003560e01c80639a39718b116100655780639a39718b146100e6578063a20b69c114610104578063d082009d14610120578063e9b679581461013e57610087565b80630bd8922d1461008c578063296425b5146100aa5780636b6c0774146100c8575b600080fd5b61009461015c565b6040516100a19190610288565b60405180910390f35b6100b2610180565b6040516100bf9190610288565b60405180910390f35b6100d06101a4565b6040516100dd9190610288565b60405180910390f35b6100ee6101c8565b6040516100fb9190610288565b60405180910390f35b61011e6004803603810190610119919061024c565b6101ec565b005b6101286101ef565b6040516101359190610288565b60405180910390f35b610146610213565b6040516101539190610288565b60405180910390f35b7fd578563424ab02f85ec03c6b1aee04947ebdd4a30db46cba3bcd7f56ef40b19981565b7fcdd7ba10b36b7349d5c9710e5e447ec8acaa8e3cbba8d20f4393eccf61f185b181565b7f907208bc2088fa777f18b43edd8b766e7243504cf8497f7ed936c65c7a446bbc81565b7f346b2ab3a980432fd8f2e24828fc9f9ee2df1548701bc542f6ec17882b32762781565b50565b7f36209a57dfd79e3872ec3a0c88c653bbe7e32a12306e5e1f92f118c1936ae8b281565b7f59e2d72f5870ccddd14d35394bd3c22374071b2da7c07a3d6c3b690400b7362881565b600081359050610246816102b2565b92915050565b600060208284031215610262576102616102ad565b5b600061027084828501610237565b91505092915050565b610282816102a3565b82525050565b600060208201905061029d6000830184610279565b92915050565b6000819050919050565b600080fd5b6102bb816102a3565b81146102c657600080fd5b5056fea2646970667358221220961c7be596297341228f4a429a6ffec06f61fb6eb176c0b5ec9d2b03b22c889a64736f6c63430008070033",
  "linkReferences": {},
  "deployedLinkReferences": {}
}