{
  "_format": "hh-sol-artifact-1",
  "contractName": "CoreLib",
  "sourceName": "contracts/CoreLib.sol",
  "abi": [
    {
      "inputs": [],
      "name": "COORD",
      "outputs": [
        {
          "internalType": "bytes32",
          "name": "",
          "type": "bytes32"
        }
      ],
      "stateMutability": "view",
      "type": "function"
    },
    {
      "inputs": [],
      "name": "EXE",
      "outputs": [
        {
          "internalType": "bytes32",
          "name": "",
          "type": "bytes32"
        }
      ],
      "stateMutability": "view",
      "type": "function"
    },
    {
      "inputs": [],
      "name": "PROPS",
      "outputs": [
        {
          "internalType": "bytes32",
          "name": "",
          "type": "bytes32"
        }
      ],
      "stateMutability": "view",
      "type": "function"
    },
    {
      "inputs": [],
      "name": "VOTE_BOOTH",
      "outputs": [
        {
          "internalType": "bytes32",
          "name": "",
          "type": "bytes32"
        }
      ],
      "stateMutability": "view",
      "type": "function"
    },
    {
      "inputs": [],
      "name": "VOTE_WEIGHT",
      "outputs": [
        {
          "internalType": "bytes32",
          "name": "",
          "type": "bytes32"
        }
      ],
      "stateMutability": "view",
      "type": "function"
    }
  ],
  "bytecode": "0x61021a610053600b82828239805160001a607314610046577f4e487b7100000000000000000000000000000000000000000000000000000000600052600060045260246000fd5b30600052607381538281f3fe73000000000000000000000000000000000000000030146080604052600436106100615760003560e01c80630bd8922d14610066578063296425b5146100845780639a39718b146100a2578063d082009d146100c0578063e9b67958146100de575b600080fd5b61006e6100fc565b60405161007b91906101bf565b60405180910390f35b61008c610120565b60405161009991906101bf565b60405180910390f35b6100aa610144565b6040516100b791906101bf565b60405180910390f35b6100c8610168565b6040516100d591906101bf565b60405180910390f35b6100e661018c565b6040516100f391906101bf565b60405180910390f35b7fd578563424ab02f85ec03c6b1aee04947ebdd4a30db46cba3bcd7f56ef40b19981565b7fcdd7ba10b36b7349d5c9710e5e447ec8acaa8e3cbba8d20f4393eccf61f185b181565b7f346b2ab3a980432fd8f2e24828fc9f9ee2df1548701bc542f6ec17882b32762781565b7f36209a57dfd79e3872ec3a0c88c653bbe7e32a12306e5e1f92f118c1936ae8b281565b7f59e2d72f5870ccddd14d35394bd3c22374071b2da7c07a3d6c3b690400b7362881565b6101b9816101da565b82525050565b60006020820190506101d460008301846101b0565b92915050565b600081905091905056fea264697066735822122004cefd8caef9e431a6d7440810764d310c19430f3d58a9c947239ef2232b703964736f6c63430008070033",
  "linkReferences": {},
  "deployedLinkReferences": {}
}