{
  "_format": "hh-sol-artifact-1",
  "contractName": "CoreLib",
  "sourceName": "contracts/CoreLib.sol",
  "abi": [
    {
      "inputs": [],
      "name": "COORD",
      "outputs": [
        {
          "internalType": "bytes32",
          "name": "",
          "type": "bytes32"
        }
      ],
      "stateMutability": "view",
      "type": "function"
    },
    {
      "inputs": [],
      "name": "EXE",
      "outputs": [
        {
          "internalType": "bytes32",
          "name": "",
          "type": "bytes32"
        }
      ],
      "stateMutability": "view",
      "type": "function"
    },
    {
      "inputs": [],
      "name": "PROPS",
      "outputs": [
        {
          "internalType": "bytes32",
          "name": "",
          "type": "bytes32"
        }
      ],
      "stateMutability": "view",
      "type": "function"
    },
    {
      "inputs": [],
      "name": "VOTE_BOOTH",
      "outputs": [
        {
          "internalType": "bytes32",
          "name": "",
          "type": "bytes32"
        }
      ],
      "stateMutability": "view",
      "type": "function"
    },
    {
      "inputs": [],
      "name": "VOTE_STORAGE",
      "outputs": [
        {
          "internalType": "bytes32",
          "name": "",
          "type": "bytes32"
        }
      ],
      "stateMutability": "view",
      "type": "function"
    },
    {
      "inputs": [],
      "name": "VOTE_WEIGHT",
      "outputs": [
        {
          "internalType": "bytes32",
          "name": "",
          "type": "bytes32"
        }
      ],
      "stateMutability": "view",
      "type": "function"
    }
  ],
  "bytecode": "0x610267610053600b82828239805160001a607314610046577f4e487b7100000000000000000000000000000000000000000000000000000000600052600060045260246000fd5b30600052607381538281f3fe730000000000000000000000000000000000000000301460806040526004361061006c5760003560e01c80630bd8922d14610071578063296425b51461008f5780639a39718b146100ad5780639f7f51c4146100cb578063d082009d146100e9578063e9b6795814610107575b600080fd5b610079610125565b604051610086919061020c565b60405180910390f35b610097610149565b6040516100a4919061020c565b60405180910390f35b6100b561016d565b6040516100c2919061020c565b60405180910390f35b6100d3610191565b6040516100e0919061020c565b60405180910390f35b6100f16101b5565b6040516100fe919061020c565b60405180910390f35b61010f6101d9565b60405161011c919061020c565b60405180910390f35b7fd578563424ab02f85ec03c6b1aee04947ebdd4a30db46cba3bcd7f56ef40b19981565b7fcdd7ba10b36b7349d5c9710e5e447ec8acaa8e3cbba8d20f4393eccf61f185b181565b7f346b2ab3a980432fd8f2e24828fc9f9ee2df1548701bc542f6ec17882b32762781565b7f7dfc17bb0d457bae6e8486227f2cd21c13d11c6726291eaeef33e7ba8b8170f181565b7f36209a57dfd79e3872ec3a0c88c653bbe7e32a12306e5e1f92f118c1936ae8b281565b7f59e2d72f5870ccddd14d35394bd3c22374071b2da7c07a3d6c3b690400b7362881565b61020681610227565b82525050565b600060208201905061022160008301846101fd565b92915050565b600081905091905056fea26469706673582212209d91d0c09c7f60c20ec8c8f7443a77f23cef67a7447e4cdfce8022403d0e2b0564736f6c63430008070033",
  "linkReferences": {},
  "deployedLinkReferences": {}
}