{
  "_format": "hh-sol-artifact-1",
  "contractName": "CoreLib",
  "sourceName": "contracts/CoreLib.sol",
  "abi": [
    {
      "inputs": [],
      "name": "COORD",
      "outputs": [
        {
          "internalType": "bytes32",
          "name": "",
          "type": "bytes32"
        }
      ],
      "stateMutability": "view",
      "type": "function"
    },
    {
      "inputs": [],
      "name": "CORE",
      "outputs": [
        {
          "internalType": "bytes32",
          "name": "",
          "type": "bytes32"
        }
      ],
      "stateMutability": "view",
      "type": "function"
    },
    {
      "inputs": [],
      "name": "EXE",
      "outputs": [
        {
          "internalType": "bytes32",
          "name": "",
          "type": "bytes32"
        }
      ],
      "stateMutability": "view",
      "type": "function"
    },
    {
      "inputs": [],
      "name": "PROPS",
      "outputs": [
        {
          "internalType": "bytes32",
          "name": "",
          "type": "bytes32"
        }
      ],
      "stateMutability": "view",
      "type": "function"
    },
    {
      "inputs": [],
      "name": "VOTE_BOOTH",
      "outputs": [
        {
          "internalType": "bytes32",
          "name": "",
          "type": "bytes32"
        }
      ],
      "stateMutability": "view",
      "type": "function"
    },
    {
      "inputs": [],
      "name": "VOTE_STORAGE",
      "outputs": [
        {
          "internalType": "bytes32",
          "name": "",
          "type": "bytes32"
        }
      ],
      "stateMutability": "view",
      "type": "function"
    },
    {
      "inputs": [],
      "name": "VOTE_WEIGHT",
      "outputs": [
        {
          "internalType": "bytes32",
          "name": "",
          "type": "bytes32"
        }
      ],
      "stateMutability": "view",
      "type": "function"
    }
  ],
  "bytecode": "0x6102c4610053600b82828239805160001a607314610046577f4e487b7100000000000000000000000000000000000000000000000000000000600052600060045260246000fd5b30600052607381538281f3fe73000000000000000000000000000000000000000030146080604052600436106100875760003560e01c80639a39718b116100655780639a39718b146100e65780639f7f51c414610104578063d082009d14610122578063e9b679581461014057610087565b80630bd8922d1461008c578063296425b5146100aa5780636b6c0774146100c8575b600080fd5b61009461015e565b6040516100a19190610269565b60405180910390f35b6100b2610182565b6040516100bf9190610269565b60405180910390f35b6100d06101a6565b6040516100dd9190610269565b60405180910390f35b6100ee6101ca565b6040516100fb9190610269565b60405180910390f35b61010c6101ee565b6040516101199190610269565b60405180910390f35b61012a610212565b6040516101379190610269565b60405180910390f35b610148610236565b6040516101559190610269565b60405180910390f35b7fd578563424ab02f85ec03c6b1aee04947ebdd4a30db46cba3bcd7f56ef40b19981565b7fcdd7ba10b36b7349d5c9710e5e447ec8acaa8e3cbba8d20f4393eccf61f185b181565b7f907208bc2088fa777f18b43edd8b766e7243504cf8497f7ed936c65c7a446bbc81565b7f346b2ab3a980432fd8f2e24828fc9f9ee2df1548701bc542f6ec17882b32762781565b7f92b17ff91a1f46cc9f1d4a69447ffdb215c04417e5debb5977aa0c45da3af9e781565b7f36209a57dfd79e3872ec3a0c88c653bbe7e32a12306e5e1f92f118c1936ae8b281565b7f59e2d72f5870ccddd14d35394bd3c22374071b2da7c07a3d6c3b690400b7362881565b61026381610284565b82525050565b600060208201905061027e600083018461025a565b92915050565b600081905091905056fea2646970667358221220793d650b9c8ab858776a4cc693cedfcf4e5b8c7d7cd61a58a698094eda75f0a364736f6c63430008070033",
  "linkReferences": {},
  "deployedLinkReferences": {}
}