{
	"data": {
		"bytecode": {
			"linkReferences": {},
			"object": "60a060405234801561001057600080fd5b50604051610f9f380380610f9f833981810160405281019061003291906100b7565b80806000806101000a81548173ffffffffffffffffffffffffffffffffffffffff021916908373ffffffffffffffffffffffffffffffffffffffff160217905550507f595bdf96918d0ad7f43f4c1d0843b468a6c7d543f2cfa9019e5e891a9f67c27b6080818152505050610132565b6000815190506100b18161011b565b92915050565b6000602082840312156100cd576100cc610116565b5b60006100db848285016100a2565b91505092915050565b60006100ef826100f6565b9050919050565b600073ffffffffffffffffffffffffffffffffffffffff82169050919050565b600080fd5b610124816100e4565b811461012f57600080fd5b50565b608051610e5261014d60003960006105aa0152610e526000f3fe608060405234801561001057600080fd5b506004361061010b5760003560e01c80636f6fb0a4116100a2578063a8b0c84511610071578063a8b0c845146102ba578063d32b1bea146102ea578063e06c9bc31461031a578063e6748da914610338578063e6a899b6146103545761010b565b80636f6fb0a41461020c578063934fb5f71461023c578063935760e71461026c5780639cf782cb1461028a5761010b565b80633c9747f3116100de5780633c9747f3146101985780633fb5c1cb146101b6578063557ed1ba146101d257806369142dc9146101f05761010b565b806316163c89146101105780631c39c38d1461014057806322f8e5661461015e57806329cb924d1461017a575b600080fd5b61012a60048036038101906101259190610955565b610372565b6040516101379190610bdb565b60405180910390f35b61014861039b565b6040516101559190610b38565b60405180910390f35b61017860048036038101906101739190610a3c565b6103bf565b005b6101826104a7565b60405161018f9190610c21565b60405180910390f35b6101a06105a8565b6040516101ad9190610b97565b60405180910390f35b6101d060048036038101906101cb9190610a3c565b6105cc565b005b6101da610617565b6040516101e79190610c21565b60405180910390f35b61020a600480360381019061020591906108c2565b610626565b005b610226600480360381019061022191906109af565b610698565b6040516102339190610bdb565b60405180910390f35b610256600480360381019061025191906109ef565b6106c4565b6040516102639190610b97565b60405180910390f35b6102746106f9565b6040516102819190610b38565b60405180910390f35b6102a4600480360381019061029f9190610982565b61071f565b6040516102b19190610b7c565b60405180910390f35b6102d460048036038101906102cf9190610915565b61072a565b6040516102e19190610bdb565b60405180910390f35b61030460048036038101906102ff9190610895565b610756565b6040516103119190610bdb565b60405180910390f35b61032261077f565b60405161032f9190610b97565b60405180910390f35b610352600480360381019061034d9190610982565b610785565b005b61035c6107d0565b6040516103699190610c21565b60405180910390f35b6060816040516020016103859190610b7c565b6040516020818303038152906040529050919050565b60008054906101000a900473ffffffffffffffffffffffffffffffffffffffff1681565b600073ffffffffffffffffffffffffffffffffffffffff1660008054906101000a900473ffffffffffffffffffffffffffffffffffffffff1673ffffffffffffffffffffffffffffffffffffffff16141561041957600080fd5b60008054906101000a900473ffffffffffffffffffffffffffffffffffffffff1673ffffffffffffffffffffffffffffffffffffffff166322f8e566826040518263ffffffff1660e01b81526004016104729190610c21565b600060405180830381600087803b15801561048c57600080fd5b505af11580156104a0573d6000803e3d6000fd5b5050505050565b60008073ffffffffffffffffffffffffffffffffffffffff1660008054906101000a900473ffffffffffffffffffffffffffffffffffffffff1673ffffffffffffffffffffffffffffffffffffffff16146105a15760008054906101000a900473ffffffffffffffffffffffffffffffffffffffff1673ffffffffffffffffffffffffffffffffffffffff166329cb924d6040518163ffffffff1660e01b815260040160206040518083038186803b15801561056257600080fd5b505afa158015610576573d6000803e3d6000fd5b505050506040513d601f19601f8201168201806040525081019061059a9190610a69565b90506105a5565b4290505b90565b7f000000000000000000000000000000000000000000000000000000000000000081565b8060018190555033600260006101000a81548173ffffffffffffffffffffffffffffffffffffffff021916908373ffffffffffffffffffffffffffffffffffffffff16021790555050565b60006106216104a7565b905090565b8273ffffffffffffffffffffffffffffffffffffffff166338c6878283836040518363ffffffff1660e01b8152600401610661929190610bb2565b600060405180830381600087803b15801561067b57600080fd5b505af115801561068f573d6000803e3d6000fd5b50505050505050565b606082826040516020016106ad929190610bb2565b604051602081830303815290604052905092915050565b600082826040516020016106d9929190610bfd565b6040516020818303038152906040526106f190610ccb565b905092915050565b600260009054906101000a900473ffffffffffffffffffffffffffffffffffffffff1681565b600060019050919050565b6060828260405160200161073f929190610b53565b604051602081830303815290604052905092915050565b6060816040516020016107699190610b38565b6040516020818303038152906040529050919050565b60035481565b8060038190555033600260006101000a81548173ffffffffffffffffffffffffffffffffffffffff021916908373ffffffffffffffffffffffffffffffffffffffff16021790555050565b60015481565b6000813590506107e581610dc0565b92915050565b6000813590506107fa81610dd7565b92915050565b60008135905061080f81610dee565b92915050565b60008083601f84011261082b5761082a610d8e565b5b8235905067ffffffffffffffff81111561084857610847610d89565b5b60208301915083600182028301111561086457610863610d93565b5b9250929050565b60008135905061087a81610e05565b92915050565b60008151905061088f81610e05565b92915050565b6000602082840312156108ab576108aa610d9d565b5b60006108b9848285016107d6565b91505092915050565b6000806000606084860312156108db576108da610d9d565b5b60006108e9868287016107d6565b93505060206108fa86828701610800565b925050604061090b868287016107d6565b9150509250925092565b6000806040838503121561092c5761092b610d9d565b5b600061093a858286016107d6565b925050602061094b8582860161086b565b9150509250929050565b60006020828403121561096b5761096a610d9d565b5b6000610979848285016107eb565b91505092915050565b60006020828403121561099857610997610d9d565b5b60006109a684828501610800565b91505092915050565b600080604083850312156109c6576109c5610d9d565b5b60006109d485828601610800565b92505060206109e5858286016107d6565b9150509250929050565b60008060208385031215610a0657610a05610d9d565b5b600083013567ffffffffffffffff811115610a2457610a23610d98565b5b610a3085828601610815565b92509250509250929050565b600060208284031215610a5257610a51610d9d565b5b6000610a608482850161086b565b91505092915050565b600060208284031215610a7f57610a7e610d9d565b5b6000610a8d84828501610880565b91505092915050565b610a9f81610c79565b82525050565b610aae81610c8b565b82525050565b610abd81610c97565b82525050565b6000610ace82610c4c565b610ad88185610c57565b9350610ae8818560208601610d41565b610af181610da2565b840191505092915050565b6000610b088385610c68565b9350610b15838584610d32565b610b1e83610da2565b840190509392505050565b610b3281610cc1565b82525050565b6000602082019050610b4d6000830184610a96565b92915050565b6000604082019050610b686000830185610a96565b610b756020830184610b29565b9392505050565b6000602082019050610b916000830184610aa5565b92915050565b6000602082019050610bac6000830184610ab4565b92915050565b6000604082019050610bc76000830185610ab4565b610bd46020830184610a96565b9392505050565b60006020820190508181036000830152610bf58184610ac3565b905092915050565b60006020820190508181036000830152610c18818486610afc565b90509392505050565b6000602082019050610c366000830184610b29565b92915050565b6000819050602082019050919050565b600081519050919050565b600082825260208201905092915050565b600082825260208201905092915050565b6000610c8482610ca1565b9050919050565b60008115159050919050565b6000819050919050565b600073ffffffffffffffffffffffffffffffffffffffff82169050919050565b6000819050919050565b6000610cd682610c4c565b82610ce084610c3c565b9050610ceb81610d74565b92506020821015610d2b57610d267fffffffffffffffffffffffffffffffffffffffffffffffffffffffffffffffff83602003600802610db3565b831692505b5050919050565b82818337600083830152505050565b60005b83811015610d5f578082015181840152602081019050610d44565b83811115610d6e576000848401525b50505050565b6000610d808251610c97565b80915050919050565b600080fd5b600080fd5b600080fd5b600080fd5b600080fd5b6000601f19601f8301169050919050565b600082821b905092915050565b610dc981610c79565b8114610dd457600080fd5b50565b610de081610c8b565b8114610deb57600080fd5b50565b610df781610c97565b8114610e0257600080fd5b50565b610e0e81610cc1565b8114610e1957600080fd5b5056fea2646970667358221220e6bca27725e845f267cd9527a7b8b860127d9c825f878e2a4297375c247e76b464736f6c63430008070033",
			"opcodes": "PUSH1 0xA0 PUSH1 0x40 MSTORE CALLVALUE DUP1 ISZERO PUSH2 0x10 JUMPI PUSH1 0x0 DUP1 REVERT JUMPDEST POP PUSH1 0x40 MLOAD PUSH2 0xF9F CODESIZE SUB DUP1 PUSH2 0xF9F DUP4 CODECOPY DUP2 DUP2 ADD PUSH1 0x40 MSTORE DUP2 ADD SWAP1 PUSH2 0x32 SWAP2 SWAP1 PUSH2 0xB7 JUMP JUMPDEST DUP1 DUP1 PUSH1 0x0 DUP1 PUSH2 0x100 EXP DUP2 SLOAD DUP2 PUSH20 0xFFFFFFFFFFFFFFFFFFFFFFFFFFFFFFFFFFFFFFFF MUL NOT AND SWAP1 DUP4 PUSH20 0xFFFFFFFFFFFFFFFFFFFFFFFFFFFFFFFFFFFFFFFF AND MUL OR SWAP1 SSTORE POP POP PUSH32 0x595BDF96918D0AD7F43F4C1D0843B468A6C7D543F2CFA9019E5E891A9F67C27B PUSH1 0x80 DUP2 DUP2 MSTORE POP POP POP PUSH2 0x132 JUMP JUMPDEST PUSH1 0x0 DUP2 MLOAD SWAP1 POP PUSH2 0xB1 DUP2 PUSH2 0x11B JUMP JUMPDEST SWAP3 SWAP2 POP POP JUMP JUMPDEST PUSH1 0x0 PUSH1 0x20 DUP3 DUP5 SUB SLT ISZERO PUSH2 0xCD JUMPI PUSH2 0xCC PUSH2 0x116 JUMP JUMPDEST JUMPDEST PUSH1 0x0 PUSH2 0xDB DUP5 DUP3 DUP6 ADD PUSH2 0xA2 JUMP JUMPDEST SWAP2 POP POP SWAP3 SWAP2 POP POP JUMP JUMPDEST PUSH1 0x0 PUSH2 0xEF DUP3 PUSH2 0xF6 JUMP JUMPDEST SWAP1 POP SWAP2 SWAP1 POP JUMP JUMPDEST PUSH1 0x0 PUSH20 0xFFFFFFFFFFFFFFFFFFFFFFFFFFFFFFFFFFFFFFFF DUP3 AND SWAP1 POP SWAP2 SWAP1 POP JUMP JUMPDEST PUSH1 0x0 DUP1 REVERT JUMPDEST PUSH2 0x124 DUP2 PUSH2 0xE4 JUMP JUMPDEST DUP2 EQ PUSH2 0x12F JUMPI PUSH1 0x0 DUP1 REVERT JUMPDEST POP JUMP JUMPDEST PUSH1 0x80 MLOAD PUSH2 0xE52 PUSH2 0x14D PUSH1 0x0 CODECOPY PUSH1 0x0 PUSH2 0x5AA ADD MSTORE PUSH2 0xE52 PUSH1 0x0 RETURN INVALID PUSH1 0x80 PUSH1 0x40 MSTORE CALLVALUE DUP1 ISZERO PUSH2 0x10 JUMPI PUSH1 0x0 DUP1 REVERT JUMPDEST POP PUSH1 0x4 CALLDATASIZE LT PUSH2 0x10B JUMPI PUSH1 0x0 CALLDATALOAD PUSH1 0xE0 SHR DUP1 PUSH4 0x6F6FB0A4 GT PUSH2 0xA2 JUMPI DUP1 PUSH4 0xA8B0C845 GT PUSH2 0x71 JUMPI DUP1 PUSH4 0xA8B0C845 EQ PUSH2 0x2BA JUMPI DUP1 PUSH4 0xD32B1BEA EQ PUSH2 0x2EA JUMPI DUP1 PUSH4 0xE06C9BC3 EQ PUSH2 0x31A JUMPI DUP1 PUSH4 0xE6748DA9 EQ PUSH2 0x338 JUMPI DUP1 PUSH4 0xE6A899B6 EQ PUSH2 0x354 JUMPI PUSH2 0x10B JUMP JUMPDEST DUP1 PUSH4 0x6F6FB0A4 EQ PUSH2 0x20C JUMPI DUP1 PUSH4 0x934FB5F7 EQ PUSH2 0x23C JUMPI DUP1 PUSH4 0x935760E7 EQ PUSH2 0x26C JUMPI DUP1 PUSH4 0x9CF782CB EQ PUSH2 0x28A JUMPI PUSH2 0x10B JUMP JUMPDEST DUP1 PUSH4 0x3C9747F3 GT PUSH2 0xDE JUMPI DUP1 PUSH4 0x3C9747F3 EQ PUSH2 0x198 JUMPI DUP1 PUSH4 0x3FB5C1CB EQ PUSH2 0x1B6 JUMPI DUP1 PUSH4 0x557ED1BA EQ PUSH2 0x1D2 JUMPI DUP1 PUSH4 0x69142DC9 EQ PUSH2 0x1F0 JUMPI PUSH2 0x10B JUMP JUMPDEST DUP1 PUSH4 0x16163C89 EQ PUSH2 0x110 JUMPI DUP1 PUSH4 0x1C39C38D EQ PUSH2 0x140 JUMPI DUP1 PUSH4 0x22F8E566 EQ PUSH2 0x15E JUMPI DUP1 PUSH4 0x29CB924D EQ PUSH2 0x17A JUMPI JUMPDEST PUSH1 0x0 DUP1 REVERT JUMPDEST PUSH2 0x12A PUSH1 0x4 DUP1 CALLDATASIZE SUB DUP2 ADD SWAP1 PUSH2 0x125 SWAP2 SWAP1 PUSH2 0x955 JUMP JUMPDEST PUSH2 0x372 JUMP JUMPDEST PUSH1 0x40 MLOAD PUSH2 0x137 SWAP2 SWAP1 PUSH2 0xBDB JUMP JUMPDEST PUSH1 0x40 MLOAD DUP1 SWAP2 SUB SWAP1 RETURN JUMPDEST PUSH2 0x148 PUSH2 0x39B JUMP JUMPDEST PUSH1 0x40 MLOAD PUSH2 0x155 SWAP2 SWAP1 PUSH2 0xB38 JUMP JUMPDEST PUSH1 0x40 MLOAD DUP1 SWAP2 SUB SWAP1 RETURN JUMPDEST PUSH2 0x178 PUSH1 0x4 DUP1 CALLDATASIZE SUB DUP2 ADD SWAP1 PUSH2 0x173 SWAP2 SWAP1 PUSH2 0xA3C JUMP JUMPDEST PUSH2 0x3BF JUMP JUMPDEST STOP JUMPDEST PUSH2 0x182 PUSH2 0x4A7 JUMP JUMPDEST PUSH1 0x40 MLOAD PUSH2 0x18F SWAP2 SWAP1 PUSH2 0xC21 JUMP JUMPDEST PUSH1 0x40 MLOAD DUP1 SWAP2 SUB SWAP1 RETURN JUMPDEST PUSH2 0x1A0 PUSH2 0x5A8 JUMP JUMPDEST PUSH1 0x40 MLOAD PUSH2 0x1AD SWAP2 SWAP1 PUSH2 0xB97 JUMP JUMPDEST PUSH1 0x40 MLOAD DUP1 SWAP2 SUB SWAP1 RETURN JUMPDEST PUSH2 0x1D0 PUSH1 0x4 DUP1 CALLDATASIZE SUB DUP2 ADD SWAP1 PUSH2 0x1CB SWAP2 SWAP1 PUSH2 0xA3C JUMP JUMPDEST PUSH2 0x5CC JUMP JUMPDEST STOP JUMPDEST PUSH2 0x1DA PUSH2 0x617 JUMP JUMPDEST PUSH1 0x40 MLOAD PUSH2 0x1E7 SWAP2 SWAP1 PUSH2 0xC21 JUMP JUMPDEST PUSH1 0x40 MLOAD DUP1 SWAP2 SUB SWAP1 RETURN JUMPDEST PUSH2 0x20A PUSH1 0x4 DUP1 CALLDATASIZE SUB DUP2 ADD SWAP1 PUSH2 0x205 SWAP2 SWAP1 PUSH2 0x8C2 JUMP JUMPDEST PUSH2 0x626 JUMP JUMPDEST STOP JUMPDEST PUSH2 0x226 PUSH1 0x4 DUP1 CALLDATASIZE SUB DUP2 ADD SWAP1 PUSH2 0x221 SWAP2 SWAP1 PUSH2 0x9AF JUMP JUMPDEST PUSH2 0x698 JUMP JUMPDEST PUSH1 0x40 MLOAD PUSH2 0x233 SWAP2 SWAP1 PUSH2 0xBDB JUMP JUMPDEST PUSH1 0x40 MLOAD DUP1 SWAP2 SUB SWAP1 RETURN JUMPDEST PUSH2 0x256 PUSH1 0x4 DUP1 CALLDATASIZE SUB DUP2 ADD SWAP1 PUSH2 0x251 SWAP2 SWAP1 PUSH2 0x9EF JUMP JUMPDEST PUSH2 0x6C4 JUMP JUMPDEST PUSH1 0x40 MLOAD PUSH2 0x263 SWAP2 SWAP1 PUSH2 0xB97 JUMP JUMPDEST PUSH1 0x40 MLOAD DUP1 SWAP2 SUB SWAP1 RETURN JUMPDEST PUSH2 0x274 PUSH2 0x6F9 JUMP JUMPDEST PUSH1 0x40 MLOAD PUSH2 0x281 SWAP2 SWAP1 PUSH2 0xB38 JUMP JUMPDEST PUSH1 0x40 MLOAD DUP1 SWAP2 SUB SWAP1 RETURN JUMPDEST PUSH2 0x2A4 PUSH1 0x4 DUP1 CALLDATASIZE SUB DUP2 ADD SWAP1 PUSH2 0x29F SWAP2 SWAP1 PUSH2 0x982 JUMP JUMPDEST PUSH2 0x71F JUMP JUMPDEST PUSH1 0x40 MLOAD PUSH2 0x2B1 SWAP2 SWAP1 PUSH2 0xB7C JUMP JUMPDEST PUSH1 0x40 MLOAD DUP1 SWAP2 SUB SWAP1 RETURN JUMPDEST PUSH2 0x2D4 PUSH1 0x4 DUP1 CALLDATASIZE SUB DUP2 ADD SWAP1 PUSH2 0x2CF SWAP2 SWAP1 PUSH2 0x915 JUMP JUMPDEST PUSH2 0x72A JUMP JUMPDEST PUSH1 0x40 MLOAD PUSH2 0x2E1 SWAP2 SWAP1 PUSH2 0xBDB JUMP JUMPDEST PUSH1 0x40 MLOAD DUP1 SWAP2 SUB SWAP1 RETURN JUMPDEST PUSH2 0x304 PUSH1 0x4 DUP1 CALLDATASIZE SUB DUP2 ADD SWAP1 PUSH2 0x2FF SWAP2 SWAP1 PUSH2 0x895 JUMP JUMPDEST PUSH2 0x756 JUMP JUMPDEST PUSH1 0x40 MLOAD PUSH2 0x311 SWAP2 SWAP1 PUSH2 0xBDB JUMP JUMPDEST PUSH1 0x40 MLOAD DUP1 SWAP2 SUB SWAP1 RETURN JUMPDEST PUSH2 0x322 PUSH2 0x77F JUMP JUMPDEST PUSH1 0x40 MLOAD PUSH2 0x32F SWAP2 SWAP1 PUSH2 0xB97 JUMP JUMPDEST PUSH1 0x40 MLOAD DUP1 SWAP2 SUB SWAP1 RETURN JUMPDEST PUSH2 0x352 PUSH1 0x4 DUP1 CALLDATASIZE SUB DUP2 ADD SWAP1 PUSH2 0x34D SWAP2 SWAP1 PUSH2 0x982 JUMP JUMPDEST PUSH2 0x785 JUMP JUMPDEST STOP JUMPDEST PUSH2 0x35C PUSH2 0x7D0 JUMP JUMPDEST PUSH1 0x40 MLOAD PUSH2 0x369 SWAP2 SWAP1 PUSH2 0xC21 JUMP JUMPDEST PUSH1 0x40 MLOAD DUP1 SWAP2 SUB SWAP1 RETURN JUMPDEST PUSH1 0x60 DUP2 PUSH1 0x40 MLOAD PUSH1 0x20 ADD PUSH2 0x385 SWAP2 SWAP1 PUSH2 0xB7C JUMP JUMPDEST PUSH1 0x40 MLOAD PUSH1 0x20 DUP2 DUP4 SUB SUB DUP2 MSTORE SWAP1 PUSH1 0x40 MSTORE SWAP1 POP SWAP2 SWAP1 POP JUMP JUMPDEST PUSH1 0x0 DUP1 SLOAD SWAP1 PUSH2 0x100 EXP SWAP1 DIV PUSH20 0xFFFFFFFFFFFFFFFFFFFFFFFFFFFFFFFFFFFFFFFF AND DUP2 JUMP JUMPDEST PUSH1 0x0 PUSH20 0xFFFFFFFFFFFFFFFFFFFFFFFFFFFFFFFFFFFFFFFF AND PUSH1 0x0 DUP1 SLOAD SWAP1 PUSH2 0x100 EXP SWAP1 DIV PUSH20 0xFFFFFFFFFFFFFFFFFFFFFFFFFFFFFFFFFFFFFFFF AND PUSH20 0xFFFFFFFFFFFFFFFFFFFFFFFFFFFFFFFFFFFFFFFF AND EQ ISZERO PUSH2 0x419 JUMPI PUSH1 0x0 DUP1 REVERT JUMPDEST PUSH1 0x0 DUP1 SLOAD SWAP1 PUSH2 0x100 EXP SWAP1 DIV PUSH20 0xFFFFFFFFFFFFFFFFFFFFFFFFFFFFFFFFFFFFFFFF AND PUSH20 0xFFFFFFFFFFFFFFFFFFFFFFFFFFFFFFFFFFFFFFFF AND PUSH4 0x22F8E566 DUP3 PUSH1 0x40 MLOAD DUP3 PUSH4 0xFFFFFFFF AND PUSH1 0xE0 SHL DUP2 MSTORE PUSH1 0x4 ADD PUSH2 0x472 SWAP2 SWAP1 PUSH2 0xC21 JUMP JUMPDEST PUSH1 0x0 PUSH1 0x40 MLOAD DUP1 DUP4 SUB DUP2 PUSH1 0x0 DUP8 DUP1 EXTCODESIZE ISZERO DUP1 ISZERO PUSH2 0x48C JUMPI PUSH1 0x0 DUP1 REVERT JUMPDEST POP GAS CALL ISZERO DUP1 ISZERO PUSH2 0x4A0 JUMPI RETURNDATASIZE PUSH1 0x0 DUP1 RETURNDATACOPY RETURNDATASIZE PUSH1 0x0 REVERT JUMPDEST POP POP POP POP POP JUMP JUMPDEST PUSH1 0x0 DUP1 PUSH20 0xFFFFFFFFFFFFFFFFFFFFFFFFFFFFFFFFFFFFFFFF AND PUSH1 0x0 DUP1 SLOAD SWAP1 PUSH2 0x100 EXP SWAP1 DIV PUSH20 0xFFFFFFFFFFFFFFFFFFFFFFFFFFFFFFFFFFFFFFFF AND PUSH20 0xFFFFFFFFFFFFFFFFFFFFFFFFFFFFFFFFFFFFFFFF AND EQ PUSH2 0x5A1 JUMPI PUSH1 0x0 DUP1 SLOAD SWAP1 PUSH2 0x100 EXP SWAP1 DIV PUSH20 0xFFFFFFFFFFFFFFFFFFFFFFFFFFFFFFFFFFFFFFFF AND PUSH20 0xFFFFFFFFFFFFFFFFFFFFFFFFFFFFFFFFFFFFFFFF AND PUSH4 0x29CB924D PUSH1 0x40 MLOAD DUP2 PUSH4 0xFFFFFFFF AND PUSH1 0xE0 SHL DUP2 MSTORE PUSH1 0x4 ADD PUSH1 0x20 PUSH1 0x40 MLOAD DUP1 DUP4 SUB DUP2 DUP7 DUP1 EXTCODESIZE ISZERO DUP1 ISZERO PUSH2 0x562 JUMPI PUSH1 0x0 DUP1 REVERT JUMPDEST POP GAS STATICCALL ISZERO DUP1 ISZERO PUSH2 0x576 JUMPI RETURNDATASIZE PUSH1 0x0 DUP1 RETURNDATACOPY RETURNDATASIZE PUSH1 0x0 REVERT JUMPDEST POP POP POP POP PUSH1 0x40 MLOAD RETURNDATASIZE PUSH1 0x1F NOT PUSH1 0x1F DUP3 ADD AND DUP3 ADD DUP1 PUSH1 0x40 MSTORE POP DUP2 ADD SWAP1 PUSH2 0x59A SWAP2 SWAP1 PUSH2 0xA69 JUMP JUMPDEST SWAP1 POP PUSH2 0x5A5 JUMP JUMPDEST TIMESTAMP SWAP1 POP JUMPDEST SWAP1 JUMP JUMPDEST PUSH32 0x0 DUP2 JUMP JUMPDEST DUP1 PUSH1 0x1 DUP2 SWAP1 SSTORE POP CALLER PUSH1 0x2 PUSH1 0x0 PUSH2 0x100 EXP DUP2 SLOAD DUP2 PUSH20 0xFFFFFFFFFFFFFFFFFFFFFFFFFFFFFFFFFFFFFFFF MUL NOT AND SWAP1 DUP4 PUSH20 0xFFFFFFFFFFFFFFFFFFFFFFFFFFFFFFFFFFFFFFFF AND MUL OR SWAP1 SSTORE POP POP JUMP JUMPDEST PUSH1 0x0 PUSH2 0x621 PUSH2 0x4A7 JUMP JUMPDEST SWAP1 POP SWAP1 JUMP JUMPDEST DUP3 PUSH20 0xFFFFFFFFFFFFFFFFFFFFFFFFFFFFFFFFFFFFFFFF AND PUSH4 0x38C68782 DUP4 DUP4 PUSH1 0x40 MLOAD DUP4 PUSH4 0xFFFFFFFF AND PUSH1 0xE0 SHL DUP2 MSTORE PUSH1 0x4 ADD PUSH2 0x661 SWAP3 SWAP2 SWAP1 PUSH2 0xBB2 JUMP JUMPDEST PUSH1 0x0 PUSH1 0x40 MLOAD DUP1 DUP4 SUB DUP2 PUSH1 0x0 DUP8 DUP1 EXTCODESIZE ISZERO DUP1 ISZERO PUSH2 0x67B JUMPI PUSH1 0x0 DUP1 REVERT JUMPDEST POP GAS CALL ISZERO DUP1 ISZERO PUSH2 0x68F JUMPI RETURNDATASIZE PUSH1 0x0 DUP1 RETURNDATACOPY RETURNDATASIZE PUSH1 0x0 REVERT JUMPDEST POP POP POP POP POP POP POP JUMP JUMPDEST PUSH1 0x60 DUP3 DUP3 PUSH1 0x40 MLOAD PUSH1 0x20 ADD PUSH2 0x6AD SWAP3 SWAP2 SWAP1 PUSH2 0xBB2 JUMP JUMPDEST PUSH1 0x40 MLOAD PUSH1 0x20 DUP2 DUP4 SUB SUB DUP2 MSTORE SWAP1 PUSH1 0x40 MSTORE SWAP1 POP SWAP3 SWAP2 POP POP JUMP JUMPDEST PUSH1 0x0 DUP3 DUP3 PUSH1 0x40 MLOAD PUSH1 0x20 ADD PUSH2 0x6D9 SWAP3 SWAP2 SWAP1 PUSH2 0xBFD JUMP JUMPDEST PUSH1 0x40 MLOAD PUSH1 0x20 DUP2 DUP4 SUB SUB DUP2 MSTORE SWAP1 PUSH1 0x40 MSTORE PUSH2 0x6F1 SWAP1 PUSH2 0xCCB JUMP JUMPDEST SWAP1 POP SWAP3 SWAP2 POP POP JUMP JUMPDEST PUSH1 0x2 PUSH1 0x0 SWAP1 SLOAD SWAP1 PUSH2 0x100 EXP SWAP1 DIV PUSH20 0xFFFFFFFFFFFFFFFFFFFFFFFFFFFFFFFFFFFFFFFF AND DUP2 JUMP JUMPDEST PUSH1 0x0 PUSH1 0x1 SWAP1 POP SWAP2 SWAP1 POP JUMP JUMPDEST PUSH1 0x60 DUP3 DUP3 PUSH1 0x40 MLOAD PUSH1 0x20 ADD PUSH2 0x73F SWAP3 SWAP2 SWAP1 PUSH2 0xB53 JUMP JUMPDEST PUSH1 0x40 MLOAD PUSH1 0x20 DUP2 DUP4 SUB SUB DUP2 MSTORE SWAP1 PUSH1 0x40 MSTORE SWAP1 POP SWAP3 SWAP2 POP POP JUMP JUMPDEST PUSH1 0x60 DUP2 PUSH1 0x40 MLOAD PUSH1 0x20 ADD PUSH2 0x769 SWAP2 SWAP1 PUSH2 0xB38 JUMP JUMPDEST PUSH1 0x40 MLOAD PUSH1 0x20 DUP2 DUP4 SUB SUB DUP2 MSTORE SWAP1 PUSH1 0x40 MSTORE SWAP1 POP SWAP2 SWAP1 POP JUMP JUMPDEST PUSH1 0x3 SLOAD DUP2 JUMP JUMPDEST DUP1 PUSH1 0x3 DUP2 SWAP1 SSTORE POP CALLER PUSH1 0x2 PUSH1 0x0 PUSH2 0x100 EXP DUP2 SLOAD DUP2 PUSH20 0xFFFFFFFFFFFFFFFFFFFFFFFFFFFFFFFFFFFFFFFF MUL NOT AND SWAP1 DUP4 PUSH20 0xFFFFFFFFFFFFFFFFFFFFFFFFFFFFFFFFFFFFFFFF AND MUL OR SWAP1 SSTORE POP POP JUMP JUMPDEST PUSH1 0x1 SLOAD DUP2 JUMP JUMPDEST PUSH1 0x0 DUP2 CALLDATALOAD SWAP1 POP PUSH2 0x7E5 DUP2 PUSH2 0xDC0 JUMP JUMPDEST SWAP3 SWAP2 POP POP JUMP JUMPDEST PUSH1 0x0 DUP2 CALLDATALOAD SWAP1 POP PUSH2 0x7FA DUP2 PUSH2 0xDD7 JUMP JUMPDEST SWAP3 SWAP2 POP POP JUMP JUMPDEST PUSH1 0x0 DUP2 CALLDATALOAD SWAP1 POP PUSH2 0x80F DUP2 PUSH2 0xDEE JUMP JUMPDEST SWAP3 SWAP2 POP POP JUMP JUMPDEST PUSH1 0x0 DUP1 DUP4 PUSH1 0x1F DUP5 ADD SLT PUSH2 0x82B JUMPI PUSH2 0x82A PUSH2 0xD8E JUMP JUMPDEST JUMPDEST DUP3 CALLDATALOAD SWAP1 POP PUSH8 0xFFFFFFFFFFFFFFFF DUP2 GT ISZERO PUSH2 0x848 JUMPI PUSH2 0x847 PUSH2 0xD89 JUMP JUMPDEST JUMPDEST PUSH1 0x20 DUP4 ADD SWAP2 POP DUP4 PUSH1 0x1 DUP3 MUL DUP4 ADD GT ISZERO PUSH2 0x864 JUMPI PUSH2 0x863 PUSH2 0xD93 JUMP JUMPDEST JUMPDEST SWAP3 POP SWAP3 SWAP1 POP JUMP JUMPDEST PUSH1 0x0 DUP2 CALLDATALOAD SWAP1 POP PUSH2 0x87A DUP2 PUSH2 0xE05 JUMP JUMPDEST SWAP3 SWAP2 POP POP JUMP JUMPDEST PUSH1 0x0 DUP2 MLOAD SWAP1 POP PUSH2 0x88F DUP2 PUSH2 0xE05 JUMP JUMPDEST SWAP3 SWAP2 POP POP JUMP JUMPDEST PUSH1 0x0 PUSH1 0x20 DUP3 DUP5 SUB SLT ISZERO PUSH2 0x8AB JUMPI PUSH2 0x8AA PUSH2 0xD9D JUMP JUMPDEST JUMPDEST PUSH1 0x0 PUSH2 0x8B9 DUP5 DUP3 DUP6 ADD PUSH2 0x7D6 JUMP JUMPDEST SWAP2 POP POP SWAP3 SWAP2 POP POP JUMP JUMPDEST PUSH1 0x0 DUP1 PUSH1 0x0 PUSH1 0x60 DUP5 DUP7 SUB SLT ISZERO PUSH2 0x8DB JUMPI PUSH2 0x8DA PUSH2 0xD9D JUMP JUMPDEST JUMPDEST PUSH1 0x0 PUSH2 0x8E9 DUP7 DUP3 DUP8 ADD PUSH2 0x7D6 JUMP JUMPDEST SWAP4 POP POP PUSH1 0x20 PUSH2 0x8FA DUP7 DUP3 DUP8 ADD PUSH2 0x800 JUMP JUMPDEST SWAP3 POP POP PUSH1 0x40 PUSH2 0x90B DUP7 DUP3 DUP8 ADD PUSH2 0x7D6 JUMP JUMPDEST SWAP2 POP POP SWAP3 POP SWAP3 POP SWAP3 JUMP JUMPDEST PUSH1 0x0 DUP1 PUSH1 0x40 DUP4 DUP6 SUB SLT ISZERO PUSH2 0x92C JUMPI PUSH2 0x92B PUSH2 0xD9D JUMP JUMPDEST JUMPDEST PUSH1 0x0 PUSH2 0x93A DUP6 DUP3 DUP7 ADD PUSH2 0x7D6 JUMP JUMPDEST SWAP3 POP POP PUSH1 0x20 PUSH2 0x94B DUP6 DUP3 DUP7 ADD PUSH2 0x86B JUMP JUMPDEST SWAP2 POP POP SWAP3 POP SWAP3 SWAP1 POP JUMP JUMPDEST PUSH1 0x0 PUSH1 0x20 DUP3 DUP5 SUB SLT ISZERO PUSH2 0x96B JUMPI PUSH2 0x96A PUSH2 0xD9D JUMP JUMPDEST JUMPDEST PUSH1 0x0 PUSH2 0x979 DUP5 DUP3 DUP6 ADD PUSH2 0x7EB JUMP JUMPDEST SWAP2 POP POP SWAP3 SWAP2 POP POP JUMP JUMPDEST PUSH1 0x0 PUSH1 0x20 DUP3 DUP5 SUB SLT ISZERO PUSH2 0x998 JUMPI PUSH2 0x997 PUSH2 0xD9D JUMP JUMPDEST JUMPDEST PUSH1 0x0 PUSH2 0x9A6 DUP5 DUP3 DUP6 ADD PUSH2 0x800 JUMP JUMPDEST SWAP2 POP POP SWAP3 SWAP2 POP POP JUMP JUMPDEST PUSH1 0x0 DUP1 PUSH1 0x40 DUP4 DUP6 SUB SLT ISZERO PUSH2 0x9C6 JUMPI PUSH2 0x9C5 PUSH2 0xD9D JUMP JUMPDEST JUMPDEST PUSH1 0x0 PUSH2 0x9D4 DUP6 DUP3 DUP7 ADD PUSH2 0x800 JUMP JUMPDEST SWAP3 POP POP PUSH1 0x20 PUSH2 0x9E5 DUP6 DUP3 DUP7 ADD PUSH2 0x7D6 JUMP JUMPDEST SWAP2 POP POP SWAP3 POP SWAP3 SWAP1 POP JUMP JUMPDEST PUSH1 0x0 DUP1 PUSH1 0x20 DUP4 DUP6 SUB SLT ISZERO PUSH2 0xA06 JUMPI PUSH2 0xA05 PUSH2 0xD9D JUMP JUMPDEST JUMPDEST PUSH1 0x0 DUP4 ADD CALLDATALOAD PUSH8 0xFFFFFFFFFFFFFFFF DUP2 GT ISZERO PUSH2 0xA24 JUMPI PUSH2 0xA23 PUSH2 0xD98 JUMP JUMPDEST JUMPDEST PUSH2 0xA30 DUP6 DUP3 DUP7 ADD PUSH2 0x815 JUMP JUMPDEST SWAP3 POP SWAP3 POP POP SWAP3 POP SWAP3 SWAP1 POP JUMP JUMPDEST PUSH1 0x0 PUSH1 0x20 DUP3 DUP5 SUB SLT ISZERO PUSH2 0xA52 JUMPI PUSH2 0xA51 PUSH2 0xD9D JUMP JUMPDEST JUMPDEST PUSH1 0x0 PUSH2 0xA60 DUP5 DUP3 DUP6 ADD PUSH2 0x86B JUMP JUMPDEST SWAP2 POP POP SWAP3 SWAP2 POP POP JUMP JUMPDEST PUSH1 0x0 PUSH1 0x20 DUP3 DUP5 SUB SLT ISZERO PUSH2 0xA7F JUMPI PUSH2 0xA7E PUSH2 0xD9D JUMP JUMPDEST JUMPDEST PUSH1 0x0 PUSH2 0xA8D DUP5 DUP3 DUP6 ADD PUSH2 0x880 JUMP JUMPDEST SWAP2 POP POP SWAP3 SWAP2 POP POP JUMP JUMPDEST PUSH2 0xA9F DUP2 PUSH2 0xC79 JUMP JUMPDEST DUP3 MSTORE POP POP JUMP JUMPDEST PUSH2 0xAAE DUP2 PUSH2 0xC8B JUMP JUMPDEST DUP3 MSTORE POP POP JUMP JUMPDEST PUSH2 0xABD DUP2 PUSH2 0xC97 JUMP JUMPDEST DUP3 MSTORE POP POP JUMP JUMPDEST PUSH1 0x0 PUSH2 0xACE DUP3 PUSH2 0xC4C JUMP JUMPDEST PUSH2 0xAD8 DUP2 DUP6 PUSH2 0xC57 JUMP JUMPDEST SWAP4 POP PUSH2 0xAE8 DUP2 DUP6 PUSH1 0x20 DUP7 ADD PUSH2 0xD41 JUMP JUMPDEST PUSH2 0xAF1 DUP2 PUSH2 0xDA2 JUMP JUMPDEST DUP5 ADD SWAP2 POP POP SWAP3 SWAP2 POP POP JUMP JUMPDEST PUSH1 0x0 PUSH2 0xB08 DUP4 DUP6 PUSH2 0xC68 JUMP JUMPDEST SWAP4 POP PUSH2 0xB15 DUP4 DUP6 DUP5 PUSH2 0xD32 JUMP JUMPDEST PUSH2 0xB1E DUP4 PUSH2 0xDA2 JUMP JUMPDEST DUP5 ADD SWAP1 POP SWAP4 SWAP3 POP POP POP JUMP JUMPDEST PUSH2 0xB32 DUP2 PUSH2 0xCC1 JUMP JUMPDEST DUP3 MSTORE POP POP JUMP JUMPDEST PUSH1 0x0 PUSH1 0x20 DUP3 ADD SWAP1 POP PUSH2 0xB4D PUSH1 0x0 DUP4 ADD DUP5 PUSH2 0xA96 JUMP JUMPDEST SWAP3 SWAP2 POP POP JUMP JUMPDEST PUSH1 0x0 PUSH1 0x40 DUP3 ADD SWAP1 POP PUSH2 0xB68 PUSH1 0x0 DUP4 ADD DUP6 PUSH2 0xA96 JUMP JUMPDEST PUSH2 0xB75 PUSH1 0x20 DUP4 ADD DUP5 PUSH2 0xB29 JUMP JUMPDEST SWAP4 SWAP3 POP POP POP JUMP JUMPDEST PUSH1 0x0 PUSH1 0x20 DUP3 ADD SWAP1 POP PUSH2 0xB91 PUSH1 0x0 DUP4 ADD DUP5 PUSH2 0xAA5 JUMP JUMPDEST SWAP3 SWAP2 POP POP JUMP JUMPDEST PUSH1 0x0 PUSH1 0x20 DUP3 ADD SWAP1 POP PUSH2 0xBAC PUSH1 0x0 DUP4 ADD DUP5 PUSH2 0xAB4 JUMP JUMPDEST SWAP3 SWAP2 POP POP JUMP JUMPDEST PUSH1 0x0 PUSH1 0x40 DUP3 ADD SWAP1 POP PUSH2 0xBC7 PUSH1 0x0 DUP4 ADD DUP6 PUSH2 0xAB4 JUMP JUMPDEST PUSH2 0xBD4 PUSH1 0x20 DUP4 ADD DUP5 PUSH2 0xA96 JUMP JUMPDEST SWAP4 SWAP3 POP POP POP JUMP JUMPDEST PUSH1 0x0 PUSH1 0x20 DUP3 ADD SWAP1 POP DUP2 DUP2 SUB PUSH1 0x0 DUP4 ADD MSTORE PUSH2 0xBF5 DUP2 DUP5 PUSH2 0xAC3 JUMP JUMPDEST SWAP1 POP SWAP3 SWAP2 POP POP JUMP JUMPDEST PUSH1 0x0 PUSH1 0x20 DUP3 ADD SWAP1 POP DUP2 DUP2 SUB PUSH1 0x0 DUP4 ADD MSTORE PUSH2 0xC18 DUP2 DUP5 DUP7 PUSH2 0xAFC JUMP JUMPDEST SWAP1 POP SWAP4 SWAP3 POP POP POP JUMP JUMPDEST PUSH1 0x0 PUSH1 0x20 DUP3 ADD SWAP1 POP PUSH2 0xC36 PUSH1 0x0 DUP4 ADD DUP5 PUSH2 0xB29 JUMP JUMPDEST SWAP3 SWAP2 POP POP JUMP JUMPDEST PUSH1 0x0 DUP2 SWAP1 POP PUSH1 0x20 DUP3 ADD SWAP1 POP SWAP2 SWAP1 POP JUMP JUMPDEST PUSH1 0x0 DUP2 MLOAD SWAP1 POP SWAP2 SWAP1 POP JUMP JUMPDEST PUSH1 0x0 DUP3 DUP3 MSTORE PUSH1 0x20 DUP3 ADD SWAP1 POP SWAP3 SWAP2 POP POP JUMP JUMPDEST PUSH1 0x0 DUP3 DUP3 MSTORE PUSH1 0x20 DUP3 ADD SWAP1 POP SWAP3 SWAP2 POP POP JUMP JUMPDEST PUSH1 0x0 PUSH2 0xC84 DUP3 PUSH2 0xCA1 JUMP JUMPDEST SWAP1 POP SWAP2 SWAP1 POP JUMP JUMPDEST PUSH1 0x0 DUP2 ISZERO ISZERO SWAP1 POP SWAP2 SWAP1 POP JUMP JUMPDEST PUSH1 0x0 DUP2 SWAP1 POP SWAP2 SWAP1 POP JUMP JUMPDEST PUSH1 0x0 PUSH20 0xFFFFFFFFFFFFFFFFFFFFFFFFFFFFFFFFFFFFFFFF DUP3 AND SWAP1 POP SWAP2 SWAP1 POP JUMP JUMPDEST PUSH1 0x0 DUP2 SWAP1 POP SWAP2 SWAP1 POP JUMP JUMPDEST PUSH1 0x0 PUSH2 0xCD6 DUP3 PUSH2 0xC4C JUMP JUMPDEST DUP3 PUSH2 0xCE0 DUP5 PUSH2 0xC3C JUMP JUMPDEST SWAP1 POP PUSH2 0xCEB DUP2 PUSH2 0xD74 JUMP JUMPDEST SWAP3 POP PUSH1 0x20 DUP3 LT ISZERO PUSH2 0xD2B JUMPI PUSH2 0xD26 PUSH32 0xFFFFFFFFFFFFFFFFFFFFFFFFFFFFFFFFFFFFFFFFFFFFFFFFFFFFFFFFFFFFFFFF DUP4 PUSH1 0x20 SUB PUSH1 0x8 MUL PUSH2 0xDB3 JUMP JUMPDEST DUP4 AND SWAP3 POP JUMPDEST POP POP SWAP2 SWAP1 POP JUMP JUMPDEST DUP3 DUP2 DUP4 CALLDATACOPY PUSH1 0x0 DUP4 DUP4 ADD MSTORE POP POP POP JUMP JUMPDEST PUSH1 0x0 JUMPDEST DUP4 DUP2 LT ISZERO PUSH2 0xD5F JUMPI DUP1 DUP3 ADD MLOAD DUP2 DUP5 ADD MSTORE PUSH1 0x20 DUP2 ADD SWAP1 POP PUSH2 0xD44 JUMP JUMPDEST DUP4 DUP2 GT ISZERO PUSH2 0xD6E JUMPI PUSH1 0x0 DUP5 DUP5 ADD MSTORE JUMPDEST POP POP POP POP JUMP JUMPDEST PUSH1 0x0 PUSH2 0xD80 DUP3 MLOAD PUSH2 0xC97 JUMP JUMPDEST DUP1 SWAP2 POP POP SWAP2 SWAP1 POP JUMP JUMPDEST PUSH1 0x0 DUP1 REVERT JUMPDEST PUSH1 0x0 DUP1 REVERT JUMPDEST PUSH1 0x0 DUP1 REVERT JUMPDEST PUSH1 0x0 DUP1 REVERT JUMPDEST PUSH1 0x0 DUP1 REVERT JUMPDEST PUSH1 0x0 PUSH1 0x1F NOT PUSH1 0x1F DUP4 ADD AND SWAP1 POP SWAP2 SWAP1 POP JUMP JUMPDEST PUSH1 0x0 DUP3 DUP3 SHL SWAP1 POP SWAP3 SWAP2 POP POP JUMP JUMPDEST PUSH2 0xDC9 DUP2 PUSH2 0xC79 JUMP JUMPDEST DUP2 EQ PUSH2 0xDD4 JUMPI PUSH1 0x0 DUP1 REVERT JUMPDEST POP JUMP JUMPDEST PUSH2 0xDE0 DUP2 PUSH2 0xC8B JUMP JUMPDEST DUP2 EQ PUSH2 0xDEB JUMPI PUSH1 0x0 DUP1 REVERT JUMPDEST POP JUMP JUMPDEST PUSH2 0xDF7 DUP2 PUSH2 0xC97 JUMP JUMPDEST DUP2 EQ PUSH2 0xE02 JUMPI PUSH1 0x0 DUP1 REVERT JUMPDEST POP JUMP JUMPDEST PUSH2 0xE0E DUP2 PUSH2 0xCC1 JUMP JUMPDEST DUP2 EQ PUSH2 0xE19 JUMPI PUSH1 0x0 DUP1 REVERT JUMPDEST POP JUMP INVALID LOG2 PUSH5 0x6970667358 0x22 SLT KECCAK256 0xE6 0xBC LOG2 PUSH24 0x25E845F267CD9527A7B8B860127D9C825F878E2A4297375C 0x24 PUSH31 0x76B464736F6C63430008070033000000000000000000000000000000000000 "
		},
		"gasEstimates": {
			"creation": {
				"codeDepositCost": "733200",
				"executionCost": "infinite",
				"totalCost": "infinite"
			},
			"external": {
				"IDENTIFIER()": "infinite",
				"aBytes()": "2495",
				"aNumber()": "2539",
				"addSub(address,bytes32,address)": "infinite",
				"anAddress()": "2581",
				"encodeAddress(address)": "infinite",
				"encodeBool(bool)": "infinite",
				"encodeBytes(address,uint256)": "infinite",
				"encodeBytes32(string)": "infinite",
				"encodeKeyAddress(bytes32,address)": "infinite",
				"getCurrentTime()": "infinite",
				"getTime()": "infinite",
				"isExecutable(bytes32)": "697",
				"setBytes(bytes32)": "46874",
				"setCurrentTime(uint256)": "infinite",
				"setNumber(uint256)": "46831",
				"timerAddress()": "2557"
			}
		},
		"methodIdentifiers": {
			"IDENTIFIER()": "3c9747f3",
			"aBytes()": "e06c9bc3",
			"aNumber()": "e6a899b6",
			"addSub(address,bytes32,address)": "69142dc9",
			"anAddress()": "935760e7",
			"encodeAddress(address)": "d32b1bea",
			"encodeBool(bool)": "16163c89",
			"encodeBytes(address,uint256)": "a8b0c845",
			"encodeBytes32(string)": "934fb5f7",
			"encodeKeyAddress(bytes32,address)": "6f6fb0a4",
			"getCurrentTime()": "29cb924d",
			"getTime()": "557ed1ba",
			"isExecutable(bytes32)": "9cf782cb",
			"setBytes(bytes32)": "e6748da9",
			"setCurrentTime(uint256)": "22f8e566",
			"setNumber(uint256)": "3fb5c1cb",
			"timerAddress()": "1c39c38d"
		}
	},
	"abi": [
		{
			"inputs": [
				{
					"internalType": "address",
					"name": "_timer",
					"type": "address"
				}
			],
			"stateMutability": "nonpayable",
			"type": "constructor"
		},
		{
			"inputs": [],
			"name": "IDENTIFIER",
			"outputs": [
				{
					"internalType": "bytes32",
					"name": "",
					"type": "bytes32"
				}
			],
			"stateMutability": "view",
			"type": "function"
		},
		{
			"inputs": [],
			"name": "aBytes",
			"outputs": [
				{
					"internalType": "bytes32",
					"name": "",
					"type": "bytes32"
				}
			],
			"stateMutability": "view",
			"type": "function"
		},
		{
			"inputs": [],
			"name": "aNumber",
			"outputs": [
				{
					"internalType": "uint256",
					"name": "",
					"type": "uint256"
				}
			],
			"stateMutability": "view",
			"type": "function"
		},
		{
			"inputs": [
				{
					"internalType": "address",
					"name": "_coord",
					"type": "address"
				},
				{
					"internalType": "bytes32",
					"name": "_subIdentifier",
					"type": "bytes32"
				},
				{
					"internalType": "address",
					"name": "_subImplementation",
					"type": "address"
				}
			],
			"name": "addSub",
			"outputs": [],
			"stateMutability": "nonpayable",
			"type": "function"
		},
		{
			"inputs": [],
			"name": "anAddress",
			"outputs": [
				{
					"internalType": "address",
					"name": "",
					"type": "address"
				}
			],
			"stateMutability": "view",
			"type": "function"
		},
		{
			"inputs": [
				{
					"internalType": "address",
					"name": "_index",
					"type": "address"
				}
			],
			"name": "encodeAddress",
			"outputs": [
				{
					"internalType": "bytes",
					"name": "",
					"type": "bytes"
				}
			],
			"stateMutability": "pure",
			"type": "function"
		},
		{
			"inputs": [
				{
					"internalType": "bool",
					"name": "_input",
					"type": "bool"
				}
			],
			"name": "encodeBool",
			"outputs": [
				{
					"internalType": "bytes",
					"name": "",
					"type": "bytes"
				}
			],
			"stateMutability": "pure",
			"type": "function"
		},
		{
			"inputs": [
				{
					"internalType": "address",
					"name": "_address",
					"type": "address"
				},
				{
					"internalType": "uint256",
					"name": "_number",
					"type": "uint256"
				}
			],
			"name": "encodeBytes",
			"outputs": [
				{
					"internalType": "bytes",
					"name": "",
					"type": "bytes"
				}
			],
			"stateMutability": "pure",
			"type": "function"
		},
		{
			"inputs": [
				{
					"internalType": "string",
					"name": "_string",
					"type": "string"
				}
			],
			"name": "encodeBytes32",
			"outputs": [
				{
					"internalType": "bytes32",
					"name": "",
					"type": "bytes32"
				}
			],
			"stateMutability": "pure",
			"type": "function"
		},
		{
			"inputs": [
				{
					"internalType": "bytes32",
					"name": "_key",
					"type": "bytes32"
				},
				{
					"internalType": "address",
					"name": "_index",
					"type": "address"
				}
			],
			"name": "encodeKeyAddress",
			"outputs": [
				{
					"internalType": "bytes",
					"name": "",
					"type": "bytes"
				}
			],
			"stateMutability": "pure",
			"type": "function"
		},
		{
			"inputs": [],
			"name": "getCurrentTime",
			"outputs": [
				{
					"internalType": "uint256",
					"name": "",
					"type": "uint256"
				}
			],
			"stateMutability": "view",
			"type": "function"
		},
		{
			"inputs": [],
			"name": "getTime",
			"outputs": [
				{
					"internalType": "uint256",
					"name": "",
					"type": "uint256"
				}
			],
			"stateMutability": "view",
			"type": "function"
		},
		{
			"inputs": [
				{
					"internalType": "bytes32",
					"name": "_exeID",
					"type": "bytes32"
				}
			],
			"name": "isExecutable",
			"outputs": [
				{
					"internalType": "bool",
					"name": "",
					"type": "bool"
				}
			],
			"stateMutability": "pure",
			"type": "function"
		},
		{
			"inputs": [
				{
					"internalType": "bytes32",
					"name": "_aBytes",
					"type": "bytes32"
				}
			],
			"name": "setBytes",
			"outputs": [],
			"stateMutability": "nonpayable",
			"type": "function"
		},
		{
			"inputs": [
				{
					"internalType": "uint256",
					"name": "time",
					"type": "uint256"
				}
			],
			"name": "setCurrentTime",
			"outputs": [],
			"stateMutability": "nonpayable",
			"type": "function"
		},
		{
			"inputs": [
				{
					"internalType": "uint256",
					"name": "_aNumber",
					"type": "uint256"
				}
			],
			"name": "setNumber",
			"outputs": [],
			"stateMutability": "nonpayable",
			"type": "function"
		},
		{
			"inputs": [],
			"name": "timerAddress",
			"outputs": [
				{
					"internalType": "address",
					"name": "",
					"type": "address"
				}
			],
			"stateMutability": "view",
			"type": "function"
		}
	]
}