{
  "_format": "hh-sol-artifact-1",
  "contractName": "SimpleMajority",
  "sourceName": "contracts/votingTypes/SimpleMajority.sol",
  "abi": [
    {
      "inputs": [
        {
          "internalType": "address",
          "name": "_core",
          "type": "address"
        }
      ],
      "stateMutability": "nonpayable",
      "type": "constructor"
    },
    {
      "inputs": [],
      "name": "IDENTIFIER",
      "outputs": [
        {
          "internalType": "bytes32",
          "name": "",
          "type": "bytes32"
        }
      ],
      "stateMutability": "view",
      "type": "function"
    },
    {
      "inputs": [],
      "name": "core_",
      "outputs": [
        {
          "internalType": "contract ICore",
          "name": "",
          "type": "address"
        }
      ],
      "stateMutability": "view",
      "type": "function"
    },
    {
      "inputs": [
        {
          "internalType": "bytes",
          "name": "_ballot",
          "type": "bytes"
        }
      ],
      "name": "decodeCastBallot",
      "outputs": [
        {
          "internalType": "bool",
          "name": "",
          "type": "bool"
        }
      ],
      "stateMutability": "pure",
      "type": "function"
    },
    {
      "inputs": [
        {
          "internalType": "uint256",
          "name": "_propID",
          "type": "uint256"
        },
        {
          "internalType": "bytes",
          "name": "_vote",
          "type": "bytes"
        },
        {
          "internalType": "address",
          "name": "_voter",
          "type": "address"
        }
      ],
      "name": "vote",
      "outputs": [
        {
          "internalType": "bool",
          "name": "",
          "type": "bool"
        }
      ],
      "stateMutability": "nonpayable",
      "type": "function"
    }
  ],
  "bytecode": "0x60c060405234801561001057600080fd5b50604051610e38380380610e38833981810160405281019061003291906100b0565b7fe927a917027ae678ece03159f7b891bcfbce4670390def18906836b285c642ae8181608081815250508073ffffffffffffffffffffffffffffffffffffffff1660a08173ffffffffffffffffffffffffffffffffffffffff1660601b8152505050505061012b565b6000815190506100aa81610114565b92915050565b6000602082840312156100c6576100c561010f565b5b60006100d48482850161009b565b91505092915050565b60006100e8826100ef565b9050919050565b600073ffffffffffffffffffffffffffffffffffffffff82169050919050565b600080fd5b61011d816100dd565b811461012857600080fd5b50565b60805160a05160601c610cd86101606000396000818161013001528181610157015261035c0152600060ef0152610cd86000f3fe608060405234801561001057600080fd5b506004361061004c5760003560e01c80633c9747f314610051578063646d87e81461006f578063eaddd0fd1461009f578063f636a053146100bd575b600080fd5b6100596100ed565b60405161006691906108f3565b60405180910390f35b61008960048036038101906100849190610729565b610111565b60405161009691906108d8565b60405180910390f35b6100a761012e565b6040516100b49190610930565b60405180910390f35b6100d760048036038101906100d2919061079f565b610152565b6040516100e491906108d8565b60405180910390f35b7f000000000000000000000000000000000000000000000000000000000000000081565b60008180602001905181019061012791906106fc565b9050919050565b7f000000000000000000000000000000000000000000000000000000000000000081565b6000807f000000000000000000000000000000000000000000000000000000000000000073ffffffffffffffffffffffffffffffffffffffff1663624a23e07f346b2ab3a980432fd8f2e24828fc9f9ee2df1548701bc542f6ec17882b3276276040518263ffffffff1660e01b81526004016101ce91906108f3565b60206040518083038186803b1580156101e657600080fd5b505afa1580156101fa573d6000803e3d6000fd5b505050506040513d601f19601f8201168201806040525081019061021e91906106cf565b905060008086815260200190815260200160002060020160008473ffffffffffffffffffffffffffffffffffffffff1673ffffffffffffffffffffffffffffffffffffffff16815260200190815260200160002060009054906101000a900460ff16156102c0576040517f08c379a00000000000000000000000000000000000000000000000000000000081526004016102b79061094b565b60405180910390fd5b600160008087815260200190815260200160002060020160008573ffffffffffffffffffffffffffffffffffffffff1673ffffffffffffffffffffffffffffffffffffffff16815260200190815260200160002060006101000a81548160ff021916908315150217905550600160008087815260200190815260200160002060030160008282546103519190610a37565b9250508190555060007f000000000000000000000000000000000000000000000000000000000000000073ffffffffffffffffffffffffffffffffffffffff1663624a23e07fcdd7ba10b36b7349d5c9710e5e447ec8acaa8e3cbba8d20f4393eccf61f185b16040518263ffffffff1660e01b81526004016103d391906108f3565b60206040518083038186803b1580156103eb57600080fd5b505afa1580156103ff573d6000803e3d6000fd5b505050506040513d601f19601f8201168201806040525081019061042391906106cf565b905060008173ffffffffffffffffffffffffffffffffffffffff16637eba557388876040518363ffffffff1660e01b815260040161046292919061098b565b602060405180830381600087803b15801561047c57600080fd5b505af1158015610490573d6000803e3d6000fd5b505050506040513d601f19601f820116820180604052508101906104b49190610772565b90503073ffffffffffffffffffffffffffffffffffffffff1663646d87e8876040518263ffffffff1660e01b81526004016104ef919061090e565b60206040518083038186803b15801561050757600080fd5b505afa92505050801561053857506040513d601f19601f8201168201806040525081019061053591906106fc565b60015b61058257600061057d576040517f08c379a00000000000000000000000000000000000000000000000000000000081526004016105749061096b565b60405180910390fd5b6105e8565b80156105b957816000808a815260200190815260200160002060000160008282546105ad9190610a37565b925050819055506105e6565b816000808a815260200190815260200160002060010160008282546105de9190610a37565b925050819055505b505b600193505050509392505050565b6000610609610604846109d9565b6109b4565b90508281526020810184848401111561062557610624610beb565b5b610630848285610b15565b509392505050565b60008135905061064781610c5d565b92915050565b60008151905061065c81610c5d565b92915050565b60008151905061067181610c74565b92915050565b600082601f83011261068c5761068b610be6565b5b813561069c8482602086016105f6565b91505092915050565b6000813590506106b481610c8b565b92915050565b6000815190506106c981610c8b565b92915050565b6000602082840312156106e5576106e4610bf5565b5b60006106f38482850161064d565b91505092915050565b60006020828403121561071257610711610bf5565b5b600061072084828501610662565b91505092915050565b60006020828403121561073f5761073e610bf5565b5b600082013567ffffffffffffffff81111561075d5761075c610bf0565b5b61076984828501610677565b91505092915050565b60006020828403121561078857610787610bf5565b5b6000610796848285016106ba565b91505092915050565b6000806000606084860312156107b8576107b7610bf5565b5b60006107c6868287016106a5565b935050602084013567ffffffffffffffff8111156107e7576107e6610bf0565b5b6107f386828701610677565b925050604061080486828701610638565b9150509250925092565b61081781610a8d565b82525050565b61082681610a9f565b82525050565b61083581610aab565b82525050565b600061084682610a0a565b6108508185610a15565b9350610860818560208601610b24565b61086981610bfa565b840191505092915050565b61087d81610adf565b82525050565b6000610890601f83610a26565b915061089b82610c0b565b602082019050919050565b60006108b3601a83610a26565b91506108be82610c34565b602082019050919050565b6108d281610ad5565b82525050565b60006020820190506108ed600083018461081d565b92915050565b6000602082019050610908600083018461082c565b92915050565b60006020820190508181036000830152610928818461083b565b905092915050565b60006020820190506109456000830184610874565b92915050565b6000602082019050818103600083015261096481610883565b9050919050565b60006020820190508181036000830152610984816108a6565b9050919050565b60006040820190506109a060008301856108c9565b6109ad602083018461080e565b9392505050565b60006109be6109cf565b90506109ca8282610b57565b919050565b6000604051905090565b600067ffffffffffffffff8211156109f4576109f3610bb7565b5b6109fd82610bfa565b9050602081019050919050565b600081519050919050565b600082825260208201905092915050565b600082825260208201905092915050565b6000610a4282610ad5565b9150610a4d83610ad5565b9250827fffffffffffffffffffffffffffffffffffffffffffffffffffffffffffffffff03821115610a8257610a81610b88565b5b828201905092915050565b6000610a9882610ab5565b9050919050565b60008115159050919050565b6000819050919050565b600073ffffffffffffffffffffffffffffffffffffffff82169050919050565b6000819050919050565b6000610aea82610af1565b9050919050565b6000610afc82610b03565b9050919050565b6000610b0e82610ab5565b9050919050565b82818337600083830152505050565b60005b83811015610b42578082015181840152602081019050610b27565b83811115610b51576000848401525b50505050565b610b6082610bfa565b810181811067ffffffffffffffff82111715610b7f57610b7e610bb7565b5b80604052505050565b7f4e487b7100000000000000000000000000000000000000000000000000000000600052601160045260246000fd5b7f4e487b7100000000000000000000000000000000000000000000000000000000600052604160045260246000fd5b600080fd5b600080fd5b600080fd5b600080fd5b6000601f19601f8301169050919050565b7f426f6f74683a20566f7465722048617320766f74656420666f722070726f7000600082015250565b7f566f746520696e636f72726563746c7920666f726d6174746564000000000000600082015250565b610c6681610a8d565b8114610c7157600080fd5b50565b610c7d81610a9f565b8114610c8857600080fd5b50565b610c9481610ad5565b8114610c9f57600080fd5b5056fea2646970667358221220655329f3a9c3a98e0e631cb0dbd0ba3eaaa149d90f8103128cdb7e06c1eacfbf64736f6c63430008070033",
  "linkReferences": {},
  "deployedLinkReferences": {}
}