{
  "_format": "hh-sol-artifact-1",
  "contractName": "SimpleMajority",
  "sourceName": "contracts/votingTypes/SimpleMajority.sol",
  "abi": [
    {
      "inputs": [
        {
          "internalType": "address",
          "name": "_core",
          "type": "address"
        }
      ],
      "stateMutability": "nonpayable",
      "type": "constructor"
    },
    {
      "inputs": [],
      "name": "IDENTIFIER",
      "outputs": [
        {
          "internalType": "bytes32",
          "name": "",
          "type": "bytes32"
        }
      ],
      "stateMutability": "view",
      "type": "function"
    },
    {
      "inputs": [],
      "name": "core_",
      "outputs": [
        {
          "internalType": "contract ICore",
          "name": "",
          "type": "address"
        }
      ],
      "stateMutability": "view",
      "type": "function"
    },
    {
      "inputs": [
        {
          "internalType": "bytes",
          "name": "_ballot",
          "type": "bytes"
        }
      ],
      "name": "decodeCastBallot",
      "outputs": [
        {
          "internalType": "bool",
          "name": "",
          "type": "bool"
        }
      ],
      "stateMutability": "pure",
      "type": "function"
    },
    {
      "inputs": [
        {
          "internalType": "uint256",
          "name": "_propID",
          "type": "uint256"
        },
        {
          "internalType": "bytes",
          "name": "_vote",
          "type": "bytes"
        },
        {
          "internalType": "address",
          "name": "_voter",
          "type": "address"
        }
      ],
      "name": "vote",
      "outputs": [
        {
          "internalType": "bool",
          "name": "",
          "type": "bool"
        }
      ],
      "stateMutability": "nonpayable",
      "type": "function"
    }
  ],
  "bytecode": "0x60c060405234801561001057600080fd5b50604051610f12380380610f12833981810160405281019061003291906100b0565b7fe927a917027ae678ece03159f7b891bcfbce4670390def18906836b285c642ae8181608081815250508073ffffffffffffffffffffffffffffffffffffffff1660a08173ffffffffffffffffffffffffffffffffffffffff1660601b8152505050505061012b565b6000815190506100aa81610114565b92915050565b6000602082840312156100c6576100c561010f565b5b60006100d48482850161009b565b91505092915050565b60006100e8826100ef565b9050919050565b600073ffffffffffffffffffffffffffffffffffffffff82169050919050565b600080fd5b61011d816100dd565b811461012857600080fd5b50565b60805160a05160601c610db2610160600039600081816101300152818161015701526103ca0152600060ef0152610db26000f3fe608060405234801561001057600080fd5b506004361061004c5760003560e01c80633c9747f314610051578063646d87e81461006f578063eaddd0fd1461009f578063f636a053146100bd575b600080fd5b6100596100ed565b6040516100669190610984565b60405180910390f35b61008960048036038101906100849190610797565b610111565b6040516100969190610969565b60405180910390f35b6100a761012e565b6040516100b491906109c1565b60405180910390f35b6100d760048036038101906100d2919061080d565b610152565b6040516100e49190610969565b60405180910390f35b7f000000000000000000000000000000000000000000000000000000000000000081565b600081806020019051810190610127919061076a565b9050919050565b7f000000000000000000000000000000000000000000000000000000000000000081565b6000807f000000000000000000000000000000000000000000000000000000000000000073ffffffffffffffffffffffffffffffffffffffff1663624a23e07f346b2ab3a980432fd8f2e24828fc9f9ee2df1548701bc542f6ec17882b3276276040518263ffffffff1660e01b81526004016101ce9190610984565b60206040518083038186803b1580156101e657600080fd5b505afa1580156101fa573d6000803e3d6000fd5b505050506040513d601f19601f8201168201806040525081019061021e919061073d565b90503373ffffffffffffffffffffffffffffffffffffffff168173ffffffffffffffffffffffffffffffffffffffff161461028e576040517f08c379a000000000000000000000000000000000000000000000000000000000815260040161028590610a1c565b60405180910390fd5b60008086815260200190815260200160002060020160008473ffffffffffffffffffffffffffffffffffffffff1673ffffffffffffffffffffffffffffffffffffffff16815260200190815260200160002060009054906101000a900460ff161561032e576040517f08c379a0000000000000000000000000000000000000000000000000000000008152600401610325906109dc565b60405180910390fd5b600160008087815260200190815260200160002060020160008573ffffffffffffffffffffffffffffffffffffffff1673ffffffffffffffffffffffffffffffffffffffff16815260200190815260200160002060006101000a81548160ff021916908315150217905550600160008087815260200190815260200160002060030160008282546103bf9190610ae8565b9250508190555060007f000000000000000000000000000000000000000000000000000000000000000073ffffffffffffffffffffffffffffffffffffffff1663624a23e07fcdd7ba10b36b7349d5c9710e5e447ec8acaa8e3cbba8d20f4393eccf61f185b16040518263ffffffff1660e01b81526004016104419190610984565b60206040518083038186803b15801561045957600080fd5b505afa15801561046d573d6000803e3d6000fd5b505050506040513d601f19601f82011682018060405250810190610491919061073d565b905060008173ffffffffffffffffffffffffffffffffffffffff16637eba557388876040518363ffffffff1660e01b81526004016104d0929190610a3c565b602060405180830381600087803b1580156104ea57600080fd5b505af11580156104fe573d6000803e3d6000fd5b505050506040513d601f19601f8201168201806040525081019061052291906107e0565b90503073ffffffffffffffffffffffffffffffffffffffff1663646d87e8876040518263ffffffff1660e01b815260040161055d919061099f565b60206040518083038186803b15801561057557600080fd5b505afa9250505080156105a657506040513d601f19601f820116820180604052508101906105a3919061076a565b60015b6105f05760006105eb576040517f08c379a00000000000000000000000000000000000000000000000000000000081526004016105e2906109fc565b60405180910390fd5b610656565b801561062757816000808a8152602001908152602001600020600001600082825461061b9190610ae8565b92505081905550610654565b816000808a8152602001908152602001600020600101600082825461064c9190610ae8565b925050819055505b505b600193505050509392505050565b600061067761067284610a8a565b610a65565b90508281526020810184848401111561069357610692610c9c565b5b61069e848285610bc6565b509392505050565b6000813590506106b581610d37565b92915050565b6000815190506106ca81610d37565b92915050565b6000815190506106df81610d4e565b92915050565b600082601f8301126106fa576106f9610c97565b5b813561070a848260208601610664565b91505092915050565b60008135905061072281610d65565b92915050565b60008151905061073781610d65565b92915050565b60006020828403121561075357610752610ca6565b5b6000610761848285016106bb565b91505092915050565b6000602082840312156107805761077f610ca6565b5b600061078e848285016106d0565b91505092915050565b6000602082840312156107ad576107ac610ca6565b5b600082013567ffffffffffffffff8111156107cb576107ca610ca1565b5b6107d7848285016106e5565b91505092915050565b6000602082840312156107f6576107f5610ca6565b5b600061080484828501610728565b91505092915050565b60008060006060848603121561082657610825610ca6565b5b600061083486828701610713565b935050602084013567ffffffffffffffff81111561085557610854610ca1565b5b610861868287016106e5565b9250506040610872868287016106a6565b9150509250925092565b61088581610b3e565b82525050565b61089481610b50565b82525050565b6108a381610b5c565b82525050565b60006108b482610abb565b6108be8185610ac6565b93506108ce818560208601610bd5565b6108d781610cab565b840191505092915050565b6108eb81610b90565b82525050565b60006108fe601f83610ad7565b915061090982610cbc565b602082019050919050565b6000610921601a83610ad7565b915061092c82610ce5565b602082019050919050565b6000610944601e83610ad7565b915061094f82610d0e565b602082019050919050565b61096381610b86565b82525050565b600060208201905061097e600083018461088b565b92915050565b6000602082019050610999600083018461089a565b92915050565b600060208201905081810360008301526109b981846108a9565b905092915050565b60006020820190506109d660008301846108e2565b92915050565b600060208201905081810360008301526109f5816108f1565b9050919050565b60006020820190508181036000830152610a1581610914565b9050919050565b60006020820190508181036000830152610a3581610937565b9050919050565b6000604082019050610a51600083018561095a565b610a5e602083018461087c565b9392505050565b6000610a6f610a80565b9050610a7b8282610c08565b919050565b6000604051905090565b600067ffffffffffffffff821115610aa557610aa4610c68565b5b610aae82610cab565b9050602081019050919050565b600081519050919050565b600082825260208201905092915050565b600082825260208201905092915050565b6000610af382610b86565b9150610afe83610b86565b9250827fffffffffffffffffffffffffffffffffffffffffffffffffffffffffffffffff03821115610b3357610b32610c39565b5b828201905092915050565b6000610b4982610b66565b9050919050565b60008115159050919050565b6000819050919050565b600073ffffffffffffffffffffffffffffffffffffffff82169050919050565b6000819050919050565b6000610b9b82610ba2565b9050919050565b6000610bad82610bb4565b9050919050565b6000610bbf82610b66565b9050919050565b82818337600083830152505050565b60005b83811015610bf3578082015181840152602081019050610bd8565b83811115610c02576000848401525b50505050565b610c1182610cab565b810181811067ffffffffffffffff82111715610c3057610c2f610c68565b5b80604052505050565b7f4e487b7100000000000000000000000000000000000000000000000000000000600052601160045260246000fd5b7f4e487b7100000000000000000000000000000000000000000000000000000000600052604160045260246000fd5b600080fd5b600080fd5b600080fd5b600080fd5b6000601f19601f8301169050919050565b7f426f6f74683a20566f7465722048617320766f74656420666f722070726f7000600082015250565b7f566f746520696e636f72726563746c7920666f726d6174746564000000000000600082015250565b7f566f74696e6720547970653a204f6e6c7920566f74696e6720426f6f74680000600082015250565b610d4081610b3e565b8114610d4b57600080fd5b50565b610d5781610b50565b8114610d6257600080fd5b50565b610d6e81610b86565b8114610d7957600080fd5b5056fea2646970667358221220397eb5ac07891bdc79bc8f768ac9fcda4875178426d7248d59f3d81cf3e1a63464736f6c63430008070033",
  "linkReferences": {},
  "deployedLinkReferences": {}
}