{
  "_format": "hh-sol-artifact-1",
  "contractName": "SimpleMajority",
  "sourceName": "contracts/votingTypes/SimpleMajority.sol",
  "abi": [
    {
      "inputs": [
        {
          "internalType": "address",
          "name": "_core",
          "type": "address"
        },
        {
          "internalType": "address",
          "name": "_timer",
          "type": "address"
        }
      ],
      "stateMutability": "nonpayable",
      "type": "constructor"
    },
    {
      "inputs": [],
      "name": "IDENTIFIER",
      "outputs": [
        {
          "internalType": "bytes32",
          "name": "",
          "type": "bytes32"
        }
      ],
      "stateMutability": "view",
      "type": "function"
    },
    {
      "inputs": [
        {
          "internalType": "uint256",
          "name": "_propID",
          "type": "uint256"
        }
      ],
      "name": "consensusReached",
      "outputs": [
        {
          "internalType": "bool",
          "name": "reached",
          "type": "bool"
        },
        {
          "internalType": "bool",
          "name": "votePassed",
          "type": "bool"
        }
      ],
      "stateMutability": "view",
      "type": "function"
    },
    {
      "inputs": [],
      "name": "core_",
      "outputs": [
        {
          "internalType": "contract ICore",
          "name": "",
          "type": "address"
        }
      ],
      "stateMutability": "view",
      "type": "function"
    },
    {
      "inputs": [
        {
          "internalType": "bytes",
          "name": "_ballot",
          "type": "bytes"
        }
      ],
      "name": "decodeCastBallot",
      "outputs": [
        {
          "internalType": "bool",
          "name": "",
          "type": "bool"
        }
      ],
      "stateMutability": "pure",
      "type": "function"
    },
    {
      "inputs": [
        {
          "internalType": "bool",
          "name": "_for",
          "type": "bool"
        }
      ],
      "name": "encodeBallot",
      "outputs": [
        {
          "internalType": "bytes",
          "name": "",
          "type": "bytes"
        }
      ],
      "stateMutability": "pure",
      "type": "function"
    },
    {
      "inputs": [],
      "name": "getCurrentTime",
      "outputs": [
        {
          "internalType": "uint256",
          "name": "",
          "type": "uint256"
        }
      ],
      "stateMutability": "view",
      "type": "function"
    },
    {
      "inputs": [
        {
          "internalType": "uint256",
          "name": "time",
          "type": "uint256"
        }
      ],
      "name": "setCurrentTime",
      "outputs": [],
      "stateMutability": "nonpayable",
      "type": "function"
    },
    {
      "inputs": [],
      "name": "timerAddress",
      "outputs": [
        {
          "internalType": "address",
          "name": "",
          "type": "address"
        }
      ],
      "stateMutability": "view",
      "type": "function"
    },
    {
      "inputs": [
        {
          "internalType": "uint256",
          "name": "_propID",
          "type": "uint256"
        },
        {
          "internalType": "bytes",
          "name": "_vote",
          "type": "bytes"
        },
        {
          "internalType": "address",
          "name": "_voter",
          "type": "address"
        }
      ],
      "name": "vote",
      "outputs": [
        {
          "internalType": "bool",
          "name": "",
          "type": "bool"
        }
      ],
      "stateMutability": "nonpayable",
      "type": "function"
    }
  ],
  "bytecode": "0x60c06040523480156200001157600080fd5b506040516200164c3803806200164c83398181016040528101906200003791906200013f565b7fe927a917027ae678ece03159f7b891bcfbce4670390def18906836b285c642ae82828033600060026101000a81548173ffffffffffffffffffffffffffffffffffffffff021916908373ffffffffffffffffffffffffffffffffffffffff16021790555080600160006101000a81548173ffffffffffffffffffffffffffffffffffffffff021916908373ffffffffffffffffffffffffffffffffffffffff1602179055505082608081815250508173ffffffffffffffffffffffffffffffffffffffff1660a08173ffffffffffffffffffffffffffffffffffffffff1660601b815250505050505050620001d9565b6000815190506200013981620001bf565b92915050565b60008060408385031215620001595762000158620001ba565b5b6000620001698582860162000128565b92505060206200017c8582860162000128565b9150509250929050565b600062000193826200019a565b9050919050565b600073ffffffffffffffffffffffffffffffffffffffff82169050919050565b600080fd5b620001ca8162000186565b8114620001d657600080fd5b50565b60805160a05160601c611435620002176000396000818161047501528181610680015281816106a7015261091d0152600061040601526114356000f3fe608060405234801561001057600080fd5b50600436106100935760003560e01c8063646d87e811610066578063646d87e81461010e578063dd63b3d81461013e578063e343409a1461016e578063eaddd0fd1461019f578063f636a053146101bd57610093565b80631c39c38d1461009857806322f8e566146100b657806329cb924d146100d25780633c9747f3146100f0575b600080fd5b6100a06101ed565b6040516100ad9190610f2d565b60405180910390f35b6100d060048036038101906100cb9190610d77565b610213565b005b6100da6102ff565b6040516100e79190611044565b60405180910390f35b6100f8610404565b6040516101059190610f8c565b60405180910390f35b61012860048036038101906101239190610d2e565b610428565b6040516101359190610f48565b60405180910390f35b61015860048036038101906101539190610cd4565b610445565b6040516101659190610fa7565b60405180910390f35b61018860048036038101906101839190610d77565b61046e565b604051610196929190610f63565b60405180910390f35b6101a761067e565b6040516101b49190610fc9565b60405180910390f35b6101d760048036038101906101d29190610dd1565b6106a2565b6040516101e49190610f48565b60405180910390f35b600160009054906101000a900473ffffffffffffffffffffffffffffffffffffffff1681565b600073ffffffffffffffffffffffffffffffffffffffff16600160009054906101000a900473ffffffffffffffffffffffffffffffffffffffff1673ffffffffffffffffffffffffffffffffffffffff16141561026f57600080fd5b600160009054906101000a900473ffffffffffffffffffffffffffffffffffffffff1673ffffffffffffffffffffffffffffffffffffffff166322f8e566826040518263ffffffff1660e01b81526004016102ca9190611044565b600060405180830381600087803b1580156102e457600080fd5b505af11580156102f8573d6000803e3d6000fd5b5050505050565b60008073ffffffffffffffffffffffffffffffffffffffff16600160009054906101000a900473ffffffffffffffffffffffffffffffffffffffff1673ffffffffffffffffffffffffffffffffffffffff16146103fd57600160009054906101000a900473ffffffffffffffffffffffffffffffffffffffff1673ffffffffffffffffffffffffffffffffffffffff166329cb924d6040518163ffffffff1660e01b815260040160206040518083038186803b1580156103be57600080fd5b505afa1580156103d2573d6000803e3d6000fd5b505050506040513d601f19601f820116820180604052508101906103f69190610da4565b9050610401565b4290505b90565b7f000000000000000000000000000000000000000000000000000000000000000081565b60008180602001905181019061043e9190610d01565b9050919050565b6060816040516020016104589190610f48565b6040516020818303038152906040529050919050565b60008060007f000000000000000000000000000000000000000000000000000000000000000073ffffffffffffffffffffffffffffffffffffffff1663624a23e07fcdd7ba10b36b7349d5c9710e5e447ec8acaa8e3cbba8d20f4393eccf61f185b16040518263ffffffff1660e01b81526004016104ec9190610f8c565b60206040518083038186803b15801561050457600080fd5b505afa158015610518573d6000803e3d6000fd5b505050506040513d601f19601f8201168201806040525081019061053c9190610ca7565b905060008173ffffffffffffffffffffffffffffffffffffffff16632434c5bd866040518263ffffffff1660e01b81526004016105799190611044565b60206040518083038186803b15801561059157600080fd5b505afa1580156105a5573d6000803e3d6000fd5b505050506040513d601f19601f820116820180604052508101906105c99190610da4565b9050600060026000878152602001908152602001600020600101546002600088815260200190815260200160002060000154610605919061110b565b9050806002836106159190611161565b111561062a5760008094509450505050610679565b60026000878152602001908152602001600020600101546002600088815260200190815260200160002060000154111561066d5760018094509450505050610679565b60016000945094505050505b915091565b7f000000000000000000000000000000000000000000000000000000000000000081565b6000807f000000000000000000000000000000000000000000000000000000000000000073ffffffffffffffffffffffffffffffffffffffff1663624a23e07f346b2ab3a980432fd8f2e24828fc9f9ee2df1548701bc542f6ec17882b3276276040518263ffffffff1660e01b815260040161071e9190610f8c565b60206040518083038186803b15801561073657600080fd5b505afa15801561074a573d6000803e3d6000fd5b505050506040513d601f19601f8201168201806040525081019061076e9190610ca7565b90503373ffffffffffffffffffffffffffffffffffffffff168173ffffffffffffffffffffffffffffffffffffffff16146107de576040517f08c379a00000000000000000000000000000000000000000000000000000000081526004016107d590611024565b60405180910390fd5b6002600086815260200190815260200160002060020160008473ffffffffffffffffffffffffffffffffffffffff1673ffffffffffffffffffffffffffffffffffffffff16815260200190815260200160002060009054906101000a900460ff161561087f576040517f08c379a000000000000000000000000000000000000000000000000000000000815260040161087690610fe4565b60405180910390fd5b60016002600087815260200190815260200160002060020160008573ffffffffffffffffffffffffffffffffffffffff1673ffffffffffffffffffffffffffffffffffffffff16815260200190815260200160002060006101000a81548160ff0219169083151502179055506001600260008781526020019081526020016000206003016000828254610912919061110b565b9250508190555060007f000000000000000000000000000000000000000000000000000000000000000073ffffffffffffffffffffffffffffffffffffffff1663624a23e07fcdd7ba10b36b7349d5c9710e5e447ec8acaa8e3cbba8d20f4393eccf61f185b16040518263ffffffff1660e01b81526004016109949190610f8c565b60206040518083038186803b1580156109ac57600080fd5b505afa1580156109c0573d6000803e3d6000fd5b505050506040513d601f19601f820116820180604052508101906109e49190610ca7565b905060008173ffffffffffffffffffffffffffffffffffffffff16637eba557388876040518363ffffffff1660e01b8152600401610a2392919061105f565b602060405180830381600087803b158015610a3d57600080fd5b505af1158015610a51573d6000803e3d6000fd5b505050506040513d601f19601f82011682018060405250810190610a759190610da4565b90503073ffffffffffffffffffffffffffffffffffffffff1663646d87e8876040518263ffffffff1660e01b8152600401610ab09190610fa7565b60206040518083038186803b158015610ac857600080fd5b505afa925050508015610af957506040513d601f19601f82011682018060405250810190610af69190610d01565b60015b610b43576000610b3e576040517f08c379a0000000000000000000000000000000000000000000000000000000008152600401610b3590611004565b60405180910390fd5b610bab565b8015610b7b5781600260008a81526020019081526020016000206000016000828254610b6f919061110b565b92505081905550610ba9565b81600260008a81526020019081526020016000206001016000828254610ba1919061110b565b925050819055505b505b600193505050509392505050565b6000610bcc610bc7846110ad565b611088565b905082815260208101848484011115610be857610be761131f565b5b610bf384828561121a565b509392505050565b600081359050610c0a816113ba565b92915050565b600081519050610c1f816113ba565b92915050565b600081359050610c34816113d1565b92915050565b600081519050610c49816113d1565b92915050565b600082601f830112610c6457610c6361131a565b5b8135610c74848260208601610bb9565b91505092915050565b600081359050610c8c816113e8565b92915050565b600081519050610ca1816113e8565b92915050565b600060208284031215610cbd57610cbc611329565b5b6000610ccb84828501610c10565b91505092915050565b600060208284031215610cea57610ce9611329565b5b6000610cf884828501610c25565b91505092915050565b600060208284031215610d1757610d16611329565b5b6000610d2584828501610c3a565b91505092915050565b600060208284031215610d4457610d43611329565b5b600082013567ffffffffffffffff811115610d6257610d61611324565b5b610d6e84828501610c4f565b91505092915050565b600060208284031215610d8d57610d8c611329565b5b6000610d9b84828501610c7d565b91505092915050565b600060208284031215610dba57610db9611329565b5b6000610dc884828501610c92565b91505092915050565b600080600060608486031215610dea57610de9611329565b5b6000610df886828701610c7d565b935050602084013567ffffffffffffffff811115610e1957610e18611324565b5b610e2586828701610c4f565b9250506040610e3686828701610bfb565b9150509250925092565b610e4981611192565b82525050565b610e58816111a4565b82525050565b610e67816111b0565b82525050565b6000610e78826110de565b610e8281856110e9565b9350610e92818560208601611229565b610e9b8161132e565b840191505092915050565b610eaf816111e4565b82525050565b6000610ec2601f836110fa565b9150610ecd8261133f565b602082019050919050565b6000610ee5601a836110fa565b9150610ef082611368565b602082019050919050565b6000610f08601e836110fa565b9150610f1382611391565b602082019050919050565b610f27816111da565b82525050565b6000602082019050610f426000830184610e40565b92915050565b6000602082019050610f5d6000830184610e4f565b92915050565b6000604082019050610f786000830185610e4f565b610f856020830184610e4f565b9392505050565b6000602082019050610fa16000830184610e5e565b92915050565b60006020820190508181036000830152610fc18184610e6d565b905092915050565b6000602082019050610fde6000830184610ea6565b92915050565b60006020820190508181036000830152610ffd81610eb5565b9050919050565b6000602082019050818103600083015261101d81610ed8565b9050919050565b6000602082019050818103600083015261103d81610efb565b9050919050565b60006020820190506110596000830184610f1e565b92915050565b60006040820190506110746000830185610f1e565b6110816020830184610e40565b9392505050565b60006110926110a3565b905061109e828261125c565b919050565b6000604051905090565b600067ffffffffffffffff8211156110c8576110c76112eb565b5b6110d18261132e565b9050602081019050919050565b600081519050919050565b600082825260208201905092915050565b600082825260208201905092915050565b6000611116826111da565b9150611121836111da565b9250827fffffffffffffffffffffffffffffffffffffffffffffffffffffffffffffffff038211156111565761115561128d565b5b828201905092915050565b600061116c826111da565b9150611177836111da565b925082611187576111866112bc565b5b828204905092915050565b600061119d826111ba565b9050919050565b60008115159050919050565b6000819050919050565b600073ffffffffffffffffffffffffffffffffffffffff82169050919050565b6000819050919050565b60006111ef826111f6565b9050919050565b600061120182611208565b9050919050565b6000611213826111ba565b9050919050565b82818337600083830152505050565b60005b8381101561124757808201518184015260208101905061122c565b83811115611256576000848401525b50505050565b6112658261132e565b810181811067ffffffffffffffff82111715611284576112836112eb565b5b80604052505050565b7f4e487b7100000000000000000000000000000000000000000000000000000000600052601160045260246000fd5b7f4e487b7100000000000000000000000000000000000000000000000000000000600052601260045260246000fd5b7f4e487b7100000000000000000000000000000000000000000000000000000000600052604160045260246000fd5b600080fd5b600080fd5b600080fd5b600080fd5b6000601f19601f8301169050919050565b7f426f6f74683a20566f7465722048617320766f74656420666f722070726f7000600082015250565b7f566f746520696e636f72726563746c7920666f726d6174746564000000000000600082015250565b7f566f74696e6720547970653a204f6e6c7920566f74696e6720426f6f74680000600082015250565b6113c381611192565b81146113ce57600080fd5b50565b6113da816111a4565b81146113e557600080fd5b50565b6113f1816111da565b81146113fc57600080fd5b5056fea2646970667358221220bbda31028f62918aca0a1854903f47bdca82b6ab10288d13faa891e0e3b6975c64736f6c63430008070033",
  "linkReferences": {},
  "deployedLinkReferences": {}
}