{
  "_format": "hh-sol-artifact-1",
  "contractName": "SimpleMajority",
  "sourceName": "contracts/votingTypes/SimpleMajority.sol",
  "abi": [
    {
      "inputs": [
        {
          "internalType": "address",
          "name": "_core",
          "type": "address"
        },
        {
          "internalType": "address",
          "name": "_timer",
          "type": "address"
        }
      ],
      "stateMutability": "nonpayable",
      "type": "constructor"
    },
    {
      "inputs": [],
      "name": "IDENTIFIER",
      "outputs": [
        {
          "internalType": "bytes32",
          "name": "",
          "type": "bytes32"
        }
      ],
      "stateMutability": "view",
      "type": "function"
    },
    {
      "inputs": [
        {
          "internalType": "uint256",
          "name": "_propID",
          "type": "uint256"
        }
      ],
      "name": "consensusReached",
      "outputs": [
        {
          "internalType": "bool",
          "name": "reached",
          "type": "bool"
        },
        {
          "internalType": "bool",
          "name": "votePassed",
          "type": "bool"
        }
      ],
      "stateMutability": "view",
      "type": "function"
    },
    {
      "inputs": [],
      "name": "core_",
      "outputs": [
        {
          "internalType": "contract ICore",
          "name": "",
          "type": "address"
        }
      ],
      "stateMutability": "view",
      "type": "function"
    },
    {
      "inputs": [
        {
          "internalType": "bytes",
          "name": "_ballot",
          "type": "bytes"
        }
      ],
      "name": "decodeCastBallot",
      "outputs": [
        {
          "internalType": "bool",
          "name": "",
          "type": "bool"
        }
      ],
      "stateMutability": "pure",
      "type": "function"
    },
    {
      "inputs": [
        {
          "internalType": "bool",
          "name": "_for",
          "type": "bool"
        }
      ],
      "name": "encodeBallot",
      "outputs": [
        {
          "internalType": "bytes",
          "name": "",
          "type": "bytes"
        }
      ],
      "stateMutability": "pure",
      "type": "function"
    },
    {
      "inputs": [],
      "name": "getCurrentTime",
      "outputs": [
        {
          "internalType": "uint256",
          "name": "",
          "type": "uint256"
        }
      ],
      "stateMutability": "view",
      "type": "function"
    },
    {
      "inputs": [
        {
          "internalType": "uint256",
          "name": "_propID",
          "type": "uint256"
        }
      ],
      "name": "getCurrentVote",
      "outputs": [
        {
          "internalType": "uint256",
          "name": "weightFor",
          "type": "uint256"
        },
        {
          "internalType": "uint256",
          "name": "weightAgainst",
          "type": "uint256"
        },
        {
          "internalType": "uint256",
          "name": "voterTurnout",
          "type": "uint256"
        }
      ],
      "stateMutability": "view",
      "type": "function"
    },
    {
      "inputs": [
        {
          "internalType": "uint256",
          "name": "_propID",
          "type": "uint256"
        },
        {
          "internalType": "address",
          "name": "_voter",
          "type": "address"
        }
      ],
      "name": "hasVoted",
      "outputs": [
        {
          "internalType": "bool",
          "name": "",
          "type": "bool"
        }
      ],
      "stateMutability": "view",
      "type": "function"
    },
    {
      "inputs": [
        {
          "internalType": "uint256",
          "name": "time",
          "type": "uint256"
        }
      ],
      "name": "setCurrentTime",
      "outputs": [],
      "stateMutability": "nonpayable",
      "type": "function"
    },
    {
      "inputs": [],
      "name": "timerAddress",
      "outputs": [
        {
          "internalType": "address",
          "name": "",
          "type": "address"
        }
      ],
      "stateMutability": "view",
      "type": "function"
    },
    {
      "inputs": [
        {
          "internalType": "uint256",
          "name": "_propID",
          "type": "uint256"
        },
        {
          "internalType": "bytes",
          "name": "_vote",
          "type": "bytes"
        },
        {
          "internalType": "address",
          "name": "_voter",
          "type": "address"
        }
      ],
      "name": "vote",
      "outputs": [
        {
          "internalType": "bool",
          "name": "",
          "type": "bool"
        }
      ],
      "stateMutability": "nonpayable",
      "type": "function"
    }
  ],
  "bytecode": "0x60c06040523480156200001157600080fd5b50604051620017df380380620017df83398181016040528101906200003791906200013f565b7fe927a917027ae678ece03159f7b891bcfbce4670390def18906836b285c642ae82828033600060026101000a81548173ffffffffffffffffffffffffffffffffffffffff021916908373ffffffffffffffffffffffffffffffffffffffff16021790555080600160006101000a81548173ffffffffffffffffffffffffffffffffffffffff021916908373ffffffffffffffffffffffffffffffffffffffff1602179055505082608081815250508173ffffffffffffffffffffffffffffffffffffffff1660a08173ffffffffffffffffffffffffffffffffffffffff1660601b815250505050505050620001d9565b6000815190506200013981620001bf565b92915050565b60008060408385031215620001595762000158620001ba565b5b6000620001698582860162000128565b92505060206200017c8582860162000128565b9150509250929050565b600062000193826200019a565b9050919050565b600073ffffffffffffffffffffffffffffffffffffffff82169050919050565b600080fd5b620001ca8162000186565b8114620001d657600080fd5b50565b60805160a05160601c6115c862000217600039600081816105af0152818161079c015281816107c30152610a390152600061047e01526115c86000f3fe608060405234801561001057600080fd5b50600436106100a95760003560e01c8063646d87e811610071578063646d87e814610154578063951c4ca514610184578063dd63b3d8146101b6578063e343409a146101e6578063eaddd0fd14610217578063f636a05314610235576100a9565b80631c39c38d146100ae57806322f8e566146100cc57806329cb924d146100e85780633c9747f3146101065780634385963214610124575b600080fd5b6100b6610265565b6040516100c39190611089565b60405180910390f35b6100e660048036038101906100e19190610e93565b61028b565b005b6100f0610377565b6040516100fd91906111a0565b60405180910390f35b61010e61047c565b60405161011b91906110e8565b60405180910390f35b61013e60048036038101906101399190610eed565b6104a0565b60405161014b91906110a4565b60405180910390f35b61016e60048036038101906101699190610e4a565b61050b565b60405161017b91906110a4565b60405180910390f35b61019e60048036038101906101999190610e93565b610528565b6040516101ad939291906111e4565b60405180910390f35b6101d060048036038101906101cb9190610df0565b61057f565b6040516101dd9190611103565b60405180910390f35b61020060048036038101906101fb9190610e93565b6105a8565b60405161020e9291906110bf565b60405180910390f35b61021f61079a565b60405161022c9190611125565b60405180910390f35b61024f600480360381019061024a9190610f2d565b6107be565b60405161025c91906110a4565b60405180910390f35b600160009054906101000a900473ffffffffffffffffffffffffffffffffffffffff1681565b600073ffffffffffffffffffffffffffffffffffffffff16600160009054906101000a900473ffffffffffffffffffffffffffffffffffffffff1673ffffffffffffffffffffffffffffffffffffffff1614156102e757600080fd5b600160009054906101000a900473ffffffffffffffffffffffffffffffffffffffff1673ffffffffffffffffffffffffffffffffffffffff166322f8e566826040518263ffffffff1660e01b815260040161034291906111a0565b600060405180830381600087803b15801561035c57600080fd5b505af1158015610370573d6000803e3d6000fd5b5050505050565b60008073ffffffffffffffffffffffffffffffffffffffff16600160009054906101000a900473ffffffffffffffffffffffffffffffffffffffff1673ffffffffffffffffffffffffffffffffffffffff161461047557600160009054906101000a900473ffffffffffffffffffffffffffffffffffffffff1673ffffffffffffffffffffffffffffffffffffffff166329cb924d6040518163ffffffff1660e01b815260040160206040518083038186803b15801561043657600080fd5b505afa15801561044a573d6000803e3d6000fd5b505050506040513d601f19601f8201168201806040525081019061046e9190610ec0565b9050610479565b4290505b90565b7f000000000000000000000000000000000000000000000000000000000000000081565b60006002600084815260200190815260200160002060020160008373ffffffffffffffffffffffffffffffffffffffff1673ffffffffffffffffffffffffffffffffffffffff16815260200190815260200160002060009054906101000a900460ff16905092915050565b6000818060200190518101906105219190610e1d565b9050919050565b60008060006002600085815260200190815260200160002060000154925060026000858152602001908152602001600020600101549150600260008581526020019081526020016000206003015490509193909250565b60608160405160200161059291906110a4565b6040516020818303038152906040529050919050565b60008060007f000000000000000000000000000000000000000000000000000000000000000073ffffffffffffffffffffffffffffffffffffffff1663624a23e07fcdd7ba10b36b7349d5c9710e5e447ec8acaa8e3cbba8d20f4393eccf61f185b16040518263ffffffff1660e01b815260040161062691906110e8565b60206040518083038186803b15801561063e57600080fd5b505afa158015610652573d6000803e3d6000fd5b505050506040513d601f19601f820116820180604052508101906106769190610dc3565b905060008173ffffffffffffffffffffffffffffffffffffffff16632434c5bd866040518263ffffffff1660e01b81526004016106b391906111a0565b60206040518083038186803b1580156106cb57600080fd5b505afa1580156106df573d6000803e3d6000fd5b505050506040513d601f19601f820116820180604052508101906107039190610ec0565b905060006002600087815260200190815260200160002060010154600260008881526020019081526020016000206000015461073f919061129e565b90508060028361074f91906112f4565b1161075957600194505b60026000878152602001908152602001600020600101546002600088815260200190815260200160002060000154111561079257600193505b505050915091565b7f000000000000000000000000000000000000000000000000000000000000000081565b6000807f000000000000000000000000000000000000000000000000000000000000000073ffffffffffffffffffffffffffffffffffffffff1663624a23e07f346b2ab3a980432fd8f2e24828fc9f9ee2df1548701bc542f6ec17882b3276276040518263ffffffff1660e01b815260040161083a91906110e8565b60206040518083038186803b15801561085257600080fd5b505afa158015610866573d6000803e3d6000fd5b505050506040513d601f19601f8201168201806040525081019061088a9190610dc3565b90503373ffffffffffffffffffffffffffffffffffffffff168173ffffffffffffffffffffffffffffffffffffffff16146108fa576040517f08c379a00000000000000000000000000000000000000000000000000000000081526004016108f190611180565b60405180910390fd5b6002600086815260200190815260200160002060020160008473ffffffffffffffffffffffffffffffffffffffff1673ffffffffffffffffffffffffffffffffffffffff16815260200190815260200160002060009054906101000a900460ff161561099b576040517f08c379a000000000000000000000000000000000000000000000000000000000815260040161099290611160565b60405180910390fd5b60016002600087815260200190815260200160002060020160008573ffffffffffffffffffffffffffffffffffffffff1673ffffffffffffffffffffffffffffffffffffffff16815260200190815260200160002060006101000a81548160ff0219169083151502179055506001600260008781526020019081526020016000206003016000828254610a2e919061129e565b9250508190555060007f000000000000000000000000000000000000000000000000000000000000000073ffffffffffffffffffffffffffffffffffffffff1663624a23e07fcdd7ba10b36b7349d5c9710e5e447ec8acaa8e3cbba8d20f4393eccf61f185b16040518263ffffffff1660e01b8152600401610ab091906110e8565b60206040518083038186803b158015610ac857600080fd5b505afa158015610adc573d6000803e3d6000fd5b505050506040513d601f19601f82011682018060405250810190610b009190610dc3565b905060008173ffffffffffffffffffffffffffffffffffffffff16637eba557388876040518363ffffffff1660e01b8152600401610b3f9291906111bb565b602060405180830381600087803b158015610b5957600080fd5b505af1158015610b6d573d6000803e3d6000fd5b505050506040513d601f19601f82011682018060405250810190610b919190610ec0565b90503073ffffffffffffffffffffffffffffffffffffffff1663646d87e8876040518263ffffffff1660e01b8152600401610bcc9190611103565b60206040518083038186803b158015610be457600080fd5b505afa925050508015610c1557506040513d601f19601f82011682018060405250810190610c129190610e1d565b60015b610c5f576000610c5a576040517f08c379a0000000000000000000000000000000000000000000000000000000008152600401610c5190611140565b60405180910390fd5b610cc7565b8015610c975781600260008a81526020019081526020016000206000016000828254610c8b919061129e565b92505081905550610cc5565b81600260008a81526020019081526020016000206001016000828254610cbd919061129e565b925050819055505b505b600193505050509392505050565b6000610ce8610ce384611240565b61121b565b905082815260208101848484011115610d0457610d036114b2565b5b610d0f8482856113ad565b509392505050565b600081359050610d268161154d565b92915050565b600081519050610d3b8161154d565b92915050565b600081359050610d5081611564565b92915050565b600081519050610d6581611564565b92915050565b600082601f830112610d8057610d7f6114ad565b5b8135610d90848260208601610cd5565b91505092915050565b600081359050610da88161157b565b92915050565b600081519050610dbd8161157b565b92915050565b600060208284031215610dd957610dd86114bc565b5b6000610de784828501610d2c565b91505092915050565b600060208284031215610e0657610e056114bc565b5b6000610e1484828501610d41565b91505092915050565b600060208284031215610e3357610e326114bc565b5b6000610e4184828501610d56565b91505092915050565b600060208284031215610e6057610e5f6114bc565b5b600082013567ffffffffffffffff811115610e7e57610e7d6114b7565b5b610e8a84828501610d6b565b91505092915050565b600060208284031215610ea957610ea86114bc565b5b6000610eb784828501610d99565b91505092915050565b600060208284031215610ed657610ed56114bc565b5b6000610ee484828501610dae565b91505092915050565b60008060408385031215610f0457610f036114bc565b5b6000610f1285828601610d99565b9250506020610f2385828601610d17565b9150509250929050565b600080600060608486031215610f4657610f456114bc565b5b6000610f5486828701610d99565b935050602084013567ffffffffffffffff811115610f7557610f746114b7565b5b610f8186828701610d6b565b9250506040610f9286828701610d17565b9150509250925092565b610fa581611325565b82525050565b610fb481611337565b82525050565b610fc381611343565b82525050565b6000610fd482611271565b610fde818561127c565b9350610fee8185602086016113bc565b610ff7816114c1565b840191505092915050565b61100b81611377565b82525050565b600061101e601f8361128d565b9150611029826114d2565b602082019050919050565b6000611041601f8361128d565b915061104c826114fb565b602082019050919050565b6000611064601e8361128d565b915061106f82611524565b602082019050919050565b6110838161136d565b82525050565b600060208201905061109e6000830184610f9c565b92915050565b60006020820190506110b96000830184610fab565b92915050565b60006040820190506110d46000830185610fab565b6110e16020830184610fab565b9392505050565b60006020820190506110fd6000830184610fba565b92915050565b6000602082019050818103600083015261111d8184610fc9565b905092915050565b600060208201905061113a6000830184611002565b92915050565b6000602082019050818103600083015261115981611011565b9050919050565b6000602082019050818103600083015261117981611034565b9050919050565b6000602082019050818103600083015261119981611057565b9050919050565b60006020820190506111b5600083018461107a565b92915050565b60006040820190506111d0600083018561107a565b6111dd6020830184610f9c565b9392505050565b60006060820190506111f9600083018661107a565b611206602083018561107a565b611213604083018461107a565b949350505050565b6000611225611236565b905061123182826113ef565b919050565b6000604051905090565b600067ffffffffffffffff82111561125b5761125a61147e565b5b611264826114c1565b9050602081019050919050565b600081519050919050565b600082825260208201905092915050565b600082825260208201905092915050565b60006112a98261136d565b91506112b48361136d565b9250827fffffffffffffffffffffffffffffffffffffffffffffffffffffffffffffffff038211156112e9576112e8611420565b5b828201905092915050565b60006112ff8261136d565b915061130a8361136d565b92508261131a5761131961144f565b5b828204905092915050565b60006113308261134d565b9050919050565b60008115159050919050565b6000819050919050565b600073ffffffffffffffffffffffffffffffffffffffff82169050919050565b6000819050919050565b600061138282611389565b9050919050565b60006113948261139b565b9050919050565b60006113a68261134d565b9050919050565b82818337600083830152505050565b60005b838110156113da5780820151818401526020810190506113bf565b838111156113e9576000848401525b50505050565b6113f8826114c1565b810181811067ffffffffffffffff821117156114175761141661147e565b5b80604052505050565b7f4e487b7100000000000000000000000000000000000000000000000000000000600052601160045260246000fd5b7f4e487b7100000000000000000000000000000000000000000000000000000000600052601260045260246000fd5b7f4e487b7100000000000000000000000000000000000000000000000000000000600052604160045260246000fd5b600080fd5b600080fd5b600080fd5b600080fd5b6000601f19601f8301169050919050565b7f436f6e3a20566f746520696e636f72726563746c7920666f726d617474656400600082015250565b7f426f6f74683a20566f7465722048617320766f74656420666f722070726f7000600082015250565b7f566f74696e6720547970653a204f6e6c7920566f74696e6720426f6f74680000600082015250565b61155681611325565b811461156157600080fd5b50565b61156d81611337565b811461157857600080fd5b50565b6115848161136d565b811461158f57600080fd5b5056fea26469706673582212207c7d0f17f6d72c3b68b104ae3a38d15ca2089196e63ea53955b09236ed48956364736f6c63430008070033",
  "linkReferences": {},
  "deployedLinkReferences": {}
}