{
  "_format": "hh-sol-artifact-1",
  "contractName": "SimpleMajority",
  "sourceName": "contracts/votingTypes/SimpleMajority.sol",
  "abi": [
    {
      "inputs": [
        {
          "internalType": "address",
          "name": "_core",
          "type": "address"
        },
        {
          "internalType": "address",
          "name": "_timer",
          "type": "address"
        }
      ],
      "stateMutability": "nonpayable",
      "type": "constructor"
    },
    {
      "inputs": [],
      "name": "IDENTIFIER",
      "outputs": [
        {
          "internalType": "bytes32",
          "name": "",
          "type": "bytes32"
        }
      ],
      "stateMutability": "view",
      "type": "function"
    },
    {
      "inputs": [
        {
          "internalType": "bytes32",
          "name": "c__0x00e2a1ba",
          "type": "bytes32"
        }
      ],
      "name": "c_0x00e2a1ba",
      "outputs": [],
      "stateMutability": "pure",
      "type": "function"
    },
    {
      "inputs": [
        {
          "internalType": "bytes32",
          "name": "c__0x35ade16d",
          "type": "bytes32"
        }
      ],
      "name": "c_0x35ade16d",
      "outputs": [],
      "stateMutability": "pure",
      "type": "function"
    },
    {
      "inputs": [
        {
          "internalType": "bytes32",
          "name": "c__0x4617aa6d",
          "type": "bytes32"
        }
      ],
      "name": "c_0x4617aa6d",
      "outputs": [],
      "stateMutability": "pure",
      "type": "function"
    },
    {
      "inputs": [
        {
          "internalType": "uint256",
          "name": "_propID",
          "type": "uint256"
        }
      ],
      "name": "consensusReached",
      "outputs": [
        {
          "internalType": "bool",
          "name": "reached",
          "type": "bool"
        },
        {
          "internalType": "bool",
          "name": "votePassed",
          "type": "bool"
        }
      ],
      "stateMutability": "view",
      "type": "function"
    },
    {
      "inputs": [],
      "name": "core_",
      "outputs": [
        {
          "internalType": "contract ICore",
          "name": "",
          "type": "address"
        }
      ],
      "stateMutability": "view",
      "type": "function"
    },
    {
      "inputs": [
        {
          "internalType": "bytes",
          "name": "_ballot",
          "type": "bytes"
        }
      ],
      "name": "decodeCastBallot",
      "outputs": [
        {
          "internalType": "bool",
          "name": "",
          "type": "bool"
        }
      ],
      "stateMutability": "pure",
      "type": "function"
    },
    {
      "inputs": [
        {
          "internalType": "bool",
          "name": "_for",
          "type": "bool"
        }
      ],
      "name": "encodeBallot",
      "outputs": [
        {
          "internalType": "bytes",
          "name": "",
          "type": "bytes"
        }
      ],
      "stateMutability": "pure",
      "type": "function"
    },
    {
      "inputs": [],
      "name": "getCurrentTime",
      "outputs": [
        {
          "internalType": "uint256",
          "name": "",
          "type": "uint256"
        }
      ],
      "stateMutability": "view",
      "type": "function"
    },
    {
      "inputs": [
        {
          "internalType": "uint256",
          "name": "_propID",
          "type": "uint256"
        }
      ],
      "name": "getCurrentVote",
      "outputs": [
        {
          "internalType": "uint256",
          "name": "weightFor",
          "type": "uint256"
        },
        {
          "internalType": "uint256",
          "name": "weightAgainst",
          "type": "uint256"
        },
        {
          "internalType": "uint256",
          "name": "voterTurnout",
          "type": "uint256"
        }
      ],
      "stateMutability": "view",
      "type": "function"
    },
    {
      "inputs": [
        {
          "internalType": "uint256",
          "name": "_propID",
          "type": "uint256"
        },
        {
          "internalType": "address",
          "name": "_voter",
          "type": "address"
        }
      ],
      "name": "hasVoted",
      "outputs": [
        {
          "internalType": "bool",
          "name": "",
          "type": "bool"
        }
      ],
      "stateMutability": "view",
      "type": "function"
    },
    {
      "inputs": [
        {
          "internalType": "uint256",
          "name": "time",
          "type": "uint256"
        }
      ],
      "name": "setCurrentTime",
      "outputs": [],
      "stateMutability": "nonpayable",
      "type": "function"
    },
    {
      "inputs": [],
      "name": "timerAddress",
      "outputs": [
        {
          "internalType": "address",
          "name": "",
          "type": "address"
        }
      ],
      "stateMutability": "view",
      "type": "function"
    },
    {
      "inputs": [
        {
          "internalType": "uint256",
          "name": "_propID",
          "type": "uint256"
        },
        {
          "internalType": "bytes",
          "name": "_vote",
          "type": "bytes"
        },
        {
          "internalType": "address",
          "name": "_voter",
          "type": "address"
        }
      ],
      "name": "vote",
      "outputs": [
        {
          "internalType": "bool",
          "name": "",
          "type": "bool"
        }
      ],
      "stateMutability": "nonpayable",
      "type": "function"
    }
  ],
  "bytecode": "0x60c06040523480156200001157600080fd5b506040516200271e3803806200271e83398181016040528101906200003791906200031c565b7fe927a917027ae678ece03159f7b891bcfbce4670390def18906836b285c642ae8282806200008f7fbc0a003bb8fab9931eb808559dac1014bd598e04024b8875faae5e60c9d7adc660001b620002fc60201b60201c565b620000c37fc643b4a93fb8ea47dbcab1d450d0c5237e347cfdbbfb564d0f5c0705bc17b0b960001b620002fc60201b60201c565b620000f77f99eda9b013c18feeb073dd7366065243b6adc915936be427d2ffe5bba7dbe99160001b620002fc60201b60201c565b33600060026101000a81548173ffffffffffffffffffffffffffffffffffffffff021916908373ffffffffffffffffffffffffffffffffffffffff16021790555080600160006101000a81548173ffffffffffffffffffffffffffffffffffffffff021916908373ffffffffffffffffffffffffffffffffffffffff16021790555050620001ae7f91b90f81106ec7301a2ef3f3646fc2ac7a03224c1592a81c08bf2be57bf85da360001b620002ff60201b60201c565b620001e27faa1a5f5f7c07ad1d1a00bf086c9ae885f69ed49cd3abc04289c41680f08eda2360001b620002ff60201b60201c565b620002167f96d06dce006a4c22db8a8fd81f6fd8d01ca83c6b578b06c55ae55449f894b56160001b620002ff60201b60201c565b8260808181525050620002527f5df41bcd415e6f031fea4b950841c2b7a0c71533bb77597e55e47143977ffe5060001b620002ff60201b60201c565b620002867f86b081f2885abf844d8a6e92c42bb8b42f1f332206a0f04e515da586d0b809f560001b620002ff60201b60201c565b8173ffffffffffffffffffffffffffffffffffffffff1660a08173ffffffffffffffffffffffffffffffffffffffff1660601b81525050505050620002f47f9d72f3ed701951c869bfeba10f05809a93c3540854ae7e676535ee7b29cab6b060001b6200030260201b60201c565b5050620003b6565b50565b50565b50565b60008151905062000316816200039c565b92915050565b6000806040838503121562000336576200033562000397565b5b6000620003468582860162000305565b9250506020620003598582860162000305565b9150509250929050565b6000620003708262000377565b9050919050565b600073ffffffffffffffffffffffffffffffffffffffff82169050919050565b600080fd5b620003a78162000363565b8114620003b357600080fd5b50565b60805160a05160601c61232a620003f46000396000818161099101528181610e4801528181610ef4015261142a01526000610516015261232a6000f3fe608060405234801561001057600080fd5b50600436106100ea5760003560e01c8063951c4ca51161008c578063dd63b3d811610066578063dd63b3d81461024b578063e343409a1461027b578063eaddd0fd146102ac578063f636a053146102ca576100ea565b8063951c4ca5146101e15780639ef7786d14610213578063cd825e5e1461022f576100ea565b806334829155116100c857806334829155146101475780633c9747f3146101635780634385963214610181578063646d87e8146101b1576100ea565b80631c39c38d146100ef57806322f8e5661461010d57806329cb924d14610129575b600080fd5b6100f76102fa565b6040516101049190611dd4565b60405180910390f35b61012760048036038101906101229190611bde565b610320565b005b61013161040c565b60405161013e9190611eeb565b60405180910390f35b610161600480360381019061015c9190611b68565b610511565b005b61016b610514565b6040516101789190611e33565b60405180910390f35b61019b60048036038101906101969190611c38565b610538565b6040516101a89190611def565b60405180910390f35b6101cb60048036038101906101c69190611b95565b610627565b6040516101d89190611def565b60405180910390f35b6101fb60048036038101906101f69190611bde565b6106c8565b60405161020a93929190611f2f565b60405180910390f35b61022d60048036038101906102289190611b68565b610853565b005b61024960048036038101906102449190611b68565b610856565b005b61026560048036038101906102609190611b0e565b610859565b6040516102729190611e4e565b60405180910390f35b61029560048036038101906102909190611bde565b610906565b6040516102a3929190611e0a565b60405180910390f35b6102b4610e46565b6040516102c19190611e70565b60405180910390f35b6102e460048036038101906102df9190611c78565b610e6a565b6040516102f19190611def565b60405180910390f35b600160009054906101000a900473ffffffffffffffffffffffffffffffffffffffff1681565b600073ffffffffffffffffffffffffffffffffffffffff16600160009054906101000a900473ffffffffffffffffffffffffffffffffffffffff1673ffffffffffffffffffffffffffffffffffffffff16141561037c57600080fd5b600160009054906101000a900473ffffffffffffffffffffffffffffffffffffffff1673ffffffffffffffffffffffffffffffffffffffff166322f8e566826040518263ffffffff1660e01b81526004016103d79190611eeb565b600060405180830381600087803b1580156103f157600080fd5b505af1158015610405573d6000803e3d6000fd5b5050505050565b60008073ffffffffffffffffffffffffffffffffffffffff16600160009054906101000a900473ffffffffffffffffffffffffffffffffffffffff1673ffffffffffffffffffffffffffffffffffffffff161461050a57600160009054906101000a900473ffffffffffffffffffffffffffffffffffffffff1673ffffffffffffffffffffffffffffffffffffffff166329cb924d6040518163ffffffff1660e01b815260040160206040518083038186803b1580156104cb57600080fd5b505afa1580156104df573d6000803e3d6000fd5b505050506040513d601f19601f820116820180604052508101906105039190611c0b565b905061050e565b4290505b90565b50565b7f000000000000000000000000000000000000000000000000000000000000000081565b60006105667f9f27a657d2333430411713ebf6a0dcb0731a30e77750a9828b76a03c771790df60001b610856565b6105927fab25bd95518cf15fa5da99dcf25f21d88caa1199c05cae08a27a8df3fd7ed6ca60001b610856565b6105be7f5a371bd85abf67b4dd54acd1c5d933a482fe826d75ddb9c7467876b4fcba67d760001b610856565b6002600084815260200190815260200160002060020160008373ffffffffffffffffffffffffffffffffffffffff1673ffffffffffffffffffffffffffffffffffffffff16815260200190815260200160002060009054906101000a900460ff16905092915050565b60006106557f9dd6e4c29144f40b0b29cab7f14ec56302505ec9f56c8ffd197bc39c9e17406260001b610856565b6106817f84f6fd6cf49c676484f1ac7394ffe542a9a553fea40d7709db3436be1d28bf5460001b610856565b6106ad7ff35b5f9b9cd9fd79e1039a771bd150aff1ab68d26abe319db77d53c42dc4c79c60001b610856565b818060200190518101906106c19190611b3b565b9050919050565b60008060006106f97f0a1c5976a858ad614e80a67de889cf29d0c68ab6475be449b2b555a3efa7056260001b610856565b6107257fd752680bdb539647e1f8dffb9bd6628891b32dfa6942c4356c5b03b081dd3c7e60001b610856565b6107517f6171a1edfd458f50be893019127c4aceeec6cb1317a5c4f0edcd804a2586335f60001b610856565b600260008581526020019081526020016000206000015492506107967fd9c333a0e34627366d6d390e521e4d920ebe8a4544e1ee7eadd03d2b79629e0b60001b610856565b6107c27f51e80d5c6a10f313e1737ee58fe497e769f1b7095e0d4f044eacda3a39e4a12360001b610856565b600260008581526020019081526020016000206001015491506108077fc9cef396c924acb7522e4dc3d258ce036506cff355f18f6b961ba0cefdbceb5860001b610856565b6108337f893dbc70cfb740f371b2889bf965a31e0931cf6c45a42c644d2e6e42725c61d460001b610856565b600260008581526020019081526020016000206003015490509193909250565b50565b50565b60606108877faf0186cdad1d47b7959be1717f21e25f26e9c8e2c9e55feccc78be532365bcf960001b610856565b6108b37f23480abac1cc6b7f40070b765fb363a368438d84f3beab7735742403d8c0363b60001b610856565b6108df7f534da217a7d9c1112b2143690f638d90075409ffaceff0abb4b0e0f6a127370d60001b610856565b816040516020016108f09190611def565b6040516020818303038152906040529050919050565b6000806109357f5eef705e9c6a319fb91dcc9f1d24a1303a3ba137fe4186e8eab3c2ac2fef65e960001b610856565b6109617f736f94d0eb502fff342881aa4226973a7b91b01cbc3d30b572ca9dd67bd5d87960001b610856565b61098d7f72d1af2e38f1de703332267dc58497c314c2d544cdf0d15e8395b259bbe071ff60001b610856565b60007f000000000000000000000000000000000000000000000000000000000000000073ffffffffffffffffffffffffffffffffffffffff1663624a23e07fcdd7ba10b36b7349d5c9710e5e447ec8acaa8e3cbba8d20f4393eccf61f185b16040518263ffffffff1660e01b8152600401610a089190611e33565b60206040518083038186803b158015610a2057600080fd5b505afa158015610a34573d6000803e3d6000fd5b505050506040513d601f19601f82011682018060405250810190610a589190611ae1565b9050610a867fe311ac65ec72e5f92bdeb2ba834ed5b0acea2768e99a7c3183cfd041db6b3d3260001b610856565b610ab27f5f453ff430836cb282d79079afdcf19171480a011de7be24712422b47d90937060001b610856565b60008173ffffffffffffffffffffffffffffffffffffffff16632434c5bd866040518263ffffffff1660e01b8152600401610aed9190611eeb565b60206040518083038186803b158015610b0557600080fd5b505afa158015610b19573d6000803e3d6000fd5b505050506040513d601f19601f82011682018060405250810190610b3d9190611c0b565b9050610b6b7f830c955590cb768a2840e2b885f4b626dc368ccd172545c1908ebabdd296683a60001b610856565b610b977f985597146c5158659356f4c30ab2b1a1d52d73ac2d3340d419942978d6124e1860001b610856565b600060026000878152602001908152602001600020600101546002600088815260200190815260200160002060000154610bd19190611fe9565b9050610bff7ff5a7595ae6b4eaa5c9f12103fa005666f0347c232e815da77472d22ace446f0d60001b610856565b610c2b7f4fab5457b814a3eb822b0807443bf7f31ede545d5b5cc1beb805822a3ae3f3fd60001b610856565b80600283610c39919061203f565b11610ccb57610c6a7fecf4fd2833b7739ebe33ed0d9622a03f3a26419ae68f1d555ce87d612753feb660001b610856565b610c967f034053b85ee2dddf48bfd79bbe10d4c1660cdf51d2cd1c2579cf3afd64772f4260001b610856565b610cc27f39e70b9c244a047fa8940262e07144209b3ca1aa4e38ef4493b0e7da534b3ea260001b610856565b60019450610cf8565b610cf77f461936d9db110646fc25915a451e9e85cff241d5db65ac73e5c8dc491416d4bf60001b610856565b5b610d247f105e3300f8bcd8ccf9de3daac5b0f3c8cd533015c77ecb3ac2112478f33bdefd60001b610856565b610d507fd921a21967c13d19f4a02add2f9aa5625643eb510607746da9cc4f36b3e3683960001b610856565b600260008781526020019081526020016000206001015460026000888152602001908152602001600020600001541115610e1157610db07f284de1f5a878c39994cc7db3ca01395b7ff65b187b5d86f951a539271a4c699360001b610856565b610ddc7f69f38eecf5379fd3791dfe10db68add46b79d3b957cdbb2df20bd7d38aceed7460001b610856565b610e087f24668ba078a5eb1716381996e0b1523aaa7637ba14a1b3f19a8ec36a738ef78260001b610856565b60019350610e3e565b610e3d7f21f0513e37680690aad4ec7636fdbfaa19f95e927610b121f3790a0b01f6394b60001b610856565b5b505050915091565b7f000000000000000000000000000000000000000000000000000000000000000081565b6000610e987ff969c8646f7a66962270919b8ddb020e5aa398f7271c202e9c867109f09044aa60001b610856565b610ec47feffd035e586e5f1e3759911ac5d4c28e4c836fbf3309e878fe88a36aade86dd760001b610856565b610ef07fdf6f834277e3f617534342da7bb8453bfc545d15ebfa9dacb30ef86372f47d5e60001b610856565b60007f000000000000000000000000000000000000000000000000000000000000000073ffffffffffffffffffffffffffffffffffffffff1663624a23e07f346b2ab3a980432fd8f2e24828fc9f9ee2df1548701bc542f6ec17882b3276276040518263ffffffff1660e01b8152600401610f6b9190611e33565b60206040518083038186803b158015610f8357600080fd5b505afa158015610f97573d6000803e3d6000fd5b505050506040513d601f19601f82011682018060405250810190610fbb9190611ae1565b9050610fe97fec4f3829b4db3a1f560b55b3664a6d18380d32c4b1e95c3409fee7792879beb460001b610856565b6110157f48c277b5431c8e07dc136dd4b6ac6578e82be6396b80a11a20853ca1bb684c1560001b610856565b6110417f5aa21b717e1b854c51ed76d72bf71473927eefb1d006107a5de69877f994dd5560001b610856565b3373ffffffffffffffffffffffffffffffffffffffff168173ffffffffffffffffffffffffffffffffffffffff16146110af576040517f08c379a00000000000000000000000000000000000000000000000000000000081526004016110a690611ecb565b60405180910390fd5b6110db7f7e2e79b711f0aedd0480a8aafa8f6c45fc3bf467bfb5a50af4d1a4d5a23eef8d60001b610856565b6111077fafd9e1d50642dcf091db20e54ee604684122a14a8cde6ca0e3997e3dcd1b6c8c60001b610856565b6111337f2bd029398b0995b23a7a0436431615002eee342f8a88dc38fd1fce7fa942c94e60001b610856565b61115f7f1a3a1b78e7a1f9073d8721d4a43c547356b9de756d9a2a877e8a98148410a62660001b610856565b61118b7f29e5f2f885e20dacb784183178128cf9dc5b4a94b7e163c473faad02c9abc79160001b610856565b6111b77f07cac15794eaba875048740b66aab9f37e05999a717759953c675fac71d1a42460001b610856565b6002600086815260200190815260200160002060020160008473ffffffffffffffffffffffffffffffffffffffff1673ffffffffffffffffffffffffffffffffffffffff16815260200190815260200160002060009054906101000a900460ff1615611258576040517f08c379a000000000000000000000000000000000000000000000000000000000815260040161124f90611eab565b60405180910390fd5b6112847faa158c7696a03e9c10dbcbbdaffc6b4fc814adb47cf0d09aae66e4569f439cdf60001b610856565b6112b07ffb724744636a22c84484a1478d54c08ac5a61b302121c27c216e5b0f724a245160001b610856565b6112dc7fe34f334876b7f239ba91b7de38ec7b57d732fad8cceab0f45ddb27677a55b73a60001b610856565b60016002600087815260200190815260200160002060020160008573ffffffffffffffffffffffffffffffffffffffff1673ffffffffffffffffffffffffffffffffffffffff16815260200190815260200160002060006101000a81548160ff0219169083151502179055506113747ff0500dd2a77f1ecaeabfa8477d72852e50c6bb2d3f8c7097a7ebed156f9dc90d60001b610856565b6113a07f098619d1f6690a530e7511a158844163b7967aef751a1cd01e7ad10fe0decc0460001b610856565b60016002600087815260200190815260200160002060030160008282546113c79190611fe9565b925050819055506113fa7f24f712e5a860f038ada52610a97c9029894af52d8947718756791a2d86b6e16460001b610856565b6114267f439db0e0f2040c8acc25a5af4197e8c036f4ef6f145c17ec83207183fea49eec60001b610856565b60007f000000000000000000000000000000000000000000000000000000000000000073ffffffffffffffffffffffffffffffffffffffff1663624a23e07fcdd7ba10b36b7349d5c9710e5e447ec8acaa8e3cbba8d20f4393eccf61f185b16040518263ffffffff1660e01b81526004016114a19190611e33565b60206040518083038186803b1580156114b957600080fd5b505afa1580156114cd573d6000803e3d6000fd5b505050506040513d601f19601f820116820180604052508101906114f19190611ae1565b905061151f7f85f136cabaad9ecf30249a10ff9b06fd897491563c7b9e359f8b92054543200b60001b610856565b61154b7f02cd7c981cfb69eb72a19bb8a59d36d67027a4e3b09b054ec110c1eb9f285fcf60001b610856565b60008173ffffffffffffffffffffffffffffffffffffffff16637eba557388876040518363ffffffff1660e01b8152600401611588929190611f06565b602060405180830381600087803b1580156115a257600080fd5b505af11580156115b6573d6000803e3d6000fd5b505050506040513d601f19601f820116820180604052508101906115da9190611c0b565b90506116087fa8a50586abf66bcf6eab633553f02e047c7a33197be9ed9c58ad4ef10e04c21760001b610856565b6116347f7fd3e1db139105a5a0f392affcbfd728de62997ffb5fc85ba698c25090566f3860001b610856565b3073ffffffffffffffffffffffffffffffffffffffff1663646d87e8876040518263ffffffff1660e01b815260040161166d9190611e4e565b60206040518083038186803b15801561168557600080fd5b505afa9250505080156116b657506040513d601f19601f820116820180604052508101906116b39190611b3b565b60015b6117b0576116e67f648244a51075e374fdb2027c49c835bc7aae91245cb05866af0c5689c6c15cbf60001b610856565b6117127f0599211fa6f1403c4f07dda130ac1dd27387fd53d58c71689b25b9d0270c5c5960001b610856565b61173e7f4bb7b2d2748cce3e1de5c75ad25389749338904f91f824b7f196af273f50de6060001b610856565b600061177f576040517f08c379a000000000000000000000000000000000000000000000000000000000815260040161177690611e8b565b60405180910390fd5b6117ab7f10aee42ed447849f27a4095675e1676fd0a04f52cd779f311b4378f75e9fa99360001b610856565b611978565b6117dc7f703429ffa738286e1977e01278ded9f9144e8ce7fcd10ff6ec5f0f015f9e90bb60001b610856565b6118087f6dea4e8cc86037d5107174729eb8846aed3a55dc4d8a622d850b7347565d2e5560001b610856565b80156118c45761183a7ffa288f5efe1b5de3199e5660bf035fca6fa9178c511a38bd50a8c49db575e1e060001b610856565b6118667fe5d0a67a45036b5e50b00b29d541f82a88ceb38b3d2df5cb27cb43615f5d229760001b610856565b6118927f9ab693cb2c3be8005610d4abe736f1d4d288c7b5e21b8a8a25d2e3464045e52760001b610856565b81600260008a815260200190815260200160002060000160008282546118b89190611fe9565b92505081905550611976565b6118f07f56299fc78bd9dbdb9a4014c0c155a15321efc3aa2a23a84cd8d3cce974a7ea1b60001b610856565b61191c7fa21aad3775d0a0c779abd902178b6660d9ce58f9663f0f9b6da9592592e7462860001b610856565b6119487f69adf1853dca3adc00db8856366b6c981714f7fe9521d794dede8bfde4bb9a9b60001b610856565b81600260008a8152602001908152602001600020600101600082825461196e9190611fe9565b925050819055505b505b6119a47f4963374f231d556509d1e2f055ef54060ce1c96eb723fcf8aee936479f31b06060001b610856565b6119d07f9bdfa9c7330af900925e36522566a70e660f0464dba98ee0da71291c8aeccca760001b610856565b600193505050509392505050565b60006119f16119ec84611f8b565b611f66565b905082815260208101848484011115611a0d57611a0c6121fd565b5b611a188482856120f8565b509392505050565b600081359050611a2f81612298565b92915050565b600081519050611a4481612298565b92915050565b600081359050611a59816122af565b92915050565b600081519050611a6e816122af565b92915050565b600081359050611a83816122c6565b92915050565b600082601f830112611a9e57611a9d6121f8565b5b8135611aae8482602086016119de565b91505092915050565b600081359050611ac6816122dd565b92915050565b600081519050611adb816122dd565b92915050565b600060208284031215611af757611af6612207565b5b6000611b0584828501611a35565b91505092915050565b600060208284031215611b2457611b23612207565b5b6000611b3284828501611a4a565b91505092915050565b600060208284031215611b5157611b50612207565b5b6000611b5f84828501611a5f565b91505092915050565b600060208284031215611b7e57611b7d612207565b5b6000611b8c84828501611a74565b91505092915050565b600060208284031215611bab57611baa612207565b5b600082013567ffffffffffffffff811115611bc957611bc8612202565b5b611bd584828501611a89565b91505092915050565b600060208284031215611bf457611bf3612207565b5b6000611c0284828501611ab7565b91505092915050565b600060208284031215611c2157611c20612207565b5b6000611c2f84828501611acc565b91505092915050565b60008060408385031215611c4f57611c4e612207565b5b6000611c5d85828601611ab7565b9250506020611c6e85828601611a20565b9150509250929050565b600080600060608486031215611c9157611c90612207565b5b6000611c9f86828701611ab7565b935050602084013567ffffffffffffffff811115611cc057611cbf612202565b5b611ccc86828701611a89565b9250506040611cdd86828701611a20565b9150509250925092565b611cf081612070565b82525050565b611cff81612082565b82525050565b611d0e8161208e565b82525050565b6000611d1f82611fbc565b611d298185611fc7565b9350611d39818560208601612107565b611d428161220c565b840191505092915050565b611d56816120c2565b82525050565b6000611d69601f83611fd8565b9150611d748261221d565b602082019050919050565b6000611d8c601f83611fd8565b9150611d9782612246565b602082019050919050565b6000611daf601e83611fd8565b9150611dba8261226f565b602082019050919050565b611dce816120b8565b82525050565b6000602082019050611de96000830184611ce7565b92915050565b6000602082019050611e046000830184611cf6565b92915050565b6000604082019050611e1f6000830185611cf6565b611e2c6020830184611cf6565b9392505050565b6000602082019050611e486000830184611d05565b92915050565b60006020820190508181036000830152611e688184611d14565b905092915050565b6000602082019050611e856000830184611d4d565b92915050565b60006020820190508181036000830152611ea481611d5c565b9050919050565b60006020820190508181036000830152611ec481611d7f565b9050919050565b60006020820190508181036000830152611ee481611da2565b9050919050565b6000602082019050611f006000830184611dc5565b92915050565b6000604082019050611f1b6000830185611dc5565b611f286020830184611ce7565b9392505050565b6000606082019050611f446000830186611dc5565b611f516020830185611dc5565b611f5e6040830184611dc5565b949350505050565b6000611f70611f81565b9050611f7c828261213a565b919050565b6000604051905090565b600067ffffffffffffffff821115611fa657611fa56121c9565b5b611faf8261220c565b9050602081019050919050565b600081519050919050565b600082825260208201905092915050565b600082825260208201905092915050565b6000611ff4826120b8565b9150611fff836120b8565b9250827fffffffffffffffffffffffffffffffffffffffffffffffffffffffffffffffff038211156120345761203361216b565b5b828201905092915050565b600061204a826120b8565b9150612055836120b8565b9250826120655761206461219a565b5b828204905092915050565b600061207b82612098565b9050919050565b60008115159050919050565b6000819050919050565b600073ffffffffffffffffffffffffffffffffffffffff82169050919050565b6000819050919050565b60006120cd826120d4565b9050919050565b60006120df826120e6565b9050919050565b60006120f182612098565b9050919050565b82818337600083830152505050565b60005b8381101561212557808201518184015260208101905061210a565b83811115612134576000848401525b50505050565b6121438261220c565b810181811067ffffffffffffffff82111715612162576121616121c9565b5b80604052505050565b7f4e487b7100000000000000000000000000000000000000000000000000000000600052601160045260246000fd5b7f4e487b7100000000000000000000000000000000000000000000000000000000600052601260045260246000fd5b7f4e487b7100000000000000000000000000000000000000000000000000000000600052604160045260246000fd5b600080fd5b600080fd5b600080fd5b600080fd5b6000601f19601f8301169050919050565b7f436f6e3a20566f746520696e636f72726563746c7920666f726d617474656400600082015250565b7f426f6f74683a20566f7465722048617320766f74656420666f722070726f7000600082015250565b7f566f74696e6720547970653a204f6e6c7920566f74696e6720426f6f74680000600082015250565b6122a181612070565b81146122ac57600080fd5b50565b6122b881612082565b81146122c357600080fd5b50565b6122cf8161208e565b81146122da57600080fd5b50565b6122e6816120b8565b81146122f157600080fd5b5056fea2646970667358221220f5d799f18eb9cf66780d22dd5ed2ea665e85f6f89ed9e3f92181bb1a5231f37d64736f6c63430008070033",
  "linkReferences": {},
  "deployedLinkReferences": {}
}