{
  "_format": "hh-sol-artifact-1",
  "contractName": "SimpleMajority",
  "sourceName": "contracts/votingTypes/SimpleMajority.sol",
  "abi": [
    {
      "inputs": [
        {
          "internalType": "address",
          "name": "_core",
          "type": "address"
        }
      ],
      "stateMutability": "nonpayable",
      "type": "constructor"
    },
    {
      "inputs": [],
      "name": "IDENTIFIER",
      "outputs": [
        {
          "internalType": "bytes32",
          "name": "",
          "type": "bytes32"
        }
      ],
      "stateMutability": "view",
      "type": "function"
    },
    {
      "inputs": [],
      "name": "core_",
      "outputs": [
        {
          "internalType": "contract ICore",
          "name": "",
          "type": "address"
        }
      ],
      "stateMutability": "view",
      "type": "function"
    },
    {
      "inputs": [
        {
          "internalType": "bytes",
          "name": "_ballot",
          "type": "bytes"
        }
      ],
      "name": "decodeCastBallot",
      "outputs": [
        {
          "internalType": "bool",
          "name": "",
          "type": "bool"
        }
      ],
      "stateMutability": "pure",
      "type": "function"
    },
    {
      "inputs": [
        {
          "internalType": "bool",
          "name": "_for",
          "type": "bool"
        }
      ],
      "name": "encodeBallot",
      "outputs": [
        {
          "internalType": "bytes",
          "name": "",
          "type": "bytes"
        }
      ],
      "stateMutability": "pure",
      "type": "function"
    },
    {
      "inputs": [
        {
          "internalType": "uint256",
          "name": "_propID",
          "type": "uint256"
        },
        {
          "internalType": "bytes",
          "name": "_vote",
          "type": "bytes"
        },
        {
          "internalType": "address",
          "name": "_voter",
          "type": "address"
        }
      ],
      "name": "vote",
      "outputs": [
        {
          "internalType": "bool",
          "name": "",
          "type": "bool"
        }
      ],
      "stateMutability": "nonpayable",
      "type": "function"
    }
  ],
  "bytecode": "0x60c060405234801561001057600080fd5b506040516200106338038062001063833981810160405281019061003491906100f3565b7fe927a917027ae678ece03159f7b891bcfbce4670390def18906836b285c642ae8133600060026101000a81548173ffffffffffffffffffffffffffffffffffffffff021916908373ffffffffffffffffffffffffffffffffffffffff16021790555081608081815250508073ffffffffffffffffffffffffffffffffffffffff1660a08173ffffffffffffffffffffffffffffffffffffffff1660601b8152505050505061016e565b6000815190506100ed81610157565b92915050565b60006020828403121561010957610108610152565b5b6000610117848285016100de565b91505092915050565b600061012b82610132565b9050919050565b600073ffffffffffffffffffffffffffffffffffffffff82169050919050565b600080fd5b61016081610120565b811461016b57600080fd5b50565b60805160a05160601c610ebe620001a560003960008181610194015281816101bb015261042f0152600061012a0152610ebe6000f3fe608060405234801561001057600080fd5b50600436106100575760003560e01c80633c9747f31461005c578063646d87e81461007a578063dd63b3d8146100aa578063eaddd0fd146100da578063f636a053146100f8575b600080fd5b610064610128565b6040516100719190610a5f565b60405180910390f35b610094600480360381019061008f9190610840565b61014c565b6040516100a19190610a44565b60405180910390f35b6100c460048036038101906100bf91906107e6565b610169565b6040516100d19190610a7a565b60405180910390f35b6100e2610192565b6040516100ef9190610a9c565b60405180910390f35b610112600480360381019061010d91906108b6565b6101b6565b60405161011f9190610a44565b60405180910390f35b7f000000000000000000000000000000000000000000000000000000000000000081565b6000818060200190518101906101629190610813565b9050919050565b60608160405160200161017c9190610a29565b6040516020818303038152906040529050919050565b7f000000000000000000000000000000000000000000000000000000000000000081565b6000807f000000000000000000000000000000000000000000000000000000000000000073ffffffffffffffffffffffffffffffffffffffff1663624a23e07f346b2ab3a980432fd8f2e24828fc9f9ee2df1548701bc542f6ec17882b3276276040518263ffffffff1660e01b81526004016102329190610a5f565b60206040518083038186803b15801561024a57600080fd5b505afa15801561025e573d6000803e3d6000fd5b505050506040513d601f19601f8201168201806040525081019061028291906107b9565b90503373ffffffffffffffffffffffffffffffffffffffff168173ffffffffffffffffffffffffffffffffffffffff16146102f2576040517f08c379a00000000000000000000000000000000000000000000000000000000081526004016102e990610af7565b60405180910390fd5b6001600086815260200190815260200160002060020160008473ffffffffffffffffffffffffffffffffffffffff1673ffffffffffffffffffffffffffffffffffffffff16815260200190815260200160002060009054906101000a900460ff1615610393576040517f08c379a000000000000000000000000000000000000000000000000000000000815260040161038a90610ab7565b60405180910390fd5b600180600087815260200190815260200160002060020160008573ffffffffffffffffffffffffffffffffffffffff1673ffffffffffffffffffffffffffffffffffffffff16815260200190815260200160002060006101000a81548160ff021916908315150217905550600180600087815260200190815260200160002060030160008282546104249190610bc3565b9250508190555060007f000000000000000000000000000000000000000000000000000000000000000073ffffffffffffffffffffffffffffffffffffffff1663624a23e07fcdd7ba10b36b7349d5c9710e5e447ec8acaa8e3cbba8d20f4393eccf61f185b16040518263ffffffff1660e01b81526004016104a69190610a5f565b60206040518083038186803b1580156104be57600080fd5b505afa1580156104d2573d6000803e3d6000fd5b505050506040513d601f19601f820116820180604052508101906104f691906107b9565b905060008173ffffffffffffffffffffffffffffffffffffffff16637eba557388876040518363ffffffff1660e01b8152600401610535929190610b17565b602060405180830381600087803b15801561054f57600080fd5b505af1158015610563573d6000803e3d6000fd5b505050506040513d601f19601f820116820180604052508101906105879190610889565b90503073ffffffffffffffffffffffffffffffffffffffff1663646d87e8876040518263ffffffff1660e01b81526004016105c29190610a7a565b60206040518083038186803b1580156105da57600080fd5b505afa92505050801561060b57506040513d601f19601f820116820180604052508101906106089190610813565b60015b610655576000610650576040517f08c379a000000000000000000000000000000000000000000000000000000000815260040161064790610ad7565b60405180910390fd5b6106bd565b801561068d5781600160008a815260200190815260200160002060000160008282546106819190610bc3565b925050819055506106bb565b81600160008a815260200190815260200160002060010160008282546106b39190610bc3565b925050819055505b505b600193505050509392505050565b60006106de6106d984610b65565b610b40565b9050828152602081018484840111156106fa576106f9610d9b565b5b610705848285610ca1565b509392505050565b60008135905061071c81610e43565b92915050565b60008151905061073181610e43565b92915050565b60008135905061074681610e5a565b92915050565b60008151905061075b81610e5a565b92915050565b600082601f83011261077657610775610d96565b5b81356107868482602086016106cb565b91505092915050565b60008135905061079e81610e71565b92915050565b6000815190506107b381610e71565b92915050565b6000602082840312156107cf576107ce610da5565b5b60006107dd84828501610722565b91505092915050565b6000602082840312156107fc576107fb610da5565b5b600061080a84828501610737565b91505092915050565b60006020828403121561082957610828610da5565b5b60006108378482850161074c565b91505092915050565b60006020828403121561085657610855610da5565b5b600082013567ffffffffffffffff81111561087457610873610da0565b5b61088084828501610761565b91505092915050565b60006020828403121561089f5761089e610da5565b5b60006108ad848285016107a4565b91505092915050565b6000806000606084860312156108cf576108ce610da5565b5b60006108dd8682870161078f565b935050602084013567ffffffffffffffff8111156108fe576108fd610da0565b5b61090a86828701610761565b925050604061091b8682870161070d565b9150509250925092565b61092e81610c19565b82525050565b61093d81610c2b565b82525050565b61095461094f82610c2b565b610d14565b82525050565b61096381610c37565b82525050565b600061097482610b96565b61097e8185610ba1565b935061098e818560208601610cb0565b61099781610daa565b840191505092915050565b6109ab81610c6b565b82525050565b60006109be601f83610bb2565b91506109c982610dc8565b602082019050919050565b60006109e1601a83610bb2565b91506109ec82610df1565b602082019050919050565b6000610a04601e83610bb2565b9150610a0f82610e1a565b602082019050919050565b610a2381610c61565b82525050565b6000610a358284610943565b60018201915081905092915050565b6000602082019050610a596000830184610934565b92915050565b6000602082019050610a74600083018461095a565b92915050565b60006020820190508181036000830152610a948184610969565b905092915050565b6000602082019050610ab160008301846109a2565b92915050565b60006020820190508181036000830152610ad0816109b1565b9050919050565b60006020820190508181036000830152610af0816109d4565b9050919050565b60006020820190508181036000830152610b10816109f7565b9050919050565b6000604082019050610b2c6000830185610a1a565b610b396020830184610925565b9392505050565b6000610b4a610b5b565b9050610b568282610ce3565b919050565b6000604051905090565b600067ffffffffffffffff821115610b8057610b7f610d67565b5b610b8982610daa565b9050602081019050919050565b600081519050919050565b600082825260208201905092915050565b600082825260208201905092915050565b6000610bce82610c61565b9150610bd983610c61565b9250827fffffffffffffffffffffffffffffffffffffffffffffffffffffffffffffffff03821115610c0e57610c0d610d38565b5b828201905092915050565b6000610c2482610c41565b9050919050565b60008115159050919050565b6000819050919050565b600073ffffffffffffffffffffffffffffffffffffffff82169050919050565b6000819050919050565b6000610c7682610c7d565b9050919050565b6000610c8882610c8f565b9050919050565b6000610c9a82610c41565b9050919050565b82818337600083830152505050565b60005b83811015610cce578082015181840152602081019050610cb3565b83811115610cdd576000848401525b50505050565b610cec82610daa565b810181811067ffffffffffffffff82111715610d0b57610d0a610d67565b5b80604052505050565b6000610d1f82610d26565b9050919050565b6000610d3182610dbb565b9050919050565b7f4e487b7100000000000000000000000000000000000000000000000000000000600052601160045260246000fd5b7f4e487b7100000000000000000000000000000000000000000000000000000000600052604160045260246000fd5b600080fd5b600080fd5b600080fd5b600080fd5b6000601f19601f8301169050919050565b60008160f81b9050919050565b7f426f6f74683a20566f7465722048617320766f74656420666f722070726f7000600082015250565b7f566f746520696e636f72726563746c7920666f726d6174746564000000000000600082015250565b7f566f74696e6720547970653a204f6e6c7920566f74696e6720426f6f74680000600082015250565b610e4c81610c19565b8114610e5757600080fd5b50565b610e6381610c2b565b8114610e6e57600080fd5b50565b610e7a81610c61565b8114610e8557600080fd5b5056fea26469706673582212202917e3e4d016d022bd38b85d1c8301d45bc14c44924116cc2267989beca039b664736f6c63430008070033",
  "linkReferences": {},
  "deployedLinkReferences": {}
}