{
  "_format": "hh-sol-artifact-1",
  "contractName": "SimpleMajority",
  "sourceName": "contracts/votingTypes/SimpleMajority.sol",
  "abi": [
    {
      "inputs": [
        {
          "internalType": "address",
          "name": "_core",
          "type": "address"
        }
      ],
      "stateMutability": "nonpayable",
      "type": "constructor"
    },
    {
      "inputs": [],
      "name": "IDENTIFIER",
      "outputs": [
        {
          "internalType": "bytes32",
          "name": "",
          "type": "bytes32"
        }
      ],
      "stateMutability": "view",
      "type": "function"
    },
    {
      "inputs": [
        {
          "internalType": "uint256",
          "name": "_propID",
          "type": "uint256"
        }
      ],
      "name": "consensusReached",
      "outputs": [
        {
          "internalType": "bool",
          "name": "reached",
          "type": "bool"
        },
        {
          "internalType": "bool",
          "name": "votePassed",
          "type": "bool"
        }
      ],
      "stateMutability": "view",
      "type": "function"
    },
    {
      "inputs": [],
      "name": "core_",
      "outputs": [
        {
          "internalType": "contract ICore",
          "name": "",
          "type": "address"
        }
      ],
      "stateMutability": "view",
      "type": "function"
    },
    {
      "inputs": [
        {
          "internalType": "bytes",
          "name": "_ballot",
          "type": "bytes"
        }
      ],
      "name": "decodeCastBallot",
      "outputs": [
        {
          "internalType": "bool",
          "name": "",
          "type": "bool"
        }
      ],
      "stateMutability": "pure",
      "type": "function"
    },
    {
      "inputs": [
        {
          "internalType": "bool",
          "name": "_for",
          "type": "bool"
        }
      ],
      "name": "encodeBallot",
      "outputs": [
        {
          "internalType": "bytes",
          "name": "",
          "type": "bytes"
        }
      ],
      "stateMutability": "pure",
      "type": "function"
    },
    {
      "inputs": [
        {
          "internalType": "uint256",
          "name": "_propID",
          "type": "uint256"
        },
        {
          "internalType": "bytes",
          "name": "_vote",
          "type": "bytes"
        },
        {
          "internalType": "address",
          "name": "_voter",
          "type": "address"
        }
      ],
      "name": "vote",
      "outputs": [
        {
          "internalType": "bool",
          "name": "",
          "type": "bool"
        }
      ],
      "stateMutability": "nonpayable",
      "type": "function"
    }
  ],
  "bytecode": "0x60c06040523480156200001157600080fd5b5060405162001334380380620013348339818101604052810190620000379190620000f9565b7fe927a917027ae678ece03159f7b891bcfbce4670390def18906836b285c642ae8133600060026101000a81548173ffffffffffffffffffffffffffffffffffffffff021916908373ffffffffffffffffffffffffffffffffffffffff16021790555081608081815250508073ffffffffffffffffffffffffffffffffffffffff1660a08173ffffffffffffffffffffffffffffffffffffffff1660601b815250505050506200017e565b600081519050620000f38162000164565b92915050565b6000602082840312156200011257620001116200015f565b5b60006200012284828501620000e2565b91505092915050565b600062000138826200013f565b9050919050565b600073ffffffffffffffffffffffffffffffffffffffff82169050919050565b600080fd5b6200016f816200012b565b81146200017b57600080fd5b50565b60805160a05160601c611178620001bc600039600081816101d5015281816103e001528181610407015261067b0152600061016601526111786000f3fe608060405234801561001057600080fd5b50600436106100625760003560e01c80633c9747f314610067578063646d87e814610085578063dd63b3d8146100b5578063e343409a146100e5578063eaddd0fd14610116578063f636a05314610134575b600080fd5b61006f610164565b60405161007c9190610ccf565b60405180910390f35b61009f600480360381019061009a9190610a8c565b610188565b6040516100ac9190610c8b565b60405180910390f35b6100cf60048036038101906100ca9190610a32565b6101a5565b6040516100dc9190610cea565b60405180910390f35b6100ff60048036038101906100fa9190610ad5565b6101ce565b60405161010d929190610ca6565b60405180910390f35b61011e6103de565b60405161012b9190610d0c565b60405180910390f35b61014e60048036038101906101499190610b2f565b610402565b60405161015b9190610c8b565b60405180910390f35b7f000000000000000000000000000000000000000000000000000000000000000081565b60008180602001905181019061019e9190610a5f565b9050919050565b6060816040516020016101b89190610c8b565b6040516020818303038152906040529050919050565b60008060007f000000000000000000000000000000000000000000000000000000000000000073ffffffffffffffffffffffffffffffffffffffff1663624a23e07fcdd7ba10b36b7349d5c9710e5e447ec8acaa8e3cbba8d20f4393eccf61f185b16040518263ffffffff1660e01b815260040161024c9190610ccf565b60206040518083038186803b15801561026457600080fd5b505afa158015610278573d6000803e3d6000fd5b505050506040513d601f19601f8201168201806040525081019061029c9190610a05565b905060008173ffffffffffffffffffffffffffffffffffffffff16632434c5bd866040518263ffffffff1660e01b81526004016102d99190610d87565b60206040518083038186803b1580156102f157600080fd5b505afa158015610305573d6000803e3d6000fd5b505050506040513d601f19601f820116820180604052508101906103299190610b02565b90506000600160008781526020019081526020016000206001015460016000888152602001908152602001600020600001546103659190610e4e565b9050806002836103759190610ea4565b111561038a57600080945094505050506103d9565b6001600087815260200190815260200160002060010154600160008881526020019081526020016000206000015411156103cd57600180945094505050506103d9565b60016000945094505050505b915091565b7f000000000000000000000000000000000000000000000000000000000000000081565b6000807f000000000000000000000000000000000000000000000000000000000000000073ffffffffffffffffffffffffffffffffffffffff1663624a23e07f346b2ab3a980432fd8f2e24828fc9f9ee2df1548701bc542f6ec17882b3276276040518263ffffffff1660e01b815260040161047e9190610ccf565b60206040518083038186803b15801561049657600080fd5b505afa1580156104aa573d6000803e3d6000fd5b505050506040513d601f19601f820116820180604052508101906104ce9190610a05565b90503373ffffffffffffffffffffffffffffffffffffffff168173ffffffffffffffffffffffffffffffffffffffff161461053e576040517f08c379a000000000000000000000000000000000000000000000000000000000815260040161053590610d67565b60405180910390fd5b6001600086815260200190815260200160002060020160008473ffffffffffffffffffffffffffffffffffffffff1673ffffffffffffffffffffffffffffffffffffffff16815260200190815260200160002060009054906101000a900460ff16156105df576040517f08c379a00000000000000000000000000000000000000000000000000000000081526004016105d690610d27565b60405180910390fd5b600180600087815260200190815260200160002060020160008573ffffffffffffffffffffffffffffffffffffffff1673ffffffffffffffffffffffffffffffffffffffff16815260200190815260200160002060006101000a81548160ff021916908315150217905550600180600087815260200190815260200160002060030160008282546106709190610e4e565b9250508190555060007f000000000000000000000000000000000000000000000000000000000000000073ffffffffffffffffffffffffffffffffffffffff1663624a23e07fcdd7ba10b36b7349d5c9710e5e447ec8acaa8e3cbba8d20f4393eccf61f185b16040518263ffffffff1660e01b81526004016106f29190610ccf565b60206040518083038186803b15801561070a57600080fd5b505afa15801561071e573d6000803e3d6000fd5b505050506040513d601f19601f820116820180604052508101906107429190610a05565b905060008173ffffffffffffffffffffffffffffffffffffffff16637eba557388876040518363ffffffff1660e01b8152600401610781929190610da2565b602060405180830381600087803b15801561079b57600080fd5b505af11580156107af573d6000803e3d6000fd5b505050506040513d601f19601f820116820180604052508101906107d39190610b02565b90503073ffffffffffffffffffffffffffffffffffffffff1663646d87e8876040518263ffffffff1660e01b815260040161080e9190610cea565b60206040518083038186803b15801561082657600080fd5b505afa92505050801561085757506040513d601f19601f820116820180604052508101906108549190610a5f565b60015b6108a157600061089c576040517f08c379a000000000000000000000000000000000000000000000000000000000815260040161089390610d47565b60405180910390fd5b610909565b80156108d95781600160008a815260200190815260200160002060000160008282546108cd9190610e4e565b92505081905550610907565b81600160008a815260200190815260200160002060010160008282546108ff9190610e4e565b925050819055505b505b600193505050509392505050565b600061092a61092584610df0565b610dcb565b90508281526020810184848401111561094657610945611062565b5b610951848285610f5d565b509392505050565b600081359050610968816110fd565b92915050565b60008151905061097d816110fd565b92915050565b60008135905061099281611114565b92915050565b6000815190506109a781611114565b92915050565b600082601f8301126109c2576109c161105d565b5b81356109d2848260208601610917565b91505092915050565b6000813590506109ea8161112b565b92915050565b6000815190506109ff8161112b565b92915050565b600060208284031215610a1b57610a1a61106c565b5b6000610a298482850161096e565b91505092915050565b600060208284031215610a4857610a4761106c565b5b6000610a5684828501610983565b91505092915050565b600060208284031215610a7557610a7461106c565b5b6000610a8384828501610998565b91505092915050565b600060208284031215610aa257610aa161106c565b5b600082013567ffffffffffffffff811115610ac057610abf611067565b5b610acc848285016109ad565b91505092915050565b600060208284031215610aeb57610aea61106c565b5b6000610af9848285016109db565b91505092915050565b600060208284031215610b1857610b1761106c565b5b6000610b26848285016109f0565b91505092915050565b600080600060608486031215610b4857610b4761106c565b5b6000610b56868287016109db565b935050602084013567ffffffffffffffff811115610b7757610b76611067565b5b610b83868287016109ad565b9250506040610b9486828701610959565b9150509250925092565b610ba781610ed5565b82525050565b610bb681610ee7565b82525050565b610bc581610ef3565b82525050565b6000610bd682610e21565b610be08185610e2c565b9350610bf0818560208601610f6c565b610bf981611071565b840191505092915050565b610c0d81610f27565b82525050565b6000610c20601f83610e3d565b9150610c2b82611082565b602082019050919050565b6000610c43601a83610e3d565b9150610c4e826110ab565b602082019050919050565b6000610c66601e83610e3d565b9150610c71826110d4565b602082019050919050565b610c8581610f1d565b82525050565b6000602082019050610ca06000830184610bad565b92915050565b6000604082019050610cbb6000830185610bad565b610cc86020830184610bad565b9392505050565b6000602082019050610ce46000830184610bbc565b92915050565b60006020820190508181036000830152610d048184610bcb565b905092915050565b6000602082019050610d216000830184610c04565b92915050565b60006020820190508181036000830152610d4081610c13565b9050919050565b60006020820190508181036000830152610d6081610c36565b9050919050565b60006020820190508181036000830152610d8081610c59565b9050919050565b6000602082019050610d9c6000830184610c7c565b92915050565b6000604082019050610db76000830185610c7c565b610dc46020830184610b9e565b9392505050565b6000610dd5610de6565b9050610de18282610f9f565b919050565b6000604051905090565b600067ffffffffffffffff821115610e0b57610e0a61102e565b5b610e1482611071565b9050602081019050919050565b600081519050919050565b600082825260208201905092915050565b600082825260208201905092915050565b6000610e5982610f1d565b9150610e6483610f1d565b9250827fffffffffffffffffffffffffffffffffffffffffffffffffffffffffffffffff03821115610e9957610e98610fd0565b5b828201905092915050565b6000610eaf82610f1d565b9150610eba83610f1d565b925082610eca57610ec9610fff565b5b828204905092915050565b6000610ee082610efd565b9050919050565b60008115159050919050565b6000819050919050565b600073ffffffffffffffffffffffffffffffffffffffff82169050919050565b6000819050919050565b6000610f3282610f39565b9050919050565b6000610f4482610f4b565b9050919050565b6000610f5682610efd565b9050919050565b82818337600083830152505050565b60005b83811015610f8a578082015181840152602081019050610f6f565b83811115610f99576000848401525b50505050565b610fa882611071565b810181811067ffffffffffffffff82111715610fc757610fc661102e565b5b80604052505050565b7f4e487b7100000000000000000000000000000000000000000000000000000000600052601160045260246000fd5b7f4e487b7100000000000000000000000000000000000000000000000000000000600052601260045260246000fd5b7f4e487b7100000000000000000000000000000000000000000000000000000000600052604160045260246000fd5b600080fd5b600080fd5b600080fd5b600080fd5b6000601f19601f8301169050919050565b7f426f6f74683a20566f7465722048617320766f74656420666f722070726f7000600082015250565b7f566f746520696e636f72726563746c7920666f726d6174746564000000000000600082015250565b7f566f74696e6720547970653a204f6e6c7920566f74696e6720426f6f74680000600082015250565b61110681610ed5565b811461111157600080fd5b50565b61111d81610ee7565b811461112857600080fd5b50565b61113481610f1d565b811461113f57600080fd5b5056fea264697066735822122012aa138a1c09aa586e6d18a960fa6c6f08df5b8ee66db47b93583cabede403d764736f6c63430008070033",
  "linkReferences": {},
  "deployedLinkReferences": {}
}