{
  "_format": "hh-sol-artifact-1",
  "contractName": "SimpleMajority",
  "sourceName": "contracts/votingTypes/SimpleMajority.sol",
  "abi": [
    {
      "inputs": [
        {
          "internalType": "address",
          "name": "_core",
          "type": "address"
        },
        {
          "internalType": "address",
          "name": "_timer",
          "type": "address"
        }
      ],
      "stateMutability": "nonpayable",
      "type": "constructor"
    },
    {
      "inputs": [],
      "name": "IDENTIFIER",
      "outputs": [
        {
          "internalType": "bytes32",
          "name": "",
          "type": "bytes32"
        }
      ],
      "stateMutability": "view",
      "type": "function"
    },
    {
      "inputs": [
        {
          "internalType": "uint256",
          "name": "_propID",
          "type": "uint256"
        }
      ],
      "name": "consensusReached",
      "outputs": [
        {
          "internalType": "bool",
          "name": "reached",
          "type": "bool"
        },
        {
          "internalType": "bool",
          "name": "votePassed",
          "type": "bool"
        }
      ],
      "stateMutability": "view",
      "type": "function"
    },
    {
      "inputs": [],
      "name": "core_",
      "outputs": [
        {
          "internalType": "contract ICore",
          "name": "",
          "type": "address"
        }
      ],
      "stateMutability": "view",
      "type": "function"
    },
    {
      "inputs": [
        {
          "internalType": "bytes",
          "name": "_ballot",
          "type": "bytes"
        }
      ],
      "name": "decodeCastBallot",
      "outputs": [
        {
          "internalType": "bool",
          "name": "",
          "type": "bool"
        }
      ],
      "stateMutability": "pure",
      "type": "function"
    },
    {
      "inputs": [
        {
          "internalType": "bool",
          "name": "_for",
          "type": "bool"
        }
      ],
      "name": "encodeBallot",
      "outputs": [
        {
          "internalType": "bytes",
          "name": "",
          "type": "bytes"
        }
      ],
      "stateMutability": "pure",
      "type": "function"
    },
    {
      "inputs": [],
      "name": "getCurrentTime",
      "outputs": [
        {
          "internalType": "uint256",
          "name": "",
          "type": "uint256"
        }
      ],
      "stateMutability": "view",
      "type": "function"
    },
    {
      "inputs": [
        {
          "internalType": "uint256",
          "name": "_propID",
          "type": "uint256"
        }
      ],
      "name": "getCurrentVote",
      "outputs": [
        {
          "internalType": "uint256",
          "name": "weightFor",
          "type": "uint256"
        },
        {
          "internalType": "uint256",
          "name": "weightAgainst",
          "type": "uint256"
        },
        {
          "internalType": "uint256",
          "name": "voterTurnout",
          "type": "uint256"
        }
      ],
      "stateMutability": "view",
      "type": "function"
    },
    {
      "inputs": [
        {
          "internalType": "uint256",
          "name": "_propID",
          "type": "uint256"
        },
        {
          "internalType": "address",
          "name": "_voter",
          "type": "address"
        }
      ],
      "name": "hasVoted",
      "outputs": [
        {
          "internalType": "bool",
          "name": "",
          "type": "bool"
        }
      ],
      "stateMutability": "view",
      "type": "function"
    },
    {
      "inputs": [
        {
          "internalType": "uint256",
          "name": "time",
          "type": "uint256"
        }
      ],
      "name": "setCurrentTime",
      "outputs": [],
      "stateMutability": "nonpayable",
      "type": "function"
    },
    {
      "inputs": [],
      "name": "timerAddress",
      "outputs": [
        {
          "internalType": "address",
          "name": "",
          "type": "address"
        }
      ],
      "stateMutability": "view",
      "type": "function"
    },
    {
      "inputs": [
        {
          "internalType": "uint256",
          "name": "_propID",
          "type": "uint256"
        },
        {
          "internalType": "bytes",
          "name": "_vote",
          "type": "bytes"
        },
        {
          "internalType": "address",
          "name": "_voter",
          "type": "address"
        }
      ],
      "name": "vote",
      "outputs": [
        {
          "internalType": "bool",
          "name": "",
          "type": "bool"
        }
      ],
      "stateMutability": "nonpayable",
      "type": "function"
    }
  ],
  "bytecode": "0x60c06040523480156200001157600080fd5b50604051620017fd380380620017fd83398181016040528101906200003791906200013f565b7fe927a917027ae678ece03159f7b891bcfbce4670390def18906836b285c642ae82828033600060026101000a81548173ffffffffffffffffffffffffffffffffffffffff021916908373ffffffffffffffffffffffffffffffffffffffff16021790555080600160006101000a81548173ffffffffffffffffffffffffffffffffffffffff021916908373ffffffffffffffffffffffffffffffffffffffff1602179055505082608081815250508173ffffffffffffffffffffffffffffffffffffffff1660a08173ffffffffffffffffffffffffffffffffffffffff1660601b815250505050505050620001d9565b6000815190506200013981620001bf565b92915050565b60008060408385031215620001595762000158620001ba565b5b6000620001698582860162000128565b92505060206200017c8582860162000128565b9150509250929050565b600062000193826200019a565b9050919050565b600073ffffffffffffffffffffffffffffffffffffffff82169050919050565b600080fd5b620001ca8162000186565b8114620001d657600080fd5b50565b60805160a05160601c6115e662000217600039600081816105af015281816107ba015281816107e10152610a570152600061047e01526115e66000f3fe608060405234801561001057600080fd5b50600436106100a95760003560e01c8063646d87e811610071578063646d87e814610154578063951c4ca514610184578063dd63b3d8146101b6578063e343409a146101e6578063eaddd0fd14610217578063f636a05314610235576100a9565b80631c39c38d146100ae57806322f8e566146100cc57806329cb924d146100e85780633c9747f3146101065780634385963214610124575b600080fd5b6100b6610265565b6040516100c391906110a7565b60405180910390f35b6100e660048036038101906100e19190610eb1565b61028b565b005b6100f0610377565b6040516100fd91906111be565b60405180910390f35b61010e61047c565b60405161011b9190611106565b60405180910390f35b61013e60048036038101906101399190610f0b565b6104a0565b60405161014b91906110c2565b60405180910390f35b61016e60048036038101906101699190610e68565b61050b565b60405161017b91906110c2565b60405180910390f35b61019e60048036038101906101999190610eb1565b610528565b6040516101ad93929190611202565b60405180910390f35b6101d060048036038101906101cb9190610e0e565b61057f565b6040516101dd9190611121565b60405180910390f35b61020060048036038101906101fb9190610eb1565b6105a8565b60405161020e9291906110dd565b60405180910390f35b61021f6107b8565b60405161022c9190611143565b60405180910390f35b61024f600480360381019061024a9190610f4b565b6107dc565b60405161025c91906110c2565b60405180910390f35b600160009054906101000a900473ffffffffffffffffffffffffffffffffffffffff1681565b600073ffffffffffffffffffffffffffffffffffffffff16600160009054906101000a900473ffffffffffffffffffffffffffffffffffffffff1673ffffffffffffffffffffffffffffffffffffffff1614156102e757600080fd5b600160009054906101000a900473ffffffffffffffffffffffffffffffffffffffff1673ffffffffffffffffffffffffffffffffffffffff166322f8e566826040518263ffffffff1660e01b815260040161034291906111be565b600060405180830381600087803b15801561035c57600080fd5b505af1158015610370573d6000803e3d6000fd5b5050505050565b60008073ffffffffffffffffffffffffffffffffffffffff16600160009054906101000a900473ffffffffffffffffffffffffffffffffffffffff1673ffffffffffffffffffffffffffffffffffffffff161461047557600160009054906101000a900473ffffffffffffffffffffffffffffffffffffffff1673ffffffffffffffffffffffffffffffffffffffff166329cb924d6040518163ffffffff1660e01b815260040160206040518083038186803b15801561043657600080fd5b505afa15801561044a573d6000803e3d6000fd5b505050506040513d601f19601f8201168201806040525081019061046e9190610ede565b9050610479565b4290505b90565b7f000000000000000000000000000000000000000000000000000000000000000081565b60006002600084815260200190815260200160002060020160008373ffffffffffffffffffffffffffffffffffffffff1673ffffffffffffffffffffffffffffffffffffffff16815260200190815260200160002060009054906101000a900460ff16905092915050565b6000818060200190518101906105219190610e3b565b9050919050565b60008060006002600085815260200190815260200160002060000154925060026000858152602001908152602001600020600101549150600260008581526020019081526020016000206003015490509193909250565b60608160405160200161059291906110c2565b6040516020818303038152906040529050919050565b60008060007f000000000000000000000000000000000000000000000000000000000000000073ffffffffffffffffffffffffffffffffffffffff1663624a23e07fcdd7ba10b36b7349d5c9710e5e447ec8acaa8e3cbba8d20f4393eccf61f185b16040518263ffffffff1660e01b81526004016106269190611106565b60206040518083038186803b15801561063e57600080fd5b505afa158015610652573d6000803e3d6000fd5b505050506040513d601f19601f820116820180604052508101906106769190610de1565b905060008173ffffffffffffffffffffffffffffffffffffffff16632434c5bd866040518263ffffffff1660e01b81526004016106b391906111be565b60206040518083038186803b1580156106cb57600080fd5b505afa1580156106df573d6000803e3d6000fd5b505050506040513d601f19601f820116820180604052508101906107039190610ede565b905060006002600087815260200190815260200160002060010154600260008881526020019081526020016000206000015461073f91906112bc565b90508060028361074f9190611312565b111561076457600080945094505050506107b3565b6002600087815260200190815260200160002060010154600260008881526020019081526020016000206000015411156107a757600180945094505050506107b3565b60016000945094505050505b915091565b7f000000000000000000000000000000000000000000000000000000000000000081565b6000807f000000000000000000000000000000000000000000000000000000000000000073ffffffffffffffffffffffffffffffffffffffff1663624a23e07f346b2ab3a980432fd8f2e24828fc9f9ee2df1548701bc542f6ec17882b3276276040518263ffffffff1660e01b81526004016108589190611106565b60206040518083038186803b15801561087057600080fd5b505afa158015610884573d6000803e3d6000fd5b505050506040513d601f19601f820116820180604052508101906108a89190610de1565b90503373ffffffffffffffffffffffffffffffffffffffff168173ffffffffffffffffffffffffffffffffffffffff1614610918576040517f08c379a000000000000000000000000000000000000000000000000000000000815260040161090f9061119e565b60405180910390fd5b6002600086815260200190815260200160002060020160008473ffffffffffffffffffffffffffffffffffffffff1673ffffffffffffffffffffffffffffffffffffffff16815260200190815260200160002060009054906101000a900460ff16156109b9576040517f08c379a00000000000000000000000000000000000000000000000000000000081526004016109b09061115e565b60405180910390fd5b60016002600087815260200190815260200160002060020160008573ffffffffffffffffffffffffffffffffffffffff1673ffffffffffffffffffffffffffffffffffffffff16815260200190815260200160002060006101000a81548160ff0219169083151502179055506001600260008781526020019081526020016000206003016000828254610a4c91906112bc565b9250508190555060007f000000000000000000000000000000000000000000000000000000000000000073ffffffffffffffffffffffffffffffffffffffff1663624a23e07fcdd7ba10b36b7349d5c9710e5e447ec8acaa8e3cbba8d20f4393eccf61f185b16040518263ffffffff1660e01b8152600401610ace9190611106565b60206040518083038186803b158015610ae657600080fd5b505afa158015610afa573d6000803e3d6000fd5b505050506040513d601f19601f82011682018060405250810190610b1e9190610de1565b905060008173ffffffffffffffffffffffffffffffffffffffff16637eba557388876040518363ffffffff1660e01b8152600401610b5d9291906111d9565b602060405180830381600087803b158015610b7757600080fd5b505af1158015610b8b573d6000803e3d6000fd5b505050506040513d601f19601f82011682018060405250810190610baf9190610ede565b90503073ffffffffffffffffffffffffffffffffffffffff1663646d87e8876040518263ffffffff1660e01b8152600401610bea9190611121565b60206040518083038186803b158015610c0257600080fd5b505afa925050508015610c3357506040513d601f19601f82011682018060405250810190610c309190610e3b565b60015b610c7d576000610c78576040517f08c379a0000000000000000000000000000000000000000000000000000000008152600401610c6f9061117e565b60405180910390fd5b610ce5565b8015610cb55781600260008a81526020019081526020016000206000016000828254610ca991906112bc565b92505081905550610ce3565b81600260008a81526020019081526020016000206001016000828254610cdb91906112bc565b925050819055505b505b600193505050509392505050565b6000610d06610d018461125e565b611239565b905082815260208101848484011115610d2257610d216114d0565b5b610d2d8482856113cb565b509392505050565b600081359050610d448161156b565b92915050565b600081519050610d598161156b565b92915050565b600081359050610d6e81611582565b92915050565b600081519050610d8381611582565b92915050565b600082601f830112610d9e57610d9d6114cb565b5b8135610dae848260208601610cf3565b91505092915050565b600081359050610dc681611599565b92915050565b600081519050610ddb81611599565b92915050565b600060208284031215610df757610df66114da565b5b6000610e0584828501610d4a565b91505092915050565b600060208284031215610e2457610e236114da565b5b6000610e3284828501610d5f565b91505092915050565b600060208284031215610e5157610e506114da565b5b6000610e5f84828501610d74565b91505092915050565b600060208284031215610e7e57610e7d6114da565b5b600082013567ffffffffffffffff811115610e9c57610e9b6114d5565b5b610ea884828501610d89565b91505092915050565b600060208284031215610ec757610ec66114da565b5b6000610ed584828501610db7565b91505092915050565b600060208284031215610ef457610ef36114da565b5b6000610f0284828501610dcc565b91505092915050565b60008060408385031215610f2257610f216114da565b5b6000610f3085828601610db7565b9250506020610f4185828601610d35565b9150509250929050565b600080600060608486031215610f6457610f636114da565b5b6000610f7286828701610db7565b935050602084013567ffffffffffffffff811115610f9357610f926114d5565b5b610f9f86828701610d89565b9250506040610fb086828701610d35565b9150509250925092565b610fc381611343565b82525050565b610fd281611355565b82525050565b610fe181611361565b82525050565b6000610ff28261128f565b610ffc818561129a565b935061100c8185602086016113da565b611015816114df565b840191505092915050565b61102981611395565b82525050565b600061103c601f836112ab565b9150611047826114f0565b602082019050919050565b600061105f601a836112ab565b915061106a82611519565b602082019050919050565b6000611082601e836112ab565b915061108d82611542565b602082019050919050565b6110a18161138b565b82525050565b60006020820190506110bc6000830184610fba565b92915050565b60006020820190506110d76000830184610fc9565b92915050565b60006040820190506110f26000830185610fc9565b6110ff6020830184610fc9565b9392505050565b600060208201905061111b6000830184610fd8565b92915050565b6000602082019050818103600083015261113b8184610fe7565b905092915050565b60006020820190506111586000830184611020565b92915050565b600060208201905081810360008301526111778161102f565b9050919050565b6000602082019050818103600083015261119781611052565b9050919050565b600060208201905081810360008301526111b781611075565b9050919050565b60006020820190506111d36000830184611098565b92915050565b60006040820190506111ee6000830185611098565b6111fb6020830184610fba565b9392505050565b60006060820190506112176000830186611098565b6112246020830185611098565b6112316040830184611098565b949350505050565b6000611243611254565b905061124f828261140d565b919050565b6000604051905090565b600067ffffffffffffffff8211156112795761127861149c565b5b611282826114df565b9050602081019050919050565b600081519050919050565b600082825260208201905092915050565b600082825260208201905092915050565b60006112c78261138b565b91506112d28361138b565b9250827fffffffffffffffffffffffffffffffffffffffffffffffffffffffffffffffff038211156113075761130661143e565b5b828201905092915050565b600061131d8261138b565b91506113288361138b565b9250826113385761133761146d565b5b828204905092915050565b600061134e8261136b565b9050919050565b60008115159050919050565b6000819050919050565b600073ffffffffffffffffffffffffffffffffffffffff82169050919050565b6000819050919050565b60006113a0826113a7565b9050919050565b60006113b2826113b9565b9050919050565b60006113c48261136b565b9050919050565b82818337600083830152505050565b60005b838110156113f85780820151818401526020810190506113dd565b83811115611407576000848401525b50505050565b611416826114df565b810181811067ffffffffffffffff821117156114355761143461149c565b5b80604052505050565b7f4e487b7100000000000000000000000000000000000000000000000000000000600052601160045260246000fd5b7f4e487b7100000000000000000000000000000000000000000000000000000000600052601260045260246000fd5b7f4e487b7100000000000000000000000000000000000000000000000000000000600052604160045260246000fd5b600080fd5b600080fd5b600080fd5b600080fd5b6000601f19601f8301169050919050565b7f426f6f74683a20566f7465722048617320766f74656420666f722070726f7000600082015250565b7f566f746520696e636f72726563746c7920666f726d6174746564000000000000600082015250565b7f566f74696e6720547970653a204f6e6c7920566f74696e6720426f6f74680000600082015250565b61157481611343565b811461157f57600080fd5b50565b61158b81611355565b811461159657600080fd5b50565b6115a28161138b565b81146115ad57600080fd5b5056fea264697066735822122037b6c7711a50182034cb4ae2d8dd7286d2cda61b9ecb497f177c583683fa185e64736f6c63430008070033",
  "linkReferences": {},
  "deployedLinkReferences": {}
}