{
  "_format": "hh-sol-artifact-1",
  "contractName": "SimpleMajority",
  "sourceName": "contracts/votingTypes/SimpleMajority.sol",
  "abi": [
    {
      "inputs": [
        {
          "internalType": "address",
          "name": "_core",
          "type": "address"
        },
        {
          "internalType": "address",
          "name": "_timer",
          "type": "address"
        }
      ],
      "stateMutability": "nonpayable",
      "type": "constructor"
    },
    {
      "inputs": [],
      "name": "IDENTIFIER",
      "outputs": [
        {
          "internalType": "bytes32",
          "name": "",
          "type": "bytes32"
        }
      ],
      "stateMutability": "view",
      "type": "function"
    },
    {
      "inputs": [
        {
          "internalType": "bytes32",
          "name": "c__0x00e2a1ba",
          "type": "bytes32"
        }
      ],
      "name": "c_0x00e2a1ba",
      "outputs": [],
      "stateMutability": "pure",
      "type": "function"
    },
    {
      "inputs": [
        {
          "internalType": "bytes32",
          "name": "c__0x0da7e8db",
          "type": "bytes32"
        }
      ],
      "name": "c_0x0da7e8db",
      "outputs": [],
      "stateMutability": "pure",
      "type": "function"
    },
    {
      "inputs": [
        {
          "internalType": "bytes32",
          "name": "c__0x35ade16d",
          "type": "bytes32"
        }
      ],
      "name": "c_0x35ade16d",
      "outputs": [],
      "stateMutability": "pure",
      "type": "function"
    },
    {
      "inputs": [
        {
          "internalType": "bytes32",
          "name": "c__0x4617aa6d",
          "type": "bytes32"
        }
      ],
      "name": "c_0x4617aa6d",
      "outputs": [],
      "stateMutability": "pure",
      "type": "function"
    },
    {
      "inputs": [
        {
          "internalType": "uint256",
          "name": "_propID",
          "type": "uint256"
        }
      ],
      "name": "consensusReached",
      "outputs": [
        {
          "internalType": "bool",
          "name": "reached",
          "type": "bool"
        },
        {
          "internalType": "bool",
          "name": "votePassed",
          "type": "bool"
        }
      ],
      "stateMutability": "view",
      "type": "function"
    },
    {
      "inputs": [],
      "name": "core_",
      "outputs": [
        {
          "internalType": "contract ICore",
          "name": "",
          "type": "address"
        }
      ],
      "stateMutability": "view",
      "type": "function"
    },
    {
      "inputs": [
        {
          "internalType": "bytes",
          "name": "_ballot",
          "type": "bytes"
        }
      ],
      "name": "decodeCastBallot",
      "outputs": [
        {
          "internalType": "bool",
          "name": "",
          "type": "bool"
        }
      ],
      "stateMutability": "pure",
      "type": "function"
    },
    {
      "inputs": [
        {
          "internalType": "bool",
          "name": "_for",
          "type": "bool"
        }
      ],
      "name": "encodeBallot",
      "outputs": [
        {
          "internalType": "bytes",
          "name": "",
          "type": "bytes"
        }
      ],
      "stateMutability": "pure",
      "type": "function"
    },
    {
      "inputs": [],
      "name": "getCurrentTime",
      "outputs": [
        {
          "internalType": "uint256",
          "name": "",
          "type": "uint256"
        }
      ],
      "stateMutability": "view",
      "type": "function"
    },
    {
      "inputs": [
        {
          "internalType": "uint256",
          "name": "_propID",
          "type": "uint256"
        }
      ],
      "name": "getCurrentVote",
      "outputs": [
        {
          "internalType": "uint256",
          "name": "weightFor",
          "type": "uint256"
        },
        {
          "internalType": "uint256",
          "name": "weightAgainst",
          "type": "uint256"
        },
        {
          "internalType": "uint256",
          "name": "voterTurnout",
          "type": "uint256"
        }
      ],
      "stateMutability": "view",
      "type": "function"
    },
    {
      "inputs": [
        {
          "internalType": "uint256",
          "name": "_propID",
          "type": "uint256"
        },
        {
          "internalType": "address",
          "name": "_voter",
          "type": "address"
        }
      ],
      "name": "hasVoted",
      "outputs": [
        {
          "internalType": "bool",
          "name": "",
          "type": "bool"
        }
      ],
      "stateMutability": "view",
      "type": "function"
    },
    {
      "inputs": [
        {
          "internalType": "uint256",
          "name": "time",
          "type": "uint256"
        }
      ],
      "name": "setCurrentTime",
      "outputs": [],
      "stateMutability": "nonpayable",
      "type": "function"
    },
    {
      "inputs": [],
      "name": "timerAddress",
      "outputs": [
        {
          "internalType": "address",
          "name": "",
          "type": "address"
        }
      ],
      "stateMutability": "view",
      "type": "function"
    },
    {
      "inputs": [
        {
          "internalType": "uint256",
          "name": "_propID",
          "type": "uint256"
        },
        {
          "internalType": "bytes",
          "name": "_vote",
          "type": "bytes"
        },
        {
          "internalType": "address",
          "name": "_voter",
          "type": "address"
        }
      ],
      "name": "vote",
      "outputs": [
        {
          "internalType": "bool",
          "name": "",
          "type": "bool"
        }
      ],
      "stateMutability": "nonpayable",
      "type": "function"
    }
  ],
  "bytecode": "0x60c06040523480156200001157600080fd5b5060405162002b0038038062002b008339818101604052810190620000379190620003bb565b7fe927a917027ae678ece03159f7b891bcfbce4670390def18906836b285c642ae8282806200008f7fcc8333d776dbed5bc1d5a69fea8a56e88f87955b6a086409d43cdf5b99a00f9160001b6200039860201b60201c565b620000c37f96e003626c0adb9922999e671f576019384ec3e342797245b19e293fc7ae98b860001b6200039860201b60201c565b620000f77f0124756d9b2742e29a6e998127a5d65a6fce0de7b15fe3cffaa57159d293eff460001b6200039860201b60201c565b33600060026101000a81548173ffffffffffffffffffffffffffffffffffffffff021916908373ffffffffffffffffffffffffffffffffffffffff1602179055506200016c7fb4dd8b063f43faf32d5335822e2f70ca2407748b186159c1ed4fe5975bf48fa460001b6200039b60201b60201c565b620001a07fdf0a09891d7ec0658602054cf2c2e2a41244c011d975b6b3df84f87f4e01f1fa60001b6200039b60201b60201c565b620001d47f74aa4cf06a04b763c651dbe9c8d04358ebbbd2cc4e1e17afd7713fac4af5ab8260001b6200039b60201b60201c565b80600160006101000a81548173ffffffffffffffffffffffffffffffffffffffff021916908373ffffffffffffffffffffffffffffffffffffffff160217905550506200024a7f91b90f81106ec7301a2ef3f3646fc2ac7a03224c1592a81c08bf2be57bf85da360001b6200039e60201b60201c565b6200027e7faa1a5f5f7c07ad1d1a00bf086c9ae885f69ed49cd3abc04289c41680f08eda2360001b6200039e60201b60201c565b620002b27f96d06dce006a4c22db8a8fd81f6fd8d01ca83c6b578b06c55ae55449f894b56160001b6200039e60201b60201c565b8260808181525050620002ee7f5df41bcd415e6f031fea4b950841c2b7a0c71533bb77597e55e47143977ffe5060001b6200039e60201b60201c565b620003227f86b081f2885abf844d8a6e92c42bb8b42f1f332206a0f04e515da586d0b809f560001b6200039e60201b60201c565b8173ffffffffffffffffffffffffffffffffffffffff1660a08173ffffffffffffffffffffffffffffffffffffffff1660601b81525050505050620003907fec0e8336bb1e3441f92e2ba6ea07dd926c028b09f54cbcc0f498afc82cae06ca60001b620003a160201b60201c565b505062000455565b50565b50565b50565b50565b600081519050620003b5816200043b565b92915050565b60008060408385031215620003d557620003d462000436565b5b6000620003e585828601620003a4565b9250506020620003f885828601620003a4565b9150509250929050565b60006200040f8262000416565b9050919050565b600073ffffffffffffffffffffffffffffffffffffffff82169050919050565b600080fd5b620004468162000402565b81146200045257600080fd5b50565b60805160a05160601c61266d6200049360003960008181610cd40152818161118b01528181611237015261176d01526000610856015261266d6000f3fe608060405234801561001057600080fd5b50600436106100f55760003560e01c8063646d87e811610097578063dd63b3d811610066578063dd63b3d814610272578063e343409a146102a2578063eaddd0fd146102d3578063f636a053146102f1576100f5565b8063646d87e8146101d8578063951c4ca5146102085780639ef7786d1461023a578063cd825e5e14610256576100f5565b806334829155116100d357806334829155146101525780633c9747f31461016e578063438596321461018c57806361e4a6c9146101bc576100f5565b80631c39c38d146100fa57806322f8e5661461011857806329cb924d14610134575b600080fd5b610102610321565b60405161010f9190612117565b60405180910390f35b610132600480360381019061012d9190611f21565b610347565b005b61013c6105bf565b604051610149919061222e565b60405180910390f35b61016c60048036038101906101679190611eab565b610851565b005b610176610854565b6040516101839190612176565b60405180910390f35b6101a660048036038101906101a19190611f7b565b610878565b6040516101b39190612132565b60405180910390f35b6101d660048036038101906101d19190611eab565b610967565b005b6101f260048036038101906101ed9190611ed8565b61096a565b6040516101ff9190612132565b60405180910390f35b610222600480360381019061021d9190611f21565b610a0b565b60405161023193929190612272565b60405180910390f35b610254600480360381019061024f9190611eab565b610b96565b005b610270600480360381019061026b9190611eab565b610b99565b005b61028c60048036038101906102879190611e51565b610b9c565b6040516102999190612191565b60405180910390f35b6102bc60048036038101906102b79190611f21565b610c49565b6040516102ca92919061214d565b60405180910390f35b6102db611189565b6040516102e891906121b3565b60405180910390f35b61030b60048036038101906103069190611fbb565b6111ad565b6040516103189190612132565b60405180910390f35b600160009054906101000a900473ffffffffffffffffffffffffffffffffffffffff1681565b6103737f6f9ae8edea4a5ca594982c8c889dce6d3960ecead6d85640cfaeefab4965137c60001b610967565b61039f7f6eebb330cb0c74c8c0a3ebded6ac701f48b060de13591c74ab4785681b589f0c60001b610967565b6103cb7f36c1556249a63a81b58af6fdcad0065ddcb58894bd16e2b1bf48df8c292c738560001b610967565b6103f77f27d0da14a88f9fdfd196625fc7df7cbe0aa29fb76c0f7bf605cbb6d8aea6f1ff60001b610967565b600073ffffffffffffffffffffffffffffffffffffffff16600160009054906101000a900473ffffffffffffffffffffffffffffffffffffffff1673ffffffffffffffffffffffffffffffffffffffff16141561045357600080fd5b61047f7f627e7f681529433198cf60e7806c37173ef6d256c8dad2832dc14d984d63c81560001b610967565b6104ab7faf0631e8e987467954b158416256f14065683e999a12c243f4a4bc80c6573a8160001b610967565b6104d77fa032f460f3852175b8933100cc9d781f5b5cff200a63b0672b41cef6cafef80c60001b610967565b6105037f900be1020eac74e7a6523a153b11dd4ba203e5d968d1d2d104979e3ff33e9cef60001b610967565b61052f7f6d7d330e8510a19129b2b889c08c7f30e23b59da3f683ee0df8e8e5100917e1760001b610967565b600160009054906101000a900473ffffffffffffffffffffffffffffffffffffffff1673ffffffffffffffffffffffffffffffffffffffff166322f8e566826040518263ffffffff1660e01b815260040161058a919061222e565b600060405180830381600087803b1580156105a457600080fd5b505af11580156105b8573d6000803e3d6000fd5b5050505050565b60006105ed7fd47833f51fc5ec0f8a24234f14627d428c69063796f9630201d1dc1058ae8e5760001b610967565b6106197f0b69545d716b02169fb0a154958cf479d6c74febdce881af2cad9c6bed4b0c3b60001b610967565b6106457f570eff7e9b79704810f3de14032f6898e0c4ee6c9024ca8a4efe0aea7091fa5f60001b610967565b600073ffffffffffffffffffffffffffffffffffffffff16600160009054906101000a900473ffffffffffffffffffffffffffffffffffffffff1673ffffffffffffffffffffffffffffffffffffffff16146107c6576106c77f647590469700e029974926aa472ac468fe95744326892633413c8c201ed298c060001b610967565b6106f37f107a4f7720644a8f8f993f44f4c11c80b4c882005d7ffff284e62ffc5cd9533b60001b610967565b61071f7f449a6ac96c66c2f10c6f7037b7566faf778bcdfef39e56e364596f87914ef8a260001b610967565b600160009054906101000a900473ffffffffffffffffffffffffffffffffffffffff1673ffffffffffffffffffffffffffffffffffffffff166329cb924d6040518163ffffffff1660e01b815260040160206040518083038186803b15801561078757600080fd5b505afa15801561079b573d6000803e3d6000fd5b505050506040513d601f19601f820116820180604052508101906107bf9190611f4e565b905061084e565b6107f27ff81c329ab48f42d2998e2454dc7c351806520aa7f6d72b2e468d72814fdfe64a60001b610967565b61081e7fc5895091758a048fba2cd20e5b0c510227acf44c1b622ab8b72e135767e7aa6660001b610967565b61084a7fb60b2b01d584079a590a86b90ecde07699cb728ea718e85d0f63afb9f1bbc67360001b610967565b4290505b90565b50565b7f000000000000000000000000000000000000000000000000000000000000000081565b60006108a67f584b78ff858832eca4643e0705622c881fbeadab6b348a2d8bdf345c72df380260001b610b99565b6108d27ffd554cd11c644bd1abd5f357f9d1d82a26b6cd5f17b9cbe905ec7e14d67030b060001b610b99565b6108fe7f13d9dab164dd7ca4ad1a679e9795d13a2374083b6c70c4e278faff780633771760001b610b99565b6002600084815260200190815260200160002060020160008373ffffffffffffffffffffffffffffffffffffffff1673ffffffffffffffffffffffffffffffffffffffff16815260200190815260200160002060009054906101000a900460ff16905092915050565b50565b60006109987fc8ffe131381dd78e9ffdc2dd06cc40dcb63faf25e9e7aacff520085b9be46deb60001b610b99565b6109c47fc04e05f13a7e3660c605469edc586ee9f7e9df7b3afedf495bc431f5e6096fd260001b610b99565b6109f07f09711cb7486aa576dd2c7f4b164375e78963366fbfd90212c5b60582ef43b7a160001b610b99565b81806020019051810190610a049190611e7e565b9050919050565b6000806000610a3c7f5921888314272f8e4a217ae0727d15be6ba97cce90452b69a5795d2c15e7785a60001b610b99565b610a687f51962ad73aafe338d8ddef23d22ef523f7decdfd9d2ef1686cde5ca20930ae5960001b610b99565b610a947f6b0a686a3fe250f0306efbeae0fd4a359d4a847bde1145ef4a596fbe6e7576c360001b610b99565b60026000858152602001908152602001600020600001549250610ad97fc2c9573094b6ee9812e773973d587bce8b4115c677478c88d4f8857bdad5082260001b610b99565b610b057f28326d14dc0c541eebbec3bbf9b6b261b9b72666d1b733ce249b7bfa71932d1060001b610b99565b60026000858152602001908152602001600020600101549150610b4a7fcdcda9e8252870751df9f018c3f984c842e56ff55c2d877dba6265df8e320ae060001b610b99565b610b767f992c6937c2e9df92eddb6ce556b0751f82c40ba61f7b8c689187b946e313be5760001b610b99565b600260008581526020019081526020016000206003015490509193909250565b50565b50565b6060610bca7f4cfde53f0803103801bc3949b90fb97fc48e26e01f0f28b14e72cf3c7598f5ef60001b610b99565b610bf67fc1a8100975fd9e9fb860a59249f4b5b2e55581fec6f5451c7c09360e316bc9b260001b610b99565b610c227f6151d4051aee9839cd93ede43e74e632ecbf5f4ab683b07e318c2d0614ea181560001b610b99565b81604051602001610c339190612132565b6040516020818303038152906040529050919050565b600080610c787fa8b7e070010f169c82a838c7017a35f55eea0b081fdf210ca99ccc2bfcf1435d60001b610b99565b610ca47f0163e6fcb6661fac25319c4faff6d4d3958066fb9d1a5af25d649450e835b60d60001b610b99565b610cd07f263fa5d16939e1021fb0e5c092092ccb73bbb07e1f73f3833086013fb54bb90460001b610b99565b60007f000000000000000000000000000000000000000000000000000000000000000073ffffffffffffffffffffffffffffffffffffffff1663624a23e07fcdd7ba10b36b7349d5c9710e5e447ec8acaa8e3cbba8d20f4393eccf61f185b16040518263ffffffff1660e01b8152600401610d4b9190612176565b60206040518083038186803b158015610d6357600080fd5b505afa158015610d77573d6000803e3d6000fd5b505050506040513d601f19601f82011682018060405250810190610d9b9190611e24565b9050610dc97fbec914b88e5c3bf57f9eacde367801f1164ba90f2ec6d033b9ef41fa69ddf4bf60001b610b99565b610df57ff910b35abb942e8a60dbfffe56befa8b39680ddde491fca11262a34548042a3060001b610b99565b60008173ffffffffffffffffffffffffffffffffffffffff16632434c5bd866040518263ffffffff1660e01b8152600401610e30919061222e565b60206040518083038186803b158015610e4857600080fd5b505afa158015610e5c573d6000803e3d6000fd5b505050506040513d601f19601f82011682018060405250810190610e809190611f4e565b9050610eae7f9ecad487f3b438c2855670566d06438ee63b9dcff7509afbd1c6613d55941d2860001b610b99565b610eda7fd04c8fac6f55b56c488de35349d41f168aafab2991159f0e09d09a3d3884194d60001b610b99565b600060026000878152602001908152602001600020600101546002600088815260200190815260200160002060000154610f14919061232c565b9050610f427fd7680db46aa0f1d73ee2c3305587152d6b684c064c644d6d44886ad8276823b660001b610b99565b610f6e7f7f6849ed5eabbb7241e11365d8da66e8fa56ccf205117b11e202c81f530609c060001b610b99565b80600283610f7c9190612382565b1161100e57610fad7fe086924b81dc405c96963b5c1ac81ce64577c2e6000ac1a459cf8650c6c6db3a60001b610b99565b610fd97f844c3925c583494f05a0688e08f6ed0dc044d7c7e2fbf79b540c91fe55bdb43e60001b610b99565b6110057f46e02f4cd5c83b4cddb1873b9299269764acd67ca265e04b083df1a2f65a8abe60001b610b99565b6001945061103b565b61103a7fabd06a9d2e56c6331333a9b300d53a329636e4d917b74812416e3ef8a5b12f4260001b610b99565b5b6110677fa5707589a5f02cb984f715259050742ed875499176ba29c1e3acbb4e1a1b69f560001b610b99565b6110937f4b913c281619cbee984c0fa0fe8ec5a500516d5f2e894b5458963b9c4d50ba3660001b610b99565b600260008781526020019081526020016000206001015460026000888152602001908152602001600020600001541115611154576110f37fdf08358ccf95b2a7b782504d2b56e840759b3c4f39f0da8eb833bc93c8b3a34260001b610b99565b61111f7f36dade95dc4a235104928a807dfdb744748643619b128cf13991ac005e87e2fb60001b610b99565b61114b7f751713cfb3d07ce47e624151176eb747bff7257aaff85e9b5a69d8645aa2c25f60001b610b99565b60019350611181565b6111807fde45d8d572746c422cb2c934ab00f043eaa25321be1aea5b97f04751d5b0894560001b610b99565b5b505050915091565b7f000000000000000000000000000000000000000000000000000000000000000081565b60006111db7fd643eeca552d9ad5613c37faeb98c406821ab4c0fbb9134d9f20f8b8ce0f59bb60001b610b99565b6112077fbbebbd345f7dc23d2bdc401e8e8333f84615b1fcf4c7809ca290510095d2075260001b610b99565b6112337fea029753e95db55977231f31e8f840dbd5150365084bcd31d63ab09ea942565f60001b610b99565b60007f000000000000000000000000000000000000000000000000000000000000000073ffffffffffffffffffffffffffffffffffffffff1663624a23e07f346b2ab3a980432fd8f2e24828fc9f9ee2df1548701bc542f6ec17882b3276276040518263ffffffff1660e01b81526004016112ae9190612176565b60206040518083038186803b1580156112c657600080fd5b505afa1580156112da573d6000803e3d6000fd5b505050506040513d601f19601f820116820180604052508101906112fe9190611e24565b905061132c7f69b39e1b085a2517f20206c31e38c90d75244bcc395a4775fb008df22964129860001b610b99565b6113587ffce40b00f7cc9b66c2cbcb8919eec732a92455107df632b3728755ccc430aca760001b610b99565b6113847f68b4aa0be50a758645ed843e805b6733c6b0ba3e011f0f64847edac4e32733f660001b610b99565b3373ffffffffffffffffffffffffffffffffffffffff168173ffffffffffffffffffffffffffffffffffffffff16146113f2576040517f08c379a00000000000000000000000000000000000000000000000000000000081526004016113e99061220e565b60405180910390fd5b61141e7f854daf6bf5e7e8712f8e2bbaea5349849bc1907006ecf0b82b4eae9ba0f9be3f60001b610b99565b61144a7f271899c2dda97ebd64ba854fdedabbba33c7a2d51cd5361a6b4317ba168a40ab60001b610b99565b6114767fe138f45c34fce1de829d2c45582c7eb757200c99996c13dfc58ded15ac1b3f2560001b610b99565b6114a27f71cb32dabe597d0f14454d5d9830bcc63a2a0d72105158b78be332620fb20fd460001b610b99565b6114ce7f6b257d61db9c68db30067e9ecfec6263e0e007b29c652f78a27c37fb22a1d13760001b610b99565b6114fa7f11c86aa8268a017863cf207c4deb417c60eba35a0ba0e6ca8ec84fbab62acbf260001b610b99565b6002600086815260200190815260200160002060020160008473ffffffffffffffffffffffffffffffffffffffff1673ffffffffffffffffffffffffffffffffffffffff16815260200190815260200160002060009054906101000a900460ff161561159b576040517f08c379a0000000000000000000000000000000000000000000000000000000008152600401611592906121ee565b60405180910390fd5b6115c77fbb0591d3785501928d9af0de7d5e106aa55024ec05dfc5eb8fca7ff3f9fd9c6b60001b610b99565b6115f37f42d168da148ac722ef8b2164f197d59c80d71b95564c856a9b0379a9471fec4d60001b610b99565b61161f7f028556c5309606f464d3608c5627541e177681ca55f4e2b37f1c704f1c0cdc6260001b610b99565b60016002600087815260200190815260200160002060020160008573ffffffffffffffffffffffffffffffffffffffff1673ffffffffffffffffffffffffffffffffffffffff16815260200190815260200160002060006101000a81548160ff0219169083151502179055506116b77fb0e3e259ab57f8ff4c94659698db60fb788979627ed1e6acfef7d4bb2869208760001b610b99565b6116e37fc711feb85b775b4ba23042674447b27070205d02bca42a9c08b4a57958e02b4e60001b610b99565b600160026000878152602001908152602001600020600301600082825461170a919061232c565b9250508190555061173d7fc8e67608f413a458fc62c4cf1a2b67087323a2c900f51bc278a2a5efd3de8aee60001b610b99565b6117697faaa565e5cc35fb5ca8c64a9da84e70caf613ea4d84f35ab7b97c3f86bf18d43760001b610b99565b60007f000000000000000000000000000000000000000000000000000000000000000073ffffffffffffffffffffffffffffffffffffffff1663624a23e07fcdd7ba10b36b7349d5c9710e5e447ec8acaa8e3cbba8d20f4393eccf61f185b16040518263ffffffff1660e01b81526004016117e49190612176565b60206040518083038186803b1580156117fc57600080fd5b505afa158015611810573d6000803e3d6000fd5b505050506040513d601f19601f820116820180604052508101906118349190611e24565b90506118627f634df5cdf5b2ede8bec437dd7e3631478bcc1febd87be887ce7ce2d4b80b043760001b610b99565b61188e7f59afbb88b5a99137d5598ed9efeba1ab103c0707f18e88764554d11ca29a6cad60001b610b99565b60008173ffffffffffffffffffffffffffffffffffffffff16637eba557388876040518363ffffffff1660e01b81526004016118cb929190612249565b602060405180830381600087803b1580156118e557600080fd5b505af11580156118f9573d6000803e3d6000fd5b505050506040513d601f19601f8201168201806040525081019061191d9190611f4e565b905061194b7f352cdc88a5deaada13b29b9f8b25d1c7a5807bfe3d6bbd01f1cd2e2006bb7e2160001b610b99565b6119777fbf49bc778822892bb9c2adf1f1b7fb75268b622836661da9a065461a9685032860001b610b99565b3073ffffffffffffffffffffffffffffffffffffffff1663646d87e8876040518263ffffffff1660e01b81526004016119b09190612191565b60206040518083038186803b1580156119c857600080fd5b505afa9250505080156119f957506040513d601f19601f820116820180604052508101906119f69190611e7e565b60015b611af357611a297ff969c8646f7a66962270919b8ddb020e5aa398f7271c202e9c867109f09044aa60001b610b99565b611a557feffd035e586e5f1e3759911ac5d4c28e4c836fbf3309e878fe88a36aade86dd760001b610b99565b611a817fdf6f834277e3f617534342da7bb8453bfc545d15ebfa9dacb30ef86372f47d5e60001b610b99565b6000611ac2576040517f08c379a0000000000000000000000000000000000000000000000000000000008152600401611ab9906121ce565b60405180910390fd5b611aee7fec4f3829b4db3a1f560b55b3664a6d18380d32c4b1e95c3409fee7792879beb460001b610b99565b611cbb565b611b1f7ff4b0f38723541459dbcb255a406491fb095c16d41508292f6d480dbd1165156d60001b610b99565b611b4b7f87ca89f52b729d8d22e73ffb45a8885b1ae952426530814db9b3e68edbdd465f60001b610b99565b8015611c0757611b7d7f43895534e6a5caff499d8674fc37de6516274f8a65826a65907f71628e6cccdd60001b610b99565b611ba97fc3468800cb567a097504951c23ebbc225783ca007537bd1e09150af1456d04c260001b610b99565b611bd57f9430d59fec7cd6ad3c4da63b60eeac4b0fc550ff234c0da1ab4d3e109a982fc760001b610b99565b81600260008a81526020019081526020016000206000016000828254611bfb919061232c565b92505081905550611cb9565b611c337f83a3824e622bf9134f17ce6497a39d8fb14d3b4f4f95d75a04c65a38c3c4bb0e60001b610b99565b611c5f7f5216bd8a5ed5bbc431d821f0105c395a386a61819bca11f357a2a659b2edc49660001b610b99565b611c8b7f13c6b8efce771a24d70227d5187dca1208846010cd51c1e4cb16990dfcc3a72b60001b610b99565b81600260008a81526020019081526020016000206001016000828254611cb1919061232c565b925050819055505b505b611ce77f48c277b5431c8e07dc136dd4b6ac6578e82be6396b80a11a20853ca1bb684c1560001b610b99565b611d137f5aa21b717e1b854c51ed76d72bf71473927eefb1d006107a5de69877f994dd5560001b610b99565b600193505050509392505050565b6000611d34611d2f846122ce565b6122a9565b905082815260208101848484011115611d5057611d4f612540565b5b611d5b84828561243b565b509392505050565b600081359050611d72816125db565b92915050565b600081519050611d87816125db565b92915050565b600081359050611d9c816125f2565b92915050565b600081519050611db1816125f2565b92915050565b600081359050611dc681612609565b92915050565b600082601f830112611de157611de061253b565b5b8135611df1848260208601611d21565b91505092915050565b600081359050611e0981612620565b92915050565b600081519050611e1e81612620565b92915050565b600060208284031215611e3a57611e3961254a565b5b6000611e4884828501611d78565b91505092915050565b600060208284031215611e6757611e6661254a565b5b6000611e7584828501611d8d565b91505092915050565b600060208284031215611e9457611e9361254a565b5b6000611ea284828501611da2565b91505092915050565b600060208284031215611ec157611ec061254a565b5b6000611ecf84828501611db7565b91505092915050565b600060208284031215611eee57611eed61254a565b5b600082013567ffffffffffffffff811115611f0c57611f0b612545565b5b611f1884828501611dcc565b91505092915050565b600060208284031215611f3757611f3661254a565b5b6000611f4584828501611dfa565b91505092915050565b600060208284031215611f6457611f6361254a565b5b6000611f7284828501611e0f565b91505092915050565b60008060408385031215611f9257611f9161254a565b5b6000611fa085828601611dfa565b9250506020611fb185828601611d63565b9150509250929050565b600080600060608486031215611fd457611fd361254a565b5b6000611fe286828701611dfa565b935050602084013567ffffffffffffffff81111561200357612002612545565b5b61200f86828701611dcc565b925050604061202086828701611d63565b9150509250925092565b612033816123b3565b82525050565b612042816123c5565b82525050565b612051816123d1565b82525050565b6000612062826122ff565b61206c818561230a565b935061207c81856020860161244a565b6120858161254f565b840191505092915050565b61209981612405565b82525050565b60006120ac601f8361231b565b91506120b782612560565b602082019050919050565b60006120cf601f8361231b565b91506120da82612589565b602082019050919050565b60006120f2601e8361231b565b91506120fd826125b2565b602082019050919050565b612111816123fb565b82525050565b600060208201905061212c600083018461202a565b92915050565b60006020820190506121476000830184612039565b92915050565b60006040820190506121626000830185612039565b61216f6020830184612039565b9392505050565b600060208201905061218b6000830184612048565b92915050565b600060208201905081810360008301526121ab8184612057565b905092915050565b60006020820190506121c86000830184612090565b92915050565b600060208201905081810360008301526121e78161209f565b9050919050565b60006020820190508181036000830152612207816120c2565b9050919050565b60006020820190508181036000830152612227816120e5565b9050919050565b60006020820190506122436000830184612108565b92915050565b600060408201905061225e6000830185612108565b61226b602083018461202a565b9392505050565b60006060820190506122876000830186612108565b6122946020830185612108565b6122a16040830184612108565b949350505050565b60006122b36122c4565b90506122bf828261247d565b919050565b6000604051905090565b600067ffffffffffffffff8211156122e9576122e861250c565b5b6122f28261254f565b9050602081019050919050565b600081519050919050565b600082825260208201905092915050565b600082825260208201905092915050565b6000612337826123fb565b9150612342836123fb565b9250827fffffffffffffffffffffffffffffffffffffffffffffffffffffffffffffffff03821115612377576123766124ae565b5b828201905092915050565b600061238d826123fb565b9150612398836123fb565b9250826123a8576123a76124dd565b5b828204905092915050565b60006123be826123db565b9050919050565b60008115159050919050565b6000819050919050565b600073ffffffffffffffffffffffffffffffffffffffff82169050919050565b6000819050919050565b600061241082612417565b9050919050565b600061242282612429565b9050919050565b6000612434826123db565b9050919050565b82818337600083830152505050565b60005b8381101561246857808201518184015260208101905061244d565b83811115612477576000848401525b50505050565b6124868261254f565b810181811067ffffffffffffffff821117156124a5576124a461250c565b5b80604052505050565b7f4e487b7100000000000000000000000000000000000000000000000000000000600052601160045260246000fd5b7f4e487b7100000000000000000000000000000000000000000000000000000000600052601260045260246000fd5b7f4e487b7100000000000000000000000000000000000000000000000000000000600052604160045260246000fd5b600080fd5b600080fd5b600080fd5b600080fd5b6000601f19601f8301169050919050565b7f436f6e3a20566f746520696e636f72726563746c7920666f726d617474656400600082015250565b7f426f6f74683a20566f7465722048617320766f74656420666f722070726f7000600082015250565b7f566f74696e6720547970653a204f6e6c7920566f74696e6720426f6f74680000600082015250565b6125e4816123b3565b81146125ef57600080fd5b50565b6125fb816123c5565b811461260657600080fd5b50565b612612816123d1565b811461261d57600080fd5b50565b612629816123fb565b811461263457600080fd5b5056fea264697066735822122046ee42efc5a0822c3ef0a72a0b08d8f0415dcbf60bcbf703ce740d6abac9a91c64736f6c63430008070033",
  "linkReferences": {},
  "deployedLinkReferences": {}
}