{
  "_format": "hh-sol-artifact-1",
  "contractName": "Core",
  "sourceName": "contracts/Core.sol",
  "abi": [
    {
      "inputs": [
        {
          "internalType": "address[]",
          "name": "_instances",
          "type": "address[]"
        }
      ],
      "stateMutability": "nonpayable",
      "type": "constructor"
    },
    {
      "inputs": [],
      "name": "IDENTIFIER",
      "outputs": [
        {
          "internalType": "bytes32",
          "name": "",
          "type": "bytes32"
        }
      ],
      "stateMutability": "view",
      "type": "function"
    },
    {
      "inputs": [
        {
          "internalType": "bytes32",
          "name": "_key",
          "type": "bytes32"
        },
        {
          "internalType": "address",
          "name": "_instance",
          "type": "address"
        },
        {
          "internalType": "bytes4",
          "name": "_function",
          "type": "bytes4"
        }
      ],
      "name": "addContract",
      "outputs": [],
      "stateMutability": "nonpayable",
      "type": "function"
    },
    {
      "inputs": [
        {
          "internalType": "bytes32",
          "name": "_exeID",
          "type": "bytes32"
        }
      ],
      "name": "execute",
      "outputs": [],
      "stateMutability": "nonpayable",
      "type": "function"
    },
    {
      "inputs": [
        {
          "internalType": "bytes32",
          "name": "_key",
          "type": "bytes32"
        }
      ],
      "name": "getContract",
      "outputs": [
        {
          "internalType": "address",
          "name": "",
          "type": "address"
        },
        {
          "internalType": "bytes4",
          "name": "",
          "type": "bytes4"
        }
      ],
      "stateMutability": "view",
      "type": "function"
    },
    {
      "inputs": [
        {
          "internalType": "bytes32",
          "name": "_key",
          "type": "bytes32"
        }
      ],
      "name": "getInstance",
      "outputs": [
        {
          "internalType": "address",
          "name": "",
          "type": "address"
        }
      ],
      "stateMutability": "view",
      "type": "function"
    },
    {
      "inputs": [
        {
          "internalType": "bytes32",
          "name": "_key",
          "type": "bytes32"
        },
        {
          "internalType": "address",
          "name": "_instance",
          "type": "address"
        },
        {
          "internalType": "bytes4",
          "name": "_function",
          "type": "bytes4"
        }
      ],
      "name": "updateContract",
      "outputs": [],
      "stateMutability": "nonpayable",
      "type": "function"
    }
  ],
  "bytecode": "0x60806040523480156200001157600080fd5b50604051620012f8380380620012f8833981810160405281019062000037919062000103565b5062000284565b6000620000556200004f846200017d565b62000154565b905080838252602082019050828560208602820111156200007b576200007a6200024a565b5b60005b85811015620000af5781620000948882620000b9565b8452602084019350602083019250506001810190506200007e565b5050509392505050565b600081519050620000ca816200026a565b92915050565b600082601f830112620000e857620000e762000245565b5b8151620000fa8482602086016200003e565b91505092915050565b6000602082840312156200011c576200011b62000254565b5b600082015167ffffffffffffffff8111156200013d576200013c6200024f565b5b6200014b84828501620000d0565b91505092915050565b60006200016062000173565b90506200016e8282620001e0565b919050565b6000604051905090565b600067ffffffffffffffff8211156200019b576200019a62000216565b5b602082029050602081019050919050565b6000620001b982620001c0565b9050919050565b600073ffffffffffffffffffffffffffffffffffffffff82169050919050565b620001eb8262000259565b810181811067ffffffffffffffff821117156200020d576200020c62000216565b5b80604052505050565b7f4e487b7100000000000000000000000000000000000000000000000000000000600052604160045260246000fd5b600080fd5b600080fd5b600080fd5b600080fd5b6000601f19601f8301169050919050565b6200027581620001ac565b81146200028157600080fd5b50565b61106480620002946000396000f3fe608060405234801561001057600080fd5b50600436106100625760003560e01c80631e7fcad8146100675780633c9747f31461008357806342fae5ee146100a1578063624a23e0146100bd578063e16c7d98146100ed578063e751f2711461011e575b600080fd5b610081600480360381019061007c9190610a90565b61013a565b005b61008b61025c565b6040516100989190610c05565b60405180910390f35b6100bb60048036038101906100b69190610a90565b610280565b005b6100d760048036038101906100d29190610a63565b6102fe565b6040516100e49190610bc1565b60405180910390f35b61010760048036038101906101029190610a63565b61033d565b604051610115929190610bdc565b60405180910390f35b61013860048036038101906101339190610a63565b6103a2565b005b3073ffffffffffffffffffffffffffffffffffffffff163373ffffffffffffffffffffffffffffffffffffffff16146101a8576040517f08c379a000000000000000000000000000000000000000000000000000000000815260040161019f90610c40565b60405180910390fd5b600073ffffffffffffffffffffffffffffffffffffffff1660008085815260200190815260200160002060000160009054906101000a900473ffffffffffffffffffffffffffffffffffffffff1673ffffffffffffffffffffffffffffffffffffffff161461024c576040517f08c379a000000000000000000000000000000000000000000000000000000000815260040161024390610c20565b60405180910390fd5b61025783838361060c565b505050565b7f907208bc2088fa777f18b43edd8b766e7243504cf8497f7ed936c65c7a446bbc81565b3073ffffffffffffffffffffffffffffffffffffffff163373ffffffffffffffffffffffffffffffffffffffff16146102ee576040517f08c379a00000000000000000000000000000000000000000000000000000000081526004016102e590610c40565b60405180910390fd5b6102f983838361060c565b505050565b600080600083815260200190815260200160002060000160009054906101000a900473ffffffffffffffffffffffffffffffffffffffff169050919050565b60008060008084815260200190815260200160002060000160009054906101000a900473ffffffffffffffffffffffffffffffffffffffff1660008085815260200190815260200160002060000160149054906101000a900460e01b91509150915091565b60003073ffffffffffffffffffffffffffffffffffffffff1663e16c7d987f59e2d72f5870ccddd14d35394bd3c22374071b2da7c07a3d6c3b690400b736286040518263ffffffff1660e01b81526004016103fd9190610c05565b604080518083038186803b15801561041457600080fd5b505afa158015610428573d6000803e3d6000fd5b505050506040513d601f19601f8201168201806040525081019061044c919061097c565b50905060008060008373ffffffffffffffffffffffffffffffffffffffff1663971aa75e866040518263ffffffff1660e01b815260040161048d9190610c05565b60006040518083038186803b1580156104a557600080fd5b505afa1580156104b9573d6000803e3d6000fd5b505050506040513d6000823e3d601f19601f820116820180604052508101906104e291906109bc565b92509250925060005b835181101561060457600084828151811061050957610508610ecf565b5b602002602001015173ffffffffffffffffffffffffffffffffffffffff1683838151811061053a57610539610ecf565b5b602002602001015185848151811061055557610554610ecf565b5b602002602001015160405161056a9190610baa565b60006040518083038185875af1925050503d80600081146105a7576040519150601f19603f3d011682016040523d82523d6000602084013e6105ac565b606091505b50509050806105f0576040517f08c379a00000000000000000000000000000000000000000000000000000000081526004016105e790610c60565b60405180910390fd5b5080806105fc90610e57565b9150506104eb565b505050505050565b8160008085815260200190815260200160002060000160006101000a81548173ffffffffffffffffffffffffffffffffffffffff021916908373ffffffffffffffffffffffffffffffffffffffff1602179055508060008085815260200190815260200160002060000160146101000a81548163ffffffff021916908360e01c0217905550505050565b60006106a96106a484610ca5565b610c80565b905080838252602082019050828560208602820111156106cc576106cb610f32565b5b60005b858110156106fc57816106e2888261085b565b8452602084019350602083019250506001810190506106cf565b5050509392505050565b600061071961071484610cd1565b610c80565b9050808382526020820190508285602086028201111561073c5761073b610f32565b5b60005b8581101561078a57815167ffffffffffffffff81111561076257610761610f2d565b5b80860161076f8982610939565b8552602085019450602084019350505060018101905061073f565b5050509392505050565b60006107a76107a284610cfd565b610c80565b905080838252602082019050828560208602820111156107ca576107c9610f32565b5b60005b858110156107fa57816107e08882610967565b8452602084019350602083019250506001810190506107cd565b5050509392505050565b600061081761081284610d29565b610c80565b90508281526020810184848401111561083357610832610f37565b5b61083e848285610df3565b509392505050565b60008135905061085581610fd2565b92915050565b60008151905061086a81610fd2565b92915050565b600082601f83011261088557610884610f2d565b5b8151610895848260208601610696565b91505092915050565b600082601f8301126108b3576108b2610f2d565b5b81516108c3848260208601610706565b91505092915050565b600082601f8301126108e1576108e0610f2d565b5b81516108f1848260208601610794565b91505092915050565b60008135905061090981610fe9565b92915050565b60008135905061091e81611000565b92915050565b60008151905061093381611000565b92915050565b600082601f83011261094e5761094d610f2d565b5b815161095e848260208601610804565b91505092915050565b60008151905061097681611017565b92915050565b6000806040838503121561099357610992610f41565b5b60006109a18582860161085b565b92505060206109b285828601610924565b9150509250929050565b6000806000606084860312156109d5576109d4610f41565b5b600084015167ffffffffffffffff8111156109f3576109f2610f3c565b5b6109ff86828701610870565b935050602084015167ffffffffffffffff811115610a2057610a1f610f3c565b5b610a2c8682870161089e565b925050604084015167ffffffffffffffff811115610a4d57610a4c610f3c565b5b610a59868287016108cc565b9150509250925092565b600060208284031215610a7957610a78610f41565b5b6000610a87848285016108fa565b91505092915050565b600080600060608486031215610aa957610aa8610f41565b5b6000610ab7868287016108fa565b9350506020610ac886828701610846565b9250506040610ad98682870161090f565b9150509250925092565b610aec81610d81565b82525050565b610afb81610d93565b82525050565b610b0a81610d9d565b82525050565b6000610b1b82610d5a565b610b258185610d65565b9350610b35818560208601610df3565b80840191505092915050565b6000610b4e601b83610d70565b9150610b5982610f57565b602082019050919050565b6000610b71601a83610d70565b9150610b7c82610f80565b602082019050919050565b6000610b94601083610d70565b9150610b9f82610fa9565b602082019050919050565b6000610bb68284610b10565b915081905092915050565b6000602082019050610bd66000830184610ae3565b92915050565b6000604082019050610bf16000830185610ae3565b610bfe6020830184610b01565b9392505050565b6000602082019050610c1a6000830184610af2565b92915050565b60006020820190508181036000830152610c3981610b41565b9050919050565b60006020820190508181036000830152610c5981610b64565b9050919050565b60006020820190508181036000830152610c7981610b87565b9050919050565b6000610c8a610c9b565b9050610c968282610e26565b919050565b6000604051905090565b600067ffffffffffffffff821115610cc057610cbf610efe565b5b602082029050602081019050919050565b600067ffffffffffffffff821115610cec57610ceb610efe565b5b602082029050602081019050919050565b600067ffffffffffffffff821115610d1857610d17610efe565b5b602082029050602081019050919050565b600067ffffffffffffffff821115610d4457610d43610efe565b5b610d4d82610f46565b9050602081019050919050565b600081519050919050565b600081905092915050565b600082825260208201905092915050565b6000610d8c82610dc9565b9050919050565b6000819050919050565b60007fffffffff0000000000000000000000000000000000000000000000000000000082169050919050565b600073ffffffffffffffffffffffffffffffffffffffff82169050919050565b6000819050919050565b60005b83811015610e11578082015181840152602081019050610df6565b83811115610e20576000848401525b50505050565b610e2f82610f46565b810181811067ffffffffffffffff82111715610e4e57610e4d610efe565b5b80604052505050565b6000610e6282610de9565b91507fffffffffffffffffffffffffffffffffffffffffffffffffffffffffffffffff821415610e9557610e94610ea0565b5b600182019050919050565b7f4e487b7100000000000000000000000000000000000000000000000000000000600052601160045260246000fd5b7f4e487b7100000000000000000000000000000000000000000000000000000000600052603260045260246000fd5b7f4e487b7100000000000000000000000000000000000000000000000000000000600052604160045260246000fd5b600080fd5b600080fd5b600080fd5b600080fd5b600080fd5b6000601f19601f8301169050919050565b7f436f72653a207573652075706461746520746f207265706c6163650000000000600082015250565b7f436f72653a204f6e6c7920657865732063616e206d6f64696679000000000000600082015250565b7f436f72653a20457865206661696c656400000000000000000000000000000000600082015250565b610fdb81610d81565b8114610fe657600080fd5b50565b610ff281610d93565b8114610ffd57600080fd5b50565b61100981610d9d565b811461101457600080fd5b50565b61102081610de9565b811461102b57600080fd5b5056fea26469706673582212201e254c8c7e177eb446d683ca18510fcebc2ba5ef0662d79c338d1fc18c225c5764736f6c63430008070033",
  "linkReferences": {},
  "deployedLinkReferences": {}
}