{
  "_format": "hh-sol-artifact-1",
  "contractName": "Core",
  "sourceName": "contracts/Core.sol",
  "abi": [
    {
      "inputs": [
        {
          "internalType": "bytes32",
          "name": "_key",
          "type": "bytes32"
        },
        {
          "internalType": "address",
          "name": "_instance",
          "type": "address"
        }
      ],
      "name": "addContract",
      "outputs": [],
      "stateMutability": "nonpayable",
      "type": "function"
    },
    {
      "inputs": [
        {
          "internalType": "uint256",
          "name": "_propID",
          "type": "uint256"
        }
      ],
      "name": "execute",
      "outputs": [],
      "stateMutability": "nonpayable",
      "type": "function"
    },
    {
      "inputs": [
        {
          "internalType": "bytes32",
          "name": "_key",
          "type": "bytes32"
        }
      ],
      "name": "getContract",
      "outputs": [
        {
          "internalType": "address",
          "name": "",
          "type": "address"
        }
      ],
      "stateMutability": "view",
      "type": "function"
    }
  ],
  "bytecode": "0x608060405234801561001057600080fd5b50610285806100206000396000f3fe608060405234801561001057600080fd5b50600436106100415760003560e01c80635188f99614610046578063e16c7d9814610062578063fe0d94c114610092575b600080fd5b610060600480360381019061005b9190610128565b6100ae565b005b61007c600480360381019061007791906100fb565b6100b2565b60405161008991906101a4565b60405180910390f35b6100ac60048036038101906100a79190610168565b6100b9565b005b5050565b6000919050565b50565b6000813590506100cb8161020a565b92915050565b6000813590506100e081610221565b92915050565b6000813590506100f581610238565b92915050565b60006020828403121561011157610110610205565b5b600061011f848285016100d1565b91505092915050565b6000806040838503121561013f5761013e610205565b5b600061014d858286016100d1565b925050602061015e858286016100bc565b9150509250929050565b60006020828403121561017e5761017d610205565b5b600061018c848285016100e6565b91505092915050565b61019e816101bf565b82525050565b60006020820190506101b96000830184610195565b92915050565b60006101ca826101db565b9050919050565b6000819050919050565b600073ffffffffffffffffffffffffffffffffffffffff82169050919050565b6000819050919050565b600080fd5b610213816101bf565b811461021e57600080fd5b50565b61022a816101d1565b811461023557600080fd5b50565b610241816101fb565b811461024c57600080fd5b5056fea2646970667358221220eb853508ae009a081f2f815d9461c15ae22055a77ac4ba2c56330a7da321f3dd64736f6c63430008070033",
  "linkReferences": {},
  "deployedLinkReferences": {}
}