{
  "_format": "hh-sol-artifact-1",
  "contractName": "Core",
  "sourceName": "contracts/Core.sol",
  "abi": [
    {
      "inputs": [
        {
          "internalType": "address",
          "name": "_coord",
          "type": "address"
        },
        {
          "internalType": "address",
          "name": "_exes",
          "type": "address"
        },
        {
          "internalType": "address",
          "name": "_props",
          "type": "address"
        },
        {
          "internalType": "address",
          "name": "_voteWeight",
          "type": "address"
        },
        {
          "internalType": "address",
          "name": "_votingBooth",
          "type": "address"
        },
        {
          "internalType": "address",
          "name": "_voteStorage",
          "type": "address"
        }
      ],
      "stateMutability": "nonpayable",
      "type": "constructor"
    },
    {
      "anonymous": false,
      "inputs": [
        {
          "indexed": false,
          "internalType": "bytes32",
          "name": "key",
          "type": "bytes32"
        },
        {
          "indexed": false,
          "internalType": "address",
          "name": "oldImplementation",
          "type": "address"
        },
        {
          "indexed": false,
          "internalType": "address",
          "name": "newImplementation",
          "type": "address"
        }
      ],
      "name": "ImplementationChanged",
      "type": "event"
    },
    {
      "inputs": [],
      "name": "IDENTIFIER",
      "outputs": [
        {
          "internalType": "bytes32",
          "name": "",
          "type": "bytes32"
        }
      ],
      "stateMutability": "view",
      "type": "function"
    },
    {
      "inputs": [
        {
          "internalType": "bytes32",
          "name": "_key",
          "type": "bytes32"
        },
        {
          "internalType": "address",
          "name": "_instance",
          "type": "address"
        }
      ],
      "name": "addContract",
      "outputs": [],
      "stateMutability": "nonpayable",
      "type": "function"
    },
    {
      "inputs": [
        {
          "internalType": "bytes32",
          "name": "_key",
          "type": "bytes32"
        }
      ],
      "name": "deleteContract",
      "outputs": [],
      "stateMutability": "nonpayable",
      "type": "function"
    },
    {
      "inputs": [
        {
          "internalType": "bytes32",
          "name": "_exeID",
          "type": "bytes32"
        }
      ],
      "name": "execute",
      "outputs": [],
      "stateMutability": "nonpayable",
      "type": "function"
    },
    {
      "inputs": [
        {
          "internalType": "bytes32",
          "name": "_key",
          "type": "bytes32"
        }
      ],
      "name": "getInstance",
      "outputs": [
        {
          "internalType": "address",
          "name": "",
          "type": "address"
        }
      ],
      "stateMutability": "view",
      "type": "function"
    },
    {
      "inputs": [
        {
          "internalType": "bytes32",
          "name": "_key",
          "type": "bytes32"
        },
        {
          "internalType": "address",
          "name": "_instance",
          "type": "address"
        }
      ],
      "name": "updateContract",
      "outputs": [],
      "stateMutability": "nonpayable",
      "type": "function"
    }
  ],
  "bytecode": "0x60806040523480156200001157600080fd5b50604051620019cd380380620019cd83398181016040528101906200003791906200024a565b620000697fd578563424ab02f85ec03c6b1aee04947ebdd4a30db46cba3bcd7f56ef40b199876200016f60201b60201c565b6200009b7f59e2d72f5870ccddd14d35394bd3c22374071b2da7c07a3d6c3b690400b73628866200016f60201b60201c565b620000cd7f36209a57dfd79e3872ec3a0c88c653bbe7e32a12306e5e1f92f118c1936ae8b2856200016f60201b60201c565b620000ff7fcdd7ba10b36b7349d5c9710e5e447ec8acaa8e3cbba8d20f4393eccf61f185b1846200016f60201b60201c565b620001317f346b2ab3a980432fd8f2e24828fc9f9ee2df1548701bc542f6ec17882b327627836200016f60201b60201c565b620001637f92b17ff91a1f46cc9f1d4a69447ffdb215c04417e5debb5977aa0c45da3af9e7826200016f60201b60201c565b505050505050620003a2565b7fd80ff32702e0622dbb097b3978d56222743155c7f344ab504ce2e194b913fadc8260008085815260200190815260200160002060009054906101000a900473ffffffffffffffffffffffffffffffffffffffff1683604051620001d69392919062000308565b60405180910390a18060008084815260200190815260200160002060006101000a81548173ffffffffffffffffffffffffffffffffffffffff021916908373ffffffffffffffffffffffffffffffffffffffff1602179055505050565b600081519050620002448162000388565b92915050565b60008060008060008060c087890312156200026a576200026962000383565b5b60006200027a89828a0162000233565b96505060206200028d89828a0162000233565b9550506040620002a089828a0162000233565b9450506060620002b389828a0162000233565b9350506080620002c689828a0162000233565b92505060a0620002d989828a0162000233565b9150509295509295509295565b620002f18162000345565b82525050565b620003028162000359565b82525050565b60006060820190506200031f6000830186620002f7565b6200032e6020830185620002e6565b6200033d6040830184620002e6565b949350505050565b6000620003528262000363565b9050919050565b6000819050919050565b600073ffffffffffffffffffffffffffffffffffffffff82169050919050565b600080fd5b620003938162000345565b81146200039f57600080fd5b50565b61161b80620003b26000396000f3fe608060405234801561001057600080fd5b50600436106100625760003560e01c80633c9747f3146100675780635188f99614610085578063624a23e0146100a1578063956138ed146100d1578063dec0257d146100ed578063e751f27114610109575b600080fd5b61006f610125565b60405161007c9190611038565b60405180910390f35b61009f600480360381019061009a9190610e5f565b610149565b005b6100bb60048036038101906100b69190610e32565b6102d6565b6040516100c8919061101d565b60405180910390f35b6100eb60048036038101906100e69190610e5f565b610312565b005b61010760048036038101906101029190610e32565b6104a0565b005b610123600480360381019061011e9190610e32565b6105be565b005b7f907208bc2088fa777f18b43edd8b766e7243504cf8497f7ed936c65c7a446bbc81565b3073ffffffffffffffffffffffffffffffffffffffff163373ffffffffffffffffffffffffffffffffffffffff16146101b7576040517f08c379a00000000000000000000000000000000000000000000000000000000081526004016101ae9061108a565b60405180910390fd5b600073ffffffffffffffffffffffffffffffffffffffff1660008084815260200190815260200160002060009054906101000a900473ffffffffffffffffffffffffffffffffffffffff1673ffffffffffffffffffffffffffffffffffffffff1614610258576040517f08c379a000000000000000000000000000000000000000000000000000000000815260040161024f9061112a565b60405180910390fd5b600073ffffffffffffffffffffffffffffffffffffffff168173ffffffffffffffffffffffffffffffffffffffff1614156102c8576040517f08c379a00000000000000000000000000000000000000000000000000000000081526004016102bf906110ea565b60405180910390fd5b6102d2828261099e565b5050565b600080600083815260200190815260200160002060009054906101000a900473ffffffffffffffffffffffffffffffffffffffff169050919050565b3073ffffffffffffffffffffffffffffffffffffffff163373ffffffffffffffffffffffffffffffffffffffff1614610380576040517f08c379a00000000000000000000000000000000000000000000000000000000081526004016103779061108a565b60405180910390fd5b600073ffffffffffffffffffffffffffffffffffffffff1660008084815260200190815260200160002060009054906101000a900473ffffffffffffffffffffffffffffffffffffffff1673ffffffffffffffffffffffffffffffffffffffff161415610422576040517f08c379a00000000000000000000000000000000000000000000000000000000081526004016104199061110a565b60405180910390fd5b600073ffffffffffffffffffffffffffffffffffffffff168173ffffffffffffffffffffffffffffffffffffffff161415610492576040517f08c379a0000000000000000000000000000000000000000000000000000000008152600401610489906110aa565b60405180910390fd5b61049c828261099e565b5050565b3073ffffffffffffffffffffffffffffffffffffffff163373ffffffffffffffffffffffffffffffffffffffff161461050e576040517f08c379a00000000000000000000000000000000000000000000000000000000081526004016105059061108a565b60405180910390fd5b600073ffffffffffffffffffffffffffffffffffffffff1660008083815260200190815260200160002060009054906101000a900473ffffffffffffffffffffffffffffffffffffffff1673ffffffffffffffffffffffffffffffffffffffff1614156105b0576040517f08c379a00000000000000000000000000000000000000000000000000000000081526004016105a79061116a565b60405180910390fd5b6105bb81600061099e565b50565b60003073ffffffffffffffffffffffffffffffffffffffff1663624a23e07fd578563424ab02f85ec03c6b1aee04947ebdd4a30db46cba3bcd7f56ef40b1996040518263ffffffff1660e01b81526004016106199190611038565b60206040518083038186803b15801561063157600080fd5b505afa158015610645573d6000803e3d6000fd5b505050506040513d601f19601f820116820180604052508101906106699190610d31565b90508073ffffffffffffffffffffffffffffffffffffffff16639cf782cb836040518263ffffffff1660e01b81526004016106a49190611038565b60206040518083038186803b1580156106bc57600080fd5b505afa1580156106d0573d6000803e3d6000fd5b505050506040513d601f19601f820116820180604052508101906106f49190610e05565b610733576040517f08c379a000000000000000000000000000000000000000000000000000000000815260040161072a9061114a565b60405180910390fd5b60003073ffffffffffffffffffffffffffffffffffffffff1663624a23e07f59e2d72f5870ccddd14d35394bd3c22374071b2da7c07a3d6c3b690400b736286040518263ffffffff1660e01b815260040161078e9190611038565b60206040518083038186803b1580156107a657600080fd5b505afa1580156107ba573d6000803e3d6000fd5b505050506040513d601f19601f820116820180604052508101906107de9190610d31565b905060008060008373ffffffffffffffffffffffffffffffffffffffff1663971aa75e876040518263ffffffff1660e01b815260040161081e9190611038565b60006040518083038186803b15801561083657600080fd5b505afa15801561084a573d6000803e3d6000fd5b505050506040513d6000823e3d601f19601f820116820180604052508101906108739190610d5e565b92509250925060005b835181101561099557600084828151811061089a576108996113b9565b5b602002602001015173ffffffffffffffffffffffffffffffffffffffff168383815181106108cb576108ca6113b9565b5b60200260200101518584815181106108e6576108e56113b9565b5b60200260200101516040516108fb9190611006565b60006040518083038185875af1925050503d8060008114610938576040519150601f19603f3d011682016040523d82523d6000602084013e61093d565b606091505b5050905080610981576040517f08c379a0000000000000000000000000000000000000000000000000000000008152600401610978906110ca565b60405180910390fd5b50808061098d90611341565b91505061087c565b50505050505050565b7fd80ff32702e0622dbb097b3978d56222743155c7f344ab504ce2e194b913fadc8260008085815260200190815260200160002060009054906101000a900473ffffffffffffffffffffffffffffffffffffffff1683604051610a0393929190611053565b60405180910390a18060008084815260200190815260200160002060006101000a81548173ffffffffffffffffffffffffffffffffffffffff021916908373ffffffffffffffffffffffffffffffffffffffff1602179055505050565b6000610a73610a6e846111af565b61118a565b90508083825260208201905082856020860282011115610a9657610a9561141c565b5b60005b85811015610ac65781610aac8882610c25565b845260208401935060208301925050600181019050610a99565b5050509392505050565b6000610ae3610ade846111db565b61118a565b90508083825260208201905082856020860282011115610b0657610b0561141c565b5b60005b85811015610b5457815167ffffffffffffffff811115610b2c57610b2b611417565b5b808601610b398982610cee565b85526020850194506020840193505050600181019050610b09565b5050509392505050565b6000610b71610b6c84611207565b61118a565b90508083825260208201905082856020860282011115610b9457610b9361141c565b5b60005b85811015610bc45781610baa8882610d1c565b845260208401935060208301925050600181019050610b97565b5050509392505050565b6000610be1610bdc84611233565b61118a565b905082815260208101848484011115610bfd57610bfc611421565b5b610c088482856112dd565b509392505050565b600081359050610c1f81611589565b92915050565b600081519050610c3481611589565b92915050565b600082601f830112610c4f57610c4e611417565b5b8151610c5f848260208601610a60565b91505092915050565b600082601f830112610c7d57610c7c611417565b5b8151610c8d848260208601610ad0565b91505092915050565b600082601f830112610cab57610caa611417565b5b8151610cbb848260208601610b5e565b91505092915050565b600081519050610cd3816115a0565b92915050565b600081359050610ce8816115b7565b92915050565b600082601f830112610d0357610d02611417565b5b8151610d13848260208601610bce565b91505092915050565b600081519050610d2b816115ce565b92915050565b600060208284031215610d4757610d4661142b565b5b6000610d5584828501610c25565b91505092915050565b600080600060608486031215610d7757610d7661142b565b5b600084015167ffffffffffffffff811115610d9557610d94611426565b5b610da186828701610c3a565b935050602084015167ffffffffffffffff811115610dc257610dc1611426565b5b610dce86828701610c68565b925050604084015167ffffffffffffffff811115610def57610dee611426565b5b610dfb86828701610c96565b9150509250925092565b600060208284031215610e1b57610e1a61142b565b5b6000610e2984828501610cc4565b91505092915050565b600060208284031215610e4857610e4761142b565b5b6000610e5684828501610cd9565b91505092915050565b60008060408385031215610e7657610e7561142b565b5b6000610e8485828601610cd9565b9250506020610e9585828601610c10565b9150509250929050565b610ea88161128b565b82525050565b610eb7816112a9565b82525050565b6000610ec882611264565b610ed2818561126f565b9350610ee28185602086016112dd565b80840191505092915050565b6000610efb601a8361127a565b9150610f0682611441565b602082019050919050565b6000610f1e601d8361127a565b9150610f298261146a565b602082019050919050565b6000610f4160108361127a565b9150610f4c82611493565b602082019050919050565b6000610f64601a8361127a565b9150610f6f826114bc565b602082019050919050565b6000610f87601a8361127a565b9150610f92826114e5565b602082019050919050565b6000610faa601b8361127a565b9150610fb58261150e565b602082019050919050565b6000610fcd601b8361127a565b9150610fd882611537565b602082019050919050565b6000610ff060158361127a565b9150610ffb82611560565b602082019050919050565b60006110128284610ebd565b915081905092915050565b60006020820190506110326000830184610e9f565b92915050565b600060208201905061104d6000830184610eae565b92915050565b60006060820190506110686000830186610eae565b6110756020830185610e9f565b6110826040830184610e9f565b949350505050565b600060208201905081810360008301526110a381610eee565b9050919050565b600060208201905081810360008301526110c381610f11565b9050919050565b600060208201905081810360008301526110e381610f34565b9050919050565b6000602082019050818103600083015261110381610f57565b9050919050565b6000602082019050818103600083015261112381610f7a565b9050919050565b6000602082019050818103600083015261114381610f9d565b9050919050565b6000602082019050818103600083015261116381610fc0565b9050919050565b6000602082019050818103600083015261118381610fe3565b9050919050565b60006111946111a5565b90506111a08282611310565b919050565b6000604051905090565b600067ffffffffffffffff8211156111ca576111c96113e8565b5b602082029050602081019050919050565b600067ffffffffffffffff8211156111f6576111f56113e8565b5b602082029050602081019050919050565b600067ffffffffffffffff821115611222576112216113e8565b5b602082029050602081019050919050565b600067ffffffffffffffff82111561124e5761124d6113e8565b5b61125782611430565b9050602081019050919050565b600081519050919050565b600081905092915050565b600082825260208201905092915050565b6000611296826112b3565b9050919050565b60008115159050919050565b6000819050919050565b600073ffffffffffffffffffffffffffffffffffffffff82169050919050565b6000819050919050565b60005b838110156112fb5780820151818401526020810190506112e0565b8381111561130a576000848401525b50505050565b61131982611430565b810181811067ffffffffffffffff82111715611338576113376113e8565b5b80604052505050565b600061134c826112d3565b91507fffffffffffffffffffffffffffffffffffffffffffffffffffffffffffffffff82141561137f5761137e61138a565b5b600182019050919050565b7f4e487b7100000000000000000000000000000000000000000000000000000000600052601160045260246000fd5b7f4e487b7100000000000000000000000000000000000000000000000000000000600052603260045260246000fd5b7f4e487b7100000000000000000000000000000000000000000000000000000000600052604160045260246000fd5b600080fd5b600080fd5b600080fd5b600080fd5b600080fd5b6000601f19601f8301169050919050565b7f436f72653a204f6e6c7920657865732063616e206d6f64696679000000000000600082015250565b7f436f72653a2043616e6e6f742064656c657465206f6e20757064617465000000600082015250565b7f436f72653a20457865206661696c656400000000000000000000000000000000600082015250565b7f436f72653a2043616e6e6f742064656c657465206f6e20616464000000000000600082015250565b7f436f72653a2043616e6e6f7420616464206f6e20757064617465000000000000600082015250565b7f436f72653a205573652075706461746520746f207265706c6163650000000000600082015250565b7f436f72653a20457865206973206e6f742065786563757461626c650000000000600082015250565b7f436f72653a20616c72656164792064656c657465640000000000000000000000600082015250565b6115928161128b565b811461159d57600080fd5b50565b6115a98161129d565b81146115b457600080fd5b50565b6115c0816112a9565b81146115cb57600080fd5b50565b6115d7816112d3565b81146115e257600080fd5b5056fea2646970667358221220012c33d941c0242a76ecf584718b7d5fffaa62b8f150c444a0d9369629aadae764736f6c63430008070033",
  "linkReferences": {},
  "deployedLinkReferences": {}
}