{
  "_format": "hh-sol-artifact-1",
  "contractName": "Core",
  "sourceName": "contracts/Core.sol",
  "abi": [
    {
      "anonymous": false,
      "inputs": [
        {
          "indexed": false,
          "internalType": "bytes32",
          "name": "key",
          "type": "bytes32"
        },
        {
          "indexed": false,
          "internalType": "address",
          "name": "oldImplementation",
          "type": "address"
        },
        {
          "indexed": false,
          "internalType": "address",
          "name": "newImplementation",
          "type": "address"
        }
      ],
      "name": "ImplementationChanged",
      "type": "event"
    },
    {
      "inputs": [],
      "name": "IDENTIFIER",
      "outputs": [
        {
          "internalType": "bytes32",
          "name": "",
          "type": "bytes32"
        }
      ],
      "stateMutability": "view",
      "type": "function"
    },
    {
      "inputs": [
        {
          "internalType": "bytes32",
          "name": "_key",
          "type": "bytes32"
        },
        {
          "internalType": "address",
          "name": "_instance",
          "type": "address"
        }
      ],
      "name": "addContract",
      "outputs": [],
      "stateMutability": "nonpayable",
      "type": "function"
    },
    {
      "inputs": [
        {
          "internalType": "bytes32",
          "name": "_key",
          "type": "bytes32"
        }
      ],
      "name": "deleteContract",
      "outputs": [],
      "stateMutability": "nonpayable",
      "type": "function"
    },
    {
      "inputs": [
        {
          "internalType": "bytes32",
          "name": "_exeID",
          "type": "bytes32"
        }
      ],
      "name": "execute",
      "outputs": [],
      "stateMutability": "nonpayable",
      "type": "function"
    },
    {
      "inputs": [
        {
          "internalType": "bytes32",
          "name": "_key",
          "type": "bytes32"
        }
      ],
      "name": "getInstance",
      "outputs": [
        {
          "internalType": "address",
          "name": "",
          "type": "address"
        }
      ],
      "stateMutability": "view",
      "type": "function"
    },
    {
      "inputs": [
        {
          "internalType": "address",
          "name": "_coord",
          "type": "address"
        },
        {
          "internalType": "address",
          "name": "_executables",
          "type": "address"
        },
        {
          "internalType": "address",
          "name": "_props",
          "type": "address"
        },
        {
          "internalType": "address",
          "name": "_voteWeight",
          "type": "address"
        },
        {
          "internalType": "address",
          "name": "_votingBooth",
          "type": "address"
        }
      ],
      "name": "initialise",
      "outputs": [],
      "stateMutability": "nonpayable",
      "type": "function"
    },
    {
      "inputs": [
        {
          "internalType": "bytes32",
          "name": "_key",
          "type": "bytes32"
        },
        {
          "internalType": "address",
          "name": "_instance",
          "type": "address"
        }
      ],
      "name": "updateContract",
      "outputs": [],
      "stateMutability": "nonpayable",
      "type": "function"
    }
  ],
  "bytecode": "0x608060405234801561001057600080fd5b5033600060026101000a81548173ffffffffffffffffffffffffffffffffffffffff021916908373ffffffffffffffffffffffffffffffffffffffff1602179055506119eb806100616000396000f3fe608060405234801561001057600080fd5b506004361061007d5760003560e01c8063956138ed1161005b578063956138ed146100ec578063a869e09814610108578063dec0257d14610124578063e751f271146101405761007d565b80633c9747f3146100825780635188f996146100a0578063624a23e0146100bc575b600080fd5b61008a61015c565b6040516100979190611376565b60405180910390f35b6100ba60048036038101906100b59190611157565b610180565b005b6100d660048036038101906100d1919061112a565b61030e565b6040516100e3919061135b565b60405180910390f35b61010660048036038101906101019190611157565b61034b565b005b610122600480360381019061011d9190610fdb565b6104da565b005b61013e6004803603810190610139919061112a565b61071a565b005b61015a6004803603810190610155919061112a565b610839565b005b7f907208bc2088fa777f18b43edd8b766e7243504cf8497f7ed936c65c7a446bbc81565b3073ffffffffffffffffffffffffffffffffffffffff163373ffffffffffffffffffffffffffffffffffffffff16146101ee576040517f08c379a00000000000000000000000000000000000000000000000000000000081526004016101e5906113e8565b60405180910390fd5b600073ffffffffffffffffffffffffffffffffffffffff166001600084815260200190815260200160002060009054906101000a900473ffffffffffffffffffffffffffffffffffffffff1673ffffffffffffffffffffffffffffffffffffffff1614610290576040517f08c379a0000000000000000000000000000000000000000000000000000000008152600401610287906114a8565b60405180910390fd5b600073ffffffffffffffffffffffffffffffffffffffff168173ffffffffffffffffffffffffffffffffffffffff161415610300576040517f08c379a00000000000000000000000000000000000000000000000000000000081526004016102f790611468565b60405180910390fd5b61030a8282610c19565b5050565b60006001600083815260200190815260200160002060009054906101000a900473ffffffffffffffffffffffffffffffffffffffff169050919050565b3073ffffffffffffffffffffffffffffffffffffffff163373ffffffffffffffffffffffffffffffffffffffff16146103b9576040517f08c379a00000000000000000000000000000000000000000000000000000000081526004016103b0906113e8565b60405180910390fd5b600073ffffffffffffffffffffffffffffffffffffffff166001600084815260200190815260200160002060009054906101000a900473ffffffffffffffffffffffffffffffffffffffff1673ffffffffffffffffffffffffffffffffffffffff16141561045c576040517f08c379a000000000000000000000000000000000000000000000000000000000815260040161045390611488565b60405180910390fd5b600073ffffffffffffffffffffffffffffffffffffffff168173ffffffffffffffffffffffffffffffffffffffff1614156104cc576040517f08c379a00000000000000000000000000000000000000000000000000000000081526004016104c390611428565b60405180910390fd5b6104d68282610c19565b5050565b600060019054906101000a900460ff1680610500575060008054906101000a900460ff16155b61053f576040517f08c379a000000000000000000000000000000000000000000000000000000000815260040161053690611408565b60405180910390fd5b600060029054906101000a900473ffffffffffffffffffffffffffffffffffffffff1673ffffffffffffffffffffffffffffffffffffffff163373ffffffffffffffffffffffffffffffffffffffff16146105cf576040517f08c379a00000000000000000000000000000000000000000000000000000000081526004016105c6906113c8565b60405180910390fd5b60008060019054906101000a900460ff16159050801561061f576001600060016101000a81548160ff02191690831515021790555060016000806101000a81548160ff0219169083151502179055505b6106497fd578563424ab02f85ec03c6b1aee04947ebdd4a30db46cba3bcd7f56ef40b19987610c19565b6106737f59e2d72f5870ccddd14d35394bd3c22374071b2da7c07a3d6c3b690400b7362886610c19565b61069d7f36209a57dfd79e3872ec3a0c88c653bbe7e32a12306e5e1f92f118c1936ae8b285610c19565b6106c77fcdd7ba10b36b7349d5c9710e5e447ec8acaa8e3cbba8d20f4393eccf61f185b184610c19565b6106f17f346b2ab3a980432fd8f2e24828fc9f9ee2df1548701bc542f6ec17882b32762783610c19565b80156107125760008060016101000a81548160ff0219169083151502179055505b505050505050565b3073ffffffffffffffffffffffffffffffffffffffff163373ffffffffffffffffffffffffffffffffffffffff1614610788576040517f08c379a000000000000000000000000000000000000000000000000000000000815260040161077f906113e8565b60405180910390fd5b600073ffffffffffffffffffffffffffffffffffffffff166001600083815260200190815260200160002060009054906101000a900473ffffffffffffffffffffffffffffffffffffffff1673ffffffffffffffffffffffffffffffffffffffff16141561082b576040517f08c379a0000000000000000000000000000000000000000000000000000000008152600401610822906114e8565b60405180910390fd5b610836816000610c19565b50565b60003073ffffffffffffffffffffffffffffffffffffffff1663624a23e07fd578563424ab02f85ec03c6b1aee04947ebdd4a30db46cba3bcd7f56ef40b1996040518263ffffffff1660e01b81526004016108949190611376565b60206040518083038186803b1580156108ac57600080fd5b505afa1580156108c0573d6000803e3d6000fd5b505050506040513d601f19601f820116820180604052508101906108e49190610fae565b90508073ffffffffffffffffffffffffffffffffffffffff16639cf782cb836040518263ffffffff1660e01b815260040161091f9190611376565b60206040518083038186803b15801561093757600080fd5b505afa15801561094b573d6000803e3d6000fd5b505050506040513d601f19601f8201168201806040525081019061096f91906110fd565b6109ae576040517f08c379a00000000000000000000000000000000000000000000000000000000081526004016109a5906114c8565b60405180910390fd5b60003073ffffffffffffffffffffffffffffffffffffffff1663624a23e07f59e2d72f5870ccddd14d35394bd3c22374071b2da7c07a3d6c3b690400b736286040518263ffffffff1660e01b8152600401610a099190611376565b60206040518083038186803b158015610a2157600080fd5b505afa158015610a35573d6000803e3d6000fd5b505050506040513d601f19601f82011682018060405250810190610a599190610fae565b905060008060008373ffffffffffffffffffffffffffffffffffffffff1663971aa75e876040518263ffffffff1660e01b8152600401610a999190611376565b60006040518083038186803b158015610ab157600080fd5b505afa158015610ac5573d6000803e3d6000fd5b505050506040513d6000823e3d601f19601f82011682018060405250810190610aee9190611056565b92509250925060005b8351811015610c10576000848281518110610b1557610b14611737565b5b602002602001015173ffffffffffffffffffffffffffffffffffffffff16838381518110610b4657610b45611737565b5b6020026020010151858481518110610b6157610b60611737565b5b6020026020010151604051610b769190611344565b60006040518083038185875af1925050503d8060008114610bb3576040519150601f19603f3d011682016040523d82523d6000602084013e610bb8565b606091505b5050905080610bfc576040517f08c379a0000000000000000000000000000000000000000000000000000000008152600401610bf390611448565b60405180910390fd5b508080610c08906116bf565b915050610af7565b50505050505050565b7fd80ff32702e0622dbb097b3978d56222743155c7f344ab504ce2e194b913fadc826001600085815260200190815260200160002060009054906101000a900473ffffffffffffffffffffffffffffffffffffffff1683604051610c7f93929190611391565b60405180910390a1806001600084815260200190815260200160002060006101000a81548173ffffffffffffffffffffffffffffffffffffffff021916908373ffffffffffffffffffffffffffffffffffffffff1602179055505050565b6000610cf0610ceb8461152d565b611508565b90508083825260208201905082856020860282011115610d1357610d1261179a565b5b60005b85811015610d435781610d298882610ea2565b845260208401935060208301925050600181019050610d16565b5050509392505050565b6000610d60610d5b84611559565b611508565b90508083825260208201905082856020860282011115610d8357610d8261179a565b5b60005b85811015610dd157815167ffffffffffffffff811115610da957610da8611795565b5b808601610db68982610f6b565b85526020850194506020840193505050600181019050610d86565b5050509392505050565b6000610dee610de984611585565b611508565b90508083825260208201905082856020860282011115610e1157610e1061179a565b5b60005b85811015610e415781610e278882610f99565b845260208401935060208301925050600181019050610e14565b5050509392505050565b6000610e5e610e59846115b1565b611508565b905082815260208101848484011115610e7a57610e7961179f565b5b610e8584828561165b565b509392505050565b600081359050610e9c81611959565b92915050565b600081519050610eb181611959565b92915050565b600082601f830112610ecc57610ecb611795565b5b8151610edc848260208601610cdd565b91505092915050565b600082601f830112610efa57610ef9611795565b5b8151610f0a848260208601610d4d565b91505092915050565b600082601f830112610f2857610f27611795565b5b8151610f38848260208601610ddb565b91505092915050565b600081519050610f5081611970565b92915050565b600081359050610f6581611987565b92915050565b600082601f830112610f8057610f7f611795565b5b8151610f90848260208601610e4b565b91505092915050565b600081519050610fa88161199e565b92915050565b600060208284031215610fc457610fc36117a9565b5b6000610fd284828501610ea2565b91505092915050565b600080600080600060a08688031215610ff757610ff66117a9565b5b600061100588828901610e8d565b955050602061101688828901610e8d565b945050604061102788828901610e8d565b935050606061103888828901610e8d565b925050608061104988828901610e8d565b9150509295509295909350565b60008060006060848603121561106f5761106e6117a9565b5b600084015167ffffffffffffffff81111561108d5761108c6117a4565b5b61109986828701610eb7565b935050602084015167ffffffffffffffff8111156110ba576110b96117a4565b5b6110c686828701610ee5565b925050604084015167ffffffffffffffff8111156110e7576110e66117a4565b5b6110f386828701610f13565b9150509250925092565b600060208284031215611113576111126117a9565b5b600061112184828501610f41565b91505092915050565b6000602082840312156111405761113f6117a9565b5b600061114e84828501610f56565b91505092915050565b6000806040838503121561116e5761116d6117a9565b5b600061117c85828601610f56565b925050602061118d85828601610e8d565b9150509250929050565b6111a081611609565b82525050565b6111af81611627565b82525050565b60006111c0826115e2565b6111ca81856115ed565b93506111da81856020860161165b565b80840191505092915050565b60006111f3601c836115f8565b91506111fe826117bf565b602082019050919050565b6000611216601a836115f8565b9150611221826117e8565b602082019050919050565b6000611239601d836115f8565b915061124482611811565b602082019050919050565b600061125c601d836115f8565b91506112678261183a565b602082019050919050565b600061127f6010836115f8565b915061128a82611863565b602082019050919050565b60006112a2601a836115f8565b91506112ad8261188c565b602082019050919050565b60006112c5601a836115f8565b91506112d0826118b5565b602082019050919050565b60006112e8601b836115f8565b91506112f3826118de565b602082019050919050565b600061130b601b836115f8565b915061131682611907565b602082019050919050565b600061132e6015836115f8565b915061133982611930565b602082019050919050565b600061135082846111b5565b915081905092915050565b60006020820190506113706000830184611197565b92915050565b600060208201905061138b60008301846111a6565b92915050565b60006060820190506113a660008301866111a6565b6113b36020830185611197565b6113c06040830184611197565b949350505050565b600060208201905081810360008301526113e1816111e6565b9050919050565b6000602082019050818103600083015261140181611209565b9050919050565b600060208201905081810360008301526114218161122c565b9050919050565b600060208201905081810360008301526114418161124f565b9050919050565b6000602082019050818103600083015261146181611272565b9050919050565b6000602082019050818103600083015261148181611295565b9050919050565b600060208201905081810360008301526114a1816112b8565b9050919050565b600060208201905081810360008301526114c1816112db565b9050919050565b600060208201905081810360008301526114e1816112fe565b9050919050565b6000602082019050818103600083015261150181611321565b9050919050565b6000611512611523565b905061151e828261168e565b919050565b6000604051905090565b600067ffffffffffffffff82111561154857611547611766565b5b602082029050602081019050919050565b600067ffffffffffffffff82111561157457611573611766565b5b602082029050602081019050919050565b600067ffffffffffffffff8211156115a05761159f611766565b5b602082029050602081019050919050565b600067ffffffffffffffff8211156115cc576115cb611766565b5b6115d5826117ae565b9050602081019050919050565b600081519050919050565b600081905092915050565b600082825260208201905092915050565b600061161482611631565b9050919050565b60008115159050919050565b6000819050919050565b600073ffffffffffffffffffffffffffffffffffffffff82169050919050565b6000819050919050565b60005b8381101561167957808201518184015260208101905061165e565b83811115611688576000848401525b50505050565b611697826117ae565b810181811067ffffffffffffffff821117156116b6576116b5611766565b5b80604052505050565b60006116ca82611651565b91507fffffffffffffffffffffffffffffffffffffffffffffffffffffffffffffffff8214156116fd576116fc611708565b5b600182019050919050565b7f4e487b7100000000000000000000000000000000000000000000000000000000600052601160045260246000fd5b7f4e487b7100000000000000000000000000000000000000000000000000000000600052603260045260246000fd5b7f4e487b7100000000000000000000000000000000000000000000000000000000600052604160045260246000fd5b600080fd5b600080fd5b600080fd5b600080fd5b600080fd5b6000601f19601f8301169050919050565b7f496e69743a204f6e6c79206465706c6f7965722063616e20696e697400000000600082015250565b7f436f72653a204f6e6c7920657865732063616e206d6f64696679000000000000600082015250565b7f496e69743a20436f6e747261637420697320696e697469616c697a6564000000600082015250565b7f436f72653a2043616e6e6f742064656c657465206f6e20757064617465000000600082015250565b7f436f72653a20457865206661696c656400000000000000000000000000000000600082015250565b7f436f72653a2043616e6e6f742064656c657465206f6e20616464000000000000600082015250565b7f436f72653a2043616e6e6f7420616464206f6e20757064617465000000000000600082015250565b7f436f72653a205573652075706461746520746f207265706c6163650000000000600082015250565b7f436f72653a20457865206973206e6f742065786563757461626c650000000000600082015250565b7f436f72653a20616c72656164792064656c657465640000000000000000000000600082015250565b61196281611609565b811461196d57600080fd5b50565b6119798161161b565b811461198457600080fd5b50565b61199081611627565b811461199b57600080fd5b50565b6119a781611651565b81146119b257600080fd5b5056fea2646970667358221220715adb6a51b8a3bbd0c9461c38450ca53e5061471f49f472508f1958e04c994764736f6c63430008070033",
  "linkReferences": {},
  "deployedLinkReferences": {}
}