{
  "_format": "hh-sol-artifact-1",
  "contractName": "Core",
  "sourceName": "contracts/Core.sol",
  "abi": [
    {
      "anonymous": false,
      "inputs": [
        {
          "indexed": false,
          "internalType": "bytes32",
          "name": "key",
          "type": "bytes32"
        },
        {
          "indexed": false,
          "internalType": "address",
          "name": "oldImplementation",
          "type": "address"
        },
        {
          "indexed": false,
          "internalType": "address",
          "name": "newImplementation",
          "type": "address"
        }
      ],
      "name": "ImplementationChanged",
      "type": "event"
    },
    {
      "inputs": [],
      "name": "IDENTIFIER",
      "outputs": [
        {
          "internalType": "bytes32",
          "name": "",
          "type": "bytes32"
        }
      ],
      "stateMutability": "view",
      "type": "function"
    },
    {
      "inputs": [
        {
          "internalType": "bytes32",
          "name": "_key",
          "type": "bytes32"
        },
        {
          "internalType": "address",
          "name": "_instance",
          "type": "address"
        }
      ],
      "name": "addContract",
      "outputs": [],
      "stateMutability": "nonpayable",
      "type": "function"
    },
    {
      "inputs": [
        {
          "internalType": "bytes32",
          "name": "c__0x00e2a1ba",
          "type": "bytes32"
        }
      ],
      "name": "c_0x00e2a1ba",
      "outputs": [],
      "stateMutability": "pure",
      "type": "function"
    },
    {
      "inputs": [
        {
          "internalType": "bytes32",
          "name": "c__0xe5779163",
          "type": "bytes32"
        }
      ],
      "name": "c_0xe5779163",
      "outputs": [],
      "stateMutability": "pure",
      "type": "function"
    },
    {
      "inputs": [
        {
          "internalType": "bytes32",
          "name": "_key",
          "type": "bytes32"
        }
      ],
      "name": "deleteContract",
      "outputs": [],
      "stateMutability": "nonpayable",
      "type": "function"
    },
    {
      "inputs": [
        {
          "internalType": "bytes32",
          "name": "_exeID",
          "type": "bytes32"
        }
      ],
      "name": "execute",
      "outputs": [],
      "stateMutability": "nonpayable",
      "type": "function"
    },
    {
      "inputs": [
        {
          "internalType": "bytes32",
          "name": "_key",
          "type": "bytes32"
        }
      ],
      "name": "getInstance",
      "outputs": [
        {
          "internalType": "address",
          "name": "",
          "type": "address"
        }
      ],
      "stateMutability": "view",
      "type": "function"
    },
    {
      "inputs": [
        {
          "internalType": "address",
          "name": "_coord",
          "type": "address"
        },
        {
          "internalType": "address",
          "name": "_executables",
          "type": "address"
        },
        {
          "internalType": "address",
          "name": "_props",
          "type": "address"
        },
        {
          "internalType": "address",
          "name": "_voteWeight",
          "type": "address"
        },
        {
          "internalType": "address",
          "name": "_votingBooth",
          "type": "address"
        }
      ],
      "name": "initialise",
      "outputs": [],
      "stateMutability": "nonpayable",
      "type": "function"
    },
    {
      "inputs": [
        {
          "internalType": "bytes32",
          "name": "_key",
          "type": "bytes32"
        },
        {
          "internalType": "address",
          "name": "_instance",
          "type": "address"
        }
      ],
      "name": "updateContract",
      "outputs": [],
      "stateMutability": "nonpayable",
      "type": "function"
    }
  ],
  "bytecode": "0x60806040523480156200001157600080fd5b50620000467fcc8333d776dbed5bc1d5a69fea8a56e88f87955b6a086409d43cdf5b99a00f9160001b620000f560201b60201c565b6200007a7f96e003626c0adb9922999e671f576019384ec3e342797245b19e293fc7ae98b860001b620000f560201b60201c565b620000ae7f0124756d9b2742e29a6e998127a5d65a6fce0de7b15fe3cffaa57159d293eff460001b620000f560201b60201c565b33600060026101000a81548173ffffffffffffffffffffffffffffffffffffffff021916908373ffffffffffffffffffffffffffffffffffffffff160217905550620000f8565b50565b612bd780620001086000396000f3fe608060405234801561001057600080fd5b50600436106100935760003560e01c80639ef7786d116100665780639ef7786d1461011e578063a869e0981461013a578063dec0257d14610156578063e34c1d2f14610172578063e751f2711461018e57610093565b80633c9747f3146100985780635188f996146100b6578063624a23e0146100d2578063956138ed14610102575b600080fd5b6100a06101aa565b6040516100ad91906125ce565b60405180910390f35b6100d060048036038101906100cb91906123d2565b6101ce565b005b6100ec60048036038101906100e791906123a5565b610648565b6040516100f991906125b3565b60405180910390f35b61011c600480360381019061011791906123d2565b610709565b005b610138600480360381019061013391906123a5565b610b84565b005b610154600480360381019061014f9190612283565b610b87565b005b610170600480360381019061016b91906123a5565b61142d565b005b61018c600480360381019061018791906123a5565b611788565b005b6101a860048036038101906101a391906123a5565b61178b565b005b7f907208bc2088fa777f18b43edd8b766e7243504cf8497f7ed936c65c7a446bbc81565b6101fa7f3852bbc25bded49154e167b1cb6bc0b1722c632822930bc7ebad817249951c6c60001b611788565b6102267fec836eef345e9b883d09ea74465025dc3adf08d05fa13461e0b26d0cb5d3a9f960001b611788565b6102527f2b9ce019e3663fbcb2e11889de9dbb34cfb35eca387757dfaa78c8d1d213fb2260001b611788565b61027e7ff9678320c2370bae3576020c496f637a31c3bd687673a866a39b3570ba36560460001b611788565b3073ffffffffffffffffffffffffffffffffffffffff163373ffffffffffffffffffffffffffffffffffffffff16146102ec576040517f08c379a00000000000000000000000000000000000000000000000000000000081526004016102e390612640565b60405180910390fd5b6103187f1375d1df542d54925706ba7e8f51b16c0c1169e51a0d89bb2828419f45e41cad60001b611788565b6103447fa2e2a4465c0a40f0a16c97d10144f67e61b3db20b5c0ae305b3c13e87946c9fe60001b611788565b6103707ffcba748fbe720d8caa53b2c33493be8ff182615a9b5358668e1a0e7b97f9ee9760001b611788565b61039c7f7122dcc615bbd284daf2577837b750906d9b365e24820220b9734cf05c0778df60001b611788565b6103c87f7426130a9112d7bf53e33a964aedd0132ba02dd3836f0b948c1b7cb749d6d0dd60001b611788565b6103f47f54e5715db59f9232bbde33dd0ae939bbe6ae7a6d74a0c83b14d13c8cca08b85960001b611788565b600073ffffffffffffffffffffffffffffffffffffffff166001600084815260200190815260200160002060009054906101000a900473ffffffffffffffffffffffffffffffffffffffff1673ffffffffffffffffffffffffffffffffffffffff1614610496576040517f08c379a000000000000000000000000000000000000000000000000000000000815260040161048d90612700565b60405180910390fd5b6104c27f399a275ab82c3c355eceafa014b8241910633917441726935deaf3221f8a9c9360001b611788565b6104ee7f4c99de81fff80f629e1711410a872171b3396f4825b74a1d2d6fd2c721d2e87660001b611788565b61051a7f4742391546076935b79320469fc7b9d016af0c802d38fe728e3ece68d7b5624c60001b611788565b6105467fb172c96004c556c0c3cc639d610fdc05ea017cefdc6733fc59202093bda800f060001b611788565b600073ffffffffffffffffffffffffffffffffffffffff168173ffffffffffffffffffffffffffffffffffffffff1614156105b6576040517f08c379a00000000000000000000000000000000000000000000000000000000081526004016105ad906126c0565b60405180910390fd5b6105e27f39fdfd62d817939c99e3fde7bd1ef3628b6a0756922d2c300731f859691d354560001b611788565b61060e7fdde0722baee207d41fca3a4c5da457eb934f2fd73087f4d1e4ea1893e07fcb7760001b611788565b61063a7ff7d32252ba8263931b02e35cbc72db845e32a3cb66844e8d746086e58245e5ba60001b611788565b6106448282611dfa565b5050565b60006106767f86c138e5d512a42b708826e09822cfbe075ff86de2109c94059ba750aa320fbb60001b611788565b6106a27f3cafafe712ae42cf3c9b17d3e0f9ca24e327b0632c4f7a48a8b96cf57be6e9be60001b611788565b6106ce7f117bcbfa5dabb5a1f632ec757ff580785c29d71aad897245e3ad14db2df230a960001b611788565b6001600083815260200190815260200160002060009054906101000a900473ffffffffffffffffffffffffffffffffffffffff169050919050565b6107357f3852bbc25bded49154e167b1cb6bc0b1722c632822930bc7ebad817249951c6c60001b611788565b6107617fec836eef345e9b883d09ea74465025dc3adf08d05fa13461e0b26d0cb5d3a9f960001b611788565b61078d7f2b9ce019e3663fbcb2e11889de9dbb34cfb35eca387757dfaa78c8d1d213fb2260001b611788565b6107b97ff9678320c2370bae3576020c496f637a31c3bd687673a866a39b3570ba36560460001b611788565b3073ffffffffffffffffffffffffffffffffffffffff163373ffffffffffffffffffffffffffffffffffffffff1614610827576040517f08c379a000000000000000000000000000000000000000000000000000000000815260040161081e90612640565b60405180910390fd5b6108537f1375d1df542d54925706ba7e8f51b16c0c1169e51a0d89bb2828419f45e41cad60001b611788565b61087f7fa2e2a4465c0a40f0a16c97d10144f67e61b3db20b5c0ae305b3c13e87946c9fe60001b611788565b6108ab7f739becf764838c936a5969a894a20788aacbc937129b1673b8fa6ac392adcaeb60001b611788565b6108d77f17a3973ef9ea08bbb558752d9ab53e7a661904c125d83823f632f3492fca270f60001b611788565b6109037f342b6616bbda477653b8ca802e970dbcfdf984882f010308839f7dc69453230260001b611788565b61092f7fb8eee8e76bb4da0d59acc98b82effa3bcef75cff1dc24e7f4fa8ff9f4a747f5a60001b611788565b600073ffffffffffffffffffffffffffffffffffffffff166001600084815260200190815260200160002060009054906101000a900473ffffffffffffffffffffffffffffffffffffffff1673ffffffffffffffffffffffffffffffffffffffff1614156109d2576040517f08c379a00000000000000000000000000000000000000000000000000000000081526004016109c9906126e0565b60405180910390fd5b6109fe7fe9e33aef377bcb4f945650f24b1d6ac6a069ba8046f685edeca0c6f1c506f2ae60001b611788565b610a2a7ff511592b7497a3b4e453a5a691974ef003dec23f057f16495dc243e233b271b260001b611788565b610a567f8fc466b4e47f2d0d2f2c528175110faacbacfc584d3940f984e369aba90daa5660001b611788565b610a827fd4b0f1306d7851416ce426fcff270c2983ac69d8cf684b20f12ab708444e7eea60001b611788565b600073ffffffffffffffffffffffffffffffffffffffff168173ffffffffffffffffffffffffffffffffffffffff161415610af2576040517f08c379a0000000000000000000000000000000000000000000000000000000008152600401610ae990612680565b60405180910390fd5b610b1e7f5cf611e2874173e8d962cd4acacd9880d97ce1993dad29c313f80b5c0d60590d60001b611788565b610b4a7f1d923c1f74c185dd44537221cd12f21d12229b41ae8c9f55c9441659e36e4f4460001b611788565b610b767f80b542288b50e702145f136148ecf0365bb68e926c6ab604eac10f04138ec7b560001b611788565b610b808282611dfa565b5050565b50565b610bb37f0e0cd9f43fa96f35ac9dcd66bf9394a66239a66b0422c7eb4acaa3ec7af2bca760001b610b84565b610bdf7fa572db1175cf84948584c963309788099518a5f9406d64b26be0f01abaa7615160001b610b84565b610c0b7f524b599d7eb0f1dfc88ccfeb5d98c7465952b834def7a670e3e1ee11de0a1e3760001b610b84565b610c377f98965d56deb2a09035f26190cf6413a56daf79840e05a39e6a014890174d277a60001b610b84565b600060019054906101000a900460ff1680610c5d575060008054906101000a900460ff16155b610c9c576040517f08c379a0000000000000000000000000000000000000000000000000000000008152600401610c9390612660565b60405180910390fd5b610cc87fe6d54cb133197a88f121f1222a74c88e9bdb72f2534b716bac552690179fa19b60001b610b84565b610cf47f2978934513c1680f7d8efe0f61b00f6e798552e162cf38e89079d9080f3639a060001b610b84565b610d207fb746c40fd73cb0d4ce3270dc8cbf3523878f0b08dc0fe2339e1f2f72a167819a60001b610b84565b610d4c7f5666c1bdc7b7d35115b317253332f7f90453602bb5068386a08ea63770d8032460001b610b84565b600060029054906101000a900473ffffffffffffffffffffffffffffffffffffffff1673ffffffffffffffffffffffffffffffffffffffff163373ffffffffffffffffffffffffffffffffffffffff1614610ddc576040517f08c379a0000000000000000000000000000000000000000000000000000000008152600401610dd390612620565b60405180910390fd5b610e087fae1bd2558d584dd4c375d9569fcf63a6ddd2e986550a1722bfbf5c885b8d343c60001b610b84565b610e347f8827da128743a7905421670199b1e7c0011f34030aea597bb0ed57dd76a8fcbe60001b610b84565b610e607fd138844c11e5fb387e8063532b614d5d66b6053c6cb9a3b7de9a071516cf13c760001b610b84565b60008060019054906101000a900460ff16159050610ea07f0da07da6706658155f26bbafcbfa954a7537c786b613a4cc9be94703ef8137aa60001b610b84565b610ecc7f234d6ab578d89d89ef0e5cfb230d4b62412d2d6aecc02683e842f258b0952f2960001b610b84565b8015610fe857610efe7fc3fe9f21b0f8c74b901d4bb6665dcddf61902ec0d3feecd24d14288baeb1eeb660001b610b84565b610f2a7f3e978646ed66cc964c98e5a5878ca6f5c9a2a19bbe74dcc13b01cff0472ea07c60001b610b84565b610f567f29ca5100e48f38a7411fb78acc536c44b5db000aa462c2b1360915c045318ca760001b610b84565b6001600060016101000a81548160ff021916908315150217905550610f9d7fa5f2730f9babc14d334aa306df7fb5c6b1ed3bdfb66f6fc4fafe38d5652f469660001b610b84565b610fc97f181d8291e4a099dfa8d933931fb5a4fab22537d847165af8100ce2c9358055b560001b610b84565b60016000806101000a81548160ff021916908315150217905550611015565b6110147f8a59cf0f81ee5490e15c424d8aede261eaf6e1217105a123d14893d69aabf35d60001b610b84565b5b6110417fc5092240012f400b79e17c3d1fb6321ac43d96fa801b72141d16886e1c9be39160001b610b84565b61106d7f4a9396cdbe66d0999bcd20bd12f4700958d2777401f4d6afed6c3cd0bb61341e60001b611788565b6110997f898ed54b35517574a5b9c0a91df241e561e963a80be69da7193920ff31ade0f460001b611788565b6110c57f9782bf557cb0f4e16f86a5d52bb11941807c3ac8b50862995b48e4d95ef3372660001b611788565b6110ef7fd578563424ab02f85ec03c6b1aee04947ebdd4a30db46cba3bcd7f56ef40b19987611dfa565b61111b7f768bf62433edaf90eebfc08113e49193d003acda8faebe7832c8176ec655364060001b611788565b6111477fbf1060253a9b66e1637fc69a2eaef7e4d91dd526a9ceb495d82476969241148960001b611788565b6111717f59e2d72f5870ccddd14d35394bd3c22374071b2da7c07a3d6c3b690400b7362886611dfa565b61119d7f02f1debce9ac6fd228fc83b41eacd3a9dddaf68ec04ba8b8ea78bb4cbbdf079e60001b611788565b6111c97fbaba0bced310d616a690d7d6afb39d7287c948a237696471336ec5c1a7b671db60001b611788565b6111f37f36209a57dfd79e3872ec3a0c88c653bbe7e32a12306e5e1f92f118c1936ae8b285611dfa565b61121f7fc06538911117ed486f57ed043fc8e3f8917f228cc691b0d9cafb712af7a7b3c560001b611788565b61124b7fd68f0bb359ce58b07717c958d1ea399c9d59309312a98e40a1bdc47c5950a9cd60001b611788565b6112757fcdd7ba10b36b7349d5c9710e5e447ec8acaa8e3cbba8d20f4393eccf61f185b184611dfa565b6112a17fd15d743a385992c1b330d3b3731929aaa39765f8f8e9d7ebd10d60f99169e10c60001b611788565b6112cd7ff0ce6553e19e24addccffc89a5a92e099490524acc49ec22464c0f267e496d1260001b611788565b6112f77f346b2ab3a980432fd8f2e24828fc9f9ee2df1548701bc542f6ec17882b32762783611dfa565b6113237ffa61d325b20e902fc90b26bec17d33d3c3bf7800b6a72b6365dfed29c50751f260001b610b84565b61134f7f6f241d49ed4d7add7ad690d1f539edcf9eec47c7016587da77342ab89f45939260001b610b84565b80156113f8576113817fbc5b20eaf8827dd1b8876361d943d3b4be9fa479d6620c48df64e11b5241c1d860001b610b84565b6113ad7fcd9c9ee58d0224a02f67a02ea3cac30b05ad3a9f1a6fa924e92f56395a167ba760001b610b84565b6113d97fcd058c89f1cef595e4be1f9ca2f3cf5043a8e40a2a840a0a3c6eda59e241aa7160001b610b84565b60008060016101000a81548160ff021916908315150217905550611425565b6114247f8fd60aebfbf035724a35db2472efd6c6271cb9083fdfb84a1ce7898d354ba3f960001b610b84565b5b505050505050565b6114597f3852bbc25bded49154e167b1cb6bc0b1722c632822930bc7ebad817249951c6c60001b611788565b6114857fec836eef345e9b883d09ea74465025dc3adf08d05fa13461e0b26d0cb5d3a9f960001b611788565b6114b17f2b9ce019e3663fbcb2e11889de9dbb34cfb35eca387757dfaa78c8d1d213fb2260001b611788565b6114dd7ff9678320c2370bae3576020c496f637a31c3bd687673a866a39b3570ba36560460001b611788565b3073ffffffffffffffffffffffffffffffffffffffff163373ffffffffffffffffffffffffffffffffffffffff161461154b576040517f08c379a000000000000000000000000000000000000000000000000000000000815260040161154290612640565b60405180910390fd5b6115777f1375d1df542d54925706ba7e8f51b16c0c1169e51a0d89bb2828419f45e41cad60001b611788565b6115a37fa2e2a4465c0a40f0a16c97d10144f67e61b3db20b5c0ae305b3c13e87946c9fe60001b611788565b6115cf7f723de15d3b631698cacb60493ad5e5efd1e8188b41a45b51012a3fa2315602e460001b611788565b6115fb7ff23b9f61fa6ed3865377b9f786df51313467e4124a66106e4c8e826765e180b560001b611788565b6116277fb6157cace3a04a5777b8bf926fd445c3402cf353438c2f02d438bc7a16bed94260001b611788565b6116537fb255991edd709ef3fd40697ed343465bd06b42bc55ba057096d208e346065b2660001b611788565b600073ffffffffffffffffffffffffffffffffffffffff166001600083815260200190815260200160002060009054906101000a900473ffffffffffffffffffffffffffffffffffffffff1673ffffffffffffffffffffffffffffffffffffffff1614156116f6576040517f08c379a00000000000000000000000000000000000000000000000000000000081526004016116ed90612720565b60405180910390fd5b6117227fb87d018db5aaabd191099f253d081c22dda9fbee035e5b554f0db9faca90aedf60001b611788565b61174e7f6ed06a7a8cc12f7b4109271475db389641c2524572b0a4ad0e4153458cf83e4860001b611788565b61177a7fc08e07aa71a39f299e7e3d2ce00d304c5f656586837df74563e0126dbc2d1f9560001b611788565b611785816000611dfa565b50565b50565b6117b77f4a02db33c17a21a9a1170a7b3fb0a446316c21b9417256e776427ffc030cd5bd60001b611788565b6117e37f39c962836593d57cd23a9afb4864d6f6561704d3ce437f89af02d8572847149660001b611788565b61180f7f652974e2a029b5062a13ffa2ed54ec1949fe5d7f97d16e5a42d0ca06fcb541d260001b611788565b60003073ffffffffffffffffffffffffffffffffffffffff1663624a23e07fd578563424ab02f85ec03c6b1aee04947ebdd4a30db46cba3bcd7f56ef40b1996040518263ffffffff1660e01b815260040161186a91906125ce565b60206040518083038186803b15801561188257600080fd5b505afa158015611896573d6000803e3d6000fd5b505050506040513d601f19601f820116820180604052508101906118ba9190612256565b90506118e87f96d098c68416eeaaf783c8f5821e477df1eaa4c93098ece3090e190ff7a877b660001b611788565b6119147f18ed4a2c614334e9d5b368308604fca37b7619be9c79cd2adf3219bcb8f9a12b60001b611788565b8073ffffffffffffffffffffffffffffffffffffffff16637526bd9b836040518263ffffffff1660e01b815260040161194d91906125ce565b600060405180830381600087803b15801561196757600080fd5b505af115801561197b573d6000803e3d6000fd5b505050506119ab7f0f8a8d180f461d2b20e679c769eb3e1b590631616663265b80c299b8f496f48060001b611788565b6119d77fb5c52392eee0d2c607ab4d20c138ede4382f0abf4f0acae370f53063cd9e786660001b611788565b60003073ffffffffffffffffffffffffffffffffffffffff1663624a23e07f59e2d72f5870ccddd14d35394bd3c22374071b2da7c07a3d6c3b690400b736286040518263ffffffff1660e01b8152600401611a3291906125ce565b60206040518083038186803b158015611a4a57600080fd5b505afa158015611a5e573d6000803e3d6000fd5b505050506040513d601f19601f82011682018060405250810190611a829190612256565b9050611ab07f376e16eadc5d917235b415501a2e75948fa3c32ff1e9f33ffb4ce1d1628bdb2160001b611788565b611adc7fb621e599ac19b67b304e78398e81163d8c8349fe8d110fef047d1e9ab02eee4260001b611788565b60008060008373ffffffffffffffffffffffffffffffffffffffff1663971aa75e876040518263ffffffff1660e01b8152600401611b1a91906125ce565b60006040518083038186803b158015611b3257600080fd5b505afa158015611b46573d6000803e3d6000fd5b505050506040513d6000823e3d601f19601f82011682018060405250810190611b6f91906122fe565b925092509250611ba17f363824bdf61270a30eb22c2405274911f3e657f0c31b454f4fe08a4cf25bb29c60001b611788565b611bcd7f78b735d802f0031cdf0a11c7e859e9253777de42c5144abda094330ad424efef60001b611788565b60005b8351811015611df157611c057f0920583b72a2014c8f5c4c3a679b1b3d1bb540813635b998b5825c82e980a0b060001b611788565b611c317fd2c3e5421dcb5ef244c9af386944aede946874529fdeecd2a0957d6b5a6678f360001b611788565b6000848281518110611c4657611c45612963565b5b602002602001015173ffffffffffffffffffffffffffffffffffffffff16838381518110611c7757611c76612963565b5b6020026020010151858481518110611c9257611c91612963565b5b6020026020010151604051611ca7919061259c565b60006040518083038185875af1925050503d8060008114611ce4576040519150601f19603f3d011682016040523d82523d6000602084013e611ce9565b606091505b50509050611d197fefc24628153bf47a84fdebc77fb18d7b9c3e5d6e200d0b7f549da60153fe949460001b611788565b611d457fcb3ac5bfb3227712d3df408aa24344cd162d50ce8d53db3b5341d82099a54bf360001b611788565b611d717f94f6dc37f5c771ddea33aeed3865e05c3563e5e2e11a88ffd3943553f6a03b9c60001b611788565b80611db1576040517f08c379a0000000000000000000000000000000000000000000000000000000008152600401611da8906126a0565b60405180910390fd5b611ddd7f049760013fe4848d8f8d6a94e730005505203d7a53d5ec5499035448bc26655e60001b611788565b508080611de9906128eb565b915050611bd0565b50505050505050565b611e267fb171c8c2485d5e822d6e7b46d31d4b093b6bae08d2eb561b1882b9dcebe259fb60001b611788565b611e527fefb0aab59ea92fbaeede4d7382fdc8a09d2db0e239556f2c8f9a9dee7a6597e760001b611788565b611e7e7fee586db940a856e05ef6ca2e66152c5094678d9fa23658f58f11b28606aea62d60001b611788565b7fd80ff32702e0622dbb097b3978d56222743155c7f344ab504ce2e194b913fadc826001600085815260200190815260200160002060009054906101000a900473ffffffffffffffffffffffffffffffffffffffff1683604051611ee4939291906125e9565b60405180910390a1611f187f60acc356a5435f3b53829ffb1449137fcd63707c3fc1b624a033ad50567c0e8b60001b611788565b611f447fcbb17c3df7252ac3f5280cb78d6bd2b9ab64a5ebb85a07e87ab9f216a4188d5760001b611788565b806001600084815260200190815260200160002060006101000a81548173ffffffffffffffffffffffffffffffffffffffff021916908373ffffffffffffffffffffffffffffffffffffffff1602179055505050565b6000611fad611fa884612765565b612740565b90508083825260208201905082856020860282011115611fd057611fcf6129c6565b5b60005b858110156120005781611fe6888261215f565b845260208401935060208301925050600181019050611fd3565b5050509392505050565b600061201d61201884612791565b612740565b905080838252602082019050828560208602820111156120405761203f6129c6565b5b60005b8581101561208e57815167ffffffffffffffff811115612066576120656129c1565b5b8086016120738982612213565b85526020850194506020840193505050600181019050612043565b5050509392505050565b60006120ab6120a6846127bd565b612740565b905080838252602082019050828560208602820111156120ce576120cd6129c6565b5b60005b858110156120fe57816120e48882612241565b8452602084019350602083019250506001810190506120d1565b5050509392505050565b600061211b612116846127e9565b612740565b905082815260208101848484011115612137576121366129cb565b5b612142848285612887565b509392505050565b60008135905061215981612b5c565b92915050565b60008151905061216e81612b5c565b92915050565b600082601f830112612189576121886129c1565b5b8151612199848260208601611f9a565b91505092915050565b600082601f8301126121b7576121b66129c1565b5b81516121c784826020860161200a565b91505092915050565b600082601f8301126121e5576121e46129c1565b5b81516121f5848260208601612098565b91505092915050565b60008135905061220d81612b73565b92915050565b600082601f830112612228576122276129c1565b5b8151612238848260208601612108565b91505092915050565b60008151905061225081612b8a565b92915050565b60006020828403121561226c5761226b6129d5565b5b600061227a8482850161215f565b91505092915050565b600080600080600060a0868803121561229f5761229e6129d5565b5b60006122ad8882890161214a565b95505060206122be8882890161214a565b94505060406122cf8882890161214a565b93505060606122e08882890161214a565b92505060806122f18882890161214a565b9150509295509295909350565b600080600060608486031215612317576123166129d5565b5b600084015167ffffffffffffffff811115612335576123346129d0565b5b61234186828701612174565b935050602084015167ffffffffffffffff811115612362576123616129d0565b5b61236e868287016121a2565b925050604084015167ffffffffffffffff81111561238f5761238e6129d0565b5b61239b868287016121d0565b9150509250925092565b6000602082840312156123bb576123ba6129d5565b5b60006123c9848285016121fe565b91505092915050565b600080604083850312156123e9576123e86129d5565b5b60006123f7858286016121fe565b92505060206124088582860161214a565b9150509250929050565b61241b81612841565b82525050565b61242a81612853565b82525050565b600061243b8261281a565b6124458185612825565b9350612455818560208601612887565b80840191505092915050565b600061246e601c83612830565b9150612479826129eb565b602082019050919050565b6000612491601a83612830565b915061249c82612a14565b602082019050919050565b60006124b4601d83612830565b91506124bf82612a3d565b602082019050919050565b60006124d7601d83612830565b91506124e282612a66565b602082019050919050565b60006124fa601083612830565b915061250582612a8f565b602082019050919050565b600061251d601a83612830565b915061252882612ab8565b602082019050919050565b6000612540601a83612830565b915061254b82612ae1565b602082019050919050565b6000612563601b83612830565b915061256e82612b0a565b602082019050919050565b6000612586601583612830565b915061259182612b33565b602082019050919050565b60006125a88284612430565b915081905092915050565b60006020820190506125c86000830184612412565b92915050565b60006020820190506125e36000830184612421565b92915050565b60006060820190506125fe6000830186612421565b61260b6020830185612412565b6126186040830184612412565b949350505050565b6000602082019050818103600083015261263981612461565b9050919050565b6000602082019050818103600083015261265981612484565b9050919050565b60006020820190508181036000830152612679816124a7565b9050919050565b60006020820190508181036000830152612699816124ca565b9050919050565b600060208201905081810360008301526126b9816124ed565b9050919050565b600060208201905081810360008301526126d981612510565b9050919050565b600060208201905081810360008301526126f981612533565b9050919050565b6000602082019050818103600083015261271981612556565b9050919050565b6000602082019050818103600083015261273981612579565b9050919050565b600061274a61275b565b905061275682826128ba565b919050565b6000604051905090565b600067ffffffffffffffff8211156127805761277f612992565b5b602082029050602081019050919050565b600067ffffffffffffffff8211156127ac576127ab612992565b5b602082029050602081019050919050565b600067ffffffffffffffff8211156127d8576127d7612992565b5b602082029050602081019050919050565b600067ffffffffffffffff82111561280457612803612992565b5b61280d826129da565b9050602081019050919050565b600081519050919050565b600081905092915050565b600082825260208201905092915050565b600061284c8261285d565b9050919050565b6000819050919050565b600073ffffffffffffffffffffffffffffffffffffffff82169050919050565b6000819050919050565b60005b838110156128a557808201518184015260208101905061288a565b838111156128b4576000848401525b50505050565b6128c3826129da565b810181811067ffffffffffffffff821117156128e2576128e1612992565b5b80604052505050565b60006128f68261287d565b91507fffffffffffffffffffffffffffffffffffffffffffffffffffffffffffffffff82141561292957612928612934565b5b600182019050919050565b7f4e487b7100000000000000000000000000000000000000000000000000000000600052601160045260246000fd5b7f4e487b7100000000000000000000000000000000000000000000000000000000600052603260045260246000fd5b7f4e487b7100000000000000000000000000000000000000000000000000000000600052604160045260246000fd5b600080fd5b600080fd5b600080fd5b600080fd5b600080fd5b6000601f19601f8301169050919050565b7f496e69743a204f6e6c79206465706c6f7965722063616e20696e697400000000600082015250565b7f436f72653a204f6e6c7920657865732063616e206d6f64696679000000000000600082015250565b7f496e69743a20436f6e747261637420697320696e697469616c697a6564000000600082015250565b7f436f72653a2043616e6e6f742064656c657465206f6e20757064617465000000600082015250565b7f436f72653a20457865206661696c656400000000000000000000000000000000600082015250565b7f436f72653a2043616e6e6f742064656c657465206f6e20616464000000000000600082015250565b7f436f72653a2043616e6e6f7420616464206f6e20757064617465000000000000600082015250565b7f436f72653a205573652075706461746520746f207265706c6163650000000000600082015250565b7f436f72653a20616c72656164792064656c657465640000000000000000000000600082015250565b612b6581612841565b8114612b7057600080fd5b50565b612b7c81612853565b8114612b8757600080fd5b50565b612b938161287d565b8114612b9e57600080fd5b5056fea264697066735822122093136542798cea06580f5c5626ffe2d87f15f31786dcdf5a4bcfef24b376c75c64736f6c63430008070033",
  "linkReferences": {},
  "deployedLinkReferences": {}
}