{
  "_format": "hh-sol-artifact-1",
  "contractName": "Core",
  "sourceName": "contracts/Core.sol",
  "abi": [
    {
      "anonymous": false,
      "inputs": [
        {
          "indexed": false,
          "internalType": "bytes32",
          "name": "key",
          "type": "bytes32"
        },
        {
          "indexed": false,
          "internalType": "address",
          "name": "oldImplementation",
          "type": "address"
        },
        {
          "indexed": false,
          "internalType": "address",
          "name": "newImplementation",
          "type": "address"
        }
      ],
      "name": "ImplementationChanged",
      "type": "event"
    },
    {
      "inputs": [],
      "name": "IDENTIFIER",
      "outputs": [
        {
          "internalType": "bytes32",
          "name": "",
          "type": "bytes32"
        }
      ],
      "stateMutability": "view",
      "type": "function"
    },
    {
      "inputs": [
        {
          "internalType": "bytes32",
          "name": "_key",
          "type": "bytes32"
        },
        {
          "internalType": "address",
          "name": "_instance",
          "type": "address"
        }
      ],
      "name": "addContract",
      "outputs": [],
      "stateMutability": "nonpayable",
      "type": "function"
    },
    {
      "inputs": [
        {
          "internalType": "bytes32",
          "name": "_key",
          "type": "bytes32"
        }
      ],
      "name": "deleteContract",
      "outputs": [],
      "stateMutability": "nonpayable",
      "type": "function"
    },
    {
      "inputs": [
        {
          "internalType": "bytes32",
          "name": "_exeID",
          "type": "bytes32"
        }
      ],
      "name": "execute",
      "outputs": [],
      "stateMutability": "nonpayable",
      "type": "function"
    },
    {
      "inputs": [
        {
          "internalType": "bytes32",
          "name": "_key",
          "type": "bytes32"
        }
      ],
      "name": "getInstance",
      "outputs": [
        {
          "internalType": "address",
          "name": "",
          "type": "address"
        }
      ],
      "stateMutability": "view",
      "type": "function"
    },
    {
      "inputs": [
        {
          "internalType": "address",
          "name": "_coord",
          "type": "address"
        },
        {
          "internalType": "address",
          "name": "_executables",
          "type": "address"
        },
        {
          "internalType": "address",
          "name": "_props",
          "type": "address"
        },
        {
          "internalType": "address",
          "name": "_voteWeight",
          "type": "address"
        },
        {
          "internalType": "address",
          "name": "_votingBooth",
          "type": "address"
        }
      ],
      "name": "initialise",
      "outputs": [],
      "stateMutability": "nonpayable",
      "type": "function"
    },
    {
      "inputs": [
        {
          "internalType": "bytes32",
          "name": "_key",
          "type": "bytes32"
        },
        {
          "internalType": "address",
          "name": "_instance",
          "type": "address"
        }
      ],
      "name": "updateContract",
      "outputs": [],
      "stateMutability": "nonpayable",
      "type": "function"
    }
  ],
  "bytecode": "0x608060405234801561001057600080fd5b5033600060026101000a81548173ffffffffffffffffffffffffffffffffffffffff021916908373ffffffffffffffffffffffffffffffffffffffff1602179055506118bd806100616000396000f3fe608060405234801561001057600080fd5b506004361061007d5760003560e01c8063956138ed1161005b578063956138ed146100ec578063a869e09814610108578063dec0257d14610124578063e751f271146101405761007d565b80633c9747f3146100825780635188f996146100a0578063624a23e0146100bc575b600080fd5b61008a61015c565b60405161009791906112b4565b60405180910390f35b6100ba60048036038101906100b591906110b8565b610180565b005b6100d660048036038101906100d1919061108b565b61030e565b6040516100e39190611299565b60405180910390f35b610106600480360381019061010191906110b8565b61034b565b005b610122600480360381019061011d9190610f69565b6104da565b005b61013e6004803603810190610139919061108b565b61071a565b005b61015a6004803603810190610155919061108b565b610839565b005b7f907208bc2088fa777f18b43edd8b766e7243504cf8497f7ed936c65c7a446bbc81565b3073ffffffffffffffffffffffffffffffffffffffff163373ffffffffffffffffffffffffffffffffffffffff16146101ee576040517f08c379a00000000000000000000000000000000000000000000000000000000081526004016101e590611326565b60405180910390fd5b600073ffffffffffffffffffffffffffffffffffffffff166001600084815260200190815260200160002060009054906101000a900473ffffffffffffffffffffffffffffffffffffffff1673ffffffffffffffffffffffffffffffffffffffff1614610290576040517f08c379a0000000000000000000000000000000000000000000000000000000008152600401610287906113e6565b60405180910390fd5b600073ffffffffffffffffffffffffffffffffffffffff168173ffffffffffffffffffffffffffffffffffffffff161415610300576040517f08c379a00000000000000000000000000000000000000000000000000000000081526004016102f7906113a6565b60405180910390fd5b61030a8282610bbc565b5050565b60006001600083815260200190815260200160002060009054906101000a900473ffffffffffffffffffffffffffffffffffffffff169050919050565b3073ffffffffffffffffffffffffffffffffffffffff163373ffffffffffffffffffffffffffffffffffffffff16146103b9576040517f08c379a00000000000000000000000000000000000000000000000000000000081526004016103b090611326565b60405180910390fd5b600073ffffffffffffffffffffffffffffffffffffffff166001600084815260200190815260200160002060009054906101000a900473ffffffffffffffffffffffffffffffffffffffff1673ffffffffffffffffffffffffffffffffffffffff16141561045c576040517f08c379a0000000000000000000000000000000000000000000000000000000008152600401610453906113c6565b60405180910390fd5b600073ffffffffffffffffffffffffffffffffffffffff168173ffffffffffffffffffffffffffffffffffffffff1614156104cc576040517f08c379a00000000000000000000000000000000000000000000000000000000081526004016104c390611366565b60405180910390fd5b6104d68282610bbc565b5050565b600060019054906101000a900460ff1680610500575060008054906101000a900460ff16155b61053f576040517f08c379a000000000000000000000000000000000000000000000000000000000815260040161053690611346565b60405180910390fd5b600060029054906101000a900473ffffffffffffffffffffffffffffffffffffffff1673ffffffffffffffffffffffffffffffffffffffff163373ffffffffffffffffffffffffffffffffffffffff16146105cf576040517f08c379a00000000000000000000000000000000000000000000000000000000081526004016105c690611306565b60405180910390fd5b60008060019054906101000a900460ff16159050801561061f576001600060016101000a81548160ff02191690831515021790555060016000806101000a81548160ff0219169083151502179055505b6106497fd578563424ab02f85ec03c6b1aee04947ebdd4a30db46cba3bcd7f56ef40b19987610bbc565b6106737f59e2d72f5870ccddd14d35394bd3c22374071b2da7c07a3d6c3b690400b7362886610bbc565b61069d7f36209a57dfd79e3872ec3a0c88c653bbe7e32a12306e5e1f92f118c1936ae8b285610bbc565b6106c77fcdd7ba10b36b7349d5c9710e5e447ec8acaa8e3cbba8d20f4393eccf61f185b184610bbc565b6106f17f346b2ab3a980432fd8f2e24828fc9f9ee2df1548701bc542f6ec17882b32762783610bbc565b80156107125760008060016101000a81548160ff0219169083151502179055505b505050505050565b3073ffffffffffffffffffffffffffffffffffffffff163373ffffffffffffffffffffffffffffffffffffffff1614610788576040517f08c379a000000000000000000000000000000000000000000000000000000000815260040161077f90611326565b60405180910390fd5b600073ffffffffffffffffffffffffffffffffffffffff166001600083815260200190815260200160002060009054906101000a900473ffffffffffffffffffffffffffffffffffffffff1673ffffffffffffffffffffffffffffffffffffffff16141561082b576040517f08c379a000000000000000000000000000000000000000000000000000000000815260040161082290611406565b60405180910390fd5b610836816000610bbc565b50565b60003073ffffffffffffffffffffffffffffffffffffffff1663624a23e07fd578563424ab02f85ec03c6b1aee04947ebdd4a30db46cba3bcd7f56ef40b1996040518263ffffffff1660e01b815260040161089491906112b4565b60206040518083038186803b1580156108ac57600080fd5b505afa1580156108c0573d6000803e3d6000fd5b505050506040513d601f19601f820116820180604052508101906108e49190610f3c565b90508073ffffffffffffffffffffffffffffffffffffffff16637526bd9b836040518263ffffffff1660e01b815260040161091f91906112b4565b600060405180830381600087803b15801561093957600080fd5b505af115801561094d573d6000803e3d6000fd5b5050505060003073ffffffffffffffffffffffffffffffffffffffff1663624a23e07f59e2d72f5870ccddd14d35394bd3c22374071b2da7c07a3d6c3b690400b736286040518263ffffffff1660e01b81526004016109ac91906112b4565b60206040518083038186803b1580156109c457600080fd5b505afa1580156109d8573d6000803e3d6000fd5b505050506040513d601f19601f820116820180604052508101906109fc9190610f3c565b905060008060008373ffffffffffffffffffffffffffffffffffffffff1663971aa75e876040518263ffffffff1660e01b8152600401610a3c91906112b4565b60006040518083038186803b158015610a5457600080fd5b505afa158015610a68573d6000803e3d6000fd5b505050506040513d6000823e3d601f19601f82011682018060405250810190610a919190610fe4565b92509250925060005b8351811015610bb3576000848281518110610ab857610ab7611649565b5b602002602001015173ffffffffffffffffffffffffffffffffffffffff16838381518110610ae957610ae8611649565b5b6020026020010151858481518110610b0457610b03611649565b5b6020026020010151604051610b199190611282565b60006040518083038185875af1925050503d8060008114610b56576040519150601f19603f3d011682016040523d82523d6000602084013e610b5b565b606091505b5050905080610b9f576040517f08c379a0000000000000000000000000000000000000000000000000000000008152600401610b9690611386565b60405180910390fd5b508080610bab906115d1565b915050610a9a565b50505050505050565b7fd80ff32702e0622dbb097b3978d56222743155c7f344ab504ce2e194b913fadc826001600085815260200190815260200160002060009054906101000a900473ffffffffffffffffffffffffffffffffffffffff1683604051610c22939291906112cf565b60405180910390a1806001600084815260200190815260200160002060006101000a81548173ffffffffffffffffffffffffffffffffffffffff021916908373ffffffffffffffffffffffffffffffffffffffff1602179055505050565b6000610c93610c8e8461144b565b611426565b90508083825260208201905082856020860282011115610cb657610cb56116ac565b5b60005b85811015610ce65781610ccc8882610e45565b845260208401935060208301925050600181019050610cb9565b5050509392505050565b6000610d03610cfe84611477565b611426565b90508083825260208201905082856020860282011115610d2657610d256116ac565b5b60005b85811015610d7457815167ffffffffffffffff811115610d4c57610d4b6116a7565b5b808601610d598982610ef9565b85526020850194506020840193505050600181019050610d29565b5050509392505050565b6000610d91610d8c846114a3565b611426565b90508083825260208201905082856020860282011115610db457610db36116ac565b5b60005b85811015610de45781610dca8882610f27565b845260208401935060208301925050600181019050610db7565b5050509392505050565b6000610e01610dfc846114cf565b611426565b905082815260208101848484011115610e1d57610e1c6116b1565b5b610e2884828561156d565b509392505050565b600081359050610e3f81611842565b92915050565b600081519050610e5481611842565b92915050565b600082601f830112610e6f57610e6e6116a7565b5b8151610e7f848260208601610c80565b91505092915050565b600082601f830112610e9d57610e9c6116a7565b5b8151610ead848260208601610cf0565b91505092915050565b600082601f830112610ecb57610eca6116a7565b5b8151610edb848260208601610d7e565b91505092915050565b600081359050610ef381611859565b92915050565b600082601f830112610f0e57610f0d6116a7565b5b8151610f1e848260208601610dee565b91505092915050565b600081519050610f3681611870565b92915050565b600060208284031215610f5257610f516116bb565b5b6000610f6084828501610e45565b91505092915050565b600080600080600060a08688031215610f8557610f846116bb565b5b6000610f9388828901610e30565b9550506020610fa488828901610e30565b9450506040610fb588828901610e30565b9350506060610fc688828901610e30565b9250506080610fd788828901610e30565b9150509295509295909350565b600080600060608486031215610ffd57610ffc6116bb565b5b600084015167ffffffffffffffff81111561101b5761101a6116b6565b5b61102786828701610e5a565b935050602084015167ffffffffffffffff811115611048576110476116b6565b5b61105486828701610e88565b925050604084015167ffffffffffffffff811115611075576110746116b6565b5b61108186828701610eb6565b9150509250925092565b6000602082840312156110a1576110a06116bb565b5b60006110af84828501610ee4565b91505092915050565b600080604083850312156110cf576110ce6116bb565b5b60006110dd85828601610ee4565b92505060206110ee85828601610e30565b9150509250929050565b61110181611527565b82525050565b61111081611539565b82525050565b600061112182611500565b61112b818561150b565b935061113b81856020860161156d565b80840191505092915050565b6000611154601c83611516565b915061115f826116d1565b602082019050919050565b6000611177601a83611516565b9150611182826116fa565b602082019050919050565b600061119a601d83611516565b91506111a582611723565b602082019050919050565b60006111bd601d83611516565b91506111c88261174c565b602082019050919050565b60006111e0601083611516565b91506111eb82611775565b602082019050919050565b6000611203601a83611516565b915061120e8261179e565b602082019050919050565b6000611226601a83611516565b9150611231826117c7565b602082019050919050565b6000611249601b83611516565b9150611254826117f0565b602082019050919050565b600061126c601583611516565b915061127782611819565b602082019050919050565b600061128e8284611116565b915081905092915050565b60006020820190506112ae60008301846110f8565b92915050565b60006020820190506112c96000830184611107565b92915050565b60006060820190506112e46000830186611107565b6112f160208301856110f8565b6112fe60408301846110f8565b949350505050565b6000602082019050818103600083015261131f81611147565b9050919050565b6000602082019050818103600083015261133f8161116a565b9050919050565b6000602082019050818103600083015261135f8161118d565b9050919050565b6000602082019050818103600083015261137f816111b0565b9050919050565b6000602082019050818103600083015261139f816111d3565b9050919050565b600060208201905081810360008301526113bf816111f6565b9050919050565b600060208201905081810360008301526113df81611219565b9050919050565b600060208201905081810360008301526113ff8161123c565b9050919050565b6000602082019050818103600083015261141f8161125f565b9050919050565b6000611430611441565b905061143c82826115a0565b919050565b6000604051905090565b600067ffffffffffffffff82111561146657611465611678565b5b602082029050602081019050919050565b600067ffffffffffffffff82111561149257611491611678565b5b602082029050602081019050919050565b600067ffffffffffffffff8211156114be576114bd611678565b5b602082029050602081019050919050565b600067ffffffffffffffff8211156114ea576114e9611678565b5b6114f3826116c0565b9050602081019050919050565b600081519050919050565b600081905092915050565b600082825260208201905092915050565b600061153282611543565b9050919050565b6000819050919050565b600073ffffffffffffffffffffffffffffffffffffffff82169050919050565b6000819050919050565b60005b8381101561158b578082015181840152602081019050611570565b8381111561159a576000848401525b50505050565b6115a9826116c0565b810181811067ffffffffffffffff821117156115c8576115c7611678565b5b80604052505050565b60006115dc82611563565b91507fffffffffffffffffffffffffffffffffffffffffffffffffffffffffffffffff82141561160f5761160e61161a565b5b600182019050919050565b7f4e487b7100000000000000000000000000000000000000000000000000000000600052601160045260246000fd5b7f4e487b7100000000000000000000000000000000000000000000000000000000600052603260045260246000fd5b7f4e487b7100000000000000000000000000000000000000000000000000000000600052604160045260246000fd5b600080fd5b600080fd5b600080fd5b600080fd5b600080fd5b6000601f19601f8301169050919050565b7f496e69743a204f6e6c79206465706c6f7965722063616e20696e697400000000600082015250565b7f436f72653a204f6e6c7920657865732063616e206d6f64696679000000000000600082015250565b7f496e69743a20436f6e747261637420697320696e697469616c697a6564000000600082015250565b7f436f72653a2043616e6e6f742064656c657465206f6e20757064617465000000600082015250565b7f436f72653a20457865206661696c656400000000000000000000000000000000600082015250565b7f436f72653a2043616e6e6f742064656c657465206f6e20616464000000000000600082015250565b7f436f72653a2043616e6e6f7420616464206f6e20757064617465000000000000600082015250565b7f436f72653a205573652075706461746520746f207265706c6163650000000000600082015250565b7f436f72653a20616c72656164792064656c657465640000000000000000000000600082015250565b61184b81611527565b811461185657600080fd5b50565b61186281611539565b811461186d57600080fd5b50565b61187981611563565b811461188457600080fd5b5056fea2646970667358221220f644739804320049270766450a55eaf7eee0572f4f357d199d2073f5a81bb95464736f6c63430008070033",
  "linkReferences": {},
  "deployedLinkReferences": {}
}