{
  "_format": "hh-sol-artifact-1",
  "contractName": "Core",
  "sourceName": "contracts/Core.sol",
  "abi": [
    {
      "anonymous": false,
      "inputs": [
        {
          "indexed": false,
          "internalType": "bytes32",
          "name": "key",
          "type": "bytes32"
        },
        {
          "indexed": false,
          "internalType": "address",
          "name": "oldImplementation",
          "type": "address"
        },
        {
          "indexed": false,
          "internalType": "address",
          "name": "newImplementation",
          "type": "address"
        }
      ],
      "name": "ImplementationChanged",
      "type": "event"
    },
    {
      "inputs": [],
      "name": "IDENTIFIER",
      "outputs": [
        {
          "internalType": "bytes32",
          "name": "",
          "type": "bytes32"
        }
      ],
      "stateMutability": "view",
      "type": "function"
    },
    {
      "inputs": [
        {
          "internalType": "bytes32",
          "name": "_key",
          "type": "bytes32"
        },
        {
          "internalType": "address",
          "name": "_instance",
          "type": "address"
        }
      ],
      "name": "addContract",
      "outputs": [],
      "stateMutability": "nonpayable",
      "type": "function"
    },
    {
      "inputs": [
        {
          "internalType": "bytes32",
          "name": "_key",
          "type": "bytes32"
        }
      ],
      "name": "deleteContract",
      "outputs": [],
      "stateMutability": "nonpayable",
      "type": "function"
    },
    {
      "inputs": [
        {
          "internalType": "bytes32",
          "name": "_exeID",
          "type": "bytes32"
        }
      ],
      "name": "execute",
      "outputs": [],
      "stateMutability": "nonpayable",
      "type": "function"
    },
    {
      "inputs": [
        {
          "internalType": "bytes32",
          "name": "_key",
          "type": "bytes32"
        }
      ],
      "name": "getInstance",
      "outputs": [
        {
          "internalType": "address",
          "name": "",
          "type": "address"
        }
      ],
      "stateMutability": "view",
      "type": "function"
    },
    {
      "inputs": [
        {
          "internalType": "address",
          "name": "_coord",
          "type": "address"
        },
        {
          "internalType": "address",
          "name": "_executables",
          "type": "address"
        },
        {
          "internalType": "address",
          "name": "_props",
          "type": "address"
        },
        {
          "internalType": "address",
          "name": "_voteWeight",
          "type": "address"
        },
        {
          "internalType": "address",
          "name": "_votingBooth",
          "type": "address"
        },
        {
          "internalType": "address",
          "name": "_voteStorage",
          "type": "address"
        }
      ],
      "name": "initialise",
      "outputs": [],
      "stateMutability": "nonpayable",
      "type": "function"
    },
    {
      "inputs": [
        {
          "internalType": "bytes32",
          "name": "_key",
          "type": "bytes32"
        },
        {
          "internalType": "address",
          "name": "_instance",
          "type": "address"
        }
      ],
      "name": "updateContract",
      "outputs": [],
      "stateMutability": "nonpayable",
      "type": "function"
    }
  ],
  "bytecode": "0x608060405234801561001057600080fd5b5033600060026101000a81548173ffffffffffffffffffffffffffffffffffffffff021916908373ffffffffffffffffffffffffffffffffffffffff160217905550611a28806100616000396000f3fe608060405234801561001057600080fd5b506004361061007d5760003560e01c8063956138ed1161005b578063956138ed146100ec5780639ad34b5f14610108578063dec0257d14610124578063e751f271146101405761007d565b80633c9747f3146100825780635188f996146100a0578063624a23e0146100bc575b600080fd5b61008a61015c565b60405161009791906113b3565b60405180910390f35b6100ba60048036038101906100b59190611194565b610180565b005b6100d660048036038101906100d19190611167565b61030e565b6040516100e39190611398565b60405180910390f35b61010660048036038101906101019190611194565b61034b565b005b610122600480360381019061011d9190611006565b6104da565b005b61013e60048036038101906101399190611167565b610745565b005b61015a60048036038101906101559190611167565b610864565b005b7f907208bc2088fa777f18b43edd8b766e7243504cf8497f7ed936c65c7a446bbc81565b3073ffffffffffffffffffffffffffffffffffffffff163373ffffffffffffffffffffffffffffffffffffffff16146101ee576040517f08c379a00000000000000000000000000000000000000000000000000000000081526004016101e590611425565b60405180910390fd5b600073ffffffffffffffffffffffffffffffffffffffff166001600084815260200190815260200160002060009054906101000a900473ffffffffffffffffffffffffffffffffffffffff1673ffffffffffffffffffffffffffffffffffffffff1614610290576040517f08c379a0000000000000000000000000000000000000000000000000000000008152600401610287906114e5565b60405180910390fd5b600073ffffffffffffffffffffffffffffffffffffffff168173ffffffffffffffffffffffffffffffffffffffff161415610300576040517f08c379a00000000000000000000000000000000000000000000000000000000081526004016102f7906114a5565b60405180910390fd5b61030a8282610c44565b5050565b60006001600083815260200190815260200160002060009054906101000a900473ffffffffffffffffffffffffffffffffffffffff169050919050565b3073ffffffffffffffffffffffffffffffffffffffff163373ffffffffffffffffffffffffffffffffffffffff16146103b9576040517f08c379a00000000000000000000000000000000000000000000000000000000081526004016103b090611425565b60405180910390fd5b600073ffffffffffffffffffffffffffffffffffffffff166001600084815260200190815260200160002060009054906101000a900473ffffffffffffffffffffffffffffffffffffffff1673ffffffffffffffffffffffffffffffffffffffff16141561045c576040517f08c379a0000000000000000000000000000000000000000000000000000000008152600401610453906114c5565b60405180910390fd5b600073ffffffffffffffffffffffffffffffffffffffff168173ffffffffffffffffffffffffffffffffffffffff1614156104cc576040517f08c379a00000000000000000000000000000000000000000000000000000000081526004016104c390611465565b60405180910390fd5b6104d68282610c44565b5050565b600060019054906101000a900460ff1680610500575060008054906101000a900460ff16155b61053f576040517f08c379a000000000000000000000000000000000000000000000000000000000815260040161053690611445565b60405180910390fd5b600060029054906101000a900473ffffffffffffffffffffffffffffffffffffffff1673ffffffffffffffffffffffffffffffffffffffff163373ffffffffffffffffffffffffffffffffffffffff16146105cf576040517f08c379a00000000000000000000000000000000000000000000000000000000081526004016105c690611405565b60405180910390fd5b60008060019054906101000a900460ff16159050801561061f576001600060016101000a81548160ff02191690831515021790555060016000806101000a81548160ff0219169083151502179055505b6106497fd578563424ab02f85ec03c6b1aee04947ebdd4a30db46cba3bcd7f56ef40b19988610c44565b6106737f59e2d72f5870ccddd14d35394bd3c22374071b2da7c07a3d6c3b690400b7362887610c44565b61069d7f36209a57dfd79e3872ec3a0c88c653bbe7e32a12306e5e1f92f118c1936ae8b286610c44565b6106c77fcdd7ba10b36b7349d5c9710e5e447ec8acaa8e3cbba8d20f4393eccf61f185b185610c44565b6106f17f346b2ab3a980432fd8f2e24828fc9f9ee2df1548701bc542f6ec17882b32762784610c44565b61071b7f92b17ff91a1f46cc9f1d4a69447ffdb215c04417e5debb5977aa0c45da3af9e783610c44565b801561073c5760008060016101000a81548160ff0219169083151502179055505b50505050505050565b3073ffffffffffffffffffffffffffffffffffffffff163373ffffffffffffffffffffffffffffffffffffffff16146107b3576040517f08c379a00000000000000000000000000000000000000000000000000000000081526004016107aa90611425565b60405180910390fd5b600073ffffffffffffffffffffffffffffffffffffffff166001600083815260200190815260200160002060009054906101000a900473ffffffffffffffffffffffffffffffffffffffff1673ffffffffffffffffffffffffffffffffffffffff161415610856576040517f08c379a000000000000000000000000000000000000000000000000000000000815260040161084d90611525565b60405180910390fd5b610861816000610c44565b50565b60003073ffffffffffffffffffffffffffffffffffffffff1663624a23e07fd578563424ab02f85ec03c6b1aee04947ebdd4a30db46cba3bcd7f56ef40b1996040518263ffffffff1660e01b81526004016108bf91906113b3565b60206040518083038186803b1580156108d757600080fd5b505afa1580156108eb573d6000803e3d6000fd5b505050506040513d601f19601f8201168201806040525081019061090f9190610fd9565b90508073ffffffffffffffffffffffffffffffffffffffff16639cf782cb836040518263ffffffff1660e01b815260040161094a91906113b3565b60206040518083038186803b15801561096257600080fd5b505afa158015610976573d6000803e3d6000fd5b505050506040513d601f19601f8201168201806040525081019061099a919061113a565b6109d9576040517f08c379a00000000000000000000000000000000000000000000000000000000081526004016109d090611505565b60405180910390fd5b60003073ffffffffffffffffffffffffffffffffffffffff1663624a23e07f59e2d72f5870ccddd14d35394bd3c22374071b2da7c07a3d6c3b690400b736286040518263ffffffff1660e01b8152600401610a3491906113b3565b60206040518083038186803b158015610a4c57600080fd5b505afa158015610a60573d6000803e3d6000fd5b505050506040513d601f19601f82011682018060405250810190610a849190610fd9565b905060008060008373ffffffffffffffffffffffffffffffffffffffff1663971aa75e876040518263ffffffff1660e01b8152600401610ac491906113b3565b60006040518083038186803b158015610adc57600080fd5b505afa158015610af0573d6000803e3d6000fd5b505050506040513d6000823e3d601f19601f82011682018060405250810190610b199190611093565b92509250925060005b8351811015610c3b576000848281518110610b4057610b3f611774565b5b602002602001015173ffffffffffffffffffffffffffffffffffffffff16838381518110610b7157610b70611774565b5b6020026020010151858481518110610b8c57610b8b611774565b5b6020026020010151604051610ba19190611381565b60006040518083038185875af1925050503d8060008114610bde576040519150601f19603f3d011682016040523d82523d6000602084013e610be3565b606091505b5050905080610c27576040517f08c379a0000000000000000000000000000000000000000000000000000000008152600401610c1e90611485565b60405180910390fd5b508080610c33906116fc565b915050610b22565b50505050505050565b7fd80ff32702e0622dbb097b3978d56222743155c7f344ab504ce2e194b913fadc826001600085815260200190815260200160002060009054906101000a900473ffffffffffffffffffffffffffffffffffffffff1683604051610caa939291906113ce565b60405180910390a1806001600084815260200190815260200160002060006101000a81548173ffffffffffffffffffffffffffffffffffffffff021916908373ffffffffffffffffffffffffffffffffffffffff1602179055505050565b6000610d1b610d168461156a565b611545565b90508083825260208201905082856020860282011115610d3e57610d3d6117d7565b5b60005b85811015610d6e5781610d548882610ecd565b845260208401935060208301925050600181019050610d41565b5050509392505050565b6000610d8b610d8684611596565b611545565b90508083825260208201905082856020860282011115610dae57610dad6117d7565b5b60005b85811015610dfc57815167ffffffffffffffff811115610dd457610dd36117d2565b5b808601610de18982610f96565b85526020850194506020840193505050600181019050610db1565b5050509392505050565b6000610e19610e14846115c2565b611545565b90508083825260208201905082856020860282011115610e3c57610e3b6117d7565b5b60005b85811015610e6c5781610e528882610fc4565b845260208401935060208301925050600181019050610e3f565b5050509392505050565b6000610e89610e84846115ee565b611545565b905082815260208101848484011115610ea557610ea46117dc565b5b610eb0848285611698565b509392505050565b600081359050610ec781611996565b92915050565b600081519050610edc81611996565b92915050565b600082601f830112610ef757610ef66117d2565b5b8151610f07848260208601610d08565b91505092915050565b600082601f830112610f2557610f246117d2565b5b8151610f35848260208601610d78565b91505092915050565b600082601f830112610f5357610f526117d2565b5b8151610f63848260208601610e06565b91505092915050565b600081519050610f7b816119ad565b92915050565b600081359050610f90816119c4565b92915050565b600082601f830112610fab57610faa6117d2565b5b8151610fbb848260208601610e76565b91505092915050565b600081519050610fd3816119db565b92915050565b600060208284031215610fef57610fee6117e6565b5b6000610ffd84828501610ecd565b91505092915050565b60008060008060008060c08789031215611023576110226117e6565b5b600061103189828a01610eb8565b965050602061104289828a01610eb8565b955050604061105389828a01610eb8565b945050606061106489828a01610eb8565b935050608061107589828a01610eb8565b92505060a061108689828a01610eb8565b9150509295509295509295565b6000806000606084860312156110ac576110ab6117e6565b5b600084015167ffffffffffffffff8111156110ca576110c96117e1565b5b6110d686828701610ee2565b935050602084015167ffffffffffffffff8111156110f7576110f66117e1565b5b61110386828701610f10565b925050604084015167ffffffffffffffff811115611124576111236117e1565b5b61113086828701610f3e565b9150509250925092565b6000602082840312156111505761114f6117e6565b5b600061115e84828501610f6c565b91505092915050565b60006020828403121561117d5761117c6117e6565b5b600061118b84828501610f81565b91505092915050565b600080604083850312156111ab576111aa6117e6565b5b60006111b985828601610f81565b92505060206111ca85828601610eb8565b9150509250929050565b6111dd81611646565b82525050565b6111ec81611664565b82525050565b60006111fd8261161f565b611207818561162a565b9350611217818560208601611698565b80840191505092915050565b6000611230601c83611635565b915061123b826117fc565b602082019050919050565b6000611253601a83611635565b915061125e82611825565b602082019050919050565b6000611276601d83611635565b91506112818261184e565b602082019050919050565b6000611299601d83611635565b91506112a482611877565b602082019050919050565b60006112bc601083611635565b91506112c7826118a0565b602082019050919050565b60006112df601a83611635565b91506112ea826118c9565b602082019050919050565b6000611302601a83611635565b915061130d826118f2565b602082019050919050565b6000611325601b83611635565b91506113308261191b565b602082019050919050565b6000611348601b83611635565b915061135382611944565b602082019050919050565b600061136b601583611635565b91506113768261196d565b602082019050919050565b600061138d82846111f2565b915081905092915050565b60006020820190506113ad60008301846111d4565b92915050565b60006020820190506113c860008301846111e3565b92915050565b60006060820190506113e360008301866111e3565b6113f060208301856111d4565b6113fd60408301846111d4565b949350505050565b6000602082019050818103600083015261141e81611223565b9050919050565b6000602082019050818103600083015261143e81611246565b9050919050565b6000602082019050818103600083015261145e81611269565b9050919050565b6000602082019050818103600083015261147e8161128c565b9050919050565b6000602082019050818103600083015261149e816112af565b9050919050565b600060208201905081810360008301526114be816112d2565b9050919050565b600060208201905081810360008301526114de816112f5565b9050919050565b600060208201905081810360008301526114fe81611318565b9050919050565b6000602082019050818103600083015261151e8161133b565b9050919050565b6000602082019050818103600083015261153e8161135e565b9050919050565b600061154f611560565b905061155b82826116cb565b919050565b6000604051905090565b600067ffffffffffffffff821115611585576115846117a3565b5b602082029050602081019050919050565b600067ffffffffffffffff8211156115b1576115b06117a3565b5b602082029050602081019050919050565b600067ffffffffffffffff8211156115dd576115dc6117a3565b5b602082029050602081019050919050565b600067ffffffffffffffff821115611609576116086117a3565b5b611612826117eb565b9050602081019050919050565b600081519050919050565b600081905092915050565b600082825260208201905092915050565b60006116518261166e565b9050919050565b60008115159050919050565b6000819050919050565b600073ffffffffffffffffffffffffffffffffffffffff82169050919050565b6000819050919050565b60005b838110156116b657808201518184015260208101905061169b565b838111156116c5576000848401525b50505050565b6116d4826117eb565b810181811067ffffffffffffffff821117156116f3576116f26117a3565b5b80604052505050565b60006117078261168e565b91507fffffffffffffffffffffffffffffffffffffffffffffffffffffffffffffffff82141561173a57611739611745565b5b600182019050919050565b7f4e487b7100000000000000000000000000000000000000000000000000000000600052601160045260246000fd5b7f4e487b7100000000000000000000000000000000000000000000000000000000600052603260045260246000fd5b7f4e487b7100000000000000000000000000000000000000000000000000000000600052604160045260246000fd5b600080fd5b600080fd5b600080fd5b600080fd5b600080fd5b6000601f19601f8301169050919050565b7f496e69743a204f6e6c79206465706c6f7965722063616e20696e697400000000600082015250565b7f436f72653a204f6e6c7920657865732063616e206d6f64696679000000000000600082015250565b7f496e69743a20436f6e747261637420697320696e697469616c697a6564000000600082015250565b7f436f72653a2043616e6e6f742064656c657465206f6e20757064617465000000600082015250565b7f436f72653a20457865206661696c656400000000000000000000000000000000600082015250565b7f436f72653a2043616e6e6f742064656c657465206f6e20616464000000000000600082015250565b7f436f72653a2043616e6e6f7420616464206f6e20757064617465000000000000600082015250565b7f436f72653a205573652075706461746520746f207265706c6163650000000000600082015250565b7f436f72653a20457865206973206e6f742065786563757461626c650000000000600082015250565b7f436f72653a20616c72656164792064656c657465640000000000000000000000600082015250565b61199f81611646565b81146119aa57600080fd5b50565b6119b681611658565b81146119c157600080fd5b50565b6119cd81611664565b81146119d857600080fd5b50565b6119e48161168e565b81146119ef57600080fd5b5056fea264697066735822122049525625e0c3d4257c982eb0bfb1fa45c1c1cd9fe44cfb2856009beb42fbc9d564736f6c63430008070033",
  "linkReferences": {},
  "deployedLinkReferences": {}
}