{
  "_format": "hh-sol-artifact-1",
  "contractName": "Core",
  "sourceName": "contracts/Core.sol",
  "abi": [
    {
      "inputs": [
        {
          "internalType": "address[]",
          "name": "_instances",
          "type": "address[]"
        }
      ],
      "stateMutability": "nonpayable",
      "type": "constructor"
    },
    {
      "inputs": [
        {
          "internalType": "bytes32",
          "name": "_key",
          "type": "bytes32"
        },
        {
          "internalType": "address",
          "name": "_instance",
          "type": "address"
        },
        {
          "internalType": "bytes4",
          "name": "_function",
          "type": "bytes4"
        }
      ],
      "name": "addContract",
      "outputs": [],
      "stateMutability": "nonpayable",
      "type": "function"
    },
    {
      "inputs": [
        {
          "internalType": "bytes32",
          "name": "_exeID",
          "type": "bytes32"
        }
      ],
      "name": "execute",
      "outputs": [],
      "stateMutability": "nonpayable",
      "type": "function"
    },
    {
      "inputs": [
        {
          "internalType": "bytes32",
          "name": "_key",
          "type": "bytes32"
        }
      ],
      "name": "getContract",
      "outputs": [
        {
          "internalType": "address",
          "name": "",
          "type": "address"
        },
        {
          "internalType": "bytes4",
          "name": "",
          "type": "bytes4"
        }
      ],
      "stateMutability": "view",
      "type": "function"
    },
    {
      "inputs": [
        {
          "internalType": "bytes32",
          "name": "_key",
          "type": "bytes32"
        },
        {
          "internalType": "address",
          "name": "_instance",
          "type": "address"
        },
        {
          "internalType": "bytes4",
          "name": "_function",
          "type": "bytes4"
        }
      ],
      "name": "updateContract",
      "outputs": [],
      "stateMutability": "nonpayable",
      "type": "function"
    }
  ],
  "bytecode": "0x60806040523480156200001157600080fd5b506040516200121638038062001216833981810160405281019062000037919062000103565b5062000284565b6000620000556200004f846200017d565b62000154565b905080838252602082019050828560208602820111156200007b576200007a6200024a565b5b60005b85811015620000af5781620000948882620000b9565b8452602084019350602083019250506001810190506200007e565b5050509392505050565b600081519050620000ca816200026a565b92915050565b600082601f830112620000e857620000e762000245565b5b8151620000fa8482602086016200003e565b91505092915050565b6000602082840312156200011c576200011b62000254565b5b600082015167ffffffffffffffff8111156200013d576200013c6200024f565b5b6200014b84828501620000d0565b91505092915050565b60006200016062000173565b90506200016e8282620001e0565b919050565b6000604051905090565b600067ffffffffffffffff8211156200019b576200019a62000216565b5b602082029050602081019050919050565b6000620001b982620001c0565b9050919050565b600073ffffffffffffffffffffffffffffffffffffffff82169050919050565b620001eb8262000259565b810181811067ffffffffffffffff821117156200020d576200020c62000216565b5b80604052505050565b7f4e487b7100000000000000000000000000000000000000000000000000000000600052604160045260246000fd5b600080fd5b600080fd5b600080fd5b600080fd5b6000601f19601f8301169050919050565b6200027581620001ac565b81146200028157600080fd5b50565b610f8280620002946000396000f3fe608060405234801561001057600080fd5b506004361061004c5760003560e01c80631e7fcad81461005157806342fae5ee1461006d578063e16c7d9814610089578063e751f271146100ba575b600080fd5b61006b600480360381019061006691906109c9565b6100d6565b005b610087600480360381019061008291906109c9565b6101f8565b005b6100a3600480360381019061009e919061099c565b610276565b6040516100b1929190610afa565b60405180910390f35b6100d460048036038101906100cf919061099c565b6102db565b005b3073ffffffffffffffffffffffffffffffffffffffff163373ffffffffffffffffffffffffffffffffffffffff1614610144576040517f08c379a000000000000000000000000000000000000000000000000000000000815260040161013b90610b5e565b60405180910390fd5b600073ffffffffffffffffffffffffffffffffffffffff1660008085815260200190815260200160002060000160009054906101000a900473ffffffffffffffffffffffffffffffffffffffff1673ffffffffffffffffffffffffffffffffffffffff16146101e8576040517f08c379a00000000000000000000000000000000000000000000000000000000081526004016101df90610b3e565b60405180910390fd5b6101f3838383610545565b505050565b3073ffffffffffffffffffffffffffffffffffffffff163373ffffffffffffffffffffffffffffffffffffffff1614610266576040517f08c379a000000000000000000000000000000000000000000000000000000000815260040161025d90610b5e565b60405180910390fd5b610271838383610545565b505050565b60008060008084815260200190815260200160002060000160009054906101000a900473ffffffffffffffffffffffffffffffffffffffff1660008085815260200190815260200160002060000160149054906101000a900460e01b91509150915091565b60003073ffffffffffffffffffffffffffffffffffffffff1663e16c7d987f59e2d72f5870ccddd14d35394bd3c22374071b2da7c07a3d6c3b690400b736286040518263ffffffff1660e01b81526004016103369190610b23565b604080518083038186803b15801561034d57600080fd5b505afa158015610361573d6000803e3d6000fd5b505050506040513d601f19601f8201168201806040525081019061038591906108b5565b50905060008060008373ffffffffffffffffffffffffffffffffffffffff1663971aa75e866040518263ffffffff1660e01b81526004016103c69190610b23565b60006040518083038186803b1580156103de57600080fd5b505afa1580156103f2573d6000803e3d6000fd5b505050506040513d6000823e3d601f19601f8201168201806040525081019061041b91906108f5565b92509250925060005b835181101561053d57600084828151811061044257610441610ded565b5b602002602001015173ffffffffffffffffffffffffffffffffffffffff1683838151811061047357610472610ded565b5b602002602001015185848151811061048e5761048d610ded565b5b60200260200101516040516104a39190610ae3565b60006040518083038185875af1925050503d80600081146104e0576040519150601f19603f3d011682016040523d82523d6000602084013e6104e5565b606091505b5050905080610529576040517f08c379a000000000000000000000000000000000000000000000000000000000815260040161052090610b7e565b60405180910390fd5b50808061053590610d75565b915050610424565b505050505050565b8160008085815260200190815260200160002060000160006101000a81548173ffffffffffffffffffffffffffffffffffffffff021916908373ffffffffffffffffffffffffffffffffffffffff1602179055508060008085815260200190815260200160002060000160146101000a81548163ffffffff021916908360e01c0217905550505050565b60006105e26105dd84610bc3565b610b9e565b9050808382526020820190508285602086028201111561060557610604610e50565b5b60005b85811015610635578161061b8882610794565b845260208401935060208301925050600181019050610608565b5050509392505050565b600061065261064d84610bef565b610b9e565b9050808382526020820190508285602086028201111561067557610674610e50565b5b60005b858110156106c357815167ffffffffffffffff81111561069b5761069a610e4b565b5b8086016106a88982610872565b85526020850194506020840193505050600181019050610678565b5050509392505050565b60006106e06106db84610c1b565b610b9e565b9050808382526020820190508285602086028201111561070357610702610e50565b5b60005b85811015610733578161071988826108a0565b845260208401935060208301925050600181019050610706565b5050509392505050565b600061075061074b84610c47565b610b9e565b90508281526020810184848401111561076c5761076b610e55565b5b610777848285610d11565b509392505050565b60008135905061078e81610ef0565b92915050565b6000815190506107a381610ef0565b92915050565b600082601f8301126107be576107bd610e4b565b5b81516107ce8482602086016105cf565b91505092915050565b600082601f8301126107ec576107eb610e4b565b5b81516107fc84826020860161063f565b91505092915050565b600082601f83011261081a57610819610e4b565b5b815161082a8482602086016106cd565b91505092915050565b60008135905061084281610f07565b92915050565b60008135905061085781610f1e565b92915050565b60008151905061086c81610f1e565b92915050565b600082601f83011261088757610886610e4b565b5b815161089784826020860161073d565b91505092915050565b6000815190506108af81610f35565b92915050565b600080604083850312156108cc576108cb610e5f565b5b60006108da85828601610794565b92505060206108eb8582860161085d565b9150509250929050565b60008060006060848603121561090e5761090d610e5f565b5b600084015167ffffffffffffffff81111561092c5761092b610e5a565b5b610938868287016107a9565b935050602084015167ffffffffffffffff81111561095957610958610e5a565b5b610965868287016107d7565b925050604084015167ffffffffffffffff81111561098657610985610e5a565b5b61099286828701610805565b9150509250925092565b6000602082840312156109b2576109b1610e5f565b5b60006109c084828501610833565b91505092915050565b6000806000606084860312156109e2576109e1610e5f565b5b60006109f086828701610833565b9350506020610a018682870161077f565b9250506040610a1286828701610848565b9150509250925092565b610a2581610c9f565b82525050565b610a3481610cb1565b82525050565b610a4381610cbb565b82525050565b6000610a5482610c78565b610a5e8185610c83565b9350610a6e818560208601610d11565b80840191505092915050565b6000610a87601b83610c8e565b9150610a9282610e75565b602082019050919050565b6000610aaa601a83610c8e565b9150610ab582610e9e565b602082019050919050565b6000610acd601083610c8e565b9150610ad882610ec7565b602082019050919050565b6000610aef8284610a49565b915081905092915050565b6000604082019050610b0f6000830185610a1c565b610b1c6020830184610a3a565b9392505050565b6000602082019050610b386000830184610a2b565b92915050565b60006020820190508181036000830152610b5781610a7a565b9050919050565b60006020820190508181036000830152610b7781610a9d565b9050919050565b60006020820190508181036000830152610b9781610ac0565b9050919050565b6000610ba8610bb9565b9050610bb48282610d44565b919050565b6000604051905090565b600067ffffffffffffffff821115610bde57610bdd610e1c565b5b602082029050602081019050919050565b600067ffffffffffffffff821115610c0a57610c09610e1c565b5b602082029050602081019050919050565b600067ffffffffffffffff821115610c3657610c35610e1c565b5b602082029050602081019050919050565b600067ffffffffffffffff821115610c6257610c61610e1c565b5b610c6b82610e64565b9050602081019050919050565b600081519050919050565b600081905092915050565b600082825260208201905092915050565b6000610caa82610ce7565b9050919050565b6000819050919050565b60007fffffffff0000000000000000000000000000000000000000000000000000000082169050919050565b600073ffffffffffffffffffffffffffffffffffffffff82169050919050565b6000819050919050565b60005b83811015610d2f578082015181840152602081019050610d14565b83811115610d3e576000848401525b50505050565b610d4d82610e64565b810181811067ffffffffffffffff82111715610d6c57610d6b610e1c565b5b80604052505050565b6000610d8082610d07565b91507fffffffffffffffffffffffffffffffffffffffffffffffffffffffffffffffff821415610db357610db2610dbe565b5b600182019050919050565b7f4e487b7100000000000000000000000000000000000000000000000000000000600052601160045260246000fd5b7f4e487b7100000000000000000000000000000000000000000000000000000000600052603260045260246000fd5b7f4e487b7100000000000000000000000000000000000000000000000000000000600052604160045260246000fd5b600080fd5b600080fd5b600080fd5b600080fd5b600080fd5b6000601f19601f8301169050919050565b7f436f72653a207573652075706461746520746f207265706c6163650000000000600082015250565b7f436f72653a204f6e6c7920657865732063616e206d6f64696679000000000000600082015250565b7f436f72653a20457865206661696c656400000000000000000000000000000000600082015250565b610ef981610c9f565b8114610f0457600080fd5b50565b610f1081610cb1565b8114610f1b57600080fd5b50565b610f2781610cbb565b8114610f3257600080fd5b50565b610f3e81610d07565b8114610f4957600080fd5b5056fea2646970667358221220d713318e11fb3db3bbd7182473ede903e2227d22c6e29adfae8e2bc873d56e3b64736f6c63430008070033",
  "linkReferences": {},
  "deployedLinkReferences": {}
}