{
  "_format": "hh-sol-artifact-1",
  "contractName": "Token721",
  "sourceName": "contracts/test/Token721.sol",
  "abi": [
    {
      "inputs": [
        {
          "internalType": "string",
          "name": "_name",
          "type": "string"
        },
        {
          "internalType": "string",
          "name": "_symbol",
          "type": "string"
        }
      ],
      "stateMutability": "nonpayable",
      "type": "constructor"
    },
    {
      "anonymous": false,
      "inputs": [
        {
          "indexed": true,
          "internalType": "address",
          "name": "owner",
          "type": "address"
        },
        {
          "indexed": true,
          "internalType": "address",
          "name": "approved",
          "type": "address"
        },
        {
          "indexed": true,
          "internalType": "uint256",
          "name": "tokenId",
          "type": "uint256"
        }
      ],
      "name": "Approval",
      "type": "event"
    },
    {
      "anonymous": false,
      "inputs": [
        {
          "indexed": true,
          "internalType": "address",
          "name": "owner",
          "type": "address"
        },
        {
          "indexed": true,
          "internalType": "address",
          "name": "operator",
          "type": "address"
        },
        {
          "indexed": false,
          "internalType": "bool",
          "name": "approved",
          "type": "bool"
        }
      ],
      "name": "ApprovalForAll",
      "type": "event"
    },
    {
      "anonymous": false,
      "inputs": [
        {
          "indexed": true,
          "internalType": "address",
          "name": "from",
          "type": "address"
        },
        {
          "indexed": true,
          "internalType": "address",
          "name": "to",
          "type": "address"
        },
        {
          "indexed": true,
          "internalType": "uint256",
          "name": "tokenId",
          "type": "uint256"
        }
      ],
      "name": "Transfer",
      "type": "event"
    },
    {
      "inputs": [
        {
          "internalType": "address",
          "name": "to",
          "type": "address"
        },
        {
          "internalType": "uint256",
          "name": "tokenId",
          "type": "uint256"
        }
      ],
      "name": "approve",
      "outputs": [],
      "stateMutability": "nonpayable",
      "type": "function"
    },
    {
      "inputs": [
        {
          "internalType": "address",
          "name": "owner",
          "type": "address"
        }
      ],
      "name": "balanceOf",
      "outputs": [
        {
          "internalType": "uint256",
          "name": "",
          "type": "uint256"
        }
      ],
      "stateMutability": "view",
      "type": "function"
    },
    {
      "inputs": [
        {
          "internalType": "uint256",
          "name": "_tokenId",
          "type": "uint256"
        }
      ],
      "name": "burn",
      "outputs": [],
      "stateMutability": "nonpayable",
      "type": "function"
    },
    {
      "inputs": [
        {
          "internalType": "uint256",
          "name": "tokenId",
          "type": "uint256"
        }
      ],
      "name": "getApproved",
      "outputs": [
        {
          "internalType": "address",
          "name": "",
          "type": "address"
        }
      ],
      "stateMutability": "view",
      "type": "function"
    },
    {
      "inputs": [
        {
          "internalType": "address",
          "name": "owner",
          "type": "address"
        },
        {
          "internalType": "address",
          "name": "operator",
          "type": "address"
        }
      ],
      "name": "isApprovedForAll",
      "outputs": [
        {
          "internalType": "bool",
          "name": "",
          "type": "bool"
        }
      ],
      "stateMutability": "view",
      "type": "function"
    },
    {
      "inputs": [
        {
          "internalType": "address",
          "name": "_to",
          "type": "address"
        }
      ],
      "name": "mint",
      "outputs": [],
      "stateMutability": "nonpayable",
      "type": "function"
    },
    {
      "inputs": [],
      "name": "name",
      "outputs": [
        {
          "internalType": "string",
          "name": "",
          "type": "string"
        }
      ],
      "stateMutability": "view",
      "type": "function"
    },
    {
      "inputs": [
        {
          "internalType": "uint256",
          "name": "tokenId",
          "type": "uint256"
        }
      ],
      "name": "ownerOf",
      "outputs": [
        {
          "internalType": "address",
          "name": "",
          "type": "address"
        }
      ],
      "stateMutability": "view",
      "type": "function"
    },
    {
      "inputs": [
        {
          "internalType": "address",
          "name": "from",
          "type": "address"
        },
        {
          "internalType": "address",
          "name": "to",
          "type": "address"
        },
        {
          "internalType": "uint256",
          "name": "tokenId",
          "type": "uint256"
        }
      ],
      "name": "safeTransferFrom",
      "outputs": [],
      "stateMutability": "nonpayable",
      "type": "function"
    },
    {
      "inputs": [
        {
          "internalType": "address",
          "name": "from",
          "type": "address"
        },
        {
          "internalType": "address",
          "name": "to",
          "type": "address"
        },
        {
          "internalType": "uint256",
          "name": "tokenId",
          "type": "uint256"
        },
        {
          "internalType": "bytes",
          "name": "_data",
          "type": "bytes"
        }
      ],
      "name": "safeTransferFrom",
      "outputs": [],
      "stateMutability": "nonpayable",
      "type": "function"
    },
    {
      "inputs": [
        {
          "internalType": "address",
          "name": "operator",
          "type": "address"
        },
        {
          "internalType": "bool",
          "name": "approved",
          "type": "bool"
        }
      ],
      "name": "setApprovalForAll",
      "outputs": [],
      "stateMutability": "nonpayable",
      "type": "function"
    },
    {
      "inputs": [
        {
          "internalType": "bytes4",
          "name": "interfaceId",
          "type": "bytes4"
        }
      ],
      "name": "supportsInterface",
      "outputs": [
        {
          "internalType": "bool",
          "name": "",
          "type": "bool"
        }
      ],
      "stateMutability": "view",
      "type": "function"
    },
    {
      "inputs": [],
      "name": "symbol",
      "outputs": [
        {
          "internalType": "string",
          "name": "",
          "type": "string"
        }
      ],
      "stateMutability": "view",
      "type": "function"
    },
    {
      "inputs": [
        {
          "internalType": "uint256",
          "name": "tokenId",
          "type": "uint256"
        }
      ],
      "name": "tokenURI",
      "outputs": [
        {
          "internalType": "string",
          "name": "",
          "type": "string"
        }
      ],
      "stateMutability": "view",
      "type": "function"
    },
    {
      "inputs": [
        {
          "internalType": "address",
          "name": "from",
          "type": "address"
        },
        {
          "internalType": "address",
          "name": "to",
          "type": "address"
        },
        {
          "internalType": "uint256",
          "name": "tokenId",
          "type": "uint256"
        }
      ],
      "name": "transferFrom",
      "outputs": [],
      "stateMutability": "nonpayable",
      "type": "function"
    }
  ],
  "bytecode": "0x60806040523480156200001157600080fd5b5060405162002bd238038062002bd28339818101604052810190620000379190620001a3565b818181600090805190602001906200005192919062000075565b5080600190805190602001906200006a92919062000075565b5050505050620003ac565b8280546200008390620002bd565b90600052602060002090601f016020900481019282620000a75760008555620000f3565b82601f10620000c257805160ff1916838001178555620000f3565b82800160010185558215620000f3579182015b82811115620000f2578251825591602001919060010190620000d5565b5b50905062000102919062000106565b5090565b5b808211156200012157600081600090555060010162000107565b5090565b60006200013c620001368462000251565b62000228565b9050828152602081018484840111156200015b576200015a6200038c565b5b6200016884828562000287565b509392505050565b600082601f83011262000188576200018762000387565b5b81516200019a84826020860162000125565b91505092915050565b60008060408385031215620001bd57620001bc62000396565b5b600083015167ffffffffffffffff811115620001de57620001dd62000391565b5b620001ec8582860162000170565b925050602083015167ffffffffffffffff81111562000210576200020f62000391565b5b6200021e8582860162000170565b9150509250929050565b60006200023462000247565b9050620002428282620002f3565b919050565b6000604051905090565b600067ffffffffffffffff8211156200026f576200026e62000358565b5b6200027a826200039b565b9050602081019050919050565b60005b83811015620002a75780820151818401526020810190506200028a565b83811115620002b7576000848401525b50505050565b60006002820490506001821680620002d657607f821691505b60208210811415620002ed57620002ec62000329565b5b50919050565b620002fe826200039b565b810181811067ffffffffffffffff8211171562000320576200031f62000358565b5b80604052505050565b7f4e487b7100000000000000000000000000000000000000000000000000000000600052602260045260246000fd5b7f4e487b7100000000000000000000000000000000000000000000000000000000600052604160045260246000fd5b600080fd5b600080fd5b600080fd5b600080fd5b6000601f19601f8301169050919050565b61281680620003bc6000396000f3fe608060405234801561001057600080fd5b50600436106100f55760003560e01c80636352211e11610097578063a22cb46511610066578063a22cb46514610282578063b88d4fde1461029e578063c87b56dd146102ba578063e985e9c5146102ea576100f5565b80636352211e146101e85780636a6278421461021857806370a082311461023457806395d89b4114610264576100f5565b8063095ea7b3116100d3578063095ea7b31461017857806323b872dd1461019457806342842e0e146101b057806342966c68146101cc576100f5565b806301ffc9a7146100fa57806306fdde031461012a578063081812fc14610148575b600080fd5b610114600480360381019061010f91906119c9565b61031a565b6040516101219190611d95565b60405180910390f35b6101326103fc565b60405161013f9190611db0565b60405180910390f35b610162600480360381019061015d9190611a23565b61048e565b60405161016f9190611d2e565b60405180910390f35b610192600480360381019061018d9190611989565b610513565b005b6101ae60048036038101906101a99190611873565b61062b565b005b6101ca60048036038101906101c59190611873565b61068b565b005b6101e660048036038101906101e19190611a23565b6106ab565b005b61020260048036038101906101fd9190611a23565b6106b7565b60405161020f9190611d2e565b60405180910390f35b610232600480360381019061022d9190611806565b610769565b005b61024e60048036038101906102499190611806565b610792565b60405161025b9190611f92565b60405180910390f35b61026c61084a565b6040516102799190611db0565b60405180910390f35b61029c60048036038101906102979190611949565b6108dc565b005b6102b860048036038101906102b391906118c6565b610a5d565b005b6102d460048036038101906102cf9190611a23565b610abf565b6040516102e19190611db0565b60405180910390f35b61030460048036038101906102ff9190611833565b610b66565b6040516103119190611d95565b60405180910390f35b60007f80ac58cd000000000000000000000000000000000000000000000000000000007bffffffffffffffffffffffffffffffffffffffffffffffffffffffff1916827bffffffffffffffffffffffffffffffffffffffffffffffffffffffff191614806103e557507f5b5e139f000000000000000000000000000000000000000000000000000000007bffffffffffffffffffffffffffffffffffffffffffffffffffffffff1916827bffffffffffffffffffffffffffffffffffffffffffffffffffffffff1916145b806103f557506103f482610bfa565b5b9050919050565b60606000805461040b906121b7565b80601f0160208091040260200160405190810160405280929190818152602001828054610437906121b7565b80156104845780601f1061045957610100808354040283529160200191610484565b820191906000526020600020905b81548152906001019060200180831161046757829003601f168201915b5050505050905090565b600061049982610c64565b6104d8576040517f08c379a00000000000000000000000000000000000000000000000000000000081526004016104cf90611ef2565b60405180910390fd5b6004600083815260200190815260200160002060009054906101000a900473ffffffffffffffffffffffffffffffffffffffff169050919050565b600061051e826106b7565b90508073ffffffffffffffffffffffffffffffffffffffff168373ffffffffffffffffffffffffffffffffffffffff16141561058f576040517f08c379a000000000000000000000000000000000000000000000000000000000815260040161058690611f52565b60405180910390fd5b8073ffffffffffffffffffffffffffffffffffffffff166105ae610cd0565b73ffffffffffffffffffffffffffffffffffffffff1614806105dd57506105dc816105d7610cd0565b610b66565b5b61061c576040517f08c379a000000000000000000000000000000000000000000000000000000000815260040161061390611e72565b60405180910390fd5b6106268383610cd8565b505050565b61063c610636610cd0565b82610d91565b61067b576040517f08c379a000000000000000000000000000000000000000000000000000000000815260040161067290611f72565b60405180910390fd5b610686838383610e6f565b505050565b6106a683838360405180602001604052806000815250610a5d565b505050565b6106b4816110cb565b50565b6000806002600084815260200190815260200160002060009054906101000a900473ffffffffffffffffffffffffffffffffffffffff169050600073ffffffffffffffffffffffffffffffffffffffff168173ffffffffffffffffffffffffffffffffffffffff161415610760576040517f08c379a000000000000000000000000000000000000000000000000000000000815260040161075790611eb2565b60405180910390fd5b80915050919050565b60016006600082825461077c9190612046565b9250508190555061078f816006546111dc565b50565b60008073ffffffffffffffffffffffffffffffffffffffff168273ffffffffffffffffffffffffffffffffffffffff161415610803576040517f08c379a00000000000000000000000000000000000000000000000000000000081526004016107fa90611e92565b60405180910390fd5b600360008373ffffffffffffffffffffffffffffffffffffffff1673ffffffffffffffffffffffffffffffffffffffff168152602001908152602001600020549050919050565b606060018054610859906121b7565b80601f0160208091040260200160405190810160405280929190818152602001828054610885906121b7565b80156108d25780601f106108a7576101008083540402835291602001916108d2565b820191906000526020600020905b8154815290600101906020018083116108b557829003601f168201915b5050505050905090565b6108e4610cd0565b73ffffffffffffffffffffffffffffffffffffffff168273ffffffffffffffffffffffffffffffffffffffff161415610952576040517f08c379a000000000000000000000000000000000000000000000000000000000815260040161094990611e32565b60405180910390fd5b806005600061095f610cd0565b73ffffffffffffffffffffffffffffffffffffffff1673ffffffffffffffffffffffffffffffffffffffff16815260200190815260200160002060008473ffffffffffffffffffffffffffffffffffffffff1673ffffffffffffffffffffffffffffffffffffffff16815260200190815260200160002060006101000a81548160ff0219169083151502179055508173ffffffffffffffffffffffffffffffffffffffff16610a0c610cd0565b73ffffffffffffffffffffffffffffffffffffffff167f17307eab39ab6107e8899845ad3d59bd9653f200f220920489ca2b5937696c3183604051610a519190611d95565b60405180910390a35050565b610a6e610a68610cd0565b83610d91565b610aad576040517f08c379a0000000000000000000000000000000000000000000000000000000008152600401610aa490611f72565b60405180910390fd5b610ab9848484846113aa565b50505050565b6060610aca82610c64565b610b09576040517f08c379a0000000000000000000000000000000000000000000000000000000008152600401610b0090611f32565b60405180910390fd5b6000610b13611406565b90506000815111610b335760405180602001604052806000815250610b5e565b80610b3d8461141d565b604051602001610b4e929190611d0a565b6040516020818303038152906040525b915050919050565b6000600560008473ffffffffffffffffffffffffffffffffffffffff1673ffffffffffffffffffffffffffffffffffffffff16815260200190815260200160002060008373ffffffffffffffffffffffffffffffffffffffff1673ffffffffffffffffffffffffffffffffffffffff16815260200190815260200160002060009054906101000a900460ff16905092915050565b60007f01ffc9a7000000000000000000000000000000000000000000000000000000007bffffffffffffffffffffffffffffffffffffffffffffffffffffffff1916827bffffffffffffffffffffffffffffffffffffffffffffffffffffffff1916149050919050565b60008073ffffffffffffffffffffffffffffffffffffffff166002600084815260200190815260200160002060009054906101000a900473ffffffffffffffffffffffffffffffffffffffff1673ffffffffffffffffffffffffffffffffffffffff1614159050919050565b600033905090565b816004600083815260200190815260200160002060006101000a81548173ffffffffffffffffffffffffffffffffffffffff021916908373ffffffffffffffffffffffffffffffffffffffff160217905550808273ffffffffffffffffffffffffffffffffffffffff16610d4b836106b7565b73ffffffffffffffffffffffffffffffffffffffff167f8c5be1e5ebec7d5bd14f71427d1e84f3dd0314c0f7b2291e5b200ac8c7c3b92560405160405180910390a45050565b6000610d9c82610c64565b610ddb576040517f08c379a0000000000000000000000000000000000000000000000000000000008152600401610dd290611e52565b60405180910390fd5b6000610de6836106b7565b90508073ffffffffffffffffffffffffffffffffffffffff168473ffffffffffffffffffffffffffffffffffffffff161480610e5557508373ffffffffffffffffffffffffffffffffffffffff16610e3d8461048e565b73ffffffffffffffffffffffffffffffffffffffff16145b80610e665750610e658185610b66565b5b91505092915050565b8273ffffffffffffffffffffffffffffffffffffffff16610e8f826106b7565b73ffffffffffffffffffffffffffffffffffffffff1614610ee5576040517f08c379a0000000000000000000000000000000000000000000000000000000008152600401610edc90611f12565b60405180910390fd5b600073ffffffffffffffffffffffffffffffffffffffff168273ffffffffffffffffffffffffffffffffffffffff161415610f55576040517f08c379a0000000000000000000000000000000000000000000000000000000008152600401610f4c90611e12565b60405180910390fd5b610f6083838361157e565b610f6b600082610cd8565b6001600360008573ffffffffffffffffffffffffffffffffffffffff1673ffffffffffffffffffffffffffffffffffffffff1681526020019081526020016000206000828254610fbb91906120cd565b925050819055506001600360008473ffffffffffffffffffffffffffffffffffffffff1673ffffffffffffffffffffffffffffffffffffffff16815260200190815260200160002060008282546110129190612046565b92505081905550816002600083815260200190815260200160002060006101000a81548173ffffffffffffffffffffffffffffffffffffffff021916908373ffffffffffffffffffffffffffffffffffffffff160217905550808273ffffffffffffffffffffffffffffffffffffffff168473ffffffffffffffffffffffffffffffffffffffff167fddf252ad1be2c89b69c2b068fc378daa952ba7f163c4a11628f55a4df523b3ef60405160405180910390a4505050565b60006110d6826106b7565b90506110e48160008461157e565b6110ef600083610cd8565b6001600360008373ffffffffffffffffffffffffffffffffffffffff1673ffffffffffffffffffffffffffffffffffffffff168152602001908152602001600020600082825461113f91906120cd565b925050819055506002600083815260200190815260200160002060006101000a81549073ffffffffffffffffffffffffffffffffffffffff021916905581600073ffffffffffffffffffffffffffffffffffffffff168273ffffffffffffffffffffffffffffffffffffffff167fddf252ad1be2c89b69c2b068fc378daa952ba7f163c4a11628f55a4df523b3ef60405160405180910390a45050565b600073ffffffffffffffffffffffffffffffffffffffff168273ffffffffffffffffffffffffffffffffffffffff16141561124c576040517f08c379a000000000000000000000000000000000000000000000000000000000815260040161124390611ed2565b60405180910390fd5b61125581610c64565b15611295576040517f08c379a000000000000000000000000000000000000000000000000000000000815260040161128c90611df2565b60405180910390fd5b6112a16000838361157e565b6001600360008473ffffffffffffffffffffffffffffffffffffffff1673ffffffffffffffffffffffffffffffffffffffff16815260200190815260200160002060008282546112f19190612046565b92505081905550816002600083815260200190815260200160002060006101000a81548173ffffffffffffffffffffffffffffffffffffffff021916908373ffffffffffffffffffffffffffffffffffffffff160217905550808273ffffffffffffffffffffffffffffffffffffffff16600073ffffffffffffffffffffffffffffffffffffffff167fddf252ad1be2c89b69c2b068fc378daa952ba7f163c4a11628f55a4df523b3ef60405160405180910390a45050565b6113b5848484610e6f565b6113c184848484611583565b611400576040517f08c379a00000000000000000000000000000000000000000000000000000000081526004016113f790611dd2565b60405180910390fd5b50505050565b606060405180602001604052806000815250905090565b60606000821415611465576040518060400160405280600181526020017f30000000000000000000000000000000000000000000000000000000000000008152509050611579565b600082905060005b600082146114975780806114809061221a565b915050600a82611490919061209c565b915061146d565b60008167ffffffffffffffff8111156114b3576114b2612350565b5b6040519080825280601f01601f1916602001820160405280156114e55781602001600182028036833780820191505090505b5090505b60008514611572576001826114fe91906120cd565b9150600a8561150d9190612263565b60306115199190612046565b60f81b81838151811061152f5761152e612321565b5b60200101907effffffffffffffffffffffffffffffffffffffffffffffffffffffffffffff1916908160001a905350600a8561156b919061209c565b94506114e9565b8093505050505b919050565b505050565b60006115a48473ffffffffffffffffffffffffffffffffffffffff1661171a565b1561170d578373ffffffffffffffffffffffffffffffffffffffff1663150b7a026115cd610cd0565b8786866040518563ffffffff1660e01b81526004016115ef9493929190611d49565b602060405180830381600087803b15801561160957600080fd5b505af192505050801561163a57506040513d601f19601f8201168201806040525081019061163791906119f6565b60015b6116bd573d806000811461166a576040519150601f19603f3d011682016040523d82523d6000602084013e61166f565b606091505b506000815114156116b5576040517f08c379a00000000000000000000000000000000000000000000000000000000081526004016116ac90611dd2565b60405180910390fd5b805181602001fd5b63150b7a0260e01b7bffffffffffffffffffffffffffffffffffffffffffffffffffffffff1916817bffffffffffffffffffffffffffffffffffffffffffffffffffffffff191614915050611712565b600190505b949350505050565b600080823b905060008111915050919050565b600061174061173b84611fd2565b611fad565b90508281526020810184848401111561175c5761175b612384565b5b611767848285612175565b509392505050565b60008135905061177e81612784565b92915050565b6000813590506117938161279b565b92915050565b6000813590506117a8816127b2565b92915050565b6000815190506117bd816127b2565b92915050565b600082601f8301126117d8576117d761237f565b5b81356117e884826020860161172d565b91505092915050565b600081359050611800816127c9565b92915050565b60006020828403121561181c5761181b61238e565b5b600061182a8482850161176f565b91505092915050565b6000806040838503121561184a5761184961238e565b5b60006118588582860161176f565b92505060206118698582860161176f565b9150509250929050565b60008060006060848603121561188c5761188b61238e565b5b600061189a8682870161176f565b93505060206118ab8682870161176f565b92505060406118bc868287016117f1565b9150509250925092565b600080600080608085870312156118e0576118df61238e565b5b60006118ee8782880161176f565b94505060206118ff8782880161176f565b9350506040611910878288016117f1565b925050606085013567ffffffffffffffff81111561193157611930612389565b5b61193d878288016117c3565b91505092959194509250565b600080604083850312156119605761195f61238e565b5b600061196e8582860161176f565b925050602061197f85828601611784565b9150509250929050565b600080604083850312156119a05761199f61238e565b5b60006119ae8582860161176f565b92505060206119bf858286016117f1565b9150509250929050565b6000602082840312156119df576119de61238e565b5b60006119ed84828501611799565b91505092915050565b600060208284031215611a0c57611a0b61238e565b5b6000611a1a848285016117ae565b91505092915050565b600060208284031215611a3957611a3861238e565b5b6000611a47848285016117f1565b91505092915050565b611a5981612101565b82525050565b611a6881612113565b82525050565b6000611a7982612003565b611a838185612019565b9350611a93818560208601612184565b611a9c81612393565b840191505092915050565b6000611ab28261200e565b611abc818561202a565b9350611acc818560208601612184565b611ad581612393565b840191505092915050565b6000611aeb8261200e565b611af5818561203b565b9350611b05818560208601612184565b80840191505092915050565b6000611b1e60328361202a565b9150611b29826123a4565b604082019050919050565b6000611b41601c8361202a565b9150611b4c826123f3565b602082019050919050565b6000611b6460248361202a565b9150611b6f8261241c565b604082019050919050565b6000611b8760198361202a565b9150611b928261246b565b602082019050919050565b6000611baa602c8361202a565b9150611bb582612494565b604082019050919050565b6000611bcd60388361202a565b9150611bd8826124e3565b604082019050919050565b6000611bf0602a8361202a565b9150611bfb82612532565b604082019050919050565b6000611c1360298361202a565b9150611c1e82612581565b604082019050919050565b6000611c3660208361202a565b9150611c41826125d0565b602082019050919050565b6000611c59602c8361202a565b9150611c64826125f9565b604082019050919050565b6000611c7c60298361202a565b9150611c8782612648565b604082019050919050565b6000611c9f602f8361202a565b9150611caa82612697565b604082019050919050565b6000611cc260218361202a565b9150611ccd826126e6565b604082019050919050565b6000611ce560318361202a565b9150611cf082612735565b604082019050919050565b611d048161216b565b82525050565b6000611d168285611ae0565b9150611d228284611ae0565b91508190509392505050565b6000602082019050611d436000830184611a50565b92915050565b6000608082019050611d5e6000830187611a50565b611d6b6020830186611a50565b611d786040830185611cfb565b8181036060830152611d8a8184611a6e565b905095945050505050565b6000602082019050611daa6000830184611a5f565b92915050565b60006020820190508181036000830152611dca8184611aa7565b905092915050565b60006020820190508181036000830152611deb81611b11565b9050919050565b60006020820190508181036000830152611e0b81611b34565b9050919050565b60006020820190508181036000830152611e2b81611b57565b9050919050565b60006020820190508181036000830152611e4b81611b7a565b9050919050565b60006020820190508181036000830152611e6b81611b9d565b9050919050565b60006020820190508181036000830152611e8b81611bc0565b9050919050565b60006020820190508181036000830152611eab81611be3565b9050919050565b60006020820190508181036000830152611ecb81611c06565b9050919050565b60006020820190508181036000830152611eeb81611c29565b9050919050565b60006020820190508181036000830152611f0b81611c4c565b9050919050565b60006020820190508181036000830152611f2b81611c6f565b9050919050565b60006020820190508181036000830152611f4b81611c92565b9050919050565b60006020820190508181036000830152611f6b81611cb5565b9050919050565b60006020820190508181036000830152611f8b81611cd8565b9050919050565b6000602082019050611fa76000830184611cfb565b92915050565b6000611fb7611fc8565b9050611fc382826121e9565b919050565b6000604051905090565b600067ffffffffffffffff821115611fed57611fec612350565b5b611ff682612393565b9050602081019050919050565b600081519050919050565b600081519050919050565b600082825260208201905092915050565b600082825260208201905092915050565b600081905092915050565b60006120518261216b565b915061205c8361216b565b9250827fffffffffffffffffffffffffffffffffffffffffffffffffffffffffffffffff0382111561209157612090612294565b5b828201905092915050565b60006120a78261216b565b91506120b28361216b565b9250826120c2576120c16122c3565b5b828204905092915050565b60006120d88261216b565b91506120e38361216b565b9250828210156120f6576120f5612294565b5b828203905092915050565b600061210c8261214b565b9050919050565b60008115159050919050565b60007fffffffff0000000000000000000000000000000000000000000000000000000082169050919050565b600073ffffffffffffffffffffffffffffffffffffffff82169050919050565b6000819050919050565b82818337600083830152505050565b60005b838110156121a2578082015181840152602081019050612187565b838111156121b1576000848401525b50505050565b600060028204905060018216806121cf57607f821691505b602082108114156121e3576121e26122f2565b5b50919050565b6121f282612393565b810181811067ffffffffffffffff8211171561221157612210612350565b5b80604052505050565b60006122258261216b565b91507fffffffffffffffffffffffffffffffffffffffffffffffffffffffffffffffff82141561225857612257612294565b5b600182019050919050565b600061226e8261216b565b91506122798361216b565b925082612289576122886122c3565b5b828206905092915050565b7f4e487b7100000000000000000000000000000000000000000000000000000000600052601160045260246000fd5b7f4e487b7100000000000000000000000000000000000000000000000000000000600052601260045260246000fd5b7f4e487b7100000000000000000000000000000000000000000000000000000000600052602260045260246000fd5b7f4e487b7100000000000000000000000000000000000000000000000000000000600052603260045260246000fd5b7f4e487b7100000000000000000000000000000000000000000000000000000000600052604160045260246000fd5b600080fd5b600080fd5b600080fd5b600080fd5b6000601f19601f8301169050919050565b7f4552433732313a207472616e7366657220746f206e6f6e20455243373231526560008201527f63656976657220696d706c656d656e7465720000000000000000000000000000602082015250565b7f4552433732313a20746f6b656e20616c7265616479206d696e74656400000000600082015250565b7f4552433732313a207472616e7366657220746f20746865207a65726f2061646460008201527f7265737300000000000000000000000000000000000000000000000000000000602082015250565b7f4552433732313a20617070726f766520746f2063616c6c657200000000000000600082015250565b7f4552433732313a206f70657261746f7220717565727920666f72206e6f6e657860008201527f697374656e7420746f6b656e0000000000000000000000000000000000000000602082015250565b7f4552433732313a20617070726f76652063616c6c6572206973206e6f74206f7760008201527f6e6572206e6f7220617070726f76656420666f7220616c6c0000000000000000602082015250565b7f4552433732313a2062616c616e636520717565727920666f7220746865207a6560008201527f726f206164647265737300000000000000000000000000000000000000000000602082015250565b7f4552433732313a206f776e657220717565727920666f72206e6f6e657869737460008201527f656e7420746f6b656e0000000000000000000000000000000000000000000000602082015250565b7f4552433732313a206d696e7420746f20746865207a65726f2061646472657373600082015250565b7f4552433732313a20617070726f76656420717565727920666f72206e6f6e657860008201527f697374656e7420746f6b656e0000000000000000000000000000000000000000602082015250565b7f4552433732313a207472616e73666572206f6620746f6b656e2074686174206960008201527f73206e6f74206f776e0000000000000000000000000000000000000000000000602082015250565b7f4552433732314d657461646174613a2055524920717565727920666f72206e6f60008201527f6e6578697374656e7420746f6b656e0000000000000000000000000000000000602082015250565b7f4552433732313a20617070726f76616c20746f2063757272656e74206f776e6560008201527f7200000000000000000000000000000000000000000000000000000000000000602082015250565b7f4552433732313a207472616e736665722063616c6c6572206973206e6f74206f60008201527f776e6572206e6f7220617070726f766564000000000000000000000000000000602082015250565b61278d81612101565b811461279857600080fd5b50565b6127a481612113565b81146127af57600080fd5b50565b6127bb8161211f565b81146127c657600080fd5b50565b6127d28161216b565b81146127dd57600080fd5b5056fea26469706673582212203430d0ec26ce89b98bed17735381e62977edfef6e0e53d47e161ccc37219c30a64736f6c63430008070033",
  "linkReferences": {},
  "deployedLinkReferences": {}
}