{
	"data": {
		"bytecode": {
			"linkReferences": {},
			"object": "60c06040523480156200001157600080fd5b5060405162001c5338038062001c5383398181016040528101906200003791906200013f565b7f346b2ab3a980432fd8f2e24828fc9f9ee2df1548701bc542f6ec17882b32762782828033600060026101000a81548173ffffffffffffffffffffffffffffffffffffffff021916908373ffffffffffffffffffffffffffffffffffffffff16021790555080600160006101000a81548173ffffffffffffffffffffffffffffffffffffffff021916908373ffffffffffffffffffffffffffffffffffffffff1602179055505082608081815250508173ffffffffffffffffffffffffffffffffffffffff1660a08173ffffffffffffffffffffffffffffffffffffffff1660601b815250505050505050620001d9565b6000815190506200013981620001bf565b92915050565b60008060408385031215620001595762000158620001ba565b5b6000620001698582860162000128565b92505060206200017c8582860162000128565b9150509250929050565b600062000193826200019a565b9050919050565b600073ffffffffffffffffffffffffffffffffffffffff82169050919050565b600080fd5b620001ca8162000186565b8114620001d657600080fd5b50565b60805160a05160601c611a2e62000225600039600081816105ee015281816106bb01528181610a6f01528181610b1201528181610cfc0152610da0015260006104050152611a2e6000f3fe608060405234801561001057600080fd5b506004361061009e5760003560e01c80636e3ce913116100665780636e3ce91314610149578063b88b82ba14610165578063cbba4b7f14610181578063e343409a1461019d578063eaddd0fd146101ce5761009e565b80631c39c38d146100a357806322f8e566146100c157806329cb924d146100dd5780633c9747f3146100fb57806369e0a1f714610119575b600080fd5b6100ab6101ec565b6040516100b891906114ad565b60405180910390f35b6100db60048036038101906100d691906112c4565b610212565b005b6100e56102fe565b6040516100f29190611612565b60405180910390f35b610103610403565b60405161011091906114f1565b60405180910390f35b610133600480360381019061012e91906110f2565b610427565b60405161014091906114f1565b60405180910390f35b610163600480360381019061015e919061114c565b610473565b005b61017f600480360381019061017a919061131e565b6105ea565b005b61019b60048036038101906101969190611255565b610a6d565b005b6101b760048036038101906101b291906112c4565b610b0b565b6040516101c59291906114c8565b60405180910390f35b6101d6610cfa565b6040516101e39190611557565b60405180910390f35b600160009054906101000a900473ffffffffffffffffffffffffffffffffffffffff1681565b600073ffffffffffffffffffffffffffffffffffffffff16600160009054906101000a900473ffffffffffffffffffffffffffffffffffffffff1673ffffffffffffffffffffffffffffffffffffffff16141561026e57600080fd5b600160009054906101000a900473ffffffffffffffffffffffffffffffffffffffff1673ffffffffffffffffffffffffffffffffffffffff166322f8e566826040518263ffffffff1660e01b81526004016102c99190611612565b600060405180830381600087803b1580156102e357600080fd5b505af11580156102f7573d6000803e3d6000fd5b5050505050565b60008073ffffffffffffffffffffffffffffffffffffffff16600160009054906101000a900473ffffffffffffffffffffffffffffffffffffffff1673ffffffffffffffffffffffffffffffffffffffff16146103fc57600160009054906101000a900473ffffffffffffffffffffffffffffffffffffffff1673ffffffffffffffffffffffffffffffffffffffff166329cb924d6040518163ffffffff1660e01b815260040160206040518083038186803b1580156103bd57600080fd5b505afa1580156103d1573d6000803e3d6000fd5b505050506040513d601f19601f820116820180604052508101906103f591906112f1565b9050610400565b4290505b90565b7f000000000000000000000000000000000000000000000000000000000000000081565b6000600260008373ffffffffffffffffffffffffffffffffffffffff1673ffffffffffffffffffffffffffffffffffffffff168152602001908152602001600020600001549050919050565b600060019054906101000a900460ff1680610499575060008054906101000a900460ff16155b6104d8576040517f08c379a00000000000000000000000000000000000000000000000000000000081526004016104cf906115b2565b60405180910390fd5b600060029054906101000a900473ffffffffffffffffffffffffffffffffffffffff1673ffffffffffffffffffffffffffffffffffffffff163373ffffffffffffffffffffffffffffffffffffffff1614610568576040517f08c379a000000000000000000000000000000000000000000000000000000000815260040161055f90611572565b60405180910390fd5b60008060019054906101000a900460ff1615905080156105b8576001600060016101000a81548160ff02191690831515021790555060016000806101000a81548160ff0219169083151502179055505b6105c3838584610d1e565b80156105e45760008060016101000a81548160ff0219169083151502179055505b50505050565b60007f000000000000000000000000000000000000000000000000000000000000000073ffffffffffffffffffffffffffffffffffffffff1663624a23e07fd578563424ab02f85ec03c6b1aee04947ebdd4a30db46cba3bcd7f56ef40b1996040518263ffffffff1660e01b815260040161066591906114f1565b60206040518083038186803b15801561067d57600080fd5b505afa158015610691573d6000803e3d6000fd5b505050506040513d601f19601f820116820180604052508101906106b5919061111f565b905060007f000000000000000000000000000000000000000000000000000000000000000073ffffffffffffffffffffffffffffffffffffffff1663624a23e07f36209a57dfd79e3872ec3a0c88c653bbe7e32a12306e5e1f92f118c1936ae8b26040518263ffffffff1660e01b815260040161073291906114f1565b60206040518083038186803b15801561074a57600080fd5b505afa15801561075e573d6000803e3d6000fd5b505050506040513d601f19601f82011682018060405250810190610782919061111f565b905060008173ffffffffffffffffffffffffffffffffffffffff166262104a866040518263ffffffff1660e01b81526004016107be9190611612565b60206040518083038186803b1580156107d657600080fd5b505afa1580156107ea573d6000803e3d6000fd5b505050506040513d601f19601f8201168201806040525081019061080e919061111f565b90506000801b3073ffffffffffffffffffffffffffffffffffffffff166369e0a1f7836040518263ffffffff1660e01b815260040161084d91906114ad565b60206040518083038186803b15801561086557600080fd5b505afa158015610879573d6000803e3d6000fd5b505050506040513d601f19601f8201168201806040525081019061089d9190611228565b14156108de576040517f08c379a00000000000000000000000000000000000000000000000000000000081526004016108d5906115f2565b60405180910390fd5b8273ffffffffffffffffffffffffffffffffffffffff1663fd4a77f1866040518263ffffffff1660e01b81526004016109179190611612565b600060405180830381600087803b15801561093157600080fd5b505af1158015610945573d6000803e3d6000fd5b50505050843373ffffffffffffffffffffffffffffffffffffffff167f71a29581f391d0ca96684c69771724a921678b572e21378712be03e8da07e2ca866040516109909190611535565b60405180910390a38073ffffffffffffffffffffffffffffffffffffffff1663f636a0538686336040518463ffffffff1660e01b81526004016109d59392919061162d565b602060405180830381600087803b1580156109ef57600080fd5b505af1158015610a03573d6000803e3d6000fd5b505050506040513d601f19601f82011682018060405250810190610a2791906111bb565b610a66576040517f08c379a0000000000000000000000000000000000000000000000000000000008152600401610a5d906115d2565b60405180910390fd5b5050505050565b7f000000000000000000000000000000000000000000000000000000000000000073ffffffffffffffffffffffffffffffffffffffff163373ffffffffffffffffffffffffffffffffffffffff1614610afb576040517f08c379a0000000000000000000000000000000000000000000000000000000008152600401610af290611592565b60405180910390fd5b610b06838383610d1e565b505050565b60008060007f000000000000000000000000000000000000000000000000000000000000000073ffffffffffffffffffffffffffffffffffffffff1663624a23e07f36209a57dfd79e3872ec3a0c88c653bbe7e32a12306e5e1f92f118c1936ae8b26040518263ffffffff1660e01b8152600401610b8991906114f1565b60206040518083038186803b158015610ba157600080fd5b505afa158015610bb5573d6000803e3d6000fd5b505050506040513d601f19601f82011682018060405250810190610bd9919061111f565b905060008173ffffffffffffffffffffffffffffffffffffffff166262104a866040518263ffffffff1660e01b8152600401610c159190611612565b60206040518083038186803b158015610c2d57600080fd5b505afa158015610c41573d6000803e3d6000fd5b505050506040513d601f19601f82011682018060405250810190610c65919061111f565b90508073ffffffffffffffffffffffffffffffffffffffff1663e343409a866040518263ffffffff1660e01b8152600401610ca09190611612565b604080518083038186803b158015610cb757600080fd5b505afa158015610ccb573d6000803e3d6000fd5b505050506040513d601f19601f82011682018060405250810190610cef91906111e8565b935093505050915091565b7f000000000000000000000000000000000000000000000000000000000000000081565b604051806040016040528084815260200182815250600260008473ffffffffffffffffffffffffffffffffffffffff1673ffffffffffffffffffffffffffffffffffffffff168152602001908152602001600020600082015181600001556020820151816001019080519060200190610d98929190610edc565b5090505060007f000000000000000000000000000000000000000000000000000000000000000073ffffffffffffffffffffffffffffffffffffffff1663624a23e07fd578563424ab02f85ec03c6b1aee04947ebdd4a30db46cba3bcd7f56ef40b1996040518263ffffffff1660e01b8152600401610e1791906114f1565b60206040518083038186803b158015610e2f57600080fd5b505afa158015610e43573d6000803e3d6000fd5b505050506040513d601f19601f82011682018060405250810190610e67919061111f565b90508073ffffffffffffffffffffffffffffffffffffffff166338c6878285856040518363ffffffff1660e01b8152600401610ea492919061150c565b600060405180830381600087803b158015610ebe57600080fd5b505af1158015610ed2573d6000803e3d6000fd5b5050505050505050565b828054610ee8906117e9565b90600052602060002090601f016020900481019282610f0a5760008555610f51565b82601f10610f2357805160ff1916838001178555610f51565b82800160010185558215610f51579182015b82811115610f50578251825591602001919060010190610f35565b5b509050610f5e9190610f62565b5090565b5b80821115610f7b576000816000905550600101610f63565b5090565b6000610f92610f8d84611690565b61166b565b905082815260208101848484011115610fae57610fad6118af565b5b610fb98482856117a7565b509392505050565b6000610fd4610fcf846116c1565b61166b565b905082815260208101848484011115610ff057610fef6118af565b5b610ffb8482856117a7565b509392505050565b6000813590506110128161199c565b92915050565b6000815190506110278161199c565b92915050565b60008151905061103c816119b3565b92915050565b600081359050611051816119ca565b92915050565b600081519050611066816119ca565b92915050565b600082601f830112611081576110806118aa565b5b8135611091848260208601610f7f565b91505092915050565b600082601f8301126110af576110ae6118aa565b5b81356110bf848260208601610fc1565b91505092915050565b6000813590506110d7816119e1565b92915050565b6000815190506110ec816119e1565b92915050565b600060208284031215611108576111076118b9565b5b600061111684828501611003565b91505092915050565b600060208284031215611135576111346118b9565b5b600061114384828501611018565b91505092915050565b600080600060608486031215611165576111646118b9565b5b600061117386828701611003565b935050602061118486828701611042565b925050604084013567ffffffffffffffff8111156111a5576111a46118b4565b5b6111b18682870161109a565b9150509250925092565b6000602082840312156111d1576111d06118b9565b5b60006111df8482850161102d565b91505092915050565b600080604083850312156111ff576111fe6118b9565b5b600061120d8582860161102d565b925050602061121e8582860161102d565b9150509250929050565b60006020828403121561123e5761123d6118b9565b5b600061124c84828501611057565b91505092915050565b60008060006060848603121561126e5761126d6118b9565b5b600061127c86828701611042565b935050602061128d86828701611003565b925050604084013567ffffffffffffffff8111156112ae576112ad6118b4565b5b6112ba8682870161109a565b9150509250925092565b6000602082840312156112da576112d96118b9565b5b60006112e8848285016110c8565b91505092915050565b600060208284031215611307576113066118b9565b5b6000611315848285016110dd565b91505092915050565b60008060408385031215611335576113346118b9565b5b6000611343858286016110c8565b925050602083013567ffffffffffffffff811115611364576113636118b4565b5b6113708582860161106c565b9150509250929050565b6113838161171f565b82525050565b61139281611731565b82525050565b6113a18161173d565b82525050565b60006113b2826116f2565b6113bc81856116fd565b93506113cc8185602086016117b6565b6113d5816118be565b840191505092915050565b6113e981611771565b82525050565b60006113fc601c8361170e565b9150611407826118cf565b602082019050919050565b600061141f601c8361170e565b915061142a826118f8565b602082019050919050565b6000611442601d8361170e565b915061144d82611921565b602082019050919050565b600061146560128361170e565b91506114708261194a565b602082019050919050565b6000611488601d8361170e565b915061149382611973565b602082019050919050565b6114a781611767565b82525050565b60006020820190506114c2600083018461137a565b92915050565b60006040820190506114dd6000830185611389565b6114ea6020830184611389565b9392505050565b60006020820190506115066000830184611398565b92915050565b60006040820190506115216000830185611398565b61152e602083018461137a565b9392505050565b6000602082019050818103600083015261154f81846113a7565b905092915050565b600060208201905061156c60008301846113e0565b92915050565b6000602082019050818103600083015261158b816113ef565b9050919050565b600060208201905081810360008301526115ab81611412565b9050919050565b600060208201905081810360008301526115cb81611435565b9050919050565b600060208201905081810360008301526115eb81611458565b9050919050565b6000602082019050818103600083015261160b8161147b565b9050919050565b6000602082019050611627600083018461149e565b92915050565b6000606082019050611642600083018661149e565b818103602083015261165481856113a7565b9050611663604083018461137a565b949350505050565b6000611675611686565b9050611681828261181b565b919050565b6000604051905090565b600067ffffffffffffffff8211156116ab576116aa61187b565b5b6116b4826118be565b9050602081019050919050565b600067ffffffffffffffff8211156116dc576116db61187b565b5b6116e5826118be565b9050602081019050919050565b600081519050919050565b600082825260208201905092915050565b600082825260208201905092915050565b600061172a82611747565b9050919050565b60008115159050919050565b6000819050919050565b600073ffffffffffffffffffffffffffffffffffffffff82169050919050565b6000819050919050565b600061177c82611783565b9050919050565b600061178e82611795565b9050919050565b60006117a082611747565b9050919050565b82818337600083830152505050565b60005b838110156117d45780820151818401526020810190506117b9565b838111156117e3576000848401525b50505050565b6000600282049050600182168061180157607f821691505b602082108114156118155761181461184c565b5b50919050565b611824826118be565b810181811067ffffffffffffffff821117156118435761184261187b565b5b80604052505050565b7f4e487b7100000000000000000000000000000000000000000000000000000000600052602260045260246000fd5b7f4e487b7100000000000000000000000000000000000000000000000000000000600052604160045260246000fd5b600080fd5b600080fd5b600080fd5b600080fd5b6000601f19601f8301169050919050565b7f496e69743a204f6e6c79206465706c6f7965722063616e20696e697400000000600082015250565b7f53797374656d3a204f6e6c7920636f72652063616e206d6f6469667900000000600082015250565b7f496e69743a20436f6e747261637420697320696e697469616c697a6564000000600082015250565b7f426f6f74683a20566f7465206661696c65640000000000000000000000000000600082015250565b7f426f6f74683a20496e76616c696420766f746520747970652f70726f70000000600082015250565b6119a58161171f565b81146119b057600080fd5b50565b6119bc81611731565b81146119c757600080fd5b50565b6119d38161173d565b81146119de57600080fd5b50565b6119ea81611767565b81146119f557600080fd5b5056fea264697066735822122057f7af123d486bde98418322e23ecc15417beb0f789a6f642c82a227bdbcac6f64736f6c63430008070033",
			"opcodes": "PUSH1 0xC0 PUSH1 0x40 MSTORE CALLVALUE DUP1 ISZERO PUSH3 0x11 JUMPI PUSH1 0x0 DUP1 REVERT JUMPDEST POP PUSH1 0x40 MLOAD PUSH3 0x1C53 CODESIZE SUB DUP1 PUSH3 0x1C53 DUP4 CODECOPY DUP2 DUP2 ADD PUSH1 0x40 MSTORE DUP2 ADD SWAP1 PUSH3 0x37 SWAP2 SWAP1 PUSH3 0x13F JUMP JUMPDEST PUSH32 0x346B2AB3A980432FD8F2E24828FC9F9EE2DF1548701BC542F6EC17882B327627 DUP3 DUP3 DUP1 CALLER PUSH1 0x0 PUSH1 0x2 PUSH2 0x100 EXP DUP2 SLOAD DUP2 PUSH20 0xFFFFFFFFFFFFFFFFFFFFFFFFFFFFFFFFFFFFFFFF MUL NOT AND SWAP1 DUP4 PUSH20 0xFFFFFFFFFFFFFFFFFFFFFFFFFFFFFFFFFFFFFFFF AND MUL OR SWAP1 SSTORE POP DUP1 PUSH1 0x1 PUSH1 0x0 PUSH2 0x100 EXP DUP2 SLOAD DUP2 PUSH20 0xFFFFFFFFFFFFFFFFFFFFFFFFFFFFFFFFFFFFFFFF MUL NOT AND SWAP1 DUP4 PUSH20 0xFFFFFFFFFFFFFFFFFFFFFFFFFFFFFFFFFFFFFFFF AND MUL OR SWAP1 SSTORE POP POP DUP3 PUSH1 0x80 DUP2 DUP2 MSTORE POP POP DUP2 PUSH20 0xFFFFFFFFFFFFFFFFFFFFFFFFFFFFFFFFFFFFFFFF AND PUSH1 0xA0 DUP2 PUSH20 0xFFFFFFFFFFFFFFFFFFFFFFFFFFFFFFFFFFFFFFFF AND PUSH1 0x60 SHL DUP2 MSTORE POP POP POP POP POP POP POP PUSH3 0x1D9 JUMP JUMPDEST PUSH1 0x0 DUP2 MLOAD SWAP1 POP PUSH3 0x139 DUP2 PUSH3 0x1BF JUMP JUMPDEST SWAP3 SWAP2 POP POP JUMP JUMPDEST PUSH1 0x0 DUP1 PUSH1 0x40 DUP4 DUP6 SUB SLT ISZERO PUSH3 0x159 JUMPI PUSH3 0x158 PUSH3 0x1BA JUMP JUMPDEST JUMPDEST PUSH1 0x0 PUSH3 0x169 DUP6 DUP3 DUP7 ADD PUSH3 0x128 JUMP JUMPDEST SWAP3 POP POP PUSH1 0x20 PUSH3 0x17C DUP6 DUP3 DUP7 ADD PUSH3 0x128 JUMP JUMPDEST SWAP2 POP POP SWAP3 POP SWAP3 SWAP1 POP JUMP JUMPDEST PUSH1 0x0 PUSH3 0x193 DUP3 PUSH3 0x19A JUMP JUMPDEST SWAP1 POP SWAP2 SWAP1 POP JUMP JUMPDEST PUSH1 0x0 PUSH20 0xFFFFFFFFFFFFFFFFFFFFFFFFFFFFFFFFFFFFFFFF DUP3 AND SWAP1 POP SWAP2 SWAP1 POP JUMP JUMPDEST PUSH1 0x0 DUP1 REVERT JUMPDEST PUSH3 0x1CA DUP2 PUSH3 0x186 JUMP JUMPDEST DUP2 EQ PUSH3 0x1D6 JUMPI PUSH1 0x0 DUP1 REVERT JUMPDEST POP JUMP JUMPDEST PUSH1 0x80 MLOAD PUSH1 0xA0 MLOAD PUSH1 0x60 SHR PUSH2 0x1A2E PUSH3 0x225 PUSH1 0x0 CODECOPY PUSH1 0x0 DUP2 DUP2 PUSH2 0x5EE ADD MSTORE DUP2 DUP2 PUSH2 0x6BB ADD MSTORE DUP2 DUP2 PUSH2 0xA6F ADD MSTORE DUP2 DUP2 PUSH2 0xB12 ADD MSTORE DUP2 DUP2 PUSH2 0xCFC ADD MSTORE PUSH2 0xDA0 ADD MSTORE PUSH1 0x0 PUSH2 0x405 ADD MSTORE PUSH2 0x1A2E PUSH1 0x0 RETURN INVALID PUSH1 0x80 PUSH1 0x40 MSTORE CALLVALUE DUP1 ISZERO PUSH2 0x10 JUMPI PUSH1 0x0 DUP1 REVERT JUMPDEST POP PUSH1 0x4 CALLDATASIZE LT PUSH2 0x9E JUMPI PUSH1 0x0 CALLDATALOAD PUSH1 0xE0 SHR DUP1 PUSH4 0x6E3CE913 GT PUSH2 0x66 JUMPI DUP1 PUSH4 0x6E3CE913 EQ PUSH2 0x149 JUMPI DUP1 PUSH4 0xB88B82BA EQ PUSH2 0x165 JUMPI DUP1 PUSH4 0xCBBA4B7F EQ PUSH2 0x181 JUMPI DUP1 PUSH4 0xE343409A EQ PUSH2 0x19D JUMPI DUP1 PUSH4 0xEADDD0FD EQ PUSH2 0x1CE JUMPI PUSH2 0x9E JUMP JUMPDEST DUP1 PUSH4 0x1C39C38D EQ PUSH2 0xA3 JUMPI DUP1 PUSH4 0x22F8E566 EQ PUSH2 0xC1 JUMPI DUP1 PUSH4 0x29CB924D EQ PUSH2 0xDD JUMPI DUP1 PUSH4 0x3C9747F3 EQ PUSH2 0xFB JUMPI DUP1 PUSH4 0x69E0A1F7 EQ PUSH2 0x119 JUMPI JUMPDEST PUSH1 0x0 DUP1 REVERT JUMPDEST PUSH2 0xAB PUSH2 0x1EC JUMP JUMPDEST PUSH1 0x40 MLOAD PUSH2 0xB8 SWAP2 SWAP1 PUSH2 0x14AD JUMP JUMPDEST PUSH1 0x40 MLOAD DUP1 SWAP2 SUB SWAP1 RETURN JUMPDEST PUSH2 0xDB PUSH1 0x4 DUP1 CALLDATASIZE SUB DUP2 ADD SWAP1 PUSH2 0xD6 SWAP2 SWAP1 PUSH2 0x12C4 JUMP JUMPDEST PUSH2 0x212 JUMP JUMPDEST STOP JUMPDEST PUSH2 0xE5 PUSH2 0x2FE JUMP JUMPDEST PUSH1 0x40 MLOAD PUSH2 0xF2 SWAP2 SWAP1 PUSH2 0x1612 JUMP JUMPDEST PUSH1 0x40 MLOAD DUP1 SWAP2 SUB SWAP1 RETURN JUMPDEST PUSH2 0x103 PUSH2 0x403 JUMP JUMPDEST PUSH1 0x40 MLOAD PUSH2 0x110 SWAP2 SWAP1 PUSH2 0x14F1 JUMP JUMPDEST PUSH1 0x40 MLOAD DUP1 SWAP2 SUB SWAP1 RETURN JUMPDEST PUSH2 0x133 PUSH1 0x4 DUP1 CALLDATASIZE SUB DUP2 ADD SWAP1 PUSH2 0x12E SWAP2 SWAP1 PUSH2 0x10F2 JUMP JUMPDEST PUSH2 0x427 JUMP JUMPDEST PUSH1 0x40 MLOAD PUSH2 0x140 SWAP2 SWAP1 PUSH2 0x14F1 JUMP JUMPDEST PUSH1 0x40 MLOAD DUP1 SWAP2 SUB SWAP1 RETURN JUMPDEST PUSH2 0x163 PUSH1 0x4 DUP1 CALLDATASIZE SUB DUP2 ADD SWAP1 PUSH2 0x15E SWAP2 SWAP1 PUSH2 0x114C JUMP JUMPDEST PUSH2 0x473 JUMP JUMPDEST STOP JUMPDEST PUSH2 0x17F PUSH1 0x4 DUP1 CALLDATASIZE SUB DUP2 ADD SWAP1 PUSH2 0x17A SWAP2 SWAP1 PUSH2 0x131E JUMP JUMPDEST PUSH2 0x5EA JUMP JUMPDEST STOP JUMPDEST PUSH2 0x19B PUSH1 0x4 DUP1 CALLDATASIZE SUB DUP2 ADD SWAP1 PUSH2 0x196 SWAP2 SWAP1 PUSH2 0x1255 JUMP JUMPDEST PUSH2 0xA6D JUMP JUMPDEST STOP JUMPDEST PUSH2 0x1B7 PUSH1 0x4 DUP1 CALLDATASIZE SUB DUP2 ADD SWAP1 PUSH2 0x1B2 SWAP2 SWAP1 PUSH2 0x12C4 JUMP JUMPDEST PUSH2 0xB0B JUMP JUMPDEST PUSH1 0x40 MLOAD PUSH2 0x1C5 SWAP3 SWAP2 SWAP1 PUSH2 0x14C8 JUMP JUMPDEST PUSH1 0x40 MLOAD DUP1 SWAP2 SUB SWAP1 RETURN JUMPDEST PUSH2 0x1D6 PUSH2 0xCFA JUMP JUMPDEST PUSH1 0x40 MLOAD PUSH2 0x1E3 SWAP2 SWAP1 PUSH2 0x1557 JUMP JUMPDEST PUSH1 0x40 MLOAD DUP1 SWAP2 SUB SWAP1 RETURN JUMPDEST PUSH1 0x1 PUSH1 0x0 SWAP1 SLOAD SWAP1 PUSH2 0x100 EXP SWAP1 DIV PUSH20 0xFFFFFFFFFFFFFFFFFFFFFFFFFFFFFFFFFFFFFFFF AND DUP2 JUMP JUMPDEST PUSH1 0x0 PUSH20 0xFFFFFFFFFFFFFFFFFFFFFFFFFFFFFFFFFFFFFFFF AND PUSH1 0x1 PUSH1 0x0 SWAP1 SLOAD SWAP1 PUSH2 0x100 EXP SWAP1 DIV PUSH20 0xFFFFFFFFFFFFFFFFFFFFFFFFFFFFFFFFFFFFFFFF AND PUSH20 0xFFFFFFFFFFFFFFFFFFFFFFFFFFFFFFFFFFFFFFFF AND EQ ISZERO PUSH2 0x26E JUMPI PUSH1 0x0 DUP1 REVERT JUMPDEST PUSH1 0x1 PUSH1 0x0 SWAP1 SLOAD SWAP1 PUSH2 0x100 EXP SWAP1 DIV PUSH20 0xFFFFFFFFFFFFFFFFFFFFFFFFFFFFFFFFFFFFFFFF AND PUSH20 0xFFFFFFFFFFFFFFFFFFFFFFFFFFFFFFFFFFFFFFFF AND PUSH4 0x22F8E566 DUP3 PUSH1 0x40 MLOAD DUP3 PUSH4 0xFFFFFFFF AND PUSH1 0xE0 SHL DUP2 MSTORE PUSH1 0x4 ADD PUSH2 0x2C9 SWAP2 SWAP1 PUSH2 0x1612 JUMP JUMPDEST PUSH1 0x0 PUSH1 0x40 MLOAD DUP1 DUP4 SUB DUP2 PUSH1 0x0 DUP8 DUP1 EXTCODESIZE ISZERO DUP1 ISZERO PUSH2 0x2E3 JUMPI PUSH1 0x0 DUP1 REVERT JUMPDEST POP GAS CALL ISZERO DUP1 ISZERO PUSH2 0x2F7 JUMPI RETURNDATASIZE PUSH1 0x0 DUP1 RETURNDATACOPY RETURNDATASIZE PUSH1 0x0 REVERT JUMPDEST POP POP POP POP POP JUMP JUMPDEST PUSH1 0x0 DUP1 PUSH20 0xFFFFFFFFFFFFFFFFFFFFFFFFFFFFFFFFFFFFFFFF AND PUSH1 0x1 PUSH1 0x0 SWAP1 SLOAD SWAP1 PUSH2 0x100 EXP SWAP1 DIV PUSH20 0xFFFFFFFFFFFFFFFFFFFFFFFFFFFFFFFFFFFFFFFF AND PUSH20 0xFFFFFFFFFFFFFFFFFFFFFFFFFFFFFFFFFFFFFFFF AND EQ PUSH2 0x3FC JUMPI PUSH1 0x1 PUSH1 0x0 SWAP1 SLOAD SWAP1 PUSH2 0x100 EXP SWAP1 DIV PUSH20 0xFFFFFFFFFFFFFFFFFFFFFFFFFFFFFFFFFFFFFFFF AND PUSH20 0xFFFFFFFFFFFFFFFFFFFFFFFFFFFFFFFFFFFFFFFF AND PUSH4 0x29CB924D PUSH1 0x40 MLOAD DUP2 PUSH4 0xFFFFFFFF AND PUSH1 0xE0 SHL DUP2 MSTORE PUSH1 0x4 ADD PUSH1 0x20 PUSH1 0x40 MLOAD DUP1 DUP4 SUB DUP2 DUP7 DUP1 EXTCODESIZE ISZERO DUP1 ISZERO PUSH2 0x3BD JUMPI PUSH1 0x0 DUP1 REVERT JUMPDEST POP GAS STATICCALL ISZERO DUP1 ISZERO PUSH2 0x3D1 JUMPI RETURNDATASIZE PUSH1 0x0 DUP1 RETURNDATACOPY RETURNDATASIZE PUSH1 0x0 REVERT JUMPDEST POP POP POP POP PUSH1 0x40 MLOAD RETURNDATASIZE PUSH1 0x1F NOT PUSH1 0x1F DUP3 ADD AND DUP3 ADD DUP1 PUSH1 0x40 MSTORE POP DUP2 ADD SWAP1 PUSH2 0x3F5 SWAP2 SWAP1 PUSH2 0x12F1 JUMP JUMPDEST SWAP1 POP PUSH2 0x400 JUMP JUMPDEST TIMESTAMP SWAP1 POP JUMPDEST SWAP1 JUMP JUMPDEST PUSH32 0x0 DUP2 JUMP JUMPDEST PUSH1 0x0 PUSH1 0x2 PUSH1 0x0 DUP4 PUSH20 0xFFFFFFFFFFFFFFFFFFFFFFFFFFFFFFFFFFFFFFFF AND PUSH20 0xFFFFFFFFFFFFFFFFFFFFFFFFFFFFFFFFFFFFFFFF AND DUP2 MSTORE PUSH1 0x20 ADD SWAP1 DUP2 MSTORE PUSH1 0x20 ADD PUSH1 0x0 KECCAK256 PUSH1 0x0 ADD SLOAD SWAP1 POP SWAP2 SWAP1 POP JUMP JUMPDEST PUSH1 0x0 PUSH1 0x1 SWAP1 SLOAD SWAP1 PUSH2 0x100 EXP SWAP1 DIV PUSH1 0xFF AND DUP1 PUSH2 0x499 JUMPI POP PUSH1 0x0 DUP1 SLOAD SWAP1 PUSH2 0x100 EXP SWAP1 DIV PUSH1 0xFF AND ISZERO JUMPDEST PUSH2 0x4D8 JUMPI PUSH1 0x40 MLOAD PUSH32 0x8C379A000000000000000000000000000000000000000000000000000000000 DUP2 MSTORE PUSH1 0x4 ADD PUSH2 0x4CF SWAP1 PUSH2 0x15B2 JUMP JUMPDEST PUSH1 0x40 MLOAD DUP1 SWAP2 SUB SWAP1 REVERT JUMPDEST PUSH1 0x0 PUSH1 0x2 SWAP1 SLOAD SWAP1 PUSH2 0x100 EXP SWAP1 DIV PUSH20 0xFFFFFFFFFFFFFFFFFFFFFFFFFFFFFFFFFFFFFFFF AND PUSH20 0xFFFFFFFFFFFFFFFFFFFFFFFFFFFFFFFFFFFFFFFF AND CALLER PUSH20 0xFFFFFFFFFFFFFFFFFFFFFFFFFFFFFFFFFFFFFFFF AND EQ PUSH2 0x568 JUMPI PUSH1 0x40 MLOAD PUSH32 0x8C379A000000000000000000000000000000000000000000000000000000000 DUP2 MSTORE PUSH1 0x4 ADD PUSH2 0x55F SWAP1 PUSH2 0x1572 JUMP JUMPDEST PUSH1 0x40 MLOAD DUP1 SWAP2 SUB SWAP1 REVERT JUMPDEST PUSH1 0x0 DUP1 PUSH1 0x1 SWAP1 SLOAD SWAP1 PUSH2 0x100 EXP SWAP1 DIV PUSH1 0xFF AND ISZERO SWAP1 POP DUP1 ISZERO PUSH2 0x5B8 JUMPI PUSH1 0x1 PUSH1 0x0 PUSH1 0x1 PUSH2 0x100 EXP DUP2 SLOAD DUP2 PUSH1 0xFF MUL NOT AND SWAP1 DUP4 ISZERO ISZERO MUL OR SWAP1 SSTORE POP PUSH1 0x1 PUSH1 0x0 DUP1 PUSH2 0x100 EXP DUP2 SLOAD DUP2 PUSH1 0xFF MUL NOT AND SWAP1 DUP4 ISZERO ISZERO MUL OR SWAP1 SSTORE POP JUMPDEST PUSH2 0x5C3 DUP4 DUP6 DUP5 PUSH2 0xD1E JUMP JUMPDEST DUP1 ISZERO PUSH2 0x5E4 JUMPI PUSH1 0x0 DUP1 PUSH1 0x1 PUSH2 0x100 EXP DUP2 SLOAD DUP2 PUSH1 0xFF MUL NOT AND SWAP1 DUP4 ISZERO ISZERO MUL OR SWAP1 SSTORE POP JUMPDEST POP POP POP POP JUMP JUMPDEST PUSH1 0x0 PUSH32 0x0 PUSH20 0xFFFFFFFFFFFFFFFFFFFFFFFFFFFFFFFFFFFFFFFF AND PUSH4 0x624A23E0 PUSH32 0xD578563424AB02F85EC03C6B1AEE04947EBDD4A30DB46CBA3BCD7F56EF40B199 PUSH1 0x40 MLOAD DUP3 PUSH4 0xFFFFFFFF AND PUSH1 0xE0 SHL DUP2 MSTORE PUSH1 0x4 ADD PUSH2 0x665 SWAP2 SWAP1 PUSH2 0x14F1 JUMP JUMPDEST PUSH1 0x20 PUSH1 0x40 MLOAD DUP1 DUP4 SUB DUP2 DUP7 DUP1 EXTCODESIZE ISZERO DUP1 ISZERO PUSH2 0x67D JUMPI PUSH1 0x0 DUP1 REVERT JUMPDEST POP GAS STATICCALL ISZERO DUP1 ISZERO PUSH2 0x691 JUMPI RETURNDATASIZE PUSH1 0x0 DUP1 RETURNDATACOPY RETURNDATASIZE PUSH1 0x0 REVERT JUMPDEST POP POP POP POP PUSH1 0x40 MLOAD RETURNDATASIZE PUSH1 0x1F NOT PUSH1 0x1F DUP3 ADD AND DUP3 ADD DUP1 PUSH1 0x40 MSTORE POP DUP2 ADD SWAP1 PUSH2 0x6B5 SWAP2 SWAP1 PUSH2 0x111F JUMP JUMPDEST SWAP1 POP PUSH1 0x0 PUSH32 0x0 PUSH20 0xFFFFFFFFFFFFFFFFFFFFFFFFFFFFFFFFFFFFFFFF AND PUSH4 0x624A23E0 PUSH32 0x36209A57DFD79E3872EC3A0C88C653BBE7E32A12306E5E1F92F118C1936AE8B2 PUSH1 0x40 MLOAD DUP3 PUSH4 0xFFFFFFFF AND PUSH1 0xE0 SHL DUP2 MSTORE PUSH1 0x4 ADD PUSH2 0x732 SWAP2 SWAP1 PUSH2 0x14F1 JUMP JUMPDEST PUSH1 0x20 PUSH1 0x40 MLOAD DUP1 DUP4 SUB DUP2 DUP7 DUP1 EXTCODESIZE ISZERO DUP1 ISZERO PUSH2 0x74A JUMPI PUSH1 0x0 DUP1 REVERT JUMPDEST POP GAS STATICCALL ISZERO DUP1 ISZERO PUSH2 0x75E JUMPI RETURNDATASIZE PUSH1 0x0 DUP1 RETURNDATACOPY RETURNDATASIZE PUSH1 0x0 REVERT JUMPDEST POP POP POP POP PUSH1 0x40 MLOAD RETURNDATASIZE PUSH1 0x1F NOT PUSH1 0x1F DUP3 ADD AND DUP3 ADD DUP1 PUSH1 0x40 MSTORE POP DUP2 ADD SWAP1 PUSH2 0x782 SWAP2 SWAP1 PUSH2 0x111F JUMP JUMPDEST SWAP1 POP PUSH1 0x0 DUP2 PUSH20 0xFFFFFFFFFFFFFFFFFFFFFFFFFFFFFFFFFFFFFFFF AND PUSH3 0x62104A DUP7 PUSH1 0x40 MLOAD DUP3 PUSH4 0xFFFFFFFF AND PUSH1 0xE0 SHL DUP2 MSTORE PUSH1 0x4 ADD PUSH2 0x7BE SWAP2 SWAP1 PUSH2 0x1612 JUMP JUMPDEST PUSH1 0x20 PUSH1 0x40 MLOAD DUP1 DUP4 SUB DUP2 DUP7 DUP1 EXTCODESIZE ISZERO DUP1 ISZERO PUSH2 0x7D6 JUMPI PUSH1 0x0 DUP1 REVERT JUMPDEST POP GAS STATICCALL ISZERO DUP1 ISZERO PUSH2 0x7EA JUMPI RETURNDATASIZE PUSH1 0x0 DUP1 RETURNDATACOPY RETURNDATASIZE PUSH1 0x0 REVERT JUMPDEST POP POP POP POP PUSH1 0x40 MLOAD RETURNDATASIZE PUSH1 0x1F NOT PUSH1 0x1F DUP3 ADD AND DUP3 ADD DUP1 PUSH1 0x40 MSTORE POP DUP2 ADD SWAP1 PUSH2 0x80E SWAP2 SWAP1 PUSH2 0x111F JUMP JUMPDEST SWAP1 POP PUSH1 0x0 DUP1 SHL ADDRESS PUSH20 0xFFFFFFFFFFFFFFFFFFFFFFFFFFFFFFFFFFFFFFFF AND PUSH4 0x69E0A1F7 DUP4 PUSH1 0x40 MLOAD DUP3 PUSH4 0xFFFFFFFF AND PUSH1 0xE0 SHL DUP2 MSTORE PUSH1 0x4 ADD PUSH2 0x84D SWAP2 SWAP1 PUSH2 0x14AD JUMP JUMPDEST PUSH1 0x20 PUSH1 0x40 MLOAD DUP1 DUP4 SUB DUP2 DUP7 DUP1 EXTCODESIZE ISZERO DUP1 ISZERO PUSH2 0x865 JUMPI PUSH1 0x0 DUP1 REVERT JUMPDEST POP GAS STATICCALL ISZERO DUP1 ISZERO PUSH2 0x879 JUMPI RETURNDATASIZE PUSH1 0x0 DUP1 RETURNDATACOPY RETURNDATASIZE PUSH1 0x0 REVERT JUMPDEST POP POP POP POP PUSH1 0x40 MLOAD RETURNDATASIZE PUSH1 0x1F NOT PUSH1 0x1F DUP3 ADD AND DUP3 ADD DUP1 PUSH1 0x40 MSTORE POP DUP2 ADD SWAP1 PUSH2 0x89D SWAP2 SWAP1 PUSH2 0x1228 JUMP JUMPDEST EQ ISZERO PUSH2 0x8DE JUMPI PUSH1 0x40 MLOAD PUSH32 0x8C379A000000000000000000000000000000000000000000000000000000000 DUP2 MSTORE PUSH1 0x4 ADD PUSH2 0x8D5 SWAP1 PUSH2 0x15F2 JUMP JUMPDEST PUSH1 0x40 MLOAD DUP1 SWAP2 SUB SWAP1 REVERT JUMPDEST DUP3 PUSH20 0xFFFFFFFFFFFFFFFFFFFFFFFFFFFFFFFFFFFFFFFF AND PUSH4 0xFD4A77F1 DUP7 PUSH1 0x40 MLOAD DUP3 PUSH4 0xFFFFFFFF AND PUSH1 0xE0 SHL DUP2 MSTORE PUSH1 0x4 ADD PUSH2 0x917 SWAP2 SWAP1 PUSH2 0x1612 JUMP JUMPDEST PUSH1 0x0 PUSH1 0x40 MLOAD DUP1 DUP4 SUB DUP2 PUSH1 0x0 DUP8 DUP1 EXTCODESIZE ISZERO DUP1 ISZERO PUSH2 0x931 JUMPI PUSH1 0x0 DUP1 REVERT JUMPDEST POP GAS CALL ISZERO DUP1 ISZERO PUSH2 0x945 JUMPI RETURNDATASIZE PUSH1 0x0 DUP1 RETURNDATACOPY RETURNDATASIZE PUSH1 0x0 REVERT JUMPDEST POP POP POP POP DUP5 CALLER PUSH20 0xFFFFFFFFFFFFFFFFFFFFFFFFFFFFFFFFFFFFFFFF AND PUSH32 0x71A29581F391D0CA96684C69771724A921678B572E21378712BE03E8DA07E2CA DUP7 PUSH1 0x40 MLOAD PUSH2 0x990 SWAP2 SWAP1 PUSH2 0x1535 JUMP JUMPDEST PUSH1 0x40 MLOAD DUP1 SWAP2 SUB SWAP1 LOG3 DUP1 PUSH20 0xFFFFFFFFFFFFFFFFFFFFFFFFFFFFFFFFFFFFFFFF AND PUSH4 0xF636A053 DUP7 DUP7 CALLER PUSH1 0x40 MLOAD DUP5 PUSH4 0xFFFFFFFF AND PUSH1 0xE0 SHL DUP2 MSTORE PUSH1 0x4 ADD PUSH2 0x9D5 SWAP4 SWAP3 SWAP2 SWAP1 PUSH2 0x162D JUMP JUMPDEST PUSH1 0x20 PUSH1 0x40 MLOAD DUP1 DUP4 SUB DUP2 PUSH1 0x0 DUP8 DUP1 EXTCODESIZE ISZERO DUP1 ISZERO PUSH2 0x9EF JUMPI PUSH1 0x0 DUP1 REVERT JUMPDEST POP GAS CALL ISZERO DUP1 ISZERO PUSH2 0xA03 JUMPI RETURNDATASIZE PUSH1 0x0 DUP1 RETURNDATACOPY RETURNDATASIZE PUSH1 0x0 REVERT JUMPDEST POP POP POP POP PUSH1 0x40 MLOAD RETURNDATASIZE PUSH1 0x1F NOT PUSH1 0x1F DUP3 ADD AND DUP3 ADD DUP1 PUSH1 0x40 MSTORE POP DUP2 ADD SWAP1 PUSH2 0xA27 SWAP2 SWAP1 PUSH2 0x11BB JUMP JUMPDEST PUSH2 0xA66 JUMPI PUSH1 0x40 MLOAD PUSH32 0x8C379A000000000000000000000000000000000000000000000000000000000 DUP2 MSTORE PUSH1 0x4 ADD PUSH2 0xA5D SWAP1 PUSH2 0x15D2 JUMP JUMPDEST PUSH1 0x40 MLOAD DUP1 SWAP2 SUB SWAP1 REVERT JUMPDEST POP POP POP POP POP JUMP JUMPDEST PUSH32 0x0 PUSH20 0xFFFFFFFFFFFFFFFFFFFFFFFFFFFFFFFFFFFFFFFF AND CALLER PUSH20 0xFFFFFFFFFFFFFFFFFFFFFFFFFFFFFFFFFFFFFFFF AND EQ PUSH2 0xAFB JUMPI PUSH1 0x40 MLOAD PUSH32 0x8C379A000000000000000000000000000000000000000000000000000000000 DUP2 MSTORE PUSH1 0x4 ADD PUSH2 0xAF2 SWAP1 PUSH2 0x1592 JUMP JUMPDEST PUSH1 0x40 MLOAD DUP1 SWAP2 SUB SWAP1 REVERT JUMPDEST PUSH2 0xB06 DUP4 DUP4 DUP4 PUSH2 0xD1E JUMP JUMPDEST POP POP POP JUMP JUMPDEST PUSH1 0x0 DUP1 PUSH1 0x0 PUSH32 0x0 PUSH20 0xFFFFFFFFFFFFFFFFFFFFFFFFFFFFFFFFFFFFFFFF AND PUSH4 0x624A23E0 PUSH32 0x36209A57DFD79E3872EC3A0C88C653BBE7E32A12306E5E1F92F118C1936AE8B2 PUSH1 0x40 MLOAD DUP3 PUSH4 0xFFFFFFFF AND PUSH1 0xE0 SHL DUP2 MSTORE PUSH1 0x4 ADD PUSH2 0xB89 SWAP2 SWAP1 PUSH2 0x14F1 JUMP JUMPDEST PUSH1 0x20 PUSH1 0x40 MLOAD DUP1 DUP4 SUB DUP2 DUP7 DUP1 EXTCODESIZE ISZERO DUP1 ISZERO PUSH2 0xBA1 JUMPI PUSH1 0x0 DUP1 REVERT JUMPDEST POP GAS STATICCALL ISZERO DUP1 ISZERO PUSH2 0xBB5 JUMPI RETURNDATASIZE PUSH1 0x0 DUP1 RETURNDATACOPY RETURNDATASIZE PUSH1 0x0 REVERT JUMPDEST POP POP POP POP PUSH1 0x40 MLOAD RETURNDATASIZE PUSH1 0x1F NOT PUSH1 0x1F DUP3 ADD AND DUP3 ADD DUP1 PUSH1 0x40 MSTORE POP DUP2 ADD SWAP1 PUSH2 0xBD9 SWAP2 SWAP1 PUSH2 0x111F JUMP JUMPDEST SWAP1 POP PUSH1 0x0 DUP2 PUSH20 0xFFFFFFFFFFFFFFFFFFFFFFFFFFFFFFFFFFFFFFFF AND PUSH3 0x62104A DUP7 PUSH1 0x40 MLOAD DUP3 PUSH4 0xFFFFFFFF AND PUSH1 0xE0 SHL DUP2 MSTORE PUSH1 0x4 ADD PUSH2 0xC15 SWAP2 SWAP1 PUSH2 0x1612 JUMP JUMPDEST PUSH1 0x20 PUSH1 0x40 MLOAD DUP1 DUP4 SUB DUP2 DUP7 DUP1 EXTCODESIZE ISZERO DUP1 ISZERO PUSH2 0xC2D JUMPI PUSH1 0x0 DUP1 REVERT JUMPDEST POP GAS STATICCALL ISZERO DUP1 ISZERO PUSH2 0xC41 JUMPI RETURNDATASIZE PUSH1 0x0 DUP1 RETURNDATACOPY RETURNDATASIZE PUSH1 0x0 REVERT JUMPDEST POP POP POP POP PUSH1 0x40 MLOAD RETURNDATASIZE PUSH1 0x1F NOT PUSH1 0x1F DUP3 ADD AND DUP3 ADD DUP1 PUSH1 0x40 MSTORE POP DUP2 ADD SWAP1 PUSH2 0xC65 SWAP2 SWAP1 PUSH2 0x111F JUMP JUMPDEST SWAP1 POP DUP1 PUSH20 0xFFFFFFFFFFFFFFFFFFFFFFFFFFFFFFFFFFFFFFFF AND PUSH4 0xE343409A DUP7 PUSH1 0x40 MLOAD DUP3 PUSH4 0xFFFFFFFF AND PUSH1 0xE0 SHL DUP2 MSTORE PUSH1 0x4 ADD PUSH2 0xCA0 SWAP2 SWAP1 PUSH2 0x1612 JUMP JUMPDEST PUSH1 0x40 DUP1 MLOAD DUP1 DUP4 SUB DUP2 DUP7 DUP1 EXTCODESIZE ISZERO DUP1 ISZERO PUSH2 0xCB7 JUMPI PUSH1 0x0 DUP1 REVERT JUMPDEST POP GAS STATICCALL ISZERO DUP1 ISZERO PUSH2 0xCCB JUMPI RETURNDATASIZE PUSH1 0x0 DUP1 RETURNDATACOPY RETURNDATASIZE PUSH1 0x0 REVERT JUMPDEST POP POP POP POP PUSH1 0x40 MLOAD RETURNDATASIZE PUSH1 0x1F NOT PUSH1 0x1F DUP3 ADD AND DUP3 ADD DUP1 PUSH1 0x40 MSTORE POP DUP2 ADD SWAP1 PUSH2 0xCEF SWAP2 SWAP1 PUSH2 0x11E8 JUMP JUMPDEST SWAP4 POP SWAP4 POP POP POP SWAP2 POP SWAP2 JUMP JUMPDEST PUSH32 0x0 DUP2 JUMP JUMPDEST PUSH1 0x40 MLOAD DUP1 PUSH1 0x40 ADD PUSH1 0x40 MSTORE DUP1 DUP5 DUP2 MSTORE PUSH1 0x20 ADD DUP3 DUP2 MSTORE POP PUSH1 0x2 PUSH1 0x0 DUP5 PUSH20 0xFFFFFFFFFFFFFFFFFFFFFFFFFFFFFFFFFFFFFFFF AND PUSH20 0xFFFFFFFFFFFFFFFFFFFFFFFFFFFFFFFFFFFFFFFF AND DUP2 MSTORE PUSH1 0x20 ADD SWAP1 DUP2 MSTORE PUSH1 0x20 ADD PUSH1 0x0 KECCAK256 PUSH1 0x0 DUP3 ADD MLOAD DUP2 PUSH1 0x0 ADD SSTORE PUSH1 0x20 DUP3 ADD MLOAD DUP2 PUSH1 0x1 ADD SWAP1 DUP1 MLOAD SWAP1 PUSH1 0x20 ADD SWAP1 PUSH2 0xD98 SWAP3 SWAP2 SWAP1 PUSH2 0xEDC JUMP JUMPDEST POP SWAP1 POP POP PUSH1 0x0 PUSH32 0x0 PUSH20 0xFFFFFFFFFFFFFFFFFFFFFFFFFFFFFFFFFFFFFFFF AND PUSH4 0x624A23E0 PUSH32 0xD578563424AB02F85EC03C6B1AEE04947EBDD4A30DB46CBA3BCD7F56EF40B199 PUSH1 0x40 MLOAD DUP3 PUSH4 0xFFFFFFFF AND PUSH1 0xE0 SHL DUP2 MSTORE PUSH1 0x4 ADD PUSH2 0xE17 SWAP2 SWAP1 PUSH2 0x14F1 JUMP JUMPDEST PUSH1 0x20 PUSH1 0x40 MLOAD DUP1 DUP4 SUB DUP2 DUP7 DUP1 EXTCODESIZE ISZERO DUP1 ISZERO PUSH2 0xE2F JUMPI PUSH1 0x0 DUP1 REVERT JUMPDEST POP GAS STATICCALL ISZERO DUP1 ISZERO PUSH2 0xE43 JUMPI RETURNDATASIZE PUSH1 0x0 DUP1 RETURNDATACOPY RETURNDATASIZE PUSH1 0x0 REVERT JUMPDEST POP POP POP POP PUSH1 0x40 MLOAD RETURNDATASIZE PUSH1 0x1F NOT PUSH1 0x1F DUP3 ADD AND DUP3 ADD DUP1 PUSH1 0x40 MSTORE POP DUP2 ADD SWAP1 PUSH2 0xE67 SWAP2 SWAP1 PUSH2 0x111F JUMP JUMPDEST SWAP1 POP DUP1 PUSH20 0xFFFFFFFFFFFFFFFFFFFFFFFFFFFFFFFFFFFFFFFF AND PUSH4 0x38C68782 DUP6 DUP6 PUSH1 0x40 MLOAD DUP4 PUSH4 0xFFFFFFFF AND PUSH1 0xE0 SHL DUP2 MSTORE PUSH1 0x4 ADD PUSH2 0xEA4 SWAP3 SWAP2 SWAP1 PUSH2 0x150C JUMP JUMPDEST PUSH1 0x0 PUSH1 0x40 MLOAD DUP1 DUP4 SUB DUP2 PUSH1 0x0 DUP8 DUP1 EXTCODESIZE ISZERO DUP1 ISZERO PUSH2 0xEBE JUMPI PUSH1 0x0 DUP1 REVERT JUMPDEST POP GAS CALL ISZERO DUP1 ISZERO PUSH2 0xED2 JUMPI RETURNDATASIZE PUSH1 0x0 DUP1 RETURNDATACOPY RETURNDATASIZE PUSH1 0x0 REVERT JUMPDEST POP POP POP POP POP POP POP POP JUMP JUMPDEST DUP3 DUP1 SLOAD PUSH2 0xEE8 SWAP1 PUSH2 0x17E9 JUMP JUMPDEST SWAP1 PUSH1 0x0 MSTORE PUSH1 0x20 PUSH1 0x0 KECCAK256 SWAP1 PUSH1 0x1F ADD PUSH1 0x20 SWAP1 DIV DUP2 ADD SWAP3 DUP3 PUSH2 0xF0A JUMPI PUSH1 0x0 DUP6 SSTORE PUSH2 0xF51 JUMP JUMPDEST DUP3 PUSH1 0x1F LT PUSH2 0xF23 JUMPI DUP1 MLOAD PUSH1 0xFF NOT AND DUP4 DUP1 ADD OR DUP6 SSTORE PUSH2 0xF51 JUMP JUMPDEST DUP3 DUP1 ADD PUSH1 0x1 ADD DUP6 SSTORE DUP3 ISZERO PUSH2 0xF51 JUMPI SWAP2 DUP3 ADD JUMPDEST DUP3 DUP2 GT ISZERO PUSH2 0xF50 JUMPI DUP3 MLOAD DUP3 SSTORE SWAP2 PUSH1 0x20 ADD SWAP2 SWAP1 PUSH1 0x1 ADD SWAP1 PUSH2 0xF35 JUMP JUMPDEST JUMPDEST POP SWAP1 POP PUSH2 0xF5E SWAP2 SWAP1 PUSH2 0xF62 JUMP JUMPDEST POP SWAP1 JUMP JUMPDEST JUMPDEST DUP1 DUP3 GT ISZERO PUSH2 0xF7B JUMPI PUSH1 0x0 DUP2 PUSH1 0x0 SWAP1 SSTORE POP PUSH1 0x1 ADD PUSH2 0xF63 JUMP JUMPDEST POP SWAP1 JUMP JUMPDEST PUSH1 0x0 PUSH2 0xF92 PUSH2 0xF8D DUP5 PUSH2 0x1690 JUMP JUMPDEST PUSH2 0x166B JUMP JUMPDEST SWAP1 POP DUP3 DUP2 MSTORE PUSH1 0x20 DUP2 ADD DUP5 DUP5 DUP5 ADD GT ISZERO PUSH2 0xFAE JUMPI PUSH2 0xFAD PUSH2 0x18AF JUMP JUMPDEST JUMPDEST PUSH2 0xFB9 DUP5 DUP3 DUP6 PUSH2 0x17A7 JUMP JUMPDEST POP SWAP4 SWAP3 POP POP POP JUMP JUMPDEST PUSH1 0x0 PUSH2 0xFD4 PUSH2 0xFCF DUP5 PUSH2 0x16C1 JUMP JUMPDEST PUSH2 0x166B JUMP JUMPDEST SWAP1 POP DUP3 DUP2 MSTORE PUSH1 0x20 DUP2 ADD DUP5 DUP5 DUP5 ADD GT ISZERO PUSH2 0xFF0 JUMPI PUSH2 0xFEF PUSH2 0x18AF JUMP JUMPDEST JUMPDEST PUSH2 0xFFB DUP5 DUP3 DUP6 PUSH2 0x17A7 JUMP JUMPDEST POP SWAP4 SWAP3 POP POP POP JUMP JUMPDEST PUSH1 0x0 DUP2 CALLDATALOAD SWAP1 POP PUSH2 0x1012 DUP2 PUSH2 0x199C JUMP JUMPDEST SWAP3 SWAP2 POP POP JUMP JUMPDEST PUSH1 0x0 DUP2 MLOAD SWAP1 POP PUSH2 0x1027 DUP2 PUSH2 0x199C JUMP JUMPDEST SWAP3 SWAP2 POP POP JUMP JUMPDEST PUSH1 0x0 DUP2 MLOAD SWAP1 POP PUSH2 0x103C DUP2 PUSH2 0x19B3 JUMP JUMPDEST SWAP3 SWAP2 POP POP JUMP JUMPDEST PUSH1 0x0 DUP2 CALLDATALOAD SWAP1 POP PUSH2 0x1051 DUP2 PUSH2 0x19CA JUMP JUMPDEST SWAP3 SWAP2 POP POP JUMP JUMPDEST PUSH1 0x0 DUP2 MLOAD SWAP1 POP PUSH2 0x1066 DUP2 PUSH2 0x19CA JUMP JUMPDEST SWAP3 SWAP2 POP POP JUMP JUMPDEST PUSH1 0x0 DUP3 PUSH1 0x1F DUP4 ADD SLT PUSH2 0x1081 JUMPI PUSH2 0x1080 PUSH2 0x18AA JUMP JUMPDEST JUMPDEST DUP2 CALLDATALOAD PUSH2 0x1091 DUP5 DUP3 PUSH1 0x20 DUP7 ADD PUSH2 0xF7F JUMP JUMPDEST SWAP2 POP POP SWAP3 SWAP2 POP POP JUMP JUMPDEST PUSH1 0x0 DUP3 PUSH1 0x1F DUP4 ADD SLT PUSH2 0x10AF JUMPI PUSH2 0x10AE PUSH2 0x18AA JUMP JUMPDEST JUMPDEST DUP2 CALLDATALOAD PUSH2 0x10BF DUP5 DUP3 PUSH1 0x20 DUP7 ADD PUSH2 0xFC1 JUMP JUMPDEST SWAP2 POP POP SWAP3 SWAP2 POP POP JUMP JUMPDEST PUSH1 0x0 DUP2 CALLDATALOAD SWAP1 POP PUSH2 0x10D7 DUP2 PUSH2 0x19E1 JUMP JUMPDEST SWAP3 SWAP2 POP POP JUMP JUMPDEST PUSH1 0x0 DUP2 MLOAD SWAP1 POP PUSH2 0x10EC DUP2 PUSH2 0x19E1 JUMP JUMPDEST SWAP3 SWAP2 POP POP JUMP JUMPDEST PUSH1 0x0 PUSH1 0x20 DUP3 DUP5 SUB SLT ISZERO PUSH2 0x1108 JUMPI PUSH2 0x1107 PUSH2 0x18B9 JUMP JUMPDEST JUMPDEST PUSH1 0x0 PUSH2 0x1116 DUP5 DUP3 DUP6 ADD PUSH2 0x1003 JUMP JUMPDEST SWAP2 POP POP SWAP3 SWAP2 POP POP JUMP JUMPDEST PUSH1 0x0 PUSH1 0x20 DUP3 DUP5 SUB SLT ISZERO PUSH2 0x1135 JUMPI PUSH2 0x1134 PUSH2 0x18B9 JUMP JUMPDEST JUMPDEST PUSH1 0x0 PUSH2 0x1143 DUP5 DUP3 DUP6 ADD PUSH2 0x1018 JUMP JUMPDEST SWAP2 POP POP SWAP3 SWAP2 POP POP JUMP JUMPDEST PUSH1 0x0 DUP1 PUSH1 0x0 PUSH1 0x60 DUP5 DUP7 SUB SLT ISZERO PUSH2 0x1165 JUMPI PUSH2 0x1164 PUSH2 0x18B9 JUMP JUMPDEST JUMPDEST PUSH1 0x0 PUSH2 0x1173 DUP7 DUP3 DUP8 ADD PUSH2 0x1003 JUMP JUMPDEST SWAP4 POP POP PUSH1 0x20 PUSH2 0x1184 DUP7 DUP3 DUP8 ADD PUSH2 0x1042 JUMP JUMPDEST SWAP3 POP POP PUSH1 0x40 DUP5 ADD CALLDATALOAD PUSH8 0xFFFFFFFFFFFFFFFF DUP2 GT ISZERO PUSH2 0x11A5 JUMPI PUSH2 0x11A4 PUSH2 0x18B4 JUMP JUMPDEST JUMPDEST PUSH2 0x11B1 DUP7 DUP3 DUP8 ADD PUSH2 0x109A JUMP JUMPDEST SWAP2 POP POP SWAP3 POP SWAP3 POP SWAP3 JUMP JUMPDEST PUSH1 0x0 PUSH1 0x20 DUP3 DUP5 SUB SLT ISZERO PUSH2 0x11D1 JUMPI PUSH2 0x11D0 PUSH2 0x18B9 JUMP JUMPDEST JUMPDEST PUSH1 0x0 PUSH2 0x11DF DUP5 DUP3 DUP6 ADD PUSH2 0x102D JUMP JUMPDEST SWAP2 POP POP SWAP3 SWAP2 POP POP JUMP JUMPDEST PUSH1 0x0 DUP1 PUSH1 0x40 DUP4 DUP6 SUB SLT ISZERO PUSH2 0x11FF JUMPI PUSH2 0x11FE PUSH2 0x18B9 JUMP JUMPDEST JUMPDEST PUSH1 0x0 PUSH2 0x120D DUP6 DUP3 DUP7 ADD PUSH2 0x102D JUMP JUMPDEST SWAP3 POP POP PUSH1 0x20 PUSH2 0x121E DUP6 DUP3 DUP7 ADD PUSH2 0x102D JUMP JUMPDEST SWAP2 POP POP SWAP3 POP SWAP3 SWAP1 POP JUMP JUMPDEST PUSH1 0x0 PUSH1 0x20 DUP3 DUP5 SUB SLT ISZERO PUSH2 0x123E JUMPI PUSH2 0x123D PUSH2 0x18B9 JUMP JUMPDEST JUMPDEST PUSH1 0x0 PUSH2 0x124C DUP5 DUP3 DUP6 ADD PUSH2 0x1057 JUMP JUMPDEST SWAP2 POP POP SWAP3 SWAP2 POP POP JUMP JUMPDEST PUSH1 0x0 DUP1 PUSH1 0x0 PUSH1 0x60 DUP5 DUP7 SUB SLT ISZERO PUSH2 0x126E JUMPI PUSH2 0x126D PUSH2 0x18B9 JUMP JUMPDEST JUMPDEST PUSH1 0x0 PUSH2 0x127C DUP7 DUP3 DUP8 ADD PUSH2 0x1042 JUMP JUMPDEST SWAP4 POP POP PUSH1 0x20 PUSH2 0x128D DUP7 DUP3 DUP8 ADD PUSH2 0x1003 JUMP JUMPDEST SWAP3 POP POP PUSH1 0x40 DUP5 ADD CALLDATALOAD PUSH8 0xFFFFFFFFFFFFFFFF DUP2 GT ISZERO PUSH2 0x12AE JUMPI PUSH2 0x12AD PUSH2 0x18B4 JUMP JUMPDEST JUMPDEST PUSH2 0x12BA DUP7 DUP3 DUP8 ADD PUSH2 0x109A JUMP JUMPDEST SWAP2 POP POP SWAP3 POP SWAP3 POP SWAP3 JUMP JUMPDEST PUSH1 0x0 PUSH1 0x20 DUP3 DUP5 SUB SLT ISZERO PUSH2 0x12DA JUMPI PUSH2 0x12D9 PUSH2 0x18B9 JUMP JUMPDEST JUMPDEST PUSH1 0x0 PUSH2 0x12E8 DUP5 DUP3 DUP6 ADD PUSH2 0x10C8 JUMP JUMPDEST SWAP2 POP POP SWAP3 SWAP2 POP POP JUMP JUMPDEST PUSH1 0x0 PUSH1 0x20 DUP3 DUP5 SUB SLT ISZERO PUSH2 0x1307 JUMPI PUSH2 0x1306 PUSH2 0x18B9 JUMP JUMPDEST JUMPDEST PUSH1 0x0 PUSH2 0x1315 DUP5 DUP3 DUP6 ADD PUSH2 0x10DD JUMP JUMPDEST SWAP2 POP POP SWAP3 SWAP2 POP POP JUMP JUMPDEST PUSH1 0x0 DUP1 PUSH1 0x40 DUP4 DUP6 SUB SLT ISZERO PUSH2 0x1335 JUMPI PUSH2 0x1334 PUSH2 0x18B9 JUMP JUMPDEST JUMPDEST PUSH1 0x0 PUSH2 0x1343 DUP6 DUP3 DUP7 ADD PUSH2 0x10C8 JUMP JUMPDEST SWAP3 POP POP PUSH1 0x20 DUP4 ADD CALLDATALOAD PUSH8 0xFFFFFFFFFFFFFFFF DUP2 GT ISZERO PUSH2 0x1364 JUMPI PUSH2 0x1363 PUSH2 0x18B4 JUMP JUMPDEST JUMPDEST PUSH2 0x1370 DUP6 DUP3 DUP7 ADD PUSH2 0x106C JUMP JUMPDEST SWAP2 POP POP SWAP3 POP SWAP3 SWAP1 POP JUMP JUMPDEST PUSH2 0x1383 DUP2 PUSH2 0x171F JUMP JUMPDEST DUP3 MSTORE POP POP JUMP JUMPDEST PUSH2 0x1392 DUP2 PUSH2 0x1731 JUMP JUMPDEST DUP3 MSTORE POP POP JUMP JUMPDEST PUSH2 0x13A1 DUP2 PUSH2 0x173D JUMP JUMPDEST DUP3 MSTORE POP POP JUMP JUMPDEST PUSH1 0x0 PUSH2 0x13B2 DUP3 PUSH2 0x16F2 JUMP JUMPDEST PUSH2 0x13BC DUP2 DUP6 PUSH2 0x16FD JUMP JUMPDEST SWAP4 POP PUSH2 0x13CC DUP2 DUP6 PUSH1 0x20 DUP7 ADD PUSH2 0x17B6 JUMP JUMPDEST PUSH2 0x13D5 DUP2 PUSH2 0x18BE JUMP JUMPDEST DUP5 ADD SWAP2 POP POP SWAP3 SWAP2 POP POP JUMP JUMPDEST PUSH2 0x13E9 DUP2 PUSH2 0x1771 JUMP JUMPDEST DUP3 MSTORE POP POP JUMP JUMPDEST PUSH1 0x0 PUSH2 0x13FC PUSH1 0x1C DUP4 PUSH2 0x170E JUMP JUMPDEST SWAP2 POP PUSH2 0x1407 DUP3 PUSH2 0x18CF JUMP JUMPDEST PUSH1 0x20 DUP3 ADD SWAP1 POP SWAP2 SWAP1 POP JUMP JUMPDEST PUSH1 0x0 PUSH2 0x141F PUSH1 0x1C DUP4 PUSH2 0x170E JUMP JUMPDEST SWAP2 POP PUSH2 0x142A DUP3 PUSH2 0x18F8 JUMP JUMPDEST PUSH1 0x20 DUP3 ADD SWAP1 POP SWAP2 SWAP1 POP JUMP JUMPDEST PUSH1 0x0 PUSH2 0x1442 PUSH1 0x1D DUP4 PUSH2 0x170E JUMP JUMPDEST SWAP2 POP PUSH2 0x144D DUP3 PUSH2 0x1921 JUMP JUMPDEST PUSH1 0x20 DUP3 ADD SWAP1 POP SWAP2 SWAP1 POP JUMP JUMPDEST PUSH1 0x0 PUSH2 0x1465 PUSH1 0x12 DUP4 PUSH2 0x170E JUMP JUMPDEST SWAP2 POP PUSH2 0x1470 DUP3 PUSH2 0x194A JUMP JUMPDEST PUSH1 0x20 DUP3 ADD SWAP1 POP SWAP2 SWAP1 POP JUMP JUMPDEST PUSH1 0x0 PUSH2 0x1488 PUSH1 0x1D DUP4 PUSH2 0x170E JUMP JUMPDEST SWAP2 POP PUSH2 0x1493 DUP3 PUSH2 0x1973 JUMP JUMPDEST PUSH1 0x20 DUP3 ADD SWAP1 POP SWAP2 SWAP1 POP JUMP JUMPDEST PUSH2 0x14A7 DUP2 PUSH2 0x1767 JUMP JUMPDEST DUP3 MSTORE POP POP JUMP JUMPDEST PUSH1 0x0 PUSH1 0x20 DUP3 ADD SWAP1 POP PUSH2 0x14C2 PUSH1 0x0 DUP4 ADD DUP5 PUSH2 0x137A JUMP JUMPDEST SWAP3 SWAP2 POP POP JUMP JUMPDEST PUSH1 0x0 PUSH1 0x40 DUP3 ADD SWAP1 POP PUSH2 0x14DD PUSH1 0x0 DUP4 ADD DUP6 PUSH2 0x1389 JUMP JUMPDEST PUSH2 0x14EA PUSH1 0x20 DUP4 ADD DUP5 PUSH2 0x1389 JUMP JUMPDEST SWAP4 SWAP3 POP POP POP JUMP JUMPDEST PUSH1 0x0 PUSH1 0x20 DUP3 ADD SWAP1 POP PUSH2 0x1506 PUSH1 0x0 DUP4 ADD DUP5 PUSH2 0x1398 JUMP JUMPDEST SWAP3 SWAP2 POP POP JUMP JUMPDEST PUSH1 0x0 PUSH1 0x40 DUP3 ADD SWAP1 POP PUSH2 0x1521 PUSH1 0x0 DUP4 ADD DUP6 PUSH2 0x1398 JUMP JUMPDEST PUSH2 0x152E PUSH1 0x20 DUP4 ADD DUP5 PUSH2 0x137A JUMP JUMPDEST SWAP4 SWAP3 POP POP POP JUMP JUMPDEST PUSH1 0x0 PUSH1 0x20 DUP3 ADD SWAP1 POP DUP2 DUP2 SUB PUSH1 0x0 DUP4 ADD MSTORE PUSH2 0x154F DUP2 DUP5 PUSH2 0x13A7 JUMP JUMPDEST SWAP1 POP SWAP3 SWAP2 POP POP JUMP JUMPDEST PUSH1 0x0 PUSH1 0x20 DUP3 ADD SWAP1 POP PUSH2 0x156C PUSH1 0x0 DUP4 ADD DUP5 PUSH2 0x13E0 JUMP JUMPDEST SWAP3 SWAP2 POP POP JUMP JUMPDEST PUSH1 0x0 PUSH1 0x20 DUP3 ADD SWAP1 POP DUP2 DUP2 SUB PUSH1 0x0 DUP4 ADD MSTORE PUSH2 0x158B DUP2 PUSH2 0x13EF JUMP JUMPDEST SWAP1 POP SWAP2 SWAP1 POP JUMP JUMPDEST PUSH1 0x0 PUSH1 0x20 DUP3 ADD SWAP1 POP DUP2 DUP2 SUB PUSH1 0x0 DUP4 ADD MSTORE PUSH2 0x15AB DUP2 PUSH2 0x1412 JUMP JUMPDEST SWAP1 POP SWAP2 SWAP1 POP JUMP JUMPDEST PUSH1 0x0 PUSH1 0x20 DUP3 ADD SWAP1 POP DUP2 DUP2 SUB PUSH1 0x0 DUP4 ADD MSTORE PUSH2 0x15CB DUP2 PUSH2 0x1435 JUMP JUMPDEST SWAP1 POP SWAP2 SWAP1 POP JUMP JUMPDEST PUSH1 0x0 PUSH1 0x20 DUP3 ADD SWAP1 POP DUP2 DUP2 SUB PUSH1 0x0 DUP4 ADD MSTORE PUSH2 0x15EB DUP2 PUSH2 0x1458 JUMP JUMPDEST SWAP1 POP SWAP2 SWAP1 POP JUMP JUMPDEST PUSH1 0x0 PUSH1 0x20 DUP3 ADD SWAP1 POP DUP2 DUP2 SUB PUSH1 0x0 DUP4 ADD MSTORE PUSH2 0x160B DUP2 PUSH2 0x147B JUMP JUMPDEST SWAP1 POP SWAP2 SWAP1 POP JUMP JUMPDEST PUSH1 0x0 PUSH1 0x20 DUP3 ADD SWAP1 POP PUSH2 0x1627 PUSH1 0x0 DUP4 ADD DUP5 PUSH2 0x149E JUMP JUMPDEST SWAP3 SWAP2 POP POP JUMP JUMPDEST PUSH1 0x0 PUSH1 0x60 DUP3 ADD SWAP1 POP PUSH2 0x1642 PUSH1 0x0 DUP4 ADD DUP7 PUSH2 0x149E JUMP JUMPDEST DUP2 DUP2 SUB PUSH1 0x20 DUP4 ADD MSTORE PUSH2 0x1654 DUP2 DUP6 PUSH2 0x13A7 JUMP JUMPDEST SWAP1 POP PUSH2 0x1663 PUSH1 0x40 DUP4 ADD DUP5 PUSH2 0x137A JUMP JUMPDEST SWAP5 SWAP4 POP POP POP POP JUMP JUMPDEST PUSH1 0x0 PUSH2 0x1675 PUSH2 0x1686 JUMP JUMPDEST SWAP1 POP PUSH2 0x1681 DUP3 DUP3 PUSH2 0x181B JUMP JUMPDEST SWAP2 SWAP1 POP JUMP JUMPDEST PUSH1 0x0 PUSH1 0x40 MLOAD SWAP1 POP SWAP1 JUMP JUMPDEST PUSH1 0x0 PUSH8 0xFFFFFFFFFFFFFFFF DUP3 GT ISZERO PUSH2 0x16AB JUMPI PUSH2 0x16AA PUSH2 0x187B JUMP JUMPDEST JUMPDEST PUSH2 0x16B4 DUP3 PUSH2 0x18BE JUMP JUMPDEST SWAP1 POP PUSH1 0x20 DUP2 ADD SWAP1 POP SWAP2 SWAP1 POP JUMP JUMPDEST PUSH1 0x0 PUSH8 0xFFFFFFFFFFFFFFFF DUP3 GT ISZERO PUSH2 0x16DC JUMPI PUSH2 0x16DB PUSH2 0x187B JUMP JUMPDEST JUMPDEST PUSH2 0x16E5 DUP3 PUSH2 0x18BE JUMP JUMPDEST SWAP1 POP PUSH1 0x20 DUP2 ADD SWAP1 POP SWAP2 SWAP1 POP JUMP JUMPDEST PUSH1 0x0 DUP2 MLOAD SWAP1 POP SWAP2 SWAP1 POP JUMP JUMPDEST PUSH1 0x0 DUP3 DUP3 MSTORE PUSH1 0x20 DUP3 ADD SWAP1 POP SWAP3 SWAP2 POP POP JUMP JUMPDEST PUSH1 0x0 DUP3 DUP3 MSTORE PUSH1 0x20 DUP3 ADD SWAP1 POP SWAP3 SWAP2 POP POP JUMP JUMPDEST PUSH1 0x0 PUSH2 0x172A DUP3 PUSH2 0x1747 JUMP JUMPDEST SWAP1 POP SWAP2 SWAP1 POP JUMP JUMPDEST PUSH1 0x0 DUP2 ISZERO ISZERO SWAP1 POP SWAP2 SWAP1 POP JUMP JUMPDEST PUSH1 0x0 DUP2 SWAP1 POP SWAP2 SWAP1 POP JUMP JUMPDEST PUSH1 0x0 PUSH20 0xFFFFFFFFFFFFFFFFFFFFFFFFFFFFFFFFFFFFFFFF DUP3 AND SWAP1 POP SWAP2 SWAP1 POP JUMP JUMPDEST PUSH1 0x0 DUP2 SWAP1 POP SWAP2 SWAP1 POP JUMP JUMPDEST PUSH1 0x0 PUSH2 0x177C DUP3 PUSH2 0x1783 JUMP JUMPDEST SWAP1 POP SWAP2 SWAP1 POP JUMP JUMPDEST PUSH1 0x0 PUSH2 0x178E DUP3 PUSH2 0x1795 JUMP JUMPDEST SWAP1 POP SWAP2 SWAP1 POP JUMP JUMPDEST PUSH1 0x0 PUSH2 0x17A0 DUP3 PUSH2 0x1747 JUMP JUMPDEST SWAP1 POP SWAP2 SWAP1 POP JUMP JUMPDEST DUP3 DUP2 DUP4 CALLDATACOPY PUSH1 0x0 DUP4 DUP4 ADD MSTORE POP POP POP JUMP JUMPDEST PUSH1 0x0 JUMPDEST DUP4 DUP2 LT ISZERO PUSH2 0x17D4 JUMPI DUP1 DUP3 ADD MLOAD DUP2 DUP5 ADD MSTORE PUSH1 0x20 DUP2 ADD SWAP1 POP PUSH2 0x17B9 JUMP JUMPDEST DUP4 DUP2 GT ISZERO PUSH2 0x17E3 JUMPI PUSH1 0x0 DUP5 DUP5 ADD MSTORE JUMPDEST POP POP POP POP JUMP JUMPDEST PUSH1 0x0 PUSH1 0x2 DUP3 DIV SWAP1 POP PUSH1 0x1 DUP3 AND DUP1 PUSH2 0x1801 JUMPI PUSH1 0x7F DUP3 AND SWAP2 POP JUMPDEST PUSH1 0x20 DUP3 LT DUP2 EQ ISZERO PUSH2 0x1815 JUMPI PUSH2 0x1814 PUSH2 0x184C JUMP JUMPDEST JUMPDEST POP SWAP2 SWAP1 POP JUMP JUMPDEST PUSH2 0x1824 DUP3 PUSH2 0x18BE JUMP JUMPDEST DUP2 ADD DUP2 DUP2 LT PUSH8 0xFFFFFFFFFFFFFFFF DUP3 GT OR ISZERO PUSH2 0x1843 JUMPI PUSH2 0x1842 PUSH2 0x187B JUMP JUMPDEST JUMPDEST DUP1 PUSH1 0x40 MSTORE POP POP POP JUMP JUMPDEST PUSH32 0x4E487B7100000000000000000000000000000000000000000000000000000000 PUSH1 0x0 MSTORE PUSH1 0x22 PUSH1 0x4 MSTORE PUSH1 0x24 PUSH1 0x0 REVERT JUMPDEST PUSH32 0x4E487B7100000000000000000000000000000000000000000000000000000000 PUSH1 0x0 MSTORE PUSH1 0x41 PUSH1 0x4 MSTORE PUSH1 0x24 PUSH1 0x0 REVERT JUMPDEST PUSH1 0x0 DUP1 REVERT JUMPDEST PUSH1 0x0 DUP1 REVERT JUMPDEST PUSH1 0x0 DUP1 REVERT JUMPDEST PUSH1 0x0 DUP1 REVERT JUMPDEST PUSH1 0x0 PUSH1 0x1F NOT PUSH1 0x1F DUP4 ADD AND SWAP1 POP SWAP2 SWAP1 POP JUMP JUMPDEST PUSH32 0x496E69743A204F6E6C79206465706C6F7965722063616E20696E697400000000 PUSH1 0x0 DUP3 ADD MSTORE POP JUMP JUMPDEST PUSH32 0x53797374656D3A204F6E6C7920636F72652063616E206D6F6469667900000000 PUSH1 0x0 DUP3 ADD MSTORE POP JUMP JUMPDEST PUSH32 0x496E69743A20436F6E747261637420697320696E697469616C697A6564000000 PUSH1 0x0 DUP3 ADD MSTORE POP JUMP JUMPDEST PUSH32 0x426F6F74683A20566F7465206661696C65640000000000000000000000000000 PUSH1 0x0 DUP3 ADD MSTORE POP JUMP JUMPDEST PUSH32 0x426F6F74683A20496E76616C696420766F746520747970652F70726F70000000 PUSH1 0x0 DUP3 ADD MSTORE POP JUMP JUMPDEST PUSH2 0x19A5 DUP2 PUSH2 0x171F JUMP JUMPDEST DUP2 EQ PUSH2 0x19B0 JUMPI PUSH1 0x0 DUP1 REVERT JUMPDEST POP JUMP JUMPDEST PUSH2 0x19BC DUP2 PUSH2 0x1731 JUMP JUMPDEST DUP2 EQ PUSH2 0x19C7 JUMPI PUSH1 0x0 DUP1 REVERT JUMPDEST POP JUMP JUMPDEST PUSH2 0x19D3 DUP2 PUSH2 0x173D JUMP JUMPDEST DUP2 EQ PUSH2 0x19DE JUMPI PUSH1 0x0 DUP1 REVERT JUMPDEST POP JUMP JUMPDEST PUSH2 0x19EA DUP2 PUSH2 0x1767 JUMP JUMPDEST DUP2 EQ PUSH2 0x19F5 JUMPI PUSH1 0x0 DUP1 REVERT JUMPDEST POP JUMP INVALID LOG2 PUSH5 0x6970667358 0x22 SLT KECCAK256 JUMPI 0xF7 0xAF SLT RETURNDATASIZE BASEFEE PUSH12 0xDE98418322E23ECC15417BEB 0xF PUSH25 0x9A6F642C82A227BDBCAC6F64736F6C63430008070033000000 "
		},
		"gasEstimates": {
			"creation": {
				"codeDepositCost": "1340400",
				"executionCost": "infinite",
				"totalCost": "infinite"
			},
			"external": {
				"IDENTIFIER()": "infinite",
				"addVoteType(bytes32,address,string)": "infinite",
				"consensusReached(uint256)": "infinite",
				"core_()": "infinite",
				"getCurrentTime()": "infinite",
				"getVoteType(address)": "2936",
				"initialise(address,bytes32,string)": "infinite",
				"setCurrentTime(uint256)": "infinite",
				"timerAddress()": "2515",
				"vote(uint256,bytes)": "infinite"
			},
			"internal": {
				"_addVoteType(bytes32,address,string memory)": "infinite"
			}
		},
		"methodIdentifiers": {
			"IDENTIFIER()": "3c9747f3",
			"addVoteType(bytes32,address,string)": "cbba4b7f",
			"consensusReached(uint256)": "e343409a",
			"core_()": "eaddd0fd",
			"getCurrentTime()": "29cb924d",
			"getVoteType(address)": "69e0a1f7",
			"initialise(address,bytes32,string)": "6e3ce913",
			"setCurrentTime(uint256)": "22f8e566",
			"timerAddress()": "1c39c38d",
			"vote(uint256,bytes)": "b88b82ba"
		}
	},
	"abi": [
		{
			"inputs": [
				{
					"internalType": "address",
					"name": "_core",
					"type": "address"
				},
				{
					"internalType": "address",
					"name": "_timer",
					"type": "address"
				}
			],
			"stateMutability": "nonpayable",
			"type": "constructor"
		},
		{
			"anonymous": false,
			"inputs": [
				{
					"indexed": true,
					"internalType": "address",
					"name": "voter",
					"type": "address"
				},
				{
					"indexed": true,
					"internalType": "uint256",
					"name": "propID",
					"type": "uint256"
				},
				{
					"indexed": false,
					"internalType": "bytes",
					"name": "vote",
					"type": "bytes"
				}
			],
			"name": "VoteCast",
			"type": "event"
		},
		{
			"inputs": [],
			"name": "IDENTIFIER",
			"outputs": [
				{
					"internalType": "bytes32",
					"name": "",
					"type": "bytes32"
				}
			],
			"stateMutability": "view",
			"type": "function"
		},
		{
			"inputs": [
				{
					"internalType": "bytes32",
					"name": "_voteType",
					"type": "bytes32"
				},
				{
					"internalType": "address",
					"name": "_instance",
					"type": "address"
				},
				{
					"internalType": "string",
					"name": "_voteFormat",
					"type": "string"
				}
			],
			"name": "addVoteType",
			"outputs": [],
			"stateMutability": "nonpayable",
			"type": "function"
		},
		{
			"inputs": [
				{
					"internalType": "uint256",
					"name": "_propID",
					"type": "uint256"
				}
			],
			"name": "consensusReached",
			"outputs": [
				{
					"internalType": "bool",
					"name": "reached",
					"type": "bool"
				},
				{
					"internalType": "bool",
					"name": "votePassed",
					"type": "bool"
				}
			],
			"stateMutability": "view",
			"type": "function"
		},
		{
			"inputs": [],
			"name": "core_",
			"outputs": [
				{
					"internalType": "contract ICore",
					"name": "",
					"type": "address"
				}
			],
			"stateMutability": "view",
			"type": "function"
		},
		{
			"inputs": [],
			"name": "getCurrentTime",
			"outputs": [
				{
					"internalType": "uint256",
					"name": "",
					"type": "uint256"
				}
			],
			"stateMutability": "view",
			"type": "function"
		},
		{
			"inputs": [
				{
					"internalType": "address",
					"name": "_instance",
					"type": "address"
				}
			],
			"name": "getVoteType",
			"outputs": [
				{
					"internalType": "bytes32",
					"name": "",
					"type": "bytes32"
				}
			],
			"stateMutability": "view",
			"type": "function"
		},
		{
			"inputs": [
				{
					"internalType": "address",
					"name": "_initialVoteInstance",
					"type": "address"
				},
				{
					"internalType": "bytes32",
					"name": "_initialVoteType",
					"type": "bytes32"
				},
				{
					"internalType": "string",
					"name": "_voteFormat",
					"type": "string"
				}
			],
			"name": "initialise",
			"outputs": [],
			"stateMutability": "nonpayable",
			"type": "function"
		},
		{
			"inputs": [
				{
					"internalType": "uint256",
					"name": "time",
					"type": "uint256"
				}
			],
			"name": "setCurrentTime",
			"outputs": [],
			"stateMutability": "nonpayable",
			"type": "function"
		},
		{
			"inputs": [],
			"name": "timerAddress",
			"outputs": [
				{
					"internalType": "address",
					"name": "",
					"type": "address"
				}
			],
			"stateMutability": "view",
			"type": "function"
		},
		{
			"inputs": [
				{
					"internalType": "uint256",
					"name": "_propID",
					"type": "uint256"
				},
				{
					"internalType": "bytes",
					"name": "_vote",
					"type": "bytes"
				}
			],
			"name": "vote",
			"outputs": [],
			"stateMutability": "nonpayable",
			"type": "function"
		}
	]
}