{
  "_format": "hh-sol-artifact-1",
  "contractName": "Coord",
  "sourceName": "contracts/Coord.sol",
  "abi": [
    {
      "inputs": [
        {
          "internalType": "uint256",
          "name": "_propID",
          "type": "uint256"
        }
      ],
      "name": "isPropExecutable",
      "outputs": [
        {
          "internalType": "bool",
          "name": "",
          "type": "bool"
        },
        {
          "internalType": "bytes32",
          "name": "",
          "type": "bytes32"
        }
      ],
      "stateMutability": "nonpayable",
      "type": "function"
    }
  ],
  "bytecode": "0x608060405234801561001057600080fd5b5061016e806100206000396000f3fe608060405234801561001057600080fd5b506004361061002b5760003560e01c8063c51647a914610030575b600080fd5b61004a60048036038101906100459190610088565b610061565b6040516100589291906100d3565b60405180910390f35b60008060016000801b91509150915091565b60008135905061008281610121565b92915050565b60006020828403121561009e5761009d61011c565b5b60006100ac84828501610073565b91505092915050565b6100be816100fc565b82525050565b6100cd81610108565b82525050565b60006040820190506100e860008301856100b5565b6100f560208301846100c4565b9392505050565b60008115159050919050565b6000819050919050565b6000819050919050565b600080fd5b61012a81610112565b811461013557600080fd5b5056fea26469706673582212200ba03d77477a2d0b593d8f5ce65e6e9182078904957cae838c0c12ec5b21997464736f6c63430008070033",
  "linkReferences": {},
  "deployedLinkReferences": {}
}