{
  "_format": "hh-sol-artifact-1",
  "contractName": "Coord",
  "sourceName": "contracts/Coord.sol",
  "abi": [
    {
      "inputs": [
        {
          "internalType": "address",
          "name": "_core",
          "type": "address"
        }
      ],
      "stateMutability": "nonpayable",
      "type": "constructor"
    },
    {
      "inputs": [],
      "name": "IDENTIFIER",
      "outputs": [
        {
          "internalType": "bytes32",
          "name": "",
          "type": "bytes32"
        }
      ],
      "stateMutability": "view",
      "type": "function"
    },
    {
      "inputs": [],
      "name": "core",
      "outputs": [
        {
          "internalType": "contract ICore",
          "name": "",
          "type": "address"
        }
      ],
      "stateMutability": "view",
      "type": "function"
    },
    {
      "inputs": [
        {
          "internalType": "bytes32",
          "name": "_exeID",
          "type": "bytes32"
        }
      ],
      "name": "isExecutable",
      "outputs": [
        {
          "internalType": "bool",
          "name": "",
          "type": "bool"
        }
      ],
      "stateMutability": "view",
      "type": "function"
    }
  ],
  "bytecode": "0x60a060405234801561001057600080fd5b506040516103e03803806103e0833981810160405281019061003291906100c5565b33600060026101000a81548173ffffffffffffffffffffffffffffffffffffffff021916908373ffffffffffffffffffffffffffffffffffffffff1602179055508073ffffffffffffffffffffffffffffffffffffffff1660808173ffffffffffffffffffffffffffffffffffffffff1660601b8152505050610140565b6000815190506100bf81610129565b92915050565b6000602082840312156100db576100da610124565b5b60006100e9848285016100b0565b91505092915050565b60006100fd82610104565b9050919050565b600073ffffffffffffffffffffffffffffffffffffffff82169050919050565b600080fd5b610132816100f2565b811461013d57600080fd5b50565b60805160601c61028361015d600039600060e301526102836000f3fe608060405234801561001057600080fd5b50600436106100415760003560e01c80633c9747f3146100465780639cf782cb14610064578063f2f4eb2614610094575b600080fd5b61004e6100b2565b60405161005b919061018f565b60405180910390f35b61007e6004803603810190610079919061011a565b6100d6565b60405161008b9190610174565b60405180910390f35b61009c6100e1565b6040516100a991906101aa565b60405180910390f35b7fd578563424ab02f85ec03c6b1aee04947ebdd4a30db46cba3bcd7f56ef40b19981565b600060019050919050565b7f000000000000000000000000000000000000000000000000000000000000000081565b60008135905061011481610236565b92915050565b6000602082840312156101305761012f610231565b5b600061013e84828501610105565b91505092915050565b610150816101c5565b82525050565b61015f816101d1565b82525050565b61016e816101fb565b82525050565b60006020820190506101896000830184610147565b92915050565b60006020820190506101a46000830184610156565b92915050565b60006020820190506101bf6000830184610165565b92915050565b60008115159050919050565b6000819050919050565b600073ffffffffffffffffffffffffffffffffffffffff82169050919050565b60006102068261020d565b9050919050565b60006102188261021f565b9050919050565b600061022a826101db565b9050919050565b600080fd5b61023f816101d1565b811461024a57600080fd5b5056fea26469706673582212203e6030f0f0c98a7a17b609729aaa7dc0406f527f62502e62c76f048a1ae0130964736f6c63430008070033",
  "linkReferences": {},
  "deployedLinkReferences": {}
}