{
  "_format": "hh-sol-artifact-1",
  "contractName": "TestExecutable",
  "sourceName": "contracts/test/TestExecutable.sol",
  "abi": [
    {
      "inputs": [],
      "name": "aBytes",
      "outputs": [
        {
          "internalType": "bytes32",
          "name": "",
          "type": "bytes32"
        }
      ],
      "stateMutability": "view",
      "type": "function"
    },
    {
      "inputs": [],
      "name": "aNumber",
      "outputs": [
        {
          "internalType": "uint256",
          "name": "",
          "type": "uint256"
        }
      ],
      "stateMutability": "view",
      "type": "function"
    },
    {
      "inputs": [],
      "name": "anAddress",
      "outputs": [
        {
          "internalType": "address",
          "name": "",
          "type": "address"
        }
      ],
      "stateMutability": "view",
      "type": "function"
    },
    {
      "inputs": [
        {
          "internalType": "bool",
          "name": "_input",
          "type": "bool"
        }
      ],
      "name": "encodeBool",
      "outputs": [
        {
          "internalType": "bytes",
          "name": "",
          "type": "bytes"
        }
      ],
      "stateMutability": "pure",
      "type": "function"
    },
    {
      "inputs": [
        {
          "internalType": "address",
          "name": "_address",
          "type": "address"
        },
        {
          "internalType": "uint256",
          "name": "_number",
          "type": "uint256"
        }
      ],
      "name": "encodeBytes",
      "outputs": [
        {
          "internalType": "bytes",
          "name": "",
          "type": "bytes"
        }
      ],
      "stateMutability": "pure",
      "type": "function"
    },
    {
      "inputs": [
        {
          "internalType": "string",
          "name": "_string",
          "type": "string"
        }
      ],
      "name": "encodeBytes32",
      "outputs": [
        {
          "internalType": "bytes32",
          "name": "",
          "type": "bytes32"
        }
      ],
      "stateMutability": "pure",
      "type": "function"
    },
    {
      "inputs": [
        {
          "internalType": "string",
          "name": "_string",
          "type": "string"
        }
      ],
      "name": "encodeBytes4",
      "outputs": [
        {
          "internalType": "bytes32",
          "name": "",
          "type": "bytes32"
        }
      ],
      "stateMutability": "pure",
      "type": "function"
    },
    {
      "inputs": [
        {
          "internalType": "bytes32",
          "name": "_exeID",
          "type": "bytes32"
        }
      ],
      "name": "isExecutable",
      "outputs": [
        {
          "internalType": "bool",
          "name": "",
          "type": "bool"
        }
      ],
      "stateMutability": "pure",
      "type": "function"
    },
    {
      "inputs": [
        {
          "internalType": "bytes32",
          "name": "_aBytes",
          "type": "bytes32"
        }
      ],
      "name": "setBytes",
      "outputs": [],
      "stateMutability": "nonpayable",
      "type": "function"
    },
    {
      "inputs": [
        {
          "internalType": "uint256",
          "name": "_aNumber",
          "type": "uint256"
        }
      ],
      "name": "setNumber",
      "outputs": [],
      "stateMutability": "nonpayable",
      "type": "function"
    }
  ],
  "bytecode": "0x608060405234801561001057600080fd5b50610a22806100206000396000f3fe608060405234801561001057600080fd5b506004361061009e5760003560e01c80639cf782cb116100665780639cf782cb1461016d578063a8b0c8451461019d578063e06c9bc3146101cd578063e6748da9146101eb578063e6a899b6146102075761009e565b8063106e73e1146100a357806316163c89146100d35780633fb5c1cb14610103578063934fb5f71461011f578063935760e71461014f575b600080fd5b6100bd60048036038101906100b8919061051a565b610225565b6040516100ca91906106d7565b60405180910390f35b6100ed60048036038101906100e891906104c0565b610279565b6040516100fa91906106f2565b60405180910390f35b61011d60048036038101906101189190610567565b6102a2565b005b6101396004803603810190610134919061051a565b6102ed565b60405161014691906106d7565b60405180910390f35b610157610322565b60405161016491906106a1565b60405180910390f35b610187600480360381019061018291906104ed565b610348565b60405161019491906106bc565b60405180910390f35b6101b760048036038101906101b29190610480565b610353565b6040516101c491906106f2565b60405180910390f35b6101d561037f565b6040516101e291906106d7565b60405180910390f35b610205600480360381019061020091906104ed565b610385565b005b61020f6103d0565b60405161021c9190610714565b60405180910390f35b6000828260405160200161023a929190610688565b6040516020818303038152906040526102529061084b565b7bffffffffffffffffffffffffffffffffffffffffffffffffffffffff1916905092915050565b60608160405160200161028c91906106bc565b6040516020818303038152906040529050919050565b8060008190555033600160006101000a81548173ffffffffffffffffffffffffffffffffffffffff021916908373ffffffffffffffffffffffffffffffffffffffff16021790555050565b60008282604051602001610302929190610688565b60405160208183030381529060405261031a906107e4565b905092915050565b600160009054906101000a900473ffffffffffffffffffffffffffffffffffffffff1681565b600060019050919050565b6060828260405160200161036892919061065c565b604051602081830303815290604052905092915050565b60025481565b8060028190555033600160006101000a81548173ffffffffffffffffffffffffffffffffffffffff021916908373ffffffffffffffffffffffffffffffffffffffff16021790555050565b60005481565b6000813590506103e581610990565b92915050565b6000813590506103fa816109a7565b92915050565b60008135905061040f816109be565b92915050565b60008083601f84011261042b5761042a610951565b5b8235905067ffffffffffffffff8111156104485761044761094c565b5b60208301915083600182028301111561046457610463610956565b5b9250929050565b60008135905061047a816109d5565b92915050565b6000806040838503121561049757610496610960565b5b60006104a5858286016103d6565b92505060206104b68582860161046b565b9150509250929050565b6000602082840312156104d6576104d5610960565b5b60006104e4848285016103eb565b91505092915050565b60006020828403121561050357610502610960565b5b600061051184828501610400565b91505092915050565b6000806020838503121561053157610530610960565b5b600083013567ffffffffffffffff81111561054f5761054e61095b565b5b61055b85828601610415565b92509250509250929050565b60006020828403121561057d5761057c610960565b5b600061058b8482850161046b565b91505092915050565b61059d81610766565b82525050565b6105b46105af82610766565b6108f4565b82525050565b6105c381610778565b82525050565b6105d281610784565b82525050565b60006105e38261073f565b6105ed818561074a565b93506105fd8185602086016108c1565b61060681610965565b840191505092915050565b600061061d838561075b565b935061062a8385846108b2565b82840190509392505050565b61063f816107da565b82525050565b610656610651826107da565b610918565b82525050565b600061066882856105a3565b6014820191506106788284610645565b6020820191508190509392505050565b6000610695828486610611565b91508190509392505050565b60006020820190506106b66000830184610594565b92915050565b60006020820190506106d160008301846105ba565b92915050565b60006020820190506106ec60008301846105c9565b92915050565b6000602082019050818103600083015261070c81846105d8565b905092915050565b60006020820190506107296000830184610636565b92915050565b6000819050602082019050919050565b600081519050919050565b600082825260208201905092915050565b600081905092915050565b6000610771826107ba565b9050919050565b60008115159050919050565b6000819050919050565b60007fffffffff0000000000000000000000000000000000000000000000000000000082169050919050565b600073ffffffffffffffffffffffffffffffffffffffff82169050919050565b6000819050919050565b60006107ef8261073f565b826107f98461072f565b905061080481610922565b925060208210156108445761083f7fffffffffffffffffffffffffffffffffffffffffffffffffffffffffffffffff83602003600802610983565b831692505b5050919050565b60006108568261073f565b826108608461072f565b905061086b81610937565b925060048210156108ab576108a67fffffffff0000000000000000000000000000000000000000000000000000000083600403600802610983565b831692505b5050919050565b82818337600083830152505050565b60005b838110156108df5780820151818401526020810190506108c4565b838111156108ee576000848401525b50505050565b60006108ff82610906565b9050919050565b600061091182610976565b9050919050565b6000819050919050565b600061092e8251610784565b80915050919050565b6000610943825161078e565b80915050919050565b600080fd5b600080fd5b600080fd5b600080fd5b600080fd5b6000601f19601f8301169050919050565b60008160601b9050919050565b600082821b905092915050565b61099981610766565b81146109a457600080fd5b50565b6109b081610778565b81146109bb57600080fd5b50565b6109c781610784565b81146109d257600080fd5b50565b6109de816107da565b81146109e957600080fd5b5056fea2646970667358221220efa9ec60263a973758486f255a2b6734e8a5d8c2cc46af602d22e1fb3f844f9064736f6c63430008070033",
  "linkReferences": {},
  "deployedLinkReferences": {}
}