{
  "_format": "hh-sol-artifact-1",
  "contractName": "TestExecutable",
  "sourceName": "contracts/test/TestExecutable.sol",
  "abi": [
    {
      "inputs": [
        {
          "internalType": "address",
          "name": "_timer",
          "type": "address"
        }
      ],
      "stateMutability": "nonpayable",
      "type": "constructor"
    },
    {
      "inputs": [],
      "name": "aBytes",
      "outputs": [
        {
          "internalType": "bytes32",
          "name": "",
          "type": "bytes32"
        }
      ],
      "stateMutability": "view",
      "type": "function"
    },
    {
      "inputs": [],
      "name": "aNumber",
      "outputs": [
        {
          "internalType": "uint256",
          "name": "",
          "type": "uint256"
        }
      ],
      "stateMutability": "view",
      "type": "function"
    },
    {
      "inputs": [],
      "name": "anAddress",
      "outputs": [
        {
          "internalType": "address",
          "name": "",
          "type": "address"
        }
      ],
      "stateMutability": "view",
      "type": "function"
    },
    {
      "inputs": [
        {
          "internalType": "bool",
          "name": "_input",
          "type": "bool"
        }
      ],
      "name": "encodeBool",
      "outputs": [
        {
          "internalType": "bytes",
          "name": "",
          "type": "bytes"
        }
      ],
      "stateMutability": "pure",
      "type": "function"
    },
    {
      "inputs": [
        {
          "internalType": "address",
          "name": "_address",
          "type": "address"
        },
        {
          "internalType": "uint256",
          "name": "_number",
          "type": "uint256"
        }
      ],
      "name": "encodeBytes",
      "outputs": [
        {
          "internalType": "bytes",
          "name": "",
          "type": "bytes"
        }
      ],
      "stateMutability": "pure",
      "type": "function"
    },
    {
      "inputs": [
        {
          "internalType": "string",
          "name": "_string",
          "type": "string"
        }
      ],
      "name": "encodeBytes32",
      "outputs": [
        {
          "internalType": "bytes32",
          "name": "",
          "type": "bytes32"
        }
      ],
      "stateMutability": "pure",
      "type": "function"
    },
    {
      "inputs": [
        {
          "internalType": "string",
          "name": "_string",
          "type": "string"
        }
      ],
      "name": "encodeBytes4",
      "outputs": [
        {
          "internalType": "bytes32",
          "name": "",
          "type": "bytes32"
        }
      ],
      "stateMutability": "pure",
      "type": "function"
    },
    {
      "inputs": [],
      "name": "getCurrentTime",
      "outputs": [
        {
          "internalType": "uint256",
          "name": "",
          "type": "uint256"
        }
      ],
      "stateMutability": "view",
      "type": "function"
    },
    {
      "inputs": [],
      "name": "getTime",
      "outputs": [
        {
          "internalType": "uint256",
          "name": "",
          "type": "uint256"
        }
      ],
      "stateMutability": "view",
      "type": "function"
    },
    {
      "inputs": [
        {
          "internalType": "bytes32",
          "name": "_exeID",
          "type": "bytes32"
        }
      ],
      "name": "isExecutable",
      "outputs": [
        {
          "internalType": "bool",
          "name": "",
          "type": "bool"
        }
      ],
      "stateMutability": "pure",
      "type": "function"
    },
    {
      "inputs": [
        {
          "internalType": "bytes32",
          "name": "_aBytes",
          "type": "bytes32"
        }
      ],
      "name": "setBytes",
      "outputs": [],
      "stateMutability": "nonpayable",
      "type": "function"
    },
    {
      "inputs": [
        {
          "internalType": "uint256",
          "name": "time",
          "type": "uint256"
        }
      ],
      "name": "setCurrentTime",
      "outputs": [],
      "stateMutability": "nonpayable",
      "type": "function"
    },
    {
      "inputs": [
        {
          "internalType": "uint256",
          "name": "_aNumber",
          "type": "uint256"
        }
      ],
      "name": "setNumber",
      "outputs": [],
      "stateMutability": "nonpayable",
      "type": "function"
    },
    {
      "inputs": [],
      "name": "timerAddress",
      "outputs": [
        {
          "internalType": "address",
          "name": "",
          "type": "address"
        }
      ],
      "stateMutability": "view",
      "type": "function"
    }
  ],
  "bytecode": "0x608060405234801561001057600080fd5b50604051610e5b380380610e5b8339818101604052810190610032919061008f565b80806000806101000a81548173ffffffffffffffffffffffffffffffffffffffff021916908373ffffffffffffffffffffffffffffffffffffffff160217905550505061010a565b600081519050610089816100f3565b92915050565b6000602082840312156100a5576100a46100ee565b5b60006100b38482850161007a565b91505092915050565b60006100c7826100ce565b9050919050565b600073ffffffffffffffffffffffffffffffffffffffff82169050919050565b600080fd5b6100fc816100bc565b811461010757600080fd5b50565b610d42806101196000396000f3fe608060405234801561001057600080fd5b50600436106100ea5760003560e01c8063934fb5f71161008c578063a8b0c84511610066578063a8b0c8451461025f578063e06c9bc31461028f578063e6748da9146102ad578063e6a899b6146102c9576100ea565b8063934fb5f7146101e1578063935760e7146102115780639cf782cb1461022f576100ea565b806322f8e566116100c857806322f8e5661461016d57806329cb924d146101895780633fb5c1cb146101a7578063557ed1ba146101c3576100ea565b8063106e73e1146100ef57806316163c891461011f5780631c39c38d1461014f575b600080fd5b6101096004803603810190610104919061080d565b6102e7565b60405161011691906109f7565b60405180910390f35b610139600480360381019061013491906107b3565b61033b565b6040516101469190610a12565b60405180910390f35b610157610364565b60405161016491906109c1565b60405180910390f35b6101876004803603810190610182919061085a565b610388565b005b610191610470565b60405161019e9190610a34565b60405180910390f35b6101c160048036038101906101bc919061085a565b610571565b005b6101cb6105bc565b6040516101d89190610a34565b60405180910390f35b6101fb60048036038101906101f6919061080d565b6105cb565b60405161020891906109f7565b60405180910390f35b610219610600565b60405161022691906109c1565b60405180910390f35b610249600480360381019061024491906107e0565b610626565b60405161025691906109dc565b60405180910390f35b61027960048036038101906102749190610773565b610631565b6040516102869190610a12565b60405180910390f35b61029761065d565b6040516102a491906109f7565b60405180910390f35b6102c760048036038101906102c291906107e0565b610663565b005b6102d16106ae565b6040516102de9190610a34565b60405180910390f35b600082826040516020016102fc9291906109a8565b60405160208183030381529060405261031490610b6b565b7bffffffffffffffffffffffffffffffffffffffffffffffffffffffff1916905092915050565b60608160405160200161034e91906109dc565b6040516020818303038152906040529050919050565b60008054906101000a900473ffffffffffffffffffffffffffffffffffffffff1681565b600073ffffffffffffffffffffffffffffffffffffffff1660008054906101000a900473ffffffffffffffffffffffffffffffffffffffff1673ffffffffffffffffffffffffffffffffffffffff1614156103e257600080fd5b60008054906101000a900473ffffffffffffffffffffffffffffffffffffffff1673ffffffffffffffffffffffffffffffffffffffff166322f8e566826040518263ffffffff1660e01b815260040161043b9190610a34565b600060405180830381600087803b15801561045557600080fd5b505af1158015610469573d6000803e3d6000fd5b5050505050565b60008073ffffffffffffffffffffffffffffffffffffffff1660008054906101000a900473ffffffffffffffffffffffffffffffffffffffff1673ffffffffffffffffffffffffffffffffffffffff161461056a5760008054906101000a900473ffffffffffffffffffffffffffffffffffffffff1673ffffffffffffffffffffffffffffffffffffffff166329cb924d6040518163ffffffff1660e01b815260040160206040518083038186803b15801561052b57600080fd5b505afa15801561053f573d6000803e3d6000fd5b505050506040513d601f19601f820116820180604052508101906105639190610887565b905061056e565b4290505b90565b8060018190555033600260006101000a81548173ffffffffffffffffffffffffffffffffffffffff021916908373ffffffffffffffffffffffffffffffffffffffff16021790555050565b60006105c6610470565b905090565b600082826040516020016105e09291906109a8565b6040516020818303038152906040526105f890610b04565b905092915050565b600260009054906101000a900473ffffffffffffffffffffffffffffffffffffffff1681565b600060019050919050565b6060828260405160200161064692919061097c565b604051602081830303815290604052905092915050565b60035481565b8060038190555033600260006101000a81548173ffffffffffffffffffffffffffffffffffffffff021916908373ffffffffffffffffffffffffffffffffffffffff16021790555050565b60015481565b6000813590506106c381610cb0565b92915050565b6000813590506106d881610cc7565b92915050565b6000813590506106ed81610cde565b92915050565b60008083601f84011261070957610708610c71565b5b8235905067ffffffffffffffff81111561072657610725610c6c565b5b60208301915083600182028301111561074257610741610c76565b5b9250929050565b60008135905061075881610cf5565b92915050565b60008151905061076d81610cf5565b92915050565b6000806040838503121561078a57610789610c80565b5b6000610798858286016106b4565b92505060206107a985828601610749565b9150509250929050565b6000602082840312156107c9576107c8610c80565b5b60006107d7848285016106c9565b91505092915050565b6000602082840312156107f6576107f5610c80565b5b6000610804848285016106de565b91505092915050565b6000806020838503121561082457610823610c80565b5b600083013567ffffffffffffffff81111561084257610841610c7b565b5b61084e858286016106f3565b92509250509250929050565b6000602082840312156108705761086f610c80565b5b600061087e84828501610749565b91505092915050565b60006020828403121561089d5761089c610c80565b5b60006108ab8482850161075e565b91505092915050565b6108bd81610a86565b82525050565b6108d46108cf82610a86565b610c14565b82525050565b6108e381610a98565b82525050565b6108f281610aa4565b82525050565b600061090382610a5f565b61090d8185610a6a565b935061091d818560208601610be1565b61092681610c85565b840191505092915050565b600061093d8385610a7b565b935061094a838584610bd2565b82840190509392505050565b61095f81610afa565b82525050565b61097661097182610afa565b610c38565b82525050565b600061098882856108c3565b6014820191506109988284610965565b6020820191508190509392505050565b60006109b5828486610931565b91508190509392505050565b60006020820190506109d660008301846108b4565b92915050565b60006020820190506109f160008301846108da565b92915050565b6000602082019050610a0c60008301846108e9565b92915050565b60006020820190508181036000830152610a2c81846108f8565b905092915050565b6000602082019050610a496000830184610956565b92915050565b6000819050602082019050919050565b600081519050919050565b600082825260208201905092915050565b600081905092915050565b6000610a9182610ada565b9050919050565b60008115159050919050565b6000819050919050565b60007fffffffff0000000000000000000000000000000000000000000000000000000082169050919050565b600073ffffffffffffffffffffffffffffffffffffffff82169050919050565b6000819050919050565b6000610b0f82610a5f565b82610b1984610a4f565b9050610b2481610c42565b92506020821015610b6457610b5f7fffffffffffffffffffffffffffffffffffffffffffffffffffffffffffffffff83602003600802610ca3565b831692505b5050919050565b6000610b7682610a5f565b82610b8084610a4f565b9050610b8b81610c57565b92506004821015610bcb57610bc67fffffffff0000000000000000000000000000000000000000000000000000000083600403600802610ca3565b831692505b5050919050565b82818337600083830152505050565b60005b83811015610bff578082015181840152602081019050610be4565b83811115610c0e576000848401525b50505050565b6000610c1f82610c26565b9050919050565b6000610c3182610c96565b9050919050565b6000819050919050565b6000610c4e8251610aa4565b80915050919050565b6000610c638251610aae565b80915050919050565b600080fd5b600080fd5b600080fd5b600080fd5b600080fd5b6000601f19601f8301169050919050565b60008160601b9050919050565b600082821b905092915050565b610cb981610a86565b8114610cc457600080fd5b50565b610cd081610a98565b8114610cdb57600080fd5b50565b610ce781610aa4565b8114610cf257600080fd5b50565b610cfe81610afa565b8114610d0957600080fd5b5056fea264697066735822122087770428960fa115813a788242951a3c9c00909b0b92271f41f1e17efa588d5264736f6c63430008070033",
  "linkReferences": {},
  "deployedLinkReferences": {}
}