{
  "_format": "hh-sol-artifact-1",
  "contractName": "TestExecutable",
  "sourceName": "contracts/test/TestExecutable.sol",
  "abi": [
    {
      "inputs": [
        {
          "internalType": "address",
          "name": "_timer",
          "type": "address"
        }
      ],
      "stateMutability": "nonpayable",
      "type": "constructor"
    },
    {
      "inputs": [],
      "name": "IDENTIFIER",
      "outputs": [
        {
          "internalType": "bytes32",
          "name": "",
          "type": "bytes32"
        }
      ],
      "stateMutability": "view",
      "type": "function"
    },
    {
      "inputs": [],
      "name": "aBytes",
      "outputs": [
        {
          "internalType": "bytes32",
          "name": "",
          "type": "bytes32"
        }
      ],
      "stateMutability": "view",
      "type": "function"
    },
    {
      "inputs": [],
      "name": "aNumber",
      "outputs": [
        {
          "internalType": "uint256",
          "name": "",
          "type": "uint256"
        }
      ],
      "stateMutability": "view",
      "type": "function"
    },
    {
      "inputs": [
        {
          "internalType": "address",
          "name": "_coord",
          "type": "address"
        },
        {
          "internalType": "bytes32",
          "name": "_subIdentifier",
          "type": "bytes32"
        },
        {
          "internalType": "address",
          "name": "_subImplementation",
          "type": "address"
        }
      ],
      "name": "addSub",
      "outputs": [],
      "stateMutability": "nonpayable",
      "type": "function"
    },
    {
      "inputs": [],
      "name": "anAddress",
      "outputs": [
        {
          "internalType": "address",
          "name": "",
          "type": "address"
        }
      ],
      "stateMutability": "view",
      "type": "function"
    },
    {
      "inputs": [
        {
          "internalType": "bytes32",
          "name": "c__0x0da7e8db",
          "type": "bytes32"
        }
      ],
      "name": "c_0x0da7e8db",
      "outputs": [],
      "stateMutability": "pure",
      "type": "function"
    },
    {
      "inputs": [
        {
          "internalType": "bytes32",
          "name": "c__0xf06a18d2",
          "type": "bytes32"
        }
      ],
      "name": "c_0xf06a18d2",
      "outputs": [],
      "stateMutability": "pure",
      "type": "function"
    },
    {
      "inputs": [
        {
          "internalType": "address",
          "name": "_index",
          "type": "address"
        }
      ],
      "name": "encodeAddress",
      "outputs": [
        {
          "internalType": "bytes",
          "name": "",
          "type": "bytes"
        }
      ],
      "stateMutability": "pure",
      "type": "function"
    },
    {
      "inputs": [
        {
          "internalType": "bool",
          "name": "_input",
          "type": "bool"
        }
      ],
      "name": "encodeBool",
      "outputs": [
        {
          "internalType": "bytes",
          "name": "",
          "type": "bytes"
        }
      ],
      "stateMutability": "pure",
      "type": "function"
    },
    {
      "inputs": [
        {
          "internalType": "address",
          "name": "_address",
          "type": "address"
        },
        {
          "internalType": "uint256",
          "name": "_number",
          "type": "uint256"
        }
      ],
      "name": "encodeBytes",
      "outputs": [
        {
          "internalType": "bytes",
          "name": "",
          "type": "bytes"
        }
      ],
      "stateMutability": "pure",
      "type": "function"
    },
    {
      "inputs": [
        {
          "internalType": "string",
          "name": "_string",
          "type": "string"
        }
      ],
      "name": "encodeBytes32",
      "outputs": [
        {
          "internalType": "bytes32",
          "name": "",
          "type": "bytes32"
        }
      ],
      "stateMutability": "pure",
      "type": "function"
    },
    {
      "inputs": [
        {
          "internalType": "bytes32",
          "name": "_key",
          "type": "bytes32"
        },
        {
          "internalType": "address",
          "name": "_index",
          "type": "address"
        }
      ],
      "name": "encodeKeyAddress",
      "outputs": [
        {
          "internalType": "bytes",
          "name": "",
          "type": "bytes"
        }
      ],
      "stateMutability": "pure",
      "type": "function"
    },
    {
      "inputs": [],
      "name": "getCurrentTime",
      "outputs": [
        {
          "internalType": "uint256",
          "name": "",
          "type": "uint256"
        }
      ],
      "stateMutability": "view",
      "type": "function"
    },
    {
      "inputs": [],
      "name": "getTime",
      "outputs": [
        {
          "internalType": "uint256",
          "name": "",
          "type": "uint256"
        }
      ],
      "stateMutability": "view",
      "type": "function"
    },
    {
      "inputs": [
        {
          "internalType": "bytes32",
          "name": "_exeID",
          "type": "bytes32"
        }
      ],
      "name": "isExecutable",
      "outputs": [
        {
          "internalType": "bool",
          "name": "",
          "type": "bool"
        }
      ],
      "stateMutability": "pure",
      "type": "function"
    },
    {
      "inputs": [
        {
          "internalType": "bytes32",
          "name": "_aBytes",
          "type": "bytes32"
        }
      ],
      "name": "setBytes",
      "outputs": [],
      "stateMutability": "nonpayable",
      "type": "function"
    },
    {
      "inputs": [
        {
          "internalType": "uint256",
          "name": "time",
          "type": "uint256"
        }
      ],
      "name": "setCurrentTime",
      "outputs": [],
      "stateMutability": "nonpayable",
      "type": "function"
    },
    {
      "inputs": [
        {
          "internalType": "uint256",
          "name": "_aNumber",
          "type": "uint256"
        }
      ],
      "name": "setNumber",
      "outputs": [],
      "stateMutability": "nonpayable",
      "type": "function"
    },
    {
      "inputs": [],
      "name": "timerAddress",
      "outputs": [
        {
          "internalType": "address",
          "name": "",
          "type": "address"
        }
      ],
      "stateMutability": "view",
      "type": "function"
    }
  ],
  "bytecode": "0x60a06040523480156200001157600080fd5b5060405162001a3438038062001a348339818101604052810190620000379190620001fd565b806200006c7fb4dd8b063f43faf32d5335822e2f70ca2407748b186159c1ed4fe5975bf48fa460001b620001e060201b60201c565b620000a07fdf0a09891d7ec0658602054cf2c2e2a41244c011d975b6b3df84f87f4e01f1fa60001b620001e060201b60201c565b620000d47f74aa4cf06a04b763c651dbe9c8d04358ebbbd2cc4e1e17afd7713fac4af5ab8260001b620001e060201b60201c565b806000806101000a81548173ffffffffffffffffffffffffffffffffffffffff021916908373ffffffffffffffffffffffffffffffffffffffff16021790555050620001497feb9e9840d98b2a912b8454c89ad584bef6ddf9f66a4fa54c908f30a92c6c8ca060001b620001e360201b60201c565b6200017d7f82ff06c9e598cf6e4d308155af672d429d7f44afc387641efa31b47e28c3c97e60001b620001e360201b60201c565b620001b17f5323d3ea646b94cbd4e357d4a797a415b978e6d2abb2dc773609da8116a4cc1260001b620001e360201b60201c565b7f595bdf96918d0ad7f43f4c1d0843b468a6c7d543f2cfa9019e5e891a9f67c27b608081815250505062000282565b50565b50565b600081519050620001f78162000268565b92915050565b60006020828403121562000216576200021562000263565b5b60006200022684828501620001e6565b91505092915050565b60006200023c8262000243565b9050919050565b600073ffffffffffffffffffffffffffffffffffffffff82169050919050565b600080fd5b62000273816200022f565b81146200027f57600080fd5b50565b6080516117966200029e600039600061099501526117966000f3fe608060405234801561001057600080fd5b50600436106101215760003560e01c80636f6fb0a4116100ad578063c6efc0c111610071578063c6efc0c11461031c578063d32b1bea14610338578063e06c9bc314610368578063e6748da914610386578063e6a899b6146103a257610121565b80636f6fb0a41461023e578063934fb5f71461026e578063935760e71461029e5780639cf782cb146102bc578063a8b0c845146102ec57610121565b80633c9747f3116100f45780633c9747f3146101ae5780633fb5c1cb146101cc578063557ed1ba146101e857806361e4a6c91461020657806369142dc91461022257610121565b806316163c89146101265780631c39c38d1461015657806322f8e5661461017457806329cb924d14610190575b600080fd5b610140600480360381019061013b9190611299565b6103c0565b60405161014d919061151f565b60405180910390f35b61015e61046d565b60405161016b919061147c565b60405180910390f35b61018e60048036038101906101899190611380565b610491565b005b610198610705565b6040516101a59190611565565b60405180910390f35b6101b6610993565b6040516101c391906114db565b60405180910390f35b6101e660048036038101906101e19190611380565b6109b7565b005b6101f0610ade565b6040516101fd9190611565565b60405180910390f35b610220600480360381019061021b91906112c6565b610b71565b005b61023c60048036038101906102379190611206565b610b74565b005b610258600480360381019061025391906112f3565b610c6a565b604051610265919061151f565b60405180910390f35b61028860048036038101906102839190611333565b610d1a565b60405161029591906114db565b60405180910390f35b6102a6610dd3565b6040516102b3919061147c565b60405180910390f35b6102d660048036038101906102d191906112c6565b610df9565b6040516102e391906114c0565b60405180910390f35b61030660048036038101906103019190611259565b610e88565b604051610313919061151f565b60405180910390f35b610336600480360381019061033191906112c6565b610f38565b005b610352600480360381019061034d91906111d9565b610f3b565b60405161035f919061151f565b60405180910390f35b610370610fe7565b60405161037d91906114db565b60405180910390f35b6103a0600480360381019061039b91906112c6565b610fed565b005b6103aa611114565b6040516103b79190611565565b60405180910390f35b60606103ee7fd064773c8a69d709ea204e538619791a115c7160cd59967eafa9965bb01c726e60001b610f38565b61041a7f683b732597703d19cb4c1a11cdd050328cbb9f94c3f46f699982041b609e2c1360001b610f38565b6104467f4cda5aebed9afa87bf9266b57a2868738011ac88edd67433531e48178387c65f60001b610f38565b8160405160200161045791906114c0565b6040516020818303038152906040529050919050565b60008054906101000a900473ffffffffffffffffffffffffffffffffffffffff1681565b6104bd7f6f9ae8edea4a5ca594982c8c889dce6d3960ecead6d85640cfaeefab4965137c60001b610b71565b6104e97f6eebb330cb0c74c8c0a3ebded6ac701f48b060de13591c74ab4785681b589f0c60001b610b71565b6105157f36c1556249a63a81b58af6fdcad0065ddcb58894bd16e2b1bf48df8c292c738560001b610b71565b6105417f27d0da14a88f9fdfd196625fc7df7cbe0aa29fb76c0f7bf605cbb6d8aea6f1ff60001b610b71565b600073ffffffffffffffffffffffffffffffffffffffff1660008054906101000a900473ffffffffffffffffffffffffffffffffffffffff1673ffffffffffffffffffffffffffffffffffffffff16141561059b57600080fd5b6105c77f627e7f681529433198cf60e7806c37173ef6d256c8dad2832dc14d984d63c81560001b610b71565b6105f37faf0631e8e987467954b158416256f14065683e999a12c243f4a4bc80c6573a8160001b610b71565b61061f7fa032f460f3852175b8933100cc9d781f5b5cff200a63b0672b41cef6cafef80c60001b610b71565b61064b7f900be1020eac74e7a6523a153b11dd4ba203e5d968d1d2d104979e3ff33e9cef60001b610b71565b6106777f6d7d330e8510a19129b2b889c08c7f30e23b59da3f683ee0df8e8e5100917e1760001b610b71565b60008054906101000a900473ffffffffffffffffffffffffffffffffffffffff1673ffffffffffffffffffffffffffffffffffffffff166322f8e566826040518263ffffffff1660e01b81526004016106d09190611565565b600060405180830381600087803b1580156106ea57600080fd5b505af11580156106fe573d6000803e3d6000fd5b5050505050565b60006107337fd47833f51fc5ec0f8a24234f14627d428c69063796f9630201d1dc1058ae8e5760001b610b71565b61075f7f0b69545d716b02169fb0a154958cf479d6c74febdce881af2cad9c6bed4b0c3b60001b610b71565b61078b7f570eff7e9b79704810f3de14032f6898e0c4ee6c9024ca8a4efe0aea7091fa5f60001b610b71565b600073ffffffffffffffffffffffffffffffffffffffff1660008054906101000a900473ffffffffffffffffffffffffffffffffffffffff1673ffffffffffffffffffffffffffffffffffffffff16146109085761080b7f647590469700e029974926aa472ac468fe95744326892633413c8c201ed298c060001b610b71565b6108377f107a4f7720644a8f8f993f44f4c11c80b4c882005d7ffff284e62ffc5cd9533b60001b610b71565b6108637f449a6ac96c66c2f10c6f7037b7566faf778bcdfef39e56e364596f87914ef8a260001b610b71565b60008054906101000a900473ffffffffffffffffffffffffffffffffffffffff1673ffffffffffffffffffffffffffffffffffffffff166329cb924d6040518163ffffffff1660e01b815260040160206040518083038186803b1580156108c957600080fd5b505afa1580156108dd573d6000803e3d6000fd5b505050506040513d601f19601f8201168201806040525081019061090191906113ad565b9050610990565b6109347ff81c329ab48f42d2998e2454dc7c351806520aa7f6d72b2e468d72814fdfe64a60001b610b71565b6109607fc5895091758a048fba2cd20e5b0c510227acf44c1b622ab8b72e135767e7aa6660001b610b71565b61098c7fb60b2b01d584079a590a86b90ecde07699cb728ea718e85d0f63afb9f1bbc67360001b610b71565b4290505b90565b7f000000000000000000000000000000000000000000000000000000000000000081565b6109e37fec42ab74506371081690fa26d971bb10df97fcc4c0b4bb55e3e7f588d87de1dc60001b610f38565b610a0f7facae7b7497dc483485a2368d799b58b4c242016df4adeea8ac3f99380c934d5f60001b610f38565b610a3b7f06d3fd81f887a6ba1257d6c9688a1aae5047a3ae1c47c70c36402d3a7732f3e660001b610f38565b80600181905550610a6e7f2354d92d50fef4e82629da891e31c2f091ac4edbb21090d9f6b1d36abf8d215e60001b610f38565b610a9a7fd7c94cfd162b88fdd600ea35cb5817bcfd1fc6dfbf22cbd0bf17e2f64d2ad09160001b610f38565b33600260006101000a81548173ffffffffffffffffffffffffffffffffffffffff021916908373ffffffffffffffffffffffffffffffffffffffff16021790555050565b6000610b0c7f766aaf99e36a73db1fba320be4917fddf1780d477f323881d04f290bfa9c524860001b610f38565b610b387f05e71a919b52c106909359ed8e431f0aba6f5de8e10b71489ff48da7a0f35b9760001b610f38565b610b647f3a0411ed57da0940b0dfe4a7113ad6745f28c79cf41bbd595c893fea166704e360001b610f38565b610b6c610705565b905090565b50565b610ba07f87efb2a5730253eca74a3bc757c62f4411e2f49c30c9167f797bd1787321151660001b610f38565b610bcc7f14de12b1fcda8317546289f6d0cb45fe595884ba288717fe270148617424cb7a60001b610f38565b610bf87f66cc5a2376e2e64e744e6915006f45c2a70c3f56855f5863e498cc3a47fddad960001b610f38565b8273ffffffffffffffffffffffffffffffffffffffff166338c6878283836040518363ffffffff1660e01b8152600401610c339291906114f6565b600060405180830381600087803b158015610c4d57600080fd5b505af1158015610c61573d6000803e3d6000fd5b50505050505050565b6060610c987fec518912146f883725f2d6578181b500c8884624f0ba8e92fd9f8e11fa96271660001b610f38565b610cc47f5b4d9e5571b3a971d3a95c7ed5a625cdc2734ece134efcc6f962a49699f2facf60001b610f38565b610cf07f515017e0f5507fbe8f654776417487eb834dabc41cafed424fed4c6313a144e460001b610f38565b8282604051602001610d039291906114f6565b604051602081830303815290604052905092915050565b6000610d487f79cee323ec0f24f626ec95dcd8e7d520185a7cf9a27dd12bf42bab716e40e4e560001b610f38565b610d747fb2f1b718178005ee788e941f03653467c5b7d00e9d15a3f601a14a48c901697860001b610f38565b610da07f84314de718836fa0461ea1f89ff143b78081ccae4b164b4af8163d3c7140ec0960001b610f38565b8282604051602001610db3929190611541565b604051602081830303815290604052610dcb9061160f565b905092915050565b600260009054906101000a900473ffffffffffffffffffffffffffffffffffffffff1681565b6000610e277f9555b9f64ab330c8978e4059955e72de6f53b64bd57c36b3396c957775dd5b3d60001b610f38565b610e537f3c78efb03f4760ac919f0ebe7261a094b94653bc941583e7b9fb29a7c0e388b060001b610f38565b610e7f7f1d076c50ae4b5d6486ccd120d80815e0c95ea3716a86b90170d8a9a0c9ff7de960001b610f38565b60019050919050565b6060610eb67f0b007418c1129b6e8c4dbb8381b171760557458cca157721c43b2c2e9c0acc6f60001b610f38565b610ee27f277d9d0db9356265f2a08d46b560f555b932afb7fa49f16f1b9820dbfe7cf54e60001b610f38565b610f0e7f2e4f1d252100207025fbf4efe5b712f26f7fe1afb94c9e18ac0c147a8dc088ff60001b610f38565b8282604051602001610f21929190611497565b604051602081830303815290604052905092915050565b50565b6060610f697ff74e33a496eb7c1124f24ccdd64ddb3e9efb9cca4bde4c1280fb48869ac9547f60001b610f38565b610f957f6d8a8fdff94e472442f01813d209dcd4b8865f58531dc6122e7796c41721a63160001b610f38565b610fc07ed883958a577ec597f500166d72ee551cebae51afdd8ae664253c9748235e8160001b610f38565b81604051602001610fd1919061147c565b6040516020818303038152906040529050919050565b60035481565b6110197f399cf3d9fd812d40b984a282c0db4bd55f82171215c5765da31e0d34aae9a9fa60001b610f38565b6110457f0d84719b6a53e811c2628404d9f00e736a6cda465b5a78a46c3dee4ff8887bf260001b610f38565b6110717f936368fc150d53143088ba5037ce236f5f8a0f6aeb3e563ad25eae1cd2f75bf160001b610f38565b806003819055506110a47f1b4ba7755e4c274f271f6c7e837bc6d8b1f6c1bd05862453efe08ee8ffe4b18260001b610f38565b6110d07fd1c913bcb78e01709fe8f4c0e088b51e54547f7a93131bcc41db577f3ae8a55260001b610f38565b33600260006101000a81548173ffffffffffffffffffffffffffffffffffffffff021916908373ffffffffffffffffffffffffffffffffffffffff16021790555050565b60015481565b60008135905061112981611704565b92915050565b60008135905061113e8161171b565b92915050565b60008135905061115381611732565b92915050565b60008083601f84011261116f5761116e6116d2565b5b8235905067ffffffffffffffff81111561118c5761118b6116cd565b5b6020830191508360018202830111156111a8576111a76116d7565b5b9250929050565b6000813590506111be81611749565b92915050565b6000815190506111d381611749565b92915050565b6000602082840312156111ef576111ee6116e1565b5b60006111fd8482850161111a565b91505092915050565b60008060006060848603121561121f5761121e6116e1565b5b600061122d8682870161111a565b935050602061123e86828701611144565b925050604061124f8682870161111a565b9150509250925092565b600080604083850312156112705761126f6116e1565b5b600061127e8582860161111a565b925050602061128f858286016111af565b9150509250929050565b6000602082840312156112af576112ae6116e1565b5b60006112bd8482850161112f565b91505092915050565b6000602082840312156112dc576112db6116e1565b5b60006112ea84828501611144565b91505092915050565b6000806040838503121561130a576113096116e1565b5b600061131885828601611144565b92505060206113298582860161111a565b9150509250929050565b6000806020838503121561134a576113496116e1565b5b600083013567ffffffffffffffff811115611368576113676116dc565b5b61137485828601611159565b92509250509250929050565b600060208284031215611396576113956116e1565b5b60006113a4848285016111af565b91505092915050565b6000602082840312156113c3576113c26116e1565b5b60006113d1848285016111c4565b91505092915050565b6113e3816115bd565b82525050565b6113f2816115cf565b82525050565b611401816115db565b82525050565b600061141282611590565b61141c818561159b565b935061142c818560208601611685565b611435816116e6565b840191505092915050565b600061144c83856115ac565b9350611459838584611676565b611462836116e6565b840190509392505050565b61147681611605565b82525050565b600060208201905061149160008301846113da565b92915050565b60006040820190506114ac60008301856113da565b6114b9602083018461146d565b9392505050565b60006020820190506114d560008301846113e9565b92915050565b60006020820190506114f060008301846113f8565b92915050565b600060408201905061150b60008301856113f8565b61151860208301846113da565b9392505050565b600060208201905081810360008301526115398184611407565b905092915050565b6000602082019050818103600083015261155c818486611440565b90509392505050565b600060208201905061157a600083018461146d565b92915050565b6000819050602082019050919050565b600081519050919050565b600082825260208201905092915050565b600082825260208201905092915050565b60006115c8826115e5565b9050919050565b60008115159050919050565b6000819050919050565b600073ffffffffffffffffffffffffffffffffffffffff82169050919050565b6000819050919050565b600061161a82611590565b8261162484611580565b905061162f816116b8565b9250602082101561166f5761166a7fffffffffffffffffffffffffffffffffffffffffffffffffffffffffffffffff836020036008026116f7565b831692505b5050919050565b82818337600083830152505050565b60005b838110156116a3578082015181840152602081019050611688565b838111156116b2576000848401525b50505050565b60006116c482516115db565b80915050919050565b600080fd5b600080fd5b600080fd5b600080fd5b600080fd5b6000601f19601f8301169050919050565b600082821b905092915050565b61170d816115bd565b811461171857600080fd5b50565b611724816115cf565b811461172f57600080fd5b50565b61173b816115db565b811461174657600080fd5b50565b61175281611605565b811461175d57600080fd5b5056fea26469706673582212205598cd3f5e462077f0f9fb852e8d352a4ac203d5fedc6d1384e8e666fa90b81e64736f6c63430008070033",
  "linkReferences": {},
  "deployedLinkReferences": {}
}