{
  "_format": "hh-sol-artifact-1",
  "contractName": "TestExecutable",
  "sourceName": "contracts/test/TestExecutable.sol",
  "abi": [
    {
      "inputs": [],
      "name": "aBytes",
      "outputs": [
        {
          "internalType": "bytes32",
          "name": "",
          "type": "bytes32"
        }
      ],
      "stateMutability": "view",
      "type": "function"
    },
    {
      "inputs": [],
      "name": "aNumber",
      "outputs": [
        {
          "internalType": "uint256",
          "name": "",
          "type": "uint256"
        }
      ],
      "stateMutability": "view",
      "type": "function"
    },
    {
      "inputs": [],
      "name": "anAddress",
      "outputs": [
        {
          "internalType": "address",
          "name": "",
          "type": "address"
        }
      ],
      "stateMutability": "view",
      "type": "function"
    },
    {
      "inputs": [
        {
          "internalType": "bool",
          "name": "_input",
          "type": "bool"
        }
      ],
      "name": "encodeBool",
      "outputs": [
        {
          "internalType": "bytes",
          "name": "",
          "type": "bytes"
        }
      ],
      "stateMutability": "pure",
      "type": "function"
    },
    {
      "inputs": [
        {
          "internalType": "bytes32",
          "name": "_exeID",
          "type": "bytes32"
        }
      ],
      "name": "isExecutable",
      "outputs": [
        {
          "internalType": "bool",
          "name": "",
          "type": "bool"
        }
      ],
      "stateMutability": "pure",
      "type": "function"
    },
    {
      "inputs": [
        {
          "internalType": "bytes32",
          "name": "_aBytes",
          "type": "bytes32"
        }
      ],
      "name": "setBytes",
      "outputs": [],
      "stateMutability": "nonpayable",
      "type": "function"
    },
    {
      "inputs": [
        {
          "internalType": "uint256",
          "name": "_aNumber",
          "type": "uint256"
        }
      ],
      "name": "setNumber",
      "outputs": [],
      "stateMutability": "nonpayable",
      "type": "function"
    }
  ],
  "bytecode": "0x608060405234801561001057600080fd5b5061056b806100206000396000f3fe608060405234801561001057600080fd5b506004361061007d5760003560e01c80639cf782cb1161005b5780639cf782cb146100ec578063e06c9bc31461011c578063e6748da91461013a578063e6a899b6146101565761007d565b806316163c89146100825780633fb5c1cb146100b2578063935760e7146100ce575b600080fd5b61009c600480360381019061009791906102af565b610174565b6040516100a991906103fc565b60405180910390f35b6100cc60048036038101906100c79190610309565b61019d565b005b6100d66101e8565b6040516100e391906103ab565b60405180910390f35b610106600480360381019061010191906102dc565b61020e565b60405161011391906103c6565b60405180910390f35b610124610219565b60405161013191906103e1565b60405180910390f35b610154600480360381019061014f91906102dc565b61021f565b005b61015e61026a565b60405161016b919061041e565b60405180910390f35b60608160405160200161018791906103c6565b6040516020818303038152906040529050919050565b8060008190555033600160006101000a81548173ffffffffffffffffffffffffffffffffffffffff021916908373ffffffffffffffffffffffffffffffffffffffff16021790555050565b600160009054906101000a900473ffffffffffffffffffffffffffffffffffffffff1681565b600060019050919050565b60025481565b8060028190555033600160006101000a81548173ffffffffffffffffffffffffffffffffffffffff021916908373ffffffffffffffffffffffffffffffffffffffff16021790555050565b60005481565b60008135905061027f816104f0565b92915050565b60008135905061029481610507565b92915050565b6000813590506102a98161051e565b92915050565b6000602082840312156102c5576102c46104da565b5b60006102d384828501610270565b91505092915050565b6000602082840312156102f2576102f16104da565b5b600061030084828501610285565b91505092915050565b60006020828403121561031f5761031e6104da565b5b600061032d8482850161029a565b91505092915050565b61033f81610455565b82525050565b61034e81610467565b82525050565b61035d81610473565b82525050565b600061036e82610439565b6103788185610444565b93506103888185602086016104a7565b610391816104df565b840191505092915050565b6103a58161049d565b82525050565b60006020820190506103c06000830184610336565b92915050565b60006020820190506103db6000830184610345565b92915050565b60006020820190506103f66000830184610354565b92915050565b600060208201905081810360008301526104168184610363565b905092915050565b6000602082019050610433600083018461039c565b92915050565b600081519050919050565b600082825260208201905092915050565b60006104608261047d565b9050919050565b60008115159050919050565b6000819050919050565b600073ffffffffffffffffffffffffffffffffffffffff82169050919050565b6000819050919050565b60005b838110156104c55780820151818401526020810190506104aa565b838111156104d4576000848401525b50505050565b600080fd5b6000601f19601f8301169050919050565b6104f981610467565b811461050457600080fd5b50565b61051081610473565b811461051b57600080fd5b50565b6105278161049d565b811461053257600080fd5b5056fea2646970667358221220c5d7421de63f0bf98e5c2ab490ecda2f3a8478ed9ece634a519bb643ad16f36b64736f6c63430008070033",
  "linkReferences": {},
  "deployedLinkReferences": {}
}