{
  "_format": "hh-sol-artifact-1",
  "contractName": "TestExecutable",
  "sourceName": "contracts/test/TestExecutable.sol",
  "abi": [
    {
      "inputs": [
        {
          "internalType": "address",
          "name": "_timer",
          "type": "address"
        }
      ],
      "stateMutability": "nonpayable",
      "type": "constructor"
    },
    {
      "inputs": [],
      "name": "IDENTIFIER",
      "outputs": [
        {
          "internalType": "bytes32",
          "name": "",
          "type": "bytes32"
        }
      ],
      "stateMutability": "view",
      "type": "function"
    },
    {
      "inputs": [],
      "name": "aBytes",
      "outputs": [
        {
          "internalType": "bytes32",
          "name": "",
          "type": "bytes32"
        }
      ],
      "stateMutability": "view",
      "type": "function"
    },
    {
      "inputs": [],
      "name": "aNumber",
      "outputs": [
        {
          "internalType": "uint256",
          "name": "",
          "type": "uint256"
        }
      ],
      "stateMutability": "view",
      "type": "function"
    },
    {
      "inputs": [
        {
          "internalType": "address",
          "name": "_coord",
          "type": "address"
        },
        {
          "internalType": "bytes32",
          "name": "_subIdentifier",
          "type": "bytes32"
        },
        {
          "internalType": "address",
          "name": "_subImplementation",
          "type": "address"
        }
      ],
      "name": "addSub",
      "outputs": [],
      "stateMutability": "nonpayable",
      "type": "function"
    },
    {
      "inputs": [],
      "name": "anAddress",
      "outputs": [
        {
          "internalType": "address",
          "name": "",
          "type": "address"
        }
      ],
      "stateMutability": "view",
      "type": "function"
    },
    {
      "inputs": [
        {
          "internalType": "address",
          "name": "_index",
          "type": "address"
        }
      ],
      "name": "encodeAddress",
      "outputs": [
        {
          "internalType": "bytes",
          "name": "",
          "type": "bytes"
        }
      ],
      "stateMutability": "pure",
      "type": "function"
    },
    {
      "inputs": [
        {
          "internalType": "bool",
          "name": "_input",
          "type": "bool"
        }
      ],
      "name": "encodeBool",
      "outputs": [
        {
          "internalType": "bytes",
          "name": "",
          "type": "bytes"
        }
      ],
      "stateMutability": "pure",
      "type": "function"
    },
    {
      "inputs": [
        {
          "internalType": "address",
          "name": "_address",
          "type": "address"
        },
        {
          "internalType": "uint256",
          "name": "_number",
          "type": "uint256"
        }
      ],
      "name": "encodeBytes",
      "outputs": [
        {
          "internalType": "bytes",
          "name": "",
          "type": "bytes"
        }
      ],
      "stateMutability": "pure",
      "type": "function"
    },
    {
      "inputs": [
        {
          "internalType": "string",
          "name": "_string",
          "type": "string"
        }
      ],
      "name": "encodeBytes32",
      "outputs": [
        {
          "internalType": "bytes32",
          "name": "",
          "type": "bytes32"
        }
      ],
      "stateMutability": "pure",
      "type": "function"
    },
    {
      "inputs": [
        {
          "internalType": "bytes32",
          "name": "_key",
          "type": "bytes32"
        },
        {
          "internalType": "address",
          "name": "_index",
          "type": "address"
        }
      ],
      "name": "encodeKeyAddress",
      "outputs": [
        {
          "internalType": "bytes",
          "name": "",
          "type": "bytes"
        }
      ],
      "stateMutability": "pure",
      "type": "function"
    },
    {
      "inputs": [],
      "name": "getCurrentTime",
      "outputs": [
        {
          "internalType": "uint256",
          "name": "",
          "type": "uint256"
        }
      ],
      "stateMutability": "view",
      "type": "function"
    },
    {
      "inputs": [],
      "name": "getTime",
      "outputs": [
        {
          "internalType": "uint256",
          "name": "",
          "type": "uint256"
        }
      ],
      "stateMutability": "view",
      "type": "function"
    },
    {
      "inputs": [
        {
          "internalType": "bytes32",
          "name": "_exeID",
          "type": "bytes32"
        }
      ],
      "name": "isExecutable",
      "outputs": [
        {
          "internalType": "bool",
          "name": "",
          "type": "bool"
        }
      ],
      "stateMutability": "pure",
      "type": "function"
    },
    {
      "inputs": [
        {
          "internalType": "bytes32",
          "name": "_aBytes",
          "type": "bytes32"
        }
      ],
      "name": "setBytes",
      "outputs": [],
      "stateMutability": "nonpayable",
      "type": "function"
    },
    {
      "inputs": [
        {
          "internalType": "uint256",
          "name": "time",
          "type": "uint256"
        }
      ],
      "name": "setCurrentTime",
      "outputs": [],
      "stateMutability": "nonpayable",
      "type": "function"
    },
    {
      "inputs": [
        {
          "internalType": "uint256",
          "name": "_aNumber",
          "type": "uint256"
        }
      ],
      "name": "setNumber",
      "outputs": [],
      "stateMutability": "nonpayable",
      "type": "function"
    },
    {
      "inputs": [],
      "name": "timerAddress",
      "outputs": [
        {
          "internalType": "address",
          "name": "",
          "type": "address"
        }
      ],
      "stateMutability": "view",
      "type": "function"
    }
  ],
  "bytecode": "0x60a060405234801561001057600080fd5b50604051610f9f380380610f9f833981810160405281019061003291906100b7565b80806000806101000a81548173ffffffffffffffffffffffffffffffffffffffff021916908373ffffffffffffffffffffffffffffffffffffffff160217905550507f595bdf96918d0ad7f43f4c1d0843b468a6c7d543f2cfa9019e5e891a9f67c27b6080818152505050610132565b6000815190506100b18161011b565b92915050565b6000602082840312156100cd576100cc610116565b5b60006100db848285016100a2565b91505092915050565b60006100ef826100f6565b9050919050565b600073ffffffffffffffffffffffffffffffffffffffff82169050919050565b600080fd5b610124816100e4565b811461012f57600080fd5b50565b608051610e5261014d60003960006105aa0152610e526000f3fe608060405234801561001057600080fd5b506004361061010b5760003560e01c80636f6fb0a4116100a2578063a8b0c84511610071578063a8b0c845146102ba578063d32b1bea146102ea578063e06c9bc31461031a578063e6748da914610338578063e6a899b6146103545761010b565b80636f6fb0a41461020c578063934fb5f71461023c578063935760e71461026c5780639cf782cb1461028a5761010b565b80633c9747f3116100de5780633c9747f3146101985780633fb5c1cb146101b6578063557ed1ba146101d257806369142dc9146101f05761010b565b806316163c89146101105780631c39c38d1461014057806322f8e5661461015e57806329cb924d1461017a575b600080fd5b61012a60048036038101906101259190610955565b610372565b6040516101379190610bdb565b60405180910390f35b61014861039b565b6040516101559190610b38565b60405180910390f35b61017860048036038101906101739190610a3c565b6103bf565b005b6101826104a7565b60405161018f9190610c21565b60405180910390f35b6101a06105a8565b6040516101ad9190610b97565b60405180910390f35b6101d060048036038101906101cb9190610a3c565b6105cc565b005b6101da610617565b6040516101e79190610c21565b60405180910390f35b61020a600480360381019061020591906108c2565b610626565b005b610226600480360381019061022191906109af565b610698565b6040516102339190610bdb565b60405180910390f35b610256600480360381019061025191906109ef565b6106c4565b6040516102639190610b97565b60405180910390f35b6102746106f9565b6040516102819190610b38565b60405180910390f35b6102a4600480360381019061029f9190610982565b61071f565b6040516102b19190610b7c565b60405180910390f35b6102d460048036038101906102cf9190610915565b61072a565b6040516102e19190610bdb565b60405180910390f35b61030460048036038101906102ff9190610895565b610756565b6040516103119190610bdb565b60405180910390f35b61032261077f565b60405161032f9190610b97565b60405180910390f35b610352600480360381019061034d9190610982565b610785565b005b61035c6107d0565b6040516103699190610c21565b60405180910390f35b6060816040516020016103859190610b7c565b6040516020818303038152906040529050919050565b60008054906101000a900473ffffffffffffffffffffffffffffffffffffffff1681565b600073ffffffffffffffffffffffffffffffffffffffff1660008054906101000a900473ffffffffffffffffffffffffffffffffffffffff1673ffffffffffffffffffffffffffffffffffffffff16141561041957600080fd5b60008054906101000a900473ffffffffffffffffffffffffffffffffffffffff1673ffffffffffffffffffffffffffffffffffffffff166322f8e566826040518263ffffffff1660e01b81526004016104729190610c21565b600060405180830381600087803b15801561048c57600080fd5b505af11580156104a0573d6000803e3d6000fd5b5050505050565b60008073ffffffffffffffffffffffffffffffffffffffff1660008054906101000a900473ffffffffffffffffffffffffffffffffffffffff1673ffffffffffffffffffffffffffffffffffffffff16146105a15760008054906101000a900473ffffffffffffffffffffffffffffffffffffffff1673ffffffffffffffffffffffffffffffffffffffff166329cb924d6040518163ffffffff1660e01b815260040160206040518083038186803b15801561056257600080fd5b505afa158015610576573d6000803e3d6000fd5b505050506040513d601f19601f8201168201806040525081019061059a9190610a69565b90506105a5565b4290505b90565b7f000000000000000000000000000000000000000000000000000000000000000081565b8060018190555033600260006101000a81548173ffffffffffffffffffffffffffffffffffffffff021916908373ffffffffffffffffffffffffffffffffffffffff16021790555050565b60006106216104a7565b905090565b8273ffffffffffffffffffffffffffffffffffffffff166338c6878283836040518363ffffffff1660e01b8152600401610661929190610bb2565b600060405180830381600087803b15801561067b57600080fd5b505af115801561068f573d6000803e3d6000fd5b50505050505050565b606082826040516020016106ad929190610bb2565b604051602081830303815290604052905092915050565b600082826040516020016106d9929190610bfd565b6040516020818303038152906040526106f190610ccb565b905092915050565b600260009054906101000a900473ffffffffffffffffffffffffffffffffffffffff1681565b600060019050919050565b6060828260405160200161073f929190610b53565b604051602081830303815290604052905092915050565b6060816040516020016107699190610b38565b6040516020818303038152906040529050919050565b60035481565b8060038190555033600260006101000a81548173ffffffffffffffffffffffffffffffffffffffff021916908373ffffffffffffffffffffffffffffffffffffffff16021790555050565b60015481565b6000813590506107e581610dc0565b92915050565b6000813590506107fa81610dd7565b92915050565b60008135905061080f81610dee565b92915050565b60008083601f84011261082b5761082a610d8e565b5b8235905067ffffffffffffffff81111561084857610847610d89565b5b60208301915083600182028301111561086457610863610d93565b5b9250929050565b60008135905061087a81610e05565b92915050565b60008151905061088f81610e05565b92915050565b6000602082840312156108ab576108aa610d9d565b5b60006108b9848285016107d6565b91505092915050565b6000806000606084860312156108db576108da610d9d565b5b60006108e9868287016107d6565b93505060206108fa86828701610800565b925050604061090b868287016107d6565b9150509250925092565b6000806040838503121561092c5761092b610d9d565b5b600061093a858286016107d6565b925050602061094b8582860161086b565b9150509250929050565b60006020828403121561096b5761096a610d9d565b5b6000610979848285016107eb565b91505092915050565b60006020828403121561099857610997610d9d565b5b60006109a684828501610800565b91505092915050565b600080604083850312156109c6576109c5610d9d565b5b60006109d485828601610800565b92505060206109e5858286016107d6565b9150509250929050565b60008060208385031215610a0657610a05610d9d565b5b600083013567ffffffffffffffff811115610a2457610a23610d98565b5b610a3085828601610815565b92509250509250929050565b600060208284031215610a5257610a51610d9d565b5b6000610a608482850161086b565b91505092915050565b600060208284031215610a7f57610a7e610d9d565b5b6000610a8d84828501610880565b91505092915050565b610a9f81610c79565b82525050565b610aae81610c8b565b82525050565b610abd81610c97565b82525050565b6000610ace82610c4c565b610ad88185610c57565b9350610ae8818560208601610d41565b610af181610da2565b840191505092915050565b6000610b088385610c68565b9350610b15838584610d32565b610b1e83610da2565b840190509392505050565b610b3281610cc1565b82525050565b6000602082019050610b4d6000830184610a96565b92915050565b6000604082019050610b686000830185610a96565b610b756020830184610b29565b9392505050565b6000602082019050610b916000830184610aa5565b92915050565b6000602082019050610bac6000830184610ab4565b92915050565b6000604082019050610bc76000830185610ab4565b610bd46020830184610a96565b9392505050565b60006020820190508181036000830152610bf58184610ac3565b905092915050565b60006020820190508181036000830152610c18818486610afc565b90509392505050565b6000602082019050610c366000830184610b29565b92915050565b6000819050602082019050919050565b600081519050919050565b600082825260208201905092915050565b600082825260208201905092915050565b6000610c8482610ca1565b9050919050565b60008115159050919050565b6000819050919050565b600073ffffffffffffffffffffffffffffffffffffffff82169050919050565b6000819050919050565b6000610cd682610c4c565b82610ce084610c3c565b9050610ceb81610d74565b92506020821015610d2b57610d267fffffffffffffffffffffffffffffffffffffffffffffffffffffffffffffffff83602003600802610db3565b831692505b5050919050565b82818337600083830152505050565b60005b83811015610d5f578082015181840152602081019050610d44565b83811115610d6e576000848401525b50505050565b6000610d808251610c97565b80915050919050565b600080fd5b600080fd5b600080fd5b600080fd5b600080fd5b6000601f19601f8301169050919050565b600082821b905092915050565b610dc981610c79565b8114610dd457600080fd5b50565b610de081610c8b565b8114610deb57600080fd5b50565b610df781610c97565b8114610e0257600080fd5b50565b610e0e81610cc1565b8114610e1957600080fd5b5056fea26469706673582212207f12043e547228bc4ef6d56a90edceccddaba9cd0841e152347e2294464b8b3564736f6c63430008070033",
  "linkReferences": {},
  "deployedLinkReferences": {}
}