{
  "_format": "hh-sol-artifact-1",
  "contractName": "TestExecutable",
  "sourceName": "contracts/test/TestExecutable.sol",
  "abi": [
    {
      "inputs": [],
      "name": "aBytes",
      "outputs": [
        {
          "internalType": "bytes32",
          "name": "",
          "type": "bytes32"
        }
      ],
      "stateMutability": "view",
      "type": "function"
    },
    {
      "inputs": [],
      "name": "aNumber",
      "outputs": [
        {
          "internalType": "uint256",
          "name": "",
          "type": "uint256"
        }
      ],
      "stateMutability": "view",
      "type": "function"
    },
    {
      "inputs": [],
      "name": "anAddress",
      "outputs": [
        {
          "internalType": "address",
          "name": "",
          "type": "address"
        }
      ],
      "stateMutability": "view",
      "type": "function"
    },
    {
      "inputs": [
        {
          "internalType": "bool",
          "name": "_input",
          "type": "bool"
        }
      ],
      "name": "encodeBool",
      "outputs": [
        {
          "internalType": "bytes",
          "name": "",
          "type": "bytes"
        }
      ],
      "stateMutability": "pure",
      "type": "function"
    },
    {
      "inputs": [
        {
          "internalType": "string",
          "name": "_string",
          "type": "string"
        }
      ],
      "name": "encodeBytes32",
      "outputs": [
        {
          "internalType": "bytes32",
          "name": "",
          "type": "bytes32"
        }
      ],
      "stateMutability": "pure",
      "type": "function"
    },
    {
      "inputs": [
        {
          "internalType": "bytes32",
          "name": "_exeID",
          "type": "bytes32"
        }
      ],
      "name": "isExecutable",
      "outputs": [
        {
          "internalType": "bool",
          "name": "",
          "type": "bool"
        }
      ],
      "stateMutability": "pure",
      "type": "function"
    },
    {
      "inputs": [
        {
          "internalType": "bytes32",
          "name": "_aBytes",
          "type": "bytes32"
        }
      ],
      "name": "setBytes",
      "outputs": [],
      "stateMutability": "nonpayable",
      "type": "function"
    },
    {
      "inputs": [
        {
          "internalType": "uint256",
          "name": "_aNumber",
          "type": "uint256"
        }
      ],
      "name": "setNumber",
      "outputs": [],
      "stateMutability": "nonpayable",
      "type": "function"
    }
  ],
  "bytecode": "0x608060405234801561001057600080fd5b50610783806100206000396000f3fe608060405234801561001057600080fd5b50600436106100885760003560e01c80639cf782cb1161005b5780639cf782cb14610127578063e06c9bc314610157578063e6748da914610175578063e6a899b61461019157610088565b806316163c891461008d5780633fb5c1cb146100bd578063934fb5f7146100d9578063935760e714610109575b600080fd5b6100a760048036038101906100a29190610375565b6101af565b6040516100b4919061054d565b60405180910390f35b6100d760048036038101906100d2919061041c565b6101d8565b005b6100f360048036038101906100ee91906103cf565b610223565b6040516101009190610532565b60405180910390f35b610111610258565b60405161011e91906104fc565b60405180910390f35b610141600480360381019061013c91906103a2565b61027e565b60405161014e9190610517565b60405180910390f35b61015f610289565b60405161016c9190610532565b60405180910390f35b61018f600480360381019061018a91906103a2565b61028f565b005b6101996102da565b6040516101a6919061056f565b60405180910390f35b6060816040516020016101c29190610517565b6040516020818303038152906040529050919050565b8060008190555033600160006101000a81548173ffffffffffffffffffffffffffffffffffffffff021916908373ffffffffffffffffffffffffffffffffffffffff16021790555050565b600082826040516020016102389291906104e3565b60405160208183030381529060405261025090610613565b905092915050565b600160009054906101000a900473ffffffffffffffffffffffffffffffffffffffff1681565b600060019050919050565b60025481565b8060028190555033600160006101000a81548173ffffffffffffffffffffffffffffffffffffffff021916908373ffffffffffffffffffffffffffffffffffffffff16021790555050565b60005481565b6000813590506102ef81610708565b92915050565b6000813590506103048161071f565b92915050565b60008083601f8401126103205761031f6106d6565b5b8235905067ffffffffffffffff81111561033d5761033c6106d1565b5b602083019150836001820283011115610359576103586106db565b5b9250929050565b60008135905061036f81610736565b92915050565b60006020828403121561038b5761038a6106e5565b5b6000610399848285016102e0565b91505092915050565b6000602082840312156103b8576103b76106e5565b5b60006103c6848285016102f5565b91505092915050565b600080602083850312156103e6576103e56106e5565b5b600083013567ffffffffffffffff811115610404576104036106e0565b5b6104108582860161030a565b92509250509250929050565b600060208284031215610432576104316106e5565b5b600061044084828501610360565b91505092915050565b610452816105c1565b82525050565b610461816105d3565b82525050565b610470816105df565b82525050565b60006104818261059a565b61048b81856105a5565b935061049b818560208601610689565b6104a4816106ea565b840191505092915050565b60006104bb83856105b6565b93506104c883858461067a565b82840190509392505050565b6104dd81610609565b82525050565b60006104f08284866104af565b91508190509392505050565b60006020820190506105116000830184610449565b92915050565b600060208201905061052c6000830184610458565b92915050565b60006020820190506105476000830184610467565b92915050565b600060208201905081810360008301526105678184610476565b905092915050565b600060208201905061058460008301846104d4565b92915050565b6000819050602082019050919050565b600081519050919050565b600082825260208201905092915050565b600081905092915050565b60006105cc826105e9565b9050919050565b60008115159050919050565b6000819050919050565b600073ffffffffffffffffffffffffffffffffffffffff82169050919050565b6000819050919050565b600061061e8261059a565b826106288461058a565b9050610633816106bc565b925060208210156106735761066e7fffffffffffffffffffffffffffffffffffffffffffffffffffffffffffffffff836020036008026106fb565b831692505b5050919050565b82818337600083830152505050565b60005b838110156106a757808201518184015260208101905061068c565b838111156106b6576000848401525b50505050565b60006106c882516105df565b80915050919050565b600080fd5b600080fd5b600080fd5b600080fd5b600080fd5b6000601f19601f8301169050919050565b600082821b905092915050565b610711816105d3565b811461071c57600080fd5b50565b610728816105df565b811461073357600080fd5b50565b61073f81610609565b811461074a57600080fd5b5056fea2646970667358221220e974f29d1b39fdc7210c2ccb150e6b64142d79028556cf9d58cc09c2653bf2a564736f6c63430008070033",
  "linkReferences": {},
  "deployedLinkReferences": {}
}