{
  "_format": "hh-sol-artifact-1",
  "contractName": "TestExecutable",
  "sourceName": "contracts/test/TestExecutable.sol",
  "abi": [
    {
      "inputs": [],
      "name": "aBytes",
      "outputs": [
        {
          "internalType": "bytes32",
          "name": "",
          "type": "bytes32"
        }
      ],
      "stateMutability": "view",
      "type": "function"
    },
    {
      "inputs": [],
      "name": "aNumber",
      "outputs": [
        {
          "internalType": "uint256",
          "name": "",
          "type": "uint256"
        }
      ],
      "stateMutability": "view",
      "type": "function"
    },
    {
      "inputs": [],
      "name": "anAddress",
      "outputs": [
        {
          "internalType": "address",
          "name": "",
          "type": "address"
        }
      ],
      "stateMutability": "view",
      "type": "function"
    },
    {
      "inputs": [
        {
          "internalType": "bytes32",
          "name": "_exeID",
          "type": "bytes32"
        }
      ],
      "name": "isExecutable",
      "outputs": [
        {
          "internalType": "bool",
          "name": "",
          "type": "bool"
        }
      ],
      "stateMutability": "pure",
      "type": "function"
    },
    {
      "inputs": [
        {
          "internalType": "bytes32",
          "name": "_aBytes",
          "type": "bytes32"
        }
      ],
      "name": "setBytes",
      "outputs": [],
      "stateMutability": "nonpayable",
      "type": "function"
    },
    {
      "inputs": [
        {
          "internalType": "uint256",
          "name": "_aNumber",
          "type": "uint256"
        }
      ],
      "name": "setNumber",
      "outputs": [],
      "stateMutability": "nonpayable",
      "type": "function"
    }
  ],
  "bytecode": "0x608060405234801561001057600080fd5b506103e3806100206000396000f3fe608060405234801561001057600080fd5b50600436106100625760003560e01c80633fb5c1cb14610067578063935760e7146100835780639cf782cb146100a1578063e06c9bc3146100d1578063e6748da9146100ef578063e6a899b61461010b575b600080fd5b610081600480360381019061007c9190610253565b610129565b005b61008b610174565b60405161009891906102bc565b60405180910390f35b6100bb60048036038101906100b69190610226565b61019a565b6040516100c891906102d7565b60405180910390f35b6100d96101a5565b6040516100e691906102f2565b60405180910390f35b61010960048036038101906101049190610226565b6101ab565b005b6101136101f6565b604051610120919061030d565b60405180910390f35b8060008190555033600160006101000a81548173ffffffffffffffffffffffffffffffffffffffff021916908373ffffffffffffffffffffffffffffffffffffffff16021790555050565b600160009054906101000a900473ffffffffffffffffffffffffffffffffffffffff1681565b600060019050919050565b60025481565b8060028190555033600160006101000a81548173ffffffffffffffffffffffffffffffffffffffff021916908373ffffffffffffffffffffffffffffffffffffffff16021790555050565b60005481565b60008135905061020b8161037f565b92915050565b60008135905061022081610396565b92915050565b60006020828403121561023c5761023b61037a565b5b600061024a848285016101fc565b91505092915050565b6000602082840312156102695761026861037a565b5b600061027784828501610211565b91505092915050565b61028981610328565b82525050565b6102988161033a565b82525050565b6102a781610346565b82525050565b6102b681610370565b82525050565b60006020820190506102d16000830184610280565b92915050565b60006020820190506102ec600083018461028f565b92915050565b6000602082019050610307600083018461029e565b92915050565b600060208201905061032260008301846102ad565b92915050565b600061033382610350565b9050919050565b60008115159050919050565b6000819050919050565b600073ffffffffffffffffffffffffffffffffffffffff82169050919050565b6000819050919050565b600080fd5b61038881610346565b811461039357600080fd5b50565b61039f81610370565b81146103aa57600080fd5b5056fea2646970667358221220716bbd1131b44d667c399f31f3864292bb0073121fc6e67264baf899455a6b9364736f6c63430008070033",
  "linkReferences": {},
  "deployedLinkReferences": {}
}