{
  "_format": "hh-sol-artifact-1",
  "contractName": "AtlantisNft",
  "sourceName": "contracts/AtlantisNft.sol",
  "abi": [
    {
      "inputs": [
        {
          "internalType": "string",
          "name": "_name",
          "type": "string"
        },
        {
          "internalType": "string",
          "name": "_symbol",
          "type": "string"
        }
      ],
      "stateMutability": "nonpayable",
      "type": "constructor"
    },
    {
      "inputs": [
        {
          "internalType": "uint256",
          "name": "_tokenId",
          "type": "uint256"
        },
        {
          "internalType": "address",
          "name": "_spender",
          "type": "address"
        },
        {
          "internalType": "bool",
          "name": "_isApproved",
          "type": "bool"
        }
      ],
      "name": "approve",
      "outputs": [],
      "stateMutability": "nonpayable",
      "type": "function"
    },
    {
      "inputs": [
        {
          "internalType": "address",
          "name": "_owner",
          "type": "address"
        }
      ],
      "name": "balanceOf",
      "outputs": [
        {
          "internalType": "uint256",
          "name": "",
          "type": "uint256"
        }
      ],
      "stateMutability": "view",
      "type": "function"
    },
    {
      "inputs": [
        {
          "internalType": "address",
          "name": "_owner",
          "type": "address"
        },
        {
          "internalType": "bytes32",
          "name": "_type",
          "type": "bytes32"
        }
      ],
      "name": "balanceOfType",
      "outputs": [
        {
          "internalType": "uint256",
          "name": "",
          "type": "uint256"
        }
      ],
      "stateMutability": "view",
      "type": "function"
    },
    {
      "inputs": [
        {
          "internalType": "bytes32",
          "name": "_typeId",
          "type": "bytes32"
        },
        {
          "internalType": "uint256",
          "name": "_tokenId",
          "type": "uint256"
        }
      ],
      "name": "burn",
      "outputs": [],
      "stateMutability": "nonpayable",
      "type": "function"
    },
    {
      "inputs": [
        {
          "internalType": "bytes32",
          "name": "_typeId",
          "type": "bytes32"
        },
        {
          "internalType": "bool",
          "name": "_permissionMinting",
          "type": "bool"
        },
        {
          "internalType": "address[]",
          "name": "_minters",
          "type": "address[]"
        }
      ],
      "name": "createTokenType",
      "outputs": [],
      "stateMutability": "nonpayable",
      "type": "function"
    },
    {
      "inputs": [
        {
          "internalType": "uint256",
          "name": "_tokenId",
          "type": "uint256"
        },
        {
          "internalType": "address",
          "name": "_owner",
          "type": "address"
        },
        {
          "internalType": "address",
          "name": "_spender",
          "type": "address"
        }
      ],
      "name": "isApproved",
      "outputs": [
        {
          "internalType": "bool",
          "name": "",
          "type": "bool"
        }
      ],
      "stateMutability": "view",
      "type": "function"
    },
    {
      "inputs": [
        {
          "internalType": "bytes32",
          "name": "_typeId",
          "type": "bytes32"
        },
        {
          "internalType": "address",
          "name": "_to",
          "type": "address"
        }
      ],
      "name": "mint",
      "outputs": [],
      "stateMutability": "nonpayable",
      "type": "function"
    },
    {
      "inputs": [
        {
          "internalType": "uint256",
          "name": "_tokenId",
          "type": "uint256"
        },
        {
          "internalType": "address",
          "name": "_to",
          "type": "address"
        }
      ],
      "name": "transfer",
      "outputs": [],
      "stateMutability": "nonpayable",
      "type": "function"
    },
    {
      "inputs": [
        {
          "internalType": "uint256",
          "name": "_tokenId",
          "type": "uint256"
        },
        {
          "internalType": "address",
          "name": "_from",
          "type": "address"
        },
        {
          "internalType": "address",
          "name": "_to",
          "type": "address"
        }
      ],
      "name": "transferFrom",
      "outputs": [],
      "stateMutability": "nonpayable",
      "type": "function"
    },
    {
      "inputs": [
        {
          "internalType": "bytes32",
          "name": "_typeId",
          "type": "bytes32"
        },
        {
          "internalType": "address",
          "name": "_newOwner",
          "type": "address"
        }
      ],
      "name": "transferTypeOwnership",
      "outputs": [],
      "stateMutability": "nonpayable",
      "type": "function"
    },
    {
      "inputs": [
        {
          "internalType": "bytes32",
          "name": "_typeId",
          "type": "bytes32"
        },
        {
          "internalType": "address[]",
          "name": "_minters",
          "type": "address[]"
        },
        {
          "internalType": "bool[]",
          "name": "_isMinter",
          "type": "bool[]"
        }
      ],
      "name": "updateMinters",
      "outputs": [],
      "stateMutability": "nonpayable",
      "type": "function"
    }
  ],
  "bytecode": "0x60806040523480156200001157600080fd5b50604051620023e9380380620023e983398181016040528101906200003791906200019f565b81600090805190602001906200004f92919062000071565b5080600190805190602001906200006892919062000071565b505050620003a8565b8280546200007f90620002b9565b90600052602060002090601f016020900481019282620000a35760008555620000ef565b82601f10620000be57805160ff1916838001178555620000ef565b82800160010185558215620000ef579182015b82811115620000ee578251825591602001919060010190620000d1565b5b509050620000fe919062000102565b5090565b5b808211156200011d57600081600090555060010162000103565b5090565b60006200013862000132846200024d565b62000224565b90508281526020810184848401111562000157576200015662000388565b5b6200016484828562000283565b509392505050565b600082601f83011262000184576200018362000383565b5b81516200019684826020860162000121565b91505092915050565b60008060408385031215620001b957620001b862000392565b5b600083015167ffffffffffffffff811115620001da57620001d96200038d565b5b620001e8858286016200016c565b925050602083015167ffffffffffffffff8111156200020c576200020b6200038d565b5b6200021a858286016200016c565b9150509250929050565b60006200023062000243565b90506200023e8282620002ef565b919050565b6000604051905090565b600067ffffffffffffffff8211156200026b576200026a62000354565b5b620002768262000397565b9050602081019050919050565b60005b83811015620002a357808201518184015260208101905062000286565b83811115620002b3576000848401525b50505050565b60006002820490506001821680620002d257607f821691505b60208210811415620002e957620002e862000325565b5b50919050565b620002fa8262000397565b810181811067ffffffffffffffff821117156200031c576200031b62000354565b5b80604052505050565b7f4e487b7100000000000000000000000000000000000000000000000000000000600052602260045260246000fd5b7f4e487b7100000000000000000000000000000000000000000000000000000000600052604160045260246000fd5b600080fd5b600080fd5b600080fd5b600080fd5b6000601f19601f8301169050919050565b61203180620003b86000396000f3fe608060405234801561001057600080fd5b50600436106100a95760003560e01c806366786acd1161007157806366786acd1461014e57806370a082311461016a5780637a4084541461019a5780637e49a01e146101b6578063b7760c8f146101e6578063e0611c3014610202576100a9565b80631103bf44146100ae57806313f3d8a4146100ca578063293c6a3a146100fa5780633f85b9a81461011657806347ce2eef14610132575b600080fd5b6100c860048036038101906100c391906117e8565b61021e565b005b6100e460048036038101906100df91906115b2565b6103fc565b6040516100f19190611beb565b60405180910390f35b610114600480360381019061010f919061161f565b610457565b005b610130600480360381019061012b91906116f4565b61084e565b005b61014c6004803603810190610147919061161f565b610a63565b005b6101686004803603810190610163919061165f565b610b60565b005b610184600480360381019061017f9190611585565b610d2e565b6040516101919190611beb565b60405180910390f35b6101b460048036038101906101af9190611768565b610d8b565b005b6101d060048036038101906101cb91906117e8565b610fc0565b6040516101dd9190611a50565b60405180910390f35b61020060048036038101906101fb91906117a8565b611069565b005b61021c6004803603810190610217919061183b565b611133565b005b8173ffffffffffffffffffffffffffffffffffffffff166004600085815260200190815260200160002060010160009054906101000a900473ffffffffffffffffffffffffffffffffffffffff1673ffffffffffffffffffffffffffffffffffffffff16146102c2576040517f08c379a00000000000000000000000000000000000000000000000000000000081526004016102b990611bcb565b60405180910390fd5b3373ffffffffffffffffffffffffffffffffffffffff168273ffffffffffffffffffffffffffffffffffffffff16148061039657506004600084815260200190815260200160002060020160008373ffffffffffffffffffffffffffffffffffffffff1673ffffffffffffffffffffffffffffffffffffffff16815260200190815260200160002060003373ffffffffffffffffffffffffffffffffffffffff1673ffffffffffffffffffffffffffffffffffffffff16815260200190815260200160002060009054906101000a900460ff165b6103d5576040517f08c379a00000000000000000000000000000000000000000000000000000000081526004016103cc90611bab565b60405180910390fd5b6103f760046000858152602001908152602001600020600001548483856111e0565b505050565b6000600560008473ffffffffffffffffffffffffffffffffffffffff1673ffffffffffffffffffffffffffffffffffffffff168152602001908152602001600020600083815260200190815260200160002054905092915050565b600073ffffffffffffffffffffffffffffffffffffffff166003600084815260200190815260200160002060010160009054906101000a900473ffffffffffffffffffffffffffffffffffffffff1673ffffffffffffffffffffffffffffffffffffffff1614156104fd576040517f08c379a00000000000000000000000000000000000000000000000000000000081526004016104f490611a8b565b60405180910390fd5b600073ffffffffffffffffffffffffffffffffffffffff168173ffffffffffffffffffffffffffffffffffffffff16141561056d576040517f08c379a000000000000000000000000000000000000000000000000000000000815260040161056490611a6b565b60405180910390fd5b6000801b8214156105b3576040517f08c379a00000000000000000000000000000000000000000000000000000000081526004016105aa90611b0b565b60405180910390fd5b6003600083815260200190815260200160002060010160149054906101000a900460ff16156106e9573373ffffffffffffffffffffffffffffffffffffffff166003600084815260200190815260200160002060010160009054906101000a900473ffffffffffffffffffffffffffffffffffffffff1673ffffffffffffffffffffffffffffffffffffffff1614806106a957506003600083815260200190815260200160002060020160003373ffffffffffffffffffffffffffffffffffffffff1673ffffffffffffffffffffffffffffffffffffffff16815260200190815260200160002060009054906101000a900460ff165b6106e8576040517f08c379a00000000000000000000000000000000000000000000000000000000081526004016106df90611aeb565b60405180910390fd5b5b6001600260008282546106fc9190611c17565b925050819055506001600560008373ffffffffffffffffffffffffffffffffffffffff1673ffffffffffffffffffffffffffffffffffffffff16815260200190815260200160002060008060001b815260200190815260200160002060008282546107679190611c17565b925050819055506001600560008373ffffffffffffffffffffffffffffffffffffffff1673ffffffffffffffffffffffffffffffffffffffff168152602001908152602001600020600084815260200190815260200160002060008282546107cf9190611c17565b9250508190555081600460006002548152602001908152602001600020600001819055508060046000600254815260200190815260200160002060010160006101000a81548173ffffffffffffffffffffffffffffffffffffffff021916908373ffffffffffffffffffffffffffffffffffffffff1602179055505050565b600073ffffffffffffffffffffffffffffffffffffffff166003600086815260200190815260200160002060010160009054906101000a900473ffffffffffffffffffffffffffffffffffffffff1673ffffffffffffffffffffffffffffffffffffffff16146108f3576040517f08c379a00000000000000000000000000000000000000000000000000000000081526004016108ea90611aab565b60405180910390fd5b836003600086815260200190815260200160002060000181905550336003600086815260200190815260200160002060010160006101000a81548173ffffffffffffffffffffffffffffffffffffffff021916908373ffffffffffffffffffffffffffffffffffffffff160217905550828015610974575060008282905014155b15610a5d57826003600086815260200190815260200160002060010160146101000a81548160ff02191690831515021790555060005b82829050811015610a5b5760016003600087815260200190815260200160002060020160008585858181106109e2576109e1611d6b565b5b90506020020160208101906109f79190611585565b73ffffffffffffffffffffffffffffffffffffffff1673ffffffffffffffffffffffffffffffffffffffff16815260200190815260200160002060006101000a81548160ff0219169083151502179055508080610a5390611cf3565b9150506109aa565b505b50505050565b3373ffffffffffffffffffffffffffffffffffffffff166003600084815260200190815260200160002060010160009054906101000a900473ffffffffffffffffffffffffffffffffffffffff1673ffffffffffffffffffffffffffffffffffffffff1614610b07576040517f08c379a0000000000000000000000000000000000000000000000000000000008152600401610afe90611b6b565b60405180910390fd5b806003600084815260200190815260200160002060010160006101000a81548173ffffffffffffffffffffffffffffffffffffffff021916908373ffffffffffffffffffffffffffffffffffffffff1602179055505050565b3373ffffffffffffffffffffffffffffffffffffffff166003600087815260200190815260200160002060010160009054906101000a900473ffffffffffffffffffffffffffffffffffffffff1673ffffffffffffffffffffffffffffffffffffffff1614610c04576040517f08c379a0000000000000000000000000000000000000000000000000000000008152600401610bfb90611b6b565b60405180910390fd5b818190508484905014610c4c576040517f08c379a0000000000000000000000000000000000000000000000000000000008152600401610c4390611b8b565b60405180910390fd5b60005b84849050811015610d2657828282818110610c6d57610c6c611d6b565b5b9050602002016020810190610c8291906115f2565b600360008881526020019081526020016000206002016000878785818110610cad57610cac611d6b565b5b9050602002016020810190610cc29190611585565b73ffffffffffffffffffffffffffffffffffffffff1673ffffffffffffffffffffffffffffffffffffffff16815260200190815260200160002060006101000a81548160ff0219169083151502179055508080610d1e90611cf3565b915050610c4f565b505050505050565b6000600560008373ffffffffffffffffffffffffffffffffffffffff1673ffffffffffffffffffffffffffffffffffffffff16815260200190815260200160002060008060001b8152602001908152602001600020549050919050565b3373ffffffffffffffffffffffffffffffffffffffff166004600083815260200190815260200160002060010160009054906101000a900473ffffffffffffffffffffffffffffffffffffffff1673ffffffffffffffffffffffffffffffffffffffff1614610e2f576040517f08c379a0000000000000000000000000000000000000000000000000000000008152600401610e2690611acb565b60405180910390fd5b6000801b821415610e75576040517f08c379a0000000000000000000000000000000000000000000000000000000008152600401610e6c90611b4b565b60405180910390fd5b6001600560003373ffffffffffffffffffffffffffffffffffffffff1673ffffffffffffffffffffffffffffffffffffffff16815260200190815260200160002060008060001b81526020019081526020016000206000828254610ed99190611c6d565b925050819055506001600560003373ffffffffffffffffffffffffffffffffffffffff1673ffffffffffffffffffffffffffffffffffffffff16815260200190815260200160002060008481526020019081526020016000206000828254610f419190611c6d565b925050819055506000801b600460008381526020019081526020016000206000018190555060006004600083815260200190815260200160002060010160006101000a81548173ffffffffffffffffffffffffffffffffffffffff021916908373ffffffffffffffffffffffffffffffffffffffff1602179055505050565b60006004600085815260200190815260200160002060020160008473ffffffffffffffffffffffffffffffffffffffff1673ffffffffffffffffffffffffffffffffffffffff16815260200190815260200160002060008373ffffffffffffffffffffffffffffffffffffffff1673ffffffffffffffffffffffffffffffffffffffff16815260200190815260200160002060009054906101000a900460ff1690509392505050565b3373ffffffffffffffffffffffffffffffffffffffff166004600084815260200190815260200160002060010160009054906101000a900473ffffffffffffffffffffffffffffffffffffffff1673ffffffffffffffffffffffffffffffffffffffff161461110d576040517f08c379a000000000000000000000000000000000000000000000000000000000815260040161110490611acb565b60405180910390fd5b61112f60046000848152602001908152602001600020600001548383336111e0565b5050565b806004600085815260200190815260200160002060020160003373ffffffffffffffffffffffffffffffffffffffff1673ffffffffffffffffffffffffffffffffffffffff16815260200190815260200160002060008473ffffffffffffffffffffffffffffffffffffffff1673ffffffffffffffffffffffffffffffffffffffff16815260200190815260200160002060006101000a81548160ff021916908315150217905550505050565b8073ffffffffffffffffffffffffffffffffffffffff166004600085815260200190815260200160002060010160009054906101000a900473ffffffffffffffffffffffffffffffffffffffff1673ffffffffffffffffffffffffffffffffffffffff1614611284576040517f08c379a000000000000000000000000000000000000000000000000000000000815260040161127b90611b2b565b60405180910390fd5b6001600560008373ffffffffffffffffffffffffffffffffffffffff1673ffffffffffffffffffffffffffffffffffffffff16815260200190815260200160002060008060001b815260200190815260200160002060008282546112e89190611c6d565b925050819055506001600560008373ffffffffffffffffffffffffffffffffffffffff1673ffffffffffffffffffffffffffffffffffffffff168152602001908152602001600020600086815260200190815260200160002060008282546113509190611c6d565b92505081905550816004600085815260200190815260200160002060010160006101000a81548173ffffffffffffffffffffffffffffffffffffffff021916908373ffffffffffffffffffffffffffffffffffffffff1602179055506001600560008473ffffffffffffffffffffffffffffffffffffffff1673ffffffffffffffffffffffffffffffffffffffff16815260200190815260200160002060008060001b815260200190815260200160002060008282546114109190611c17565b925050819055506001600560008473ffffffffffffffffffffffffffffffffffffffff1673ffffffffffffffffffffffffffffffffffffffff168152602001908152602001600020600086815260200190815260200160002060008282546114789190611c17565b9250508190555050505050565b60008135905061149481611f9f565b92915050565b60008083601f8401126114b0576114af611d9f565b5b8235905067ffffffffffffffff8111156114cd576114cc611d9a565b5b6020830191508360208202830111156114e9576114e8611da4565b5b9250929050565b60008083601f84011261150657611505611d9f565b5b8235905067ffffffffffffffff81111561152357611522611d9a565b5b60208301915083602082028301111561153f5761153e611da4565b5b9250929050565b60008135905061155581611fb6565b92915050565b60008135905061156a81611fcd565b92915050565b60008135905061157f81611fe4565b92915050565b60006020828403121561159b5761159a611dae565b5b60006115a984828501611485565b91505092915050565b600080604083850312156115c9576115c8611dae565b5b60006115d785828601611485565b92505060206115e88582860161155b565b9150509250929050565b60006020828403121561160857611607611dae565b5b600061161684828501611546565b91505092915050565b6000806040838503121561163657611635611dae565b5b60006116448582860161155b565b925050602061165585828601611485565b9150509250929050565b60008060008060006060868803121561167b5761167a611dae565b5b60006116898882890161155b565b955050602086013567ffffffffffffffff8111156116aa576116a9611da9565b5b6116b68882890161149a565b9450945050604086013567ffffffffffffffff8111156116d9576116d8611da9565b5b6116e5888289016114f0565b92509250509295509295909350565b6000806000806060858703121561170e5761170d611dae565b5b600061171c8782880161155b565b945050602061172d87828801611546565b935050604085013567ffffffffffffffff81111561174e5761174d611da9565b5b61175a8782880161149a565b925092505092959194509250565b6000806040838503121561177f5761177e611dae565b5b600061178d8582860161155b565b925050602061179e85828601611570565b9150509250929050565b600080604083850312156117bf576117be611dae565b5b60006117cd85828601611570565b92505060206117de85828601611485565b9150509250929050565b60008060006060848603121561180157611800611dae565b5b600061180f86828701611570565b935050602061182086828701611485565b925050604061183186828701611485565b9150509250925092565b60008060006060848603121561185457611853611dae565b5b600061186286828701611570565b935050602061187386828701611485565b925050604061188486828701611546565b9150509250925092565b61189781611cb3565b82525050565b60006118aa601f83611c06565b91506118b582611db3565b602082019050919050565b60006118cd601883611c06565b91506118d882611ddc565b602082019050919050565b60006118f0601a83611c06565b91506118fb82611e05565b602082019050919050565b6000611913601783611c06565b915061191e82611e2e565b602082019050919050565b6000611936601583611c06565b915061194182611e57565b602082019050919050565b6000611959601f83611c06565b915061196482611e80565b602082019050919050565b600061197c601583611c06565b915061198782611ea9565b602082019050919050565b600061199f601f83611c06565b91506119aa82611ed2565b602082019050919050565b60006119c2601e83611c06565b91506119cd82611efb565b602082019050919050565b60006119e5601583611c06565b91506119f082611f24565b602082019050919050565b6000611a08601b83611c06565b9150611a1382611f4d565b602082019050919050565b6000611a2b601b83611c06565b9150611a3682611f76565b602082019050919050565b611a4a81611ce9565b82525050565b6000602082019050611a65600083018461188e565b92915050565b60006020820190508181036000830152611a848161189d565b9050919050565b60006020820190508181036000830152611aa4816118c0565b9050919050565b60006020820190508181036000830152611ac4816118e3565b9050919050565b60006020820190508181036000830152611ae481611906565b9050919050565b60006020820190508181036000830152611b0481611929565b9050919050565b60006020820190508181036000830152611b248161194c565b9050919050565b60006020820190508181036000830152611b448161196f565b9050919050565b60006020820190508181036000830152611b6481611992565b9050919050565b60006020820190508181036000830152611b84816119b5565b9050919050565b60006020820190508181036000830152611ba4816119d8565b9050919050565b60006020820190508181036000830152611bc4816119fb565b9050919050565b60006020820190508181036000830152611be481611a1e565b9050919050565b6000602082019050611c006000830184611a41565b92915050565b600082825260208201905092915050565b6000611c2282611ce9565b9150611c2d83611ce9565b9250827fffffffffffffffffffffffffffffffffffffffffffffffffffffffffffffffff03821115611c6257611c61611d3c565b5b828201905092915050565b6000611c7882611ce9565b9150611c8383611ce9565b925082821015611c9657611c95611d3c565b5b828203905092915050565b6000611cac82611cc9565b9050919050565b60008115159050919050565b6000819050919050565b600073ffffffffffffffffffffffffffffffffffffffff82169050919050565b6000819050919050565b6000611cfe82611ce9565b91507fffffffffffffffffffffffffffffffffffffffffffffffffffffffffffffffff821415611d3157611d30611d3c565b5b600182019050919050565b7f4e487b7100000000000000000000000000000000000000000000000000000000600052601160045260246000fd5b7f4e487b7100000000000000000000000000000000000000000000000000000000600052603260045260246000fd5b600080fd5b600080fd5b600080fd5b600080fd5b600080fd5b7f546f6b656e3a206d696e7420746f20746865207a65726f206164647265737300600082015250565b7f546f6b656e3a2054797065206e6f74206d696e7461626c650000000000000000600082015250565b7f546f6b656e3a205479706520616c726561647920657869737473000000000000600082015250565b7f546f6b656e3a2053656e646572206e6f74206f776e6572000000000000000000600082015250565b7f546f6b656e3a20496e76616c6964206d696e7465720000000000000000000000600082015250565b7f546f6b656e3a2063616e6e6f74206d696e7420776974686f7574207479706500600082015250565b7f546f6b656e3a2046726f6d206e6f74206f776e65720000000000000000000000600082015250565b7f546f6b656e3a2063616e6e6f74206275726e20776974686f7574207479706500600082015250565b7f546f6b656e3a204f776e65722063616e206368616e6765206d696e7465720000600082015250565b7f546f6b656e3a204172726179206d69736d617463680000000000000000000000600082015250565b7f546f6b656e3a204e6f7420617070726f766564207370656e6465720000000000600082015250565b7f546f6b656e3a2066726f6d206e6f7420746f6b656e206f776e65720000000000600082015250565b611fa881611ca1565b8114611fb357600080fd5b50565b611fbf81611cb3565b8114611fca57600080fd5b50565b611fd681611cbf565b8114611fe157600080fd5b50565b611fed81611ce9565b8114611ff857600080fd5b5056fea2646970667358221220444bfb0ad9b53807c76aaa2f0e079d34eb4ab94e877faa54e9578056a551cfaa64736f6c63430008070033",
  "linkReferences": {},
  "deployedLinkReferences": {}
}