{
  "_format": "hh-sol-artifact-1",
  "contractName": "AtlantisNft",
  "sourceName": "contracts/AtlantisNft.sol",
  "abi": [
    {
      "inputs": [
        {
          "internalType": "string",
          "name": "_name",
          "type": "string"
        },
        {
          "internalType": "string",
          "name": "_symbol",
          "type": "string"
        }
      ],
      "stateMutability": "nonpayable",
      "type": "constructor"
    },
    {
      "inputs": [
        {
          "internalType": "uint256",
          "name": "_tokenId",
          "type": "uint256"
        },
        {
          "internalType": "address",
          "name": "_spender",
          "type": "address"
        },
        {
          "internalType": "bool",
          "name": "_isApproved",
          "type": "bool"
        }
      ],
      "name": "approve",
      "outputs": [],
      "stateMutability": "nonpayable",
      "type": "function"
    },
    {
      "inputs": [
        {
          "internalType": "address",
          "name": "_owner",
          "type": "address"
        }
      ],
      "name": "balanceOf",
      "outputs": [
        {
          "internalType": "uint256",
          "name": "",
          "type": "uint256"
        }
      ],
      "stateMutability": "view",
      "type": "function"
    },
    {
      "inputs": [
        {
          "internalType": "address",
          "name": "_owner",
          "type": "address"
        },
        {
          "internalType": "bytes32",
          "name": "_type",
          "type": "bytes32"
        }
      ],
      "name": "balanceOfType",
      "outputs": [
        {
          "internalType": "uint256",
          "name": "",
          "type": "uint256"
        }
      ],
      "stateMutability": "view",
      "type": "function"
    },
    {
      "inputs": [
        {
          "internalType": "bytes32",
          "name": "_typeId",
          "type": "bytes32"
        },
        {
          "internalType": "uint256",
          "name": "_tokenId",
          "type": "uint256"
        }
      ],
      "name": "burn",
      "outputs": [],
      "stateMutability": "nonpayable",
      "type": "function"
    },
    {
      "inputs": [
        {
          "internalType": "bytes32",
          "name": "_typeId",
          "type": "bytes32"
        },
        {
          "internalType": "bool",
          "name": "_permissionMinting",
          "type": "bool"
        },
        {
          "internalType": "address[]",
          "name": "_minters",
          "type": "address[]"
        }
      ],
      "name": "createTokenType",
      "outputs": [],
      "stateMutability": "nonpayable",
      "type": "function"
    },
    {
      "inputs": [
        {
          "internalType": "uint256",
          "name": "_tokenId",
          "type": "uint256"
        },
        {
          "internalType": "address",
          "name": "_owner",
          "type": "address"
        },
        {
          "internalType": "address",
          "name": "_spender",
          "type": "address"
        }
      ],
      "name": "isApproved",
      "outputs": [
        {
          "internalType": "bool",
          "name": "",
          "type": "bool"
        }
      ],
      "stateMutability": "view",
      "type": "function"
    },
    {
      "inputs": [
        {
          "internalType": "bytes32",
          "name": "_typeId",
          "type": "bytes32"
        },
        {
          "internalType": "address",
          "name": "_to",
          "type": "address"
        }
      ],
      "name": "mint",
      "outputs": [],
      "stateMutability": "nonpayable",
      "type": "function"
    },
    {
      "inputs": [
        {
          "internalType": "uint256",
          "name": "_tokenId",
          "type": "uint256"
        },
        {
          "internalType": "address",
          "name": "_to",
          "type": "address"
        }
      ],
      "name": "transfer",
      "outputs": [],
      "stateMutability": "nonpayable",
      "type": "function"
    },
    {
      "inputs": [
        {
          "internalType": "uint256",
          "name": "_tokenId",
          "type": "uint256"
        },
        {
          "internalType": "address",
          "name": "_from",
          "type": "address"
        },
        {
          "internalType": "address",
          "name": "_to",
          "type": "address"
        }
      ],
      "name": "transferFrom",
      "outputs": [],
      "stateMutability": "nonpayable",
      "type": "function"
    },
    {
      "inputs": [
        {
          "internalType": "bytes32",
          "name": "_typeId",
          "type": "bytes32"
        },
        {
          "internalType": "address",
          "name": "_newOwner",
          "type": "address"
        }
      ],
      "name": "transferTypeOwnership",
      "outputs": [],
      "stateMutability": "nonpayable",
      "type": "function"
    },
    {
      "inputs": [
        {
          "internalType": "bytes32",
          "name": "_typeId",
          "type": "bytes32"
        },
        {
          "internalType": "address[]",
          "name": "_minters",
          "type": "address[]"
        },
        {
          "internalType": "bool[]",
          "name": "_isMinter",
          "type": "bool[]"
        }
      ],
      "name": "updateMinters",
      "outputs": [],
      "stateMutability": "nonpayable",
      "type": "function"
    }
  ],
  "bytecode": "0x60806040523480156200001157600080fd5b50604051620022d9380380620022d983398181016040528101906200003791906200019f565b81600090805190602001906200004f92919062000071565b5080600190805190602001906200006892919062000071565b505050620003a8565b8280546200007f90620002b9565b90600052602060002090601f016020900481019282620000a35760008555620000ef565b82601f10620000be57805160ff1916838001178555620000ef565b82800160010185558215620000ef579182015b82811115620000ee578251825591602001919060010190620000d1565b5b509050620000fe919062000102565b5090565b5b808211156200011d57600081600090555060010162000103565b5090565b60006200013862000132846200024d565b62000224565b90508281526020810184848401111562000157576200015662000388565b5b6200016484828562000283565b509392505050565b600082601f83011262000184576200018362000383565b5b81516200019684826020860162000121565b91505092915050565b60008060408385031215620001b957620001b862000392565b5b600083015167ffffffffffffffff811115620001da57620001d96200038d565b5b620001e8858286016200016c565b925050602083015167ffffffffffffffff8111156200020c576200020b6200038d565b5b6200021a858286016200016c565b9150509250929050565b60006200023062000243565b90506200023e8282620002ef565b919050565b6000604051905090565b600067ffffffffffffffff8211156200026b576200026a62000354565b5b620002768262000397565b9050602081019050919050565b60005b83811015620002a357808201518184015260208101905062000286565b83811115620002b3576000848401525b50505050565b60006002820490506001821680620002d257607f821691505b60208210811415620002e957620002e862000325565b5b50919050565b620002fa8262000397565b810181811067ffffffffffffffff821117156200031c576200031b62000354565b5b80604052505050565b7f4e487b7100000000000000000000000000000000000000000000000000000000600052602260045260246000fd5b7f4e487b7100000000000000000000000000000000000000000000000000000000600052604160045260246000fd5b600080fd5b600080fd5b600080fd5b600080fd5b6000601f19601f8301169050919050565b611f2180620003b86000396000f3fe608060405234801561001057600080fd5b50600436106100a95760003560e01c806366786acd1161007157806366786acd1461014e57806370a082311461016a5780637a4084541461019a5780637e49a01e146101b6578063b7760c8f146101e6578063e0611c3014610202576100a9565b80631103bf44146100ae57806313f3d8a4146100ca578063293c6a3a146100fa5780633f85b9a81461011657806347ce2eef14610132575b600080fd5b6100c860048036038101906100c39190611744565b61021e565b005b6100e460048036038101906100df919061150e565b6103fc565b6040516100f19190611b04565b60405180910390f35b610114600480360381019061010f919061157b565b610457565b005b610130600480360381019061012b9190611650565b61084e565b005b61014c6004803603810190610147919061157b565b610a63565b005b610168600480360381019061016391906115bb565b610b60565b005b610184600480360381019061017f91906114e1565b610d2e565b6040516101919190611b04565b60405180910390f35b6101b460048036038101906101af91906116c4565b610d8b565b005b6101d060048036038101906101cb9190611744565b610fc0565b6040516101dd9190611989565b60405180910390f35b61020060048036038101906101fb9190611704565b611069565b005b61021c60048036038101906102179190611797565b611133565b005b8173ffffffffffffffffffffffffffffffffffffffff166004600085815260200190815260200160002060010160009054906101000a900473ffffffffffffffffffffffffffffffffffffffff1673ffffffffffffffffffffffffffffffffffffffff16146102c2576040517f08c379a00000000000000000000000000000000000000000000000000000000081526004016102b990611ae4565b60405180910390fd5b3373ffffffffffffffffffffffffffffffffffffffff168273ffffffffffffffffffffffffffffffffffffffff16148061039657506004600084815260200190815260200160002060020160008373ffffffffffffffffffffffffffffffffffffffff1673ffffffffffffffffffffffffffffffffffffffff16815260200190815260200160002060003373ffffffffffffffffffffffffffffffffffffffff1673ffffffffffffffffffffffffffffffffffffffff16815260200190815260200160002060009054906101000a900460ff165b6103d5576040517f08c379a00000000000000000000000000000000000000000000000000000000081526004016103cc90611ac4565b60405180910390fd5b6103f760046000858152602001908152602001600020600001548483856111e0565b505050565b6000600560008473ffffffffffffffffffffffffffffffffffffffff1673ffffffffffffffffffffffffffffffffffffffff168152602001908152602001600020600083815260200190815260200160002054905092915050565b600073ffffffffffffffffffffffffffffffffffffffff166003600084815260200190815260200160002060010160009054906101000a900473ffffffffffffffffffffffffffffffffffffffff1673ffffffffffffffffffffffffffffffffffffffff1614156104fd576040517f08c379a00000000000000000000000000000000000000000000000000000000081526004016104f4906119c4565b60405180910390fd5b600073ffffffffffffffffffffffffffffffffffffffff168173ffffffffffffffffffffffffffffffffffffffff16141561056d576040517f08c379a0000000000000000000000000000000000000000000000000000000008152600401610564906119a4565b60405180910390fd5b6000801b8214156105b3576040517f08c379a00000000000000000000000000000000000000000000000000000000081526004016105aa90611a44565b60405180910390fd5b6003600083815260200190815260200160002060010160149054906101000a900460ff16156106e9573373ffffffffffffffffffffffffffffffffffffffff166003600084815260200190815260200160002060010160009054906101000a900473ffffffffffffffffffffffffffffffffffffffff1673ffffffffffffffffffffffffffffffffffffffff1614806106a957506003600083815260200190815260200160002060020160003373ffffffffffffffffffffffffffffffffffffffff1673ffffffffffffffffffffffffffffffffffffffff16815260200190815260200160002060009054906101000a900460ff165b6106e8576040517f08c379a00000000000000000000000000000000000000000000000000000000081526004016106df90611a24565b60405180910390fd5b5b6001600260008282546106fc9190611b30565b925050819055506001600560008373ffffffffffffffffffffffffffffffffffffffff1673ffffffffffffffffffffffffffffffffffffffff16815260200190815260200160002060008060001b815260200190815260200160002060008282546107679190611b30565b925050819055506001600560008373ffffffffffffffffffffffffffffffffffffffff1673ffffffffffffffffffffffffffffffffffffffff168152602001908152602001600020600084815260200190815260200160002060008282546107cf9190611b30565b9250508190555081600460006002548152602001908152602001600020600001819055508060046000600254815260200190815260200160002060010160006101000a81548173ffffffffffffffffffffffffffffffffffffffff021916908373ffffffffffffffffffffffffffffffffffffffff1602179055505050565b600073ffffffffffffffffffffffffffffffffffffffff166003600086815260200190815260200160002060010160009054906101000a900473ffffffffffffffffffffffffffffffffffffffff1673ffffffffffffffffffffffffffffffffffffffff16146108f3576040517f08c379a00000000000000000000000000000000000000000000000000000000081526004016108ea906119e4565b60405180910390fd5b836003600086815260200190815260200160002060000181905550336003600086815260200190815260200160002060010160006101000a81548173ffffffffffffffffffffffffffffffffffffffff021916908373ffffffffffffffffffffffffffffffffffffffff160217905550828015610974575060008282905014155b15610a5d57826003600086815260200190815260200160002060010160146101000a81548160ff02191690831515021790555060005b82829050811015610a5b5760016003600087815260200190815260200160002060020160008585858181106109e2576109e1611c84565b5b90506020020160208101906109f791906114e1565b73ffffffffffffffffffffffffffffffffffffffff1673ffffffffffffffffffffffffffffffffffffffff16815260200190815260200160002060006101000a81548160ff0219169083151502179055508080610a5390611c0c565b9150506109aa565b505b50505050565b3373ffffffffffffffffffffffffffffffffffffffff166003600084815260200190815260200160002060010160009054906101000a900473ffffffffffffffffffffffffffffffffffffffff1673ffffffffffffffffffffffffffffffffffffffff1614610b07576040517f08c379a0000000000000000000000000000000000000000000000000000000008152600401610afe90611a84565b60405180910390fd5b806003600084815260200190815260200160002060010160006101000a81548173ffffffffffffffffffffffffffffffffffffffff021916908373ffffffffffffffffffffffffffffffffffffffff1602179055505050565b3373ffffffffffffffffffffffffffffffffffffffff166003600087815260200190815260200160002060010160009054906101000a900473ffffffffffffffffffffffffffffffffffffffff1673ffffffffffffffffffffffffffffffffffffffff1614610c04576040517f08c379a0000000000000000000000000000000000000000000000000000000008152600401610bfb90611a84565b60405180910390fd5b818190508484905014610c4c576040517f08c379a0000000000000000000000000000000000000000000000000000000008152600401610c4390611aa4565b60405180910390fd5b60005b84849050811015610d2657828282818110610c6d57610c6c611c84565b5b9050602002016020810190610c82919061154e565b600360008881526020019081526020016000206002016000878785818110610cad57610cac611c84565b5b9050602002016020810190610cc291906114e1565b73ffffffffffffffffffffffffffffffffffffffff1673ffffffffffffffffffffffffffffffffffffffff16815260200190815260200160002060006101000a81548160ff0219169083151502179055508080610d1e90611c0c565b915050610c4f565b505050505050565b6000600560008373ffffffffffffffffffffffffffffffffffffffff1673ffffffffffffffffffffffffffffffffffffffff16815260200190815260200160002060008060001b8152602001908152602001600020549050919050565b3373ffffffffffffffffffffffffffffffffffffffff166004600083815260200190815260200160002060010160009054906101000a900473ffffffffffffffffffffffffffffffffffffffff1673ffffffffffffffffffffffffffffffffffffffff1614610e2f576040517f08c379a0000000000000000000000000000000000000000000000000000000008152600401610e2690611a04565b60405180910390fd5b6000801b821415610e75576040517f08c379a0000000000000000000000000000000000000000000000000000000008152600401610e6c90611a64565b60405180910390fd5b6001600560003373ffffffffffffffffffffffffffffffffffffffff1673ffffffffffffffffffffffffffffffffffffffff16815260200190815260200160002060008060001b81526020019081526020016000206000828254610ed99190611b86565b925050819055506001600560003373ffffffffffffffffffffffffffffffffffffffff1673ffffffffffffffffffffffffffffffffffffffff16815260200190815260200160002060008481526020019081526020016000206000828254610f419190611b86565b925050819055506000801b600460008381526020019081526020016000206000018190555060006004600083815260200190815260200160002060010160006101000a81548173ffffffffffffffffffffffffffffffffffffffff021916908373ffffffffffffffffffffffffffffffffffffffff1602179055505050565b60006004600085815260200190815260200160002060020160008473ffffffffffffffffffffffffffffffffffffffff1673ffffffffffffffffffffffffffffffffffffffff16815260200190815260200160002060008373ffffffffffffffffffffffffffffffffffffffff1673ffffffffffffffffffffffffffffffffffffffff16815260200190815260200160002060009054906101000a900460ff1690509392505050565b3373ffffffffffffffffffffffffffffffffffffffff166004600084815260200190815260200160002060010160009054906101000a900473ffffffffffffffffffffffffffffffffffffffff1673ffffffffffffffffffffffffffffffffffffffff161461110d576040517f08c379a000000000000000000000000000000000000000000000000000000000815260040161110490611a04565b60405180910390fd5b61112f60046000848152602001908152602001600020600001548383336111e0565b5050565b806004600085815260200190815260200160002060020160003373ffffffffffffffffffffffffffffffffffffffff1673ffffffffffffffffffffffffffffffffffffffff16815260200190815260200160002060008473ffffffffffffffffffffffffffffffffffffffff1673ffffffffffffffffffffffffffffffffffffffff16815260200190815260200160002060006101000a81548160ff021916908315150217905550505050565b6001600560008373ffffffffffffffffffffffffffffffffffffffff1673ffffffffffffffffffffffffffffffffffffffff16815260200190815260200160002060008060001b815260200190815260200160002060008282546112449190611b86565b925050819055506001600560008373ffffffffffffffffffffffffffffffffffffffff1673ffffffffffffffffffffffffffffffffffffffff168152602001908152602001600020600086815260200190815260200160002060008282546112ac9190611b86565b92505081905550816004600085815260200190815260200160002060010160006101000a81548173ffffffffffffffffffffffffffffffffffffffff021916908373ffffffffffffffffffffffffffffffffffffffff1602179055506001600560008473ffffffffffffffffffffffffffffffffffffffff1673ffffffffffffffffffffffffffffffffffffffff16815260200190815260200160002060008060001b8152602001908152602001600020600082825461136c9190611b30565b925050819055506001600560008473ffffffffffffffffffffffffffffffffffffffff1673ffffffffffffffffffffffffffffffffffffffff168152602001908152602001600020600086815260200190815260200160002060008282546113d49190611b30565b9250508190555050505050565b6000813590506113f081611e8f565b92915050565b60008083601f84011261140c5761140b611cb8565b5b8235905067ffffffffffffffff81111561142957611428611cb3565b5b60208301915083602082028301111561144557611444611cbd565b5b9250929050565b60008083601f84011261146257611461611cb8565b5b8235905067ffffffffffffffff81111561147f5761147e611cb3565b5b60208301915083602082028301111561149b5761149a611cbd565b5b9250929050565b6000813590506114b181611ea6565b92915050565b6000813590506114c681611ebd565b92915050565b6000813590506114db81611ed4565b92915050565b6000602082840312156114f7576114f6611cc7565b5b6000611505848285016113e1565b91505092915050565b6000806040838503121561152557611524611cc7565b5b6000611533858286016113e1565b9250506020611544858286016114b7565b9150509250929050565b60006020828403121561156457611563611cc7565b5b6000611572848285016114a2565b91505092915050565b6000806040838503121561159257611591611cc7565b5b60006115a0858286016114b7565b92505060206115b1858286016113e1565b9150509250929050565b6000806000806000606086880312156115d7576115d6611cc7565b5b60006115e5888289016114b7565b955050602086013567ffffffffffffffff81111561160657611605611cc2565b5b611612888289016113f6565b9450945050604086013567ffffffffffffffff81111561163557611634611cc2565b5b6116418882890161144c565b92509250509295509295909350565b6000806000806060858703121561166a57611669611cc7565b5b6000611678878288016114b7565b9450506020611689878288016114a2565b935050604085013567ffffffffffffffff8111156116aa576116a9611cc2565b5b6116b6878288016113f6565b925092505092959194509250565b600080604083850312156116db576116da611cc7565b5b60006116e9858286016114b7565b92505060206116fa858286016114cc565b9150509250929050565b6000806040838503121561171b5761171a611cc7565b5b6000611729858286016114cc565b925050602061173a858286016113e1565b9150509250929050565b60008060006060848603121561175d5761175c611cc7565b5b600061176b868287016114cc565b935050602061177c868287016113e1565b925050604061178d868287016113e1565b9150509250925092565b6000806000606084860312156117b0576117af611cc7565b5b60006117be868287016114cc565b93505060206117cf868287016113e1565b92505060406117e0868287016114a2565b9150509250925092565b6117f381611bcc565b82525050565b6000611806601f83611b1f565b915061181182611ccc565b602082019050919050565b6000611829601883611b1f565b915061183482611cf5565b602082019050919050565b600061184c601a83611b1f565b915061185782611d1e565b602082019050919050565b600061186f601783611b1f565b915061187a82611d47565b602082019050919050565b6000611892601583611b1f565b915061189d82611d70565b602082019050919050565b60006118b5601f83611b1f565b91506118c082611d99565b602082019050919050565b60006118d8601f83611b1f565b91506118e382611dc2565b602082019050919050565b60006118fb601e83611b1f565b915061190682611deb565b602082019050919050565b600061191e601583611b1f565b915061192982611e14565b602082019050919050565b6000611941601b83611b1f565b915061194c82611e3d565b602082019050919050565b6000611964601b83611b1f565b915061196f82611e66565b602082019050919050565b61198381611c02565b82525050565b600060208201905061199e60008301846117ea565b92915050565b600060208201905081810360008301526119bd816117f9565b9050919050565b600060208201905081810360008301526119dd8161181c565b9050919050565b600060208201905081810360008301526119fd8161183f565b9050919050565b60006020820190508181036000830152611a1d81611862565b9050919050565b60006020820190508181036000830152611a3d81611885565b9050919050565b60006020820190508181036000830152611a5d816118a8565b9050919050565b60006020820190508181036000830152611a7d816118cb565b9050919050565b60006020820190508181036000830152611a9d816118ee565b9050919050565b60006020820190508181036000830152611abd81611911565b9050919050565b60006020820190508181036000830152611add81611934565b9050919050565b60006020820190508181036000830152611afd81611957565b9050919050565b6000602082019050611b19600083018461197a565b92915050565b600082825260208201905092915050565b6000611b3b82611c02565b9150611b4683611c02565b9250827fffffffffffffffffffffffffffffffffffffffffffffffffffffffffffffffff03821115611b7b57611b7a611c55565b5b828201905092915050565b6000611b9182611c02565b9150611b9c83611c02565b925082821015611baf57611bae611c55565b5b828203905092915050565b6000611bc582611be2565b9050919050565b60008115159050919050565b6000819050919050565b600073ffffffffffffffffffffffffffffffffffffffff82169050919050565b6000819050919050565b6000611c1782611c02565b91507fffffffffffffffffffffffffffffffffffffffffffffffffffffffffffffffff821415611c4a57611c49611c55565b5b600182019050919050565b7f4e487b7100000000000000000000000000000000000000000000000000000000600052601160045260246000fd5b7f4e487b7100000000000000000000000000000000000000000000000000000000600052603260045260246000fd5b600080fd5b600080fd5b600080fd5b600080fd5b600080fd5b7f546f6b656e3a206d696e7420746f20746865207a65726f206164647265737300600082015250565b7f546f6b656e3a2054797065206e6f74206d696e7461626c650000000000000000600082015250565b7f546f6b656e3a205479706520616c726561647920657869737473000000000000600082015250565b7f546f6b656e3a2053656e646572206e6f74206f776e6572000000000000000000600082015250565b7f546f6b656e3a20496e76616c6964206d696e7465720000000000000000000000600082015250565b7f546f6b656e3a2063616e6e6f74206d696e7420776974686f7574207479706500600082015250565b7f546f6b656e3a2063616e6e6f74206275726e20776974686f7574207479706500600082015250565b7f546f6b656e3a204f776e65722063616e206368616e6765206d696e7465720000600082015250565b7f546f6b656e3a204172726179206d69736d617463680000000000000000000000600082015250565b7f546f6b656e3a204e6f7420617070726f766564207370656e6465720000000000600082015250565b7f546f6b656e3a2066726f6d206e6f7420746f6b656e206f776e65720000000000600082015250565b611e9881611bba565b8114611ea357600080fd5b50565b611eaf81611bcc565b8114611eba57600080fd5b50565b611ec681611bd8565b8114611ed157600080fd5b50565b611edd81611c02565b8114611ee857600080fd5b5056fea26469706673582212206788e7c272dc823a25537496742c6a5145932f5758eb706f0f9b04303f0d4e9564736f6c63430008070033",
  "linkReferences": {},
  "deployedLinkReferences": {}
}