{
  "_format": "hh-sol-artifact-1",
  "contractName": "Coordinator",
  "sourceName": "contracts/Coordinator.sol",
  "abi": [
    {
      "inputs": [
        {
          "internalType": "address",
          "name": "_core",
          "type": "address"
        }
      ],
      "stateMutability": "nonpayable",
      "type": "constructor"
    },
    {
      "inputs": [],
      "name": "IDENTIFIER",
      "outputs": [
        {
          "internalType": "bytes32",
          "name": "",
          "type": "bytes32"
        }
      ],
      "stateMutability": "view",
      "type": "function"
    },
    {
      "inputs": [
        {
          "internalType": "bytes32",
          "name": "_subIdentifier",
          "type": "bytes32"
        },
        {
          "internalType": "address",
          "name": "_subImplementation",
          "type": "address"
        }
      ],
      "name": "addSubSystem",
      "outputs": [],
      "stateMutability": "nonpayable",
      "type": "function"
    },
    {
      "inputs": [],
      "name": "core_",
      "outputs": [
        {
          "internalType": "contract ICore",
          "name": "",
          "type": "address"
        }
      ],
      "stateMutability": "view",
      "type": "function"
    },
    {
      "inputs": [
        {
          "internalType": "address",
          "name": "_system",
          "type": "address"
        },
        {
          "internalType": "bytes32",
          "name": "_subIdentifier",
          "type": "bytes32"
        }
      ],
      "name": "getSubSystem",
      "outputs": [
        {
          "internalType": "address",
          "name": "",
          "type": "address"
        }
      ],
      "stateMutability": "view",
      "type": "function"
    },
    {
      "inputs": [
        {
          "internalType": "bytes32",
          "name": "_exeID",
          "type": "bytes32"
        }
      ],
      "name": "isExecutable",
      "outputs": [
        {
          "internalType": "bool",
          "name": "",
          "type": "bool"
        }
      ],
      "stateMutability": "view",
      "type": "function"
    }
  ],
  "bytecode": "0x60c060405234801561001057600080fd5b506040516108d33803806108d3833981810160405281019061003291906100b0565b7fd578563424ab02f85ec03c6b1aee04947ebdd4a30db46cba3bcd7f56ef40b1998181608081815250508073ffffffffffffffffffffffffffffffffffffffff1660a08173ffffffffffffffffffffffffffffffffffffffff1660601b8152505050505061012b565b6000815190506100aa81610114565b92915050565b6000602082840312156100c6576100c561010f565b5b60006100d48482850161009b565b91505092915050565b60006100e8826100ef565b9050919050565b600073ffffffffffffffffffffffffffffffffffffffff82169050919050565b600080fd5b61011d816100dd565b811461012857600080fd5b50565b60805160a05160601c61077961015a6000396000818161019a01526103f00152600061034701526107796000f3fe608060405234801561001057600080fd5b50600436106100575760003560e01c806338c687821461005c5780633c9747f314610078578063701370dc146100965780639cf782cb146100c6578063eaddd0fd146100f6575b600080fd5b6100766004803603810190610071919061052d565b610114565b005b610080610345565b60405161008d9190610602565b60405180910390f35b6100b060048036038101906100ab9190610493565b610369565b6040516100bd91906105cc565b60405180910390f35b6100e060048036038101906100db91906104d3565b6103e3565b6040516100ed91906105e7565b60405180910390f35b6100fe6103ee565b60405161010b919061061d565b60405180910390f35b60003373ffffffffffffffffffffffffffffffffffffffff16633c9747f36040518163ffffffff1660e01b815260040160206040518083038186803b15801561015c57600080fd5b505afa158015610170573d6000803e3d6000fd5b505050506040513d601f19601f820116820180604052508101906101949190610500565b905060007f000000000000000000000000000000000000000000000000000000000000000073ffffffffffffffffffffffffffffffffffffffff1663624a23e0836040518263ffffffff1660e01b81526004016101f19190610602565b60206040518083038186803b15801561020957600080fd5b505afa15801561021d573d6000803e3d6000fd5b505050506040513d601f19601f820116820180604052508101906102419190610466565b90508073ffffffffffffffffffffffffffffffffffffffff163373ffffffffffffffffffffffffffffffffffffffff16146102b1576040517f08c379a00000000000000000000000000000000000000000000000000000000081526004016102a890610638565b60405180910390fd5b826000803373ffffffffffffffffffffffffffffffffffffffff1673ffffffffffffffffffffffffffffffffffffffff168152602001908152602001600020600086815260200190815260200160002060006101000a81548173ffffffffffffffffffffffffffffffffffffffff021916908373ffffffffffffffffffffffffffffffffffffffff16021790555050505050565b7f000000000000000000000000000000000000000000000000000000000000000081565b60008060008473ffffffffffffffffffffffffffffffffffffffff1673ffffffffffffffffffffffffffffffffffffffff168152602001908152602001600020600083815260200190815260200160002060009054906101000a900473ffffffffffffffffffffffffffffffffffffffff16905092915050565b600060019050919050565b7f000000000000000000000000000000000000000000000000000000000000000081565b60008135905061042181610715565b92915050565b60008151905061043681610715565b92915050565b60008135905061044b8161072c565b92915050565b6000815190506104608161072c565b92915050565b60006020828403121561047c5761047b6106e7565b5b600061048a84828501610427565b91505092915050565b600080604083850312156104aa576104a96106e7565b5b60006104b885828601610412565b92505060206104c98582860161043c565b9150509250929050565b6000602082840312156104e9576104e86106e7565b5b60006104f78482850161043c565b91505092915050565b600060208284031215610516576105156106e7565b5b600061052484828501610451565b91505092915050565b60008060408385031215610544576105436106e7565b5b60006105528582860161043c565b925050602061056385828601610412565b9150509250929050565b61057681610669565b82525050565b6105858161067b565b82525050565b61059481610687565b82525050565b6105a3816106b1565b82525050565b60006105b6601b83610658565b91506105c1826106ec565b602082019050919050565b60006020820190506105e1600083018461056d565b92915050565b60006020820190506105fc600083018461057c565b92915050565b6000602082019050610617600083018461058b565b92915050565b6000602082019050610632600083018461059a565b92915050565b60006020820190508181036000830152610651816105a9565b9050919050565b600082825260208201905092915050565b600061067482610691565b9050919050565b60008115159050919050565b6000819050919050565b600073ffffffffffffffffffffffffffffffffffffffff82169050919050565b60006106bc826106c3565b9050919050565b60006106ce826106d5565b9050919050565b60006106e082610691565b9050919050565b600080fd5b7f436f6f72643a20496e636f7272656374206964656e7469666965720000000000600082015250565b61071e81610669565b811461072957600080fd5b50565b61073581610687565b811461074057600080fd5b5056fea264697066735822122096b23d86eba6f185514cd4959fbd11ba552ea5d030623e468af697819b81317264736f6c63430008070033",
  "linkReferences": {},
  "deployedLinkReferences": {}
}