{
  "_format": "hh-sol-artifact-1",
  "contractName": "Coordinator",
  "sourceName": "contracts/Coordinator.sol",
  "abi": [
    {
      "inputs": [
        {
          "internalType": "address",
          "name": "_core",
          "type": "address"
        },
        {
          "internalType": "address",
          "name": "_timer",
          "type": "address"
        }
      ],
      "stateMutability": "nonpayable",
      "type": "constructor"
    },
    {
      "inputs": [],
      "name": "IDENTIFIER",
      "outputs": [
        {
          "internalType": "bytes32",
          "name": "",
          "type": "bytes32"
        }
      ],
      "stateMutability": "view",
      "type": "function"
    },
    {
      "inputs": [
        {
          "internalType": "bytes32",
          "name": "_subIdentifier",
          "type": "bytes32"
        },
        {
          "internalType": "address",
          "name": "_subImplementation",
          "type": "address"
        }
      ],
      "name": "addSubSystem",
      "outputs": [],
      "stateMutability": "nonpayable",
      "type": "function"
    },
    {
      "inputs": [],
      "name": "core_",
      "outputs": [
        {
          "internalType": "contract ICore",
          "name": "",
          "type": "address"
        }
      ],
      "stateMutability": "view",
      "type": "function"
    },
    {
      "inputs": [],
      "name": "getCurrentTime",
      "outputs": [
        {
          "internalType": "uint256",
          "name": "",
          "type": "uint256"
        }
      ],
      "stateMutability": "view",
      "type": "function"
    },
    {
      "inputs": [
        {
          "internalType": "address",
          "name": "_system",
          "type": "address"
        },
        {
          "internalType": "bytes32",
          "name": "_subIdentifier",
          "type": "bytes32"
        }
      ],
      "name": "getSubSystem",
      "outputs": [
        {
          "internalType": "address",
          "name": "",
          "type": "address"
        }
      ],
      "stateMutability": "view",
      "type": "function"
    },
    {
      "inputs": [
        {
          "internalType": "bytes32",
          "name": "_exeID",
          "type": "bytes32"
        }
      ],
      "name": "isExecutable",
      "outputs": [
        {
          "internalType": "bool",
          "name": "",
          "type": "bool"
        }
      ],
      "stateMutability": "view",
      "type": "function"
    },
    {
      "inputs": [
        {
          "internalType": "uint256",
          "name": "_propID",
          "type": "uint256"
        }
      ],
      "name": "isVotable",
      "outputs": [
        {
          "internalType": "bool",
          "name": "",
          "type": "bool"
        }
      ],
      "stateMutability": "view",
      "type": "function"
    },
    {
      "inputs": [
        {
          "internalType": "uint256",
          "name": "_propID",
          "type": "uint256"
        }
      ],
      "name": "queueProposal",
      "outputs": [],
      "stateMutability": "nonpayable",
      "type": "function"
    },
    {
      "inputs": [
        {
          "internalType": "uint256",
          "name": "time",
          "type": "uint256"
        }
      ],
      "name": "setCurrentTime",
      "outputs": [],
      "stateMutability": "nonpayable",
      "type": "function"
    },
    {
      "inputs": [],
      "name": "timerAddress",
      "outputs": [
        {
          "internalType": "address",
          "name": "",
          "type": "address"
        }
      ],
      "stateMutability": "view",
      "type": "function"
    },
    {
      "inputs": [
        {
          "internalType": "uint256",
          "name": "_propID",
          "type": "uint256"
        }
      ],
      "name": "voting",
      "outputs": [
        {
          "internalType": "bool",
          "name": "",
          "type": "bool"
        }
      ],
      "stateMutability": "nonpayable",
      "type": "function"
    }
  ],
  "bytecode": "0x60c06040523480156200001157600080fd5b5060405162001d1238038062001d1283398181016040528101906200003791906200013f565b7fd578563424ab02f85ec03c6b1aee04947ebdd4a30db46cba3bcd7f56ef40b19982828033600060026101000a81548173ffffffffffffffffffffffffffffffffffffffff021916908373ffffffffffffffffffffffffffffffffffffffff16021790555080600160006101000a81548173ffffffffffffffffffffffffffffffffffffffff021916908373ffffffffffffffffffffffffffffffffffffffff1602179055505082608081815250508173ffffffffffffffffffffffffffffffffffffffff1660a08173ffffffffffffffffffffffffffffffffffffffff1660601b815250505050505050620001d9565b6000815190506200013981620001bf565b92915050565b60008060408385031215620001595762000158620001ba565b5b6000620001698582860162000128565b92505060206200017c8582860162000128565b9150509250929050565b600062000193826200019a565b9050919050565b600073ffffffffffffffffffffffffffffffffffffffff82169050919050565b600080fd5b620001ca8162000186565b8114620001d657600080fd5b50565b60805160a05160601c611adf6200023360003960008181610351015281816106e101528181610930015281816109fd01528181610da70152818161100e0152818161103501526111020152600061088f0152611adf6000f3fe608060405234801561001057600080fd5b50600436106100a95760003560e01c80633c9747f3116100715780633c9747f314610152578063701370dc1461017057806394a14a34146101a05780639cf782cb146101bc578063eaddd0fd146101ec578063fd4a77f11461020a576100a9565b80631c39c38d146100ae57806322f8e566146100cc578063299ba15f146100e857806329cb924d1461011857806338c6878214610136575b600080fd5b6100b661023a565b6040516100c391906117c5565b60405180910390f35b6100e660048036038101906100e19190611694565b610260565b005b61010260048036038101906100fd9190611694565b61034c565b60405161010f91906117e0565b60405180910390f35b610120610556565b60405161012d91906118b1565b60405180910390f35b610150600480360381019061014b91906115ed565b61065b565b005b61015a61088d565b60405161016791906117fb565b60405180910390f35b61018a60048036038101906101859190611513565b6108b1565b60405161019791906117c5565b60405180910390f35b6101ba60048036038101906101b59190611694565b61092c565b005b6101d660048036038101906101d19190611593565b610da2565b6040516101e391906117e0565b60405180910390f35b6101f461100c565b6040516102019190611816565b60405180910390f35b610224600480360381019061021f9190611694565b611030565b60405161023191906117e0565b60405180910390f35b600160009054906101000a900473ffffffffffffffffffffffffffffffffffffffff1681565b600073ffffffffffffffffffffffffffffffffffffffff16600160009054906101000a900473ffffffffffffffffffffffffffffffffffffffff1673ffffffffffffffffffffffffffffffffffffffff1614156102bc57600080fd5b600160009054906101000a900473ffffffffffffffffffffffffffffffffffffffff1673ffffffffffffffffffffffffffffffffffffffff166322f8e566826040518263ffffffff1660e01b815260040161031791906118b1565b600060405180830381600087803b15801561033157600080fd5b505af1158015610345573d6000803e3d6000fd5b5050505050565b6000807f000000000000000000000000000000000000000000000000000000000000000073ffffffffffffffffffffffffffffffffffffffff1663624a23e07f36209a57dfd79e3872ec3a0c88c653bbe7e32a12306e5e1f92f118c1936ae8b26040518263ffffffff1660e01b81526004016103c891906117fb565b60206040518083038186803b1580156103e057600080fd5b505afa1580156103f4573d6000803e3d6000fd5b505050506040513d601f19601f8201168201806040525081019061041891906114e6565b90506000806000808473ffffffffffffffffffffffffffffffffffffffff1663a6640e4c886040518263ffffffff1660e01b815260040161045991906118b1565b60806040518083038186803b15801561047157600080fd5b505afa158015610485573d6000803e3d6000fd5b505050506040513d601f19601f820116820180604052508101906104a9919061162d565b9350935093509350600160088111156104c5576104c4611965565b5b8460088111156104d8576104d7611965565b5b14806105085750600260088111156104f3576104f2611965565b5b84600881111561050657610505611965565b5b145b801561051b5750610517610556565b8311155b801561052e575061052a610556565b8210155b8015610538575080155b1561054b57600195505050505050610551565b50505050505b919050565b60008073ffffffffffffffffffffffffffffffffffffffff16600160009054906101000a900473ffffffffffffffffffffffffffffffffffffffff1673ffffffffffffffffffffffffffffffffffffffff161461065457600160009054906101000a900473ffffffffffffffffffffffffffffffffffffffff1673ffffffffffffffffffffffffffffffffffffffff166329cb924d6040518163ffffffff1660e01b815260040160206040518083038186803b15801561061557600080fd5b505afa158015610629573d6000803e3d6000fd5b505050506040513d601f19601f8201168201806040525081019061064d91906116c1565b9050610658565b4290505b90565b60003373ffffffffffffffffffffffffffffffffffffffff16633c9747f36040518163ffffffff1660e01b815260040160206040518083038186803b1580156106a357600080fd5b505afa1580156106b7573d6000803e3d6000fd5b505050506040513d601f19601f820116820180604052508101906106db91906115c0565b905060007f000000000000000000000000000000000000000000000000000000000000000073ffffffffffffffffffffffffffffffffffffffff1663624a23e0836040518263ffffffff1660e01b815260040161073891906117fb565b60206040518083038186803b15801561075057600080fd5b505afa158015610764573d6000803e3d6000fd5b505050506040513d601f19601f8201168201806040525081019061078891906114e6565b90508073ffffffffffffffffffffffffffffffffffffffff163373ffffffffffffffffffffffffffffffffffffffff16146107f8576040517f08c379a00000000000000000000000000000000000000000000000000000000081526004016107ef90611891565b60405180910390fd5b82600260003373ffffffffffffffffffffffffffffffffffffffff1673ffffffffffffffffffffffffffffffffffffffff168152602001908152602001600020600086815260200190815260200160002060006101000a81548173ffffffffffffffffffffffffffffffffffffffff021916908373ffffffffffffffffffffffffffffffffffffffff16021790555050505050565b7f000000000000000000000000000000000000000000000000000000000000000081565b6000600260008473ffffffffffffffffffffffffffffffffffffffff1673ffffffffffffffffffffffffffffffffffffffff168152602001908152602001600020600083815260200190815260200160002060009054906101000a900473ffffffffffffffffffffffffffffffffffffffff16905092915050565b60007f000000000000000000000000000000000000000000000000000000000000000073ffffffffffffffffffffffffffffffffffffffff1663624a23e07f346b2ab3a980432fd8f2e24828fc9f9ee2df1548701bc542f6ec17882b3276276040518263ffffffff1660e01b81526004016109a791906117fb565b60206040518083038186803b1580156109bf57600080fd5b505afa1580156109d3573d6000803e3d6000fd5b505050506040513d601f19601f820116820180604052508101906109f791906114e6565b905060007f000000000000000000000000000000000000000000000000000000000000000073ffffffffffffffffffffffffffffffffffffffff1663624a23e07f36209a57dfd79e3872ec3a0c88c653bbe7e32a12306e5e1f92f118c1936ae8b26040518263ffffffff1660e01b8152600401610a7491906117fb565b60206040518083038186803b158015610a8c57600080fd5b505afa158015610aa0573d6000803e3d6000fd5b505050506040513d601f19601f82011682018060405250810190610ac491906114e6565b90506000806000808473ffffffffffffffffffffffffffffffffffffffff1663a6640e4c886040518263ffffffff1660e01b8152600401610b0591906118b1565b60806040518083038186803b158015610b1d57600080fd5b505afa158015610b31573d6000803e3d6000fd5b505050506040513d601f19601f82011682018060405250810190610b55919061162d565b9350935093509350610b65610556565b8210158015610b72575080155b610bb1576040517f08c379a0000000000000000000000000000000000000000000000000000000008152600401610ba890611871565b60405180910390fd5b6000808773ffffffffffffffffffffffffffffffffffffffff1663e343409a8a6040518263ffffffff1660e01b8152600401610bed91906118b1565b604080518083038186803b158015610c0457600080fd5b505afa158015610c18573d6000803e3d6000fd5b505050506040513d601f19601f82011682018060405250810190610c3c9190611553565b9150915081610cb5578673ffffffffffffffffffffffffffffffffffffffff16637ef966e48a6040518263ffffffff1660e01b8152600401610c7e91906118b1565b600060405180830381600087803b158015610c9857600080fd5b505af1158015610cac573d6000803e3d6000fd5b50505050610d97565b80610d2a578673ffffffffffffffffffffffffffffffffffffffff1663f40507ac8a6040518263ffffffff1660e01b8152600401610cf391906118b1565b600060405180830381600087803b158015610d0d57600080fd5b505af1158015610d21573d6000803e3d6000fd5b50505050610d96565b8673ffffffffffffffffffffffffffffffffffffffff1663cd39ebfd8a6040518263ffffffff1660e01b8152600401610d6391906118b1565b600060405180830381600087803b158015610d7d57600080fd5b505af1158015610d91573d6000803e3d6000fd5b505050505b5b505050505050505050565b6000807f000000000000000000000000000000000000000000000000000000000000000073ffffffffffffffffffffffffffffffffffffffff1663624a23e07f36209a57dfd79e3872ec3a0c88c653bbe7e32a12306e5e1f92f118c1936ae8b26040518263ffffffff1660e01b8152600401610e1e91906117fb565b60206040518083038186803b158015610e3657600080fd5b505afa158015610e4a573d6000803e3d6000fd5b505050506040513d601f19601f82011682018060405250810190610e6e91906114e6565b905060008173ffffffffffffffffffffffffffffffffffffffff16639e34fa6a856040518263ffffffff1660e01b8152600401610eab91906117fb565b60206040518083038186803b158015610ec357600080fd5b505afa158015610ed7573d6000803e3d6000fd5b505050506040513d601f19601f82011682018060405250810190610efb91906116c1565b90506000811415610f1157600092505050611007565b6000806000808573ffffffffffffffffffffffffffffffffffffffff1663a6640e4c866040518263ffffffff1660e01b8152600401610f5091906118b1565b60806040518083038186803b158015610f6857600080fd5b505afa158015610f7c573d6000803e3d6000fd5b505050506040513d601f19601f82011682018060405250810190610fa0919061162d565b935093509350935060066008811115610fbc57610fbb611965565b5b846008811115610fcf57610fce611965565b5b148015610fe25750610fdf610556565b82115b8015610fec575080155b156110005760019650505050505050611007565b5050505050505b919050565b7f000000000000000000000000000000000000000000000000000000000000000081565b6000807f000000000000000000000000000000000000000000000000000000000000000073ffffffffffffffffffffffffffffffffffffffff1663624a23e07f36209a57dfd79e3872ec3a0c88c653bbe7e32a12306e5e1f92f118c1936ae8b26040518263ffffffff1660e01b81526004016110ac91906117fb565b60206040518083038186803b1580156110c457600080fd5b505afa1580156110d8573d6000803e3d6000fd5b505050506040513d601f19601f820116820180604052508101906110fc91906114e6565b905060007f000000000000000000000000000000000000000000000000000000000000000073ffffffffffffffffffffffffffffffffffffffff1663624a23e07f346b2ab3a980432fd8f2e24828fc9f9ee2df1548701bc542f6ec17882b3276276040518263ffffffff1660e01b815260040161117991906117fb565b60206040518083038186803b15801561119157600080fd5b505afa1580156111a5573d6000803e3d6000fd5b505050506040513d601f19601f820116820180604052508101906111c991906114e6565b90506000806000808573ffffffffffffffffffffffffffffffffffffffff1663a6640e4c896040518263ffffffff1660e01b815260040161120a91906118b1565b60806040518083038186803b15801561122257600080fd5b505afa158015611236573d6000803e3d6000fd5b505050506040513d601f19601f8201168201806040525081019061125a919061162d565b93509350935093508473ffffffffffffffffffffffffffffffffffffffff163373ffffffffffffffffffffffffffffffffffffffff16146112d0576040517f08c379a00000000000000000000000000000000000000000000000000000000081526004016112c790611831565b60405180910390fd5b600160088111156112e4576112e3611965565b5b8460088111156112f7576112f6611965565b5b148061132757506002600881111561131257611311611965565b5b84600881111561132557611324611965565b5b145b801561133a5750611336610556565b8311155b801561134d5750611349610556565b8210155b8015611357575080155b611396576040517f08c379a000000000000000000000000000000000000000000000000000000000815260040161138d90611851565b60405180910390fd5b600160088111156113aa576113a9611965565b5b8460088111156113bd576113bc611965565b5b141561142f578573ffffffffffffffffffffffffffffffffffffffff166377e4b811896040518263ffffffff1660e01b81526004016113fc91906118b1565b600060405180830381600087803b15801561141657600080fd5b505af115801561142a573d6000803e3d6000fd5b505050505b60019650505050505050919050565b60008135905061144d81611a3d565b92915050565b60008151905061146281611a3d565b92915050565b60008151905061147781611a54565b92915050565b60008135905061148c81611a6b565b92915050565b6000815190506114a181611a6b565b92915050565b6000815190506114b681611a82565b92915050565b6000813590506114cb81611a92565b92915050565b6000815190506114e081611a92565b92915050565b6000602082840312156114fc576114fb611994565b5b600061150a84828501611453565b91505092915050565b6000806040838503121561152a57611529611994565b5b60006115388582860161143e565b92505060206115498582860161147d565b9150509250929050565b6000806040838503121561156a57611569611994565b5b600061157885828601611468565b925050602061158985828601611468565b9150509250929050565b6000602082840312156115a9576115a8611994565b5b60006115b78482850161147d565b91505092915050565b6000602082840312156115d6576115d5611994565b5b60006115e484828501611492565b91505092915050565b6000806040838503121561160457611603611994565b5b60006116128582860161147d565b92505060206116238582860161143e565b9150509250929050565b6000806000806080858703121561164757611646611994565b5b6000611655878288016114a7565b9450506020611666878288016114d1565b9350506040611677878288016114d1565b925050606061168887828801611468565b91505092959194509250565b6000602082840312156116aa576116a9611994565b5b60006116b8848285016114bc565b91505092915050565b6000602082840312156116d7576116d6611994565b5b60006116e5848285016114d1565b91505092915050565b6116f7816118dd565b82525050565b611706816118ef565b82525050565b611715816118fb565b82525050565b6117248161192f565b82525050565b6000611737601a836118cc565b915061174282611999565b602082019050919050565b600061175a6017836118cc565b9150611765826119c2565b602082019050919050565b600061177d6020836118cc565b9150611788826119eb565b602082019050919050565b60006117a0601b836118cc565b91506117ab82611a14565b602082019050919050565b6117bf81611925565b82525050565b60006020820190506117da60008301846116ee565b92915050565b60006020820190506117f560008301846116fd565b92915050565b6000602082019050611810600083018461170c565b92915050565b600060208201905061182b600083018461171b565b92915050565b6000602082019050818103600083015261184a8161172a565b9050919050565b6000602082019050818103600083015261186a8161174d565b9050919050565b6000602082019050818103600083015261188a81611770565b9050919050565b600060208201905081810360008301526118aa81611793565b9050919050565b60006020820190506118c660008301846117b6565b92915050565b600082825260208201905092915050565b60006118e882611905565b9050919050565b60008115159050919050565b6000819050919050565b600073ffffffffffffffffffffffffffffffffffffffff82169050919050565b6000819050919050565b600061193a82611941565b9050919050565b600061194c82611953565b9050919050565b600061195e82611905565b9050919050565b7f4e487b7100000000000000000000000000000000000000000000000000000000600052602160045260246000fd5b600080fd5b7f436f6f72643a204f6e6c7920626f6f74682063616e2063616c6c000000000000600082015250565b7f436f6f72643a2070726f70206e6f7420766f7461626c65000000000000000000600082015250565b7f436f6f72643a20766f74696e6720616374697665206f72206578656375746564600082015250565b7f436f6f72643a20496e636f727265637420494420666f72207375620000000000600082015250565b611a46816118dd565b8114611a5157600080fd5b50565b611a5d816118ef565b8114611a6857600080fd5b50565b611a74816118fb565b8114611a7f57600080fd5b50565b60098110611a8f57600080fd5b50565b611a9b81611925565b8114611aa657600080fd5b5056fea264697066735822122092b5b3b890d9798e5a451128d7c56bd50527379f4ae61195153dc5dc61ddfdf864736f6c63430008070033",
  "linkReferences": {},
  "deployedLinkReferences": {}
}