{
  "_format": "hh-sol-artifact-1",
  "contractName": "Coordinator",
  "sourceName": "contracts/Coordinator.sol",
  "abi": [
    {
      "inputs": [
        {
          "internalType": "address",
          "name": "_core",
          "type": "address"
        },
        {
          "internalType": "address",
          "name": "_timer",
          "type": "address"
        }
      ],
      "stateMutability": "nonpayable",
      "type": "constructor"
    },
    {
      "inputs": [],
      "name": "IDENTIFIER",
      "outputs": [
        {
          "internalType": "bytes32",
          "name": "",
          "type": "bytes32"
        }
      ],
      "stateMutability": "view",
      "type": "function"
    },
    {
      "inputs": [
        {
          "internalType": "bytes32",
          "name": "_subIdentifier",
          "type": "bytes32"
        },
        {
          "internalType": "address",
          "name": "_subImplementation",
          "type": "address"
        }
      ],
      "name": "addSubSystem",
      "outputs": [],
      "stateMutability": "nonpayable",
      "type": "function"
    },
    {
      "inputs": [],
      "name": "core_",
      "outputs": [
        {
          "internalType": "contract ICore",
          "name": "",
          "type": "address"
        }
      ],
      "stateMutability": "view",
      "type": "function"
    },
    {
      "inputs": [],
      "name": "getCurrentTime",
      "outputs": [
        {
          "internalType": "uint256",
          "name": "",
          "type": "uint256"
        }
      ],
      "stateMutability": "view",
      "type": "function"
    },
    {
      "inputs": [
        {
          "internalType": "address",
          "name": "_system",
          "type": "address"
        },
        {
          "internalType": "bytes32",
          "name": "_subIdentifier",
          "type": "bytes32"
        }
      ],
      "name": "getSubSystem",
      "outputs": [
        {
          "internalType": "address",
          "name": "",
          "type": "address"
        }
      ],
      "stateMutability": "view",
      "type": "function"
    },
    {
      "inputs": [
        {
          "internalType": "bytes32",
          "name": "_exeID",
          "type": "bytes32"
        }
      ],
      "name": "isExecutable",
      "outputs": [
        {
          "internalType": "bool",
          "name": "",
          "type": "bool"
        }
      ],
      "stateMutability": "view",
      "type": "function"
    },
    {
      "inputs": [
        {
          "internalType": "uint256",
          "name": "_propID",
          "type": "uint256"
        }
      ],
      "name": "isVotable",
      "outputs": [
        {
          "internalType": "bool",
          "name": "",
          "type": "bool"
        }
      ],
      "stateMutability": "view",
      "type": "function"
    },
    {
      "inputs": [
        {
          "internalType": "uint256",
          "name": "_propID",
          "type": "uint256"
        }
      ],
      "name": "queueProposal",
      "outputs": [],
      "stateMutability": "nonpayable",
      "type": "function"
    },
    {
      "inputs": [
        {
          "internalType": "uint256",
          "name": "time",
          "type": "uint256"
        }
      ],
      "name": "setCurrentTime",
      "outputs": [],
      "stateMutability": "nonpayable",
      "type": "function"
    },
    {
      "inputs": [
        {
          "internalType": "bytes32",
          "name": "_exeID",
          "type": "bytes32"
        }
      ],
      "name": "setExecute",
      "outputs": [],
      "stateMutability": "nonpayable",
      "type": "function"
    },
    {
      "inputs": [],
      "name": "timerAddress",
      "outputs": [
        {
          "internalType": "address",
          "name": "",
          "type": "address"
        }
      ],
      "stateMutability": "view",
      "type": "function"
    },
    {
      "inputs": [
        {
          "internalType": "uint256",
          "name": "_propID",
          "type": "uint256"
        }
      ],
      "name": "voting",
      "outputs": [],
      "stateMutability": "nonpayable",
      "type": "function"
    }
  ],
  "bytecode": "0x60c06040523480156200001157600080fd5b50604051620022253803806200222583398181016040528101906200003791906200013f565b7fd578563424ab02f85ec03c6b1aee04947ebdd4a30db46cba3bcd7f56ef40b19982828033600060026101000a81548173ffffffffffffffffffffffffffffffffffffffff021916908373ffffffffffffffffffffffffffffffffffffffff16021790555080600160006101000a81548173ffffffffffffffffffffffffffffffffffffffff021916908373ffffffffffffffffffffffffffffffffffffffff1602179055505082608081815250508173ffffffffffffffffffffffffffffffffffffffff1660a08173ffffffffffffffffffffffffffffffffffffffff1660601b815250505050505050620001d9565b6000815190506200013981620001bf565b92915050565b60008060408385031215620001595762000158620001ba565b5b6000620001698582860162000128565b92505060206200017c8582860162000128565b9150509250929050565b600062000193826200019a565b9050919050565b600073ffffffffffffffffffffffffffffffffffffffff82169050919050565b600080fd5b620001ca8162000186565b8114620001d657600080fd5b50565b60805160a05160601c611fe46200024160003960008181610364015281816106f801528181610945015281816109d501528181610cff01528181610dcc0152818161116f015281816113d6015281816113fc01526114c9015260006108a60152611fe46000f3fe608060405234801561001057600080fd5b50600436106100b45760003560e01c8063701370dc11610071578063701370dc1461017b5780637526bd9b146101ab57806394a14a34146101c75780639cf782cb146101e3578063eaddd0fd14610213578063fd4a77f114610231576100b4565b80631c39c38d146100b957806322f8e566146100d7578063299ba15f146100f357806329cb924d1461012357806338c68782146101415780633c9747f31461015d575b600080fd5b6100c161024d565b6040516100ce9190611bef565b60405180910390f35b6100f160048036038101906100ec9190611a55565b610273565b005b61010d60048036038101906101089190611a55565b61035f565b60405161011a9190611c0a565b60405180910390f35b61012b61056d565b6040516101389190611d3b565b60405180910390f35b61015b600480360381019061015691906119ae565b610672565b005b6101656108a4565b6040516101729190611c25565b60405180910390f35b610195600480360381019061019091906118d4565b6108c8565b6040516101a29190611bef565b60405180910390f35b6101c560048036038101906101c09190611954565b610943565b005b6101e160048036038101906101dc9190611a55565b610cfb565b005b6101fd60048036038101906101f89190611954565b61116a565b60405161020a9190611c0a565b60405180910390f35b61021b6113d4565b6040516102289190611c40565b60405180910390f35b61024b60048036038101906102469190611a55565b6113f8565b005b600160009054906101000a900473ffffffffffffffffffffffffffffffffffffffff1681565b600073ffffffffffffffffffffffffffffffffffffffff16600160009054906101000a900473ffffffffffffffffffffffffffffffffffffffff1673ffffffffffffffffffffffffffffffffffffffff1614156102cf57600080fd5b600160009054906101000a900473ffffffffffffffffffffffffffffffffffffffff1673ffffffffffffffffffffffffffffffffffffffff166322f8e566826040518263ffffffff1660e01b815260040161032a9190611d3b565b600060405180830381600087803b15801561034457600080fd5b505af1158015610358573d6000803e3d6000fd5b5050505050565b6000807f000000000000000000000000000000000000000000000000000000000000000073ffffffffffffffffffffffffffffffffffffffff1663624a23e07f36209a57dfd79e3872ec3a0c88c653bbe7e32a12306e5e1f92f118c1936ae8b26040518263ffffffff1660e01b81526004016103db9190611c25565b60206040518083038186803b1580156103f357600080fd5b505afa158015610407573d6000803e3d6000fd5b505050506040513d601f19601f8201168201806040525081019061042b91906118a7565b90506000806000808473ffffffffffffffffffffffffffffffffffffffff1663a6640e4c886040518263ffffffff1660e01b815260040161046c9190611d3b565b60806040518083038186803b15801561048457600080fd5b505afa158015610498573d6000803e3d6000fd5b505050506040513d601f19601f820116820180604052508101906104bc91906119ee565b9350935093509350600160068111156104d8576104d7611def565b5b8460068111156104eb576104ea611def565b5b148061051b57506002600681111561050657610505611def565b5b84600681111561051957610518611def565b5b145b801561052e575061052a61056d565b8311155b8015610541575061053d61056d565b8210155b801561054b575080155b1561055e57600195505050505050610568565b6000955050505050505b919050565b60008073ffffffffffffffffffffffffffffffffffffffff16600160009054906101000a900473ffffffffffffffffffffffffffffffffffffffff1673ffffffffffffffffffffffffffffffffffffffff161461066b57600160009054906101000a900473ffffffffffffffffffffffffffffffffffffffff1673ffffffffffffffffffffffffffffffffffffffff166329cb924d6040518163ffffffff1660e01b815260040160206040518083038186803b15801561062c57600080fd5b505afa158015610640573d6000803e3d6000fd5b505050506040513d601f19601f820116820180604052508101906106649190611a82565b905061066f565b4290505b90565b60003373ffffffffffffffffffffffffffffffffffffffff16633c9747f36040518163ffffffff1660e01b815260040160206040518083038186803b1580156106ba57600080fd5b505afa1580156106ce573d6000803e3d6000fd5b505050506040513d601f19601f820116820180604052508101906106f29190611981565b905060007f000000000000000000000000000000000000000000000000000000000000000073ffffffffffffffffffffffffffffffffffffffff1663624a23e0836040518263ffffffff1660e01b815260040161074f9190611c25565b60206040518083038186803b15801561076757600080fd5b505afa15801561077b573d6000803e3d6000fd5b505050506040513d601f19601f8201168201806040525081019061079f91906118a7565b90508073ffffffffffffffffffffffffffffffffffffffff163373ffffffffffffffffffffffffffffffffffffffff161461080f576040517f08c379a000000000000000000000000000000000000000000000000000000000815260040161080690611d1b565b60405180910390fd5b82600260003373ffffffffffffffffffffffffffffffffffffffff1673ffffffffffffffffffffffffffffffffffffffff168152602001908152602001600020600086815260200190815260200160002060006101000a81548173ffffffffffffffffffffffffffffffffffffffff021916908373ffffffffffffffffffffffffffffffffffffffff16021790555050505050565b7f000000000000000000000000000000000000000000000000000000000000000081565b6000600260008473ffffffffffffffffffffffffffffffffffffffff1673ffffffffffffffffffffffffffffffffffffffff168152602001908152602001600020600083815260200190815260200160002060009054906101000a900473ffffffffffffffffffffffffffffffffffffffff16905092915050565b7f000000000000000000000000000000000000000000000000000000000000000073ffffffffffffffffffffffffffffffffffffffff163373ffffffffffffffffffffffffffffffffffffffff16146109d1576040517f08c379a00000000000000000000000000000000000000000000000000000000081526004016109c890611c7b565b60405180910390fd5b60007f000000000000000000000000000000000000000000000000000000000000000073ffffffffffffffffffffffffffffffffffffffff1663624a23e07f36209a57dfd79e3872ec3a0c88c653bbe7e32a12306e5e1f92f118c1936ae8b26040518263ffffffff1660e01b8152600401610a4c9190611c25565b60206040518083038186803b158015610a6457600080fd5b505afa158015610a78573d6000803e3d6000fd5b505050506040513d601f19601f82011682018060405250810190610a9c91906118a7565b905060008173ffffffffffffffffffffffffffffffffffffffff16639e34fa6a846040518263ffffffff1660e01b8152600401610ad99190611c25565b60206040518083038186803b158015610af157600080fd5b505afa158015610b05573d6000803e3d6000fd5b505050506040513d601f19601f82011682018060405250810190610b299190611a82565b90506000811415610b6f576040517f08c379a0000000000000000000000000000000000000000000000000000000008152600401610b6690611cdb565b60405180910390fd5b60008060008473ffffffffffffffffffffffffffffffffffffffff1663a6640e4c856040518263ffffffff1660e01b8152600401610bad9190611d3b565b60806040518083038186803b158015610bc557600080fd5b505afa158015610bd9573d6000803e3d6000fd5b505050506040513d601f19601f82011682018060405250810190610bfd91906119ee565b9350935050925060036006811115610c1857610c17611def565b5b836006811115610c2b57610c2a611def565b5b148015610c3f5750610c3b61056d565b8211155b8015610c49575080155b610c88576040517f08c379a0000000000000000000000000000000000000000000000000000000008152600401610c7f90611c5b565b60405180910390fd5b8473ffffffffffffffffffffffffffffffffffffffff1663b7abd803856040518263ffffffff1660e01b8152600401610cc19190611d3b565b600060405180830381600087803b158015610cdb57600080fd5b505af1158015610cef573d6000803e3d6000fd5b50505050505050505050565b60007f000000000000000000000000000000000000000000000000000000000000000073ffffffffffffffffffffffffffffffffffffffff1663624a23e07f346b2ab3a980432fd8f2e24828fc9f9ee2df1548701bc542f6ec17882b3276276040518263ffffffff1660e01b8152600401610d769190611c25565b60206040518083038186803b158015610d8e57600080fd5b505afa158015610da2573d6000803e3d6000fd5b505050506040513d601f19601f82011682018060405250810190610dc691906118a7565b905060007f000000000000000000000000000000000000000000000000000000000000000073ffffffffffffffffffffffffffffffffffffffff1663624a23e07f36209a57dfd79e3872ec3a0c88c653bbe7e32a12306e5e1f92f118c1936ae8b26040518263ffffffff1660e01b8152600401610e439190611c25565b60206040518083038186803b158015610e5b57600080fd5b505afa158015610e6f573d6000803e3d6000fd5b505050506040513d601f19601f82011682018060405250810190610e9391906118a7565b90506000808273ffffffffffffffffffffffffffffffffffffffff1663a6640e4c866040518263ffffffff1660e01b8152600401610ed19190611d3b565b60806040518083038186803b158015610ee957600080fd5b505afa158015610efd573d6000803e3d6000fd5b505050506040513d601f19601f82011682018060405250810190610f2191906119ee565b935093505050610f2f61056d565b8211158015610f3c575080155b610f7b576040517f08c379a0000000000000000000000000000000000000000000000000000000008152600401610f7290611cfb565b60405180910390fd5b6000808573ffffffffffffffffffffffffffffffffffffffff1663e343409a886040518263ffffffff1660e01b8152600401610fb79190611d3b565b604080518083038186803b158015610fce57600080fd5b505afa158015610fe2573d6000803e3d6000fd5b505050506040513d601f19601f820116820180604052508101906110069190611914565b915091508161107f578473ffffffffffffffffffffffffffffffffffffffff16637ef966e4886040518263ffffffff1660e01b81526004016110489190611d3b565b600060405180830381600087803b15801561106257600080fd5b505af1158015611076573d6000803e3d6000fd5b50505050611161565b806110f4578473ffffffffffffffffffffffffffffffffffffffff1663f40507ac886040518263ffffffff1660e01b81526004016110bd9190611d3b565b600060405180830381600087803b1580156110d757600080fd5b505af11580156110eb573d6000803e3d6000fd5b50505050611160565b8473ffffffffffffffffffffffffffffffffffffffff1663cd39ebfd886040518263ffffffff1660e01b815260040161112d9190611d3b565b600060405180830381600087803b15801561114757600080fd5b505af115801561115b573d6000803e3d6000fd5b505050505b5b50505050505050565b6000807f000000000000000000000000000000000000000000000000000000000000000073ffffffffffffffffffffffffffffffffffffffff1663624a23e07f36209a57dfd79e3872ec3a0c88c653bbe7e32a12306e5e1f92f118c1936ae8b26040518263ffffffff1660e01b81526004016111e69190611c25565b60206040518083038186803b1580156111fe57600080fd5b505afa158015611212573d6000803e3d6000fd5b505050506040513d601f19601f8201168201806040525081019061123691906118a7565b905060008173ffffffffffffffffffffffffffffffffffffffff16639e34fa6a856040518263ffffffff1660e01b81526004016112739190611c25565b60206040518083038186803b15801561128b57600080fd5b505afa15801561129f573d6000803e3d6000fd5b505050506040513d601f19601f820116820180604052508101906112c39190611a82565b905060008114156112d9576000925050506113cf565b60008060008473ffffffffffffffffffffffffffffffffffffffff1663a6640e4c856040518263ffffffff1660e01b81526004016113179190611d3b565b60806040518083038186803b15801561132f57600080fd5b505afa158015611343573d6000803e3d6000fd5b505050506040513d601f19601f8201168201806040525081019061136791906119ee565b935093505092506003600681111561138257611381611def565b5b83600681111561139557611394611def565b5b1480156113a857506113a561056d565b82105b80156113b2575080155b156113c5576001955050505050506113cf565b6000955050505050505b919050565b7f000000000000000000000000000000000000000000000000000000000000000081565b60007f000000000000000000000000000000000000000000000000000000000000000073ffffffffffffffffffffffffffffffffffffffff1663624a23e07f36209a57dfd79e3872ec3a0c88c653bbe7e32a12306e5e1f92f118c1936ae8b26040518263ffffffff1660e01b81526004016114739190611c25565b60206040518083038186803b15801561148b57600080fd5b505afa15801561149f573d6000803e3d6000fd5b505050506040513d601f19601f820116820180604052508101906114c391906118a7565b905060007f000000000000000000000000000000000000000000000000000000000000000073ffffffffffffffffffffffffffffffffffffffff1663624a23e07f346b2ab3a980432fd8f2e24828fc9f9ee2df1548701bc542f6ec17882b3276276040518263ffffffff1660e01b81526004016115409190611c25565b60206040518083038186803b15801561155857600080fd5b505afa15801561156c573d6000803e3d6000fd5b505050506040513d601f19601f8201168201806040525081019061159091906118a7565b90506000806000808573ffffffffffffffffffffffffffffffffffffffff1663a6640e4c886040518263ffffffff1660e01b81526004016115d19190611d3b565b60806040518083038186803b1580156115e957600080fd5b505afa1580156115fd573d6000803e3d6000fd5b505050506040513d601f19601f8201168201806040525081019061162191906119ee565b93509350935093508473ffffffffffffffffffffffffffffffffffffffff163373ffffffffffffffffffffffffffffffffffffffff1614611697576040517f08c379a000000000000000000000000000000000000000000000000000000000815260040161168e90611c9b565b60405180910390fd5b600160068111156116ab576116aa611def565b5b8460068111156116be576116bd611def565b5b14806116ee5750600260068111156116d9576116d8611def565b5b8460068111156116ec576116eb611def565b5b145b801561170157506116fd61056d565b8311155b8015611714575061171061056d565b8210155b801561171e575080155b61175d576040517f08c379a000000000000000000000000000000000000000000000000000000000815260040161175490611cbb565b60405180910390fd5b6001600681111561177157611770611def565b5b84600681111561178457611783611def565b5b14156117f6578573ffffffffffffffffffffffffffffffffffffffff166377e4b811886040518263ffffffff1660e01b81526004016117c39190611d3b565b600060405180830381600087803b1580156117dd57600080fd5b505af11580156117f1573d6000803e3d6000fd5b505050505b50505050505050565b60008135905061180e81611f42565b92915050565b60008151905061182381611f42565b92915050565b60008151905061183881611f59565b92915050565b60008135905061184d81611f70565b92915050565b60008151905061186281611f70565b92915050565b60008151905061187781611f87565b92915050565b60008135905061188c81611f97565b92915050565b6000815190506118a181611f97565b92915050565b6000602082840312156118bd576118bc611e1e565b5b60006118cb84828501611814565b91505092915050565b600080604083850312156118eb576118ea611e1e565b5b60006118f9858286016117ff565b925050602061190a8582860161183e565b9150509250929050565b6000806040838503121561192b5761192a611e1e565b5b600061193985828601611829565b925050602061194a85828601611829565b9150509250929050565b60006020828403121561196a57611969611e1e565b5b60006119788482850161183e565b91505092915050565b60006020828403121561199757611996611e1e565b5b60006119a584828501611853565b91505092915050565b600080604083850312156119c5576119c4611e1e565b5b60006119d38582860161183e565b92505060206119e4858286016117ff565b9150509250929050565b60008060008060808587031215611a0857611a07611e1e565b5b6000611a1687828801611868565b9450506020611a2787828801611892565b9350506040611a3887828801611892565b9250506060611a4987828801611829565b91505092959194509250565b600060208284031215611a6b57611a6a611e1e565b5b6000611a798482850161187d565b91505092915050565b600060208284031215611a9857611a97611e1e565b5b6000611aa684828501611892565b91505092915050565b611ab881611d67565b82525050565b611ac781611d79565b82525050565b611ad681611d85565b82525050565b611ae581611db9565b82525050565b6000611af8601983611d56565b9150611b0382611e23565b602082019050919050565b6000611b1b601c83611d56565b9150611b2682611e4c565b602082019050919050565b6000611b3e601a83611d56565b9150611b4982611e75565b602082019050919050565b6000611b61601783611d56565b9150611b6c82611e9e565b602082019050919050565b6000611b84601583611d56565b9150611b8f82611ec7565b602082019050919050565b6000611ba7602083611d56565b9150611bb282611ef0565b602082019050919050565b6000611bca601b83611d56565b9150611bd582611f19565b602082019050919050565b611be981611daf565b82525050565b6000602082019050611c046000830184611aaf565b92915050565b6000602082019050611c1f6000830184611abe565b92915050565b6000602082019050611c3a6000830184611acd565b92915050565b6000602082019050611c556000830184611adc565b92915050565b60006020820190508181036000830152611c7481611aeb565b9050919050565b60006020820190508181036000830152611c9481611b0e565b9050919050565b60006020820190508181036000830152611cb481611b31565b9050919050565b60006020820190508181036000830152611cd481611b54565b9050919050565b60006020820190508181036000830152611cf481611b77565b9050919050565b60006020820190508181036000830152611d1481611b9a565b9050919050565b60006020820190508181036000830152611d3481611bbd565b9050919050565b6000602082019050611d506000830184611be0565b92915050565b600082825260208201905092915050565b6000611d7282611d8f565b9050919050565b60008115159050919050565b6000819050919050565b600073ffffffffffffffffffffffffffffffffffffffff82169050919050565b6000819050919050565b6000611dc482611dcb565b9050919050565b6000611dd682611ddd565b9050919050565b6000611de882611d8f565b9050919050565b7f4e487b7100000000000000000000000000000000000000000000000000000000600052602160045260246000fd5b600080fd5b7f436f6f72643a20657865206e6f742065786563757461626c6500000000000000600082015250565b7f53797374656d3a204f6e6c7920636f72652063616e206d6f6469667900000000600082015250565b7f436f6f72643a204f6e6c7920626f6f74682063616e2063616c6c000000000000600082015250565b7f436f6f72643a2070726f70206e6f7420766f7461626c65000000000000000000600082015250565b7f436f6f72643a204e6f206c696e6b65642070726f700000000000000000000000600082015250565b7f436f6f72643a20766f74696e6720616374697665206f72206578656375746564600082015250565b7f436f6f72643a20496e636f727265637420494420666f72207375620000000000600082015250565b611f4b81611d67565b8114611f5657600080fd5b50565b611f6281611d79565b8114611f6d57600080fd5b50565b611f7981611d85565b8114611f8457600080fd5b50565b60078110611f9457600080fd5b50565b611fa081611daf565b8114611fab57600080fd5b5056fea264697066735822122003b6cffd572c2e080c5ee56ef644bb43ff8d138996fa4b61b27a15a835e6cded64736f6c63430008070033",
  "linkReferences": {},
  "deployedLinkReferences": {}
}