{
  "_format": "hh-sol-artifact-1",
  "contractName": "Coordinator",
  "sourceName": "contracts/Coordinator.sol",
  "abi": [
    {
      "inputs": [
        {
          "internalType": "address",
          "name": "_core",
          "type": "address"
        },
        {
          "internalType": "address",
          "name": "_timer",
          "type": "address"
        }
      ],
      "stateMutability": "nonpayable",
      "type": "constructor"
    },
    {
      "inputs": [],
      "name": "IDENTIFIER",
      "outputs": [
        {
          "internalType": "bytes32",
          "name": "",
          "type": "bytes32"
        }
      ],
      "stateMutability": "view",
      "type": "function"
    },
    {
      "inputs": [
        {
          "internalType": "bytes32",
          "name": "_subIdentifier",
          "type": "bytes32"
        },
        {
          "internalType": "address",
          "name": "_subImplementation",
          "type": "address"
        }
      ],
      "name": "addSubSystem",
      "outputs": [],
      "stateMutability": "nonpayable",
      "type": "function"
    },
    {
      "inputs": [
        {
          "internalType": "bytes32",
          "name": "c__0x00e2a1ba",
          "type": "bytes32"
        }
      ],
      "name": "c_0x00e2a1ba",
      "outputs": [],
      "stateMutability": "pure",
      "type": "function"
    },
    {
      "inputs": [
        {
          "internalType": "bytes32",
          "name": "c__0x0da7e8db",
          "type": "bytes32"
        }
      ],
      "name": "c_0x0da7e8db",
      "outputs": [],
      "stateMutability": "pure",
      "type": "function"
    },
    {
      "inputs": [
        {
          "internalType": "bytes32",
          "name": "c__0x35ade16d",
          "type": "bytes32"
        }
      ],
      "name": "c_0x35ade16d",
      "outputs": [],
      "stateMutability": "pure",
      "type": "function"
    },
    {
      "inputs": [
        {
          "internalType": "bytes32",
          "name": "c__0x5c9316f2",
          "type": "bytes32"
        }
      ],
      "name": "c_0x5c9316f2",
      "outputs": [],
      "stateMutability": "pure",
      "type": "function"
    },
    {
      "inputs": [],
      "name": "core_",
      "outputs": [
        {
          "internalType": "contract ICore",
          "name": "",
          "type": "address"
        }
      ],
      "stateMutability": "view",
      "type": "function"
    },
    {
      "inputs": [],
      "name": "getCurrentTime",
      "outputs": [
        {
          "internalType": "uint256",
          "name": "",
          "type": "uint256"
        }
      ],
      "stateMutability": "view",
      "type": "function"
    },
    {
      "inputs": [
        {
          "internalType": "address",
          "name": "_system",
          "type": "address"
        },
        {
          "internalType": "bytes32",
          "name": "_subIdentifier",
          "type": "bytes32"
        }
      ],
      "name": "getSubSystem",
      "outputs": [
        {
          "internalType": "address",
          "name": "",
          "type": "address"
        }
      ],
      "stateMutability": "view",
      "type": "function"
    },
    {
      "inputs": [
        {
          "internalType": "bytes32",
          "name": "_exeID",
          "type": "bytes32"
        }
      ],
      "name": "isExecutable",
      "outputs": [
        {
          "internalType": "bool",
          "name": "",
          "type": "bool"
        }
      ],
      "stateMutability": "view",
      "type": "function"
    },
    {
      "inputs": [
        {
          "internalType": "uint256",
          "name": "_propID",
          "type": "uint256"
        }
      ],
      "name": "isVotable",
      "outputs": [
        {
          "internalType": "bool",
          "name": "",
          "type": "bool"
        }
      ],
      "stateMutability": "view",
      "type": "function"
    },
    {
      "inputs": [
        {
          "internalType": "uint256",
          "name": "_propID",
          "type": "uint256"
        }
      ],
      "name": "queueProposal",
      "outputs": [],
      "stateMutability": "nonpayable",
      "type": "function"
    },
    {
      "inputs": [
        {
          "internalType": "uint256",
          "name": "time",
          "type": "uint256"
        }
      ],
      "name": "setCurrentTime",
      "outputs": [],
      "stateMutability": "nonpayable",
      "type": "function"
    },
    {
      "inputs": [
        {
          "internalType": "bytes32",
          "name": "_exeID",
          "type": "bytes32"
        }
      ],
      "name": "setExecute",
      "outputs": [],
      "stateMutability": "nonpayable",
      "type": "function"
    },
    {
      "inputs": [],
      "name": "timerAddress",
      "outputs": [
        {
          "internalType": "address",
          "name": "",
          "type": "address"
        }
      ],
      "stateMutability": "view",
      "type": "function"
    },
    {
      "inputs": [
        {
          "internalType": "uint256",
          "name": "_propID",
          "type": "uint256"
        }
      ],
      "name": "voting",
      "outputs": [],
      "stateMutability": "nonpayable",
      "type": "function"
    }
  ],
  "bytecode": "0x60c06040523480156200001157600080fd5b5060405162003c1838038062003c188339818101604052810190620000379190620003bb565b7fd578563424ab02f85ec03c6b1aee04947ebdd4a30db46cba3bcd7f56ef40b1998282806200008f7fcc8333d776dbed5bc1d5a69fea8a56e88f87955b6a086409d43cdf5b99a00f9160001b6200039860201b60201c565b620000c37f96e003626c0adb9922999e671f576019384ec3e342797245b19e293fc7ae98b860001b6200039860201b60201c565b620000f77f0124756d9b2742e29a6e998127a5d65a6fce0de7b15fe3cffaa57159d293eff460001b6200039860201b60201c565b33600060026101000a81548173ffffffffffffffffffffffffffffffffffffffff021916908373ffffffffffffffffffffffffffffffffffffffff1602179055506200016c7fb4dd8b063f43faf32d5335822e2f70ca2407748b186159c1ed4fe5975bf48fa460001b6200039b60201b60201c565b620001a07fdf0a09891d7ec0658602054cf2c2e2a41244c011d975b6b3df84f87f4e01f1fa60001b6200039b60201b60201c565b620001d47f74aa4cf06a04b763c651dbe9c8d04358ebbbd2cc4e1e17afd7713fac4af5ab8260001b6200039b60201b60201c565b80600160006101000a81548173ffffffffffffffffffffffffffffffffffffffff021916908373ffffffffffffffffffffffffffffffffffffffff160217905550506200024a7f91b90f81106ec7301a2ef3f3646fc2ac7a03224c1592a81c08bf2be57bf85da360001b6200039e60201b60201c565b6200027e7faa1a5f5f7c07ad1d1a00bf086c9ae885f69ed49cd3abc04289c41680f08eda2360001b6200039e60201b60201c565b620002b27f96d06dce006a4c22db8a8fd81f6fd8d01ca83c6b578b06c55ae55449f894b56160001b6200039e60201b60201c565b8260808181525050620002ee7f5df41bcd415e6f031fea4b950841c2b7a0c71533bb77597e55e47143977ffe5060001b6200039e60201b60201c565b620003227f86b081f2885abf844d8a6e92c42bb8b42f1f332206a0f04e515da586d0b809f560001b6200039e60201b60201c565b8173ffffffffffffffffffffffffffffffffffffffff1660a08173ffffffffffffffffffffffffffffffffffffffff1660601b81525050505050620003907faf0baa71a4eb232ed4f4c7259f9d403aed8d61f6623739cda7efbf20d5dd9e5560001b620003a160201b60201c565b505062000455565b50565b50565b50565b50565b600081519050620003b5816200043b565b92915050565b60008060408385031215620003d557620003d462000436565b5b6000620003e585828601620003a4565b9250506020620003f885828601620003a4565b9150509250929050565b60006200040f8262000416565b9050919050565b600073ffffffffffffffffffffffffffffffffffffffff82169050919050565b600080fd5b620004468162000402565b81146200045257600080fd5b50565b60805160a05160601c61375b620004bd6000396000818161063101528181610d8d0152818161121b015281816113870152818161199d01528181611ac201528181612286015281816127ac01528181612856015261297b01526000611043015261375b6000f3fe608060405234801561001057600080fd5b50600436106101005760003560e01c806361e4a6c9116100975780639cf782cb116100665780639cf782cb146102835780639ef7786d146102b3578063eaddd0fd146102cf578063fd4a77f1146102ed57610100565b806361e4a6c9146101ff578063701370dc1461021b5780637526bd9b1461024b57806394a14a341461026757610100565b806334829155116100d3578063348291551461018d57806338c68782146101a95780633c9747f3146101c55780634ec0939e146101e357610100565b80631c39c38d1461010557806322f8e56614610123578063299ba15f1461013f57806329cb924d1461016f575b600080fd5b61010d610309565b60405161011a9190613366565b60405180910390f35b61013d600480360381019061013891906131cc565b61032f565b005b610159600480360381019061015491906131cc565b6105a7565b6040516101669190613381565b60405180910390f35b610177610996565b60405161018491906134b2565b60405180910390f35b6101a760048036038101906101a291906130cb565b610c28565b005b6101c360048036038101906101be9190613125565b610c2b565b005b6101cd611041565b6040516101da919061339c565b60405180910390f35b6101fd60048036038101906101f891906130cb565b611065565b005b610219600480360381019061021491906130cb565b611068565b005b6102356004803603810190610230919061304b565b61106b565b6040516102429190613366565b60405180910390f35b610265600480360381019061026091906130cb565b611169565b005b610281600480360381019061027c91906131cc565b611915565b005b61029d600480360381019061029891906130cb565b6121fc565b6040516102aa9190613381565b60405180910390f35b6102cd60048036038101906102c891906130cb565b6127a7565b005b6102d76127aa565b6040516102e491906133b7565b60405180910390f35b610307600480360381019061030291906131cc565b6127ce565b005b600160009054906101000a900473ffffffffffffffffffffffffffffffffffffffff1681565b61035b7f6f9ae8edea4a5ca594982c8c889dce6d3960ecead6d85640cfaeefab4965137c60001b611068565b6103877f6eebb330cb0c74c8c0a3ebded6ac701f48b060de13591c74ab4785681b589f0c60001b611068565b6103b37f36c1556249a63a81b58af6fdcad0065ddcb58894bd16e2b1bf48df8c292c738560001b611068565b6103df7f27d0da14a88f9fdfd196625fc7df7cbe0aa29fb76c0f7bf605cbb6d8aea6f1ff60001b611068565b600073ffffffffffffffffffffffffffffffffffffffff16600160009054906101000a900473ffffffffffffffffffffffffffffffffffffffff1673ffffffffffffffffffffffffffffffffffffffff16141561043b57600080fd5b6104677f627e7f681529433198cf60e7806c37173ef6d256c8dad2832dc14d984d63c81560001b611068565b6104937faf0631e8e987467954b158416256f14065683e999a12c243f4a4bc80c6573a8160001b611068565b6104bf7fa032f460f3852175b8933100cc9d781f5b5cff200a63b0672b41cef6cafef80c60001b611068565b6104eb7f900be1020eac74e7a6523a153b11dd4ba203e5d968d1d2d104979e3ff33e9cef60001b611068565b6105177f6d7d330e8510a19129b2b889c08c7f30e23b59da3f683ee0df8e8e5100917e1760001b611068565b600160009054906101000a900473ffffffffffffffffffffffffffffffffffffffff1673ffffffffffffffffffffffffffffffffffffffff166322f8e566826040518263ffffffff1660e01b815260040161057291906134b2565b600060405180830381600087803b15801561058c57600080fd5b505af11580156105a0573d6000803e3d6000fd5b5050505050565b60006105d57f590451685832d6205360cadc6951430ca5f6c780fd41644d7b5aef9503d6ac8760001b611065565b6106017f481e3bbc2e27e9b3c22346458bb3834b298830f0ac5ca627b11750baa0e7977360001b611065565b61062d7f02c858a57280e5e88a577e92b1fe91cb60ed38de8e9f46a627acf5769a306d8a60001b611065565b60007f000000000000000000000000000000000000000000000000000000000000000073ffffffffffffffffffffffffffffffffffffffff1663624a23e07f36209a57dfd79e3872ec3a0c88c653bbe7e32a12306e5e1f92f118c1936ae8b26040518263ffffffff1660e01b81526004016106a8919061339c565b60206040518083038186803b1580156106c057600080fd5b505afa1580156106d4573d6000803e3d6000fd5b505050506040513d601f19601f820116820180604052508101906106f8919061301e565b90506107267f11215f3beab4a9eceff77aa37c542e1d3f47b8c78bac6a9eb4996a2c243fe67860001b611065565b6107527f7674677f137b7a883bdbc9a299c4524d9b367001153ddfc745bdd50fa582f4ef60001b611065565b6000806000808473ffffffffffffffffffffffffffffffffffffffff1663a6640e4c886040518263ffffffff1660e01b815260040161079191906134b2565b60806040518083038186803b1580156107a957600080fd5b505afa1580156107bd573d6000803e3d6000fd5b505050506040513d601f19601f820116820180604052508101906107e19190613165565b93509350935093506108157fc63738b454d04b50a58da7c50f5bc32a1dfc5e82482dda8c7e56a2c887c5d28860001b611065565b6108417f912ae614896ec3621efe1f3136b5e7d86b2e0dd13e3684e6d269cd28abafce8360001b611065565b6001600681111561085557610854613566565b5b84600681111561086857610867613566565b5b148061089857506002600681111561088357610882613566565b5b84600681111561089657610895613566565b5b145b80156108ab57506108a7610996565b8311155b80156108be57506108ba610996565b8210155b80156108c8575080155b1561095f576108f97fd00574d0c3f9aa082fed63586bb40bd01961b108c08d38bac57fa868af9a5be460001b611065565b6109257f16700a0489215a41ed1e77220c9395504388f0ecda16461c38f42d481af3570760001b611065565b6109517f4c422b0da46ff4e07b401ad0d8b5be291a083e43ffd714ff5dbeca691b4865bd60001b611065565b600195505050505050610991565b61098b7f7155adcf902ead638fd3b690f1d820a15bb1bbbcf2fb82a55b52344d20ab622060001b611065565b50505050505b919050565b60006109c47fd47833f51fc5ec0f8a24234f14627d428c69063796f9630201d1dc1058ae8e5760001b611068565b6109f07f0b69545d716b02169fb0a154958cf479d6c74febdce881af2cad9c6bed4b0c3b60001b611068565b610a1c7f570eff7e9b79704810f3de14032f6898e0c4ee6c9024ca8a4efe0aea7091fa5f60001b611068565b600073ffffffffffffffffffffffffffffffffffffffff16600160009054906101000a900473ffffffffffffffffffffffffffffffffffffffff1673ffffffffffffffffffffffffffffffffffffffff1614610b9d57610a9e7f647590469700e029974926aa472ac468fe95744326892633413c8c201ed298c060001b611068565b610aca7f107a4f7720644a8f8f993f44f4c11c80b4c882005d7ffff284e62ffc5cd9533b60001b611068565b610af67f449a6ac96c66c2f10c6f7037b7566faf778bcdfef39e56e364596f87914ef8a260001b611068565b600160009054906101000a900473ffffffffffffffffffffffffffffffffffffffff1673ffffffffffffffffffffffffffffffffffffffff166329cb924d6040518163ffffffff1660e01b815260040160206040518083038186803b158015610b5e57600080fd5b505afa158015610b72573d6000803e3d6000fd5b505050506040513d601f19601f82011682018060405250810190610b9691906131f9565b9050610c25565b610bc97ff81c329ab48f42d2998e2454dc7c351806520aa7f6d72b2e468d72814fdfe64a60001b611068565b610bf57fc5895091758a048fba2cd20e5b0c510227acf44c1b622ab8b72e135767e7aa6660001b611068565b610c217fb60b2b01d584079a590a86b90ecde07699cb728ea718e85d0f63afb9f1bbc67360001b611068565b4290505b90565b50565b610c577f97dcc1bc4fafc537aea78e133928875a111b9269e777d13160269b77423b304760001b611065565b610c837f3afb105ac247561fe90414b3ea020e18948eadeebc291d03e61ff5b00609545860001b611065565b610caf7f3f12cdde03bcb084cc2e959ccae18dc011b84ca7045e868be7456773e90408b560001b611065565b60003373ffffffffffffffffffffffffffffffffffffffff16633c9747f36040518163ffffffff1660e01b815260040160206040518083038186803b158015610cf757600080fd5b505afa158015610d0b573d6000803e3d6000fd5b505050506040513d601f19601f82011682018060405250810190610d2f91906130f8565b9050610d5d7f9f0ac6f4d3cb9e7804590460106ff9a618af6f7c135a5fa7191b79d6e4af579860001b611065565b610d897f0b7c3580415a46cf1a69ebb076179032a1fc5d3e2b9669d3f6b1ebb93d37a46c60001b611065565b60007f000000000000000000000000000000000000000000000000000000000000000073ffffffffffffffffffffffffffffffffffffffff1663624a23e0836040518263ffffffff1660e01b8152600401610de4919061339c565b60206040518083038186803b158015610dfc57600080fd5b505afa158015610e10573d6000803e3d6000fd5b505050506040513d601f19601f82011682018060405250810190610e34919061301e565b9050610e627f1e8bfba2784e4d0657888fdd1f280a1e14c91205385e43faf065d892a117d08860001b611065565b610e8e7f97143ed3bdc8dc55134f1a9126a67b4340b77907797e16972b16f1ddd04f8a6560001b611065565b610eba7fc35bd05d8623778510f748de8d0a78da8802b9d96540c2945042f58c7774432460001b611065565b8073ffffffffffffffffffffffffffffffffffffffff163373ffffffffffffffffffffffffffffffffffffffff1614610f28576040517f08c379a0000000000000000000000000000000000000000000000000000000008152600401610f1f90613492565b60405180910390fd5b610f547ff9050bff57fb9643279258dbc69013045218911cdb34937dc94871445b2fbc5860001b611065565b610f807f6903bab14cca7d9fc5759c88df25068039381d14efb66798f570983b4c03bc6a60001b611065565b610fac7fbc66b5ec635595b183959a9c1975227fcdf186a43eb80355ff558b4c2209c0b460001b611065565b82600260003373ffffffffffffffffffffffffffffffffffffffff1673ffffffffffffffffffffffffffffffffffffffff168152602001908152602001600020600086815260200190815260200160002060006101000a81548173ffffffffffffffffffffffffffffffffffffffff021916908373ffffffffffffffffffffffffffffffffffffffff16021790555050505050565b7f000000000000000000000000000000000000000000000000000000000000000081565b50565b50565b60006110997ff35e2221d5d89ba06004801b29e2ae5174945728136067ba236f05467254174c60001b611065565b6110c47e427eeb2ed176330097ab2c0d0a4e9b222d21fd085e4aa63bb29a2e5f4aca7060001b611065565b6110f07fd1b9b92b1bd6599afe27a9f97d177b2a2ab988d1d2cc2eb2336ad6c543102a3860001b611065565b600260008473ffffffffffffffffffffffffffffffffffffffff1673ffffffffffffffffffffffffffffffffffffffff168152602001908152602001600020600083815260200190815260200160002060009054906101000a900473ffffffffffffffffffffffffffffffffffffffff16905092915050565b6111957fd99be09b63847000f2eb53f5ee50019118df2ab6326deeb5872bd18d87503b5460001b610c28565b6111c17f2c77d644d557fb6933dbc4cc49b3e86c80f23ae8d6b864c32d5062edb5f0d62260001b610c28565b6111ed7f323aff064297e279e575f30b6bb40f48a6804ebbbd1d4e4e70874769d3efb43560001b610c28565b6112197f6a760194827939a89f2bddb7ac80b8353403bf9f68f91bcc5eb2a49ba90d7a1760001b610c28565b7f000000000000000000000000000000000000000000000000000000000000000073ffffffffffffffffffffffffffffffffffffffff163373ffffffffffffffffffffffffffffffffffffffff16146112a7576040517f08c379a000000000000000000000000000000000000000000000000000000000815260040161129e906133f2565b60405180910390fd5b6112d37fa53bc14a73a3e41ae5036a8adef75c20d6c58cb075af602696e9c954447e86d260001b610c28565b6112ff7fd18cb327c4e8d27581609c177ba735fa88f2b6f52b5a530f744687ea0f030e4260001b610c28565b61132b7f2dbe92f37b0112f543065cc6138d436025077c9982b0a7101ff3e4a112cf088860001b611065565b6113577f923fa06a79610df06eae029bf8bb89d2934b9950915e59ce2c50a23041be779560001b611065565b6113837fac100ad3217287492f3993141267fd6e3c8f5d891eccecaf765250fecaee71bf60001b611065565b60007f000000000000000000000000000000000000000000000000000000000000000073ffffffffffffffffffffffffffffffffffffffff1663624a23e07f36209a57dfd79e3872ec3a0c88c653bbe7e32a12306e5e1f92f118c1936ae8b26040518263ffffffff1660e01b81526004016113fe919061339c565b60206040518083038186803b15801561141657600080fd5b505afa15801561142a573d6000803e3d6000fd5b505050506040513d601f19601f8201168201806040525081019061144e919061301e565b905061147c7f0caefb6993c9e0635ecb89605dcab4b6840153bc34ead5acb1897a099c20b76760001b611065565b6114a87fba2ced930974122f5ab75ed53088535cc44615399a95ade7913732f9dd44295960001b611065565b60008173ffffffffffffffffffffffffffffffffffffffff16639e34fa6a846040518263ffffffff1660e01b81526004016114e3919061339c565b60206040518083038186803b1580156114fb57600080fd5b505afa15801561150f573d6000803e3d6000fd5b505050506040513d601f19601f8201168201806040525081019061153391906131f9565b90506115617fb5abce50020fce4791d771bbe086a37b96746a1e4187dd5e85736e604af4fe2a60001b611065565b61158d7feddc93f8bf08ce89dc02092695e56b4550c8c4846723c40f49f362637e68f50a60001b611065565b6115b97fe8cf295b9846a657ad100630d2564f32432fc8805fd3e4dba6479a59636c1c0960001b611065565b60008114156115fd576040517f08c379a00000000000000000000000000000000000000000000000000000000081526004016115f490613452565b60405180910390fd5b6116297f8e9b0dc5455c2bfcc7927ce3a48e9e4a2e9f23696ba795861d2cec2251e90a0b60001b611065565b6116557fe581f2e1e9fddfc163d70abd4733d0109de23b24e0eef453357bc40a2b9b0ee060001b611065565b6116817fbfe5397414c6b3151e82a96e32d01b1fd717c2a1d586196c8eb371945f2b9d6c60001b611065565b60008060008473ffffffffffffffffffffffffffffffffffffffff1663a6640e4c856040518263ffffffff1660e01b81526004016116bf91906134b2565b60806040518083038186803b1580156116d757600080fd5b505afa1580156116eb573d6000803e3d6000fd5b505050506040513d601f19601f8201168201806040525081019061170f9190613165565b935093505092506117427f88bd43b0042b763c97108a455d31bb031010b6571734853040be1f7bf134de8360001b611065565b61176e7f06e88e3bb20b5bf2cbaeafccd40f3f79eddb397b19445f1dadb44d7e7e15e07360001b611065565b61179a7f240650ac42c0ceaabc626949a70222ef365e25dc6a336f5efa16f721fe142e0c60001b611065565b600360068111156117ae576117ad613566565b5b8360068111156117c1576117c0613566565b5b1480156117d557506117d1610996565b8211155b80156117df575080155b61181e576040517f08c379a0000000000000000000000000000000000000000000000000000000008152600401611815906133d2565b60405180910390fd5b61184a7f9764525ab52fb3522d77d8066215b8eb9cf2b8b34c6975060df0735cb721e01760001b611065565b6118767f761465a13f5be2defbd0f3f17ce7c6864af492b0378122b4ff8b037dea6e0e7760001b611065565b6118a27f26b6b3170b9dab122fa280d11ad42b5e503e7d1cd19e147b505315dec05d2ce460001b611065565b8473ffffffffffffffffffffffffffffffffffffffff1663b7abd803856040518263ffffffff1660e01b81526004016118db91906134b2565b600060405180830381600087803b1580156118f557600080fd5b505af1158015611909573d6000803e3d6000fd5b50505050505050505050565b6119417fcb89aa52b92f52e37eb745a1ff8328d69f25cf6e9a3434696ced0484b6d924cc60001b611065565b61196d7f8d45fa0dbab8d2db54b70e23047f4752af5233cbab2d512a97d9c365a999325060001b611065565b6119997fced4a063277edb1ef24b4326b6978a52d2d99f54f2b3b13af6e72df08eec83bb60001b611065565b60007f000000000000000000000000000000000000000000000000000000000000000073ffffffffffffffffffffffffffffffffffffffff1663624a23e07f346b2ab3a980432fd8f2e24828fc9f9ee2df1548701bc542f6ec17882b3276276040518263ffffffff1660e01b8152600401611a14919061339c565b60206040518083038186803b158015611a2c57600080fd5b505afa158015611a40573d6000803e3d6000fd5b505050506040513d601f19601f82011682018060405250810190611a64919061301e565b9050611a927f8dfd0f30b7af2c53e1bf9a183223a530ace631bf32ba028a51e211c6ea8eed5360001b611065565b611abe7fe0dbdf5380bb4da74f8af1b8c45c84c4434cce2df43b51381836f872d63b021560001b611065565b60007f000000000000000000000000000000000000000000000000000000000000000073ffffffffffffffffffffffffffffffffffffffff1663624a23e07f36209a57dfd79e3872ec3a0c88c653bbe7e32a12306e5e1f92f118c1936ae8b26040518263ffffffff1660e01b8152600401611b39919061339c565b60206040518083038186803b158015611b5157600080fd5b505afa158015611b65573d6000803e3d6000fd5b505050506040513d601f19601f82011682018060405250810190611b89919061301e565b9050611bb77f6fb758cae8874d6683b4b847c653911611e44b165d41ff218a347e87f9e8e1d960001b611065565b611be37f17ba62986b48d437709d0a3f76e40e67dc43363fae8f1076acc154746ec9a4d060001b611065565b6000808273ffffffffffffffffffffffffffffffffffffffff1663a6640e4c866040518263ffffffff1660e01b8152600401611c1f91906134b2565b60806040518083038186803b158015611c3757600080fd5b505afa158015611c4b573d6000803e3d6000fd5b505050506040513d601f19601f82011682018060405250810190611c6f9190613165565b935093505050611ca17fd58255ad7aefbc2349b9a4c2c23294258050ab2ec0746c8e6ca25f9f8dfd41e760001b611065565b611ccd7fe08ab3f23882987bc79fd5cb7d1a413de72fa5ce537db2c8d3ab21dba440ff7160001b611065565b611cf97f13ad553dd5e672cc1cfb3dd158bffd5fee1dde3e046baf73a6ecdfaf74c0aefd60001b611065565b611d01610996565b8211158015611d0e575080155b611d4d576040517f08c379a0000000000000000000000000000000000000000000000000000000008152600401611d4490613472565b60405180910390fd5b611d797f2cbdd87ef5f060dfa4942cec10b1aeef3affc7ec0d76eb69d11c782d60ac924c60001b611065565b611da57f89a047a1f11e7eb2fa9890f850c50aad2de35d54237efb1a17ff254d6a5ec40860001b611065565b611dd17fbdb4f568a13e645042636dd8241be928dc8fc198f5e24bd86868b5a2dc876e8660001b611065565b6000808573ffffffffffffffffffffffffffffffffffffffff1663e343409a886040518263ffffffff1660e01b8152600401611e0d91906134b2565b604080518083038186803b158015611e2457600080fd5b505afa158015611e38573d6000803e3d6000fd5b505050506040513d601f19601f82011682018060405250810190611e5c919061308b565b91509150611e8c7fb29ddccea402c9890adf88bc6a811d4293883df149ee7393297f771f0c11565560001b611065565b611eb87f7adee0386c99c19ad0132a7d65fdd26c26ff9e60627570a2e07d689465d344d060001b611065565b81611fb157611ee97ff10d5b2b825d48062efd5fc29d2cc74d76abd5258860ce8603ad1c723d3ffe2f60001b611065565b611f157fec95fc31bfb37545341a60a9b8001ff57c93409896a6ea6973d9fe6ab1b3046a60001b611065565b611f417fc8a5fa4f04d9c851fced2fea4668b2fcc7c1c09e4428d04c97d89483078ed7eb60001b611065565b8473ffffffffffffffffffffffffffffffffffffffff16637ef966e4886040518263ffffffff1660e01b8152600401611f7a91906134b2565b600060405180830381600087803b158015611f9457600080fd5b505af1158015611fa8573d6000803e3d6000fd5b505050506121f3565b611fdd7f98ec4de37f80edb70e438ef67ebe061b38a199f578b9bbcec24cded506dad2e960001b611065565b6120097f25a4ec733d4ea5c28d0bc0e7c36cf41c16d3ac7371b7297db90fd8e817d4bfc360001b611065565b806121025761203a7f1c166e224ddd17acd87e9fd14d613724b9afe356031478c7b0e0509006e79ab760001b611065565b6120667f9abe5581b6c2c7468ab09447a231f133761199f9200c852fffe0b0fc1b25f04e60001b611065565b6120927fb3cf7e06e1ac107479e398a6a44dbc9317fee0b2e9ef38dcb00bb97368ac252f60001b611065565b8473ffffffffffffffffffffffffffffffffffffffff1663f40507ac886040518263ffffffff1660e01b81526004016120cb91906134b2565b600060405180830381600087803b1580156120e557600080fd5b505af11580156120f9573d6000803e3d6000fd5b505050506121f2565b61212e7fc704105dfe0276773824b7961359a34aff7fafa4146995bc3315dd845f35112460001b611065565b61215a7f9a8b8c8bd24e59ed4dedf8f574edbc29b9fe778c9d14e9abc272e6d716c7832460001b611065565b6121867fe4986f4d460d47444f48032f56ab8d6b9de6bdf1dc1fc79357ece224933a258f60001b611065565b8473ffffffffffffffffffffffffffffffffffffffff1663cd39ebfd886040518263ffffffff1660e01b81526004016121bf91906134b2565b600060405180830381600087803b1580156121d957600080fd5b505af11580156121ed573d6000803e3d6000fd5b505050505b5b50505050505050565b600061222a7fc60e365367d99cbac6a00caedfc33307ce8d9566208f6ea40a55911c21b126de60001b611065565b6122567ff1e69a4e51ede963f1a466dd2d3219407801b5d2163ce43bf8f83f36f63df44360001b611065565b6122827faaf3a57ea29848da4ae42df11b5806fe9f501e036b8c6cd375b3ba76b38ff2af60001b611065565b60007f000000000000000000000000000000000000000000000000000000000000000073ffffffffffffffffffffffffffffffffffffffff1663624a23e07f36209a57dfd79e3872ec3a0c88c653bbe7e32a12306e5e1f92f118c1936ae8b26040518263ffffffff1660e01b81526004016122fd919061339c565b60206040518083038186803b15801561231557600080fd5b505afa158015612329573d6000803e3d6000fd5b505050506040513d601f19601f8201168201806040525081019061234d919061301e565b905061237b7f0faa0e3602118d775ae14e915efbafe5365eb2ee952d788539e45f1a50bb9a6b60001b611065565b6123a77fb31f36011c853ab85f1ff18fd1ebb74f11da164d65bdf93db4d73caf0e6d792260001b611065565b60008173ffffffffffffffffffffffffffffffffffffffff16639e34fa6a856040518263ffffffff1660e01b81526004016123e2919061339c565b60206040518083038186803b1580156123fa57600080fd5b505afa15801561240e573d6000803e3d6000fd5b505050506040513d601f19601f8201168201806040525081019061243291906131f9565b90506124607fb881caa6dd9113e716e437c8866a72b82874bbe5f0c2835d983301616b4637cb60001b611065565b61248c7f0e58ec514b82b08dab1008bd98edb1494f5282c9c92f3c37b810236b1aeb424660001b611065565b6000811415612524576124c17fa4438ed61a2965da8465c5b9c26a1b5344f22b39f61ffdfe153f6a54a6fdf7a560001b611065565b6124ed7f06b9f73cf58e8aedb6ef247f0c0c56100ecae0ff75c361c2490d99bd33ceab6460001b611065565b6125197f8a267b0551c8802fba21bc4a61f0fadedc1f351b257723c203973c953b0905a260001b611065565b6000925050506127a2565b6125507f8805ac9926d0912d3fd6fd6b3cf698bf87e646a381c1c434c423c4471d70ec8960001b611065565b61257c7fc4abd8f45057d6859824941deb9af06d8435d8461bef92882ae381c414aebee260001b611065565b6125a87fb43f6a687d7d1a4a40da68467b60ef7fb6a5a23efe227d4b3b4acfe3872c229460001b611065565b60008060008473ffffffffffffffffffffffffffffffffffffffff1663a6640e4c856040518263ffffffff1660e01b81526004016125e691906134b2565b60806040518083038186803b1580156125fe57600080fd5b505afa158015612612573d6000803e3d6000fd5b505050506040513d601f19601f820116820180604052508101906126369190613165565b935093505092506126697ff208c646a68a1ffd954f44621f774ac02fd17b4ffde759c50725902d2a9b1def60001b611065565b6126957f49c3437fe2866ccffb665ca86dea28d0aae1c974100399ed4aa51c27478677a060001b611065565b600360068111156126a9576126a8613566565b5b8360068111156126bc576126bb613566565b5b1480156126cf57506126cc610996565b82105b80156126d9575080155b156127705761270a7f1d1beefc652c06cb4335dd494862f2cfbec3cd380f0f413cfb499196fef7200060001b611065565b6127367fc6c4370b3d7664ca4f7192d72b862b796d1ac2aeaa0516d8a7538761610dce8360001b611065565b6127627fa6da86ec4725910c429a394b934a421ba45c5d07440f7335aa454e3ddcfd847860001b611065565b6001955050505050506127a2565b61279c7f9bf70c465ce73fb5b345346a449b453f93c040deadc2f920f3e145d0ac08169b60001b611065565b50505050505b919050565b50565b7f000000000000000000000000000000000000000000000000000000000000000081565b6127fa7f59e4340436ac3dc9873421b0ac599702eca95de40c749c6eaa945c9008eb7efa60001b611065565b6128267f3e831b52a0ee3e9e3320edccd7f91712138c2ca80cf646b78a4d2bd94f18b45860001b611065565b6128527f7983505089492d7ae5e758ea529c3d2154e5fd50645789bb1723dede893ea64960001b611065565b60007f000000000000000000000000000000000000000000000000000000000000000073ffffffffffffffffffffffffffffffffffffffff1663624a23e07f36209a57dfd79e3872ec3a0c88c653bbe7e32a12306e5e1f92f118c1936ae8b26040518263ffffffff1660e01b81526004016128cd919061339c565b60206040518083038186803b1580156128e557600080fd5b505afa1580156128f9573d6000803e3d6000fd5b505050506040513d601f19601f8201168201806040525081019061291d919061301e565b905061294b7fba12a9c7725a213d10558fe29093f982ddd0925df0f600dafe4d1932b640d84260001b611065565b6129777f7465173ae2cbf7e8203efcfb0dc158c74bd4ed5fa8a4aba8d99eed0342c574cb60001b611065565b60007f000000000000000000000000000000000000000000000000000000000000000073ffffffffffffffffffffffffffffffffffffffff1663624a23e07f346b2ab3a980432fd8f2e24828fc9f9ee2df1548701bc542f6ec17882b3276276040518263ffffffff1660e01b81526004016129f2919061339c565b60206040518083038186803b158015612a0a57600080fd5b505afa158015612a1e573d6000803e3d6000fd5b505050506040513d601f19601f82011682018060405250810190612a42919061301e565b9050612a707f96a1118c621f5f65b465080417b8122e1e8f5cea97ee1144be7c156ba45eb43b60001b611065565b612a9c7f013a95056937baa7df9d8848744c87338eb7d69ec1e7817d0dfb6afa9d42aca960001b611065565b6000806000808573ffffffffffffffffffffffffffffffffffffffff1663a6640e4c886040518263ffffffff1660e01b8152600401612adb91906134b2565b60806040518083038186803b158015612af357600080fd5b505afa158015612b07573d6000803e3d6000fd5b505050506040513d601f19601f82011682018060405250810190612b2b9190613165565b9350935093509350612b5f7ff1aac12a86ef3324e97019adb70fd4ba4a1fe76f8570e03109a6320bc8cbff5a60001b611065565b612b8b7f0a55e2e7b72abad631275a5d28fd0826a06df97eef65c6669f5edd348377c15360001b611065565b612bb77f07f3e620de724b0c751d6f2dc71761a9992b397ca6b7e0d7bc912895d4c65ad260001b611065565b8473ffffffffffffffffffffffffffffffffffffffff163373ffffffffffffffffffffffffffffffffffffffff1614612c25576040517f08c379a0000000000000000000000000000000000000000000000000000000008152600401612c1c90613412565b60405180910390fd5b612c517fd3a9ed3d5d3cb606f3da2661c06cadf6eee4be8926eb8a5518105627e737cd8460001b611065565b612c7d7f540898fd878a2add588129b0e02a0739b61ee5402805fc8bb3a94c91e0e7eb2e60001b611065565b612ca97fe19f7b31577f68cf6cfedf49e03427af79791eb906177194bed812d23ed9f87760001b611065565b612cd57f9232a94c80135ef92cb7ebf9f4c8d795e903c986a8a3307581e568cde90db35960001b611065565b60016006811115612ce957612ce8613566565b5b846006811115612cfc57612cfb613566565b5b1480612d2c575060026006811115612d1757612d16613566565b5b846006811115612d2a57612d29613566565b5b145b8015612d3f5750612d3b610996565b8311155b8015612d525750612d4e610996565b8210155b8015612d5c575080155b612d9b576040517f08c379a0000000000000000000000000000000000000000000000000000000008152600401612d9290613432565b60405180910390fd5b612dc77f916120839c06493589759094379ddda3c90fab1a212367266424a8791718f41b60001b611065565b612df37f8ded2464c2a839e6c4692b03059778563357edac07cc78552c027c2bc0cab95560001b611065565b612e1f7ff0b0a61525eb26a5d881cc88732d22c2cddc3970cea39e48d1bdef73809fedea60001b611065565b60016006811115612e3357612e32613566565b5b846006811115612e4657612e45613566565b5b1415612f4057612e787f8b26839eb76a426e09ace5540bf6b13d2978feecd53561fb5325ebb16ae6e74260001b611065565b612ea47f59f19fa6bcb7a3091436e857416f0483f89411aca7f7345722aa44b42de6206c60001b611065565b612ed07f59d4160417d53bde6525733568c6c8001c515b3f2dd7aa52ce5f6498c84b7e2360001b611065565b8573ffffffffffffffffffffffffffffffffffffffff166377e4b811886040518263ffffffff1660e01b8152600401612f0991906134b2565b600060405180830381600087803b158015612f2357600080fd5b505af1158015612f37573d6000803e3d6000fd5b50505050612f6d565b612f6c7fe342f92ccbad1d584192ab6efa87b983e4dcb33a5a84123f97cb0b719e098b1960001b611065565b5b50505050505050565b600081359050612f85816136b9565b92915050565b600081519050612f9a816136b9565b92915050565b600081519050612faf816136d0565b92915050565b600081359050612fc4816136e7565b92915050565b600081519050612fd9816136e7565b92915050565b600081519050612fee816136fe565b92915050565b6000813590506130038161370e565b92915050565b6000815190506130188161370e565b92915050565b60006020828403121561303457613033613595565b5b600061304284828501612f8b565b91505092915050565b6000806040838503121561306257613061613595565b5b600061307085828601612f76565b925050602061308185828601612fb5565b9150509250929050565b600080604083850312156130a2576130a1613595565b5b60006130b085828601612fa0565b92505060206130c185828601612fa0565b9150509250929050565b6000602082840312156130e1576130e0613595565b5b60006130ef84828501612fb5565b91505092915050565b60006020828403121561310e5761310d613595565b5b600061311c84828501612fca565b91505092915050565b6000806040838503121561313c5761313b613595565b5b600061314a85828601612fb5565b925050602061315b85828601612f76565b9150509250929050565b6000806000806080858703121561317f5761317e613595565b5b600061318d87828801612fdf565b945050602061319e87828801613009565b93505060406131af87828801613009565b92505060606131c087828801612fa0565b91505092959194509250565b6000602082840312156131e2576131e1613595565b5b60006131f084828501612ff4565b91505092915050565b60006020828403121561320f5761320e613595565b5b600061321d84828501613009565b91505092915050565b61322f816134de565b82525050565b61323e816134f0565b82525050565b61324d816134fc565b82525050565b61325c81613530565b82525050565b600061326f6019836134cd565b915061327a8261359a565b602082019050919050565b6000613292601c836134cd565b915061329d826135c3565b602082019050919050565b60006132b5601a836134cd565b91506132c0826135ec565b602082019050919050565b60006132d86017836134cd565b91506132e382613615565b602082019050919050565b60006132fb6015836134cd565b91506133068261363e565b602082019050919050565b600061331e6020836134cd565b915061332982613667565b602082019050919050565b6000613341601b836134cd565b915061334c82613690565b602082019050919050565b61336081613526565b82525050565b600060208201905061337b6000830184613226565b92915050565b60006020820190506133966000830184613235565b92915050565b60006020820190506133b16000830184613244565b92915050565b60006020820190506133cc6000830184613253565b92915050565b600060208201905081810360008301526133eb81613262565b9050919050565b6000602082019050818103600083015261340b81613285565b9050919050565b6000602082019050818103600083015261342b816132a8565b9050919050565b6000602082019050818103600083015261344b816132cb565b9050919050565b6000602082019050818103600083015261346b816132ee565b9050919050565b6000602082019050818103600083015261348b81613311565b9050919050565b600060208201905081810360008301526134ab81613334565b9050919050565b60006020820190506134c76000830184613357565b92915050565b600082825260208201905092915050565b60006134e982613506565b9050919050565b60008115159050919050565b6000819050919050565b600073ffffffffffffffffffffffffffffffffffffffff82169050919050565b6000819050919050565b600061353b82613542565b9050919050565b600061354d82613554565b9050919050565b600061355f82613506565b9050919050565b7f4e487b7100000000000000000000000000000000000000000000000000000000600052602160045260246000fd5b600080fd5b7f436f6f72643a20657865206e6f742065786563757461626c6500000000000000600082015250565b7f53797374656d3a204f6e6c7920636f72652063616e206d6f6469667900000000600082015250565b7f436f6f72643a204f6e6c7920626f6f74682063616e2063616c6c000000000000600082015250565b7f436f6f72643a2070726f70206e6f7420766f7461626c65000000000000000000600082015250565b7f436f6f72643a204e6f206c696e6b65642070726f700000000000000000000000600082015250565b7f436f6f72643a20766f74696e6720616374697665206f72206578656375746564600082015250565b7f436f6f72643a20496e636f727265637420494420666f72207375620000000000600082015250565b6136c2816134de565b81146136cd57600080fd5b50565b6136d9816134f0565b81146136e457600080fd5b50565b6136f0816134fc565b81146136fb57600080fd5b50565b6007811061370b57600080fd5b50565b61371781613526565b811461372257600080fd5b5056fea2646970667358221220e80283e0b8f02c3a455517747937cfbd1a6f28c3034205429f9658560aa3909c64736f6c63430008070033",
  "linkReferences": {},
  "deployedLinkReferences": {}
}