{
  "_format": "hh-sol-artifact-1",
  "contractName": "Coordinator",
  "sourceName": "contracts/Coordinator.sol",
  "abi": [
    {
      "inputs": [
        {
          "internalType": "address",
          "name": "_core",
          "type": "address"
        }
      ],
      "stateMutability": "nonpayable",
      "type": "constructor"
    },
    {
      "inputs": [],
      "name": "IDENTIFIER",
      "outputs": [
        {
          "internalType": "bytes32",
          "name": "",
          "type": "bytes32"
        }
      ],
      "stateMutability": "view",
      "type": "function"
    },
    {
      "inputs": [
        {
          "internalType": "bytes32",
          "name": "_subIdentifier",
          "type": "bytes32"
        },
        {
          "internalType": "address",
          "name": "_subImplementation",
          "type": "address"
        }
      ],
      "name": "addSubSystem",
      "outputs": [],
      "stateMutability": "nonpayable",
      "type": "function"
    },
    {
      "inputs": [],
      "name": "core_",
      "outputs": [
        {
          "internalType": "contract ICore",
          "name": "",
          "type": "address"
        }
      ],
      "stateMutability": "view",
      "type": "function"
    },
    {
      "inputs": [
        {
          "internalType": "address",
          "name": "_system",
          "type": "address"
        },
        {
          "internalType": "bytes32",
          "name": "_subIdentifier",
          "type": "bytes32"
        }
      ],
      "name": "getSubSystem",
      "outputs": [
        {
          "internalType": "address",
          "name": "",
          "type": "address"
        }
      ],
      "stateMutability": "view",
      "type": "function"
    },
    {
      "inputs": [
        {
          "internalType": "bytes32",
          "name": "_exeID",
          "type": "bytes32"
        }
      ],
      "name": "isExecutable",
      "outputs": [
        {
          "internalType": "bool",
          "name": "",
          "type": "bool"
        }
      ],
      "stateMutability": "view",
      "type": "function"
    },
    {
      "inputs": [
        {
          "internalType": "uint256",
          "name": "_propID",
          "type": "uint256"
        }
      ],
      "name": "isVotable",
      "outputs": [
        {
          "internalType": "bool",
          "name": "",
          "type": "bool"
        }
      ],
      "stateMutability": "view",
      "type": "function"
    }
  ],
  "bytecode": "0x60c060405234801561001057600080fd5b50604051610f69380380610f69833981810160405281019061003291906100f1565b7fd578563424ab02f85ec03c6b1aee04947ebdd4a30db46cba3bcd7f56ef40b1998133600060026101000a81548173ffffffffffffffffffffffffffffffffffffffff021916908373ffffffffffffffffffffffffffffffffffffffff16021790555081608081815250508073ffffffffffffffffffffffffffffffffffffffff1660a08173ffffffffffffffffffffffffffffffffffffffff1660601b8152505050505061016c565b6000815190506100eb81610155565b92915050565b60006020828403121561010757610106610150565b5b6000610115848285016100dc565b91505092915050565b600061012982610130565b9050919050565b600073ffffffffffffffffffffffffffffffffffffffff82169050919050565b600080fd5b61015e8161011e565b811461016957600080fd5b50565b60805160a05160601c610dc06101a960003960008181610154015281816103d10152818161062101526108810152600061057f0152610dc06000f3fe608060405234801561001057600080fd5b50600436106100625760003560e01c8063299ba15f1461006757806338c68782146100975780633c9747f3146100b3578063701370dc146100d15780639cf782cb14610101578063eaddd0fd14610131575b600080fd5b610081600480360381019061007c9190610ab9565b61014f565b60405161008e9190610b9c565b60405180910390f35b6100b160048036038101906100ac9190610a12565b61034b565b005b6100bb61057d565b6040516100c89190610bb7565b60405180910390f35b6100eb60048036038101906100e69190610978565b6105a1565b6040516100f89190610b81565b60405180910390f35b61011b600480360381019061011691906109b8565b61061c565b6040516101289190610b9c565b60405180910390f35b61013961087f565b6040516101469190610bd2565b60405180910390f35b6000807f000000000000000000000000000000000000000000000000000000000000000073ffffffffffffffffffffffffffffffffffffffff1663624a23e07f36209a57dfd79e3872ec3a0c88c653bbe7e32a12306e5e1f92f118c1936ae8b26040518263ffffffff1660e01b81526004016101cb9190610bb7565b60206040518083038186803b1580156101e357600080fd5b505afa1580156101f7573d6000803e3d6000fd5b505050506040513d601f19601f8201168201806040525081019061021b919061094b565b90506000806000808473ffffffffffffffffffffffffffffffffffffffff1663a6640e4c886040518263ffffffff1660e01b815260040161025c9190610c0d565b60806040518083038186803b15801561027457600080fd5b505afa158015610288573d6000803e3d6000fd5b505050506040513d601f19601f820116820180604052508101906102ac9190610a52565b9350935093509350600160088111156102c8576102c7610cc1565b5b8460088111156102db576102da610cc1565b5b148061032d5750600260088111156102f6576102f5610cc1565b5b84600881111561030957610308610cc1565b5b1480156103165750428310155b80156103225750428211155b801561032c575080155b5b1561034057600195505050505050610346565b50505050505b919050565b60003373ffffffffffffffffffffffffffffffffffffffff16633c9747f36040518163ffffffff1660e01b815260040160206040518083038186803b15801561039357600080fd5b505afa1580156103a7573d6000803e3d6000fd5b505050506040513d601f19601f820116820180604052508101906103cb91906109e5565b905060007f000000000000000000000000000000000000000000000000000000000000000073ffffffffffffffffffffffffffffffffffffffff1663624a23e0836040518263ffffffff1660e01b81526004016104289190610bb7565b60206040518083038186803b15801561044057600080fd5b505afa158015610454573d6000803e3d6000fd5b505050506040513d601f19601f82011682018060405250810190610478919061094b565b90508073ffffffffffffffffffffffffffffffffffffffff163373ffffffffffffffffffffffffffffffffffffffff16146104e8576040517f08c379a00000000000000000000000000000000000000000000000000000000081526004016104df90610bed565b60405180910390fd5b82600160003373ffffffffffffffffffffffffffffffffffffffff1673ffffffffffffffffffffffffffffffffffffffff168152602001908152602001600020600086815260200190815260200160002060006101000a81548173ffffffffffffffffffffffffffffffffffffffff021916908373ffffffffffffffffffffffffffffffffffffffff16021790555050505050565b7f000000000000000000000000000000000000000000000000000000000000000081565b6000600160008473ffffffffffffffffffffffffffffffffffffffff1673ffffffffffffffffffffffffffffffffffffffff168152602001908152602001600020600083815260200190815260200160002060009054906101000a900473ffffffffffffffffffffffffffffffffffffffff16905092915050565b6000807f000000000000000000000000000000000000000000000000000000000000000073ffffffffffffffffffffffffffffffffffffffff1663624a23e07f36209a57dfd79e3872ec3a0c88c653bbe7e32a12306e5e1f92f118c1936ae8b26040518263ffffffff1660e01b81526004016106989190610bb7565b60206040518083038186803b1580156106b057600080fd5b505afa1580156106c4573d6000803e3d6000fd5b505050506040513d601f19601f820116820180604052508101906106e8919061094b565b905060008173ffffffffffffffffffffffffffffffffffffffff16639e34fa6a856040518263ffffffff1660e01b81526004016107259190610bb7565b60206040518083038186803b15801561073d57600080fd5b505afa158015610751573d6000803e3d6000fd5b505050506040513d601f19601f820116820180604052508101906107759190610ae6565b9050600081141561078b5760009250505061087a565b6000806000808573ffffffffffffffffffffffffffffffffffffffff1663a6640e4c866040518263ffffffff1660e01b81526004016107ca9190610c0d565b60806040518083038186803b1580156107e257600080fd5b505afa1580156107f6573d6000803e3d6000fd5b505050506040513d601f19601f8201168201806040525081019061081a9190610a52565b93509350935093506006600881111561083657610835610cc1565b5b84600881111561084957610848610cc1565b5b14801561085557504282115b801561085f575080155b15610873576001965050505050505061087a565b5050505050505b919050565b7f000000000000000000000000000000000000000000000000000000000000000081565b6000813590506108b281610d1e565b92915050565b6000815190506108c781610d1e565b92915050565b6000815190506108dc81610d35565b92915050565b6000813590506108f181610d4c565b92915050565b60008151905061090681610d4c565b92915050565b60008151905061091b81610d63565b92915050565b60008135905061093081610d73565b92915050565b60008151905061094581610d73565b92915050565b60006020828403121561096157610960610cf0565b5b600061096f848285016108b8565b91505092915050565b6000806040838503121561098f5761098e610cf0565b5b600061099d858286016108a3565b92505060206109ae858286016108e2565b9150509250929050565b6000602082840312156109ce576109cd610cf0565b5b60006109dc848285016108e2565b91505092915050565b6000602082840312156109fb576109fa610cf0565b5b6000610a09848285016108f7565b91505092915050565b60008060408385031215610a2957610a28610cf0565b5b6000610a37858286016108e2565b9250506020610a48858286016108a3565b9150509250929050565b60008060008060808587031215610a6c57610a6b610cf0565b5b6000610a7a8782880161090c565b9450506020610a8b87828801610936565b9350506040610a9c87828801610936565b9250506060610aad878288016108cd565b91505092959194509250565b600060208284031215610acf57610ace610cf0565b5b6000610add84828501610921565b91505092915050565b600060208284031215610afc57610afb610cf0565b5b6000610b0a84828501610936565b91505092915050565b610b1c81610c39565b82525050565b610b2b81610c4b565b82525050565b610b3a81610c57565b82525050565b610b4981610c8b565b82525050565b6000610b5c601b83610c28565b9150610b6782610cf5565b602082019050919050565b610b7b81610c81565b82525050565b6000602082019050610b966000830184610b13565b92915050565b6000602082019050610bb16000830184610b22565b92915050565b6000602082019050610bcc6000830184610b31565b92915050565b6000602082019050610be76000830184610b40565b92915050565b60006020820190508181036000830152610c0681610b4f565b9050919050565b6000602082019050610c226000830184610b72565b92915050565b600082825260208201905092915050565b6000610c4482610c61565b9050919050565b60008115159050919050565b6000819050919050565b600073ffffffffffffffffffffffffffffffffffffffff82169050919050565b6000819050919050565b6000610c9682610c9d565b9050919050565b6000610ca882610caf565b9050919050565b6000610cba82610c61565b9050919050565b7f4e487b7100000000000000000000000000000000000000000000000000000000600052602160045260246000fd5b600080fd5b7f436f6f72643a20496e636f727265637420494420666f72207375620000000000600082015250565b610d2781610c39565b8114610d3257600080fd5b50565b610d3e81610c4b565b8114610d4957600080fd5b50565b610d5581610c57565b8114610d6057600080fd5b50565b60098110610d7057600080fd5b50565b610d7c81610c81565b8114610d8757600080fd5b5056fea2646970667358221220a4237b903a0b7db55714c1c7fd6aa7cbc5f7b2f20fa29403db5f031f96c78e4264736f6c63430008070033",
  "linkReferences": {},
  "deployedLinkReferences": {}
}