{
  "_format": "hh-sol-artifact-1",
  "contractName": "Coordinator",
  "sourceName": "contracts/Coordinator.sol",
  "abi": [
    {
      "inputs": [
        {
          "internalType": "address",
          "name": "_core",
          "type": "address"
        },
        {
          "internalType": "address",
          "name": "_timer",
          "type": "address"
        }
      ],
      "stateMutability": "nonpayable",
      "type": "constructor"
    },
    {
      "inputs": [],
      "name": "IDENTIFIER",
      "outputs": [
        {
          "internalType": "bytes32",
          "name": "",
          "type": "bytes32"
        }
      ],
      "stateMutability": "view",
      "type": "function"
    },
    {
      "inputs": [
        {
          "internalType": "bytes32",
          "name": "_subIdentifier",
          "type": "bytes32"
        },
        {
          "internalType": "address",
          "name": "_subImplementation",
          "type": "address"
        }
      ],
      "name": "addSubSystem",
      "outputs": [],
      "stateMutability": "nonpayable",
      "type": "function"
    },
    {
      "inputs": [
        {
          "internalType": "bytes32",
          "name": "c__0x00e2a1ba",
          "type": "bytes32"
        }
      ],
      "name": "c_0x00e2a1ba",
      "outputs": [],
      "stateMutability": "pure",
      "type": "function"
    },
    {
      "inputs": [
        {
          "internalType": "bytes32",
          "name": "c__0x35ade16d",
          "type": "bytes32"
        }
      ],
      "name": "c_0x35ade16d",
      "outputs": [],
      "stateMutability": "pure",
      "type": "function"
    },
    {
      "inputs": [
        {
          "internalType": "bytes32",
          "name": "c__0x5c9316f2",
          "type": "bytes32"
        }
      ],
      "name": "c_0x5c9316f2",
      "outputs": [],
      "stateMutability": "pure",
      "type": "function"
    },
    {
      "inputs": [],
      "name": "core_",
      "outputs": [
        {
          "internalType": "contract ICore",
          "name": "",
          "type": "address"
        }
      ],
      "stateMutability": "view",
      "type": "function"
    },
    {
      "inputs": [],
      "name": "getCurrentTime",
      "outputs": [
        {
          "internalType": "uint256",
          "name": "",
          "type": "uint256"
        }
      ],
      "stateMutability": "view",
      "type": "function"
    },
    {
      "inputs": [
        {
          "internalType": "address",
          "name": "_system",
          "type": "address"
        },
        {
          "internalType": "bytes32",
          "name": "_subIdentifier",
          "type": "bytes32"
        }
      ],
      "name": "getSubSystem",
      "outputs": [
        {
          "internalType": "address",
          "name": "",
          "type": "address"
        }
      ],
      "stateMutability": "view",
      "type": "function"
    },
    {
      "inputs": [
        {
          "internalType": "bytes32",
          "name": "_exeID",
          "type": "bytes32"
        }
      ],
      "name": "isExecutable",
      "outputs": [
        {
          "internalType": "bool",
          "name": "",
          "type": "bool"
        }
      ],
      "stateMutability": "view",
      "type": "function"
    },
    {
      "inputs": [
        {
          "internalType": "uint256",
          "name": "_propID",
          "type": "uint256"
        }
      ],
      "name": "isVotable",
      "outputs": [
        {
          "internalType": "bool",
          "name": "",
          "type": "bool"
        }
      ],
      "stateMutability": "view",
      "type": "function"
    },
    {
      "inputs": [
        {
          "internalType": "uint256",
          "name": "_propID",
          "type": "uint256"
        }
      ],
      "name": "queueProposal",
      "outputs": [],
      "stateMutability": "nonpayable",
      "type": "function"
    },
    {
      "inputs": [
        {
          "internalType": "uint256",
          "name": "time",
          "type": "uint256"
        }
      ],
      "name": "setCurrentTime",
      "outputs": [],
      "stateMutability": "nonpayable",
      "type": "function"
    },
    {
      "inputs": [
        {
          "internalType": "bytes32",
          "name": "_exeID",
          "type": "bytes32"
        }
      ],
      "name": "setExecute",
      "outputs": [],
      "stateMutability": "nonpayable",
      "type": "function"
    },
    {
      "inputs": [],
      "name": "timerAddress",
      "outputs": [
        {
          "internalType": "address",
          "name": "",
          "type": "address"
        }
      ],
      "stateMutability": "view",
      "type": "function"
    },
    {
      "inputs": [
        {
          "internalType": "uint256",
          "name": "_propID",
          "type": "uint256"
        }
      ],
      "name": "voting",
      "outputs": [],
      "stateMutability": "nonpayable",
      "type": "function"
    }
  ],
  "bytecode": "0x60c06040523480156200001157600080fd5b50604051620038ee380380620038ee83398181016040528101906200003791906200031c565b7fd578563424ab02f85ec03c6b1aee04947ebdd4a30db46cba3bcd7f56ef40b1998282806200008f7fbc0a003bb8fab9931eb808559dac1014bd598e04024b8875faae5e60c9d7adc660001b620002fc60201b60201c565b620000c37fc643b4a93fb8ea47dbcab1d450d0c5237e347cfdbbfb564d0f5c0705bc17b0b960001b620002fc60201b60201c565b620000f77f99eda9b013c18feeb073dd7366065243b6adc915936be427d2ffe5bba7dbe99160001b620002fc60201b60201c565b33600060026101000a81548173ffffffffffffffffffffffffffffffffffffffff021916908373ffffffffffffffffffffffffffffffffffffffff16021790555080600160006101000a81548173ffffffffffffffffffffffffffffffffffffffff021916908373ffffffffffffffffffffffffffffffffffffffff16021790555050620001ae7f91b90f81106ec7301a2ef3f3646fc2ac7a03224c1592a81c08bf2be57bf85da360001b620002ff60201b60201c565b620001e27faa1a5f5f7c07ad1d1a00bf086c9ae885f69ed49cd3abc04289c41680f08eda2360001b620002ff60201b60201c565b620002167f96d06dce006a4c22db8a8fd81f6fd8d01ca83c6b578b06c55ae55449f894b56160001b620002ff60201b60201c565b8260808181525050620002527f5df41bcd415e6f031fea4b950841c2b7a0c71533bb77597e55e47143977ffe5060001b620002ff60201b60201c565b620002867f86b081f2885abf844d8a6e92c42bb8b42f1f332206a0f04e515da586d0b809f560001b620002ff60201b60201c565b8173ffffffffffffffffffffffffffffffffffffffff1660a08173ffffffffffffffffffffffffffffffffffffffff1660601b81525050505050620002f47f846042e9a208626d520f9e6ba22ceacdcd775de4492700a3d434a2f13305f47960001b6200030260201b60201c565b5050620003b6565b50565b50565b50565b60008151905062000316816200039c565b92915050565b6000806040838503121562000336576200033562000397565b5b6000620003468582860162000305565b9250506020620003598582860162000305565b9150509250929050565b6000620003708262000377565b9050919050565b600073ffffffffffffffffffffffffffffffffffffffff82169050919050565b600080fd5b620003a78162000363565b8114620003b357600080fd5b50565b60805160a05160601c6134d06200041e6000396000818161047e01528181610aa901528181610f35015281816110a1015281816116b7015281816117db01528181611f9f01528181612521015281816125cb01526126f001526000610d5f01526134d06000f3fe608060405234801561001057600080fd5b50600436106100f55760003560e01c80634ec0939e116100975780639cf782cb116100665780639cf782cb1461025c5780639ef7786d1461028c578063eaddd0fd146102a8578063fd4a77f1146102c6576100f5565b80634ec0939e146101d8578063701370dc146101f45780637526bd9b1461022457806394a14a3414610240576100f5565b806329cb924d116100d357806329cb924d14610164578063348291551461018257806338c687821461019e5780633c9747f3146101ba576100f5565b80631c39c38d146100fa57806322f8e56614610118578063299ba15f14610134575b600080fd5b6101026102e2565b60405161010f91906130db565b60405180910390f35b610132600480360381019061012d9190612f41565b610308565b005b61014e60048036038101906101499190612f41565b6103f4565b60405161015b91906130f6565b60405180910390f35b61016c61083f565b6040516101799190613227565b60405180910390f35b61019c60048036038101906101979190612e40565b610944565b005b6101b860048036038101906101b39190612e9a565b610947565b005b6101c2610d5d565b6040516101cf9190613111565b60405180910390f35b6101f260048036038101906101ed9190612e40565b610d81565b005b61020e60048036038101906102099190612dc0565b610d84565b60405161021b91906130db565b60405180910390f35b61023e60048036038101906102399190612e40565b610e83565b005b61025a60048036038101906102559190612f41565b61162f565b005b61027660048036038101906102719190612e40565b611f15565b60405161028391906130f6565b60405180910390f35b6102a660048036038101906102a19190612e40565b61251c565b005b6102b061251f565b6040516102bd919061312c565b60405180910390f35b6102e060048036038101906102db9190612f41565b612543565b005b600160009054906101000a900473ffffffffffffffffffffffffffffffffffffffff1681565b600073ffffffffffffffffffffffffffffffffffffffff16600160009054906101000a900473ffffffffffffffffffffffffffffffffffffffff1673ffffffffffffffffffffffffffffffffffffffff16141561036457600080fd5b600160009054906101000a900473ffffffffffffffffffffffffffffffffffffffff1673ffffffffffffffffffffffffffffffffffffffff166322f8e566826040518263ffffffff1660e01b81526004016103bf9190613227565b600060405180830381600087803b1580156103d957600080fd5b505af11580156103ed573d6000803e3d6000fd5b5050505050565b60006104227fa6da86ec4725910c429a394b934a421ba45c5d07440f7335aa454e3ddcfd847860001b610d81565b61044e7f9bf70c465ce73fb5b345346a449b453f93c040deadc2f920f3e145d0ac08169b60001b610d81565b61047a7f2dbe92f37b0112f543065cc6138d436025077c9982b0a7101ff3e4a112cf088860001b610d81565b60007f000000000000000000000000000000000000000000000000000000000000000073ffffffffffffffffffffffffffffffffffffffff1663624a23e07f36209a57dfd79e3872ec3a0c88c653bbe7e32a12306e5e1f92f118c1936ae8b26040518263ffffffff1660e01b81526004016104f59190613111565b60206040518083038186803b15801561050d57600080fd5b505afa158015610521573d6000803e3d6000fd5b505050506040513d601f19601f820116820180604052508101906105459190612d93565b90506105737f923fa06a79610df06eae029bf8bb89d2934b9950915e59ce2c50a23041be779560001b610d81565b61059f7fac100ad3217287492f3993141267fd6e3c8f5d891eccecaf765250fecaee71bf60001b610d81565b6000806000808473ffffffffffffffffffffffffffffffffffffffff1663a6640e4c886040518263ffffffff1660e01b81526004016105de9190613227565b60806040518083038186803b1580156105f657600080fd5b505afa15801561060a573d6000803e3d6000fd5b505050506040513d601f19601f8201168201806040525081019061062e9190612eda565b93509350935093506106627f0caefb6993c9e0635ecb89605dcab4b6840153bc34ead5acb1897a099c20b76760001b610d81565b61068e7fba2ced930974122f5ab75ed53088535cc44615399a95ade7913732f9dd44295960001b610d81565b600160068111156106a2576106a16132db565b5b8460068111156106b5576106b46132db565b5b14806106e55750600260068111156106d0576106cf6132db565b5b8460068111156106e3576106e26132db565b5b145b80156106f857506106f461083f565b8311155b801561070b575061070761083f565b8210155b8015610715575080155b156107ac576107467fb5abce50020fce4791d771bbe086a37b96746a1e4187dd5e85736e604af4fe2a60001b610d81565b6107727feddc93f8bf08ce89dc02092695e56b4550c8c4846723c40f49f362637e68f50a60001b610d81565b61079e7fe8cf295b9846a657ad100630d2564f32432fc8805fd3e4dba6479a59636c1c0960001b610d81565b60019550505050505061083a565b6107d87f8e9b0dc5455c2bfcc7927ce3a48e9e4a2e9f23696ba795861d2cec2251e90a0b60001b610d81565b6108047fe581f2e1e9fddfc163d70abd4733d0109de23b24e0eef453357bc40a2b9b0ee060001b610d81565b6108307fbfe5397414c6b3151e82a96e32d01b1fd717c2a1d586196c8eb371945f2b9d6c60001b610d81565b6000955050505050505b919050565b60008073ffffffffffffffffffffffffffffffffffffffff16600160009054906101000a900473ffffffffffffffffffffffffffffffffffffffff1673ffffffffffffffffffffffffffffffffffffffff161461093d57600160009054906101000a900473ffffffffffffffffffffffffffffffffffffffff1673ffffffffffffffffffffffffffffffffffffffff166329cb924d6040518163ffffffff1660e01b815260040160206040518083038186803b1580156108fe57600080fd5b505afa158015610912573d6000803e3d6000fd5b505050506040513d601f19601f820116820180604052508101906109369190612f6e565b9050610941565b4290505b90565b50565b6109737ff1aac12a86ef3324e97019adb70fd4ba4a1fe76f8570e03109a6320bc8cbff5a60001b610d81565b61099f7f0a55e2e7b72abad631275a5d28fd0826a06df97eef65c6669f5edd348377c15360001b610d81565b6109cb7f07f3e620de724b0c751d6f2dc71761a9992b397ca6b7e0d7bc912895d4c65ad260001b610d81565b60003373ffffffffffffffffffffffffffffffffffffffff16633c9747f36040518163ffffffff1660e01b815260040160206040518083038186803b158015610a1357600080fd5b505afa158015610a27573d6000803e3d6000fd5b505050506040513d601f19601f82011682018060405250810190610a4b9190612e6d565b9050610a797fd3a9ed3d5d3cb606f3da2661c06cadf6eee4be8926eb8a5518105627e737cd8460001b610d81565b610aa57f540898fd878a2add588129b0e02a0739b61ee5402805fc8bb3a94c91e0e7eb2e60001b610d81565b60007f000000000000000000000000000000000000000000000000000000000000000073ffffffffffffffffffffffffffffffffffffffff1663624a23e0836040518263ffffffff1660e01b8152600401610b009190613111565b60206040518083038186803b158015610b1857600080fd5b505afa158015610b2c573d6000803e3d6000fd5b505050506040513d601f19601f82011682018060405250810190610b509190612d93565b9050610b7e7fe19f7b31577f68cf6cfedf49e03427af79791eb906177194bed812d23ed9f87760001b610d81565b610baa7f9232a94c80135ef92cb7ebf9f4c8d795e903c986a8a3307581e568cde90db35960001b610d81565b610bd67f916120839c06493589759094379ddda3c90fab1a212367266424a8791718f41b60001b610d81565b8073ffffffffffffffffffffffffffffffffffffffff163373ffffffffffffffffffffffffffffffffffffffff1614610c44576040517f08c379a0000000000000000000000000000000000000000000000000000000008152600401610c3b90613207565b60405180910390fd5b610c707f8ded2464c2a839e6c4692b03059778563357edac07cc78552c027c2bc0cab95560001b610d81565b610c9c7ff0b0a61525eb26a5d881cc88732d22c2cddc3970cea39e48d1bdef73809fedea60001b610d81565b610cc87f8b26839eb76a426e09ace5540bf6b13d2978feecd53561fb5325ebb16ae6e74260001b610d81565b82600260003373ffffffffffffffffffffffffffffffffffffffff1673ffffffffffffffffffffffffffffffffffffffff168152602001908152602001600020600086815260200190815260200160002060006101000a81548173ffffffffffffffffffffffffffffffffffffffff021916908373ffffffffffffffffffffffffffffffffffffffff16021790555050505050565b7f000000000000000000000000000000000000000000000000000000000000000081565b50565b6000610db27f88bd43b0042b763c97108a455d31bb031010b6571734853040be1f7bf134de8360001b610d81565b610dde7f06e88e3bb20b5bf2cbaeafccd40f3f79eddb397b19445f1dadb44d7e7e15e07360001b610d81565b610e0a7f240650ac42c0ceaabc626949a70222ef365e25dc6a336f5efa16f721fe142e0c60001b610d81565b600260008473ffffffffffffffffffffffffffffffffffffffff1673ffffffffffffffffffffffffffffffffffffffff168152602001908152602001600020600083815260200190815260200160002060009054906101000a900473ffffffffffffffffffffffffffffffffffffffff16905092915050565b610eaf7fd99be09b63847000f2eb53f5ee50019118df2ab6326deeb5872bd18d87503b5460001b610944565b610edb7f2c77d644d557fb6933dbc4cc49b3e86c80f23ae8d6b864c32d5062edb5f0d62260001b610944565b610f077f323aff064297e279e575f30b6bb40f48a6804ebbbd1d4e4e70874769d3efb43560001b610944565b610f337f6a760194827939a89f2bddb7ac80b8353403bf9f68f91bcc5eb2a49ba90d7a1760001b610944565b7f000000000000000000000000000000000000000000000000000000000000000073ffffffffffffffffffffffffffffffffffffffff163373ffffffffffffffffffffffffffffffffffffffff1614610fc1576040517f08c379a0000000000000000000000000000000000000000000000000000000008152600401610fb890613167565b60405180910390fd5b610fed7fa53bc14a73a3e41ae5036a8adef75c20d6c58cb075af602696e9c954447e86d260001b610944565b6110197fd18cb327c4e8d27581609c177ba735fa88f2b6f52b5a530f744687ea0f030e4260001b610944565b6110457f13ad553dd5e672cc1cfb3dd158bffd5fee1dde3e046baf73a6ecdfaf74c0aefd60001b610d81565b6110717f2cbdd87ef5f060dfa4942cec10b1aeef3affc7ec0d76eb69d11c782d60ac924c60001b610d81565b61109d7f89a047a1f11e7eb2fa9890f850c50aad2de35d54237efb1a17ff254d6a5ec40860001b610d81565b60007f000000000000000000000000000000000000000000000000000000000000000073ffffffffffffffffffffffffffffffffffffffff1663624a23e07f36209a57dfd79e3872ec3a0c88c653bbe7e32a12306e5e1f92f118c1936ae8b26040518263ffffffff1660e01b81526004016111189190613111565b60206040518083038186803b15801561113057600080fd5b505afa158015611144573d6000803e3d6000fd5b505050506040513d601f19601f820116820180604052508101906111689190612d93565b90506111967fbdb4f568a13e645042636dd8241be928dc8fc198f5e24bd86868b5a2dc876e8660001b610d81565b6111c27fb29ddccea402c9890adf88bc6a811d4293883df149ee7393297f771f0c11565560001b610d81565b60008173ffffffffffffffffffffffffffffffffffffffff16639e34fa6a846040518263ffffffff1660e01b81526004016111fd9190613111565b60206040518083038186803b15801561121557600080fd5b505afa158015611229573d6000803e3d6000fd5b505050506040513d601f19601f8201168201806040525081019061124d9190612f6e565b905061127b7f7adee0386c99c19ad0132a7d65fdd26c26ff9e60627570a2e07d689465d344d060001b610d81565b6112a77ff10d5b2b825d48062efd5fc29d2cc74d76abd5258860ce8603ad1c723d3ffe2f60001b610d81565b6112d37fec95fc31bfb37545341a60a9b8001ff57c93409896a6ea6973d9fe6ab1b3046a60001b610d81565b6000811415611317576040517f08c379a000000000000000000000000000000000000000000000000000000000815260040161130e906131c7565b60405180910390fd5b6113437fc8a5fa4f04d9c851fced2fea4668b2fcc7c1c09e4428d04c97d89483078ed7eb60001b610d81565b61136f7f98ec4de37f80edb70e438ef67ebe061b38a199f578b9bbcec24cded506dad2e960001b610d81565b61139b7f25a4ec733d4ea5c28d0bc0e7c36cf41c16d3ac7371b7297db90fd8e817d4bfc360001b610d81565b60008060008473ffffffffffffffffffffffffffffffffffffffff1663a6640e4c856040518263ffffffff1660e01b81526004016113d99190613227565b60806040518083038186803b1580156113f157600080fd5b505afa158015611405573d6000803e3d6000fd5b505050506040513d601f19601f820116820180604052508101906114299190612eda565b9350935050925061145c7f1c166e224ddd17acd87e9fd14d613724b9afe356031478c7b0e0509006e79ab760001b610d81565b6114887f9abe5581b6c2c7468ab09447a231f133761199f9200c852fffe0b0fc1b25f04e60001b610d81565b6114b47fb3cf7e06e1ac107479e398a6a44dbc9317fee0b2e9ef38dcb00bb97368ac252f60001b610d81565b600360068111156114c8576114c76132db565b5b8360068111156114db576114da6132db565b5b1480156114ef57506114eb61083f565b8211155b80156114f9575080155b611538576040517f08c379a000000000000000000000000000000000000000000000000000000000815260040161152f90613147565b60405180910390fd5b6115647fc704105dfe0276773824b7961359a34aff7fafa4146995bc3315dd845f35112460001b610d81565b6115907f9a8b8c8bd24e59ed4dedf8f574edbc29b9fe778c9d14e9abc272e6d716c7832460001b610d81565b6115bc7fe4986f4d460d47444f48032f56ab8d6b9de6bdf1dc1fc79357ece224933a258f60001b610d81565b8473ffffffffffffffffffffffffffffffffffffffff1663b7abd803856040518263ffffffff1660e01b81526004016115f59190613227565b600060405180830381600087803b15801561160f57600080fd5b505af1158015611623573d6000803e3d6000fd5b50505050505050505050565b61165b7f59f19fa6bcb7a3091436e857416f0483f89411aca7f7345722aa44b42de6206c60001b610d81565b6116877f59d4160417d53bde6525733568c6c8001c515b3f2dd7aa52ce5f6498c84b7e2360001b610d81565b6116b37fe342f92ccbad1d584192ab6efa87b983e4dcb33a5a84123f97cb0b719e098b1960001b610d81565b60007f000000000000000000000000000000000000000000000000000000000000000073ffffffffffffffffffffffffffffffffffffffff1663624a23e07f346b2ab3a980432fd8f2e24828fc9f9ee2df1548701bc542f6ec17882b3276276040518263ffffffff1660e01b815260040161172e9190613111565b60206040518083038186803b15801561174657600080fd5b505afa15801561175a573d6000803e3d6000fd5b505050506040513d601f19601f8201168201806040525081019061177e9190612d93565b90506117ac7ff35e2221d5d89ba06004801b29e2ae5174945728136067ba236f05467254174c60001b610d81565b6117d77e427eeb2ed176330097ab2c0d0a4e9b222d21fd085e4aa63bb29a2e5f4aca7060001b610d81565b60007f000000000000000000000000000000000000000000000000000000000000000073ffffffffffffffffffffffffffffffffffffffff1663624a23e07f36209a57dfd79e3872ec3a0c88c653bbe7e32a12306e5e1f92f118c1936ae8b26040518263ffffffff1660e01b81526004016118529190613111565b60206040518083038186803b15801561186a57600080fd5b505afa15801561187e573d6000803e3d6000fd5b505050506040513d601f19601f820116820180604052508101906118a29190612d93565b90506118d07fd1b9b92b1bd6599afe27a9f97d177b2a2ab988d1d2cc2eb2336ad6c543102a3860001b610d81565b6118fc7f97dcc1bc4fafc537aea78e133928875a111b9269e777d13160269b77423b304760001b610d81565b6000808273ffffffffffffffffffffffffffffffffffffffff1663a6640e4c866040518263ffffffff1660e01b81526004016119389190613227565b60806040518083038186803b15801561195057600080fd5b505afa158015611964573d6000803e3d6000fd5b505050506040513d601f19601f820116820180604052508101906119889190612eda565b9350935050506119ba7f3afb105ac247561fe90414b3ea020e18948eadeebc291d03e61ff5b00609545860001b610d81565b6119e67f3f12cdde03bcb084cc2e959ccae18dc011b84ca7045e868be7456773e90408b560001b610d81565b611a127f9f0ac6f4d3cb9e7804590460106ff9a618af6f7c135a5fa7191b79d6e4af579860001b610d81565b611a1a61083f565b8211158015611a27575080155b611a66576040517f08c379a0000000000000000000000000000000000000000000000000000000008152600401611a5d906131e7565b60405180910390fd5b611a927f0b7c3580415a46cf1a69ebb076179032a1fc5d3e2b9669d3f6b1ebb93d37a46c60001b610d81565b611abe7f1e8bfba2784e4d0657888fdd1f280a1e14c91205385e43faf065d892a117d08860001b610d81565b611aea7f97143ed3bdc8dc55134f1a9126a67b4340b77907797e16972b16f1ddd04f8a6560001b610d81565b6000808573ffffffffffffffffffffffffffffffffffffffff1663e343409a886040518263ffffffff1660e01b8152600401611b269190613227565b604080518083038186803b158015611b3d57600080fd5b505afa158015611b51573d6000803e3d6000fd5b505050506040513d601f19601f82011682018060405250810190611b759190612e00565b91509150611ba57fc35bd05d8623778510f748de8d0a78da8802b9d96540c2945042f58c7774432460001b610d81565b611bd17ff9050bff57fb9643279258dbc69013045218911cdb34937dc94871445b2fbc5860001b610d81565b81611cca57611c027f6903bab14cca7d9fc5759c88df25068039381d14efb66798f570983b4c03bc6a60001b610d81565b611c2e7fbc66b5ec635595b183959a9c1975227fcdf186a43eb80355ff558b4c2209c0b460001b610d81565b611c5a7fcb89aa52b92f52e37eb745a1ff8328d69f25cf6e9a3434696ced0484b6d924cc60001b610d81565b8473ffffffffffffffffffffffffffffffffffffffff16637ef966e4886040518263ffffffff1660e01b8152600401611c939190613227565b600060405180830381600087803b158015611cad57600080fd5b505af1158015611cc1573d6000803e3d6000fd5b50505050611f0c565b611cf67f8d45fa0dbab8d2db54b70e23047f4752af5233cbab2d512a97d9c365a999325060001b610d81565b611d227fced4a063277edb1ef24b4326b6978a52d2d99f54f2b3b13af6e72df08eec83bb60001b610d81565b80611e1b57611d537f8dfd0f30b7af2c53e1bf9a183223a530ace631bf32ba028a51e211c6ea8eed5360001b610d81565b611d7f7fe0dbdf5380bb4da74f8af1b8c45c84c4434cce2df43b51381836f872d63b021560001b610d81565b611dab7f6fb758cae8874d6683b4b847c653911611e44b165d41ff218a347e87f9e8e1d960001b610d81565b8473ffffffffffffffffffffffffffffffffffffffff1663f40507ac886040518263ffffffff1660e01b8152600401611de49190613227565b600060405180830381600087803b158015611dfe57600080fd5b505af1158015611e12573d6000803e3d6000fd5b50505050611f0b565b611e477f17ba62986b48d437709d0a3f76e40e67dc43363fae8f1076acc154746ec9a4d060001b610d81565b611e737fd58255ad7aefbc2349b9a4c2c23294258050ab2ec0746c8e6ca25f9f8dfd41e760001b610d81565b611e9f7fe08ab3f23882987bc79fd5cb7d1a413de72fa5ce537db2c8d3ab21dba440ff7160001b610d81565b8473ffffffffffffffffffffffffffffffffffffffff1663cd39ebfd886040518263ffffffff1660e01b8152600401611ed89190613227565b600060405180830381600087803b158015611ef257600080fd5b505af1158015611f06573d6000803e3d6000fd5b505050505b5b50505050505050565b6000611f437ff547ab15476bf866dabbfef7bf848d76b5f55e24836b0e97b45f9ff3a2f64b5160001b610d81565b611f6f7fa711e49d046359506a8a88c290ff767911082ff038442960263bb9bde6c49a3860001b610d81565b611f9b7ffa3c56ef6dff8e0cbaf10a79dc5959ee75502ba316e3bc3d4b28f3f5754ef97a60001b610d81565b60007f000000000000000000000000000000000000000000000000000000000000000073ffffffffffffffffffffffffffffffffffffffff1663624a23e07f36209a57dfd79e3872ec3a0c88c653bbe7e32a12306e5e1f92f118c1936ae8b26040518263ffffffff1660e01b81526004016120169190613111565b60206040518083038186803b15801561202e57600080fd5b505afa158015612042573d6000803e3d6000fd5b505050506040513d601f19601f820116820180604052508101906120669190612d93565b90506120947faf0baa71a4eb232ed4f4c7259f9d403aed8d61f6623739cda7efbf20d5dd9e5560001b610d81565b6120c07fc60e365367d99cbac6a00caedfc33307ce8d9566208f6ea40a55911c21b126de60001b610d81565b60008173ffffffffffffffffffffffffffffffffffffffff16639e34fa6a856040518263ffffffff1660e01b81526004016120fb9190613111565b60206040518083038186803b15801561211357600080fd5b505afa158015612127573d6000803e3d6000fd5b505050506040513d601f19601f8201168201806040525081019061214b9190612f6e565b90506121797ff1e69a4e51ede963f1a466dd2d3219407801b5d2163ce43bf8f83f36f63df44360001b610d81565b6121a57faaf3a57ea29848da4ae42df11b5806fe9f501e036b8c6cd375b3ba76b38ff2af60001b610d81565b600081141561223d576121da7f0faa0e3602118d775ae14e915efbafe5365eb2ee952d788539e45f1a50bb9a6b60001b610d81565b6122067fb31f36011c853ab85f1ff18fd1ebb74f11da164d65bdf93db4d73caf0e6d792260001b610d81565b6122327fb881caa6dd9113e716e437c8866a72b82874bbe5f0c2835d983301616b4637cb60001b610d81565b600092505050612517565b6122697f0e58ec514b82b08dab1008bd98edb1494f5282c9c92f3c37b810236b1aeb424660001b610d81565b6122957fa4438ed61a2965da8465c5b9c26a1b5344f22b39f61ffdfe153f6a54a6fdf7a560001b610d81565b6122c17f06b9f73cf58e8aedb6ef247f0c0c56100ecae0ff75c361c2490d99bd33ceab6460001b610d81565b60008060008473ffffffffffffffffffffffffffffffffffffffff1663a6640e4c856040518263ffffffff1660e01b81526004016122ff9190613227565b60806040518083038186803b15801561231757600080fd5b505afa15801561232b573d6000803e3d6000fd5b505050506040513d601f19601f8201168201806040525081019061234f9190612eda565b935093505092506123827f8a267b0551c8802fba21bc4a61f0fadedc1f351b257723c203973c953b0905a260001b610d81565b6123ae7f8805ac9926d0912d3fd6fd6b3cf698bf87e646a381c1c434c423c4471d70ec8960001b610d81565b600360068111156123c2576123c16132db565b5b8360068111156123d5576123d46132db565b5b1480156123e857506123e561083f565b82105b80156123f2575080155b15612489576124237fc4abd8f45057d6859824941deb9af06d8435d8461bef92882ae381c414aebee260001b610d81565b61244f7fb43f6a687d7d1a4a40da68467b60ef7fb6a5a23efe227d4b3b4acfe3872c229460001b610d81565b61247b7ff208c646a68a1ffd954f44621f774ac02fd17b4ffde759c50725902d2a9b1def60001b610d81565b600195505050505050612517565b6124b57f49c3437fe2866ccffb665ca86dea28d0aae1c974100399ed4aa51c27478677a060001b610d81565b6124e17f1d1beefc652c06cb4335dd494862f2cfbec3cd380f0f413cfb499196fef7200060001b610d81565b61250d7fc6c4370b3d7664ca4f7192d72b862b796d1ac2aeaa0516d8a7538761610dce8360001b610d81565b6000955050505050505b919050565b50565b7f000000000000000000000000000000000000000000000000000000000000000081565b61256f7f9764525ab52fb3522d77d8066215b8eb9cf2b8b34c6975060df0735cb721e01760001b610d81565b61259b7f761465a13f5be2defbd0f3f17ce7c6864af492b0378122b4ff8b037dea6e0e7760001b610d81565b6125c77f26b6b3170b9dab122fa280d11ad42b5e503e7d1cd19e147b505315dec05d2ce460001b610d81565b60007f000000000000000000000000000000000000000000000000000000000000000073ffffffffffffffffffffffffffffffffffffffff1663624a23e07f36209a57dfd79e3872ec3a0c88c653bbe7e32a12306e5e1f92f118c1936ae8b26040518263ffffffff1660e01b81526004016126429190613111565b60206040518083038186803b15801561265a57600080fd5b505afa15801561266e573d6000803e3d6000fd5b505050506040513d601f19601f820116820180604052508101906126929190612d93565b90506126c07f590451685832d6205360cadc6951430ca5f6c780fd41644d7b5aef9503d6ac8760001b610d81565b6126ec7f481e3bbc2e27e9b3c22346458bb3834b298830f0ac5ca627b11750baa0e7977360001b610d81565b60007f000000000000000000000000000000000000000000000000000000000000000073ffffffffffffffffffffffffffffffffffffffff1663624a23e07f346b2ab3a980432fd8f2e24828fc9f9ee2df1548701bc542f6ec17882b3276276040518263ffffffff1660e01b81526004016127679190613111565b60206040518083038186803b15801561277f57600080fd5b505afa158015612793573d6000803e3d6000fd5b505050506040513d601f19601f820116820180604052508101906127b79190612d93565b90506127e57f02c858a57280e5e88a577e92b1fe91cb60ed38de8e9f46a627acf5769a306d8a60001b610d81565b6128117f11215f3beab4a9eceff77aa37c542e1d3f47b8c78bac6a9eb4996a2c243fe67860001b610d81565b6000806000808573ffffffffffffffffffffffffffffffffffffffff1663a6640e4c886040518263ffffffff1660e01b81526004016128509190613227565b60806040518083038186803b15801561286857600080fd5b505afa15801561287c573d6000803e3d6000fd5b505050506040513d601f19601f820116820180604052508101906128a09190612eda565b93509350935093506128d47f7674677f137b7a883bdbc9a299c4524d9b367001153ddfc745bdd50fa582f4ef60001b610d81565b6129007fc63738b454d04b50a58da7c50f5bc32a1dfc5e82482dda8c7e56a2c887c5d28860001b610d81565b61292c7f912ae614896ec3621efe1f3136b5e7d86b2e0dd13e3684e6d269cd28abafce8360001b610d81565b8473ffffffffffffffffffffffffffffffffffffffff163373ffffffffffffffffffffffffffffffffffffffff161461299a576040517f08c379a000000000000000000000000000000000000000000000000000000000815260040161299190613187565b60405180910390fd5b6129c67fd00574d0c3f9aa082fed63586bb40bd01961b108c08d38bac57fa868af9a5be460001b610d81565b6129f27f16700a0489215a41ed1e77220c9395504388f0ecda16461c38f42d481af3570760001b610d81565b612a1e7f4c422b0da46ff4e07b401ad0d8b5be291a083e43ffd714ff5dbeca691b4865bd60001b610d81565b612a4a7f7155adcf902ead638fd3b690f1d820a15bb1bbbcf2fb82a55b52344d20ab622060001b610d81565b60016006811115612a5e57612a5d6132db565b5b846006811115612a7157612a706132db565b5b1480612aa1575060026006811115612a8c57612a8b6132db565b5b846006811115612a9f57612a9e6132db565b5b145b8015612ab45750612ab061083f565b8311155b8015612ac75750612ac361083f565b8210155b8015612ad1575080155b612b10576040517f08c379a0000000000000000000000000000000000000000000000000000000008152600401612b07906131a7565b60405180910390fd5b612b3c7f59e4340436ac3dc9873421b0ac599702eca95de40c749c6eaa945c9008eb7efa60001b610d81565b612b687f3e831b52a0ee3e9e3320edccd7f91712138c2ca80cf646b78a4d2bd94f18b45860001b610d81565b612b947f7983505089492d7ae5e758ea529c3d2154e5fd50645789bb1723dede893ea64960001b610d81565b60016006811115612ba857612ba76132db565b5b846006811115612bbb57612bba6132db565b5b1415612cb557612bed7fba12a9c7725a213d10558fe29093f982ddd0925df0f600dafe4d1932b640d84260001b610d81565b612c197f7465173ae2cbf7e8203efcfb0dc158c74bd4ed5fa8a4aba8d99eed0342c574cb60001b610d81565b612c457f96a1118c621f5f65b465080417b8122e1e8f5cea97ee1144be7c156ba45eb43b60001b610d81565b8573ffffffffffffffffffffffffffffffffffffffff166377e4b811886040518263ffffffff1660e01b8152600401612c7e9190613227565b600060405180830381600087803b158015612c9857600080fd5b505af1158015612cac573d6000803e3d6000fd5b50505050612ce2565b612ce17f013a95056937baa7df9d8848744c87338eb7d69ec1e7817d0dfb6afa9d42aca960001b610d81565b5b50505050505050565b600081359050612cfa8161342e565b92915050565b600081519050612d0f8161342e565b92915050565b600081519050612d2481613445565b92915050565b600081359050612d398161345c565b92915050565b600081519050612d4e8161345c565b92915050565b600081519050612d6381613473565b92915050565b600081359050612d7881613483565b92915050565b600081519050612d8d81613483565b92915050565b600060208284031215612da957612da861330a565b5b6000612db784828501612d00565b91505092915050565b60008060408385031215612dd757612dd661330a565b5b6000612de585828601612ceb565b9250506020612df685828601612d2a565b9150509250929050565b60008060408385031215612e1757612e1661330a565b5b6000612e2585828601612d15565b9250506020612e3685828601612d15565b9150509250929050565b600060208284031215612e5657612e5561330a565b5b6000612e6484828501612d2a565b91505092915050565b600060208284031215612e8357612e8261330a565b5b6000612e9184828501612d3f565b91505092915050565b60008060408385031215612eb157612eb061330a565b5b6000612ebf85828601612d2a565b9250506020612ed085828601612ceb565b9150509250929050565b60008060008060808587031215612ef457612ef361330a565b5b6000612f0287828801612d54565b9450506020612f1387828801612d7e565b9350506040612f2487828801612d7e565b9250506060612f3587828801612d15565b91505092959194509250565b600060208284031215612f5757612f5661330a565b5b6000612f6584828501612d69565b91505092915050565b600060208284031215612f8457612f8361330a565b5b6000612f9284828501612d7e565b91505092915050565b612fa481613253565b82525050565b612fb381613265565b82525050565b612fc281613271565b82525050565b612fd1816132a5565b82525050565b6000612fe4601983613242565b9150612fef8261330f565b602082019050919050565b6000613007601c83613242565b915061301282613338565b602082019050919050565b600061302a601a83613242565b915061303582613361565b602082019050919050565b600061304d601783613242565b91506130588261338a565b602082019050919050565b6000613070601583613242565b915061307b826133b3565b602082019050919050565b6000613093602083613242565b915061309e826133dc565b602082019050919050565b60006130b6601b83613242565b91506130c182613405565b602082019050919050565b6130d58161329b565b82525050565b60006020820190506130f06000830184612f9b565b92915050565b600060208201905061310b6000830184612faa565b92915050565b60006020820190506131266000830184612fb9565b92915050565b60006020820190506131416000830184612fc8565b92915050565b6000602082019050818103600083015261316081612fd7565b9050919050565b6000602082019050818103600083015261318081612ffa565b9050919050565b600060208201905081810360008301526131a08161301d565b9050919050565b600060208201905081810360008301526131c081613040565b9050919050565b600060208201905081810360008301526131e081613063565b9050919050565b6000602082019050818103600083015261320081613086565b9050919050565b60006020820190508181036000830152613220816130a9565b9050919050565b600060208201905061323c60008301846130cc565b92915050565b600082825260208201905092915050565b600061325e8261327b565b9050919050565b60008115159050919050565b6000819050919050565b600073ffffffffffffffffffffffffffffffffffffffff82169050919050565b6000819050919050565b60006132b0826132b7565b9050919050565b60006132c2826132c9565b9050919050565b60006132d48261327b565b9050919050565b7f4e487b7100000000000000000000000000000000000000000000000000000000600052602160045260246000fd5b600080fd5b7f436f6f72643a20657865206e6f742065786563757461626c6500000000000000600082015250565b7f53797374656d3a204f6e6c7920636f72652063616e206d6f6469667900000000600082015250565b7f436f6f72643a204f6e6c7920626f6f74682063616e2063616c6c000000000000600082015250565b7f436f6f72643a2070726f70206e6f7420766f7461626c65000000000000000000600082015250565b7f436f6f72643a204e6f206c696e6b65642070726f700000000000000000000000600082015250565b7f436f6f72643a20766f74696e6720616374697665206f72206578656375746564600082015250565b7f436f6f72643a20496e636f727265637420494420666f72207375620000000000600082015250565b61343781613253565b811461344257600080fd5b50565b61344e81613265565b811461345957600080fd5b50565b61346581613271565b811461347057600080fd5b50565b6007811061348057600080fd5b50565b61348c8161329b565b811461349757600080fd5b5056fea2646970667358221220467ba8ddf1ea5e780f55688037bd8f6fd76803523b7d0f3a01e524d485aedc4f64736f6c63430008070033",
  "linkReferences": {},
  "deployedLinkReferences": {}
}