{
  "_format": "hh-sol-artifact-1",
  "contractName": "Coordinator",
  "sourceName": "contracts/Coordinator.sol",
  "abi": [
    {
      "inputs": [
        {
          "internalType": "address",
          "name": "_core",
          "type": "address"
        }
      ],
      "stateMutability": "nonpayable",
      "type": "constructor"
    },
    {
      "inputs": [],
      "name": "IDENTIFIER",
      "outputs": [
        {
          "internalType": "bytes32",
          "name": "",
          "type": "bytes32"
        }
      ],
      "stateMutability": "view",
      "type": "function"
    },
    {
      "inputs": [
        {
          "internalType": "bytes32",
          "name": "_subIdentifier",
          "type": "bytes32"
        },
        {
          "internalType": "address",
          "name": "_subImplementation",
          "type": "address"
        }
      ],
      "name": "addSubSystem",
      "outputs": [],
      "stateMutability": "nonpayable",
      "type": "function"
    },
    {
      "inputs": [],
      "name": "core_",
      "outputs": [
        {
          "internalType": "contract ICore",
          "name": "",
          "type": "address"
        }
      ],
      "stateMutability": "view",
      "type": "function"
    },
    {
      "inputs": [
        {
          "internalType": "address",
          "name": "_system",
          "type": "address"
        },
        {
          "internalType": "bytes32",
          "name": "_subIdentifier",
          "type": "bytes32"
        }
      ],
      "name": "getSubSystem",
      "outputs": [
        {
          "internalType": "address",
          "name": "",
          "type": "address"
        }
      ],
      "stateMutability": "view",
      "type": "function"
    },
    {
      "inputs": [
        {
          "internalType": "bytes32",
          "name": "_exeID",
          "type": "bytes32"
        }
      ],
      "name": "isExecutable",
      "outputs": [
        {
          "internalType": "bool",
          "name": "",
          "type": "bool"
        }
      ],
      "stateMutability": "view",
      "type": "function"
    },
    {
      "inputs": [
        {
          "internalType": "uint256",
          "name": "_propID",
          "type": "uint256"
        }
      ],
      "name": "isVotable",
      "outputs": [
        {
          "internalType": "bool",
          "name": "",
          "type": "bool"
        }
      ],
      "stateMutability": "view",
      "type": "function"
    },
    {
      "inputs": [
        {
          "internalType": "uint256",
          "name": "_propID",
          "type": "uint256"
        }
      ],
      "name": "queueProposal",
      "outputs": [],
      "stateMutability": "nonpayable",
      "type": "function"
    }
  ],
  "bytecode": "0x60c060405234801561001057600080fd5b50604051610fa3380380610fa3833981810160405281019061003291906100f1565b7fd578563424ab02f85ec03c6b1aee04947ebdd4a30db46cba3bcd7f56ef40b1998133600060026101000a81548173ffffffffffffffffffffffffffffffffffffffff021916908373ffffffffffffffffffffffffffffffffffffffff16021790555081608081815250508073ffffffffffffffffffffffffffffffffffffffff1660a08173ffffffffffffffffffffffffffffffffffffffff1660601b8152505050505061016c565b6000815190506100eb81610155565b92915050565b60006020828403121561010757610106610150565b5b6000610115848285016100dc565b91505092915050565b600061012982610130565b9050919050565b600073ffffffffffffffffffffffffffffffffffffffff82169050919050565b600080fd5b61015e8161011e565b811461016957600080fd5b50565b60805160a05160601c610dfa6101a96000396000818161018b015281816104080152818161065b01526108bb015260006105b60152610dfa6000f3fe608060405234801561001057600080fd5b506004361061007d5760003560e01c8063701370dc1161005b578063701370dc146100ec57806394a14a341461011c5780639cf782cb14610138578063eaddd0fd146101685761007d565b8063299ba15f1461008257806338c68782146100b25780633c9747f3146100ce575b600080fd5b61009c60048036038101906100979190610af3565b610186565b6040516100a99190610bd6565b60405180910390f35b6100cc60048036038101906100c79190610a4c565b610382565b005b6100d66105b4565b6040516100e39190610bf1565b60405180910390f35b610106600480360381019061010191906109b2565b6105d8565b6040516101139190610bbb565b60405180910390f35b61013660048036038101906101319190610af3565b610653565b005b610152600480360381019061014d91906109f2565b610656565b60405161015f9190610bd6565b60405180910390f35b6101706108b9565b60405161017d9190610c0c565b60405180910390f35b6000807f000000000000000000000000000000000000000000000000000000000000000073ffffffffffffffffffffffffffffffffffffffff1663624a23e07f36209a57dfd79e3872ec3a0c88c653bbe7e32a12306e5e1f92f118c1936ae8b26040518263ffffffff1660e01b81526004016102029190610bf1565b60206040518083038186803b15801561021a57600080fd5b505afa15801561022e573d6000803e3d6000fd5b505050506040513d601f19601f820116820180604052508101906102529190610985565b90506000806000808473ffffffffffffffffffffffffffffffffffffffff1663a6640e4c886040518263ffffffff1660e01b81526004016102939190610c47565b60806040518083038186803b1580156102ab57600080fd5b505afa1580156102bf573d6000803e3d6000fd5b505050506040513d601f19601f820116820180604052508101906102e39190610a8c565b9350935093509350600160088111156102ff576102fe610cfb565b5b84600881111561031257610311610cfb565b5b148061036457506002600881111561032d5761032c610cfb565b5b8460088111156103405761033f610cfb565b5b14801561034d5750428310155b80156103595750428211155b8015610363575080155b5b156103775760019550505050505061037d565b50505050505b919050565b60003373ffffffffffffffffffffffffffffffffffffffff16633c9747f36040518163ffffffff1660e01b815260040160206040518083038186803b1580156103ca57600080fd5b505afa1580156103de573d6000803e3d6000fd5b505050506040513d601f19601f820116820180604052508101906104029190610a1f565b905060007f000000000000000000000000000000000000000000000000000000000000000073ffffffffffffffffffffffffffffffffffffffff1663624a23e0836040518263ffffffff1660e01b815260040161045f9190610bf1565b60206040518083038186803b15801561047757600080fd5b505afa15801561048b573d6000803e3d6000fd5b505050506040513d601f19601f820116820180604052508101906104af9190610985565b90508073ffffffffffffffffffffffffffffffffffffffff163373ffffffffffffffffffffffffffffffffffffffff161461051f576040517f08c379a000000000000000000000000000000000000000000000000000000000815260040161051690610c27565b60405180910390fd5b82600160003373ffffffffffffffffffffffffffffffffffffffff1673ffffffffffffffffffffffffffffffffffffffff168152602001908152602001600020600086815260200190815260200160002060006101000a81548173ffffffffffffffffffffffffffffffffffffffff021916908373ffffffffffffffffffffffffffffffffffffffff16021790555050505050565b7f000000000000000000000000000000000000000000000000000000000000000081565b6000600160008473ffffffffffffffffffffffffffffffffffffffff1673ffffffffffffffffffffffffffffffffffffffff168152602001908152602001600020600083815260200190815260200160002060009054906101000a900473ffffffffffffffffffffffffffffffffffffffff16905092915050565b50565b6000807f000000000000000000000000000000000000000000000000000000000000000073ffffffffffffffffffffffffffffffffffffffff1663624a23e07f36209a57dfd79e3872ec3a0c88c653bbe7e32a12306e5e1f92f118c1936ae8b26040518263ffffffff1660e01b81526004016106d29190610bf1565b60206040518083038186803b1580156106ea57600080fd5b505afa1580156106fe573d6000803e3d6000fd5b505050506040513d601f19601f820116820180604052508101906107229190610985565b905060008173ffffffffffffffffffffffffffffffffffffffff16639e34fa6a856040518263ffffffff1660e01b815260040161075f9190610bf1565b60206040518083038186803b15801561077757600080fd5b505afa15801561078b573d6000803e3d6000fd5b505050506040513d601f19601f820116820180604052508101906107af9190610b20565b905060008114156107c5576000925050506108b4565b6000806000808573ffffffffffffffffffffffffffffffffffffffff1663a6640e4c866040518263ffffffff1660e01b81526004016108049190610c47565b60806040518083038186803b15801561081c57600080fd5b505afa158015610830573d6000803e3d6000fd5b505050506040513d601f19601f820116820180604052508101906108549190610a8c565b9350935093509350600660088111156108705761086f610cfb565b5b84600881111561088357610882610cfb565b5b14801561088f57504282115b8015610899575080155b156108ad57600196505050505050506108b4565b5050505050505b919050565b7f000000000000000000000000000000000000000000000000000000000000000081565b6000813590506108ec81610d58565b92915050565b60008151905061090181610d58565b92915050565b60008151905061091681610d6f565b92915050565b60008135905061092b81610d86565b92915050565b60008151905061094081610d86565b92915050565b60008151905061095581610d9d565b92915050565b60008135905061096a81610dad565b92915050565b60008151905061097f81610dad565b92915050565b60006020828403121561099b5761099a610d2a565b5b60006109a9848285016108f2565b91505092915050565b600080604083850312156109c9576109c8610d2a565b5b60006109d7858286016108dd565b92505060206109e88582860161091c565b9150509250929050565b600060208284031215610a0857610a07610d2a565b5b6000610a168482850161091c565b91505092915050565b600060208284031215610a3557610a34610d2a565b5b6000610a4384828501610931565b91505092915050565b60008060408385031215610a6357610a62610d2a565b5b6000610a718582860161091c565b9250506020610a82858286016108dd565b9150509250929050565b60008060008060808587031215610aa657610aa5610d2a565b5b6000610ab487828801610946565b9450506020610ac587828801610970565b9350506040610ad687828801610970565b9250506060610ae787828801610907565b91505092959194509250565b600060208284031215610b0957610b08610d2a565b5b6000610b178482850161095b565b91505092915050565b600060208284031215610b3657610b35610d2a565b5b6000610b4484828501610970565b91505092915050565b610b5681610c73565b82525050565b610b6581610c85565b82525050565b610b7481610c91565b82525050565b610b8381610cc5565b82525050565b6000610b96601b83610c62565b9150610ba182610d2f565b602082019050919050565b610bb581610cbb565b82525050565b6000602082019050610bd06000830184610b4d565b92915050565b6000602082019050610beb6000830184610b5c565b92915050565b6000602082019050610c066000830184610b6b565b92915050565b6000602082019050610c216000830184610b7a565b92915050565b60006020820190508181036000830152610c4081610b89565b9050919050565b6000602082019050610c5c6000830184610bac565b92915050565b600082825260208201905092915050565b6000610c7e82610c9b565b9050919050565b60008115159050919050565b6000819050919050565b600073ffffffffffffffffffffffffffffffffffffffff82169050919050565b6000819050919050565b6000610cd082610cd7565b9050919050565b6000610ce282610ce9565b9050919050565b6000610cf482610c9b565b9050919050565b7f4e487b7100000000000000000000000000000000000000000000000000000000600052602160045260246000fd5b600080fd5b7f436f6f72643a20496e636f727265637420494420666f72207375620000000000600082015250565b610d6181610c73565b8114610d6c57600080fd5b50565b610d7881610c85565b8114610d8357600080fd5b50565b610d8f81610c91565b8114610d9a57600080fd5b50565b60098110610daa57600080fd5b50565b610db681610cbb565b8114610dc157600080fd5b5056fea264697066735822122059cdf00bfe875303117dbbcda1e60294dbbca3c7009a8a9132ddc6f79de6505064736f6c63430008070033",
  "linkReferences": {},
  "deployedLinkReferences": {}
}