{
  "_format": "hh-sol-artifact-1",
  "contractName": "Coordinator",
  "sourceName": "contracts/Coordinator.sol",
  "abi": [
    {
      "inputs": [
        {
          "internalType": "address",
          "name": "_core",
          "type": "address"
        }
      ],
      "stateMutability": "nonpayable",
      "type": "constructor"
    },
    {
      "inputs": [],
      "name": "IDENTIFIER",
      "outputs": [
        {
          "internalType": "bytes32",
          "name": "",
          "type": "bytes32"
        }
      ],
      "stateMutability": "view",
      "type": "function"
    },
    {
      "inputs": [
        {
          "internalType": "bytes32",
          "name": "_subIdentifier",
          "type": "bytes32"
        },
        {
          "internalType": "address",
          "name": "_subImplementation",
          "type": "address"
        }
      ],
      "name": "addSubSystem",
      "outputs": [],
      "stateMutability": "nonpayable",
      "type": "function"
    },
    {
      "inputs": [],
      "name": "core_",
      "outputs": [
        {
          "internalType": "contract ICore",
          "name": "",
          "type": "address"
        }
      ],
      "stateMutability": "view",
      "type": "function"
    },
    {
      "inputs": [
        {
          "internalType": "address",
          "name": "_system",
          "type": "address"
        },
        {
          "internalType": "bytes32",
          "name": "_subIdentifier",
          "type": "bytes32"
        }
      ],
      "name": "getSubSystem",
      "outputs": [
        {
          "internalType": "address",
          "name": "",
          "type": "address"
        }
      ],
      "stateMutability": "view",
      "type": "function"
    },
    {
      "inputs": [
        {
          "internalType": "bytes32",
          "name": "_exeID",
          "type": "bytes32"
        }
      ],
      "name": "isExecutable",
      "outputs": [
        {
          "internalType": "bool",
          "name": "",
          "type": "bool"
        }
      ],
      "stateMutability": "view",
      "type": "function"
    },
    {
      "inputs": [
        {
          "internalType": "uint256",
          "name": "_propID",
          "type": "uint256"
        }
      ],
      "name": "isVotable",
      "outputs": [
        {
          "internalType": "bool",
          "name": "",
          "type": "bool"
        }
      ],
      "stateMutability": "view",
      "type": "function"
    },
    {
      "inputs": [
        {
          "internalType": "uint256",
          "name": "_propID",
          "type": "uint256"
        }
      ],
      "name": "queueProposal",
      "outputs": [],
      "stateMutability": "nonpayable",
      "type": "function"
    }
  ],
  "bytecode": "0x60c06040523480156200001157600080fd5b50604051620014dc380380620014dc8339818101604052810190620000379190620000f9565b7fd578563424ab02f85ec03c6b1aee04947ebdd4a30db46cba3bcd7f56ef40b1998133600060026101000a81548173ffffffffffffffffffffffffffffffffffffffff021916908373ffffffffffffffffffffffffffffffffffffffff16021790555081608081815250508073ffffffffffffffffffffffffffffffffffffffff1660a08173ffffffffffffffffffffffffffffffffffffffff1660601b815250505050506200017e565b600081519050620000f38162000164565b92915050565b6000602082840312156200011257620001116200015f565b5b60006200012284828501620000e2565b91505092915050565b600062000138826200013f565b9050919050565b600073ffffffffffffffffffffffffffffffffffffffff82169050919050565b600080fd5b6200016f816200012b565b81146200017b57600080fd5b50565b60805160a05160601c611312620001ca6000396000818161018b01528181610408015281816106570152818161072401528181610ac70152610d27015260006105b601526113126000f3fe608060405234801561001057600080fd5b506004361061007d5760003560e01c8063701370dc1161005b578063701370dc146100ec57806394a14a341461011c5780639cf782cb14610138578063eaddd0fd146101685761007d565b8063299ba15f1461008257806338c68782146100b25780633c9747f3146100ce575b600080fd5b61009c60048036038101906100979190610f9f565b610186565b6040516100a991906110a5565b60405180910390f35b6100cc60048036038101906100c79190610ef8565b610382565b005b6100d66105b4565b6040516100e391906110c0565b60405180910390f35b61010660048036038101906101019190610e1e565b6105d8565b604051610113919061108a565b60405180910390f35b61013660048036038101906101319190610f9f565b610653565b005b610152600480360381019061014d9190610e9e565b610ac2565b60405161015f91906110a5565b60405180910390f35b610170610d25565b60405161017d91906110db565b60405180910390f35b6000807f000000000000000000000000000000000000000000000000000000000000000073ffffffffffffffffffffffffffffffffffffffff1663624a23e07f36209a57dfd79e3872ec3a0c88c653bbe7e32a12306e5e1f92f118c1936ae8b26040518263ffffffff1660e01b815260040161020291906110c0565b60206040518083038186803b15801561021a57600080fd5b505afa15801561022e573d6000803e3d6000fd5b505050506040513d601f19601f820116820180604052508101906102529190610df1565b90506000806000808473ffffffffffffffffffffffffffffffffffffffff1663a6640e4c886040518263ffffffff1660e01b81526004016102939190611136565b60806040518083038186803b1580156102ab57600080fd5b505afa1580156102bf573d6000803e3d6000fd5b505050506040513d601f19601f820116820180604052508101906102e39190610f38565b9350935093509350600160088111156102ff576102fe6111ea565b5b846008811115610312576103116111ea565b5b148061036457506002600881111561032d5761032c6111ea565b5b8460088111156103405761033f6111ea565b5b14801561034d5750428310155b80156103595750428211155b8015610363575080155b5b156103775760019550505050505061037d565b50505050505b919050565b60003373ffffffffffffffffffffffffffffffffffffffff16633c9747f36040518163ffffffff1660e01b815260040160206040518083038186803b1580156103ca57600080fd5b505afa1580156103de573d6000803e3d6000fd5b505050506040513d601f19601f820116820180604052508101906104029190610ecb565b905060007f000000000000000000000000000000000000000000000000000000000000000073ffffffffffffffffffffffffffffffffffffffff1663624a23e0836040518263ffffffff1660e01b815260040161045f91906110c0565b60206040518083038186803b15801561047757600080fd5b505afa15801561048b573d6000803e3d6000fd5b505050506040513d601f19601f820116820180604052508101906104af9190610df1565b90508073ffffffffffffffffffffffffffffffffffffffff163373ffffffffffffffffffffffffffffffffffffffff161461051f576040517f08c379a000000000000000000000000000000000000000000000000000000000815260040161051690611116565b60405180910390fd5b82600160003373ffffffffffffffffffffffffffffffffffffffff1673ffffffffffffffffffffffffffffffffffffffff168152602001908152602001600020600086815260200190815260200160002060006101000a81548173ffffffffffffffffffffffffffffffffffffffff021916908373ffffffffffffffffffffffffffffffffffffffff16021790555050505050565b7f000000000000000000000000000000000000000000000000000000000000000081565b6000600160008473ffffffffffffffffffffffffffffffffffffffff1673ffffffffffffffffffffffffffffffffffffffff168152602001908152602001600020600083815260200190815260200160002060009054906101000a900473ffffffffffffffffffffffffffffffffffffffff16905092915050565b60007f000000000000000000000000000000000000000000000000000000000000000073ffffffffffffffffffffffffffffffffffffffff1663624a23e07f346b2ab3a980432fd8f2e24828fc9f9ee2df1548701bc542f6ec17882b3276276040518263ffffffff1660e01b81526004016106ce91906110c0565b60206040518083038186803b1580156106e657600080fd5b505afa1580156106fa573d6000803e3d6000fd5b505050506040513d601f19601f8201168201806040525081019061071e9190610df1565b905060007f000000000000000000000000000000000000000000000000000000000000000073ffffffffffffffffffffffffffffffffffffffff1663624a23e07f36209a57dfd79e3872ec3a0c88c653bbe7e32a12306e5e1f92f118c1936ae8b26040518263ffffffff1660e01b815260040161079b91906110c0565b60206040518083038186803b1580156107b357600080fd5b505afa1580156107c7573d6000803e3d6000fd5b505050506040513d601f19601f820116820180604052508101906107eb9190610df1565b90506000806000808473ffffffffffffffffffffffffffffffffffffffff1663a6640e4c886040518263ffffffff1660e01b815260040161082c9190611136565b60806040518083038186803b15801561084457600080fd5b505afa158015610858573d6000803e3d6000fd5b505050506040513d601f19601f8201168201806040525081019061087c9190610f38565b9350935093509350428210158015610892575080155b6108d1576040517f08c379a00000000000000000000000000000000000000000000000000000000081526004016108c8906110f6565b60405180910390fd5b6000808773ffffffffffffffffffffffffffffffffffffffff1663e343409a8a6040518263ffffffff1660e01b815260040161090d9190611136565b604080518083038186803b15801561092457600080fd5b505afa158015610938573d6000803e3d6000fd5b505050506040513d601f19601f8201168201806040525081019061095c9190610e5e565b91509150816109d5578673ffffffffffffffffffffffffffffffffffffffff16637ef966e48a6040518263ffffffff1660e01b815260040161099e9190611136565b600060405180830381600087803b1580156109b857600080fd5b505af11580156109cc573d6000803e3d6000fd5b50505050610ab7565b80610a4a578673ffffffffffffffffffffffffffffffffffffffff1663f40507ac8a6040518263ffffffff1660e01b8152600401610a139190611136565b600060405180830381600087803b158015610a2d57600080fd5b505af1158015610a41573d6000803e3d6000fd5b50505050610ab6565b8673ffffffffffffffffffffffffffffffffffffffff1663cd39ebfd8a6040518263ffffffff1660e01b8152600401610a839190611136565b600060405180830381600087803b158015610a9d57600080fd5b505af1158015610ab1573d6000803e3d6000fd5b505050505b5b505050505050505050565b6000807f000000000000000000000000000000000000000000000000000000000000000073ffffffffffffffffffffffffffffffffffffffff1663624a23e07f36209a57dfd79e3872ec3a0c88c653bbe7e32a12306e5e1f92f118c1936ae8b26040518263ffffffff1660e01b8152600401610b3e91906110c0565b60206040518083038186803b158015610b5657600080fd5b505afa158015610b6a573d6000803e3d6000fd5b505050506040513d601f19601f82011682018060405250810190610b8e9190610df1565b905060008173ffffffffffffffffffffffffffffffffffffffff16639e34fa6a856040518263ffffffff1660e01b8152600401610bcb91906110c0565b60206040518083038186803b158015610be357600080fd5b505afa158015610bf7573d6000803e3d6000fd5b505050506040513d601f19601f82011682018060405250810190610c1b9190610fcc565b90506000811415610c3157600092505050610d20565b6000806000808573ffffffffffffffffffffffffffffffffffffffff1663a6640e4c866040518263ffffffff1660e01b8152600401610c709190611136565b60806040518083038186803b158015610c8857600080fd5b505afa158015610c9c573d6000803e3d6000fd5b505050506040513d601f19601f82011682018060405250810190610cc09190610f38565b935093509350935060066008811115610cdc57610cdb6111ea565b5b846008811115610cef57610cee6111ea565b5b148015610cfb57504282115b8015610d05575080155b15610d195760019650505050505050610d20565b5050505050505b919050565b7f000000000000000000000000000000000000000000000000000000000000000081565b600081359050610d5881611270565b92915050565b600081519050610d6d81611270565b92915050565b600081519050610d8281611287565b92915050565b600081359050610d978161129e565b92915050565b600081519050610dac8161129e565b92915050565b600081519050610dc1816112b5565b92915050565b600081359050610dd6816112c5565b92915050565b600081519050610deb816112c5565b92915050565b600060208284031215610e0757610e06611219565b5b6000610e1584828501610d5e565b91505092915050565b60008060408385031215610e3557610e34611219565b5b6000610e4385828601610d49565b9250506020610e5485828601610d88565b9150509250929050565b60008060408385031215610e7557610e74611219565b5b6000610e8385828601610d73565b9250506020610e9485828601610d73565b9150509250929050565b600060208284031215610eb457610eb3611219565b5b6000610ec284828501610d88565b91505092915050565b600060208284031215610ee157610ee0611219565b5b6000610eef84828501610d9d565b91505092915050565b60008060408385031215610f0f57610f0e611219565b5b6000610f1d85828601610d88565b9250506020610f2e85828601610d49565b9150509250929050565b60008060008060808587031215610f5257610f51611219565b5b6000610f6087828801610db2565b9450506020610f7187828801610ddc565b9350506040610f8287828801610ddc565b9250506060610f9387828801610d73565b91505092959194509250565b600060208284031215610fb557610fb4611219565b5b6000610fc384828501610dc7565b91505092915050565b600060208284031215610fe257610fe1611219565b5b6000610ff084828501610ddc565b91505092915050565b61100281611162565b82525050565b61101181611174565b82525050565b61102081611180565b82525050565b61102f816111b4565b82525050565b6000611042602083611151565b915061104d8261121e565b602082019050919050565b6000611065601b83611151565b915061107082611247565b602082019050919050565b611084816111aa565b82525050565b600060208201905061109f6000830184610ff9565b92915050565b60006020820190506110ba6000830184611008565b92915050565b60006020820190506110d56000830184611017565b92915050565b60006020820190506110f06000830184611026565b92915050565b6000602082019050818103600083015261110f81611035565b9050919050565b6000602082019050818103600083015261112f81611058565b9050919050565b600060208201905061114b600083018461107b565b92915050565b600082825260208201905092915050565b600061116d8261118a565b9050919050565b60008115159050919050565b6000819050919050565b600073ffffffffffffffffffffffffffffffffffffffff82169050919050565b6000819050919050565b60006111bf826111c6565b9050919050565b60006111d1826111d8565b9050919050565b60006111e38261118a565b9050919050565b7f4e487b7100000000000000000000000000000000000000000000000000000000600052602160045260246000fd5b600080fd5b7f436f6f72643a20766f74696e6720616374697665206f72206578656375746564600082015250565b7f436f6f72643a20496e636f727265637420494420666f72207375620000000000600082015250565b61127981611162565b811461128457600080fd5b50565b61129081611174565b811461129b57600080fd5b50565b6112a781611180565b81146112b257600080fd5b50565b600981106112c257600080fd5b50565b6112ce816111aa565b81146112d957600080fd5b5056fea2646970667358221220d54bb9228dad10ade25d89df271afd111f5ef3c09f2d5c492daa7fca239dec3864736f6c63430008070033",
  "linkReferences": {},
  "deployedLinkReferences": {}
}