{
  "_format": "hh-sol-artifact-1",
  "contractName": "Coordinator",
  "sourceName": "contracts/Coordinator.sol",
  "abi": [
    {
      "inputs": [
        {
          "internalType": "address",
          "name": "_core",
          "type": "address"
        },
        {
          "internalType": "address",
          "name": "_timer",
          "type": "address"
        }
      ],
      "stateMutability": "nonpayable",
      "type": "constructor"
    },
    {
      "inputs": [],
      "name": "IDENTIFIER",
      "outputs": [
        {
          "internalType": "bytes32",
          "name": "",
          "type": "bytes32"
        }
      ],
      "stateMutability": "view",
      "type": "function"
    },
    {
      "inputs": [
        {
          "internalType": "bytes32",
          "name": "_subIdentifier",
          "type": "bytes32"
        },
        {
          "internalType": "address",
          "name": "_subImplementation",
          "type": "address"
        }
      ],
      "name": "addSubSystem",
      "outputs": [],
      "stateMutability": "nonpayable",
      "type": "function"
    },
    {
      "inputs": [],
      "name": "core_",
      "outputs": [
        {
          "internalType": "contract ICore",
          "name": "",
          "type": "address"
        }
      ],
      "stateMutability": "view",
      "type": "function"
    },
    {
      "inputs": [],
      "name": "getCurrentTime",
      "outputs": [
        {
          "internalType": "uint256",
          "name": "",
          "type": "uint256"
        }
      ],
      "stateMutability": "view",
      "type": "function"
    },
    {
      "inputs": [
        {
          "internalType": "address",
          "name": "_system",
          "type": "address"
        },
        {
          "internalType": "bytes32",
          "name": "_subIdentifier",
          "type": "bytes32"
        }
      ],
      "name": "getSubSystem",
      "outputs": [
        {
          "internalType": "address",
          "name": "",
          "type": "address"
        }
      ],
      "stateMutability": "view",
      "type": "function"
    },
    {
      "inputs": [
        {
          "internalType": "bytes32",
          "name": "_exeID",
          "type": "bytes32"
        }
      ],
      "name": "isExecutable",
      "outputs": [
        {
          "internalType": "bool",
          "name": "",
          "type": "bool"
        }
      ],
      "stateMutability": "view",
      "type": "function"
    },
    {
      "inputs": [
        {
          "internalType": "uint256",
          "name": "_propID",
          "type": "uint256"
        }
      ],
      "name": "isVotable",
      "outputs": [
        {
          "internalType": "bool",
          "name": "",
          "type": "bool"
        }
      ],
      "stateMutability": "view",
      "type": "function"
    },
    {
      "inputs": [
        {
          "internalType": "uint256",
          "name": "_propID",
          "type": "uint256"
        }
      ],
      "name": "queueProposal",
      "outputs": [],
      "stateMutability": "nonpayable",
      "type": "function"
    },
    {
      "inputs": [
        {
          "internalType": "uint256",
          "name": "time",
          "type": "uint256"
        }
      ],
      "name": "setCurrentTime",
      "outputs": [],
      "stateMutability": "nonpayable",
      "type": "function"
    },
    {
      "inputs": [
        {
          "internalType": "bytes32",
          "name": "_exeID",
          "type": "bytes32"
        }
      ],
      "name": "setExecute",
      "outputs": [],
      "stateMutability": "nonpayable",
      "type": "function"
    },
    {
      "inputs": [],
      "name": "timerAddress",
      "outputs": [
        {
          "internalType": "address",
          "name": "",
          "type": "address"
        }
      ],
      "stateMutability": "view",
      "type": "function"
    },
    {
      "inputs": [
        {
          "internalType": "uint256",
          "name": "_propID",
          "type": "uint256"
        }
      ],
      "name": "voting",
      "outputs": [],
      "stateMutability": "nonpayable",
      "type": "function"
    }
  ],
  "bytecode": "0x60c06040523480156200001157600080fd5b506040516200221d3803806200221d83398181016040528101906200003791906200013f565b7fd578563424ab02f85ec03c6b1aee04947ebdd4a30db46cba3bcd7f56ef40b19982828033600060026101000a81548173ffffffffffffffffffffffffffffffffffffffff021916908373ffffffffffffffffffffffffffffffffffffffff16021790555080600160006101000a81548173ffffffffffffffffffffffffffffffffffffffff021916908373ffffffffffffffffffffffffffffffffffffffff1602179055505082608081815250508173ffffffffffffffffffffffffffffffffffffffff1660a08173ffffffffffffffffffffffffffffffffffffffff1660601b815250505050505050620001d9565b6000815190506200013981620001bf565b92915050565b60008060408385031215620001595762000158620001ba565b5b6000620001698582860162000128565b92505060206200017c8582860162000128565b9150509250929050565b600062000193826200019a565b9050919050565b600073ffffffffffffffffffffffffffffffffffffffff82169050919050565b600080fd5b620001ca8162000186565b8114620001d657600080fd5b50565b60805160a05160601c611fdc6200024160003960008181610364015281816106f401528181610941015281816109d101528181610cfb01528181610dc80152818161116b015281816113ce015281816113f401526114c1015260006108a20152611fdc6000f3fe608060405234801561001057600080fd5b50600436106100b45760003560e01c8063701370dc11610071578063701370dc1461017b5780637526bd9b146101ab57806394a14a34146101c75780639cf782cb146101e3578063eaddd0fd14610213578063fd4a77f114610231576100b4565b80631c39c38d146100b957806322f8e566146100d7578063299ba15f146100f357806329cb924d1461012357806338c68782146101415780633c9747f31461015d575b600080fd5b6100c161024d565b6040516100ce9190611be7565b60405180910390f35b6100f160048036038101906100ec9190611a4d565b610273565b005b61010d60048036038101906101089190611a4d565b61035f565b60405161011a9190611c02565b60405180910390f35b61012b610569565b6040516101389190611d33565b60405180910390f35b61015b600480360381019061015691906119a6565b61066e565b005b6101656108a0565b6040516101729190611c1d565b60405180910390f35b610195600480360381019061019091906118cc565b6108c4565b6040516101a29190611be7565b60405180910390f35b6101c560048036038101906101c0919061194c565b61093f565b005b6101e160048036038101906101dc9190611a4d565b610cf7565b005b6101fd60048036038101906101f8919061194c565b611166565b60405161020a9190611c02565b60405180910390f35b61021b6113cc565b6040516102289190611c38565b60405180910390f35b61024b60048036038101906102469190611a4d565b6113f0565b005b600160009054906101000a900473ffffffffffffffffffffffffffffffffffffffff1681565b600073ffffffffffffffffffffffffffffffffffffffff16600160009054906101000a900473ffffffffffffffffffffffffffffffffffffffff1673ffffffffffffffffffffffffffffffffffffffff1614156102cf57600080fd5b600160009054906101000a900473ffffffffffffffffffffffffffffffffffffffff1673ffffffffffffffffffffffffffffffffffffffff166322f8e566826040518263ffffffff1660e01b815260040161032a9190611d33565b600060405180830381600087803b15801561034457600080fd5b505af1158015610358573d6000803e3d6000fd5b5050505050565b6000807f000000000000000000000000000000000000000000000000000000000000000073ffffffffffffffffffffffffffffffffffffffff1663624a23e07f36209a57dfd79e3872ec3a0c88c653bbe7e32a12306e5e1f92f118c1936ae8b26040518263ffffffff1660e01b81526004016103db9190611c1d565b60206040518083038186803b1580156103f357600080fd5b505afa158015610407573d6000803e3d6000fd5b505050506040513d601f19601f8201168201806040525081019061042b919061189f565b90506000806000808473ffffffffffffffffffffffffffffffffffffffff1663a6640e4c886040518263ffffffff1660e01b815260040161046c9190611d33565b60806040518083038186803b15801561048457600080fd5b505afa158015610498573d6000803e3d6000fd5b505050506040513d601f19601f820116820180604052508101906104bc91906119e6565b9350935093509350600160068111156104d8576104d7611de7565b5b8460068111156104eb576104ea611de7565b5b148061051b57506002600681111561050657610505611de7565b5b84600681111561051957610518611de7565b5b145b801561052e575061052a610569565b8311155b8015610541575061053d610569565b8210155b801561054b575080155b1561055e57600195505050505050610564565b50505050505b919050565b60008073ffffffffffffffffffffffffffffffffffffffff16600160009054906101000a900473ffffffffffffffffffffffffffffffffffffffff1673ffffffffffffffffffffffffffffffffffffffff161461066757600160009054906101000a900473ffffffffffffffffffffffffffffffffffffffff1673ffffffffffffffffffffffffffffffffffffffff166329cb924d6040518163ffffffff1660e01b815260040160206040518083038186803b15801561062857600080fd5b505afa15801561063c573d6000803e3d6000fd5b505050506040513d601f19601f820116820180604052508101906106609190611a7a565b905061066b565b4290505b90565b60003373ffffffffffffffffffffffffffffffffffffffff16633c9747f36040518163ffffffff1660e01b815260040160206040518083038186803b1580156106b657600080fd5b505afa1580156106ca573d6000803e3d6000fd5b505050506040513d601f19601f820116820180604052508101906106ee9190611979565b905060007f000000000000000000000000000000000000000000000000000000000000000073ffffffffffffffffffffffffffffffffffffffff1663624a23e0836040518263ffffffff1660e01b815260040161074b9190611c1d565b60206040518083038186803b15801561076357600080fd5b505afa158015610777573d6000803e3d6000fd5b505050506040513d601f19601f8201168201806040525081019061079b919061189f565b90508073ffffffffffffffffffffffffffffffffffffffff163373ffffffffffffffffffffffffffffffffffffffff161461080b576040517f08c379a000000000000000000000000000000000000000000000000000000000815260040161080290611d13565b60405180910390fd5b82600260003373ffffffffffffffffffffffffffffffffffffffff1673ffffffffffffffffffffffffffffffffffffffff168152602001908152602001600020600086815260200190815260200160002060006101000a81548173ffffffffffffffffffffffffffffffffffffffff021916908373ffffffffffffffffffffffffffffffffffffffff16021790555050505050565b7f000000000000000000000000000000000000000000000000000000000000000081565b6000600260008473ffffffffffffffffffffffffffffffffffffffff1673ffffffffffffffffffffffffffffffffffffffff168152602001908152602001600020600083815260200190815260200160002060009054906101000a900473ffffffffffffffffffffffffffffffffffffffff16905092915050565b7f000000000000000000000000000000000000000000000000000000000000000073ffffffffffffffffffffffffffffffffffffffff163373ffffffffffffffffffffffffffffffffffffffff16146109cd576040517f08c379a00000000000000000000000000000000000000000000000000000000081526004016109c490611c73565b60405180910390fd5b60007f000000000000000000000000000000000000000000000000000000000000000073ffffffffffffffffffffffffffffffffffffffff1663624a23e07f36209a57dfd79e3872ec3a0c88c653bbe7e32a12306e5e1f92f118c1936ae8b26040518263ffffffff1660e01b8152600401610a489190611c1d565b60206040518083038186803b158015610a6057600080fd5b505afa158015610a74573d6000803e3d6000fd5b505050506040513d601f19601f82011682018060405250810190610a98919061189f565b905060008173ffffffffffffffffffffffffffffffffffffffff16639e34fa6a846040518263ffffffff1660e01b8152600401610ad59190611c1d565b60206040518083038186803b158015610aed57600080fd5b505afa158015610b01573d6000803e3d6000fd5b505050506040513d601f19601f82011682018060405250810190610b259190611a7a565b90506000811415610b6b576040517f08c379a0000000000000000000000000000000000000000000000000000000008152600401610b6290611cd3565b60405180910390fd5b60008060008473ffffffffffffffffffffffffffffffffffffffff1663a6640e4c856040518263ffffffff1660e01b8152600401610ba99190611d33565b60806040518083038186803b158015610bc157600080fd5b505afa158015610bd5573d6000803e3d6000fd5b505050506040513d601f19601f82011682018060405250810190610bf991906119e6565b9350935050925060036006811115610c1457610c13611de7565b5b836006811115610c2757610c26611de7565b5b148015610c3b5750610c37610569565b8211155b8015610c45575080155b610c84576040517f08c379a0000000000000000000000000000000000000000000000000000000008152600401610c7b90611c53565b60405180910390fd5b8473ffffffffffffffffffffffffffffffffffffffff1663b7abd803856040518263ffffffff1660e01b8152600401610cbd9190611d33565b600060405180830381600087803b158015610cd757600080fd5b505af1158015610ceb573d6000803e3d6000fd5b50505050505050505050565b60007f000000000000000000000000000000000000000000000000000000000000000073ffffffffffffffffffffffffffffffffffffffff1663624a23e07f346b2ab3a980432fd8f2e24828fc9f9ee2df1548701bc542f6ec17882b3276276040518263ffffffff1660e01b8152600401610d729190611c1d565b60206040518083038186803b158015610d8a57600080fd5b505afa158015610d9e573d6000803e3d6000fd5b505050506040513d601f19601f82011682018060405250810190610dc2919061189f565b905060007f000000000000000000000000000000000000000000000000000000000000000073ffffffffffffffffffffffffffffffffffffffff1663624a23e07f36209a57dfd79e3872ec3a0c88c653bbe7e32a12306e5e1f92f118c1936ae8b26040518263ffffffff1660e01b8152600401610e3f9190611c1d565b60206040518083038186803b158015610e5757600080fd5b505afa158015610e6b573d6000803e3d6000fd5b505050506040513d601f19601f82011682018060405250810190610e8f919061189f565b90506000808273ffffffffffffffffffffffffffffffffffffffff1663a6640e4c866040518263ffffffff1660e01b8152600401610ecd9190611d33565b60806040518083038186803b158015610ee557600080fd5b505afa158015610ef9573d6000803e3d6000fd5b505050506040513d601f19601f82011682018060405250810190610f1d91906119e6565b935093505050610f2b610569565b8210158015610f38575080155b610f77576040517f08c379a0000000000000000000000000000000000000000000000000000000008152600401610f6e90611cf3565b60405180910390fd5b6000808573ffffffffffffffffffffffffffffffffffffffff1663e343409a886040518263ffffffff1660e01b8152600401610fb39190611d33565b604080518083038186803b158015610fca57600080fd5b505afa158015610fde573d6000803e3d6000fd5b505050506040513d601f19601f82011682018060405250810190611002919061190c565b915091508161107b578473ffffffffffffffffffffffffffffffffffffffff16637ef966e4886040518263ffffffff1660e01b81526004016110449190611d33565b600060405180830381600087803b15801561105e57600080fd5b505af1158015611072573d6000803e3d6000fd5b5050505061115d565b806110f0578473ffffffffffffffffffffffffffffffffffffffff1663f40507ac886040518263ffffffff1660e01b81526004016110b99190611d33565b600060405180830381600087803b1580156110d357600080fd5b505af11580156110e7573d6000803e3d6000fd5b5050505061115c565b8473ffffffffffffffffffffffffffffffffffffffff1663cd39ebfd886040518263ffffffff1660e01b81526004016111299190611d33565b600060405180830381600087803b15801561114357600080fd5b505af1158015611157573d6000803e3d6000fd5b505050505b5b50505050505050565b6000807f000000000000000000000000000000000000000000000000000000000000000073ffffffffffffffffffffffffffffffffffffffff1663624a23e07f36209a57dfd79e3872ec3a0c88c653bbe7e32a12306e5e1f92f118c1936ae8b26040518263ffffffff1660e01b81526004016111e29190611c1d565b60206040518083038186803b1580156111fa57600080fd5b505afa15801561120e573d6000803e3d6000fd5b505050506040513d601f19601f82011682018060405250810190611232919061189f565b905060008173ffffffffffffffffffffffffffffffffffffffff16639e34fa6a856040518263ffffffff1660e01b815260040161126f9190611c1d565b60206040518083038186803b15801561128757600080fd5b505afa15801561129b573d6000803e3d6000fd5b505050506040513d601f19601f820116820180604052508101906112bf9190611a7a565b905060008114156112d5576000925050506113c7565b60008060008473ffffffffffffffffffffffffffffffffffffffff1663a6640e4c856040518263ffffffff1660e01b81526004016113139190611d33565b60806040518083038186803b15801561132b57600080fd5b505afa15801561133f573d6000803e3d6000fd5b505050506040513d601f19601f8201168201806040525081019061136391906119e6565b935093505092506003600681111561137e5761137d611de7565b5b83600681111561139157611390611de7565b5b1480156113a457506113a1610569565b82105b80156113ae575080155b156113c1576001955050505050506113c7565b50505050505b919050565b7f000000000000000000000000000000000000000000000000000000000000000081565b60007f000000000000000000000000000000000000000000000000000000000000000073ffffffffffffffffffffffffffffffffffffffff1663624a23e07f36209a57dfd79e3872ec3a0c88c653bbe7e32a12306e5e1f92f118c1936ae8b26040518263ffffffff1660e01b815260040161146b9190611c1d565b60206040518083038186803b15801561148357600080fd5b505afa158015611497573d6000803e3d6000fd5b505050506040513d601f19601f820116820180604052508101906114bb919061189f565b905060007f000000000000000000000000000000000000000000000000000000000000000073ffffffffffffffffffffffffffffffffffffffff1663624a23e07f346b2ab3a980432fd8f2e24828fc9f9ee2df1548701bc542f6ec17882b3276276040518263ffffffff1660e01b81526004016115389190611c1d565b60206040518083038186803b15801561155057600080fd5b505afa158015611564573d6000803e3d6000fd5b505050506040513d601f19601f82011682018060405250810190611588919061189f565b90506000806000808573ffffffffffffffffffffffffffffffffffffffff1663a6640e4c886040518263ffffffff1660e01b81526004016115c99190611d33565b60806040518083038186803b1580156115e157600080fd5b505afa1580156115f5573d6000803e3d6000fd5b505050506040513d601f19601f8201168201806040525081019061161991906119e6565b93509350935093508473ffffffffffffffffffffffffffffffffffffffff163373ffffffffffffffffffffffffffffffffffffffff161461168f576040517f08c379a000000000000000000000000000000000000000000000000000000000815260040161168690611c93565b60405180910390fd5b600160068111156116a3576116a2611de7565b5b8460068111156116b6576116b5611de7565b5b14806116e65750600260068111156116d1576116d0611de7565b5b8460068111156116e4576116e3611de7565b5b145b80156116f957506116f5610569565b8311155b801561170c5750611708610569565b8210155b8015611716575080155b611755576040517f08c379a000000000000000000000000000000000000000000000000000000000815260040161174c90611cb3565b60405180910390fd5b6001600681111561176957611768611de7565b5b84600681111561177c5761177b611de7565b5b14156117ee578573ffffffffffffffffffffffffffffffffffffffff166377e4b811886040518263ffffffff1660e01b81526004016117bb9190611d33565b600060405180830381600087803b1580156117d557600080fd5b505af11580156117e9573d6000803e3d6000fd5b505050505b50505050505050565b60008135905061180681611f3a565b92915050565b60008151905061181b81611f3a565b92915050565b60008151905061183081611f51565b92915050565b60008135905061184581611f68565b92915050565b60008151905061185a81611f68565b92915050565b60008151905061186f81611f7f565b92915050565b60008135905061188481611f8f565b92915050565b60008151905061189981611f8f565b92915050565b6000602082840312156118b5576118b4611e16565b5b60006118c38482850161180c565b91505092915050565b600080604083850312156118e3576118e2611e16565b5b60006118f1858286016117f7565b925050602061190285828601611836565b9150509250929050565b6000806040838503121561192357611922611e16565b5b600061193185828601611821565b925050602061194285828601611821565b9150509250929050565b60006020828403121561196257611961611e16565b5b600061197084828501611836565b91505092915050565b60006020828403121561198f5761198e611e16565b5b600061199d8482850161184b565b91505092915050565b600080604083850312156119bd576119bc611e16565b5b60006119cb85828601611836565b92505060206119dc858286016117f7565b9150509250929050565b60008060008060808587031215611a00576119ff611e16565b5b6000611a0e87828801611860565b9450506020611a1f8782880161188a565b9350506040611a308782880161188a565b9250506060611a4187828801611821565b91505092959194509250565b600060208284031215611a6357611a62611e16565b5b6000611a7184828501611875565b91505092915050565b600060208284031215611a9057611a8f611e16565b5b6000611a9e8482850161188a565b91505092915050565b611ab081611d5f565b82525050565b611abf81611d71565b82525050565b611ace81611d7d565b82525050565b611add81611db1565b82525050565b6000611af0601983611d4e565b9150611afb82611e1b565b602082019050919050565b6000611b13601c83611d4e565b9150611b1e82611e44565b602082019050919050565b6000611b36601a83611d4e565b9150611b4182611e6d565b602082019050919050565b6000611b59601783611d4e565b9150611b6482611e96565b602082019050919050565b6000611b7c601583611d4e565b9150611b8782611ebf565b602082019050919050565b6000611b9f602083611d4e565b9150611baa82611ee8565b602082019050919050565b6000611bc2601b83611d4e565b9150611bcd82611f11565b602082019050919050565b611be181611da7565b82525050565b6000602082019050611bfc6000830184611aa7565b92915050565b6000602082019050611c176000830184611ab6565b92915050565b6000602082019050611c326000830184611ac5565b92915050565b6000602082019050611c4d6000830184611ad4565b92915050565b60006020820190508181036000830152611c6c81611ae3565b9050919050565b60006020820190508181036000830152611c8c81611b06565b9050919050565b60006020820190508181036000830152611cac81611b29565b9050919050565b60006020820190508181036000830152611ccc81611b4c565b9050919050565b60006020820190508181036000830152611cec81611b6f565b9050919050565b60006020820190508181036000830152611d0c81611b92565b9050919050565b60006020820190508181036000830152611d2c81611bb5565b9050919050565b6000602082019050611d486000830184611bd8565b92915050565b600082825260208201905092915050565b6000611d6a82611d87565b9050919050565b60008115159050919050565b6000819050919050565b600073ffffffffffffffffffffffffffffffffffffffff82169050919050565b6000819050919050565b6000611dbc82611dc3565b9050919050565b6000611dce82611dd5565b9050919050565b6000611de082611d87565b9050919050565b7f4e487b7100000000000000000000000000000000000000000000000000000000600052602160045260246000fd5b600080fd5b7f436f6f72643a20657865206e6f742065786563757461626c6500000000000000600082015250565b7f53797374656d3a204f6e6c7920636f72652063616e206d6f6469667900000000600082015250565b7f436f6f72643a204f6e6c7920626f6f74682063616e2063616c6c000000000000600082015250565b7f436f6f72643a2070726f70206e6f7420766f7461626c65000000000000000000600082015250565b7f436f6f72643a204e6f206c696e6b65642070726f700000000000000000000000600082015250565b7f436f6f72643a20766f74696e6720616374697665206f72206578656375746564600082015250565b7f436f6f72643a20496e636f727265637420494420666f72207375620000000000600082015250565b611f4381611d5f565b8114611f4e57600080fd5b50565b611f5a81611d71565b8114611f6557600080fd5b50565b611f7181611d7d565b8114611f7c57600080fd5b50565b60078110611f8c57600080fd5b50565b611f9881611da7565b8114611fa357600080fd5b5056fea26469706673582212200dc7f139816361f43c176e2b93ce76597e4d0281c9ef0f600267422a90019bb664736f6c63430008070033",
  "linkReferences": {},
  "deployedLinkReferences": {}
}