{
  "_format": "hh-sol-artifact-1",
  "contractName": "VotingBooth",
  "sourceName": "contracts/VotingBooth.sol",
  "abi": [
    {
      "inputs": [
        {
          "internalType": "uint256",
          "name": "_propID",
          "type": "uint256"
        },
        {
          "internalType": "bytes32",
          "name": "_vote",
          "type": "bytes32"
        }
      ],
      "name": "vote",
      "outputs": [
        {
          "internalType": "bool",
          "name": "",
          "type": "bool"
        }
      ],
      "stateMutability": "nonpayable",
      "type": "function"
    }
  ],
  "bytecode": "0x608060405234801561001057600080fd5b50610189806100206000396000f3fe608060405234801561001057600080fd5b506004361061002b5760003560e01c806368bb8bb614610030575b600080fd5b61004a60048036038101906100459190610096565b610060565b60405161005791906100e5565b60405180910390f35b60006001905092915050565b60008135905061007b81610125565b92915050565b6000813590506100908161013c565b92915050565b600080604083850312156100ad576100ac610120565b5b60006100bb85828601610081565b92505060206100cc8582860161006c565b9150509250929050565b6100df81610100565b82525050565b60006020820190506100fa60008301846100d6565b92915050565b60008115159050919050565b6000819050919050565b6000819050919050565b600080fd5b61012e8161010c565b811461013957600080fd5b50565b61014581610116565b811461015057600080fd5b5056fea264697066735822122093f4f1820406cf5d569f54e99ebf3b8b2a440d2be2e4732ce7f29451fa200e5064736f6c63430008070033",
  "linkReferences": {},
  "deployedLinkReferences": {}
}