{
  "_format": "hh-sol-artifact-1",
  "contractName": "VotingBooth",
  "sourceName": "contracts/VotingBooth.sol",
  "abi": [
    {
      "inputs": [
        {
          "internalType": "address",
          "name": "_core",
          "type": "address"
        },
        {
          "internalType": "address",
          "name": "_timer",
          "type": "address"
        }
      ],
      "stateMutability": "nonpayable",
      "type": "constructor"
    },
    {
      "anonymous": false,
      "inputs": [
        {
          "indexed": true,
          "internalType": "address",
          "name": "voter",
          "type": "address"
        },
        {
          "indexed": true,
          "internalType": "uint256",
          "name": "propID",
          "type": "uint256"
        },
        {
          "indexed": false,
          "internalType": "bytes",
          "name": "vote",
          "type": "bytes"
        }
      ],
      "name": "VoteCast",
      "type": "event"
    },
    {
      "inputs": [],
      "name": "IDENTIFIER",
      "outputs": [
        {
          "internalType": "bytes32",
          "name": "",
          "type": "bytes32"
        }
      ],
      "stateMutability": "view",
      "type": "function"
    },
    {
      "inputs": [
        {
          "internalType": "bytes32",
          "name": "_voteType",
          "type": "bytes32"
        },
        {
          "internalType": "address",
          "name": "_instance",
          "type": "address"
        },
        {
          "internalType": "string",
          "name": "_voteFormat",
          "type": "string"
        }
      ],
      "name": "addVoteType",
      "outputs": [],
      "stateMutability": "nonpayable",
      "type": "function"
    },
    {
      "inputs": [
        {
          "internalType": "uint256",
          "name": "_propID",
          "type": "uint256"
        }
      ],
      "name": "consensusReached",
      "outputs": [
        {
          "internalType": "bool",
          "name": "reached",
          "type": "bool"
        },
        {
          "internalType": "bool",
          "name": "votePassed",
          "type": "bool"
        }
      ],
      "stateMutability": "view",
      "type": "function"
    },
    {
      "inputs": [],
      "name": "core_",
      "outputs": [
        {
          "internalType": "contract ICore",
          "name": "",
          "type": "address"
        }
      ],
      "stateMutability": "view",
      "type": "function"
    },
    {
      "inputs": [],
      "name": "getCurrentTime",
      "outputs": [
        {
          "internalType": "uint256",
          "name": "",
          "type": "uint256"
        }
      ],
      "stateMutability": "view",
      "type": "function"
    },
    {
      "inputs": [
        {
          "internalType": "address",
          "name": "_instance",
          "type": "address"
        }
      ],
      "name": "getVoteType",
      "outputs": [
        {
          "internalType": "bytes32",
          "name": "",
          "type": "bytes32"
        }
      ],
      "stateMutability": "view",
      "type": "function"
    },
    {
      "inputs": [
        {
          "internalType": "address",
          "name": "_initialVoteInstance",
          "type": "address"
        },
        {
          "internalType": "bytes32",
          "name": "_initialVoteType",
          "type": "bytes32"
        },
        {
          "internalType": "string",
          "name": "_voteFormat",
          "type": "string"
        }
      ],
      "name": "initialise",
      "outputs": [],
      "stateMutability": "nonpayable",
      "type": "function"
    },
    {
      "inputs": [
        {
          "internalType": "uint256",
          "name": "time",
          "type": "uint256"
        }
      ],
      "name": "setCurrentTime",
      "outputs": [],
      "stateMutability": "nonpayable",
      "type": "function"
    },
    {
      "inputs": [],
      "name": "timerAddress",
      "outputs": [
        {
          "internalType": "address",
          "name": "",
          "type": "address"
        }
      ],
      "stateMutability": "view",
      "type": "function"
    },
    {
      "inputs": [
        {
          "internalType": "uint256",
          "name": "_propID",
          "type": "uint256"
        },
        {
          "internalType": "bytes",
          "name": "_vote",
          "type": "bytes"
        }
      ],
      "name": "vote",
      "outputs": [],
      "stateMutability": "nonpayable",
      "type": "function"
    }
  ],
  "bytecode": "0x60c06040523480156200001157600080fd5b5060405162001d1e38038062001d1e83398181016040528101906200003791906200013f565b7f346b2ab3a980432fd8f2e24828fc9f9ee2df1548701bc542f6ec17882b32762782828033600060026101000a81548173ffffffffffffffffffffffffffffffffffffffff021916908373ffffffffffffffffffffffffffffffffffffffff16021790555080600160006101000a81548173ffffffffffffffffffffffffffffffffffffffff021916908373ffffffffffffffffffffffffffffffffffffffff1602179055505082608081815250508173ffffffffffffffffffffffffffffffffffffffff1660a08173ffffffffffffffffffffffffffffffffffffffff1660601b815250505050505050620001d9565b6000815190506200013981620001bf565b92915050565b60008060408385031215620001595762000158620001ba565b5b6000620001698582860162000128565b92505060206200017c8582860162000128565b9150509250929050565b600062000193826200019a565b9050919050565b600073ffffffffffffffffffffffffffffffffffffffff82169050919050565b600080fd5b620001ca8162000186565b8114620001d657600080fd5b50565b60805160a05160601c611af962000225600039600081816105ee015281816106bb01528181610ace01528181610b7101528181610d5b0152610dff015260006104050152611af96000f3fe608060405234801561001057600080fd5b506004361061009e5760003560e01c80636e3ce913116100665780636e3ce91314610149578063b88b82ba14610165578063cbba4b7f14610181578063e343409a1461019d578063eaddd0fd146101ce5761009e565b80631c39c38d146100a357806322f8e566146100c157806329cb924d146100dd5780633c9747f3146100fb57806369e0a1f714610119575b600080fd5b6100ab6101ec565b6040516100b8919061152f565b60405180910390f35b6100db60048036038101906100d69190611323565b610212565b005b6100e56102fe565b6040516100f291906116b4565b60405180910390f35b610103610403565b6040516101109190611573565b60405180910390f35b610133600480360381019061012e9190611151565b610427565b6040516101409190611573565b60405180910390f35b610163600480360381019061015e91906111ab565b610473565b005b61017f600480360381019061017a919061137d565b6105ea565b005b61019b600480360381019061019691906112b4565b610acc565b005b6101b760048036038101906101b29190611323565b610b6a565b6040516101c592919061154a565b60405180910390f35b6101d6610d59565b6040516101e391906115d9565b60405180910390f35b600160009054906101000a900473ffffffffffffffffffffffffffffffffffffffff1681565b600073ffffffffffffffffffffffffffffffffffffffff16600160009054906101000a900473ffffffffffffffffffffffffffffffffffffffff1673ffffffffffffffffffffffffffffffffffffffff16141561026e57600080fd5b600160009054906101000a900473ffffffffffffffffffffffffffffffffffffffff1673ffffffffffffffffffffffffffffffffffffffff166322f8e566826040518263ffffffff1660e01b81526004016102c991906116b4565b600060405180830381600087803b1580156102e357600080fd5b505af11580156102f7573d6000803e3d6000fd5b5050505050565b60008073ffffffffffffffffffffffffffffffffffffffff16600160009054906101000a900473ffffffffffffffffffffffffffffffffffffffff1673ffffffffffffffffffffffffffffffffffffffff16146103fc57600160009054906101000a900473ffffffffffffffffffffffffffffffffffffffff1673ffffffffffffffffffffffffffffffffffffffff166329cb924d6040518163ffffffff1660e01b815260040160206040518083038186803b1580156103bd57600080fd5b505afa1580156103d1573d6000803e3d6000fd5b505050506040513d601f19601f820116820180604052508101906103f59190611350565b9050610400565b4290505b90565b7f000000000000000000000000000000000000000000000000000000000000000081565b6000600260008373ffffffffffffffffffffffffffffffffffffffff1673ffffffffffffffffffffffffffffffffffffffff168152602001908152602001600020600001549050919050565b600060019054906101000a900460ff1680610499575060008054906101000a900460ff16155b6104d8576040517f08c379a00000000000000000000000000000000000000000000000000000000081526004016104cf90611654565b60405180910390fd5b600060029054906101000a900473ffffffffffffffffffffffffffffffffffffffff1673ffffffffffffffffffffffffffffffffffffffff163373ffffffffffffffffffffffffffffffffffffffff1614610568576040517f08c379a000000000000000000000000000000000000000000000000000000000815260040161055f906115f4565b60405180910390fd5b60008060019054906101000a900460ff1615905080156105b8576001600060016101000a81548160ff02191690831515021790555060016000806101000a81548160ff0219169083151502179055505b6105c3838584610d7d565b80156105e45760008060016101000a81548160ff0219169083151502179055505b50505050565b60007f000000000000000000000000000000000000000000000000000000000000000073ffffffffffffffffffffffffffffffffffffffff1663624a23e07fd578563424ab02f85ec03c6b1aee04947ebdd4a30db46cba3bcd7f56ef40b1996040518263ffffffff1660e01b81526004016106659190611573565b60206040518083038186803b15801561067d57600080fd5b505afa158015610691573d6000803e3d6000fd5b505050506040513d601f19601f820116820180604052508101906106b5919061117e565b905060007f000000000000000000000000000000000000000000000000000000000000000073ffffffffffffffffffffffffffffffffffffffff1663624a23e07f36209a57dfd79e3872ec3a0c88c653bbe7e32a12306e5e1f92f118c1936ae8b26040518263ffffffff1660e01b81526004016107329190611573565b60206040518083038186803b15801561074a57600080fd5b505afa15801561075e573d6000803e3d6000fd5b505050506040513d601f19601f82011682018060405250810190610782919061117e565b905060008173ffffffffffffffffffffffffffffffffffffffff166262104a866040518263ffffffff1660e01b81526004016107be91906116b4565b60206040518083038186803b1580156107d657600080fd5b505afa1580156107ea573d6000803e3d6000fd5b505050506040513d601f19601f8201168201806040525081019061080e919061117e565b90506000801b3073ffffffffffffffffffffffffffffffffffffffff166369e0a1f7836040518263ffffffff1660e01b815260040161084d919061152f565b60206040518083038186803b15801561086557600080fd5b505afa158015610879573d6000803e3d6000fd5b505050506040513d601f19601f8201168201806040525081019061089d9190611287565b14156108de576040517f08c379a00000000000000000000000000000000000000000000000000000000081526004016108d590611694565b60405180910390fd5b8273ffffffffffffffffffffffffffffffffffffffff1663fd4a77f1866040518263ffffffff1660e01b815260040161091791906116b4565b602060405180830381600087803b15801561093157600080fd5b505af1158015610945573d6000803e3d6000fd5b505050506040513d601f19601f82011682018060405250810190610969919061121a565b6109a8576040517f08c379a000000000000000000000000000000000000000000000000000000000815260040161099f90611634565b60405180910390fd5b843373ffffffffffffffffffffffffffffffffffffffff167f71a29581f391d0ca96684c69771724a921678b572e21378712be03e8da07e2ca866040516109ef91906115b7565b60405180910390a38073ffffffffffffffffffffffffffffffffffffffff1663f636a0538686336040518463ffffffff1660e01b8152600401610a34939291906116cf565b602060405180830381600087803b158015610a4e57600080fd5b505af1158015610a62573d6000803e3d6000fd5b505050506040513d601f19601f82011682018060405250810190610a86919061121a565b610ac5576040517f08c379a0000000000000000000000000000000000000000000000000000000008152600401610abc90611674565b60405180910390fd5b5050505050565b7f000000000000000000000000000000000000000000000000000000000000000073ffffffffffffffffffffffffffffffffffffffff163373ffffffffffffffffffffffffffffffffffffffff1614610b5a576040517f08c379a0000000000000000000000000000000000000000000000000000000008152600401610b5190611614565b60405180910390fd5b610b65838383610d7d565b505050565b60008060007f000000000000000000000000000000000000000000000000000000000000000073ffffffffffffffffffffffffffffffffffffffff1663624a23e07f36209a57dfd79e3872ec3a0c88c653bbe7e32a12306e5e1f92f118c1936ae8b26040518263ffffffff1660e01b8152600401610be89190611573565b60206040518083038186803b158015610c0057600080fd5b505afa158015610c14573d6000803e3d6000fd5b505050506040513d601f19601f82011682018060405250810190610c38919061117e565b905060008173ffffffffffffffffffffffffffffffffffffffff166262104a866040518263ffffffff1660e01b8152600401610c7491906116b4565b60206040518083038186803b158015610c8c57600080fd5b505afa158015610ca0573d6000803e3d6000fd5b505050506040513d601f19601f82011682018060405250810190610cc4919061117e565b90508073ffffffffffffffffffffffffffffffffffffffff1663e343409a866040518263ffffffff1660e01b8152600401610cff91906116b4565b604080518083038186803b158015610d1657600080fd5b505afa158015610d2a573d6000803e3d6000fd5b505050506040513d601f19601f82011682018060405250810190610d4e9190611247565b935093505050915091565b7f000000000000000000000000000000000000000000000000000000000000000081565b604051806040016040528084815260200182815250600260008473ffffffffffffffffffffffffffffffffffffffff1673ffffffffffffffffffffffffffffffffffffffff168152602001908152602001600020600082015181600001556020820151816001019080519060200190610df7929190610f3b565b5090505060007f000000000000000000000000000000000000000000000000000000000000000073ffffffffffffffffffffffffffffffffffffffff1663624a23e07fd578563424ab02f85ec03c6b1aee04947ebdd4a30db46cba3bcd7f56ef40b1996040518263ffffffff1660e01b8152600401610e769190611573565b60206040518083038186803b158015610e8e57600080fd5b505afa158015610ea2573d6000803e3d6000fd5b505050506040513d601f19601f82011682018060405250810190610ec6919061117e565b90508073ffffffffffffffffffffffffffffffffffffffff166338c6878285856040518363ffffffff1660e01b8152600401610f0392919061158e565b600060405180830381600087803b158015610f1d57600080fd5b505af1158015610f31573d6000803e3d6000fd5b5050505050505050565b828054610f479061188b565b90600052602060002090601f016020900481019282610f695760008555610fb0565b82601f10610f8257805160ff1916838001178555610fb0565b82800160010185558215610fb0579182015b82811115610faf578251825591602001919060010190610f94565b5b509050610fbd9190610fc1565b5090565b5b80821115610fda576000816000905550600101610fc2565b5090565b6000610ff1610fec84611732565b61170d565b90508281526020810184848401111561100d5761100c611951565b5b611018848285611849565b509392505050565b600061103361102e84611763565b61170d565b90508281526020810184848401111561104f5761104e611951565b5b61105a848285611849565b509392505050565b60008135905061107181611a67565b92915050565b60008151905061108681611a67565b92915050565b60008151905061109b81611a7e565b92915050565b6000813590506110b081611a95565b92915050565b6000815190506110c581611a95565b92915050565b600082601f8301126110e0576110df61194c565b5b81356110f0848260208601610fde565b91505092915050565b600082601f83011261110e5761110d61194c565b5b813561111e848260208601611020565b91505092915050565b60008135905061113681611aac565b92915050565b60008151905061114b81611aac565b92915050565b6000602082840312156111675761116661195b565b5b600061117584828501611062565b91505092915050565b6000602082840312156111945761119361195b565b5b60006111a284828501611077565b91505092915050565b6000806000606084860312156111c4576111c361195b565b5b60006111d286828701611062565b93505060206111e3868287016110a1565b925050604084013567ffffffffffffffff81111561120457611203611956565b5b611210868287016110f9565b9150509250925092565b6000602082840312156112305761122f61195b565b5b600061123e8482850161108c565b91505092915050565b6000806040838503121561125e5761125d61195b565b5b600061126c8582860161108c565b925050602061127d8582860161108c565b9150509250929050565b60006020828403121561129d5761129c61195b565b5b60006112ab848285016110b6565b91505092915050565b6000806000606084860312156112cd576112cc61195b565b5b60006112db868287016110a1565b93505060206112ec86828701611062565b925050604084013567ffffffffffffffff81111561130d5761130c611956565b5b611319868287016110f9565b9150509250925092565b6000602082840312156113395761133861195b565b5b600061134784828501611127565b91505092915050565b6000602082840312156113665761136561195b565b5b60006113748482850161113c565b91505092915050565b600080604083850312156113945761139361195b565b5b60006113a285828601611127565b925050602083013567ffffffffffffffff8111156113c3576113c2611956565b5b6113cf858286016110cb565b9150509250929050565b6113e2816117c1565b82525050565b6113f1816117d3565b82525050565b611400816117df565b82525050565b600061141182611794565b61141b818561179f565b935061142b818560208601611858565b61143481611960565b840191505092915050565b61144881611813565b82525050565b600061145b601c836117b0565b915061146682611971565b602082019050919050565b600061147e601c836117b0565b91506114898261199a565b602082019050919050565b60006114a1601e836117b0565b91506114ac826119c3565b602082019050919050565b60006114c4601d836117b0565b91506114cf826119ec565b602082019050919050565b60006114e76012836117b0565b91506114f282611a15565b602082019050919050565b600061150a6018836117b0565b915061151582611a3e565b602082019050919050565b61152981611809565b82525050565b600060208201905061154460008301846113d9565b92915050565b600060408201905061155f60008301856113e8565b61156c60208301846113e8565b9392505050565b600060208201905061158860008301846113f7565b92915050565b60006040820190506115a360008301856113f7565b6115b060208301846113d9565b9392505050565b600060208201905081810360008301526115d18184611406565b905092915050565b60006020820190506115ee600083018461143f565b92915050565b6000602082019050818103600083015261160d8161144e565b9050919050565b6000602082019050818103600083015261162d81611471565b9050919050565b6000602082019050818103600083015261164d81611494565b9050919050565b6000602082019050818103600083015261166d816114b7565b9050919050565b6000602082019050818103600083015261168d816114da565b9050919050565b600060208201905081810360008301526116ad816114fd565b9050919050565b60006020820190506116c96000830184611520565b92915050565b60006060820190506116e46000830186611520565b81810360208301526116f68185611406565b905061170560408301846113d9565b949350505050565b6000611717611728565b905061172382826118bd565b919050565b6000604051905090565b600067ffffffffffffffff82111561174d5761174c61191d565b5b61175682611960565b9050602081019050919050565b600067ffffffffffffffff82111561177e5761177d61191d565b5b61178782611960565b9050602081019050919050565b600081519050919050565b600082825260208201905092915050565b600082825260208201905092915050565b60006117cc826117e9565b9050919050565b60008115159050919050565b6000819050919050565b600073ffffffffffffffffffffffffffffffffffffffff82169050919050565b6000819050919050565b600061181e82611825565b9050919050565b600061183082611837565b9050919050565b6000611842826117e9565b9050919050565b82818337600083830152505050565b60005b8381101561187657808201518184015260208101905061185b565b83811115611885576000848401525b50505050565b600060028204905060018216806118a357607f821691505b602082108114156118b7576118b66118ee565b5b50919050565b6118c682611960565b810181811067ffffffffffffffff821117156118e5576118e461191d565b5b80604052505050565b7f4e487b7100000000000000000000000000000000000000000000000000000000600052602260045260246000fd5b7f4e487b7100000000000000000000000000000000000000000000000000000000600052604160045260246000fd5b600080fd5b600080fd5b600080fd5b600080fd5b6000601f19601f8301169050919050565b7f496e69743a204f6e6c79206465706c6f7965722063616e20696e697400000000600082015250565b7f53797374656d3a204f6e6c7920636f72652063616e206d6f6469667900000000600082015250565b7f426f6f74683a2050726f706f73616c206973206e6f7420766f7461626c650000600082015250565b7f496e69743a20436f6e747261637420697320696e697469616c697a6564000000600082015250565b7f426f6f74683a20566f7465206661696c65640000000000000000000000000000600082015250565b7f426f6f74683a20496e76616c696420766f746520747970650000000000000000600082015250565b611a70816117c1565b8114611a7b57600080fd5b50565b611a87816117d3565b8114611a9257600080fd5b50565b611a9e816117df565b8114611aa957600080fd5b50565b611ab581611809565b8114611ac057600080fd5b5056fea26469706673582212203173124fb412f48b4e17bee02bdd314a2856d41b4d2d9f00dd7fe501f770f14c64736f6c63430008070033",
  "linkReferences": {},
  "deployedLinkReferences": {}
}