{
  "_format": "hh-sol-artifact-1",
  "contractName": "VotingBooth",
  "sourceName": "contracts/VotingBooth.sol",
  "abi": [
    {
      "inputs": [
        {
          "internalType": "address",
          "name": "_core",
          "type": "address"
        }
      ],
      "stateMutability": "nonpayable",
      "type": "constructor"
    },
    {
      "inputs": [],
      "name": "IDENTIFIER",
      "outputs": [
        {
          "internalType": "bytes32",
          "name": "",
          "type": "bytes32"
        }
      ],
      "stateMutability": "view",
      "type": "function"
    },
    {
      "inputs": [],
      "name": "core_",
      "outputs": [
        {
          "internalType": "contract ICore",
          "name": "",
          "type": "address"
        }
      ],
      "stateMutability": "view",
      "type": "function"
    },
    {
      "inputs": [
        {
          "internalType": "uint256",
          "name": "_propID",
          "type": "uint256"
        },
        {
          "internalType": "bytes32",
          "name": "_vote",
          "type": "bytes32"
        }
      ],
      "name": "vote",
      "outputs": [
        {
          "internalType": "bool",
          "name": "",
          "type": "bool"
        }
      ],
      "stateMutability": "nonpayable",
      "type": "function"
    }
  ],
  "bytecode": "0x60c060405234801561001057600080fd5b5060405161041e38038061041e833981810160405281019061003291906100b0565b7f346b2ab3a980432fd8f2e24828fc9f9ee2df1548701bc542f6ec17882b3276278181608081815250508073ffffffffffffffffffffffffffffffffffffffff1660a08173ffffffffffffffffffffffffffffffffffffffff1660601b8152505050505061012b565b6000815190506100aa81610114565b92915050565b6000602082840312156100c6576100c561010f565b5b60006100d48482850161009b565b91505092915050565b60006100e8826100ef565b9050919050565b600073ffffffffffffffffffffffffffffffffffffffff82169050919050565b600080fd5b61011d816100dd565b811461012857600080fd5b50565b60805160a05160601c6102cd610151600039600060e40152600060b401526102cd6000f3fe608060405234801561001057600080fd5b50600436106100415760003560e01c80633c9747f31461004657806368bb8bb614610064578063eaddd0fd14610094575b600080fd5b61004e6100b2565b60405161005b91906101b8565b60405180910390f35b61007e60048036038101906100799190610130565b6100d6565b60405161008b919061019d565b60405180910390f35b61009c6100e2565b6040516100a991906101d3565b60405180910390f35b7f000000000000000000000000000000000000000000000000000000000000000081565b60006001905092915050565b7f000000000000000000000000000000000000000000000000000000000000000081565b60008135905061011581610269565b92915050565b60008135905061012a81610280565b92915050565b6000806040838503121561014757610146610264565b5b60006101558582860161011b565b925050602061016685828601610106565b9150509250929050565b610179816101ee565b82525050565b610188816101fa565b82525050565b6101978161022e565b82525050565b60006020820190506101b26000830184610170565b92915050565b60006020820190506101cd600083018461017f565b92915050565b60006020820190506101e8600083018461018e565b92915050565b60008115159050919050565b6000819050919050565b600073ffffffffffffffffffffffffffffffffffffffff82169050919050565b6000819050919050565b600061023982610240565b9050919050565b600061024b82610252565b9050919050565b600061025d82610204565b9050919050565b600080fd5b610272816101fa565b811461027d57600080fd5b50565b61028981610224565b811461029457600080fd5b5056fea2646970667358221220a807e691e4a585fc367a644ddc7d4b6b866f06d3b1433dca0fdb87cec69637d664736f6c63430008070033",
  "linkReferences": {},
  "deployedLinkReferences": {}
}