{
  "_format": "hh-sol-artifact-1",
  "contractName": "VotingBooth",
  "sourceName": "contracts/VotingBooth.sol",
  "abi": [
    {
      "inputs": [
        {
          "internalType": "address",
          "name": "_core",
          "type": "address"
        }
      ],
      "stateMutability": "nonpayable",
      "type": "constructor"
    },
    {
      "anonymous": false,
      "inputs": [
        {
          "indexed": true,
          "internalType": "address",
          "name": "voter",
          "type": "address"
        },
        {
          "indexed": true,
          "internalType": "uint256",
          "name": "propID",
          "type": "uint256"
        },
        {
          "indexed": false,
          "internalType": "bytes",
          "name": "vote",
          "type": "bytes"
        }
      ],
      "name": "VoteCast",
      "type": "event"
    },
    {
      "inputs": [],
      "name": "IDENTIFIER",
      "outputs": [
        {
          "internalType": "bytes32",
          "name": "",
          "type": "bytes32"
        }
      ],
      "stateMutability": "view",
      "type": "function"
    },
    {
      "inputs": [
        {
          "internalType": "bytes32",
          "name": "_voteType",
          "type": "bytes32"
        },
        {
          "internalType": "address",
          "name": "_instance",
          "type": "address"
        },
        {
          "internalType": "string",
          "name": "_voteFormat",
          "type": "string"
        }
      ],
      "name": "addVoteType",
      "outputs": [],
      "stateMutability": "nonpayable",
      "type": "function"
    },
    {
      "inputs": [],
      "name": "core_",
      "outputs": [
        {
          "internalType": "contract ICore",
          "name": "",
          "type": "address"
        }
      ],
      "stateMutability": "view",
      "type": "function"
    },
    {
      "inputs": [
        {
          "internalType": "address",
          "name": "_instance",
          "type": "address"
        }
      ],
      "name": "getVoteType",
      "outputs": [
        {
          "internalType": "bytes32",
          "name": "",
          "type": "bytes32"
        }
      ],
      "stateMutability": "view",
      "type": "function"
    },
    {
      "inputs": [
        {
          "internalType": "address",
          "name": "_initialVoteInstance",
          "type": "address"
        },
        {
          "internalType": "bytes32",
          "name": "_initialVoteType",
          "type": "bytes32"
        },
        {
          "internalType": "string",
          "name": "_voteFormat",
          "type": "string"
        }
      ],
      "name": "initialise",
      "outputs": [],
      "stateMutability": "nonpayable",
      "type": "function"
    },
    {
      "inputs": [
        {
          "internalType": "uint256",
          "name": "_propID",
          "type": "uint256"
        },
        {
          "internalType": "bytes",
          "name": "_vote",
          "type": "bytes"
        }
      ],
      "name": "vote",
      "outputs": [
        {
          "internalType": "bool",
          "name": "",
          "type": "bool"
        }
      ],
      "stateMutability": "nonpayable",
      "type": "function"
    }
  ],
  "bytecode": "0x60c06040523480156200001157600080fd5b5060405162001497380380620014978339818101604052810190620000379190620000f9565b7f346b2ab3a980432fd8f2e24828fc9f9ee2df1548701bc542f6ec17882b3276278133600060026101000a81548173ffffffffffffffffffffffffffffffffffffffff021916908373ffffffffffffffffffffffffffffffffffffffff16021790555081608081815250508073ffffffffffffffffffffffffffffffffffffffff1660a08173ffffffffffffffffffffffffffffffffffffffff1660601b815250505050506200017e565b600081519050620000f38162000164565b92915050565b6000602082840312156200011257620001116200015f565b5b60006200012284828501620000e2565b91505092915050565b600062000138826200013f565b9050919050565b600073ffffffffffffffffffffffffffffffffffffffff82169050919050565b600080fd5b6200016f816200012b565b81146200017b57600080fd5b50565b60805160a05160601c6112db620001bc6000396000818161032701528181610634015281816106d201526107760152600061013d01526112db6000f3fe608060405234801561001057600080fd5b50600436106100625760003560e01c80633c9747f31461006757806369e0a1f7146100855780636e3ce913146100b5578063b88b82ba146100d1578063cbba4b7f14610101578063eaddd0fd1461011d575b600080fd5b61006f61013b565b60405161007c9190610de7565b60405180910390f35b61009f600480360381019061009a9190610ab3565b61015f565b6040516100ac9190610de7565b60405180910390f35b6100cf60048036038101906100ca9190610b0d565b6101ab565b005b6100eb60048036038101906100e69190610c45565b610322565b6040516100f89190610dcc565b60405180910390f35b61011b60048036038101906101169190610bd6565b610632565b005b6101256106d0565b6040516101329190610e4d565b60405180910390f35b7f000000000000000000000000000000000000000000000000000000000000000081565b6000600160008373ffffffffffffffffffffffffffffffffffffffff1673ffffffffffffffffffffffffffffffffffffffff168152602001908152602001600020600001549050919050565b600060019054906101000a900460ff16806101d1575060008054906101000a900460ff16155b610210576040517f08c379a000000000000000000000000000000000000000000000000000000000815260040161020790610ea8565b60405180910390fd5b600060029054906101000a900473ffffffffffffffffffffffffffffffffffffffff1673ffffffffffffffffffffffffffffffffffffffff163373ffffffffffffffffffffffffffffffffffffffff16146102a0576040517f08c379a000000000000000000000000000000000000000000000000000000000815260040161029790610e68565b60405180910390fd5b60008060019054906101000a900460ff1615905080156102f0576001600060016101000a81548160ff02191690831515021790555060016000806101000a81548160ff0219169083151502179055505b6102fb8385846106f4565b801561031c5760008060016101000a81548160ff0219169083151502179055505b50505050565b6000807f000000000000000000000000000000000000000000000000000000000000000073ffffffffffffffffffffffffffffffffffffffff1663624a23e07f36209a57dfd79e3872ec3a0c88c653bbe7e32a12306e5e1f92f118c1936ae8b26040518263ffffffff1660e01b815260040161039e9190610de7565b60206040518083038186803b1580156103b657600080fd5b505afa1580156103ca573d6000803e3d6000fd5b505050506040513d601f19601f820116820180604052508101906103ee9190610ae0565b905060008173ffffffffffffffffffffffffffffffffffffffff166262104a866040518263ffffffff1660e01b815260040161042a9190610ee8565b60206040518083038186803b15801561044257600080fd5b505afa158015610456573d6000803e3d6000fd5b505050506040513d601f19601f8201168201806040525081019061047a9190610ae0565b90506000801b3073ffffffffffffffffffffffffffffffffffffffff166369e0a1f7836040518263ffffffff1660e01b81526004016104b99190610db1565b60206040518083038186803b1580156104d157600080fd5b505afa1580156104e5573d6000803e3d6000fd5b505050506040513d601f19601f820116820180604052508101906105099190610ba9565b141561054a576040517f08c379a000000000000000000000000000000000000000000000000000000000815260040161054190610ec8565b60405180910390fd5b843373ffffffffffffffffffffffffffffffffffffffff167f71a29581f391d0ca96684c69771724a921678b572e21378712be03e8da07e2ca866040516105919190610e2b565b60405180910390a38073ffffffffffffffffffffffffffffffffffffffff1663f636a0538686336040518463ffffffff1660e01b81526004016105d693929190610f03565b602060405180830381600087803b1580156105f057600080fd5b505af1158015610604573d6000803e3d6000fd5b505050506040513d601f19601f820116820180604052508101906106289190610b7c565b9250505092915050565b7f000000000000000000000000000000000000000000000000000000000000000073ffffffffffffffffffffffffffffffffffffffff163373ffffffffffffffffffffffffffffffffffffffff16146106c0576040517f08c379a00000000000000000000000000000000000000000000000000000000081526004016106b790610e88565b60405180910390fd5b6106cb8383836106f4565b505050565b7f000000000000000000000000000000000000000000000000000000000000000081565b604051806040016040528084815260200182815250600160008473ffffffffffffffffffffffffffffffffffffffff1673ffffffffffffffffffffffffffffffffffffffff16815260200190815260200160002060008201518160000155602082015181600101908051906020019061076e9291906108b2565b5090505060007f000000000000000000000000000000000000000000000000000000000000000073ffffffffffffffffffffffffffffffffffffffff1663624a23e07fd578563424ab02f85ec03c6b1aee04947ebdd4a30db46cba3bcd7f56ef40b1996040518263ffffffff1660e01b81526004016107ed9190610de7565b60206040518083038186803b15801561080557600080fd5b505afa158015610819573d6000803e3d6000fd5b505050506040513d601f19601f8201168201806040525081019061083d9190610ae0565b90508073ffffffffffffffffffffffffffffffffffffffff166338c6878285856040518363ffffffff1660e01b815260040161087a929190610e02565b600060405180830381600087803b15801561089457600080fd5b505af11580156108a8573d6000803e3d6000fd5b5050505050505050565b8280546108be906110bf565b90600052602060002090601f0160209004810192826108e05760008555610927565b82601f106108f957805160ff1916838001178555610927565b82800160010185558215610927579182015b8281111561092657825182559160200191906001019061090b565b5b5090506109349190610938565b5090565b5b80821115610951576000816000905550600101610939565b5090565b600061096861096384610f66565b610f41565b90508281526020810184848401111561098457610983611185565b5b61098f84828561107d565b509392505050565b60006109aa6109a584610f97565b610f41565b9050828152602081018484840111156109c6576109c5611185565b5b6109d184828561107d565b509392505050565b6000813590506109e881611249565b92915050565b6000815190506109fd81611249565b92915050565b600081519050610a1281611260565b92915050565b600081359050610a2781611277565b92915050565b600081519050610a3c81611277565b92915050565b600082601f830112610a5757610a56611180565b5b8135610a67848260208601610955565b91505092915050565b600082601f830112610a8557610a84611180565b5b8135610a95848260208601610997565b91505092915050565b600081359050610aad8161128e565b92915050565b600060208284031215610ac957610ac861118f565b5b6000610ad7848285016109d9565b91505092915050565b600060208284031215610af657610af561118f565b5b6000610b04848285016109ee565b91505092915050565b600080600060608486031215610b2657610b2561118f565b5b6000610b34868287016109d9565b9350506020610b4586828701610a18565b925050604084013567ffffffffffffffff811115610b6657610b6561118a565b5b610b7286828701610a70565b9150509250925092565b600060208284031215610b9257610b9161118f565b5b6000610ba084828501610a03565b91505092915050565b600060208284031215610bbf57610bbe61118f565b5b6000610bcd84828501610a2d565b91505092915050565b600080600060608486031215610bef57610bee61118f565b5b6000610bfd86828701610a18565b9350506020610c0e868287016109d9565b925050604084013567ffffffffffffffff811115610c2f57610c2e61118a565b5b610c3b86828701610a70565b9150509250925092565b60008060408385031215610c5c57610c5b61118f565b5b6000610c6a85828601610a9e565b925050602083013567ffffffffffffffff811115610c8b57610c8a61118a565b5b610c9785828601610a42565b9150509250929050565b610caa81610ff5565b82525050565b610cb981611007565b82525050565b610cc881611013565b82525050565b6000610cd982610fc8565b610ce38185610fd3565b9350610cf381856020860161108c565b610cfc81611194565b840191505092915050565b610d1081611047565b82525050565b6000610d23601c83610fe4565b9150610d2e826111a5565b602082019050919050565b6000610d46601c83610fe4565b9150610d51826111ce565b602082019050919050565b6000610d69601d83610fe4565b9150610d74826111f7565b602082019050919050565b6000610d8c601883610fe4565b9150610d9782611220565b602082019050919050565b610dab8161103d565b82525050565b6000602082019050610dc66000830184610ca1565b92915050565b6000602082019050610de16000830184610cb0565b92915050565b6000602082019050610dfc6000830184610cbf565b92915050565b6000604082019050610e176000830185610cbf565b610e246020830184610ca1565b9392505050565b60006020820190508181036000830152610e458184610cce565b905092915050565b6000602082019050610e626000830184610d07565b92915050565b60006020820190508181036000830152610e8181610d16565b9050919050565b60006020820190508181036000830152610ea181610d39565b9050919050565b60006020820190508181036000830152610ec181610d5c565b9050919050565b60006020820190508181036000830152610ee181610d7f565b9050919050565b6000602082019050610efd6000830184610da2565b92915050565b6000606082019050610f186000830186610da2565b8181036020830152610f2a8185610cce565b9050610f396040830184610ca1565b949350505050565b6000610f4b610f5c565b9050610f5782826110f1565b919050565b6000604051905090565b600067ffffffffffffffff821115610f8157610f80611151565b5b610f8a82611194565b9050602081019050919050565b600067ffffffffffffffff821115610fb257610fb1611151565b5b610fbb82611194565b9050602081019050919050565b600081519050919050565b600082825260208201905092915050565b600082825260208201905092915050565b60006110008261101d565b9050919050565b60008115159050919050565b6000819050919050565b600073ffffffffffffffffffffffffffffffffffffffff82169050919050565b6000819050919050565b600061105282611059565b9050919050565b60006110648261106b565b9050919050565b60006110768261101d565b9050919050565b82818337600083830152505050565b60005b838110156110aa57808201518184015260208101905061108f565b838111156110b9576000848401525b50505050565b600060028204905060018216806110d757607f821691505b602082108114156110eb576110ea611122565b5b50919050565b6110fa82611194565b810181811067ffffffffffffffff8211171561111957611118611151565b5b80604052505050565b7f4e487b7100000000000000000000000000000000000000000000000000000000600052602260045260246000fd5b7f4e487b7100000000000000000000000000000000000000000000000000000000600052604160045260246000fd5b600080fd5b600080fd5b600080fd5b600080fd5b6000601f19601f8301169050919050565b7f496e69743a204f6e6c79206465706c6f7965722063616e20696e697400000000600082015250565b7f53797374656d3a204f6e6c7920636f72652063616e206d6f6469667900000000600082015250565b7f496e69743a20436f6e747261637420697320696e697469616c697a6564000000600082015250565b7f426f6f74683a20496e76616c696420766f746520747970650000000000000000600082015250565b61125281610ff5565b811461125d57600080fd5b50565b61126981611007565b811461127457600080fd5b50565b61128081611013565b811461128b57600080fd5b50565b6112978161103d565b81146112a257600080fd5b5056fea264697066735822122094a0b034a31ae5510bbdc3a7c91e4300c023608bbed2a772bb0c06f97355cc2764736f6c63430008070033",
  "linkReferences": {},
  "deployedLinkReferences": {}
}