{
  "_format": "hh-sol-artifact-1",
  "contractName": "VotingBooth",
  "sourceName": "contracts/VotingBooth.sol",
  "abi": [
    {
      "inputs": [
        {
          "internalType": "address",
          "name": "_core",
          "type": "address"
        },
        {
          "internalType": "address",
          "name": "_timer",
          "type": "address"
        }
      ],
      "stateMutability": "nonpayable",
      "type": "constructor"
    },
    {
      "anonymous": false,
      "inputs": [
        {
          "indexed": true,
          "internalType": "address",
          "name": "voter",
          "type": "address"
        },
        {
          "indexed": true,
          "internalType": "uint256",
          "name": "propID",
          "type": "uint256"
        },
        {
          "indexed": false,
          "internalType": "bytes",
          "name": "vote",
          "type": "bytes"
        }
      ],
      "name": "VoteCast",
      "type": "event"
    },
    {
      "inputs": [],
      "name": "IDENTIFIER",
      "outputs": [
        {
          "internalType": "bytes32",
          "name": "",
          "type": "bytes32"
        }
      ],
      "stateMutability": "view",
      "type": "function"
    },
    {
      "inputs": [
        {
          "internalType": "bytes32",
          "name": "_voteType",
          "type": "bytes32"
        },
        {
          "internalType": "address",
          "name": "_instance",
          "type": "address"
        },
        {
          "internalType": "string",
          "name": "_voteFormat",
          "type": "string"
        }
      ],
      "name": "addVoteType",
      "outputs": [],
      "stateMutability": "nonpayable",
      "type": "function"
    },
    {
      "inputs": [
        {
          "internalType": "uint256",
          "name": "_propID",
          "type": "uint256"
        }
      ],
      "name": "consensusReached",
      "outputs": [
        {
          "internalType": "bool",
          "name": "reached",
          "type": "bool"
        },
        {
          "internalType": "bool",
          "name": "votePassed",
          "type": "bool"
        }
      ],
      "stateMutability": "view",
      "type": "function"
    },
    {
      "inputs": [],
      "name": "core_",
      "outputs": [
        {
          "internalType": "contract ICore",
          "name": "",
          "type": "address"
        }
      ],
      "stateMutability": "view",
      "type": "function"
    },
    {
      "inputs": [],
      "name": "getCurrentTime",
      "outputs": [
        {
          "internalType": "uint256",
          "name": "",
          "type": "uint256"
        }
      ],
      "stateMutability": "view",
      "type": "function"
    },
    {
      "inputs": [
        {
          "internalType": "address",
          "name": "_instance",
          "type": "address"
        }
      ],
      "name": "getVoteType",
      "outputs": [
        {
          "internalType": "bytes32",
          "name": "",
          "type": "bytes32"
        }
      ],
      "stateMutability": "view",
      "type": "function"
    },
    {
      "inputs": [
        {
          "internalType": "address",
          "name": "_initialVoteInstance",
          "type": "address"
        },
        {
          "internalType": "bytes32",
          "name": "_initialVoteType",
          "type": "bytes32"
        },
        {
          "internalType": "string",
          "name": "_voteFormat",
          "type": "string"
        }
      ],
      "name": "initialise",
      "outputs": [],
      "stateMutability": "nonpayable",
      "type": "function"
    },
    {
      "inputs": [
        {
          "internalType": "uint256",
          "name": "time",
          "type": "uint256"
        }
      ],
      "name": "setCurrentTime",
      "outputs": [],
      "stateMutability": "nonpayable",
      "type": "function"
    },
    {
      "inputs": [],
      "name": "timerAddress",
      "outputs": [
        {
          "internalType": "address",
          "name": "",
          "type": "address"
        }
      ],
      "stateMutability": "view",
      "type": "function"
    },
    {
      "inputs": [
        {
          "internalType": "uint256",
          "name": "_propID",
          "type": "uint256"
        },
        {
          "internalType": "bytes",
          "name": "_vote",
          "type": "bytes"
        }
      ],
      "name": "vote",
      "outputs": [],
      "stateMutability": "nonpayable",
      "type": "function"
    }
  ],
  "bytecode": "0x60c06040523480156200001157600080fd5b5060405162001c5338038062001c5383398181016040528101906200003791906200013f565b7f346b2ab3a980432fd8f2e24828fc9f9ee2df1548701bc542f6ec17882b32762782828033600060026101000a81548173ffffffffffffffffffffffffffffffffffffffff021916908373ffffffffffffffffffffffffffffffffffffffff16021790555080600160006101000a81548173ffffffffffffffffffffffffffffffffffffffff021916908373ffffffffffffffffffffffffffffffffffffffff1602179055505082608081815250508173ffffffffffffffffffffffffffffffffffffffff1660a08173ffffffffffffffffffffffffffffffffffffffff1660601b815250505050505050620001d9565b6000815190506200013981620001bf565b92915050565b60008060408385031215620001595762000158620001ba565b5b6000620001698582860162000128565b92505060206200017c8582860162000128565b9150509250929050565b600062000193826200019a565b9050919050565b600073ffffffffffffffffffffffffffffffffffffffff82169050919050565b600080fd5b620001ca8162000186565b8114620001d657600080fd5b50565b60805160a05160601c611a2e62000225600039600081816105ee015281816106bb01528181610a6f01528181610b1201528181610cfc0152610da0015260006104050152611a2e6000f3fe608060405234801561001057600080fd5b506004361061009e5760003560e01c80636e3ce913116100665780636e3ce91314610149578063b88b82ba14610165578063cbba4b7f14610181578063e343409a1461019d578063eaddd0fd146101ce5761009e565b80631c39c38d146100a357806322f8e566146100c157806329cb924d146100dd5780633c9747f3146100fb57806369e0a1f714610119575b600080fd5b6100ab6101ec565b6040516100b891906114ad565b60405180910390f35b6100db60048036038101906100d691906112c4565b610212565b005b6100e56102fe565b6040516100f29190611612565b60405180910390f35b610103610403565b60405161011091906114f1565b60405180910390f35b610133600480360381019061012e91906110f2565b610427565b60405161014091906114f1565b60405180910390f35b610163600480360381019061015e919061114c565b610473565b005b61017f600480360381019061017a919061131e565b6105ea565b005b61019b60048036038101906101969190611255565b610a6d565b005b6101b760048036038101906101b291906112c4565b610b0b565b6040516101c59291906114c8565b60405180910390f35b6101d6610cfa565b6040516101e39190611557565b60405180910390f35b600160009054906101000a900473ffffffffffffffffffffffffffffffffffffffff1681565b600073ffffffffffffffffffffffffffffffffffffffff16600160009054906101000a900473ffffffffffffffffffffffffffffffffffffffff1673ffffffffffffffffffffffffffffffffffffffff16141561026e57600080fd5b600160009054906101000a900473ffffffffffffffffffffffffffffffffffffffff1673ffffffffffffffffffffffffffffffffffffffff166322f8e566826040518263ffffffff1660e01b81526004016102c99190611612565b600060405180830381600087803b1580156102e357600080fd5b505af11580156102f7573d6000803e3d6000fd5b5050505050565b60008073ffffffffffffffffffffffffffffffffffffffff16600160009054906101000a900473ffffffffffffffffffffffffffffffffffffffff1673ffffffffffffffffffffffffffffffffffffffff16146103fc57600160009054906101000a900473ffffffffffffffffffffffffffffffffffffffff1673ffffffffffffffffffffffffffffffffffffffff166329cb924d6040518163ffffffff1660e01b815260040160206040518083038186803b1580156103bd57600080fd5b505afa1580156103d1573d6000803e3d6000fd5b505050506040513d601f19601f820116820180604052508101906103f591906112f1565b9050610400565b4290505b90565b7f000000000000000000000000000000000000000000000000000000000000000081565b6000600260008373ffffffffffffffffffffffffffffffffffffffff1673ffffffffffffffffffffffffffffffffffffffff168152602001908152602001600020600001549050919050565b600060019054906101000a900460ff1680610499575060008054906101000a900460ff16155b6104d8576040517f08c379a00000000000000000000000000000000000000000000000000000000081526004016104cf906115b2565b60405180910390fd5b600060029054906101000a900473ffffffffffffffffffffffffffffffffffffffff1673ffffffffffffffffffffffffffffffffffffffff163373ffffffffffffffffffffffffffffffffffffffff1614610568576040517f08c379a000000000000000000000000000000000000000000000000000000000815260040161055f90611572565b60405180910390fd5b60008060019054906101000a900460ff1615905080156105b8576001600060016101000a81548160ff02191690831515021790555060016000806101000a81548160ff0219169083151502179055505b6105c3838584610d1e565b80156105e45760008060016101000a81548160ff0219169083151502179055505b50505050565b60007f000000000000000000000000000000000000000000000000000000000000000073ffffffffffffffffffffffffffffffffffffffff1663624a23e07fd578563424ab02f85ec03c6b1aee04947ebdd4a30db46cba3bcd7f56ef40b1996040518263ffffffff1660e01b815260040161066591906114f1565b60206040518083038186803b15801561067d57600080fd5b505afa158015610691573d6000803e3d6000fd5b505050506040513d601f19601f820116820180604052508101906106b5919061111f565b905060007f000000000000000000000000000000000000000000000000000000000000000073ffffffffffffffffffffffffffffffffffffffff1663624a23e07f36209a57dfd79e3872ec3a0c88c653bbe7e32a12306e5e1f92f118c1936ae8b26040518263ffffffff1660e01b815260040161073291906114f1565b60206040518083038186803b15801561074a57600080fd5b505afa15801561075e573d6000803e3d6000fd5b505050506040513d601f19601f82011682018060405250810190610782919061111f565b905060008173ffffffffffffffffffffffffffffffffffffffff166262104a866040518263ffffffff1660e01b81526004016107be9190611612565b60206040518083038186803b1580156107d657600080fd5b505afa1580156107ea573d6000803e3d6000fd5b505050506040513d601f19601f8201168201806040525081019061080e919061111f565b90506000801b3073ffffffffffffffffffffffffffffffffffffffff166369e0a1f7836040518263ffffffff1660e01b815260040161084d91906114ad565b60206040518083038186803b15801561086557600080fd5b505afa158015610879573d6000803e3d6000fd5b505050506040513d601f19601f8201168201806040525081019061089d9190611228565b14156108de576040517f08c379a00000000000000000000000000000000000000000000000000000000081526004016108d5906115f2565b60405180910390fd5b8273ffffffffffffffffffffffffffffffffffffffff1663fd4a77f1866040518263ffffffff1660e01b81526004016109179190611612565b600060405180830381600087803b15801561093157600080fd5b505af1158015610945573d6000803e3d6000fd5b50505050843373ffffffffffffffffffffffffffffffffffffffff167f71a29581f391d0ca96684c69771724a921678b572e21378712be03e8da07e2ca866040516109909190611535565b60405180910390a38073ffffffffffffffffffffffffffffffffffffffff1663f636a0538686336040518463ffffffff1660e01b81526004016109d59392919061162d565b602060405180830381600087803b1580156109ef57600080fd5b505af1158015610a03573d6000803e3d6000fd5b505050506040513d601f19601f82011682018060405250810190610a2791906111bb565b610a66576040517f08c379a0000000000000000000000000000000000000000000000000000000008152600401610a5d906115d2565b60405180910390fd5b5050505050565b7f000000000000000000000000000000000000000000000000000000000000000073ffffffffffffffffffffffffffffffffffffffff163373ffffffffffffffffffffffffffffffffffffffff1614610afb576040517f08c379a0000000000000000000000000000000000000000000000000000000008152600401610af290611592565b60405180910390fd5b610b06838383610d1e565b505050565b60008060007f000000000000000000000000000000000000000000000000000000000000000073ffffffffffffffffffffffffffffffffffffffff1663624a23e07f36209a57dfd79e3872ec3a0c88c653bbe7e32a12306e5e1f92f118c1936ae8b26040518263ffffffff1660e01b8152600401610b8991906114f1565b60206040518083038186803b158015610ba157600080fd5b505afa158015610bb5573d6000803e3d6000fd5b505050506040513d601f19601f82011682018060405250810190610bd9919061111f565b905060008173ffffffffffffffffffffffffffffffffffffffff166262104a866040518263ffffffff1660e01b8152600401610c159190611612565b60206040518083038186803b158015610c2d57600080fd5b505afa158015610c41573d6000803e3d6000fd5b505050506040513d601f19601f82011682018060405250810190610c65919061111f565b90508073ffffffffffffffffffffffffffffffffffffffff1663e343409a866040518263ffffffff1660e01b8152600401610ca09190611612565b604080518083038186803b158015610cb757600080fd5b505afa158015610ccb573d6000803e3d6000fd5b505050506040513d601f19601f82011682018060405250810190610cef91906111e8565b935093505050915091565b7f000000000000000000000000000000000000000000000000000000000000000081565b604051806040016040528084815260200182815250600260008473ffffffffffffffffffffffffffffffffffffffff1673ffffffffffffffffffffffffffffffffffffffff168152602001908152602001600020600082015181600001556020820151816001019080519060200190610d98929190610edc565b5090505060007f000000000000000000000000000000000000000000000000000000000000000073ffffffffffffffffffffffffffffffffffffffff1663624a23e07fd578563424ab02f85ec03c6b1aee04947ebdd4a30db46cba3bcd7f56ef40b1996040518263ffffffff1660e01b8152600401610e1791906114f1565b60206040518083038186803b158015610e2f57600080fd5b505afa158015610e43573d6000803e3d6000fd5b505050506040513d601f19601f82011682018060405250810190610e67919061111f565b90508073ffffffffffffffffffffffffffffffffffffffff166338c6878285856040518363ffffffff1660e01b8152600401610ea492919061150c565b600060405180830381600087803b158015610ebe57600080fd5b505af1158015610ed2573d6000803e3d6000fd5b5050505050505050565b828054610ee8906117e9565b90600052602060002090601f016020900481019282610f0a5760008555610f51565b82601f10610f2357805160ff1916838001178555610f51565b82800160010185558215610f51579182015b82811115610f50578251825591602001919060010190610f35565b5b509050610f5e9190610f62565b5090565b5b80821115610f7b576000816000905550600101610f63565b5090565b6000610f92610f8d84611690565b61166b565b905082815260208101848484011115610fae57610fad6118af565b5b610fb98482856117a7565b509392505050565b6000610fd4610fcf846116c1565b61166b565b905082815260208101848484011115610ff057610fef6118af565b5b610ffb8482856117a7565b509392505050565b6000813590506110128161199c565b92915050565b6000815190506110278161199c565b92915050565b60008151905061103c816119b3565b92915050565b600081359050611051816119ca565b92915050565b600081519050611066816119ca565b92915050565b600082601f830112611081576110806118aa565b5b8135611091848260208601610f7f565b91505092915050565b600082601f8301126110af576110ae6118aa565b5b81356110bf848260208601610fc1565b91505092915050565b6000813590506110d7816119e1565b92915050565b6000815190506110ec816119e1565b92915050565b600060208284031215611108576111076118b9565b5b600061111684828501611003565b91505092915050565b600060208284031215611135576111346118b9565b5b600061114384828501611018565b91505092915050565b600080600060608486031215611165576111646118b9565b5b600061117386828701611003565b935050602061118486828701611042565b925050604084013567ffffffffffffffff8111156111a5576111a46118b4565b5b6111b18682870161109a565b9150509250925092565b6000602082840312156111d1576111d06118b9565b5b60006111df8482850161102d565b91505092915050565b600080604083850312156111ff576111fe6118b9565b5b600061120d8582860161102d565b925050602061121e8582860161102d565b9150509250929050565b60006020828403121561123e5761123d6118b9565b5b600061124c84828501611057565b91505092915050565b60008060006060848603121561126e5761126d6118b9565b5b600061127c86828701611042565b935050602061128d86828701611003565b925050604084013567ffffffffffffffff8111156112ae576112ad6118b4565b5b6112ba8682870161109a565b9150509250925092565b6000602082840312156112da576112d96118b9565b5b60006112e8848285016110c8565b91505092915050565b600060208284031215611307576113066118b9565b5b6000611315848285016110dd565b91505092915050565b60008060408385031215611335576113346118b9565b5b6000611343858286016110c8565b925050602083013567ffffffffffffffff811115611364576113636118b4565b5b6113708582860161106c565b9150509250929050565b6113838161171f565b82525050565b61139281611731565b82525050565b6113a18161173d565b82525050565b60006113b2826116f2565b6113bc81856116fd565b93506113cc8185602086016117b6565b6113d5816118be565b840191505092915050565b6113e981611771565b82525050565b60006113fc601c8361170e565b9150611407826118cf565b602082019050919050565b600061141f601c8361170e565b915061142a826118f8565b602082019050919050565b6000611442601d8361170e565b915061144d82611921565b602082019050919050565b600061146560128361170e565b91506114708261194a565b602082019050919050565b6000611488601d8361170e565b915061149382611973565b602082019050919050565b6114a781611767565b82525050565b60006020820190506114c2600083018461137a565b92915050565b60006040820190506114dd6000830185611389565b6114ea6020830184611389565b9392505050565b60006020820190506115066000830184611398565b92915050565b60006040820190506115216000830185611398565b61152e602083018461137a565b9392505050565b6000602082019050818103600083015261154f81846113a7565b905092915050565b600060208201905061156c60008301846113e0565b92915050565b6000602082019050818103600083015261158b816113ef565b9050919050565b600060208201905081810360008301526115ab81611412565b9050919050565b600060208201905081810360008301526115cb81611435565b9050919050565b600060208201905081810360008301526115eb81611458565b9050919050565b6000602082019050818103600083015261160b8161147b565b9050919050565b6000602082019050611627600083018461149e565b92915050565b6000606082019050611642600083018661149e565b818103602083015261165481856113a7565b9050611663604083018461137a565b949350505050565b6000611675611686565b9050611681828261181b565b919050565b6000604051905090565b600067ffffffffffffffff8211156116ab576116aa61187b565b5b6116b4826118be565b9050602081019050919050565b600067ffffffffffffffff8211156116dc576116db61187b565b5b6116e5826118be565b9050602081019050919050565b600081519050919050565b600082825260208201905092915050565b600082825260208201905092915050565b600061172a82611747565b9050919050565b60008115159050919050565b6000819050919050565b600073ffffffffffffffffffffffffffffffffffffffff82169050919050565b6000819050919050565b600061177c82611783565b9050919050565b600061178e82611795565b9050919050565b60006117a082611747565b9050919050565b82818337600083830152505050565b60005b838110156117d45780820151818401526020810190506117b9565b838111156117e3576000848401525b50505050565b6000600282049050600182168061180157607f821691505b602082108114156118155761181461184c565b5b50919050565b611824826118be565b810181811067ffffffffffffffff821117156118435761184261187b565b5b80604052505050565b7f4e487b7100000000000000000000000000000000000000000000000000000000600052602260045260246000fd5b7f4e487b7100000000000000000000000000000000000000000000000000000000600052604160045260246000fd5b600080fd5b600080fd5b600080fd5b600080fd5b6000601f19601f8301169050919050565b7f496e69743a204f6e6c79206465706c6f7965722063616e20696e697400000000600082015250565b7f53797374656d3a204f6e6c7920636f72652063616e206d6f6469667900000000600082015250565b7f496e69743a20436f6e747261637420697320696e697469616c697a6564000000600082015250565b7f426f6f74683a20566f7465206661696c65640000000000000000000000000000600082015250565b7f426f6f74683a20496e76616c696420766f746520747970652f70726f70000000600082015250565b6119a58161171f565b81146119b057600080fd5b50565b6119bc81611731565b81146119c757600080fd5b50565b6119d38161173d565b81146119de57600080fd5b50565b6119ea81611767565b81146119f557600080fd5b5056fea26469706673582212209fcb46af92bd79d89b8ec0cb6c0c864c16ec971c695a1d206c0df86b9841ac7a64736f6c63430008070033",
  "linkReferences": {},
  "deployedLinkReferences": {}
}