{
  "_format": "hh-sol-artifact-1",
  "contractName": "VotingBooth",
  "sourceName": "contracts/VotingBooth.sol",
  "abi": [
    {
      "inputs": [
        {
          "internalType": "address",
          "name": "_core",
          "type": "address"
        }
      ],
      "stateMutability": "nonpayable",
      "type": "constructor"
    },
    {
      "anonymous": false,
      "inputs": [
        {
          "indexed": true,
          "internalType": "address",
          "name": "voter",
          "type": "address"
        },
        {
          "indexed": true,
          "internalType": "uint256",
          "name": "propID",
          "type": "uint256"
        },
        {
          "indexed": false,
          "internalType": "bytes",
          "name": "vote",
          "type": "bytes"
        }
      ],
      "name": "VoteCast",
      "type": "event"
    },
    {
      "inputs": [],
      "name": "IDENTIFIER",
      "outputs": [
        {
          "internalType": "bytes32",
          "name": "",
          "type": "bytes32"
        }
      ],
      "stateMutability": "view",
      "type": "function"
    },
    {
      "inputs": [
        {
          "internalType": "bytes32",
          "name": "_voteType",
          "type": "bytes32"
        },
        {
          "internalType": "address",
          "name": "_instance",
          "type": "address"
        },
        {
          "internalType": "string",
          "name": "_voteFormat",
          "type": "string"
        }
      ],
      "name": "addVoteType",
      "outputs": [],
      "stateMutability": "nonpayable",
      "type": "function"
    },
    {
      "inputs": [],
      "name": "core_",
      "outputs": [
        {
          "internalType": "contract ICore",
          "name": "",
          "type": "address"
        }
      ],
      "stateMutability": "view",
      "type": "function"
    },
    {
      "inputs": [
        {
          "internalType": "address",
          "name": "_initialVoteInstance",
          "type": "address"
        },
        {
          "internalType": "bytes32",
          "name": "_initialVoteType",
          "type": "bytes32"
        },
        {
          "internalType": "string",
          "name": "_voteFormat",
          "type": "string"
        }
      ],
      "name": "initialise",
      "outputs": [],
      "stateMutability": "nonpayable",
      "type": "function"
    },
    {
      "inputs": [
        {
          "internalType": "uint256",
          "name": "_propID",
          "type": "uint256"
        },
        {
          "internalType": "bytes",
          "name": "_vote",
          "type": "bytes"
        }
      ],
      "name": "vote",
      "outputs": [
        {
          "internalType": "bool",
          "name": "",
          "type": "bool"
        }
      ],
      "stateMutability": "nonpayable",
      "type": "function"
    }
  ],
  "bytecode": "0x60c060405234801561001057600080fd5b5060405162000ffd38038062000ffd833981810160405281019061003491906100f3565b7f346b2ab3a980432fd8f2e24828fc9f9ee2df1548701bc542f6ec17882b3276278133600060026101000a81548173ffffffffffffffffffffffffffffffffffffffff021916908373ffffffffffffffffffffffffffffffffffffffff16021790555081608081815250508073ffffffffffffffffffffffffffffffffffffffff1660a08173ffffffffffffffffffffffffffffffffffffffff1660601b8152505050505061016e565b6000815190506100ed81610157565b92915050565b60006020828403121561010957610108610152565b5b6000610117848285016100de565b91505092915050565b600061012b82610132565b9050919050565b600073ffffffffffffffffffffffffffffffffffffffff82169050919050565b600080fd5b61016081610120565b811461016b57600080fd5b50565b60805160a05160601c610e51620001ac60003960008181610139015281816103780152818161041601526104ba015260006101020152610e516000f3fe608060405234801561001057600080fd5b50600436106100575760003560e01c80633c9747f31461005c5780636e3ce9131461007a578063b88b82ba14610096578063cbba4b7f146100c6578063eaddd0fd146100e2575b600080fd5b610064610100565b6040516100719190610a38565b60405180910390f35b610094600480360381019061008f919061080f565b610124565b005b6100b060048036038101906100ab919061091a565b610134565b6040516100bd9190610a1d565b60405180910390f35b6100e060048036038101906100db91906108ab565b610376565b005b6100ea610414565b6040516100f79190610a9e565b60405180910390f35b7f000000000000000000000000000000000000000000000000000000000000000081565b61012f828483610438565b505050565b6000807f000000000000000000000000000000000000000000000000000000000000000073ffffffffffffffffffffffffffffffffffffffff1663624a23e07f36209a57dfd79e3872ec3a0c88c653bbe7e32a12306e5e1f92f118c1936ae8b26040518263ffffffff1660e01b81526004016101b09190610a38565b60206040518083038186803b1580156101c857600080fd5b505afa1580156101dc573d6000803e3d6000fd5b505050506040513d601f19601f8201168201806040525081019061020091906107e2565b905060008173ffffffffffffffffffffffffffffffffffffffff166262104a866040518263ffffffff1660e01b815260040161023c9190610ad9565b60206040518083038186803b15801561025457600080fd5b505afa158015610268573d6000803e3d6000fd5b505050506040513d601f19601f8201168201806040525081019061028c91906107e2565b9050843373ffffffffffffffffffffffffffffffffffffffff167f71a29581f391d0ca96684c69771724a921678b572e21378712be03e8da07e2ca866040516102d59190610a7c565b60405180910390a38073ffffffffffffffffffffffffffffffffffffffff1663f636a0538686336040518463ffffffff1660e01b815260040161031a93929190610af4565b602060405180830381600087803b15801561033457600080fd5b505af1158015610348573d6000803e3d6000fd5b505050506040513d601f19601f8201168201806040525081019061036c919061087e565b9250505092915050565b7f000000000000000000000000000000000000000000000000000000000000000073ffffffffffffffffffffffffffffffffffffffff163373ffffffffffffffffffffffffffffffffffffffff1614610404576040517f08c379a00000000000000000000000000000000000000000000000000000000081526004016103fb90610ab9565b60405180910390fd5b61040f838383610438565b505050565b7f000000000000000000000000000000000000000000000000000000000000000081565b604051806040016040528084815260200182815250600160008473ffffffffffffffffffffffffffffffffffffffff1673ffffffffffffffffffffffffffffffffffffffff1681526020019081526020016000206000820151816000015560208201518160010190805190602001906104b29291906105f6565b5090505060007f000000000000000000000000000000000000000000000000000000000000000073ffffffffffffffffffffffffffffffffffffffff1663624a23e07fd578563424ab02f85ec03c6b1aee04947ebdd4a30db46cba3bcd7f56ef40b1996040518263ffffffff1660e01b81526004016105319190610a38565b60206040518083038186803b15801561054957600080fd5b505afa15801561055d573d6000803e3d6000fd5b505050506040513d601f19601f8201168201806040525081019061058191906107e2565b90508073ffffffffffffffffffffffffffffffffffffffff166338c6878285856040518363ffffffff1660e01b81526004016105be929190610a53565b600060405180830381600087803b1580156105d857600080fd5b505af11580156105ec573d6000803e3d6000fd5b5050505050505050565b82805461060290610cb0565b90600052602060002090601f016020900481019282610624576000855561066b565b82601f1061063d57805160ff191683800117855561066b565b8280016001018555821561066b579182015b8281111561066a57825182559160200191906001019061064f565b5b509050610678919061067c565b5090565b5b8082111561069557600081600090555060010161067d565b5090565b60006106ac6106a784610b57565b610b32565b9050828152602081018484840111156106c8576106c7610d76565b5b6106d3848285610c6e565b509392505050565b60006106ee6106e984610b88565b610b32565b90508281526020810184848401111561070a57610709610d76565b5b610715848285610c6e565b509392505050565b60008135905061072c81610dbf565b92915050565b60008151905061074181610dbf565b92915050565b60008151905061075681610dd6565b92915050565b60008135905061076b81610ded565b92915050565b600082601f83011261078657610785610d71565b5b8135610796848260208601610699565b91505092915050565b600082601f8301126107b4576107b3610d71565b5b81356107c48482602086016106db565b91505092915050565b6000813590506107dc81610e04565b92915050565b6000602082840312156107f8576107f7610d80565b5b600061080684828501610732565b91505092915050565b60008060006060848603121561082857610827610d80565b5b60006108368682870161071d565b93505060206108478682870161075c565b925050604084013567ffffffffffffffff81111561086857610867610d7b565b5b6108748682870161079f565b9150509250925092565b60006020828403121561089457610893610d80565b5b60006108a284828501610747565b91505092915050565b6000806000606084860312156108c4576108c3610d80565b5b60006108d28682870161075c565b93505060206108e38682870161071d565b925050604084013567ffffffffffffffff81111561090457610903610d7b565b5b6109108682870161079f565b9150509250925092565b6000806040838503121561093157610930610d80565b5b600061093f858286016107cd565b925050602083013567ffffffffffffffff8111156109605761095f610d7b565b5b61096c85828601610771565b9150509250929050565b61097f81610be6565b82525050565b61098e81610bf8565b82525050565b61099d81610c04565b82525050565b60006109ae82610bb9565b6109b88185610bc4565b93506109c8818560208601610c7d565b6109d181610d85565b840191505092915050565b6109e581610c38565b82525050565b60006109f8601c83610bd5565b9150610a0382610d96565b602082019050919050565b610a1781610c2e565b82525050565b6000602082019050610a326000830184610985565b92915050565b6000602082019050610a4d6000830184610994565b92915050565b6000604082019050610a686000830185610994565b610a756020830184610976565b9392505050565b60006020820190508181036000830152610a9681846109a3565b905092915050565b6000602082019050610ab360008301846109dc565b92915050565b60006020820190508181036000830152610ad2816109eb565b9050919050565b6000602082019050610aee6000830184610a0e565b92915050565b6000606082019050610b096000830186610a0e565b8181036020830152610b1b81856109a3565b9050610b2a6040830184610976565b949350505050565b6000610b3c610b4d565b9050610b488282610ce2565b919050565b6000604051905090565b600067ffffffffffffffff821115610b7257610b71610d42565b5b610b7b82610d85565b9050602081019050919050565b600067ffffffffffffffff821115610ba357610ba2610d42565b5b610bac82610d85565b9050602081019050919050565b600081519050919050565b600082825260208201905092915050565b600082825260208201905092915050565b6000610bf182610c0e565b9050919050565b60008115159050919050565b6000819050919050565b600073ffffffffffffffffffffffffffffffffffffffff82169050919050565b6000819050919050565b6000610c4382610c4a565b9050919050565b6000610c5582610c5c565b9050919050565b6000610c6782610c0e565b9050919050565b82818337600083830152505050565b60005b83811015610c9b578082015181840152602081019050610c80565b83811115610caa576000848401525b50505050565b60006002820490506001821680610cc857607f821691505b60208210811415610cdc57610cdb610d13565b5b50919050565b610ceb82610d85565b810181811067ffffffffffffffff82111715610d0a57610d09610d42565b5b80604052505050565b7f4e487b7100000000000000000000000000000000000000000000000000000000600052602260045260246000fd5b7f4e487b7100000000000000000000000000000000000000000000000000000000600052604160045260246000fd5b600080fd5b600080fd5b600080fd5b600080fd5b6000601f19601f8301169050919050565b7f53797374656d3a204f6e6c7920636f72652063616e206d6f6469667900000000600082015250565b610dc881610be6565b8114610dd357600080fd5b50565b610ddf81610bf8565b8114610dea57600080fd5b50565b610df681610c04565b8114610e0157600080fd5b50565b610e0d81610c2e565b8114610e1857600080fd5b5056fea26469706673582212201255f654fd168bb8eb4b378fe46cd4e1671643a800b1dae8ded13af817bfdcc764736f6c63430008070033",
  "linkReferences": {},
  "deployedLinkReferences": {}
}