{
  "_format": "hh-sol-artifact-1",
  "contractName": "VotingBooth",
  "sourceName": "contracts/VotingBooth.sol",
  "abi": [
    {
      "inputs": [
        {
          "internalType": "address",
          "name": "_core",
          "type": "address"
        }
      ],
      "stateMutability": "nonpayable",
      "type": "constructor"
    },
    {
      "anonymous": false,
      "inputs": [
        {
          "indexed": true,
          "internalType": "address",
          "name": "voter",
          "type": "address"
        },
        {
          "indexed": true,
          "internalType": "uint256",
          "name": "propID",
          "type": "uint256"
        },
        {
          "indexed": false,
          "internalType": "bytes",
          "name": "vote",
          "type": "bytes"
        }
      ],
      "name": "VoteCast",
      "type": "event"
    },
    {
      "inputs": [],
      "name": "IDENTIFIER",
      "outputs": [
        {
          "internalType": "bytes32",
          "name": "",
          "type": "bytes32"
        }
      ],
      "stateMutability": "view",
      "type": "function"
    },
    {
      "inputs": [
        {
          "internalType": "bytes32",
          "name": "_voteType",
          "type": "bytes32"
        },
        {
          "internalType": "address",
          "name": "_instance",
          "type": "address"
        },
        {
          "internalType": "string",
          "name": "_voteFormat",
          "type": "string"
        }
      ],
      "name": "addVoteType",
      "outputs": [],
      "stateMutability": "nonpayable",
      "type": "function"
    },
    {
      "inputs": [],
      "name": "core_",
      "outputs": [
        {
          "internalType": "contract ICore",
          "name": "",
          "type": "address"
        }
      ],
      "stateMutability": "view",
      "type": "function"
    },
    {
      "inputs": [
        {
          "internalType": "address",
          "name": "_initialVoteInstance",
          "type": "address"
        },
        {
          "internalType": "bytes32",
          "name": "_initialVoteType",
          "type": "bytes32"
        },
        {
          "internalType": "string",
          "name": "_voteFormat",
          "type": "string"
        }
      ],
      "name": "initialise",
      "outputs": [],
      "stateMutability": "nonpayable",
      "type": "function"
    },
    {
      "inputs": [
        {
          "internalType": "uint256",
          "name": "_propID",
          "type": "uint256"
        },
        {
          "internalType": "bytes",
          "name": "_vote",
          "type": "bytes"
        }
      ],
      "name": "vote",
      "outputs": [
        {
          "internalType": "bool",
          "name": "",
          "type": "bool"
        }
      ],
      "stateMutability": "nonpayable",
      "type": "function"
    }
  ],
  "bytecode": "0x60c060405234801561001057600080fd5b50604051610fb8380380610fb8833981810160405281019061003291906100b0565b7f346b2ab3a980432fd8f2e24828fc9f9ee2df1548701bc542f6ec17882b3276278181608081815250508073ffffffffffffffffffffffffffffffffffffffff1660a08173ffffffffffffffffffffffffffffffffffffffff1660601b8152505050505061012b565b6000815190506100aa81610114565b92915050565b6000602082840312156100c6576100c561010f565b5b60006100d48482850161009b565b91505092915050565b60006100e8826100ef565b9050919050565b600073ffffffffffffffffffffffffffffffffffffffff82169050919050565b600080fd5b61011d816100dd565b811461012857600080fd5b50565b60805160a05160601c610e5061016860003960008181610139015281816103780152818161041601526104b9015260006101020152610e506000f3fe608060405234801561001057600080fd5b50600436106100575760003560e01c80633c9747f31461005c5780636e3ce9131461007a578063b88b82ba14610096578063cbba4b7f146100c6578063eaddd0fd146100e2575b600080fd5b610064610100565b6040516100719190610a37565b60405180910390f35b610094600480360381019061008f919061080e565b610124565b005b6100b060048036038101906100ab9190610919565b610134565b6040516100bd9190610a1c565b60405180910390f35b6100e060048036038101906100db91906108aa565b610376565b005b6100ea610414565b6040516100f79190610a9d565b60405180910390f35b7f000000000000000000000000000000000000000000000000000000000000000081565b61012f828483610438565b505050565b6000807f000000000000000000000000000000000000000000000000000000000000000073ffffffffffffffffffffffffffffffffffffffff1663624a23e07f36209a57dfd79e3872ec3a0c88c653bbe7e32a12306e5e1f92f118c1936ae8b26040518263ffffffff1660e01b81526004016101b09190610a37565b60206040518083038186803b1580156101c857600080fd5b505afa1580156101dc573d6000803e3d6000fd5b505050506040513d601f19601f8201168201806040525081019061020091906107e1565b905060008173ffffffffffffffffffffffffffffffffffffffff166262104a866040518263ffffffff1660e01b815260040161023c9190610ad8565b60206040518083038186803b15801561025457600080fd5b505afa158015610268573d6000803e3d6000fd5b505050506040513d601f19601f8201168201806040525081019061028c91906107e1565b9050843373ffffffffffffffffffffffffffffffffffffffff167f71a29581f391d0ca96684c69771724a921678b572e21378712be03e8da07e2ca866040516102d59190610a7b565b60405180910390a38073ffffffffffffffffffffffffffffffffffffffff1663f636a0538686336040518463ffffffff1660e01b815260040161031a93929190610af3565b602060405180830381600087803b15801561033457600080fd5b505af1158015610348573d6000803e3d6000fd5b505050506040513d601f19601f8201168201806040525081019061036c919061087d565b9250505092915050565b7f000000000000000000000000000000000000000000000000000000000000000073ffffffffffffffffffffffffffffffffffffffff163373ffffffffffffffffffffffffffffffffffffffff1614610404576040517f08c379a00000000000000000000000000000000000000000000000000000000081526004016103fb90610ab8565b60405180910390fd5b61040f838383610438565b505050565b7f000000000000000000000000000000000000000000000000000000000000000081565b6040518060400160405280848152602001828152506000808473ffffffffffffffffffffffffffffffffffffffff1673ffffffffffffffffffffffffffffffffffffffff1681526020019081526020016000206000820151816000015560208201518160010190805190602001906104b19291906105f5565b5090505060007f000000000000000000000000000000000000000000000000000000000000000073ffffffffffffffffffffffffffffffffffffffff1663624a23e07fd578563424ab02f85ec03c6b1aee04947ebdd4a30db46cba3bcd7f56ef40b1996040518263ffffffff1660e01b81526004016105309190610a37565b60206040518083038186803b15801561054857600080fd5b505afa15801561055c573d6000803e3d6000fd5b505050506040513d601f19601f8201168201806040525081019061058091906107e1565b90508073ffffffffffffffffffffffffffffffffffffffff166338c6878285856040518363ffffffff1660e01b81526004016105bd929190610a52565b600060405180830381600087803b1580156105d757600080fd5b505af11580156105eb573d6000803e3d6000fd5b5050505050505050565b82805461060190610caf565b90600052602060002090601f016020900481019282610623576000855561066a565b82601f1061063c57805160ff191683800117855561066a565b8280016001018555821561066a579182015b8281111561066957825182559160200191906001019061064e565b5b509050610677919061067b565b5090565b5b8082111561069457600081600090555060010161067c565b5090565b60006106ab6106a684610b56565b610b31565b9050828152602081018484840111156106c7576106c6610d75565b5b6106d2848285610c6d565b509392505050565b60006106ed6106e884610b87565b610b31565b90508281526020810184848401111561070957610708610d75565b5b610714848285610c6d565b509392505050565b60008135905061072b81610dbe565b92915050565b60008151905061074081610dbe565b92915050565b60008151905061075581610dd5565b92915050565b60008135905061076a81610dec565b92915050565b600082601f83011261078557610784610d70565b5b8135610795848260208601610698565b91505092915050565b600082601f8301126107b3576107b2610d70565b5b81356107c38482602086016106da565b91505092915050565b6000813590506107db81610e03565b92915050565b6000602082840312156107f7576107f6610d7f565b5b600061080584828501610731565b91505092915050565b60008060006060848603121561082757610826610d7f565b5b60006108358682870161071c565b93505060206108468682870161075b565b925050604084013567ffffffffffffffff81111561086757610866610d7a565b5b6108738682870161079e565b9150509250925092565b60006020828403121561089357610892610d7f565b5b60006108a184828501610746565b91505092915050565b6000806000606084860312156108c3576108c2610d7f565b5b60006108d18682870161075b565b93505060206108e28682870161071c565b925050604084013567ffffffffffffffff81111561090357610902610d7a565b5b61090f8682870161079e565b9150509250925092565b600080604083850312156109305761092f610d7f565b5b600061093e858286016107cc565b925050602083013567ffffffffffffffff81111561095f5761095e610d7a565b5b61096b85828601610770565b9150509250929050565b61097e81610be5565b82525050565b61098d81610bf7565b82525050565b61099c81610c03565b82525050565b60006109ad82610bb8565b6109b78185610bc3565b93506109c7818560208601610c7c565b6109d081610d84565b840191505092915050565b6109e481610c37565b82525050565b60006109f7601c83610bd4565b9150610a0282610d95565b602082019050919050565b610a1681610c2d565b82525050565b6000602082019050610a316000830184610984565b92915050565b6000602082019050610a4c6000830184610993565b92915050565b6000604082019050610a676000830185610993565b610a746020830184610975565b9392505050565b60006020820190508181036000830152610a9581846109a2565b905092915050565b6000602082019050610ab260008301846109db565b92915050565b60006020820190508181036000830152610ad1816109ea565b9050919050565b6000602082019050610aed6000830184610a0d565b92915050565b6000606082019050610b086000830186610a0d565b8181036020830152610b1a81856109a2565b9050610b296040830184610975565b949350505050565b6000610b3b610b4c565b9050610b478282610ce1565b919050565b6000604051905090565b600067ffffffffffffffff821115610b7157610b70610d41565b5b610b7a82610d84565b9050602081019050919050565b600067ffffffffffffffff821115610ba257610ba1610d41565b5b610bab82610d84565b9050602081019050919050565b600081519050919050565b600082825260208201905092915050565b600082825260208201905092915050565b6000610bf082610c0d565b9050919050565b60008115159050919050565b6000819050919050565b600073ffffffffffffffffffffffffffffffffffffffff82169050919050565b6000819050919050565b6000610c4282610c49565b9050919050565b6000610c5482610c5b565b9050919050565b6000610c6682610c0d565b9050919050565b82818337600083830152505050565b60005b83811015610c9a578082015181840152602081019050610c7f565b83811115610ca9576000848401525b50505050565b60006002820490506001821680610cc757607f821691505b60208210811415610cdb57610cda610d12565b5b50919050565b610cea82610d84565b810181811067ffffffffffffffff82111715610d0957610d08610d41565b5b80604052505050565b7f4e487b7100000000000000000000000000000000000000000000000000000000600052602260045260246000fd5b7f4e487b7100000000000000000000000000000000000000000000000000000000600052604160045260246000fd5b600080fd5b600080fd5b600080fd5b600080fd5b6000601f19601f8301169050919050565b7f53797374656d3a204f6e6c7920636f72652063616e206d6f6469667900000000600082015250565b610dc781610be5565b8114610dd257600080fd5b50565b610dde81610bf7565b8114610de957600080fd5b50565b610df581610c03565b8114610e0057600080fd5b50565b610e0c81610c2d565b8114610e1757600080fd5b5056fea26469706673582212202c7c453822966db1b36e872c5124beb1382f862cb2cdfeed17b6fcef2e267dfa64736f6c63430008070033",
  "linkReferences": {},
  "deployedLinkReferences": {}
}