{
  "_format": "hh-sol-artifact-1",
  "contractName": "VotingBooth",
  "sourceName": "contracts/VotingBooth.sol",
  "abi": [
    {
      "inputs": [
        {
          "internalType": "address",
          "name": "_core",
          "type": "address"
        }
      ],
      "stateMutability": "nonpayable",
      "type": "constructor"
    },
    {
      "anonymous": false,
      "inputs": [
        {
          "indexed": true,
          "internalType": "address",
          "name": "voter",
          "type": "address"
        },
        {
          "indexed": true,
          "internalType": "uint256",
          "name": "propID",
          "type": "uint256"
        },
        {
          "indexed": false,
          "internalType": "bytes",
          "name": "vote",
          "type": "bytes"
        }
      ],
      "name": "VoteCast",
      "type": "event"
    },
    {
      "inputs": [],
      "name": "IDENTIFIER",
      "outputs": [
        {
          "internalType": "bytes32",
          "name": "",
          "type": "bytes32"
        }
      ],
      "stateMutability": "view",
      "type": "function"
    },
    {
      "inputs": [
        {
          "internalType": "bytes32",
          "name": "_voteType",
          "type": "bytes32"
        },
        {
          "internalType": "address",
          "name": "_instance",
          "type": "address"
        },
        {
          "internalType": "string",
          "name": "_voteFormat",
          "type": "string"
        }
      ],
      "name": "addVoteType",
      "outputs": [],
      "stateMutability": "nonpayable",
      "type": "function"
    },
    {
      "inputs": [
        {
          "internalType": "uint256",
          "name": "_propID",
          "type": "uint256"
        }
      ],
      "name": "consensusReached",
      "outputs": [
        {
          "internalType": "bool",
          "name": "reached",
          "type": "bool"
        },
        {
          "internalType": "bool",
          "name": "votePassed",
          "type": "bool"
        }
      ],
      "stateMutability": "view",
      "type": "function"
    },
    {
      "inputs": [],
      "name": "core_",
      "outputs": [
        {
          "internalType": "contract ICore",
          "name": "",
          "type": "address"
        }
      ],
      "stateMutability": "view",
      "type": "function"
    },
    {
      "inputs": [
        {
          "internalType": "address",
          "name": "_instance",
          "type": "address"
        }
      ],
      "name": "getVoteType",
      "outputs": [
        {
          "internalType": "bytes32",
          "name": "",
          "type": "bytes32"
        }
      ],
      "stateMutability": "view",
      "type": "function"
    },
    {
      "inputs": [
        {
          "internalType": "address",
          "name": "_initialVoteInstance",
          "type": "address"
        },
        {
          "internalType": "bytes32",
          "name": "_initialVoteType",
          "type": "bytes32"
        },
        {
          "internalType": "string",
          "name": "_voteFormat",
          "type": "string"
        }
      ],
      "name": "initialise",
      "outputs": [],
      "stateMutability": "nonpayable",
      "type": "function"
    },
    {
      "inputs": [
        {
          "internalType": "uint256",
          "name": "_propID",
          "type": "uint256"
        },
        {
          "internalType": "bytes",
          "name": "_vote",
          "type": "bytes"
        }
      ],
      "name": "vote",
      "outputs": [
        {
          "internalType": "bool",
          "name": "",
          "type": "bool"
        }
      ],
      "stateMutability": "nonpayable",
      "type": "function"
    }
  ],
  "bytecode": "0x60c06040523480156200001157600080fd5b506040516200176f3803806200176f8339818101604052810190620000379190620000f9565b7f346b2ab3a980432fd8f2e24828fc9f9ee2df1548701bc542f6ec17882b3276278133600060026101000a81548173ffffffffffffffffffffffffffffffffffffffff021916908373ffffffffffffffffffffffffffffffffffffffff16021790555081608081815250508073ffffffffffffffffffffffffffffffffffffffff1660a08173ffffffffffffffffffffffffffffffffffffffff1660601b815250505050506200017e565b600081519050620000f38162000164565b92915050565b6000602082840312156200011257620001116200015f565b5b60006200012284828501620000e2565b91505092915050565b600062000138826200013f565b9050919050565b600073ffffffffffffffffffffffffffffffffffffffff82169050919050565b600080fd5b6200016f816200012b565b81146200017b57600080fd5b50565b60805160a05160601c6115ac620001c36000396000818161037301528181610680015281816107230152818161090d01526109b10152600061018901526115ac6000f3fe608060405234801561001057600080fd5b506004361061007d5760003560e01c8063b88b82ba1161005b578063b88b82ba146100ec578063cbba4b7f1461011c578063e343409a14610138578063eaddd0fd146101695761007d565b80633c9747f31461008257806369e0a1f7146100a05780636e3ce913146100d0575b600080fd5b61008a610187565b60405161009791906110b8565b60405180910390f35b6100ba60048036038101906100b59190610cee565b6101ab565b6040516100c791906110b8565b60405180910390f35b6100ea60048036038101906100e59190610d48565b6101f7565b005b61010660048036038101906101019190610eed565b61036e565b6040516101139190611074565b60405180910390f35b61013660048036038101906101319190610e51565b61067e565b005b610152600480360381019061014d9190610ec0565b61071c565b60405161016092919061108f565b60405180910390f35b61017161090b565b60405161017e919061111e565b60405180910390f35b7f000000000000000000000000000000000000000000000000000000000000000081565b6000600160008373ffffffffffffffffffffffffffffffffffffffff1673ffffffffffffffffffffffffffffffffffffffff168152602001908152602001600020600001549050919050565b600060019054906101000a900460ff168061021d575060008054906101000a900460ff16155b61025c576040517f08c379a000000000000000000000000000000000000000000000000000000000815260040161025390611179565b60405180910390fd5b600060029054906101000a900473ffffffffffffffffffffffffffffffffffffffff1673ffffffffffffffffffffffffffffffffffffffff163373ffffffffffffffffffffffffffffffffffffffff16146102ec576040517f08c379a00000000000000000000000000000000000000000000000000000000081526004016102e390611139565b60405180910390fd5b60008060019054906101000a900460ff16159050801561033c576001600060016101000a81548160ff02191690831515021790555060016000806101000a81548160ff0219169083151502179055505b61034783858461092f565b80156103685760008060016101000a81548160ff0219169083151502179055505b50505050565b6000807f000000000000000000000000000000000000000000000000000000000000000073ffffffffffffffffffffffffffffffffffffffff1663624a23e07f36209a57dfd79e3872ec3a0c88c653bbe7e32a12306e5e1f92f118c1936ae8b26040518263ffffffff1660e01b81526004016103ea91906110b8565b60206040518083038186803b15801561040257600080fd5b505afa158015610416573d6000803e3d6000fd5b505050506040513d601f19601f8201168201806040525081019061043a9190610d1b565b905060008173ffffffffffffffffffffffffffffffffffffffff166262104a866040518263ffffffff1660e01b815260040161047691906111b9565b60206040518083038186803b15801561048e57600080fd5b505afa1580156104a2573d6000803e3d6000fd5b505050506040513d601f19601f820116820180604052508101906104c69190610d1b565b90506000801b3073ffffffffffffffffffffffffffffffffffffffff166369e0a1f7836040518263ffffffff1660e01b81526004016105059190611059565b60206040518083038186803b15801561051d57600080fd5b505afa158015610531573d6000803e3d6000fd5b505050506040513d601f19601f820116820180604052508101906105559190610e24565b1415610596576040517f08c379a000000000000000000000000000000000000000000000000000000000815260040161058d90611199565b60405180910390fd5b843373ffffffffffffffffffffffffffffffffffffffff167f71a29581f391d0ca96684c69771724a921678b572e21378712be03e8da07e2ca866040516105dd91906110fc565b60405180910390a38073ffffffffffffffffffffffffffffffffffffffff1663f636a0538686336040518463ffffffff1660e01b8152600401610622939291906111d4565b602060405180830381600087803b15801561063c57600080fd5b505af1158015610650573d6000803e3d6000fd5b505050506040513d601f19601f820116820180604052508101906106749190610db7565b9250505092915050565b7f000000000000000000000000000000000000000000000000000000000000000073ffffffffffffffffffffffffffffffffffffffff163373ffffffffffffffffffffffffffffffffffffffff161461070c576040517f08c379a000000000000000000000000000000000000000000000000000000000815260040161070390611159565b60405180910390fd5b61071783838361092f565b505050565b60008060007f000000000000000000000000000000000000000000000000000000000000000073ffffffffffffffffffffffffffffffffffffffff1663624a23e07f36209a57dfd79e3872ec3a0c88c653bbe7e32a12306e5e1f92f118c1936ae8b26040518263ffffffff1660e01b815260040161079a91906110b8565b60206040518083038186803b1580156107b257600080fd5b505afa1580156107c6573d6000803e3d6000fd5b505050506040513d601f19601f820116820180604052508101906107ea9190610d1b565b905060008173ffffffffffffffffffffffffffffffffffffffff166262104a866040518263ffffffff1660e01b815260040161082691906111b9565b60206040518083038186803b15801561083e57600080fd5b505afa158015610852573d6000803e3d6000fd5b505050506040513d601f19601f820116820180604052508101906108769190610d1b565b90508073ffffffffffffffffffffffffffffffffffffffff1663e343409a866040518263ffffffff1660e01b81526004016108b191906111b9565b604080518083038186803b1580156108c857600080fd5b505afa1580156108dc573d6000803e3d6000fd5b505050506040513d601f19601f820116820180604052508101906109009190610de4565b935093505050915091565b7f000000000000000000000000000000000000000000000000000000000000000081565b604051806040016040528084815260200182815250600160008473ffffffffffffffffffffffffffffffffffffffff1673ffffffffffffffffffffffffffffffffffffffff1681526020019081526020016000206000820151816000015560208201518160010190805190602001906109a9929190610aed565b5090505060007f000000000000000000000000000000000000000000000000000000000000000073ffffffffffffffffffffffffffffffffffffffff1663624a23e07fd578563424ab02f85ec03c6b1aee04947ebdd4a30db46cba3bcd7f56ef40b1996040518263ffffffff1660e01b8152600401610a2891906110b8565b60206040518083038186803b158015610a4057600080fd5b505afa158015610a54573d6000803e3d6000fd5b505050506040513d601f19601f82011682018060405250810190610a789190610d1b565b90508073ffffffffffffffffffffffffffffffffffffffff166338c6878285856040518363ffffffff1660e01b8152600401610ab59291906110d3565b600060405180830381600087803b158015610acf57600080fd5b505af1158015610ae3573d6000803e3d6000fd5b5050505050505050565b828054610af990611390565b90600052602060002090601f016020900481019282610b1b5760008555610b62565b82601f10610b3457805160ff1916838001178555610b62565b82800160010185558215610b62579182015b82811115610b61578251825591602001919060010190610b46565b5b509050610b6f9190610b73565b5090565b5b80821115610b8c576000816000905550600101610b74565b5090565b6000610ba3610b9e84611237565b611212565b905082815260208101848484011115610bbf57610bbe611456565b5b610bca84828561134e565b509392505050565b6000610be5610be084611268565b611212565b905082815260208101848484011115610c0157610c00611456565b5b610c0c84828561134e565b509392505050565b600081359050610c238161151a565b92915050565b600081519050610c388161151a565b92915050565b600081519050610c4d81611531565b92915050565b600081359050610c6281611548565b92915050565b600081519050610c7781611548565b92915050565b600082601f830112610c9257610c91611451565b5b8135610ca2848260208601610b90565b91505092915050565b600082601f830112610cc057610cbf611451565b5b8135610cd0848260208601610bd2565b91505092915050565b600081359050610ce88161155f565b92915050565b600060208284031215610d0457610d03611460565b5b6000610d1284828501610c14565b91505092915050565b600060208284031215610d3157610d30611460565b5b6000610d3f84828501610c29565b91505092915050565b600080600060608486031215610d6157610d60611460565b5b6000610d6f86828701610c14565b9350506020610d8086828701610c53565b925050604084013567ffffffffffffffff811115610da157610da061145b565b5b610dad86828701610cab565b9150509250925092565b600060208284031215610dcd57610dcc611460565b5b6000610ddb84828501610c3e565b91505092915050565b60008060408385031215610dfb57610dfa611460565b5b6000610e0985828601610c3e565b9250506020610e1a85828601610c3e565b9150509250929050565b600060208284031215610e3a57610e39611460565b5b6000610e4884828501610c68565b91505092915050565b600080600060608486031215610e6a57610e69611460565b5b6000610e7886828701610c53565b9350506020610e8986828701610c14565b925050604084013567ffffffffffffffff811115610eaa57610ea961145b565b5b610eb686828701610cab565b9150509250925092565b600060208284031215610ed657610ed5611460565b5b6000610ee484828501610cd9565b91505092915050565b60008060408385031215610f0457610f03611460565b5b6000610f1285828601610cd9565b925050602083013567ffffffffffffffff811115610f3357610f3261145b565b5b610f3f85828601610c7d565b9150509250929050565b610f52816112c6565b82525050565b610f61816112d8565b82525050565b610f70816112e4565b82525050565b6000610f8182611299565b610f8b81856112a4565b9350610f9b81856020860161135d565b610fa481611465565b840191505092915050565b610fb881611318565b82525050565b6000610fcb601c836112b5565b9150610fd682611476565b602082019050919050565b6000610fee601c836112b5565b9150610ff98261149f565b602082019050919050565b6000611011601d836112b5565b915061101c826114c8565b602082019050919050565b60006110346018836112b5565b915061103f826114f1565b602082019050919050565b6110538161130e565b82525050565b600060208201905061106e6000830184610f49565b92915050565b60006020820190506110896000830184610f58565b92915050565b60006040820190506110a46000830185610f58565b6110b16020830184610f58565b9392505050565b60006020820190506110cd6000830184610f67565b92915050565b60006040820190506110e86000830185610f67565b6110f56020830184610f49565b9392505050565b600060208201905081810360008301526111168184610f76565b905092915050565b60006020820190506111336000830184610faf565b92915050565b6000602082019050818103600083015261115281610fbe565b9050919050565b6000602082019050818103600083015261117281610fe1565b9050919050565b6000602082019050818103600083015261119281611004565b9050919050565b600060208201905081810360008301526111b281611027565b9050919050565b60006020820190506111ce600083018461104a565b92915050565b60006060820190506111e9600083018661104a565b81810360208301526111fb8185610f76565b905061120a6040830184610f49565b949350505050565b600061121c61122d565b905061122882826113c2565b919050565b6000604051905090565b600067ffffffffffffffff82111561125257611251611422565b5b61125b82611465565b9050602081019050919050565b600067ffffffffffffffff82111561128357611282611422565b5b61128c82611465565b9050602081019050919050565b600081519050919050565b600082825260208201905092915050565b600082825260208201905092915050565b60006112d1826112ee565b9050919050565b60008115159050919050565b6000819050919050565b600073ffffffffffffffffffffffffffffffffffffffff82169050919050565b6000819050919050565b60006113238261132a565b9050919050565b60006113358261133c565b9050919050565b6000611347826112ee565b9050919050565b82818337600083830152505050565b60005b8381101561137b578082015181840152602081019050611360565b8381111561138a576000848401525b50505050565b600060028204905060018216806113a857607f821691505b602082108114156113bc576113bb6113f3565b5b50919050565b6113cb82611465565b810181811067ffffffffffffffff821117156113ea576113e9611422565b5b80604052505050565b7f4e487b7100000000000000000000000000000000000000000000000000000000600052602260045260246000fd5b7f4e487b7100000000000000000000000000000000000000000000000000000000600052604160045260246000fd5b600080fd5b600080fd5b600080fd5b600080fd5b6000601f19601f8301169050919050565b7f496e69743a204f6e6c79206465706c6f7965722063616e20696e697400000000600082015250565b7f53797374656d3a204f6e6c7920636f72652063616e206d6f6469667900000000600082015250565b7f496e69743a20436f6e747261637420697320696e697469616c697a6564000000600082015250565b7f426f6f74683a20496e76616c696420766f746520747970650000000000000000600082015250565b611523816112c6565b811461152e57600080fd5b50565b61153a816112d8565b811461154557600080fd5b50565b611551816112e4565b811461155c57600080fd5b50565b6115688161130e565b811461157357600080fd5b5056fea2646970667358221220bbf85ada7ca3584dd81f956446dadf92e4b573f552e6a2da32573d32a8b8be1764736f6c63430008070033",
  "linkReferences": {},
  "deployedLinkReferences": {}
}