{
  "_format": "hh-sol-artifact-1",
  "contractName": "VotingBooth",
  "sourceName": "contracts/VotingBooth.sol",
  "abi": [
    {
      "inputs": [
        {
          "internalType": "address",
          "name": "_core",
          "type": "address"
        },
        {
          "internalType": "address",
          "name": "_timer",
          "type": "address"
        }
      ],
      "stateMutability": "nonpayable",
      "type": "constructor"
    },
    {
      "anonymous": false,
      "inputs": [
        {
          "indexed": true,
          "internalType": "address",
          "name": "voter",
          "type": "address"
        },
        {
          "indexed": true,
          "internalType": "uint256",
          "name": "propID",
          "type": "uint256"
        },
        {
          "indexed": false,
          "internalType": "bytes",
          "name": "vote",
          "type": "bytes"
        }
      ],
      "name": "VoteCast",
      "type": "event"
    },
    {
      "inputs": [],
      "name": "IDENTIFIER",
      "outputs": [
        {
          "internalType": "bytes32",
          "name": "",
          "type": "bytes32"
        }
      ],
      "stateMutability": "view",
      "type": "function"
    },
    {
      "inputs": [
        {
          "internalType": "bytes32",
          "name": "_voteType",
          "type": "bytes32"
        },
        {
          "internalType": "address",
          "name": "_instance",
          "type": "address"
        },
        {
          "internalType": "string",
          "name": "_voteFormat",
          "type": "string"
        }
      ],
      "name": "addVoteType",
      "outputs": [],
      "stateMutability": "nonpayable",
      "type": "function"
    },
    {
      "inputs": [
        {
          "internalType": "bytes32",
          "name": "c__0x00e2a1ba",
          "type": "bytes32"
        }
      ],
      "name": "c_0x00e2a1ba",
      "outputs": [],
      "stateMutability": "pure",
      "type": "function"
    },
    {
      "inputs": [
        {
          "internalType": "bytes32",
          "name": "c__0x35ade16d",
          "type": "bytes32"
        }
      ],
      "name": "c_0x35ade16d",
      "outputs": [],
      "stateMutability": "pure",
      "type": "function"
    },
    {
      "inputs": [
        {
          "internalType": "bytes32",
          "name": "c__0xa488d727",
          "type": "bytes32"
        }
      ],
      "name": "c_0xa488d727",
      "outputs": [],
      "stateMutability": "pure",
      "type": "function"
    },
    {
      "inputs": [
        {
          "internalType": "uint256",
          "name": "_propID",
          "type": "uint256"
        }
      ],
      "name": "consensusReached",
      "outputs": [
        {
          "internalType": "bool",
          "name": "reached",
          "type": "bool"
        },
        {
          "internalType": "bool",
          "name": "votePassed",
          "type": "bool"
        }
      ],
      "stateMutability": "view",
      "type": "function"
    },
    {
      "inputs": [],
      "name": "core_",
      "outputs": [
        {
          "internalType": "contract ICore",
          "name": "",
          "type": "address"
        }
      ],
      "stateMutability": "view",
      "type": "function"
    },
    {
      "inputs": [],
      "name": "getCurrentTime",
      "outputs": [
        {
          "internalType": "uint256",
          "name": "",
          "type": "uint256"
        }
      ],
      "stateMutability": "view",
      "type": "function"
    },
    {
      "inputs": [
        {
          "internalType": "address",
          "name": "_instance",
          "type": "address"
        }
      ],
      "name": "getVoteType",
      "outputs": [
        {
          "internalType": "bytes32",
          "name": "",
          "type": "bytes32"
        }
      ],
      "stateMutability": "view",
      "type": "function"
    },
    {
      "inputs": [
        {
          "internalType": "address",
          "name": "_initialVoteInstance",
          "type": "address"
        },
        {
          "internalType": "bytes32",
          "name": "_initialVoteType",
          "type": "bytes32"
        },
        {
          "internalType": "string",
          "name": "_voteFormat",
          "type": "string"
        }
      ],
      "name": "initialise",
      "outputs": [],
      "stateMutability": "nonpayable",
      "type": "function"
    },
    {
      "inputs": [
        {
          "internalType": "uint256",
          "name": "time",
          "type": "uint256"
        }
      ],
      "name": "setCurrentTime",
      "outputs": [],
      "stateMutability": "nonpayable",
      "type": "function"
    },
    {
      "inputs": [],
      "name": "timerAddress",
      "outputs": [
        {
          "internalType": "address",
          "name": "",
          "type": "address"
        }
      ],
      "stateMutability": "view",
      "type": "function"
    },
    {
      "inputs": [
        {
          "internalType": "uint256",
          "name": "_propID",
          "type": "uint256"
        },
        {
          "internalType": "bytes",
          "name": "_vote",
          "type": "bytes"
        }
      ],
      "name": "vote",
      "outputs": [],
      "stateMutability": "nonpayable",
      "type": "function"
    }
  ],
  "bytecode": "0x60c06040523480156200001157600080fd5b5060405162002bad38038062002bad83398181016040528101906200003791906200031c565b7f346b2ab3a980432fd8f2e24828fc9f9ee2df1548701bc542f6ec17882b3276278282806200008f7fbc0a003bb8fab9931eb808559dac1014bd598e04024b8875faae5e60c9d7adc660001b620002fc60201b60201c565b620000c37fc643b4a93fb8ea47dbcab1d450d0c5237e347cfdbbfb564d0f5c0705bc17b0b960001b620002fc60201b60201c565b620000f77f99eda9b013c18feeb073dd7366065243b6adc915936be427d2ffe5bba7dbe99160001b620002fc60201b60201c565b33600060026101000a81548173ffffffffffffffffffffffffffffffffffffffff021916908373ffffffffffffffffffffffffffffffffffffffff16021790555080600160006101000a81548173ffffffffffffffffffffffffffffffffffffffff021916908373ffffffffffffffffffffffffffffffffffffffff16021790555050620001ae7f91b90f81106ec7301a2ef3f3646fc2ac7a03224c1592a81c08bf2be57bf85da360001b620002ff60201b60201c565b620001e27faa1a5f5f7c07ad1d1a00bf086c9ae885f69ed49cd3abc04289c41680f08eda2360001b620002ff60201b60201c565b620002167f96d06dce006a4c22db8a8fd81f6fd8d01ca83c6b578b06c55ae55449f894b56160001b620002ff60201b60201c565b8260808181525050620002527f5df41bcd415e6f031fea4b950841c2b7a0c71533bb77597e55e47143977ffe5060001b620002ff60201b60201c565b620002867f86b081f2885abf844d8a6e92c42bb8b42f1f332206a0f04e515da586d0b809f560001b620002ff60201b60201c565b8173ffffffffffffffffffffffffffffffffffffffff1660a08173ffffffffffffffffffffffffffffffffffffffff1660601b81525050505050620002f47fb53a0f45a68162af9c3f4d4fd1359973a7178923a2b3b842a78479f330328b3860001b6200030260201b60201c565b5050620003b6565b50565b50565b50565b60008151905062000316816200039c565b92915050565b6000806040838503121562000336576200033562000397565b5b6000620003468582860162000305565b9250506020620003598582860162000305565b9150509250929050565b6000620003708262000377565b9050919050565b600073ffffffffffffffffffffffffffffffffffffffff82169050919050565b600080fd5b620003a78162000363565b8114620003b357600080fd5b50565b60805160a05160601c6127ab6200040260003960008181610c8701528181610dac015281816114780152818161167b015281816119150152611a980152600061048d01526127ab6000f3fe608060405234801561001057600080fd5b50600436106100cf5760003560e01c80636e3ce9131161008c578063cbba4b7f11610066578063cbba4b7f146101ea578063e343409a14610206578063eaddd0fd14610237578063f80f605d14610255576100cf565b80636e3ce913146101965780639ef7786d146101b2578063b88b82ba146101ce576100cf565b80631c39c38d146100d457806322f8e566146100f257806329cb924d1461010e578063348291551461012c5780633c9747f31461014857806369e0a1f714610166575b600080fd5b6100dc610271565b6040516100e9919061222a565b60405180910390f35b61010c60048036038101906101079190612041565b610297565b005b610116610383565b604051610123919061238f565b60405180910390f35b61014660048036038101906101419190611f78565b610488565b005b61015061048b565b60405161015d919061226e565b60405180910390f35b610180600480360381019061017b9190611e42565b6104af565b60405161018d919061226e565b60405180910390f35b6101b060048036038101906101ab9190611e9c565b61057f565b005b6101cc60048036038101906101c79190611f78565b610bfc565b005b6101e860048036038101906101e3919061209b565b610bff565b005b61020460048036038101906101ff9190611fd2565b6113c6565b005b610220600480360381019061021b9190612041565b6115f0565b60405161022e929190612245565b60405180910390f35b61023f611913565b60405161024c91906122d4565b60405180910390f35b61026f600480360381019061026a9190611f78565b611937565b005b600160009054906101000a900473ffffffffffffffffffffffffffffffffffffffff1681565b600073ffffffffffffffffffffffffffffffffffffffff16600160009054906101000a900473ffffffffffffffffffffffffffffffffffffffff1673ffffffffffffffffffffffffffffffffffffffff1614156102f357600080fd5b600160009054906101000a900473ffffffffffffffffffffffffffffffffffffffff1673ffffffffffffffffffffffffffffffffffffffff166322f8e566826040518263ffffffff1660e01b815260040161034e919061238f565b600060405180830381600087803b15801561036857600080fd5b505af115801561037c573d6000803e3d6000fd5b5050505050565b60008073ffffffffffffffffffffffffffffffffffffffff16600160009054906101000a900473ffffffffffffffffffffffffffffffffffffffff1673ffffffffffffffffffffffffffffffffffffffff161461048157600160009054906101000a900473ffffffffffffffffffffffffffffffffffffffff1673ffffffffffffffffffffffffffffffffffffffff166329cb924d6040518163ffffffff1660e01b815260040160206040518083038186803b15801561044257600080fd5b505afa158015610456573d6000803e3d6000fd5b505050506040513d601f19601f8201168201806040525081019061047a919061206e565b9050610485565b4290505b90565b50565b7f000000000000000000000000000000000000000000000000000000000000000081565b60006104dd7fb031608ed6257405a443aef2d42fe17ae19e4fca204824a414b6c4d73e513f4060001b611937565b6105097f023c272a138faa387aab79828d4931c639e3d7dfce95b159907bbb6bd182259660001b611937565b6105357fdbd5dbe7c098d8ba1a481792b24c8ce9ec6e5c725c861175f0662e333b3c67ae60001b611937565b600260008373ffffffffffffffffffffffffffffffffffffffff1673ffffffffffffffffffffffffffffffffffffffff168152602001908152602001600020600001549050919050565b6105ab7ff05e22b5428a7e0eea74a732ce102fb9bb0d2f1de097e596d051b0c826afd92860001b610bfc565b6105d77fcc8333d776dbed5bc1d5a69fea8a56e88f87955b6a086409d43cdf5b99a00f9160001b610bfc565b6106037f96e003626c0adb9922999e671f576019384ec3e342797245b19e293fc7ae98b860001b610bfc565b61062f7f0124756d9b2742e29a6e998127a5d65a6fce0de7b15fe3cffaa57159d293eff460001b610bfc565b600060019054906101000a900460ff1680610655575060008054906101000a900460ff16155b610694576040517f08c379a000000000000000000000000000000000000000000000000000000000815260040161068b9061232f565b60405180910390fd5b6106c07f0e0cd9f43fa96f35ac9dcd66bf9394a66239a66b0422c7eb4acaa3ec7af2bca760001b610bfc565b6106ec7fa572db1175cf84948584c963309788099518a5f9406d64b26be0f01abaa7615160001b610bfc565b6107187f524b599d7eb0f1dfc88ccfeb5d98c7465952b834def7a670e3e1ee11de0a1e3760001b610bfc565b6107447f98965d56deb2a09035f26190cf6413a56daf79840e05a39e6a014890174d277a60001b610bfc565b600060029054906101000a900473ffffffffffffffffffffffffffffffffffffffff1673ffffffffffffffffffffffffffffffffffffffff163373ffffffffffffffffffffffffffffffffffffffff16146107d4576040517f08c379a00000000000000000000000000000000000000000000000000000000081526004016107cb906122ef565b60405180910390fd5b6108007fe6d54cb133197a88f121f1222a74c88e9bdb72f2534b716bac552690179fa19b60001b610bfc565b61082c7f2978934513c1680f7d8efe0f61b00f6e798552e162cf38e89079d9080f3639a060001b610bfc565b6108587fb746c40fd73cb0d4ce3270dc8cbf3523878f0b08dc0fe2339e1f2f72a167819a60001b610bfc565b60008060019054906101000a900460ff161590506108987f5666c1bdc7b7d35115b317253332f7f90453602bb5068386a08ea63770d8032460001b610bfc565b6108c47fae1bd2558d584dd4c375d9569fcf63a6ddd2e986550a1722bfbf5c885b8d343c60001b610bfc565b80156109e0576108f67f8827da128743a7905421670199b1e7c0011f34030aea597bb0ed57dd76a8fcbe60001b610bfc565b6109227fd138844c11e5fb387e8063532b614d5d66b6053c6cb9a3b7de9a071516cf13c760001b610bfc565b61094e7f0da07da6706658155f26bbafcbfa954a7537c786b613a4cc9be94703ef8137aa60001b610bfc565b6001600060016101000a81548160ff0219169083151502179055506109957f234d6ab578d89d89ef0e5cfb230d4b62412d2d6aecc02683e842f258b0952f2960001b610bfc565b6109c17fc3fe9f21b0f8c74b901d4bb6665dcddf61902ec0d3feecd24d14288baeb1eeb660001b610bfc565b60016000806101000a81548160ff021916908315150217905550610a0d565b610a0c7f3e978646ed66cc964c98e5a5878ca6f5c9a2a19bbe74dcc13b01cff0472ea07c60001b610bfc565b5b610a397f29ca5100e48f38a7411fb78acc536c44b5db000aa462c2b1360915c045318ca760001b610bfc565b610a657f236df80198c5cc3df08dceb020ec869e66515e8d0fef1e57da7ec05674f7addb60001b611937565b610a917f3b3f8a024a481a39fd08e997b7d483b3e4020452e24951d7dabde8aa06a3f12760001b611937565b610abd7f9c4d3aca426294ffc3288c3acb8e8956a75468523fc1d2884b18d4a8b1445d8a60001b611937565b610ac883858461193a565b610af47fa5f2730f9babc14d334aa306df7fb5c6b1ed3bdfb66f6fc4fafe38d5652f469660001b610bfc565b610b207f181d8291e4a099dfa8d933931fb5a4fab22537d847165af8100ce2c9358055b560001b610bfc565b8015610bc957610b527f8a59cf0f81ee5490e15c424d8aede261eaf6e1217105a123d14893d69aabf35d60001b610bfc565b610b7e7fc5092240012f400b79e17c3d1fb6321ac43d96fa801b72141d16886e1c9be39160001b610bfc565b610baa7ffa61d325b20e902fc90b26bec17d33d3c3bf7800b6a72b6365dfed29c50751f260001b610bfc565b60008060016101000a81548160ff021916908315150217905550610bf6565b610bf57f6f241d49ed4d7add7ad690d1f539edcf9eec47c7016587da77342ab89f45939260001b610bfc565b5b50505050565b50565b610c2b7f2bc9e79750b745d887b2313068d20dd0e2b59dab340665e8aaf1958e08df61bf60001b611937565b610c577f3f7a2e9c10dbb946cfe1801da2bec33ecc3b540b24e12941fe55975ebcaac90760001b611937565b610c837f2e49c722584349d0f7e0ffd2b674ff2fd2d70b9b785924f95352e70070e10c9060001b611937565b60007f000000000000000000000000000000000000000000000000000000000000000073ffffffffffffffffffffffffffffffffffffffff1663624a23e07fd578563424ab02f85ec03c6b1aee04947ebdd4a30db46cba3bcd7f56ef40b1996040518263ffffffff1660e01b8152600401610cfe919061226e565b60206040518083038186803b158015610d1657600080fd5b505afa158015610d2a573d6000803e3d6000fd5b505050506040513d601f19601f82011682018060405250810190610d4e9190611e6f565b9050610d7c7fa73628d803dbb3d8440c7b51354feb60d2b8aa0e19f1ad08e0499f05c42d6bc260001b611937565b610da87fc515cf4a4d13514771bf905353d26b10a42af144b128d73e83c62d78c48062ea60001b611937565b60007f000000000000000000000000000000000000000000000000000000000000000073ffffffffffffffffffffffffffffffffffffffff1663624a23e07f36209a57dfd79e3872ec3a0c88c653bbe7e32a12306e5e1f92f118c1936ae8b26040518263ffffffff1660e01b8152600401610e23919061226e565b60206040518083038186803b158015610e3b57600080fd5b505afa158015610e4f573d6000803e3d6000fd5b505050506040513d601f19601f82011682018060405250810190610e739190611e6f565b9050610ea17f15d3b3e4be8fec21b0ccf54f7220dcbf1b5a2eb744a17c63b33113e5371c267560001b611937565b610ecd7fa2a8b5e3255c19bfaeb44eef57dab765447231d70cd25fcfb11724e67cde736b60001b611937565b60008173ffffffffffffffffffffffffffffffffffffffff166262104a866040518263ffffffff1660e01b8152600401610f07919061238f565b60206040518083038186803b158015610f1f57600080fd5b505afa158015610f33573d6000803e3d6000fd5b505050506040513d601f19601f82011682018060405250810190610f579190611e6f565b9050610f857f58418658495407fae7816f5bcfe2b1d02d215286dcdd2f570c205624eb75876a60001b611937565b610fb17f4905a99996675dc7fdb730bbbd473b2727b4bc640b851e5cd8f32c300baeedff60001b611937565b610fdd7f91dd110213f91b47848541cbe3b64630872b4752631dd02f8e19a3bae7860e9560001b611937565b6000801b3073ffffffffffffffffffffffffffffffffffffffff166369e0a1f7836040518263ffffffff1660e01b815260040161101a919061222a565b60206040518083038186803b15801561103257600080fd5b505afa158015611046573d6000803e3d6000fd5b505050506040513d601f19601f8201168201806040525081019061106a9190611fa5565b14156110ab576040517f08c379a00000000000000000000000000000000000000000000000000000000081526004016110a29061236f565b60405180910390fd5b6110d77f8b9024b16358fb1ff218511ad4f598c6dd5ff4ff6998ffbef2ea403aec26663b60001b611937565b6111037f51627848a9f550b7b5172cc0778169509f146511c47ea91e808b9b2cb11f894060001b611937565b61112f7fb9c43572c5e7760599da01ea81c902189a0a525a2a6eba126ea7a30b80ee27fa60001b611937565b8273ffffffffffffffffffffffffffffffffffffffff1663fd4a77f1866040518263ffffffff1660e01b8152600401611168919061238f565b600060405180830381600087803b15801561118257600080fd5b505af1158015611196573d6000803e3d6000fd5b505050506111c67f5a422337b3f464b6ccf6a5f2c99508d8a1ebf3a003fa641c7a1199df00a9c7e860001b611937565b6111f27f0ee59d7572c19c52f16cd06f6a0d5bffdbd081dbbf14eb4bf21c158e65b0865b60001b611937565b843373ffffffffffffffffffffffffffffffffffffffff167f71a29581f391d0ca96684c69771724a921678b572e21378712be03e8da07e2ca8660405161123991906122b2565b60405180910390a361126d7f50816a7d015b9c3a8175fcd029130d5d3d5a50211146f04c74e6063e7806a7ea60001b611937565b6112997f62c34c8dd1c7571928e5cc38001c6cb59224d92601d9699207dc1491b605166d60001b611937565b6112c57f434bda6d15e02af3ae62c2f580e7418372c2bf9d62684d6478f241763879b1e660001b611937565b8073ffffffffffffffffffffffffffffffffffffffff1663f636a0538686336040518463ffffffff1660e01b8152600401611302939291906123aa565b602060405180830381600087803b15801561131c57600080fd5b505af1158015611330573d6000803e3d6000fd5b505050506040513d601f19601f820116820180604052508101906113549190611f0b565b611393576040517f08c379a000000000000000000000000000000000000000000000000000000000815260040161138a9061234f565b60405180910390fd5b6113bf7f590da3c4982758849ddc4378b57b040795274f5b680b795e677feefb5eb35bd060001b611937565b5050505050565b6113f27fd99be09b63847000f2eb53f5ee50019118df2ab6326deeb5872bd18d87503b5460001b610488565b61141e7f2c77d644d557fb6933dbc4cc49b3e86c80f23ae8d6b864c32d5062edb5f0d62260001b610488565b61144a7f323aff064297e279e575f30b6bb40f48a6804ebbbd1d4e4e70874769d3efb43560001b610488565b6114767f6a760194827939a89f2bddb7ac80b8353403bf9f68f91bcc5eb2a49ba90d7a1760001b610488565b7f000000000000000000000000000000000000000000000000000000000000000073ffffffffffffffffffffffffffffffffffffffff163373ffffffffffffffffffffffffffffffffffffffff1614611504576040517f08c379a00000000000000000000000000000000000000000000000000000000081526004016114fb9061230f565b60405180910390fd5b6115307fa53bc14a73a3e41ae5036a8adef75c20d6c58cb075af602696e9c954447e86d260001b610488565b61155c7fd18cb327c4e8d27581609c177ba735fa88f2b6f52b5a530f744687ea0f030e4260001b610488565b6115887f1dcf8eb9e8112406d9194c974f6c5d561e4986c10ef6a3f806b220f113069a1260001b611937565b6115b47f4cbcac2f719fc249d7b049c269cf43fee8715a3a89177397c1c4dc6f84058a7360001b611937565b6115e07f1f68745f6806004765b6ed9900da40151018aa4dfb3c561cac7fe4a116c6346960001b611937565b6115eb83838361193a565b505050565b60008061161f7f37886ad0124cd3faf8e7b407db9a33708ce9ecd7473080483cf584f0c82df09260001b611937565b61164b7f59a9568c09aea6f78a9932ed4e01330bde81a66affe5e7d9addf03e005f0091660001b611937565b6116777f8b1e5a44af67a1d2f48b5527c359362af3b2928b031c84767192fef9728f08ee60001b611937565b60007f000000000000000000000000000000000000000000000000000000000000000073ffffffffffffffffffffffffffffffffffffffff1663624a23e07f36209a57dfd79e3872ec3a0c88c653bbe7e32a12306e5e1f92f118c1936ae8b26040518263ffffffff1660e01b81526004016116f2919061226e565b60206040518083038186803b15801561170a57600080fd5b505afa15801561171e573d6000803e3d6000fd5b505050506040513d601f19601f820116820180604052508101906117429190611e6f565b90506117707f945e3282a4d7295a341a21ec1100e7bd82975ba0bb15fc5e9e994889184b32c760001b611937565b61179c7f68b346f9775592bfe5721a3db515c2adeb60809ff5ef95a8b0f4ef020e2e6a8260001b611937565b60008173ffffffffffffffffffffffffffffffffffffffff166262104a866040518263ffffffff1660e01b81526004016117d6919061238f565b60206040518083038186803b1580156117ee57600080fd5b505afa158015611802573d6000803e3d6000fd5b505050506040513d601f19601f820116820180604052508101906118269190611e6f565b90506118547fefbd8d89c95333a5ce0f001c9735c53da73a7a4f5f36fc685e8487eb5732f14360001b611937565b6118807f77f5ca8f0e39fa1d61bb51ed96bc7a8c86f31c2ae96a6843e07d060897df96a060001b611937565b8073ffffffffffffffffffffffffffffffffffffffff1663e343409a866040518263ffffffff1660e01b81526004016118b9919061238f565b604080518083038186803b1580156118d057600080fd5b505afa1580156118e4573d6000803e3d6000fd5b505050506040513d601f19601f820116820180604052508101906119089190611f38565b935093505050915091565b7f000000000000000000000000000000000000000000000000000000000000000081565b50565b6119667f5021542ded109edc1db415eed486205c575c9d685688b7bcf5ad4b7948268fba60001b611937565b6119927f7a603aec4401d7989a52c7d4809854f1f64cc621e1416a91591519343e10362a60001b611937565b6119be7f45cdeb0594ddde70b2f7f8fcd63bbd99abbed2994e19bebd54b986ebb7e0b64060001b611937565b604051806040016040528084815260200182815250600260008473ffffffffffffffffffffffffffffffffffffffff1673ffffffffffffffffffffffffffffffffffffffff168152602001908152602001600020600082015181600001556020820151816001019080519060200190611a38929190611c2c565b50905050611a687f92c684accc80cb7365a122ec27f9cd18517dbb2724bb12f28663a3b16b65a0a960001b611937565b611a947f5b0ebf0e012bac87aebf744d3d6a2437559e9af433fbff36d40f16d16ea71e3560001b611937565b60007f000000000000000000000000000000000000000000000000000000000000000073ffffffffffffffffffffffffffffffffffffffff1663624a23e07fd578563424ab02f85ec03c6b1aee04947ebdd4a30db46cba3bcd7f56ef40b1996040518263ffffffff1660e01b8152600401611b0f919061226e565b60206040518083038186803b158015611b2757600080fd5b505afa158015611b3b573d6000803e3d6000fd5b505050506040513d601f19601f82011682018060405250810190611b5f9190611e6f565b9050611b8d7f7eb29e8a05347fb2bc3fa23d1d200163d9694ba75a06c61523ad071f62f254f660001b611937565b611bb97f0ed512c5dccb0f314808596439c8a6272430447e5a44ae4fb139f8a478838e9e60001b611937565b8073ffffffffffffffffffffffffffffffffffffffff166338c6878285856040518363ffffffff1660e01b8152600401611bf4929190612289565b600060405180830381600087803b158015611c0e57600080fd5b505af1158015611c22573d6000803e3d6000fd5b5050505050505050565b828054611c3890612566565b90600052602060002090601f016020900481019282611c5a5760008555611ca1565b82601f10611c7357805160ff1916838001178555611ca1565b82800160010185558215611ca1579182015b82811115611ca0578251825591602001919060010190611c85565b5b509050611cae9190611cb2565b5090565b5b80821115611ccb576000816000905550600101611cb3565b5090565b6000611ce2611cdd8461240d565b6123e8565b905082815260208101848484011115611cfe57611cfd61262c565b5b611d09848285612524565b509392505050565b6000611d24611d1f8461243e565b6123e8565b905082815260208101848484011115611d4057611d3f61262c565b5b611d4b848285612524565b509392505050565b600081359050611d6281612719565b92915050565b600081519050611d7781612719565b92915050565b600081519050611d8c81612730565b92915050565b600081359050611da181612747565b92915050565b600081519050611db681612747565b92915050565b600082601f830112611dd157611dd0612627565b5b8135611de1848260208601611ccf565b91505092915050565b600082601f830112611dff57611dfe612627565b5b8135611e0f848260208601611d11565b91505092915050565b600081359050611e278161275e565b92915050565b600081519050611e3c8161275e565b92915050565b600060208284031215611e5857611e57612636565b5b6000611e6684828501611d53565b91505092915050565b600060208284031215611e8557611e84612636565b5b6000611e9384828501611d68565b91505092915050565b600080600060608486031215611eb557611eb4612636565b5b6000611ec386828701611d53565b9350506020611ed486828701611d92565b925050604084013567ffffffffffffffff811115611ef557611ef4612631565b5b611f0186828701611dea565b9150509250925092565b600060208284031215611f2157611f20612636565b5b6000611f2f84828501611d7d565b91505092915050565b60008060408385031215611f4f57611f4e612636565b5b6000611f5d85828601611d7d565b9250506020611f6e85828601611d7d565b9150509250929050565b600060208284031215611f8e57611f8d612636565b5b6000611f9c84828501611d92565b91505092915050565b600060208284031215611fbb57611fba612636565b5b6000611fc984828501611da7565b91505092915050565b600080600060608486031215611feb57611fea612636565b5b6000611ff986828701611d92565b935050602061200a86828701611d53565b925050604084013567ffffffffffffffff81111561202b5761202a612631565b5b61203786828701611dea565b9150509250925092565b60006020828403121561205757612056612636565b5b600061206584828501611e18565b91505092915050565b60006020828403121561208457612083612636565b5b600061209284828501611e2d565b91505092915050565b600080604083850312156120b2576120b1612636565b5b60006120c085828601611e18565b925050602083013567ffffffffffffffff8111156120e1576120e0612631565b5b6120ed85828601611dbc565b9150509250929050565b6121008161249c565b82525050565b61210f816124ae565b82525050565b61211e816124ba565b82525050565b600061212f8261246f565b612139818561247a565b9350612149818560208601612533565b6121528161263b565b840191505092915050565b612166816124ee565b82525050565b6000612179601c8361248b565b91506121848261264c565b602082019050919050565b600061219c601c8361248b565b91506121a782612675565b602082019050919050565b60006121bf601d8361248b565b91506121ca8261269e565b602082019050919050565b60006121e260128361248b565b91506121ed826126c7565b602082019050919050565b6000612205601d8361248b565b9150612210826126f0565b602082019050919050565b612224816124e4565b82525050565b600060208201905061223f60008301846120f7565b92915050565b600060408201905061225a6000830185612106565b6122676020830184612106565b9392505050565b60006020820190506122836000830184612115565b92915050565b600060408201905061229e6000830185612115565b6122ab60208301846120f7565b9392505050565b600060208201905081810360008301526122cc8184612124565b905092915050565b60006020820190506122e9600083018461215d565b92915050565b600060208201905081810360008301526123088161216c565b9050919050565b600060208201905081810360008301526123288161218f565b9050919050565b60006020820190508181036000830152612348816121b2565b9050919050565b60006020820190508181036000830152612368816121d5565b9050919050565b60006020820190508181036000830152612388816121f8565b9050919050565b60006020820190506123a4600083018461221b565b92915050565b60006060820190506123bf600083018661221b565b81810360208301526123d18185612124565b90506123e060408301846120f7565b949350505050565b60006123f2612403565b90506123fe8282612598565b919050565b6000604051905090565b600067ffffffffffffffff821115612428576124276125f8565b5b6124318261263b565b9050602081019050919050565b600067ffffffffffffffff821115612459576124586125f8565b5b6124628261263b565b9050602081019050919050565b600081519050919050565b600082825260208201905092915050565b600082825260208201905092915050565b60006124a7826124c4565b9050919050565b60008115159050919050565b6000819050919050565b600073ffffffffffffffffffffffffffffffffffffffff82169050919050565b6000819050919050565b60006124f982612500565b9050919050565b600061250b82612512565b9050919050565b600061251d826124c4565b9050919050565b82818337600083830152505050565b60005b83811015612551578082015181840152602081019050612536565b83811115612560576000848401525b50505050565b6000600282049050600182168061257e57607f821691505b60208210811415612592576125916125c9565b5b50919050565b6125a18261263b565b810181811067ffffffffffffffff821117156125c0576125bf6125f8565b5b80604052505050565b7f4e487b7100000000000000000000000000000000000000000000000000000000600052602260045260246000fd5b7f4e487b7100000000000000000000000000000000000000000000000000000000600052604160045260246000fd5b600080fd5b600080fd5b600080fd5b600080fd5b6000601f19601f8301169050919050565b7f496e69743a204f6e6c79206465706c6f7965722063616e20696e697400000000600082015250565b7f53797374656d3a204f6e6c7920636f72652063616e206d6f6469667900000000600082015250565b7f496e69743a20436f6e747261637420697320696e697469616c697a6564000000600082015250565b7f426f6f74683a20566f7465206661696c65640000000000000000000000000000600082015250565b7f426f6f74683a20496e76616c696420766f746520747970652f70726f70000000600082015250565b6127228161249c565b811461272d57600080fd5b50565b612739816124ae565b811461274457600080fd5b50565b612750816124ba565b811461275b57600080fd5b50565b612767816124e4565b811461277257600080fd5b5056fea2646970667358221220ac838a302b1035c5ad6574889192ace5d441eec43c378448969f0ae7a99c557f64736f6c63430008070033",
  "linkReferences": {},
  "deployedLinkReferences": {}
}