{
  "_format": "hh-sol-artifact-1",
  "contractName": "VotingBooth",
  "sourceName": "contracts/VotingBooth.sol",
  "abi": [
    {
      "inputs": [
        {
          "internalType": "address",
          "name": "_core",
          "type": "address"
        },
        {
          "internalType": "address",
          "name": "_timer",
          "type": "address"
        }
      ],
      "stateMutability": "nonpayable",
      "type": "constructor"
    },
    {
      "anonymous": false,
      "inputs": [
        {
          "indexed": true,
          "internalType": "address",
          "name": "voter",
          "type": "address"
        },
        {
          "indexed": true,
          "internalType": "uint256",
          "name": "propID",
          "type": "uint256"
        },
        {
          "indexed": false,
          "internalType": "bytes",
          "name": "vote",
          "type": "bytes"
        }
      ],
      "name": "VoteCast",
      "type": "event"
    },
    {
      "inputs": [],
      "name": "IDENTIFIER",
      "outputs": [
        {
          "internalType": "bytes32",
          "name": "",
          "type": "bytes32"
        }
      ],
      "stateMutability": "view",
      "type": "function"
    },
    {
      "inputs": [
        {
          "internalType": "bytes32",
          "name": "_voteType",
          "type": "bytes32"
        },
        {
          "internalType": "address",
          "name": "_instance",
          "type": "address"
        },
        {
          "internalType": "string",
          "name": "_voteFormat",
          "type": "string"
        }
      ],
      "name": "addVoteType",
      "outputs": [],
      "stateMutability": "nonpayable",
      "type": "function"
    },
    {
      "inputs": [
        {
          "internalType": "bytes32",
          "name": "c__0x00e2a1ba",
          "type": "bytes32"
        }
      ],
      "name": "c_0x00e2a1ba",
      "outputs": [],
      "stateMutability": "pure",
      "type": "function"
    },
    {
      "inputs": [
        {
          "internalType": "bytes32",
          "name": "c__0x0da7e8db",
          "type": "bytes32"
        }
      ],
      "name": "c_0x0da7e8db",
      "outputs": [],
      "stateMutability": "pure",
      "type": "function"
    },
    {
      "inputs": [
        {
          "internalType": "bytes32",
          "name": "c__0x35ade16d",
          "type": "bytes32"
        }
      ],
      "name": "c_0x35ade16d",
      "outputs": [],
      "stateMutability": "pure",
      "type": "function"
    },
    {
      "inputs": [
        {
          "internalType": "bytes32",
          "name": "c__0xa488d727",
          "type": "bytes32"
        }
      ],
      "name": "c_0xa488d727",
      "outputs": [],
      "stateMutability": "pure",
      "type": "function"
    },
    {
      "inputs": [
        {
          "internalType": "uint256",
          "name": "_propID",
          "type": "uint256"
        }
      ],
      "name": "consensusReached",
      "outputs": [
        {
          "internalType": "bool",
          "name": "reached",
          "type": "bool"
        },
        {
          "internalType": "bool",
          "name": "votePassed",
          "type": "bool"
        }
      ],
      "stateMutability": "view",
      "type": "function"
    },
    {
      "inputs": [],
      "name": "core_",
      "outputs": [
        {
          "internalType": "contract ICore",
          "name": "",
          "type": "address"
        }
      ],
      "stateMutability": "view",
      "type": "function"
    },
    {
      "inputs": [],
      "name": "getCurrentTime",
      "outputs": [
        {
          "internalType": "uint256",
          "name": "",
          "type": "uint256"
        }
      ],
      "stateMutability": "view",
      "type": "function"
    },
    {
      "inputs": [
        {
          "internalType": "address",
          "name": "_instance",
          "type": "address"
        }
      ],
      "name": "getVoteType",
      "outputs": [
        {
          "internalType": "bytes32",
          "name": "",
          "type": "bytes32"
        }
      ],
      "stateMutability": "view",
      "type": "function"
    },
    {
      "inputs": [
        {
          "internalType": "address",
          "name": "_initialVoteInstance",
          "type": "address"
        },
        {
          "internalType": "bytes32",
          "name": "_initialVoteType",
          "type": "bytes32"
        },
        {
          "internalType": "string",
          "name": "_voteFormat",
          "type": "string"
        }
      ],
      "name": "initialise",
      "outputs": [],
      "stateMutability": "nonpayable",
      "type": "function"
    },
    {
      "inputs": [
        {
          "internalType": "uint256",
          "name": "time",
          "type": "uint256"
        }
      ],
      "name": "setCurrentTime",
      "outputs": [],
      "stateMutability": "nonpayable",
      "type": "function"
    },
    {
      "inputs": [],
      "name": "timerAddress",
      "outputs": [
        {
          "internalType": "address",
          "name": "",
          "type": "address"
        }
      ],
      "stateMutability": "view",
      "type": "function"
    },
    {
      "inputs": [
        {
          "internalType": "uint256",
          "name": "_propID",
          "type": "uint256"
        },
        {
          "internalType": "bytes",
          "name": "_vote",
          "type": "bytes"
        }
      ],
      "name": "vote",
      "outputs": [],
      "stateMutability": "nonpayable",
      "type": "function"
    }
  ],
  "bytecode": "0x60c06040523480156200001157600080fd5b5060405162002f9e38038062002f9e8339818101604052810190620000379190620003bb565b7f346b2ab3a980432fd8f2e24828fc9f9ee2df1548701bc542f6ec17882b3276278282806200008f7fcc8333d776dbed5bc1d5a69fea8a56e88f87955b6a086409d43cdf5b99a00f9160001b6200039860201b60201c565b620000c37f96e003626c0adb9922999e671f576019384ec3e342797245b19e293fc7ae98b860001b6200039860201b60201c565b620000f77f0124756d9b2742e29a6e998127a5d65a6fce0de7b15fe3cffaa57159d293eff460001b6200039860201b60201c565b33600060026101000a81548173ffffffffffffffffffffffffffffffffffffffff021916908373ffffffffffffffffffffffffffffffffffffffff1602179055506200016c7fb4dd8b063f43faf32d5335822e2f70ca2407748b186159c1ed4fe5975bf48fa460001b6200039b60201b60201c565b620001a07fdf0a09891d7ec0658602054cf2c2e2a41244c011d975b6b3df84f87f4e01f1fa60001b6200039b60201b60201c565b620001d47f74aa4cf06a04b763c651dbe9c8d04358ebbbd2cc4e1e17afd7713fac4af5ab8260001b6200039b60201b60201c565b80600160006101000a81548173ffffffffffffffffffffffffffffffffffffffff021916908373ffffffffffffffffffffffffffffffffffffffff160217905550506200024a7f91b90f81106ec7301a2ef3f3646fc2ac7a03224c1592a81c08bf2be57bf85da360001b6200039e60201b60201c565b6200027e7faa1a5f5f7c07ad1d1a00bf086c9ae885f69ed49cd3abc04289c41680f08eda2360001b6200039e60201b60201c565b620002b27f96d06dce006a4c22db8a8fd81f6fd8d01ca83c6b578b06c55ae55449f894b56160001b6200039e60201b60201c565b8260808181525050620002ee7f5df41bcd415e6f031fea4b950841c2b7a0c71533bb77597e55e47143977ffe5060001b6200039e60201b60201c565b620003227f86b081f2885abf844d8a6e92c42bb8b42f1f332206a0f04e515da586d0b809f560001b6200039e60201b60201c565b8173ffffffffffffffffffffffffffffffffffffffff1660a08173ffffffffffffffffffffffffffffffffffffffff1660601b81525050505050620003907f20e301b245501259369e37be8d7225dd84142e6ce8ccf6f29294cb13143b29b760001b620003a160201b60201c565b505062000455565b50565b50565b50565b50565b600081519050620003b5816200043b565b92915050565b60008060408385031215620003d557620003d462000436565b5b6000620003e585828601620003a4565b9250506020620003f885828601620003a4565b9150509250929050565b60006200040f8262000416565b9050919050565b600073ffffffffffffffffffffffffffffffffffffffff82169050919050565b600080fd5b620004468162000402565b81146200045257600080fd5b50565b60805160a05160601c612afd620004a160003960008181610fda015281816110ff015281816117ca015281816119cd01528181611c670152611dea015260006107dd0152612afd6000f3fe608060405234801561001057600080fd5b50600436106100ea5760003560e01c80636e3ce9131161008c578063cbba4b7f11610066578063cbba4b7f14610221578063e343409a1461023d578063eaddd0fd1461026e578063f80f605d1461028c576100ea565b80636e3ce913146101cd5780639ef7786d146101e9578063b88b82ba14610205576100ea565b806334829155116100c857806334829155146101475780633c9747f31461016357806361e4a6c91461018157806369e0a1f71461019d576100ea565b80631c39c38d146100ef57806322f8e5661461010d57806329cb924d14610129575b600080fd5b6100f76102a8565b604051610104919061257c565b60405180910390f35b61012760048036038101906101229190612393565b6102ce565b005b610131610546565b60405161013e91906126e1565b60405180910390f35b610161600480360381019061015c91906122ca565b6107d8565b005b61016b6107db565b60405161017891906125c0565b60405180910390f35b61019b600480360381019061019691906122ca565b6107ff565b005b6101b760048036038101906101b29190612194565b610802565b6040516101c491906125c0565b60405180910390f35b6101e760048036038101906101e291906121ee565b6108d2565b005b61020360048036038101906101fe91906122ca565b610f4f565b005b61021f600480360381019061021a91906123ed565b610f52565b005b61023b60048036038101906102369190612324565b611718565b005b61025760048036038101906102529190612393565b611942565b604051610265929190612597565b60405180910390f35b610276611c65565b6040516102839190612626565b60405180910390f35b6102a660048036038101906102a191906122ca565b611c89565b005b600160009054906101000a900473ffffffffffffffffffffffffffffffffffffffff1681565b6102fa7f6f9ae8edea4a5ca594982c8c889dce6d3960ecead6d85640cfaeefab4965137c60001b6107ff565b6103267f6eebb330cb0c74c8c0a3ebded6ac701f48b060de13591c74ab4785681b589f0c60001b6107ff565b6103527f36c1556249a63a81b58af6fdcad0065ddcb58894bd16e2b1bf48df8c292c738560001b6107ff565b61037e7f27d0da14a88f9fdfd196625fc7df7cbe0aa29fb76c0f7bf605cbb6d8aea6f1ff60001b6107ff565b600073ffffffffffffffffffffffffffffffffffffffff16600160009054906101000a900473ffffffffffffffffffffffffffffffffffffffff1673ffffffffffffffffffffffffffffffffffffffff1614156103da57600080fd5b6104067f627e7f681529433198cf60e7806c37173ef6d256c8dad2832dc14d984d63c81560001b6107ff565b6104327faf0631e8e987467954b158416256f14065683e999a12c243f4a4bc80c6573a8160001b6107ff565b61045e7fa032f460f3852175b8933100cc9d781f5b5cff200a63b0672b41cef6cafef80c60001b6107ff565b61048a7f900be1020eac74e7a6523a153b11dd4ba203e5d968d1d2d104979e3ff33e9cef60001b6107ff565b6104b67f6d7d330e8510a19129b2b889c08c7f30e23b59da3f683ee0df8e8e5100917e1760001b6107ff565b600160009054906101000a900473ffffffffffffffffffffffffffffffffffffffff1673ffffffffffffffffffffffffffffffffffffffff166322f8e566826040518263ffffffff1660e01b815260040161051191906126e1565b600060405180830381600087803b15801561052b57600080fd5b505af115801561053f573d6000803e3d6000fd5b5050505050565b60006105747fd47833f51fc5ec0f8a24234f14627d428c69063796f9630201d1dc1058ae8e5760001b6107ff565b6105a07f0b69545d716b02169fb0a154958cf479d6c74febdce881af2cad9c6bed4b0c3b60001b6107ff565b6105cc7f570eff7e9b79704810f3de14032f6898e0c4ee6c9024ca8a4efe0aea7091fa5f60001b6107ff565b600073ffffffffffffffffffffffffffffffffffffffff16600160009054906101000a900473ffffffffffffffffffffffffffffffffffffffff1673ffffffffffffffffffffffffffffffffffffffff161461074d5761064e7f647590469700e029974926aa472ac468fe95744326892633413c8c201ed298c060001b6107ff565b61067a7f107a4f7720644a8f8f993f44f4c11c80b4c882005d7ffff284e62ffc5cd9533b60001b6107ff565b6106a67f449a6ac96c66c2f10c6f7037b7566faf778bcdfef39e56e364596f87914ef8a260001b6107ff565b600160009054906101000a900473ffffffffffffffffffffffffffffffffffffffff1673ffffffffffffffffffffffffffffffffffffffff166329cb924d6040518163ffffffff1660e01b815260040160206040518083038186803b15801561070e57600080fd5b505afa158015610722573d6000803e3d6000fd5b505050506040513d601f19601f8201168201806040525081019061074691906123c0565b90506107d5565b6107797ff81c329ab48f42d2998e2454dc7c351806520aa7f6d72b2e468d72814fdfe64a60001b6107ff565b6107a57fc5895091758a048fba2cd20e5b0c510227acf44c1b622ab8b72e135767e7aa6660001b6107ff565b6107d17fb60b2b01d584079a590a86b90ecde07699cb728ea718e85d0f63afb9f1bbc67360001b6107ff565b4290505b90565b50565b7f000000000000000000000000000000000000000000000000000000000000000081565b50565b60006108307f795d9a3877df59c50d7cbd9e34674e736ae8f6359406d00c6c7b7b35b1b1933960001b611c89565b61085c7f9e0b6b1c699869ed646dff13f5d853701d2a30898241a48c8d5b8cca6632b61260001b611c89565b6108887f268eba765ef4f021d3cc1c62569ec90e6626cbdd023d3aa0359a47e3a419b80660001b611c89565b600260008373ffffffffffffffffffffffffffffffffffffffff1673ffffffffffffffffffffffffffffffffffffffff168152602001908152602001600020600001549050919050565b6108fe7f0e0cd9f43fa96f35ac9dcd66bf9394a66239a66b0422c7eb4acaa3ec7af2bca760001b610f4f565b61092a7fa572db1175cf84948584c963309788099518a5f9406d64b26be0f01abaa7615160001b610f4f565b6109567f524b599d7eb0f1dfc88ccfeb5d98c7465952b834def7a670e3e1ee11de0a1e3760001b610f4f565b6109827f98965d56deb2a09035f26190cf6413a56daf79840e05a39e6a014890174d277a60001b610f4f565b600060019054906101000a900460ff16806109a8575060008054906101000a900460ff16155b6109e7576040517f08c379a00000000000000000000000000000000000000000000000000000000081526004016109de90612681565b60405180910390fd5b610a137fe6d54cb133197a88f121f1222a74c88e9bdb72f2534b716bac552690179fa19b60001b610f4f565b610a3f7f2978934513c1680f7d8efe0f61b00f6e798552e162cf38e89079d9080f3639a060001b610f4f565b610a6b7fb746c40fd73cb0d4ce3270dc8cbf3523878f0b08dc0fe2339e1f2f72a167819a60001b610f4f565b610a977f5666c1bdc7b7d35115b317253332f7f90453602bb5068386a08ea63770d8032460001b610f4f565b600060029054906101000a900473ffffffffffffffffffffffffffffffffffffffff1673ffffffffffffffffffffffffffffffffffffffff163373ffffffffffffffffffffffffffffffffffffffff1614610b27576040517f08c379a0000000000000000000000000000000000000000000000000000000008152600401610b1e90612641565b60405180910390fd5b610b537fae1bd2558d584dd4c375d9569fcf63a6ddd2e986550a1722bfbf5c885b8d343c60001b610f4f565b610b7f7f8827da128743a7905421670199b1e7c0011f34030aea597bb0ed57dd76a8fcbe60001b610f4f565b610bab7fd138844c11e5fb387e8063532b614d5d66b6053c6cb9a3b7de9a071516cf13c760001b610f4f565b60008060019054906101000a900460ff16159050610beb7f0da07da6706658155f26bbafcbfa954a7537c786b613a4cc9be94703ef8137aa60001b610f4f565b610c177f234d6ab578d89d89ef0e5cfb230d4b62412d2d6aecc02683e842f258b0952f2960001b610f4f565b8015610d3357610c497fc3fe9f21b0f8c74b901d4bb6665dcddf61902ec0d3feecd24d14288baeb1eeb660001b610f4f565b610c757f3e978646ed66cc964c98e5a5878ca6f5c9a2a19bbe74dcc13b01cff0472ea07c60001b610f4f565b610ca17f29ca5100e48f38a7411fb78acc536c44b5db000aa462c2b1360915c045318ca760001b610f4f565b6001600060016101000a81548160ff021916908315150217905550610ce87fa5f2730f9babc14d334aa306df7fb5c6b1ed3bdfb66f6fc4fafe38d5652f469660001b610f4f565b610d147f181d8291e4a099dfa8d933931fb5a4fab22537d847165af8100ce2c9358055b560001b610f4f565b60016000806101000a81548160ff021916908315150217905550610d60565b610d5f7f8a59cf0f81ee5490e15c424d8aede261eaf6e1217105a123d14893d69aabf35d60001b610f4f565b5b610d8c7fc5092240012f400b79e17c3d1fb6321ac43d96fa801b72141d16886e1c9be39160001b610f4f565b610db87f6deca4f453a289b46deb0da759038c2a86474990e183d3f8694ac9eefeec4b0260001b611c89565b610de47fc04285430a40f790411398e8a499de2abe1954a4b0690cfa8ef72ca134ef6ad460001b611c89565b610e107fe9dc03462301f47c9700d5da5017e64c810c601dcf39780a79fca1457868491260001b611c89565b610e1b838584611c8c565b610e477ffa61d325b20e902fc90b26bec17d33d3c3bf7800b6a72b6365dfed29c50751f260001b610f4f565b610e737f6f241d49ed4d7add7ad690d1f539edcf9eec47c7016587da77342ab89f45939260001b610f4f565b8015610f1c57610ea57fbc5b20eaf8827dd1b8876361d943d3b4be9fa479d6620c48df64e11b5241c1d860001b610f4f565b610ed17fcd9c9ee58d0224a02f67a02ea3cac30b05ad3a9f1a6fa924e92f56395a167ba760001b610f4f565b610efd7fcd058c89f1cef595e4be1f9ca2f3cf5043a8e40a2a840a0a3c6eda59e241aa7160001b610f4f565b60008060016101000a81548160ff021916908315150217905550610f49565b610f487f8fd60aebfbf035724a35db2472efd6c6271cb9083fdfb84a1ce7898d354ba3f960001b610f4f565b5b50505050565b50565b610f7e7f9eed84bb1b7593253bcad2e85ce2b44ee97593a7f81dfc9f2a90a6ff7b349b1460001b611c89565b610faa7fe3b0be48b2de93f443a4f4d16fb1127caee83b176888b3f757879ca564ea48c660001b611c89565b610fd67fbb67b382003e5a7308f35957b35ecdaa3d12c72437931c9e874d856c8a9cea8f60001b611c89565b60007f000000000000000000000000000000000000000000000000000000000000000073ffffffffffffffffffffffffffffffffffffffff1663624a23e07fd578563424ab02f85ec03c6b1aee04947ebdd4a30db46cba3bcd7f56ef40b1996040518263ffffffff1660e01b815260040161105191906125c0565b60206040518083038186803b15801561106957600080fd5b505afa15801561107d573d6000803e3d6000fd5b505050506040513d601f19601f820116820180604052508101906110a191906121c1565b90506110cf7feb1e5fba73e6a4e664524f5b201564667465f41c0ec2c2c99c43c41eb229ea1960001b611c89565b6110fb7f2e522d1ffe1633aea0281be326bfd04793832c600d21cddf7c1e8a4f1b528fec60001b611c89565b60007f000000000000000000000000000000000000000000000000000000000000000073ffffffffffffffffffffffffffffffffffffffff1663624a23e07f36209a57dfd79e3872ec3a0c88c653bbe7e32a12306e5e1f92f118c1936ae8b26040518263ffffffff1660e01b815260040161117691906125c0565b60206040518083038186803b15801561118e57600080fd5b505afa1580156111a2573d6000803e3d6000fd5b505050506040513d601f19601f820116820180604052508101906111c691906121c1565b90506111f47fe16aa709e9cb0e2d0d6b40daf15cf2a9bbb9f23fa9843fd3a2cdd4dbe703645660001b611c89565b6112207f0fc88a97738358a9046464f0caead16e24df93557331524c7416ca089e16f63f60001b611c89565b60008173ffffffffffffffffffffffffffffffffffffffff166262104a866040518263ffffffff1660e01b815260040161125a91906126e1565b60206040518083038186803b15801561127257600080fd5b505afa158015611286573d6000803e3d6000fd5b505050506040513d601f19601f820116820180604052508101906112aa91906121c1565b90506112d87f5e7ba79ae07907d0415c1722736ef2ccdb10161e8c101c29591f779e9def911b60001b611c89565b6113037eed449e3cc73112ebe03d25f94e6134a7a1806c2ffddee382ea9cd019f8a53260001b611c89565b61132f7f73130e4f0985eab8bbf5cf1b19cf46f29e86218aaa372bae1658cc80cb3648f960001b611c89565b6000801b3073ffffffffffffffffffffffffffffffffffffffff166369e0a1f7836040518263ffffffff1660e01b815260040161136c919061257c565b60206040518083038186803b15801561138457600080fd5b505afa158015611398573d6000803e3d6000fd5b505050506040513d601f19601f820116820180604052508101906113bc91906122f7565b14156113fd576040517f08c379a00000000000000000000000000000000000000000000000000000000081526004016113f4906126c1565b60405180910390fd5b6114297f58488e3b18291be601e5e7bbffd95b55cec04f5173a0dd20e631f81fd8f77aa660001b611c89565b6114557f8209e1ff5050fecb5eccd9c35e8c459d0068cbd552116bdb7f43914b377cb05b60001b611c89565b6114817f29b04b61e158d4d1dbab4289684f8b629220c89d67bc83455c1d6350358b48b460001b611c89565b8273ffffffffffffffffffffffffffffffffffffffff1663fd4a77f1866040518263ffffffff1660e01b81526004016114ba91906126e1565b600060405180830381600087803b1580156114d457600080fd5b505af11580156114e8573d6000803e3d6000fd5b505050506115187fa3b65dcbd2d8273ad3558eee453fe417fc0b2a61c0b820f48f211a218c7f843760001b611c89565b6115447fdf935b0472ec99d796d44b187bf47360ce693cd8bb0a92d5bc5b217f967fc42860001b611c89565b843373ffffffffffffffffffffffffffffffffffffffff167f71a29581f391d0ca96684c69771724a921678b572e21378712be03e8da07e2ca8660405161158b9190612604565b60405180910390a36115bf7f187b7798bc58313a548d4dabd760f61a6aafa882fde5423f6f0b8b3c664e7d8160001b611c89565b6115eb7fa5badf625248f6ce851ab082abac789547a37939c6bc29f42076afb55756036660001b611c89565b6116177f5da412b4f2aa7e5b09b445d0f93e992452adadabf704f3a2f3198450899f09c760001b611c89565b8073ffffffffffffffffffffffffffffffffffffffff1663f636a0538686336040518463ffffffff1660e01b8152600401611654939291906126fc565b602060405180830381600087803b15801561166e57600080fd5b505af1158015611682573d6000803e3d6000fd5b505050506040513d601f19601f820116820180604052508101906116a6919061225d565b6116e5576040517f08c379a00000000000000000000000000000000000000000000000000000000081526004016116dc906126a1565b60405180910390fd5b6117117fc296d85d53902225458fb067e585ef7f78a20f1f134fbbc30ec029cf7252df9460001b611c89565b5050505050565b6117447fd99be09b63847000f2eb53f5ee50019118df2ab6326deeb5872bd18d87503b5460001b6107d8565b6117707f2c77d644d557fb6933dbc4cc49b3e86c80f23ae8d6b864c32d5062edb5f0d62260001b6107d8565b61179c7f323aff064297e279e575f30b6bb40f48a6804ebbbd1d4e4e70874769d3efb43560001b6107d8565b6117c87f6a760194827939a89f2bddb7ac80b8353403bf9f68f91bcc5eb2a49ba90d7a1760001b6107d8565b7f000000000000000000000000000000000000000000000000000000000000000073ffffffffffffffffffffffffffffffffffffffff163373ffffffffffffffffffffffffffffffffffffffff1614611856576040517f08c379a000000000000000000000000000000000000000000000000000000000815260040161184d90612661565b60405180910390fd5b6118827fa53bc14a73a3e41ae5036a8adef75c20d6c58cb075af602696e9c954447e86d260001b6107d8565b6118ae7fd18cb327c4e8d27581609c177ba735fa88f2b6f52b5a530f744687ea0f030e4260001b6107d8565b6118da7f34e9f9abc8e3ed5c0e9ec970946bf569567fcdd9e9990bd230f682833d467d5360001b611c89565b6119067f49471f2e5879c60d20b5c36e3137f8faf6140b024832103c417d02896c92da4c60001b611c89565b6119327f38133fcc99dcf90611e53c9aa2f989e3bda4505180f34a9698bddb9d7f9ded9760001b611c89565b61193d838383611c8c565b505050565b6000806119717f1a2a833179bf870ac479530e1c0005199824502016daf8d3e9a86a7b3f8a572660001b611c89565b61199d7f8fbb27594e04d25472fc1b0257b398fe359ddd0b9224479cda95c0716f07e69260001b611c89565b6119c97f6498886735d059c5d5a7f134b1eefb091fc0ae31cebaeb2de0bbbd6e66274b8c60001b611c89565b60007f000000000000000000000000000000000000000000000000000000000000000073ffffffffffffffffffffffffffffffffffffffff1663624a23e07f36209a57dfd79e3872ec3a0c88c653bbe7e32a12306e5e1f92f118c1936ae8b26040518263ffffffff1660e01b8152600401611a4491906125c0565b60206040518083038186803b158015611a5c57600080fd5b505afa158015611a70573d6000803e3d6000fd5b505050506040513d601f19601f82011682018060405250810190611a9491906121c1565b9050611ac27f36175085539d7c61a6b52a4f8ddca6675fe96383d0e3be8b3be83de8f686c73460001b611c89565b611aee7fd457b468fcce0b52be9602116b34f5f5b03acd8fb44f0caaadee1474d03489c660001b611c89565b60008173ffffffffffffffffffffffffffffffffffffffff166262104a866040518263ffffffff1660e01b8152600401611b2891906126e1565b60206040518083038186803b158015611b4057600080fd5b505afa158015611b54573d6000803e3d6000fd5b505050506040513d601f19601f82011682018060405250810190611b7891906121c1565b9050611ba67fea89ab7d0b5dca78ec5bbdfa6975040d576282df28078eac16a716e64935f18160001b611c89565b611bd27f59c9217fcc3472327a05dd1a48ba7fe612834937b838f644760c9a67ba9eaa8860001b611c89565b8073ffffffffffffffffffffffffffffffffffffffff1663e343409a866040518263ffffffff1660e01b8152600401611c0b91906126e1565b604080518083038186803b158015611c2257600080fd5b505afa158015611c36573d6000803e3d6000fd5b505050506040513d601f19601f82011682018060405250810190611c5a919061228a565b935093505050915091565b7f000000000000000000000000000000000000000000000000000000000000000081565b50565b611cb87f79ba87b8cfc0b5801389af96eb8452d872cd699f9441f5ff5fb51d0f6f87afc160001b611c89565b611ce47fb767effed426d92018e744ca02cd598dd87654c680f9c45490eb7617a25ab7b760001b611c89565b611d107f8307d7985cbb0c659670579589c0d8028c0e83452f287a565927bae45e2bea9f60001b611c89565b604051806040016040528084815260200182815250600260008473ffffffffffffffffffffffffffffffffffffffff1673ffffffffffffffffffffffffffffffffffffffff168152602001908152602001600020600082015181600001556020820151816001019080519060200190611d8a929190611f7e565b50905050611dba7fedf25e3f01fb3f4058bf7d48b1db4989e324069548d4380faa4d44177dbbbe1360001b611c89565b611de67f048d794d3c081e07f1e1476320ca67fa331d49174a128d092e53e346bf429b2360001b611c89565b60007f000000000000000000000000000000000000000000000000000000000000000073ffffffffffffffffffffffffffffffffffffffff1663624a23e07fd578563424ab02f85ec03c6b1aee04947ebdd4a30db46cba3bcd7f56ef40b1996040518263ffffffff1660e01b8152600401611e6191906125c0565b60206040518083038186803b158015611e7957600080fd5b505afa158015611e8d573d6000803e3d6000fd5b505050506040513d601f19601f82011682018060405250810190611eb191906121c1565b9050611edf7fdbdb38c1d7ffd21eac878b301e55269779d45d181588b90c14ab00caa25f055260001b611c89565b611f0b7f6ce54d17bd300a0f449748996ec5e44e9db861114c71ed6a8768349c06fcb72960001b611c89565b8073ffffffffffffffffffffffffffffffffffffffff166338c6878285856040518363ffffffff1660e01b8152600401611f469291906125db565b600060405180830381600087803b158015611f6057600080fd5b505af1158015611f74573d6000803e3d6000fd5b5050505050505050565b828054611f8a906128b8565b90600052602060002090601f016020900481019282611fac5760008555611ff3565b82601f10611fc557805160ff1916838001178555611ff3565b82800160010185558215611ff3579182015b82811115611ff2578251825591602001919060010190611fd7565b5b5090506120009190612004565b5090565b5b8082111561201d576000816000905550600101612005565b5090565b600061203461202f8461275f565b61273a565b9050828152602081018484840111156120505761204f61297e565b5b61205b848285612876565b509392505050565b600061207661207184612790565b61273a565b9050828152602081018484840111156120925761209161297e565b5b61209d848285612876565b509392505050565b6000813590506120b481612a6b565b92915050565b6000815190506120c981612a6b565b92915050565b6000815190506120de81612a82565b92915050565b6000813590506120f381612a99565b92915050565b60008151905061210881612a99565b92915050565b600082601f83011261212357612122612979565b5b8135612133848260208601612021565b91505092915050565b600082601f83011261215157612150612979565b5b8135612161848260208601612063565b91505092915050565b60008135905061217981612ab0565b92915050565b60008151905061218e81612ab0565b92915050565b6000602082840312156121aa576121a9612988565b5b60006121b8848285016120a5565b91505092915050565b6000602082840312156121d7576121d6612988565b5b60006121e5848285016120ba565b91505092915050565b60008060006060848603121561220757612206612988565b5b6000612215868287016120a5565b9350506020612226868287016120e4565b925050604084013567ffffffffffffffff81111561224757612246612983565b5b6122538682870161213c565b9150509250925092565b60006020828403121561227357612272612988565b5b6000612281848285016120cf565b91505092915050565b600080604083850312156122a1576122a0612988565b5b60006122af858286016120cf565b92505060206122c0858286016120cf565b9150509250929050565b6000602082840312156122e0576122df612988565b5b60006122ee848285016120e4565b91505092915050565b60006020828403121561230d5761230c612988565b5b600061231b848285016120f9565b91505092915050565b60008060006060848603121561233d5761233c612988565b5b600061234b868287016120e4565b935050602061235c868287016120a5565b925050604084013567ffffffffffffffff81111561237d5761237c612983565b5b6123898682870161213c565b9150509250925092565b6000602082840312156123a9576123a8612988565b5b60006123b78482850161216a565b91505092915050565b6000602082840312156123d6576123d5612988565b5b60006123e48482850161217f565b91505092915050565b6000806040838503121561240457612403612988565b5b60006124128582860161216a565b925050602083013567ffffffffffffffff81111561243357612432612983565b5b61243f8582860161210e565b9150509250929050565b612452816127ee565b82525050565b61246181612800565b82525050565b6124708161280c565b82525050565b6000612481826127c1565b61248b81856127cc565b935061249b818560208601612885565b6124a48161298d565b840191505092915050565b6124b881612840565b82525050565b60006124cb601c836127dd565b91506124d68261299e565b602082019050919050565b60006124ee601c836127dd565b91506124f9826129c7565b602082019050919050565b6000612511601d836127dd565b915061251c826129f0565b602082019050919050565b60006125346012836127dd565b915061253f82612a19565b602082019050919050565b6000612557601d836127dd565b915061256282612a42565b602082019050919050565b61257681612836565b82525050565b60006020820190506125916000830184612449565b92915050565b60006040820190506125ac6000830185612458565b6125b96020830184612458565b9392505050565b60006020820190506125d56000830184612467565b92915050565b60006040820190506125f06000830185612467565b6125fd6020830184612449565b9392505050565b6000602082019050818103600083015261261e8184612476565b905092915050565b600060208201905061263b60008301846124af565b92915050565b6000602082019050818103600083015261265a816124be565b9050919050565b6000602082019050818103600083015261267a816124e1565b9050919050565b6000602082019050818103600083015261269a81612504565b9050919050565b600060208201905081810360008301526126ba81612527565b9050919050565b600060208201905081810360008301526126da8161254a565b9050919050565b60006020820190506126f6600083018461256d565b92915050565b6000606082019050612711600083018661256d565b81810360208301526127238185612476565b90506127326040830184612449565b949350505050565b6000612744612755565b905061275082826128ea565b919050565b6000604051905090565b600067ffffffffffffffff82111561277a5761277961294a565b5b6127838261298d565b9050602081019050919050565b600067ffffffffffffffff8211156127ab576127aa61294a565b5b6127b48261298d565b9050602081019050919050565b600081519050919050565b600082825260208201905092915050565b600082825260208201905092915050565b60006127f982612816565b9050919050565b60008115159050919050565b6000819050919050565b600073ffffffffffffffffffffffffffffffffffffffff82169050919050565b6000819050919050565b600061284b82612852565b9050919050565b600061285d82612864565b9050919050565b600061286f82612816565b9050919050565b82818337600083830152505050565b60005b838110156128a3578082015181840152602081019050612888565b838111156128b2576000848401525b50505050565b600060028204905060018216806128d057607f821691505b602082108114156128e4576128e361291b565b5b50919050565b6128f38261298d565b810181811067ffffffffffffffff821117156129125761291161294a565b5b80604052505050565b7f4e487b7100000000000000000000000000000000000000000000000000000000600052602260045260246000fd5b7f4e487b7100000000000000000000000000000000000000000000000000000000600052604160045260246000fd5b600080fd5b600080fd5b600080fd5b600080fd5b6000601f19601f8301169050919050565b7f496e69743a204f6e6c79206465706c6f7965722063616e20696e697400000000600082015250565b7f53797374656d3a204f6e6c7920636f72652063616e206d6f6469667900000000600082015250565b7f496e69743a20436f6e747261637420697320696e697469616c697a6564000000600082015250565b7f426f6f74683a20566f7465206661696c65640000000000000000000000000000600082015250565b7f426f6f74683a20496e76616c696420766f746520747970652f70726f70000000600082015250565b612a74816127ee565b8114612a7f57600080fd5b50565b612a8b81612800565b8114612a9657600080fd5b50565b612aa28161280c565b8114612aad57600080fd5b50565b612ab981612836565b8114612ac457600080fd5b5056fea2646970667358221220be99ae10c4a3c979e89d89e77da4edc3c1090ab1d6eaefca60a2d7443ac9e24464736f6c63430008070033",
  "linkReferences": {},
  "deployedLinkReferences": {}
}