{
  "_format": "hh-sol-artifact-1",
  "contractName": "Proposals",
  "sourceName": "contracts/Proposals.sol",
  "abi": [
    {
      "inputs": [
        {
          "internalType": "address",
          "name": "_core",
          "type": "address"
        }
      ],
      "stateMutability": "nonpayable",
      "type": "constructor"
    },
    {
      "anonymous": false,
      "inputs": [
        {
          "indexed": true,
          "internalType": "uint256",
          "name": "propID",
          "type": "uint256"
        },
        {
          "indexed": false,
          "internalType": "address",
          "name": "voteType",
          "type": "address"
        },
        {
          "indexed": false,
          "internalType": "bytes32",
          "name": "exeID",
          "type": "bytes32"
        }
      ],
      "name": "NewProposal",
      "type": "event"
    },
    {
      "inputs": [],
      "name": "IDENTIFIER",
      "outputs": [
        {
          "internalType": "bytes32",
          "name": "",
          "type": "bytes32"
        }
      ],
      "stateMutability": "view",
      "type": "function"
    },
    {
      "inputs": [],
      "name": "core_",
      "outputs": [
        {
          "internalType": "contract ICore",
          "name": "",
          "type": "address"
        }
      ],
      "stateMutability": "view",
      "type": "function"
    },
    {
      "inputs": [
        {
          "internalType": "string",
          "name": "_description",
          "type": "string"
        },
        {
          "internalType": "bytes32",
          "name": "_voteTypeID",
          "type": "bytes32"
        },
        {
          "internalType": "bytes32",
          "name": "_exeID",
          "type": "bytes32"
        }
      ],
      "name": "createPropWithExe",
      "outputs": [
        {
          "internalType": "uint256",
          "name": "propID",
          "type": "uint256"
        }
      ],
      "stateMutability": "nonpayable",
      "type": "function"
    },
    {
      "inputs": [
        {
          "internalType": "uint256",
          "name": "_propID",
          "type": "uint256"
        }
      ],
      "name": "getVoteType",
      "outputs": [
        {
          "internalType": "address",
          "name": "",
          "type": "address"
        }
      ],
      "stateMutability": "view",
      "type": "function"
    },
    {
      "inputs": [
        {
          "internalType": "uint256",
          "name": "_startDelay",
          "type": "uint256"
        },
        {
          "internalType": "uint256",
          "name": "_endDelay",
          "type": "uint256"
        }
      ],
      "name": "updateDelays",
      "outputs": [],
      "stateMutability": "nonpayable",
      "type": "function"
    },
    {
      "inputs": [
        {
          "internalType": "uint256",
          "name": "_newMin",
          "type": "uint256"
        }
      ],
      "name": "updateMinDelay",
      "outputs": [],
      "stateMutability": "nonpayable",
      "type": "function"
    }
  ],
  "bytecode": "0x60c06040523480156200001157600080fd5b50604051620014ab380380620014ab8339818101604052810190620000379190620000f9565b7f36209a57dfd79e3872ec3a0c88c653bbe7e32a12306e5e1f92f118c1936ae8b28133600060026101000a81548173ffffffffffffffffffffffffffffffffffffffff021916908373ffffffffffffffffffffffffffffffffffffffff16021790555081608081815250508073ffffffffffffffffffffffffffffffffffffffff1660a08173ffffffffffffffffffffffffffffffffffffffff1660601b815250505050506200017e565b600081519050620000f38162000164565b92915050565b6000602082840312156200011257620001116200015f565b5b60006200012284828501620000e2565b91505092915050565b600062000138826200013f565b9050919050565b600073ffffffffffffffffffffffffffffffffffffffff82169050919050565b600080fd5b6200016f816200012b565b81146200017b57600080fd5b50565b60805160a05160601c6112e1620001ca600039600081816101a001528181610296015281816103630152818161046b0152818161090501526109e00152600061017c01526112e16000f3fe608060405234801561001057600080fd5b50600436106100615760003560e01c806262104a146100665780633c9747f3146100965780636aef4909146100b457806378cbf7e6146100d05780638a99d58614610100578063eaddd0fd1461011c575b600080fd5b610080600480360381019061007b9190610c1d565b61013a565b60405161008d9190610e08565b60405180910390f35b61009e61017a565b6040516100ab9190610e4c565b60405180910390f35b6100ce60048036038101906100c99190610c4a565b61019e565b005b6100ea60048036038101906100e59190610ba9565b610291565b6040516100f79190610f22565b60405180910390f35b61011a60048036038101906101159190610c1d565b610903565b005b6101246109de565b6040516101319190610e67565b60405180910390f35b60006001600083815260200190815260200160002060010160009054906101000a900473ffffffffffffffffffffffffffffffffffffffff169050919050565b7f000000000000000000000000000000000000000000000000000000000000000081565b7f000000000000000000000000000000000000000000000000000000000000000073ffffffffffffffffffffffffffffffffffffffff163373ffffffffffffffffffffffffffffffffffffffff161461022c576040517f08c379a000000000000000000000000000000000000000000000000000000000815260040161022390610e82565b60405180910390fd5b600554821015801561024057506005548110155b61027f576040517f08c379a000000000000000000000000000000000000000000000000000000000815260040161027690610ea2565b60405180910390fd5b81600381905550806004819055505050565b6000807f000000000000000000000000000000000000000000000000000000000000000073ffffffffffffffffffffffffffffffffffffffff1663624a23e07f59e2d72f5870ccddd14d35394bd3c22374071b2da7c07a3d6c3b690400b736286040518263ffffffff1660e01b815260040161030d9190610e4c565b60206040518083038186803b15801561032557600080fd5b505afa158015610339573d6000803e3d6000fd5b505050506040513d601f19601f8201168201806040525081019061035d9190610b4f565b905060007f000000000000000000000000000000000000000000000000000000000000000073ffffffffffffffffffffffffffffffffffffffff1663624a23e07fd578563424ab02f85ec03c6b1aee04947ebdd4a30db46cba3bcd7f56ef40b1996040518263ffffffff1660e01b81526004016103da9190610e4c565b60206040518083038186803b1580156103f257600080fd5b505afa158015610406573d6000803e3d6000fd5b505050506040513d601f19601f8201168201806040525081019061042a9190610b4f565b905060016002600082825461043f9190610f97565b92505081905550600254925060008173ffffffffffffffffffffffffffffffffffffffff1663701370dc7f000000000000000000000000000000000000000000000000000000000000000073ffffffffffffffffffffffffffffffffffffffff1663624a23e07f346b2ab3a980432fd8f2e24828fc9f9ee2df1548701bc542f6ec17882b3276276040518263ffffffff1660e01b81526004016104e29190610e4c565b60206040518083038186803b1580156104fa57600080fd5b505afa15801561050e573d6000803e3d6000fd5b505050506040513d601f19601f820116820180604052508101906105329190610b4f565b886040518363ffffffff1660e01b8152600401610550929190610e23565b60206040518083038186803b15801561056857600080fd5b505afa15801561057c573d6000803e3d6000fd5b505050506040513d601f19601f820116820180604052508101906105a09190610b4f565b9050600073ffffffffffffffffffffffffffffffffffffffff168173ffffffffffffffffffffffffffffffffffffffff161415610612576040517f08c379a000000000000000000000000000000000000000000000000000000000815260040161060990610f02565b60405180910390fd5b60008486604051602001610627929190610ddc565b604051602081830303815290604052905060008473ffffffffffffffffffffffffffffffffffffffff1663295adadf8789856040518463ffffffff1660e01b815260040161067793929190610f3d565b602060405180830381600087803b15801561069157600080fd5b505af11580156106a5573d6000803e3d6000fd5b505050506040513d601f19601f820116820180604052508101906106c99190610b7c565b90506000801b811415610711576040517f08c379a000000000000000000000000000000000000000000000000000000000815260040161070890610ec2565b60405180910390fd5b6000600354426107219190610f97565b90506040518060e001604052808c8c8080601f016020809104026020016040519081016040528093929190818152602001838380828437600081840152601f19601f8201169050808301925050505050505081526020018573ffffffffffffffffffffffffffffffffffffffff168152602001838152602001600160088111156107ae576107ad611111565b5b8152602001828152602001600454836107c79190610f97565b815260200160001515815250600160008981526020019081526020016000206000820151816000019080519060200190610802929190610a02565b5060208201518160010160006101000a81548173ffffffffffffffffffffffffffffffffffffffff021916908373ffffffffffffffffffffffffffffffffffffffff1602179055506040820151816002015560608201518160030160006101000a81548160ff0219169083600881111561087f5761087e611111565b5b02179055506080820151816004015560a0820151816005015560c08201518160060160006101000a81548160ff021916908315150217905550905050867f782ad24bfb2592c2db8ec384bf93db57c8c631ca93227f9419c9d185d4de793d85846040516108ed929190610e23565b60405180910390a2505050505050949350505050565b7f000000000000000000000000000000000000000000000000000000000000000073ffffffffffffffffffffffffffffffffffffffff163373ffffffffffffffffffffffffffffffffffffffff1614610991576040517f08c379a000000000000000000000000000000000000000000000000000000000815260040161098890610e82565b60405180910390fd5b600f81116109d4576040517f08c379a00000000000000000000000000000000000000000000000000000000081526004016109cb90610ee2565b60405180910390fd5b8060058190555050565b7f000000000000000000000000000000000000000000000000000000000000000081565b828054610a0e9061109c565b90600052602060002090601f016020900481019282610a305760008555610a77565b82601f10610a4957805160ff1916838001178555610a77565b82800160010185558215610a77579182015b82811115610a76578251825591602001919060010190610a5b565b5b509050610a849190610a88565b5090565b5b80821115610aa1576000816000905550600101610a89565b5090565b600081519050610ab481611266565b92915050565b600081359050610ac98161127d565b92915050565b600081519050610ade8161127d565b92915050565b60008083601f840112610afa57610af9611174565b5b8235905067ffffffffffffffff811115610b1757610b1661116f565b5b602083019150836001820283011115610b3357610b32611179565b5b9250929050565b600081359050610b4981611294565b92915050565b600060208284031215610b6557610b64611183565b5b6000610b7384828501610aa5565b91505092915050565b600060208284031215610b9257610b91611183565b5b6000610ba084828501610acf565b91505092915050565b60008060008060608587031215610bc357610bc2611183565b5b600085013567ffffffffffffffff811115610be157610be061117e565b5b610bed87828801610ae4565b94509450506020610c0087828801610aba565b9250506040610c1187828801610aba565b91505092959194509250565b600060208284031215610c3357610c32611183565b5b6000610c4184828501610b3a565b91505092915050565b60008060408385031215610c6157610c60611183565b5b6000610c6f85828601610b3a565b9250506020610c8085828601610b3a565b9150509250929050565b610c9381610fed565b82525050565b610ca281610fff565b82525050565b610cb9610cb482610fff565b6110ce565b82525050565b610cc881611033565b82525050565b6000610cd982610f7b565b610ce38185610f86565b9350610cf3818560208601611069565b610cfc81611188565b840191505092915050565b6000610d14601c83610f86565b9150610d1f82611199565b602082019050919050565b6000610d37601883610f86565b9150610d42826111c2565b602082019050919050565b6000610d5a601883610f86565b9150610d65826111eb565b602082019050919050565b6000610d7d601583610f86565b9150610d8882611214565b602082019050919050565b6000610da0601783610f86565b9150610dab8261123d565b602082019050919050565b610dbf81611029565b82525050565b610dd6610dd182611029565b6110d8565b82525050565b6000610de88285610dc5565b602082019150610df88284610ca8565b6020820191508190509392505050565b6000602082019050610e1d6000830184610c8a565b92915050565b6000604082019050610e386000830185610c8a565b610e456020830184610c99565b9392505050565b6000602082019050610e616000830184610c99565b92915050565b6000602082019050610e7c6000830184610cbf565b92915050565b60006020820190508181036000830152610e9b81610d07565b9050919050565b60006020820190508181036000830152610ebb81610d2a565b9050919050565b60006020820190508181036000830152610edb81610d4d565b9050919050565b60006020820190508181036000830152610efb81610d70565b9050919050565b60006020820190508181036000830152610f1b81610d93565b9050919050565b6000602082019050610f376000830184610db6565b92915050565b6000606082019050610f526000830186610db6565b610f5f6020830185610c99565b8181036040830152610f718184610cce565b9050949350505050565b600081519050919050565b600082825260208201905092915050565b6000610fa282611029565b9150610fad83611029565b9250827fffffffffffffffffffffffffffffffffffffffffffffffffffffffffffffffff03821115610fe257610fe16110e2565b5b828201905092915050565b6000610ff882611009565b9050919050565b6000819050919050565b600073ffffffffffffffffffffffffffffffffffffffff82169050919050565b6000819050919050565b600061103e82611045565b9050919050565b600061105082611057565b9050919050565b600061106282611009565b9050919050565b60005b8381101561108757808201518184015260208101905061106c565b83811115611096576000848401525b50505050565b600060028204905060018216806110b457607f821691505b602082108114156110c8576110c7611140565b5b50919050565b6000819050919050565b6000819050919050565b7f4e487b7100000000000000000000000000000000000000000000000000000000600052601160045260246000fd5b7f4e487b7100000000000000000000000000000000000000000000000000000000600052602160045260246000fd5b7f4e487b7100000000000000000000000000000000000000000000000000000000600052602260045260246000fd5b600080fd5b600080fd5b600080fd5b600080fd5b600080fd5b6000601f19601f8301169050919050565b7f53797374656d3a204f6e6c7920636f72652063616e206d6f6469667900000000600082015250565b7f50726f703a2064656c6179732063616e6e6f7420626520300000000000000000600082015250565b7f50726f703a2045786520646f6573206e6f742065786973740000000000000000600082015250565b7f50726f703a206d696e2063616e6e6f7420626520300000000000000000000000600082015250565b7f50726f703a20496e76616c696420766f74652074797065000000000000000000600082015250565b61126f81610fed565b811461127a57600080fd5b50565b61128681610fff565b811461129157600080fd5b50565b61129d81611029565b81146112a857600080fd5b5056fea26469706673582212202ee9fde0a6808231ae8219a98d7b503b1eb7d7248a5f6119b13c861c435d1cd164736f6c63430008070033",
  "linkReferences": {},
  "deployedLinkReferences": {}
}