{
  "_format": "hh-sol-artifact-1",
  "contractName": "Proposals",
  "sourceName": "contracts/Proposals.sol",
  "abi": [
    {
      "inputs": [
        {
          "internalType": "address",
          "name": "_core",
          "type": "address"
        }
      ],
      "stateMutability": "nonpayable",
      "type": "constructor"
    },
    {
      "anonymous": false,
      "inputs": [
        {
          "indexed": true,
          "internalType": "uint256",
          "name": "propID",
          "type": "uint256"
        },
        {
          "indexed": false,
          "internalType": "address",
          "name": "voteType",
          "type": "address"
        },
        {
          "indexed": false,
          "internalType": "bytes32",
          "name": "exeID",
          "type": "bytes32"
        }
      ],
      "name": "NewProposal",
      "type": "event"
    },
    {
      "inputs": [],
      "name": "IDENTIFIER",
      "outputs": [
        {
          "internalType": "bytes32",
          "name": "",
          "type": "bytes32"
        }
      ],
      "stateMutability": "view",
      "type": "function"
    },
    {
      "inputs": [],
      "name": "core_",
      "outputs": [
        {
          "internalType": "contract ICore",
          "name": "",
          "type": "address"
        }
      ],
      "stateMutability": "view",
      "type": "function"
    },
    {
      "inputs": [
        {
          "internalType": "string",
          "name": "_description",
          "type": "string"
        },
        {
          "internalType": "bytes32",
          "name": "_voteTypeID",
          "type": "bytes32"
        },
        {
          "internalType": "bytes32",
          "name": "_exeID",
          "type": "bytes32"
        }
      ],
      "name": "createPropWithExe",
      "outputs": [
        {
          "internalType": "uint256",
          "name": "propID",
          "type": "uint256"
        }
      ],
      "stateMutability": "nonpayable",
      "type": "function"
    },
    {
      "inputs": [
        {
          "internalType": "uint256",
          "name": "_propID",
          "type": "uint256"
        }
      ],
      "name": "getExeOfProp",
      "outputs": [
        {
          "internalType": "bytes32",
          "name": "",
          "type": "bytes32"
        }
      ],
      "stateMutability": "view",
      "type": "function"
    },
    {
      "inputs": [
        {
          "internalType": "bytes32",
          "name": "_exeID",
          "type": "bytes32"
        }
      ],
      "name": "getPropOfExe",
      "outputs": [
        {
          "internalType": "uint256",
          "name": "",
          "type": "uint256"
        }
      ],
      "stateMutability": "view",
      "type": "function"
    },
    {
      "inputs": [
        {
          "internalType": "uint256",
          "name": "_propID",
          "type": "uint256"
        }
      ],
      "name": "getPropVotables",
      "outputs": [
        {
          "internalType": "enum Proposals.PropState",
          "name": "state",
          "type": "uint8"
        },
        {
          "internalType": "uint256",
          "name": "voteStart",
          "type": "uint256"
        },
        {
          "internalType": "uint256",
          "name": "voteEnd",
          "type": "uint256"
        },
        {
          "internalType": "bool",
          "name": "executedOrCanceled",
          "type": "bool"
        }
      ],
      "stateMutability": "view",
      "type": "function"
    },
    {
      "inputs": [
        {
          "internalType": "uint256",
          "name": "_propID",
          "type": "uint256"
        }
      ],
      "name": "getProposalInfo",
      "outputs": [
        {
          "internalType": "string",
          "name": "description",
          "type": "string"
        },
        {
          "internalType": "address",
          "name": "voteType",
          "type": "address"
        },
        {
          "internalType": "bytes32",
          "name": "exeID",
          "type": "bytes32"
        },
        {
          "internalType": "enum Proposals.PropState",
          "name": "state",
          "type": "uint8"
        },
        {
          "internalType": "uint256",
          "name": "voteStart",
          "type": "uint256"
        },
        {
          "internalType": "uint256",
          "name": "voteEnd",
          "type": "uint256"
        },
        {
          "internalType": "bool",
          "name": "executedOrCanceled",
          "type": "bool"
        }
      ],
      "stateMutability": "view",
      "type": "function"
    },
    {
      "inputs": [
        {
          "internalType": "uint256",
          "name": "_propID",
          "type": "uint256"
        }
      ],
      "name": "getVoteType",
      "outputs": [
        {
          "internalType": "address",
          "name": "",
          "type": "address"
        }
      ],
      "stateMutability": "view",
      "type": "function"
    },
    {
      "inputs": [
        {
          "internalType": "uint256",
          "name": "_propID",
          "type": "uint256"
        }
      ],
      "name": "propDefeated",
      "outputs": [],
      "stateMutability": "nonpayable",
      "type": "function"
    },
    {
      "inputs": [
        {
          "internalType": "uint256",
          "name": "_propID",
          "type": "uint256"
        }
      ],
      "name": "propExecuted",
      "outputs": [],
      "stateMutability": "nonpayable",
      "type": "function"
    },
    {
      "inputs": [
        {
          "internalType": "uint256",
          "name": "_propID",
          "type": "uint256"
        }
      ],
      "name": "propExpire",
      "outputs": [],
      "stateMutability": "nonpayable",
      "type": "function"
    },
    {
      "inputs": [
        {
          "internalType": "uint256",
          "name": "_propID",
          "type": "uint256"
        }
      ],
      "name": "propQueued",
      "outputs": [],
      "stateMutability": "nonpayable",
      "type": "function"
    },
    {
      "inputs": [
        {
          "internalType": "uint256",
          "name": "_startDelay",
          "type": "uint256"
        },
        {
          "internalType": "uint256",
          "name": "_endDelay",
          "type": "uint256"
        }
      ],
      "name": "updateDelays",
      "outputs": [],
      "stateMutability": "nonpayable",
      "type": "function"
    },
    {
      "inputs": [
        {
          "internalType": "uint256",
          "name": "_newMin",
          "type": "uint256"
        }
      ],
      "name": "updateMinDelay",
      "outputs": [],
      "stateMutability": "nonpayable",
      "type": "function"
    }
  ],
  "bytecode": "0x60c06040523480156200001157600080fd5b506040516200240a3803806200240a8339818101604052810190620000379190620000f9565b7f36209a57dfd79e3872ec3a0c88c653bbe7e32a12306e5e1f92f118c1936ae8b28133600060026101000a81548173ffffffffffffffffffffffffffffffffffffffff021916908373ffffffffffffffffffffffffffffffffffffffff16021790555081608081815250508073ffffffffffffffffffffffffffffffffffffffff1660a08173ffffffffffffffffffffffffffffffffffffffff1660601b815250505050506200017e565b600081519050620000f38162000164565b92915050565b6000602082840312156200011257620001116200015f565b5b60006200012284828501620000e2565b91505092915050565b600062000138826200013f565b9050919050565b600073ffffffffffffffffffffffffffffffffffffffff82169050919050565b600080fd5b6200016f816200012b565b81146200017b57600080fd5b50565b60805160a05160601c612224620001e66000396000818161036101528181610477015281816105440152818161064c01528181610b5801528181610d5e01528181610ee3015281816112750152818161147b01526114a10152600061033d01526122246000f3fe608060405234801561001057600080fd5b50600436106100e95760003560e01c80639e34fa6a1161008c578063bc903cb811610066578063bc903cb81461026f578063cd39ebfd146102a5578063eaddd0fd146102c1578063f40507ac146102df576100e9565b80639e34fa6a146101f0578063a6640e4c14610220578063b7abd80314610253576100e9565b80636fad1c93116100c85780636fad1c931461015857806378cbf7e6146101885780637ef966e4146101b85780638a99d586146101d4576100e9565b806262104a146100ee5780633c9747f31461011e5780636aef49091461013c575b600080fd5b610108600480360381019061010391906118ed565b6102fb565b6040516101159190611b70565b60405180910390f35b61012661033b565b6040516101339190611bb4565b60405180910390f35b6101566004803603810190610151919061191a565b61035f565b005b610172600480360381019061016d91906118ed565b610452565b60405161017f9190611bb4565b60405180910390f35b6101a2600480360381019061019d9190611879565b610472565b6040516101af9190611da5565b60405180910390f35b6101d260048036038101906101cd91906118ed565b610b54565b005b6101ee60048036038101906101e991906118ed565b610d5c565b005b61020a6004803603810190610205919061181f565b610e37565b6040516102179190611da5565b60405180910390f35b61023a600480360381019061023591906118ed565b610e54565b60405161024a9493929190611bea565b60405180910390f35b61026d600480360381019061026891906118ed565b610edf565b005b610289600480360381019061028491906118ed565b6110e7565b60405161029c9796959493929190611c2f565b60405180910390f35b6102bf60048036038101906102ba91906118ed565b611271565b005b6102c9611479565b6040516102d69190611bcf565b60405180910390f35b6102f960048036038101906102f491906118ed565b61149d565b005b60006001600083815260200190815260200160002060010160009054906101000a900473ffffffffffffffffffffffffffffffffffffffff169050919050565b7f000000000000000000000000000000000000000000000000000000000000000081565b7f000000000000000000000000000000000000000000000000000000000000000073ffffffffffffffffffffffffffffffffffffffff163373ffffffffffffffffffffffffffffffffffffffff16146103ed576040517f08c379a00000000000000000000000000000000000000000000000000000000081526004016103e490611ca5565b60405180910390fd5b600654821015801561040157506006548110155b610440576040517f08c379a000000000000000000000000000000000000000000000000000000000815260040161043790611ce5565b60405180910390fd5b81600481905550806005819055505050565b600060016000838152602001908152602001600020600201549050919050565b6000807f000000000000000000000000000000000000000000000000000000000000000073ffffffffffffffffffffffffffffffffffffffff1663624a23e07f59e2d72f5870ccddd14d35394bd3c22374071b2da7c07a3d6c3b690400b736286040518263ffffffff1660e01b81526004016104ee9190611bb4565b60206040518083038186803b15801561050657600080fd5b505afa15801561051a573d6000803e3d6000fd5b505050506040513d601f19601f8201168201806040525081019061053e91906117f2565b905060007f000000000000000000000000000000000000000000000000000000000000000073ffffffffffffffffffffffffffffffffffffffff1663624a23e07fd578563424ab02f85ec03c6b1aee04947ebdd4a30db46cba3bcd7f56ef40b1996040518263ffffffff1660e01b81526004016105bb9190611bb4565b60206040518083038186803b1580156105d357600080fd5b505afa1580156105e7573d6000803e3d6000fd5b505050506040513d601f19601f8201168201806040525081019061060b91906117f2565b90506001600360008282546106209190611e1a565b92505081905550600354925060008173ffffffffffffffffffffffffffffffffffffffff1663701370dc7f000000000000000000000000000000000000000000000000000000000000000073ffffffffffffffffffffffffffffffffffffffff1663624a23e07f346b2ab3a980432fd8f2e24828fc9f9ee2df1548701bc542f6ec17882b3276276040518263ffffffff1660e01b81526004016106c39190611bb4565b60206040518083038186803b1580156106db57600080fd5b505afa1580156106ef573d6000803e3d6000fd5b505050506040513d601f19601f8201168201806040525081019061071391906117f2565b886040518363ffffffff1660e01b8152600401610731929190611b8b565b60206040518083038186803b15801561074957600080fd5b505afa15801561075d573d6000803e3d6000fd5b505050506040513d601f19601f8201168201806040525081019061078191906117f2565b9050600073ffffffffffffffffffffffffffffffffffffffff168173ffffffffffffffffffffffffffffffffffffffff1614156107f3576040517f08c379a00000000000000000000000000000000000000000000000000000000081526004016107ea90611d85565b60405180910390fd5b600084864260405160200161080a93929190611b33565b604051602081830303815290604052905060008473ffffffffffffffffffffffffffffffffffffffff1663295adadf8789856040518463ffffffff1660e01b815260040161085a93929190611dc0565b602060405180830381600087803b15801561087457600080fd5b505af1158015610888573d6000803e3d6000fd5b505050506040513d601f19601f820116820180604052508101906108ac919061184c565b90506000801b8114156108f4576040517f08c379a00000000000000000000000000000000000000000000000000000000081526004016108eb90611d25565b60405180910390fd5b600060026000838152602001908152602001600020541461094a576040517f08c379a000000000000000000000000000000000000000000000000000000000815260040161094190611d05565b60405180910390fd5b60006004544261095a9190611e1a565b90506040518060e001604052808c8c8080601f016020809104026020016040519081016040528093929190818152602001838380828437600081840152601f19601f8201169050808301925050505050505081526020018573ffffffffffffffffffffffffffffffffffffffff168152602001838152602001600160088111156109e7576109e6611fc5565b5b815260200182815260200160055483610a009190611e1a565b815260200160001515815250600160008981526020019081526020016000206000820151816000019080519060200190610a3b9291906116a5565b5060208201518160010160006101000a81548173ffffffffffffffffffffffffffffffffffffffff021916908373ffffffffffffffffffffffffffffffffffffffff1602179055506040820151816002015560608201518160030160006101000a81548160ff02191690836008811115610ab857610ab7611fc5565b5b02179055506080820151816004015560a0820151816005015560c08201518160060160006101000a81548160ff021916908315150217905550905050866002600084815260200190815260200160002081905550867f782ad24bfb2592c2db8ec384bf93db57c8c631ca93227f9419c9d185d4de793d8584604051610b3e929190611b8b565b60405180910390a2505050505050949350505050565b60007f000000000000000000000000000000000000000000000000000000000000000073ffffffffffffffffffffffffffffffffffffffff1663624a23e07fd578563424ab02f85ec03c6b1aee04947ebdd4a30db46cba3bcd7f56ef40b1996040518263ffffffff1660e01b8152600401610bcf9190611bb4565b60206040518083038186803b158015610be757600080fd5b505afa158015610bfb573d6000803e3d6000fd5b505050506040513d601f19601f82011682018060405250810190610c1f91906117f2565b90508073ffffffffffffffffffffffffffffffffffffffff163373ffffffffffffffffffffffffffffffffffffffff1614610c8f576040517f08c379a0000000000000000000000000000000000000000000000000000000008152600401610c8690611cc5565b60405180910390fd5b60026008811115610ca357610ca2611fc5565b5b6001600084815260200190815260200160002060030160009054906101000a900460ff166008811115610cd957610cd8611fc5565b5b14610d19576040517f08c379a0000000000000000000000000000000000000000000000000000000008152600401610d1090611d65565b60405180910390fd5b60076001600084815260200190815260200160002060030160006101000a81548160ff02191690836008811115610d5357610d52611fc5565b5b02179055505050565b7f000000000000000000000000000000000000000000000000000000000000000073ffffffffffffffffffffffffffffffffffffffff163373ffffffffffffffffffffffffffffffffffffffff1614610dea576040517f08c379a0000000000000000000000000000000000000000000000000000000008152600401610de190611ca5565b60405180910390fd5b600f8111610e2d576040517f08c379a0000000000000000000000000000000000000000000000000000000008152600401610e2490611d45565b60405180910390fd5b8060068190555050565b600060026000838152602001908152602001600020549050919050565b6000806000806001600086815260200190815260200160002060030160009054906101000a900460ff16600160008781526020019081526020016000206004015460016000888152602001908152602001600020600501546001600089815260200190815260200160002060060160009054906101000a900460ff1693509350935093509193509193565b60007f000000000000000000000000000000000000000000000000000000000000000073ffffffffffffffffffffffffffffffffffffffff1663624a23e07fd578563424ab02f85ec03c6b1aee04947ebdd4a30db46cba3bcd7f56ef40b1996040518263ffffffff1660e01b8152600401610f5a9190611bb4565b60206040518083038186803b158015610f7257600080fd5b505afa158015610f86573d6000803e3d6000fd5b505050506040513d601f19601f82011682018060405250810190610faa91906117f2565b90508073ffffffffffffffffffffffffffffffffffffffff163373ffffffffffffffffffffffffffffffffffffffff161461101a576040517f08c379a000000000000000000000000000000000000000000000000000000000815260040161101190611cc5565b60405180910390fd5b6006600881111561102e5761102d611fc5565b5b6001600084815260200190815260200160002060030160009054906101000a900460ff16600881111561106457611063611fc5565b5b146110a4576040517f08c379a000000000000000000000000000000000000000000000000000000000815260040161109b90611d65565b60405180910390fd5b60086001600084815260200190815260200160002060030160006101000a81548160ff021916908360088111156110de576110dd611fc5565b5b02179055505050565b606060008060008060008060016000898152602001908152602001600020600001600160008a815260200190815260200160002060010160009054906101000a900473ffffffffffffffffffffffffffffffffffffffff16600160008b815260200190815260200160002060020154600160008c815260200190815260200160002060030160009054906101000a900460ff16600160008d815260200190815260200160002060040154600160008e815260200190815260200160002060050154600160008f815260200190815260200160002060060160009054906101000a900460ff168680546111d890611f50565b80601f016020809104026020016040519081016040528092919081815260200182805461120490611f50565b80156112515780601f1061122657610100808354040283529160200191611251565b820191906000526020600020905b81548152906001019060200180831161123457829003601f168201915b505050505096509650965096509650965096509650919395979092949650565b60007f000000000000000000000000000000000000000000000000000000000000000073ffffffffffffffffffffffffffffffffffffffff1663624a23e07fd578563424ab02f85ec03c6b1aee04947ebdd4a30db46cba3bcd7f56ef40b1996040518263ffffffff1660e01b81526004016112ec9190611bb4565b60206040518083038186803b15801561130457600080fd5b505afa158015611318573d6000803e3d6000fd5b505050506040513d601f19601f8201168201806040525081019061133c91906117f2565b90508073ffffffffffffffffffffffffffffffffffffffff163373ffffffffffffffffffffffffffffffffffffffff16146113ac576040517f08c379a00000000000000000000000000000000000000000000000000000000081526004016113a390611cc5565b60405180910390fd5b600260088111156113c0576113bf611fc5565b5b6001600084815260200190815260200160002060030160009054906101000a900460ff1660088111156113f6576113f5611fc5565b5b14611436576040517f08c379a000000000000000000000000000000000000000000000000000000000815260040161142d90611d65565b60405180910390fd5b60066001600084815260200190815260200160002060030160006101000a81548160ff021916908360088111156114705761146f611fc5565b5b02179055505050565b7f000000000000000000000000000000000000000000000000000000000000000081565b60007f000000000000000000000000000000000000000000000000000000000000000073ffffffffffffffffffffffffffffffffffffffff1663624a23e07fd578563424ab02f85ec03c6b1aee04947ebdd4a30db46cba3bcd7f56ef40b1996040518263ffffffff1660e01b81526004016115189190611bb4565b60206040518083038186803b15801561153057600080fd5b505afa158015611544573d6000803e3d6000fd5b505050506040513d601f19601f8201168201806040525081019061156891906117f2565b90508073ffffffffffffffffffffffffffffffffffffffff163373ffffffffffffffffffffffffffffffffffffffff16146115d8576040517f08c379a00000000000000000000000000000000000000000000000000000000081526004016115cf90611cc5565b60405180910390fd5b600260088111156115ec576115eb611fc5565b5b6001600084815260200190815260200160002060030160009054906101000a900460ff16600881111561162257611621611fc5565b5b14611662576040517f08c379a000000000000000000000000000000000000000000000000000000000815260040161165990611d65565b60405180910390fd5b60046001600084815260200190815260200160002060030160006101000a81548160ff0219169083600881111561169c5761169b611fc5565b5b02179055505050565b8280546116b190611f50565b90600052602060002090601f0160209004810192826116d3576000855561171a565b82601f106116ec57805160ff191683800117855561171a565b8280016001018555821561171a579182015b828111156117195782518255916020019190600101906116fe565b5b509050611727919061172b565b5090565b5b8082111561174457600081600090555060010161172c565b5090565b600081519050611757816121a9565b92915050565b60008135905061176c816121c0565b92915050565b600081519050611781816121c0565b92915050565b60008083601f84011261179d5761179c612028565b5b8235905067ffffffffffffffff8111156117ba576117b9612023565b5b6020830191508360018202830111156117d6576117d561202d565b5b9250929050565b6000813590506117ec816121d7565b92915050565b60006020828403121561180857611807612037565b5b600061181684828501611748565b91505092915050565b60006020828403121561183557611834612037565b5b60006118438482850161175d565b91505092915050565b60006020828403121561186257611861612037565b5b600061187084828501611772565b91505092915050565b6000806000806060858703121561189357611892612037565b5b600085013567ffffffffffffffff8111156118b1576118b0612032565b5b6118bd87828801611787565b945094505060206118d08782880161175d565b92505060406118e18782880161175d565b91505092959194509250565b60006020828403121561190357611902612037565b5b6000611911848285016117dd565b91505092915050565b6000806040838503121561193157611930612037565b5b600061193f858286016117dd565b9250506020611950858286016117dd565b9150509250929050565b61196381611e70565b82525050565b61197281611e82565b82525050565b61198181611e8e565b82525050565b61199861199382611e8e565b611f82565b82525050565b6119a781611ed5565b82525050565b6119b681611ee7565b82525050565b60006119c782611dfe565b6119d18185611e09565b93506119e1818560208601611f1d565b6119ea8161203c565b840191505092915050565b6000611a02601c83611e09565b9150611a0d8261204d565b602082019050919050565b6000611a25601983611e09565b9150611a3082612076565b602082019050919050565b6000611a48601883611e09565b9150611a538261209f565b602082019050919050565b6000611a6b601f83611e09565b9150611a76826120c8565b602082019050919050565b6000611a8e601883611e09565b9150611a99826120f1565b602082019050919050565b6000611ab1601583611e09565b9150611abc8261211a565b602082019050919050565b6000611ad4601c83611e09565b9150611adf82612143565b602082019050919050565b6000611af7601783611e09565b9150611b028261216c565b602082019050919050565b611b1681611ecb565b82525050565b611b2d611b2882611ecb565b611f8c565b82525050565b6000611b3f8286611b1c565b602082019150611b4f8285611987565b602082019150611b5f8284611b1c565b602082019150819050949350505050565b6000602082019050611b85600083018461195a565b92915050565b6000604082019050611ba0600083018561195a565b611bad6020830184611978565b9392505050565b6000602082019050611bc96000830184611978565b92915050565b6000602082019050611be4600083018461199e565b92915050565b6000608082019050611bff60008301876119ad565b611c0c6020830186611b0d565b611c196040830185611b0d565b611c266060830184611969565b95945050505050565b600060e0820190508181036000830152611c49818a6119bc565b9050611c58602083018961195a565b611c656040830188611978565b611c7260608301876119ad565b611c7f6080830186611b0d565b611c8c60a0830185611b0d565b611c9960c0830184611969565b98975050505050505050565b60006020820190508181036000830152611cbe816119f5565b9050919050565b60006020820190508181036000830152611cde81611a18565b9050919050565b60006020820190508181036000830152611cfe81611a3b565b9050919050565b60006020820190508181036000830152611d1e81611a5e565b9050919050565b60006020820190508181036000830152611d3e81611a81565b9050919050565b60006020820190508181036000830152611d5e81611aa4565b9050919050565b60006020820190508181036000830152611d7e81611ac7565b9050919050565b60006020820190508181036000830152611d9e81611aea565b9050919050565b6000602082019050611dba6000830184611b0d565b92915050565b6000606082019050611dd56000830186611b0d565b611de26020830185611978565b8181036040830152611df481846119bc565b9050949350505050565b600081519050919050565b600082825260208201905092915050565b6000611e2582611ecb565b9150611e3083611ecb565b9250827fffffffffffffffffffffffffffffffffffffffffffffffffffffffffffffffff03821115611e6557611e64611f96565b5b828201905092915050565b6000611e7b82611eab565b9050919050565b60008115159050919050565b6000819050919050565b6000819050611ea682612195565b919050565b600073ffffffffffffffffffffffffffffffffffffffff82169050919050565b6000819050919050565b6000611ee082611ef9565b9050919050565b6000611ef282611e98565b9050919050565b6000611f0482611f0b565b9050919050565b6000611f1682611eab565b9050919050565b60005b83811015611f3b578082015181840152602081019050611f20565b83811115611f4a576000848401525b50505050565b60006002820490506001821680611f6857607f821691505b60208210811415611f7c57611f7b611ff4565b5b50919050565b6000819050919050565b6000819050919050565b7f4e487b7100000000000000000000000000000000000000000000000000000000600052601160045260246000fd5b7f4e487b7100000000000000000000000000000000000000000000000000000000600052602160045260246000fd5b7f4e487b7100000000000000000000000000000000000000000000000000000000600052602260045260246000fd5b600080fd5b600080fd5b600080fd5b600080fd5b600080fd5b6000601f19601f8301169050919050565b7f53797374656d3a204f6e6c7920636f72652063616e206d6f6469667900000000600082015250565b7f50726f703a204f6e6c7920636f6f72642063616e2063616c6c00000000000000600082015250565b7f50726f703a2064656c6179732063616e6e6f7420626520300000000000000000600082015250565b7f50726f703a2045786520494420616c7265616479206173736f63696174656400600082015250565b7f50726f703a2045786520646f6573206e6f742065786973740000000000000000600082015250565b7f50726f703a206d696e2063616e6e6f7420626520300000000000000000000000600082015250565b7f50726f703a20496e76616c6964207374617465206d6f76656d656e7400000000600082015250565b7f50726f703a20496e76616c696420766f74652074797065000000000000000000600082015250565b600981106121a6576121a5611fc5565b5b50565b6121b281611e70565b81146121bd57600080fd5b50565b6121c981611e8e565b81146121d457600080fd5b50565b6121e081611ecb565b81146121eb57600080fd5b5056fea2646970667358221220e4b5fdd92cdcdc2ab3dd64ee28ffbfc8c2f0a41d8523e8590ab6132616199cda64736f6c63430008070033",
  "linkReferences": {},
  "deployedLinkReferences": {}
}