{
  "_format": "hh-sol-artifact-1",
  "contractName": "Proposals",
  "sourceName": "contracts/Proposals.sol",
  "abi": [
    {
      "inputs": [
        {
          "internalType": "address",
          "name": "_core",
          "type": "address"
        },
        {
          "internalType": "address",
          "name": "_timer",
          "type": "address"
        }
      ],
      "stateMutability": "nonpayable",
      "type": "constructor"
    },
    {
      "anonymous": false,
      "inputs": [
        {
          "indexed": true,
          "internalType": "uint256",
          "name": "propID",
          "type": "uint256"
        },
        {
          "indexed": false,
          "internalType": "address",
          "name": "voteType",
          "type": "address"
        },
        {
          "indexed": false,
          "internalType": "bytes32",
          "name": "exeID",
          "type": "bytes32"
        }
      ],
      "name": "NewProposal",
      "type": "event"
    },
    {
      "inputs": [],
      "name": "IDENTIFIER",
      "outputs": [
        {
          "internalType": "bytes32",
          "name": "",
          "type": "bytes32"
        }
      ],
      "stateMutability": "view",
      "type": "function"
    },
    {
      "inputs": [],
      "name": "core_",
      "outputs": [
        {
          "internalType": "contract ICore",
          "name": "",
          "type": "address"
        }
      ],
      "stateMutability": "view",
      "type": "function"
    },
    {
      "inputs": [
        {
          "internalType": "string",
          "name": "_description",
          "type": "string"
        },
        {
          "internalType": "bytes32",
          "name": "_voteTypeID",
          "type": "bytes32"
        },
        {
          "internalType": "bytes32",
          "name": "_exeID",
          "type": "bytes32"
        }
      ],
      "name": "createPropWithExe",
      "outputs": [
        {
          "internalType": "uint256",
          "name": "propID",
          "type": "uint256"
        }
      ],
      "stateMutability": "nonpayable",
      "type": "function"
    },
    {
      "inputs": [],
      "name": "getCurrentTime",
      "outputs": [
        {
          "internalType": "uint256",
          "name": "",
          "type": "uint256"
        }
      ],
      "stateMutability": "view",
      "type": "function"
    },
    {
      "inputs": [
        {
          "internalType": "uint256",
          "name": "_propID",
          "type": "uint256"
        }
      ],
      "name": "getExeOfProp",
      "outputs": [
        {
          "internalType": "bytes32",
          "name": "",
          "type": "bytes32"
        }
      ],
      "stateMutability": "view",
      "type": "function"
    },
    {
      "inputs": [
        {
          "internalType": "bytes32",
          "name": "_exeID",
          "type": "bytes32"
        }
      ],
      "name": "getPropOfExe",
      "outputs": [
        {
          "internalType": "uint256",
          "name": "",
          "type": "uint256"
        }
      ],
      "stateMutability": "view",
      "type": "function"
    },
    {
      "inputs": [
        {
          "internalType": "uint256",
          "name": "_propID",
          "type": "uint256"
        }
      ],
      "name": "getPropVotables",
      "outputs": [
        {
          "internalType": "enum Proposals.PropState",
          "name": "state",
          "type": "uint8"
        },
        {
          "internalType": "uint256",
          "name": "voteStart",
          "type": "uint256"
        },
        {
          "internalType": "uint256",
          "name": "voteEnd",
          "type": "uint256"
        },
        {
          "internalType": "bool",
          "name": "executedOrCanceled",
          "type": "bool"
        }
      ],
      "stateMutability": "view",
      "type": "function"
    },
    {
      "inputs": [
        {
          "internalType": "uint256",
          "name": "_propID",
          "type": "uint256"
        }
      ],
      "name": "getProposalInfo",
      "outputs": [
        {
          "internalType": "string",
          "name": "description",
          "type": "string"
        },
        {
          "internalType": "address",
          "name": "voteType",
          "type": "address"
        },
        {
          "internalType": "bytes32",
          "name": "exeID",
          "type": "bytes32"
        },
        {
          "internalType": "enum Proposals.PropState",
          "name": "state",
          "type": "uint8"
        },
        {
          "internalType": "uint256",
          "name": "voteStart",
          "type": "uint256"
        },
        {
          "internalType": "uint256",
          "name": "voteEnd",
          "type": "uint256"
        },
        {
          "internalType": "bool",
          "name": "executedOrCanceled",
          "type": "bool"
        }
      ],
      "stateMutability": "view",
      "type": "function"
    },
    {
      "inputs": [
        {
          "internalType": "uint256",
          "name": "_propID",
          "type": "uint256"
        }
      ],
      "name": "getVoteType",
      "outputs": [
        {
          "internalType": "address",
          "name": "",
          "type": "address"
        }
      ],
      "stateMutability": "view",
      "type": "function"
    },
    {
      "inputs": [
        {
          "internalType": "uint256",
          "name": "_minDelay",
          "type": "uint256"
        },
        {
          "internalType": "uint256",
          "name": "_startDelay",
          "type": "uint256"
        },
        {
          "internalType": "uint256",
          "name": "_endDelay",
          "type": "uint256"
        }
      ],
      "name": "initialise",
      "outputs": [],
      "stateMutability": "nonpayable",
      "type": "function"
    },
    {
      "inputs": [
        {
          "internalType": "uint256",
          "name": "_propID",
          "type": "uint256"
        }
      ],
      "name": "propDefeated",
      "outputs": [],
      "stateMutability": "nonpayable",
      "type": "function"
    },
    {
      "inputs": [
        {
          "internalType": "uint256",
          "name": "_propID",
          "type": "uint256"
        }
      ],
      "name": "propExecuted",
      "outputs": [],
      "stateMutability": "nonpayable",
      "type": "function"
    },
    {
      "inputs": [
        {
          "internalType": "uint256",
          "name": "_propID",
          "type": "uint256"
        }
      ],
      "name": "propExpire",
      "outputs": [],
      "stateMutability": "nonpayable",
      "type": "function"
    },
    {
      "inputs": [
        {
          "internalType": "uint256",
          "name": "_propID",
          "type": "uint256"
        }
      ],
      "name": "propQueued",
      "outputs": [],
      "stateMutability": "nonpayable",
      "type": "function"
    },
    {
      "inputs": [
        {
          "internalType": "uint256",
          "name": "_propID",
          "type": "uint256"
        }
      ],
      "name": "propVoting",
      "outputs": [],
      "stateMutability": "nonpayable",
      "type": "function"
    },
    {
      "inputs": [
        {
          "internalType": "uint256",
          "name": "time",
          "type": "uint256"
        }
      ],
      "name": "setCurrentTime",
      "outputs": [],
      "stateMutability": "nonpayable",
      "type": "function"
    },
    {
      "inputs": [],
      "name": "timerAddress",
      "outputs": [
        {
          "internalType": "address",
          "name": "",
          "type": "address"
        }
      ],
      "stateMutability": "view",
      "type": "function"
    },
    {
      "inputs": [
        {
          "internalType": "uint256",
          "name": "_startDelay",
          "type": "uint256"
        },
        {
          "internalType": "uint256",
          "name": "_endDelay",
          "type": "uint256"
        }
      ],
      "name": "updateDelays",
      "outputs": [],
      "stateMutability": "nonpayable",
      "type": "function"
    },
    {
      "inputs": [
        {
          "internalType": "uint256",
          "name": "_newMin",
          "type": "uint256"
        }
      ],
      "name": "updateMinDelay",
      "outputs": [],
      "stateMutability": "nonpayable",
      "type": "function"
    }
  ],
  "bytecode": "0x60c06040523480156200001157600080fd5b5060405162002ce038038062002ce083398181016040528101906200003791906200013f565b7f36209a57dfd79e3872ec3a0c88c653bbe7e32a12306e5e1f92f118c1936ae8b282828033600060026101000a81548173ffffffffffffffffffffffffffffffffffffffff021916908373ffffffffffffffffffffffffffffffffffffffff16021790555080600160006101000a81548173ffffffffffffffffffffffffffffffffffffffff021916908373ffffffffffffffffffffffffffffffffffffffff1602179055505082608081815250508173ffffffffffffffffffffffffffffffffffffffff1660a08173ffffffffffffffffffffffffffffffffffffffff1660601b815250505050505050620001d9565b6000815190506200013981620001bf565b92915050565b60008060408385031215620001595762000158620001ba565b5b6000620001698582860162000128565b92505060206200017c8582860162000128565b9150509250929050565b600062000193826200019a565b9050919050565b600073ffffffffffffffffffffffffffffffffffffffff82169050919050565b600080fd5b620001ca8162000186565b8114620001d657600080fd5b50565b60805160a05160601c612a98620002486000396000818161063f015281816107540152818161095c01528181610a2901528181610b310152818161104b01528181611251015281816115ea0152818161197c01528181611b820152611ba80152600061061b0152612a986000f3fe608060405234801561001057600080fd5b50600436106101205760003560e01c80637ef966e4116100ad578063b7abd80311610071578063b7abd8031461031a578063bc903cb814610336578063cd39ebfd1461036c578063eaddd0fd14610388578063f40507ac146103a657610120565b80637ef966e4146102635780638a99d5861461027f5780639e34fa6a1461029b578063a3e99958146102cb578063a6640e4c146102e757610120565b80633c9747f3116100f45780633c9747f3146101ad5780636aef4909146101cb5780636fad1c93146101e757806377e4b8111461021757806378cbf7e61461023357610120565b806262104a146101255780631c39c38d1461015557806322f8e5661461017357806329cb924d1461018f575b600080fd5b61013f600480360381019061013a9190612009565b6103c2565b60405161014c9190612352565b60405180910390f35b61015d610402565b60405161016a9190612352565b60405180910390f35b61018d60048036038101906101889190612009565b610428565b005b610197610514565b6040516101a491906125c7565b60405180910390f35b6101b5610619565b6040516101c29190612396565b60405180910390f35b6101e560048036038101906101e09190612063565b61063d565b005b61020160048036038101906101fc9190612009565b610730565b60405161020e9190612396565b60405180910390f35b610231600480360381019061022c9190612009565b610750565b005b61024d60048036038101906102489190611f95565b610957565b60405161025a91906125c7565b60405180910390f35b61027d60048036038101906102789190612009565b611047565b005b61029960048036038101906102949190612009565b61124f565b005b6102b560048036038101906102b09190611f3b565b61132a565b6040516102c291906125c7565b60405180910390f35b6102e560048036038101906102e091906120a3565b611347565b005b61030160048036038101906102fc9190612009565b61155b565b60405161031194939291906123cc565b60405180910390f35b610334600480360381019061032f9190612009565b6115e6565b005b610350600480360381019061034b9190612009565b6117ee565b6040516103639796959493929190612411565b60405180910390f35b61038660048036038101906103819190612009565b611978565b005b610390611b80565b60405161039d91906123b1565b60405180910390f35b6103c060048036038101906103bb9190612009565b611ba4565b005b60006002600083815260200190815260200160002060010160009054906101000a900473ffffffffffffffffffffffffffffffffffffffff169050919050565b600160009054906101000a900473ffffffffffffffffffffffffffffffffffffffff1681565b600073ffffffffffffffffffffffffffffffffffffffff16600160009054906101000a900473ffffffffffffffffffffffffffffffffffffffff1673ffffffffffffffffffffffffffffffffffffffff16141561048457600080fd5b600160009054906101000a900473ffffffffffffffffffffffffffffffffffffffff1673ffffffffffffffffffffffffffffffffffffffff166322f8e566826040518263ffffffff1660e01b81526004016104df91906125c7565b600060405180830381600087803b1580156104f957600080fd5b505af115801561050d573d6000803e3d6000fd5b5050505050565b60008073ffffffffffffffffffffffffffffffffffffffff16600160009054906101000a900473ffffffffffffffffffffffffffffffffffffffff1673ffffffffffffffffffffffffffffffffffffffff161461061257600160009054906101000a900473ffffffffffffffffffffffffffffffffffffffff1673ffffffffffffffffffffffffffffffffffffffff166329cb924d6040518163ffffffff1660e01b815260040160206040518083038186803b1580156105d357600080fd5b505afa1580156105e7573d6000803e3d6000fd5b505050506040513d601f19601f8201168201806040525081019061060b9190612036565b9050610616565b4290505b90565b7f000000000000000000000000000000000000000000000000000000000000000081565b7f000000000000000000000000000000000000000000000000000000000000000073ffffffffffffffffffffffffffffffffffffffff163373ffffffffffffffffffffffffffffffffffffffff16146106cb576040517f08c379a00000000000000000000000000000000000000000000000000000000081526004016106c2906124a7565b60405180910390fd5b60075482101580156106df57506007548110155b61071e576040517f08c379a000000000000000000000000000000000000000000000000000000000815260040161071590612507565b60405180910390fd5b81600581905550806006819055505050565b600060026000838152602001908152602001600020600201549050919050565b60007f000000000000000000000000000000000000000000000000000000000000000073ffffffffffffffffffffffffffffffffffffffff1663624a23e07fd578563424ab02f85ec03c6b1aee04947ebdd4a30db46cba3bcd7f56ef40b1996040518263ffffffff1660e01b81526004016107cb9190612396565b60206040518083038186803b1580156107e357600080fd5b505afa1580156107f7573d6000803e3d6000fd5b505050506040513d601f19601f8201168201806040525081019061081b9190611f0e565b90508073ffffffffffffffffffffffffffffffffffffffff163373ffffffffffffffffffffffffffffffffffffffff161461088b576040517f08c379a0000000000000000000000000000000000000000000000000000000008152600401610882906124c7565b60405180910390fd5b6001600881111561089f5761089e6127e7565b5b6002600084815260200190815260200160002060030160009054906101000a900460ff1660088111156108d5576108d46127e7565b5b14610915576040517f08c379a000000000000000000000000000000000000000000000000000000000815260040161090c90612587565b60405180910390fd5b600280600084815260200190815260200160002060030160006101000a81548160ff0219169083600881111561094e5761094d6127e7565b5b02179055505050565b6000807f000000000000000000000000000000000000000000000000000000000000000073ffffffffffffffffffffffffffffffffffffffff1663624a23e07f59e2d72f5870ccddd14d35394bd3c22374071b2da7c07a3d6c3b690400b736286040518263ffffffff1660e01b81526004016109d39190612396565b60206040518083038186803b1580156109eb57600080fd5b505afa1580156109ff573d6000803e3d6000fd5b505050506040513d601f19601f82011682018060405250810190610a239190611f0e565b905060007f000000000000000000000000000000000000000000000000000000000000000073ffffffffffffffffffffffffffffffffffffffff1663624a23e07fd578563424ab02f85ec03c6b1aee04947ebdd4a30db46cba3bcd7f56ef40b1996040518263ffffffff1660e01b8152600401610aa09190612396565b60206040518083038186803b158015610ab857600080fd5b505afa158015610acc573d6000803e3d6000fd5b505050506040513d601f19601f82011682018060405250810190610af09190611f0e565b9050600160046000828254610b05919061263c565b92505081905550600454925060008173ffffffffffffffffffffffffffffffffffffffff1663701370dc7f000000000000000000000000000000000000000000000000000000000000000073ffffffffffffffffffffffffffffffffffffffff1663624a23e07f346b2ab3a980432fd8f2e24828fc9f9ee2df1548701bc542f6ec17882b3276276040518263ffffffff1660e01b8152600401610ba89190612396565b60206040518083038186803b158015610bc057600080fd5b505afa158015610bd4573d6000803e3d6000fd5b505050506040513d601f19601f82011682018060405250810190610bf89190611f0e565b886040518363ffffffff1660e01b8152600401610c1692919061236d565b60206040518083038186803b158015610c2e57600080fd5b505afa158015610c42573d6000803e3d6000fd5b505050506040513d601f19601f82011682018060405250810190610c669190611f0e565b9050600073ffffffffffffffffffffffffffffffffffffffff168173ffffffffffffffffffffffffffffffffffffffff161415610cd8576040517f08c379a0000000000000000000000000000000000000000000000000000000008152600401610ccf906125a7565b60405180910390fd5b60008486610ce4610514565b604051602001610cf693929190612315565b604051602081830303815290604052905060008473ffffffffffffffffffffffffffffffffffffffff1663295adadf8789856040518463ffffffff1660e01b8152600401610d46939291906125e2565b602060405180830381600087803b158015610d6057600080fd5b505af1158015610d74573d6000803e3d6000fd5b505050506040513d601f19601f82011682018060405250810190610d989190611f68565b90506000801b811415610de0576040517f08c379a0000000000000000000000000000000000000000000000000000000008152600401610dd790612547565b60405180910390fd5b6000600360008381526020019081526020016000205414610e36576040517f08c379a0000000000000000000000000000000000000000000000000000000008152600401610e2d90612527565b60405180910390fd5b6000600554610e43610514565b610e4d919061263c565b90506040518060e001604052808c8c8080601f016020809104026020016040519081016040528093929190818152602001838380828437600081840152601f19601f8201169050808301925050505050505081526020018573ffffffffffffffffffffffffffffffffffffffff16815260200183815260200160016008811115610eda57610ed96127e7565b5b815260200182815260200160065483610ef3919061263c565b815260200160001515815250600260008981526020019081526020016000206000820151816000019080519060200190610f2e929190611dac565b5060208201518160010160006101000a81548173ffffffffffffffffffffffffffffffffffffffff021916908373ffffffffffffffffffffffffffffffffffffffff1602179055506040820151816002015560608201518160030160006101000a81548160ff02191690836008811115610fab57610faa6127e7565b5b02179055506080820151816004015560a0820151816005015560c08201518160060160006101000a81548160ff021916908315150217905550905050866003600084815260200190815260200160002081905550867f782ad24bfb2592c2db8ec384bf93db57c8c631ca93227f9419c9d185d4de793d858460405161103192919061236d565b60405180910390a2505050505050949350505050565b60007f000000000000000000000000000000000000000000000000000000000000000073ffffffffffffffffffffffffffffffffffffffff1663624a23e07fd578563424ab02f85ec03c6b1aee04947ebdd4a30db46cba3bcd7f56ef40b1996040518263ffffffff1660e01b81526004016110c29190612396565b60206040518083038186803b1580156110da57600080fd5b505afa1580156110ee573d6000803e3d6000fd5b505050506040513d601f19601f820116820180604052508101906111129190611f0e565b90508073ffffffffffffffffffffffffffffffffffffffff163373ffffffffffffffffffffffffffffffffffffffff1614611182576040517f08c379a0000000000000000000000000000000000000000000000000000000008152600401611179906124c7565b60405180910390fd5b60026008811115611196576111956127e7565b5b6002600084815260200190815260200160002060030160009054906101000a900460ff1660088111156111cc576111cb6127e7565b5b1461120c576040517f08c379a000000000000000000000000000000000000000000000000000000000815260040161120390612587565b60405180910390fd5b60076002600084815260200190815260200160002060030160006101000a81548160ff02191690836008811115611246576112456127e7565b5b02179055505050565b7f000000000000000000000000000000000000000000000000000000000000000073ffffffffffffffffffffffffffffffffffffffff163373ffffffffffffffffffffffffffffffffffffffff16146112dd576040517f08c379a00000000000000000000000000000000000000000000000000000000081526004016112d4906124a7565b60405180910390fd5b600f8111611320576040517f08c379a000000000000000000000000000000000000000000000000000000000815260040161131790612567565b60405180910390fd5b8060078190555050565b600060036000838152602001908152602001600020549050919050565b600060019054906101000a900460ff168061136d575060008054906101000a900460ff16155b6113ac576040517f08c379a00000000000000000000000000000000000000000000000000000000081526004016113a3906124e7565b60405180910390fd5b600060029054906101000a900473ffffffffffffffffffffffffffffffffffffffff1673ffffffffffffffffffffffffffffffffffffffff163373ffffffffffffffffffffffffffffffffffffffff161461143c576040517f08c379a000000000000000000000000000000000000000000000000000000000815260040161143390612487565b60405180910390fd5b60008060019054906101000a900460ff16159050801561148c576001600060016101000a81548160ff02191690831515021790555060016000806101000a81548160ff0219169083151502179055505b600f8410156114d0576040517f08c379a00000000000000000000000000000000000000000000000000000000081526004016114c790612567565b60405180910390fd5b8383101580156114e05750838210155b61151f576040517f08c379a000000000000000000000000000000000000000000000000000000000815260040161151690612507565b60405180910390fd5b83600781905550826005819055508160068190555080156115555760008060016101000a81548160ff0219169083151502179055505b50505050565b6000806000806002600086815260200190815260200160002060030160009054906101000a900460ff16600260008781526020019081526020016000206004015460026000888152602001908152602001600020600501546002600089815260200190815260200160002060060160009054906101000a900460ff1693509350935093509193509193565b60007f000000000000000000000000000000000000000000000000000000000000000073ffffffffffffffffffffffffffffffffffffffff1663624a23e07fd578563424ab02f85ec03c6b1aee04947ebdd4a30db46cba3bcd7f56ef40b1996040518263ffffffff1660e01b81526004016116619190612396565b60206040518083038186803b15801561167957600080fd5b505afa15801561168d573d6000803e3d6000fd5b505050506040513d601f19601f820116820180604052508101906116b19190611f0e565b90508073ffffffffffffffffffffffffffffffffffffffff163373ffffffffffffffffffffffffffffffffffffffff1614611721576040517f08c379a0000000000000000000000000000000000000000000000000000000008152600401611718906124c7565b60405180910390fd5b60066008811115611735576117346127e7565b5b6002600084815260200190815260200160002060030160009054906101000a900460ff16600881111561176b5761176a6127e7565b5b146117ab576040517f08c379a00000000000000000000000000000000000000000000000000000000081526004016117a290612587565b60405180910390fd5b60086002600084815260200190815260200160002060030160006101000a81548160ff021916908360088111156117e5576117e46127e7565b5b02179055505050565b606060008060008060008060026000898152602001908152602001600020600001600260008a815260200190815260200160002060010160009054906101000a900473ffffffffffffffffffffffffffffffffffffffff16600260008b815260200190815260200160002060020154600260008c815260200190815260200160002060030160009054906101000a900460ff16600260008d815260200190815260200160002060040154600260008e815260200190815260200160002060050154600260008f815260200190815260200160002060060160009054906101000a900460ff168680546118df90612772565b80601f016020809104026020016040519081016040528092919081815260200182805461190b90612772565b80156119585780601f1061192d57610100808354040283529160200191611958565b820191906000526020600020905b81548152906001019060200180831161193b57829003601f168201915b505050505096509650965096509650965096509650919395979092949650565b60007f000000000000000000000000000000000000000000000000000000000000000073ffffffffffffffffffffffffffffffffffffffff1663624a23e07fd578563424ab02f85ec03c6b1aee04947ebdd4a30db46cba3bcd7f56ef40b1996040518263ffffffff1660e01b81526004016119f39190612396565b60206040518083038186803b158015611a0b57600080fd5b505afa158015611a1f573d6000803e3d6000fd5b505050506040513d601f19601f82011682018060405250810190611a439190611f0e565b90508073ffffffffffffffffffffffffffffffffffffffff163373ffffffffffffffffffffffffffffffffffffffff1614611ab3576040517f08c379a0000000000000000000000000000000000000000000000000000000008152600401611aaa906124c7565b60405180910390fd5b60026008811115611ac757611ac66127e7565b5b6002600084815260200190815260200160002060030160009054906101000a900460ff166008811115611afd57611afc6127e7565b5b14611b3d576040517f08c379a0000000000000000000000000000000000000000000000000000000008152600401611b3490612587565b60405180910390fd5b60066002600084815260200190815260200160002060030160006101000a81548160ff02191690836008811115611b7757611b766127e7565b5b02179055505050565b7f000000000000000000000000000000000000000000000000000000000000000081565b60007f000000000000000000000000000000000000000000000000000000000000000073ffffffffffffffffffffffffffffffffffffffff1663624a23e07fd578563424ab02f85ec03c6b1aee04947ebdd4a30db46cba3bcd7f56ef40b1996040518263ffffffff1660e01b8152600401611c1f9190612396565b60206040518083038186803b158015611c3757600080fd5b505afa158015611c4b573d6000803e3d6000fd5b505050506040513d601f19601f82011682018060405250810190611c6f9190611f0e565b90508073ffffffffffffffffffffffffffffffffffffffff163373ffffffffffffffffffffffffffffffffffffffff1614611cdf576040517f08c379a0000000000000000000000000000000000000000000000000000000008152600401611cd6906124c7565b60405180910390fd5b60026008811115611cf357611cf26127e7565b5b6002600084815260200190815260200160002060030160009054906101000a900460ff166008811115611d2957611d286127e7565b5b14611d69576040517f08c379a0000000000000000000000000000000000000000000000000000000008152600401611d6090612587565b60405180910390fd5b60046002600084815260200190815260200160002060030160006101000a81548160ff02191690836008811115611da357611da26127e7565b5b02179055505050565b828054611db890612772565b90600052602060002090601f016020900481019282611dda5760008555611e21565b82601f10611df357805160ff1916838001178555611e21565b82800160010185558215611e21579182015b82811115611e20578251825591602001919060010190611e05565b5b509050611e2e9190611e32565b5090565b5b80821115611e4b576000816000905550600101611e33565b5090565b600081519050611e5e81612a1d565b92915050565b600081359050611e7381612a34565b92915050565b600081519050611e8881612a34565b92915050565b60008083601f840112611ea457611ea361284a565b5b8235905067ffffffffffffffff811115611ec157611ec0612845565b5b602083019150836001820283011115611edd57611edc61284f565b5b9250929050565b600081359050611ef381612a4b565b92915050565b600081519050611f0881612a4b565b92915050565b600060208284031215611f2457611f23612859565b5b6000611f3284828501611e4f565b91505092915050565b600060208284031215611f5157611f50612859565b5b6000611f5f84828501611e64565b91505092915050565b600060208284031215611f7e57611f7d612859565b5b6000611f8c84828501611e79565b91505092915050565b60008060008060608587031215611faf57611fae612859565b5b600085013567ffffffffffffffff811115611fcd57611fcc612854565b5b611fd987828801611e8e565b94509450506020611fec87828801611e64565b9250506040611ffd87828801611e64565b91505092959194509250565b60006020828403121561201f5761201e612859565b5b600061202d84828501611ee4565b91505092915050565b60006020828403121561204c5761204b612859565b5b600061205a84828501611ef9565b91505092915050565b6000806040838503121561207a57612079612859565b5b600061208885828601611ee4565b925050602061209985828601611ee4565b9150509250929050565b6000806000606084860312156120bc576120bb612859565b5b60006120ca86828701611ee4565b93505060206120db86828701611ee4565b92505060406120ec86828701611ee4565b9150509250925092565b6120ff81612692565b82525050565b61210e816126a4565b82525050565b61211d816126b0565b82525050565b61213461212f826126b0565b6127a4565b82525050565b612143816126f7565b82525050565b61215281612709565b82525050565b600061216382612620565b61216d818561262b565b935061217d81856020860161273f565b6121868161285e565b840191505092915050565b600061219e601c8361262b565b91506121a98261286f565b602082019050919050565b60006121c1601c8361262b565b91506121cc82612898565b602082019050919050565b60006121e460198361262b565b91506121ef826128c1565b602082019050919050565b6000612207601d8361262b565b9150612212826128ea565b602082019050919050565b600061222a60188361262b565b915061223582612913565b602082019050919050565b600061224d601f8361262b565b91506122588261293c565b602082019050919050565b600061227060188361262b565b915061227b82612965565b602082019050919050565b600061229360158361262b565b915061229e8261298e565b602082019050919050565b60006122b6601c8361262b565b91506122c1826129b7565b602082019050919050565b60006122d960178361262b565b91506122e4826129e0565b602082019050919050565b6122f8816126ed565b82525050565b61230f61230a826126ed565b6127ae565b82525050565b600061232182866122fe565b6020820191506123318285612123565b60208201915061234182846122fe565b602082019150819050949350505050565b600060208201905061236760008301846120f6565b92915050565b600060408201905061238260008301856120f6565b61238f6020830184612114565b9392505050565b60006020820190506123ab6000830184612114565b92915050565b60006020820190506123c6600083018461213a565b92915050565b60006080820190506123e16000830187612149565b6123ee60208301866122ef565b6123fb60408301856122ef565b6124086060830184612105565b95945050505050565b600060e082019050818103600083015261242b818a612158565b905061243a60208301896120f6565b6124476040830188612114565b6124546060830187612149565b61246160808301866122ef565b61246e60a08301856122ef565b61247b60c0830184612105565b98975050505050505050565b600060208201905081810360008301526124a081612191565b9050919050565b600060208201905081810360008301526124c0816121b4565b9050919050565b600060208201905081810360008301526124e0816121d7565b9050919050565b60006020820190508181036000830152612500816121fa565b9050919050565b600060208201905081810360008301526125208161221d565b9050919050565b6000602082019050818103600083015261254081612240565b9050919050565b6000602082019050818103600083015261256081612263565b9050919050565b6000602082019050818103600083015261258081612286565b9050919050565b600060208201905081810360008301526125a0816122a9565b9050919050565b600060208201905081810360008301526125c0816122cc565b9050919050565b60006020820190506125dc60008301846122ef565b92915050565b60006060820190506125f760008301866122ef565b6126046020830185612114565b81810360408301526126168184612158565b9050949350505050565b600081519050919050565b600082825260208201905092915050565b6000612647826126ed565b9150612652836126ed565b9250827fffffffffffffffffffffffffffffffffffffffffffffffffffffffffffffffff03821115612687576126866127b8565b5b828201905092915050565b600061269d826126cd565b9050919050565b60008115159050919050565b6000819050919050565b60008190506126c882612a09565b919050565b600073ffffffffffffffffffffffffffffffffffffffff82169050919050565b6000819050919050565b60006127028261271b565b9050919050565b6000612714826126ba565b9050919050565b60006127268261272d565b9050919050565b6000612738826126cd565b9050919050565b60005b8381101561275d578082015181840152602081019050612742565b8381111561276c576000848401525b50505050565b6000600282049050600182168061278a57607f821691505b6020821081141561279e5761279d612816565b5b50919050565b6000819050919050565b6000819050919050565b7f4e487b7100000000000000000000000000000000000000000000000000000000600052601160045260246000fd5b7f4e487b7100000000000000000000000000000000000000000000000000000000600052602160045260246000fd5b7f4e487b7100000000000000000000000000000000000000000000000000000000600052602260045260246000fd5b600080fd5b600080fd5b600080fd5b600080fd5b600080fd5b6000601f19601f8301169050919050565b7f496e69743a204f6e6c79206465706c6f7965722063616e20696e697400000000600082015250565b7f53797374656d3a204f6e6c7920636f72652063616e206d6f6469667900000000600082015250565b7f50726f703a204f6e6c7920636f6f72642063616e2063616c6c00000000000000600082015250565b7f496e69743a20436f6e747261637420697320696e697469616c697a6564000000600082015250565b7f50726f703a2064656c6179732063616e6e6f7420626520300000000000000000600082015250565b7f50726f703a2045786520494420616c7265616479206173736f63696174656400600082015250565b7f50726f703a2045786520646f6573206e6f742065786973740000000000000000600082015250565b7f50726f703a206d696e2063616e6e6f7420626520300000000000000000000000600082015250565b7f50726f703a20496e76616c6964207374617465206d6f76656d656e7400000000600082015250565b7f50726f703a20496e76616c696420766f74652074797065000000000000000000600082015250565b60098110612a1a57612a196127e7565b5b50565b612a2681612692565b8114612a3157600080fd5b50565b612a3d816126b0565b8114612a4857600080fd5b50565b612a54816126ed565b8114612a5f57600080fd5b5056fea2646970667358221220f87990e94253d563dd7ef12a2ea8defdcdcca60592000aa9009f5032a6a34c5664736f6c63430008070033",
  "linkReferences": {},
  "deployedLinkReferences": {}
}