{
  "_format": "hh-sol-artifact-1",
  "contractName": "Proposals",
  "sourceName": "contracts/Proposals.sol",
  "abi": [
    {
      "inputs": [
        {
          "internalType": "address",
          "name": "_core",
          "type": "address"
        }
      ],
      "stateMutability": "nonpayable",
      "type": "constructor"
    },
    {
      "anonymous": false,
      "inputs": [
        {
          "indexed": true,
          "internalType": "uint256",
          "name": "propID",
          "type": "uint256"
        },
        {
          "indexed": false,
          "internalType": "address",
          "name": "voteType",
          "type": "address"
        },
        {
          "indexed": false,
          "internalType": "bytes32",
          "name": "exeID",
          "type": "bytes32"
        }
      ],
      "name": "NewProposal",
      "type": "event"
    },
    {
      "inputs": [],
      "name": "IDENTIFIER",
      "outputs": [
        {
          "internalType": "bytes32",
          "name": "",
          "type": "bytes32"
        }
      ],
      "stateMutability": "view",
      "type": "function"
    },
    {
      "inputs": [],
      "name": "core_",
      "outputs": [
        {
          "internalType": "contract ICore",
          "name": "",
          "type": "address"
        }
      ],
      "stateMutability": "view",
      "type": "function"
    },
    {
      "inputs": [
        {
          "internalType": "string",
          "name": "_description",
          "type": "string"
        },
        {
          "internalType": "address",
          "name": "_voteType",
          "type": "address"
        },
        {
          "internalType": "bytes32",
          "name": "_consensusType",
          "type": "bytes32"
        },
        {
          "internalType": "bytes32",
          "name": "_exeID",
          "type": "bytes32"
        }
      ],
      "name": "createPropWithExe",
      "outputs": [
        {
          "internalType": "uint256",
          "name": "propID",
          "type": "uint256"
        }
      ],
      "stateMutability": "nonpayable",
      "type": "function"
    },
    {
      "inputs": [
        {
          "internalType": "uint256",
          "name": "_propID",
          "type": "uint256"
        }
      ],
      "name": "getVoteType",
      "outputs": [
        {
          "internalType": "address",
          "name": "",
          "type": "address"
        }
      ],
      "stateMutability": "view",
      "type": "function"
    }
  ],
  "bytecode": "0x60c060405234801561001057600080fd5b50604051610bbd380380610bbd833981810160405281019061003291906100b0565b7f36209a57dfd79e3872ec3a0c88c653bbe7e32a12306e5e1f92f118c1936ae8b28181608081815250508073ffffffffffffffffffffffffffffffffffffffff1660a08173ffffffffffffffffffffffffffffffffffffffff1660601b8152505050505061012b565b6000815190506100aa81610114565b92915050565b6000602082840312156100c6576100c561010f565b5b60006100d48482850161009b565b91505092915050565b60006100e8826100ef565b9050919050565b600073ffffffffffffffffffffffffffffffffffffffff82169050919050565b600080fd5b61011d816100dd565b811461012857600080fd5b50565b60805160a05160601c610a6361015a6000396000818161013101526104630152600061043f0152610a636000f3fe608060405234801561001057600080fd5b506004361061004b5760003560e01c806262104a146100505780632b7203a8146100805780633c9747f3146100b0578063eaddd0fd146100ce575b600080fd5b61006a600480360381019061006591906106c9565b6100ec565b6040516100779190610755565b60405180910390f35b61009a60048036038101906100959190610641565b61012c565b6040516100a791906107ef565b60405180910390f35b6100b861043d565b6040516100c59190610799565b60405180910390f35b6100d6610461565b6040516100e391906107b4565b60405180910390f35b60006001600083815260200190815260200160002060010160009054906101000a900473ffffffffffffffffffffffffffffffffffffffff169050919050565b6000807f000000000000000000000000000000000000000000000000000000000000000073ffffffffffffffffffffffffffffffffffffffff1663624a23e07f59e2d72f5870ccddd14d35394bd3c22374071b2da7c07a3d6c3b690400b736286040518263ffffffff1660e01b81526004016101a89190610799565b60206040518083038186803b1580156101c057600080fd5b505afa1580156101d4573d6000803e3d6000fd5b505050506040513d601f19601f820116820180604052508101906101f891906105e7565b9050600160008082825461020c9190610844565b92505081905550600054915060008173ffffffffffffffffffffffffffffffffffffffff1663204d67b584866040518363ffffffff1660e01b815260040161025592919061080a565b602060405180830381600087803b15801561026f57600080fd5b505af1158015610283573d6000803e3d6000fd5b505050506040513d601f19601f820116820180604052508101906102a79190610614565b90506000801b8114156102ef576040517f08c379a00000000000000000000000000000000000000000000000000000000081526004016102e6906107cf565b60405180910390fd5b604051806080016040528089898080601f016020809104026020016040519081016040528093929190818152602001838380828437600081840152601f19601f8201169050808301925050505050505081526020018773ffffffffffffffffffffffffffffffffffffffff16815260200186815260200182815250600160008581526020019081526020016000206000820151816000019080519060200190610399929190610485565b5060208201518160010160006101000a81548173ffffffffffffffffffffffffffffffffffffffff021916908373ffffffffffffffffffffffffffffffffffffffff1602179055506040820151816002015560608201518160030155905050827f782ad24bfb2592c2db8ec384bf93db57c8c631ca93227f9419c9d185d4de793d878660405161042a929190610770565b60405180910390a2505095945050505050565b7f000000000000000000000000000000000000000000000000000000000000000081565b7f000000000000000000000000000000000000000000000000000000000000000081565b82805461049190610916565b90600052602060002090601f0160209004810192826104b357600085556104fa565b82601f106104cc57805160ff19168380011785556104fa565b828001600101855582156104fa579182015b828111156104f95782518255916020019190600101906104de565b5b509050610507919061050b565b5090565b5b8082111561052457600081600090555060010161050c565b5090565b600081359050610537816109e8565b92915050565b60008151905061054c816109e8565b92915050565b600081359050610561816109ff565b92915050565b600081519050610576816109ff565b92915050565b60008083601f840112610592576105916109ab565b5b8235905067ffffffffffffffff8111156105af576105ae6109a6565b5b6020830191508360018202830111156105cb576105ca6109b0565b5b9250929050565b6000813590506105e181610a16565b92915050565b6000602082840312156105fd576105fc6109ba565b5b600061060b8482850161053d565b91505092915050565b60006020828403121561062a576106296109ba565b5b600061063884828501610567565b91505092915050565b60008060008060006080868803121561065d5761065c6109ba565b5b600086013567ffffffffffffffff81111561067b5761067a6109b5565b5b6106878882890161057c565b9550955050602061069a88828901610528565b93505060406106ab88828901610552565b92505060606106bc88828901610552565b9150509295509295909350565b6000602082840312156106df576106de6109ba565b5b60006106ed848285016105d2565b91505092915050565b6106ff8161089a565b82525050565b61070e816108ac565b82525050565b61071d816108e0565b82525050565b6000610730601883610833565b915061073b826109bf565b602082019050919050565b61074f816108d6565b82525050565b600060208201905061076a60008301846106f6565b92915050565b600060408201905061078560008301856106f6565b6107926020830184610705565b9392505050565b60006020820190506107ae6000830184610705565b92915050565b60006020820190506107c96000830184610714565b92915050565b600060208201905081810360008301526107e881610723565b9050919050565b60006020820190506108046000830184610746565b92915050565b600060408201905061081f6000830185610746565b61082c6020830184610705565b9392505050565b600082825260208201905092915050565b600061084f826108d6565b915061085a836108d6565b9250827fffffffffffffffffffffffffffffffffffffffffffffffffffffffffffffffff0382111561088f5761088e610948565b5b828201905092915050565b60006108a5826108b6565b9050919050565b6000819050919050565b600073ffffffffffffffffffffffffffffffffffffffff82169050919050565b6000819050919050565b60006108eb826108f2565b9050919050565b60006108fd82610904565b9050919050565b600061090f826108b6565b9050919050565b6000600282049050600182168061092e57607f821691505b6020821081141561094257610941610977565b5b50919050565b7f4e487b7100000000000000000000000000000000000000000000000000000000600052601160045260246000fd5b7f4e487b7100000000000000000000000000000000000000000000000000000000600052602260045260246000fd5b600080fd5b600080fd5b600080fd5b600080fd5b600080fd5b7f50726f703a2045786520646f6573206e6f742065786973740000000000000000600082015250565b6109f18161089a565b81146109fc57600080fd5b50565b610a08816108ac565b8114610a1357600080fd5b50565b610a1f816108d6565b8114610a2a57600080fd5b5056fea2646970667358221220162fdb711a22c4fba1295fb7d824c81b7b49475af5626f343d136bda70613ea064736f6c63430008070033",
  "linkReferences": {},
  "deployedLinkReferences": {}
}