{
  "_format": "hh-sol-artifact-1",
  "contractName": "Proposals",
  "sourceName": "contracts/Proposals.sol",
  "abi": [
    {
      "inputs": [
        {
          "internalType": "address",
          "name": "_core",
          "type": "address"
        }
      ],
      "stateMutability": "nonpayable",
      "type": "constructor"
    },
    {
      "inputs": [],
      "name": "IDENTIFIER",
      "outputs": [
        {
          "internalType": "bytes32",
          "name": "",
          "type": "bytes32"
        }
      ],
      "stateMutability": "view",
      "type": "function"
    },
    {
      "inputs": [],
      "name": "core_",
      "outputs": [
        {
          "internalType": "contract ICore",
          "name": "",
          "type": "address"
        }
      ],
      "stateMutability": "view",
      "type": "function"
    },
    {
      "inputs": [
        {
          "internalType": "string",
          "name": "_description",
          "type": "string"
        },
        {
          "internalType": "bytes32",
          "name": "_voteType",
          "type": "bytes32"
        },
        {
          "internalType": "bytes32",
          "name": "_consensusType",
          "type": "bytes32"
        },
        {
          "internalType": "bytes32",
          "name": "_exeID",
          "type": "bytes32"
        }
      ],
      "name": "createPropWithExe",
      "outputs": [
        {
          "internalType": "uint256",
          "name": "propID",
          "type": "uint256"
        }
      ],
      "stateMutability": "nonpayable",
      "type": "function"
    }
  ],
  "bytecode": "0x60c060405234801561001057600080fd5b506040516109f33803806109f3833981810160405281019061003291906100b0565b7f36209a57dfd79e3872ec3a0c88c653bbe7e32a12306e5e1f92f118c1936ae8b28181608081815250508073ffffffffffffffffffffffffffffffffffffffff1660a08173ffffffffffffffffffffffffffffffffffffffff1660601b8152505050505061012b565b6000815190506100aa81610114565b92915050565b6000602082840312156100c6576100c561010f565b5b60006100d48482850161009b565b91505092915050565b60006100e8826100ef565b9050919050565b600073ffffffffffffffffffffffffffffffffffffffff82169050919050565b600080fd5b61011d816100dd565b811461012857600080fd5b50565b60805160a05160601c61089b6101586000396000818160db015261035c0152600060b4015261089b6000f3fe608060405234801561001057600080fd5b50600436106100415760003560e01c80633c9747f314610046578063797efb1314610064578063eaddd0fd14610094575b600080fd5b61004e6100b2565b60405161005b91906105e8565b60405180910390f35b61007e60048036038101906100799190610510565b6100d6565b60405161008b919061063e565b60405180910390f35b61009c61035a565b6040516100a99190610603565b60405180910390f35b7f000000000000000000000000000000000000000000000000000000000000000081565b6000807f000000000000000000000000000000000000000000000000000000000000000073ffffffffffffffffffffffffffffffffffffffff1663624a23e07f59e2d72f5870ccddd14d35394bd3c22374071b2da7c07a3d6c3b690400b736286040518263ffffffff1660e01b815260040161015291906105e8565b60206040518083038186803b15801561016a57600080fd5b505afa15801561017e573d6000803e3d6000fd5b505050506040513d601f19601f820116820180604052508101906101a291906104b6565b905060016000808282546101b69190610693565b92505081905550600054915060008173ffffffffffffffffffffffffffffffffffffffff1663204d67b584866040518363ffffffff1660e01b81526004016101ff929190610659565b602060405180830381600087803b15801561021957600080fd5b505af115801561022d573d6000803e3d6000fd5b505050506040513d601f19601f8201168201806040525081019061025191906104e3565b90506000801b811415610299576040517f08c379a00000000000000000000000000000000000000000000000000000000081526004016102909061061e565b60405180910390fd5b604051806080016040528089898080601f016020809104026020016040519081016040528093929190818152602001838380828437600081840152601f19601f8201169050808301925050505050505081526020018781526020018681526020018281525060016000858152602001908152602001600020600082015181600001908051906020019061032d92919061037e565b50602082015181600101556040820151816002015560608201518160030155905050505095945050505050565b7f000000000000000000000000000000000000000000000000000000000000000081565b82805461038a90610765565b90600052602060002090601f0160209004810192826103ac57600085556103f3565b82601f106103c557805160ff19168380011785556103f3565b828001600101855582156103f3579182015b828111156103f25782518255916020019190600101906103d7565b5b5090506104009190610404565b5090565b5b8082111561041d576000816000905550600101610405565b5090565b60008151905061043081610837565b92915050565b6000813590506104458161084e565b92915050565b60008151905061045a8161084e565b92915050565b60008083601f840112610476576104756107fa565b5b8235905067ffffffffffffffff811115610493576104926107f5565b5b6020830191508360018202830111156104af576104ae6107ff565b5b9250929050565b6000602082840312156104cc576104cb610809565b5b60006104da84828501610421565b91505092915050565b6000602082840312156104f9576104f8610809565b5b60006105078482850161044b565b91505092915050565b60008060008060006080868803121561052c5761052b610809565b5b600086013567ffffffffffffffff81111561054a57610549610804565b5b61055688828901610460565b9550955050602061056988828901610436565b935050604061057a88828901610436565b925050606061058b88828901610436565b9150509295509295909350565b6105a1816106fb565b82525050565b6105b08161072f565b82525050565b60006105c3601883610682565b91506105ce8261080e565b602082019050919050565b6105e281610725565b82525050565b60006020820190506105fd6000830184610598565b92915050565b600060208201905061061860008301846105a7565b92915050565b60006020820190508181036000830152610637816105b6565b9050919050565b600060208201905061065360008301846105d9565b92915050565b600060408201905061066e60008301856105d9565b61067b6020830184610598565b9392505050565b600082825260208201905092915050565b600061069e82610725565b91506106a983610725565b9250827fffffffffffffffffffffffffffffffffffffffffffffffffffffffffffffffff038211156106de576106dd610797565b5b828201905092915050565b60006106f482610705565b9050919050565b6000819050919050565b600073ffffffffffffffffffffffffffffffffffffffff82169050919050565b6000819050919050565b600061073a82610741565b9050919050565b600061074c82610753565b9050919050565b600061075e82610705565b9050919050565b6000600282049050600182168061077d57607f821691505b60208210811415610791576107906107c6565b5b50919050565b7f4e487b7100000000000000000000000000000000000000000000000000000000600052601160045260246000fd5b7f4e487b7100000000000000000000000000000000000000000000000000000000600052602260045260246000fd5b600080fd5b600080fd5b600080fd5b600080fd5b600080fd5b7f436f72653a2045786520646f6573206e6f742065786973740000000000000000600082015250565b610840816106e9565b811461084b57600080fd5b50565b610857816106fb565b811461086257600080fd5b5056fea26469706673582212201e4587fd66123c34ecb9c8944b3c7caab3954e4fbbddcd8b571e9a9a4b8fe89064736f6c63430008070033",
  "linkReferences": {},
  "deployedLinkReferences": {}
}