{
  "_format": "hh-sol-artifact-1",
  "contractName": "Proposals",
  "sourceName": "contracts/Proposals.sol",
  "abi": [
    {
      "inputs": [
        {
          "internalType": "address",
          "name": "_core",
          "type": "address"
        },
        {
          "internalType": "address",
          "name": "_timer",
          "type": "address"
        }
      ],
      "stateMutability": "nonpayable",
      "type": "constructor"
    },
    {
      "anonymous": false,
      "inputs": [
        {
          "indexed": true,
          "internalType": "uint256",
          "name": "propID",
          "type": "uint256"
        },
        {
          "indexed": false,
          "internalType": "address",
          "name": "voteType",
          "type": "address"
        },
        {
          "indexed": false,
          "internalType": "bytes32",
          "name": "exeID",
          "type": "bytes32"
        }
      ],
      "name": "NewProposal",
      "type": "event"
    },
    {
      "inputs": [],
      "name": "IDENTIFIER",
      "outputs": [
        {
          "internalType": "bytes32",
          "name": "",
          "type": "bytes32"
        }
      ],
      "stateMutability": "view",
      "type": "function"
    },
    {
      "inputs": [
        {
          "internalType": "bytes32",
          "name": "c__0x00e2a1ba",
          "type": "bytes32"
        }
      ],
      "name": "c_0x00e2a1ba",
      "outputs": [],
      "stateMutability": "pure",
      "type": "function"
    },
    {
      "inputs": [
        {
          "internalType": "bytes32",
          "name": "c__0x35ade16d",
          "type": "bytes32"
        }
      ],
      "name": "c_0x35ade16d",
      "outputs": [],
      "stateMutability": "pure",
      "type": "function"
    },
    {
      "inputs": [
        {
          "internalType": "bytes32",
          "name": "c__0xd2d47961",
          "type": "bytes32"
        }
      ],
      "name": "c_0xd2d47961",
      "outputs": [],
      "stateMutability": "pure",
      "type": "function"
    },
    {
      "inputs": [],
      "name": "core_",
      "outputs": [
        {
          "internalType": "contract ICore",
          "name": "",
          "type": "address"
        }
      ],
      "stateMutability": "view",
      "type": "function"
    },
    {
      "inputs": [
        {
          "internalType": "string",
          "name": "_description",
          "type": "string"
        },
        {
          "internalType": "bytes32",
          "name": "_voteTypeID",
          "type": "bytes32"
        },
        {
          "internalType": "bytes32",
          "name": "_exeID",
          "type": "bytes32"
        }
      ],
      "name": "createPropWithExe",
      "outputs": [
        {
          "internalType": "uint256",
          "name": "propID",
          "type": "uint256"
        }
      ],
      "stateMutability": "nonpayable",
      "type": "function"
    },
    {
      "inputs": [],
      "name": "getCurrentTime",
      "outputs": [
        {
          "internalType": "uint256",
          "name": "",
          "type": "uint256"
        }
      ],
      "stateMutability": "view",
      "type": "function"
    },
    {
      "inputs": [
        {
          "internalType": "uint256",
          "name": "_propID",
          "type": "uint256"
        }
      ],
      "name": "getExeOfProp",
      "outputs": [
        {
          "internalType": "bytes32",
          "name": "",
          "type": "bytes32"
        }
      ],
      "stateMutability": "view",
      "type": "function"
    },
    {
      "inputs": [
        {
          "internalType": "bytes32",
          "name": "_exeID",
          "type": "bytes32"
        }
      ],
      "name": "getPropOfExe",
      "outputs": [
        {
          "internalType": "uint256",
          "name": "",
          "type": "uint256"
        }
      ],
      "stateMutability": "view",
      "type": "function"
    },
    {
      "inputs": [
        {
          "internalType": "uint256",
          "name": "_propID",
          "type": "uint256"
        }
      ],
      "name": "getPropVotables",
      "outputs": [
        {
          "internalType": "enum IProp.PropStatus",
          "name": "state",
          "type": "uint8"
        },
        {
          "internalType": "uint256",
          "name": "voteStart",
          "type": "uint256"
        },
        {
          "internalType": "uint256",
          "name": "voteEnd",
          "type": "uint256"
        },
        {
          "internalType": "bool",
          "name": "spent",
          "type": "bool"
        }
      ],
      "stateMutability": "view",
      "type": "function"
    },
    {
      "inputs": [
        {
          "internalType": "uint256",
          "name": "_propID",
          "type": "uint256"
        }
      ],
      "name": "getProposalInfo",
      "outputs": [
        {
          "internalType": "string",
          "name": "description",
          "type": "string"
        },
        {
          "internalType": "address",
          "name": "voteType",
          "type": "address"
        },
        {
          "internalType": "bytes32",
          "name": "exeID",
          "type": "bytes32"
        },
        {
          "internalType": "enum IProp.PropStatus",
          "name": "state",
          "type": "uint8"
        },
        {
          "internalType": "uint256",
          "name": "voteStart",
          "type": "uint256"
        },
        {
          "internalType": "uint256",
          "name": "voteEnd",
          "type": "uint256"
        },
        {
          "internalType": "bool",
          "name": "spent",
          "type": "bool"
        }
      ],
      "stateMutability": "view",
      "type": "function"
    },
    {
      "inputs": [
        {
          "internalType": "uint256",
          "name": "_propID",
          "type": "uint256"
        }
      ],
      "name": "getVoteType",
      "outputs": [
        {
          "internalType": "address",
          "name": "",
          "type": "address"
        }
      ],
      "stateMutability": "view",
      "type": "function"
    },
    {
      "inputs": [
        {
          "internalType": "uint256",
          "name": "_minDelay",
          "type": "uint256"
        },
        {
          "internalType": "uint256",
          "name": "_startDelay",
          "type": "uint256"
        },
        {
          "internalType": "uint256",
          "name": "_endDelay",
          "type": "uint256"
        }
      ],
      "name": "initialise",
      "outputs": [],
      "stateMutability": "nonpayable",
      "type": "function"
    },
    {
      "inputs": [
        {
          "internalType": "uint256",
          "name": "_propID",
          "type": "uint256"
        }
      ],
      "name": "propDefeated",
      "outputs": [],
      "stateMutability": "nonpayable",
      "type": "function"
    },
    {
      "inputs": [
        {
          "internalType": "uint256",
          "name": "_propID",
          "type": "uint256"
        }
      ],
      "name": "propExecuted",
      "outputs": [],
      "stateMutability": "nonpayable",
      "type": "function"
    },
    {
      "inputs": [
        {
          "internalType": "uint256",
          "name": "_propID",
          "type": "uint256"
        }
      ],
      "name": "propExpire",
      "outputs": [],
      "stateMutability": "nonpayable",
      "type": "function"
    },
    {
      "inputs": [
        {
          "internalType": "uint256",
          "name": "_propID",
          "type": "uint256"
        }
      ],
      "name": "propQueued",
      "outputs": [],
      "stateMutability": "nonpayable",
      "type": "function"
    },
    {
      "inputs": [
        {
          "internalType": "uint256",
          "name": "_propID",
          "type": "uint256"
        }
      ],
      "name": "propVoting",
      "outputs": [],
      "stateMutability": "nonpayable",
      "type": "function"
    },
    {
      "inputs": [
        {
          "internalType": "uint256",
          "name": "time",
          "type": "uint256"
        }
      ],
      "name": "setCurrentTime",
      "outputs": [],
      "stateMutability": "nonpayable",
      "type": "function"
    },
    {
      "inputs": [],
      "name": "timerAddress",
      "outputs": [
        {
          "internalType": "address",
          "name": "",
          "type": "address"
        }
      ],
      "stateMutability": "view",
      "type": "function"
    },
    {
      "inputs": [
        {
          "internalType": "uint256",
          "name": "_startDelay",
          "type": "uint256"
        },
        {
          "internalType": "uint256",
          "name": "_endDelay",
          "type": "uint256"
        }
      ],
      "name": "updateDelays",
      "outputs": [],
      "stateMutability": "nonpayable",
      "type": "function"
    },
    {
      "inputs": [
        {
          "internalType": "uint256",
          "name": "_newMin",
          "type": "uint256"
        }
      ],
      "name": "updateMinDelay",
      "outputs": [],
      "stateMutability": "nonpayable",
      "type": "function"
    }
  ],
  "bytecode": "0x60c06040523480156200001157600080fd5b50604051620052323803806200523283398181016040528101906200003791906200031c565b7f36209a57dfd79e3872ec3a0c88c653bbe7e32a12306e5e1f92f118c1936ae8b28282806200008f7fbc0a003bb8fab9931eb808559dac1014bd598e04024b8875faae5e60c9d7adc660001b620002fc60201b60201c565b620000c37fc643b4a93fb8ea47dbcab1d450d0c5237e347cfdbbfb564d0f5c0705bc17b0b960001b620002fc60201b60201c565b620000f77f99eda9b013c18feeb073dd7366065243b6adc915936be427d2ffe5bba7dbe99160001b620002fc60201b60201c565b33600060026101000a81548173ffffffffffffffffffffffffffffffffffffffff021916908373ffffffffffffffffffffffffffffffffffffffff16021790555080600160006101000a81548173ffffffffffffffffffffffffffffffffffffffff021916908373ffffffffffffffffffffffffffffffffffffffff16021790555050620001ae7f91b90f81106ec7301a2ef3f3646fc2ac7a03224c1592a81c08bf2be57bf85da360001b620002ff60201b60201c565b620001e27faa1a5f5f7c07ad1d1a00bf086c9ae885f69ed49cd3abc04289c41680f08eda2360001b620002ff60201b60201c565b620002167f96d06dce006a4c22db8a8fd81f6fd8d01ca83c6b578b06c55ae55449f894b56160001b620002ff60201b60201c565b8260808181525050620002527f5df41bcd415e6f031fea4b950841c2b7a0c71533bb77597e55e47143977ffe5060001b620002ff60201b60201c565b620002867f86b081f2885abf844d8a6e92c42bb8b42f1f332206a0f04e515da586d0b809f560001b620002ff60201b60201c565b8173ffffffffffffffffffffffffffffffffffffffff1660a08173ffffffffffffffffffffffffffffffffffffffff1660601b81525050505050620002f47f63efac85b13a6aa35edaf11323432e1912b5ba74e89b46cbb09e71d4d1fd82ac60001b6200030260201b60201c565b5050620003b6565b50565b50565b50565b60008151905062000316816200039c565b92915050565b6000806040838503121562000336576200033562000397565b5b6000620003468582860162000305565b9250506020620003598582860162000305565b9150509250929050565b6000620003708262000377565b9050919050565b600073ffffffffffffffffffffffffffffffffffffffff82169050919050565b600080fd5b620003a78162000363565b8114620003b357600080fd5b50565b60805160a05160601c614e0d62000425600039600081816107eb01528181610bec01528181611089015281816111ae015281816113be01528181611d7c015281816122cc01528181613096015281816137c701528181613bdd0152613c87015260006107170152614e0d6000f3fe608060405234801561001057600080fd5b50600436106101415760003560e01c806385590542116100b8578063a6640e4c1161007c578063a6640e4c1461035c578063b7abd8031461038f578063bc903cb8146103ab578063cd39ebfd146103e1578063eaddd0fd146103fd578063f40507ac1461041b57610141565b806385590542146102bc5780638a99d586146102d85780639e34fa6a146102f45780639ef7786d14610324578063a3e999581461034057610141565b80633c9747f31161010a5780633c9747f3146101ea5780636aef4909146102085780636fad1c931461022457806377e4b8111461025457806378cbf7e6146102705780637ef966e4146102a057610141565b806262104a146101465780631c39c38d1461017657806322f8e5661461019457806329cb924d146101b057806334829155146101ce575b600080fd5b610160600480360381019061015b919061437e565b610437565b60405161016d91906146c7565b60405180910390f35b61017e6104fb565b60405161018b91906146c7565b60405180910390f35b6101ae60048036038101906101a9919061437e565b610521565b005b6101b861060d565b6040516101c5919061493c565b60405180910390f35b6101e860048036038101906101e391906142b0565b610712565b005b6101f2610715565b6040516101ff919061470b565b60405180910390f35b610222600480360381019061021d91906143d8565b610739565b005b61023e6004803603810190610239919061437e565b610ac0565b60405161024b919061470b565b60405180910390f35b61026e6004803603810190610269919061437e565b610b64565b005b61028a6004803603810190610285919061430a565b610fff565b604051610297919061493c565b60405180910390f35b6102ba60048036038101906102b5919061437e565b611cf4565b005b6102d660048036038101906102d191906142b0565b612217565b005b6102f260048036038101906102ed919061437e565b61221a565b005b61030e600480360381019061030991906142b0565b612531565b60405161031b919061493c565b60405180910390f35b61033e600480360381019061033991906142b0565b6125d2565b005b61035a60048036038101906103559190614418565b6125d5565b005b6103766004803603810190610371919061437e565b612eff565b6040516103869493929190614741565b60405180910390f35b6103a960048036038101906103a4919061437e565b61300e565b005b6103c560048036038101906103c0919061437e565b613531565b6040516103d89796959493929190614786565b60405180910390f35b6103fb60048036038101906103f6919061437e565b61373f565b005b610405613bdb565b6040516104129190614726565b60405180910390f35b6104356004803603810190610430919061437e565b613bff565b005b60006104657feab35f3f06859bcfb6cb95b42ba126bacacda6e6406e165f4a77a0fb6e5bbc4b60001b612217565b6104917f10878eee11fa16227ac64dc6422f62ec20ee1e68c26340615285fb24de6212bf60001b612217565b6104bd7fcf51e45c706d0a725d065cab82da0b1b0b354edd62940510562f10e7f051052360001b612217565b6002600083815260200190815260200160002060010160009054906101000a900473ffffffffffffffffffffffffffffffffffffffff169050919050565b600160009054906101000a900473ffffffffffffffffffffffffffffffffffffffff1681565b600073ffffffffffffffffffffffffffffffffffffffff16600160009054906101000a900473ffffffffffffffffffffffffffffffffffffffff1673ffffffffffffffffffffffffffffffffffffffff16141561057d57600080fd5b600160009054906101000a900473ffffffffffffffffffffffffffffffffffffffff1673ffffffffffffffffffffffffffffffffffffffff166322f8e566826040518263ffffffff1660e01b81526004016105d8919061493c565b600060405180830381600087803b1580156105f257600080fd5b505af1158015610606573d6000803e3d6000fd5b5050505050565b60008073ffffffffffffffffffffffffffffffffffffffff16600160009054906101000a900473ffffffffffffffffffffffffffffffffffffffff1673ffffffffffffffffffffffffffffffffffffffff161461070b57600160009054906101000a900473ffffffffffffffffffffffffffffffffffffffff1673ffffffffffffffffffffffffffffffffffffffff166329cb924d6040518163ffffffff1660e01b815260040160206040518083038186803b1580156106cc57600080fd5b505afa1580156106e0573d6000803e3d6000fd5b505050506040513d601f19601f8201168201806040525081019061070491906143ab565b905061070f565b4290505b90565b50565b7f000000000000000000000000000000000000000000000000000000000000000081565b6107657fd99be09b63847000f2eb53f5ee50019118df2ab6326deeb5872bd18d87503b5460001b610712565b6107917f2c77d644d557fb6933dbc4cc49b3e86c80f23ae8d6b864c32d5062edb5f0d62260001b610712565b6107bd7f323aff064297e279e575f30b6bb40f48a6804ebbbd1d4e4e70874769d3efb43560001b610712565b6107e97f6a760194827939a89f2bddb7ac80b8353403bf9f68f91bcc5eb2a49ba90d7a1760001b610712565b7f000000000000000000000000000000000000000000000000000000000000000073ffffffffffffffffffffffffffffffffffffffff163373ffffffffffffffffffffffffffffffffffffffff1614610877576040517f08c379a000000000000000000000000000000000000000000000000000000000815260040161086e9061481c565b60405180910390fd5b6108a37fa53bc14a73a3e41ae5036a8adef75c20d6c58cb075af602696e9c954447e86d260001b610712565b6108cf7fd18cb327c4e8d27581609c177ba735fa88f2b6f52b5a530f744687ea0f030e4260001b610712565b6108fb7fe06e249c8e99838109dd146f0f71ae79b22c5f4a1f5ce81645c9631269f316c360001b612217565b6109277fca7481f9b28c4fbe62488608736f535d3d751438fd7cce36332d9a6968349adf60001b612217565b6109537fbcb99c126d446cada48a8421030d5bc6b501437638c3d230eae7987ffe4c973c60001b612217565b61097f7faaaae4066de35d7a69a4cf802d8c9cd9ff90c404a6cdfa8c7667006ff48ad08e60001b612217565b600754821015801561099357506007548110155b6109d2576040517f08c379a00000000000000000000000000000000000000000000000000000000081526004016109c99061487c565b60405180910390fd5b6109fe7f79ca8f318829b00818a0931426282c3f021c3faf1669dc28f895c012fa4d72aa60001b612217565b610a2a7f83ced837f415d3de3314430cbca36c72d5d833337f666b30cf8f0d82bba6e71560001b612217565b610a567f07180ebac1245eac29e3b0f513ebf460af7e1929eac91d0561b6048b4833ffde60001b612217565b81600581905550610a897fb750a9b519b1587e2e58fa3e0bccd745b5476234c66013f19f55b50a0d805c6a60001b612217565b610ab57f9bbddbc8e48be87971a2d697f9dce9880ab7d1eab14112853b193e4d2aee13f860001b612217565b806006819055505050565b6000610aee7f35d17a0e4908af6b36416e99644ff4506dbd56c813df8d1c1bbb631a77cc834e60001b612217565b610b1a7f65a5e1b02cadb60cc98efd59fdb7b60362959cbd611411c93b76335b76dfbeb860001b612217565b610b467f3ce92579169e361caf7f0ba77d17939e310cc7f56a44a6695b1a02421d0b239a60001b612217565b60026000838152602001908152602001600020600201549050919050565b610b907fda418b709f848c8d803577fc1c02766bc31dea1fb40b0f03055ce6c3597e603260001b612217565b610bbc7fbe4bdf2431aa8a2a8dd3cbf4a8d00cf44894292ed96d378d3d8e2d46a61a8a1b60001b612217565b610be87fa6e917df9dcfb24f03e80476ba7a8ada62751c2502678702b42ed89d33bcc7a460001b612217565b60007f000000000000000000000000000000000000000000000000000000000000000073ffffffffffffffffffffffffffffffffffffffff1663624a23e07fd578563424ab02f85ec03c6b1aee04947ebdd4a30db46cba3bcd7f56ef40b1996040518263ffffffff1660e01b8152600401610c63919061470b565b60206040518083038186803b158015610c7b57600080fd5b505afa158015610c8f573d6000803e3d6000fd5b505050506040513d601f19601f82011682018060405250810190610cb39190614283565b9050610ce17fc6decf45c888dbdd4cb4be54c71a8adbc3ea7f418560bd3c2d841d1b511bcba560001b612217565b610d0d7f0f6afe3ab4be679fbb99e2d64f5ebb066303011edd5cc10ef9baec83fd8760c060001b612217565b610d397f9eb864316d98fe5a168968b4d3ff03ac5e890f7263b31dfe5b03abdd68a55fd360001b612217565b8073ffffffffffffffffffffffffffffffffffffffff163373ffffffffffffffffffffffffffffffffffffffff1614610da7576040517f08c379a0000000000000000000000000000000000000000000000000000000008152600401610d9e9061483c565b60405180910390fd5b610dd37f1d4e6e3b0fe0d87cf392682d691eb72e0d40a46de3d8462df8997a8d6594ad8a60001b612217565b610dff7fc6432a169e7b8f4b0400c3be73b388a00a0eaafb7f7dc926a5c308441f4bb18560001b612217565b610e2b7f0e4781dde03fb715a08efacba8da65ebc05bf8c86668023266a2b575a23b13ad60001b612217565b610e577f499193ea7039fc0d9778a66402919fd518bbf4055eade7e1e2a345d39f6a8f3660001b612217565b610e837f537e3d562ccffc1dbd46d86c5a859893ec866d42cd4d4f7cb08794b04605295f60001b612217565b610eaf7f85119cbb07dbaab653d5b768e6417dc7e852878e7d9f3853c3c9db51aba353f860001b612217565b60016006811115610ec357610ec2614b5c565b5b6002600084815260200190815260200160002060030160009054906101000a900460ff166006811115610ef957610ef8614b5c565b5b14610f39576040517f08c379a0000000000000000000000000000000000000000000000000000000008152600401610f30906148fc565b60405180910390fd5b610f657fd8f0a8007bcf4ba855d6e44dbae41c1a6a7e2af1e8f490eb977e0b0034aeae0d60001b612217565b610f917f15ca455129b808b16a5085120f79c05a75f1a93cd169e479c71e77ab69d624d160001b612217565b610fbd7f92adfc302475d6ff76ca8660c9da272b5bfbe04cff69404f4c47604c22bd3add60001b612217565b600280600084815260200190815260200160002060030160006101000a81548160ff02191690836006811115610ff657610ff5614b5c565b5b02179055505050565b600061102d7f6be074ed5fdbd103db2d36c33a4edef70f095313ae69a2b5273d9948bdd9cb2360001b612217565b6110597f40a86bb07d2fbc8c8801545a1490d5c1cb56e24126742cffcc8f58917556527a60001b612217565b6110857f3fb1b2b5061a3eea688dd198f5d4a4ccbd9573bbdf75548a5a85f55a4ffae04c60001b612217565b60007f000000000000000000000000000000000000000000000000000000000000000073ffffffffffffffffffffffffffffffffffffffff1663624a23e07f59e2d72f5870ccddd14d35394bd3c22374071b2da7c07a3d6c3b690400b736286040518263ffffffff1660e01b8152600401611100919061470b565b60206040518083038186803b15801561111857600080fd5b505afa15801561112c573d6000803e3d6000fd5b505050506040513d601f19601f820116820180604052508101906111509190614283565b905061117e7fc4442a98d31b115a62204291435cbf8d4cdec5e0c8ebf04f86d1b5e3d6061fc360001b612217565b6111aa7f24c7d3782f2825b4e39f3d550f8566f3d0b63cbf3255044916ca5b6d94f47e2a60001b612217565b60007f000000000000000000000000000000000000000000000000000000000000000073ffffffffffffffffffffffffffffffffffffffff1663624a23e07fd578563424ab02f85ec03c6b1aee04947ebdd4a30db46cba3bcd7f56ef40b1996040518263ffffffff1660e01b8152600401611225919061470b565b60206040518083038186803b15801561123d57600080fd5b505afa158015611251573d6000803e3d6000fd5b505050506040513d601f19601f820116820180604052508101906112759190614283565b90506112a37f5cc697e00265595fe18a1c7e637fcd5fd8f89aff0aea57ba058ae20e264f638a60001b612217565b6112cf7fe951e980fc909138c464c8e314f0cbf9e424c7e08fd6d6288fc8ab169d9e230a60001b612217565b6001600460008282546112e291906149b1565b925050819055506113157f1bd3125f6463203a2433330dd0aea90a772cd99111c95bc69313453ef1ae6e0e60001b612217565b6113417f6728a438e55eed8e3ab138b6292a629a1a7bcca84b5d2caf40da40cd4b84a55160001b612217565b60045492506113727fa1a07e19e444c20c8057fe9abb97f831e921303476f51ea752501583abbdb13860001b612217565b61139e7f67107879df0f94a1c9e67a53a303026c24a69fba674c8b216c9d7df130261c0160001b612217565b60008173ffffffffffffffffffffffffffffffffffffffff1663701370dc7f000000000000000000000000000000000000000000000000000000000000000073ffffffffffffffffffffffffffffffffffffffff1663624a23e07f346b2ab3a980432fd8f2e24828fc9f9ee2df1548701bc542f6ec17882b3276276040518263ffffffff1660e01b8152600401611435919061470b565b60206040518083038186803b15801561144d57600080fd5b505afa158015611461573d6000803e3d6000fd5b505050506040513d601f19601f820116820180604052508101906114859190614283565b886040518363ffffffff1660e01b81526004016114a39291906146e2565b60206040518083038186803b1580156114bb57600080fd5b505afa1580156114cf573d6000803e3d6000fd5b505050506040513d601f19601f820116820180604052508101906114f39190614283565b90506115217fce68cef02f485cd3faa50e237f8643e77ed73f7ccbb040fa0044a9996d4e240660001b612217565b61154d7fb7640f4b86656ba6dfaf6571df18df2fed74cdeaff3046dcd63104c30b0846d160001b612217565b6115797f4549af05e1aaac6434adf31328de66f38d70267a52ca4937ed569c7599e16ad560001b612217565b600073ffffffffffffffffffffffffffffffffffffffff168173ffffffffffffffffffffffffffffffffffffffff1614156115e9576040517f08c379a00000000000000000000000000000000000000000000000000000000081526004016115e09061491c565b60405180910390fd5b6116157fa9b8dba02fa658283d271b8a69993a10f683dadb170b48c4e921a6f58723af8860001b612217565b6116417ffd13e15b7cafea4fa6e51e6f44a641618ba071f529ecc9efdfb073c39f3eef8b60001b612217565b61166d7fac14ce81d972b05f9755cfb1889c01985a075bee507c524f4e39552d58f73d6260001b612217565b6000848661167961060d565b60405160200161168b9392919061468a565b60405160208183030381529060405290506116c87feb2e56042759a3aec412c262566973bdabc02395881463781e858b477df9aafa60001b612217565b6116f47f5c4255cc98a9bd9230f1808923ba95e6445d279533d2bb91bf6db60ddcd5c27060001b612217565b60008473ffffffffffffffffffffffffffffffffffffffff1663295adadf8789856040518463ffffffff1660e01b815260040161173393929190614957565b602060405180830381600087803b15801561174d57600080fd5b505af1158015611761573d6000803e3d6000fd5b505050506040513d601f19601f8201168201806040525081019061178591906142dd565b90506117b37f1da6462503842a37758fd9fefe6be5b4a70c768e7ed8fc5d13a7d79077d439e460001b612217565b6117df7fe44dfdcecbae89949f61e4333696e790a11c09f342f2395c6be1f79f7657de7660001b612217565b61180b7fe99a0ab6454a9249160a7559a266c0b179712582030a3db0ca59ed9038a128b160001b612217565b6000801b811415611851576040517f08c379a0000000000000000000000000000000000000000000000000000000008152600401611848906148bc565b60405180910390fd5b61187d7ffe536fc25014d2b0c2a98ced99a0e4a987dbd9003a837d5b54e5bb8d09556acc60001b612217565b6118a97f7405db770933761fed3d2aefddd1cacb3bfad38cc1f288029e4a4ff4134ee1e260001b612217565b6118d57f0f5c63332f53327638286dba41f0381496a853747fa204db0a5b35a3749d632a60001b612217565b6119017fe6a2035dc9d05353ecb8be4a343eb932b0748a7812a4ac6f0a0587b2e60d1c0960001b612217565b6000600360008381526020019081526020016000205414611957576040517f08c379a000000000000000000000000000000000000000000000000000000000815260040161194e9061489c565b60405180910390fd5b6119837fc2dc3b4ec8786104e7c04540d62f1046c5d18a20f313b2570b61edc7b03da7de60001b612217565b6119af7f896a19cb2ebb8816d17a19ebf902403887dd961677618bff002b7df697e3f78f60001b612217565b6119db7ff889264c8acde0a4646ca5664298ecadfbef0480b9c2a447ec450e0c5dce975160001b612217565b60006005546119e861060d565b6119f291906149b1565b9050611a207f50d7722da7119f8807977bcc2b5e6d1f9593424f04a0a5ed372fcaeec0ca56c160001b612217565b611a4c7f7e9f229f504e7c613a277f7765ffdcbd9ea8be49045415be528e34e57b81456760001b612217565b6040518060e001604052808c8c8080601f016020809104026020016040519081016040528093929190818152602001838380828437600081840152601f19601f8201169050808301925050505050505081526020018573ffffffffffffffffffffffffffffffffffffffff16815260200183815260200160016006811115611ad757611ad6614b5c565b5b815260200182815260200160065483611af091906149b1565b815260200160001515815250600260008981526020019081526020016000206000820151816000019080519060200190611b2b929190614121565b5060208201518160010160006101000a81548173ffffffffffffffffffffffffffffffffffffffff021916908373ffffffffffffffffffffffffffffffffffffffff1602179055506040820151816002015560608201518160030160006101000a81548160ff02191690836006811115611ba857611ba7614b5c565b5b02179055506080820151816004015560a0820151816005015560c08201518160060160006101000a81548160ff021916908315150217905550905050611c107ffab7c4be3a2621aaf0bd02421f9b5247af3445b934f469297c7accd0bba38cea60001b612217565b611c3c7f763d796b5a4852f0b03aa8ea53b67d6a0b5a0b84ebcd1ac4b9f3a34cb742dc9a60001b612217565b866003600084815260200190815260200160002081905550611c807f697fa5c2f6153da73249de6af28e9aa47a072fda1f7a42c66ff0d531884a70fe60001b612217565b611cac7f1d529975e46fd185b91733e0333efe68d92a8fe23447610147d567109c9ea51260001b612217565b867f782ad24bfb2592c2db8ec384bf93db57c8c631ca93227f9419c9d185d4de793d8584604051611cde9291906146e2565b60405180910390a2505050505050949350505050565b611d207fda418b709f848c8d803577fc1c02766bc31dea1fb40b0f03055ce6c3597e603260001b612217565b611d4c7fbe4bdf2431aa8a2a8dd3cbf4a8d00cf44894292ed96d378d3d8e2d46a61a8a1b60001b612217565b611d787fa6e917df9dcfb24f03e80476ba7a8ada62751c2502678702b42ed89d33bcc7a460001b612217565b60007f000000000000000000000000000000000000000000000000000000000000000073ffffffffffffffffffffffffffffffffffffffff1663624a23e07fd578563424ab02f85ec03c6b1aee04947ebdd4a30db46cba3bcd7f56ef40b1996040518263ffffffff1660e01b8152600401611df3919061470b565b60206040518083038186803b158015611e0b57600080fd5b505afa158015611e1f573d6000803e3d6000fd5b505050506040513d601f19601f82011682018060405250810190611e439190614283565b9050611e717fc6decf45c888dbdd4cb4be54c71a8adbc3ea7f418560bd3c2d841d1b511bcba560001b612217565b611e9d7f0f6afe3ab4be679fbb99e2d64f5ebb066303011edd5cc10ef9baec83fd8760c060001b612217565b611ec97f9eb864316d98fe5a168968b4d3ff03ac5e890f7263b31dfe5b03abdd68a55fd360001b612217565b8073ffffffffffffffffffffffffffffffffffffffff163373ffffffffffffffffffffffffffffffffffffffff1614611f37576040517f08c379a0000000000000000000000000000000000000000000000000000000008152600401611f2e9061483c565b60405180910390fd5b611f637f1d4e6e3b0fe0d87cf392682d691eb72e0d40a46de3d8462df8997a8d6594ad8a60001b612217565b611f8f7fc6432a169e7b8f4b0400c3be73b388a00a0eaafb7f7dc926a5c308441f4bb18560001b612217565b611fbb7fb1636e06e023e890fc1f5431bf4fe8dff279154c72523051f36492f3ceab82a960001b612217565b611fe77f292cec6f139d4ccdec93c9176637cb01764501e0740b7eef592be61fe34a215960001b612217565b6120137fcff47d37d08006a952ab2b45161c8596b67578c5bea5761374344c70acb3aa4760001b612217565b61203f7ff40e90ee3aa4bb88bc86a7bc5f9edac3f70c76879ec1768a413020bb2853d5ed60001b612217565b6002600681111561205357612052614b5c565b5b6002600084815260200190815260200160002060030160009054906101000a900460ff16600681111561208957612088614b5c565b5b146120c9576040517f08c379a00000000000000000000000000000000000000000000000000000000081526004016120c0906148fc565b60405180910390fd5b6120f57f73c2d0244694cecf8c52ea1b957c414561e21febcc982633ae0ade3fd6120e7560001b612217565b6121217f6d8b1b4509ea9e72f32d04307e8983e0317f5638ba4ec805f746937fb371de9b60001b612217565b61214d7f6dc5fb051efeb7cbfd157724932a6ddc8bc07be008212e0ee50f415bd0a1835060001b612217565b60056002600084815260200190815260200160002060030160006101000a81548160ff0219169083600681111561218757612186614b5c565b5b02179055506121b87f2f4e60f6b433bf5850314fec240d329ee6ca9a51499b2911ef2bacfd1201fbc760001b612217565b6121e47f50a15098583fb513d231e24a7f4a3be780b2c40bfab319d49d621c709ad6dcba60001b612217565b60016002600084815260200190815260200160002060060160006101000a81548160ff0219169083151502179055505050565b50565b6122467fd99be09b63847000f2eb53f5ee50019118df2ab6326deeb5872bd18d87503b5460001b610712565b6122727f2c77d644d557fb6933dbc4cc49b3e86c80f23ae8d6b864c32d5062edb5f0d62260001b610712565b61229e7f323aff064297e279e575f30b6bb40f48a6804ebbbd1d4e4e70874769d3efb43560001b610712565b6122ca7f6a760194827939a89f2bddb7ac80b8353403bf9f68f91bcc5eb2a49ba90d7a1760001b610712565b7f000000000000000000000000000000000000000000000000000000000000000073ffffffffffffffffffffffffffffffffffffffff163373ffffffffffffffffffffffffffffffffffffffff1614612358576040517f08c379a000000000000000000000000000000000000000000000000000000000815260040161234f9061481c565b60405180910390fd5b6123847fa53bc14a73a3e41ae5036a8adef75c20d6c58cb075af602696e9c954447e86d260001b610712565b6123b07fd18cb327c4e8d27581609c177ba735fa88f2b6f52b5a530f744687ea0f030e4260001b610712565b6123dc7f3a50340d11f46e2b1a348ff01ca485fa5d860c745844d6657557794578273ddf60001b612217565b6124087fe05316165ad591ab077d532c46656604ed9ff1cc2aadf1d0711ad094b97b516860001b612217565b6124347f7344fdbf680ea877a34b0053c58be729870809b82ed146a485b022e6170f7d3b60001b612217565b6124607f92d67365be77dd97d8a47c310cdaed1098acbeeec21d9d5349d9de632acbabd260001b612217565b600f81116124a3576040517f08c379a000000000000000000000000000000000000000000000000000000000815260040161249a906148dc565b60405180910390fd5b6124cf7f1907d65e8f0f7ee88bb2f24c004c32d475663659f2a58048e6b5969252ed798c60001b612217565b6124fb7fa2002ba7bf57056154b5a3d53f6a4ab0f5d1ddc30f4b5798cfa55d792b4c66cc60001b612217565b6125277f4858ca3adb661fe46270a960bc4597dd13de3e3e980d996055d644943187b14960001b612217565b8060078190555050565b600061255f7f6d07873e729d61068dbe24cab382c0ce30eba790c3868a8795f815a1e4ea066860001b612217565b61258b7f47e498142321e4bb546d67d9f1280512fb87b0f17dc89ba4c12fd480d341f2dd60001b612217565b6125b77fe16ccf1052aa9d721f60a72415b73f606b08c3971f949475b770cf9b17c3166c60001b612217565b60036000838152602001908152602001600020549050919050565b50565b6126017ff05e22b5428a7e0eea74a732ce102fb9bb0d2f1de097e596d051b0c826afd92860001b6125d2565b61262d7fcc8333d776dbed5bc1d5a69fea8a56e88f87955b6a086409d43cdf5b99a00f9160001b6125d2565b6126597f96e003626c0adb9922999e671f576019384ec3e342797245b19e293fc7ae98b860001b6125d2565b6126857f0124756d9b2742e29a6e998127a5d65a6fce0de7b15fe3cffaa57159d293eff460001b6125d2565b600060019054906101000a900460ff16806126ab575060008054906101000a900460ff16155b6126ea576040517f08c379a00000000000000000000000000000000000000000000000000000000081526004016126e19061485c565b60405180910390fd5b6127167f0e0cd9f43fa96f35ac9dcd66bf9394a66239a66b0422c7eb4acaa3ec7af2bca760001b6125d2565b6127427fa572db1175cf84948584c963309788099518a5f9406d64b26be0f01abaa7615160001b6125d2565b61276e7f524b599d7eb0f1dfc88ccfeb5d98c7465952b834def7a670e3e1ee11de0a1e3760001b6125d2565b61279a7f98965d56deb2a09035f26190cf6413a56daf79840e05a39e6a014890174d277a60001b6125d2565b600060029054906101000a900473ffffffffffffffffffffffffffffffffffffffff1673ffffffffffffffffffffffffffffffffffffffff163373ffffffffffffffffffffffffffffffffffffffff161461282a576040517f08c379a0000000000000000000000000000000000000000000000000000000008152600401612821906147fc565b60405180910390fd5b6128567fe6d54cb133197a88f121f1222a74c88e9bdb72f2534b716bac552690179fa19b60001b6125d2565b6128827f2978934513c1680f7d8efe0f61b00f6e798552e162cf38e89079d9080f3639a060001b6125d2565b6128ae7fb746c40fd73cb0d4ce3270dc8cbf3523878f0b08dc0fe2339e1f2f72a167819a60001b6125d2565b60008060019054906101000a900460ff161590506128ee7f5666c1bdc7b7d35115b317253332f7f90453602bb5068386a08ea63770d8032460001b6125d2565b61291a7fae1bd2558d584dd4c375d9569fcf63a6ddd2e986550a1722bfbf5c885b8d343c60001b6125d2565b8015612a365761294c7f8827da128743a7905421670199b1e7c0011f34030aea597bb0ed57dd76a8fcbe60001b6125d2565b6129787fd138844c11e5fb387e8063532b614d5d66b6053c6cb9a3b7de9a071516cf13c760001b6125d2565b6129a47f0da07da6706658155f26bbafcbfa954a7537c786b613a4cc9be94703ef8137aa60001b6125d2565b6001600060016101000a81548160ff0219169083151502179055506129eb7f234d6ab578d89d89ef0e5cfb230d4b62412d2d6aecc02683e842f258b0952f2960001b6125d2565b612a177fc3fe9f21b0f8c74b901d4bb6665dcddf61902ec0d3feecd24d14288baeb1eeb660001b6125d2565b60016000806101000a81548160ff021916908315150217905550612a63565b612a627f3e978646ed66cc964c98e5a5878ca6f5c9a2a19bbe74dcc13b01cff0472ea07c60001b6125d2565b5b612a8f7f29ca5100e48f38a7411fb78acc536c44b5db000aa462c2b1360915c045318ca760001b6125d2565b612abb7f7a35d89b017b7447769309e3ce2f589892ce73b2bf43ec09ed35f19f6a45fc3060001b612217565b612ae77fa89629eaf1998a52fb44e9231d80a8ef05dcbdad38ddaac783f2dc02c2137d7060001b612217565b612b137f2e6d77ad02e0acea3dba989195e0294d827622d68b2923bf6aae066a8aef9b4f60001b612217565b612b3f7f24b485c5d6b33d99d6974e38cd882c807547dba693f8b851d3ac6960bfb8867b60001b612217565b600f841015612b83576040517f08c379a0000000000000000000000000000000000000000000000000000000008152600401612b7a906148dc565b60405180910390fd5b612baf7fb9046330e7f4dab78b27e6b27b78f09c25645e6b8a4a1ee824bb6306f597aa7660001b612217565b612bdb7fbd986276fe0b5a8546d90b52bfbdbc203e7216e02398cc41e70427d186afc70a60001b612217565b612c077f8c476768307dd531e0afb9d074e6372e362ca37d13fa742b08d459325635428660001b612217565b612c337ff4f88258fe94114f79bc8005e6350ca0e29e43d6ccdf74dfe3ad177df8d9ad8260001b612217565b838310158015612c435750838210155b612c82576040517f08c379a0000000000000000000000000000000000000000000000000000000008152600401612c799061487c565b60405180910390fd5b612cae7fe4ee378b0d6538fe0fa80325a5debee4f48c9a2d13684ee4a72801359ac31be260001b612217565b612cda7f817924b9f98004da6a12c8379777f0473914ed016f6a51f0f65fee568941b0f260001b612217565b612d067fc328c9bf551365e3296f21baf3bf2e3069dc899e925ef99e4b284c7f10f06c7960001b612217565b83600781905550612d397f6dadf81c401981c00b5e8b64ad58485b862880f04c2aa2a251bc58bf2d6e991f60001b612217565b612d657f9ea76225e492f5271285841d34e69d36b4f87664fd55137fc8263541ef9ed61c60001b612217565b82600581905550612d987f6146c2dfd2bd5822874e0128357ee06c5151bc76abddbc6e5c153124de0054ba60001b612217565b612dc47f616a5b15a501044e0ad4bf1558305a0ae66933acc7e9d1590b9afcffd81fccdd60001b612217565b81600681905550612df77fa5f2730f9babc14d334aa306df7fb5c6b1ed3bdfb66f6fc4fafe38d5652f469660001b6125d2565b612e237f181d8291e4a099dfa8d933931fb5a4fab22537d847165af8100ce2c9358055b560001b6125d2565b8015612ecc57612e557f8a59cf0f81ee5490e15c424d8aede261eaf6e1217105a123d14893d69aabf35d60001b6125d2565b612e817fc5092240012f400b79e17c3d1fb6321ac43d96fa801b72141d16886e1c9be39160001b6125d2565b612ead7ffa61d325b20e902fc90b26bec17d33d3c3bf7800b6a72b6365dfed29c50751f260001b6125d2565b60008060016101000a81548160ff021916908315150217905550612ef9565b612ef87f6f241d49ed4d7add7ad690d1f539edcf9eec47c7016587da77342ab89f45939260001b6125d2565b5b50505050565b600080600080612f317f465c9cdddfc9d8baff7d188d9a77f4899c98f02fdba86d2aa56b8462f4464ac260001b612217565b612f5d7ff31da1e51f67d08b86f4ff82061062eed31a05bf2a52cf17d3d97e2abc01247560001b612217565b612f897f421710a5283e7b03fba90c91d2dc2e391797a7dfc70f37fa5a55cd877ed0d96660001b612217565b6002600086815260200190815260200160002060030160009054906101000a900460ff16600260008781526020019081526020016000206004015460026000888152602001908152602001600020600501546002600089815260200190815260200160002060060160009054906101000a900460ff1693509350935093509193509193565b61303a7fda418b709f848c8d803577fc1c02766bc31dea1fb40b0f03055ce6c3597e603260001b612217565b6130667fbe4bdf2431aa8a2a8dd3cbf4a8d00cf44894292ed96d378d3d8e2d46a61a8a1b60001b612217565b6130927fa6e917df9dcfb24f03e80476ba7a8ada62751c2502678702b42ed89d33bcc7a460001b612217565b60007f000000000000000000000000000000000000000000000000000000000000000073ffffffffffffffffffffffffffffffffffffffff1663624a23e07fd578563424ab02f85ec03c6b1aee04947ebdd4a30db46cba3bcd7f56ef40b1996040518263ffffffff1660e01b815260040161310d919061470b565b60206040518083038186803b15801561312557600080fd5b505afa158015613139573d6000803e3d6000fd5b505050506040513d601f19601f8201168201806040525081019061315d9190614283565b905061318b7fc6decf45c888dbdd4cb4be54c71a8adbc3ea7f418560bd3c2d841d1b511bcba560001b612217565b6131b77f0f6afe3ab4be679fbb99e2d64f5ebb066303011edd5cc10ef9baec83fd8760c060001b612217565b6131e37f9eb864316d98fe5a168968b4d3ff03ac5e890f7263b31dfe5b03abdd68a55fd360001b612217565b8073ffffffffffffffffffffffffffffffffffffffff163373ffffffffffffffffffffffffffffffffffffffff1614613251576040517f08c379a00000000000000000000000000000000000000000000000000000000081526004016132489061483c565b60405180910390fd5b61327d7f1d4e6e3b0fe0d87cf392682d691eb72e0d40a46de3d8462df8997a8d6594ad8a60001b612217565b6132a97fc6432a169e7b8f4b0400c3be73b388a00a0eaafb7f7dc926a5c308441f4bb18560001b612217565b6132d57fb946e4cbaa2988a60e3381c2a31a3afe2ced65cad00b160bf3e5b6d46f51828f60001b612217565b6133017fbafc8652a35c1bae9c9c1ba025378fabc5a82348b52495affa09b9f637fa9b1f60001b612217565b61332d7f7b6f96141196b1dd881555c5c692e4327f211ffce6c8bd15a85f16b6f9a71dae60001b612217565b6133597fcd29d1afef4f201f2959ca643f19adf1834e3fe18a223df0b7f28a40469c1e5a60001b612217565b6003600681111561336d5761336c614b5c565b5b6002600084815260200190815260200160002060030160009054906101000a900460ff1660068111156133a3576133a2614b5c565b5b146133e3576040517f08c379a00000000000000000000000000000000000000000000000000000000081526004016133da906148fc565b60405180910390fd5b61340f7ff438087c9abe0d4480f01cd3a0f8d15d16ac680fc3032d0af770a4bd339d6f4560001b612217565b61343b7f31a4b2855644483fd4dd3921e46a69fcc7c8ac07086670c6984c9238cc91480460001b612217565b6134677f231b7e9bd676d8868b4265284bb9d3a17638f26a4f5c89d84febd23170f57ed360001b612217565b60046002600084815260200190815260200160002060030160006101000a81548160ff021916908360068111156134a1576134a0614b5c565b5b02179055506134d27faa81a6ae2559ba23b4b3d65704702dd1d94edfc8853a029e63c78d28bb643f4360001b612217565b6134fe7f06b1cd42d4971f989283d6ef08f4afe997b2d1a7c450f22a2c2eb2f8270ea09960001b612217565b60016002600084815260200190815260200160002060060160006101000a81548160ff0219169083151502179055505050565b60606000806000806000806135687fc8ba09b5e0e68a263a1bcb82ed087936cc4dd5b78bb0b40c97a6380675ee531a60001b612217565b6135947fc5d73ca1ab9ead1a8cd441cf36b914d04c28981a3bd74fe230166d981be75cd360001b612217565b6135c07f982859a60420538bd5d273f17928feacaa7da84d751c7222b8f59c33d053028a60001b612217565b60026000898152602001908152602001600020600001600260008a815260200190815260200160002060010160009054906101000a900473ffffffffffffffffffffffffffffffffffffffff16600260008b815260200190815260200160002060020154600260008c815260200190815260200160002060030160009054906101000a900460ff16600260008d815260200190815260200160002060040154600260008e815260200190815260200160002060050154600260008f815260200190815260200160002060060160009054906101000a900460ff168680546136a690614ae7565b80601f01602080910402602001604051908101604052809291908181526020018280546136d290614ae7565b801561371f5780601f106136f45761010080835404028352916020019161371f565b820191906000526020600020905b81548152906001019060200180831161370257829003601f168201915b505050505096509650965096509650965096509650919395979092949650565b61376b7fda418b709f848c8d803577fc1c02766bc31dea1fb40b0f03055ce6c3597e603260001b612217565b6137977fbe4bdf2431aa8a2a8dd3cbf4a8d00cf44894292ed96d378d3d8e2d46a61a8a1b60001b612217565b6137c37fa6e917df9dcfb24f03e80476ba7a8ada62751c2502678702b42ed89d33bcc7a460001b612217565b60007f000000000000000000000000000000000000000000000000000000000000000073ffffffffffffffffffffffffffffffffffffffff1663624a23e07fd578563424ab02f85ec03c6b1aee04947ebdd4a30db46cba3bcd7f56ef40b1996040518263ffffffff1660e01b815260040161383e919061470b565b60206040518083038186803b15801561385657600080fd5b505afa15801561386a573d6000803e3d6000fd5b505050506040513d601f19601f8201168201806040525081019061388e9190614283565b90506138bc7fc6decf45c888dbdd4cb4be54c71a8adbc3ea7f418560bd3c2d841d1b511bcba560001b612217565b6138e87f0f6afe3ab4be679fbb99e2d64f5ebb066303011edd5cc10ef9baec83fd8760c060001b612217565b6139147f9eb864316d98fe5a168968b4d3ff03ac5e890f7263b31dfe5b03abdd68a55fd360001b612217565b8073ffffffffffffffffffffffffffffffffffffffff163373ffffffffffffffffffffffffffffffffffffffff1614613982576040517f08c379a00000000000000000000000000000000000000000000000000000000081526004016139799061483c565b60405180910390fd5b6139ae7f1d4e6e3b0fe0d87cf392682d691eb72e0d40a46de3d8462df8997a8d6594ad8a60001b612217565b6139da7fc6432a169e7b8f4b0400c3be73b388a00a0eaafb7f7dc926a5c308441f4bb18560001b612217565b613a067f2b878186e67ba11e122ff6322f7b57a76f44d56df4b214a21942c5cd186a3e7f60001b612217565b613a327fcfd80c77e6f5d6bb08e42575eca18267a3e7e1815a10dec08997b5f1fc068f1660001b612217565b613a5e7f9b7d6a5c338984c3294b3c35dc4bdc3af36d0befc56b50a591d36e3ccf41b18260001b612217565b613a8a7fa698ffdba7600be9f1ece4b902f800cb43a67c183005c1a9496fbc50b6a73e0e60001b612217565b60026006811115613a9e57613a9d614b5c565b5b6002600084815260200190815260200160002060030160009054906101000a900460ff166006811115613ad457613ad3614b5c565b5b14613b14576040517f08c379a0000000000000000000000000000000000000000000000000000000008152600401613b0b906148fc565b60405180910390fd5b613b407fe7af2056902f15a09e482736d3b72c7c11e31894859c6fb6b63bc0271f3857f160001b612217565b613b6c7fa22ad524f0725747b48bad8d7695c19aaac17a8b6a00c660278fcf40403eb8c760001b612217565b613b987f25f9475f955546ca717332fc7b6b2ffca1bbac0862354f614b30ef80522656cf60001b612217565b60036002600084815260200190815260200160002060030160006101000a81548160ff02191690836006811115613bd257613bd1614b5c565b5b02179055505050565b7f000000000000000000000000000000000000000000000000000000000000000081565b613c2b7fda418b709f848c8d803577fc1c02766bc31dea1fb40b0f03055ce6c3597e603260001b612217565b613c577fbe4bdf2431aa8a2a8dd3cbf4a8d00cf44894292ed96d378d3d8e2d46a61a8a1b60001b612217565b613c837fa6e917df9dcfb24f03e80476ba7a8ada62751c2502678702b42ed89d33bcc7a460001b612217565b60007f000000000000000000000000000000000000000000000000000000000000000073ffffffffffffffffffffffffffffffffffffffff1663624a23e07fd578563424ab02f85ec03c6b1aee04947ebdd4a30db46cba3bcd7f56ef40b1996040518263ffffffff1660e01b8152600401613cfe919061470b565b60206040518083038186803b158015613d1657600080fd5b505afa158015613d2a573d6000803e3d6000fd5b505050506040513d601f19601f82011682018060405250810190613d4e9190614283565b9050613d7c7fc6decf45c888dbdd4cb4be54c71a8adbc3ea7f418560bd3c2d841d1b511bcba560001b612217565b613da87f0f6afe3ab4be679fbb99e2d64f5ebb066303011edd5cc10ef9baec83fd8760c060001b612217565b613dd47f9eb864316d98fe5a168968b4d3ff03ac5e890f7263b31dfe5b03abdd68a55fd360001b612217565b8073ffffffffffffffffffffffffffffffffffffffff163373ffffffffffffffffffffffffffffffffffffffff1614613e42576040517f08c379a0000000000000000000000000000000000000000000000000000000008152600401613e399061483c565b60405180910390fd5b613e6e7f1d4e6e3b0fe0d87cf392682d691eb72e0d40a46de3d8462df8997a8d6594ad8a60001b612217565b613e9a7fc6432a169e7b8f4b0400c3be73b388a00a0eaafb7f7dc926a5c308441f4bb18560001b612217565b613ec67ff665a10e3a2719b99407e29cd4a10f4d42f4b7d45ff1e68a30490e2f685fd16f60001b612217565b613ef27f0a3cc2f3c2b51f4584495604890b6c6fecbe02ff450fe706d619681dfba15e8560001b612217565b613f1d7eff23deda70d33bd6be2d18d259dab4f6c2b9bea9f22c70399cdfe680e4007960001b612217565b613f497f7e485cf24b88870e9fd31e90099f29036b50a3a1eaa97337ca2dfc5636fe4fb560001b612217565b60026006811115613f5d57613f5c614b5c565b5b6002600084815260200190815260200160002060030160009054906101000a900460ff166006811115613f9357613f92614b5c565b5b14613fd3576040517f08c379a0000000000000000000000000000000000000000000000000000000008152600401613fca906148fc565b60405180910390fd5b613fff7f542464fda0950ec058099a9240cfaab0c35bb7b786de80aa1c4a1f27be05966c60001b612217565b61402b7fcbb1f396d4dcab0c3514aa1b4e9863e0026336b5aae27d16babe9ab884833e2c60001b612217565b6140577fd40593de59ed30a68f49fa20143c332865fc6c5adad62402443fd5a71282ca0e60001b612217565b60066002600084815260200190815260200160002060030160006101000a81548160ff0219169083600681111561409157614090614b5c565b5b02179055506140c27f967bb60ad44bdc2ecce3a4342f77079aedd0dacc3db693315b891d163391655e60001b612217565b6140ee7f4e463223a4fa101a48d7f98b103673705a426dec28fd872bf411dbee530eb97f60001b612217565b60016002600084815260200190815260200160002060060160006101000a81548160ff0219169083151502179055505050565b82805461412d90614ae7565b90600052602060002090601f01602090048101928261414f5760008555614196565b82601f1061416857805160ff1916838001178555614196565b82800160010185558215614196579182015b8281111561419557825182559160200191906001019061417a565b5b5090506141a391906141a7565b5090565b5b808211156141c05760008160009055506001016141a8565b5090565b6000815190506141d381614d92565b92915050565b6000813590506141e881614da9565b92915050565b6000815190506141fd81614da9565b92915050565b60008083601f84011261421957614218614bbf565b5b8235905067ffffffffffffffff81111561423657614235614bba565b5b60208301915083600182028301111561425257614251614bc4565b5b9250929050565b60008135905061426881614dc0565b92915050565b60008151905061427d81614dc0565b92915050565b60006020828403121561429957614298614bce565b5b60006142a7848285016141c4565b91505092915050565b6000602082840312156142c6576142c5614bce565b5b60006142d4848285016141d9565b91505092915050565b6000602082840312156142f3576142f2614bce565b5b6000614301848285016141ee565b91505092915050565b6000806000806060858703121561432457614323614bce565b5b600085013567ffffffffffffffff81111561434257614341614bc9565b5b61434e87828801614203565b94509450506020614361878288016141d9565b9250506040614372878288016141d9565b91505092959194509250565b60006020828403121561439457614393614bce565b5b60006143a284828501614259565b91505092915050565b6000602082840312156143c1576143c0614bce565b5b60006143cf8482850161426e565b91505092915050565b600080604083850312156143ef576143ee614bce565b5b60006143fd85828601614259565b925050602061440e85828601614259565b9150509250929050565b60008060006060848603121561443157614430614bce565b5b600061443f86828701614259565b935050602061445086828701614259565b925050604061446186828701614259565b9150509250925092565b61447481614a07565b82525050565b61448381614a19565b82525050565b61449281614a25565b82525050565b6144a96144a482614a25565b614b19565b82525050565b6144b881614a6c565b82525050565b6144c781614a7e565b82525050565b60006144d882614995565b6144e281856149a0565b93506144f2818560208601614ab4565b6144fb81614bd3565b840191505092915050565b6000614513601c836149a0565b915061451e82614be4565b602082019050919050565b6000614536601c836149a0565b915061454182614c0d565b602082019050919050565b60006145596019836149a0565b915061456482614c36565b602082019050919050565b600061457c601d836149a0565b915061458782614c5f565b602082019050919050565b600061459f6018836149a0565b91506145aa82614c88565b602082019050919050565b60006145c2601f836149a0565b91506145cd82614cb1565b602082019050919050565b60006145e56018836149a0565b91506145f082614cda565b602082019050919050565b60006146086015836149a0565b915061461382614d03565b602082019050919050565b600061462b601c836149a0565b915061463682614d2c565b602082019050919050565b600061464e6017836149a0565b915061465982614d55565b602082019050919050565b61466d81614a62565b82525050565b61468461467f82614a62565b614b23565b82525050565b60006146968286614673565b6020820191506146a68285614498565b6020820191506146b68284614673565b602082019150819050949350505050565b60006020820190506146dc600083018461446b565b92915050565b60006040820190506146f7600083018561446b565b6147046020830184614489565b9392505050565b60006020820190506147206000830184614489565b92915050565b600060208201905061473b60008301846144af565b92915050565b600060808201905061475660008301876144be565b6147636020830186614664565b6147706040830185614664565b61477d606083018461447a565b95945050505050565b600060e08201905081810360008301526147a0818a6144cd565b90506147af602083018961446b565b6147bc6040830188614489565b6147c960608301876144be565b6147d66080830186614664565b6147e360a0830185614664565b6147f060c083018461447a565b98975050505050505050565b6000602082019050818103600083015261481581614506565b9050919050565b6000602082019050818103600083015261483581614529565b9050919050565b600060208201905081810360008301526148558161454c565b9050919050565b600060208201905081810360008301526148758161456f565b9050919050565b6000602082019050818103600083015261489581614592565b9050919050565b600060208201905081810360008301526148b5816145b5565b9050919050565b600060208201905081810360008301526148d5816145d8565b9050919050565b600060208201905081810360008301526148f5816145fb565b9050919050565b600060208201905081810360008301526149158161461e565b9050919050565b6000602082019050818103600083015261493581614641565b9050919050565b60006020820190506149516000830184614664565b92915050565b600060608201905061496c6000830186614664565b6149796020830185614489565b818103604083015261498b81846144cd565b9050949350505050565b600081519050919050565b600082825260208201905092915050565b60006149bc82614a62565b91506149c783614a62565b9250827fffffffffffffffffffffffffffffffffffffffffffffffffffffffffffffffff038211156149fc576149fb614b2d565b5b828201905092915050565b6000614a1282614a42565b9050919050565b60008115159050919050565b6000819050919050565b6000819050614a3d82614d7e565b919050565b600073ffffffffffffffffffffffffffffffffffffffff82169050919050565b6000819050919050565b6000614a7782614a90565b9050919050565b6000614a8982614a2f565b9050919050565b6000614a9b82614aa2565b9050919050565b6000614aad82614a42565b9050919050565b60005b83811015614ad2578082015181840152602081019050614ab7565b83811115614ae1576000848401525b50505050565b60006002820490506001821680614aff57607f821691505b60208210811415614b1357614b12614b8b565b5b50919050565b6000819050919050565b6000819050919050565b7f4e487b7100000000000000000000000000000000000000000000000000000000600052601160045260246000fd5b7f4e487b7100000000000000000000000000000000000000000000000000000000600052602160045260246000fd5b7f4e487b7100000000000000000000000000000000000000000000000000000000600052602260045260246000fd5b600080fd5b600080fd5b600080fd5b600080fd5b600080fd5b6000601f19601f8301169050919050565b7f496e69743a204f6e6c79206465706c6f7965722063616e20696e697400000000600082015250565b7f53797374656d3a204f6e6c7920636f72652063616e206d6f6469667900000000600082015250565b7f50726f703a204f6e6c7920636f6f72642063616e2063616c6c00000000000000600082015250565b7f496e69743a20436f6e747261637420697320696e697469616c697a6564000000600082015250565b7f50726f703a2064656c6179732063616e6e6f7420626520300000000000000000600082015250565b7f50726f703a2045786520494420616c7265616479206173736f63696174656400600082015250565b7f50726f703a2045786520646f6573206e6f742065786973740000000000000000600082015250565b7f50726f703a206d696e2063616e6e6f7420626520300000000000000000000000600082015250565b7f50726f703a20496e76616c6964207374617465206d6f76656d656e7400000000600082015250565b7f50726f703a20496e76616c696420766f74652074797065000000000000000000600082015250565b60078110614d8f57614d8e614b5c565b5b50565b614d9b81614a07565b8114614da657600080fd5b50565b614db281614a25565b8114614dbd57600080fd5b50565b614dc981614a62565b8114614dd457600080fd5b5056fea2646970667358221220303119aa7af5c10824d5ef91bd36a086907a7211cfd24d8a69adfd7c3336b06e64736f6c63430008070033",
  "linkReferences": {},
  "deployedLinkReferences": {}
}