{
  "_format": "hh-sol-artifact-1",
  "contractName": "Proposals",
  "sourceName": "contracts/Proposals.sol",
  "abi": [
    {
      "inputs": [
        {
          "internalType": "address",
          "name": "_core",
          "type": "address"
        }
      ],
      "stateMutability": "nonpayable",
      "type": "constructor"
    },
    {
      "anonymous": false,
      "inputs": [
        {
          "indexed": true,
          "internalType": "uint256",
          "name": "propID",
          "type": "uint256"
        },
        {
          "indexed": false,
          "internalType": "address",
          "name": "voteType",
          "type": "address"
        },
        {
          "indexed": false,
          "internalType": "bytes32",
          "name": "exeID",
          "type": "bytes32"
        }
      ],
      "name": "NewProposal",
      "type": "event"
    },
    {
      "inputs": [],
      "name": "IDENTIFIER",
      "outputs": [
        {
          "internalType": "bytes32",
          "name": "",
          "type": "bytes32"
        }
      ],
      "stateMutability": "view",
      "type": "function"
    },
    {
      "inputs": [],
      "name": "core_",
      "outputs": [
        {
          "internalType": "contract ICore",
          "name": "",
          "type": "address"
        }
      ],
      "stateMutability": "view",
      "type": "function"
    },
    {
      "inputs": [
        {
          "internalType": "string",
          "name": "_description",
          "type": "string"
        },
        {
          "internalType": "bytes32",
          "name": "_voteTypeID",
          "type": "bytes32"
        },
        {
          "internalType": "bytes32",
          "name": "_exeID",
          "type": "bytes32"
        }
      ],
      "name": "createPropWithExe",
      "outputs": [
        {
          "internalType": "uint256",
          "name": "propID",
          "type": "uint256"
        }
      ],
      "stateMutability": "nonpayable",
      "type": "function"
    },
    {
      "inputs": [
        {
          "internalType": "uint256",
          "name": "_propID",
          "type": "uint256"
        }
      ],
      "name": "getExeOfProp",
      "outputs": [
        {
          "internalType": "bytes32",
          "name": "",
          "type": "bytes32"
        }
      ],
      "stateMutability": "view",
      "type": "function"
    },
    {
      "inputs": [
        {
          "internalType": "bytes32",
          "name": "_exeID",
          "type": "bytes32"
        }
      ],
      "name": "getPropOfExe",
      "outputs": [
        {
          "internalType": "uint256",
          "name": "",
          "type": "uint256"
        }
      ],
      "stateMutability": "view",
      "type": "function"
    },
    {
      "inputs": [
        {
          "internalType": "uint256",
          "name": "_propID",
          "type": "uint256"
        }
      ],
      "name": "getPropVotables",
      "outputs": [
        {
          "internalType": "enum Proposals.PropState",
          "name": "state",
          "type": "uint8"
        },
        {
          "internalType": "uint256",
          "name": "voteStart",
          "type": "uint256"
        },
        {
          "internalType": "uint256",
          "name": "voteEnd",
          "type": "uint256"
        },
        {
          "internalType": "bool",
          "name": "executedOrCanceled",
          "type": "bool"
        }
      ],
      "stateMutability": "view",
      "type": "function"
    },
    {
      "inputs": [
        {
          "internalType": "uint256",
          "name": "_propID",
          "type": "uint256"
        }
      ],
      "name": "getProposalInfo",
      "outputs": [
        {
          "internalType": "string",
          "name": "description",
          "type": "string"
        },
        {
          "internalType": "address",
          "name": "voteType",
          "type": "address"
        },
        {
          "internalType": "bytes32",
          "name": "exeID",
          "type": "bytes32"
        },
        {
          "internalType": "enum Proposals.PropState",
          "name": "state",
          "type": "uint8"
        },
        {
          "internalType": "uint256",
          "name": "voteStart",
          "type": "uint256"
        },
        {
          "internalType": "uint256",
          "name": "voteEnd",
          "type": "uint256"
        },
        {
          "internalType": "bool",
          "name": "executedOrCanceled",
          "type": "bool"
        }
      ],
      "stateMutability": "view",
      "type": "function"
    },
    {
      "inputs": [
        {
          "internalType": "uint256",
          "name": "_propID",
          "type": "uint256"
        }
      ],
      "name": "getVoteType",
      "outputs": [
        {
          "internalType": "address",
          "name": "",
          "type": "address"
        }
      ],
      "stateMutability": "view",
      "type": "function"
    },
    {
      "inputs": [
        {
          "internalType": "uint256",
          "name": "_startDelay",
          "type": "uint256"
        },
        {
          "internalType": "uint256",
          "name": "_endDelay",
          "type": "uint256"
        }
      ],
      "name": "updateDelays",
      "outputs": [],
      "stateMutability": "nonpayable",
      "type": "function"
    },
    {
      "inputs": [
        {
          "internalType": "uint256",
          "name": "_newMin",
          "type": "uint256"
        }
      ],
      "name": "updateMinDelay",
      "outputs": [],
      "stateMutability": "nonpayable",
      "type": "function"
    }
  ],
  "bytecode": "0x60c06040523480156200001157600080fd5b5060405162001a3a38038062001a3a8339818101604052810190620000379190620000f9565b7f36209a57dfd79e3872ec3a0c88c653bbe7e32a12306e5e1f92f118c1936ae8b28133600060026101000a81548173ffffffffffffffffffffffffffffffffffffffff021916908373ffffffffffffffffffffffffffffffffffffffff16021790555081608081815250508073ffffffffffffffffffffffffffffffffffffffff1660a08173ffffffffffffffffffffffffffffffffffffffff1660601b815250505050506200017e565b600081519050620000f38162000164565b92915050565b6000602082840312156200011257620001116200015f565b5b60006200012284828501620000e2565b91505092915050565b600062000138826200013f565b9050919050565b600073ffffffffffffffffffffffffffffffffffffffff82169050919050565b600080fd5b6200016f816200012b565b81146200017b57600080fd5b50565b60805160a05160601c611870620001ca600039600081816102a5015281816103bb015281816104880152818161059001528181610a9a0152610da70152600061028101526118706000f3fe608060405234801561001057600080fd5b506004361061009d5760003560e01c80638a99d586116100665780638a99d5861461016c5780639e34fa6a14610188578063a6640e4c146101b8578063bc903cb8146101eb578063eaddd0fd146102215761009d565b806262104a146100a25780633c9747f3146100d25780636aef4909146100f05780636fad1c931461010c57806378cbf7e61461013c575b600080fd5b6100bc60048036038101906100b79190611011565b61023f565b6040516100c9919061124e565b60405180910390f35b6100da61027f565b6040516100e79190611292565b60405180910390f35b61010a6004803603810190610105919061103e565b6102a3565b005b61012660048036038101906101219190611011565b610396565b6040516101339190611292565b60405180910390f35b61015660048036038101906101519190610f9d565b6103b6565b6040516101639190611443565b60405180910390f35b61018660048036038101906101819190611011565b610a98565b005b6101a2600480360381019061019d9190610f43565b610b73565b6040516101af9190611443565b60405180910390f35b6101d260048036038101906101cd9190611011565b610b90565b6040516101e294939291906112c8565b60405180910390f35b61020560048036038101906102009190611011565b610c1b565b604051610218979695949392919061130d565b60405180910390f35b610229610da5565b60405161023691906112ad565b60405180910390f35b60006001600083815260200190815260200160002060010160009054906101000a900473ffffffffffffffffffffffffffffffffffffffff169050919050565b7f000000000000000000000000000000000000000000000000000000000000000081565b7f000000000000000000000000000000000000000000000000000000000000000073ffffffffffffffffffffffffffffffffffffffff163373ffffffffffffffffffffffffffffffffffffffff1614610331576040517f08c379a000000000000000000000000000000000000000000000000000000000815260040161032890611383565b60405180910390fd5b600654821015801561034557506006548110155b610384576040517f08c379a000000000000000000000000000000000000000000000000000000000815260040161037b906113a3565b60405180910390fd5b81600481905550806005819055505050565b600060016000838152602001908152602001600020600201549050919050565b6000807f000000000000000000000000000000000000000000000000000000000000000073ffffffffffffffffffffffffffffffffffffffff1663624a23e07f59e2d72f5870ccddd14d35394bd3c22374071b2da7c07a3d6c3b690400b736286040518263ffffffff1660e01b81526004016104329190611292565b60206040518083038186803b15801561044a57600080fd5b505afa15801561045e573d6000803e3d6000fd5b505050506040513d601f19601f820116820180604052508101906104829190610f16565b905060007f000000000000000000000000000000000000000000000000000000000000000073ffffffffffffffffffffffffffffffffffffffff1663624a23e07fd578563424ab02f85ec03c6b1aee04947ebdd4a30db46cba3bcd7f56ef40b1996040518263ffffffff1660e01b81526004016104ff9190611292565b60206040518083038186803b15801561051757600080fd5b505afa15801561052b573d6000803e3d6000fd5b505050506040513d601f19601f8201168201806040525081019061054f9190610f16565b905060016003600082825461056491906114b8565b92505081905550600354925060008173ffffffffffffffffffffffffffffffffffffffff1663701370dc7f000000000000000000000000000000000000000000000000000000000000000073ffffffffffffffffffffffffffffffffffffffff1663624a23e07f346b2ab3a980432fd8f2e24828fc9f9ee2df1548701bc542f6ec17882b3276276040518263ffffffff1660e01b81526004016106079190611292565b60206040518083038186803b15801561061f57600080fd5b505afa158015610633573d6000803e3d6000fd5b505050506040513d601f19601f820116820180604052508101906106579190610f16565b886040518363ffffffff1660e01b8152600401610675929190611269565b60206040518083038186803b15801561068d57600080fd5b505afa1580156106a1573d6000803e3d6000fd5b505050506040513d601f19601f820116820180604052508101906106c59190610f16565b9050600073ffffffffffffffffffffffffffffffffffffffff168173ffffffffffffffffffffffffffffffffffffffff161415610737576040517f08c379a000000000000000000000000000000000000000000000000000000000815260040161072e90611423565b60405180910390fd5b600084864260405160200161074e93929190611211565b604051602081830303815290604052905060008473ffffffffffffffffffffffffffffffffffffffff1663295adadf8789856040518463ffffffff1660e01b815260040161079e9392919061145e565b602060405180830381600087803b1580156107b857600080fd5b505af11580156107cc573d6000803e3d6000fd5b505050506040513d601f19601f820116820180604052508101906107f09190610f70565b90506000801b811415610838576040517f08c379a000000000000000000000000000000000000000000000000000000000815260040161082f906113e3565b60405180910390fd5b600060026000838152602001908152602001600020541461088e576040517f08c379a0000000000000000000000000000000000000000000000000000000008152600401610885906113c3565b60405180910390fd5b60006004544261089e91906114b8565b90506040518060e001604052808c8c8080601f016020809104026020016040519081016040528093929190818152602001838380828437600081840152601f19601f8201169050808301925050505050505081526020018573ffffffffffffffffffffffffffffffffffffffff1681526020018381526020016001600881111561092b5761092a611663565b5b81526020018281526020016005548361094491906114b8565b81526020016000151581525060016000898152602001908152602001600020600082015181600001908051906020019061097f929190610dc9565b5060208201518160010160006101000a81548173ffffffffffffffffffffffffffffffffffffffff021916908373ffffffffffffffffffffffffffffffffffffffff1602179055506040820151816002015560608201518160030160006101000a81548160ff021916908360088111156109fc576109fb611663565b5b02179055506080820151816004015560a0820151816005015560c08201518160060160006101000a81548160ff021916908315150217905550905050866002600084815260200190815260200160002081905550867f782ad24bfb2592c2db8ec384bf93db57c8c631ca93227f9419c9d185d4de793d8584604051610a82929190611269565b60405180910390a2505050505050949350505050565b7f000000000000000000000000000000000000000000000000000000000000000073ffffffffffffffffffffffffffffffffffffffff163373ffffffffffffffffffffffffffffffffffffffff1614610b26576040517f08c379a0000000000000000000000000000000000000000000000000000000008152600401610b1d90611383565b60405180910390fd5b600f8111610b69576040517f08c379a0000000000000000000000000000000000000000000000000000000008152600401610b6090611403565b60405180910390fd5b8060068190555050565b600060026000838152602001908152602001600020549050919050565b6000806000806001600086815260200190815260200160002060030160009054906101000a900460ff16600160008781526020019081526020016000206004015460016000888152602001908152602001600020600501546001600089815260200190815260200160002060060160009054906101000a900460ff1693509350935093509193509193565b606060008060008060008060016000898152602001908152602001600020600001600160008a815260200190815260200160002060010160009054906101000a900473ffffffffffffffffffffffffffffffffffffffff16600160008b815260200190815260200160002060020154600160008c815260200190815260200160002060030160009054906101000a900460ff16600160008d815260200190815260200160002060040154600160008e815260200190815260200160002060050154600160008f815260200190815260200160002060060160009054906101000a900460ff16868054610d0c906115ee565b80601f0160208091040260200160405190810160405280929190818152602001828054610d38906115ee565b8015610d855780601f10610d5a57610100808354040283529160200191610d85565b820191906000526020600020905b815481529060010190602001808311610d6857829003601f168201915b505050505096509650965096509650965096509650919395979092949650565b7f000000000000000000000000000000000000000000000000000000000000000081565b828054610dd5906115ee565b90600052602060002090601f016020900481019282610df75760008555610e3e565b82601f10610e1057805160ff1916838001178555610e3e565b82800160010185558215610e3e579182015b82811115610e3d578251825591602001919060010190610e22565b5b509050610e4b9190610e4f565b5090565b5b80821115610e68576000816000905550600101610e50565b5090565b600081519050610e7b816117f5565b92915050565b600081359050610e908161180c565b92915050565b600081519050610ea58161180c565b92915050565b60008083601f840112610ec157610ec06116c6565b5b8235905067ffffffffffffffff811115610ede57610edd6116c1565b5b602083019150836001820283011115610efa57610ef96116cb565b5b9250929050565b600081359050610f1081611823565b92915050565b600060208284031215610f2c57610f2b6116d5565b5b6000610f3a84828501610e6c565b91505092915050565b600060208284031215610f5957610f586116d5565b5b6000610f6784828501610e81565b91505092915050565b600060208284031215610f8657610f856116d5565b5b6000610f9484828501610e96565b91505092915050565b60008060008060608587031215610fb757610fb66116d5565b5b600085013567ffffffffffffffff811115610fd557610fd46116d0565b5b610fe187828801610eab565b94509450506020610ff487828801610e81565b925050604061100587828801610e81565b91505092959194509250565b600060208284031215611027576110266116d5565b5b600061103584828501610f01565b91505092915050565b60008060408385031215611055576110546116d5565b5b600061106385828601610f01565b925050602061107485828601610f01565b9150509250929050565b6110878161150e565b82525050565b61109681611520565b82525050565b6110a58161152c565b82525050565b6110bc6110b78261152c565b611620565b82525050565b6110cb81611573565b82525050565b6110da81611585565b82525050565b60006110eb8261149c565b6110f581856114a7565b93506111058185602086016115bb565b61110e816116da565b840191505092915050565b6000611126601c836114a7565b9150611131826116eb565b602082019050919050565b60006111496018836114a7565b915061115482611714565b602082019050919050565b600061116c601f836114a7565b91506111778261173d565b602082019050919050565b600061118f6018836114a7565b915061119a82611766565b602082019050919050565b60006111b26015836114a7565b91506111bd8261178f565b602082019050919050565b60006111d56017836114a7565b91506111e0826117b8565b602082019050919050565b6111f481611569565b82525050565b61120b61120682611569565b61162a565b82525050565b600061121d82866111fa565b60208201915061122d82856110ab565b60208201915061123d82846111fa565b602082019150819050949350505050565b6000602082019050611263600083018461107e565b92915050565b600060408201905061127e600083018561107e565b61128b602083018461109c565b9392505050565b60006020820190506112a7600083018461109c565b92915050565b60006020820190506112c260008301846110c2565b92915050565b60006080820190506112dd60008301876110d1565b6112ea60208301866111eb565b6112f760408301856111eb565b611304606083018461108d565b95945050505050565b600060e0820190508181036000830152611327818a6110e0565b9050611336602083018961107e565b611343604083018861109c565b61135060608301876110d1565b61135d60808301866111eb565b61136a60a08301856111eb565b61137760c083018461108d565b98975050505050505050565b6000602082019050818103600083015261139c81611119565b9050919050565b600060208201905081810360008301526113bc8161113c565b9050919050565b600060208201905081810360008301526113dc8161115f565b9050919050565b600060208201905081810360008301526113fc81611182565b9050919050565b6000602082019050818103600083015261141c816111a5565b9050919050565b6000602082019050818103600083015261143c816111c8565b9050919050565b600060208201905061145860008301846111eb565b92915050565b600060608201905061147360008301866111eb565b611480602083018561109c565b818103604083015261149281846110e0565b9050949350505050565b600081519050919050565b600082825260208201905092915050565b60006114c382611569565b91506114ce83611569565b9250827fffffffffffffffffffffffffffffffffffffffffffffffffffffffffffffffff0382111561150357611502611634565b5b828201905092915050565b600061151982611549565b9050919050565b60008115159050919050565b6000819050919050565b6000819050611544826117e1565b919050565b600073ffffffffffffffffffffffffffffffffffffffff82169050919050565b6000819050919050565b600061157e82611597565b9050919050565b600061159082611536565b9050919050565b60006115a2826115a9565b9050919050565b60006115b482611549565b9050919050565b60005b838110156115d95780820151818401526020810190506115be565b838111156115e8576000848401525b50505050565b6000600282049050600182168061160657607f821691505b6020821081141561161a57611619611692565b5b50919050565b6000819050919050565b6000819050919050565b7f4e487b7100000000000000000000000000000000000000000000000000000000600052601160045260246000fd5b7f4e487b7100000000000000000000000000000000000000000000000000000000600052602160045260246000fd5b7f4e487b7100000000000000000000000000000000000000000000000000000000600052602260045260246000fd5b600080fd5b600080fd5b600080fd5b600080fd5b600080fd5b6000601f19601f8301169050919050565b7f53797374656d3a204f6e6c7920636f72652063616e206d6f6469667900000000600082015250565b7f50726f703a2064656c6179732063616e6e6f7420626520300000000000000000600082015250565b7f50726f703a2045786520494420616c7265616479206173736f63696174656400600082015250565b7f50726f703a2045786520646f6573206e6f742065786973740000000000000000600082015250565b7f50726f703a206d696e2063616e6e6f7420626520300000000000000000000000600082015250565b7f50726f703a20496e76616c696420766f74652074797065000000000000000000600082015250565b600981106117f2576117f1611663565b5b50565b6117fe8161150e565b811461180957600080fd5b50565b6118158161152c565b811461182057600080fd5b50565b61182c81611569565b811461183757600080fd5b5056fea26469706673582212201433902e677ff0529b23b662952ca6349cb6934278ae7cefafa97b77b287ca5e64736f6c63430008070033",
  "linkReferences": {},
  "deployedLinkReferences": {}
}