{
  "_format": "hh-sol-artifact-1",
  "contractName": "Proposals",
  "sourceName": "contracts/Proposals.sol",
  "abi": [
    {
      "inputs": [
        {
          "internalType": "address",
          "name": "_core",
          "type": "address"
        },
        {
          "internalType": "address",
          "name": "_timer",
          "type": "address"
        }
      ],
      "stateMutability": "nonpayable",
      "type": "constructor"
    },
    {
      "anonymous": false,
      "inputs": [
        {
          "indexed": true,
          "internalType": "uint256",
          "name": "propID",
          "type": "uint256"
        },
        {
          "indexed": false,
          "internalType": "address",
          "name": "voteType",
          "type": "address"
        },
        {
          "indexed": false,
          "internalType": "bytes32",
          "name": "exeID",
          "type": "bytes32"
        }
      ],
      "name": "NewProposal",
      "type": "event"
    },
    {
      "inputs": [],
      "name": "IDENTIFIER",
      "outputs": [
        {
          "internalType": "bytes32",
          "name": "",
          "type": "bytes32"
        }
      ],
      "stateMutability": "view",
      "type": "function"
    },
    {
      "inputs": [
        {
          "internalType": "bytes32",
          "name": "c__0x00e2a1ba",
          "type": "bytes32"
        }
      ],
      "name": "c_0x00e2a1ba",
      "outputs": [],
      "stateMutability": "pure",
      "type": "function"
    },
    {
      "inputs": [
        {
          "internalType": "bytes32",
          "name": "c__0x0da7e8db",
          "type": "bytes32"
        }
      ],
      "name": "c_0x0da7e8db",
      "outputs": [],
      "stateMutability": "pure",
      "type": "function"
    },
    {
      "inputs": [
        {
          "internalType": "bytes32",
          "name": "c__0x35ade16d",
          "type": "bytes32"
        }
      ],
      "name": "c_0x35ade16d",
      "outputs": [],
      "stateMutability": "pure",
      "type": "function"
    },
    {
      "inputs": [
        {
          "internalType": "bytes32",
          "name": "c__0xd2d47961",
          "type": "bytes32"
        }
      ],
      "name": "c_0xd2d47961",
      "outputs": [],
      "stateMutability": "pure",
      "type": "function"
    },
    {
      "inputs": [],
      "name": "core_",
      "outputs": [
        {
          "internalType": "contract ICore",
          "name": "",
          "type": "address"
        }
      ],
      "stateMutability": "view",
      "type": "function"
    },
    {
      "inputs": [
        {
          "internalType": "string",
          "name": "_description",
          "type": "string"
        },
        {
          "internalType": "bytes32",
          "name": "_voteTypeID",
          "type": "bytes32"
        },
        {
          "internalType": "bytes32",
          "name": "_exeID",
          "type": "bytes32"
        }
      ],
      "name": "createPropWithExe",
      "outputs": [
        {
          "internalType": "uint256",
          "name": "propID",
          "type": "uint256"
        }
      ],
      "stateMutability": "nonpayable",
      "type": "function"
    },
    {
      "inputs": [],
      "name": "getCurrentTime",
      "outputs": [
        {
          "internalType": "uint256",
          "name": "",
          "type": "uint256"
        }
      ],
      "stateMutability": "view",
      "type": "function"
    },
    {
      "inputs": [
        {
          "internalType": "uint256",
          "name": "_propID",
          "type": "uint256"
        }
      ],
      "name": "getExeOfProp",
      "outputs": [
        {
          "internalType": "bytes32",
          "name": "",
          "type": "bytes32"
        }
      ],
      "stateMutability": "view",
      "type": "function"
    },
    {
      "inputs": [
        {
          "internalType": "bytes32",
          "name": "_exeID",
          "type": "bytes32"
        }
      ],
      "name": "getPropOfExe",
      "outputs": [
        {
          "internalType": "uint256",
          "name": "",
          "type": "uint256"
        }
      ],
      "stateMutability": "view",
      "type": "function"
    },
    {
      "inputs": [
        {
          "internalType": "uint256",
          "name": "_propID",
          "type": "uint256"
        }
      ],
      "name": "getPropVotables",
      "outputs": [
        {
          "internalType": "enum IProp.PropStatus",
          "name": "state",
          "type": "uint8"
        },
        {
          "internalType": "uint256",
          "name": "voteStart",
          "type": "uint256"
        },
        {
          "internalType": "uint256",
          "name": "voteEnd",
          "type": "uint256"
        },
        {
          "internalType": "bool",
          "name": "spent",
          "type": "bool"
        }
      ],
      "stateMutability": "view",
      "type": "function"
    },
    {
      "inputs": [
        {
          "internalType": "uint256",
          "name": "_propID",
          "type": "uint256"
        }
      ],
      "name": "getProposalInfo",
      "outputs": [
        {
          "internalType": "string",
          "name": "description",
          "type": "string"
        },
        {
          "internalType": "address",
          "name": "voteType",
          "type": "address"
        },
        {
          "internalType": "bytes32",
          "name": "exeID",
          "type": "bytes32"
        },
        {
          "internalType": "enum IProp.PropStatus",
          "name": "state",
          "type": "uint8"
        },
        {
          "internalType": "uint256",
          "name": "voteStart",
          "type": "uint256"
        },
        {
          "internalType": "uint256",
          "name": "voteEnd",
          "type": "uint256"
        },
        {
          "internalType": "bool",
          "name": "spent",
          "type": "bool"
        }
      ],
      "stateMutability": "view",
      "type": "function"
    },
    {
      "inputs": [
        {
          "internalType": "uint256",
          "name": "_propID",
          "type": "uint256"
        }
      ],
      "name": "getVoteType",
      "outputs": [
        {
          "internalType": "address",
          "name": "",
          "type": "address"
        }
      ],
      "stateMutability": "view",
      "type": "function"
    },
    {
      "inputs": [
        {
          "internalType": "uint256",
          "name": "_minDelay",
          "type": "uint256"
        },
        {
          "internalType": "uint256",
          "name": "_startDelay",
          "type": "uint256"
        },
        {
          "internalType": "uint256",
          "name": "_endDelay",
          "type": "uint256"
        }
      ],
      "name": "initialise",
      "outputs": [],
      "stateMutability": "nonpayable",
      "type": "function"
    },
    {
      "inputs": [
        {
          "internalType": "uint256",
          "name": "_propID",
          "type": "uint256"
        }
      ],
      "name": "propDefeated",
      "outputs": [],
      "stateMutability": "nonpayable",
      "type": "function"
    },
    {
      "inputs": [
        {
          "internalType": "uint256",
          "name": "_propID",
          "type": "uint256"
        }
      ],
      "name": "propExecuted",
      "outputs": [],
      "stateMutability": "nonpayable",
      "type": "function"
    },
    {
      "inputs": [
        {
          "internalType": "uint256",
          "name": "_propID",
          "type": "uint256"
        }
      ],
      "name": "propExpire",
      "outputs": [],
      "stateMutability": "nonpayable",
      "type": "function"
    },
    {
      "inputs": [
        {
          "internalType": "uint256",
          "name": "_propID",
          "type": "uint256"
        }
      ],
      "name": "propQueued",
      "outputs": [],
      "stateMutability": "nonpayable",
      "type": "function"
    },
    {
      "inputs": [
        {
          "internalType": "uint256",
          "name": "_propID",
          "type": "uint256"
        }
      ],
      "name": "propVoting",
      "outputs": [],
      "stateMutability": "nonpayable",
      "type": "function"
    },
    {
      "inputs": [
        {
          "internalType": "uint256",
          "name": "time",
          "type": "uint256"
        }
      ],
      "name": "setCurrentTime",
      "outputs": [],
      "stateMutability": "nonpayable",
      "type": "function"
    },
    {
      "inputs": [],
      "name": "timerAddress",
      "outputs": [
        {
          "internalType": "address",
          "name": "",
          "type": "address"
        }
      ],
      "stateMutability": "view",
      "type": "function"
    },
    {
      "inputs": [
        {
          "internalType": "uint256",
          "name": "_startDelay",
          "type": "uint256"
        },
        {
          "internalType": "uint256",
          "name": "_endDelay",
          "type": "uint256"
        }
      ],
      "name": "updateDelays",
      "outputs": [],
      "stateMutability": "nonpayable",
      "type": "function"
    },
    {
      "inputs": [
        {
          "internalType": "uint256",
          "name": "_newMin",
          "type": "uint256"
        }
      ],
      "name": "updateMinDelay",
      "outputs": [],
      "stateMutability": "nonpayable",
      "type": "function"
    }
  ],
  "bytecode": "0x60c06040523480156200001157600080fd5b5060405162005614380380620056148339818101604052810190620000379190620003bb565b7f36209a57dfd79e3872ec3a0c88c653bbe7e32a12306e5e1f92f118c1936ae8b28282806200008f7fcc8333d776dbed5bc1d5a69fea8a56e88f87955b6a086409d43cdf5b99a00f9160001b6200039860201b60201c565b620000c37f96e003626c0adb9922999e671f576019384ec3e342797245b19e293fc7ae98b860001b6200039860201b60201c565b620000f77f0124756d9b2742e29a6e998127a5d65a6fce0de7b15fe3cffaa57159d293eff460001b6200039860201b60201c565b33600060026101000a81548173ffffffffffffffffffffffffffffffffffffffff021916908373ffffffffffffffffffffffffffffffffffffffff1602179055506200016c7fb4dd8b063f43faf32d5335822e2f70ca2407748b186159c1ed4fe5975bf48fa460001b6200039b60201b60201c565b620001a07fdf0a09891d7ec0658602054cf2c2e2a41244c011d975b6b3df84f87f4e01f1fa60001b6200039b60201b60201c565b620001d47f74aa4cf06a04b763c651dbe9c8d04358ebbbd2cc4e1e17afd7713fac4af5ab8260001b6200039b60201b60201c565b80600160006101000a81548173ffffffffffffffffffffffffffffffffffffffff021916908373ffffffffffffffffffffffffffffffffffffffff160217905550506200024a7f91b90f81106ec7301a2ef3f3646fc2ac7a03224c1592a81c08bf2be57bf85da360001b6200039e60201b60201c565b6200027e7faa1a5f5f7c07ad1d1a00bf086c9ae885f69ed49cd3abc04289c41680f08eda2360001b6200039e60201b60201c565b620002b27f96d06dce006a4c22db8a8fd81f6fd8d01ca83c6b578b06c55ae55449f894b56160001b6200039e60201b60201c565b8260808181525050620002ee7f5df41bcd415e6f031fea4b950841c2b7a0c71533bb77597e55e47143977ffe5060001b6200039e60201b60201c565b620003227f86b081f2885abf844d8a6e92c42bb8b42f1f332206a0f04e515da586d0b809f560001b6200039e60201b60201c565b8173ffffffffffffffffffffffffffffffffffffffff1660a08173ffffffffffffffffffffffffffffffffffffffff1660601b81525050505050620003907f63efac85b13a6aa35edaf11323432e1912b5ba74e89b46cbb09e71d4d1fd82ac60001b620003a160201b60201c565b505062000455565b50565b50565b50565b50565b600081519050620003b5816200043b565b92915050565b60008060408385031215620003d557620003d462000436565b5b6000620003e585828601620003a4565b9250506020620003f885828601620003a4565b9150509250929050565b60006200040f8262000416565b9050919050565b600073ffffffffffffffffffffffffffffffffffffffff82169050919050565b600080fd5b620004468162000402565b81146200045257600080fd5b50565b60805160a05160601c615150620004c460003960008181610b2e01528181610f2f015281816113cc015281816114f101528181611701015281816120bf0152818161260f015281816133d901528181613b0a01528181613f200152613fca01526000610a5701526151506000f3fe608060405234801561001057600080fd5b506004361061014c5760003560e01c80637ef966e4116100c3578063a6640e4c1161007c578063a6640e4c14610383578063b7abd803146103b6578063bc903cb8146103d2578063cd39ebfd14610408578063eaddd0fd14610424578063f40507ac146104425761014c565b80637ef966e4146102c757806385590542146102e35780638a99d586146102ff5780639e34fa6a1461031b5780639ef7786d1461034b578063a3e99958146103675761014c565b80633c9747f3116101155780633c9747f3146101f557806361e4a6c9146102135780636aef49091461022f5780636fad1c931461024b57806377e4b8111461027b57806378cbf7e6146102975761014c565b806262104a146101515780631c39c38d1461018157806322f8e5661461019f57806329cb924d146101bb57806334829155146101d9575b600080fd5b61016b600480360381019061016691906146c1565b61045e565b6040516101789190614a0a565b60405180910390f35b610189610522565b6040516101969190614a0a565b60405180910390f35b6101b960048036038101906101b491906146c1565b610548565b005b6101c36107c0565b6040516101d09190614c7f565b60405180910390f35b6101f360048036038101906101ee91906145f3565b610a52565b005b6101fd610a55565b60405161020a9190614a4e565b60405180910390f35b61022d600480360381019061022891906145f3565b610a79565b005b6102496004803603810190610244919061471b565b610a7c565b005b610265600480360381019061026091906146c1565b610e03565b6040516102729190614a4e565b60405180910390f35b610295600480360381019061029091906146c1565b610ea7565b005b6102b160048036038101906102ac919061464d565b611342565b6040516102be9190614c7f565b60405180910390f35b6102e160048036038101906102dc91906146c1565b612037565b005b6102fd60048036038101906102f891906145f3565b61255a565b005b610319600480360381019061031491906146c1565b61255d565b005b610335600480360381019061033091906145f3565b612874565b6040516103429190614c7f565b60405180910390f35b610365600480360381019061036091906145f3565b612915565b005b610381600480360381019061037c919061475b565b612918565b005b61039d600480360381019061039891906146c1565b613242565b6040516103ad9493929190614a84565b60405180910390f35b6103d060048036038101906103cb91906146c1565b613351565b005b6103ec60048036038101906103e791906146c1565b613874565b6040516103ff9796959493929190614ac9565b60405180910390f35b610422600480360381019061041d91906146c1565b613a82565b005b61042c613f1e565b6040516104399190614a69565b60405180910390f35b61045c600480360381019061045791906146c1565b613f42565b005b600061048c7feab35f3f06859bcfb6cb95b42ba126bacacda6e6406e165f4a77a0fb6e5bbc4b60001b61255a565b6104b87f10878eee11fa16227ac64dc6422f62ec20ee1e68c26340615285fb24de6212bf60001b61255a565b6104e47fcf51e45c706d0a725d065cab82da0b1b0b354edd62940510562f10e7f051052360001b61255a565b6002600083815260200190815260200160002060010160009054906101000a900473ffffffffffffffffffffffffffffffffffffffff169050919050565b600160009054906101000a900473ffffffffffffffffffffffffffffffffffffffff1681565b6105747f6f9ae8edea4a5ca594982c8c889dce6d3960ecead6d85640cfaeefab4965137c60001b610a79565b6105a07f6eebb330cb0c74c8c0a3ebded6ac701f48b060de13591c74ab4785681b589f0c60001b610a79565b6105cc7f36c1556249a63a81b58af6fdcad0065ddcb58894bd16e2b1bf48df8c292c738560001b610a79565b6105f87f27d0da14a88f9fdfd196625fc7df7cbe0aa29fb76c0f7bf605cbb6d8aea6f1ff60001b610a79565b600073ffffffffffffffffffffffffffffffffffffffff16600160009054906101000a900473ffffffffffffffffffffffffffffffffffffffff1673ffffffffffffffffffffffffffffffffffffffff16141561065457600080fd5b6106807f627e7f681529433198cf60e7806c37173ef6d256c8dad2832dc14d984d63c81560001b610a79565b6106ac7faf0631e8e987467954b158416256f14065683e999a12c243f4a4bc80c6573a8160001b610a79565b6106d87fa032f460f3852175b8933100cc9d781f5b5cff200a63b0672b41cef6cafef80c60001b610a79565b6107047f900be1020eac74e7a6523a153b11dd4ba203e5d968d1d2d104979e3ff33e9cef60001b610a79565b6107307f6d7d330e8510a19129b2b889c08c7f30e23b59da3f683ee0df8e8e5100917e1760001b610a79565b600160009054906101000a900473ffffffffffffffffffffffffffffffffffffffff1673ffffffffffffffffffffffffffffffffffffffff166322f8e566826040518263ffffffff1660e01b815260040161078b9190614c7f565b600060405180830381600087803b1580156107a557600080fd5b505af11580156107b9573d6000803e3d6000fd5b5050505050565b60006107ee7fd47833f51fc5ec0f8a24234f14627d428c69063796f9630201d1dc1058ae8e5760001b610a79565b61081a7f0b69545d716b02169fb0a154958cf479d6c74febdce881af2cad9c6bed4b0c3b60001b610a79565b6108467f570eff7e9b79704810f3de14032f6898e0c4ee6c9024ca8a4efe0aea7091fa5f60001b610a79565b600073ffffffffffffffffffffffffffffffffffffffff16600160009054906101000a900473ffffffffffffffffffffffffffffffffffffffff1673ffffffffffffffffffffffffffffffffffffffff16146109c7576108c87f647590469700e029974926aa472ac468fe95744326892633413c8c201ed298c060001b610a79565b6108f47f107a4f7720644a8f8f993f44f4c11c80b4c882005d7ffff284e62ffc5cd9533b60001b610a79565b6109207f449a6ac96c66c2f10c6f7037b7566faf778bcdfef39e56e364596f87914ef8a260001b610a79565b600160009054906101000a900473ffffffffffffffffffffffffffffffffffffffff1673ffffffffffffffffffffffffffffffffffffffff166329cb924d6040518163ffffffff1660e01b815260040160206040518083038186803b15801561098857600080fd5b505afa15801561099c573d6000803e3d6000fd5b505050506040513d601f19601f820116820180604052508101906109c091906146ee565b9050610a4f565b6109f37ff81c329ab48f42d2998e2454dc7c351806520aa7f6d72b2e468d72814fdfe64a60001b610a79565b610a1f7fc5895091758a048fba2cd20e5b0c510227acf44c1b622ab8b72e135767e7aa6660001b610a79565b610a4b7fb60b2b01d584079a590a86b90ecde07699cb728ea718e85d0f63afb9f1bbc67360001b610a79565b4290505b90565b50565b7f000000000000000000000000000000000000000000000000000000000000000081565b50565b610aa87fd99be09b63847000f2eb53f5ee50019118df2ab6326deeb5872bd18d87503b5460001b610a52565b610ad47f2c77d644d557fb6933dbc4cc49b3e86c80f23ae8d6b864c32d5062edb5f0d62260001b610a52565b610b007f323aff064297e279e575f30b6bb40f48a6804ebbbd1d4e4e70874769d3efb43560001b610a52565b610b2c7f6a760194827939a89f2bddb7ac80b8353403bf9f68f91bcc5eb2a49ba90d7a1760001b610a52565b7f000000000000000000000000000000000000000000000000000000000000000073ffffffffffffffffffffffffffffffffffffffff163373ffffffffffffffffffffffffffffffffffffffff1614610bba576040517f08c379a0000000000000000000000000000000000000000000000000000000008152600401610bb190614b5f565b60405180910390fd5b610be67fa53bc14a73a3e41ae5036a8adef75c20d6c58cb075af602696e9c954447e86d260001b610a52565b610c127fd18cb327c4e8d27581609c177ba735fa88f2b6f52b5a530f744687ea0f030e4260001b610a52565b610c3e7fe06e249c8e99838109dd146f0f71ae79b22c5f4a1f5ce81645c9631269f316c360001b61255a565b610c6a7fca7481f9b28c4fbe62488608736f535d3d751438fd7cce36332d9a6968349adf60001b61255a565b610c967fbcb99c126d446cada48a8421030d5bc6b501437638c3d230eae7987ffe4c973c60001b61255a565b610cc27faaaae4066de35d7a69a4cf802d8c9cd9ff90c404a6cdfa8c7667006ff48ad08e60001b61255a565b6007548210158015610cd657506007548110155b610d15576040517f08c379a0000000000000000000000000000000000000000000000000000000008152600401610d0c90614bbf565b60405180910390fd5b610d417f79ca8f318829b00818a0931426282c3f021c3faf1669dc28f895c012fa4d72aa60001b61255a565b610d6d7f83ced837f415d3de3314430cbca36c72d5d833337f666b30cf8f0d82bba6e71560001b61255a565b610d997f07180ebac1245eac29e3b0f513ebf460af7e1929eac91d0561b6048b4833ffde60001b61255a565b81600581905550610dcc7fb750a9b519b1587e2e58fa3e0bccd745b5476234c66013f19f55b50a0d805c6a60001b61255a565b610df87f9bbddbc8e48be87971a2d697f9dce9880ab7d1eab14112853b193e4d2aee13f860001b61255a565b806006819055505050565b6000610e317f35d17a0e4908af6b36416e99644ff4506dbd56c813df8d1c1bbb631a77cc834e60001b61255a565b610e5d7f65a5e1b02cadb60cc98efd59fdb7b60362959cbd611411c93b76335b76dfbeb860001b61255a565b610e897f3ce92579169e361caf7f0ba77d17939e310cc7f56a44a6695b1a02421d0b239a60001b61255a565b60026000838152602001908152602001600020600201549050919050565b610ed37fda418b709f848c8d803577fc1c02766bc31dea1fb40b0f03055ce6c3597e603260001b61255a565b610eff7fbe4bdf2431aa8a2a8dd3cbf4a8d00cf44894292ed96d378d3d8e2d46a61a8a1b60001b61255a565b610f2b7fa6e917df9dcfb24f03e80476ba7a8ada62751c2502678702b42ed89d33bcc7a460001b61255a565b60007f000000000000000000000000000000000000000000000000000000000000000073ffffffffffffffffffffffffffffffffffffffff1663624a23e07fd578563424ab02f85ec03c6b1aee04947ebdd4a30db46cba3bcd7f56ef40b1996040518263ffffffff1660e01b8152600401610fa69190614a4e565b60206040518083038186803b158015610fbe57600080fd5b505afa158015610fd2573d6000803e3d6000fd5b505050506040513d601f19601f82011682018060405250810190610ff691906145c6565b90506110247fc6decf45c888dbdd4cb4be54c71a8adbc3ea7f418560bd3c2d841d1b511bcba560001b61255a565b6110507f0f6afe3ab4be679fbb99e2d64f5ebb066303011edd5cc10ef9baec83fd8760c060001b61255a565b61107c7f9eb864316d98fe5a168968b4d3ff03ac5e890f7263b31dfe5b03abdd68a55fd360001b61255a565b8073ffffffffffffffffffffffffffffffffffffffff163373ffffffffffffffffffffffffffffffffffffffff16146110ea576040517f08c379a00000000000000000000000000000000000000000000000000000000081526004016110e190614b7f565b60405180910390fd5b6111167f1d4e6e3b0fe0d87cf392682d691eb72e0d40a46de3d8462df8997a8d6594ad8a60001b61255a565b6111427fc6432a169e7b8f4b0400c3be73b388a00a0eaafb7f7dc926a5c308441f4bb18560001b61255a565b61116e7f0e4781dde03fb715a08efacba8da65ebc05bf8c86668023266a2b575a23b13ad60001b61255a565b61119a7f499193ea7039fc0d9778a66402919fd518bbf4055eade7e1e2a345d39f6a8f3660001b61255a565b6111c67f537e3d562ccffc1dbd46d86c5a859893ec866d42cd4d4f7cb08794b04605295f60001b61255a565b6111f27f85119cbb07dbaab653d5b768e6417dc7e852878e7d9f3853c3c9db51aba353f860001b61255a565b6001600681111561120657611205614e9f565b5b6002600084815260200190815260200160002060030160009054906101000a900460ff16600681111561123c5761123b614e9f565b5b1461127c576040517f08c379a000000000000000000000000000000000000000000000000000000000815260040161127390614c3f565b60405180910390fd5b6112a87fd8f0a8007bcf4ba855d6e44dbae41c1a6a7e2af1e8f490eb977e0b0034aeae0d60001b61255a565b6112d47f15ca455129b808b16a5085120f79c05a75f1a93cd169e479c71e77ab69d624d160001b61255a565b6113007f92adfc302475d6ff76ca8660c9da272b5bfbe04cff69404f4c47604c22bd3add60001b61255a565b600280600084815260200190815260200160002060030160006101000a81548160ff0219169083600681111561133957611338614e9f565b5b02179055505050565b60006113707f6be074ed5fdbd103db2d36c33a4edef70f095313ae69a2b5273d9948bdd9cb2360001b61255a565b61139c7f40a86bb07d2fbc8c8801545a1490d5c1cb56e24126742cffcc8f58917556527a60001b61255a565b6113c87f3fb1b2b5061a3eea688dd198f5d4a4ccbd9573bbdf75548a5a85f55a4ffae04c60001b61255a565b60007f000000000000000000000000000000000000000000000000000000000000000073ffffffffffffffffffffffffffffffffffffffff1663624a23e07f59e2d72f5870ccddd14d35394bd3c22374071b2da7c07a3d6c3b690400b736286040518263ffffffff1660e01b81526004016114439190614a4e565b60206040518083038186803b15801561145b57600080fd5b505afa15801561146f573d6000803e3d6000fd5b505050506040513d601f19601f8201168201806040525081019061149391906145c6565b90506114c17fc4442a98d31b115a62204291435cbf8d4cdec5e0c8ebf04f86d1b5e3d6061fc360001b61255a565b6114ed7f24c7d3782f2825b4e39f3d550f8566f3d0b63cbf3255044916ca5b6d94f47e2a60001b61255a565b60007f000000000000000000000000000000000000000000000000000000000000000073ffffffffffffffffffffffffffffffffffffffff1663624a23e07fd578563424ab02f85ec03c6b1aee04947ebdd4a30db46cba3bcd7f56ef40b1996040518263ffffffff1660e01b81526004016115689190614a4e565b60206040518083038186803b15801561158057600080fd5b505afa158015611594573d6000803e3d6000fd5b505050506040513d601f19601f820116820180604052508101906115b891906145c6565b90506115e67f5cc697e00265595fe18a1c7e637fcd5fd8f89aff0aea57ba058ae20e264f638a60001b61255a565b6116127fe951e980fc909138c464c8e314f0cbf9e424c7e08fd6d6288fc8ab169d9e230a60001b61255a565b6001600460008282546116259190614cf4565b925050819055506116587f1bd3125f6463203a2433330dd0aea90a772cd99111c95bc69313453ef1ae6e0e60001b61255a565b6116847f6728a438e55eed8e3ab138b6292a629a1a7bcca84b5d2caf40da40cd4b84a55160001b61255a565b60045492506116b57fa1a07e19e444c20c8057fe9abb97f831e921303476f51ea752501583abbdb13860001b61255a565b6116e17f67107879df0f94a1c9e67a53a303026c24a69fba674c8b216c9d7df130261c0160001b61255a565b60008173ffffffffffffffffffffffffffffffffffffffff1663701370dc7f000000000000000000000000000000000000000000000000000000000000000073ffffffffffffffffffffffffffffffffffffffff1663624a23e07f346b2ab3a980432fd8f2e24828fc9f9ee2df1548701bc542f6ec17882b3276276040518263ffffffff1660e01b81526004016117789190614a4e565b60206040518083038186803b15801561179057600080fd5b505afa1580156117a4573d6000803e3d6000fd5b505050506040513d601f19601f820116820180604052508101906117c891906145c6565b886040518363ffffffff1660e01b81526004016117e6929190614a25565b60206040518083038186803b1580156117fe57600080fd5b505afa158015611812573d6000803e3d6000fd5b505050506040513d601f19601f8201168201806040525081019061183691906145c6565b90506118647fce68cef02f485cd3faa50e237f8643e77ed73f7ccbb040fa0044a9996d4e240660001b61255a565b6118907fb7640f4b86656ba6dfaf6571df18df2fed74cdeaff3046dcd63104c30b0846d160001b61255a565b6118bc7f4549af05e1aaac6434adf31328de66f38d70267a52ca4937ed569c7599e16ad560001b61255a565b600073ffffffffffffffffffffffffffffffffffffffff168173ffffffffffffffffffffffffffffffffffffffff16141561192c576040517f08c379a000000000000000000000000000000000000000000000000000000000815260040161192390614c5f565b60405180910390fd5b6119587fa9b8dba02fa658283d271b8a69993a10f683dadb170b48c4e921a6f58723af8860001b61255a565b6119847ffd13e15b7cafea4fa6e51e6f44a641618ba071f529ecc9efdfb073c39f3eef8b60001b61255a565b6119b07fac14ce81d972b05f9755cfb1889c01985a075bee507c524f4e39552d58f73d6260001b61255a565b600084866119bc6107c0565b6040516020016119ce939291906149cd565b6040516020818303038152906040529050611a0b7feb2e56042759a3aec412c262566973bdabc02395881463781e858b477df9aafa60001b61255a565b611a377f5c4255cc98a9bd9230f1808923ba95e6445d279533d2bb91bf6db60ddcd5c27060001b61255a565b60008473ffffffffffffffffffffffffffffffffffffffff1663295adadf8789856040518463ffffffff1660e01b8152600401611a7693929190614c9a565b602060405180830381600087803b158015611a9057600080fd5b505af1158015611aa4573d6000803e3d6000fd5b505050506040513d601f19601f82011682018060405250810190611ac89190614620565b9050611af67f1da6462503842a37758fd9fefe6be5b4a70c768e7ed8fc5d13a7d79077d439e460001b61255a565b611b227fe44dfdcecbae89949f61e4333696e790a11c09f342f2395c6be1f79f7657de7660001b61255a565b611b4e7fe99a0ab6454a9249160a7559a266c0b179712582030a3db0ca59ed9038a128b160001b61255a565b6000801b811415611b94576040517f08c379a0000000000000000000000000000000000000000000000000000000008152600401611b8b90614bff565b60405180910390fd5b611bc07ffe536fc25014d2b0c2a98ced99a0e4a987dbd9003a837d5b54e5bb8d09556acc60001b61255a565b611bec7f7405db770933761fed3d2aefddd1cacb3bfad38cc1f288029e4a4ff4134ee1e260001b61255a565b611c187f0f5c63332f53327638286dba41f0381496a853747fa204db0a5b35a3749d632a60001b61255a565b611c447fe6a2035dc9d05353ecb8be4a343eb932b0748a7812a4ac6f0a0587b2e60d1c0960001b61255a565b6000600360008381526020019081526020016000205414611c9a576040517f08c379a0000000000000000000000000000000000000000000000000000000008152600401611c9190614bdf565b60405180910390fd5b611cc67fc2dc3b4ec8786104e7c04540d62f1046c5d18a20f313b2570b61edc7b03da7de60001b61255a565b611cf27f896a19cb2ebb8816d17a19ebf902403887dd961677618bff002b7df697e3f78f60001b61255a565b611d1e7ff889264c8acde0a4646ca5664298ecadfbef0480b9c2a447ec450e0c5dce975160001b61255a565b6000600554611d2b6107c0565b611d359190614cf4565b9050611d637f50d7722da7119f8807977bcc2b5e6d1f9593424f04a0a5ed372fcaeec0ca56c160001b61255a565b611d8f7f7e9f229f504e7c613a277f7765ffdcbd9ea8be49045415be528e34e57b81456760001b61255a565b6040518060e001604052808c8c8080601f016020809104026020016040519081016040528093929190818152602001838380828437600081840152601f19601f8201169050808301925050505050505081526020018573ffffffffffffffffffffffffffffffffffffffff16815260200183815260200160016006811115611e1a57611e19614e9f565b5b815260200182815260200160065483611e339190614cf4565b815260200160001515815250600260008981526020019081526020016000206000820151816000019080519060200190611e6e929190614464565b5060208201518160010160006101000a81548173ffffffffffffffffffffffffffffffffffffffff021916908373ffffffffffffffffffffffffffffffffffffffff1602179055506040820151816002015560608201518160030160006101000a81548160ff02191690836006811115611eeb57611eea614e9f565b5b02179055506080820151816004015560a0820151816005015560c08201518160060160006101000a81548160ff021916908315150217905550905050611f537ffab7c4be3a2621aaf0bd02421f9b5247af3445b934f469297c7accd0bba38cea60001b61255a565b611f7f7f763d796b5a4852f0b03aa8ea53b67d6a0b5a0b84ebcd1ac4b9f3a34cb742dc9a60001b61255a565b866003600084815260200190815260200160002081905550611fc37f697fa5c2f6153da73249de6af28e9aa47a072fda1f7a42c66ff0d531884a70fe60001b61255a565b611fef7f1d529975e46fd185b91733e0333efe68d92a8fe23447610147d567109c9ea51260001b61255a565b867f782ad24bfb2592c2db8ec384bf93db57c8c631ca93227f9419c9d185d4de793d8584604051612021929190614a25565b60405180910390a2505050505050949350505050565b6120637fda418b709f848c8d803577fc1c02766bc31dea1fb40b0f03055ce6c3597e603260001b61255a565b61208f7fbe4bdf2431aa8a2a8dd3cbf4a8d00cf44894292ed96d378d3d8e2d46a61a8a1b60001b61255a565b6120bb7fa6e917df9dcfb24f03e80476ba7a8ada62751c2502678702b42ed89d33bcc7a460001b61255a565b60007f000000000000000000000000000000000000000000000000000000000000000073ffffffffffffffffffffffffffffffffffffffff1663624a23e07fd578563424ab02f85ec03c6b1aee04947ebdd4a30db46cba3bcd7f56ef40b1996040518263ffffffff1660e01b81526004016121369190614a4e565b60206040518083038186803b15801561214e57600080fd5b505afa158015612162573d6000803e3d6000fd5b505050506040513d601f19601f8201168201806040525081019061218691906145c6565b90506121b47fc6decf45c888dbdd4cb4be54c71a8adbc3ea7f418560bd3c2d841d1b511bcba560001b61255a565b6121e07f0f6afe3ab4be679fbb99e2d64f5ebb066303011edd5cc10ef9baec83fd8760c060001b61255a565b61220c7f9eb864316d98fe5a168968b4d3ff03ac5e890f7263b31dfe5b03abdd68a55fd360001b61255a565b8073ffffffffffffffffffffffffffffffffffffffff163373ffffffffffffffffffffffffffffffffffffffff161461227a576040517f08c379a000000000000000000000000000000000000000000000000000000000815260040161227190614b7f565b60405180910390fd5b6122a67f1d4e6e3b0fe0d87cf392682d691eb72e0d40a46de3d8462df8997a8d6594ad8a60001b61255a565b6122d27fc6432a169e7b8f4b0400c3be73b388a00a0eaafb7f7dc926a5c308441f4bb18560001b61255a565b6122fe7fb1636e06e023e890fc1f5431bf4fe8dff279154c72523051f36492f3ceab82a960001b61255a565b61232a7f292cec6f139d4ccdec93c9176637cb01764501e0740b7eef592be61fe34a215960001b61255a565b6123567fcff47d37d08006a952ab2b45161c8596b67578c5bea5761374344c70acb3aa4760001b61255a565b6123827ff40e90ee3aa4bb88bc86a7bc5f9edac3f70c76879ec1768a413020bb2853d5ed60001b61255a565b6002600681111561239657612395614e9f565b5b6002600084815260200190815260200160002060030160009054906101000a900460ff1660068111156123cc576123cb614e9f565b5b1461240c576040517f08c379a000000000000000000000000000000000000000000000000000000000815260040161240390614c3f565b60405180910390fd5b6124387f73c2d0244694cecf8c52ea1b957c414561e21febcc982633ae0ade3fd6120e7560001b61255a565b6124647f6d8b1b4509ea9e72f32d04307e8983e0317f5638ba4ec805f746937fb371de9b60001b61255a565b6124907f6dc5fb051efeb7cbfd157724932a6ddc8bc07be008212e0ee50f415bd0a1835060001b61255a565b60056002600084815260200190815260200160002060030160006101000a81548160ff021916908360068111156124ca576124c9614e9f565b5b02179055506124fb7f2f4e60f6b433bf5850314fec240d329ee6ca9a51499b2911ef2bacfd1201fbc760001b61255a565b6125277f50a15098583fb513d231e24a7f4a3be780b2c40bfab319d49d621c709ad6dcba60001b61255a565b60016002600084815260200190815260200160002060060160006101000a81548160ff0219169083151502179055505050565b50565b6125897fd99be09b63847000f2eb53f5ee50019118df2ab6326deeb5872bd18d87503b5460001b610a52565b6125b57f2c77d644d557fb6933dbc4cc49b3e86c80f23ae8d6b864c32d5062edb5f0d62260001b610a52565b6125e17f323aff064297e279e575f30b6bb40f48a6804ebbbd1d4e4e70874769d3efb43560001b610a52565b61260d7f6a760194827939a89f2bddb7ac80b8353403bf9f68f91bcc5eb2a49ba90d7a1760001b610a52565b7f000000000000000000000000000000000000000000000000000000000000000073ffffffffffffffffffffffffffffffffffffffff163373ffffffffffffffffffffffffffffffffffffffff161461269b576040517f08c379a000000000000000000000000000000000000000000000000000000000815260040161269290614b5f565b60405180910390fd5b6126c77fa53bc14a73a3e41ae5036a8adef75c20d6c58cb075af602696e9c954447e86d260001b610a52565b6126f37fd18cb327c4e8d27581609c177ba735fa88f2b6f52b5a530f744687ea0f030e4260001b610a52565b61271f7f3a50340d11f46e2b1a348ff01ca485fa5d860c745844d6657557794578273ddf60001b61255a565b61274b7fe05316165ad591ab077d532c46656604ed9ff1cc2aadf1d0711ad094b97b516860001b61255a565b6127777f7344fdbf680ea877a34b0053c58be729870809b82ed146a485b022e6170f7d3b60001b61255a565b6127a37f92d67365be77dd97d8a47c310cdaed1098acbeeec21d9d5349d9de632acbabd260001b61255a565b600f81116127e6576040517f08c379a00000000000000000000000000000000000000000000000000000000081526004016127dd90614c1f565b60405180910390fd5b6128127f1907d65e8f0f7ee88bb2f24c004c32d475663659f2a58048e6b5969252ed798c60001b61255a565b61283e7fa2002ba7bf57056154b5a3d53f6a4ab0f5d1ddc30f4b5798cfa55d792b4c66cc60001b61255a565b61286a7f4858ca3adb661fe46270a960bc4597dd13de3e3e980d996055d644943187b14960001b61255a565b8060078190555050565b60006128a27f6d07873e729d61068dbe24cab382c0ce30eba790c3868a8795f815a1e4ea066860001b61255a565b6128ce7f47e498142321e4bb546d67d9f1280512fb87b0f17dc89ba4c12fd480d341f2dd60001b61255a565b6128fa7fe16ccf1052aa9d721f60a72415b73f606b08c3971f949475b770cf9b17c3166c60001b61255a565b60036000838152602001908152602001600020549050919050565b50565b6129447f0e0cd9f43fa96f35ac9dcd66bf9394a66239a66b0422c7eb4acaa3ec7af2bca760001b612915565b6129707fa572db1175cf84948584c963309788099518a5f9406d64b26be0f01abaa7615160001b612915565b61299c7f524b599d7eb0f1dfc88ccfeb5d98c7465952b834def7a670e3e1ee11de0a1e3760001b612915565b6129c87f98965d56deb2a09035f26190cf6413a56daf79840e05a39e6a014890174d277a60001b612915565b600060019054906101000a900460ff16806129ee575060008054906101000a900460ff16155b612a2d576040517f08c379a0000000000000000000000000000000000000000000000000000000008152600401612a2490614b9f565b60405180910390fd5b612a597fe6d54cb133197a88f121f1222a74c88e9bdb72f2534b716bac552690179fa19b60001b612915565b612a857f2978934513c1680f7d8efe0f61b00f6e798552e162cf38e89079d9080f3639a060001b612915565b612ab17fb746c40fd73cb0d4ce3270dc8cbf3523878f0b08dc0fe2339e1f2f72a167819a60001b612915565b612add7f5666c1bdc7b7d35115b317253332f7f90453602bb5068386a08ea63770d8032460001b612915565b600060029054906101000a900473ffffffffffffffffffffffffffffffffffffffff1673ffffffffffffffffffffffffffffffffffffffff163373ffffffffffffffffffffffffffffffffffffffff1614612b6d576040517f08c379a0000000000000000000000000000000000000000000000000000000008152600401612b6490614b3f565b60405180910390fd5b612b997fae1bd2558d584dd4c375d9569fcf63a6ddd2e986550a1722bfbf5c885b8d343c60001b612915565b612bc57f8827da128743a7905421670199b1e7c0011f34030aea597bb0ed57dd76a8fcbe60001b612915565b612bf17fd138844c11e5fb387e8063532b614d5d66b6053c6cb9a3b7de9a071516cf13c760001b612915565b60008060019054906101000a900460ff16159050612c317f0da07da6706658155f26bbafcbfa954a7537c786b613a4cc9be94703ef8137aa60001b612915565b612c5d7f234d6ab578d89d89ef0e5cfb230d4b62412d2d6aecc02683e842f258b0952f2960001b612915565b8015612d7957612c8f7fc3fe9f21b0f8c74b901d4bb6665dcddf61902ec0d3feecd24d14288baeb1eeb660001b612915565b612cbb7f3e978646ed66cc964c98e5a5878ca6f5c9a2a19bbe74dcc13b01cff0472ea07c60001b612915565b612ce77f29ca5100e48f38a7411fb78acc536c44b5db000aa462c2b1360915c045318ca760001b612915565b6001600060016101000a81548160ff021916908315150217905550612d2e7fa5f2730f9babc14d334aa306df7fb5c6b1ed3bdfb66f6fc4fafe38d5652f469660001b612915565b612d5a7f181d8291e4a099dfa8d933931fb5a4fab22537d847165af8100ce2c9358055b560001b612915565b60016000806101000a81548160ff021916908315150217905550612da6565b612da57f8a59cf0f81ee5490e15c424d8aede261eaf6e1217105a123d14893d69aabf35d60001b612915565b5b612dd27fc5092240012f400b79e17c3d1fb6321ac43d96fa801b72141d16886e1c9be39160001b612915565b612dfe7f7a35d89b017b7447769309e3ce2f589892ce73b2bf43ec09ed35f19f6a45fc3060001b61255a565b612e2a7fa89629eaf1998a52fb44e9231d80a8ef05dcbdad38ddaac783f2dc02c2137d7060001b61255a565b612e567f2e6d77ad02e0acea3dba989195e0294d827622d68b2923bf6aae066a8aef9b4f60001b61255a565b612e827f24b485c5d6b33d99d6974e38cd882c807547dba693f8b851d3ac6960bfb8867b60001b61255a565b600f841015612ec6576040517f08c379a0000000000000000000000000000000000000000000000000000000008152600401612ebd90614c1f565b60405180910390fd5b612ef27fb9046330e7f4dab78b27e6b27b78f09c25645e6b8a4a1ee824bb6306f597aa7660001b61255a565b612f1e7fbd986276fe0b5a8546d90b52bfbdbc203e7216e02398cc41e70427d186afc70a60001b61255a565b612f4a7f8c476768307dd531e0afb9d074e6372e362ca37d13fa742b08d459325635428660001b61255a565b612f767ff4f88258fe94114f79bc8005e6350ca0e29e43d6ccdf74dfe3ad177df8d9ad8260001b61255a565b838310158015612f865750838210155b612fc5576040517f08c379a0000000000000000000000000000000000000000000000000000000008152600401612fbc90614bbf565b60405180910390fd5b612ff17fe4ee378b0d6538fe0fa80325a5debee4f48c9a2d13684ee4a72801359ac31be260001b61255a565b61301d7f817924b9f98004da6a12c8379777f0473914ed016f6a51f0f65fee568941b0f260001b61255a565b6130497fc328c9bf551365e3296f21baf3bf2e3069dc899e925ef99e4b284c7f10f06c7960001b61255a565b8360078190555061307c7f6dadf81c401981c00b5e8b64ad58485b862880f04c2aa2a251bc58bf2d6e991f60001b61255a565b6130a87f9ea76225e492f5271285841d34e69d36b4f87664fd55137fc8263541ef9ed61c60001b61255a565b826005819055506130db7f6146c2dfd2bd5822874e0128357ee06c5151bc76abddbc6e5c153124de0054ba60001b61255a565b6131077f616a5b15a501044e0ad4bf1558305a0ae66933acc7e9d1590b9afcffd81fccdd60001b61255a565b8160068190555061313a7ffa61d325b20e902fc90b26bec17d33d3c3bf7800b6a72b6365dfed29c50751f260001b612915565b6131667f6f241d49ed4d7add7ad690d1f539edcf9eec47c7016587da77342ab89f45939260001b612915565b801561320f576131987fbc5b20eaf8827dd1b8876361d943d3b4be9fa479d6620c48df64e11b5241c1d860001b612915565b6131c47fcd9c9ee58d0224a02f67a02ea3cac30b05ad3a9f1a6fa924e92f56395a167ba760001b612915565b6131f07fcd058c89f1cef595e4be1f9ca2f3cf5043a8e40a2a840a0a3c6eda59e241aa7160001b612915565b60008060016101000a81548160ff02191690831515021790555061323c565b61323b7f8fd60aebfbf035724a35db2472efd6c6271cb9083fdfb84a1ce7898d354ba3f960001b612915565b5b50505050565b6000806000806132747f465c9cdddfc9d8baff7d188d9a77f4899c98f02fdba86d2aa56b8462f4464ac260001b61255a565b6132a07ff31da1e51f67d08b86f4ff82061062eed31a05bf2a52cf17d3d97e2abc01247560001b61255a565b6132cc7f421710a5283e7b03fba90c91d2dc2e391797a7dfc70f37fa5a55cd877ed0d96660001b61255a565b6002600086815260200190815260200160002060030160009054906101000a900460ff16600260008781526020019081526020016000206004015460026000888152602001908152602001600020600501546002600089815260200190815260200160002060060160009054906101000a900460ff1693509350935093509193509193565b61337d7fda418b709f848c8d803577fc1c02766bc31dea1fb40b0f03055ce6c3597e603260001b61255a565b6133a97fbe4bdf2431aa8a2a8dd3cbf4a8d00cf44894292ed96d378d3d8e2d46a61a8a1b60001b61255a565b6133d57fa6e917df9dcfb24f03e80476ba7a8ada62751c2502678702b42ed89d33bcc7a460001b61255a565b60007f000000000000000000000000000000000000000000000000000000000000000073ffffffffffffffffffffffffffffffffffffffff1663624a23e07fd578563424ab02f85ec03c6b1aee04947ebdd4a30db46cba3bcd7f56ef40b1996040518263ffffffff1660e01b81526004016134509190614a4e565b60206040518083038186803b15801561346857600080fd5b505afa15801561347c573d6000803e3d6000fd5b505050506040513d601f19601f820116820180604052508101906134a091906145c6565b90506134ce7fc6decf45c888dbdd4cb4be54c71a8adbc3ea7f418560bd3c2d841d1b511bcba560001b61255a565b6134fa7f0f6afe3ab4be679fbb99e2d64f5ebb066303011edd5cc10ef9baec83fd8760c060001b61255a565b6135267f9eb864316d98fe5a168968b4d3ff03ac5e890f7263b31dfe5b03abdd68a55fd360001b61255a565b8073ffffffffffffffffffffffffffffffffffffffff163373ffffffffffffffffffffffffffffffffffffffff1614613594576040517f08c379a000000000000000000000000000000000000000000000000000000000815260040161358b90614b7f565b60405180910390fd5b6135c07f1d4e6e3b0fe0d87cf392682d691eb72e0d40a46de3d8462df8997a8d6594ad8a60001b61255a565b6135ec7fc6432a169e7b8f4b0400c3be73b388a00a0eaafb7f7dc926a5c308441f4bb18560001b61255a565b6136187fb946e4cbaa2988a60e3381c2a31a3afe2ced65cad00b160bf3e5b6d46f51828f60001b61255a565b6136447fbafc8652a35c1bae9c9c1ba025378fabc5a82348b52495affa09b9f637fa9b1f60001b61255a565b6136707f7b6f96141196b1dd881555c5c692e4327f211ffce6c8bd15a85f16b6f9a71dae60001b61255a565b61369c7fcd29d1afef4f201f2959ca643f19adf1834e3fe18a223df0b7f28a40469c1e5a60001b61255a565b600360068111156136b0576136af614e9f565b5b6002600084815260200190815260200160002060030160009054906101000a900460ff1660068111156136e6576136e5614e9f565b5b14613726576040517f08c379a000000000000000000000000000000000000000000000000000000000815260040161371d90614c3f565b60405180910390fd5b6137527ff438087c9abe0d4480f01cd3a0f8d15d16ac680fc3032d0af770a4bd339d6f4560001b61255a565b61377e7f31a4b2855644483fd4dd3921e46a69fcc7c8ac07086670c6984c9238cc91480460001b61255a565b6137aa7f231b7e9bd676d8868b4265284bb9d3a17638f26a4f5c89d84febd23170f57ed360001b61255a565b60046002600084815260200190815260200160002060030160006101000a81548160ff021916908360068111156137e4576137e3614e9f565b5b02179055506138157faa81a6ae2559ba23b4b3d65704702dd1d94edfc8853a029e63c78d28bb643f4360001b61255a565b6138417f06b1cd42d4971f989283d6ef08f4afe997b2d1a7c450f22a2c2eb2f8270ea09960001b61255a565b60016002600084815260200190815260200160002060060160006101000a81548160ff0219169083151502179055505050565b60606000806000806000806138ab7fc8ba09b5e0e68a263a1bcb82ed087936cc4dd5b78bb0b40c97a6380675ee531a60001b61255a565b6138d77fc5d73ca1ab9ead1a8cd441cf36b914d04c28981a3bd74fe230166d981be75cd360001b61255a565b6139037f982859a60420538bd5d273f17928feacaa7da84d751c7222b8f59c33d053028a60001b61255a565b60026000898152602001908152602001600020600001600260008a815260200190815260200160002060010160009054906101000a900473ffffffffffffffffffffffffffffffffffffffff16600260008b815260200190815260200160002060020154600260008c815260200190815260200160002060030160009054906101000a900460ff16600260008d815260200190815260200160002060040154600260008e815260200190815260200160002060050154600260008f815260200190815260200160002060060160009054906101000a900460ff168680546139e990614e2a565b80601f0160208091040260200160405190810160405280929190818152602001828054613a1590614e2a565b8015613a625780601f10613a3757610100808354040283529160200191613a62565b820191906000526020600020905b815481529060010190602001808311613a4557829003601f168201915b505050505096509650965096509650965096509650919395979092949650565b613aae7fda418b709f848c8d803577fc1c02766bc31dea1fb40b0f03055ce6c3597e603260001b61255a565b613ada7fbe4bdf2431aa8a2a8dd3cbf4a8d00cf44894292ed96d378d3d8e2d46a61a8a1b60001b61255a565b613b067fa6e917df9dcfb24f03e80476ba7a8ada62751c2502678702b42ed89d33bcc7a460001b61255a565b60007f000000000000000000000000000000000000000000000000000000000000000073ffffffffffffffffffffffffffffffffffffffff1663624a23e07fd578563424ab02f85ec03c6b1aee04947ebdd4a30db46cba3bcd7f56ef40b1996040518263ffffffff1660e01b8152600401613b819190614a4e565b60206040518083038186803b158015613b9957600080fd5b505afa158015613bad573d6000803e3d6000fd5b505050506040513d601f19601f82011682018060405250810190613bd191906145c6565b9050613bff7fc6decf45c888dbdd4cb4be54c71a8adbc3ea7f418560bd3c2d841d1b511bcba560001b61255a565b613c2b7f0f6afe3ab4be679fbb99e2d64f5ebb066303011edd5cc10ef9baec83fd8760c060001b61255a565b613c577f9eb864316d98fe5a168968b4d3ff03ac5e890f7263b31dfe5b03abdd68a55fd360001b61255a565b8073ffffffffffffffffffffffffffffffffffffffff163373ffffffffffffffffffffffffffffffffffffffff1614613cc5576040517f08c379a0000000000000000000000000000000000000000000000000000000008152600401613cbc90614b7f565b60405180910390fd5b613cf17f1d4e6e3b0fe0d87cf392682d691eb72e0d40a46de3d8462df8997a8d6594ad8a60001b61255a565b613d1d7fc6432a169e7b8f4b0400c3be73b388a00a0eaafb7f7dc926a5c308441f4bb18560001b61255a565b613d497f2b878186e67ba11e122ff6322f7b57a76f44d56df4b214a21942c5cd186a3e7f60001b61255a565b613d757fcfd80c77e6f5d6bb08e42575eca18267a3e7e1815a10dec08997b5f1fc068f1660001b61255a565b613da17f9b7d6a5c338984c3294b3c35dc4bdc3af36d0befc56b50a591d36e3ccf41b18260001b61255a565b613dcd7fa698ffdba7600be9f1ece4b902f800cb43a67c183005c1a9496fbc50b6a73e0e60001b61255a565b60026006811115613de157613de0614e9f565b5b6002600084815260200190815260200160002060030160009054906101000a900460ff166006811115613e1757613e16614e9f565b5b14613e57576040517f08c379a0000000000000000000000000000000000000000000000000000000008152600401613e4e90614c3f565b60405180910390fd5b613e837fe7af2056902f15a09e482736d3b72c7c11e31894859c6fb6b63bc0271f3857f160001b61255a565b613eaf7fa22ad524f0725747b48bad8d7695c19aaac17a8b6a00c660278fcf40403eb8c760001b61255a565b613edb7f25f9475f955546ca717332fc7b6b2ffca1bbac0862354f614b30ef80522656cf60001b61255a565b60036002600084815260200190815260200160002060030160006101000a81548160ff02191690836006811115613f1557613f14614e9f565b5b02179055505050565b7f000000000000000000000000000000000000000000000000000000000000000081565b613f6e7fda418b709f848c8d803577fc1c02766bc31dea1fb40b0f03055ce6c3597e603260001b61255a565b613f9a7fbe4bdf2431aa8a2a8dd3cbf4a8d00cf44894292ed96d378d3d8e2d46a61a8a1b60001b61255a565b613fc67fa6e917df9dcfb24f03e80476ba7a8ada62751c2502678702b42ed89d33bcc7a460001b61255a565b60007f000000000000000000000000000000000000000000000000000000000000000073ffffffffffffffffffffffffffffffffffffffff1663624a23e07fd578563424ab02f85ec03c6b1aee04947ebdd4a30db46cba3bcd7f56ef40b1996040518263ffffffff1660e01b81526004016140419190614a4e565b60206040518083038186803b15801561405957600080fd5b505afa15801561406d573d6000803e3d6000fd5b505050506040513d601f19601f8201168201806040525081019061409191906145c6565b90506140bf7fc6decf45c888dbdd4cb4be54c71a8adbc3ea7f418560bd3c2d841d1b511bcba560001b61255a565b6140eb7f0f6afe3ab4be679fbb99e2d64f5ebb066303011edd5cc10ef9baec83fd8760c060001b61255a565b6141177f9eb864316d98fe5a168968b4d3ff03ac5e890f7263b31dfe5b03abdd68a55fd360001b61255a565b8073ffffffffffffffffffffffffffffffffffffffff163373ffffffffffffffffffffffffffffffffffffffff1614614185576040517f08c379a000000000000000000000000000000000000000000000000000000000815260040161417c90614b7f565b60405180910390fd5b6141b17f1d4e6e3b0fe0d87cf392682d691eb72e0d40a46de3d8462df8997a8d6594ad8a60001b61255a565b6141dd7fc6432a169e7b8f4b0400c3be73b388a00a0eaafb7f7dc926a5c308441f4bb18560001b61255a565b6142097ff665a10e3a2719b99407e29cd4a10f4d42f4b7d45ff1e68a30490e2f685fd16f60001b61255a565b6142357f0a3cc2f3c2b51f4584495604890b6c6fecbe02ff450fe706d619681dfba15e8560001b61255a565b6142607eff23deda70d33bd6be2d18d259dab4f6c2b9bea9f22c70399cdfe680e4007960001b61255a565b61428c7f7e485cf24b88870e9fd31e90099f29036b50a3a1eaa97337ca2dfc5636fe4fb560001b61255a565b600260068111156142a05761429f614e9f565b5b6002600084815260200190815260200160002060030160009054906101000a900460ff1660068111156142d6576142d5614e9f565b5b14614316576040517f08c379a000000000000000000000000000000000000000000000000000000000815260040161430d90614c3f565b60405180910390fd5b6143427f542464fda0950ec058099a9240cfaab0c35bb7b786de80aa1c4a1f27be05966c60001b61255a565b61436e7fcbb1f396d4dcab0c3514aa1b4e9863e0026336b5aae27d16babe9ab884833e2c60001b61255a565b61439a7fd40593de59ed30a68f49fa20143c332865fc6c5adad62402443fd5a71282ca0e60001b61255a565b60066002600084815260200190815260200160002060030160006101000a81548160ff021916908360068111156143d4576143d3614e9f565b5b02179055506144057f967bb60ad44bdc2ecce3a4342f77079aedd0dacc3db693315b891d163391655e60001b61255a565b6144317f4e463223a4fa101a48d7f98b103673705a426dec28fd872bf411dbee530eb97f60001b61255a565b60016002600084815260200190815260200160002060060160006101000a81548160ff0219169083151502179055505050565b82805461447090614e2a565b90600052602060002090601f01602090048101928261449257600085556144d9565b82601f106144ab57805160ff19168380011785556144d9565b828001600101855582156144d9579182015b828111156144d85782518255916020019190600101906144bd565b5b5090506144e691906144ea565b5090565b5b808211156145035760008160009055506001016144eb565b5090565b600081519050614516816150d5565b92915050565b60008135905061452b816150ec565b92915050565b600081519050614540816150ec565b92915050565b60008083601f84011261455c5761455b614f02565b5b8235905067ffffffffffffffff81111561457957614578614efd565b5b60208301915083600182028301111561459557614594614f07565b5b9250929050565b6000813590506145ab81615103565b92915050565b6000815190506145c081615103565b92915050565b6000602082840312156145dc576145db614f11565b5b60006145ea84828501614507565b91505092915050565b60006020828403121561460957614608614f11565b5b60006146178482850161451c565b91505092915050565b60006020828403121561463657614635614f11565b5b600061464484828501614531565b91505092915050565b6000806000806060858703121561466757614666614f11565b5b600085013567ffffffffffffffff81111561468557614684614f0c565b5b61469187828801614546565b945094505060206146a48782880161451c565b92505060406146b58782880161451c565b91505092959194509250565b6000602082840312156146d7576146d6614f11565b5b60006146e58482850161459c565b91505092915050565b60006020828403121561470457614703614f11565b5b6000614712848285016145b1565b91505092915050565b6000806040838503121561473257614731614f11565b5b60006147408582860161459c565b92505060206147518582860161459c565b9150509250929050565b60008060006060848603121561477457614773614f11565b5b60006147828682870161459c565b93505060206147938682870161459c565b92505060406147a48682870161459c565b9150509250925092565b6147b781614d4a565b82525050565b6147c681614d5c565b82525050565b6147d581614d68565b82525050565b6147ec6147e782614d68565b614e5c565b82525050565b6147fb81614daf565b82525050565b61480a81614dc1565b82525050565b600061481b82614cd8565b6148258185614ce3565b9350614835818560208601614df7565b61483e81614f16565b840191505092915050565b6000614856601c83614ce3565b915061486182614f27565b602082019050919050565b6000614879601c83614ce3565b915061488482614f50565b602082019050919050565b600061489c601983614ce3565b91506148a782614f79565b602082019050919050565b60006148bf601d83614ce3565b91506148ca82614fa2565b602082019050919050565b60006148e2601883614ce3565b91506148ed82614fcb565b602082019050919050565b6000614905601f83614ce3565b915061491082614ff4565b602082019050919050565b6000614928601883614ce3565b91506149338261501d565b602082019050919050565b600061494b601583614ce3565b915061495682615046565b602082019050919050565b600061496e601c83614ce3565b91506149798261506f565b602082019050919050565b6000614991601783614ce3565b915061499c82615098565b602082019050919050565b6149b081614da5565b82525050565b6149c76149c282614da5565b614e66565b82525050565b60006149d982866149b6565b6020820191506149e982856147db565b6020820191506149f982846149b6565b602082019150819050949350505050565b6000602082019050614a1f60008301846147ae565b92915050565b6000604082019050614a3a60008301856147ae565b614a4760208301846147cc565b9392505050565b6000602082019050614a6360008301846147cc565b92915050565b6000602082019050614a7e60008301846147f2565b92915050565b6000608082019050614a996000830187614801565b614aa660208301866149a7565b614ab360408301856149a7565b614ac060608301846147bd565b95945050505050565b600060e0820190508181036000830152614ae3818a614810565b9050614af260208301896147ae565b614aff60408301886147cc565b614b0c6060830187614801565b614b1960808301866149a7565b614b2660a08301856149a7565b614b3360c08301846147bd565b98975050505050505050565b60006020820190508181036000830152614b5881614849565b9050919050565b60006020820190508181036000830152614b788161486c565b9050919050565b60006020820190508181036000830152614b988161488f565b9050919050565b60006020820190508181036000830152614bb8816148b2565b9050919050565b60006020820190508181036000830152614bd8816148d5565b9050919050565b60006020820190508181036000830152614bf8816148f8565b9050919050565b60006020820190508181036000830152614c188161491b565b9050919050565b60006020820190508181036000830152614c388161493e565b9050919050565b60006020820190508181036000830152614c5881614961565b9050919050565b60006020820190508181036000830152614c7881614984565b9050919050565b6000602082019050614c9460008301846149a7565b92915050565b6000606082019050614caf60008301866149a7565b614cbc60208301856147cc565b8181036040830152614cce8184614810565b9050949350505050565b600081519050919050565b600082825260208201905092915050565b6000614cff82614da5565b9150614d0a83614da5565b9250827fffffffffffffffffffffffffffffffffffffffffffffffffffffffffffffffff03821115614d3f57614d3e614e70565b5b828201905092915050565b6000614d5582614d85565b9050919050565b60008115159050919050565b6000819050919050565b6000819050614d80826150c1565b919050565b600073ffffffffffffffffffffffffffffffffffffffff82169050919050565b6000819050919050565b6000614dba82614dd3565b9050919050565b6000614dcc82614d72565b9050919050565b6000614dde82614de5565b9050919050565b6000614df082614d85565b9050919050565b60005b83811015614e15578082015181840152602081019050614dfa565b83811115614e24576000848401525b50505050565b60006002820490506001821680614e4257607f821691505b60208210811415614e5657614e55614ece565b5b50919050565b6000819050919050565b6000819050919050565b7f4e487b7100000000000000000000000000000000000000000000000000000000600052601160045260246000fd5b7f4e487b7100000000000000000000000000000000000000000000000000000000600052602160045260246000fd5b7f4e487b7100000000000000000000000000000000000000000000000000000000600052602260045260246000fd5b600080fd5b600080fd5b600080fd5b600080fd5b600080fd5b6000601f19601f8301169050919050565b7f496e69743a204f6e6c79206465706c6f7965722063616e20696e697400000000600082015250565b7f53797374656d3a204f6e6c7920636f72652063616e206d6f6469667900000000600082015250565b7f50726f703a204f6e6c7920636f6f72642063616e2063616c6c00000000000000600082015250565b7f496e69743a20436f6e747261637420697320696e697469616c697a6564000000600082015250565b7f50726f703a2064656c6179732063616e6e6f7420626520300000000000000000600082015250565b7f50726f703a2045786520494420616c7265616479206173736f63696174656400600082015250565b7f50726f703a2045786520646f6573206e6f742065786973740000000000000000600082015250565b7f50726f703a206d696e2063616e6e6f7420626520300000000000000000000000600082015250565b7f50726f703a20496e76616c6964207374617465206d6f76656d656e7400000000600082015250565b7f50726f703a20496e76616c696420766f74652074797065000000000000000000600082015250565b600781106150d2576150d1614e9f565b5b50565b6150de81614d4a565b81146150e957600080fd5b50565b6150f581614d68565b811461510057600080fd5b50565b61510c81614da5565b811461511757600080fd5b5056fea264697066735822122094d5ebd30e5e033d3fa3b6bd3fe37736ad8856df18a0a5654273af957034ed9664736f6c63430008070033",
  "linkReferences": {},
  "deployedLinkReferences": {}
}