{
  "_format": "hh-sol-artifact-1",
  "contractName": "Proposals",
  "sourceName": "contracts/Proposals.sol",
  "abi": [
    {
      "inputs": [
        {
          "internalType": "string",
          "name": "_description",
          "type": "string"
        },
        {
          "internalType": "bytes32",
          "name": "_voteType",
          "type": "bytes32"
        },
        {
          "internalType": "bytes32",
          "name": "_consensusType",
          "type": "bytes32"
        },
        {
          "internalType": "bytes32",
          "name": "_exeID",
          "type": "bytes32"
        }
      ],
      "name": "createProp",
      "outputs": [
        {
          "internalType": "uint256",
          "name": "propID",
          "type": "uint256"
        }
      ],
      "stateMutability": "nonpayable",
      "type": "function"
    }
  ],
  "bytecode": "0x608060405234801561001057600080fd5b50610202806100206000396000f3fe608060405234801561001057600080fd5b506004361061002b5760003560e01c80631a43800114610030575b600080fd5b61004a600480360381019061004591906100d6565b610060565b604051610057919061016d565b60405180910390f35b600095945050505050565b60008135905061007a816101b5565b92915050565b60008083601f840112610096576100956101a1565b5b8235905067ffffffffffffffff8111156100b3576100b261019c565b5b6020830191508360018202830111156100cf576100ce6101a6565b5b9250929050565b6000806000806000608086880312156100f2576100f16101b0565b5b600086013567ffffffffffffffff8111156101105761010f6101ab565b5b61011c88828901610080565b9550955050602061012f8882890161006b565b93505060406101408882890161006b565b92505060606101518882890161006b565b9150509295509295909350565b61016781610192565b82525050565b6000602082019050610182600083018461015e565b92915050565b6000819050919050565b6000819050919050565b600080fd5b600080fd5b600080fd5b600080fd5b600080fd5b6101be81610188565b81146101c957600080fd5b5056fea2646970667358221220ed086c89ed4dcc39b8d841db46b5beeefda16a6d2b3d4e0d3df3201cf5b16ea464736f6c63430008070033",
  "linkReferences": {},
  "deployedLinkReferences": {}
}