{
  "_format": "hh-sol-artifact-1",
  "contractName": "Proposals",
  "sourceName": "contracts/Proposals.sol",
  "abi": [
    {
      "inputs": [
        {
          "internalType": "address",
          "name": "_core",
          "type": "address"
        }
      ],
      "stateMutability": "nonpayable",
      "type": "constructor"
    },
    {
      "anonymous": false,
      "inputs": [
        {
          "indexed": true,
          "internalType": "uint256",
          "name": "propID",
          "type": "uint256"
        },
        {
          "indexed": false,
          "internalType": "address",
          "name": "voteType",
          "type": "address"
        },
        {
          "indexed": false,
          "internalType": "bytes32",
          "name": "exeID",
          "type": "bytes32"
        }
      ],
      "name": "NewProposal",
      "type": "event"
    },
    {
      "inputs": [],
      "name": "IDENTIFIER",
      "outputs": [
        {
          "internalType": "bytes32",
          "name": "",
          "type": "bytes32"
        }
      ],
      "stateMutability": "view",
      "type": "function"
    },
    {
      "inputs": [],
      "name": "core_",
      "outputs": [
        {
          "internalType": "contract ICore",
          "name": "",
          "type": "address"
        }
      ],
      "stateMutability": "view",
      "type": "function"
    },
    {
      "inputs": [
        {
          "internalType": "string",
          "name": "_description",
          "type": "string"
        },
        {
          "internalType": "bytes32",
          "name": "_voteTypeID",
          "type": "bytes32"
        },
        {
          "internalType": "bytes32",
          "name": "_exeID",
          "type": "bytes32"
        }
      ],
      "name": "createPropWithExe",
      "outputs": [
        {
          "internalType": "uint256",
          "name": "propID",
          "type": "uint256"
        }
      ],
      "stateMutability": "nonpayable",
      "type": "function"
    },
    {
      "inputs": [
        {
          "internalType": "uint256",
          "name": "_propID",
          "type": "uint256"
        }
      ],
      "name": "getVoteType",
      "outputs": [
        {
          "internalType": "address",
          "name": "",
          "type": "address"
        }
      ],
      "stateMutability": "view",
      "type": "function"
    }
  ],
  "bytecode": "0x60c060405234801561001057600080fd5b506040516200100b3803806200100b833981810160405281019061003491906100f3565b7f36209a57dfd79e3872ec3a0c88c653bbe7e32a12306e5e1f92f118c1936ae8b28133600060026101000a81548173ffffffffffffffffffffffffffffffffffffffff021916908373ffffffffffffffffffffffffffffffffffffffff16021790555081608081815250508073ffffffffffffffffffffffffffffffffffffffff1660a08173ffffffffffffffffffffffffffffffffffffffff1660601b8152505050505061016e565b6000815190506100ed81610157565b92915050565b60006020828403121561010957610108610152565b5b6000610117848285016100de565b91505092915050565b600061012b82610132565b9050919050565b600073ffffffffffffffffffffffffffffffffffffffff82169050919050565b600080fd5b61016081610120565b811461016b57600080fd5b50565b60805160a05160601c610e5f620001ac60003960008181610155015281816102220152818161032901526107110152600061012e0152610e5f6000f3fe608060405234801561001057600080fd5b506004361061004b5760003560e01c806262104a146100505780633c9747f31461008057806378cbf7e61461009e578063eaddd0fd146100ce575b600080fd5b61006a6004803603810190610065919061094e565b6100ec565b6040516100779190610a90565b60405180910390f35b61008861012c565b6040516100959190610ad4565b60405180910390f35b6100b860048036038101906100b391906108da565b610150565b6040516100c59190610b4a565b60405180910390f35b6100d661070f565b6040516100e39190610aef565b60405180910390f35b60006002600083815260200190815260200160002060010160009054906101000a900473ffffffffffffffffffffffffffffffffffffffff169050919050565b7f000000000000000000000000000000000000000000000000000000000000000081565b6000807f000000000000000000000000000000000000000000000000000000000000000073ffffffffffffffffffffffffffffffffffffffff1663624a23e07f59e2d72f5870ccddd14d35394bd3c22374071b2da7c07a3d6c3b690400b736286040518263ffffffff1660e01b81526004016101cc9190610ad4565b60206040518083038186803b1580156101e457600080fd5b505afa1580156101f8573d6000803e3d6000fd5b505050506040513d601f19601f8201168201806040525081019061021c9190610880565b905060007f000000000000000000000000000000000000000000000000000000000000000073ffffffffffffffffffffffffffffffffffffffff1663624a23e07fd578563424ab02f85ec03c6b1aee04947ebdd4a30db46cba3bcd7f56ef40b1996040518263ffffffff1660e01b81526004016102999190610ad4565b60206040518083038186803b1580156102b157600080fd5b505afa1580156102c5573d6000803e3d6000fd5b505050506040513d601f19601f820116820180604052508101906102e99190610880565b905060018060008282546102fd9190610bbf565b92505081905550600154925060008173ffffffffffffffffffffffffffffffffffffffff1663701370dc7f000000000000000000000000000000000000000000000000000000000000000073ffffffffffffffffffffffffffffffffffffffff1663624a23e07f346b2ab3a980432fd8f2e24828fc9f9ee2df1548701bc542f6ec17882b3276276040518263ffffffff1660e01b81526004016103a09190610ad4565b60206040518083038186803b1580156103b857600080fd5b505afa1580156103cc573d6000803e3d6000fd5b505050506040513d601f19601f820116820180604052508101906103f09190610880565b886040518363ffffffff1660e01b815260040161040e929190610aab565b60206040518083038186803b15801561042657600080fd5b505afa15801561043a573d6000803e3d6000fd5b505050506040513d601f19601f8201168201806040525081019061045e9190610880565b9050600073ffffffffffffffffffffffffffffffffffffffff168173ffffffffffffffffffffffffffffffffffffffff1614156104d0576040517f08c379a00000000000000000000000000000000000000000000000000000000081526004016104c790610b2a565b60405180910390fd5b600084866040516020016104e5929190610a64565b604051602081830303815290604052905060008473ffffffffffffffffffffffffffffffffffffffff1663295adadf8789856040518463ffffffff1660e01b815260040161053593929190610b65565b602060405180830381600087803b15801561054f57600080fd5b505af1158015610563573d6000803e3d6000fd5b505050506040513d601f19601f8201168201806040525081019061058791906108ad565b90506000801b8114156105cf576040517f08c379a00000000000000000000000000000000000000000000000000000000081526004016105c690610b0a565b60405180910390fd5b60405180606001604052808b8b8080601f016020809104026020016040519081016040528093929190818152602001838380828437600081840152601f19601f8201169050808301925050505050505081526020018473ffffffffffffffffffffffffffffffffffffffff16815260200182815250600260008881526020019081526020016000206000820151816000019080519060200190610673929190610733565b5060208201518160010160006101000a81548173ffffffffffffffffffffffffffffffffffffffff021916908373ffffffffffffffffffffffffffffffffffffffff16021790555060408201518160020155905050857f782ad24bfb2592c2db8ec384bf93db57c8c631ca93227f9419c9d185d4de793d84836040516106fa929190610aab565b60405180910390a25050505050949350505050565b7f000000000000000000000000000000000000000000000000000000000000000081565b82805461073f90610cc4565b90600052602060002090601f01602090048101928261076157600085556107a8565b82601f1061077a57805160ff19168380011785556107a8565b828001600101855582156107a8579182015b828111156107a757825182559160200191906001019061078c565b5b5090506107b591906107b9565b5090565b5b808211156107d25760008160009055506001016107ba565b5090565b6000815190506107e581610de4565b92915050565b6000813590506107fa81610dfb565b92915050565b60008151905061080f81610dfb565b92915050565b60008083601f84011261082b5761082a610d6d565b5b8235905067ffffffffffffffff81111561084857610847610d68565b5b60208301915083600182028301111561086457610863610d72565b5b9250929050565b60008135905061087a81610e12565b92915050565b60006020828403121561089657610895610d7c565b5b60006108a4848285016107d6565b91505092915050565b6000602082840312156108c3576108c2610d7c565b5b60006108d184828501610800565b91505092915050565b600080600080606085870312156108f4576108f3610d7c565b5b600085013567ffffffffffffffff81111561091257610911610d77565b5b61091e87828801610815565b94509450506020610931878288016107eb565b9250506040610942878288016107eb565b91505092959194509250565b60006020828403121561096457610963610d7c565b5b60006109728482850161086b565b91505092915050565b61098481610c15565b82525050565b61099381610c27565b82525050565b6109aa6109a582610c27565b610cf6565b82525050565b6109b981610c5b565b82525050565b60006109ca82610ba3565b6109d48185610bae565b93506109e4818560208601610c91565b6109ed81610d81565b840191505092915050565b6000610a05601883610bae565b9150610a1082610d92565b602082019050919050565b6000610a28601783610bae565b9150610a3382610dbb565b602082019050919050565b610a4781610c51565b82525050565b610a5e610a5982610c51565b610d00565b82525050565b6000610a708285610a4d565b602082019150610a808284610999565b6020820191508190509392505050565b6000602082019050610aa5600083018461097b565b92915050565b6000604082019050610ac0600083018561097b565b610acd602083018461098a565b9392505050565b6000602082019050610ae9600083018461098a565b92915050565b6000602082019050610b0460008301846109b0565b92915050565b60006020820190508181036000830152610b23816109f8565b9050919050565b60006020820190508181036000830152610b4381610a1b565b9050919050565b6000602082019050610b5f6000830184610a3e565b92915050565b6000606082019050610b7a6000830186610a3e565b610b87602083018561098a565b8181036040830152610b9981846109bf565b9050949350505050565b600081519050919050565b600082825260208201905092915050565b6000610bca82610c51565b9150610bd583610c51565b9250827fffffffffffffffffffffffffffffffffffffffffffffffffffffffffffffffff03821115610c0a57610c09610d0a565b5b828201905092915050565b6000610c2082610c31565b9050919050565b6000819050919050565b600073ffffffffffffffffffffffffffffffffffffffff82169050919050565b6000819050919050565b6000610c6682610c6d565b9050919050565b6000610c7882610c7f565b9050919050565b6000610c8a82610c31565b9050919050565b60005b83811015610caf578082015181840152602081019050610c94565b83811115610cbe576000848401525b50505050565b60006002820490506001821680610cdc57607f821691505b60208210811415610cf057610cef610d39565b5b50919050565b6000819050919050565b6000819050919050565b7f4e487b7100000000000000000000000000000000000000000000000000000000600052601160045260246000fd5b7f4e487b7100000000000000000000000000000000000000000000000000000000600052602260045260246000fd5b600080fd5b600080fd5b600080fd5b600080fd5b600080fd5b6000601f19601f8301169050919050565b7f50726f703a2045786520646f6573206e6f742065786973740000000000000000600082015250565b7f50726f703a20496e76616c696420766f74652074797065000000000000000000600082015250565b610ded81610c15565b8114610df857600080fd5b50565b610e0481610c27565b8114610e0f57600080fd5b50565b610e1b81610c51565b8114610e2657600080fd5b5056fea2646970667358221220b341dbf97ef69de2a72215f5c7cb3b2077ddfe1aac58d3b93f1323ae0a0c3d4b64736f6c63430008070033",
  "linkReferences": {},
  "deployedLinkReferences": {}
}