{
  "_format": "hh-sol-artifact-1",
  "contractName": "Proposals",
  "sourceName": "contracts/Proposals.sol",
  "abi": [
    {
      "inputs": [
        {
          "internalType": "address",
          "name": "_core",
          "type": "address"
        },
        {
          "internalType": "address",
          "name": "_timer",
          "type": "address"
        }
      ],
      "stateMutability": "nonpayable",
      "type": "constructor"
    },
    {
      "anonymous": false,
      "inputs": [
        {
          "indexed": true,
          "internalType": "uint256",
          "name": "propID",
          "type": "uint256"
        },
        {
          "indexed": false,
          "internalType": "address",
          "name": "voteType",
          "type": "address"
        },
        {
          "indexed": false,
          "internalType": "bytes32",
          "name": "exeID",
          "type": "bytes32"
        }
      ],
      "name": "NewProposal",
      "type": "event"
    },
    {
      "inputs": [],
      "name": "IDENTIFIER",
      "outputs": [
        {
          "internalType": "bytes32",
          "name": "",
          "type": "bytes32"
        }
      ],
      "stateMutability": "view",
      "type": "function"
    },
    {
      "inputs": [],
      "name": "core_",
      "outputs": [
        {
          "internalType": "contract ICore",
          "name": "",
          "type": "address"
        }
      ],
      "stateMutability": "view",
      "type": "function"
    },
    {
      "inputs": [
        {
          "internalType": "string",
          "name": "_description",
          "type": "string"
        },
        {
          "internalType": "bytes32",
          "name": "_voteTypeID",
          "type": "bytes32"
        },
        {
          "internalType": "bytes32",
          "name": "_exeID",
          "type": "bytes32"
        }
      ],
      "name": "createPropWithExe",
      "outputs": [
        {
          "internalType": "uint256",
          "name": "propID",
          "type": "uint256"
        }
      ],
      "stateMutability": "nonpayable",
      "type": "function"
    },
    {
      "inputs": [],
      "name": "getCurrentTime",
      "outputs": [
        {
          "internalType": "uint256",
          "name": "",
          "type": "uint256"
        }
      ],
      "stateMutability": "view",
      "type": "function"
    },
    {
      "inputs": [
        {
          "internalType": "uint256",
          "name": "_propID",
          "type": "uint256"
        }
      ],
      "name": "getExeOfProp",
      "outputs": [
        {
          "internalType": "bytes32",
          "name": "",
          "type": "bytes32"
        }
      ],
      "stateMutability": "view",
      "type": "function"
    },
    {
      "inputs": [
        {
          "internalType": "bytes32",
          "name": "_exeID",
          "type": "bytes32"
        }
      ],
      "name": "getPropOfExe",
      "outputs": [
        {
          "internalType": "uint256",
          "name": "",
          "type": "uint256"
        }
      ],
      "stateMutability": "view",
      "type": "function"
    },
    {
      "inputs": [
        {
          "internalType": "uint256",
          "name": "_propID",
          "type": "uint256"
        }
      ],
      "name": "getPropVotables",
      "outputs": [
        {
          "internalType": "enum Proposals.PropStatus",
          "name": "state",
          "type": "uint8"
        },
        {
          "internalType": "uint256",
          "name": "voteStart",
          "type": "uint256"
        },
        {
          "internalType": "uint256",
          "name": "voteEnd",
          "type": "uint256"
        },
        {
          "internalType": "bool",
          "name": "spent",
          "type": "bool"
        }
      ],
      "stateMutability": "view",
      "type": "function"
    },
    {
      "inputs": [
        {
          "internalType": "uint256",
          "name": "_propID",
          "type": "uint256"
        }
      ],
      "name": "getProposalInfo",
      "outputs": [
        {
          "internalType": "string",
          "name": "description",
          "type": "string"
        },
        {
          "internalType": "address",
          "name": "voteType",
          "type": "address"
        },
        {
          "internalType": "bytes32",
          "name": "exeID",
          "type": "bytes32"
        },
        {
          "internalType": "enum Proposals.PropStatus",
          "name": "state",
          "type": "uint8"
        },
        {
          "internalType": "uint256",
          "name": "voteStart",
          "type": "uint256"
        },
        {
          "internalType": "uint256",
          "name": "voteEnd",
          "type": "uint256"
        },
        {
          "internalType": "bool",
          "name": "spent",
          "type": "bool"
        }
      ],
      "stateMutability": "view",
      "type": "function"
    },
    {
      "inputs": [
        {
          "internalType": "uint256",
          "name": "_propID",
          "type": "uint256"
        }
      ],
      "name": "getVoteType",
      "outputs": [
        {
          "internalType": "address",
          "name": "",
          "type": "address"
        }
      ],
      "stateMutability": "view",
      "type": "function"
    },
    {
      "inputs": [
        {
          "internalType": "uint256",
          "name": "_minDelay",
          "type": "uint256"
        },
        {
          "internalType": "uint256",
          "name": "_startDelay",
          "type": "uint256"
        },
        {
          "internalType": "uint256",
          "name": "_endDelay",
          "type": "uint256"
        }
      ],
      "name": "initialise",
      "outputs": [],
      "stateMutability": "nonpayable",
      "type": "function"
    },
    {
      "inputs": [
        {
          "internalType": "uint256",
          "name": "_propID",
          "type": "uint256"
        }
      ],
      "name": "propDefeated",
      "outputs": [],
      "stateMutability": "nonpayable",
      "type": "function"
    },
    {
      "inputs": [
        {
          "internalType": "uint256",
          "name": "_propID",
          "type": "uint256"
        }
      ],
      "name": "propExecuted",
      "outputs": [],
      "stateMutability": "nonpayable",
      "type": "function"
    },
    {
      "inputs": [
        {
          "internalType": "uint256",
          "name": "_propID",
          "type": "uint256"
        }
      ],
      "name": "propExpire",
      "outputs": [],
      "stateMutability": "nonpayable",
      "type": "function"
    },
    {
      "inputs": [
        {
          "internalType": "uint256",
          "name": "_propID",
          "type": "uint256"
        }
      ],
      "name": "propQueued",
      "outputs": [],
      "stateMutability": "nonpayable",
      "type": "function"
    },
    {
      "inputs": [
        {
          "internalType": "uint256",
          "name": "_propID",
          "type": "uint256"
        }
      ],
      "name": "propVoting",
      "outputs": [],
      "stateMutability": "nonpayable",
      "type": "function"
    },
    {
      "inputs": [
        {
          "internalType": "uint256",
          "name": "time",
          "type": "uint256"
        }
      ],
      "name": "setCurrentTime",
      "outputs": [],
      "stateMutability": "nonpayable",
      "type": "function"
    },
    {
      "inputs": [],
      "name": "timerAddress",
      "outputs": [
        {
          "internalType": "address",
          "name": "",
          "type": "address"
        }
      ],
      "stateMutability": "view",
      "type": "function"
    },
    {
      "inputs": [
        {
          "internalType": "uint256",
          "name": "_startDelay",
          "type": "uint256"
        },
        {
          "internalType": "uint256",
          "name": "_endDelay",
          "type": "uint256"
        }
      ],
      "name": "updateDelays",
      "outputs": [],
      "stateMutability": "nonpayable",
      "type": "function"
    },
    {
      "inputs": [
        {
          "internalType": "uint256",
          "name": "_newMin",
          "type": "uint256"
        }
      ],
      "name": "updateMinDelay",
      "outputs": [],
      "stateMutability": "nonpayable",
      "type": "function"
    }
  ],
  "bytecode": "0x60c06040523480156200001157600080fd5b5060405162002d6d38038062002d6d83398181016040528101906200003791906200013f565b7f36209a57dfd79e3872ec3a0c88c653bbe7e32a12306e5e1f92f118c1936ae8b282828033600060026101000a81548173ffffffffffffffffffffffffffffffffffffffff021916908373ffffffffffffffffffffffffffffffffffffffff16021790555080600160006101000a81548173ffffffffffffffffffffffffffffffffffffffff021916908373ffffffffffffffffffffffffffffffffffffffff1602179055505082608081815250508173ffffffffffffffffffffffffffffffffffffffff1660a08173ffffffffffffffffffffffffffffffffffffffff1660601b815250505050505050620001d9565b6000815190506200013981620001bf565b92915050565b60008060408385031215620001595762000158620001ba565b5b6000620001698582860162000128565b92505060206200017c8582860162000128565b9150509250929050565b600062000193826200019a565b9050919050565b600073ffffffffffffffffffffffffffffffffffffffff82169050919050565b600080fd5b620001ca8162000186565b8114620001d657600080fd5b50565b60805160a05160601c612b25620002486000396000818161063f015281816107540152818161095c01528181610a2901528181610b310152818161104b0152818161128001528181611619015281816119da01528181611be00152611c060152600061061b0152612b256000f3fe608060405234801561001057600080fd5b50600436106101205760003560e01c80637ef966e4116100ad578063b7abd80311610071578063b7abd8031461031a578063bc903cb814610336578063cd39ebfd1461036c578063eaddd0fd14610388578063f40507ac146103a657610120565b80637ef966e4146102635780638a99d5861461027f5780639e34fa6a1461029b578063a3e99958146102cb578063a6640e4c146102e757610120565b80633c9747f3116100f45780633c9747f3146101ad5780636aef4909146101cb5780636fad1c93146101e757806377e4b8111461021757806378cbf7e61461023357610120565b806262104a146101255780631c39c38d1461015557806322f8e5661461017357806329cb924d1461018f575b600080fd5b61013f600480360381019061013a9190612096565b6103c2565b60405161014c91906123df565b60405180910390f35b61015d610402565b60405161016a91906123df565b60405180910390f35b61018d60048036038101906101889190612096565b610428565b005b610197610514565b6040516101a49190612654565b60405180910390f35b6101b5610619565b6040516101c29190612423565b60405180910390f35b6101e560048036038101906101e091906120f0565b61063d565b005b61020160048036038101906101fc9190612096565b610730565b60405161020e9190612423565b60405180910390f35b610231600480360381019061022c9190612096565b610750565b005b61024d60048036038101906102489190612022565b610957565b60405161025a9190612654565b60405180910390f35b61027d60048036038101906102789190612096565b611047565b005b61029960048036038101906102949190612096565b61127e565b005b6102b560048036038101906102b09190611fc8565b611359565b6040516102c29190612654565b60405180910390f35b6102e560048036038101906102e09190612130565b611376565b005b61030160048036038101906102fc9190612096565b61158a565b6040516103119493929190612459565b60405180910390f35b610334600480360381019061032f9190612096565b611615565b005b610350600480360381019061034b9190612096565b61184c565b604051610363979695949392919061249e565b60405180910390f35b61038660048036038101906103819190612096565b6119d6565b005b610390611bde565b60405161039d919061243e565b60405180910390f35b6103c060048036038101906103bb9190612096565b611c02565b005b60006002600083815260200190815260200160002060010160009054906101000a900473ffffffffffffffffffffffffffffffffffffffff169050919050565b600160009054906101000a900473ffffffffffffffffffffffffffffffffffffffff1681565b600073ffffffffffffffffffffffffffffffffffffffff16600160009054906101000a900473ffffffffffffffffffffffffffffffffffffffff1673ffffffffffffffffffffffffffffffffffffffff16141561048457600080fd5b600160009054906101000a900473ffffffffffffffffffffffffffffffffffffffff1673ffffffffffffffffffffffffffffffffffffffff166322f8e566826040518263ffffffff1660e01b81526004016104df9190612654565b600060405180830381600087803b1580156104f957600080fd5b505af115801561050d573d6000803e3d6000fd5b5050505050565b60008073ffffffffffffffffffffffffffffffffffffffff16600160009054906101000a900473ffffffffffffffffffffffffffffffffffffffff1673ffffffffffffffffffffffffffffffffffffffff161461061257600160009054906101000a900473ffffffffffffffffffffffffffffffffffffffff1673ffffffffffffffffffffffffffffffffffffffff166329cb924d6040518163ffffffff1660e01b815260040160206040518083038186803b1580156105d357600080fd5b505afa1580156105e7573d6000803e3d6000fd5b505050506040513d601f19601f8201168201806040525081019061060b91906120c3565b9050610616565b4290505b90565b7f000000000000000000000000000000000000000000000000000000000000000081565b7f000000000000000000000000000000000000000000000000000000000000000073ffffffffffffffffffffffffffffffffffffffff163373ffffffffffffffffffffffffffffffffffffffff16146106cb576040517f08c379a00000000000000000000000000000000000000000000000000000000081526004016106c290612534565b60405180910390fd5b60075482101580156106df57506007548110155b61071e576040517f08c379a000000000000000000000000000000000000000000000000000000000815260040161071590612594565b60405180910390fd5b81600581905550806006819055505050565b600060026000838152602001908152602001600020600201549050919050565b60007f000000000000000000000000000000000000000000000000000000000000000073ffffffffffffffffffffffffffffffffffffffff1663624a23e07fd578563424ab02f85ec03c6b1aee04947ebdd4a30db46cba3bcd7f56ef40b1996040518263ffffffff1660e01b81526004016107cb9190612423565b60206040518083038186803b1580156107e357600080fd5b505afa1580156107f7573d6000803e3d6000fd5b505050506040513d601f19601f8201168201806040525081019061081b9190611f9b565b90508073ffffffffffffffffffffffffffffffffffffffff163373ffffffffffffffffffffffffffffffffffffffff161461088b576040517f08c379a000000000000000000000000000000000000000000000000000000000815260040161088290612554565b60405180910390fd5b6001600681111561089f5761089e612874565b5b6002600084815260200190815260200160002060030160009054906101000a900460ff1660068111156108d5576108d4612874565b5b14610915576040517f08c379a000000000000000000000000000000000000000000000000000000000815260040161090c90612614565b60405180910390fd5b600280600084815260200190815260200160002060030160006101000a81548160ff0219169083600681111561094e5761094d612874565b5b02179055505050565b6000807f000000000000000000000000000000000000000000000000000000000000000073ffffffffffffffffffffffffffffffffffffffff1663624a23e07f59e2d72f5870ccddd14d35394bd3c22374071b2da7c07a3d6c3b690400b736286040518263ffffffff1660e01b81526004016109d39190612423565b60206040518083038186803b1580156109eb57600080fd5b505afa1580156109ff573d6000803e3d6000fd5b505050506040513d601f19601f82011682018060405250810190610a239190611f9b565b905060007f000000000000000000000000000000000000000000000000000000000000000073ffffffffffffffffffffffffffffffffffffffff1663624a23e07fd578563424ab02f85ec03c6b1aee04947ebdd4a30db46cba3bcd7f56ef40b1996040518263ffffffff1660e01b8152600401610aa09190612423565b60206040518083038186803b158015610ab857600080fd5b505afa158015610acc573d6000803e3d6000fd5b505050506040513d601f19601f82011682018060405250810190610af09190611f9b565b9050600160046000828254610b0591906126c9565b92505081905550600454925060008173ffffffffffffffffffffffffffffffffffffffff1663701370dc7f000000000000000000000000000000000000000000000000000000000000000073ffffffffffffffffffffffffffffffffffffffff1663624a23e07f346b2ab3a980432fd8f2e24828fc9f9ee2df1548701bc542f6ec17882b3276276040518263ffffffff1660e01b8152600401610ba89190612423565b60206040518083038186803b158015610bc057600080fd5b505afa158015610bd4573d6000803e3d6000fd5b505050506040513d601f19601f82011682018060405250810190610bf89190611f9b565b886040518363ffffffff1660e01b8152600401610c169291906123fa565b60206040518083038186803b158015610c2e57600080fd5b505afa158015610c42573d6000803e3d6000fd5b505050506040513d601f19601f82011682018060405250810190610c669190611f9b565b9050600073ffffffffffffffffffffffffffffffffffffffff168173ffffffffffffffffffffffffffffffffffffffff161415610cd8576040517f08c379a0000000000000000000000000000000000000000000000000000000008152600401610ccf90612634565b60405180910390fd5b60008486610ce4610514565b604051602001610cf6939291906123a2565b604051602081830303815290604052905060008473ffffffffffffffffffffffffffffffffffffffff1663295adadf8789856040518463ffffffff1660e01b8152600401610d469392919061266f565b602060405180830381600087803b158015610d6057600080fd5b505af1158015610d74573d6000803e3d6000fd5b505050506040513d601f19601f82011682018060405250810190610d989190611ff5565b90506000801b811415610de0576040517f08c379a0000000000000000000000000000000000000000000000000000000008152600401610dd7906125d4565b60405180910390fd5b6000600360008381526020019081526020016000205414610e36576040517f08c379a0000000000000000000000000000000000000000000000000000000008152600401610e2d906125b4565b60405180910390fd5b6000600554610e43610514565b610e4d91906126c9565b90506040518060e001604052808c8c8080601f016020809104026020016040519081016040528093929190818152602001838380828437600081840152601f19601f8201169050808301925050505050505081526020018573ffffffffffffffffffffffffffffffffffffffff16815260200183815260200160016006811115610eda57610ed9612874565b5b815260200182815260200160065483610ef391906126c9565b815260200160001515815250600260008981526020019081526020016000206000820151816000019080519060200190610f2e929190611e39565b5060208201518160010160006101000a81548173ffffffffffffffffffffffffffffffffffffffff021916908373ffffffffffffffffffffffffffffffffffffffff1602179055506040820151816002015560608201518160030160006101000a81548160ff02191690836006811115610fab57610faa612874565b5b02179055506080820151816004015560a0820151816005015560c08201518160060160006101000a81548160ff021916908315150217905550905050866003600084815260200190815260200160002081905550867f782ad24bfb2592c2db8ec384bf93db57c8c631ca93227f9419c9d185d4de793d85846040516110319291906123fa565b60405180910390a2505050505050949350505050565b60007f000000000000000000000000000000000000000000000000000000000000000073ffffffffffffffffffffffffffffffffffffffff1663624a23e07fd578563424ab02f85ec03c6b1aee04947ebdd4a30db46cba3bcd7f56ef40b1996040518263ffffffff1660e01b81526004016110c29190612423565b60206040518083038186803b1580156110da57600080fd5b505afa1580156110ee573d6000803e3d6000fd5b505050506040513d601f19601f820116820180604052508101906111129190611f9b565b90508073ffffffffffffffffffffffffffffffffffffffff163373ffffffffffffffffffffffffffffffffffffffff1614611182576040517f08c379a000000000000000000000000000000000000000000000000000000000815260040161117990612554565b60405180910390fd5b6002600681111561119657611195612874565b5b6002600084815260200190815260200160002060030160009054906101000a900460ff1660068111156111cc576111cb612874565b5b1461120c576040517f08c379a000000000000000000000000000000000000000000000000000000000815260040161120390612614565b60405180910390fd5b60056002600084815260200190815260200160002060030160006101000a81548160ff0219169083600681111561124657611245612874565b5b021790555060016002600084815260200190815260200160002060060160006101000a81548160ff0219169083151502179055505050565b7f000000000000000000000000000000000000000000000000000000000000000073ffffffffffffffffffffffffffffffffffffffff163373ffffffffffffffffffffffffffffffffffffffff161461130c576040517f08c379a000000000000000000000000000000000000000000000000000000000815260040161130390612534565b60405180910390fd5b600f811161134f576040517f08c379a0000000000000000000000000000000000000000000000000000000008152600401611346906125f4565b60405180910390fd5b8060078190555050565b600060036000838152602001908152602001600020549050919050565b600060019054906101000a900460ff168061139c575060008054906101000a900460ff16155b6113db576040517f08c379a00000000000000000000000000000000000000000000000000000000081526004016113d290612574565b60405180910390fd5b600060029054906101000a900473ffffffffffffffffffffffffffffffffffffffff1673ffffffffffffffffffffffffffffffffffffffff163373ffffffffffffffffffffffffffffffffffffffff161461146b576040517f08c379a000000000000000000000000000000000000000000000000000000000815260040161146290612514565b60405180910390fd5b60008060019054906101000a900460ff1615905080156114bb576001600060016101000a81548160ff02191690831515021790555060016000806101000a81548160ff0219169083151502179055505b600f8410156114ff576040517f08c379a00000000000000000000000000000000000000000000000000000000081526004016114f6906125f4565b60405180910390fd5b83831015801561150f5750838210155b61154e576040517f08c379a000000000000000000000000000000000000000000000000000000000815260040161154590612594565b60405180910390fd5b83600781905550826005819055508160068190555080156115845760008060016101000a81548160ff0219169083151502179055505b50505050565b6000806000806002600086815260200190815260200160002060030160009054906101000a900460ff16600260008781526020019081526020016000206004015460026000888152602001908152602001600020600501546002600089815260200190815260200160002060060160009054906101000a900460ff1693509350935093509193509193565b60007f000000000000000000000000000000000000000000000000000000000000000073ffffffffffffffffffffffffffffffffffffffff1663624a23e07fd578563424ab02f85ec03c6b1aee04947ebdd4a30db46cba3bcd7f56ef40b1996040518263ffffffff1660e01b81526004016116909190612423565b60206040518083038186803b1580156116a857600080fd5b505afa1580156116bc573d6000803e3d6000fd5b505050506040513d601f19601f820116820180604052508101906116e09190611f9b565b90508073ffffffffffffffffffffffffffffffffffffffff163373ffffffffffffffffffffffffffffffffffffffff1614611750576040517f08c379a000000000000000000000000000000000000000000000000000000000815260040161174790612554565b60405180910390fd5b6003600681111561176457611763612874565b5b6002600084815260200190815260200160002060030160009054906101000a900460ff16600681111561179a57611799612874565b5b146117da576040517f08c379a00000000000000000000000000000000000000000000000000000000081526004016117d190612614565b60405180910390fd5b60046002600084815260200190815260200160002060030160006101000a81548160ff0219169083600681111561181457611813612874565b5b021790555060016002600084815260200190815260200160002060060160006101000a81548160ff0219169083151502179055505050565b606060008060008060008060026000898152602001908152602001600020600001600260008a815260200190815260200160002060010160009054906101000a900473ffffffffffffffffffffffffffffffffffffffff16600260008b815260200190815260200160002060020154600260008c815260200190815260200160002060030160009054906101000a900460ff16600260008d815260200190815260200160002060040154600260008e815260200190815260200160002060050154600260008f815260200190815260200160002060060160009054906101000a900460ff1686805461193d906127ff565b80601f0160208091040260200160405190810160405280929190818152602001828054611969906127ff565b80156119b65780601f1061198b576101008083540402835291602001916119b6565b820191906000526020600020905b81548152906001019060200180831161199957829003601f168201915b505050505096509650965096509650965096509650919395979092949650565b60007f000000000000000000000000000000000000000000000000000000000000000073ffffffffffffffffffffffffffffffffffffffff1663624a23e07fd578563424ab02f85ec03c6b1aee04947ebdd4a30db46cba3bcd7f56ef40b1996040518263ffffffff1660e01b8152600401611a519190612423565b60206040518083038186803b158015611a6957600080fd5b505afa158015611a7d573d6000803e3d6000fd5b505050506040513d601f19601f82011682018060405250810190611aa19190611f9b565b90508073ffffffffffffffffffffffffffffffffffffffff163373ffffffffffffffffffffffffffffffffffffffff1614611b11576040517f08c379a0000000000000000000000000000000000000000000000000000000008152600401611b0890612554565b60405180910390fd5b60026006811115611b2557611b24612874565b5b6002600084815260200190815260200160002060030160009054906101000a900460ff166006811115611b5b57611b5a612874565b5b14611b9b576040517f08c379a0000000000000000000000000000000000000000000000000000000008152600401611b9290612614565b60405180910390fd5b60036002600084815260200190815260200160002060030160006101000a81548160ff02191690836006811115611bd557611bd4612874565b5b02179055505050565b7f000000000000000000000000000000000000000000000000000000000000000081565b60007f000000000000000000000000000000000000000000000000000000000000000073ffffffffffffffffffffffffffffffffffffffff1663624a23e07fd578563424ab02f85ec03c6b1aee04947ebdd4a30db46cba3bcd7f56ef40b1996040518263ffffffff1660e01b8152600401611c7d9190612423565b60206040518083038186803b158015611c9557600080fd5b505afa158015611ca9573d6000803e3d6000fd5b505050506040513d601f19601f82011682018060405250810190611ccd9190611f9b565b90508073ffffffffffffffffffffffffffffffffffffffff163373ffffffffffffffffffffffffffffffffffffffff1614611d3d576040517f08c379a0000000000000000000000000000000000000000000000000000000008152600401611d3490612554565b60405180910390fd5b60026006811115611d5157611d50612874565b5b6002600084815260200190815260200160002060030160009054906101000a900460ff166006811115611d8757611d86612874565b5b14611dc7576040517f08c379a0000000000000000000000000000000000000000000000000000000008152600401611dbe90612614565b60405180910390fd5b60066002600084815260200190815260200160002060030160006101000a81548160ff02191690836006811115611e0157611e00612874565b5b021790555060016002600084815260200190815260200160002060060160006101000a81548160ff0219169083151502179055505050565b828054611e45906127ff565b90600052602060002090601f016020900481019282611e675760008555611eae565b82601f10611e8057805160ff1916838001178555611eae565b82800160010185558215611eae579182015b82811115611ead578251825591602001919060010190611e92565b5b509050611ebb9190611ebf565b5090565b5b80821115611ed8576000816000905550600101611ec0565b5090565b600081519050611eeb81612aaa565b92915050565b600081359050611f0081612ac1565b92915050565b600081519050611f1581612ac1565b92915050565b60008083601f840112611f3157611f306128d7565b5b8235905067ffffffffffffffff811115611f4e57611f4d6128d2565b5b602083019150836001820283011115611f6a57611f696128dc565b5b9250929050565b600081359050611f8081612ad8565b92915050565b600081519050611f9581612ad8565b92915050565b600060208284031215611fb157611fb06128e6565b5b6000611fbf84828501611edc565b91505092915050565b600060208284031215611fde57611fdd6128e6565b5b6000611fec84828501611ef1565b91505092915050565b60006020828403121561200b5761200a6128e6565b5b600061201984828501611f06565b91505092915050565b6000806000806060858703121561203c5761203b6128e6565b5b600085013567ffffffffffffffff81111561205a576120596128e1565b5b61206687828801611f1b565b9450945050602061207987828801611ef1565b925050604061208a87828801611ef1565b91505092959194509250565b6000602082840312156120ac576120ab6128e6565b5b60006120ba84828501611f71565b91505092915050565b6000602082840312156120d9576120d86128e6565b5b60006120e784828501611f86565b91505092915050565b60008060408385031215612107576121066128e6565b5b600061211585828601611f71565b925050602061212685828601611f71565b9150509250929050565b600080600060608486031215612149576121486128e6565b5b600061215786828701611f71565b935050602061216886828701611f71565b925050604061217986828701611f71565b9150509250925092565b61218c8161271f565b82525050565b61219b81612731565b82525050565b6121aa8161273d565b82525050565b6121c16121bc8261273d565b612831565b82525050565b6121d081612784565b82525050565b6121df81612796565b82525050565b60006121f0826126ad565b6121fa81856126b8565b935061220a8185602086016127cc565b612213816128eb565b840191505092915050565b600061222b601c836126b8565b9150612236826128fc565b602082019050919050565b600061224e601c836126b8565b915061225982612925565b602082019050919050565b60006122716019836126b8565b915061227c8261294e565b602082019050919050565b6000612294601d836126b8565b915061229f82612977565b602082019050919050565b60006122b76018836126b8565b91506122c2826129a0565b602082019050919050565b60006122da601f836126b8565b91506122e5826129c9565b602082019050919050565b60006122fd6018836126b8565b9150612308826129f2565b602082019050919050565b60006123206015836126b8565b915061232b82612a1b565b602082019050919050565b6000612343601c836126b8565b915061234e82612a44565b602082019050919050565b60006123666017836126b8565b915061237182612a6d565b602082019050919050565b6123858161277a565b82525050565b61239c6123978261277a565b61283b565b82525050565b60006123ae828661238b565b6020820191506123be82856121b0565b6020820191506123ce828461238b565b602082019150819050949350505050565b60006020820190506123f46000830184612183565b92915050565b600060408201905061240f6000830185612183565b61241c60208301846121a1565b9392505050565b600060208201905061243860008301846121a1565b92915050565b600060208201905061245360008301846121c7565b92915050565b600060808201905061246e60008301876121d6565b61247b602083018661237c565b612488604083018561237c565b6124956060830184612192565b95945050505050565b600060e08201905081810360008301526124b8818a6121e5565b90506124c76020830189612183565b6124d460408301886121a1565b6124e160608301876121d6565b6124ee608083018661237c565b6124fb60a083018561237c565b61250860c0830184612192565b98975050505050505050565b6000602082019050818103600083015261252d8161221e565b9050919050565b6000602082019050818103600083015261254d81612241565b9050919050565b6000602082019050818103600083015261256d81612264565b9050919050565b6000602082019050818103600083015261258d81612287565b9050919050565b600060208201905081810360008301526125ad816122aa565b9050919050565b600060208201905081810360008301526125cd816122cd565b9050919050565b600060208201905081810360008301526125ed816122f0565b9050919050565b6000602082019050818103600083015261260d81612313565b9050919050565b6000602082019050818103600083015261262d81612336565b9050919050565b6000602082019050818103600083015261264d81612359565b9050919050565b6000602082019050612669600083018461237c565b92915050565b6000606082019050612684600083018661237c565b61269160208301856121a1565b81810360408301526126a381846121e5565b9050949350505050565b600081519050919050565b600082825260208201905092915050565b60006126d48261277a565b91506126df8361277a565b9250827fffffffffffffffffffffffffffffffffffffffffffffffffffffffffffffffff0382111561271457612713612845565b5b828201905092915050565b600061272a8261275a565b9050919050565b60008115159050919050565b6000819050919050565b600081905061275582612a96565b919050565b600073ffffffffffffffffffffffffffffffffffffffff82169050919050565b6000819050919050565b600061278f826127a8565b9050919050565b60006127a182612747565b9050919050565b60006127b3826127ba565b9050919050565b60006127c58261275a565b9050919050565b60005b838110156127ea5780820151818401526020810190506127cf565b838111156127f9576000848401525b50505050565b6000600282049050600182168061281757607f821691505b6020821081141561282b5761282a6128a3565b5b50919050565b6000819050919050565b6000819050919050565b7f4e487b7100000000000000000000000000000000000000000000000000000000600052601160045260246000fd5b7f4e487b7100000000000000000000000000000000000000000000000000000000600052602160045260246000fd5b7f4e487b7100000000000000000000000000000000000000000000000000000000600052602260045260246000fd5b600080fd5b600080fd5b600080fd5b600080fd5b600080fd5b6000601f19601f8301169050919050565b7f496e69743a204f6e6c79206465706c6f7965722063616e20696e697400000000600082015250565b7f53797374656d3a204f6e6c7920636f72652063616e206d6f6469667900000000600082015250565b7f50726f703a204f6e6c7920636f6f72642063616e2063616c6c00000000000000600082015250565b7f496e69743a20436f6e747261637420697320696e697469616c697a6564000000600082015250565b7f50726f703a2064656c6179732063616e6e6f7420626520300000000000000000600082015250565b7f50726f703a2045786520494420616c7265616479206173736f63696174656400600082015250565b7f50726f703a2045786520646f6573206e6f742065786973740000000000000000600082015250565b7f50726f703a206d696e2063616e6e6f7420626520300000000000000000000000600082015250565b7f50726f703a20496e76616c6964207374617465206d6f76656d656e7400000000600082015250565b7f50726f703a20496e76616c696420766f74652074797065000000000000000000600082015250565b60078110612aa757612aa6612874565b5b50565b612ab38161271f565b8114612abe57600080fd5b50565b612aca8161273d565b8114612ad557600080fd5b50565b612ae18161277a565b8114612aec57600080fd5b5056fea26469706673582212204ca163ba4301b8a937d4f00615efaac7c494a189280bb11368d95cb8572416c164736f6c63430008070033",
  "linkReferences": {},
  "deployedLinkReferences": {}
}