{
  "_format": "hh-sol-artifact-1",
  "contractName": "Proposals",
  "sourceName": "contracts/Proposals.sol",
  "abi": [
    {
      "inputs": [
        {
          "internalType": "address",
          "name": "_core",
          "type": "address"
        }
      ],
      "stateMutability": "nonpayable",
      "type": "constructor"
    },
    {
      "anonymous": false,
      "inputs": [
        {
          "indexed": true,
          "internalType": "uint256",
          "name": "propID",
          "type": "uint256"
        },
        {
          "indexed": false,
          "internalType": "address",
          "name": "voteType",
          "type": "address"
        },
        {
          "indexed": false,
          "internalType": "bytes32",
          "name": "exeID",
          "type": "bytes32"
        }
      ],
      "name": "NewProposal",
      "type": "event"
    },
    {
      "inputs": [],
      "name": "IDENTIFIER",
      "outputs": [
        {
          "internalType": "bytes32",
          "name": "",
          "type": "bytes32"
        }
      ],
      "stateMutability": "view",
      "type": "function"
    },
    {
      "inputs": [],
      "name": "core_",
      "outputs": [
        {
          "internalType": "contract ICore",
          "name": "",
          "type": "address"
        }
      ],
      "stateMutability": "view",
      "type": "function"
    },
    {
      "inputs": [
        {
          "internalType": "string",
          "name": "_description",
          "type": "string"
        },
        {
          "internalType": "bytes32",
          "name": "_voteTypeID",
          "type": "bytes32"
        },
        {
          "internalType": "bytes32",
          "name": "_exeID",
          "type": "bytes32"
        }
      ],
      "name": "createPropWithExe",
      "outputs": [
        {
          "internalType": "uint256",
          "name": "propID",
          "type": "uint256"
        }
      ],
      "stateMutability": "nonpayable",
      "type": "function"
    },
    {
      "inputs": [
        {
          "internalType": "uint256",
          "name": "_propID",
          "type": "uint256"
        }
      ],
      "name": "getProposalInfo",
      "outputs": [
        {
          "internalType": "string",
          "name": "description",
          "type": "string"
        },
        {
          "internalType": "address",
          "name": "voteType",
          "type": "address"
        },
        {
          "internalType": "bytes32",
          "name": "exeID",
          "type": "bytes32"
        },
        {
          "internalType": "enum Proposals.PropState",
          "name": "state",
          "type": "uint8"
        },
        {
          "internalType": "uint256",
          "name": "voteStart",
          "type": "uint256"
        },
        {
          "internalType": "uint256",
          "name": "voteEnd",
          "type": "uint256"
        },
        {
          "internalType": "bool",
          "name": "executedOrCanceled",
          "type": "bool"
        }
      ],
      "stateMutability": "view",
      "type": "function"
    },
    {
      "inputs": [
        {
          "internalType": "uint256",
          "name": "_propID",
          "type": "uint256"
        }
      ],
      "name": "getVoteType",
      "outputs": [
        {
          "internalType": "address",
          "name": "",
          "type": "address"
        }
      ],
      "stateMutability": "view",
      "type": "function"
    },
    {
      "inputs": [
        {
          "internalType": "uint256",
          "name": "_startDelay",
          "type": "uint256"
        },
        {
          "internalType": "uint256",
          "name": "_endDelay",
          "type": "uint256"
        }
      ],
      "name": "updateDelays",
      "outputs": [],
      "stateMutability": "nonpayable",
      "type": "function"
    },
    {
      "inputs": [
        {
          "internalType": "uint256",
          "name": "_newMin",
          "type": "uint256"
        }
      ],
      "name": "updateMinDelay",
      "outputs": [],
      "stateMutability": "nonpayable",
      "type": "function"
    }
  ],
  "bytecode": "0x60c06040523480156200001157600080fd5b506040516200175f3803806200175f8339818101604052810190620000379190620000f9565b7f36209a57dfd79e3872ec3a0c88c653bbe7e32a12306e5e1f92f118c1936ae8b28133600060026101000a81548173ffffffffffffffffffffffffffffffffffffffff021916908373ffffffffffffffffffffffffffffffffffffffff16021790555081608081815250508073ffffffffffffffffffffffffffffffffffffffff1660a08173ffffffffffffffffffffffffffffffffffffffff1660601b815250505050506200017e565b600081519050620000f38162000164565b92915050565b6000602082840312156200011257620001116200015f565b5b60006200012284828501620000e2565b91505092915050565b600062000138826200013f565b9050919050565b600073ffffffffffffffffffffffffffffffffffffffff82169050919050565b600080fd5b6200016f816200012b565b81146200017b57600080fd5b50565b60805160a05160601c611595620001ca600039600081816101f1015281816102e7015281816103b4015281816104bc015281816109560152610bbb015260006101cd01526115956000f3fe608060405234801561001057600080fd5b506004361061007c5760003560e01c806378cbf7e61161005b57806378cbf7e6146100eb5780638a99d5861461011b578063bc903cb814610137578063eaddd0fd1461016d5761007c565b806262104a146100815780633c9747f3146100b15780636aef4909146100cf575b600080fd5b61009b60048036038101906100969190610df8565b61018b565b6040516100a89190611001565b60405180910390f35b6100b96101cb565b6040516100c69190611045565b60405180910390f35b6100e960048036038101906100e49190610e25565b6101ef565b005b61010560048036038101906101009190610d84565b6102e2565b6040516101129190611191565b60405180910390f35b61013560048036038101906101309190610df8565b610954565b005b610151600480360381019061014c9190610df8565b610a2f565b604051610164979695949392919061107b565b60405180910390f35b610175610bb9565b6040516101829190611060565b60405180910390f35b60006001600083815260200190815260200160002060010160009054906101000a900473ffffffffffffffffffffffffffffffffffffffff169050919050565b7f000000000000000000000000000000000000000000000000000000000000000081565b7f000000000000000000000000000000000000000000000000000000000000000073ffffffffffffffffffffffffffffffffffffffff163373ffffffffffffffffffffffffffffffffffffffff161461027d576040517f08c379a0000000000000000000000000000000000000000000000000000000008152600401610274906110f1565b60405180910390fd5b600554821015801561029157506005548110155b6102d0576040517f08c379a00000000000000000000000000000000000000000000000000000000081526004016102c790611111565b60405180910390fd5b81600381905550806004819055505050565b6000807f000000000000000000000000000000000000000000000000000000000000000073ffffffffffffffffffffffffffffffffffffffff1663624a23e07f59e2d72f5870ccddd14d35394bd3c22374071b2da7c07a3d6c3b690400b736286040518263ffffffff1660e01b815260040161035e9190611045565b60206040518083038186803b15801561037657600080fd5b505afa15801561038a573d6000803e3d6000fd5b505050506040513d601f19601f820116820180604052508101906103ae9190610d2a565b905060007f000000000000000000000000000000000000000000000000000000000000000073ffffffffffffffffffffffffffffffffffffffff1663624a23e07fd578563424ab02f85ec03c6b1aee04947ebdd4a30db46cba3bcd7f56ef40b1996040518263ffffffff1660e01b815260040161042b9190611045565b60206040518083038186803b15801561044357600080fd5b505afa158015610457573d6000803e3d6000fd5b505050506040513d601f19601f8201168201806040525081019061047b9190610d2a565b90506001600260008282546104909190611206565b92505081905550600254925060008173ffffffffffffffffffffffffffffffffffffffff1663701370dc7f000000000000000000000000000000000000000000000000000000000000000073ffffffffffffffffffffffffffffffffffffffff1663624a23e07f346b2ab3a980432fd8f2e24828fc9f9ee2df1548701bc542f6ec17882b3276276040518263ffffffff1660e01b81526004016105339190611045565b60206040518083038186803b15801561054b57600080fd5b505afa15801561055f573d6000803e3d6000fd5b505050506040513d601f19601f820116820180604052508101906105839190610d2a565b886040518363ffffffff1660e01b81526004016105a192919061101c565b60206040518083038186803b1580156105b957600080fd5b505afa1580156105cd573d6000803e3d6000fd5b505050506040513d601f19601f820116820180604052508101906105f19190610d2a565b9050600073ffffffffffffffffffffffffffffffffffffffff168173ffffffffffffffffffffffffffffffffffffffff161415610663576040517f08c379a000000000000000000000000000000000000000000000000000000000815260040161065a90611171565b60405180910390fd5b60008486604051602001610678929190610fd5565b604051602081830303815290604052905060008473ffffffffffffffffffffffffffffffffffffffff1663295adadf8789856040518463ffffffff1660e01b81526004016106c8939291906111ac565b602060405180830381600087803b1580156106e257600080fd5b505af11580156106f6573d6000803e3d6000fd5b505050506040513d601f19601f8201168201806040525081019061071a9190610d57565b90506000801b811415610762576040517f08c379a000000000000000000000000000000000000000000000000000000000815260040161075990611131565b60405180910390fd5b6000600354426107729190611206565b90506040518060e001604052808c8c8080601f016020809104026020016040519081016040528093929190818152602001838380828437600081840152601f19601f8201169050808301925050505050505081526020018573ffffffffffffffffffffffffffffffffffffffff168152602001838152602001600160088111156107ff576107fe6113b1565b5b8152602001828152602001600454836108189190611206565b815260200160001515815250600160008981526020019081526020016000206000820151816000019080519060200190610853929190610bdd565b5060208201518160010160006101000a81548173ffffffffffffffffffffffffffffffffffffffff021916908373ffffffffffffffffffffffffffffffffffffffff1602179055506040820151816002015560608201518160030160006101000a81548160ff021916908360088111156108d0576108cf6113b1565b5b02179055506080820151816004015560a0820151816005015560c08201518160060160006101000a81548160ff021916908315150217905550905050867f782ad24bfb2592c2db8ec384bf93db57c8c631ca93227f9419c9d185d4de793d858460405161093e92919061101c565b60405180910390a2505050505050949350505050565b7f000000000000000000000000000000000000000000000000000000000000000073ffffffffffffffffffffffffffffffffffffffff163373ffffffffffffffffffffffffffffffffffffffff16146109e2576040517f08c379a00000000000000000000000000000000000000000000000000000000081526004016109d9906110f1565b60405180910390fd5b600f8111610a25576040517f08c379a0000000000000000000000000000000000000000000000000000000008152600401610a1c90611151565b60405180910390fd5b8060058190555050565b606060008060008060008060016000898152602001908152602001600020600001600160008a815260200190815260200160002060010160009054906101000a900473ffffffffffffffffffffffffffffffffffffffff16600160008b815260200190815260200160002060020154600160008c815260200190815260200160002060030160009054906101000a900460ff16600160008d815260200190815260200160002060040154600160008e815260200190815260200160002060050154600160008f815260200190815260200160002060060160009054906101000a900460ff16868054610b209061133c565b80601f0160208091040260200160405190810160405280929190818152602001828054610b4c9061133c565b8015610b995780601f10610b6e57610100808354040283529160200191610b99565b820191906000526020600020905b815481529060010190602001808311610b7c57829003601f168201915b505050505096509650965096509650965096509650919395979092949650565b7f000000000000000000000000000000000000000000000000000000000000000081565b828054610be99061133c565b90600052602060002090601f016020900481019282610c0b5760008555610c52565b82601f10610c2457805160ff1916838001178555610c52565b82800160010185558215610c52579182015b82811115610c51578251825591602001919060010190610c36565b5b509050610c5f9190610c63565b5090565b5b80821115610c7c576000816000905550600101610c64565b5090565b600081519050610c8f8161151a565b92915050565b600081359050610ca481611531565b92915050565b600081519050610cb981611531565b92915050565b60008083601f840112610cd557610cd4611414565b5b8235905067ffffffffffffffff811115610cf257610cf161140f565b5b602083019150836001820283011115610d0e57610d0d611419565b5b9250929050565b600081359050610d2481611548565b92915050565b600060208284031215610d4057610d3f611423565b5b6000610d4e84828501610c80565b91505092915050565b600060208284031215610d6d57610d6c611423565b5b6000610d7b84828501610caa565b91505092915050565b60008060008060608587031215610d9e57610d9d611423565b5b600085013567ffffffffffffffff811115610dbc57610dbb61141e565b5b610dc887828801610cbf565b94509450506020610ddb87828801610c95565b9250506040610dec87828801610c95565b91505092959194509250565b600060208284031215610e0e57610e0d611423565b5b6000610e1c84828501610d15565b91505092915050565b60008060408385031215610e3c57610e3b611423565b5b6000610e4a85828601610d15565b9250506020610e5b85828601610d15565b9150509250929050565b610e6e8161125c565b82525050565b610e7d8161126e565b82525050565b610e8c8161127a565b82525050565b610ea3610e9e8261127a565b61136e565b82525050565b610eb2816112c1565b82525050565b610ec1816112d3565b82525050565b6000610ed2826111ea565b610edc81856111f5565b9350610eec818560208601611309565b610ef581611428565b840191505092915050565b6000610f0d601c836111f5565b9150610f1882611439565b602082019050919050565b6000610f306018836111f5565b9150610f3b82611462565b602082019050919050565b6000610f536018836111f5565b9150610f5e8261148b565b602082019050919050565b6000610f766015836111f5565b9150610f81826114b4565b602082019050919050565b6000610f996017836111f5565b9150610fa4826114dd565b602082019050919050565b610fb8816112b7565b82525050565b610fcf610fca826112b7565b611378565b82525050565b6000610fe18285610fbe565b602082019150610ff18284610e92565b6020820191508190509392505050565b60006020820190506110166000830184610e65565b92915050565b60006040820190506110316000830185610e65565b61103e6020830184610e83565b9392505050565b600060208201905061105a6000830184610e83565b92915050565b60006020820190506110756000830184610ea9565b92915050565b600060e0820190508181036000830152611095818a610ec7565b90506110a46020830189610e65565b6110b16040830188610e83565b6110be6060830187610eb8565b6110cb6080830186610faf565b6110d860a0830185610faf565b6110e560c0830184610e74565b98975050505050505050565b6000602082019050818103600083015261110a81610f00565b9050919050565b6000602082019050818103600083015261112a81610f23565b9050919050565b6000602082019050818103600083015261114a81610f46565b9050919050565b6000602082019050818103600083015261116a81610f69565b9050919050565b6000602082019050818103600083015261118a81610f8c565b9050919050565b60006020820190506111a66000830184610faf565b92915050565b60006060820190506111c16000830186610faf565b6111ce6020830185610e83565b81810360408301526111e08184610ec7565b9050949350505050565b600081519050919050565b600082825260208201905092915050565b6000611211826112b7565b915061121c836112b7565b9250827fffffffffffffffffffffffffffffffffffffffffffffffffffffffffffffffff0382111561125157611250611382565b5b828201905092915050565b600061126782611297565b9050919050565b60008115159050919050565b6000819050919050565b600081905061129282611506565b919050565b600073ffffffffffffffffffffffffffffffffffffffff82169050919050565b6000819050919050565b60006112cc826112e5565b9050919050565b60006112de82611284565b9050919050565b60006112f0826112f7565b9050919050565b600061130282611297565b9050919050565b60005b8381101561132757808201518184015260208101905061130c565b83811115611336576000848401525b50505050565b6000600282049050600182168061135457607f821691505b60208210811415611368576113676113e0565b5b50919050565b6000819050919050565b6000819050919050565b7f4e487b7100000000000000000000000000000000000000000000000000000000600052601160045260246000fd5b7f4e487b7100000000000000000000000000000000000000000000000000000000600052602160045260246000fd5b7f4e487b7100000000000000000000000000000000000000000000000000000000600052602260045260246000fd5b600080fd5b600080fd5b600080fd5b600080fd5b600080fd5b6000601f19601f8301169050919050565b7f53797374656d3a204f6e6c7920636f72652063616e206d6f6469667900000000600082015250565b7f50726f703a2064656c6179732063616e6e6f7420626520300000000000000000600082015250565b7f50726f703a2045786520646f6573206e6f742065786973740000000000000000600082015250565b7f50726f703a206d696e2063616e6e6f7420626520300000000000000000000000600082015250565b7f50726f703a20496e76616c696420766f74652074797065000000000000000000600082015250565b60098110611517576115166113b1565b5b50565b6115238161125c565b811461152e57600080fd5b50565b61153a8161127a565b811461154557600080fd5b50565b611551816112b7565b811461155c57600080fd5b5056fea264697066735822122041a537601df393fe182ac57d37daa709194c81fac79164b8d6e6c82067854f9e64736f6c63430008070033",
  "linkReferences": {},
  "deployedLinkReferences": {}
}