{
  "_format": "hh-sol-artifact-1",
  "contractName": "Proposals",
  "sourceName": "contracts/Proposals.sol",
  "abi": [
    {
      "inputs": [
        {
          "internalType": "address",
          "name": "_core",
          "type": "address"
        }
      ],
      "stateMutability": "nonpayable",
      "type": "constructor"
    },
    {
      "inputs": [
        {
          "internalType": "string",
          "name": "_description",
          "type": "string"
        },
        {
          "internalType": "bytes32",
          "name": "_voteType",
          "type": "bytes32"
        },
        {
          "internalType": "bytes32",
          "name": "_consensusType",
          "type": "bytes32"
        },
        {
          "internalType": "bytes32",
          "name": "_exeID",
          "type": "bytes32"
        }
      ],
      "name": "createPropWithExe",
      "outputs": [
        {
          "internalType": "uint256",
          "name": "propID",
          "type": "uint256"
        }
      ],
      "stateMutability": "nonpayable",
      "type": "function"
    }
  ],
  "bytecode": "0x60806040523480156200001157600080fd5b5060405162000ac138038062000ac18339818101604052810190620000379190620001b2565b806000806101000a81548173ffffffffffffffffffffffffffffffffffffffff021916908373ffffffffffffffffffffffffffffffffffffffff1602179055507f907208bc2088fa777f18b43edd8b766e7243504cf8497f7ed936c65c7a446bbc60008054906101000a900473ffffffffffffffffffffffffffffffffffffffff1673ffffffffffffffffffffffffffffffffffffffff16633c9747f36040518163ffffffff1660e01b815260040160206040518083038186803b158015620000ff57600080fd5b505afa15801562000114573d6000803e3d6000fd5b505050506040513d601f19601f820116820180604052508101906200013a9190620001e4565b146200017d576040517f08c379a000000000000000000000000000000000000000000000000000000000815260040162000174906200023d565b60405180910390fd5b5062000310565b6000815190506200019581620002dc565b92915050565b600081519050620001ac81620002f6565b92915050565b600060208284031215620001cb57620001ca620002ae565b5b6000620001db8482850162000184565b91505092915050565b600060208284031215620001fd57620001fc620002ae565b5b60006200020d848285016200019b565b91505092915050565b600062000225601a836200025f565b91506200023282620002b3565b602082019050919050565b60006020820190508181036000830152620002588162000216565b9050919050565b600082825260208201905092915050565b60006200027d826200028e565b9050919050565b6000819050919050565b600073ffffffffffffffffffffffffffffffffffffffff82169050919050565b600080fd5b7f436f72653a206964656e74696669657220696e636f7272656374000000000000600082015250565b620002e78162000270565b8114620002f357600080fd5b50565b620003018162000284565b81146200030d57600080fd5b50565b6107a180620003206000396000f3fe608060405234801561001057600080fd5b506004361061002b5760003560e01c8063797efb1314610030575b600080fd5b61004a60048036038101906100459190610476565b610060565b604051610057919061057a565b60405180910390f35b60008060008054906101000a900473ffffffffffffffffffffffffffffffffffffffff1673ffffffffffffffffffffffffffffffffffffffff1663624a23e07f59e2d72f5870ccddd14d35394bd3c22374071b2da7c07a3d6c3b690400b736286040518263ffffffff1660e01b81526004016100dc919061053f565b60206040518083038186803b1580156100f457600080fd5b505afa158015610108573d6000803e3d6000fd5b505050506040513d601f19601f8201168201806040525081019061012c919061041c565b9050600180600082825461014091906105cf565b92505081905550600154915060008173ffffffffffffffffffffffffffffffffffffffff1663204d67b584866040518363ffffffff1660e01b8152600401610189929190610595565b602060405180830381600087803b1580156101a357600080fd5b505af11580156101b7573d6000803e3d6000fd5b505050506040513d601f19601f820116820180604052508101906101db9190610449565b90506000801b811415610223576040517f08c379a000000000000000000000000000000000000000000000000000000000815260040161021a9061055a565b60405180910390fd5b604051806080016040528089898080601f016020809104026020016040519081016040528093929190818152602001838380828437600081840152601f19601f820116905080830192505050505050508152602001878152602001868152602001828152506002600085815260200190815260200160002060008201518160000190805190602001906102b79291906102e4565b50602082015181600101556040820151816002015560608201518160030155905050505095945050505050565b8280546102f09061066b565b90600052602060002090601f0160209004810192826103125760008555610359565b82601f1061032b57805160ff1916838001178555610359565b82800160010185558215610359579182015b8281111561035857825182559160200191906001019061033d565b5b509050610366919061036a565b5090565b5b8082111561038357600081600090555060010161036b565b5090565b6000815190506103968161073d565b92915050565b6000813590506103ab81610754565b92915050565b6000815190506103c081610754565b92915050565b60008083601f8401126103dc576103db610700565b5b8235905067ffffffffffffffff8111156103f9576103f86106fb565b5b60208301915083600182028301111561041557610414610705565b5b9250929050565b6000602082840312156104325761043161070f565b5b600061044084828501610387565b91505092915050565b60006020828403121561045f5761045e61070f565b5b600061046d848285016103b1565b91505092915050565b6000806000806000608086880312156104925761049161070f565b5b600086013567ffffffffffffffff8111156104b0576104af61070a565b5b6104bc888289016103c6565b955095505060206104cf8882890161039c565b93505060406104e08882890161039c565b92505060606104f18882890161039c565b9150509295509295909350565b61050781610637565b82525050565b600061051a6018836105be565b915061052582610714565b602082019050919050565b61053981610661565b82525050565b600060208201905061055460008301846104fe565b92915050565b600060208201905081810360008301526105738161050d565b9050919050565b600060208201905061058f6000830184610530565b92915050565b60006040820190506105aa6000830185610530565b6105b760208301846104fe565b9392505050565b600082825260208201905092915050565b60006105da82610661565b91506105e583610661565b9250827fffffffffffffffffffffffffffffffffffffffffffffffffffffffffffffffff0382111561061a5761061961069d565b5b828201905092915050565b600061063082610641565b9050919050565b6000819050919050565b600073ffffffffffffffffffffffffffffffffffffffff82169050919050565b6000819050919050565b6000600282049050600182168061068357607f821691505b60208210811415610697576106966106cc565b5b50919050565b7f4e487b7100000000000000000000000000000000000000000000000000000000600052601160045260246000fd5b7f4e487b7100000000000000000000000000000000000000000000000000000000600052602260045260246000fd5b600080fd5b600080fd5b600080fd5b600080fd5b600080fd5b7f436f72653a2045786520646f6573206e6f742065786973740000000000000000600082015250565b61074681610625565b811461075157600080fd5b50565b61075d81610637565b811461076857600080fd5b5056fea264697066735822122092898965cf8599ae0b71ea8ad9be19051df31cd0f94da823ff8399551a5b284464736f6c63430008070033",
  "linkReferences": {},
  "deployedLinkReferences": {}
}